{"contracts/Escrow.sol":{"Escrow":{"abi":[{"inputs":[{"internalType":"address","name":"_propertyToken","type":"address"},{"internalType":"address","name":"_founderWallet","type":"address"}],"stateMutability":"nonpayable","type":"constructor"},{"inputs":[],"name":"AccessControlBadConfirmation","type":"error"},{"inputs":[{"internalType":"address","name":"account","type":"address"},{"internalType":"bytes32","name":"neededRole","type":"bytes32"}],"name":"AccessControlUnauthorizedAccount","type":"error"},{"inputs":[],"name":"EnforcedPause","type":"error"},{"inputs":[],"name":"ExpectedPause","type":"error"},{"inputs":[],"name":"ReentrancyGuardReentrantCall","type":"error"},{"anonymous":false,"inputs":[{"indexed":true,"internalType":"uint256","name":"propertyId","type":"uint256"},{"indexed":true,"internalType":"address","name":"buyer","type":"address"},{"indexed":false,"internalType":"uint256","name":"amount","type":"uint256"},{"indexed":false,"internalType":"uint256","name":"totalPaid","type":"uint256"},{"indexed":false,"internalType":"bytes32","name":"transactionHash","type":"bytes32"}],"name":"CompliancePurchaseRecorded","type":"event"},{"anonymous":false,"inputs":[{"indexed":true,"internalType":"uint256","name":"propertyId","type":"uint256"},{"indexed":false,"internalType":"uint256","name":"impactScore","type":"uint256"},{"indexed":false,"internalType":"string","name":"reason","type":"string"}],"name":"FounderFeeSkipped","type":"event"},{"anonymous":false,"inputs":[{"indexed":true,"internalType":"uint256","name":"propertyId","type":"uint256"},{"indexed":true,"internalType":"address","name":"founder","type":"address"},{"indexed":false,"internalType":"uint256","name":"amount","type":"uint256"},{"indexed":false,"internalType":"uint256","name":"impactScore","type":"uint256"}],"name":"FounderFundingFeePaid","type":"event"},{"anonymous":false,"inputs":[{"indexed":true,"internalType":"uint256","name":"propertyId","type":"uint256"},{"indexed":false,"internalType":"uint256","name":"totalRaised","type":"uint256"},{"indexed":false,"internalType":"uint256","name":"projectBudget","type":"uint256"}],"name":"FundingComplete","type":"event"},{"anonymous":false,"inputs":[{"indexed":true,"internalType":"uint256","name":"propertyId","type":"uint256"},{"indexed":false,"internalType":"uint256","name":"totalRaised","type":"uint256"},{"indexed":false,"internalType":"uint256","name":"target","type":"uint256"}],"name":"FundingFailed","type":"event"},{"anonymous":false,"inputs":[{"indexed":true,"internalType":"uint256","name":"propertyId","type":"uint256"},{"indexed":true,"internalType":"address","name":"recipient","type":"address"},{"indexed":false,"internalType":"uint256","name":"amount","type":"uint256"}],"name":"FundsReleased","type":"event"},{"anonymous":false,"inputs":[{"indexed":true,"internalType":"uint256","name":"propertyId","type":"uint256"},{"indexed":false,"internalType":"uint256","name":"amount","type":"uint256"},{"indexed":false,"internalType":"string","name":"incomeType","type":"string"}],"name":"IncomeDeposited","type":"event"},{"anonymous":false,"inputs":[{"indexed":true,"internalType":"uint256","name":"propertyId","type":"uint256"},{"indexed":true,"internalType":"address","name":"investor","type":"address"},{"indexed":false,"internalType":"uint256","name":"currentContribution","type":"uint256"},{"indexed":false,"internalType":"uint256","name":"newContribution","type":"uint256"},{"indexed":false,"internalType":"bool","name":"withinLimit","type":"bool"}],"name":"InvestorLimitChecked","type":"event"},{"anonymous":false,"inputs":[{"indexed":false,"internalType":"address","name":"account","type":"address"}],"name":"Paused","type":"event"},{"anonymous":false,"inputs":[{"indexed":true,"internalType":"uint256","name":"propertyId","type":"uint256"},{"indexed":false,"internalType":"uint256","name":"demandScore","type":"uint256"},{"indexed":false,"internalType":"uint256","name":"adjustedTarget","type":"uint256"}],"name":"PollDemandUpdated","type":"event"},{"anonymous":false,"inputs":[{"indexed":true,"internalType":"uint256","name":"propertyId","type":"uint256"},{"indexed":true,"internalType":"address","name":"buyer","type":"address"},{"indexed":false,"internalType":"uint256","name":"amount","type":"uint256"},{"indexed":false,"internalType":"uint256","name":"totalPaid","type":"uint256"},{"indexed":false,"internalType":"uint256","name":"timestamp","type":"uint256"}],"name":"PurchaseReceived","type":"event"},{"anonymous":false,"inputs":[{"indexed":true,"internalType":"uint256","name":"propertyId","type":"uint256"},{"indexed":false,"internalType":"uint256","name":"totalIncome","type":"uint256"},{"indexed":false,"internalType":"uint256","name":"founderShare","type":"uint256"},{"indexed":false,"internalType":"uint256","name":"investorShare","type":"uint256"},{"indexed":false,"internalType":"uint256","name":"timestamp","type":"uint256"}],"name":"QuarterlyDistribution","type":"event"},{"anonymous":false,"inputs":[{"indexed":true,"internalType":"uint256","name":"propertyId","type":"uint256"},{"indexed":true,"internalType":"address","name":"recipient","type":"address"},{"indexed":false,"internalType":"uint256","name":"principal","type":"uint256"},{"indexed":false,"internalType":"uint256","name":"interest","type":"uint256"},{"indexed":false,"internalType":"uint256","name":"timestamp","type":"uint256"}],"name":"RefundComplianceRecorded","type":"event"},{"anonymous":false,"inputs":[{"indexed":true,"internalType":"uint256","name":"propertyId","type":"uint256"},{"indexed":true,"internalType":"address","name":"buyer","type":"address"},{"indexed":false,"internalType":"uint256","name":"principal","type":"uint256"},{"indexed":false,"internalType":"uint256","name":"interest","type":"uint256"},{"indexed":false,"internalType":"uint256","name":"total","type":"uint256"}],"name":"RefundProcessed","type":"event"},{"anonymous":false,"inputs":[{"indexed":true,"internalType":"bytes32","name":"role","type":"bytes32"},{"indexed":true,"internalType":"bytes32","name":"previousAdminRole","type":"bytes32"},{"indexed":true,"internalType":"bytes32","name":"newAdminRole","type":"bytes32"}],"name":"RoleAdminChanged","type":"event"},{"anonymous":false,"inputs":[{"indexed":true,"internalType":"bytes32","name":"role","type":"bytes32"},{"indexed":true,"internalType":"address","name":"account","type":"address"},{"indexed":true,"internalType":"address","name":"sender","type":"address"}],"name":"RoleGranted","type":"event"},{"anonymous":false,"inputs":[{"indexed":true,"internalType":"bytes32","name":"role","type":"bytes32"},{"indexed":true,"internalType":"address","name":"account","type":"address"},{"indexed":true,"internalType":"address","name":"sender","type":"address"}],"name":"RoleRevoked","type":"event"},{"anonymous":false,"inputs":[{"indexed":true,"internalType":"uint256","name":"propertyId","type":"uint256"},{"indexed":true,"internalType":"address","name":"account","type":"address"},{"indexed":false,"internalType":"string","name":"activityType","type":"string"},{"indexed":false,"internalType":"uint256","name":"timestamp","type":"uint256"}],"name":"SuspiciousActivityReported","type":"event"},{"anonymous":false,"inputs":[{"indexed":false,"internalType":"address","name":"account","type":"address"}],"name":"Unpaused","type":"event"},{"inputs":[],"name":"AML_THRESHOLD","outputs":[{"internalType":"uint256","name":"","type":"uint256"}],"stateMutability":"view","type":"function"},{"inputs":[],"name":"BASIS_POINTS","outputs":[{"internalType":"uint256","name":"","type":"uint256"}],"stateMutability":"view","type":"function"},{"inputs":[],"name":"DEFAULT_ADMIN_ROLE","outputs":[{"internalType":"bytes32","name":"","type":"bytes32"}],"stateMutability":"view","type":"function"},{"inputs":[],"name":"FOUNDER_FEE_BPS","outputs":[{"internalType":"uint256","name":"","type":"uint256"}],"stateMutability":"view","type":"function"},{"inputs":[],"name":"MAX_DEMAND_BONUS","outputs":[{"internalType":"uint256","name":"","type":"uint256"}],"stateMutability":"view","type":"function"},{"inputs":[],"name":"MIN_IMPACT_SCORE","outputs":[{"internalType":"uint256","name":"","type":"uint256"}],"stateMutability":"view","type":"function"},{"inputs":[],"name":"OPERATOR_ROLE","outputs":[{"internalType":"bytes32","name":"","type":"bytes32"}],"stateMutability":"view","type":"function"},{"inputs":[],"name":"QUARTERLY_INTERVAL","outputs":[{"internalType":"uint256","name":"","type":"uint256"}],"stateMutability":"view","type":"function"},{"inputs":[],"name":"REFUND_APR","outputs":[{"internalType":"uint256","name":"","type":"uint256"}],"stateMutability":"view","type":"function"},{"inputs":[],"name":"SECONDS_PER_YEAR","outputs":[{"internalType":"uint256","name":"","type":"uint256"}],"stateMutability":"view","type":"function"},{"inputs":[{"internalType":"uint256","name":"","type":"uint256"}],"name":"activeProperties","outputs":[{"internalType":"uint256","name":"","type":"uint256"}],"stateMutability":"view","type":"function"},{"inputs":[],"name":"amlOracle","outputs":[{"internalType":"contract IAMLOracle","name":"","type":"address"}],"stateMutability":"view","type":"function"},{"inputs":[{"internalType":"uint256","name":"","type":"uint256"}],"name":"baseFundingTargets","outputs":[{"internalType":"uint256","name":"","type":"uint256"}],"stateMutability":"view","type":"function"},{"inputs":[{"internalType":"uint256","name":"","type":"uint256"},{"internalType":"address","name":"","type":"address"}],"name":"buyerContributions","outputs":[{"internalType":"uint256","name":"","type":"uint256"}],"stateMutability":"view","type":"function"},{"inputs":[{"internalType":"uint256","name":"principal","type":"uint256"},{"internalType":"uint256","name":"investmentTimestamp","type":"uint256"}],"name":"calculateRefund","outputs":[{"internalType":"uint256","name":"","type":"uint256"}],"stateMutability":"view","type":"function"},{"inputs":[{"internalType":"bytes","name":"","type":"bytes"}],"name":"checkUpkeep","outputs":[{"internalType":"bool","name":"upkeepNeeded","type":"bool"},{"internalType":"bytes","name":"performData","type":"bytes"}],"stateMutability":"view","type":"function"},{"inputs":[{"internalType":"uint256","name":"propertyId","type":"uint256"},{"internalType":"string","name":"incomeType","type":"string"}],"name":"depositIncome","outputs":[],"stateMutability":"payable","type":"function"},{"inputs":[],"name":"founderWallet","outputs":[{"internalType":"address","name":"","type":"address"}],"stateMutability":"view","type":"function"},{"inputs":[{"internalType":"uint256","name":"","type":"uint256"}],"name":"fundedProperties","outputs":[{"internalType":"uint256","name":"","type":"uint256"}],"stateMutability":"view","type":"function"},{"inputs":[{"internalType":"uint256","name":"propertyId","type":"uint256"}],"name":"getDemandAdjustedTarget","outputs":[{"internalType":"uint256","name":"baseTarget","type":"uint256"},{"internalType":"uint256","name":"adjustedTarget","type":"uint256"},{"internalType":"uint256","name":"demandScore","type":"uint256"}],"stateMutability":"view","type":"function"},{"inputs":[{"internalType":"uint256","name":"propertyId","type":"uint256"}],"name":"getEscrowStatus","outputs":[{"internalType":"uint256","name":"totalRaised","type":"uint256"},{"internalType":"uint256","name":"fundingTarget","type":"uint256"},{"internalType":"uint256","name":"projectBudget","type":"uint256"},{"internalType":"uint256","name":"deadline","type":"uint256"},{"internalType":"bool","name":"isComplete","type":"bool"},{"internalType":"bool","name":"founderFeePaid","type":"bool"},{"internalType":"uint256","name":"percentFunded","type":"uint256"}],"stateMutability":"view","type":"function"},{"inputs":[{"internalType":"uint256","name":"propertyId","type":"uint256"},{"internalType":"address","name":"investor","type":"address"}],"name":"getInvestorContribution","outputs":[{"internalType":"uint256","name":"","type":"uint256"}],"stateMutability":"view","type":"function"},{"inputs":[{"internalType":"uint256","name":"propertyId","type":"uint256"}],"name":"getPurchaseCount","outputs":[{"internalType":"uint256","name":"","type":"uint256"}],"stateMutability":"view","type":"function"},{"inputs":[{"internalType":"uint256","name":"propertyId","type":"uint256"},{"internalType":"uint256","name":"index","type":"uint256"}],"name":"getPurchaseForAudit","outputs":[{"internalType":"address","name":"buyer","type":"address"},{"internalType":"uint256","name":"amount","type":"uint256"},{"internalType":"uint256","name":"price","type":"uint256"},{"internalType":"uint256","name":"totalPaid","type":"uint256"},{"internalType":"uint256","name":"timestamp","type":"uint256"},{"internalType":"bool","name":"refunded","type":"bool"}],"stateMutability":"view","type":"function"},{"inputs":[{"internalType":"uint256","name":"propertyId","type":"uint256"}],"name":"getPurchases","outputs":[{"components":[{"internalType":"address","name":"buyer","type":"address"},{"internalType":"uint256","name":"propertyId","type":"uint256"},{"internalType":"uint256","name":"amount","type":"uint256"},{"internalType":"uint256","name":"price","type":"uint256"},{"internalType":"uint256","name":"totalPaid","type":"uint256"},{"internalType":"uint256","name":"timestamp","type":"uint256"},{"internalType":"bool","name":"refunded","type":"bool"}],"internalType":"struct Escrow.Purchase[]","name":"","type":"tuple[]"}],"stateMutability":"view","type":"function"},{"inputs":[{"internalType":"uint256","name":"propertyId","type":"uint256"}],"name":"getQuarterlyState","outputs":[{"internalType":"uint256","name":"lastDistribution","type":"uint256"},{"internalType":"uint256","name":"pendingIncome","type":"uint256"},{"internalType":"uint256","name":"nextDistribution","type":"uint256"},{"internalType":"bool","name":"isTracked","type":"bool"}],"stateMutability":"view","type":"function"},{"inputs":[{"internalType":"bytes32","name":"role","type":"bytes32"}],"name":"getRoleAdmin","outputs":[{"internalType":"bytes32","name":"","type":"bytes32"}],"stateMutability":"view","type":"function"},{"inputs":[],"name":"governanceContract","outputs":[{"internalType":"address","name":"","type":"address"}],"stateMutability":"view","type":"function"},{"inputs":[{"internalType":"bytes32","name":"role","type":"bytes32"},{"internalType":"address","name":"account","type":"address"}],"name":"grantRole","outputs":[],"stateMutability":"nonpayable","type":"function"},{"inputs":[{"internalType":"bytes32","name":"role","type":"bytes32"},{"internalType":"address","name":"account","type":"address"}],"name":"hasRole","outputs":[{"internalType":"bool","name":"","type":"bool"}],"stateMutability":"view","type":"function"},{"inputs":[{"internalType":"uint256","name":"propertyId","type":"uint256"},{"internalType":"uint256","name":"projectBudget","type":"uint256"},{"internalType":"uint256","name":"deadline","type":"uint256"},{"internalType":"uint256","name":"proposalId","type":"uint256"}],"name":"initializeEscrow","outputs":[],"stateMutability":"nonpayable","type":"function"},{"inputs":[{"internalType":"uint256","name":"","type":"uint256"}],"name":"isPropertyActive","outputs":[{"internalType":"bool","name":"","type":"bool"}],"stateMutability":"view","type":"function"},{"inputs":[{"internalType":"uint256","name":"","type":"uint256"}],"name":"isPropertyFunded","outputs":[{"internalType":"bool","name":"","type":"bool"}],"stateMutability":"view","type":"function"},{"inputs":[],"name":"pause","outputs":[],"stateMutability":"nonpayable","type":"function"},{"inputs":[],"name":"paused","outputs":[{"internalType":"bool","name":"","type":"bool"}],"stateMutability":"view","type":"function"},{"inputs":[{"internalType":"bytes","name":"performData","type":"bytes"}],"name":"performUpkeep","outputs":[],"stateMutability":"nonpayable","type":"function"},{"inputs":[{"internalType":"uint256","name":"","type":"uint256"}],"name":"pollDemandScores","outputs":[{"internalType":"uint256","name":"","type":"uint256"}],"stateMutability":"view","type":"function"},{"inputs":[{"internalType":"uint256","name":"propertyId","type":"uint256"}],"name":"processRefunds","outputs":[],"stateMutability":"nonpayable","type":"function"},{"inputs":[{"internalType":"uint256","name":"","type":"uint256"}],"name":"propertyEscrows","outputs":[{"internalType":"uint256","name":"totalRaised","type":"uint256"},{"internalType":"uint256","name":"fundingTarget","type":"uint256"},{"internalType":"uint256","name":"projectBudget","type":"uint256"},{"internalType":"uint256","name":"deadline","type":"uint256"},{"internalType":"bool","name":"isComplete","type":"bool"},{"internalType":"bool","name":"refundsProcessed","type":"bool"},{"internalType":"bool","name":"founderFeePaid","type":"bool"},{"internalType":"uint256","name":"proposalId","type":"uint256"}],"stateMutability":"view","type":"function"},{"inputs":[{"internalType":"uint256","name":"","type":"uint256"},{"internalType":"uint256","name":"","type":"uint256"}],"name":"propertyPurchases","outputs":[{"internalType":"address","name":"buyer","type":"address"},{"internalType":"uint256","name":"propertyId","type":"uint256"},{"internalType":"uint256","name":"amount","type":"uint256"},{"internalType":"uint256","name":"price","type":"uint256"},{"internalType":"uint256","name":"totalPaid","type":"uint256"},{"internalType":"uint256","name":"timestamp","type":"uint256"},{"internalType":"bool","name":"refunded","type":"bool"}],"stateMutability":"view","type":"function"},{"inputs":[],"name":"propertyToken","outputs":[{"internalType":"contract IPropertyToken","name":"","type":"address"}],"stateMutability":"view","type":"function"},{"inputs":[{"internalType":"uint256","name":"propertyId","type":"uint256"},{"internalType":"uint256","name":"amount","type":"uint256"}],"name":"purchase","outputs":[],"stateMutability":"payable","type":"function"},{"inputs":[{"internalType":"uint256","name":"","type":"uint256"}],"name":"quarterlyStates","outputs":[{"internalType":"uint256","name":"lastDistribution","type":"uint256"},{"internalType":"uint256","name":"pendingIncome","type":"uint256"},{"internalType":"bool","name":"isTracked","type":"bool"}],"stateMutability":"view","type":"function"},{"inputs":[{"internalType":"uint256","name":"propertyId","type":"uint256"},{"internalType":"address","name":"recipient","type":"address"}],"name":"releaseFunds","outputs":[],"stateMutability":"nonpayable","type":"function"},{"inputs":[{"internalType":"bytes32","name":"role","type":"bytes32"},{"internalType":"address","name":"callerConfirmation","type":"address"}],"name":"renounceRole","outputs":[],"stateMutability":"nonpayable","type":"function"},{"inputs":[{"internalType":"uint256","name":"propertyId","type":"uint256"},{"internalType":"address","name":"account","type":"address"},{"internalType":"string","name":"activityType","type":"string"}],"name":"reportSuspiciousActivity","outputs":[],"stateMutability":"nonpayable","type":"function"},{"inputs":[{"internalType":"bytes32","name":"role","type":"bytes32"},{"internalType":"address","name":"account","type":"address"}],"name":"revokeRole","outputs":[],"stateMutability":"nonpayable","type":"function"},{"inputs":[{"internalType":"address","name":"_oracle","type":"address"}],"name":"setAMLOracle","outputs":[],"stateMutability":"nonpayable","type":"function"},{"inputs":[{"internalType":"address","name":"_governance","type":"address"}],"name":"setGovernanceContract","outputs":[],"stateMutability":"nonpayable","type":"function"},{"inputs":[{"internalType":"bytes4","name":"interfaceId","type":"bytes4"}],"name":"supportsInterface","outputs":[{"internalType":"bool","name":"","type":"bool"}],"stateMutability":"view","type":"function"},{"inputs":[],"name":"unpause","outputs":[],"stateMutability":"nonpayable","type":"function"},{"inputs":[{"internalType":"uint256","name":"propertyId","type":"uint256"},{"internalType":"uint256","name":"demandScore","type":"uint256"}],"name":"updatePollDemand","outputs":[],"stateMutability":"nonpayable","type":"function"},{"stateMutability":"payable","type":"receive"}],"evm":{"bytecode":{"linkReferences":{},"object":"60a0346200011a57601f62002ff638819003918201601f19168301916001600160401b038311848410176200011f5780849260409485528339810103126200011a576200005a6020620000528362000135565b920162000135565b6001805560025490916001600160a01b03831615620000d5576001600160a81b031990911660089190911b610100600160a81b031617600255608052620000a1336200014a565b50620000ad33620001ca565b50604051612d6990816200026d8239608051818181610c4b015281816113ef0152611f560152f35b60405162461bcd60e51b815260206004820152601760248201527f466f756e6465722077616c6c65742072657175697265640000000000000000006044820152606490fd5b600080fd5b634e487b7160e01b600052604160045260246000fd5b51906001600160a01b03821682036200011a57565b6001600160a01b031660008181527fad3228b676f7d3cd4284a5443f17f1962b36e491b30a40b2405849e597ba5fb5602052604081205490919060ff16620001c657818052816020526040822081835260205260408220600160ff19825416179055339160008051602062002fd68339815191528180a4600190565b5090565b6001600160a01b031660008181527fee57cd81e84075558e8fcc182a1f4393f91fc97f963a136e66b7f949a62f319f60205260408120549091907f97667070c54ef182b0f5858b034beac1b6f3089aa2d3188bb1e8929f4fa9b9299060ff166200026757808352826020526040832082845260205260408320600160ff1982541617905560008051602062002fd6833981519152339380a4600190565b50509056fe608080604052600436101561001d575b50361561001b57600080fd5b005b600090813560e01c90816301ffc9a71461260e5750806311028915146125f25780631129753f146125b257806311e2e175146120c357806314a2873a14612595578063154bb891146125665780631af23a59146123f2578063213b8f73146123c95780632430fc3d14612347578063248a9ca31461231b5780632b904a79146122f15780632d56061d146122c25780632f2ff15d14612285578063345460cd146121ba57806336568abe146121725780633f4ba83a1461210757806340a0841b146120c357806343ae2695146120965780634585e33b14611d8457806350e2f0f714611cc05780635c79a28914611a8f5780635c975abb14611a6c5780636e04ff0d146119f55780636f629ed51461188657806370876c9814610ecb57806373f9ff4e14610e5a5780637f42ff6414610dc25780638456cb5914610d675780638b7155d214610d275780639093bb2014610cfd57806391d1485414610cb2578063937daefd14610c96578063a217fddf14610c7a578063a23d3c3514610c35578063a384854e14610b06578063a8b268de14610adb578063b172b22214610ab2578063b6607cc514610a96578063b7fe095314610a3b578063be4ac3dc14610898578063be6d243e1461086e578063bf9586e014610851578063c6f5690114610466578063d2e0f66e146103dc578063d38e698e146103be578063d547741f1461037d578063da561ec614610336578063e1f1c4a714610319578063e38abd0f146102f7578063e6a69ab8146102d8578063f5b541a61461029d5763f71896cc0361000f573461029a57602036600319011261029a5760043590600b5482101561029a57602061028c83612742565b90546040519160031b1c8152f35b80fd5b503461029a578060031936011261029a5760206040517f97667070c54ef182b0f5858b034beac1b6f3089aa2d3188bb1e8929f4fa9b9298152f35b503461029a578060031936011261029a5760206040516301e133808152f35b503461029a57602061031161030b366126bc565b90612aef565b604051908152f35b503461029a578060031936011261029a5760206040516127108152f35b503461029a57602036600319011261029a576040606091600435815260086020522080549060ff600260018301549201541690604051928352602083015215156040820152f35b503461029a57604036600319011261029a576103ba60043561039d612679565b90808452836020526103b56001604086200154612bd9565b612ca0565b5080f35b503461029a578060031936011261029a5760206040516276a7008152f35b503461029a576103eb366126bc565b9190815260056020526040812090815483101561029a5760e061040e8484612779565b5060018060a01b03815416906001810154906002810154600382015460048301549160ff600660058601549501541694604051968752602087015260408601526060850152608084015260a0830152151560c0820152f35b503461029a57602036600319011261029a57610480612bff565b6004358152600660205260408120600a6020526104a360ff604084205416612873565b60048101805460ff8116610813576104c160038401544210156128f4565b60ff8160081c166107ce576101009061ff001916179055805460018092015460405191825260208201527fe530e08c8f5e186cb204c6c0e883b12ddbcd56a383e4113f06dbee1e09fde7c6604060043592a26004358252600560205280604083208184905b610549575b5050506004358252600a60205260408220805460ff19169055805580f35b81548110156107c95761055c8183612779565b506006810180549060ff821615610579575b505050820182610526565b909291946105906004870154600588015490612aef565b60ff199094161790556002548454604051627eeac760e11b81526001600160a01b039182166004808301829052356024830152899360081c9092169190602081604481865afa9081156107be578491610784575b508061070b575b5050508080808560018060a01b038954165af161060661281a565b50156106cd57849384927fae5e4bdebc0d69f9b0be70b5e09166a1e47166c306633f938b7d07cef8d1a7906106c26106a0600460018060a01b038654169501548486610653838098612ac1565b7f35b1f7e4c3146d284962cc37abf509799d0f4be30b6a19d025ba7309302c948760405180610698866004359589846040919493926060820195825260208201520152565b0390a3612ac1565b6040805194855260208501919091524290840152600435929081906060820190565b0390a390388061056e565b60405162461bcd60e51b81526020600482015260166024820152751499599d5b99081d1c985b9cd9995c8819985a5b195960521b6044820152606490fd5b823b1561078057604051631dd85adb60e11b815260048035908201526001600160a01b0392909216602483015260448201529082908290606490829084905af180156107755761075d575b80806105eb565b61076690612795565b610771578538610756565b8580fd5b6040513d84823e3d90fd5b8380fd5b9350506020833d6020116107b6575b816107a0602093836127de565b810103126107b157889251386105e4565b600080fd5b3d9150610793565b6040513d86823e3d90fd5b61052b565b60405162461bcd60e51b815260206004820152601960248201527f526566756e647320616c72656164792070726f636573736564000000000000006044820152606490fd5b60405162461bcd60e51b8152602060048201526016602482015275119d5b991a5b99c81dd85cc81cdd58d8d95cdcd99d5b60521b6044820152606490fd5b503461029a578060031936011261029a5760206040516109c48152f35b503461029a57602036600319011261029a5760406020916004358152600e83522054604051908152f35b503461029a576108a7366126bc565b6108af612b7d565b8183526020600a81526108c860ff604086205416612873565b61271090818311610a0057838552600681526040852060ff6004820154166109bb57848652600d8252836040872055600e82526040862054869084611b5887101561098b575b61091b610922938361284a565b0490612937565b928360018301556126ac808502908582041485151715610977579160027f11048d4b31e45dea888dfccd9163b3bfd669feedfea3a6f44938ac90d77c2f9a96949260409694049101558351928352820152a280f35b634e487b7160e01b88526011600452602488fd5b509050611b57198501858111610977576109c49081810291818304149015171561097757610bb89004908461090e565b60405162461bcd60e51b815260048101839052601860248201527f46756e64696e6720616c726561647920636f6d706c65746500000000000000006044820152606490fd5b6064906040519062461bcd60e51b825260048201526014602482015273496e76616c69642064656d616e642073636f726560601b6044820152fd5b503461029a57602036600319011261029a576004358152600e60205260408120546006602052610a9260406001818520015493600d6020522054604051938493846040919493926060820195825260208201520152565b0390f35b503461029a578060031936011261029a57602060405160508152f35b503461029a578060031936011261029a576004546040516001600160a01b039091168152602090f35b503461029a57602036600319011261029a576004359060095482101561029a57602061028c836126f5565b50604036600319011261029a576004356024356001600160401b038111610c3157610b3590369060040161268f565b90610b3e612b7d565b828452600c60205260ff60408520541615610bf6573415610bba577f298a82860699031727d1bf8a607ec42d9c496cae1f2762d56954d576c211b1fe91838552600860205260016040862001610b95348254612937565b9055610bb4604051928392348452604060208501526040840191612ace565b0390a280f35b60405162461bcd60e51b8152602060048201526014602482015273139bc81a5b98dbdb59481d1bc819195c1bdcda5d60621b6044820152606490fd5b60405162461bcd60e51b8152602060048201526013602482015272141c9bdc195c9d1e481b9bdd08199d5b991959606a1b6044820152606490fd5b8280fd5b503461029a578060031936011261029a576040517f00000000000000000000000000000000000000000000000000000000000000006001600160a01b03168152602090f35b503461029a578060031936011261029a57602090604051908152f35b503461029a578060031936011261029a57602060405160468152f35b503461029a57604036600319011261029a576040610cce612679565b91600435815280602052209060018060a01b0316600052602052602060ff604060002054166040519015158152f35b503461029a57602036600319011261029a5760406020916004358152600583522054604051908152f35b503461029a57602036600319011261029a57610d41612663565b610d49612b25565b60018060a01b03166001600160601b0360a01b600354161760035580f35b503461029a578060031936011261029a57610d80612b25565b610d88612d15565b600160ff1960025416176002557f62e78cea01bee320cd4e420270b5ea74000d11b0c9f74754ebdbfc544b05a2586020604051338152a180f35b503461029a57606036600319011261029a57610ddc612679565b604435906001600160401b038211610c31577f3914d40c9fe0daebd442d05df43dd630d415a8ce81ce1695843ca510f4f1c4f5610e20610e3c93369060040161268f565b9390610e2a612b7d565b60405194604086526040860191612ace565b4260208501526001600160a01b03909216926004359281900390a380f35b503461029a57602036600319011261029a576004358152600860205260408120908154906001830154906276a700830190818411610eb7575060ff6002608095015416916040519384526020840152604083015215156060820152f35b634e487b7160e01b81526011600452602490fd5b50610ed5366126bc565b610edd612bff565b610ee5612d15565b81835260066020526040832090600a602052610f0760ff604086205416612873565b610f1860ff600484015416156128b5565b60038201544210156118415760035484906001600160a01b031680611748575b50506002546040516362ae87ab60e11b815260048101859052906020908290602490829060081c6001600160a01b03165afa90811561173d57859161170b575b50610f83828261284a565b908134106116cf5784865260056020526040862060405191610fa4836127a8565b33835286602084015284604084015260608301528260808301524260a08301528660c0830152805490600160401b8210156116bb5790610fe991600182018155612779565b9190916116a75790600660c061105d9360018060a01b038151166001600160601b0360a01b8554161784556020810151600185015560408101516002850155606081015160038501556080810151600485015560a081015160058501550151151591019060ff801983541691151516179055565b611068818454612937565b835583855260076020526040852033600052602052604060002061108d828254612937565b9055600254859060081c6001600160a01b0316803b15611631576040516346b40cdf60e11b815260048101879052336024820152604481018590529082908290606490829084905af180156107755761168f575b5050803411611635575b604051847f076d4a8f0927f81646eba8e062c7769238e76316ca0f16820b27d377c2becc1e339280611130428789846040919493926060820195825260208201520152565b0390a36040519160208301904282523360601b60408501528560548501528060748501526074845260a08401918483106001600160401b038411176113c4576111ce9460e09184604052815190209284528460c08201520152847f2ded55fd793d860b77d0778a0cdf6984909d323e049f1ed2923eba867202b36160603393a383855260076020526040852033600052602052604060002054612ac1565b82845260076020526040842033600052602052604060002054604051918252602082015260016040820152827f42d3cd62f75f9115471aa0a6ef108d9e0fef8e5b6913419befd8a166879def4f60603393a3600181549101541115611236575b506001805580f35b80825260066020526040822060048101805460ff19166001179055600254839060081c6001600160a01b0316803b15611631578180916024604051809481936362b3375960e11b83528960048401525af180156107755761161d575b50508054606481029080820460641481151715611609576112b890612710830490612ac1565b60045490919085906001906001600160a01b0316806114c0575b50806114b3575b6113da575b505060405160608101908082106001600160401b038311176113c457611342916040524281526002602082018781526040830190600182528789526008602052604089209351845551600184015551151591019060ff801983541691151516179055565b600b5490600160401b8210156113c4577fbd04b0e879e6a84a288e6660cfcc2e8337035a9ad3343ff360c4aefb45576aae9261138683600160409501600b55612742565b81549060031b9087821b91600019901b1916179055848652600c602052828620600160ff19825416179055549082519182526020820152a23861122e565b634e487b7160e01b600052604160045260246000fd5b60048401805462ff00001916620100001790557f00000000000000000000000000000000000000000000000000000000000000006001600160a01b031691868080806127108504875af161142c61281a565b501561146e5760407fd3bff92a06f059ffe4dc0961b88c7a33c074d4cb95d95d996ad9a094e0f14db29187936127108351920482526020820152a338806112de565b60405162461bcd60e51b815260206004820152601b60248201527f466f756e64657220666565207472616e73666572206661696c656400000000006044820152606490fd5b50612710820415156112d9565b90876005870154602460405180958193632542515160e21b835260048301525afa889281611575575b506114f957505060015b386112d2565b909150816046811061150c575b506114f3565b9050857f2b0a0eb5cc368f947ec76563b6992d3ec41dbe4a0bae8891d41589c2249fd48e6080899360405190815260406020820152601f60408201527f496d706163742073636f72652062656c6f77203730207468726573686f6c64006060820152a238611506565b9092503d90818a823e61158882826127de565b6040818381010312611605578051916001600160401b03831161160157808201601f84840101121561160157828201516115c1816127ff565b916115cf60405193846127de565b81835283016020828686010101116115fd5760209384806115f49401918501016126d2565b015191386114e9565b8b80fd5b8a80fd5b8980fd5b634e487b7160e01b85526011600452602485fd5b61162690612795565b610c31578238611292565b5080fd5b848080806116438534612ac1565b335af161164e61281a565b506110eb5760405162461bcd60e51b8152602060048201526014602482015273115e18d95cdcc81c99599d5b990819985a5b195960621b6044820152606490fd5b61169890612795565b6116a35784386110e1565b8480fd5b634e487b7160e01b87526004879052602487fd5b634e487b7160e01b88526041600452602488fd5b60405162461bcd60e51b8152602060048201526014602482015273125b9cdd59999a58da595b9d081c185e5b595b9d60621b6044820152606490fd5b90506020813d602011611735575b81611726602093836127de565b810103126107b1575138610f78565b3d9150611719565b6040513d87823e3d90fd5b602090602460405180948193633c84af8760e01b83523360048401525af1801561173d57859061180e575b6050915011611783578338610f38565b826040519060408252600e60408301526d4869676820414d4c2053636f726560901b60608301524260208301527f3914d40c9fe0daebd442d05df43dd630d415a8ce81ce1695843ca510f4f1c4f560803393a360405162461bcd60e51b815260206004820152601060248201526f1053530818da1958dac819985a5b195960821b6044820152606490fd5b506020813d602011611839575b81611828602093836127de565b810103126107b15760509051611773565b3d915061181b565b60405162461bcd60e51b815260206004820152601760248201527f46756e64696e6720646561646c696e65207061737365640000000000000000006044820152606490fd5b503461029a576020908160031936011261029a5760043581526005808352604082209283546001600160401b0381116119e15791849192604051916118d0858360051b01846127de565b81835284830190819487528587209087925b84841061196e5750505050506040519280840191818552518092526040840192945b8281106119115784840385f35b855180516001600160a01b03168552808301518584015260408082015190860152606080820151908601526080808201519086015260a0808201519086015260c0908101511515908501529481019460e090930192600101611904565b60078860019260409b9a98999b51611985816127a8565b848060a01b03875416815284870154838201526002870154604082015260038701546060820152600487015460808201528587015460a082015260ff600688015416151560c082015281520193019301929197959496976118e2565b634e487b7160e01b84526041600452602484fd5b503461029a57602036600319011261029a576004356001600160401b03811161163157611a2690369060040161268f565b50506060611a32612944565b91906040519283911515825260406020830152611a5e81518092816040860152602086860191016126d2565b601f01601f19168101030190f35b503461029a578060031936011261029a57602060ff600254166040519015158152f35b503461029a57608036600319011261029a576024908135600435611ab1612b7d565b808352602091600a835260ff604085205416611c84578015611c4057612710810261270f1982820401611c2d576126ac900490828552600e8452816040862055604051916101008301918383106001600160401b03841117611c18576005926040528684528584019182526040840190815260608401906044358252608085019188835260a086019089825260c08701928a845260e08801956064358752898c5260068b5260408c2098518955516001890155516002880155516003870155611b8d6004870193511515849060ff801983541691151516179055565b5115159061ff0062ff000084549251151560101b169260081b169062ffff001916171790555191015560095493600160401b851015611c045750611bda846001600a9596016009556126f5565b81549060031b9083821b91600019901b191617905583525260408120600160ff1982541617905580f35b634e487b7160e01b60009081526041600452fd5b87634e487b7160e01b60005260416004526000fd5b634e487b7160e01b855260116004528585fd5b60405162461bcd60e51b8152600481018490526017818701527f50726f6a656374206275646765742072657175697265640000000000000000006044820152606490fd5b60405162461bcd60e51b81526004810184905260158187015274457363726f7720616c72656164792065786973747360581b6044820152606490fd5b503461029a57611ccf366126bc565b818392935260056020526040822054811015611d495760408260c094611cfb9452600560205220612779565b5060018060a01b0381541690600281015490600381015460048201549060ff6006600585015494015416936040519586526020860152604085015260608401526080830152151560a0820152f35b60405162461bcd60e51b8152602060048201526013602482015272496e646578206f7574206f6620626f756e647360681b6044820152606490fd5b503461029a5760208060031936011261163157600435906001600160401b038211610c3157611db9604092369060040161268f565b9080939181010312610c315781359160ff8316809303610780578101359180611e9e5750818352600681526040832090600a8152611dfd60ff604086205416612873565b60ff6004830154611e10828216156128b5565b60081c16611e6657506003611e299101544210156128f4565b303b15611631576040519063c6f5690160e01b82526004820152818160248183305af1801561077557611e5a575080f35b611e6390612795565b80f35b6064906040519062461bcd60e51b8252600482015260116024820152701499599d5b991cc81c1c9bd8d95cdcd959607a1b6044820152fd5b600114611eaa57505080f35b81835260088152604083209060ff600283015416156120595781546276a70081018091116116095742106120155760018201918254928315611fd05785905542905560648202828104606403611609576127109004611f098184612ac1565b9181611f4f575b917ffa2256ed22b95bad4ade0813dbe7b8eee9382165c52aa77952de366b24bf8e2093916080936040519384528301526040820152426060820152a280f35b85808080857f00000000000000000000000000000000000000000000000000000000000000006001600160a01b03165af1611f8861281a565b50611f10576064906040519062461bcd60e51b825280600483015260248201527f466f756e64657220717561727465726c79207061796d656e74206661696c65646044820152fd5b60405162461bcd60e51b815260048101849052601760248201527f4e6f20696e636f6d6520746f20646973747269627574650000000000000000006044820152606490fd5b6064906040519062461bcd60e51b82526004820152601a60248201527f546f6f206561726c7920666f7220646973747269627574696f6e0000000000006044820152fd5b6064906040519062461bcd60e51b8252600482015260166024820152754e6f74206120747261636b65642070726f706572747960501b6044820152fd5b503461029a578060031936011261029a5760025460405160089190911c6001600160a01b03168152602090f35b503461029a57604036600319011261029a5760406020916120e2612679565b6004358252600784528282206001600160a01b03909116825283522054604051908152f35b503461029a578060031936011261029a57612120612b25565b60025460ff8116156121605760ff19166002557f5db9ee0a495bf2e6ff9c91a7834c1ba4fdd244a5e8aa4e537bd38aeae4b073aa6020604051338152a180f35b604051638dfc202b60e01b8152600490fd5b503461029a57604036600319011261029a5761218c612679565b336001600160a01b038216036121a8576103ba90600435612ca0565b60405163334bd91960e11b8152600490fd5b503461029a57602036600319011261029a576004358152600660205260408120600181015480159283612278578254936127109485810295818704149015171561226457612250575060ff8160e09404915b835493600281015460046003830154920154926040519687526020870152604086015260608501528181161515608085015260101c16151560a083015260c0820152f35b634e487b7160e01b81526012600452602490fd5b634e487b7160e01b82526011600452602482fd5b60e0935060ff909161220c565b503461029a57604036600319011261029a576103ba6004356122a5612679565b90808452836020526122bd6001604086200154612bd9565b612c22565b503461029a57602036600319011261029a5760ff60406020926004358152600c84522054166040519015158152f35b503461029a57602036600319011261029a5760406020916004358152600d83522054604051908152f35b503461029a57602036600319011261029a57600160406020926004358152808452200154604051908152f35b503461029a57602036600319011261029a57604061010091600435815260066020522080549060ff6001820154916002810154600382015490600560048401549301549460405196875260208701526040860152606085015281811615156080850152818160081c16151560a085015260101c16151560c083015260e0820152f35b503461029a578060031936011261029a576003546040516001600160a01b039091168152602090f35b503461029a57604036600319011261029a5760043561240f612679565b90612418612b7d565b612420612bff565b8083526020600681526040842060ff6004820154161561252a576002019283549384156124e557859055828552600a825260408520805460ff191690556001600160a01b0316928480808084885af161247761281a565b50156124ae57907f6e3c6096795c8298a218b2cfb8bde42726ff7c9a3d27b4d3ba41ab7f74feb5fb91604051908152a36001805580f35b60405162461bcd60e51b815260048101839052600f60248201526e151c985b9cd9995c8819985a5b1959608a1b6044820152606490fd5b60405162461bcd60e51b815260048101849052601c60248201527f4e6f2070726f6a6563742062756467657420746f2072656c65617365000000006044820152606490fd5b60405162461bcd60e51b815260048101839052601460248201527346756e64696e67206e6f7420636f6d706c65746560601b6044820152606490fd5b503461029a57602036600319011261029a5760ff60406020926004358152600a84522054166040519015158152f35b503461029a578060031936011261029a57602060405161012c8152f35b503461029a57602036600319011261029a576125cc612663565b6125d4612b25565b60018060a01b03166001600160601b0360a01b600454161760045580f35b503461029a578060031936011261029a57602060405160648152f35b9050346116315760203660031901126116315760043563ffffffff60e01b8116809103610c315760209250637965db0b60e01b8114908115612652575b5015158152f35b6301ffc9a760e01b1490503861264b565b600435906001600160a01b03821682036107b157565b602435906001600160a01b03821682036107b157565b9181601f840112156107b1578235916001600160401b0383116107b157602083818601950101116107b157565b60409060031901126107b1576004359060243590565b60005b8381106126e55750506000910152565b81810151838201526020016126d5565b60095481101561272c5760096000527f6e1540171b6c0c960b71a7020d9f60077f6af931a8bbf590da0223dacf75c7af0190600090565b634e487b7160e01b600052603260045260246000fd5b600b5481101561272c57600b6000527f0175b7a638427703f0dbe7bb9bbf987a2551717b34e79f33b5b1008d1fa01db90190600090565b805482101561272c576000526007602060002091020190600090565b6001600160401b0381116113c457604052565b60e081019081106001600160401b038211176113c457604052565b606081019081106001600160401b038211176113c457604052565b90601f801991011681019081106001600160401b038211176113c457604052565b6001600160401b0381116113c457601f01601f191660200190565b3d15612845573d9061282b826127ff565b9161283960405193846127de565b82523d6000602084013e565b606090565b8181029291811591840414171561285d57565b634e487b7160e01b600052601160045260246000fd5b1561287a57565b60405162461bcd60e51b815260206004820152601360248201527250726f7065727479206e6f742061637469766560681b6044820152606490fd5b156128bc57565b60405162461bcd60e51b815260206004820152601060248201526f46756e64696e6720636f6d706c65746560801b6044820152606490fd5b156128fb57565b60405162461bcd60e51b8152602060048201526014602482015273111958591b1a5b99481b9bdd081c995858da195960621b6044820152606490fd5b9190820180921161285d57565b60095460005b818110612a17575050600b5460005b818110612988575050600090604051602081018181106001600160401b038211176113c4576040526000815290565b61299181612742565b90549060031b1c8060005260206008815260408060002060ff6002820154169081612a09575b816129f0575b506129cd57505050600101612959565b919493509150805193600180938601528185015283526129ec836127c3565b9190565b9050546276a700810180911161285d57421015386129bd565b6001810154151591506129b7565b612a20816126f5565b9054600391821b1c9081600052602091600683526040918260002090600a855260ff91828560002054169283612ab2575b83612aa0575b5082612a92575b5050612a6f5750505060010161294a565b9194935091506000825194850152818401528252612a8c826127c3565b60019190565b015442101590503880612a5e565b600482015460081c1615925038612a57565b60048201548116159350612a51565b9190820391821161285d57565b908060209392818452848401376000828201840152601f01601f1916010190565b90612afa9042612ac1565b9061012c9182820292828404148215171561285d5761091b64496cebb80091612b229461284a565b90565b3360009081527fad3228b676f7d3cd4284a5443f17f1962b36e491b30a40b2405849e597ba5fb5602052604081205460ff1615612b5f5750565b6044906040519063e2517d3f60e01b82523360048301526024820152fd5b3360009081527fee57cd81e84075558e8fcc182a1f4393f91fc97f963a136e66b7f949a62f319f60205260409020547f97667070c54ef182b0f5858b034beac1b6f3089aa2d3188bb1e8929f4fa9b9299060ff1615612b5f5750565b80600052600060205260406000203360005260205260ff6040600020541615612b5f5750565b600260015414612c10576002600155565b604051633ee5aeb560e01b8152600490fd5b9060009180835282602052604083209160018060a01b03169182845260205260ff60408420541615600014612c9b57808352826020526040832082845260205260408320600160ff198254161790557f2f8788117e7eff1d82e926ec794901d17c78024a50270940304540a733656f0d339380a4600190565b505090565b9060009180835282602052604083209160018060a01b03169182845260205260ff604084205416600014612c9b5780835282602052604083208284526020526040832060ff1981541690557ff6391f5c32d9c69d2a47ea670b442974b53935d1edc7fd64eb21e047a839171b339380a4600190565b60ff60025416612d2157565b60405163d93c066560e01b8152600490fdfea264697066735822122066603a9a28c797a1457a55810282404eacb6149df186bab420d271b01e35f16464736f6c634300081800332f8788117e7eff1d82e926ec794901d17c78024a50270940304540a733656f0d","opcodes":"PUSH1 0xA0 CALLVALUE PUSH3 0x11A JUMPI PUSH1 0x1F PUSH3 0x2FF6 CODESIZE DUP2 SWAP1 SUB SWAP2 DUP3 ADD PUSH1 0x1F NOT AND DUP4 ADD SWAP2 PUSH1 0x1 PUSH1 0x1 PUSH1 0x40 SHL SUB DUP4 GT DUP5 DUP5 LT OR PUSH3 0x11F JUMPI DUP1 DUP5 SWAP3 PUSH1 0x40 SWAP5 DUP6 MSTORE DUP4 CODECOPY DUP2 ADD SUB SLT PUSH3 0x11A JUMPI PUSH3 0x5A PUSH1 0x20 PUSH3 0x52 DUP4 PUSH3 0x135 JUMP JUMPDEST SWAP3 ADD PUSH3 0x135 JUMP JUMPDEST PUSH1 0x1 DUP1 SSTORE PUSH1 0x2 SLOAD SWAP1 SWAP2 PUSH1 0x1 PUSH1 0x1 PUSH1 0xA0 SHL SUB DUP4 AND ISZERO PUSH3 0xD5 JUMPI PUSH1 0x1 PUSH1 0x1 PUSH1 0xA8 SHL SUB NOT SWAP1 SWAP2 AND PUSH1 0x8 SWAP2 SWAP1 SWAP2 SHL PUSH2 0x100 PUSH1 0x1 PUSH1 0xA8 SHL SUB AND OR PUSH1 0x2 SSTORE PUSH1 0x80 MSTORE PUSH3 0xA1 CALLER PUSH3 0x14A JUMP JUMPDEST POP PUSH3 0xAD CALLER PUSH3 0x1CA JUMP JUMPDEST POP PUSH1 0x40 MLOAD PUSH2 0x2D69 SWAP1 DUP2 PUSH3 0x26D DUP3 CODECOPY PUSH1 0x80 MLOAD DUP2 DUP2 DUP2 PUSH2 0xC4B ADD MSTORE DUP2 DUP2 PUSH2 0x13EF ADD MSTORE PUSH2 0x1F56 ADD MSTORE RETURN JUMPDEST PUSH1 0x40 MLOAD PUSH3 0x461BCD PUSH1 0xE5 SHL DUP2 MSTORE PUSH1 0x20 PUSH1 0x4 DUP3 ADD MSTORE PUSH1 0x17 PUSH1 0x24 DUP3 ADD MSTORE PUSH32 0x466F756E6465722077616C6C6574207265717569726564000000000000000000 PUSH1 0x44 DUP3 ADD MSTORE PUSH1 0x64 SWAP1 REVERT JUMPDEST PUSH1 0x0 DUP1 REVERT JUMPDEST PUSH4 0x4E487B71 PUSH1 0xE0 SHL PUSH1 0x0 MSTORE PUSH1 0x41 PUSH1 0x4 MSTORE PUSH1 0x24 PUSH1 0x0 REVERT JUMPDEST MLOAD SWAP1 PUSH1 0x1 PUSH1 0x1 PUSH1 0xA0 SHL SUB DUP3 AND DUP3 SUB PUSH3 0x11A JUMPI JUMP JUMPDEST PUSH1 0x1 PUSH1 0x1 PUSH1 0xA0 SHL SUB AND PUSH1 0x0 DUP2 DUP2 MSTORE PUSH32 0xAD3228B676F7D3CD4284A5443F17F1962B36E491B30A40B2405849E597BA5FB5 PUSH1 0x20 MSTORE PUSH1 0x40 DUP2 KECCAK256 SLOAD SWAP1 SWAP2 SWAP1 PUSH1 0xFF AND PUSH3 0x1C6 JUMPI DUP2 DUP1 MSTORE DUP2 PUSH1 0x20 MSTORE PUSH1 0x40 DUP3 KECCAK256 DUP2 DUP4 MSTORE PUSH1 0x20 MSTORE PUSH1 0x40 DUP3 KECCAK256 PUSH1 0x1 PUSH1 0xFF NOT DUP3 SLOAD AND OR SWAP1 SSTORE CALLER SWAP2 PUSH1 0x0 DUP1 MLOAD PUSH1 0x20 PUSH3 0x2FD6 DUP4 CODECOPY DUP2 MLOAD SWAP2 MSTORE DUP2 DUP1 LOG4 PUSH1 0x1 SWAP1 JUMP JUMPDEST POP SWAP1 JUMP JUMPDEST PUSH1 0x1 PUSH1 0x1 PUSH1 0xA0 SHL SUB AND PUSH1 0x0 DUP2 DUP2 MSTORE PUSH32 0xEE57CD81E84075558E8FCC182A1F4393F91FC97F963A136E66B7F949A62F319F PUSH1 0x20 MSTORE PUSH1 0x40 DUP2 KECCAK256 SLOAD SWAP1 SWAP2 SWAP1 PUSH32 0x97667070C54EF182B0F5858B034BEAC1B6F3089AA2D3188BB1E8929F4FA9B929 SWAP1 PUSH1 0xFF AND PUSH3 0x267 JUMPI DUP1 DUP4 MSTORE DUP3 PUSH1 0x20 MSTORE PUSH1 0x40 DUP4 KECCAK256 DUP3 DUP5 MSTORE PUSH1 0x20 MSTORE PUSH1 0x40 DUP4 KECCAK256 PUSH1 0x1 PUSH1 0xFF NOT DUP3 SLOAD AND OR SWAP1 SSTORE PUSH1 0x0 DUP1 MLOAD PUSH1 0x20 PUSH3 0x2FD6 DUP4 CODECOPY DUP2 MLOAD SWAP2 MSTORE CALLER SWAP4 DUP1 LOG4 PUSH1 0x1 SWAP1 JUMP JUMPDEST POP POP SWAP1 JUMP INVALID PUSH1 0x80 DUP1 PUSH1 0x40 MSTORE PUSH1 0x4 CALLDATASIZE LT ISZERO PUSH2 0x1D JUMPI JUMPDEST POP CALLDATASIZE ISZERO PUSH2 0x1B JUMPI PUSH1 0x0 DUP1 REVERT JUMPDEST STOP JUMPDEST PUSH1 0x0 SWAP1 DUP2 CALLDATALOAD PUSH1 0xE0 SHR SWAP1 DUP2 PUSH4 0x1FFC9A7 EQ PUSH2 0x260E JUMPI POP DUP1 PUSH4 0x11028915 EQ PUSH2 0x25F2 JUMPI DUP1 PUSH4 0x1129753F EQ PUSH2 0x25B2 JUMPI DUP1 PUSH4 0x11E2E175 EQ PUSH2 0x20C3 JUMPI DUP1 PUSH4 0x14A2873A EQ PUSH2 0x2595 JUMPI DUP1 PUSH4 0x154BB891 EQ PUSH2 0x2566 JUMPI DUP1 PUSH4 0x1AF23A59 EQ PUSH2 0x23F2 JUMPI DUP1 PUSH4 0x213B8F73 EQ PUSH2 0x23C9 JUMPI DUP1 PUSH4 0x2430FC3D EQ PUSH2 0x2347 JUMPI DUP1 PUSH4 0x248A9CA3 EQ PUSH2 0x231B JUMPI DUP1 PUSH4 0x2B904A79 EQ PUSH2 0x22F1 JUMPI DUP1 PUSH4 0x2D56061D EQ PUSH2 0x22C2 JUMPI DUP1 PUSH4 0x2F2FF15D EQ PUSH2 0x2285 JUMPI DUP1 PUSH4 0x345460CD EQ PUSH2 0x21BA JUMPI DUP1 PUSH4 0x36568ABE EQ PUSH2 0x2172 JUMPI DUP1 PUSH4 0x3F4BA83A EQ PUSH2 0x2107 JUMPI DUP1 PUSH4 0x40A0841B EQ PUSH2 0x20C3 JUMPI DUP1 PUSH4 0x43AE2695 EQ PUSH2 0x2096 JUMPI DUP1 PUSH4 0x4585E33B EQ PUSH2 0x1D84 JUMPI DUP1 PUSH4 0x50E2F0F7 EQ PUSH2 0x1CC0 JUMPI DUP1 PUSH4 0x5C79A289 EQ PUSH2 0x1A8F JUMPI DUP1 PUSH4 0x5C975ABB EQ PUSH2 0x1A6C JUMPI DUP1 PUSH4 0x6E04FF0D EQ PUSH2 0x19F5 JUMPI DUP1 PUSH4 0x6F629ED5 EQ PUSH2 0x1886 JUMPI DUP1 PUSH4 0x70876C98 EQ PUSH2 0xECB JUMPI DUP1 PUSH4 0x73F9FF4E EQ PUSH2 0xE5A JUMPI DUP1 PUSH4 0x7F42FF64 EQ PUSH2 0xDC2 JUMPI DUP1 PUSH4 0x8456CB59 EQ PUSH2 0xD67 JUMPI DUP1 PUSH4 0x8B7155D2 EQ PUSH2 0xD27 JUMPI DUP1 PUSH4 0x9093BB20 EQ PUSH2 0xCFD JUMPI DUP1 PUSH4 0x91D14854 EQ PUSH2 0xCB2 JUMPI DUP1 PUSH4 0x937DAEFD EQ PUSH2 0xC96 JUMPI DUP1 PUSH4 0xA217FDDF EQ PUSH2 0xC7A JUMPI DUP1 PUSH4 0xA23D3C35 EQ PUSH2 0xC35 JUMPI DUP1 PUSH4 0xA384854E EQ PUSH2 0xB06 JUMPI DUP1 PUSH4 0xA8B268DE EQ PUSH2 0xADB JUMPI DUP1 PUSH4 0xB172B222 EQ PUSH2 0xAB2 JUMPI DUP1 PUSH4 0xB6607CC5 EQ PUSH2 0xA96 JUMPI DUP1 PUSH4 0xB7FE0953 EQ PUSH2 0xA3B JUMPI DUP1 PUSH4 0xBE4AC3DC EQ PUSH2 0x898 JUMPI DUP1 PUSH4 0xBE6D243E EQ PUSH2 0x86E JUMPI DUP1 PUSH4 0xBF9586E0 EQ PUSH2 0x851 JUMPI DUP1 PUSH4 0xC6F56901 EQ PUSH2 0x466 JUMPI DUP1 PUSH4 0xD2E0F66E EQ PUSH2 0x3DC JUMPI DUP1 PUSH4 0xD38E698E EQ PUSH2 0x3BE JUMPI DUP1 PUSH4 0xD547741F EQ PUSH2 0x37D JUMPI DUP1 PUSH4 0xDA561EC6 EQ PUSH2 0x336 JUMPI DUP1 PUSH4 0xE1F1C4A7 EQ PUSH2 0x319 JUMPI DUP1 PUSH4 0xE38ABD0F EQ PUSH2 0x2F7 JUMPI DUP1 PUSH4 0xE6A69AB8 EQ PUSH2 0x2D8 JUMPI DUP1 PUSH4 0xF5B541A6 EQ PUSH2 0x29D JUMPI PUSH4 0xF71896CC SUB PUSH2 0xF JUMPI CALLVALUE PUSH2 0x29A JUMPI PUSH1 0x20 CALLDATASIZE PUSH1 0x3 NOT ADD SLT PUSH2 0x29A JUMPI PUSH1 0x4 CALLDATALOAD SWAP1 PUSH1 0xB SLOAD DUP3 LT ISZERO PUSH2 0x29A JUMPI PUSH1 0x20 PUSH2 0x28C DUP4 PUSH2 0x2742 JUMP JUMPDEST SWAP1 SLOAD PUSH1 0x40 MLOAD SWAP2 PUSH1 0x3 SHL SHR DUP2 MSTORE RETURN JUMPDEST DUP1 REVERT JUMPDEST POP CALLVALUE PUSH2 0x29A JUMPI DUP1 PUSH1 0x3 NOT CALLDATASIZE ADD SLT PUSH2 0x29A JUMPI PUSH1 0x20 PUSH1 0x40 MLOAD PUSH32 0x97667070C54EF182B0F5858B034BEAC1B6F3089AA2D3188BB1E8929F4FA9B929 DUP2 MSTORE RETURN JUMPDEST POP CALLVALUE PUSH2 0x29A JUMPI DUP1 PUSH1 0x3 NOT CALLDATASIZE ADD SLT PUSH2 0x29A JUMPI PUSH1 0x20 PUSH1 0x40 MLOAD PUSH4 0x1E13380 DUP2 MSTORE RETURN JUMPDEST POP CALLVALUE PUSH2 0x29A JUMPI PUSH1 0x20 PUSH2 0x311 PUSH2 0x30B CALLDATASIZE PUSH2 0x26BC JUMP JUMPDEST SWAP1 PUSH2 0x2AEF JUMP JUMPDEST PUSH1 0x40 MLOAD SWAP1 DUP2 MSTORE RETURN JUMPDEST POP CALLVALUE PUSH2 0x29A JUMPI DUP1 PUSH1 0x3 NOT CALLDATASIZE ADD SLT PUSH2 0x29A JUMPI PUSH1 0x20 PUSH1 0x40 MLOAD PUSH2 0x2710 DUP2 MSTORE RETURN JUMPDEST POP CALLVALUE PUSH2 0x29A JUMPI PUSH1 0x20 CALLDATASIZE PUSH1 0x3 NOT ADD SLT PUSH2 0x29A JUMPI PUSH1 0x40 PUSH1 0x60 SWAP2 PUSH1 0x4 CALLDATALOAD DUP2 MSTORE PUSH1 0x8 PUSH1 0x20 MSTORE KECCAK256 DUP1 SLOAD SWAP1 PUSH1 0xFF PUSH1 0x2 PUSH1 0x1 DUP4 ADD SLOAD SWAP3 ADD SLOAD AND SWAP1 PUSH1 0x40 MLOAD SWAP3 DUP4 MSTORE PUSH1 0x20 DUP4 ADD MSTORE ISZERO ISZERO PUSH1 0x40 DUP3 ADD MSTORE RETURN JUMPDEST POP CALLVALUE PUSH2 0x29A JUMPI PUSH1 0x40 CALLDATASIZE PUSH1 0x3 NOT ADD SLT PUSH2 0x29A JUMPI PUSH2 0x3BA PUSH1 0x4 CALLDATALOAD PUSH2 0x39D PUSH2 0x2679 JUMP JUMPDEST SWAP1 DUP1 DUP5 MSTORE DUP4 PUSH1 0x20 MSTORE PUSH2 0x3B5 PUSH1 0x1 PUSH1 0x40 DUP7 KECCAK256 ADD SLOAD PUSH2 0x2BD9 JUMP JUMPDEST PUSH2 0x2CA0 JUMP JUMPDEST POP DUP1 RETURN JUMPDEST POP CALLVALUE PUSH2 0x29A JUMPI DUP1 PUSH1 0x3 NOT CALLDATASIZE ADD SLT PUSH2 0x29A JUMPI PUSH1 0x20 PUSH1 0x40 MLOAD PUSH3 0x76A700 DUP2 MSTORE RETURN JUMPDEST POP CALLVALUE PUSH2 0x29A JUMPI PUSH2 0x3EB CALLDATASIZE PUSH2 0x26BC JUMP JUMPDEST SWAP2 SWAP1 DUP2 MSTORE PUSH1 0x5 PUSH1 0x20 MSTORE PUSH1 0x40 DUP2 KECCAK256 SWAP1 DUP2 SLOAD DUP4 LT ISZERO PUSH2 0x29A JUMPI PUSH1 0xE0 PUSH2 0x40E DUP5 DUP5 PUSH2 0x2779 JUMP JUMPDEST POP PUSH1 0x1 DUP1 PUSH1 0xA0 SHL SUB DUP2 SLOAD AND SWAP1 PUSH1 0x1 DUP2 ADD SLOAD SWAP1 PUSH1 0x2 DUP2 ADD SLOAD PUSH1 0x3 DUP3 ADD SLOAD PUSH1 0x4 DUP4 ADD SLOAD SWAP2 PUSH1 0xFF PUSH1 0x6 PUSH1 0x5 DUP7 ADD SLOAD SWAP6 ADD SLOAD AND SWAP5 PUSH1 0x40 MLOAD SWAP7 DUP8 MSTORE PUSH1 0x20 DUP8 ADD MSTORE PUSH1 0x40 DUP7 ADD MSTORE PUSH1 0x60 DUP6 ADD MSTORE PUSH1 0x80 DUP5 ADD MSTORE PUSH1 0xA0 DUP4 ADD MSTORE ISZERO ISZERO PUSH1 0xC0 DUP3 ADD MSTORE RETURN JUMPDEST POP CALLVALUE PUSH2 0x29A JUMPI PUSH1 0x20 CALLDATASIZE PUSH1 0x3 NOT ADD SLT PUSH2 0x29A JUMPI PUSH2 0x480 PUSH2 0x2BFF JUMP JUMPDEST PUSH1 0x4 CALLDATALOAD DUP2 MSTORE PUSH1 0x6 PUSH1 0x20 MSTORE PUSH1 0x40 DUP2 KECCAK256 PUSH1 0xA PUSH1 0x20 MSTORE PUSH2 0x4A3 PUSH1 0xFF PUSH1 0x40 DUP5 KECCAK256 SLOAD AND PUSH2 0x2873 JUMP JUMPDEST PUSH1 0x4 DUP2 ADD DUP1 SLOAD PUSH1 0xFF DUP2 AND PUSH2 0x813 JUMPI PUSH2 0x4C1 PUSH1 0x3 DUP5 ADD SLOAD TIMESTAMP LT ISZERO PUSH2 0x28F4 JUMP JUMPDEST PUSH1 0xFF DUP2 PUSH1 0x8 SHR AND PUSH2 0x7CE JUMPI PUSH2 0x100 SWAP1 PUSH2 0xFF00 NOT AND OR SWAP1 SSTORE DUP1 SLOAD PUSH1 0x1 DUP1 SWAP3 ADD SLOAD PUSH1 0x40 MLOAD SWAP2 DUP3 MSTORE PUSH1 0x20 DUP3 ADD MSTORE PUSH32 0xE530E08C8F5E186CB204C6C0E883B12DDBCD56A383E4113F06DBEE1E09FDE7C6 PUSH1 0x40 PUSH1 0x4 CALLDATALOAD SWAP3 LOG2 PUSH1 0x4 CALLDATALOAD DUP3 MSTORE PUSH1 0x5 PUSH1 0x20 MSTORE DUP1 PUSH1 0x40 DUP4 KECCAK256 DUP2 DUP5 SWAP1 JUMPDEST PUSH2 0x549 JUMPI JUMPDEST POP POP POP PUSH1 0x4 CALLDATALOAD DUP3 MSTORE PUSH1 0xA PUSH1 0x20 MSTORE PUSH1 0x40 DUP3 KECCAK256 DUP1 SLOAD PUSH1 0xFF NOT AND SWAP1 SSTORE DUP1 SSTORE DUP1 RETURN JUMPDEST DUP2 SLOAD DUP2 LT ISZERO PUSH2 0x7C9 JUMPI PUSH2 0x55C DUP2 DUP4 PUSH2 0x2779 JUMP JUMPDEST POP PUSH1 0x6 DUP2 ADD DUP1 SLOAD SWAP1 PUSH1 0xFF DUP3 AND ISZERO PUSH2 0x579 JUMPI JUMPDEST POP POP POP DUP3 ADD DUP3 PUSH2 0x526 JUMP JUMPDEST SWAP1 SWAP3 SWAP2 SWAP5 PUSH2 0x590 PUSH1 0x4 DUP8 ADD SLOAD PUSH1 0x5 DUP9 ADD SLOAD SWAP1 PUSH2 0x2AEF JUMP JUMPDEST PUSH1 0xFF NOT SWAP1 SWAP5 AND OR SWAP1 SSTORE PUSH1 0x2 SLOAD DUP5 SLOAD PUSH1 0x40 MLOAD PUSH3 0x7EEAC7 PUSH1 0xE1 SHL DUP2 MSTORE PUSH1 0x1 PUSH1 0x1 PUSH1 0xA0 SHL SUB SWAP2 DUP3 AND PUSH1 0x4 DUP1 DUP4 ADD DUP3 SWAP1 MSTORE CALLDATALOAD PUSH1 0x24 DUP4 ADD MSTORE DUP10 SWAP4 PUSH1 0x8 SHR SWAP1 SWAP3 AND SWAP2 SWAP1 PUSH1 0x20 DUP2 PUSH1 0x44 DUP2 DUP7 GAS STATICCALL SWAP1 DUP2 ISZERO PUSH2 0x7BE JUMPI DUP5 SWAP2 PUSH2 0x784 JUMPI JUMPDEST POP DUP1 PUSH2 0x70B JUMPI JUMPDEST POP POP POP DUP1 DUP1 DUP1 DUP6 PUSH1 0x1 DUP1 PUSH1 0xA0 SHL SUB DUP10 SLOAD AND GAS CALL PUSH2 0x606 PUSH2 0x281A JUMP JUMPDEST POP ISZERO PUSH2 0x6CD JUMPI DUP5 SWAP4 DUP5 SWAP3 PUSH32 0xAE5E4BDEBC0D69F9B0BE70B5E09166A1E47166C306633F938B7D07CEF8D1A790 PUSH2 0x6C2 PUSH2 0x6A0 PUSH1 0x4 PUSH1 0x1 DUP1 PUSH1 0xA0 SHL SUB DUP7 SLOAD AND SWAP6 ADD SLOAD DUP5 DUP7 PUSH2 0x653 DUP4 DUP1 SWAP9 PUSH2 0x2AC1 JUMP JUMPDEST PUSH32 0x35B1F7E4C3146D284962CC37ABF509799D0F4BE30B6A19D025BA7309302C9487 PUSH1 0x40 MLOAD DUP1 PUSH2 0x698 DUP7 PUSH1 0x4 CALLDATALOAD SWAP6 DUP10 DUP5 PUSH1 0x40 SWAP2 SWAP5 SWAP4 SWAP3 PUSH1 0x60 DUP3 ADD SWAP6 DUP3 MSTORE PUSH1 0x20 DUP3 ADD MSTORE ADD MSTORE JUMP JUMPDEST SUB SWAP1 LOG3 PUSH2 0x2AC1 JUMP JUMPDEST PUSH1 0x40 DUP1 MLOAD SWAP5 DUP6 MSTORE PUSH1 0x20 DUP6 ADD SWAP2 SWAP1 SWAP2 MSTORE TIMESTAMP SWAP1 DUP5 ADD MSTORE PUSH1 0x4 CALLDATALOAD SWAP3 SWAP1 DUP2 SWAP1 PUSH1 0x60 DUP3 ADD SWAP1 JUMP JUMPDEST SUB SWAP1 LOG3 SWAP1 CODESIZE DUP1 PUSH2 0x56E JUMP JUMPDEST PUSH1 0x40 MLOAD PUSH3 0x461BCD PUSH1 0xE5 SHL DUP2 MSTORE PUSH1 0x20 PUSH1 0x4 DUP3 ADD MSTORE PUSH1 0x16 PUSH1 0x24 DUP3 ADD MSTORE PUSH22 0x1499599D5B99081D1C985B9CD9995C8819985A5B1959 PUSH1 0x52 SHL PUSH1 0x44 DUP3 ADD MSTORE PUSH1 0x64 SWAP1 REVERT JUMPDEST DUP3 EXTCODESIZE ISZERO PUSH2 0x780 JUMPI PUSH1 0x40 MLOAD PUSH4 0x1DD85ADB PUSH1 0xE1 SHL DUP2 MSTORE PUSH1 0x4 DUP1 CALLDATALOAD SWAP1 DUP3 ADD MSTORE PUSH1 0x1 PUSH1 0x1 PUSH1 0xA0 SHL SUB SWAP3 SWAP1 SWAP3 AND PUSH1 0x24 DUP4 ADD MSTORE PUSH1 0x44 DUP3 ADD MSTORE SWAP1 DUP3 SWAP1 DUP3 SWAP1 PUSH1 0x64 SWAP1 DUP3 SWAP1 DUP5 SWAP1 GAS CALL DUP1 ISZERO PUSH2 0x775 JUMPI PUSH2 0x75D JUMPI JUMPDEST DUP1 DUP1 PUSH2 0x5EB JUMP JUMPDEST PUSH2 0x766 SWAP1 PUSH2 0x2795 JUMP JUMPDEST PUSH2 0x771 JUMPI DUP6 CODESIZE PUSH2 0x756 JUMP JUMPDEST DUP6 DUP1 REVERT JUMPDEST PUSH1 0x40 MLOAD RETURNDATASIZE DUP5 DUP3 RETURNDATACOPY RETURNDATASIZE SWAP1 REVERT JUMPDEST DUP4 DUP1 REVERT JUMPDEST SWAP4 POP POP PUSH1 0x20 DUP4 RETURNDATASIZE PUSH1 0x20 GT PUSH2 0x7B6 JUMPI JUMPDEST DUP2 PUSH2 0x7A0 PUSH1 0x20 SWAP4 DUP4 PUSH2 0x27DE JUMP JUMPDEST DUP2 ADD SUB SLT PUSH2 0x7B1 JUMPI DUP9 SWAP3 MLOAD CODESIZE PUSH2 0x5E4 JUMP JUMPDEST PUSH1 0x0 DUP1 REVERT JUMPDEST RETURNDATASIZE SWAP2 POP PUSH2 0x793 JUMP JUMPDEST PUSH1 0x40 MLOAD RETURNDATASIZE DUP7 DUP3 RETURNDATACOPY RETURNDATASIZE SWAP1 REVERT JUMPDEST PUSH2 0x52B JUMP JUMPDEST PUSH1 0x40 MLOAD PUSH3 0x461BCD PUSH1 0xE5 SHL DUP2 MSTORE PUSH1 0x20 PUSH1 0x4 DUP3 ADD MSTORE PUSH1 0x19 PUSH1 0x24 DUP3 ADD MSTORE PUSH32 0x526566756E647320616C72656164792070726F63657373656400000000000000 PUSH1 0x44 DUP3 ADD MSTORE PUSH1 0x64 SWAP1 REVERT JUMPDEST PUSH1 0x40 MLOAD PUSH3 0x461BCD PUSH1 0xE5 SHL DUP2 MSTORE PUSH1 0x20 PUSH1 0x4 DUP3 ADD MSTORE PUSH1 0x16 PUSH1 0x24 DUP3 ADD MSTORE PUSH22 0x119D5B991A5B99C81DD85CC81CDD58D8D95CDCD99D5B PUSH1 0x52 SHL PUSH1 0x44 DUP3 ADD MSTORE PUSH1 0x64 SWAP1 REVERT JUMPDEST POP CALLVALUE PUSH2 0x29A JUMPI DUP1 PUSH1 0x3 NOT CALLDATASIZE ADD SLT PUSH2 0x29A JUMPI PUSH1 0x20 PUSH1 0x40 MLOAD PUSH2 0x9C4 DUP2 MSTORE RETURN JUMPDEST POP CALLVALUE PUSH2 0x29A JUMPI PUSH1 0x20 CALLDATASIZE PUSH1 0x3 NOT ADD SLT PUSH2 0x29A JUMPI PUSH1 0x40 PUSH1 0x20 SWAP2 PUSH1 0x4 CALLDATALOAD DUP2 MSTORE PUSH1 0xE DUP4 MSTORE KECCAK256 SLOAD PUSH1 0x40 MLOAD SWAP1 DUP2 MSTORE RETURN JUMPDEST POP CALLVALUE PUSH2 0x29A JUMPI PUSH2 0x8A7 CALLDATASIZE PUSH2 0x26BC JUMP JUMPDEST PUSH2 0x8AF PUSH2 0x2B7D JUMP JUMPDEST DUP2 DUP4 MSTORE PUSH1 0x20 PUSH1 0xA DUP2 MSTORE PUSH2 0x8C8 PUSH1 0xFF PUSH1 0x40 DUP7 KECCAK256 SLOAD AND PUSH2 0x2873 JUMP JUMPDEST PUSH2 0x2710 SWAP1 DUP2 DUP4 GT PUSH2 0xA00 JUMPI DUP4 DUP6 MSTORE PUSH1 0x6 DUP2 MSTORE PUSH1 0x40 DUP6 KECCAK256 PUSH1 0xFF PUSH1 0x4 DUP3 ADD SLOAD AND PUSH2 0x9BB JUMPI DUP5 DUP7 MSTORE PUSH1 0xD DUP3 MSTORE DUP4 PUSH1 0x40 DUP8 KECCAK256 SSTORE PUSH1 0xE DUP3 MSTORE PUSH1 0x40 DUP7 KECCAK256 SLOAD DUP7 SWAP1 DUP5 PUSH2 0x1B58 DUP8 LT ISZERO PUSH2 0x98B JUMPI JUMPDEST PUSH2 0x91B PUSH2 0x922 SWAP4 DUP4 PUSH2 0x284A JUMP JUMPDEST DIV SWAP1 PUSH2 0x2937 JUMP JUMPDEST SWAP3 DUP4 PUSH1 0x1 DUP4 ADD SSTORE PUSH2 0x26AC DUP1 DUP6 MUL SWAP1 DUP6 DUP3 DIV EQ DUP6 ISZERO OR ISZERO PUSH2 0x977 JUMPI SWAP2 PUSH1 0x2 PUSH32 0x11048D4B31E45DEA888DFCCD9163B3BFD669FEEDFEA3A6F44938AC90D77C2F9A SWAP7 SWAP5 SWAP3 PUSH1 0x40 SWAP7 SWAP5 DIV SWAP2 ADD SSTORE DUP4 MLOAD SWAP3 DUP4 MSTORE DUP3 ADD MSTORE LOG2 DUP1 RETURN JUMPDEST PUSH4 0x4E487B71 PUSH1 0xE0 SHL DUP9 MSTORE PUSH1 0x11 PUSH1 0x4 MSTORE PUSH1 0x24 DUP9 REVERT JUMPDEST POP SWAP1 POP PUSH2 0x1B57 NOT DUP6 ADD DUP6 DUP2 GT PUSH2 0x977 JUMPI PUSH2 0x9C4 SWAP1 DUP2 DUP2 MUL SWAP2 DUP2 DUP4 DIV EQ SWAP1 ISZERO OR ISZERO PUSH2 0x977 JUMPI PUSH2 0xBB8 SWAP1 DIV SWAP1 DUP5 PUSH2 0x90E JUMP JUMPDEST PUSH1 0x40 MLOAD PUSH3 0x461BCD PUSH1 0xE5 SHL DUP2 MSTORE PUSH1 0x4 DUP2 ADD DUP4 SWAP1 MSTORE PUSH1 0x18 PUSH1 0x24 DUP3 ADD MSTORE PUSH32 0x46756E64696E6720616C726561647920636F6D706C6574650000000000000000 PUSH1 0x44 DUP3 ADD MSTORE PUSH1 0x64 SWAP1 REVERT JUMPDEST PUSH1 0x64 SWAP1 PUSH1 0x40 MLOAD SWAP1 PUSH3 0x461BCD PUSH1 0xE5 SHL DUP3 MSTORE PUSH1 0x4 DUP3 ADD MSTORE PUSH1 0x14 PUSH1 0x24 DUP3 ADD MSTORE PUSH20 0x496E76616C69642064656D616E642073636F7265 PUSH1 0x60 SHL PUSH1 0x44 DUP3 ADD MSTORE REVERT JUMPDEST POP CALLVALUE PUSH2 0x29A JUMPI PUSH1 0x20 CALLDATASIZE PUSH1 0x3 NOT ADD SLT PUSH2 0x29A JUMPI PUSH1 0x4 CALLDATALOAD DUP2 MSTORE PUSH1 0xE PUSH1 0x20 MSTORE PUSH1 0x40 DUP2 KECCAK256 SLOAD PUSH1 0x6 PUSH1 0x20 MSTORE PUSH2 0xA92 PUSH1 0x40 PUSH1 0x1 DUP2 DUP6 KECCAK256 ADD SLOAD SWAP4 PUSH1 0xD PUSH1 0x20 MSTORE KECCAK256 SLOAD PUSH1 0x40 MLOAD SWAP4 DUP5 SWAP4 DUP5 PUSH1 0x40 SWAP2 SWAP5 SWAP4 SWAP3 PUSH1 0x60 DUP3 ADD SWAP6 DUP3 MSTORE PUSH1 0x20 DUP3 ADD MSTORE ADD MSTORE JUMP JUMPDEST SUB SWAP1 RETURN JUMPDEST POP CALLVALUE PUSH2 0x29A JUMPI DUP1 PUSH1 0x3 NOT CALLDATASIZE ADD SLT PUSH2 0x29A JUMPI PUSH1 0x20 PUSH1 0x40 MLOAD PUSH1 0x50 DUP2 MSTORE RETURN JUMPDEST POP CALLVALUE PUSH2 0x29A JUMPI DUP1 PUSH1 0x3 NOT CALLDATASIZE ADD SLT PUSH2 0x29A JUMPI PUSH1 0x4 SLOAD PUSH1 0x40 MLOAD PUSH1 0x1 PUSH1 0x1 PUSH1 0xA0 SHL SUB SWAP1 SWAP2 AND DUP2 MSTORE PUSH1 0x20 SWAP1 RETURN JUMPDEST POP CALLVALUE PUSH2 0x29A JUMPI PUSH1 0x20 CALLDATASIZE PUSH1 0x3 NOT ADD SLT PUSH2 0x29A JUMPI PUSH1 0x4 CALLDATALOAD SWAP1 PUSH1 0x9 SLOAD DUP3 LT ISZERO PUSH2 0x29A JUMPI PUSH1 0x20 PUSH2 0x28C DUP4 PUSH2 0x26F5 JUMP JUMPDEST POP PUSH1 0x40 CALLDATASIZE PUSH1 0x3 NOT ADD SLT PUSH2 0x29A JUMPI PUSH1 0x4 CALLDATALOAD PUSH1 0x24 CALLDATALOAD PUSH1 0x1 PUSH1 0x1 PUSH1 0x40 SHL SUB DUP2 GT PUSH2 0xC31 JUMPI PUSH2 0xB35 SWAP1 CALLDATASIZE SWAP1 PUSH1 0x4 ADD PUSH2 0x268F JUMP JUMPDEST SWAP1 PUSH2 0xB3E PUSH2 0x2B7D JUMP JUMPDEST DUP3 DUP5 MSTORE PUSH1 0xC PUSH1 0x20 MSTORE PUSH1 0xFF PUSH1 0x40 DUP6 KECCAK256 SLOAD AND ISZERO PUSH2 0xBF6 JUMPI CALLVALUE ISZERO PUSH2 0xBBA JUMPI PUSH32 0x298A82860699031727D1BF8A607EC42D9C496CAE1F2762D56954D576C211B1FE SWAP2 DUP4 DUP6 MSTORE PUSH1 0x8 PUSH1 0x20 MSTORE PUSH1 0x1 PUSH1 0x40 DUP7 KECCAK256 ADD PUSH2 0xB95 CALLVALUE DUP3 SLOAD PUSH2 0x2937 JUMP JUMPDEST SWAP1 SSTORE PUSH2 0xBB4 PUSH1 0x40 MLOAD SWAP3 DUP4 SWAP3 CALLVALUE DUP5 MSTORE PUSH1 0x40 PUSH1 0x20 DUP6 ADD MSTORE PUSH1 0x40 DUP5 ADD SWAP2 PUSH2 0x2ACE JUMP JUMPDEST SUB SWAP1 LOG2 DUP1 RETURN JUMPDEST PUSH1 0x40 MLOAD PUSH3 0x461BCD PUSH1 0xE5 SHL DUP2 MSTORE PUSH1 0x20 PUSH1 0x4 DUP3 ADD MSTORE PUSH1 0x14 PUSH1 0x24 DUP3 ADD MSTORE PUSH20 0x139BC81A5B98DBDB59481D1BC819195C1BDCDA5D PUSH1 0x62 SHL PUSH1 0x44 DUP3 ADD MSTORE PUSH1 0x64 SWAP1 REVERT JUMPDEST PUSH1 0x40 MLOAD PUSH3 0x461BCD PUSH1 0xE5 SHL DUP2 MSTORE PUSH1 0x20 PUSH1 0x4 DUP3 ADD MSTORE PUSH1 0x13 PUSH1 0x24 DUP3 ADD MSTORE PUSH19 0x141C9BDC195C9D1E481B9BDD08199D5B991959 PUSH1 0x6A SHL PUSH1 0x44 DUP3 ADD MSTORE PUSH1 0x64 SWAP1 REVERT JUMPDEST DUP3 DUP1 REVERT JUMPDEST POP CALLVALUE PUSH2 0x29A JUMPI DUP1 PUSH1 0x3 NOT CALLDATASIZE ADD SLT PUSH2 0x29A JUMPI PUSH1 0x40 MLOAD PUSH32 0x0 PUSH1 0x1 PUSH1 0x1 PUSH1 0xA0 SHL SUB AND DUP2 MSTORE PUSH1 0x20 SWAP1 RETURN JUMPDEST POP CALLVALUE PUSH2 0x29A JUMPI DUP1 PUSH1 0x3 NOT CALLDATASIZE ADD SLT PUSH2 0x29A JUMPI PUSH1 0x20 SWAP1 PUSH1 0x40 MLOAD SWAP1 DUP2 MSTORE RETURN JUMPDEST POP CALLVALUE PUSH2 0x29A JUMPI DUP1 PUSH1 0x3 NOT CALLDATASIZE ADD SLT PUSH2 0x29A JUMPI PUSH1 0x20 PUSH1 0x40 MLOAD PUSH1 0x46 DUP2 MSTORE RETURN JUMPDEST POP CALLVALUE PUSH2 0x29A JUMPI PUSH1 0x40 CALLDATASIZE PUSH1 0x3 NOT ADD SLT PUSH2 0x29A JUMPI PUSH1 0x40 PUSH2 0xCCE PUSH2 0x2679 JUMP JUMPDEST SWAP2 PUSH1 0x4 CALLDATALOAD DUP2 MSTORE DUP1 PUSH1 0x20 MSTORE KECCAK256 SWAP1 PUSH1 0x1 DUP1 PUSH1 0xA0 SHL SUB AND PUSH1 0x0 MSTORE PUSH1 0x20 MSTORE PUSH1 0x20 PUSH1 0xFF PUSH1 0x40 PUSH1 0x0 KECCAK256 SLOAD AND PUSH1 0x40 MLOAD SWAP1 ISZERO ISZERO DUP2 MSTORE RETURN JUMPDEST POP CALLVALUE PUSH2 0x29A JUMPI PUSH1 0x20 CALLDATASIZE PUSH1 0x3 NOT ADD SLT PUSH2 0x29A JUMPI PUSH1 0x40 PUSH1 0x20 SWAP2 PUSH1 0x4 CALLDATALOAD DUP2 MSTORE PUSH1 0x5 DUP4 MSTORE KECCAK256 SLOAD PUSH1 0x40 MLOAD SWAP1 DUP2 MSTORE RETURN JUMPDEST POP CALLVALUE PUSH2 0x29A JUMPI PUSH1 0x20 CALLDATASIZE PUSH1 0x3 NOT ADD SLT PUSH2 0x29A JUMPI PUSH2 0xD41 PUSH2 0x2663 JUMP JUMPDEST PUSH2 0xD49 PUSH2 0x2B25 JUMP JUMPDEST PUSH1 0x1 DUP1 PUSH1 0xA0 SHL SUB AND PUSH1 0x1 PUSH1 0x1 PUSH1 0x60 SHL SUB PUSH1 0xA0 SHL PUSH1 0x3 SLOAD AND OR PUSH1 0x3 SSTORE DUP1 RETURN JUMPDEST POP CALLVALUE PUSH2 0x29A JUMPI DUP1 PUSH1 0x3 NOT CALLDATASIZE ADD SLT PUSH2 0x29A JUMPI PUSH2 0xD80 PUSH2 0x2B25 JUMP JUMPDEST PUSH2 0xD88 PUSH2 0x2D15 JUMP JUMPDEST PUSH1 0x1 PUSH1 0xFF NOT PUSH1 0x2 SLOAD AND OR PUSH1 0x2 SSTORE PUSH32 0x62E78CEA01BEE320CD4E420270B5EA74000D11B0C9F74754EBDBFC544B05A258 PUSH1 0x20 PUSH1 0x40 MLOAD CALLER DUP2 MSTORE LOG1 DUP1 RETURN JUMPDEST POP CALLVALUE PUSH2 0x29A JUMPI PUSH1 0x60 CALLDATASIZE PUSH1 0x3 NOT ADD SLT PUSH2 0x29A JUMPI PUSH2 0xDDC PUSH2 0x2679 JUMP JUMPDEST PUSH1 0x44 CALLDATALOAD SWAP1 PUSH1 0x1 PUSH1 0x1 PUSH1 0x40 SHL SUB DUP3 GT PUSH2 0xC31 JUMPI PUSH32 0x3914D40C9FE0DAEBD442D05DF43DD630D415A8CE81CE1695843CA510F4F1C4F5 PUSH2 0xE20 PUSH2 0xE3C SWAP4 CALLDATASIZE SWAP1 PUSH1 0x4 ADD PUSH2 0x268F JUMP JUMPDEST SWAP4 SWAP1 PUSH2 0xE2A PUSH2 0x2B7D JUMP JUMPDEST PUSH1 0x40 MLOAD SWAP5 PUSH1 0x40 DUP7 MSTORE PUSH1 0x40 DUP7 ADD SWAP2 PUSH2 0x2ACE JUMP JUMPDEST TIMESTAMP PUSH1 0x20 DUP6 ADD MSTORE PUSH1 0x1 PUSH1 0x1 PUSH1 0xA0 SHL SUB SWAP1 SWAP3 AND SWAP3 PUSH1 0x4 CALLDATALOAD SWAP3 DUP2 SWAP1 SUB SWAP1 LOG3 DUP1 RETURN JUMPDEST POP CALLVALUE PUSH2 0x29A JUMPI PUSH1 0x20 CALLDATASIZE PUSH1 0x3 NOT ADD SLT PUSH2 0x29A JUMPI PUSH1 0x4 CALLDATALOAD DUP2 MSTORE PUSH1 0x8 PUSH1 0x20 MSTORE PUSH1 0x40 DUP2 KECCAK256 SWAP1 DUP2 SLOAD SWAP1 PUSH1 0x1 DUP4 ADD SLOAD SWAP1 PUSH3 0x76A700 DUP4 ADD SWAP1 DUP2 DUP5 GT PUSH2 0xEB7 JUMPI POP PUSH1 0xFF PUSH1 0x2 PUSH1 0x80 SWAP6 ADD SLOAD AND SWAP2 PUSH1 0x40 MLOAD SWAP4 DUP5 MSTORE PUSH1 0x20 DUP5 ADD MSTORE PUSH1 0x40 DUP4 ADD MSTORE ISZERO ISZERO PUSH1 0x60 DUP3 ADD MSTORE RETURN JUMPDEST PUSH4 0x4E487B71 PUSH1 0xE0 SHL DUP2 MSTORE PUSH1 0x11 PUSH1 0x4 MSTORE PUSH1 0x24 SWAP1 REVERT JUMPDEST POP PUSH2 0xED5 CALLDATASIZE PUSH2 0x26BC JUMP JUMPDEST PUSH2 0xEDD PUSH2 0x2BFF JUMP JUMPDEST PUSH2 0xEE5 PUSH2 0x2D15 JUMP JUMPDEST DUP2 DUP4 MSTORE PUSH1 0x6 PUSH1 0x20 MSTORE PUSH1 0x40 DUP4 KECCAK256 SWAP1 PUSH1 0xA PUSH1 0x20 MSTORE PUSH2 0xF07 PUSH1 0xFF PUSH1 0x40 DUP7 KECCAK256 SLOAD AND PUSH2 0x2873 JUMP JUMPDEST PUSH2 0xF18 PUSH1 0xFF PUSH1 0x4 DUP5 ADD SLOAD AND ISZERO PUSH2 0x28B5 JUMP JUMPDEST PUSH1 0x3 DUP3 ADD SLOAD TIMESTAMP LT ISZERO PUSH2 0x1841 JUMPI PUSH1 0x3 SLOAD DUP5 SWAP1 PUSH1 0x1 PUSH1 0x1 PUSH1 0xA0 SHL SUB AND DUP1 PUSH2 0x1748 JUMPI JUMPDEST POP POP PUSH1 0x2 SLOAD PUSH1 0x40 MLOAD PUSH4 0x62AE87AB PUSH1 0xE1 SHL DUP2 MSTORE PUSH1 0x4 DUP2 ADD DUP6 SWAP1 MSTORE SWAP1 PUSH1 0x20 SWAP1 DUP3 SWAP1 PUSH1 0x24 SWAP1 DUP3 SWAP1 PUSH1 0x8 SHR PUSH1 0x1 PUSH1 0x1 PUSH1 0xA0 SHL SUB AND GAS STATICCALL SWAP1 DUP2 ISZERO PUSH2 0x173D JUMPI DUP6 SWAP2 PUSH2 0x170B JUMPI JUMPDEST POP PUSH2 0xF83 DUP3 DUP3 PUSH2 0x284A JUMP JUMPDEST SWAP1 DUP2 CALLVALUE LT PUSH2 0x16CF JUMPI DUP5 DUP7 MSTORE PUSH1 0x5 PUSH1 0x20 MSTORE PUSH1 0x40 DUP7 KECCAK256 PUSH1 0x40 MLOAD SWAP2 PUSH2 0xFA4 DUP4 PUSH2 0x27A8 JUMP JUMPDEST CALLER DUP4 MSTORE DUP7 PUSH1 0x20 DUP5 ADD MSTORE DUP5 PUSH1 0x40 DUP5 ADD MSTORE PUSH1 0x60 DUP4 ADD MSTORE DUP3 PUSH1 0x80 DUP4 ADD MSTORE TIMESTAMP PUSH1 0xA0 DUP4 ADD MSTORE DUP7 PUSH1 0xC0 DUP4 ADD MSTORE DUP1 SLOAD SWAP1 PUSH1 0x1 PUSH1 0x40 SHL DUP3 LT ISZERO PUSH2 0x16BB JUMPI SWAP1 PUSH2 0xFE9 SWAP2 PUSH1 0x1 DUP3 ADD DUP2 SSTORE PUSH2 0x2779 JUMP JUMPDEST SWAP2 SWAP1 SWAP2 PUSH2 0x16A7 JUMPI SWAP1 PUSH1 0x6 PUSH1 0xC0 PUSH2 0x105D SWAP4 PUSH1 0x1 DUP1 PUSH1 0xA0 SHL SUB DUP2 MLOAD AND PUSH1 0x1 PUSH1 0x1 PUSH1 0x60 SHL SUB PUSH1 0xA0 SHL DUP6 SLOAD AND OR DUP5 SSTORE PUSH1 0x20 DUP2 ADD MLOAD PUSH1 0x1 DUP6 ADD SSTORE PUSH1 0x40 DUP2 ADD MLOAD PUSH1 0x2 DUP6 ADD SSTORE PUSH1 0x60 DUP2 ADD MLOAD PUSH1 0x3 DUP6 ADD SSTORE PUSH1 0x80 DUP2 ADD MLOAD PUSH1 0x4 DUP6 ADD SSTORE PUSH1 0xA0 DUP2 ADD MLOAD PUSH1 0x5 DUP6 ADD SSTORE ADD MLOAD ISZERO ISZERO SWAP2 ADD SWAP1 PUSH1 0xFF DUP1 NOT DUP4 SLOAD AND SWAP2 ISZERO ISZERO AND OR SWAP1 SSTORE JUMP JUMPDEST PUSH2 0x1068 DUP2 DUP5 SLOAD PUSH2 0x2937 JUMP JUMPDEST DUP4 SSTORE DUP4 DUP6 MSTORE PUSH1 0x7 PUSH1 0x20 MSTORE PUSH1 0x40 DUP6 KECCAK256 CALLER PUSH1 0x0 MSTORE PUSH1 0x20 MSTORE PUSH1 0x40 PUSH1 0x0 KECCAK256 PUSH2 0x108D DUP3 DUP3 SLOAD PUSH2 0x2937 JUMP JUMPDEST SWAP1 SSTORE PUSH1 0x2 SLOAD DUP6 SWAP1 PUSH1 0x8 SHR PUSH1 0x1 PUSH1 0x1 PUSH1 0xA0 SHL SUB AND DUP1 EXTCODESIZE ISZERO PUSH2 0x1631 JUMPI PUSH1 0x40 MLOAD PUSH4 0x46B40CDF PUSH1 0xE1 SHL DUP2 MSTORE PUSH1 0x4 DUP2 ADD DUP8 SWAP1 MSTORE CALLER PUSH1 0x24 DUP3 ADD MSTORE PUSH1 0x44 DUP2 ADD DUP6 SWAP1 MSTORE SWAP1 DUP3 SWAP1 DUP3 SWAP1 PUSH1 0x64 SWAP1 DUP3 SWAP1 DUP5 SWAP1 GAS CALL DUP1 ISZERO PUSH2 0x775 JUMPI PUSH2 0x168F JUMPI JUMPDEST POP POP DUP1 CALLVALUE GT PUSH2 0x1635 JUMPI JUMPDEST PUSH1 0x40 MLOAD DUP5 PUSH32 0x76D4A8F0927F81646EBA8E062C7769238E76316CA0F16820B27D377C2BECC1E CALLER SWAP3 DUP1 PUSH2 0x1130 TIMESTAMP DUP8 DUP10 DUP5 PUSH1 0x40 SWAP2 SWAP5 SWAP4 SWAP3 PUSH1 0x60 DUP3 ADD SWAP6 DUP3 MSTORE PUSH1 0x20 DUP3 ADD MSTORE ADD MSTORE JUMP JUMPDEST SUB SWAP1 LOG3 PUSH1 0x40 MLOAD SWAP2 PUSH1 0x20 DUP4 ADD SWAP1 TIMESTAMP DUP3 MSTORE CALLER PUSH1 0x60 SHL PUSH1 0x40 DUP6 ADD MSTORE DUP6 PUSH1 0x54 DUP6 ADD MSTORE DUP1 PUSH1 0x74 DUP6 ADD MSTORE PUSH1 0x74 DUP5 MSTORE PUSH1 0xA0 DUP5 ADD SWAP2 DUP5 DUP4 LT PUSH1 0x1 PUSH1 0x1 PUSH1 0x40 SHL SUB DUP5 GT OR PUSH2 0x13C4 JUMPI PUSH2 0x11CE SWAP5 PUSH1 0xE0 SWAP2 DUP5 PUSH1 0x40 MSTORE DUP2 MLOAD SWAP1 KECCAK256 SWAP3 DUP5 MSTORE DUP5 PUSH1 0xC0 DUP3 ADD MSTORE ADD MSTORE DUP5 PUSH32 0x2DED55FD793D860B77D0778A0CDF6984909D323E049F1ED2923EBA867202B361 PUSH1 0x60 CALLER SWAP4 LOG3 DUP4 DUP6 MSTORE PUSH1 0x7 PUSH1 0x20 MSTORE PUSH1 0x40 DUP6 KECCAK256 CALLER PUSH1 0x0 MSTORE PUSH1 0x20 MSTORE PUSH1 0x40 PUSH1 0x0 KECCAK256 SLOAD PUSH2 0x2AC1 JUMP JUMPDEST DUP3 DUP5 MSTORE PUSH1 0x7 PUSH1 0x20 MSTORE PUSH1 0x40 DUP5 KECCAK256 CALLER PUSH1 0x0 MSTORE PUSH1 0x20 MSTORE PUSH1 0x40 PUSH1 0x0 KECCAK256 SLOAD PUSH1 0x40 MLOAD SWAP2 DUP3 MSTORE PUSH1 0x20 DUP3 ADD MSTORE PUSH1 0x1 PUSH1 0x40 DUP3 ADD MSTORE DUP3 PUSH32 0x42D3CD62F75F9115471AA0A6EF108D9E0FEF8E5B6913419BEFD8A166879DEF4F PUSH1 0x60 CALLER SWAP4 LOG3 PUSH1 0x1 DUP2 SLOAD SWAP2 ADD SLOAD GT ISZERO PUSH2 0x1236 JUMPI JUMPDEST POP PUSH1 0x1 DUP1 SSTORE DUP1 RETURN JUMPDEST DUP1 DUP3 MSTORE PUSH1 0x6 PUSH1 0x20 MSTORE PUSH1 0x40 DUP3 KECCAK256 PUSH1 0x4 DUP2 ADD DUP1 SLOAD PUSH1 0xFF NOT AND PUSH1 0x1 OR SWAP1 SSTORE PUSH1 0x2 SLOAD DUP4 SWAP1 PUSH1 0x8 SHR PUSH1 0x1 PUSH1 0x1 PUSH1 0xA0 SHL SUB AND DUP1 EXTCODESIZE ISZERO PUSH2 0x1631 JUMPI DUP2 DUP1 SWAP2 PUSH1 0x24 PUSH1 0x40 MLOAD DUP1 SWAP5 DUP2 SWAP4 PUSH4 0x62B33759 PUSH1 0xE1 SHL DUP4 MSTORE DUP10 PUSH1 0x4 DUP5 ADD MSTORE GAS CALL DUP1 ISZERO PUSH2 0x775 JUMPI PUSH2 0x161D JUMPI JUMPDEST POP POP DUP1 SLOAD PUSH1 0x64 DUP2 MUL SWAP1 DUP1 DUP3 DIV PUSH1 0x64 EQ DUP2 ISZERO OR ISZERO PUSH2 0x1609 JUMPI PUSH2 0x12B8 SWAP1 PUSH2 0x2710 DUP4 DIV SWAP1 PUSH2 0x2AC1 JUMP JUMPDEST PUSH1 0x4 SLOAD SWAP1 SWAP2 SWAP1 DUP6 SWAP1 PUSH1 0x1 SWAP1 PUSH1 0x1 PUSH1 0x1 PUSH1 0xA0 SHL SUB AND DUP1 PUSH2 0x14C0 JUMPI JUMPDEST POP DUP1 PUSH2 0x14B3 JUMPI JUMPDEST PUSH2 0x13DA JUMPI JUMPDEST POP POP PUSH1 0x40 MLOAD PUSH1 0x60 DUP2 ADD SWAP1 DUP1 DUP3 LT PUSH1 0x1 PUSH1 0x1 PUSH1 0x40 SHL SUB DUP4 GT OR PUSH2 0x13C4 JUMPI PUSH2 0x1342 SWAP2 PUSH1 0x40 MSTORE TIMESTAMP DUP2 MSTORE PUSH1 0x2 PUSH1 0x20 DUP3 ADD DUP8 DUP2 MSTORE PUSH1 0x40 DUP4 ADD SWAP1 PUSH1 0x1 DUP3 MSTORE DUP8 DUP10 MSTORE PUSH1 0x8 PUSH1 0x20 MSTORE PUSH1 0x40 DUP10 KECCAK256 SWAP4 MLOAD DUP5 SSTORE MLOAD PUSH1 0x1 DUP5 ADD SSTORE MLOAD ISZERO ISZERO SWAP2 ADD SWAP1 PUSH1 0xFF DUP1 NOT DUP4 SLOAD AND SWAP2 ISZERO ISZERO AND OR SWAP1 SSTORE JUMP JUMPDEST PUSH1 0xB SLOAD SWAP1 PUSH1 0x1 PUSH1 0x40 SHL DUP3 LT ISZERO PUSH2 0x13C4 JUMPI PUSH32 0xBD04B0E879E6A84A288E6660CFCC2E8337035A9AD3343FF360C4AEFB45576AAE SWAP3 PUSH2 0x1386 DUP4 PUSH1 0x1 PUSH1 0x40 SWAP6 ADD PUSH1 0xB SSTORE PUSH2 0x2742 JUMP JUMPDEST DUP2 SLOAD SWAP1 PUSH1 0x3 SHL SWAP1 DUP8 DUP3 SHL SWAP2 PUSH1 0x0 NOT SWAP1 SHL NOT AND OR SWAP1 SSTORE DUP5 DUP7 MSTORE PUSH1 0xC PUSH1 0x20 MSTORE DUP3 DUP7 KECCAK256 PUSH1 0x1 PUSH1 0xFF NOT DUP3 SLOAD AND OR SWAP1 SSTORE SLOAD SWAP1 DUP3 MLOAD SWAP2 DUP3 MSTORE PUSH1 0x20 DUP3 ADD MSTORE LOG2 CODESIZE PUSH2 0x122E JUMP JUMPDEST PUSH4 0x4E487B71 PUSH1 0xE0 SHL PUSH1 0x0 MSTORE PUSH1 0x41 PUSH1 0x4 MSTORE PUSH1 0x24 PUSH1 0x0 REVERT JUMPDEST PUSH1 0x4 DUP5 ADD DUP1 SLOAD PUSH3 0xFF0000 NOT AND PUSH3 0x10000 OR SWAP1 SSTORE PUSH32 0x0 PUSH1 0x1 PUSH1 0x1 PUSH1 0xA0 SHL SUB AND SWAP2 DUP7 DUP1 DUP1 DUP1 PUSH2 0x2710 DUP6 DIV DUP8 GAS CALL PUSH2 0x142C PUSH2 0x281A JUMP JUMPDEST POP ISZERO PUSH2 0x146E JUMPI PUSH1 0x40 PUSH32 0xD3BFF92A06F059FFE4DC0961B88C7A33C074D4CB95D95D996AD9A094E0F14DB2 SWAP2 DUP8 SWAP4 PUSH2 0x2710 DUP4 MLOAD SWAP3 DIV DUP3 MSTORE PUSH1 0x20 DUP3 ADD MSTORE LOG3 CODESIZE DUP1 PUSH2 0x12DE JUMP JUMPDEST PUSH1 0x40 MLOAD PUSH3 0x461BCD PUSH1 0xE5 SHL DUP2 MSTORE PUSH1 0x20 PUSH1 0x4 DUP3 ADD MSTORE PUSH1 0x1B PUSH1 0x24 DUP3 ADD MSTORE PUSH32 0x466F756E64657220666565207472616E73666572206661696C65640000000000 PUSH1 0x44 DUP3 ADD MSTORE PUSH1 0x64 SWAP1 REVERT JUMPDEST POP PUSH2 0x2710 DUP3 DIV ISZERO ISZERO PUSH2 0x12D9 JUMP JUMPDEST SWAP1 DUP8 PUSH1 0x5 DUP8 ADD SLOAD PUSH1 0x24 PUSH1 0x40 MLOAD DUP1 SWAP6 DUP2 SWAP4 PUSH4 0x25425151 PUSH1 0xE2 SHL DUP4 MSTORE PUSH1 0x4 DUP4 ADD MSTORE GAS STATICCALL DUP9 SWAP3 DUP2 PUSH2 0x1575 JUMPI JUMPDEST POP PUSH2 0x14F9 JUMPI POP POP PUSH1 0x1 JUMPDEST CODESIZE PUSH2 0x12D2 JUMP JUMPDEST SWAP1 SWAP2 POP DUP2 PUSH1 0x46 DUP2 LT PUSH2 0x150C JUMPI JUMPDEST POP PUSH2 0x14F3 JUMP JUMPDEST SWAP1 POP DUP6 PUSH32 0x2B0A0EB5CC368F947EC76563B6992D3EC41DBE4A0BAE8891D41589C2249FD48E PUSH1 0x80 DUP10 SWAP4 PUSH1 0x40 MLOAD SWAP1 DUP2 MSTORE PUSH1 0x40 PUSH1 0x20 DUP3 ADD MSTORE PUSH1 0x1F PUSH1 0x40 DUP3 ADD MSTORE PUSH32 0x496D706163742073636F72652062656C6F77203730207468726573686F6C6400 PUSH1 0x60 DUP3 ADD MSTORE LOG2 CODESIZE PUSH2 0x1506 JUMP JUMPDEST SWAP1 SWAP3 POP RETURNDATASIZE SWAP1 DUP2 DUP11 DUP3 RETURNDATACOPY PUSH2 0x1588 DUP3 DUP3 PUSH2 0x27DE JUMP JUMPDEST PUSH1 0x40 DUP2 DUP4 DUP2 ADD SUB SLT PUSH2 0x1605 JUMPI DUP1 MLOAD SWAP2 PUSH1 0x1 PUSH1 0x1 PUSH1 0x40 SHL SUB DUP4 GT PUSH2 0x1601 JUMPI DUP1 DUP3 ADD PUSH1 0x1F DUP5 DUP5 ADD ADD SLT ISZERO PUSH2 0x1601 JUMPI DUP3 DUP3 ADD MLOAD PUSH2 0x15C1 DUP2 PUSH2 0x27FF JUMP JUMPDEST SWAP2 PUSH2 0x15CF PUSH1 0x40 MLOAD SWAP4 DUP5 PUSH2 0x27DE JUMP JUMPDEST DUP2 DUP4 MSTORE DUP4 ADD PUSH1 0x20 DUP3 DUP7 DUP7 ADD ADD ADD GT PUSH2 0x15FD JUMPI PUSH1 0x20 SWAP4 DUP5 DUP1 PUSH2 0x15F4 SWAP5 ADD SWAP2 DUP6 ADD ADD PUSH2 0x26D2 JUMP JUMPDEST ADD MLOAD SWAP2 CODESIZE PUSH2 0x14E9 JUMP JUMPDEST DUP12 DUP1 REVERT JUMPDEST DUP11 DUP1 REVERT JUMPDEST DUP10 DUP1 REVERT JUMPDEST PUSH4 0x4E487B71 PUSH1 0xE0 SHL DUP6 MSTORE PUSH1 0x11 PUSH1 0x4 MSTORE PUSH1 0x24 DUP6 REVERT JUMPDEST PUSH2 0x1626 SWAP1 PUSH2 0x2795 JUMP JUMPDEST PUSH2 0xC31 JUMPI DUP3 CODESIZE PUSH2 0x1292 JUMP JUMPDEST POP DUP1 REVERT JUMPDEST DUP5 DUP1 DUP1 DUP1 PUSH2 0x1643 DUP6 CALLVALUE PUSH2 0x2AC1 JUMP JUMPDEST CALLER GAS CALL PUSH2 0x164E PUSH2 0x281A JUMP JUMPDEST POP PUSH2 0x10EB JUMPI PUSH1 0x40 MLOAD PUSH3 0x461BCD PUSH1 0xE5 SHL DUP2 MSTORE PUSH1 0x20 PUSH1 0x4 DUP3 ADD MSTORE PUSH1 0x14 PUSH1 0x24 DUP3 ADD MSTORE PUSH20 0x115E18D95CDCC81C99599D5B990819985A5B1959 PUSH1 0x62 SHL PUSH1 0x44 DUP3 ADD MSTORE PUSH1 0x64 SWAP1 REVERT JUMPDEST PUSH2 0x1698 SWAP1 PUSH2 0x2795 JUMP JUMPDEST PUSH2 0x16A3 JUMPI DUP5 CODESIZE PUSH2 0x10E1 JUMP JUMPDEST DUP5 DUP1 REVERT JUMPDEST PUSH4 0x4E487B71 PUSH1 0xE0 SHL DUP8 MSTORE PUSH1 0x4 DUP8 SWAP1 MSTORE PUSH1 0x24 DUP8 REVERT JUMPDEST PUSH4 0x4E487B71 PUSH1 0xE0 SHL DUP9 MSTORE PUSH1 0x41 PUSH1 0x4 MSTORE PUSH1 0x24 DUP9 REVERT JUMPDEST PUSH1 0x40 MLOAD PUSH3 0x461BCD PUSH1 0xE5 SHL DUP2 MSTORE PUSH1 0x20 PUSH1 0x4 DUP3 ADD MSTORE PUSH1 0x14 PUSH1 0x24 DUP3 ADD MSTORE PUSH20 0x125B9CDD59999A58DA595B9D081C185E5B595B9D PUSH1 0x62 SHL PUSH1 0x44 DUP3 ADD MSTORE PUSH1 0x64 SWAP1 REVERT JUMPDEST SWAP1 POP PUSH1 0x20 DUP2 RETURNDATASIZE PUSH1 0x20 GT PUSH2 0x1735 JUMPI JUMPDEST DUP2 PUSH2 0x1726 PUSH1 0x20 SWAP4 DUP4 PUSH2 0x27DE JUMP JUMPDEST DUP2 ADD SUB SLT PUSH2 0x7B1 JUMPI MLOAD CODESIZE PUSH2 0xF78 JUMP JUMPDEST RETURNDATASIZE SWAP2 POP PUSH2 0x1719 JUMP JUMPDEST PUSH1 0x40 MLOAD RETURNDATASIZE DUP8 DUP3 RETURNDATACOPY RETURNDATASIZE SWAP1 REVERT JUMPDEST PUSH1 0x20 SWAP1 PUSH1 0x24 PUSH1 0x40 MLOAD DUP1 SWAP5 DUP2 SWAP4 PUSH4 0x3C84AF87 PUSH1 0xE0 SHL DUP4 MSTORE CALLER PUSH1 0x4 DUP5 ADD MSTORE GAS CALL DUP1 ISZERO PUSH2 0x173D JUMPI DUP6 SWAP1 PUSH2 0x180E JUMPI JUMPDEST PUSH1 0x50 SWAP2 POP GT PUSH2 0x1783 JUMPI DUP4 CODESIZE PUSH2 0xF38 JUMP JUMPDEST DUP3 PUSH1 0x40 MLOAD SWAP1 PUSH1 0x40 DUP3 MSTORE PUSH1 0xE PUSH1 0x40 DUP4 ADD MSTORE PUSH14 0x4869676820414D4C2053636F7265 PUSH1 0x90 SHL PUSH1 0x60 DUP4 ADD MSTORE TIMESTAMP PUSH1 0x20 DUP4 ADD MSTORE PUSH32 0x3914D40C9FE0DAEBD442D05DF43DD630D415A8CE81CE1695843CA510F4F1C4F5 PUSH1 0x80 CALLER SWAP4 LOG3 PUSH1 0x40 MLOAD PUSH3 0x461BCD PUSH1 0xE5 SHL DUP2 MSTORE PUSH1 0x20 PUSH1 0x4 DUP3 ADD MSTORE PUSH1 0x10 PUSH1 0x24 DUP3 ADD MSTORE PUSH16 0x1053530818DA1958DAC819985A5B1959 PUSH1 0x82 SHL PUSH1 0x44 DUP3 ADD MSTORE PUSH1 0x64 SWAP1 REVERT JUMPDEST POP PUSH1 0x20 DUP2 RETURNDATASIZE PUSH1 0x20 GT PUSH2 0x1839 JUMPI JUMPDEST DUP2 PUSH2 0x1828 PUSH1 0x20 SWAP4 DUP4 PUSH2 0x27DE JUMP JUMPDEST DUP2 ADD SUB SLT PUSH2 0x7B1 JUMPI PUSH1 0x50 SWAP1 MLOAD PUSH2 0x1773 JUMP JUMPDEST RETURNDATASIZE SWAP2 POP PUSH2 0x181B JUMP JUMPDEST PUSH1 0x40 MLOAD PUSH3 0x461BCD PUSH1 0xE5 SHL DUP2 MSTORE PUSH1 0x20 PUSH1 0x4 DUP3 ADD MSTORE PUSH1 0x17 PUSH1 0x24 DUP3 ADD MSTORE PUSH32 0x46756E64696E6720646561646C696E6520706173736564000000000000000000 PUSH1 0x44 DUP3 ADD MSTORE PUSH1 0x64 SWAP1 REVERT JUMPDEST POP CALLVALUE PUSH2 0x29A JUMPI PUSH1 0x20 SWAP1 DUP2 PUSH1 0x3 NOT CALLDATASIZE ADD SLT PUSH2 0x29A JUMPI PUSH1 0x4 CALLDATALOAD DUP2 MSTORE PUSH1 0x5 DUP1 DUP4 MSTORE PUSH1 0x40 DUP3 KECCAK256 SWAP3 DUP4 SLOAD PUSH1 0x1 PUSH1 0x1 PUSH1 0x40 SHL SUB DUP2 GT PUSH2 0x19E1 JUMPI SWAP2 DUP5 SWAP2 SWAP3 PUSH1 0x40 MLOAD SWAP2 PUSH2 0x18D0 DUP6 DUP4 PUSH1 0x5 SHL ADD DUP5 PUSH2 0x27DE JUMP JUMPDEST DUP2 DUP4 MSTORE DUP5 DUP4 ADD SWAP1 DUP2 SWAP5 DUP8 MSTORE DUP6 DUP8 KECCAK256 SWAP1 DUP8 SWAP3 JUMPDEST DUP5 DUP5 LT PUSH2 0x196E JUMPI POP POP POP POP POP PUSH1 0x40 MLOAD SWAP3 DUP1 DUP5 ADD SWAP2 DUP2 DUP6 MSTORE MLOAD DUP1 SWAP3 MSTORE PUSH1 0x40 DUP5 ADD SWAP3 SWAP5 JUMPDEST DUP3 DUP2 LT PUSH2 0x1911 JUMPI DUP5 DUP5 SUB DUP6 RETURN JUMPDEST DUP6 MLOAD DUP1 MLOAD PUSH1 0x1 PUSH1 0x1 PUSH1 0xA0 SHL SUB AND DUP6 MSTORE DUP1 DUP4 ADD MLOAD DUP6 DUP5 ADD MSTORE PUSH1 0x40 DUP1 DUP3 ADD MLOAD SWAP1 DUP7 ADD MSTORE PUSH1 0x60 DUP1 DUP3 ADD MLOAD SWAP1 DUP7 ADD MSTORE PUSH1 0x80 DUP1 DUP3 ADD MLOAD SWAP1 DUP7 ADD MSTORE PUSH1 0xA0 DUP1 DUP3 ADD MLOAD SWAP1 DUP7 ADD MSTORE PUSH1 0xC0 SWAP1 DUP2 ADD MLOAD ISZERO ISZERO SWAP1 DUP6 ADD MSTORE SWAP5 DUP2 ADD SWAP5 PUSH1 0xE0 SWAP1 SWAP4 ADD SWAP3 PUSH1 0x1 ADD PUSH2 0x1904 JUMP JUMPDEST PUSH1 0x7 DUP9 PUSH1 0x1 SWAP3 PUSH1 0x40 SWAP12 SWAP11 SWAP9 SWAP10 SWAP12 MLOAD PUSH2 0x1985 DUP2 PUSH2 0x27A8 JUMP JUMPDEST DUP5 DUP1 PUSH1 0xA0 SHL SUB DUP8 SLOAD AND DUP2 MSTORE DUP5 DUP8 ADD SLOAD DUP4 DUP3 ADD MSTORE PUSH1 0x2 DUP8 ADD SLOAD PUSH1 0x40 DUP3 ADD MSTORE PUSH1 0x3 DUP8 ADD SLOAD PUSH1 0x60 DUP3 ADD MSTORE PUSH1 0x4 DUP8 ADD SLOAD PUSH1 0x80 DUP3 ADD MSTORE DUP6 DUP8 ADD SLOAD PUSH1 0xA0 DUP3 ADD MSTORE PUSH1 0xFF PUSH1 0x6 DUP9 ADD SLOAD AND ISZERO ISZERO PUSH1 0xC0 DUP3 ADD MSTORE DUP2 MSTORE ADD SWAP4 ADD SWAP4 ADD SWAP3 SWAP2 SWAP8 SWAP6 SWAP5 SWAP7 SWAP8 PUSH2 0x18E2 JUMP JUMPDEST PUSH4 0x4E487B71 PUSH1 0xE0 SHL DUP5 MSTORE PUSH1 0x41 PUSH1 0x4 MSTORE PUSH1 0x24 DUP5 REVERT JUMPDEST POP CALLVALUE PUSH2 0x29A JUMPI PUSH1 0x20 CALLDATASIZE PUSH1 0x3 NOT ADD SLT PUSH2 0x29A JUMPI PUSH1 0x4 CALLDATALOAD PUSH1 0x1 PUSH1 0x1 PUSH1 0x40 SHL SUB DUP2 GT PUSH2 0x1631 JUMPI PUSH2 0x1A26 SWAP1 CALLDATASIZE SWAP1 PUSH1 0x4 ADD PUSH2 0x268F JUMP JUMPDEST POP POP PUSH1 0x60 PUSH2 0x1A32 PUSH2 0x2944 JUMP JUMPDEST SWAP2 SWAP1 PUSH1 0x40 MLOAD SWAP3 DUP4 SWAP2 ISZERO ISZERO DUP3 MSTORE PUSH1 0x40 PUSH1 0x20 DUP4 ADD MSTORE PUSH2 0x1A5E DUP2 MLOAD DUP1 SWAP3 DUP2 PUSH1 0x40 DUP7 ADD MSTORE PUSH1 0x20 DUP7 DUP7 ADD SWAP2 ADD PUSH2 0x26D2 JUMP JUMPDEST PUSH1 0x1F ADD PUSH1 0x1F NOT AND DUP2 ADD SUB ADD SWAP1 RETURN JUMPDEST POP CALLVALUE PUSH2 0x29A JUMPI DUP1 PUSH1 0x3 NOT CALLDATASIZE ADD SLT PUSH2 0x29A JUMPI PUSH1 0x20 PUSH1 0xFF PUSH1 0x2 SLOAD AND PUSH1 0x40 MLOAD SWAP1 ISZERO ISZERO DUP2 MSTORE RETURN JUMPDEST POP CALLVALUE PUSH2 0x29A JUMPI PUSH1 0x80 CALLDATASIZE PUSH1 0x3 NOT ADD SLT PUSH2 0x29A JUMPI PUSH1 0x24 SWAP1 DUP2 CALLDATALOAD PUSH1 0x4 CALLDATALOAD PUSH2 0x1AB1 PUSH2 0x2B7D JUMP JUMPDEST DUP1 DUP4 MSTORE PUSH1 0x20 SWAP2 PUSH1 0xA DUP4 MSTORE PUSH1 0xFF PUSH1 0x40 DUP6 KECCAK256 SLOAD AND PUSH2 0x1C84 JUMPI DUP1 ISZERO PUSH2 0x1C40 JUMPI PUSH2 0x2710 DUP2 MUL PUSH2 0x270F NOT DUP3 DUP3 DIV ADD PUSH2 0x1C2D JUMPI PUSH2 0x26AC SWAP1 DIV SWAP1 DUP3 DUP6 MSTORE PUSH1 0xE DUP5 MSTORE DUP2 PUSH1 0x40 DUP7 KECCAK256 SSTORE PUSH1 0x40 MLOAD SWAP2 PUSH2 0x100 DUP4 ADD SWAP2 DUP4 DUP4 LT PUSH1 0x1 PUSH1 0x1 PUSH1 0x40 SHL SUB DUP5 GT OR PUSH2 0x1C18 JUMPI PUSH1 0x5 SWAP3 PUSH1 0x40 MSTORE DUP7 DUP5 MSTORE DUP6 DUP5 ADD SWAP2 DUP3 MSTORE PUSH1 0x40 DUP5 ADD SWAP1 DUP2 MSTORE PUSH1 0x60 DUP5 ADD SWAP1 PUSH1 0x44 CALLDATALOAD DUP3 MSTORE PUSH1 0x80 DUP6 ADD SWAP2 DUP9 DUP4 MSTORE PUSH1 0xA0 DUP7 ADD SWAP1 DUP10 DUP3 MSTORE PUSH1 0xC0 DUP8 ADD SWAP3 DUP11 DUP5 MSTORE PUSH1 0xE0 DUP9 ADD SWAP6 PUSH1 0x64 CALLDATALOAD DUP8 MSTORE DUP10 DUP13 MSTORE PUSH1 0x6 DUP12 MSTORE PUSH1 0x40 DUP13 KECCAK256 SWAP9 MLOAD DUP10 SSTORE MLOAD PUSH1 0x1 DUP10 ADD SSTORE MLOAD PUSH1 0x2 DUP9 ADD SSTORE MLOAD PUSH1 0x3 DUP8 ADD SSTORE PUSH2 0x1B8D PUSH1 0x4 DUP8 ADD SWAP4 MLOAD ISZERO ISZERO DUP5 SWAP1 PUSH1 0xFF DUP1 NOT DUP4 SLOAD AND SWAP2 ISZERO ISZERO AND OR SWAP1 SSTORE JUMP JUMPDEST MLOAD ISZERO ISZERO SWAP1 PUSH2 0xFF00 PUSH3 0xFF0000 DUP5 SLOAD SWAP3 MLOAD ISZERO ISZERO PUSH1 0x10 SHL AND SWAP3 PUSH1 0x8 SHL AND SWAP1 PUSH3 0xFFFF00 NOT AND OR OR SWAP1 SSTORE MLOAD SWAP2 ADD SSTORE PUSH1 0x9 SLOAD SWAP4 PUSH1 0x1 PUSH1 0x40 SHL DUP6 LT ISZERO PUSH2 0x1C04 JUMPI POP PUSH2 0x1BDA DUP5 PUSH1 0x1 PUSH1 0xA SWAP6 SWAP7 ADD PUSH1 0x9 SSTORE PUSH2 0x26F5 JUMP JUMPDEST DUP2 SLOAD SWAP1 PUSH1 0x3 SHL SWAP1 DUP4 DUP3 SHL SWAP2 PUSH1 0x0 NOT SWAP1 SHL NOT AND OR SWAP1 SSTORE DUP4 MSTORE MSTORE PUSH1 0x40 DUP2 KECCAK256 PUSH1 0x1 PUSH1 0xFF NOT DUP3 SLOAD AND OR SWAP1 SSTORE DUP1 RETURN JUMPDEST PUSH4 0x4E487B71 PUSH1 0xE0 SHL PUSH1 0x0 SWAP1 DUP2 MSTORE PUSH1 0x41 PUSH1 0x4 MSTORE REVERT JUMPDEST DUP8 PUSH4 0x4E487B71 PUSH1 0xE0 SHL PUSH1 0x0 MSTORE PUSH1 0x41 PUSH1 0x4 MSTORE PUSH1 0x0 REVERT JUMPDEST PUSH4 0x4E487B71 PUSH1 0xE0 SHL DUP6 MSTORE PUSH1 0x11 PUSH1 0x4 MSTORE DUP6 DUP6 REVERT JUMPDEST PUSH1 0x40 MLOAD PUSH3 0x461BCD PUSH1 0xE5 SHL DUP2 MSTORE PUSH1 0x4 DUP2 ADD DUP5 SWAP1 MSTORE PUSH1 0x17 DUP2 DUP8 ADD MSTORE PUSH32 0x50726F6A65637420627564676574207265717569726564000000000000000000 PUSH1 0x44 DUP3 ADD MSTORE PUSH1 0x64 SWAP1 REVERT JUMPDEST PUSH1 0x40 MLOAD PUSH3 0x461BCD PUSH1 0xE5 SHL DUP2 MSTORE PUSH1 0x4 DUP2 ADD DUP5 SWAP1 MSTORE PUSH1 0x15 DUP2 DUP8 ADD MSTORE PUSH21 0x457363726F7720616C726561647920657869737473 PUSH1 0x58 SHL PUSH1 0x44 DUP3 ADD MSTORE PUSH1 0x64 SWAP1 REVERT JUMPDEST POP CALLVALUE PUSH2 0x29A JUMPI PUSH2 0x1CCF CALLDATASIZE PUSH2 0x26BC JUMP JUMPDEST DUP2 DUP4 SWAP3 SWAP4 MSTORE PUSH1 0x5 PUSH1 0x20 MSTORE PUSH1 0x40 DUP3 KECCAK256 SLOAD DUP2 LT ISZERO PUSH2 0x1D49 JUMPI PUSH1 0x40 DUP3 PUSH1 0xC0 SWAP5 PUSH2 0x1CFB SWAP5 MSTORE PUSH1 0x5 PUSH1 0x20 MSTORE KECCAK256 PUSH2 0x2779 JUMP JUMPDEST POP PUSH1 0x1 DUP1 PUSH1 0xA0 SHL SUB DUP2 SLOAD AND SWAP1 PUSH1 0x2 DUP2 ADD SLOAD SWAP1 PUSH1 0x3 DUP2 ADD SLOAD PUSH1 0x4 DUP3 ADD SLOAD SWAP1 PUSH1 0xFF PUSH1 0x6 PUSH1 0x5 DUP6 ADD SLOAD SWAP5 ADD SLOAD AND SWAP4 PUSH1 0x40 MLOAD SWAP6 DUP7 MSTORE PUSH1 0x20 DUP7 ADD MSTORE PUSH1 0x40 DUP6 ADD MSTORE PUSH1 0x60 DUP5 ADD MSTORE PUSH1 0x80 DUP4 ADD MSTORE ISZERO ISZERO PUSH1 0xA0 DUP3 ADD MSTORE RETURN JUMPDEST PUSH1 0x40 MLOAD PUSH3 0x461BCD PUSH1 0xE5 SHL DUP2 MSTORE PUSH1 0x20 PUSH1 0x4 DUP3 ADD MSTORE PUSH1 0x13 PUSH1 0x24 DUP3 ADD MSTORE PUSH19 0x496E646578206F7574206F6620626F756E6473 PUSH1 0x68 SHL PUSH1 0x44 DUP3 ADD MSTORE PUSH1 0x64 SWAP1 REVERT JUMPDEST POP CALLVALUE PUSH2 0x29A JUMPI PUSH1 0x20 DUP1 PUSH1 0x3 NOT CALLDATASIZE ADD SLT PUSH2 0x1631 JUMPI PUSH1 0x4 CALLDATALOAD SWAP1 PUSH1 0x1 PUSH1 0x1 PUSH1 0x40 SHL SUB DUP3 GT PUSH2 0xC31 JUMPI PUSH2 0x1DB9 PUSH1 0x40 SWAP3 CALLDATASIZE SWAP1 PUSH1 0x4 ADD PUSH2 0x268F JUMP JUMPDEST SWAP1 DUP1 SWAP4 SWAP2 DUP2 ADD SUB SLT PUSH2 0xC31 JUMPI DUP2 CALLDATALOAD SWAP2 PUSH1 0xFF DUP4 AND DUP1 SWAP4 SUB PUSH2 0x780 JUMPI DUP2 ADD CALLDATALOAD SWAP2 DUP1 PUSH2 0x1E9E JUMPI POP DUP2 DUP4 MSTORE PUSH1 0x6 DUP2 MSTORE PUSH1 0x40 DUP4 KECCAK256 SWAP1 PUSH1 0xA DUP2 MSTORE PUSH2 0x1DFD PUSH1 0xFF PUSH1 0x40 DUP7 KECCAK256 SLOAD AND PUSH2 0x2873 JUMP JUMPDEST PUSH1 0xFF PUSH1 0x4 DUP4 ADD SLOAD PUSH2 0x1E10 DUP3 DUP3 AND ISZERO PUSH2 0x28B5 JUMP JUMPDEST PUSH1 0x8 SHR AND PUSH2 0x1E66 JUMPI POP PUSH1 0x3 PUSH2 0x1E29 SWAP2 ADD SLOAD TIMESTAMP LT ISZERO PUSH2 0x28F4 JUMP JUMPDEST ADDRESS EXTCODESIZE ISZERO PUSH2 0x1631 JUMPI PUSH1 0x40 MLOAD SWAP1 PUSH4 0xC6F56901 PUSH1 0xE0 SHL DUP3 MSTORE PUSH1 0x4 DUP3 ADD MSTORE DUP2 DUP2 PUSH1 0x24 DUP2 DUP4 ADDRESS GAS CALL DUP1 ISZERO PUSH2 0x775 JUMPI PUSH2 0x1E5A JUMPI POP DUP1 RETURN JUMPDEST PUSH2 0x1E63 SWAP1 PUSH2 0x2795 JUMP JUMPDEST DUP1 RETURN JUMPDEST PUSH1 0x64 SWAP1 PUSH1 0x40 MLOAD SWAP1 PUSH3 0x461BCD PUSH1 0xE5 SHL DUP3 MSTORE PUSH1 0x4 DUP3 ADD MSTORE PUSH1 0x11 PUSH1 0x24 DUP3 ADD MSTORE PUSH17 0x1499599D5B991CC81C1C9BD8D95CDCD959 PUSH1 0x7A SHL PUSH1 0x44 DUP3 ADD MSTORE REVERT JUMPDEST PUSH1 0x1 EQ PUSH2 0x1EAA JUMPI POP POP DUP1 RETURN JUMPDEST DUP2 DUP4 MSTORE PUSH1 0x8 DUP2 MSTORE PUSH1 0x40 DUP4 KECCAK256 SWAP1 PUSH1 0xFF PUSH1 0x2 DUP4 ADD SLOAD AND ISZERO PUSH2 0x2059 JUMPI DUP2 SLOAD PUSH3 0x76A700 DUP2 ADD DUP1 SWAP2 GT PUSH2 0x1609 JUMPI TIMESTAMP LT PUSH2 0x2015 JUMPI PUSH1 0x1 DUP3 ADD SWAP2 DUP3 SLOAD SWAP3 DUP4 ISZERO PUSH2 0x1FD0 JUMPI DUP6 SWAP1 SSTORE TIMESTAMP SWAP1 SSTORE PUSH1 0x64 DUP3 MUL DUP3 DUP2 DIV PUSH1 0x64 SUB PUSH2 0x1609 JUMPI PUSH2 0x2710 SWAP1 DIV PUSH2 0x1F09 DUP2 DUP5 PUSH2 0x2AC1 JUMP JUMPDEST SWAP2 DUP2 PUSH2 0x1F4F JUMPI JUMPDEST SWAP2 PUSH32 0xFA2256ED22B95BAD4ADE0813DBE7B8EEE9382165C52AA77952DE366B24BF8E20 SWAP4 SWAP2 PUSH1 0x80 SWAP4 PUSH1 0x40 MLOAD SWAP4 DUP5 MSTORE DUP4 ADD MSTORE PUSH1 0x40 DUP3 ADD MSTORE TIMESTAMP PUSH1 0x60 DUP3 ADD MSTORE LOG2 DUP1 RETURN JUMPDEST DUP6 DUP1 DUP1 DUP1 DUP6 PUSH32 0x0 PUSH1 0x1 PUSH1 0x1 PUSH1 0xA0 SHL SUB AND GAS CALL PUSH2 0x1F88 PUSH2 0x281A JUMP JUMPDEST POP PUSH2 0x1F10 JUMPI PUSH1 0x64 SWAP1 PUSH1 0x40 MLOAD SWAP1 PUSH3 0x461BCD PUSH1 0xE5 SHL DUP3 MSTORE DUP1 PUSH1 0x4 DUP4 ADD MSTORE PUSH1 0x24 DUP3 ADD MSTORE PUSH32 0x466F756E64657220717561727465726C79207061796D656E74206661696C6564 PUSH1 0x44 DUP3 ADD MSTORE REVERT JUMPDEST PUSH1 0x40 MLOAD PUSH3 0x461BCD PUSH1 0xE5 SHL DUP2 MSTORE PUSH1 0x4 DUP2 ADD DUP5 SWAP1 MSTORE PUSH1 0x17 PUSH1 0x24 DUP3 ADD MSTORE PUSH32 0x4E6F20696E636F6D6520746F2064697374726962757465000000000000000000 PUSH1 0x44 DUP3 ADD MSTORE PUSH1 0x64 SWAP1 REVERT JUMPDEST PUSH1 0x64 SWAP1 PUSH1 0x40 MLOAD SWAP1 PUSH3 0x461BCD PUSH1 0xE5 SHL DUP3 MSTORE PUSH1 0x4 DUP3 ADD MSTORE PUSH1 0x1A PUSH1 0x24 DUP3 ADD MSTORE PUSH32 0x546F6F206561726C7920666F7220646973747269627574696F6E000000000000 PUSH1 0x44 DUP3 ADD MSTORE REVERT JUMPDEST PUSH1 0x64 SWAP1 PUSH1 0x40 MLOAD SWAP1 PUSH3 0x461BCD PUSH1 0xE5 SHL DUP3 MSTORE PUSH1 0x4 DUP3 ADD MSTORE PUSH1 0x16 PUSH1 0x24 DUP3 ADD MSTORE PUSH22 0x4E6F74206120747261636B65642070726F7065727479 PUSH1 0x50 SHL PUSH1 0x44 DUP3 ADD MSTORE REVERT JUMPDEST POP CALLVALUE PUSH2 0x29A JUMPI DUP1 PUSH1 0x3 NOT CALLDATASIZE ADD SLT PUSH2 0x29A JUMPI PUSH1 0x2 SLOAD PUSH1 0x40 MLOAD PUSH1 0x8 SWAP2 SWAP1 SWAP2 SHR PUSH1 0x1 PUSH1 0x1 PUSH1 0xA0 SHL SUB AND DUP2 MSTORE PUSH1 0x20 SWAP1 RETURN JUMPDEST POP CALLVALUE PUSH2 0x29A JUMPI PUSH1 0x40 CALLDATASIZE PUSH1 0x3 NOT ADD SLT PUSH2 0x29A JUMPI PUSH1 0x40 PUSH1 0x20 SWAP2 PUSH2 0x20E2 PUSH2 0x2679 JUMP JUMPDEST PUSH1 0x4 CALLDATALOAD DUP3 MSTORE PUSH1 0x7 DUP5 MSTORE DUP3 DUP3 KECCAK256 PUSH1 0x1 PUSH1 0x1 PUSH1 0xA0 SHL SUB SWAP1 SWAP2 AND DUP3 MSTORE DUP4 MSTORE KECCAK256 SLOAD PUSH1 0x40 MLOAD SWAP1 DUP2 MSTORE RETURN JUMPDEST POP CALLVALUE PUSH2 0x29A JUMPI DUP1 PUSH1 0x3 NOT CALLDATASIZE ADD SLT PUSH2 0x29A JUMPI PUSH2 0x2120 PUSH2 0x2B25 JUMP JUMPDEST PUSH1 0x2 SLOAD PUSH1 0xFF DUP2 AND ISZERO PUSH2 0x2160 JUMPI PUSH1 0xFF NOT AND PUSH1 0x2 SSTORE PUSH32 0x5DB9EE0A495BF2E6FF9C91A7834C1BA4FDD244A5E8AA4E537BD38AEAE4B073AA PUSH1 0x20 PUSH1 0x40 MLOAD CALLER DUP2 MSTORE LOG1 DUP1 RETURN JUMPDEST PUSH1 0x40 MLOAD PUSH4 0x8DFC202B PUSH1 0xE0 SHL DUP2 MSTORE PUSH1 0x4 SWAP1 REVERT JUMPDEST POP CALLVALUE PUSH2 0x29A JUMPI PUSH1 0x40 CALLDATASIZE PUSH1 0x3 NOT ADD SLT PUSH2 0x29A JUMPI PUSH2 0x218C PUSH2 0x2679 JUMP JUMPDEST CALLER PUSH1 0x1 PUSH1 0x1 PUSH1 0xA0 SHL SUB DUP3 AND SUB PUSH2 0x21A8 JUMPI PUSH2 0x3BA SWAP1 PUSH1 0x4 CALLDATALOAD PUSH2 0x2CA0 JUMP JUMPDEST PUSH1 0x40 MLOAD PUSH4 0x334BD919 PUSH1 0xE1 SHL DUP2 MSTORE PUSH1 0x4 SWAP1 REVERT JUMPDEST POP CALLVALUE PUSH2 0x29A JUMPI PUSH1 0x20 CALLDATASIZE PUSH1 0x3 NOT ADD SLT PUSH2 0x29A JUMPI PUSH1 0x4 CALLDATALOAD DUP2 MSTORE PUSH1 0x6 PUSH1 0x20 MSTORE PUSH1 0x40 DUP2 KECCAK256 PUSH1 0x1 DUP2 ADD SLOAD DUP1 ISZERO SWAP3 DUP4 PUSH2 0x2278 JUMPI DUP3 SLOAD SWAP4 PUSH2 0x2710 SWAP5 DUP6 DUP2 MUL SWAP6 DUP2 DUP8 DIV EQ SWAP1 ISZERO OR ISZERO PUSH2 0x2264 JUMPI PUSH2 0x2250 JUMPI POP PUSH1 0xFF DUP2 PUSH1 0xE0 SWAP5 DIV SWAP2 JUMPDEST DUP4 SLOAD SWAP4 PUSH1 0x2 DUP2 ADD SLOAD PUSH1 0x4 PUSH1 0x3 DUP4 ADD SLOAD SWAP3 ADD SLOAD SWAP3 PUSH1 0x40 MLOAD SWAP7 DUP8 MSTORE PUSH1 0x20 DUP8 ADD MSTORE PUSH1 0x40 DUP7 ADD MSTORE PUSH1 0x60 DUP6 ADD MSTORE DUP2 DUP2 AND ISZERO ISZERO PUSH1 0x80 DUP6 ADD MSTORE PUSH1 0x10 SHR AND ISZERO ISZERO PUSH1 0xA0 DUP4 ADD MSTORE PUSH1 0xC0 DUP3 ADD MSTORE RETURN JUMPDEST PUSH4 0x4E487B71 PUSH1 0xE0 SHL DUP2 MSTORE PUSH1 0x12 PUSH1 0x4 MSTORE PUSH1 0x24 SWAP1 REVERT JUMPDEST PUSH4 0x4E487B71 PUSH1 0xE0 SHL DUP3 MSTORE PUSH1 0x11 PUSH1 0x4 MSTORE PUSH1 0x24 DUP3 REVERT JUMPDEST PUSH1 0xE0 SWAP4 POP PUSH1 0xFF SWAP1 SWAP2 PUSH2 0x220C JUMP JUMPDEST POP CALLVALUE PUSH2 0x29A JUMPI PUSH1 0x40 CALLDATASIZE PUSH1 0x3 NOT ADD SLT PUSH2 0x29A JUMPI PUSH2 0x3BA PUSH1 0x4 CALLDATALOAD PUSH2 0x22A5 PUSH2 0x2679 JUMP JUMPDEST SWAP1 DUP1 DUP5 MSTORE DUP4 PUSH1 0x20 MSTORE PUSH2 0x22BD PUSH1 0x1 PUSH1 0x40 DUP7 KECCAK256 ADD SLOAD PUSH2 0x2BD9 JUMP JUMPDEST PUSH2 0x2C22 JUMP JUMPDEST POP CALLVALUE PUSH2 0x29A JUMPI PUSH1 0x20 CALLDATASIZE PUSH1 0x3 NOT ADD SLT PUSH2 0x29A JUMPI PUSH1 0xFF PUSH1 0x40 PUSH1 0x20 SWAP3 PUSH1 0x4 CALLDATALOAD DUP2 MSTORE PUSH1 0xC DUP5 MSTORE KECCAK256 SLOAD AND PUSH1 0x40 MLOAD SWAP1 ISZERO ISZERO DUP2 MSTORE RETURN JUMPDEST POP CALLVALUE PUSH2 0x29A JUMPI PUSH1 0x20 CALLDATASIZE PUSH1 0x3 NOT ADD SLT PUSH2 0x29A JUMPI PUSH1 0x40 PUSH1 0x20 SWAP2 PUSH1 0x4 CALLDATALOAD DUP2 MSTORE PUSH1 0xD DUP4 MSTORE KECCAK256 SLOAD PUSH1 0x40 MLOAD SWAP1 DUP2 MSTORE RETURN JUMPDEST POP CALLVALUE PUSH2 0x29A JUMPI PUSH1 0x20 CALLDATASIZE PUSH1 0x3 NOT ADD SLT PUSH2 0x29A JUMPI PUSH1 0x1 PUSH1 0x40 PUSH1 0x20 SWAP3 PUSH1 0x4 CALLDATALOAD DUP2 MSTORE DUP1 DUP5 MSTORE KECCAK256 ADD SLOAD PUSH1 0x40 MLOAD SWAP1 DUP2 MSTORE RETURN JUMPDEST POP CALLVALUE PUSH2 0x29A JUMPI PUSH1 0x20 CALLDATASIZE PUSH1 0x3 NOT ADD SLT PUSH2 0x29A JUMPI PUSH1 0x40 PUSH2 0x100 SWAP2 PUSH1 0x4 CALLDATALOAD DUP2 MSTORE PUSH1 0x6 PUSH1 0x20 MSTORE KECCAK256 DUP1 SLOAD SWAP1 PUSH1 0xFF PUSH1 0x1 DUP3 ADD SLOAD SWAP2 PUSH1 0x2 DUP2 ADD SLOAD PUSH1 0x3 DUP3 ADD SLOAD SWAP1 PUSH1 0x5 PUSH1 0x4 DUP5 ADD SLOAD SWAP4 ADD SLOAD SWAP5 PUSH1 0x40 MLOAD SWAP7 DUP8 MSTORE PUSH1 0x20 DUP8 ADD MSTORE PUSH1 0x40 DUP7 ADD MSTORE PUSH1 0x60 DUP6 ADD MSTORE DUP2 DUP2 AND ISZERO ISZERO PUSH1 0x80 DUP6 ADD MSTORE DUP2 DUP2 PUSH1 0x8 SHR AND ISZERO ISZERO PUSH1 0xA0 DUP6 ADD MSTORE PUSH1 0x10 SHR AND ISZERO ISZERO PUSH1 0xC0 DUP4 ADD MSTORE PUSH1 0xE0 DUP3 ADD MSTORE RETURN JUMPDEST POP CALLVALUE PUSH2 0x29A JUMPI DUP1 PUSH1 0x3 NOT CALLDATASIZE ADD SLT PUSH2 0x29A JUMPI PUSH1 0x3 SLOAD PUSH1 0x40 MLOAD PUSH1 0x1 PUSH1 0x1 PUSH1 0xA0 SHL SUB SWAP1 SWAP2 AND DUP2 MSTORE PUSH1 0x20 SWAP1 RETURN JUMPDEST POP CALLVALUE PUSH2 0x29A JUMPI PUSH1 0x40 CALLDATASIZE PUSH1 0x3 NOT ADD SLT PUSH2 0x29A JUMPI PUSH1 0x4 CALLDATALOAD PUSH2 0x240F PUSH2 0x2679 JUMP JUMPDEST SWAP1 PUSH2 0x2418 PUSH2 0x2B7D JUMP JUMPDEST PUSH2 0x2420 PUSH2 0x2BFF JUMP JUMPDEST DUP1 DUP4 MSTORE PUSH1 0x20 PUSH1 0x6 DUP2 MSTORE PUSH1 0x40 DUP5 KECCAK256 PUSH1 0xFF PUSH1 0x4 DUP3 ADD SLOAD AND ISZERO PUSH2 0x252A JUMPI PUSH1 0x2 ADD SWAP3 DUP4 SLOAD SWAP4 DUP5 ISZERO PUSH2 0x24E5 JUMPI DUP6 SWAP1 SSTORE DUP3 DUP6 MSTORE PUSH1 0xA DUP3 MSTORE PUSH1 0x40 DUP6 KECCAK256 DUP1 SLOAD PUSH1 0xFF NOT AND SWAP1 SSTORE PUSH1 0x1 PUSH1 0x1 PUSH1 0xA0 SHL SUB AND SWAP3 DUP5 DUP1 DUP1 DUP1 DUP5 DUP9 GAS CALL PUSH2 0x2477 PUSH2 0x281A JUMP JUMPDEST POP ISZERO PUSH2 0x24AE JUMPI SWAP1 PUSH32 0x6E3C6096795C8298A218B2CFB8BDE42726FF7C9A3D27B4D3BA41AB7F74FEB5FB SWAP2 PUSH1 0x40 MLOAD SWAP1 DUP2 MSTORE LOG3 PUSH1 0x1 DUP1 SSTORE DUP1 RETURN JUMPDEST PUSH1 0x40 MLOAD PUSH3 0x461BCD PUSH1 0xE5 SHL DUP2 MSTORE PUSH1 0x4 DUP2 ADD DUP4 SWAP1 MSTORE PUSH1 0xF PUSH1 0x24 DUP3 ADD MSTORE PUSH15 0x151C985B9CD9995C8819985A5B1959 PUSH1 0x8A SHL PUSH1 0x44 DUP3 ADD MSTORE PUSH1 0x64 SWAP1 REVERT JUMPDEST PUSH1 0x40 MLOAD PUSH3 0x461BCD PUSH1 0xE5 SHL DUP2 MSTORE PUSH1 0x4 DUP2 ADD DUP5 SWAP1 MSTORE PUSH1 0x1C PUSH1 0x24 DUP3 ADD MSTORE PUSH32 0x4E6F2070726F6A6563742062756467657420746F2072656C6561736500000000 PUSH1 0x44 DUP3 ADD MSTORE PUSH1 0x64 SWAP1 REVERT JUMPDEST PUSH1 0x40 MLOAD PUSH3 0x461BCD PUSH1 0xE5 SHL DUP2 MSTORE PUSH1 0x4 DUP2 ADD DUP4 SWAP1 MSTORE PUSH1 0x14 PUSH1 0x24 DUP3 ADD MSTORE PUSH20 0x46756E64696E67206E6F7420636F6D706C657465 PUSH1 0x60 SHL PUSH1 0x44 DUP3 ADD MSTORE PUSH1 0x64 SWAP1 REVERT JUMPDEST POP CALLVALUE PUSH2 0x29A JUMPI PUSH1 0x20 CALLDATASIZE PUSH1 0x3 NOT ADD SLT PUSH2 0x29A JUMPI PUSH1 0xFF PUSH1 0x40 PUSH1 0x20 SWAP3 PUSH1 0x4 CALLDATALOAD DUP2 MSTORE PUSH1 0xA DUP5 MSTORE KECCAK256 SLOAD AND PUSH1 0x40 MLOAD SWAP1 ISZERO ISZERO DUP2 MSTORE RETURN JUMPDEST POP CALLVALUE PUSH2 0x29A JUMPI DUP1 PUSH1 0x3 NOT CALLDATASIZE ADD SLT PUSH2 0x29A JUMPI PUSH1 0x20 PUSH1 0x40 MLOAD PUSH2 0x12C DUP2 MSTORE RETURN JUMPDEST POP CALLVALUE PUSH2 0x29A JUMPI PUSH1 0x20 CALLDATASIZE PUSH1 0x3 NOT ADD SLT PUSH2 0x29A JUMPI PUSH2 0x25CC PUSH2 0x2663 JUMP JUMPDEST PUSH2 0x25D4 PUSH2 0x2B25 JUMP JUMPDEST PUSH1 0x1 DUP1 PUSH1 0xA0 SHL SUB AND PUSH1 0x1 PUSH1 0x1 PUSH1 0x60 SHL SUB PUSH1 0xA0 SHL PUSH1 0x4 SLOAD AND OR PUSH1 0x4 SSTORE DUP1 RETURN JUMPDEST POP CALLVALUE PUSH2 0x29A JUMPI DUP1 PUSH1 0x3 NOT CALLDATASIZE ADD SLT PUSH2 0x29A JUMPI PUSH1 0x20 PUSH1 0x40 MLOAD PUSH1 0x64 DUP2 MSTORE RETURN JUMPDEST SWAP1 POP CALLVALUE PUSH2 0x1631 JUMPI PUSH1 0x20 CALLDATASIZE PUSH1 0x3 NOT ADD SLT PUSH2 0x1631 JUMPI PUSH1 0x4 CALLDATALOAD PUSH4 0xFFFFFFFF PUSH1 0xE0 SHL DUP2 AND DUP1 SWAP2 SUB PUSH2 0xC31 JUMPI PUSH1 0x20 SWAP3 POP PUSH4 0x7965DB0B PUSH1 0xE0 SHL DUP2 EQ SWAP1 DUP2 ISZERO PUSH2 0x2652 JUMPI JUMPDEST POP ISZERO ISZERO DUP2 MSTORE RETURN JUMPDEST PUSH4 0x1FFC9A7 PUSH1 0xE0 SHL EQ SWAP1 POP CODESIZE PUSH2 0x264B JUMP JUMPDEST PUSH1 0x4 CALLDATALOAD SWAP1 PUSH1 0x1 PUSH1 0x1 PUSH1 0xA0 SHL SUB DUP3 AND DUP3 SUB PUSH2 0x7B1 JUMPI JUMP JUMPDEST PUSH1 0x24 CALLDATALOAD SWAP1 PUSH1 0x1 PUSH1 0x1 PUSH1 0xA0 SHL SUB DUP3 AND DUP3 SUB PUSH2 0x7B1 JUMPI JUMP JUMPDEST SWAP2 DUP2 PUSH1 0x1F DUP5 ADD SLT ISZERO PUSH2 0x7B1 JUMPI DUP3 CALLDATALOAD SWAP2 PUSH1 0x1 PUSH1 0x1 PUSH1 0x40 SHL SUB DUP4 GT PUSH2 0x7B1 JUMPI PUSH1 0x20 DUP4 DUP2 DUP7 ADD SWAP6 ADD ADD GT PUSH2 0x7B1 JUMPI JUMP JUMPDEST PUSH1 0x40 SWAP1 PUSH1 0x3 NOT ADD SLT PUSH2 0x7B1 JUMPI PUSH1 0x4 CALLDATALOAD SWAP1 PUSH1 0x24 CALLDATALOAD SWAP1 JUMP JUMPDEST PUSH1 0x0 JUMPDEST DUP4 DUP2 LT PUSH2 0x26E5 JUMPI POP POP PUSH1 0x0 SWAP2 ADD MSTORE JUMP JUMPDEST DUP2 DUP2 ADD MLOAD DUP4 DUP3 ADD MSTORE PUSH1 0x20 ADD PUSH2 0x26D5 JUMP JUMPDEST PUSH1 0x9 SLOAD DUP2 LT ISZERO PUSH2 0x272C JUMPI PUSH1 0x9 PUSH1 0x0 MSTORE PUSH32 0x6E1540171B6C0C960B71A7020D9F60077F6AF931A8BBF590DA0223DACF75C7AF ADD SWAP1 PUSH1 0x0 SWAP1 JUMP JUMPDEST PUSH4 0x4E487B71 PUSH1 0xE0 SHL PUSH1 0x0 MSTORE PUSH1 0x32 PUSH1 0x4 MSTORE PUSH1 0x24 PUSH1 0x0 REVERT JUMPDEST PUSH1 0xB SLOAD DUP2 LT ISZERO PUSH2 0x272C JUMPI PUSH1 0xB PUSH1 0x0 MSTORE PUSH32 0x175B7A638427703F0DBE7BB9BBF987A2551717B34E79F33B5B1008D1FA01DB9 ADD SWAP1 PUSH1 0x0 SWAP1 JUMP JUMPDEST DUP1 SLOAD DUP3 LT ISZERO PUSH2 0x272C JUMPI PUSH1 0x0 MSTORE PUSH1 0x7 PUSH1 0x20 PUSH1 0x0 KECCAK256 SWAP2 MUL ADD SWAP1 PUSH1 0x0 SWAP1 JUMP JUMPDEST PUSH1 0x1 PUSH1 0x1 PUSH1 0x40 SHL SUB DUP2 GT PUSH2 0x13C4 JUMPI PUSH1 0x40 MSTORE JUMP JUMPDEST PUSH1 0xE0 DUP2 ADD SWAP1 DUP2 LT PUSH1 0x1 PUSH1 0x1 PUSH1 0x40 SHL SUB DUP3 GT OR PUSH2 0x13C4 JUMPI PUSH1 0x40 MSTORE JUMP JUMPDEST PUSH1 0x60 DUP2 ADD SWAP1 DUP2 LT PUSH1 0x1 PUSH1 0x1 PUSH1 0x40 SHL SUB DUP3 GT OR PUSH2 0x13C4 JUMPI PUSH1 0x40 MSTORE JUMP JUMPDEST SWAP1 PUSH1 0x1F DUP1 NOT SWAP2 ADD AND DUP2 ADD SWAP1 DUP2 LT PUSH1 0x1 PUSH1 0x1 PUSH1 0x40 SHL SUB DUP3 GT OR PUSH2 0x13C4 JUMPI PUSH1 0x40 MSTORE JUMP JUMPDEST PUSH1 0x1 PUSH1 0x1 PUSH1 0x40 SHL SUB DUP2 GT PUSH2 0x13C4 JUMPI PUSH1 0x1F ADD PUSH1 0x1F NOT AND PUSH1 0x20 ADD SWAP1 JUMP JUMPDEST RETURNDATASIZE ISZERO PUSH2 0x2845 JUMPI RETURNDATASIZE SWAP1 PUSH2 0x282B DUP3 PUSH2 0x27FF JUMP JUMPDEST SWAP2 PUSH2 0x2839 PUSH1 0x40 MLOAD SWAP4 DUP5 PUSH2 0x27DE JUMP JUMPDEST DUP3 MSTORE RETURNDATASIZE PUSH1 0x0 PUSH1 0x20 DUP5 ADD RETURNDATACOPY JUMP JUMPDEST PUSH1 0x60 SWAP1 JUMP JUMPDEST DUP2 DUP2 MUL SWAP3 SWAP2 DUP2 ISZERO SWAP2 DUP5 DIV EQ OR ISZERO PUSH2 0x285D JUMPI JUMP JUMPDEST PUSH4 0x4E487B71 PUSH1 0xE0 SHL PUSH1 0x0 MSTORE PUSH1 0x11 PUSH1 0x4 MSTORE PUSH1 0x24 PUSH1 0x0 REVERT JUMPDEST ISZERO PUSH2 0x287A JUMPI JUMP JUMPDEST PUSH1 0x40 MLOAD PUSH3 0x461BCD PUSH1 0xE5 SHL DUP2 MSTORE PUSH1 0x20 PUSH1 0x4 DUP3 ADD MSTORE PUSH1 0x13 PUSH1 0x24 DUP3 ADD MSTORE PUSH19 0x50726F7065727479206E6F7420616374697665 PUSH1 0x68 SHL PUSH1 0x44 DUP3 ADD MSTORE PUSH1 0x64 SWAP1 REVERT JUMPDEST ISZERO PUSH2 0x28BC JUMPI JUMP JUMPDEST PUSH1 0x40 MLOAD PUSH3 0x461BCD PUSH1 0xE5 SHL DUP2 MSTORE PUSH1 0x20 PUSH1 0x4 DUP3 ADD MSTORE PUSH1 0x10 PUSH1 0x24 DUP3 ADD MSTORE PUSH16 0x46756E64696E6720636F6D706C657465 PUSH1 0x80 SHL PUSH1 0x44 DUP3 ADD MSTORE PUSH1 0x64 SWAP1 REVERT JUMPDEST ISZERO PUSH2 0x28FB JUMPI JUMP JUMPDEST PUSH1 0x40 MLOAD PUSH3 0x461BCD PUSH1 0xE5 SHL DUP2 MSTORE PUSH1 0x20 PUSH1 0x4 DUP3 ADD MSTORE PUSH1 0x14 PUSH1 0x24 DUP3 ADD MSTORE PUSH20 0x111958591B1A5B99481B9BDD081C995858DA1959 PUSH1 0x62 SHL PUSH1 0x44 DUP3 ADD MSTORE PUSH1 0x64 SWAP1 REVERT JUMPDEST SWAP2 SWAP1 DUP3 ADD DUP1 SWAP3 GT PUSH2 0x285D JUMPI JUMP JUMPDEST PUSH1 0x9 SLOAD PUSH1 0x0 JUMPDEST DUP2 DUP2 LT PUSH2 0x2A17 JUMPI POP POP PUSH1 0xB SLOAD PUSH1 0x0 JUMPDEST DUP2 DUP2 LT PUSH2 0x2988 JUMPI POP POP PUSH1 0x0 SWAP1 PUSH1 0x40 MLOAD PUSH1 0x20 DUP2 ADD DUP2 DUP2 LT PUSH1 0x1 PUSH1 0x1 PUSH1 0x40 SHL SUB DUP3 GT OR PUSH2 0x13C4 JUMPI PUSH1 0x40 MSTORE PUSH1 0x0 DUP2 MSTORE SWAP1 JUMP JUMPDEST PUSH2 0x2991 DUP2 PUSH2 0x2742 JUMP JUMPDEST SWAP1 SLOAD SWAP1 PUSH1 0x3 SHL SHR DUP1 PUSH1 0x0 MSTORE PUSH1 0x20 PUSH1 0x8 DUP2 MSTORE PUSH1 0x40 DUP1 PUSH1 0x0 KECCAK256 PUSH1 0xFF PUSH1 0x2 DUP3 ADD SLOAD AND SWAP1 DUP2 PUSH2 0x2A09 JUMPI JUMPDEST DUP2 PUSH2 0x29F0 JUMPI JUMPDEST POP PUSH2 0x29CD JUMPI POP POP POP PUSH1 0x1 ADD PUSH2 0x2959 JUMP JUMPDEST SWAP2 SWAP5 SWAP4 POP SWAP2 POP DUP1 MLOAD SWAP4 PUSH1 0x1 DUP1 SWAP4 DUP7 ADD MSTORE DUP2 DUP6 ADD MSTORE DUP4 MSTORE PUSH2 0x29EC DUP4 PUSH2 0x27C3 JUMP JUMPDEST SWAP2 SWAP1 JUMP JUMPDEST SWAP1 POP SLOAD PUSH3 0x76A700 DUP2 ADD DUP1 SWAP2 GT PUSH2 0x285D JUMPI TIMESTAMP LT ISZERO CODESIZE PUSH2 0x29BD JUMP JUMPDEST PUSH1 0x1 DUP2 ADD SLOAD ISZERO ISZERO SWAP2 POP PUSH2 0x29B7 JUMP JUMPDEST PUSH2 0x2A20 DUP2 PUSH2 0x26F5 JUMP JUMPDEST SWAP1 SLOAD PUSH1 0x3 SWAP2 DUP3 SHL SHR SWAP1 DUP2 PUSH1 0x0 MSTORE PUSH1 0x20 SWAP2 PUSH1 0x6 DUP4 MSTORE PUSH1 0x40 SWAP2 DUP3 PUSH1 0x0 KECCAK256 SWAP1 PUSH1 0xA DUP6 MSTORE PUSH1 0xFF SWAP2 DUP3 DUP6 PUSH1 0x0 KECCAK256 SLOAD AND SWAP3 DUP4 PUSH2 0x2AB2 JUMPI JUMPDEST DUP4 PUSH2 0x2AA0 JUMPI JUMPDEST POP DUP3 PUSH2 0x2A92 JUMPI JUMPDEST POP POP PUSH2 0x2A6F JUMPI POP POP POP PUSH1 0x1 ADD PUSH2 0x294A JUMP JUMPDEST SWAP2 SWAP5 SWAP4 POP SWAP2 POP PUSH1 0x0 DUP3 MLOAD SWAP5 DUP6 ADD MSTORE DUP2 DUP5 ADD MSTORE DUP3 MSTORE PUSH2 0x2A8C DUP3 PUSH2 0x27C3 JUMP JUMPDEST PUSH1 0x1 SWAP2 SWAP1 JUMP JUMPDEST ADD SLOAD TIMESTAMP LT ISZERO SWAP1 POP CODESIZE DUP1 PUSH2 0x2A5E JUMP JUMPDEST PUSH1 0x4 DUP3 ADD SLOAD PUSH1 0x8 SHR AND ISZERO SWAP3 POP CODESIZE PUSH2 0x2A57 JUMP JUMPDEST PUSH1 0x4 DUP3 ADD SLOAD DUP2 AND ISZERO SWAP4 POP PUSH2 0x2A51 JUMP JUMPDEST SWAP2 SWAP1 DUP3 SUB SWAP2 DUP3 GT PUSH2 0x285D JUMPI JUMP JUMPDEST SWAP1 DUP1 PUSH1 0x20 SWAP4 SWAP3 DUP2 DUP5 MSTORE DUP5 DUP5 ADD CALLDATACOPY PUSH1 0x0 DUP3 DUP3 ADD DUP5 ADD MSTORE PUSH1 0x1F ADD PUSH1 0x1F NOT AND ADD ADD SWAP1 JUMP JUMPDEST SWAP1 PUSH2 0x2AFA SWAP1 TIMESTAMP PUSH2 0x2AC1 JUMP JUMPDEST SWAP1 PUSH2 0x12C SWAP2 DUP3 DUP3 MUL SWAP3 DUP3 DUP5 DIV EQ DUP3 ISZERO OR ISZERO PUSH2 0x285D JUMPI PUSH2 0x91B PUSH5 0x496CEBB800 SWAP2 PUSH2 0x2B22 SWAP5 PUSH2 0x284A JUMP JUMPDEST SWAP1 JUMP JUMPDEST CALLER PUSH1 0x0 SWAP1 DUP2 MSTORE PUSH32 0xAD3228B676F7D3CD4284A5443F17F1962B36E491B30A40B2405849E597BA5FB5 PUSH1 0x20 MSTORE PUSH1 0x40 DUP2 KECCAK256 SLOAD PUSH1 0xFF AND ISZERO PUSH2 0x2B5F JUMPI POP JUMP JUMPDEST PUSH1 0x44 SWAP1 PUSH1 0x40 MLOAD SWAP1 PUSH4 0xE2517D3F PUSH1 0xE0 SHL DUP3 MSTORE CALLER PUSH1 0x4 DUP4 ADD MSTORE PUSH1 0x24 DUP3 ADD MSTORE REVERT JUMPDEST CALLER PUSH1 0x0 SWAP1 DUP2 MSTORE PUSH32 0xEE57CD81E84075558E8FCC182A1F4393F91FC97F963A136E66B7F949A62F319F PUSH1 0x20 MSTORE PUSH1 0x40 SWAP1 KECCAK256 SLOAD PUSH32 0x97667070C54EF182B0F5858B034BEAC1B6F3089AA2D3188BB1E8929F4FA9B929 SWAP1 PUSH1 0xFF AND ISZERO PUSH2 0x2B5F JUMPI POP JUMP JUMPDEST DUP1 PUSH1 0x0 MSTORE PUSH1 0x0 PUSH1 0x20 MSTORE PUSH1 0x40 PUSH1 0x0 KECCAK256 CALLER PUSH1 0x0 MSTORE PUSH1 0x20 MSTORE PUSH1 0xFF PUSH1 0x40 PUSH1 0x0 KECCAK256 SLOAD AND ISZERO PUSH2 0x2B5F JUMPI POP JUMP JUMPDEST PUSH1 0x2 PUSH1 0x1 SLOAD EQ PUSH2 0x2C10 JUMPI PUSH1 0x2 PUSH1 0x1 SSTORE JUMP JUMPDEST PUSH1 0x40 MLOAD PUSH4 0x3EE5AEB5 PUSH1 0xE0 SHL DUP2 MSTORE PUSH1 0x4 SWAP1 REVERT JUMPDEST SWAP1 PUSH1 0x0 SWAP2 DUP1 DUP4 MSTORE DUP3 PUSH1 0x20 MSTORE PUSH1 0x40 DUP4 KECCAK256 SWAP2 PUSH1 0x1 DUP1 PUSH1 0xA0 SHL SUB AND SWAP2 DUP3 DUP5 MSTORE PUSH1 0x20 MSTORE PUSH1 0xFF PUSH1 0x40 DUP5 KECCAK256 SLOAD AND ISZERO PUSH1 0x0 EQ PUSH2 0x2C9B JUMPI DUP1 DUP4 MSTORE DUP3 PUSH1 0x20 MSTORE PUSH1 0x40 DUP4 KECCAK256 DUP3 DUP5 MSTORE PUSH1 0x20 MSTORE PUSH1 0x40 DUP4 KECCAK256 PUSH1 0x1 PUSH1 0xFF NOT DUP3 SLOAD AND OR SWAP1 SSTORE PUSH32 0x2F8788117E7EFF1D82E926EC794901D17C78024A50270940304540A733656F0D CALLER SWAP4 DUP1 LOG4 PUSH1 0x1 SWAP1 JUMP JUMPDEST POP POP SWAP1 JUMP JUMPDEST SWAP1 PUSH1 0x0 SWAP2 DUP1 DUP4 MSTORE DUP3 PUSH1 0x20 MSTORE PUSH1 0x40 DUP4 KECCAK256 SWAP2 PUSH1 0x1 DUP1 PUSH1 0xA0 SHL SUB AND SWAP2 DUP3 DUP5 MSTORE PUSH1 0x20 MSTORE PUSH1 0xFF PUSH1 0x40 DUP5 KECCAK256 SLOAD AND PUSH1 0x0 EQ PUSH2 0x2C9B JUMPI DUP1 DUP4 MSTORE DUP3 PUSH1 0x20 MSTORE PUSH1 0x40 DUP4 KECCAK256 DUP3 DUP5 MSTORE PUSH1 0x20 MSTORE PUSH1 0x40 DUP4 KECCAK256 PUSH1 0xFF NOT DUP2 SLOAD AND SWAP1 SSTORE PUSH32 0xF6391F5C32D9C69D2A47EA670B442974B53935D1EDC7FD64EB21E047A839171B CALLER SWAP4 DUP1 LOG4 PUSH1 0x1 SWAP1 JUMP JUMPDEST PUSH1 0xFF PUSH1 0x2 SLOAD AND PUSH2 0x2D21 JUMPI JUMP JUMPDEST PUSH1 0x40 MLOAD PUSH4 0xD93C0665 PUSH1 0xE0 SHL DUP2 MSTORE PUSH1 0x4 SWAP1 REVERT INVALID LOG2 PUSH5 0x6970667358 0x22 SLT KECCAK256 PUSH7 0x603A9A28C797A1 GASLIMIT PUSH27 0x55810282404EACB6149DF186BAB420D271B01E35F16464736F6C63 NUMBER STOP ADDMOD XOR STOP CALLER 0x2F DUP8 DUP9 GT PUSH31 0x7EFF1D82E926EC794901D17C78024A50270940304540A733656F0D00000000 "},"methodIdentifiers":{"AML_THRESHOLD()":"b6607cc5","BASIS_POINTS()":"e1f1c4a7","DEFAULT_ADMIN_ROLE()":"a217fddf","FOUNDER_FEE_BPS()":"11028915","MAX_DEMAND_BONUS()":"bf9586e0","MIN_IMPACT_SCORE()":"937daefd","OPERATOR_ROLE()":"f5b541a6","QUARTERLY_INTERVAL()":"d38e698e","REFUND_APR()":"14a2873a","SECONDS_PER_YEAR()":"e6a69ab8","activeProperties(uint256)":"a8b268de","amlOracle()":"213b8f73","baseFundingTargets(uint256)":"be6d243e","buyerContributions(uint256,address)":"11e2e175","calculateRefund(uint256,uint256)":"e38abd0f","checkUpkeep(bytes)":"6e04ff0d","depositIncome(uint256,string)":"a384854e","founderWallet()":"a23d3c35","fundedProperties(uint256)":"f71896cc","getDemandAdjustedTarget(uint256)":"b7fe0953","getEscrowStatus(uint256)":"345460cd","getInvestorContribution(uint256,address)":"40a0841b","getPurchaseCount(uint256)":"9093bb20","getPurchaseForAudit(uint256,uint256)":"50e2f0f7","getPurchases(uint256)":"6f629ed5","getQuarterlyState(uint256)":"73f9ff4e","getRoleAdmin(bytes32)":"248a9ca3","governanceContract()":"b172b222","grantRole(bytes32,address)":"2f2ff15d","hasRole(bytes32,address)":"91d14854","initializeEscrow(uint256,uint256,uint256,uint256)":"5c79a289","isPropertyActive(uint256)":"154bb891","isPropertyFunded(uint256)":"2d56061d","pause()":"8456cb59","paused()":"5c975abb","performUpkeep(bytes)":"4585e33b","pollDemandScores(uint256)":"2b904a79","processRefunds(uint256)":"c6f56901","propertyEscrows(uint256)":"2430fc3d","propertyPurchases(uint256,uint256)":"d2e0f66e","propertyToken()":"43ae2695","purchase(uint256,uint256)":"70876c98","quarterlyStates(uint256)":"da561ec6","releaseFunds(uint256,address)":"1af23a59","renounceRole(bytes32,address)":"36568abe","reportSuspiciousActivity(uint256,address,string)":"7f42ff64","revokeRole(bytes32,address)":"d547741f","setAMLOracle(address)":"8b7155d2","setGovernanceContract(address)":"1129753f","supportsInterface(bytes4)":"01ffc9a7","unpause()":"3f4ba83a","updatePollDemand(uint256,uint256)":"be4ac3dc"}}}}}