{"contracts/Treasury.sol":{"Treasury":{"abi":[{"inputs":[],"stateMutability":"nonpayable","type":"constructor"},{"inputs":[],"name":"AccessControlBadConfirmation","type":"error"},{"inputs":[{"internalType":"address","name":"account","type":"address"},{"internalType":"bytes32","name":"neededRole","type":"bytes32"}],"name":"AccessControlUnauthorizedAccount","type":"error"},{"inputs":[],"name":"ReentrancyGuardReentrantCall","type":"error"},{"anonymous":false,"inputs":[{"indexed":true,"internalType":"address","name":"oldOracle","type":"address"},{"indexed":true,"internalType":"address","name":"newOracle","type":"address"}],"name":"ChainlinkOracleUpdated","type":"event"},{"anonymous":false,"inputs":[{"indexed":true,"internalType":"address","name":"target","type":"address"},{"indexed":false,"internalType":"uint256","name":"value","type":"uint256"},{"indexed":false,"internalType":"bytes","name":"data","type":"bytes"}],"name":"Executed","type":"event"},{"anonymous":false,"inputs":[{"indexed":false,"internalType":"uint256","name":"oldMax","type":"uint256"},{"indexed":false,"internalType":"uint256","name":"newMax","type":"uint256"}],"name":"MaxReimbursementUpdated","type":"event"},{"anonymous":false,"inputs":[{"indexed":false,"internalType":"uint256","name":"amount","type":"uint256"},{"indexed":false,"internalType":"uint256","name":"newTotal","type":"uint256"}],"name":"ReimbursementPoolFunded","type":"event"},{"anonymous":false,"inputs":[{"indexed":true,"internalType":"address","name":"relayer","type":"address"},{"indexed":false,"internalType":"uint256","name":"amount","type":"uint256"},{"indexed":false,"internalType":"uint256","name":"poolRemaining","type":"uint256"}],"name":"RelayerReimbursed","type":"event"},{"anonymous":false,"inputs":[{"indexed":false,"internalType":"uint256","name":"oldRequired","type":"uint256"},{"indexed":false,"internalType":"uint256","name":"newRequired","type":"uint256"}],"name":"RequiredConfirmationsUpdated","type":"event"},{"anonymous":false,"inputs":[{"indexed":true,"internalType":"uint256","name":"propertyId","type":"uint256"},{"indexed":false,"internalType":"uint256","name":"reserves","type":"uint256"}],"name":"ReservesVerified","type":"event"},{"anonymous":false,"inputs":[{"indexed":true,"internalType":"bytes32","name":"role","type":"bytes32"},{"indexed":true,"internalType":"bytes32","name":"previousAdminRole","type":"bytes32"},{"indexed":true,"internalType":"bytes32","name":"newAdminRole","type":"bytes32"}],"name":"RoleAdminChanged","type":"event"},{"anonymous":false,"inputs":[{"indexed":true,"internalType":"bytes32","name":"role","type":"bytes32"},{"indexed":true,"internalType":"address","name":"account","type":"address"},{"indexed":true,"internalType":"address","name":"sender","type":"address"}],"name":"RoleGranted","type":"event"},{"anonymous":false,"inputs":[{"indexed":true,"internalType":"bytes32","name":"role","type":"bytes32"},{"indexed":true,"internalType":"address","name":"account","type":"address"},{"indexed":true,"internalType":"address","name":"sender","type":"address"}],"name":"RoleRevoked","type":"event"},{"anonymous":false,"inputs":[{"indexed":true,"internalType":"address","name":"signer","type":"address"}],"name":"SignerAdded","type":"event"},{"anonymous":false,"inputs":[{"indexed":true,"internalType":"address","name":"signer","type":"address"}],"name":"SignerRemoved","type":"event"},{"anonymous":false,"inputs":[{"indexed":true,"internalType":"uint256","name":"txId","type":"uint256"},{"indexed":true,"internalType":"address","name":"signer","type":"address"}],"name":"TransactionConfirmed","type":"event"},{"anonymous":false,"inputs":[{"indexed":true,"internalType":"uint256","name":"txId","type":"uint256"}],"name":"TransactionExecuted","type":"event"},{"anonymous":false,"inputs":[{"indexed":true,"internalType":"uint256","name":"txId","type":"uint256"},{"indexed":true,"internalType":"address","name":"signer","type":"address"}],"name":"TransactionRevoked","type":"event"},{"anonymous":false,"inputs":[{"indexed":true,"internalType":"uint256","name":"txId","type":"uint256"},{"indexed":true,"internalType":"address","name":"submitter","type":"address"},{"indexed":false,"internalType":"address","name":"target","type":"address"},{"indexed":false,"internalType":"uint256","name":"value","type":"uint256"}],"name":"TransactionSubmitted","type":"event"},{"inputs":[],"name":"DEFAULT_ADMIN_ROLE","outputs":[{"internalType":"bytes32","name":"","type":"bytes32"}],"stateMutability":"view","type":"function"},{"inputs":[],"name":"EXECUTOR_ROLE","outputs":[{"internalType":"bytes32","name":"","type":"bytes32"}],"stateMutability":"view","type":"function"},{"inputs":[],"name":"SIGNER_ROLE","outputs":[{"internalType":"bytes32","name":"","type":"bytes32"}],"stateMutability":"view","type":"function"},{"inputs":[{"internalType":"address","name":"signer","type":"address"}],"name":"addSigner","outputs":[],"stateMutability":"nonpayable","type":"function"},{"inputs":[],"name":"chainlinkOracle","outputs":[{"internalType":"address","name":"","type":"address"}],"stateMutability":"view","type":"function"},{"inputs":[{"internalType":"uint256","name":"txId","type":"uint256"}],"name":"confirmTransaction","outputs":[],"stateMutability":"nonpayable","type":"function"},{"inputs":[{"internalType":"uint256","name":"","type":"uint256"},{"internalType":"address","name":"","type":"address"}],"name":"confirmations","outputs":[{"internalType":"bool","name":"","type":"bool"}],"stateMutability":"view","type":"function"},{"inputs":[{"internalType":"address","name":"target","type":"address"},{"internalType":"uint256","name":"value","type":"uint256"},{"internalType":"bytes","name":"data","type":"bytes"},{"internalType":"uint256","name":"proposalId","type":"uint256"}],"name":"execute","outputs":[{"internalType":"bytes","name":"","type":"bytes"}],"stateMutability":"nonpayable","type":"function"},{"inputs":[{"internalType":"uint256","name":"txId","type":"uint256"}],"name":"executeTransaction","outputs":[{"internalType":"bytes","name":"","type":"bytes"}],"stateMutability":"nonpayable","type":"function"},{"inputs":[],"name":"fundReimbursementPool","outputs":[],"stateMutability":"payable","type":"function"},{"inputs":[],"name":"getBalance","outputs":[{"internalType":"uint256","name":"","type":"uint256"}],"stateMutability":"view","type":"function"},{"inputs":[],"name":"getReimbursementPoolInfo","outputs":[{"internalType":"uint256","name":"poolBalance","type":"uint256"},{"internalType":"uint256","name":"maxPerTx","type":"uint256"}],"stateMutability":"view","type":"function"},{"inputs":[{"internalType":"bytes32","name":"role","type":"bytes32"}],"name":"getRoleAdmin","outputs":[{"internalType":"bytes32","name":"","type":"bytes32"}],"stateMutability":"view","type":"function"},{"inputs":[{"internalType":"uint256","name":"txId","type":"uint256"}],"name":"getTransaction","outputs":[{"internalType":"address","name":"target","type":"address"},{"internalType":"uint256","name":"value","type":"uint256"},{"internalType":"bytes","name":"data","type":"bytes"},{"internalType":"bool","name":"executed","type":"bool"},{"internalType":"uint256","name":"confirmationCount","type":"uint256"}],"stateMutability":"view","type":"function"},{"inputs":[{"internalType":"bytes32","name":"role","type":"bytes32"},{"internalType":"address","name":"account","type":"address"}],"name":"grantRole","outputs":[],"stateMutability":"nonpayable","type":"function"},{"inputs":[{"internalType":"bytes32","name":"role","type":"bytes32"},{"internalType":"address","name":"account","type":"address"}],"name":"hasRole","outputs":[{"internalType":"bool","name":"","type":"bool"}],"stateMutability":"view","type":"function"},{"inputs":[{"internalType":"uint256","name":"txId","type":"uint256"},{"internalType":"address","name":"signer","type":"address"}],"name":"isConfirmed","outputs":[{"internalType":"bool","name":"","type":"bool"}],"stateMutability":"view","type":"function"},{"inputs":[],"name":"maxReimbursementPerTx","outputs":[{"internalType":"uint256","name":"","type":"uint256"}],"stateMutability":"view","type":"function"},{"inputs":[{"internalType":"address","name":"relayer","type":"address"},{"internalType":"uint256","name":"gasUsed","type":"uint256"}],"name":"reimburseRelayer","outputs":[],"stateMutability":"nonpayable","type":"function"},{"inputs":[],"name":"relayerReimbursementPool","outputs":[{"internalType":"uint256","name":"","type":"uint256"}],"stateMutability":"view","type":"function"},{"inputs":[{"internalType":"address","name":"","type":"address"}],"name":"relayerReimbursements","outputs":[{"internalType":"uint256","name":"","type":"uint256"}],"stateMutability":"view","type":"function"},{"inputs":[{"internalType":"address","name":"signer","type":"address"}],"name":"removeSigner","outputs":[],"stateMutability":"nonpayable","type":"function"},{"inputs":[{"internalType":"bytes32","name":"role","type":"bytes32"},{"internalType":"address","name":"callerConfirmation","type":"address"}],"name":"renounceRole","outputs":[],"stateMutability":"nonpayable","type":"function"},{"inputs":[],"name":"requiredConfirmations","outputs":[{"internalType":"uint256","name":"","type":"uint256"}],"stateMutability":"view","type":"function"},{"inputs":[{"internalType":"uint256","name":"txId","type":"uint256"}],"name":"revokeConfirmation","outputs":[],"stateMutability":"nonpayable","type":"function"},{"inputs":[{"internalType":"bytes32","name":"role","type":"bytes32"},{"internalType":"address","name":"account","type":"address"}],"name":"revokeRole","outputs":[],"stateMutability":"nonpayable","type":"function"},{"inputs":[{"internalType":"address","name":"_chainlinkOracle","type":"address"}],"name":"setChainlinkOracle","outputs":[],"stateMutability":"nonpayable","type":"function"},{"inputs":[{"internalType":"uint256","name":"newMax","type":"uint256"}],"name":"setMaxReimbursement","outputs":[],"stateMutability":"nonpayable","type":"function"},{"inputs":[{"internalType":"uint256","name":"_requiredConfirmations","type":"uint256"}],"name":"setRequiredConfirmations","outputs":[],"stateMutability":"nonpayable","type":"function"},{"inputs":[{"internalType":"address","name":"target","type":"address"},{"internalType":"uint256","name":"value","type":"uint256"},{"internalType":"bytes","name":"data","type":"bytes"}],"name":"submitTransaction","outputs":[{"internalType":"uint256","name":"","type":"uint256"}],"stateMutability":"nonpayable","type":"function"},{"inputs":[{"internalType":"bytes4","name":"interfaceId","type":"bytes4"}],"name":"supportsInterface","outputs":[{"internalType":"bool","name":"","type":"bool"}],"stateMutability":"view","type":"function"},{"inputs":[],"name":"transactionCount","outputs":[{"internalType":"uint256","name":"","type":"uint256"}],"stateMutability":"view","type":"function"},{"inputs":[{"internalType":"uint256","name":"","type":"uint256"}],"name":"transactions","outputs":[{"internalType":"address","name":"target","type":"address"},{"internalType":"uint256","name":"value","type":"uint256"},{"internalType":"bytes","name":"data","type":"bytes"},{"internalType":"bool","name":"executed","type":"bool"},{"internalType":"uint256","name":"confirmationCount","type":"uint256"}],"stateMutability":"view","type":"function"},{"inputs":[{"internalType":"uint256","name":"propertyId","type":"uint256"}],"name":"verifyAndRecordReserves","outputs":[{"internalType":"uint256","name":"","type":"uint256"}],"stateMutability":"nonpayable","type":"function"},{"inputs":[{"internalType":"uint256","name":"propertyId","type":"uint256"}],"name":"verifyReserves","outputs":[{"internalType":"uint256","name":"","type":"uint256"}],"stateMutability":"view","type":"function"},{"inputs":[{"internalType":"uint256","name":"amount","type":"uint256"}],"name":"withdraw","outputs":[],"stateMutability":"nonpayable","type":"function"},{"stateMutability":"payable","type":"receive"}],"evm":{"bytecode":{"linkReferences":{},"object":"6080604052346200004657600180556002600355662386f26fc1000060065562000029336200004b565b506200003533620000cb565b50604051611cf990816200016e8239f35b600080fd5b6001600160a01b031660008181527fad3228b676f7d3cd4284a5443f17f1962b36e491b30a40b2405849e597ba5fb5602052604081205490919060ff16620000c757818052816020526040822081835260205260408220600160ff19825416179055339160008051602062001e678339815191528180a4600190565b5090565b6001600160a01b031660008181527f059f08e7d7ba1c82eddc57afae67f80df851baf38a099607a779825038c3ce5b60205260408120549091907fe2f4eaae4a9751e85a3e4a7b9587827a877f29914755229b07a7b2da98285f709060ff166200016857808352826020526040832082845260205260408320600160ff1982541617905560008051602062001e67833981519152339380a4600190565b50509056fe608080604052600436101561001d575b50361561001b57600080fd5b005b60003560e01c90816301ffc9a71461158d5750806307bd0265146115525780630e316ab7146114f757806312065fe0146114db57806320ea8d86146113d7578063248a9ca3146113a85780632e1a7d4d146112ed5780632f2ff15d146112ae57806333ea3dc8146112445780633411c81c14610e2157806336568abe146111fd5780634d247889146111df5780636ab3818e1461119257806374420f4c146110665780637a9b041214610fb35780637aab138114610f795780637b7c343d14610e6e57806380f59a6514610e2157806382e717f714610e0357806391d1485414610db65780639ace38c214610d4c578063a1ebf35d14610d23578063a217fddf14610d07578063a5574d5214610c6f578063af522b1c14610be1578063b77bf60014610bc3578063c01a8c8414610abb578063c56c9ff414610989578063c642747414610604578063c96f85cf146105df578063d547741f146105a0578063d9882334146104d9578063eb12d61e14610438578063ee22610b14610202578063ef06e72c146101d95763ef66d684146101b6573861000f565b346101d45760003660031901126101d4576020600554604051908152f35b600080fd5b346101d45760003660031901126101d4576002546040516001600160a01b039091168152602090f35b346101d4576020806003193601126101d4576004359061022061198d565b610228611b6c565b61023560045483106117a5565b81600052600881526040600020916003830180549361025760ff8616156117f1565b6004810154600354116103f35747926001938483019361027b855480931015611896565b60ff199788168617905582546040516002850180546001600160a01b039a9194938b1693916000916102ac816116b3565b91818c169182156103e05750506001146103a8575b50916000939181859403925af1966102d7611859565b9715610363577fcaf938de11c367272220bfd1d2baa99ca46665e7bc4d85f00adb51b90fe1fa9f939291610346916040519485947f15ed165a284872ea7017f03df402a0cadfbfab588320ffaf83f160c2f82781c7600080a254169554835260408884015260408301906116ed565b0390a2805561035f60405192828493845283019061160c565b0390f35b60405162461bcd60e51b815260048101889052601c60248201527f5472616e73616374696f6e20657865637574696f6e206661696c6564000000006044820152606490fd5b905084600052896000208a8a6000925b8484106103ce57505050908301905060006102c1565b805484880152019101908a8c916103b8565b16855250801515028301905060006102c1565b60405162461bcd60e51b815260048101859052601860248201527f4e6f7420656e6f75676820636f6e6669726d6174696f6e7300000000000000006044820152606490fd5b346101d45760203660031901126101d4576104516115e0565b610459611935565b6001600160a01b03811690811561049b5761047390611b8f565b507f47d1c22a25bb3a5d4e481b9b1e6944c2eade3181a0a20b495ed61d35b5323f24600080a2005b60405162461bcd60e51b8152602060048201526016602482015275496e76616c6964207369676e6572206164647265737360501b6044820152606490fd5b346101d4576020806003193601126101d4576002546024906004359083906001600160a01b031661050b8115156118e2565b604051938480926323a9d25760e21b82528560048301525afa91821561059457600092610565575b507fb96772fa5329ea20c203d97d9b39acce1faec46fdb3bd87a329ebf77fd7410ce83604051848152a2604051908152f35b9091508281813d831161058d575b61057d8183611783565b810103126101d457519083610533565b503d610573565b6040513d6000823e3d90fd5b346101d45760403660031901126101d45761001b6004356105bf6115f6565b908060005260006020526105da600160406000200154611a33565b611af7565b346101d45760003660031901126101d457604060055460065482519182526020820152f35b346101d45760603660031901126101d45761061d6115e0565b67ffffffffffffffff6044358181116101d45761063e903690600401611685565b9261064761198d565b6004549261065484611926565b6004556040519260a0840184811083821117610973576040526001600160a01b03838116855260243560208601908152969092906106918161183d565b9261069f6040519485611783565b81845236828201116101d457816000926020928387013784010152604085019182526000606086015260006080860152856000526008602052604060002091838651166bffffffffffffffffffffffff60a01b845416178355600197518884015551805191821161097357819061071960028501546116b3565b601f811161091b575b50602090601f83116001146108b1576000926108a6575b5050600019600383901b1c191690871b1760028201555b600460806003830195606081015115159660ff199760ff8983541691161790550151910155604051911681526024356020820152827f753dcda37efe0bc3675e04e24d1fb08b70681f14675eed4b6e7978495caf2ca060403393a36107b361198d565b6107c060045483106117a5565b8160005260086020526107de60ff60036040600020015416156117f1565b81600052600960205260406000203360005260205260ff6040600020541661086d57602092826000526009845260406000203360005284526040600020918254161790558060005260088252600460406000200161083c8154611926565b90556040519033817f15c2f311c9e0f53b50388279894aeff029a3457884a6601e924fca879e12adcc600080a38152f35b60405162461bcd60e51b8152602060048201526011602482015270105b1c9958591e4818dbdb999a5c9b5959607a1b6044820152606490fd5b015190508880610739565b90899350601f198316916002860160005260206000209260005b818110610903575084116108ea575b505050811b016002820155610750565b015160001960f88460031b161c191690558880806108da565b8284015185558c9690940193602093840193016108cb565b909150600284016000526020600020601f840160051c81019160208510610969575b84939291601f8c920160051c01915b82811061095a575050610722565b600081558594508b910161094c565b909150819061093d565b634e487b7160e01b600052604160045260246000fd5b346101d45760403660031901126101d4576109a26115e0565b602435906109ae6119d7565b3a8202918083043a1490151715610a9557600654808311610ab3575b50600554808311610aab575b826109dd57005b828103908111610a955760055560018060a01b0316908160005260076020526040600020610a0c828254611889565b9055600080808084865af1610a1f611859565b5015610a595760407f5fc1e14c18e85d0603c37d2759f24a4f00fe4454e0a0b2566df29785f4810d299160055482519182526020820152a2005b60405162461bcd60e51b815260206004820152601460248201527314995a5b589d5c9cd95b595b9d0819985a5b195960621b6044820152606490fd5b634e487b7160e01b600052601160045260246000fd5b9150816109d6565b9150826109ca565b346101d4576020806003193601126101d45760043590610ad961198d565b610ae660045483106117a5565b8160005260088152610b0360ff60036040600020015416156117f1565b8160005260098152604060002033600052815260ff60406000205416610b8b57600890826000526009815260406000203360005281526040600020600160ff1982541617905582600052526004604060002001610b608154611926565b905533907f15c2f311c9e0f53b50388279894aeff029a3457884a6601e924fca879e12adcc600080a3005b6064906040519062461bcd60e51b825260048201526011602482015270105b1c9958591e4818dbdb999a5c9b5959607a1b6044820152fd5b346101d45760003660031901126101d4576020600454604051908152f35b346101d4576020806003193601126101d45760025460249082906001600160a01b0316610c0f8115156118e2565b604051928380926323a9d25760e21b825260043560048301525afa90811561059457600091610c42575b50604051908152f35b90508181813d8311610c68575b610c598183611783565b810103126101d4575182610c39565b503d610c4f565b346101d45760203660031901126101d457600435610c8b611935565b67016345785d8a00008111610cd35760407f6ff3ba4223f4d694ced77174a208557c49fd86ead36368eb2871ceb7eb4d1eeb91600654908060065582519182526020820152a1005b60405162461bcd60e51b815260206004820152600c60248201526b09ac2f040e8dede40d0d2ced60a31b6044820152606490fd5b346101d45760003660031901126101d457602060405160008152f35b346101d45760003660031901126101d4576020604051600080516020611ca48339815191528152f35b346101d45760203660031901126101d4576004356000526008602052604060002060018060a01b0381541661035f60018301549260405190610d9c82610d9581600285016116ed565b0383611783565b600460ff600383015416910154916040519586958661164c565b346101d45760403660031901126101d457610dcf6115f6565b600435600052600060205260406000209060018060a01b0316600052602052602060ff604060002054166040519015158152f35b346101d45760003660031901126101d4576020600354604051908152f35b346101d45760403660031901126101d457610e3a6115f6565b600435600052600960205260406000209060018060a01b0316600052602052602060ff604060002054166040519015158152f35b346101d45760203660031901126101d457600435610e8a611935565b8015610f2857600a8111610ed15760407f9a71f52a6cf1d6a0a676a538d4131e624fbe0f9146d1ca1c7a31fda3db8c37f791600354908060035582519182526020820152a1005b60405162461bcd60e51b815260206004820152602960248201527f43616e6e6f742072657175697265206d6f7265207468616e20313020636f6e6660448201526869726d6174696f6e7360b81b6064820152608490fd5b60405162461bcd60e51b8152602060048201526024808201527f4d7573742072657175697265206174206c65617374203120636f6e6669726d616044820152633a34b7b760e11b6064820152608490fd5b346101d45760203660031901126101d4576001600160a01b03610f9a6115e0565b1660005260076020526020604060002054604051908152f35b346101d45760203660031901126101d457610fcc6115e0565b610fd4611935565b6001600160a01b0390811690811561102857600254826bffffffffffffffffffffffff60a01b821617600255167fe108cf8f8b301f7954568e77ebd0b1215523268a978e34bc9cc1a60b6abf78e6600080a3005b60405162461bcd60e51b8152602060048201526016602482015275496e76616c6964206f7261636c65206164647265737360501b6044820152606490fd5b346101d45760803660031901126101d45761107f6115e0565b60243560443567ffffffffffffffff81116101d4576110a2903690600401611685565b90916110ac6119d7565b6110b4611b6c565b6110c081471015611896565b6000806040518486823780858101838152039084885af1926110e0611859565b931561115f5760607fcaf938de11c367272220bfd1d2baa99ca46665e7bc4d85f00adb51b90fe1fa9f9261035f96856040519485938452604060208501528160408501528484013760008287018401526001600160a01b031694601f01601f19168101030190a26001805560405191829160208352602083019061160c565b60405162461bcd60e51b815260206004820152600b60248201526a10d85b1b0819985a5b195960aa1b6044820152606490fd5b60003660031901126101d4577f19a5c5590f6a234a92047e9b565ee9a2e8d9d83db89b9ac1622a6d6e170470ee60406111cd34600554611889565b806005558151903482526020820152a1005b346101d45760003660031901126101d4576020600654604051908152f35b346101d45760403660031901126101d4576112166115f6565b336001600160a01b038216036112325761001b90600435611af7565b60405163334bd91960e11b8152600490fd5b346101d45760203660031901126101d4576004356000526008602052604060002060018060a01b0381541661035f60018301549260ff60038201541660026112a260048401549361129b60405180948193016116ed565b0382611783565b6040519586958661164c565b346101d45760403660031901126101d45761001b6004356112cd6115f6565b908060005260006020526112e8600160406000200154611a33565b611c2a565b346101d45760203660031901126101d457600435611309611935565b611311611b6c565b80471061136c57600080808093335af1611329611859565b50156113355760018055005b60405162461bcd60e51b815260206004820152600f60248201526e15da5d1a191c985dc819985a5b1959608a1b6044820152606490fd5b60405162461bcd60e51b8152602060048201526014602482015273496e73756666696369656e742062616c616e636560601b6044820152606490fd5b346101d45760203660031901126101d45760043560005260006020526020600160406000200154604051908152f35b346101d4576020806003193601126101d457600435906113f561198d565b61140260045483106117a5565b816000526008815261141f60ff60036040600020015416156117f1565b8160005260098152604060002033600052815260ff60406000205416156114a75760089082600052600981526040600020336000528152604060002060ff1981541690558260005252600460406000200180548015610a955760001901905533907f4cd471041f6b9ff47536a54a3d3ab62d0fa9dd5e36c0418b294b1673acb31881600080a3005b6064906040519062461bcd60e51b82526004820152600d60248201526c139bdd0818dbdb999a5c9b5959609a1b6044820152fd5b346101d45760003660031901126101d457602047604051908152f35b346101d45760203660031901126101d4576115106115e0565b611518611935565b61152181611a59565b506001600160a01b03167f3525e22824a8a7df2c9a6029941c824cf95b6447f1e13d5128fd3826d35afe8b600080a2005b346101d45760003660031901126101d45760206040517fd8aa0f3194971a2a116679f7c2090f6939c8d4e01a2a8d7e41d55e5351469e638152f35b346101d45760203660031901126101d4576004359063ffffffff60e01b82168092036101d457602091637965db0b60e01b81149081156115cf575b5015158152f35b6301ffc9a760e01b149050836115c8565b600435906001600160a01b03821682036101d457565b602435906001600160a01b03821682036101d457565b919082519283825260005b848110611638575050826000602080949584010152601f8019910116010190565b602081830181015184830182015201611617565b9192608093611679929796959760018060a01b03168452602084015260a0604084015260a083019061160c565b94151560608201520152565b9181601f840112156101d45782359167ffffffffffffffff83116101d457602083818601950101116101d457565b90600182811c921680156116e3575b60208310146116cd57565b634e487b7160e01b600052602260045260246000fd5b91607f16916116c2565b8054600093926116fc826116b3565b918282526020936001916001811690816000146117645750600114611723575b5050505050565b90939495506000929192528360002092846000945b8386106117505750505050010190388080808061171c565b805485870183015294019385908201611738565b60ff19168685015250505090151560051b01019150388080808061171c565b90601f8019910116810190811067ffffffffffffffff82111761097357604052565b156117ac57565b60405162461bcd60e51b815260206004820152601a60248201527f5472616e73616374696f6e20646f6573206e6f742065786973740000000000006044820152606490fd5b156117f857565b60405162461bcd60e51b815260206004820152601c60248201527f5472616e73616374696f6e20616c7265616479206578656375746564000000006044820152606490fd5b67ffffffffffffffff811161097357601f01601f191660200190565b3d15611884573d9061186a8261183d565b916118786040519384611783565b82523d6000602084013e565b606090565b91908201809211610a9557565b1561189d57565b60405162461bcd60e51b815260206004820152601d60248201527f496e73756666696369656e742074726561737572792062616c616e63650000006044820152606490fd5b156118e957565b60405162461bcd60e51b815260206004820152601560248201527413dc9858db19481b9bdd0818dbdb999a59dd5c9959605a1b6044820152606490fd5b6000198114610a955760010190565b3360009081527fad3228b676f7d3cd4284a5443f17f1962b36e491b30a40b2405849e597ba5fb5602052604081205460ff161561196f5750565b6044906040519063e2517d3f60e01b82523360048301526024820152fd5b3360009081527f059f08e7d7ba1c82eddc57afae67f80df851baf38a099607a779825038c3ce5b6020526040902054600080516020611ca48339815191529060ff161561196f5750565b3360009081527fdae2aa361dfd1ca020a396615627d436107c35eff9fe7738a3512819782d706960205260409020547fd8aa0f3194971a2a116679f7c2090f6939c8d4e01a2a8d7e41d55e5351469e639060ff161561196f5750565b80600052600060205260406000203360005260205260ff604060002054161561196f5750565b6001600160a01b031660008181527f059f08e7d7ba1c82eddc57afae67f80df851baf38a099607a779825038c3ce5b6020526040812054909190600080516020611ca48339815191529060ff1615611af25780835282602052604083208284526020526040832060ff1981541690557ff6391f5c32d9c69d2a47ea670b442974b53935d1edc7fd64eb21e047a839171b339380a4600190565b505090565b9060009180835282602052604083209160018060a01b03169182845260205260ff604084205416600014611af25780835282602052604083208284526020526040832060ff1981541690557ff6391f5c32d9c69d2a47ea670b442974b53935d1edc7fd64eb21e047a839171b339380a4600190565b600260015414611b7d576002600155565b604051633ee5aeb560e01b8152600490fd5b6001600160a01b031660008181527f059f08e7d7ba1c82eddc57afae67f80df851baf38a099607a779825038c3ce5b6020526040812054909190600080516020611ca48339815191529060ff16611af257808352826020526040832082845260205260408320600160ff198254161790557f2f8788117e7eff1d82e926ec794901d17c78024a50270940304540a733656f0d339380a4600190565b9060009180835282602052604083209160018060a01b03169182845260205260ff60408420541615600014611af257808352826020526040832082845260205260408320600160ff198254161790557f2f8788117e7eff1d82e926ec794901d17c78024a50270940304540a733656f0d339380a460019056fee2f4eaae4a9751e85a3e4a7b9587827a877f29914755229b07a7b2da98285f70a2646970667358221220c652f4d39725680f4dfa8f5c38d92dcbb907e37a860c4a4fa46bd3313283e1e864736f6c634300081800332f8788117e7eff1d82e926ec794901d17c78024a50270940304540a733656f0d","opcodes":"PUSH1 0x80 PUSH1 0x40 MSTORE CALLVALUE PUSH3 0x46 JUMPI PUSH1 0x1 DUP1 SSTORE PUSH1 0x2 PUSH1 0x3 SSTORE PUSH7 0x2386F26FC10000 PUSH1 0x6 SSTORE PUSH3 0x29 CALLER PUSH3 0x4B JUMP JUMPDEST POP PUSH3 0x35 CALLER PUSH3 0xCB JUMP JUMPDEST POP PUSH1 0x40 MLOAD PUSH2 0x1CF9 SWAP1 DUP2 PUSH3 0x16E DUP3 CODECOPY RETURN JUMPDEST PUSH1 0x0 DUP1 REVERT JUMPDEST PUSH1 0x1 PUSH1 0x1 PUSH1 0xA0 SHL SUB AND PUSH1 0x0 DUP2 DUP2 MSTORE PUSH32 0xAD3228B676F7D3CD4284A5443F17F1962B36E491B30A40B2405849E597BA5FB5 PUSH1 0x20 MSTORE PUSH1 0x40 DUP2 KECCAK256 SLOAD SWAP1 SWAP2 SWAP1 PUSH1 0xFF AND PUSH3 0xC7 JUMPI DUP2 DUP1 MSTORE DUP2 PUSH1 0x20 MSTORE PUSH1 0x40 DUP3 KECCAK256 DUP2 DUP4 MSTORE PUSH1 0x20 MSTORE PUSH1 0x40 DUP3 KECCAK256 PUSH1 0x1 PUSH1 0xFF NOT DUP3 SLOAD AND OR SWAP1 SSTORE CALLER SWAP2 PUSH1 0x0 DUP1 MLOAD PUSH1 0x20 PUSH3 0x1E67 DUP4 CODECOPY DUP2 MLOAD SWAP2 MSTORE DUP2 DUP1 LOG4 PUSH1 0x1 SWAP1 JUMP JUMPDEST POP SWAP1 JUMP JUMPDEST PUSH1 0x1 PUSH1 0x1 PUSH1 0xA0 SHL SUB AND PUSH1 0x0 DUP2 DUP2 MSTORE PUSH32 0x59F08E7D7BA1C82EDDC57AFAE67F80DF851BAF38A099607A779825038C3CE5B PUSH1 0x20 MSTORE PUSH1 0x40 DUP2 KECCAK256 SLOAD SWAP1 SWAP2 SWAP1 PUSH32 0xE2F4EAAE4A9751E85A3E4A7B9587827A877F29914755229B07A7B2DA98285F70 SWAP1 PUSH1 0xFF AND PUSH3 0x168 JUMPI DUP1 DUP4 MSTORE DUP3 PUSH1 0x20 MSTORE PUSH1 0x40 DUP4 KECCAK256 DUP3 DUP5 MSTORE PUSH1 0x20 MSTORE PUSH1 0x40 DUP4 KECCAK256 PUSH1 0x1 PUSH1 0xFF NOT DUP3 SLOAD AND OR SWAP1 SSTORE PUSH1 0x0 DUP1 MLOAD PUSH1 0x20 PUSH3 0x1E67 DUP4 CODECOPY DUP2 MLOAD SWAP2 MSTORE CALLER SWAP4 DUP1 LOG4 PUSH1 0x1 SWAP1 JUMP JUMPDEST POP POP SWAP1 JUMP INVALID PUSH1 0x80 DUP1 PUSH1 0x40 MSTORE PUSH1 0x4 CALLDATASIZE LT ISZERO PUSH2 0x1D JUMPI JUMPDEST POP CALLDATASIZE ISZERO PUSH2 0x1B JUMPI PUSH1 0x0 DUP1 REVERT JUMPDEST STOP JUMPDEST PUSH1 0x0 CALLDATALOAD PUSH1 0xE0 SHR SWAP1 DUP2 PUSH4 0x1FFC9A7 EQ PUSH2 0x158D JUMPI POP DUP1 PUSH4 0x7BD0265 EQ PUSH2 0x1552 JUMPI DUP1 PUSH4 0xE316AB7 EQ PUSH2 0x14F7 JUMPI DUP1 PUSH4 0x12065FE0 EQ PUSH2 0x14DB JUMPI DUP1 PUSH4 0x20EA8D86 EQ PUSH2 0x13D7 JUMPI DUP1 PUSH4 0x248A9CA3 EQ PUSH2 0x13A8 JUMPI DUP1 PUSH4 0x2E1A7D4D EQ PUSH2 0x12ED JUMPI DUP1 PUSH4 0x2F2FF15D EQ PUSH2 0x12AE JUMPI DUP1 PUSH4 0x33EA3DC8 EQ PUSH2 0x1244 JUMPI DUP1 PUSH4 0x3411C81C EQ PUSH2 0xE21 JUMPI DUP1 PUSH4 0x36568ABE EQ PUSH2 0x11FD JUMPI DUP1 PUSH4 0x4D247889 EQ PUSH2 0x11DF JUMPI DUP1 PUSH4 0x6AB3818E EQ PUSH2 0x1192 JUMPI DUP1 PUSH4 0x74420F4C EQ PUSH2 0x1066 JUMPI DUP1 PUSH4 0x7A9B0412 EQ PUSH2 0xFB3 JUMPI DUP1 PUSH4 0x7AAB1381 EQ PUSH2 0xF79 JUMPI DUP1 PUSH4 0x7B7C343D EQ PUSH2 0xE6E JUMPI DUP1 PUSH4 0x80F59A65 EQ PUSH2 0xE21 JUMPI DUP1 PUSH4 0x82E717F7 EQ PUSH2 0xE03 JUMPI DUP1 PUSH4 0x91D14854 EQ PUSH2 0xDB6 JUMPI DUP1 PUSH4 0x9ACE38C2 EQ PUSH2 0xD4C JUMPI DUP1 PUSH4 0xA1EBF35D EQ PUSH2 0xD23 JUMPI DUP1 PUSH4 0xA217FDDF EQ PUSH2 0xD07 JUMPI DUP1 PUSH4 0xA5574D52 EQ PUSH2 0xC6F JUMPI DUP1 PUSH4 0xAF522B1C EQ PUSH2 0xBE1 JUMPI DUP1 PUSH4 0xB77BF600 EQ PUSH2 0xBC3 JUMPI DUP1 PUSH4 0xC01A8C84 EQ PUSH2 0xABB JUMPI DUP1 PUSH4 0xC56C9FF4 EQ PUSH2 0x989 JUMPI DUP1 PUSH4 0xC6427474 EQ PUSH2 0x604 JUMPI DUP1 PUSH4 0xC96F85CF EQ PUSH2 0x5DF JUMPI DUP1 PUSH4 0xD547741F EQ PUSH2 0x5A0 JUMPI DUP1 PUSH4 0xD9882334 EQ PUSH2 0x4D9 JUMPI DUP1 PUSH4 0xEB12D61E EQ PUSH2 0x438 JUMPI DUP1 PUSH4 0xEE22610B EQ PUSH2 0x202 JUMPI DUP1 PUSH4 0xEF06E72C EQ PUSH2 0x1D9 JUMPI PUSH4 0xEF66D684 EQ PUSH2 0x1B6 JUMPI CODESIZE PUSH2 0xF JUMP JUMPDEST CALLVALUE PUSH2 0x1D4 JUMPI PUSH1 0x0 CALLDATASIZE PUSH1 0x3 NOT ADD SLT PUSH2 0x1D4 JUMPI PUSH1 0x20 PUSH1 0x5 SLOAD PUSH1 0x40 MLOAD SWAP1 DUP2 MSTORE RETURN JUMPDEST PUSH1 0x0 DUP1 REVERT JUMPDEST CALLVALUE PUSH2 0x1D4 JUMPI PUSH1 0x0 CALLDATASIZE PUSH1 0x3 NOT ADD SLT PUSH2 0x1D4 JUMPI PUSH1 0x2 SLOAD PUSH1 0x40 MLOAD PUSH1 0x1 PUSH1 0x1 PUSH1 0xA0 SHL SUB SWAP1 SWAP2 AND DUP2 MSTORE PUSH1 0x20 SWAP1 RETURN JUMPDEST CALLVALUE PUSH2 0x1D4 JUMPI PUSH1 0x20 DUP1 PUSH1 0x3 NOT CALLDATASIZE ADD SLT PUSH2 0x1D4 JUMPI PUSH1 0x4 CALLDATALOAD SWAP1 PUSH2 0x220 PUSH2 0x198D JUMP JUMPDEST PUSH2 0x228 PUSH2 0x1B6C JUMP JUMPDEST PUSH2 0x235 PUSH1 0x4 SLOAD DUP4 LT PUSH2 0x17A5 JUMP JUMPDEST DUP2 PUSH1 0x0 MSTORE PUSH1 0x8 DUP2 MSTORE PUSH1 0x40 PUSH1 0x0 KECCAK256 SWAP2 PUSH1 0x3 DUP4 ADD DUP1 SLOAD SWAP4 PUSH2 0x257 PUSH1 0xFF DUP7 AND ISZERO PUSH2 0x17F1 JUMP JUMPDEST PUSH1 0x4 DUP2 ADD SLOAD PUSH1 0x3 SLOAD GT PUSH2 0x3F3 JUMPI SELFBALANCE SWAP3 PUSH1 0x1 SWAP4 DUP5 DUP4 ADD SWAP4 PUSH2 0x27B DUP6 SLOAD DUP1 SWAP4 LT ISZERO PUSH2 0x1896 JUMP JUMPDEST PUSH1 0xFF NOT SWAP8 DUP9 AND DUP7 OR SWAP1 SSTORE DUP3 SLOAD PUSH1 0x40 MLOAD PUSH1 0x2 DUP6 ADD DUP1 SLOAD PUSH1 0x1 PUSH1 0x1 PUSH1 0xA0 SHL SUB SWAP11 SWAP2 SWAP5 SWAP4 DUP12 AND SWAP4 SWAP2 PUSH1 0x0 SWAP2 PUSH2 0x2AC DUP2 PUSH2 0x16B3 JUMP JUMPDEST SWAP2 DUP2 DUP13 AND SWAP2 DUP3 ISZERO PUSH2 0x3E0 JUMPI POP POP PUSH1 0x1 EQ PUSH2 0x3A8 JUMPI JUMPDEST POP SWAP2 PUSH1 0x0 SWAP4 SWAP2 DUP2 DUP6 SWAP5 SUB SWAP3 GAS CALL SWAP7 PUSH2 0x2D7 PUSH2 0x1859 JUMP JUMPDEST SWAP8 ISZERO PUSH2 0x363 JUMPI PUSH32 0xCAF938DE11C367272220BFD1D2BAA99CA46665E7BC4D85F00ADB51B90FE1FA9F SWAP4 SWAP3 SWAP2 PUSH2 0x346 SWAP2 PUSH1 0x40 MLOAD SWAP5 DUP6 SWAP5 PUSH32 0x15ED165A284872EA7017F03DF402A0CADFBFAB588320FFAF83F160C2F82781C7 PUSH1 0x0 DUP1 LOG2 SLOAD AND SWAP6 SLOAD DUP4 MSTORE PUSH1 0x40 DUP9 DUP5 ADD MSTORE PUSH1 0x40 DUP4 ADD SWAP1 PUSH2 0x16ED JUMP JUMPDEST SUB SWAP1 LOG2 DUP1 SSTORE PUSH2 0x35F PUSH1 0x40 MLOAD SWAP3 DUP3 DUP5 SWAP4 DUP5 MSTORE DUP4 ADD SWAP1 PUSH2 0x160C JUMP JUMPDEST SUB SWAP1 RETURN JUMPDEST PUSH1 0x40 MLOAD PUSH3 0x461BCD PUSH1 0xE5 SHL DUP2 MSTORE PUSH1 0x4 DUP2 ADD DUP9 SWAP1 MSTORE PUSH1 0x1C PUSH1 0x24 DUP3 ADD MSTORE PUSH32 0x5472616E73616374696F6E20657865637574696F6E206661696C656400000000 PUSH1 0x44 DUP3 ADD MSTORE PUSH1 0x64 SWAP1 REVERT JUMPDEST SWAP1 POP DUP5 PUSH1 0x0 MSTORE DUP10 PUSH1 0x0 KECCAK256 DUP11 DUP11 PUSH1 0x0 SWAP3 JUMPDEST DUP5 DUP5 LT PUSH2 0x3CE JUMPI POP POP POP SWAP1 DUP4 ADD SWAP1 POP PUSH1 0x0 PUSH2 0x2C1 JUMP JUMPDEST DUP1 SLOAD DUP5 DUP9 ADD MSTORE ADD SWAP2 ADD SWAP1 DUP11 DUP13 SWAP2 PUSH2 0x3B8 JUMP JUMPDEST AND DUP6 MSTORE POP DUP1 ISZERO ISZERO MUL DUP4 ADD SWAP1 POP PUSH1 0x0 PUSH2 0x2C1 JUMP JUMPDEST PUSH1 0x40 MLOAD PUSH3 0x461BCD PUSH1 0xE5 SHL DUP2 MSTORE PUSH1 0x4 DUP2 ADD DUP6 SWAP1 MSTORE PUSH1 0x18 PUSH1 0x24 DUP3 ADD MSTORE PUSH32 0x4E6F7420656E6F75676820636F6E6669726D6174696F6E730000000000000000 PUSH1 0x44 DUP3 ADD MSTORE PUSH1 0x64 SWAP1 REVERT JUMPDEST CALLVALUE PUSH2 0x1D4 JUMPI PUSH1 0x20 CALLDATASIZE PUSH1 0x3 NOT ADD SLT PUSH2 0x1D4 JUMPI PUSH2 0x451 PUSH2 0x15E0 JUMP JUMPDEST PUSH2 0x459 PUSH2 0x1935 JUMP JUMPDEST PUSH1 0x1 PUSH1 0x1 PUSH1 0xA0 SHL SUB DUP2 AND SWAP1 DUP2 ISZERO PUSH2 0x49B JUMPI PUSH2 0x473 SWAP1 PUSH2 0x1B8F JUMP JUMPDEST POP PUSH32 0x47D1C22A25BB3A5D4E481B9B1E6944C2EADE3181A0A20B495ED61D35B5323F24 PUSH1 0x0 DUP1 LOG2 STOP JUMPDEST PUSH1 0x40 MLOAD PUSH3 0x461BCD PUSH1 0xE5 SHL DUP2 MSTORE PUSH1 0x20 PUSH1 0x4 DUP3 ADD MSTORE PUSH1 0x16 PUSH1 0x24 DUP3 ADD MSTORE PUSH22 0x496E76616C6964207369676E65722061646472657373 PUSH1 0x50 SHL PUSH1 0x44 DUP3 ADD MSTORE PUSH1 0x64 SWAP1 REVERT JUMPDEST CALLVALUE PUSH2 0x1D4 JUMPI PUSH1 0x20 DUP1 PUSH1 0x3 NOT CALLDATASIZE ADD SLT PUSH2 0x1D4 JUMPI PUSH1 0x2 SLOAD PUSH1 0x24 SWAP1 PUSH1 0x4 CALLDATALOAD SWAP1 DUP4 SWAP1 PUSH1 0x1 PUSH1 0x1 PUSH1 0xA0 SHL SUB AND PUSH2 0x50B DUP2 ISZERO ISZERO PUSH2 0x18E2 JUMP JUMPDEST PUSH1 0x40 MLOAD SWAP4 DUP5 DUP1 SWAP3 PUSH4 0x23A9D257 PUSH1 0xE2 SHL DUP3 MSTORE DUP6 PUSH1 0x4 DUP4 ADD MSTORE GAS STATICCALL SWAP2 DUP3 ISZERO PUSH2 0x594 JUMPI PUSH1 0x0 SWAP3 PUSH2 0x565 JUMPI JUMPDEST POP PUSH32 0xB96772FA5329EA20C203D97D9B39ACCE1FAEC46FDB3BD87A329EBF77FD7410CE DUP4 PUSH1 0x40 MLOAD DUP5 DUP2 MSTORE LOG2 PUSH1 0x40 MLOAD SWAP1 DUP2 MSTORE RETURN JUMPDEST SWAP1 SWAP2 POP DUP3 DUP2 DUP2 RETURNDATASIZE DUP4 GT PUSH2 0x58D JUMPI JUMPDEST PUSH2 0x57D DUP2 DUP4 PUSH2 0x1783 JUMP JUMPDEST DUP2 ADD SUB SLT PUSH2 0x1D4 JUMPI MLOAD SWAP1 DUP4 PUSH2 0x533 JUMP JUMPDEST POP RETURNDATASIZE PUSH2 0x573 JUMP JUMPDEST PUSH1 0x40 MLOAD RETURNDATASIZE PUSH1 0x0 DUP3 RETURNDATACOPY RETURNDATASIZE SWAP1 REVERT JUMPDEST CALLVALUE PUSH2 0x1D4 JUMPI PUSH1 0x40 CALLDATASIZE PUSH1 0x3 NOT ADD SLT PUSH2 0x1D4 JUMPI PUSH2 0x1B PUSH1 0x4 CALLDATALOAD PUSH2 0x5BF PUSH2 0x15F6 JUMP JUMPDEST SWAP1 DUP1 PUSH1 0x0 MSTORE PUSH1 0x0 PUSH1 0x20 MSTORE PUSH2 0x5DA PUSH1 0x1 PUSH1 0x40 PUSH1 0x0 KECCAK256 ADD SLOAD PUSH2 0x1A33 JUMP JUMPDEST PUSH2 0x1AF7 JUMP JUMPDEST CALLVALUE PUSH2 0x1D4 JUMPI PUSH1 0x0 CALLDATASIZE PUSH1 0x3 NOT ADD SLT PUSH2 0x1D4 JUMPI PUSH1 0x40 PUSH1 0x5 SLOAD PUSH1 0x6 SLOAD DUP3 MLOAD SWAP2 DUP3 MSTORE PUSH1 0x20 DUP3 ADD MSTORE RETURN JUMPDEST CALLVALUE PUSH2 0x1D4 JUMPI PUSH1 0x60 CALLDATASIZE PUSH1 0x3 NOT ADD SLT PUSH2 0x1D4 JUMPI PUSH2 0x61D PUSH2 0x15E0 JUMP JUMPDEST PUSH8 0xFFFFFFFFFFFFFFFF PUSH1 0x44 CALLDATALOAD DUP2 DUP2 GT PUSH2 0x1D4 JUMPI PUSH2 0x63E SWAP1 CALLDATASIZE SWAP1 PUSH1 0x4 ADD PUSH2 0x1685 JUMP JUMPDEST SWAP3 PUSH2 0x647 PUSH2 0x198D JUMP JUMPDEST PUSH1 0x4 SLOAD SWAP3 PUSH2 0x654 DUP5 PUSH2 0x1926 JUMP JUMPDEST PUSH1 0x4 SSTORE PUSH1 0x40 MLOAD SWAP3 PUSH1 0xA0 DUP5 ADD DUP5 DUP2 LT DUP4 DUP3 GT OR PUSH2 0x973 JUMPI PUSH1 0x40 MSTORE PUSH1 0x1 PUSH1 0x1 PUSH1 0xA0 SHL SUB DUP4 DUP2 AND DUP6 MSTORE PUSH1 0x24 CALLDATALOAD PUSH1 0x20 DUP7 ADD SWAP1 DUP2 MSTORE SWAP7 SWAP1 SWAP3 SWAP1 PUSH2 0x691 DUP2 PUSH2 0x183D JUMP JUMPDEST SWAP3 PUSH2 0x69F PUSH1 0x40 MLOAD SWAP5 DUP6 PUSH2 0x1783 JUMP JUMPDEST DUP2 DUP5 MSTORE CALLDATASIZE DUP3 DUP3 ADD GT PUSH2 0x1D4 JUMPI DUP2 PUSH1 0x0 SWAP3 PUSH1 0x20 SWAP3 DUP4 DUP8 ADD CALLDATACOPY DUP5 ADD ADD MSTORE PUSH1 0x40 DUP6 ADD SWAP2 DUP3 MSTORE PUSH1 0x0 PUSH1 0x60 DUP7 ADD MSTORE PUSH1 0x0 PUSH1 0x80 DUP7 ADD MSTORE DUP6 PUSH1 0x0 MSTORE PUSH1 0x8 PUSH1 0x20 MSTORE PUSH1 0x40 PUSH1 0x0 KECCAK256 SWAP2 DUP4 DUP7 MLOAD AND PUSH12 0xFFFFFFFFFFFFFFFFFFFFFFFF PUSH1 0xA0 SHL DUP5 SLOAD AND OR DUP4 SSTORE PUSH1 0x1 SWAP8 MLOAD DUP9 DUP5 ADD SSTORE MLOAD DUP1 MLOAD SWAP2 DUP3 GT PUSH2 0x973 JUMPI DUP2 SWAP1 PUSH2 0x719 PUSH1 0x2 DUP6 ADD SLOAD PUSH2 0x16B3 JUMP JUMPDEST PUSH1 0x1F DUP2 GT PUSH2 0x91B JUMPI JUMPDEST POP PUSH1 0x20 SWAP1 PUSH1 0x1F DUP4 GT PUSH1 0x1 EQ PUSH2 0x8B1 JUMPI PUSH1 0x0 SWAP3 PUSH2 0x8A6 JUMPI JUMPDEST POP POP PUSH1 0x0 NOT PUSH1 0x3 DUP4 SWAP1 SHL SHR NOT AND SWAP1 DUP8 SHL OR PUSH1 0x2 DUP3 ADD SSTORE JUMPDEST PUSH1 0x4 PUSH1 0x80 PUSH1 0x3 DUP4 ADD SWAP6 PUSH1 0x60 DUP2 ADD MLOAD ISZERO ISZERO SWAP7 PUSH1 0xFF NOT SWAP8 PUSH1 0xFF DUP10 DUP4 SLOAD AND SWAP2 AND OR SWAP1 SSTORE ADD MLOAD SWAP2 ADD SSTORE PUSH1 0x40 MLOAD SWAP2 AND DUP2 MSTORE PUSH1 0x24 CALLDATALOAD PUSH1 0x20 DUP3 ADD MSTORE DUP3 PUSH32 0x753DCDA37EFE0BC3675E04E24D1FB08B70681F14675EED4B6E7978495CAF2CA0 PUSH1 0x40 CALLER SWAP4 LOG3 PUSH2 0x7B3 PUSH2 0x198D JUMP JUMPDEST PUSH2 0x7C0 PUSH1 0x4 SLOAD DUP4 LT PUSH2 0x17A5 JUMP JUMPDEST DUP2 PUSH1 0x0 MSTORE PUSH1 0x8 PUSH1 0x20 MSTORE PUSH2 0x7DE PUSH1 0xFF PUSH1 0x3 PUSH1 0x40 PUSH1 0x0 KECCAK256 ADD SLOAD AND ISZERO PUSH2 0x17F1 JUMP JUMPDEST DUP2 PUSH1 0x0 MSTORE PUSH1 0x9 PUSH1 0x20 MSTORE PUSH1 0x40 PUSH1 0x0 KECCAK256 CALLER PUSH1 0x0 MSTORE PUSH1 0x20 MSTORE PUSH1 0xFF PUSH1 0x40 PUSH1 0x0 KECCAK256 SLOAD AND PUSH2 0x86D JUMPI PUSH1 0x20 SWAP3 DUP3 PUSH1 0x0 MSTORE PUSH1 0x9 DUP5 MSTORE PUSH1 0x40 PUSH1 0x0 KECCAK256 CALLER PUSH1 0x0 MSTORE DUP5 MSTORE PUSH1 0x40 PUSH1 0x0 KECCAK256 SWAP2 DUP3 SLOAD AND OR SWAP1 SSTORE DUP1 PUSH1 0x0 MSTORE PUSH1 0x8 DUP3 MSTORE PUSH1 0x4 PUSH1 0x40 PUSH1 0x0 KECCAK256 ADD PUSH2 0x83C DUP2 SLOAD PUSH2 0x1926 JUMP JUMPDEST SWAP1 SSTORE PUSH1 0x40 MLOAD SWAP1 CALLER DUP2 PUSH32 0x15C2F311C9E0F53B50388279894AEFF029A3457884A6601E924FCA879E12ADCC PUSH1 0x0 DUP1 LOG3 DUP2 MSTORE RETURN JUMPDEST PUSH1 0x40 MLOAD PUSH3 0x461BCD PUSH1 0xE5 SHL DUP2 MSTORE PUSH1 0x20 PUSH1 0x4 DUP3 ADD MSTORE PUSH1 0x11 PUSH1 0x24 DUP3 ADD MSTORE PUSH17 0x105B1C9958591E4818DBDB999A5C9B5959 PUSH1 0x7A SHL PUSH1 0x44 DUP3 ADD MSTORE PUSH1 0x64 SWAP1 REVERT JUMPDEST ADD MLOAD SWAP1 POP DUP9 DUP1 PUSH2 0x739 JUMP JUMPDEST SWAP1 DUP10 SWAP4 POP PUSH1 0x1F NOT DUP4 AND SWAP2 PUSH1 0x2 DUP7 ADD PUSH1 0x0 MSTORE PUSH1 0x20 PUSH1 0x0 KECCAK256 SWAP3 PUSH1 0x0 JUMPDEST DUP2 DUP2 LT PUSH2 0x903 JUMPI POP DUP5 GT PUSH2 0x8EA JUMPI JUMPDEST POP POP POP DUP2 SHL ADD PUSH1 0x2 DUP3 ADD SSTORE PUSH2 0x750 JUMP JUMPDEST ADD MLOAD PUSH1 0x0 NOT PUSH1 0xF8 DUP5 PUSH1 0x3 SHL AND SHR NOT AND SWAP1 SSTORE DUP9 DUP1 DUP1 PUSH2 0x8DA JUMP JUMPDEST DUP3 DUP5 ADD MLOAD DUP6 SSTORE DUP13 SWAP7 SWAP1 SWAP5 ADD SWAP4 PUSH1 0x20 SWAP4 DUP5 ADD SWAP4 ADD PUSH2 0x8CB JUMP JUMPDEST SWAP1 SWAP2 POP PUSH1 0x2 DUP5 ADD PUSH1 0x0 MSTORE PUSH1 0x20 PUSH1 0x0 KECCAK256 PUSH1 0x1F DUP5 ADD PUSH1 0x5 SHR DUP2 ADD SWAP2 PUSH1 0x20 DUP6 LT PUSH2 0x969 JUMPI JUMPDEST DUP5 SWAP4 SWAP3 SWAP2 PUSH1 0x1F DUP13 SWAP3 ADD PUSH1 0x5 SHR ADD SWAP2 JUMPDEST DUP3 DUP2 LT PUSH2 0x95A JUMPI POP POP PUSH2 0x722 JUMP JUMPDEST PUSH1 0x0 DUP2 SSTORE DUP6 SWAP5 POP DUP12 SWAP2 ADD PUSH2 0x94C JUMP JUMPDEST SWAP1 SWAP2 POP DUP2 SWAP1 PUSH2 0x93D JUMP JUMPDEST PUSH4 0x4E487B71 PUSH1 0xE0 SHL PUSH1 0x0 MSTORE PUSH1 0x41 PUSH1 0x4 MSTORE PUSH1 0x24 PUSH1 0x0 REVERT JUMPDEST CALLVALUE PUSH2 0x1D4 JUMPI PUSH1 0x40 CALLDATASIZE PUSH1 0x3 NOT ADD SLT PUSH2 0x1D4 JUMPI PUSH2 0x9A2 PUSH2 0x15E0 JUMP JUMPDEST PUSH1 0x24 CALLDATALOAD SWAP1 PUSH2 0x9AE PUSH2 0x19D7 JUMP JUMPDEST GASPRICE DUP3 MUL SWAP2 DUP1 DUP4 DIV GASPRICE EQ SWAP1 ISZERO OR ISZERO PUSH2 0xA95 JUMPI PUSH1 0x6 SLOAD DUP1 DUP4 GT PUSH2 0xAB3 JUMPI JUMPDEST POP PUSH1 0x5 SLOAD DUP1 DUP4 GT PUSH2 0xAAB JUMPI JUMPDEST DUP3 PUSH2 0x9DD JUMPI STOP JUMPDEST DUP3 DUP2 SUB SWAP1 DUP2 GT PUSH2 0xA95 JUMPI PUSH1 0x5 SSTORE PUSH1 0x1 DUP1 PUSH1 0xA0 SHL SUB AND SWAP1 DUP2 PUSH1 0x0 MSTORE PUSH1 0x7 PUSH1 0x20 MSTORE PUSH1 0x40 PUSH1 0x0 KECCAK256 PUSH2 0xA0C DUP3 DUP3 SLOAD PUSH2 0x1889 JUMP JUMPDEST SWAP1 SSTORE PUSH1 0x0 DUP1 DUP1 DUP1 DUP5 DUP7 GAS CALL PUSH2 0xA1F PUSH2 0x1859 JUMP JUMPDEST POP ISZERO PUSH2 0xA59 JUMPI PUSH1 0x40 PUSH32 0x5FC1E14C18E85D0603C37D2759F24A4F00FE4454E0A0B2566DF29785F4810D29 SWAP2 PUSH1 0x5 SLOAD DUP3 MLOAD SWAP2 DUP3 MSTORE PUSH1 0x20 DUP3 ADD MSTORE LOG2 STOP JUMPDEST PUSH1 0x40 MLOAD PUSH3 0x461BCD PUSH1 0xE5 SHL DUP2 MSTORE PUSH1 0x20 PUSH1 0x4 DUP3 ADD MSTORE PUSH1 0x14 PUSH1 0x24 DUP3 ADD MSTORE PUSH20 0x14995A5B589D5C9CD95B595B9D0819985A5B1959 PUSH1 0x62 SHL PUSH1 0x44 DUP3 ADD MSTORE PUSH1 0x64 SWAP1 REVERT JUMPDEST PUSH4 0x4E487B71 PUSH1 0xE0 SHL PUSH1 0x0 MSTORE PUSH1 0x11 PUSH1 0x4 MSTORE PUSH1 0x24 PUSH1 0x0 REVERT JUMPDEST SWAP2 POP DUP2 PUSH2 0x9D6 JUMP JUMPDEST SWAP2 POP DUP3 PUSH2 0x9CA JUMP JUMPDEST CALLVALUE PUSH2 0x1D4 JUMPI PUSH1 0x20 DUP1 PUSH1 0x3 NOT CALLDATASIZE ADD SLT PUSH2 0x1D4 JUMPI PUSH1 0x4 CALLDATALOAD SWAP1 PUSH2 0xAD9 PUSH2 0x198D JUMP JUMPDEST PUSH2 0xAE6 PUSH1 0x4 SLOAD DUP4 LT PUSH2 0x17A5 JUMP JUMPDEST DUP2 PUSH1 0x0 MSTORE PUSH1 0x8 DUP2 MSTORE PUSH2 0xB03 PUSH1 0xFF PUSH1 0x3 PUSH1 0x40 PUSH1 0x0 KECCAK256 ADD SLOAD AND ISZERO PUSH2 0x17F1 JUMP JUMPDEST DUP2 PUSH1 0x0 MSTORE PUSH1 0x9 DUP2 MSTORE PUSH1 0x40 PUSH1 0x0 KECCAK256 CALLER PUSH1 0x0 MSTORE DUP2 MSTORE PUSH1 0xFF PUSH1 0x40 PUSH1 0x0 KECCAK256 SLOAD AND PUSH2 0xB8B JUMPI PUSH1 0x8 SWAP1 DUP3 PUSH1 0x0 MSTORE PUSH1 0x9 DUP2 MSTORE PUSH1 0x40 PUSH1 0x0 KECCAK256 CALLER PUSH1 0x0 MSTORE DUP2 MSTORE PUSH1 0x40 PUSH1 0x0 KECCAK256 PUSH1 0x1 PUSH1 0xFF NOT DUP3 SLOAD AND OR SWAP1 SSTORE DUP3 PUSH1 0x0 MSTORE MSTORE PUSH1 0x4 PUSH1 0x40 PUSH1 0x0 KECCAK256 ADD PUSH2 0xB60 DUP2 SLOAD PUSH2 0x1926 JUMP JUMPDEST SWAP1 SSTORE CALLER SWAP1 PUSH32 0x15C2F311C9E0F53B50388279894AEFF029A3457884A6601E924FCA879E12ADCC PUSH1 0x0 DUP1 LOG3 STOP JUMPDEST PUSH1 0x64 SWAP1 PUSH1 0x40 MLOAD SWAP1 PUSH3 0x461BCD PUSH1 0xE5 SHL DUP3 MSTORE PUSH1 0x4 DUP3 ADD MSTORE PUSH1 0x11 PUSH1 0x24 DUP3 ADD MSTORE PUSH17 0x105B1C9958591E4818DBDB999A5C9B5959 PUSH1 0x7A SHL PUSH1 0x44 DUP3 ADD MSTORE REVERT JUMPDEST CALLVALUE PUSH2 0x1D4 JUMPI PUSH1 0x0 CALLDATASIZE PUSH1 0x3 NOT ADD SLT PUSH2 0x1D4 JUMPI PUSH1 0x20 PUSH1 0x4 SLOAD PUSH1 0x40 MLOAD SWAP1 DUP2 MSTORE RETURN JUMPDEST CALLVALUE PUSH2 0x1D4 JUMPI PUSH1 0x20 DUP1 PUSH1 0x3 NOT CALLDATASIZE ADD SLT PUSH2 0x1D4 JUMPI PUSH1 0x2 SLOAD PUSH1 0x24 SWAP1 DUP3 SWAP1 PUSH1 0x1 PUSH1 0x1 PUSH1 0xA0 SHL SUB AND PUSH2 0xC0F DUP2 ISZERO ISZERO PUSH2 0x18E2 JUMP JUMPDEST PUSH1 0x40 MLOAD SWAP3 DUP4 DUP1 SWAP3 PUSH4 0x23A9D257 PUSH1 0xE2 SHL DUP3 MSTORE PUSH1 0x4 CALLDATALOAD PUSH1 0x4 DUP4 ADD MSTORE GAS STATICCALL SWAP1 DUP2 ISZERO PUSH2 0x594 JUMPI PUSH1 0x0 SWAP2 PUSH2 0xC42 JUMPI JUMPDEST POP PUSH1 0x40 MLOAD SWAP1 DUP2 MSTORE RETURN JUMPDEST SWAP1 POP DUP2 DUP2 DUP2 RETURNDATASIZE DUP4 GT PUSH2 0xC68 JUMPI JUMPDEST PUSH2 0xC59 DUP2 DUP4 PUSH2 0x1783 JUMP JUMPDEST DUP2 ADD SUB SLT PUSH2 0x1D4 JUMPI MLOAD DUP3 PUSH2 0xC39 JUMP JUMPDEST POP RETURNDATASIZE PUSH2 0xC4F JUMP JUMPDEST CALLVALUE PUSH2 0x1D4 JUMPI PUSH1 0x20 CALLDATASIZE PUSH1 0x3 NOT ADD SLT PUSH2 0x1D4 JUMPI PUSH1 0x4 CALLDATALOAD PUSH2 0xC8B PUSH2 0x1935 JUMP JUMPDEST PUSH8 0x16345785D8A0000 DUP2 GT PUSH2 0xCD3 JUMPI PUSH1 0x40 PUSH32 0x6FF3BA4223F4D694CED77174A208557C49FD86EAD36368EB2871CEB7EB4D1EEB SWAP2 PUSH1 0x6 SLOAD SWAP1 DUP1 PUSH1 0x6 SSTORE DUP3 MLOAD SWAP2 DUP3 MSTORE PUSH1 0x20 DUP3 ADD MSTORE LOG1 STOP JUMPDEST PUSH1 0x40 MLOAD PUSH3 0x461BCD PUSH1 0xE5 SHL DUP2 MSTORE PUSH1 0x20 PUSH1 0x4 DUP3 ADD MSTORE PUSH1 0xC PUSH1 0x24 DUP3 ADD MSTORE PUSH12 0x9AC2F040E8DEDE40D0D2CED PUSH1 0xA3 SHL PUSH1 0x44 DUP3 ADD MSTORE PUSH1 0x64 SWAP1 REVERT JUMPDEST CALLVALUE PUSH2 0x1D4 JUMPI PUSH1 0x0 CALLDATASIZE PUSH1 0x3 NOT ADD SLT PUSH2 0x1D4 JUMPI PUSH1 0x20 PUSH1 0x40 MLOAD PUSH1 0x0 DUP2 MSTORE RETURN JUMPDEST CALLVALUE PUSH2 0x1D4 JUMPI PUSH1 0x0 CALLDATASIZE PUSH1 0x3 NOT ADD SLT PUSH2 0x1D4 JUMPI PUSH1 0x20 PUSH1 0x40 MLOAD PUSH1 0x0 DUP1 MLOAD PUSH1 0x20 PUSH2 0x1CA4 DUP4 CODECOPY DUP2 MLOAD SWAP2 MSTORE DUP2 MSTORE RETURN JUMPDEST CALLVALUE PUSH2 0x1D4 JUMPI PUSH1 0x20 CALLDATASIZE PUSH1 0x3 NOT ADD SLT PUSH2 0x1D4 JUMPI PUSH1 0x4 CALLDATALOAD PUSH1 0x0 MSTORE PUSH1 0x8 PUSH1 0x20 MSTORE PUSH1 0x40 PUSH1 0x0 KECCAK256 PUSH1 0x1 DUP1 PUSH1 0xA0 SHL SUB DUP2 SLOAD AND PUSH2 0x35F PUSH1 0x1 DUP4 ADD SLOAD SWAP3 PUSH1 0x40 MLOAD SWAP1 PUSH2 0xD9C DUP3 PUSH2 0xD95 DUP2 PUSH1 0x2 DUP6 ADD PUSH2 0x16ED JUMP JUMPDEST SUB DUP4 PUSH2 0x1783 JUMP JUMPDEST PUSH1 0x4 PUSH1 0xFF PUSH1 0x3 DUP4 ADD SLOAD AND SWAP2 ADD SLOAD SWAP2 PUSH1 0x40 MLOAD SWAP6 DUP7 SWAP6 DUP7 PUSH2 0x164C JUMP JUMPDEST CALLVALUE PUSH2 0x1D4 JUMPI PUSH1 0x40 CALLDATASIZE PUSH1 0x3 NOT ADD SLT PUSH2 0x1D4 JUMPI PUSH2 0xDCF PUSH2 0x15F6 JUMP JUMPDEST PUSH1 0x4 CALLDATALOAD PUSH1 0x0 MSTORE PUSH1 0x0 PUSH1 0x20 MSTORE PUSH1 0x40 PUSH1 0x0 KECCAK256 SWAP1 PUSH1 0x1 DUP1 PUSH1 0xA0 SHL SUB AND PUSH1 0x0 MSTORE PUSH1 0x20 MSTORE PUSH1 0x20 PUSH1 0xFF PUSH1 0x40 PUSH1 0x0 KECCAK256 SLOAD AND PUSH1 0x40 MLOAD SWAP1 ISZERO ISZERO DUP2 MSTORE RETURN JUMPDEST CALLVALUE PUSH2 0x1D4 JUMPI PUSH1 0x0 CALLDATASIZE PUSH1 0x3 NOT ADD SLT PUSH2 0x1D4 JUMPI PUSH1 0x20 PUSH1 0x3 SLOAD PUSH1 0x40 MLOAD SWAP1 DUP2 MSTORE RETURN JUMPDEST CALLVALUE PUSH2 0x1D4 JUMPI PUSH1 0x40 CALLDATASIZE PUSH1 0x3 NOT ADD SLT PUSH2 0x1D4 JUMPI PUSH2 0xE3A PUSH2 0x15F6 JUMP JUMPDEST PUSH1 0x4 CALLDATALOAD PUSH1 0x0 MSTORE PUSH1 0x9 PUSH1 0x20 MSTORE PUSH1 0x40 PUSH1 0x0 KECCAK256 SWAP1 PUSH1 0x1 DUP1 PUSH1 0xA0 SHL SUB AND PUSH1 0x0 MSTORE PUSH1 0x20 MSTORE PUSH1 0x20 PUSH1 0xFF PUSH1 0x40 PUSH1 0x0 KECCAK256 SLOAD AND PUSH1 0x40 MLOAD SWAP1 ISZERO ISZERO DUP2 MSTORE RETURN JUMPDEST CALLVALUE PUSH2 0x1D4 JUMPI PUSH1 0x20 CALLDATASIZE PUSH1 0x3 NOT ADD SLT PUSH2 0x1D4 JUMPI PUSH1 0x4 CALLDATALOAD PUSH2 0xE8A PUSH2 0x1935 JUMP JUMPDEST DUP1 ISZERO PUSH2 0xF28 JUMPI PUSH1 0xA DUP2 GT PUSH2 0xED1 JUMPI PUSH1 0x40 PUSH32 0x9A71F52A6CF1D6A0A676A538D4131E624FBE0F9146D1CA1C7A31FDA3DB8C37F7 SWAP2 PUSH1 0x3 SLOAD SWAP1 DUP1 PUSH1 0x3 SSTORE DUP3 MLOAD SWAP2 DUP3 MSTORE PUSH1 0x20 DUP3 ADD MSTORE LOG1 STOP JUMPDEST PUSH1 0x40 MLOAD PUSH3 0x461BCD PUSH1 0xE5 SHL DUP2 MSTORE PUSH1 0x20 PUSH1 0x4 DUP3 ADD MSTORE PUSH1 0x29 PUSH1 0x24 DUP3 ADD MSTORE PUSH32 0x43616E6E6F742072657175697265206D6F7265207468616E20313020636F6E66 PUSH1 0x44 DUP3 ADD MSTORE PUSH9 0x69726D6174696F6E73 PUSH1 0xB8 SHL PUSH1 0x64 DUP3 ADD MSTORE PUSH1 0x84 SWAP1 REVERT JUMPDEST PUSH1 0x40 MLOAD PUSH3 0x461BCD PUSH1 0xE5 SHL DUP2 MSTORE PUSH1 0x20 PUSH1 0x4 DUP3 ADD MSTORE PUSH1 0x24 DUP1 DUP3 ADD MSTORE PUSH32 0x4D7573742072657175697265206174206C65617374203120636F6E6669726D61 PUSH1 0x44 DUP3 ADD MSTORE PUSH4 0x3A34B7B7 PUSH1 0xE1 SHL PUSH1 0x64 DUP3 ADD MSTORE PUSH1 0x84 SWAP1 REVERT JUMPDEST CALLVALUE PUSH2 0x1D4 JUMPI PUSH1 0x20 CALLDATASIZE PUSH1 0x3 NOT ADD SLT PUSH2 0x1D4 JUMPI PUSH1 0x1 PUSH1 0x1 PUSH1 0xA0 SHL SUB PUSH2 0xF9A PUSH2 0x15E0 JUMP JUMPDEST AND PUSH1 0x0 MSTORE PUSH1 0x7 PUSH1 0x20 MSTORE PUSH1 0x20 PUSH1 0x40 PUSH1 0x0 KECCAK256 SLOAD PUSH1 0x40 MLOAD SWAP1 DUP2 MSTORE RETURN JUMPDEST CALLVALUE PUSH2 0x1D4 JUMPI PUSH1 0x20 CALLDATASIZE PUSH1 0x3 NOT ADD SLT PUSH2 0x1D4 JUMPI PUSH2 0xFCC PUSH2 0x15E0 JUMP JUMPDEST PUSH2 0xFD4 PUSH2 0x1935 JUMP JUMPDEST PUSH1 0x1 PUSH1 0x1 PUSH1 0xA0 SHL SUB SWAP1 DUP2 AND SWAP1 DUP2 ISZERO PUSH2 0x1028 JUMPI PUSH1 0x2 SLOAD DUP3 PUSH12 0xFFFFFFFFFFFFFFFFFFFFFFFF PUSH1 0xA0 SHL DUP3 AND OR PUSH1 0x2 SSTORE AND PUSH32 0xE108CF8F8B301F7954568E77EBD0B1215523268A978E34BC9CC1A60B6ABF78E6 PUSH1 0x0 DUP1 LOG3 STOP JUMPDEST PUSH1 0x40 MLOAD PUSH3 0x461BCD PUSH1 0xE5 SHL DUP2 MSTORE PUSH1 0x20 PUSH1 0x4 DUP3 ADD MSTORE PUSH1 0x16 PUSH1 0x24 DUP3 ADD MSTORE PUSH22 0x496E76616C6964206F7261636C652061646472657373 PUSH1 0x50 SHL PUSH1 0x44 DUP3 ADD MSTORE PUSH1 0x64 SWAP1 REVERT JUMPDEST CALLVALUE PUSH2 0x1D4 JUMPI PUSH1 0x80 CALLDATASIZE PUSH1 0x3 NOT ADD SLT PUSH2 0x1D4 JUMPI PUSH2 0x107F PUSH2 0x15E0 JUMP JUMPDEST PUSH1 0x24 CALLDATALOAD PUSH1 0x44 CALLDATALOAD PUSH8 0xFFFFFFFFFFFFFFFF DUP2 GT PUSH2 0x1D4 JUMPI PUSH2 0x10A2 SWAP1 CALLDATASIZE SWAP1 PUSH1 0x4 ADD PUSH2 0x1685 JUMP JUMPDEST SWAP1 SWAP2 PUSH2 0x10AC PUSH2 0x19D7 JUMP JUMPDEST PUSH2 0x10B4 PUSH2 0x1B6C JUMP JUMPDEST PUSH2 0x10C0 DUP2 SELFBALANCE LT ISZERO PUSH2 0x1896 JUMP JUMPDEST PUSH1 0x0 DUP1 PUSH1 0x40 MLOAD DUP5 DUP7 DUP3 CALLDATACOPY DUP1 DUP6 DUP2 ADD DUP4 DUP2 MSTORE SUB SWAP1 DUP5 DUP9 GAS CALL SWAP3 PUSH2 0x10E0 PUSH2 0x1859 JUMP JUMPDEST SWAP4 ISZERO PUSH2 0x115F JUMPI PUSH1 0x60 PUSH32 0xCAF938DE11C367272220BFD1D2BAA99CA46665E7BC4D85F00ADB51B90FE1FA9F SWAP3 PUSH2 0x35F SWAP7 DUP6 PUSH1 0x40 MLOAD SWAP5 DUP6 SWAP4 DUP5 MSTORE PUSH1 0x40 PUSH1 0x20 DUP6 ADD MSTORE DUP2 PUSH1 0x40 DUP6 ADD MSTORE DUP5 DUP5 ADD CALLDATACOPY PUSH1 0x0 DUP3 DUP8 ADD DUP5 ADD MSTORE PUSH1 0x1 PUSH1 0x1 PUSH1 0xA0 SHL SUB AND SWAP5 PUSH1 0x1F ADD PUSH1 0x1F NOT AND DUP2 ADD SUB ADD SWAP1 LOG2 PUSH1 0x1 DUP1 SSTORE PUSH1 0x40 MLOAD SWAP2 DUP3 SWAP2 PUSH1 0x20 DUP4 MSTORE PUSH1 0x20 DUP4 ADD SWAP1 PUSH2 0x160C JUMP JUMPDEST PUSH1 0x40 MLOAD PUSH3 0x461BCD PUSH1 0xE5 SHL DUP2 MSTORE PUSH1 0x20 PUSH1 0x4 DUP3 ADD MSTORE PUSH1 0xB PUSH1 0x24 DUP3 ADD MSTORE PUSH11 0x10D85B1B0819985A5B1959 PUSH1 0xAA SHL PUSH1 0x44 DUP3 ADD MSTORE PUSH1 0x64 SWAP1 REVERT JUMPDEST PUSH1 0x0 CALLDATASIZE PUSH1 0x3 NOT ADD SLT PUSH2 0x1D4 JUMPI PUSH32 0x19A5C5590F6A234A92047E9B565EE9A2E8D9D83DB89B9AC1622A6D6E170470EE PUSH1 0x40 PUSH2 0x11CD CALLVALUE PUSH1 0x5 SLOAD PUSH2 0x1889 JUMP JUMPDEST DUP1 PUSH1 0x5 SSTORE DUP2 MLOAD SWAP1 CALLVALUE DUP3 MSTORE PUSH1 0x20 DUP3 ADD MSTORE LOG1 STOP JUMPDEST CALLVALUE PUSH2 0x1D4 JUMPI PUSH1 0x0 CALLDATASIZE PUSH1 0x3 NOT ADD SLT PUSH2 0x1D4 JUMPI PUSH1 0x20 PUSH1 0x6 SLOAD PUSH1 0x40 MLOAD SWAP1 DUP2 MSTORE RETURN JUMPDEST CALLVALUE PUSH2 0x1D4 JUMPI PUSH1 0x40 CALLDATASIZE PUSH1 0x3 NOT ADD SLT PUSH2 0x1D4 JUMPI PUSH2 0x1216 PUSH2 0x15F6 JUMP JUMPDEST CALLER PUSH1 0x1 PUSH1 0x1 PUSH1 0xA0 SHL SUB DUP3 AND SUB PUSH2 0x1232 JUMPI PUSH2 0x1B SWAP1 PUSH1 0x4 CALLDATALOAD PUSH2 0x1AF7 JUMP JUMPDEST PUSH1 0x40 MLOAD PUSH4 0x334BD919 PUSH1 0xE1 SHL DUP2 MSTORE PUSH1 0x4 SWAP1 REVERT JUMPDEST CALLVALUE PUSH2 0x1D4 JUMPI PUSH1 0x20 CALLDATASIZE PUSH1 0x3 NOT ADD SLT PUSH2 0x1D4 JUMPI PUSH1 0x4 CALLDATALOAD PUSH1 0x0 MSTORE PUSH1 0x8 PUSH1 0x20 MSTORE PUSH1 0x40 PUSH1 0x0 KECCAK256 PUSH1 0x1 DUP1 PUSH1 0xA0 SHL SUB DUP2 SLOAD AND PUSH2 0x35F PUSH1 0x1 DUP4 ADD SLOAD SWAP3 PUSH1 0xFF PUSH1 0x3 DUP3 ADD SLOAD AND PUSH1 0x2 PUSH2 0x12A2 PUSH1 0x4 DUP5 ADD SLOAD SWAP4 PUSH2 0x129B PUSH1 0x40 MLOAD DUP1 SWAP5 DUP2 SWAP4 ADD PUSH2 0x16ED JUMP JUMPDEST SUB DUP3 PUSH2 0x1783 JUMP JUMPDEST PUSH1 0x40 MLOAD SWAP6 DUP7 SWAP6 DUP7 PUSH2 0x164C JUMP JUMPDEST CALLVALUE PUSH2 0x1D4 JUMPI PUSH1 0x40 CALLDATASIZE PUSH1 0x3 NOT ADD SLT PUSH2 0x1D4 JUMPI PUSH2 0x1B PUSH1 0x4 CALLDATALOAD PUSH2 0x12CD PUSH2 0x15F6 JUMP JUMPDEST SWAP1 DUP1 PUSH1 0x0 MSTORE PUSH1 0x0 PUSH1 0x20 MSTORE PUSH2 0x12E8 PUSH1 0x1 PUSH1 0x40 PUSH1 0x0 KECCAK256 ADD SLOAD PUSH2 0x1A33 JUMP JUMPDEST PUSH2 0x1C2A JUMP JUMPDEST CALLVALUE PUSH2 0x1D4 JUMPI PUSH1 0x20 CALLDATASIZE PUSH1 0x3 NOT ADD SLT PUSH2 0x1D4 JUMPI PUSH1 0x4 CALLDATALOAD PUSH2 0x1309 PUSH2 0x1935 JUMP JUMPDEST PUSH2 0x1311 PUSH2 0x1B6C JUMP JUMPDEST DUP1 SELFBALANCE LT PUSH2 0x136C JUMPI PUSH1 0x0 DUP1 DUP1 DUP1 SWAP4 CALLER GAS CALL PUSH2 0x1329 PUSH2 0x1859 JUMP JUMPDEST POP ISZERO PUSH2 0x1335 JUMPI PUSH1 0x1 DUP1 SSTORE STOP JUMPDEST PUSH1 0x40 MLOAD PUSH3 0x461BCD PUSH1 0xE5 SHL DUP2 MSTORE PUSH1 0x20 PUSH1 0x4 DUP3 ADD MSTORE PUSH1 0xF PUSH1 0x24 DUP3 ADD MSTORE PUSH15 0x15DA5D1A191C985DC819985A5B1959 PUSH1 0x8A SHL PUSH1 0x44 DUP3 ADD MSTORE PUSH1 0x64 SWAP1 REVERT JUMPDEST PUSH1 0x40 MLOAD PUSH3 0x461BCD PUSH1 0xE5 SHL DUP2 MSTORE PUSH1 0x20 PUSH1 0x4 DUP3 ADD MSTORE PUSH1 0x14 PUSH1 0x24 DUP3 ADD MSTORE PUSH20 0x496E73756666696369656E742062616C616E6365 PUSH1 0x60 SHL PUSH1 0x44 DUP3 ADD MSTORE PUSH1 0x64 SWAP1 REVERT JUMPDEST CALLVALUE PUSH2 0x1D4 JUMPI PUSH1 0x20 CALLDATASIZE PUSH1 0x3 NOT ADD SLT PUSH2 0x1D4 JUMPI PUSH1 0x4 CALLDATALOAD PUSH1 0x0 MSTORE PUSH1 0x0 PUSH1 0x20 MSTORE PUSH1 0x20 PUSH1 0x1 PUSH1 0x40 PUSH1 0x0 KECCAK256 ADD SLOAD PUSH1 0x40 MLOAD SWAP1 DUP2 MSTORE RETURN JUMPDEST CALLVALUE PUSH2 0x1D4 JUMPI PUSH1 0x20 DUP1 PUSH1 0x3 NOT CALLDATASIZE ADD SLT PUSH2 0x1D4 JUMPI PUSH1 0x4 CALLDATALOAD SWAP1 PUSH2 0x13F5 PUSH2 0x198D JUMP JUMPDEST PUSH2 0x1402 PUSH1 0x4 SLOAD DUP4 LT PUSH2 0x17A5 JUMP JUMPDEST DUP2 PUSH1 0x0 MSTORE PUSH1 0x8 DUP2 MSTORE PUSH2 0x141F PUSH1 0xFF PUSH1 0x3 PUSH1 0x40 PUSH1 0x0 KECCAK256 ADD SLOAD AND ISZERO PUSH2 0x17F1 JUMP JUMPDEST DUP2 PUSH1 0x0 MSTORE PUSH1 0x9 DUP2 MSTORE PUSH1 0x40 PUSH1 0x0 KECCAK256 CALLER PUSH1 0x0 MSTORE DUP2 MSTORE PUSH1 0xFF PUSH1 0x40 PUSH1 0x0 KECCAK256 SLOAD AND ISZERO PUSH2 0x14A7 JUMPI PUSH1 0x8 SWAP1 DUP3 PUSH1 0x0 MSTORE PUSH1 0x9 DUP2 MSTORE PUSH1 0x40 PUSH1 0x0 KECCAK256 CALLER PUSH1 0x0 MSTORE DUP2 MSTORE PUSH1 0x40 PUSH1 0x0 KECCAK256 PUSH1 0xFF NOT DUP2 SLOAD AND SWAP1 SSTORE DUP3 PUSH1 0x0 MSTORE MSTORE PUSH1 0x4 PUSH1 0x40 PUSH1 0x0 KECCAK256 ADD DUP1 SLOAD DUP1 ISZERO PUSH2 0xA95 JUMPI PUSH1 0x0 NOT ADD SWAP1 SSTORE CALLER SWAP1 PUSH32 0x4CD471041F6B9FF47536A54A3D3AB62D0FA9DD5E36C0418B294B1673ACB31881 PUSH1 0x0 DUP1 LOG3 STOP JUMPDEST PUSH1 0x64 SWAP1 PUSH1 0x40 MLOAD SWAP1 PUSH3 0x461BCD PUSH1 0xE5 SHL DUP3 MSTORE PUSH1 0x4 DUP3 ADD MSTORE PUSH1 0xD PUSH1 0x24 DUP3 ADD MSTORE PUSH13 0x139BDD0818DBDB999A5C9B5959 PUSH1 0x9A SHL PUSH1 0x44 DUP3 ADD MSTORE REVERT JUMPDEST CALLVALUE PUSH2 0x1D4 JUMPI PUSH1 0x0 CALLDATASIZE PUSH1 0x3 NOT ADD SLT PUSH2 0x1D4 JUMPI PUSH1 0x20 SELFBALANCE PUSH1 0x40 MLOAD SWAP1 DUP2 MSTORE RETURN JUMPDEST CALLVALUE PUSH2 0x1D4 JUMPI PUSH1 0x20 CALLDATASIZE PUSH1 0x3 NOT ADD SLT PUSH2 0x1D4 JUMPI PUSH2 0x1510 PUSH2 0x15E0 JUMP JUMPDEST PUSH2 0x1518 PUSH2 0x1935 JUMP JUMPDEST PUSH2 0x1521 DUP2 PUSH2 0x1A59 JUMP JUMPDEST POP PUSH1 0x1 PUSH1 0x1 PUSH1 0xA0 SHL SUB AND PUSH32 0x3525E22824A8A7DF2C9A6029941C824CF95B6447F1E13D5128FD3826D35AFE8B PUSH1 0x0 DUP1 LOG2 STOP JUMPDEST CALLVALUE PUSH2 0x1D4 JUMPI PUSH1 0x0 CALLDATASIZE PUSH1 0x3 NOT ADD SLT PUSH2 0x1D4 JUMPI PUSH1 0x20 PUSH1 0x40 MLOAD PUSH32 0xD8AA0F3194971A2A116679F7C2090F6939C8D4E01A2A8D7E41D55E5351469E63 DUP2 MSTORE RETURN JUMPDEST CALLVALUE PUSH2 0x1D4 JUMPI PUSH1 0x20 CALLDATASIZE PUSH1 0x3 NOT ADD SLT PUSH2 0x1D4 JUMPI PUSH1 0x4 CALLDATALOAD SWAP1 PUSH4 0xFFFFFFFF PUSH1 0xE0 SHL DUP3 AND DUP1 SWAP3 SUB PUSH2 0x1D4 JUMPI PUSH1 0x20 SWAP2 PUSH4 0x7965DB0B PUSH1 0xE0 SHL DUP2 EQ SWAP1 DUP2 ISZERO PUSH2 0x15CF JUMPI JUMPDEST POP ISZERO ISZERO DUP2 MSTORE RETURN JUMPDEST PUSH4 0x1FFC9A7 PUSH1 0xE0 SHL EQ SWAP1 POP DUP4 PUSH2 0x15C8 JUMP JUMPDEST PUSH1 0x4 CALLDATALOAD SWAP1 PUSH1 0x1 PUSH1 0x1 PUSH1 0xA0 SHL SUB DUP3 AND DUP3 SUB PUSH2 0x1D4 JUMPI JUMP JUMPDEST PUSH1 0x24 CALLDATALOAD SWAP1 PUSH1 0x1 PUSH1 0x1 PUSH1 0xA0 SHL SUB DUP3 AND DUP3 SUB PUSH2 0x1D4 JUMPI JUMP JUMPDEST SWAP2 SWAP1 DUP3 MLOAD SWAP3 DUP4 DUP3 MSTORE PUSH1 0x0 JUMPDEST DUP5 DUP2 LT PUSH2 0x1638 JUMPI POP POP DUP3 PUSH1 0x0 PUSH1 0x20 DUP1 SWAP5 SWAP6 DUP5 ADD ADD MSTORE PUSH1 0x1F DUP1 NOT SWAP2 ADD AND ADD ADD SWAP1 JUMP JUMPDEST PUSH1 0x20 DUP2 DUP4 ADD DUP2 ADD MLOAD DUP5 DUP4 ADD DUP3 ADD MSTORE ADD PUSH2 0x1617 JUMP JUMPDEST SWAP2 SWAP3 PUSH1 0x80 SWAP4 PUSH2 0x1679 SWAP3 SWAP8 SWAP7 SWAP6 SWAP8 PUSH1 0x1 DUP1 PUSH1 0xA0 SHL SUB AND DUP5 MSTORE PUSH1 0x20 DUP5 ADD MSTORE PUSH1 0xA0 PUSH1 0x40 DUP5 ADD MSTORE PUSH1 0xA0 DUP4 ADD SWAP1 PUSH2 0x160C JUMP JUMPDEST SWAP5 ISZERO ISZERO PUSH1 0x60 DUP3 ADD MSTORE ADD MSTORE JUMP JUMPDEST SWAP2 DUP2 PUSH1 0x1F DUP5 ADD SLT ISZERO PUSH2 0x1D4 JUMPI DUP3 CALLDATALOAD SWAP2 PUSH8 0xFFFFFFFFFFFFFFFF DUP4 GT PUSH2 0x1D4 JUMPI PUSH1 0x20 DUP4 DUP2 DUP7 ADD SWAP6 ADD ADD GT PUSH2 0x1D4 JUMPI JUMP JUMPDEST SWAP1 PUSH1 0x1 DUP3 DUP2 SHR SWAP3 AND DUP1 ISZERO PUSH2 0x16E3 JUMPI JUMPDEST PUSH1 0x20 DUP4 LT EQ PUSH2 0x16CD JUMPI JUMP JUMPDEST PUSH4 0x4E487B71 PUSH1 0xE0 SHL PUSH1 0x0 MSTORE PUSH1 0x22 PUSH1 0x4 MSTORE PUSH1 0x24 PUSH1 0x0 REVERT JUMPDEST SWAP2 PUSH1 0x7F AND SWAP2 PUSH2 0x16C2 JUMP JUMPDEST DUP1 SLOAD PUSH1 0x0 SWAP4 SWAP3 PUSH2 0x16FC DUP3 PUSH2 0x16B3 JUMP JUMPDEST SWAP2 DUP3 DUP3 MSTORE PUSH1 0x20 SWAP4 PUSH1 0x1 SWAP2 PUSH1 0x1 DUP2 AND SWAP1 DUP2 PUSH1 0x0 EQ PUSH2 0x1764 JUMPI POP PUSH1 0x1 EQ PUSH2 0x1723 JUMPI JUMPDEST POP POP POP POP POP JUMP JUMPDEST SWAP1 SWAP4 SWAP5 SWAP6 POP PUSH1 0x0 SWAP3 SWAP2 SWAP3 MSTORE DUP4 PUSH1 0x0 KECCAK256 SWAP3 DUP5 PUSH1 0x0 SWAP5 JUMPDEST DUP4 DUP7 LT PUSH2 0x1750 JUMPI POP POP POP POP ADD ADD SWAP1 CODESIZE DUP1 DUP1 DUP1 DUP1 PUSH2 0x171C JUMP JUMPDEST DUP1 SLOAD DUP6 DUP8 ADD DUP4 ADD MSTORE SWAP5 ADD SWAP4 DUP6 SWAP1 DUP3 ADD PUSH2 0x1738 JUMP JUMPDEST PUSH1 0xFF NOT AND DUP7 DUP6 ADD MSTORE POP POP POP SWAP1 ISZERO ISZERO PUSH1 0x5 SHL ADD ADD SWAP2 POP CODESIZE DUP1 DUP1 DUP1 DUP1 PUSH2 0x171C JUMP JUMPDEST SWAP1 PUSH1 0x1F DUP1 NOT SWAP2 ADD AND DUP2 ADD SWAP1 DUP2 LT PUSH8 0xFFFFFFFFFFFFFFFF DUP3 GT OR PUSH2 0x973 JUMPI PUSH1 0x40 MSTORE JUMP JUMPDEST ISZERO PUSH2 0x17AC JUMPI JUMP JUMPDEST PUSH1 0x40 MLOAD PUSH3 0x461BCD PUSH1 0xE5 SHL DUP2 MSTORE PUSH1 0x20 PUSH1 0x4 DUP3 ADD MSTORE PUSH1 0x1A PUSH1 0x24 DUP3 ADD MSTORE PUSH32 0x5472616E73616374696F6E20646F6573206E6F74206578697374000000000000 PUSH1 0x44 DUP3 ADD MSTORE PUSH1 0x64 SWAP1 REVERT JUMPDEST ISZERO PUSH2 0x17F8 JUMPI JUMP JUMPDEST PUSH1 0x40 MLOAD PUSH3 0x461BCD PUSH1 0xE5 SHL DUP2 MSTORE PUSH1 0x20 PUSH1 0x4 DUP3 ADD MSTORE PUSH1 0x1C PUSH1 0x24 DUP3 ADD MSTORE PUSH32 0x5472616E73616374696F6E20616C726561647920657865637574656400000000 PUSH1 0x44 DUP3 ADD MSTORE PUSH1 0x64 SWAP1 REVERT JUMPDEST PUSH8 0xFFFFFFFFFFFFFFFF DUP2 GT PUSH2 0x973 JUMPI PUSH1 0x1F ADD PUSH1 0x1F NOT AND PUSH1 0x20 ADD SWAP1 JUMP JUMPDEST RETURNDATASIZE ISZERO PUSH2 0x1884 JUMPI RETURNDATASIZE SWAP1 PUSH2 0x186A DUP3 PUSH2 0x183D JUMP JUMPDEST SWAP2 PUSH2 0x1878 PUSH1 0x40 MLOAD SWAP4 DUP5 PUSH2 0x1783 JUMP JUMPDEST DUP3 MSTORE RETURNDATASIZE PUSH1 0x0 PUSH1 0x20 DUP5 ADD RETURNDATACOPY JUMP JUMPDEST PUSH1 0x60 SWAP1 JUMP JUMPDEST SWAP2 SWAP1 DUP3 ADD DUP1 SWAP3 GT PUSH2 0xA95 JUMPI JUMP JUMPDEST ISZERO PUSH2 0x189D JUMPI JUMP JUMPDEST PUSH1 0x40 MLOAD PUSH3 0x461BCD PUSH1 0xE5 SHL DUP2 MSTORE PUSH1 0x20 PUSH1 0x4 DUP3 ADD MSTORE PUSH1 0x1D PUSH1 0x24 DUP3 ADD MSTORE PUSH32 0x496E73756666696369656E742074726561737572792062616C616E6365000000 PUSH1 0x44 DUP3 ADD MSTORE PUSH1 0x64 SWAP1 REVERT JUMPDEST ISZERO PUSH2 0x18E9 JUMPI JUMP JUMPDEST PUSH1 0x40 MLOAD PUSH3 0x461BCD PUSH1 0xE5 SHL DUP2 MSTORE PUSH1 0x20 PUSH1 0x4 DUP3 ADD MSTORE PUSH1 0x15 PUSH1 0x24 DUP3 ADD MSTORE PUSH21 0x13DC9858DB19481B9BDD0818DBDB999A59DD5C9959 PUSH1 0x5A SHL PUSH1 0x44 DUP3 ADD MSTORE PUSH1 0x64 SWAP1 REVERT JUMPDEST PUSH1 0x0 NOT DUP2 EQ PUSH2 0xA95 JUMPI PUSH1 0x1 ADD SWAP1 JUMP JUMPDEST CALLER PUSH1 0x0 SWAP1 DUP2 MSTORE PUSH32 0xAD3228B676F7D3CD4284A5443F17F1962B36E491B30A40B2405849E597BA5FB5 PUSH1 0x20 MSTORE PUSH1 0x40 DUP2 KECCAK256 SLOAD PUSH1 0xFF AND ISZERO PUSH2 0x196F JUMPI POP JUMP JUMPDEST PUSH1 0x44 SWAP1 PUSH1 0x40 MLOAD SWAP1 PUSH4 0xE2517D3F PUSH1 0xE0 SHL DUP3 MSTORE CALLER PUSH1 0x4 DUP4 ADD MSTORE PUSH1 0x24 DUP3 ADD MSTORE REVERT JUMPDEST CALLER PUSH1 0x0 SWAP1 DUP2 MSTORE PUSH32 0x59F08E7D7BA1C82EDDC57AFAE67F80DF851BAF38A099607A779825038C3CE5B PUSH1 0x20 MSTORE PUSH1 0x40 SWAP1 KECCAK256 SLOAD PUSH1 0x0 DUP1 MLOAD PUSH1 0x20 PUSH2 0x1CA4 DUP4 CODECOPY DUP2 MLOAD SWAP2 MSTORE SWAP1 PUSH1 0xFF AND ISZERO PUSH2 0x196F JUMPI POP JUMP JUMPDEST CALLER PUSH1 0x0 SWAP1 DUP2 MSTORE PUSH32 0xDAE2AA361DFD1CA020A396615627D436107C35EFF9FE7738A3512819782D7069 PUSH1 0x20 MSTORE PUSH1 0x40 SWAP1 KECCAK256 SLOAD PUSH32 0xD8AA0F3194971A2A116679F7C2090F6939C8D4E01A2A8D7E41D55E5351469E63 SWAP1 PUSH1 0xFF AND ISZERO PUSH2 0x196F JUMPI POP JUMP JUMPDEST DUP1 PUSH1 0x0 MSTORE PUSH1 0x0 PUSH1 0x20 MSTORE PUSH1 0x40 PUSH1 0x0 KECCAK256 CALLER PUSH1 0x0 MSTORE PUSH1 0x20 MSTORE PUSH1 0xFF PUSH1 0x40 PUSH1 0x0 KECCAK256 SLOAD AND ISZERO PUSH2 0x196F JUMPI POP JUMP JUMPDEST PUSH1 0x1 PUSH1 0x1 PUSH1 0xA0 SHL SUB AND PUSH1 0x0 DUP2 DUP2 MSTORE PUSH32 0x59F08E7D7BA1C82EDDC57AFAE67F80DF851BAF38A099607A779825038C3CE5B PUSH1 0x20 MSTORE PUSH1 0x40 DUP2 KECCAK256 SLOAD SWAP1 SWAP2 SWAP1 PUSH1 0x0 DUP1 MLOAD PUSH1 0x20 PUSH2 0x1CA4 DUP4 CODECOPY DUP2 MLOAD SWAP2 MSTORE SWAP1 PUSH1 0xFF AND ISZERO PUSH2 0x1AF2 JUMPI DUP1 DUP4 MSTORE DUP3 PUSH1 0x20 MSTORE PUSH1 0x40 DUP4 KECCAK256 DUP3 DUP5 MSTORE PUSH1 0x20 MSTORE PUSH1 0x40 DUP4 KECCAK256 PUSH1 0xFF NOT DUP2 SLOAD AND SWAP1 SSTORE PUSH32 0xF6391F5C32D9C69D2A47EA670B442974B53935D1EDC7FD64EB21E047A839171B CALLER SWAP4 DUP1 LOG4 PUSH1 0x1 SWAP1 JUMP JUMPDEST POP POP SWAP1 JUMP JUMPDEST SWAP1 PUSH1 0x0 SWAP2 DUP1 DUP4 MSTORE DUP3 PUSH1 0x20 MSTORE PUSH1 0x40 DUP4 KECCAK256 SWAP2 PUSH1 0x1 DUP1 PUSH1 0xA0 SHL SUB AND SWAP2 DUP3 DUP5 MSTORE PUSH1 0x20 MSTORE PUSH1 0xFF PUSH1 0x40 DUP5 KECCAK256 SLOAD AND PUSH1 0x0 EQ PUSH2 0x1AF2 JUMPI DUP1 DUP4 MSTORE DUP3 PUSH1 0x20 MSTORE PUSH1 0x40 DUP4 KECCAK256 DUP3 DUP5 MSTORE PUSH1 0x20 MSTORE PUSH1 0x40 DUP4 KECCAK256 PUSH1 0xFF NOT DUP2 SLOAD AND SWAP1 SSTORE PUSH32 0xF6391F5C32D9C69D2A47EA670B442974B53935D1EDC7FD64EB21E047A839171B CALLER SWAP4 DUP1 LOG4 PUSH1 0x1 SWAP1 JUMP JUMPDEST PUSH1 0x2 PUSH1 0x1 SLOAD EQ PUSH2 0x1B7D JUMPI PUSH1 0x2 PUSH1 0x1 SSTORE JUMP JUMPDEST PUSH1 0x40 MLOAD PUSH4 0x3EE5AEB5 PUSH1 0xE0 SHL DUP2 MSTORE PUSH1 0x4 SWAP1 REVERT JUMPDEST PUSH1 0x1 PUSH1 0x1 PUSH1 0xA0 SHL SUB AND PUSH1 0x0 DUP2 DUP2 MSTORE PUSH32 0x59F08E7D7BA1C82EDDC57AFAE67F80DF851BAF38A099607A779825038C3CE5B PUSH1 0x20 MSTORE PUSH1 0x40 DUP2 KECCAK256 SLOAD SWAP1 SWAP2 SWAP1 PUSH1 0x0 DUP1 MLOAD PUSH1 0x20 PUSH2 0x1CA4 DUP4 CODECOPY DUP2 MLOAD SWAP2 MSTORE SWAP1 PUSH1 0xFF AND PUSH2 0x1AF2 JUMPI DUP1 DUP4 MSTORE DUP3 PUSH1 0x20 MSTORE PUSH1 0x40 DUP4 KECCAK256 DUP3 DUP5 MSTORE PUSH1 0x20 MSTORE PUSH1 0x40 DUP4 KECCAK256 PUSH1 0x1 PUSH1 0xFF NOT DUP3 SLOAD AND OR SWAP1 SSTORE PUSH32 0x2F8788117E7EFF1D82E926EC794901D17C78024A50270940304540A733656F0D CALLER SWAP4 DUP1 LOG4 PUSH1 0x1 SWAP1 JUMP JUMPDEST SWAP1 PUSH1 0x0 SWAP2 DUP1 DUP4 MSTORE DUP3 PUSH1 0x20 MSTORE PUSH1 0x40 DUP4 KECCAK256 SWAP2 PUSH1 0x1 DUP1 PUSH1 0xA0 SHL SUB AND SWAP2 DUP3 DUP5 MSTORE PUSH1 0x20 MSTORE PUSH1 0xFF PUSH1 0x40 DUP5 KECCAK256 SLOAD AND ISZERO PUSH1 0x0 EQ PUSH2 0x1AF2 JUMPI DUP1 DUP4 MSTORE DUP3 PUSH1 0x20 MSTORE PUSH1 0x40 DUP4 KECCAK256 DUP3 DUP5 MSTORE PUSH1 0x20 MSTORE PUSH1 0x40 DUP4 KECCAK256 PUSH1 0x1 PUSH1 0xFF NOT DUP3 SLOAD AND OR SWAP1 SSTORE PUSH32 0x2F8788117E7EFF1D82E926EC794901D17C78024A50270940304540A733656F0D CALLER SWAP4 DUP1 LOG4 PUSH1 0x1 SWAP1 JUMP INVALID 0xE2 DELEGATECALL 0xEA 0xAE BLOBBASEFEE SWAP8 MLOAD 0xE8 GAS RETURNDATACOPY BLOBBASEFEE PUSH28 0x9587827A877F29914755229B07A7B2DA98285F70A264697066735822 SLT KECCAK256 0xC6 MSTORE DELEGATECALL 0xD3 SWAP8 0x25 PUSH9 0xF4DFA8F5C38D92DCB 0xB9 SMOD 0xE3 PUSH27 0x860C4A4FA46BD3313283E1E864736F6C634300081800332F878811 PUSH31 0x7EFF1D82E926EC794901D17C78024A50270940304540A733656F0D00000000 "},"methodIdentifiers":{"DEFAULT_ADMIN_ROLE()":"a217fddf","EXECUTOR_ROLE()":"07bd0265","SIGNER_ROLE()":"a1ebf35d","addSigner(address)":"eb12d61e","chainlinkOracle()":"ef06e72c","confirmTransaction(uint256)":"c01a8c84","confirmations(uint256,address)":"3411c81c","execute(address,uint256,bytes,uint256)":"74420f4c","executeTransaction(uint256)":"ee22610b","fundReimbursementPool()":"6ab3818e","getBalance()":"12065fe0","getReimbursementPoolInfo()":"c96f85cf","getRoleAdmin(bytes32)":"248a9ca3","getTransaction(uint256)":"33ea3dc8","grantRole(bytes32,address)":"2f2ff15d","hasRole(bytes32,address)":"91d14854","isConfirmed(uint256,address)":"80f59a65","maxReimbursementPerTx()":"4d247889","reimburseRelayer(address,uint256)":"c56c9ff4","relayerReimbursementPool()":"ef66d684","relayerReimbursements(address)":"7aab1381","removeSigner(address)":"0e316ab7","renounceRole(bytes32,address)":"36568abe","requiredConfirmations()":"82e717f7","revokeConfirmation(uint256)":"20ea8d86","revokeRole(bytes32,address)":"d547741f","setChainlinkOracle(address)":"7a9b0412","setMaxReimbursement(uint256)":"a5574d52","setRequiredConfirmations(uint256)":"7b7c343d","submitTransaction(address,uint256,bytes)":"c6427474","supportsInterface(bytes4)":"01ffc9a7","transactionCount()":"b77bf600","transactions(uint256)":"9ace38c2","verifyAndRecordReserves(uint256)":"d9882334","verifyReserves(uint256)":"af522b1c","withdraw(uint256)":"2e1a7d4d"}}}}}