{"contracts/Governance.sol":{"Governance":{"abi":[{"inputs":[{"internalType":"address","name":"_propertyToken","type":"address"}],"stateMutability":"nonpayable","type":"constructor"},{"inputs":[],"name":"AccessControlBadConfirmation","type":"error"},{"inputs":[{"internalType":"address","name":"account","type":"address"},{"internalType":"bytes32","name":"neededRole","type":"bytes32"}],"name":"AccessControlUnauthorizedAccount","type":"error"},{"inputs":[],"name":"ECDSAInvalidSignature","type":"error"},{"inputs":[{"internalType":"uint256","name":"length","type":"uint256"}],"name":"ECDSAInvalidSignatureLength","type":"error"},{"inputs":[{"internalType":"bytes32","name":"s","type":"bytes32"}],"name":"ECDSAInvalidSignatureS","type":"error"},{"inputs":[],"name":"ReentrancyGuardReentrantCall","type":"error"},{"anonymous":false,"inputs":[{"indexed":false,"internalType":"uint256[4]","name":"demandBars","type":"uint256[4]"}],"name":"DemandSnapshotTaken","type":"event"},{"anonymous":false,"inputs":[{"indexed":true,"internalType":"enum Governance.ProposalType","name":"proposalType","type":"uint8"},{"indexed":false,"internalType":"uint256","name":"demandWeight","type":"uint256"},{"indexed":false,"internalType":"uint256","name":"demandBps","type":"uint256"}],"name":"DemandUpdated","type":"event"},{"anonymous":false,"inputs":[{"indexed":true,"internalType":"uint256","name":"proposalId","type":"uint256"},{"indexed":true,"internalType":"address","name":"voter","type":"address"},{"indexed":false,"internalType":"uint8","name":"support","type":"uint8"},{"indexed":false,"internalType":"uint256","name":"weight","type":"uint256"},{"indexed":false,"internalType":"address","name":"relayer","type":"address"}],"name":"OffChainVoteCast","type":"event"},{"anonymous":false,"inputs":[{"indexed":true,"internalType":"uint256","name":"pollId","type":"uint256"},{"indexed":true,"internalType":"uint256","name":"proposalId","type":"uint256"}],"name":"PollConvertedToProposal","type":"event"},{"anonymous":false,"inputs":[{"indexed":true,"internalType":"uint256","name":"pollId","type":"uint256"},{"indexed":true,"internalType":"uint256","name":"propertyId","type":"uint256"},{"indexed":false,"internalType":"address","name":"creator","type":"address"},{"indexed":false,"internalType":"string","name":"question","type":"string"}],"name":"PollCreated","type":"event"},{"anonymous":false,"inputs":[{"indexed":true,"internalType":"uint256","name":"pollId","type":"uint256"},{"indexed":false,"internalType":"uint256","name":"votesFor","type":"uint256"},{"indexed":false,"internalType":"uint256","name":"votesAgainst","type":"uint256"}],"name":"PollEnded","type":"event"},{"anonymous":false,"inputs":[{"indexed":true,"internalType":"uint256","name":"pollId","type":"uint256"},{"indexed":true,"internalType":"address","name":"voter","type":"address"},{"indexed":false,"internalType":"bool","name":"support","type":"bool"}],"name":"PollVoteCast","type":"event"},{"anonymous":false,"inputs":[{"indexed":true,"internalType":"uint256","name":"proposalId","type":"uint256"}],"name":"ProposalCancelled","type":"event"},{"anonymous":false,"inputs":[{"indexed":true,"internalType":"uint256","name":"proposalId","type":"uint256"},{"indexed":true,"internalType":"uint256","name":"propertyId","type":"uint256"},{"indexed":false,"internalType":"address","name":"proposer","type":"address"},{"indexed":false,"internalType":"enum Governance.ProposalType","name":"proposalType","type":"uint8"},{"indexed":false,"internalType":"string","name":"title","type":"string"}],"name":"ProposalCreated","type":"event"},{"anonymous":false,"inputs":[{"indexed":true,"internalType":"uint256","name":"proposalId","type":"uint256"}],"name":"ProposalExecuted","type":"event"},{"anonymous":false,"inputs":[{"indexed":true,"internalType":"bytes32","name":"role","type":"bytes32"},{"indexed":true,"internalType":"bytes32","name":"previousAdminRole","type":"bytes32"},{"indexed":true,"internalType":"bytes32","name":"newAdminRole","type":"bytes32"}],"name":"RoleAdminChanged","type":"event"},{"anonymous":false,"inputs":[{"indexed":true,"internalType":"bytes32","name":"role","type":"bytes32"},{"indexed":true,"internalType":"address","name":"account","type":"address"},{"indexed":true,"internalType":"address","name":"sender","type":"address"}],"name":"RoleGranted","type":"event"},{"anonymous":false,"inputs":[{"indexed":true,"internalType":"bytes32","name":"role","type":"bytes32"},{"indexed":true,"internalType":"address","name":"account","type":"address"},{"indexed":true,"internalType":"address","name":"sender","type":"address"}],"name":"RoleRevoked","type":"event"},{"anonymous":false,"inputs":[{"indexed":true,"internalType":"uint256","name":"proposalId","type":"uint256"},{"indexed":true,"internalType":"address","name":"voter","type":"address"},{"indexed":false,"internalType":"uint8","name":"support","type":"uint8"},{"indexed":false,"internalType":"uint256","name":"weight","type":"uint256"}],"name":"VoteCast","type":"event"},{"anonymous":false,"inputs":[{"indexed":false,"internalType":"uint256","name":"newBonus","type":"uint256"}],"name":"VoteToEarnBonusUpdated","type":"event"},{"anonymous":false,"inputs":[{"indexed":false,"internalType":"uint256","name":"newPeriod","type":"uint256"}],"name":"VotingPeriodUpdated","type":"event"},{"inputs":[],"name":"DEFAULT_ADMIN_ROLE","outputs":[{"internalType":"bytes32","name":"","type":"bytes32"}],"stateMutability":"view","type":"function"},{"inputs":[],"name":"DEMAND_QUORUM_BOOST","outputs":[{"internalType":"uint256","name":"","type":"uint256"}],"stateMutability":"view","type":"function"},{"inputs":[],"name":"DEMAND_QUORUM_BOOST_THRESHOLD","outputs":[{"internalType":"uint256","name":"","type":"uint256"}],"stateMutability":"view","type":"function"},{"inputs":[],"name":"DOMAIN_SEPARATOR","outputs":[{"internalType":"bytes32","name":"","type":"bytes32"}],"stateMutability":"view","type":"function"},{"inputs":[],"name":"EXECUTOR_ROLE","outputs":[{"internalType":"bytes32","name":"","type":"bytes32"}],"stateMutability":"view","type":"function"},{"inputs":[],"name":"POLL_PROPOSAL_THRESHOLD","outputs":[{"internalType":"uint256","name":"","type":"uint256"}],"stateMutability":"view","type":"function"},{"inputs":[],"name":"POLL_QUORUM_BONUS","outputs":[{"internalType":"uint256","name":"","type":"uint256"}],"stateMutability":"view","type":"function"},{"inputs":[],"name":"PROPOSER_ROLE","outputs":[{"internalType":"bytes32","name":"","type":"bytes32"}],"stateMutability":"view","type":"function"},{"inputs":[],"name":"QUORUM_EMERGENCY","outputs":[{"internalType":"uint256","name":"","type":"uint256"}],"stateMutability":"view","type":"function"},{"inputs":[],"name":"QUORUM_PARAMETER","outputs":[{"internalType":"uint256","name":"","type":"uint256"}],"stateMutability":"view","type":"function"},{"inputs":[],"name":"QUORUM_PROPERTY","outputs":[{"internalType":"uint256","name":"","type":"uint256"}],"stateMutability":"view","type":"function"},{"inputs":[],"name":"QUORUM_TREASURY","outputs":[{"internalType":"uint256","name":"","type":"uint256"}],"stateMutability":"view","type":"function"},{"inputs":[],"name":"RELAYER_ROLE","outputs":[{"internalType":"bytes32","name":"","type":"bytes32"}],"stateMutability":"view","type":"function"},{"inputs":[],"name":"VOTE_TYPEHASH","outputs":[{"internalType":"bytes32","name":"","type":"bytes32"}],"stateMutability":"view","type":"function"},{"inputs":[{"internalType":"uint256","name":"proposalId","type":"uint256"}],"name":"cancelProposal","outputs":[],"stateMutability":"nonpayable","type":"function"},{"inputs":[{"internalType":"uint256","name":"proposalId","type":"uint256"},{"internalType":"uint8","name":"support","type":"uint8"}],"name":"castVote","outputs":[],"stateMutability":"nonpayable","type":"function"},{"inputs":[{"internalType":"uint256","name":"proposalId","type":"uint256"},{"internalType":"uint8","name":"support","type":"uint8"},{"internalType":"address","name":"voter","type":"address"},{"internalType":"uint256","name":"deadline","type":"uint256"},{"internalType":"uint8","name":"v","type":"uint8"},{"internalType":"bytes32","name":"r","type":"bytes32"},{"internalType":"bytes32","name":"s","type":"bytes32"}],"name":"castVoteBySignature","outputs":[],"stateMutability":"nonpayable","type":"function"},{"inputs":[{"internalType":"uint256","name":"propertyId","type":"uint256"},{"internalType":"string","name":"question","type":"string"},{"internalType":"string","name":"description","type":"string"},{"internalType":"string","name":"ipfsHash","type":"string"},{"internalType":"uint256","name":"duration","type":"uint256"}],"name":"createPoll","outputs":[{"internalType":"uint256","name":"","type":"uint256"}],"stateMutability":"nonpayable","type":"function"},{"inputs":[{"internalType":"uint256","name":"propertyId","type":"uint256"},{"internalType":"enum Governance.ProposalType","name":"proposalType","type":"uint8"},{"internalType":"string","name":"title","type":"string"},{"internalType":"string","name":"description","type":"string"},{"internalType":"string","name":"ipfsHash","type":"string"},{"internalType":"bytes","name":"executionData","type":"bytes"}],"name":"createProposal","outputs":[{"internalType":"uint256","name":"","type":"uint256"}],"stateMutability":"nonpayable","type":"function"},{"inputs":[{"internalType":"uint256","name":"pollId","type":"uint256"},{"internalType":"enum Governance.ProposalType","name":"proposalType","type":"uint8"},{"internalType":"bytes","name":"executionData","type":"bytes"}],"name":"createProposalFromPoll","outputs":[{"internalType":"uint256","name":"","type":"uint256"}],"stateMutability":"nonpayable","type":"function"},{"inputs":[{"internalType":"enum Governance.ProposalType","name":"","type":"uint8"}],"name":"demandSnapshots","outputs":[{"internalType":"uint256","name":"","type":"uint256"}],"stateMutability":"view","type":"function"},{"inputs":[{"internalType":"uint256","name":"pollId","type":"uint256"}],"name":"endPoll","outputs":[],"stateMutability":"nonpayable","type":"function"},{"inputs":[{"internalType":"uint256","name":"proposalId","type":"uint256"}],"name":"executeProposal","outputs":[],"stateMutability":"nonpayable","type":"function"},{"inputs":[{"internalType":"uint256","name":"proposalId","type":"uint256"}],"name":"finalizeProposal","outputs":[],"stateMutability":"nonpayable","type":"function"},{"inputs":[{"internalType":"uint256","name":"propertyId","type":"uint256"}],"name":"getActivePolls","outputs":[{"components":[{"internalType":"uint256","name":"id","type":"uint256"},{"internalType":"uint256","name":"propertyId","type":"uint256"},{"internalType":"address","name":"creator","type":"address"},{"internalType":"string","name":"question","type":"string"},{"internalType":"string","name":"description","type":"string"},{"internalType":"string","name":"ipfsHash","type":"string"},{"internalType":"uint256","name":"votesFor","type":"uint256"},{"internalType":"uint256","name":"votesAgainst","type":"uint256"},{"internalType":"uint256","name":"startTime","type":"uint256"},{"internalType":"uint256","name":"endTime","type":"uint256"},{"internalType":"enum Governance.PollStatus","name":"status","type":"uint8"},{"internalType":"uint256","name":"linkedProposalId","type":"uint256"}],"internalType":"struct Governance.Poll[]","name":"","type":"tuple[]"}],"stateMutability":"view","type":"function"},{"inputs":[{"internalType":"uint256","name":"propertyId","type":"uint256"}],"name":"getActiveProposals","outputs":[{"components":[{"internalType":"uint256","name":"id","type":"uint256"},{"internalType":"uint256","name":"propertyId","type":"uint256"},{"internalType":"address","name":"proposer","type":"address"},{"internalType":"enum Governance.ProposalType","name":"proposalType","type":"uint8"},{"internalType":"string","name":"title","type":"string"},{"internalType":"string","name":"description","type":"string"},{"internalType":"string","name":"ipfsHash","type":"string"},{"internalType":"uint256","name":"votesFor","type":"uint256"},{"internalType":"uint256","name":"votesAgainst","type":"uint256"},{"internalType":"uint256","name":"votesAbstain","type":"uint256"},{"internalType":"uint256","name":"startTime","type":"uint256"},{"internalType":"uint256","name":"endTime","type":"uint256"},{"internalType":"uint256","name":"quorumRequired","type":"uint256"},{"internalType":"enum Governance.ProposalStatus","name":"status","type":"uint8"},{"internalType":"bytes","name":"executionData","type":"bytes"}],"internalType":"struct Governance.Proposal[]","name":"","type":"tuple[]"}],"stateMutability":"view","type":"function"},{"inputs":[],"name":"getCommunityHealthScore","outputs":[{"internalType":"uint256","name":"healthScore","type":"uint256"}],"stateMutability":"view","type":"function"},{"inputs":[],"name":"getDemandBars","outputs":[{"internalType":"uint256[4]","name":"bars","type":"uint256[4]"}],"stateMutability":"view","type":"function"},{"inputs":[{"internalType":"enum Governance.ProposalType","name":"proposalType","type":"uint8"}],"name":"getDemandForType","outputs":[{"internalType":"uint256","name":"weight","type":"uint256"},{"internalType":"uint256","name":"bps","type":"uint256"}],"stateMutability":"view","type":"function"},{"inputs":[{"internalType":"enum Governance.ProposalType","name":"proposalType","type":"uint8"}],"name":"getEffectiveQuorum","outputs":[{"internalType":"uint256","name":"","type":"uint256"}],"stateMutability":"view","type":"function"},{"inputs":[{"internalType":"address","name":"voter","type":"address"}],"name":"getNonce","outputs":[{"internalType":"uint256","name":"","type":"uint256"}],"stateMutability":"view","type":"function"},{"inputs":[{"internalType":"uint256","name":"pollId","type":"uint256"}],"name":"getPoll","outputs":[{"components":[{"internalType":"uint256","name":"id","type":"uint256"},{"internalType":"uint256","name":"propertyId","type":"uint256"},{"internalType":"address","name":"creator","type":"address"},{"internalType":"string","name":"question","type":"string"},{"internalType":"string","name":"description","type":"string"},{"internalType":"string","name":"ipfsHash","type":"string"},{"internalType":"uint256","name":"votesFor","type":"uint256"},{"internalType":"uint256","name":"votesAgainst","type":"uint256"},{"internalType":"uint256","name":"startTime","type":"uint256"},{"internalType":"uint256","name":"endTime","type":"uint256"},{"internalType":"enum Governance.PollStatus","name":"status","type":"uint8"},{"internalType":"uint256","name":"linkedProposalId","type":"uint256"}],"internalType":"struct Governance.Poll","name":"","type":"tuple"}],"stateMutability":"view","type":"function"},{"inputs":[{"internalType":"uint256","name":"pollId","type":"uint256"}],"name":"getPollSupport","outputs":[{"internalType":"uint256","name":"","type":"uint256"}],"stateMutability":"view","type":"function"},{"inputs":[{"internalType":"uint256","name":"proposalId","type":"uint256"}],"name":"getProposal","outputs":[{"components":[{"internalType":"uint256","name":"id","type":"uint256"},{"internalType":"uint256","name":"propertyId","type":"uint256"},{"internalType":"address","name":"proposer","type":"address"},{"internalType":"enum Governance.ProposalType","name":"proposalType","type":"uint8"},{"internalType":"string","name":"title","type":"string"},{"internalType":"string","name":"description","type":"string"},{"internalType":"string","name":"ipfsHash","type":"string"},{"internalType":"uint256","name":"votesFor","type":"uint256"},{"internalType":"uint256","name":"votesAgainst","type":"uint256"},{"internalType":"uint256","name":"votesAbstain","type":"uint256"},{"internalType":"uint256","name":"startTime","type":"uint256"},{"internalType":"uint256","name":"endTime","type":"uint256"},{"internalType":"uint256","name":"quorumRequired","type":"uint256"},{"internalType":"enum Governance.ProposalStatus","name":"status","type":"uint8"},{"internalType":"bytes","name":"executionData","type":"bytes"}],"internalType":"struct Governance.Proposal","name":"","type":"tuple"}],"stateMutability":"view","type":"function"},{"inputs":[{"internalType":"bytes32","name":"role","type":"bytes32"}],"name":"getRoleAdmin","outputs":[{"internalType":"bytes32","name":"","type":"bytes32"}],"stateMutability":"view","type":"function"},{"inputs":[{"internalType":"uint256","name":"proposalId","type":"uint256"},{"internalType":"address","name":"voter","type":"address"}],"name":"getVote","outputs":[{"components":[{"internalType":"bool","name":"hasVoted","type":"bool"},{"internalType":"uint8","name":"support","type":"uint8"},{"internalType":"uint256","name":"weight","type":"uint256"}],"internalType":"struct Governance.Vote","name":"","type":"tuple"}],"stateMutability":"view","type":"function"},{"inputs":[{"internalType":"address","name":"voter","type":"address"}],"name":"getVoteToEarnBonus","outputs":[{"internalType":"uint256","name":"","type":"uint256"}],"stateMutability":"view","type":"function"},{"inputs":[{"internalType":"bytes32","name":"role","type":"bytes32"},{"internalType":"address","name":"account","type":"address"}],"name":"grantRole","outputs":[],"stateMutability":"nonpayable","type":"function"},{"inputs":[{"internalType":"bytes32","name":"role","type":"bytes32"},{"internalType":"address","name":"account","type":"address"}],"name":"hasRole","outputs":[{"internalType":"bool","name":"","type":"bool"}],"stateMutability":"view","type":"function"},{"inputs":[{"internalType":"address","name":"","type":"address"}],"name":"lastVoteTimestamp","outputs":[{"internalType":"uint256","name":"","type":"uint256"}],"stateMutability":"view","type":"function"},{"inputs":[{"internalType":"address","name":"","type":"address"}],"name":"nonces","outputs":[{"internalType":"uint256","name":"","type":"uint256"}],"stateMutability":"view","type":"function"},{"inputs":[],"name":"pollCount","outputs":[{"internalType":"uint256","name":"","type":"uint256"}],"stateMutability":"view","type":"function"},{"inputs":[{"internalType":"uint256","name":"","type":"uint256"}],"name":"pollParticipants","outputs":[{"internalType":"uint256","name":"","type":"uint256"}],"stateMutability":"view","type":"function"},{"inputs":[{"internalType":"uint256","name":"","type":"uint256"},{"internalType":"address","name":"","type":"address"}],"name":"pollVotes","outputs":[{"internalType":"bool","name":"hasVoted","type":"bool"},{"internalType":"bool","name":"support","type":"bool"}],"stateMutability":"view","type":"function"},{"inputs":[{"internalType":"uint256","name":"","type":"uint256"}],"name":"polls","outputs":[{"internalType":"uint256","name":"id","type":"uint256"},{"internalType":"uint256","name":"propertyId","type":"uint256"},{"internalType":"address","name":"creator","type":"address"},{"internalType":"string","name":"question","type":"string"},{"internalType":"string","name":"description","type":"string"},{"internalType":"string","name":"ipfsHash","type":"string"},{"internalType":"uint256","name":"votesFor","type":"uint256"},{"internalType":"uint256","name":"votesAgainst","type":"uint256"},{"internalType":"uint256","name":"startTime","type":"uint256"},{"internalType":"uint256","name":"endTime","type":"uint256"},{"internalType":"enum Governance.PollStatus","name":"status","type":"uint8"},{"internalType":"uint256","name":"linkedProposalId","type":"uint256"}],"stateMutability":"view","type":"function"},{"inputs":[],"name":"propertyToken","outputs":[{"internalType":"contract IPropertyToken","name":"","type":"address"}],"stateMutability":"view","type":"function"},{"inputs":[],"name":"proposalCount","outputs":[{"internalType":"uint256","name":"","type":"uint256"}],"stateMutability":"view","type":"function"},{"inputs":[{"internalType":"uint256","name":"","type":"uint256"}],"name":"proposals","outputs":[{"internalType":"uint256","name":"id","type":"uint256"},{"internalType":"uint256","name":"propertyId","type":"uint256"},{"internalType":"address","name":"proposer","type":"address"},{"internalType":"enum Governance.ProposalType","name":"proposalType","type":"uint8"},{"internalType":"string","name":"title","type":"string"},{"internalType":"string","name":"description","type":"string"},{"internalType":"string","name":"ipfsHash","type":"string"},{"internalType":"uint256","name":"votesFor","type":"uint256"},{"internalType":"uint256","name":"votesAgainst","type":"uint256"},{"internalType":"uint256","name":"votesAbstain","type":"uint256"},{"internalType":"uint256","name":"startTime","type":"uint256"},{"internalType":"uint256","name":"endTime","type":"uint256"},{"internalType":"uint256","name":"quorumRequired","type":"uint256"},{"internalType":"enum Governance.ProposalStatus","name":"status","type":"uint8"},{"internalType":"bytes","name":"executionData","type":"bytes"}],"stateMutability":"view","type":"function"},{"inputs":[{"internalType":"bytes32","name":"role","type":"bytes32"},{"internalType":"address","name":"callerConfirmation","type":"address"}],"name":"renounceRole","outputs":[],"stateMutability":"nonpayable","type":"function"},{"inputs":[{"internalType":"bytes32","name":"role","type":"bytes32"},{"internalType":"address","name":"account","type":"address"}],"name":"revokeRole","outputs":[],"stateMutability":"nonpayable","type":"function"},{"inputs":[{"internalType":"uint256","name":"newBonus","type":"uint256"}],"name":"setVoteToEarnBonus","outputs":[],"stateMutability":"nonpayable","type":"function"},{"inputs":[{"internalType":"uint256","name":"newPeriod","type":"uint256"}],"name":"setVotingPeriod","outputs":[],"stateMutability":"nonpayable","type":"function"},{"inputs":[{"internalType":"bytes4","name":"interfaceId","type":"bytes4"}],"name":"supportsInterface","outputs":[{"internalType":"bool","name":"","type":"bool"}],"stateMutability":"view","type":"function"},{"inputs":[],"name":"takeDemandSnapshot","outputs":[],"stateMutability":"nonpayable","type":"function"},{"inputs":[],"name":"totalDemandWeight","outputs":[{"internalType":"uint256","name":"","type":"uint256"}],"stateMutability":"view","type":"function"},{"inputs":[{"internalType":"uint256","name":"","type":"uint256"}],"name":"totalVotingPower","outputs":[{"internalType":"uint256","name":"","type":"uint256"}],"stateMutability":"view","type":"function"},{"inputs":[{"internalType":"enum Governance.ProposalType","name":"","type":"uint8"}],"name":"typeDemandWeights","outputs":[{"internalType":"uint256","name":"","type":"uint256"}],"stateMutability":"view","type":"function"},{"inputs":[{"internalType":"uint256","name":"pollId","type":"uint256"},{"internalType":"bool","name":"support","type":"bool"}],"name":"votePoll","outputs":[],"stateMutability":"nonpayable","type":"function"},{"inputs":[],"name":"voteToEarnBonus","outputs":[{"internalType":"uint256","name":"","type":"uint256"}],"stateMutability":"view","type":"function"},{"inputs":[{"internalType":"address","name":"","type":"address"}],"name":"voterParticipationCount","outputs":[{"internalType":"uint256","name":"","type":"uint256"}],"stateMutability":"view","type":"function"},{"inputs":[{"internalType":"uint256","name":"","type":"uint256"},{"internalType":"address","name":"","type":"address"}],"name":"votes","outputs":[{"internalType":"bool","name":"hasVoted","type":"bool"},{"internalType":"uint8","name":"support","type":"uint8"},{"internalType":"uint256","name":"weight","type":"uint256"}],"stateMutability":"view","type":"function"},{"inputs":[],"name":"votingPeriod","outputs":[{"internalType":"uint256","name":"","type":"uint256"}],"stateMutability":"view","type":"function"}],"evm":{"bytecode":{"linkReferences":{},"object":"60a03462000199576001600160401b0390601f62004a1938819003918201601f1916830192919084841183851017620001835781602092849260409687528339810103126200019957516001600160a01b0381169081900362000199576001805562093a806004556032600555600280546001600160a01b0319169190911790556200008b33620001ba565b5062000097336200023a565b50620000a333620002dc565b50620000af3362000379565b50601460208251620000c1816200019e565b828152017f52657669746148756220476f7665726e616e636500000000000000000000000081522090600160208251620000fb816200019e565b82815201603160f81b8152209080519160208301937f8b73c3c69bb8fe3d512ecc4cf759cc79239f7b179b0ffacaa9a75d522b39400f85528284015260608301524660808301523060a083015260a0825260c08201938285109085111762000183578390525190206080526145e290816200041782396080518181816125b00152612d7a0152f35b634e487b7160e01b600052604160045260246000fd5b600080fd5b604081019081106001600160401b038211176200018357604052565b6001600160a01b031660008181527fad3228b676f7d3cd4284a5443f17f1962b36e491b30a40b2405849e597ba5fb5602052604081205490919060ff166200023657818052816020526040822081835260205260408220600160ff198254161790553391600080516020620049f98339815191528180a4600190565b5090565b6001600160a01b031660008181527f3412d5605ac6cd444957cedb533e5dacad6378b4bc819ebe3652188a665066d560205260408120549091907fb09aa5aeb3702cfd50b6b62bc4532604938f21248a27a1d5ca736082b6819cc19060ff16620002d757808352826020526040832082845260205260408320600160ff19825416179055600080516020620049f9833981519152339380a4600190565b505090565b6001600160a01b031660008181527fdae2aa361dfd1ca020a396615627d436107c35eff9fe7738a3512819782d706960205260408120549091907fd8aa0f3194971a2a116679f7c2090f6939c8d4e01a2a8d7e41d55e5351469e639060ff16620002d757808352826020526040832082845260205260408320600160ff19825416179055600080516020620049f9833981519152339380a4600190565b6001600160a01b031660008181527ffaf93c3d007e112089dc8351e013e6685ef67703975d0224b26fc45941d4f1f560205260408120549091907fe2b7fb3b832174769106daebcfd6d1970523240dda11281102db9363b83b0dc49060ff16620002d757808352826020526040832082845260205260408320600160ff19825416179055600080516020620049f9833981519152339380a460019056fe6080604052600436101561001257600080fd5b60003560e01c8063013cf08b1461330657806301ffc9a7146132b057806302a251a31461329257806307bd0265146132575780630af4da411461322f5780630d61b5191461311f5780630e6c151c146130e157806319546f1a146130a35780631a8cbcaa1461305a578063248a9ca31461302b578063248bd4711461300e578063252f57d714611b725780632d0335ab146114165780632dcf0d7314612b855780632f2ff15d14612b4657806333b5e38e14612a54578063364478e2146125d35780633644e5151461259857806336568abe146125515780633d8803e2146103d757806342a7c6141461141157806343ae26951461252857806349672b701461250d5780634ce83cdb14611bc1578063514c3d5614611ba3578063536f9f4214611b775780635394c87914611b725780635652077c14611a4d578063567813881461182d5780635c7b264d146117f35780636213e5ea1461165b578063637e54ac1461160357806363f0c7ff146114505780637ecebe0014611416578063808c44791461141157806386522973146113d6578063872d15441461134a5780638f61f4f51461130f57806391d14854146112c25780639207891d146112a4578063926d7d7f146112695780639b699e5714610b4d5780639c4e99ca14610b2f5780639d79a9eb146109f6578063a217fddf146109da578063ac2f0074146108a9578063b277d02a1461088c578063bc3f931f146107ee578063bcd77a24146107c6578063c3b028e21461079a578063c7f758a81461074d578063cae35ba0146106c2578063d23254b41461065f578063d547741f1461061e578063da35c66414610600578063dd9deb1b146105e2578063de1cf4ad146105a8578063e0a8f6f51461047e578063ea0217cf146103dc578063eac3a6bd146103d7578063ecc52c04146103ac5763f43b8778146102c657600080fd5b346103a75760203660031901126103a75760043580600052600c6020526040600020600a81019081549060ff8216600381101561039157610307901561405a565b60098101544210610357577f76254391687772340030bc79660c2d1e15dad744f94894a52e52863b5fca111592600160409360ff19161790556007600682015491015482519182526020820152a2005b60405162461bcd60e51b8152602060048201526012602482015271141bdb1b081b9bdd08195b991959081e595d60721b6044820152606490fd5b634e487b7160e01b600052602160045260246000fd5b600080fd5b346103a75760203660031901126103a75760206103cf6103ca61374c565b614098565b604051908152f35b6137de565b346103a75760203660031901126103a7576004356103f86140cc565b6201518081101580610471575b1561043b576020817f651c77f42613a075437aa794c44471e3abc3a661956a67aaee165bb7396974aa92600455604051908152a1005b60405162461bcd60e51b815260206004820152600e60248201526d125b9d985b1a59081c195c9a5bd960921b6044820152606490fd5b5062278d00811115610405565b346103a7576020806003193601126103a757600435908160005260068152604060002060018060a01b0360028201541633148015610586575b1561055057600c019081549060ff821660068110156103915760018114908115610547575b5015610513575060ff191660051790557f416e669c63d9a3a5e36ee7cc7e2104b8db28ccd286aa18966e98fa230c73b08c600080a2005b6064906040519062461bcd60e51b82526004820152600d60248201526c10d85b9b9bdd0818d85b98d95b609a1b6044820152fd5b905015856104dc565b60405162461bcd60e51b815260048101839052600e60248201526d139bdd08185d5d1a1bdc9a5e995960921b6044820152606490fd5b506000805260008252604060002033600052825260ff604060002054166104b7565b346103a75760203660031901126103a7576001600160a01b036105c961374c565b16600052600b6020526020604060002054604051908152f35b346103a75760003660031901126103a7576020600554604051908152f35b346103a75760003660031901126103a7576020600754604051908152f35b346103a75760403660031901126103a75761065d60043561063d613762565b90806000526000602052610658600160406000200154614162565b614353565b005b346103a75760403660031901126103a757610678613762565b600435600052600860205260406000209060018060a01b0316600052602052606060406000206001815491015460ff604051928181161515845260081c1660208301526040820152f35b346103a75760203660031901126103a75760043560048110156103a7576106e8816135ed565b6000908152601060205260409020546012549081156107425761271080820290828204148215171561072c57604092610720916138ff565b82519182526020820152f35b634e487b7160e01b600052601160045260246000fd5b604091506000610720565b346103a75760203660031901126103a757610766613e82565b5060043560005260066020526107966107826040600020613f04565b604051918291602083526020830190613818565b0390f35b346103a75760203660031901126103a757600435600052600f6020526020604060002054604051908152f35b346103a75760203660031901126103a75760043560048110156103a7576103cf6020916143c8565b346103a75760403660031901126103a757610807613762565b60006040805161081681613596565b8281528260208201520152600435600052600860205260406000209060018060a01b03166000526020526060604060002060405161085381613596565b60ff82546040600183831615159586865284602087019460081c1684520154930192835260405193845251166020830152516040820152f35b346103a75760003660031901126103a75760206040516107d08152f35b346103a75760203660031901126103a757600435600052600c6020526040600020805490600181015490600160a01b600190036002820154169260405191828060038301906108f7916134c8565b0361090290846135cc565b604051928361091481600485016134c8565b0361091f90856135cc565b604051938461093181600586016134c8565b0361093c90866135cc565b600683015494600784015490600885015492600986015494600a87015460ff1696600b0154976040519b8c9b610180928d5260208d015260408c01528060608c01528a01610989916135f7565b89810360808b015261099a916135f7565b88810360a08a01526109ab916135f7565b9560c088015260e087015261010086015261012085015261014084016109d091613672565b6101608301520390f35b346103a75760003660031901126103a757602060405160008152f35b346103a75760403660031901126103a75760043560243590811515918281036103a75781600052602090600c825260406000209060ff600a83015416600381101561039157610a45901561405a565b6009820154421015610afd57907fdf13ce4fcc43c19a08df4ffa6d471ae7bb1d6ffc3beb528ad821c873f798ce2f929184600052600e83526040600020336000528352604060002060018154610a9e60ff821615613c27565b61ff008960081b169061ffff19161717905584600052600f83526040600020610ac78154613c63565b905515610ae957600601610adb8154613c63565b90555b6040519384523393a3005b600701610af68154613c63565b9055610ade565b60405162461bcd60e51b815260048101849052600a602482015269141bdb1b08195b99195960b21b6044820152606490fd5b346103a75760203660031901126103a75760206103cf600435614010565b346103a75760c03660031901126103a757600460243510156103a7576044356001600160401b0381116103a757610b88903690600401613788565b6064356001600160401b0381116103a757610ba7903690600401613788565b906084356001600160401b0381116103a757610bc7903690600401613788565b9060a4356001600160401b0381116103a757610be7903690600401613788565b610bef614106565b600254604051636ded6a1960e11b815260048035908201523360248201526001600160a01b0390911690602081604481855afa801561122957600090611235575b610c3c91501515613e1f565b60075493610c4985613c63565b60075560246020610c5a82356143c8565b9360405192838092638cdc1e8760e01b825260043560048301525afa908115611229576000916111f7575b5080156111a157856000526009602052604060002055610ca760045442613cb0565b9060405196610cb58861357a565b8688526004356020890152336040890152610cd16024356135ed565b602435606089015285608089015260a088015260c0870152600060e0870152600061010087015260006101208701524261014087015261016086015261018085015260016101a08501526101c0840152816000526006602052604060002083518155602084015160018201556002810160018060a01b036040860151168154906060870151610d5f816135ed565b610d68816135ed565b6001600160a81b03199092161760a09190911b60ff60a01b1617905560808401518051906001600160401b03821161103557610db482610dab600386015461348e565b60038601613cbd565b602090601f831160011461112f57610de5929160009183610fc4575b50508160011b916000199060031b1c19161790565b60038201555b60a08401518051906001600160401b03821161103557610e1b82610e12600486015461348e565b60048601613cbd565b602090601f83116001146110bd57610e4b929160009183610fc45750508160011b916000199060031b1c19161790565b60048201555b60c08401518051906001600160401b03821161103557610e8182610e78600586015461348e565b60058601613cbd565b602090601f831160011461104b57610eb1929160009183610fc45750508160011b916000199060031b1c19161790565b60058201555b60e08401516006820155610100840151600782015561012084015160088201556101408401516009820155610160840151600a820155610180840151600b8201556101a084015160068110156103915781610f1a600d92600c6101c095016139ec565b019301519283516001600160401b03811161103557602094610f4682610f40855461348e565b85613cbd565b8590601f8311600114610fcf57610f75929160009183610fc45750508160011b916000199060031b1c19161790565b90555b8160008051602061458d833981519152604051338152610f996024356135ed565b602435868201526060604082015280610fb96004359560608301906135f7565b0390a3604051908152f35b015190508780610dd0565b90601f1983169184600052876000209260005b81811061101e5750908460019594939210611005575b505050811b019055610f78565b015160001960f88460031b161c19169055868080610ff8565b929389600181928786015181550195019301610fe2565b634e487b7160e01b600052604160045260246000fd5b9190600584016000526020600020906000935b601f19841685106110a2576001945083601f19811610611089575b505050811b016005820155610eb7565b015160001960f88460031b161c19169055868080611079565b8181015183556020948501946001909301929091019061105e565b9190600484016000526020600020906000935b601f1984168510611114576001945083601f198116106110fb575b505050811b016004820155610e51565b015160001960f88460031b161c191690558680806110eb565b818101518355602094850194600190930192909101906110d0565b9190600384016000526020600020906000935b601f1984168510611186576001945083601f1981161061116d575b505050811b016003820155610deb565b015160001960f88460031b161c1916905586808061115d565b81810151835560209485019460019093019290910190611142565b60405162461bcd60e51b815260206004820152602860248201527f4e6f20766f74696e6720706f7765722065786973747320666f7220746869732060448201526770726f706572747960c01b6064820152608490fd5b90506020813d602011611221575b81611212602093836135cc565b810103126103a7575187610c85565b3d9150611205565b6040513d6000823e3d90fd5b506020813d602011611261575b8161124f602093836135cc565b810103126103a757610c3c9051610c30565b3d9150611242565b346103a75760003660031901126103a75760206040517fe2b7fb3b832174769106daebcfd6d1970523240dda11281102db9363b83b0dc48152f35b346103a75760003660031901126103a7576020600d54604051908152f35b346103a75760403660031901126103a7576112db613762565b600435600052600060205260406000209060018060a01b0316600052602052602060ff604060002054166040519015158152f35b346103a75760003660031901126103a75760206040517fb09aa5aeb3702cfd50b6b62bc4532604938f21248a27a1d5ca736082b6819cc18152f35b346103a75760203660031901126103a7576004356113666140cc565b6101f481116113a0576020817f4ade7322d9a0c41dc254574f72d3d442f06addcc77917dcb9cb1ac4441d1b20f92600555604051908152a1005b60405162461bcd60e51b815260206004820152600e60248201526d084dedceae640e8dede40d0d2ced60931b6044820152606490fd5b346103a75760003660031901126103a75760206040517fa122aedc7c2408a97bcfe5d8ff1f6a6d7bf779a8b6dd3d72ff503e8fcf9d2eb98152f35b6137fb565b346103a75760203660031901126103a7576001600160a01b0361143761374c565b1660005260036020526020604060002054604051908152f35b346103a7576020806003193601126103a7576004356000906000600d54905b8181106115ad575061149961148384613e6b565b9361149160405195866135cc565b808552613e6b565b601f19018460005b828110611597575050506000805b82811061151457604080518781528651818901819052600092600582901b8301810191898b01918b9085015b8287106114e85785850386f35b909192938280611504600193603f198a8203018652885161367f565b96019201960195929190926114db565b80600052600c90818752604060002091856001840154148061157a575b60019350611541575b50016114af565b81600052875261157360406000209361156261155c82613c63565b95613a60565b61156c828a613ef0565b5287613ef0565b508761153a565b5091600a60ff910154169160038310156103915760019215611531565b61159f613a04565b8282880101520185906114a1565b80600052600c855260406000208360018201541490816115ea575b506115d6575b60010161146f565b926115e2600191613c63565b9390506115ce565b60ff9150600a01541660038110156103915715866115c8565b346103a75760403660031901126103a75761161c613762565b600435600052600e60205260406000209060018060a01b03166000526020526040806000205460ff8251918181161515835260081c1615156020820152f35b346103a7576020806003193601126103a7576004356000906000600754905b818110611794575061168e61148384613e6b565b601f19018460005b82811061177e575050506000805b82811061170957604080518781528651818901819052600092600582901b8301810191898b01918b9085015b8287106116dd5785850386f35b9091929382806116f9600193603f198a82030186528851613818565b96019201960195929190926116d0565b806000526006908187526040600020916001928684820154149081611762575b506001935061173a575b50016116a4565b81600052875261175b60406000209361156261175582613c63565b95613f04565b5087611733565b60ff9150600c0154169281841015610391576001931489611729565b611786613e82565b828288010152018590611696565b80600052600680865260406000209060019085828401541492836117d7575b5050506117c3575b60010161167a565b926117cf600191613c63565b9390506117bb565b60ff91929350600c0154169081101561039157148680806117b3565b346103a75760203660031901126103a7576001600160a01b0361181461374c565b16600052600a6020526020604060002054604051908152f35b346103a75760403660031901126103a757600435611849613778565b611851614188565b816000526020916006835260406000209160ff600c84015416936006851015610391576118816001809614613b29565b6118916009850154421015613b6b565b6118a0600a8501544210613bac565b60ff8216936118b26002861115613be7565b8360005260088252604060002033600052825261191b60406000208054946118dd60ff871615613c27565b60025489850154604051636ded6a1960e11b8152600481019190915233602482015293869185916001600160a01b0390911690829081906044820190565b03915afa958615611229578993600097611a16575b5093868460ff9461196b60029584986119b79a61194e871515613c72565b891916178355829061ff0082549160081b169061ff001916179055565b0155886119ea5760078101611981858254613cb0565b90555b33600052600a8652604060002061199b8154613c63565b905533600052600b865242604060002055015460a01c166141ab565b6040519384528301527fb83d25c6a5d258561330739951487acb4bd09ba5190b5d32c4f261817d90679260403393a38055005b888a03611a075760068101611a00858254613cb0565b9055611984565b60088101611a00858254613cb0565b9196509250908482813d8111611a46575b611a3181836135cc565b810103126103a75790519488926119b7611930565b503d611a27565b346103a75760203660031901126103a757600435806000526006602052604060002090600c82019182549160ff83166006811015610391576001611a919114613b29565b600a8201544210611b3a57600682015491600781015491611ac0611ab58486613cb0565b600884015490613cb0565b60009182526009602052604090912054908115611b2e576127109081810291818304149015171561072c57600b91611af7916138ff565b915b015411159182611b24575b505015611b195750805460ff19166002179055005b60ff19166003179055005b1190508380611b04565b5050600b600091611af9565b60405162461bcd60e51b815260206004820152601060248201526f159bdd1a5b99c81b9bdd08195b99195960821b6044820152606490fd5b61372f565b346103a75760203660031901126103a75760043560005260096020526020604060002054604051908152f35b346103a75760003660031901126103a7576020601254604051908152f35b346103a75760603660031901126103a757600460243510156103a7576044356001600160401b0381116103a757611bfc903690600401613788565b611c04614106565b600435600052600c60205260406000209060ff600a830154166003811015610391576001036124c857600b82015461248f576006820154611c49600784015482613cb0565b90811561245a576127109081810291818304149015171561072c57610bb891611c71916138ff565b10612415576002546001830154604051636ded6a1960e11b815260048101919091523360248201526001600160a01b039091169290602081604481875afa8015611229576000906123e1575b611cc991501515613e1f565b60075491611cd683613c63565b600755611ce46024356143c8565b6101f48111156123db57806101f31981011161072c576101f31901935b60206001840154602460405180948193638cdc1e8760e01b835260048301525afa908115611229576000916123a9575b50801561236b57836000526009602052604060002055600182015493611d5960045442613cb0565b60405195611d668761357a565b8587526020870152336040870152611d7f6024356135ed565b6024356060870152604051611da281611d9b81600389016134c8565b03826135cc565b6080870152604051611dbb81611d9b81600489016134c8565b60a0870152604051611dd481611d9b81600589016134c8565b60c0870152600060e0870152600061010087015260006101208701524261014087015261016086015261018085015260016101a08501526101c084015281600052600660205260406000209280518455602081015160018501556002840160018060a01b036040830151168154906060840151611e50816135ed565b611e59816135ed565b6001600160a81b03199092161760a09190911b60ff60a01b1617905560808101518051906001600160401b03821161103557611ea582611e9c600389015461348e565b60038901613cbd565b602090601f83116001146122f957611ed5929160009183610fc45750508160011b916000199060031b1c19161790565b60038501555b60a08101518051906001600160401b03821161103557611f0b82611f02600489015461348e565b60048901613cbd565b602090601f831160011461228757611f3b929160009183610fc45750508160011b916000199060031b1c19161790565b60048501555b60c08101518051906001600160401b03821161103557611f7182611f68600589015461348e565b60058901613cbd565b602090601f831160011461221557611fa1929160009183610fc45750508160011b916000199060031b1c19161790565b60058501555b60e08101516006850155610100810151600785015561012081015160088501556101408101516009850155610160810151600a850155610180810151600b8501556101a0810151906006821015610391576120086101c092600c87016139ec565b01519283516001600160401b038111611035576020946120388261202f600d86015461348e565b600d8601613cbd565b8590601f83116001146121a757918061206a92600d9460009261219c5750508160011b916000199060031b1c19161790565b9101555b8160ff19600281600a8501541617600a84015581600b8401556001830154926040519133835261209f6024356135ed565b602435878401526060604084015260009160038101546120be8161348e565b9283606087015260018216918260001461216e575050600114612124575b5050908060008051602061458d833981519152920390a360405190806004357ff57507588a3f55547e832ad7906fc1c90a328d2c78895bc24abf93c41e8568a0600080a38152f35b60030160009081528781209092505b81831061215657505081016080018160008051602061458d8339815191526120dc565b80548385016080015286945091870191600101612133565b8695506080935060008051602061458d833981519152969492501682840152151560051b82010191926120dc565b015190508880610dd0565b90600d8401600052866000209160005b601f19851681106121fe5750918391600193600d95601f198116106121e5575b505050811b0191015561206e565b015160001960f88460031b161c191690558780806121d7565b9192886001819286850151815501940192016121b7565b9190600587016000526020600020906000935b601f198416851061226c576001945083601f19811610612253575b505050811b016005850155611fa7565b015160001960f88460031b161c19169055868080612243565b81810151835560209485019460019093019290910190612228565b9190600487016000526020600020906000935b601f19841685106122de576001945083601f198116106122c5575b505050811b016004850155611f41565b015160001960f88460031b161c191690558680806122b5565b8181015183556020948501946001909301929091019061229a565b9190600387016000526020600020906000935b601f1984168510612350576001945083601f19811610612337575b505050811b016003850155611edb565b015160001960f88460031b161c19169055868080612327565b8181015183556020948501946001909301929091019061230c565b60405162461bcd60e51b81526020600482015260166024820152754e6f20766f74696e6720706f7765722065786973747360501b6044820152606490fd5b90506020813d6020116123d3575b816123c4602093836135cc565b810103126103a7575185611d31565b3d91506123b7565b93611d01565b506020813d60201161240d575b816123fb602093836135cc565b810103126103a757611cc99051611cbd565b3d91506123ee565b60405162461bcd60e51b815260206004820152601960248201527f496e73756666696369656e7420706f6c6c20737570706f7274000000000000006044820152606490fd5b60405162461bcd60e51b815260206004820152600d60248201526c139bc81d9bdd195cc818d85cdd609a1b6044820152606490fd5b60405162461bcd60e51b8152602060048201526011602482015270105b1c9958591e4818dbdb9d995c9d1959607a1b6044820152606490fd5b60405162461bcd60e51b815260206004820152601860248201527f506f6c6c206d75737420626520656e64656420666972737400000000000000006044820152606490fd5b346103a75760003660031901126103a75760206103cf613d13565b346103a75760003660031901126103a7576002546040516001600160a01b039091168152602090f35b346103a75760403660031901126103a75761256a613762565b336001600160a01b038216036125865761065d90600435614353565b60405163334bd91960e11b8152600490fd5b346103a75760003660031901126103a75760206040517f00000000000000000000000000000000000000000000000000000000000000008152f35b346103a75760a03660031901126103a7576024356001600160401b0381116103a757612603903690600401613788565b6044356001600160401b0381116103a757612622903690600401613788565b906064356001600160401b0381116103a757612642903690600401613788565b9062015180608435101580612a45575b15612a0d57600d549161266483613c63565b600d5561267360843542613cb0565b90604051946126818661355e565b8486526004356020870152336040870152836060870152608086015260a0850152600060c0850152600060e0850152426101008501526101208401526000610140840152600061016084015281600052600c602052604060002083518155602084015160018201556002810160018060a01b036040860151166bffffffffffffffffffffffff60a01b82541617905560608401518051906001600160401b0382116110355761273782610dab600386015461348e565b602090601f831160011461299b57612767929160009183610fc45750508160011b916000199060031b1c19161790565b60038201555b60808401518051906001600160401b0382116110355761279482610e12600486015461348e565b602090601f831160011461292d576127c4929160009183610fc45750508160011b916000199060031b1c19161790565b60048201555b60a08401518051906001600160401b038211611035576127f182610e78600586015461348e565b602090601f83116001146128bf57612821929160009183610fc45750508160011b916000199060031b1c19161790565b60058201555b60c0840151600682015560e0840151600782015561010084015160088201556101208401516009820155600a8101610140850151600381101561039157602095600b926101609260ff801983541691161790550151910155817f658fccfc8de51891b480d49e504fbb0f8f9b43f13522a475d1729a74531a9e2260405133815260408682015280610fb96004359560408301906135f7565b90601f198316916005850160005260206000209260005b81811061291557509084600195949392106128fc575b505050811b016005820155612827565b015160001960f88460031b161c191690558680806128ec565b929360206001819287860151815501950193016128d6565b90601f198316916004850160005260206000209260005b818110612983575090846001959493921061296a575b505050811b0160048201556127ca565b015160001960f88460031b161c1916905586808061295a565b92936020600181928786015181550195019301612944565b9190600384016000526020600020906000935b601f19841685106129f2576001945083601f198116106129d9575b505050811b01600382015561276d565b015160001960f88460031b161c191690558680806129c9565b818101518355602094850194600190930192909101906129ae565b60405162461bcd60e51b815260206004820152601060248201526f24b73b30b634b210323ab930ba34b7b760811b6044820152606490fd5b5062278d006084351115612652565b346103a75760003660031901126103a757612a6d6140cc565b604051612a79816135b1565b608036823760128054612abc575b6040517f229301218ef01ca6b8da4d31650c5fdf0265077519dfbbfaf6f3254aa666450b9080612ab78582613644565b0390a1005b60005b60048110612acd5750612a87565b612ad6816135ed565b612adf816135ed565b8060005260209060108252604060002054916127109283810293818504149015171561072c57612b136001938554906138ff565b612b1d838761391f565b526011612b2a838761391f565b5191612b35846135ed565b836000525260406000205501612abf565b346103a75760403660031901126103a75761065d600435612b65613762565b90806000526000602052612b80600160406000200154614162565b6142d5565b346103a75760e03660031901126103a757612b9e613778565b6044356001600160a01b03811690036103a75760ff60843516608435036103a7573360009081527ffaf93c3d007e112089dc8351e013e6685ef67703975d0224b26fc45941d4f1f560205260409020547fe2b7fb3b832174769106daebcfd6d1970523240dda11281102db9363b83b0dc49060ff1615612ff05750612c21614188565b6064354211612fb7576004356000526006602052604060002060ff600c820154166006811015610391576001612c579114613b29565b612c676009820154421015613b6b565b612c76600a8201544210613bac565b612c86600260ff84161115613be7565b6004356000526008602052604060002060018060a01b0360443516600052602052604060002090612cbb60ff83541615613c27565b6044356001600160a01b03166000908152600360205260409020805490612ce182613c63565b90556040519060208201907fa122aedc7c2408a97bcfe5d8ff1f6a6d7bf779a8b6dd3d72ff503e8fcf9d2eb98252600435604084015260ff8616606084015260018060a01b0360443516608084015260a083015260643560c083015260c0825260e082018281106001600160401b0382111761103557612dcb92612dc292826040528151902061012261010083019261190160f01b84527f0000000000000000000000000000000000000000000000000000000000000000610102820152015260428252612dae826135b1565b60c4359160a4359160843591519020614471565b90929192614501565b6001600160a01b036044358116911603612f7e576002546001820154604051636ded6a1960e11b815260048101919091526001600160a01b036044803582166024840152919492602092869290918391165afa92831561122957600093612f47575b5060ff6002612eca938560018195612e46831515613c72565b805461ff0060088c901b168719909116831761ff0019161781550155868316612f185760078101612e78858254613cb0565b90555b6044356001600160a01b03166000908152600a602052604090208054612ea090613c63565b90556044356001600160a01b03166000908152600b60205260409020429055015460a01c166141ab565b60ff60405192168252602082015233604082015260018060a01b0360443516907fb7a759f14619c0391b65e3f8ceb8fd342a3e24929e81d83493445a4a1c87d0fc606060043592a360018055005b868316600103612f385760068101612f31858254613cb0565b9055612e7b565b60088101612f31858254613cb0565b9192506020823d602011612f76575b81612f63602093836135cc565b810103126103a7579051919060ff612e2d565b3d9150612f56565b60405162461bcd60e51b8152602060048201526011602482015270496e76616c6964207369676e617475726560781b6044820152606490fd5b60405162461bcd60e51b815260206004820152601160248201527014da59db985d1d5c9948195e1c1a5c9959607a1b6044820152606490fd5b6044906040519063e2517d3f60e01b82523360048301526024820152fd5b346103a75760003660031901126103a75760206040516109c48152f35b346103a75760203660031901126103a75760043560005260006020526020600160406000200154604051908152f35b346103a75760203660031901126103a757613073613a04565b50600435600052600c60205261079661308f6040600020613a60565b60405191829160208352602083019061367f565b346103a75760203660031901126103a75760043560048110156103a7576130c9816135ed565b60005260116020526020604060002054604051908152f35b346103a75760203660031901126103a75760043560048110156103a757613107816135ed565b60005260106020526020604060002054604051908152f35b346103a75760203660031901126103a7573360009081527fdae2aa361dfd1ca020a396615627d436107c35eff9fe7738a3512819782d70696020526040902054600435907fd8aa0f3194971a2a116679f7c2090f6939c8d4e01a2a8d7e41d55e5351469e639060ff1615612ff05750613196614188565b806000526006602052600c604060002001805460ff81166006811015610391576002036131f15760ff191660041790557f712ae1383f79ac853f8d882153778e0260ef8f03b504e2866e0593e04d2b291f600080a260018055005b60405162461bcd60e51b8152602060048201526016602482015275141c9bdc1bdcd85b081b9bdd081cdd58d8d95959195960521b6044820152606490fd5b346103a75760003660031901126103a75761079661324b613946565b60405191829182613644565b346103a75760003660031901126103a75760206040517fd8aa0f3194971a2a116679f7c2090f6939c8d4e01a2a8d7e41d55e5351469e638152f35b346103a75760003660031901126103a7576020600454604051908152f35b346103a75760203660031901126103a75760043563ffffffff60e01b81168091036103a757602090637965db0b60e01b81149081156132f5575b506040519015158152f35b6301ffc9a760e01b149050826132ea565b346103a75760203660031901126103a757600435600052600660205260406000208054906001810154906002810154926080806003840190613347916134c8565b03608090613354916135cc565b604051908161336681600486016134c8565b0361337190836135cc565b604051918261338381600587016134c8565b0361338e90846135cc565b60068401549260078501546008860154600987015491600a88015493600b89015495600c8a015460ff169760405180600d819d01906133cc916134c8565b036133d7908c6135cc565b6040519c8d9c8d6101e0938152602001528c600160a01b60019003821690604001528060a01c60ff16613409906135ed565b60a01c60ff1660608d01528060808d01528b01608090613428916135f7565b8b810360a08d0152613439916135f7565b8a810360c08c015261344a916135f7565b9660e08a01526101008901526101208801526101408701526101608601526101808501526101a0840161347c91613637565b8281036101c0840152610796916135f7565b90600182811c921680156134be575b60208310146134a857565b634e487b7160e01b600052602260045260246000fd5b91607f169161349d565b8054600093926134d78261348e565b9182825260209360019160018116908160001461353f57506001146134fe575b5050505050565b90939495506000929192528360002092846000945b83861061352b575050505001019038808080806134f7565b805485870183015294019385908201613513565b60ff19168685015250505090151560051b0101915038808080806134f7565b61018081019081106001600160401b0382111761103557604052565b6101e081019081106001600160401b0382111761103557604052565b606081019081106001600160401b0382111761103557604052565b608081019081106001600160401b0382111761103557604052565b90601f801991011681019081106001600160401b0382111761103557604052565b6004111561039157565b919082519283825260005b848110613623575050826000602080949584010152601f8019910116010190565b602081830181015184830182015201613602565b9060068210156103915752565b6080810192916000915b6004831061365b57505050565b60019082518152602080910192019201919061364e565b9060038210156103915752565b906136e46136d26136c0610180855185526020860151602086015260018060a01b0360408701511660408601526060860151908060608701528501906135f7565b608085015184820360808601526135f7565b60a084015183820360a08501526135f7565b9160c081015160c083015260e081015160e0830152610100808201519083015261012080820151908301526137226101408083015190840190613672565b6101608091015191015290565b346103a75760003660031901126103a75760206040516113888152f35b600435906001600160a01b03821682036103a757565b602435906001600160a01b03821682036103a757565b6024359060ff821682036103a757565b81601f820112156103a7578035906001600160401b03821161103557604051926137bc601f8401601f1916602001856135cc565b828452602083830101116103a757816000926020809301838601378301015290565b346103a75760003660031901126103a75760206040516101f48152f35b346103a75760003660031901126103a7576020604051610bb88152f35b906138fc916138946138826138706101e0845186526020850151602087015260018060a01b0360408601511660408701526060850151613857816135ed565b60608701526080850151908060808801528601906135f7565b60a084015185820360a08701526135f7565b60c083015184820360c08601526135f7565b9160e082015160e0820152610100808301519082015261012080830151908201526101408083015190820152610160808301519082015261018080830151908201526138e96101a08084015190830190613637565b6101c080920151918184039101526135f7565b90565b8115613909570490565b634e487b7160e01b600052601260045260246000fd5b9060048110156139305760051b0190565b634e487b7160e01b600052603260045260246000fd5b6040805191613954836135b1565b608036843782906012549384156139e5575060005b6004808210156139dc5761397c826135ed565b613985826135ed565b816000526010602052846000205490612710918281029281840414901517156139c75750906139b6866001936138ff565b6139c0828661391f565b5201613969565b601190634e487b7160e01b6000525260246000fd5b50509250905090565b9350915050565b9060068110156103915760ff80198354169116179055565b60405190613a118261355e565b8161016060009182815282602082015282604082015260608082015260606080820152606060a08201528260c08201528260e08201528261010082015282610120820152826101408201520152565b90604051613a6d8161355e565b8092805482526001810154602083015260018060a01b036002820154166040830152604051613aa381611d9b81600386016134c8565b6060830152604051613abc81611d9b81600486016134c8565b6080830152604051613ad581611d9b81600586016134c8565b60a0830152600681015460c0830152600781015460e08301526008810154610100830152600981015461012083015260ff600a8201541660038110156103915761016091600b916101408501520154910152565b15613b3057565b60405162461bcd60e51b815260206004820152601360248201527250726f706f73616c206e6f742061637469766560681b6044820152606490fd5b15613b7257565b60405162461bcd60e51b8152602060048201526012602482015271159bdd1a5b99c81b9bdd081cdd185c9d195960721b6044820152606490fd5b15613bb357565b60405162461bcd60e51b815260206004820152600c60248201526b159bdd1a5b99c8195b99195960a21b6044820152606490fd5b15613bee57565b60405162461bcd60e51b8152602060048201526011602482015270496e76616c696420766f7465207479706560781b6044820152606490fd5b15613c2e57565b60405162461bcd60e51b815260206004820152600d60248201526c105b1c9958591e481d9bdd1959609a1b6044820152606490fd5b600019811461072c5760010190565b15613c7957565b60405162461bcd60e51b815260206004820152600f60248201526e2737903b37ba34b733903837bbb2b960891b6044820152606490fd5b9190820180921161072c57565b90601f8111613ccb57505050565b6000916000526020600020906020601f850160051c83019410613d09575b601f0160051c01915b828110613cfe57505050565b818155600101613cf2565b9092508290613ce9565b6012548015613e19576000805b60049081831015613df457613d34836135ed565b613d3d836135ed565b82600052601060205260406000205461271090818102918183041490151715613ddf5784613d6a916138ff565b6109c49290600084821115613dbb57506109c3198101908111613da6575b83039283116139c75750600191613d9e91613cb0565b910190613d20565b601182634e487b7160e01b6000525260246000fd5b90840390848211613dcc5750613d88565b634e487b7160e01b815260118352602490fd5b601183634e487b7160e01b6000525260246000fd5b9250505060011c90611388820180921161072c57612710808311613e155750565b9150565b50600090565b15613e2657565b60405162461bcd60e51b815260206004820152601b60248201527f4d75737420686f6c6420746f6b656e7320746f2070726f706f736500000000006044820152606490fd5b6001600160401b0381116110355760051b60200190565b60405190613e8f8261357a565b60606101c083600080825280602083015280604083015280848301528360808301528360a08301528360c08301528060e083015280610100830152806101208301528061014083015280610160830152806101808301526101a08201520152565b80518210156139305760209160051b010190565b90604091825192613f148461357a565b815484526001820154602085015260028201546001600160a01b03811682860152849060a01c60ff16613f46816135ed565b60608201528151613f5e81611d9b81600388016134c8565b60808201528151613f7681611d9b81600488016134c8565b60a08201528151613f8e81611d9b81600588016134c8565b60c0820152600683015460e0820152600783015461010082015260088301546101208201526009830154610140820152600a830154610160820152600b83015461018082015260ff600c8401541691600683101561039157600d9361400561400c926101c0956101a08601525180968193016134c8565b03846135cc565b0152565b600052600c60205260406000206140306007600683015492015482613cb0565b8015614053576127109182810292818404149015171561072c576138fc916138ff565b5050600090565b1561406157565b60405162461bcd60e51b815260206004820152600f60248201526e506f6c6c206e6f742061637469766560881b6044820152606490fd5b60018060a01b0316600052600b602052604060002054420342811161072c5762278d0010156140c657600090565b60055490565b3360009081527fad3228b676f7d3cd4284a5443f17f1962b36e491b30a40b2405849e597ba5fb5602052604081205460ff1615612ff05750565b3360009081527f3412d5605ac6cd444957cedb533e5dacad6378b4bc819ebe3652188a665066d560205260409020547fb09aa5aeb3702cfd50b6b62bc4532604938f21248a27a1d5ca736082b6819cc19060ff1615612ff05750565b80600052600060205260406000203360005260205260ff6040600020541615612ff05750565b600260015414614199576002600155565b604051633ee5aeb560e01b8152600490fd5b9190916141b7816135ed565b600092818452602093601085526141e26040928383206141d8828254613cb0565b9055601254613cb0565b94856012558561424f575b8394955061421b7f0f5c781c3e6e5f46e3229c8b1e6e98f96d8a2fe20aa04baf40e0fba44a06d5f1946135ed565b84825260108152828083205492614231876135ed565b86815260118352205490614244866135ed565b8351928352820152a2565b614258846135ed565b8382526010815282822054612710908181029181830414901517156142c1577f0f5c781c3e6e5f46e3229c8b1e6e98f96d8a2fe20aa04baf40e0fba44a06d5f19495966142a4916138ff565b6142ad866135ed565b8583526011825283832055859493506141ed565b634e487b7160e01b83526011600452602483fd5b9060009180835282602052604083209160018060a01b03169182845260205260ff6040842054161560001461434e57808352826020526040832082845260205260408320600160ff198254161790557f2f8788117e7eff1d82e926ec794901d17c78024a50270940304540a733656f0d339380a4600190565b505090565b9060009180835282602052604083209160018060a01b03169182845260205260ff60408420541660001461434e5780835282602052604083208284526020526040832060ff1981541690557ff6391f5c32d9c69d2a47ea670b442974b53935d1edc7fd64eb21e047a839171b339380a4600190565b6143d1816135ed565b80614434576107d0905b6143e4816135ed565b600052601160205261138860406000205410156143fe5790565b6101f481111561442b576101f319810190811161072c575b6103e89081811015614426575090565b905090565b506103e8614416565b61443d816135ed565b6001810361444e57610bb8906143db565b614457816135ed565b60028103614468576109c4906143db565b611388906143db565b91907f7fffffffffffffffffffffffffffffff5d576e7357a4501ddfe92f46681b20a084116144f557926020929160ff608095604051948552168484015260408301526060820152600092839182805260015afa156144e95780516001600160a01b038116156144e057918190565b50809160019190565b604051903d90823e3d90fd5b50505060009160039190565b61450a816135ed565b80614513575050565b61451c816135ed565b600181036145365760405163f645eedf60e01b8152600490fd5b61453f816135ed565b600281036145605760405163fce698f760e01b815260048101839052602490fd5b8061456c6003926135ed565b146145745750565b602490604051906335e2f38360e21b82526004820152fdfeb1d569dc5621a0a51229b7ac0eff81f3e6df70a3f72fe608aa58f74bb69d7bb6a264697066735822122095e2c2e77d77c7fad58eaddffb5303d20eb256f7d5d7a81e0b0ead80c5e4ff2264736f6c634300081800332f8788117e7eff1d82e926ec794901d17c78024a50270940304540a733656f0d","opcodes":"PUSH1 0xA0 CALLVALUE PUSH3 0x199 JUMPI PUSH1 0x1 PUSH1 0x1 PUSH1 0x40 SHL SUB SWAP1 PUSH1 0x1F PUSH3 0x4A19 CODESIZE DUP2 SWAP1 SUB SWAP2 DUP3 ADD PUSH1 0x1F NOT AND DUP4 ADD SWAP3 SWAP2 SWAP1 DUP5 DUP5 GT DUP4 DUP6 LT OR PUSH3 0x183 JUMPI DUP2 PUSH1 0x20 SWAP3 DUP5 SWAP3 PUSH1 0x40 SWAP7 DUP8 MSTORE DUP4 CODECOPY DUP2 ADD SUB SLT PUSH3 0x199 JUMPI MLOAD PUSH1 0x1 PUSH1 0x1 PUSH1 0xA0 SHL SUB DUP2 AND SWAP1 DUP2 SWAP1 SUB PUSH3 0x199 JUMPI PUSH1 0x1 DUP1 SSTORE PUSH3 0x93A80 PUSH1 0x4 SSTORE PUSH1 0x32 PUSH1 0x5 SSTORE PUSH1 0x2 DUP1 SLOAD PUSH1 0x1 PUSH1 0x1 PUSH1 0xA0 SHL SUB NOT AND SWAP2 SWAP1 SWAP2 OR SWAP1 SSTORE PUSH3 0x8B CALLER PUSH3 0x1BA JUMP JUMPDEST POP PUSH3 0x97 CALLER PUSH3 0x23A JUMP JUMPDEST POP PUSH3 0xA3 CALLER PUSH3 0x2DC JUMP JUMPDEST POP PUSH3 0xAF CALLER PUSH3 0x379 JUMP JUMPDEST POP PUSH1 0x14 PUSH1 0x20 DUP3 MLOAD PUSH3 0xC1 DUP2 PUSH3 0x19E JUMP JUMPDEST DUP3 DUP2 MSTORE ADD PUSH32 0x52657669746148756220476F7665726E616E6365000000000000000000000000 DUP2 MSTORE KECCAK256 SWAP1 PUSH1 0x1 PUSH1 0x20 DUP3 MLOAD PUSH3 0xFB DUP2 PUSH3 0x19E JUMP JUMPDEST DUP3 DUP2 MSTORE ADD PUSH1 0x31 PUSH1 0xF8 SHL DUP2 MSTORE KECCAK256 SWAP1 DUP1 MLOAD SWAP2 PUSH1 0x20 DUP4 ADD SWAP4 PUSH32 0x8B73C3C69BB8FE3D512ECC4CF759CC79239F7B179B0FFACAA9A75D522B39400F DUP6 MSTORE DUP3 DUP5 ADD MSTORE PUSH1 0x60 DUP4 ADD MSTORE CHAINID PUSH1 0x80 DUP4 ADD MSTORE ADDRESS PUSH1 0xA0 DUP4 ADD MSTORE PUSH1 0xA0 DUP3 MSTORE PUSH1 0xC0 DUP3 ADD SWAP4 DUP3 DUP6 LT SWAP1 DUP6 GT OR PUSH3 0x183 JUMPI DUP4 SWAP1 MSTORE MLOAD SWAP1 KECCAK256 PUSH1 0x80 MSTORE PUSH2 0x45E2 SWAP1 DUP2 PUSH3 0x417 DUP3 CODECOPY PUSH1 0x80 MLOAD DUP2 DUP2 DUP2 PUSH2 0x25B0 ADD MSTORE PUSH2 0x2D7A ADD MSTORE RETURN JUMPDEST PUSH4 0x4E487B71 PUSH1 0xE0 SHL PUSH1 0x0 MSTORE PUSH1 0x41 PUSH1 0x4 MSTORE PUSH1 0x24 PUSH1 0x0 REVERT JUMPDEST PUSH1 0x0 DUP1 REVERT JUMPDEST PUSH1 0x40 DUP2 ADD SWAP1 DUP2 LT PUSH1 0x1 PUSH1 0x1 PUSH1 0x40 SHL SUB DUP3 GT OR PUSH3 0x183 JUMPI PUSH1 0x40 MSTORE JUMP JUMPDEST PUSH1 0x1 PUSH1 0x1 PUSH1 0xA0 SHL SUB AND PUSH1 0x0 DUP2 DUP2 MSTORE PUSH32 0xAD3228B676F7D3CD4284A5443F17F1962B36E491B30A40B2405849E597BA5FB5 PUSH1 0x20 MSTORE PUSH1 0x40 DUP2 KECCAK256 SLOAD SWAP1 SWAP2 SWAP1 PUSH1 0xFF AND PUSH3 0x236 JUMPI DUP2 DUP1 MSTORE DUP2 PUSH1 0x20 MSTORE PUSH1 0x40 DUP3 KECCAK256 DUP2 DUP4 MSTORE PUSH1 0x20 MSTORE PUSH1 0x40 DUP3 KECCAK256 PUSH1 0x1 PUSH1 0xFF NOT DUP3 SLOAD AND OR SWAP1 SSTORE CALLER SWAP2 PUSH1 0x0 DUP1 MLOAD PUSH1 0x20 PUSH3 0x49F9 DUP4 CODECOPY DUP2 MLOAD SWAP2 MSTORE DUP2 DUP1 LOG4 PUSH1 0x1 SWAP1 JUMP JUMPDEST POP SWAP1 JUMP JUMPDEST PUSH1 0x1 PUSH1 0x1 PUSH1 0xA0 SHL SUB AND PUSH1 0x0 DUP2 DUP2 MSTORE PUSH32 0x3412D5605AC6CD444957CEDB533E5DACAD6378B4BC819EBE3652188A665066D5 PUSH1 0x20 MSTORE PUSH1 0x40 DUP2 KECCAK256 SLOAD SWAP1 SWAP2 SWAP1 PUSH32 0xB09AA5AEB3702CFD50B6B62BC4532604938F21248A27A1D5CA736082B6819CC1 SWAP1 PUSH1 0xFF AND PUSH3 0x2D7 JUMPI DUP1 DUP4 MSTORE DUP3 PUSH1 0x20 MSTORE PUSH1 0x40 DUP4 KECCAK256 DUP3 DUP5 MSTORE PUSH1 0x20 MSTORE PUSH1 0x40 DUP4 KECCAK256 PUSH1 0x1 PUSH1 0xFF NOT DUP3 SLOAD AND OR SWAP1 SSTORE PUSH1 0x0 DUP1 MLOAD PUSH1 0x20 PUSH3 0x49F9 DUP4 CODECOPY DUP2 MLOAD SWAP2 MSTORE CALLER SWAP4 DUP1 LOG4 PUSH1 0x1 SWAP1 JUMP JUMPDEST POP POP SWAP1 JUMP JUMPDEST PUSH1 0x1 PUSH1 0x1 PUSH1 0xA0 SHL SUB AND PUSH1 0x0 DUP2 DUP2 MSTORE PUSH32 0xDAE2AA361DFD1CA020A396615627D436107C35EFF9FE7738A3512819782D7069 PUSH1 0x20 MSTORE PUSH1 0x40 DUP2 KECCAK256 SLOAD SWAP1 SWAP2 SWAP1 PUSH32 0xD8AA0F3194971A2A116679F7C2090F6939C8D4E01A2A8D7E41D55E5351469E63 SWAP1 PUSH1 0xFF AND PUSH3 0x2D7 JUMPI DUP1 DUP4 MSTORE DUP3 PUSH1 0x20 MSTORE PUSH1 0x40 DUP4 KECCAK256 DUP3 DUP5 MSTORE PUSH1 0x20 MSTORE PUSH1 0x40 DUP4 KECCAK256 PUSH1 0x1 PUSH1 0xFF NOT DUP3 SLOAD AND OR SWAP1 SSTORE PUSH1 0x0 DUP1 MLOAD PUSH1 0x20 PUSH3 0x49F9 DUP4 CODECOPY DUP2 MLOAD SWAP2 MSTORE CALLER SWAP4 DUP1 LOG4 PUSH1 0x1 SWAP1 JUMP JUMPDEST PUSH1 0x1 PUSH1 0x1 PUSH1 0xA0 SHL SUB AND PUSH1 0x0 DUP2 DUP2 MSTORE PUSH32 0xFAF93C3D007E112089DC8351E013E6685EF67703975D0224B26FC45941D4F1F5 PUSH1 0x20 MSTORE PUSH1 0x40 DUP2 KECCAK256 SLOAD SWAP1 SWAP2 SWAP1 PUSH32 0xE2B7FB3B832174769106DAEBCFD6D1970523240DDA11281102DB9363B83B0DC4 SWAP1 PUSH1 0xFF AND PUSH3 0x2D7 JUMPI DUP1 DUP4 MSTORE DUP3 PUSH1 0x20 MSTORE PUSH1 0x40 DUP4 KECCAK256 DUP3 DUP5 MSTORE PUSH1 0x20 MSTORE PUSH1 0x40 DUP4 KECCAK256 PUSH1 0x1 PUSH1 0xFF NOT DUP3 SLOAD AND OR SWAP1 SSTORE PUSH1 0x0 DUP1 MLOAD PUSH1 0x20 PUSH3 0x49F9 DUP4 CODECOPY DUP2 MLOAD SWAP2 MSTORE CALLER SWAP4 DUP1 LOG4 PUSH1 0x1 SWAP1 JUMP INVALID PUSH1 0x80 PUSH1 0x40 MSTORE PUSH1 0x4 CALLDATASIZE LT ISZERO PUSH2 0x12 JUMPI PUSH1 0x0 DUP1 REVERT JUMPDEST PUSH1 0x0 CALLDATALOAD PUSH1 0xE0 SHR DUP1 PUSH4 0x13CF08B EQ PUSH2 0x3306 JUMPI DUP1 PUSH4 0x1FFC9A7 EQ PUSH2 0x32B0 JUMPI DUP1 PUSH4 0x2A251A3 EQ PUSH2 0x3292 JUMPI DUP1 PUSH4 0x7BD0265 EQ PUSH2 0x3257 JUMPI DUP1 PUSH4 0xAF4DA41 EQ PUSH2 0x322F JUMPI DUP1 PUSH4 0xD61B519 EQ PUSH2 0x311F JUMPI DUP1 PUSH4 0xE6C151C EQ PUSH2 0x30E1 JUMPI DUP1 PUSH4 0x19546F1A EQ PUSH2 0x30A3 JUMPI DUP1 PUSH4 0x1A8CBCAA EQ PUSH2 0x305A JUMPI DUP1 PUSH4 0x248A9CA3 EQ PUSH2 0x302B JUMPI DUP1 PUSH4 0x248BD471 EQ PUSH2 0x300E JUMPI DUP1 PUSH4 0x252F57D7 EQ PUSH2 0x1B72 JUMPI DUP1 PUSH4 0x2D0335AB EQ PUSH2 0x1416 JUMPI DUP1 PUSH4 0x2DCF0D73 EQ PUSH2 0x2B85 JUMPI DUP1 PUSH4 0x2F2FF15D EQ PUSH2 0x2B46 JUMPI DUP1 PUSH4 0x33B5E38E EQ PUSH2 0x2A54 JUMPI DUP1 PUSH4 0x364478E2 EQ PUSH2 0x25D3 JUMPI DUP1 PUSH4 0x3644E515 EQ PUSH2 0x2598 JUMPI DUP1 PUSH4 0x36568ABE EQ PUSH2 0x2551 JUMPI DUP1 PUSH4 0x3D8803E2 EQ PUSH2 0x3D7 JUMPI DUP1 PUSH4 0x42A7C614 EQ PUSH2 0x1411 JUMPI DUP1 PUSH4 0x43AE2695 EQ PUSH2 0x2528 JUMPI DUP1 PUSH4 0x49672B70 EQ PUSH2 0x250D JUMPI DUP1 PUSH4 0x4CE83CDB EQ PUSH2 0x1BC1 JUMPI DUP1 PUSH4 0x514C3D56 EQ PUSH2 0x1BA3 JUMPI DUP1 PUSH4 0x536F9F42 EQ PUSH2 0x1B77 JUMPI DUP1 PUSH4 0x5394C879 EQ PUSH2 0x1B72 JUMPI DUP1 PUSH4 0x5652077C EQ PUSH2 0x1A4D JUMPI DUP1 PUSH4 0x56781388 EQ PUSH2 0x182D JUMPI DUP1 PUSH4 0x5C7B264D EQ PUSH2 0x17F3 JUMPI DUP1 PUSH4 0x6213E5EA EQ PUSH2 0x165B JUMPI DUP1 PUSH4 0x637E54AC EQ PUSH2 0x1603 JUMPI DUP1 PUSH4 0x63F0C7FF EQ PUSH2 0x1450 JUMPI DUP1 PUSH4 0x7ECEBE00 EQ PUSH2 0x1416 JUMPI DUP1 PUSH4 0x808C4479 EQ PUSH2 0x1411 JUMPI DUP1 PUSH4 0x86522973 EQ PUSH2 0x13D6 JUMPI DUP1 PUSH4 0x872D1544 EQ PUSH2 0x134A JUMPI DUP1 PUSH4 0x8F61F4F5 EQ PUSH2 0x130F JUMPI DUP1 PUSH4 0x91D14854 EQ PUSH2 0x12C2 JUMPI DUP1 PUSH4 0x9207891D EQ PUSH2 0x12A4 JUMPI DUP1 PUSH4 0x926D7D7F EQ PUSH2 0x1269 JUMPI DUP1 PUSH4 0x9B699E57 EQ PUSH2 0xB4D JUMPI DUP1 PUSH4 0x9C4E99CA EQ PUSH2 0xB2F JUMPI DUP1 PUSH4 0x9D79A9EB EQ PUSH2 0x9F6 JUMPI DUP1 PUSH4 0xA217FDDF EQ PUSH2 0x9DA JUMPI DUP1 PUSH4 0xAC2F0074 EQ PUSH2 0x8A9 JUMPI DUP1 PUSH4 0xB277D02A EQ PUSH2 0x88C JUMPI DUP1 PUSH4 0xBC3F931F EQ PUSH2 0x7EE JUMPI DUP1 PUSH4 0xBCD77A24 EQ PUSH2 0x7C6 JUMPI DUP1 PUSH4 0xC3B028E2 EQ PUSH2 0x79A JUMPI DUP1 PUSH4 0xC7F758A8 EQ PUSH2 0x74D JUMPI DUP1 PUSH4 0xCAE35BA0 EQ PUSH2 0x6C2 JUMPI DUP1 PUSH4 0xD23254B4 EQ PUSH2 0x65F JUMPI DUP1 PUSH4 0xD547741F EQ PUSH2 0x61E JUMPI DUP1 PUSH4 0xDA35C664 EQ PUSH2 0x600 JUMPI DUP1 PUSH4 0xDD9DEB1B EQ PUSH2 0x5E2 JUMPI DUP1 PUSH4 0xDE1CF4AD EQ PUSH2 0x5A8 JUMPI DUP1 PUSH4 0xE0A8F6F5 EQ PUSH2 0x47E JUMPI DUP1 PUSH4 0xEA0217CF EQ PUSH2 0x3DC JUMPI DUP1 PUSH4 0xEAC3A6BD EQ PUSH2 0x3D7 JUMPI DUP1 PUSH4 0xECC52C04 EQ PUSH2 0x3AC JUMPI PUSH4 0xF43B8778 EQ PUSH2 0x2C6 JUMPI PUSH1 0x0 DUP1 REVERT JUMPDEST CALLVALUE PUSH2 0x3A7 JUMPI PUSH1 0x20 CALLDATASIZE PUSH1 0x3 NOT ADD SLT PUSH2 0x3A7 JUMPI PUSH1 0x4 CALLDATALOAD DUP1 PUSH1 0x0 MSTORE PUSH1 0xC PUSH1 0x20 MSTORE PUSH1 0x40 PUSH1 0x0 KECCAK256 PUSH1 0xA DUP2 ADD SWAP1 DUP2 SLOAD SWAP1 PUSH1 0xFF DUP3 AND PUSH1 0x3 DUP2 LT ISZERO PUSH2 0x391 JUMPI PUSH2 0x307 SWAP1 ISZERO PUSH2 0x405A JUMP JUMPDEST PUSH1 0x9 DUP2 ADD SLOAD TIMESTAMP LT PUSH2 0x357 JUMPI PUSH32 0x76254391687772340030BC79660C2D1E15DAD744F94894A52E52863B5FCA1115 SWAP3 PUSH1 0x1 PUSH1 0x40 SWAP4 PUSH1 0xFF NOT AND OR SWAP1 SSTORE PUSH1 0x7 PUSH1 0x6 DUP3 ADD SLOAD SWAP2 ADD SLOAD DUP3 MLOAD SWAP2 DUP3 MSTORE PUSH1 0x20 DUP3 ADD MSTORE LOG2 STOP JUMPDEST PUSH1 0x40 MLOAD PUSH3 0x461BCD PUSH1 0xE5 SHL DUP2 MSTORE PUSH1 0x20 PUSH1 0x4 DUP3 ADD MSTORE PUSH1 0x12 PUSH1 0x24 DUP3 ADD MSTORE PUSH18 0x141BDB1B081B9BDD08195B991959081E595D PUSH1 0x72 SHL PUSH1 0x44 DUP3 ADD MSTORE PUSH1 0x64 SWAP1 REVERT JUMPDEST PUSH4 0x4E487B71 PUSH1 0xE0 SHL PUSH1 0x0 MSTORE PUSH1 0x21 PUSH1 0x4 MSTORE PUSH1 0x24 PUSH1 0x0 REVERT JUMPDEST PUSH1 0x0 DUP1 REVERT JUMPDEST CALLVALUE PUSH2 0x3A7 JUMPI PUSH1 0x20 CALLDATASIZE PUSH1 0x3 NOT ADD SLT PUSH2 0x3A7 JUMPI PUSH1 0x20 PUSH2 0x3CF PUSH2 0x3CA PUSH2 0x374C JUMP JUMPDEST PUSH2 0x4098 JUMP JUMPDEST PUSH1 0x40 MLOAD SWAP1 DUP2 MSTORE RETURN JUMPDEST PUSH2 0x37DE JUMP JUMPDEST CALLVALUE PUSH2 0x3A7 JUMPI PUSH1 0x20 CALLDATASIZE PUSH1 0x3 NOT ADD SLT PUSH2 0x3A7 JUMPI PUSH1 0x4 CALLDATALOAD PUSH2 0x3F8 PUSH2 0x40CC JUMP JUMPDEST PUSH3 0x15180 DUP2 LT ISZERO DUP1 PUSH2 0x471 JUMPI JUMPDEST ISZERO PUSH2 0x43B JUMPI PUSH1 0x20 DUP2 PUSH32 0x651C77F42613A075437AA794C44471E3ABC3A661956A67AAEE165BB7396974AA SWAP3 PUSH1 0x4 SSTORE PUSH1 0x40 MLOAD SWAP1 DUP2 MSTORE LOG1 STOP JUMPDEST PUSH1 0x40 MLOAD PUSH3 0x461BCD PUSH1 0xE5 SHL DUP2 MSTORE PUSH1 0x20 PUSH1 0x4 DUP3 ADD MSTORE PUSH1 0xE PUSH1 0x24 DUP3 ADD MSTORE PUSH14 0x125B9D985B1A59081C195C9A5BD9 PUSH1 0x92 SHL PUSH1 0x44 DUP3 ADD MSTORE PUSH1 0x64 SWAP1 REVERT JUMPDEST POP PUSH3 0x278D00 DUP2 GT ISZERO PUSH2 0x405 JUMP JUMPDEST CALLVALUE PUSH2 0x3A7 JUMPI PUSH1 0x20 DUP1 PUSH1 0x3 NOT CALLDATASIZE ADD SLT PUSH2 0x3A7 JUMPI PUSH1 0x4 CALLDATALOAD SWAP1 DUP2 PUSH1 0x0 MSTORE PUSH1 0x6 DUP2 MSTORE PUSH1 0x40 PUSH1 0x0 KECCAK256 PUSH1 0x1 DUP1 PUSH1 0xA0 SHL SUB PUSH1 0x2 DUP3 ADD SLOAD AND CALLER EQ DUP1 ISZERO PUSH2 0x586 JUMPI JUMPDEST ISZERO PUSH2 0x550 JUMPI PUSH1 0xC ADD SWAP1 DUP2 SLOAD SWAP1 PUSH1 0xFF DUP3 AND PUSH1 0x6 DUP2 LT ISZERO PUSH2 0x391 JUMPI PUSH1 0x1 DUP2 EQ SWAP1 DUP2 ISZERO PUSH2 0x547 JUMPI JUMPDEST POP ISZERO PUSH2 0x513 JUMPI POP PUSH1 0xFF NOT AND PUSH1 0x5 OR SWAP1 SSTORE PUSH32 0x416E669C63D9A3A5E36EE7CC7E2104B8DB28CCD286AA18966E98FA230C73B08C PUSH1 0x0 DUP1 LOG2 STOP JUMPDEST PUSH1 0x64 SWAP1 PUSH1 0x40 MLOAD SWAP1 PUSH3 0x461BCD PUSH1 0xE5 SHL DUP3 MSTORE PUSH1 0x4 DUP3 ADD MSTORE PUSH1 0xD PUSH1 0x24 DUP3 ADD MSTORE PUSH13 0x10D85B9B9BDD0818D85B98D95B PUSH1 0x9A SHL PUSH1 0x44 DUP3 ADD MSTORE REVERT JUMPDEST SWAP1 POP ISZERO DUP6 PUSH2 0x4DC JUMP JUMPDEST PUSH1 0x40 MLOAD PUSH3 0x461BCD PUSH1 0xE5 SHL DUP2 MSTORE PUSH1 0x4 DUP2 ADD DUP4 SWAP1 MSTORE PUSH1 0xE PUSH1 0x24 DUP3 ADD MSTORE PUSH14 0x139BDD08185D5D1A1BDC9A5E9959 PUSH1 0x92 SHL PUSH1 0x44 DUP3 ADD MSTORE PUSH1 0x64 SWAP1 REVERT JUMPDEST POP PUSH1 0x0 DUP1 MSTORE PUSH1 0x0 DUP3 MSTORE PUSH1 0x40 PUSH1 0x0 KECCAK256 CALLER PUSH1 0x0 MSTORE DUP3 MSTORE PUSH1 0xFF PUSH1 0x40 PUSH1 0x0 KECCAK256 SLOAD AND PUSH2 0x4B7 JUMP JUMPDEST CALLVALUE PUSH2 0x3A7 JUMPI PUSH1 0x20 CALLDATASIZE PUSH1 0x3 NOT ADD SLT PUSH2 0x3A7 JUMPI PUSH1 0x1 PUSH1 0x1 PUSH1 0xA0 SHL SUB PUSH2 0x5C9 PUSH2 0x374C JUMP JUMPDEST AND PUSH1 0x0 MSTORE PUSH1 0xB PUSH1 0x20 MSTORE PUSH1 0x20 PUSH1 0x40 PUSH1 0x0 KECCAK256 SLOAD PUSH1 0x40 MLOAD SWAP1 DUP2 MSTORE RETURN JUMPDEST CALLVALUE PUSH2 0x3A7 JUMPI PUSH1 0x0 CALLDATASIZE PUSH1 0x3 NOT ADD SLT PUSH2 0x3A7 JUMPI PUSH1 0x20 PUSH1 0x5 SLOAD PUSH1 0x40 MLOAD SWAP1 DUP2 MSTORE RETURN JUMPDEST CALLVALUE PUSH2 0x3A7 JUMPI PUSH1 0x0 CALLDATASIZE PUSH1 0x3 NOT ADD SLT PUSH2 0x3A7 JUMPI PUSH1 0x20 PUSH1 0x7 SLOAD PUSH1 0x40 MLOAD SWAP1 DUP2 MSTORE RETURN JUMPDEST CALLVALUE PUSH2 0x3A7 JUMPI PUSH1 0x40 CALLDATASIZE PUSH1 0x3 NOT ADD SLT PUSH2 0x3A7 JUMPI PUSH2 0x65D PUSH1 0x4 CALLDATALOAD PUSH2 0x63D PUSH2 0x3762 JUMP JUMPDEST SWAP1 DUP1 PUSH1 0x0 MSTORE PUSH1 0x0 PUSH1 0x20 MSTORE PUSH2 0x658 PUSH1 0x1 PUSH1 0x40 PUSH1 0x0 KECCAK256 ADD SLOAD PUSH2 0x4162 JUMP JUMPDEST PUSH2 0x4353 JUMP JUMPDEST STOP JUMPDEST CALLVALUE PUSH2 0x3A7 JUMPI PUSH1 0x40 CALLDATASIZE PUSH1 0x3 NOT ADD SLT PUSH2 0x3A7 JUMPI PUSH2 0x678 PUSH2 0x3762 JUMP JUMPDEST PUSH1 0x4 CALLDATALOAD PUSH1 0x0 MSTORE PUSH1 0x8 PUSH1 0x20 MSTORE PUSH1 0x40 PUSH1 0x0 KECCAK256 SWAP1 PUSH1 0x1 DUP1 PUSH1 0xA0 SHL SUB AND PUSH1 0x0 MSTORE PUSH1 0x20 MSTORE PUSH1 0x60 PUSH1 0x40 PUSH1 0x0 KECCAK256 PUSH1 0x1 DUP2 SLOAD SWAP2 ADD SLOAD PUSH1 0xFF PUSH1 0x40 MLOAD SWAP3 DUP2 DUP2 AND ISZERO ISZERO DUP5 MSTORE PUSH1 0x8 SHR AND PUSH1 0x20 DUP4 ADD MSTORE PUSH1 0x40 DUP3 ADD MSTORE RETURN JUMPDEST CALLVALUE PUSH2 0x3A7 JUMPI PUSH1 0x20 CALLDATASIZE PUSH1 0x3 NOT ADD SLT PUSH2 0x3A7 JUMPI PUSH1 0x4 CALLDATALOAD PUSH1 0x4 DUP2 LT ISZERO PUSH2 0x3A7 JUMPI PUSH2 0x6E8 DUP2 PUSH2 0x35ED JUMP JUMPDEST PUSH1 0x0 SWAP1 DUP2 MSTORE PUSH1 0x10 PUSH1 0x20 MSTORE PUSH1 0x40 SWAP1 KECCAK256 SLOAD PUSH1 0x12 SLOAD SWAP1 DUP2 ISZERO PUSH2 0x742 JUMPI PUSH2 0x2710 DUP1 DUP3 MUL SWAP1 DUP3 DUP3 DIV EQ DUP3 ISZERO OR ISZERO PUSH2 0x72C JUMPI PUSH1 0x40 SWAP3 PUSH2 0x720 SWAP2 PUSH2 0x38FF JUMP JUMPDEST DUP3 MLOAD SWAP2 DUP3 MSTORE PUSH1 0x20 DUP3 ADD MSTORE RETURN JUMPDEST PUSH4 0x4E487B71 PUSH1 0xE0 SHL PUSH1 0x0 MSTORE PUSH1 0x11 PUSH1 0x4 MSTORE PUSH1 0x24 PUSH1 0x0 REVERT JUMPDEST PUSH1 0x40 SWAP2 POP PUSH1 0x0 PUSH2 0x720 JUMP JUMPDEST CALLVALUE PUSH2 0x3A7 JUMPI PUSH1 0x20 CALLDATASIZE PUSH1 0x3 NOT ADD SLT PUSH2 0x3A7 JUMPI PUSH2 0x766 PUSH2 0x3E82 JUMP JUMPDEST POP PUSH1 0x4 CALLDATALOAD PUSH1 0x0 MSTORE PUSH1 0x6 PUSH1 0x20 MSTORE PUSH2 0x796 PUSH2 0x782 PUSH1 0x40 PUSH1 0x0 KECCAK256 PUSH2 0x3F04 JUMP JUMPDEST PUSH1 0x40 MLOAD SWAP2 DUP3 SWAP2 PUSH1 0x20 DUP4 MSTORE PUSH1 0x20 DUP4 ADD SWAP1 PUSH2 0x3818 JUMP JUMPDEST SUB SWAP1 RETURN JUMPDEST CALLVALUE PUSH2 0x3A7 JUMPI PUSH1 0x20 CALLDATASIZE PUSH1 0x3 NOT ADD SLT PUSH2 0x3A7 JUMPI PUSH1 0x4 CALLDATALOAD PUSH1 0x0 MSTORE PUSH1 0xF PUSH1 0x20 MSTORE PUSH1 0x20 PUSH1 0x40 PUSH1 0x0 KECCAK256 SLOAD PUSH1 0x40 MLOAD SWAP1 DUP2 MSTORE RETURN JUMPDEST CALLVALUE PUSH2 0x3A7 JUMPI PUSH1 0x20 CALLDATASIZE PUSH1 0x3 NOT ADD SLT PUSH2 0x3A7 JUMPI PUSH1 0x4 CALLDATALOAD PUSH1 0x4 DUP2 LT ISZERO PUSH2 0x3A7 JUMPI PUSH2 0x3CF PUSH1 0x20 SWAP2 PUSH2 0x43C8 JUMP JUMPDEST CALLVALUE PUSH2 0x3A7 JUMPI PUSH1 0x40 CALLDATASIZE PUSH1 0x3 NOT ADD SLT PUSH2 0x3A7 JUMPI PUSH2 0x807 PUSH2 0x3762 JUMP JUMPDEST PUSH1 0x0 PUSH1 0x40 DUP1 MLOAD PUSH2 0x816 DUP2 PUSH2 0x3596 JUMP JUMPDEST DUP3 DUP2 MSTORE DUP3 PUSH1 0x20 DUP3 ADD MSTORE ADD MSTORE PUSH1 0x4 CALLDATALOAD PUSH1 0x0 MSTORE PUSH1 0x8 PUSH1 0x20 MSTORE PUSH1 0x40 PUSH1 0x0 KECCAK256 SWAP1 PUSH1 0x1 DUP1 PUSH1 0xA0 SHL SUB AND PUSH1 0x0 MSTORE PUSH1 0x20 MSTORE PUSH1 0x60 PUSH1 0x40 PUSH1 0x0 KECCAK256 PUSH1 0x40 MLOAD PUSH2 0x853 DUP2 PUSH2 0x3596 JUMP JUMPDEST PUSH1 0xFF DUP3 SLOAD PUSH1 0x40 PUSH1 0x1 DUP4 DUP4 AND ISZERO ISZERO SWAP6 DUP7 DUP7 MSTORE DUP5 PUSH1 0x20 DUP8 ADD SWAP5 PUSH1 0x8 SHR AND DUP5 MSTORE ADD SLOAD SWAP4 ADD SWAP3 DUP4 MSTORE PUSH1 0x40 MLOAD SWAP4 DUP5 MSTORE MLOAD AND PUSH1 0x20 DUP4 ADD MSTORE MLOAD PUSH1 0x40 DUP3 ADD MSTORE RETURN JUMPDEST CALLVALUE PUSH2 0x3A7 JUMPI PUSH1 0x0 CALLDATASIZE PUSH1 0x3 NOT ADD SLT PUSH2 0x3A7 JUMPI PUSH1 0x20 PUSH1 0x40 MLOAD PUSH2 0x7D0 DUP2 MSTORE RETURN JUMPDEST CALLVALUE PUSH2 0x3A7 JUMPI PUSH1 0x20 CALLDATASIZE PUSH1 0x3 NOT ADD SLT PUSH2 0x3A7 JUMPI PUSH1 0x4 CALLDATALOAD PUSH1 0x0 MSTORE PUSH1 0xC PUSH1 0x20 MSTORE PUSH1 0x40 PUSH1 0x0 KECCAK256 DUP1 SLOAD SWAP1 PUSH1 0x1 DUP2 ADD SLOAD SWAP1 PUSH1 0x1 PUSH1 0xA0 SHL PUSH1 0x1 SWAP1 SUB PUSH1 0x2 DUP3 ADD SLOAD AND SWAP3 PUSH1 0x40 MLOAD SWAP2 DUP3 DUP1 PUSH1 0x3 DUP4 ADD SWAP1 PUSH2 0x8F7 SWAP2 PUSH2 0x34C8 JUMP JUMPDEST SUB PUSH2 0x902 SWAP1 DUP5 PUSH2 0x35CC JUMP JUMPDEST PUSH1 0x40 MLOAD SWAP3 DUP4 PUSH2 0x914 DUP2 PUSH1 0x4 DUP6 ADD PUSH2 0x34C8 JUMP JUMPDEST SUB PUSH2 0x91F SWAP1 DUP6 PUSH2 0x35CC JUMP JUMPDEST PUSH1 0x40 MLOAD SWAP4 DUP5 PUSH2 0x931 DUP2 PUSH1 0x5 DUP7 ADD PUSH2 0x34C8 JUMP JUMPDEST SUB PUSH2 0x93C SWAP1 DUP7 PUSH2 0x35CC JUMP JUMPDEST PUSH1 0x6 DUP4 ADD SLOAD SWAP5 PUSH1 0x7 DUP5 ADD SLOAD SWAP1 PUSH1 0x8 DUP6 ADD SLOAD SWAP3 PUSH1 0x9 DUP7 ADD SLOAD SWAP5 PUSH1 0xA DUP8 ADD SLOAD PUSH1 0xFF AND SWAP7 PUSH1 0xB ADD SLOAD SWAP8 PUSH1 0x40 MLOAD SWAP12 DUP13 SWAP12 PUSH2 0x180 SWAP3 DUP14 MSTORE PUSH1 0x20 DUP14 ADD MSTORE PUSH1 0x40 DUP13 ADD MSTORE DUP1 PUSH1 0x60 DUP13 ADD MSTORE DUP11 ADD PUSH2 0x989 SWAP2 PUSH2 0x35F7 JUMP JUMPDEST DUP10 DUP2 SUB PUSH1 0x80 DUP12 ADD MSTORE PUSH2 0x99A SWAP2 PUSH2 0x35F7 JUMP JUMPDEST DUP9 DUP2 SUB PUSH1 0xA0 DUP11 ADD MSTORE PUSH2 0x9AB SWAP2 PUSH2 0x35F7 JUMP JUMPDEST SWAP6 PUSH1 0xC0 DUP9 ADD MSTORE PUSH1 0xE0 DUP8 ADD MSTORE PUSH2 0x100 DUP7 ADD MSTORE PUSH2 0x120 DUP6 ADD MSTORE PUSH2 0x140 DUP5 ADD PUSH2 0x9D0 SWAP2 PUSH2 0x3672 JUMP JUMPDEST PUSH2 0x160 DUP4 ADD MSTORE SUB SWAP1 RETURN JUMPDEST CALLVALUE PUSH2 0x3A7 JUMPI PUSH1 0x0 CALLDATASIZE PUSH1 0x3 NOT ADD SLT PUSH2 0x3A7 JUMPI PUSH1 0x20 PUSH1 0x40 MLOAD PUSH1 0x0 DUP2 MSTORE RETURN JUMPDEST CALLVALUE PUSH2 0x3A7 JUMPI PUSH1 0x40 CALLDATASIZE PUSH1 0x3 NOT ADD SLT PUSH2 0x3A7 JUMPI PUSH1 0x4 CALLDATALOAD PUSH1 0x24 CALLDATALOAD SWAP1 DUP2 ISZERO ISZERO SWAP2 DUP3 DUP2 SUB PUSH2 0x3A7 JUMPI DUP2 PUSH1 0x0 MSTORE PUSH1 0x20 SWAP1 PUSH1 0xC DUP3 MSTORE PUSH1 0x40 PUSH1 0x0 KECCAK256 SWAP1 PUSH1 0xFF PUSH1 0xA DUP4 ADD SLOAD AND PUSH1 0x3 DUP2 LT ISZERO PUSH2 0x391 JUMPI PUSH2 0xA45 SWAP1 ISZERO PUSH2 0x405A JUMP JUMPDEST PUSH1 0x9 DUP3 ADD SLOAD TIMESTAMP LT ISZERO PUSH2 0xAFD JUMPI SWAP1 PUSH32 0xDF13CE4FCC43C19A08DF4FFA6D471AE7BB1D6FFC3BEB528AD821C873F798CE2F SWAP3 SWAP2 DUP5 PUSH1 0x0 MSTORE PUSH1 0xE DUP4 MSTORE PUSH1 0x40 PUSH1 0x0 KECCAK256 CALLER PUSH1 0x0 MSTORE DUP4 MSTORE PUSH1 0x40 PUSH1 0x0 KECCAK256 PUSH1 0x1 DUP2 SLOAD PUSH2 0xA9E PUSH1 0xFF DUP3 AND ISZERO PUSH2 0x3C27 JUMP JUMPDEST PUSH2 0xFF00 DUP10 PUSH1 0x8 SHL AND SWAP1 PUSH2 0xFFFF NOT AND OR OR SWAP1 SSTORE DUP5 PUSH1 0x0 MSTORE PUSH1 0xF DUP4 MSTORE PUSH1 0x40 PUSH1 0x0 KECCAK256 PUSH2 0xAC7 DUP2 SLOAD PUSH2 0x3C63 JUMP JUMPDEST SWAP1 SSTORE ISZERO PUSH2 0xAE9 JUMPI PUSH1 0x6 ADD PUSH2 0xADB DUP2 SLOAD PUSH2 0x3C63 JUMP JUMPDEST SWAP1 SSTORE JUMPDEST PUSH1 0x40 MLOAD SWAP4 DUP5 MSTORE CALLER SWAP4 LOG3 STOP JUMPDEST PUSH1 0x7 ADD PUSH2 0xAF6 DUP2 SLOAD PUSH2 0x3C63 JUMP JUMPDEST SWAP1 SSTORE PUSH2 0xADE JUMP JUMPDEST PUSH1 0x40 MLOAD PUSH3 0x461BCD PUSH1 0xE5 SHL DUP2 MSTORE PUSH1 0x4 DUP2 ADD DUP5 SWAP1 MSTORE PUSH1 0xA PUSH1 0x24 DUP3 ADD MSTORE PUSH10 0x141BDB1B08195B991959 PUSH1 0xB2 SHL PUSH1 0x44 DUP3 ADD MSTORE PUSH1 0x64 SWAP1 REVERT JUMPDEST CALLVALUE PUSH2 0x3A7 JUMPI PUSH1 0x20 CALLDATASIZE PUSH1 0x3 NOT ADD SLT PUSH2 0x3A7 JUMPI PUSH1 0x20 PUSH2 0x3CF PUSH1 0x4 CALLDATALOAD PUSH2 0x4010 JUMP JUMPDEST CALLVALUE PUSH2 0x3A7 JUMPI PUSH1 0xC0 CALLDATASIZE PUSH1 0x3 NOT ADD SLT PUSH2 0x3A7 JUMPI PUSH1 0x4 PUSH1 0x24 CALLDATALOAD LT ISZERO PUSH2 0x3A7 JUMPI PUSH1 0x44 CALLDATALOAD PUSH1 0x1 PUSH1 0x1 PUSH1 0x40 SHL SUB DUP2 GT PUSH2 0x3A7 JUMPI PUSH2 0xB88 SWAP1 CALLDATASIZE SWAP1 PUSH1 0x4 ADD PUSH2 0x3788 JUMP JUMPDEST PUSH1 0x64 CALLDATALOAD PUSH1 0x1 PUSH1 0x1 PUSH1 0x40 SHL SUB DUP2 GT PUSH2 0x3A7 JUMPI PUSH2 0xBA7 SWAP1 CALLDATASIZE SWAP1 PUSH1 0x4 ADD PUSH2 0x3788 JUMP JUMPDEST SWAP1 PUSH1 0x84 CALLDATALOAD PUSH1 0x1 PUSH1 0x1 PUSH1 0x40 SHL SUB DUP2 GT PUSH2 0x3A7 JUMPI PUSH2 0xBC7 SWAP1 CALLDATASIZE SWAP1 PUSH1 0x4 ADD PUSH2 0x3788 JUMP JUMPDEST SWAP1 PUSH1 0xA4 CALLDATALOAD PUSH1 0x1 PUSH1 0x1 PUSH1 0x40 SHL SUB DUP2 GT PUSH2 0x3A7 JUMPI PUSH2 0xBE7 SWAP1 CALLDATASIZE SWAP1 PUSH1 0x4 ADD PUSH2 0x3788 JUMP JUMPDEST PUSH2 0xBEF PUSH2 0x4106 JUMP JUMPDEST PUSH1 0x2 SLOAD PUSH1 0x40 MLOAD PUSH4 0x6DED6A19 PUSH1 0xE1 SHL DUP2 MSTORE PUSH1 0x4 DUP1 CALLDATALOAD SWAP1 DUP3 ADD MSTORE CALLER PUSH1 0x24 DUP3 ADD MSTORE PUSH1 0x1 PUSH1 0x1 PUSH1 0xA0 SHL SUB SWAP1 SWAP2 AND SWAP1 PUSH1 0x20 DUP2 PUSH1 0x44 DUP2 DUP6 GAS STATICCALL DUP1 ISZERO PUSH2 0x1229 JUMPI PUSH1 0x0 SWAP1 PUSH2 0x1235 JUMPI JUMPDEST PUSH2 0xC3C SWAP2 POP ISZERO ISZERO PUSH2 0x3E1F JUMP JUMPDEST PUSH1 0x7 SLOAD SWAP4 PUSH2 0xC49 DUP6 PUSH2 0x3C63 JUMP JUMPDEST PUSH1 0x7 SSTORE PUSH1 0x24 PUSH1 0x20 PUSH2 0xC5A DUP3 CALLDATALOAD PUSH2 0x43C8 JUMP JUMPDEST SWAP4 PUSH1 0x40 MLOAD SWAP3 DUP4 DUP1 SWAP3 PUSH4 0x8CDC1E87 PUSH1 0xE0 SHL DUP3 MSTORE PUSH1 0x4 CALLDATALOAD PUSH1 0x4 DUP4 ADD MSTORE GAS STATICCALL SWAP1 DUP2 ISZERO PUSH2 0x1229 JUMPI PUSH1 0x0 SWAP2 PUSH2 0x11F7 JUMPI JUMPDEST POP DUP1 ISZERO PUSH2 0x11A1 JUMPI DUP6 PUSH1 0x0 MSTORE PUSH1 0x9 PUSH1 0x20 MSTORE PUSH1 0x40 PUSH1 0x0 KECCAK256 SSTORE PUSH2 0xCA7 PUSH1 0x4 SLOAD TIMESTAMP PUSH2 0x3CB0 JUMP JUMPDEST SWAP1 PUSH1 0x40 MLOAD SWAP7 PUSH2 0xCB5 DUP9 PUSH2 0x357A JUMP JUMPDEST DUP7 DUP9 MSTORE PUSH1 0x4 CALLDATALOAD PUSH1 0x20 DUP10 ADD MSTORE CALLER PUSH1 0x40 DUP10 ADD MSTORE PUSH2 0xCD1 PUSH1 0x24 CALLDATALOAD PUSH2 0x35ED JUMP JUMPDEST PUSH1 0x24 CALLDATALOAD PUSH1 0x60 DUP10 ADD MSTORE DUP6 PUSH1 0x80 DUP10 ADD MSTORE PUSH1 0xA0 DUP9 ADD MSTORE PUSH1 0xC0 DUP8 ADD MSTORE PUSH1 0x0 PUSH1 0xE0 DUP8 ADD MSTORE PUSH1 0x0 PUSH2 0x100 DUP8 ADD MSTORE PUSH1 0x0 PUSH2 0x120 DUP8 ADD MSTORE TIMESTAMP PUSH2 0x140 DUP8 ADD MSTORE PUSH2 0x160 DUP7 ADD MSTORE PUSH2 0x180 DUP6 ADD MSTORE PUSH1 0x1 PUSH2 0x1A0 DUP6 ADD MSTORE PUSH2 0x1C0 DUP5 ADD MSTORE DUP2 PUSH1 0x0 MSTORE PUSH1 0x6 PUSH1 0x20 MSTORE PUSH1 0x40 PUSH1 0x0 KECCAK256 DUP4 MLOAD DUP2 SSTORE PUSH1 0x20 DUP5 ADD MLOAD PUSH1 0x1 DUP3 ADD SSTORE PUSH1 0x2 DUP2 ADD PUSH1 0x1 DUP1 PUSH1 0xA0 SHL SUB PUSH1 0x40 DUP7 ADD MLOAD AND DUP2 SLOAD SWAP1 PUSH1 0x60 DUP8 ADD MLOAD PUSH2 0xD5F DUP2 PUSH2 0x35ED JUMP JUMPDEST PUSH2 0xD68 DUP2 PUSH2 0x35ED JUMP JUMPDEST PUSH1 0x1 PUSH1 0x1 PUSH1 0xA8 SHL SUB NOT SWAP1 SWAP3 AND OR PUSH1 0xA0 SWAP2 SWAP1 SWAP2 SHL PUSH1 0xFF PUSH1 0xA0 SHL AND OR SWAP1 SSTORE PUSH1 0x80 DUP5 ADD MLOAD DUP1 MLOAD SWAP1 PUSH1 0x1 PUSH1 0x1 PUSH1 0x40 SHL SUB DUP3 GT PUSH2 0x1035 JUMPI PUSH2 0xDB4 DUP3 PUSH2 0xDAB PUSH1 0x3 DUP7 ADD SLOAD PUSH2 0x348E JUMP JUMPDEST PUSH1 0x3 DUP7 ADD PUSH2 0x3CBD JUMP JUMPDEST PUSH1 0x20 SWAP1 PUSH1 0x1F DUP4 GT PUSH1 0x1 EQ PUSH2 0x112F JUMPI PUSH2 0xDE5 SWAP3 SWAP2 PUSH1 0x0 SWAP2 DUP4 PUSH2 0xFC4 JUMPI JUMPDEST POP POP DUP2 PUSH1 0x1 SHL SWAP2 PUSH1 0x0 NOT SWAP1 PUSH1 0x3 SHL SHR NOT AND OR SWAP1 JUMP JUMPDEST PUSH1 0x3 DUP3 ADD SSTORE JUMPDEST PUSH1 0xA0 DUP5 ADD MLOAD DUP1 MLOAD SWAP1 PUSH1 0x1 PUSH1 0x1 PUSH1 0x40 SHL SUB DUP3 GT PUSH2 0x1035 JUMPI PUSH2 0xE1B DUP3 PUSH2 0xE12 PUSH1 0x4 DUP7 ADD SLOAD PUSH2 0x348E JUMP JUMPDEST PUSH1 0x4 DUP7 ADD PUSH2 0x3CBD JUMP JUMPDEST PUSH1 0x20 SWAP1 PUSH1 0x1F DUP4 GT PUSH1 0x1 EQ PUSH2 0x10BD JUMPI PUSH2 0xE4B SWAP3 SWAP2 PUSH1 0x0 SWAP2 DUP4 PUSH2 0xFC4 JUMPI POP POP DUP2 PUSH1 0x1 SHL SWAP2 PUSH1 0x0 NOT SWAP1 PUSH1 0x3 SHL SHR NOT AND OR SWAP1 JUMP JUMPDEST PUSH1 0x4 DUP3 ADD SSTORE JUMPDEST PUSH1 0xC0 DUP5 ADD MLOAD DUP1 MLOAD SWAP1 PUSH1 0x1 PUSH1 0x1 PUSH1 0x40 SHL SUB DUP3 GT PUSH2 0x1035 JUMPI PUSH2 0xE81 DUP3 PUSH2 0xE78 PUSH1 0x5 DUP7 ADD SLOAD PUSH2 0x348E JUMP JUMPDEST PUSH1 0x5 DUP7 ADD PUSH2 0x3CBD JUMP JUMPDEST PUSH1 0x20 SWAP1 PUSH1 0x1F DUP4 GT PUSH1 0x1 EQ PUSH2 0x104B JUMPI PUSH2 0xEB1 SWAP3 SWAP2 PUSH1 0x0 SWAP2 DUP4 PUSH2 0xFC4 JUMPI POP POP DUP2 PUSH1 0x1 SHL SWAP2 PUSH1 0x0 NOT SWAP1 PUSH1 0x3 SHL SHR NOT AND OR SWAP1 JUMP JUMPDEST PUSH1 0x5 DUP3 ADD SSTORE JUMPDEST PUSH1 0xE0 DUP5 ADD MLOAD PUSH1 0x6 DUP3 ADD SSTORE PUSH2 0x100 DUP5 ADD MLOAD PUSH1 0x7 DUP3 ADD SSTORE PUSH2 0x120 DUP5 ADD MLOAD PUSH1 0x8 DUP3 ADD SSTORE PUSH2 0x140 DUP5 ADD MLOAD PUSH1 0x9 DUP3 ADD SSTORE PUSH2 0x160 DUP5 ADD MLOAD PUSH1 0xA DUP3 ADD SSTORE PUSH2 0x180 DUP5 ADD MLOAD PUSH1 0xB DUP3 ADD SSTORE PUSH2 0x1A0 DUP5 ADD MLOAD PUSH1 0x6 DUP2 LT ISZERO PUSH2 0x391 JUMPI DUP2 PUSH2 0xF1A PUSH1 0xD SWAP3 PUSH1 0xC PUSH2 0x1C0 SWAP6 ADD PUSH2 0x39EC JUMP JUMPDEST ADD SWAP4 ADD MLOAD SWAP3 DUP4 MLOAD PUSH1 0x1 PUSH1 0x1 PUSH1 0x40 SHL SUB DUP2 GT PUSH2 0x1035 JUMPI PUSH1 0x20 SWAP5 PUSH2 0xF46 DUP3 PUSH2 0xF40 DUP6 SLOAD PUSH2 0x348E JUMP JUMPDEST DUP6 PUSH2 0x3CBD JUMP JUMPDEST DUP6 SWAP1 PUSH1 0x1F DUP4 GT PUSH1 0x1 EQ PUSH2 0xFCF JUMPI PUSH2 0xF75 SWAP3 SWAP2 PUSH1 0x0 SWAP2 DUP4 PUSH2 0xFC4 JUMPI POP POP DUP2 PUSH1 0x1 SHL SWAP2 PUSH1 0x0 NOT SWAP1 PUSH1 0x3 SHL SHR NOT AND OR SWAP1 JUMP JUMPDEST SWAP1 SSTORE JUMPDEST DUP2 PUSH1 0x0 DUP1 MLOAD PUSH1 0x20 PUSH2 0x458D DUP4 CODECOPY DUP2 MLOAD SWAP2 MSTORE PUSH1 0x40 MLOAD CALLER DUP2 MSTORE PUSH2 0xF99 PUSH1 0x24 CALLDATALOAD PUSH2 0x35ED JUMP JUMPDEST PUSH1 0x24 CALLDATALOAD DUP7 DUP3 ADD MSTORE PUSH1 0x60 PUSH1 0x40 DUP3 ADD MSTORE DUP1 PUSH2 0xFB9 PUSH1 0x4 CALLDATALOAD SWAP6 PUSH1 0x60 DUP4 ADD SWAP1 PUSH2 0x35F7 JUMP JUMPDEST SUB SWAP1 LOG3 PUSH1 0x40 MLOAD SWAP1 DUP2 MSTORE RETURN JUMPDEST ADD MLOAD SWAP1 POP DUP8 DUP1 PUSH2 0xDD0 JUMP JUMPDEST SWAP1 PUSH1 0x1F NOT DUP4 AND SWAP2 DUP5 PUSH1 0x0 MSTORE DUP8 PUSH1 0x0 KECCAK256 SWAP3 PUSH1 0x0 JUMPDEST DUP2 DUP2 LT PUSH2 0x101E JUMPI POP SWAP1 DUP5 PUSH1 0x1 SWAP6 SWAP5 SWAP4 SWAP3 LT PUSH2 0x1005 JUMPI JUMPDEST POP POP POP DUP2 SHL ADD SWAP1 SSTORE PUSH2 0xF78 JUMP JUMPDEST ADD MLOAD PUSH1 0x0 NOT PUSH1 0xF8 DUP5 PUSH1 0x3 SHL AND SHR NOT AND SWAP1 SSTORE DUP7 DUP1 DUP1 PUSH2 0xFF8 JUMP JUMPDEST SWAP3 SWAP4 DUP10 PUSH1 0x1 DUP2 SWAP3 DUP8 DUP7 ADD MLOAD DUP2 SSTORE ADD SWAP6 ADD SWAP4 ADD PUSH2 0xFE2 JUMP JUMPDEST PUSH4 0x4E487B71 PUSH1 0xE0 SHL PUSH1 0x0 MSTORE PUSH1 0x41 PUSH1 0x4 MSTORE PUSH1 0x24 PUSH1 0x0 REVERT JUMPDEST SWAP2 SWAP1 PUSH1 0x5 DUP5 ADD PUSH1 0x0 MSTORE PUSH1 0x20 PUSH1 0x0 KECCAK256 SWAP1 PUSH1 0x0 SWAP4 JUMPDEST PUSH1 0x1F NOT DUP5 AND DUP6 LT PUSH2 0x10A2 JUMPI PUSH1 0x1 SWAP5 POP DUP4 PUSH1 0x1F NOT DUP2 AND LT PUSH2 0x1089 JUMPI JUMPDEST POP POP POP DUP2 SHL ADD PUSH1 0x5 DUP3 ADD SSTORE PUSH2 0xEB7 JUMP JUMPDEST ADD MLOAD PUSH1 0x0 NOT PUSH1 0xF8 DUP5 PUSH1 0x3 SHL AND SHR NOT AND SWAP1 SSTORE DUP7 DUP1 DUP1 PUSH2 0x1079 JUMP JUMPDEST DUP2 DUP2 ADD MLOAD DUP4 SSTORE PUSH1 0x20 SWAP5 DUP6 ADD SWAP5 PUSH1 0x1 SWAP1 SWAP4 ADD SWAP3 SWAP1 SWAP2 ADD SWAP1 PUSH2 0x105E JUMP JUMPDEST SWAP2 SWAP1 PUSH1 0x4 DUP5 ADD PUSH1 0x0 MSTORE PUSH1 0x20 PUSH1 0x0 KECCAK256 SWAP1 PUSH1 0x0 SWAP4 JUMPDEST PUSH1 0x1F NOT DUP5 AND DUP6 LT PUSH2 0x1114 JUMPI PUSH1 0x1 SWAP5 POP DUP4 PUSH1 0x1F NOT DUP2 AND LT PUSH2 0x10FB JUMPI JUMPDEST POP POP POP DUP2 SHL ADD PUSH1 0x4 DUP3 ADD SSTORE PUSH2 0xE51 JUMP JUMPDEST ADD MLOAD PUSH1 0x0 NOT PUSH1 0xF8 DUP5 PUSH1 0x3 SHL AND SHR NOT AND SWAP1 SSTORE DUP7 DUP1 DUP1 PUSH2 0x10EB JUMP JUMPDEST DUP2 DUP2 ADD MLOAD DUP4 SSTORE PUSH1 0x20 SWAP5 DUP6 ADD SWAP5 PUSH1 0x1 SWAP1 SWAP4 ADD SWAP3 SWAP1 SWAP2 ADD SWAP1 PUSH2 0x10D0 JUMP JUMPDEST SWAP2 SWAP1 PUSH1 0x3 DUP5 ADD PUSH1 0x0 MSTORE PUSH1 0x20 PUSH1 0x0 KECCAK256 SWAP1 PUSH1 0x0 SWAP4 JUMPDEST PUSH1 0x1F NOT DUP5 AND DUP6 LT PUSH2 0x1186 JUMPI PUSH1 0x1 SWAP5 POP DUP4 PUSH1 0x1F NOT DUP2 AND LT PUSH2 0x116D JUMPI JUMPDEST POP POP POP DUP2 SHL ADD PUSH1 0x3 DUP3 ADD SSTORE PUSH2 0xDEB JUMP JUMPDEST ADD MLOAD PUSH1 0x0 NOT PUSH1 0xF8 DUP5 PUSH1 0x3 SHL AND SHR NOT AND SWAP1 SSTORE DUP7 DUP1 DUP1 PUSH2 0x115D JUMP JUMPDEST DUP2 DUP2 ADD MLOAD DUP4 SSTORE PUSH1 0x20 SWAP5 DUP6 ADD SWAP5 PUSH1 0x1 SWAP1 SWAP4 ADD SWAP3 SWAP1 SWAP2 ADD SWAP1 PUSH2 0x1142 JUMP JUMPDEST PUSH1 0x40 MLOAD PUSH3 0x461BCD PUSH1 0xE5 SHL DUP2 MSTORE PUSH1 0x20 PUSH1 0x4 DUP3 ADD MSTORE PUSH1 0x28 PUSH1 0x24 DUP3 ADD MSTORE PUSH32 0x4E6F20766F74696E6720706F7765722065786973747320666F72207468697320 PUSH1 0x44 DUP3 ADD MSTORE PUSH8 0x70726F7065727479 PUSH1 0xC0 SHL PUSH1 0x64 DUP3 ADD MSTORE PUSH1 0x84 SWAP1 REVERT JUMPDEST SWAP1 POP PUSH1 0x20 DUP2 RETURNDATASIZE PUSH1 0x20 GT PUSH2 0x1221 JUMPI JUMPDEST DUP2 PUSH2 0x1212 PUSH1 0x20 SWAP4 DUP4 PUSH2 0x35CC JUMP JUMPDEST DUP2 ADD SUB SLT PUSH2 0x3A7 JUMPI MLOAD DUP8 PUSH2 0xC85 JUMP JUMPDEST RETURNDATASIZE SWAP2 POP PUSH2 0x1205 JUMP JUMPDEST PUSH1 0x40 MLOAD RETURNDATASIZE PUSH1 0x0 DUP3 RETURNDATACOPY RETURNDATASIZE SWAP1 REVERT JUMPDEST POP PUSH1 0x20 DUP2 RETURNDATASIZE PUSH1 0x20 GT PUSH2 0x1261 JUMPI JUMPDEST DUP2 PUSH2 0x124F PUSH1 0x20 SWAP4 DUP4 PUSH2 0x35CC JUMP JUMPDEST DUP2 ADD SUB SLT PUSH2 0x3A7 JUMPI PUSH2 0xC3C SWAP1 MLOAD PUSH2 0xC30 JUMP JUMPDEST RETURNDATASIZE SWAP2 POP PUSH2 0x1242 JUMP JUMPDEST CALLVALUE PUSH2 0x3A7 JUMPI PUSH1 0x0 CALLDATASIZE PUSH1 0x3 NOT ADD SLT PUSH2 0x3A7 JUMPI PUSH1 0x20 PUSH1 0x40 MLOAD PUSH32 0xE2B7FB3B832174769106DAEBCFD6D1970523240DDA11281102DB9363B83B0DC4 DUP2 MSTORE RETURN JUMPDEST CALLVALUE PUSH2 0x3A7 JUMPI PUSH1 0x0 CALLDATASIZE PUSH1 0x3 NOT ADD SLT PUSH2 0x3A7 JUMPI PUSH1 0x20 PUSH1 0xD SLOAD PUSH1 0x40 MLOAD SWAP1 DUP2 MSTORE RETURN JUMPDEST CALLVALUE PUSH2 0x3A7 JUMPI PUSH1 0x40 CALLDATASIZE PUSH1 0x3 NOT ADD SLT PUSH2 0x3A7 JUMPI PUSH2 0x12DB PUSH2 0x3762 JUMP JUMPDEST PUSH1 0x4 CALLDATALOAD PUSH1 0x0 MSTORE PUSH1 0x0 PUSH1 0x20 MSTORE PUSH1 0x40 PUSH1 0x0 KECCAK256 SWAP1 PUSH1 0x1 DUP1 PUSH1 0xA0 SHL SUB AND PUSH1 0x0 MSTORE PUSH1 0x20 MSTORE PUSH1 0x20 PUSH1 0xFF PUSH1 0x40 PUSH1 0x0 KECCAK256 SLOAD AND PUSH1 0x40 MLOAD SWAP1 ISZERO ISZERO DUP2 MSTORE RETURN JUMPDEST CALLVALUE PUSH2 0x3A7 JUMPI PUSH1 0x0 CALLDATASIZE PUSH1 0x3 NOT ADD SLT PUSH2 0x3A7 JUMPI PUSH1 0x20 PUSH1 0x40 MLOAD PUSH32 0xB09AA5AEB3702CFD50B6B62BC4532604938F21248A27A1D5CA736082B6819CC1 DUP2 MSTORE RETURN JUMPDEST CALLVALUE PUSH2 0x3A7 JUMPI PUSH1 0x20 CALLDATASIZE PUSH1 0x3 NOT ADD SLT PUSH2 0x3A7 JUMPI PUSH1 0x4 CALLDATALOAD PUSH2 0x1366 PUSH2 0x40CC JUMP JUMPDEST PUSH2 0x1F4 DUP2 GT PUSH2 0x13A0 JUMPI PUSH1 0x20 DUP2 PUSH32 0x4ADE7322D9A0C41DC254574F72D3D442F06ADDCC77917DCB9CB1AC4441D1B20F SWAP3 PUSH1 0x5 SSTORE PUSH1 0x40 MLOAD SWAP1 DUP2 MSTORE LOG1 STOP JUMPDEST PUSH1 0x40 MLOAD PUSH3 0x461BCD PUSH1 0xE5 SHL DUP2 MSTORE PUSH1 0x20 PUSH1 0x4 DUP3 ADD MSTORE PUSH1 0xE PUSH1 0x24 DUP3 ADD MSTORE PUSH14 0x84DEDCEAE640E8DEDE40D0D2CED PUSH1 0x93 SHL PUSH1 0x44 DUP3 ADD MSTORE PUSH1 0x64 SWAP1 REVERT JUMPDEST CALLVALUE PUSH2 0x3A7 JUMPI PUSH1 0x0 CALLDATASIZE PUSH1 0x3 NOT ADD SLT PUSH2 0x3A7 JUMPI PUSH1 0x20 PUSH1 0x40 MLOAD PUSH32 0xA122AEDC7C2408A97BCFE5D8FF1F6A6D7BF779A8B6DD3D72FF503E8FCF9D2EB9 DUP2 MSTORE RETURN JUMPDEST PUSH2 0x37FB JUMP JUMPDEST CALLVALUE PUSH2 0x3A7 JUMPI PUSH1 0x20 CALLDATASIZE PUSH1 0x3 NOT ADD SLT PUSH2 0x3A7 JUMPI PUSH1 0x1 PUSH1 0x1 PUSH1 0xA0 SHL SUB PUSH2 0x1437 PUSH2 0x374C JUMP JUMPDEST AND PUSH1 0x0 MSTORE PUSH1 0x3 PUSH1 0x20 MSTORE PUSH1 0x20 PUSH1 0x40 PUSH1 0x0 KECCAK256 SLOAD PUSH1 0x40 MLOAD SWAP1 DUP2 MSTORE RETURN JUMPDEST CALLVALUE PUSH2 0x3A7 JUMPI PUSH1 0x20 DUP1 PUSH1 0x3 NOT CALLDATASIZE ADD SLT PUSH2 0x3A7 JUMPI PUSH1 0x4 CALLDATALOAD PUSH1 0x0 SWAP1 PUSH1 0x0 PUSH1 0xD SLOAD SWAP1 JUMPDEST DUP2 DUP2 LT PUSH2 0x15AD JUMPI POP PUSH2 0x1499 PUSH2 0x1483 DUP5 PUSH2 0x3E6B JUMP JUMPDEST SWAP4 PUSH2 0x1491 PUSH1 0x40 MLOAD SWAP6 DUP7 PUSH2 0x35CC JUMP JUMPDEST DUP1 DUP6 MSTORE PUSH2 0x3E6B JUMP JUMPDEST PUSH1 0x1F NOT ADD DUP5 PUSH1 0x0 JUMPDEST DUP3 DUP2 LT PUSH2 0x1597 JUMPI POP POP POP PUSH1 0x0 DUP1 JUMPDEST DUP3 DUP2 LT PUSH2 0x1514 JUMPI PUSH1 0x40 DUP1 MLOAD DUP8 DUP2 MSTORE DUP7 MLOAD DUP2 DUP10 ADD DUP2 SWAP1 MSTORE PUSH1 0x0 SWAP3 PUSH1 0x5 DUP3 SWAP1 SHL DUP4 ADD DUP2 ADD SWAP2 DUP10 DUP12 ADD SWAP2 DUP12 SWAP1 DUP6 ADD JUMPDEST DUP3 DUP8 LT PUSH2 0x14E8 JUMPI DUP6 DUP6 SUB DUP7 RETURN JUMPDEST SWAP1 SWAP2 SWAP3 SWAP4 DUP3 DUP1 PUSH2 0x1504 PUSH1 0x1 SWAP4 PUSH1 0x3F NOT DUP11 DUP3 SUB ADD DUP7 MSTORE DUP9 MLOAD PUSH2 0x367F JUMP JUMPDEST SWAP7 ADD SWAP3 ADD SWAP7 ADD SWAP6 SWAP3 SWAP2 SWAP1 SWAP3 PUSH2 0x14DB JUMP JUMPDEST DUP1 PUSH1 0x0 MSTORE PUSH1 0xC SWAP1 DUP2 DUP8 MSTORE PUSH1 0x40 PUSH1 0x0 KECCAK256 SWAP2 DUP6 PUSH1 0x1 DUP5 ADD SLOAD EQ DUP1 PUSH2 0x157A JUMPI JUMPDEST PUSH1 0x1 SWAP4 POP PUSH2 0x1541 JUMPI JUMPDEST POP ADD PUSH2 0x14AF JUMP JUMPDEST DUP2 PUSH1 0x0 MSTORE DUP8 MSTORE PUSH2 0x1573 PUSH1 0x40 PUSH1 0x0 KECCAK256 SWAP4 PUSH2 0x1562 PUSH2 0x155C DUP3 PUSH2 0x3C63 JUMP JUMPDEST SWAP6 PUSH2 0x3A60 JUMP JUMPDEST PUSH2 0x156C DUP3 DUP11 PUSH2 0x3EF0 JUMP JUMPDEST MSTORE DUP8 PUSH2 0x3EF0 JUMP JUMPDEST POP DUP8 PUSH2 0x153A JUMP JUMPDEST POP SWAP2 PUSH1 0xA PUSH1 0xFF SWAP2 ADD SLOAD AND SWAP2 PUSH1 0x3 DUP4 LT ISZERO PUSH2 0x391 JUMPI PUSH1 0x1 SWAP3 ISZERO PUSH2 0x1531 JUMP JUMPDEST PUSH2 0x159F PUSH2 0x3A04 JUMP JUMPDEST DUP3 DUP3 DUP9 ADD ADD MSTORE ADD DUP6 SWAP1 PUSH2 0x14A1 JUMP JUMPDEST DUP1 PUSH1 0x0 MSTORE PUSH1 0xC DUP6 MSTORE PUSH1 0x40 PUSH1 0x0 KECCAK256 DUP4 PUSH1 0x1 DUP3 ADD SLOAD EQ SWAP1 DUP2 PUSH2 0x15EA JUMPI JUMPDEST POP PUSH2 0x15D6 JUMPI JUMPDEST PUSH1 0x1 ADD PUSH2 0x146F JUMP JUMPDEST SWAP3 PUSH2 0x15E2 PUSH1 0x1 SWAP2 PUSH2 0x3C63 JUMP JUMPDEST SWAP4 SWAP1 POP PUSH2 0x15CE JUMP JUMPDEST PUSH1 0xFF SWAP2 POP PUSH1 0xA ADD SLOAD AND PUSH1 0x3 DUP2 LT ISZERO PUSH2 0x391 JUMPI ISZERO DUP7 PUSH2 0x15C8 JUMP JUMPDEST CALLVALUE PUSH2 0x3A7 JUMPI PUSH1 0x40 CALLDATASIZE PUSH1 0x3 NOT ADD SLT PUSH2 0x3A7 JUMPI PUSH2 0x161C PUSH2 0x3762 JUMP JUMPDEST PUSH1 0x4 CALLDATALOAD PUSH1 0x0 MSTORE PUSH1 0xE PUSH1 0x20 MSTORE PUSH1 0x40 PUSH1 0x0 KECCAK256 SWAP1 PUSH1 0x1 DUP1 PUSH1 0xA0 SHL SUB AND PUSH1 0x0 MSTORE PUSH1 0x20 MSTORE PUSH1 0x40 DUP1 PUSH1 0x0 KECCAK256 SLOAD PUSH1 0xFF DUP3 MLOAD SWAP2 DUP2 DUP2 AND ISZERO ISZERO DUP4 MSTORE PUSH1 0x8 SHR AND ISZERO ISZERO PUSH1 0x20 DUP3 ADD MSTORE RETURN JUMPDEST CALLVALUE PUSH2 0x3A7 JUMPI PUSH1 0x20 DUP1 PUSH1 0x3 NOT CALLDATASIZE ADD SLT PUSH2 0x3A7 JUMPI PUSH1 0x4 CALLDATALOAD PUSH1 0x0 SWAP1 PUSH1 0x0 PUSH1 0x7 SLOAD SWAP1 JUMPDEST DUP2 DUP2 LT PUSH2 0x1794 JUMPI POP PUSH2 0x168E PUSH2 0x1483 DUP5 PUSH2 0x3E6B JUMP JUMPDEST PUSH1 0x1F NOT ADD DUP5 PUSH1 0x0 JUMPDEST DUP3 DUP2 LT PUSH2 0x177E JUMPI POP POP POP PUSH1 0x0 DUP1 JUMPDEST DUP3 DUP2 LT PUSH2 0x1709 JUMPI PUSH1 0x40 DUP1 MLOAD DUP8 DUP2 MSTORE DUP7 MLOAD DUP2 DUP10 ADD DUP2 SWAP1 MSTORE PUSH1 0x0 SWAP3 PUSH1 0x5 DUP3 SWAP1 SHL DUP4 ADD DUP2 ADD SWAP2 DUP10 DUP12 ADD SWAP2 DUP12 SWAP1 DUP6 ADD JUMPDEST DUP3 DUP8 LT PUSH2 0x16DD JUMPI DUP6 DUP6 SUB DUP7 RETURN JUMPDEST SWAP1 SWAP2 SWAP3 SWAP4 DUP3 DUP1 PUSH2 0x16F9 PUSH1 0x1 SWAP4 PUSH1 0x3F NOT DUP11 DUP3 SUB ADD DUP7 MSTORE DUP9 MLOAD PUSH2 0x3818 JUMP JUMPDEST SWAP7 ADD SWAP3 ADD SWAP7 ADD SWAP6 SWAP3 SWAP2 SWAP1 SWAP3 PUSH2 0x16D0 JUMP JUMPDEST DUP1 PUSH1 0x0 MSTORE PUSH1 0x6 SWAP1 DUP2 DUP8 MSTORE PUSH1 0x40 PUSH1 0x0 KECCAK256 SWAP2 PUSH1 0x1 SWAP3 DUP7 DUP5 DUP3 ADD SLOAD EQ SWAP1 DUP2 PUSH2 0x1762 JUMPI JUMPDEST POP PUSH1 0x1 SWAP4 POP PUSH2 0x173A JUMPI JUMPDEST POP ADD PUSH2 0x16A4 JUMP JUMPDEST DUP2 PUSH1 0x0 MSTORE DUP8 MSTORE PUSH2 0x175B PUSH1 0x40 PUSH1 0x0 KECCAK256 SWAP4 PUSH2 0x1562 PUSH2 0x1755 DUP3 PUSH2 0x3C63 JUMP JUMPDEST SWAP6 PUSH2 0x3F04 JUMP JUMPDEST POP DUP8 PUSH2 0x1733 JUMP JUMPDEST PUSH1 0xFF SWAP2 POP PUSH1 0xC ADD SLOAD AND SWAP3 DUP2 DUP5 LT ISZERO PUSH2 0x391 JUMPI PUSH1 0x1 SWAP4 EQ DUP10 PUSH2 0x1729 JUMP JUMPDEST PUSH2 0x1786 PUSH2 0x3E82 JUMP JUMPDEST DUP3 DUP3 DUP9 ADD ADD MSTORE ADD DUP6 SWAP1 PUSH2 0x1696 JUMP JUMPDEST DUP1 PUSH1 0x0 MSTORE PUSH1 0x6 DUP1 DUP7 MSTORE PUSH1 0x40 PUSH1 0x0 KECCAK256 SWAP1 PUSH1 0x1 SWAP1 DUP6 DUP3 DUP5 ADD SLOAD EQ SWAP3 DUP4 PUSH2 0x17D7 JUMPI JUMPDEST POP POP POP PUSH2 0x17C3 JUMPI JUMPDEST PUSH1 0x1 ADD PUSH2 0x167A JUMP JUMPDEST SWAP3 PUSH2 0x17CF PUSH1 0x1 SWAP2 PUSH2 0x3C63 JUMP JUMPDEST SWAP4 SWAP1 POP PUSH2 0x17BB JUMP JUMPDEST PUSH1 0xFF SWAP2 SWAP3 SWAP4 POP PUSH1 0xC ADD SLOAD AND SWAP1 DUP2 LT ISZERO PUSH2 0x391 JUMPI EQ DUP7 DUP1 DUP1 PUSH2 0x17B3 JUMP JUMPDEST CALLVALUE PUSH2 0x3A7 JUMPI PUSH1 0x20 CALLDATASIZE PUSH1 0x3 NOT ADD SLT PUSH2 0x3A7 JUMPI PUSH1 0x1 PUSH1 0x1 PUSH1 0xA0 SHL SUB PUSH2 0x1814 PUSH2 0x374C JUMP JUMPDEST AND PUSH1 0x0 MSTORE PUSH1 0xA PUSH1 0x20 MSTORE PUSH1 0x20 PUSH1 0x40 PUSH1 0x0 KECCAK256 SLOAD PUSH1 0x40 MLOAD SWAP1 DUP2 MSTORE RETURN JUMPDEST CALLVALUE PUSH2 0x3A7 JUMPI PUSH1 0x40 CALLDATASIZE PUSH1 0x3 NOT ADD SLT PUSH2 0x3A7 JUMPI PUSH1 0x4 CALLDATALOAD PUSH2 0x1849 PUSH2 0x3778 JUMP JUMPDEST PUSH2 0x1851 PUSH2 0x4188 JUMP JUMPDEST DUP2 PUSH1 0x0 MSTORE PUSH1 0x20 SWAP2 PUSH1 0x6 DUP4 MSTORE PUSH1 0x40 PUSH1 0x0 KECCAK256 SWAP2 PUSH1 0xFF PUSH1 0xC DUP5 ADD SLOAD AND SWAP4 PUSH1 0x6 DUP6 LT ISZERO PUSH2 0x391 JUMPI PUSH2 0x1881 PUSH1 0x1 DUP1 SWAP7 EQ PUSH2 0x3B29 JUMP JUMPDEST PUSH2 0x1891 PUSH1 0x9 DUP6 ADD SLOAD TIMESTAMP LT ISZERO PUSH2 0x3B6B JUMP JUMPDEST PUSH2 0x18A0 PUSH1 0xA DUP6 ADD SLOAD TIMESTAMP LT PUSH2 0x3BAC JUMP JUMPDEST PUSH1 0xFF DUP3 AND SWAP4 PUSH2 0x18B2 PUSH1 0x2 DUP7 GT ISZERO PUSH2 0x3BE7 JUMP JUMPDEST DUP4 PUSH1 0x0 MSTORE PUSH1 0x8 DUP3 MSTORE PUSH1 0x40 PUSH1 0x0 KECCAK256 CALLER PUSH1 0x0 MSTORE DUP3 MSTORE PUSH2 0x191B PUSH1 0x40 PUSH1 0x0 KECCAK256 DUP1 SLOAD SWAP5 PUSH2 0x18DD PUSH1 0xFF DUP8 AND ISZERO PUSH2 0x3C27 JUMP JUMPDEST PUSH1 0x2 SLOAD DUP10 DUP6 ADD SLOAD PUSH1 0x40 MLOAD PUSH4 0x6DED6A19 PUSH1 0xE1 SHL DUP2 MSTORE PUSH1 0x4 DUP2 ADD SWAP2 SWAP1 SWAP2 MSTORE CALLER PUSH1 0x24 DUP3 ADD MSTORE SWAP4 DUP7 SWAP2 DUP6 SWAP2 PUSH1 0x1 PUSH1 0x1 PUSH1 0xA0 SHL SUB SWAP1 SWAP2 AND SWAP1 DUP3 SWAP1 DUP2 SWAP1 PUSH1 0x44 DUP3 ADD SWAP1 JUMP JUMPDEST SUB SWAP2 GAS STATICCALL SWAP6 DUP7 ISZERO PUSH2 0x1229 JUMPI DUP10 SWAP4 PUSH1 0x0 SWAP8 PUSH2 0x1A16 JUMPI JUMPDEST POP SWAP4 DUP7 DUP5 PUSH1 0xFF SWAP5 PUSH2 0x196B PUSH1 0x2 SWAP6 DUP5 SWAP9 PUSH2 0x19B7 SWAP11 PUSH2 0x194E DUP8 ISZERO ISZERO PUSH2 0x3C72 JUMP JUMPDEST DUP10 NOT AND OR DUP4 SSTORE DUP3 SWAP1 PUSH2 0xFF00 DUP3 SLOAD SWAP2 PUSH1 0x8 SHL AND SWAP1 PUSH2 0xFF00 NOT AND OR SWAP1 SSTORE JUMP JUMPDEST ADD SSTORE DUP9 PUSH2 0x19EA JUMPI PUSH1 0x7 DUP2 ADD PUSH2 0x1981 DUP6 DUP3 SLOAD PUSH2 0x3CB0 JUMP JUMPDEST SWAP1 SSTORE JUMPDEST CALLER PUSH1 0x0 MSTORE PUSH1 0xA DUP7 MSTORE PUSH1 0x40 PUSH1 0x0 KECCAK256 PUSH2 0x199B DUP2 SLOAD PUSH2 0x3C63 JUMP JUMPDEST SWAP1 SSTORE CALLER PUSH1 0x0 MSTORE PUSH1 0xB DUP7 MSTORE TIMESTAMP PUSH1 0x40 PUSH1 0x0 KECCAK256 SSTORE ADD SLOAD PUSH1 0xA0 SHR AND PUSH2 0x41AB JUMP JUMPDEST PUSH1 0x40 MLOAD SWAP4 DUP5 MSTORE DUP4 ADD MSTORE PUSH32 0xB83D25C6A5D258561330739951487ACB4BD09BA5190B5D32C4F261817D906792 PUSH1 0x40 CALLER SWAP4 LOG3 DUP1 SSTORE STOP JUMPDEST DUP9 DUP11 SUB PUSH2 0x1A07 JUMPI PUSH1 0x6 DUP2 ADD PUSH2 0x1A00 DUP6 DUP3 SLOAD PUSH2 0x3CB0 JUMP JUMPDEST SWAP1 SSTORE PUSH2 0x1984 JUMP JUMPDEST PUSH1 0x8 DUP2 ADD PUSH2 0x1A00 DUP6 DUP3 SLOAD PUSH2 0x3CB0 JUMP JUMPDEST SWAP2 SWAP7 POP SWAP3 POP SWAP1 DUP5 DUP3 DUP2 RETURNDATASIZE DUP2 GT PUSH2 0x1A46 JUMPI JUMPDEST PUSH2 0x1A31 DUP2 DUP4 PUSH2 0x35CC JUMP JUMPDEST DUP2 ADD SUB SLT PUSH2 0x3A7 JUMPI SWAP1 MLOAD SWAP5 DUP9 SWAP3 PUSH2 0x19B7 PUSH2 0x1930 JUMP JUMPDEST POP RETURNDATASIZE PUSH2 0x1A27 JUMP JUMPDEST CALLVALUE PUSH2 0x3A7 JUMPI PUSH1 0x20 CALLDATASIZE PUSH1 0x3 NOT ADD SLT PUSH2 0x3A7 JUMPI PUSH1 0x4 CALLDATALOAD DUP1 PUSH1 0x0 MSTORE PUSH1 0x6 PUSH1 0x20 MSTORE PUSH1 0x40 PUSH1 0x0 KECCAK256 SWAP1 PUSH1 0xC DUP3 ADD SWAP2 DUP3 SLOAD SWAP2 PUSH1 0xFF DUP4 AND PUSH1 0x6 DUP2 LT ISZERO PUSH2 0x391 JUMPI PUSH1 0x1 PUSH2 0x1A91 SWAP2 EQ PUSH2 0x3B29 JUMP JUMPDEST PUSH1 0xA DUP3 ADD SLOAD TIMESTAMP LT PUSH2 0x1B3A JUMPI PUSH1 0x6 DUP3 ADD SLOAD SWAP2 PUSH1 0x7 DUP2 ADD SLOAD SWAP2 PUSH2 0x1AC0 PUSH2 0x1AB5 DUP5 DUP7 PUSH2 0x3CB0 JUMP JUMPDEST PUSH1 0x8 DUP5 ADD SLOAD SWAP1 PUSH2 0x3CB0 JUMP JUMPDEST PUSH1 0x0 SWAP2 DUP3 MSTORE PUSH1 0x9 PUSH1 0x20 MSTORE PUSH1 0x40 SWAP1 SWAP2 KECCAK256 SLOAD SWAP1 DUP2 ISZERO PUSH2 0x1B2E JUMPI PUSH2 0x2710 SWAP1 DUP2 DUP2 MUL SWAP2 DUP2 DUP4 DIV EQ SWAP1 ISZERO OR ISZERO PUSH2 0x72C JUMPI PUSH1 0xB SWAP2 PUSH2 0x1AF7 SWAP2 PUSH2 0x38FF JUMP JUMPDEST SWAP2 JUMPDEST ADD SLOAD GT ISZERO SWAP2 DUP3 PUSH2 0x1B24 JUMPI JUMPDEST POP POP ISZERO PUSH2 0x1B19 JUMPI POP DUP1 SLOAD PUSH1 0xFF NOT AND PUSH1 0x2 OR SWAP1 SSTORE STOP JUMPDEST PUSH1 0xFF NOT AND PUSH1 0x3 OR SWAP1 SSTORE STOP JUMPDEST GT SWAP1 POP DUP4 DUP1 PUSH2 0x1B04 JUMP JUMPDEST POP POP PUSH1 0xB PUSH1 0x0 SWAP2 PUSH2 0x1AF9 JUMP JUMPDEST PUSH1 0x40 MLOAD PUSH3 0x461BCD PUSH1 0xE5 SHL DUP2 MSTORE PUSH1 0x20 PUSH1 0x4 DUP3 ADD MSTORE PUSH1 0x10 PUSH1 0x24 DUP3 ADD MSTORE PUSH16 0x159BDD1A5B99C81B9BDD08195B991959 PUSH1 0x82 SHL PUSH1 0x44 DUP3 ADD MSTORE PUSH1 0x64 SWAP1 REVERT JUMPDEST PUSH2 0x372F JUMP JUMPDEST CALLVALUE PUSH2 0x3A7 JUMPI PUSH1 0x20 CALLDATASIZE PUSH1 0x3 NOT ADD SLT PUSH2 0x3A7 JUMPI PUSH1 0x4 CALLDATALOAD PUSH1 0x0 MSTORE PUSH1 0x9 PUSH1 0x20 MSTORE PUSH1 0x20 PUSH1 0x40 PUSH1 0x0 KECCAK256 SLOAD PUSH1 0x40 MLOAD SWAP1 DUP2 MSTORE RETURN JUMPDEST CALLVALUE PUSH2 0x3A7 JUMPI PUSH1 0x0 CALLDATASIZE PUSH1 0x3 NOT ADD SLT PUSH2 0x3A7 JUMPI PUSH1 0x20 PUSH1 0x12 SLOAD PUSH1 0x40 MLOAD SWAP1 DUP2 MSTORE RETURN JUMPDEST CALLVALUE PUSH2 0x3A7 JUMPI PUSH1 0x60 CALLDATASIZE PUSH1 0x3 NOT ADD SLT PUSH2 0x3A7 JUMPI PUSH1 0x4 PUSH1 0x24 CALLDATALOAD LT ISZERO PUSH2 0x3A7 JUMPI PUSH1 0x44 CALLDATALOAD PUSH1 0x1 PUSH1 0x1 PUSH1 0x40 SHL SUB DUP2 GT PUSH2 0x3A7 JUMPI PUSH2 0x1BFC SWAP1 CALLDATASIZE SWAP1 PUSH1 0x4 ADD PUSH2 0x3788 JUMP JUMPDEST PUSH2 0x1C04 PUSH2 0x4106 JUMP JUMPDEST PUSH1 0x4 CALLDATALOAD PUSH1 0x0 MSTORE PUSH1 0xC PUSH1 0x20 MSTORE PUSH1 0x40 PUSH1 0x0 KECCAK256 SWAP1 PUSH1 0xFF PUSH1 0xA DUP4 ADD SLOAD AND PUSH1 0x3 DUP2 LT ISZERO PUSH2 0x391 JUMPI PUSH1 0x1 SUB PUSH2 0x24C8 JUMPI PUSH1 0xB DUP3 ADD SLOAD PUSH2 0x248F JUMPI PUSH1 0x6 DUP3 ADD SLOAD PUSH2 0x1C49 PUSH1 0x7 DUP5 ADD SLOAD DUP3 PUSH2 0x3CB0 JUMP JUMPDEST SWAP1 DUP2 ISZERO PUSH2 0x245A JUMPI PUSH2 0x2710 SWAP1 DUP2 DUP2 MUL SWAP2 DUP2 DUP4 DIV EQ SWAP1 ISZERO OR ISZERO PUSH2 0x72C JUMPI PUSH2 0xBB8 SWAP2 PUSH2 0x1C71 SWAP2 PUSH2 0x38FF JUMP JUMPDEST LT PUSH2 0x2415 JUMPI PUSH1 0x2 SLOAD PUSH1 0x1 DUP4 ADD SLOAD PUSH1 0x40 MLOAD PUSH4 0x6DED6A19 PUSH1 0xE1 SHL DUP2 MSTORE PUSH1 0x4 DUP2 ADD SWAP2 SWAP1 SWAP2 MSTORE CALLER PUSH1 0x24 DUP3 ADD MSTORE PUSH1 0x1 PUSH1 0x1 PUSH1 0xA0 SHL SUB SWAP1 SWAP2 AND SWAP3 SWAP1 PUSH1 0x20 DUP2 PUSH1 0x44 DUP2 DUP8 GAS STATICCALL DUP1 ISZERO PUSH2 0x1229 JUMPI PUSH1 0x0 SWAP1 PUSH2 0x23E1 JUMPI JUMPDEST PUSH2 0x1CC9 SWAP2 POP ISZERO ISZERO PUSH2 0x3E1F JUMP JUMPDEST PUSH1 0x7 SLOAD SWAP2 PUSH2 0x1CD6 DUP4 PUSH2 0x3C63 JUMP JUMPDEST PUSH1 0x7 SSTORE PUSH2 0x1CE4 PUSH1 0x24 CALLDATALOAD PUSH2 0x43C8 JUMP JUMPDEST PUSH2 0x1F4 DUP2 GT ISZERO PUSH2 0x23DB JUMPI DUP1 PUSH2 0x1F3 NOT DUP2 ADD GT PUSH2 0x72C JUMPI PUSH2 0x1F3 NOT ADD SWAP4 JUMPDEST PUSH1 0x20 PUSH1 0x1 DUP5 ADD SLOAD PUSH1 0x24 PUSH1 0x40 MLOAD DUP1 SWAP5 DUP2 SWAP4 PUSH4 0x8CDC1E87 PUSH1 0xE0 SHL DUP4 MSTORE PUSH1 0x4 DUP4 ADD MSTORE GAS STATICCALL SWAP1 DUP2 ISZERO PUSH2 0x1229 JUMPI PUSH1 0x0 SWAP2 PUSH2 0x23A9 JUMPI JUMPDEST POP DUP1 ISZERO PUSH2 0x236B JUMPI DUP4 PUSH1 0x0 MSTORE PUSH1 0x9 PUSH1 0x20 MSTORE PUSH1 0x40 PUSH1 0x0 KECCAK256 SSTORE PUSH1 0x1 DUP3 ADD SLOAD SWAP4 PUSH2 0x1D59 PUSH1 0x4 SLOAD TIMESTAMP PUSH2 0x3CB0 JUMP JUMPDEST PUSH1 0x40 MLOAD SWAP6 PUSH2 0x1D66 DUP8 PUSH2 0x357A JUMP JUMPDEST DUP6 DUP8 MSTORE PUSH1 0x20 DUP8 ADD MSTORE CALLER PUSH1 0x40 DUP8 ADD MSTORE PUSH2 0x1D7F PUSH1 0x24 CALLDATALOAD PUSH2 0x35ED JUMP JUMPDEST PUSH1 0x24 CALLDATALOAD PUSH1 0x60 DUP8 ADD MSTORE PUSH1 0x40 MLOAD PUSH2 0x1DA2 DUP2 PUSH2 0x1D9B DUP2 PUSH1 0x3 DUP10 ADD PUSH2 0x34C8 JUMP JUMPDEST SUB DUP3 PUSH2 0x35CC JUMP JUMPDEST PUSH1 0x80 DUP8 ADD MSTORE PUSH1 0x40 MLOAD PUSH2 0x1DBB DUP2 PUSH2 0x1D9B DUP2 PUSH1 0x4 DUP10 ADD PUSH2 0x34C8 JUMP JUMPDEST PUSH1 0xA0 DUP8 ADD MSTORE PUSH1 0x40 MLOAD PUSH2 0x1DD4 DUP2 PUSH2 0x1D9B DUP2 PUSH1 0x5 DUP10 ADD PUSH2 0x34C8 JUMP JUMPDEST PUSH1 0xC0 DUP8 ADD MSTORE PUSH1 0x0 PUSH1 0xE0 DUP8 ADD MSTORE PUSH1 0x0 PUSH2 0x100 DUP8 ADD MSTORE PUSH1 0x0 PUSH2 0x120 DUP8 ADD MSTORE TIMESTAMP PUSH2 0x140 DUP8 ADD MSTORE PUSH2 0x160 DUP7 ADD MSTORE PUSH2 0x180 DUP6 ADD MSTORE PUSH1 0x1 PUSH2 0x1A0 DUP6 ADD MSTORE PUSH2 0x1C0 DUP5 ADD MSTORE DUP2 PUSH1 0x0 MSTORE PUSH1 0x6 PUSH1 0x20 MSTORE PUSH1 0x40 PUSH1 0x0 KECCAK256 SWAP3 DUP1 MLOAD DUP5 SSTORE PUSH1 0x20 DUP2 ADD MLOAD PUSH1 0x1 DUP6 ADD SSTORE PUSH1 0x2 DUP5 ADD PUSH1 0x1 DUP1 PUSH1 0xA0 SHL SUB PUSH1 0x40 DUP4 ADD MLOAD AND DUP2 SLOAD SWAP1 PUSH1 0x60 DUP5 ADD MLOAD PUSH2 0x1E50 DUP2 PUSH2 0x35ED JUMP JUMPDEST PUSH2 0x1E59 DUP2 PUSH2 0x35ED JUMP JUMPDEST PUSH1 0x1 PUSH1 0x1 PUSH1 0xA8 SHL SUB NOT SWAP1 SWAP3 AND OR PUSH1 0xA0 SWAP2 SWAP1 SWAP2 SHL PUSH1 0xFF PUSH1 0xA0 SHL AND OR SWAP1 SSTORE PUSH1 0x80 DUP2 ADD MLOAD DUP1 MLOAD SWAP1 PUSH1 0x1 PUSH1 0x1 PUSH1 0x40 SHL SUB DUP3 GT PUSH2 0x1035 JUMPI PUSH2 0x1EA5 DUP3 PUSH2 0x1E9C PUSH1 0x3 DUP10 ADD SLOAD PUSH2 0x348E JUMP JUMPDEST PUSH1 0x3 DUP10 ADD PUSH2 0x3CBD JUMP JUMPDEST PUSH1 0x20 SWAP1 PUSH1 0x1F DUP4 GT PUSH1 0x1 EQ PUSH2 0x22F9 JUMPI PUSH2 0x1ED5 SWAP3 SWAP2 PUSH1 0x0 SWAP2 DUP4 PUSH2 0xFC4 JUMPI POP POP DUP2 PUSH1 0x1 SHL SWAP2 PUSH1 0x0 NOT SWAP1 PUSH1 0x3 SHL SHR NOT AND OR SWAP1 JUMP JUMPDEST PUSH1 0x3 DUP6 ADD SSTORE JUMPDEST PUSH1 0xA0 DUP2 ADD MLOAD DUP1 MLOAD SWAP1 PUSH1 0x1 PUSH1 0x1 PUSH1 0x40 SHL SUB DUP3 GT PUSH2 0x1035 JUMPI PUSH2 0x1F0B DUP3 PUSH2 0x1F02 PUSH1 0x4 DUP10 ADD SLOAD PUSH2 0x348E JUMP JUMPDEST PUSH1 0x4 DUP10 ADD PUSH2 0x3CBD JUMP JUMPDEST PUSH1 0x20 SWAP1 PUSH1 0x1F DUP4 GT PUSH1 0x1 EQ PUSH2 0x2287 JUMPI PUSH2 0x1F3B SWAP3 SWAP2 PUSH1 0x0 SWAP2 DUP4 PUSH2 0xFC4 JUMPI POP POP DUP2 PUSH1 0x1 SHL SWAP2 PUSH1 0x0 NOT SWAP1 PUSH1 0x3 SHL SHR NOT AND OR SWAP1 JUMP JUMPDEST PUSH1 0x4 DUP6 ADD SSTORE JUMPDEST PUSH1 0xC0 DUP2 ADD MLOAD DUP1 MLOAD SWAP1 PUSH1 0x1 PUSH1 0x1 PUSH1 0x40 SHL SUB DUP3 GT PUSH2 0x1035 JUMPI PUSH2 0x1F71 DUP3 PUSH2 0x1F68 PUSH1 0x5 DUP10 ADD SLOAD PUSH2 0x348E JUMP JUMPDEST PUSH1 0x5 DUP10 ADD PUSH2 0x3CBD JUMP JUMPDEST PUSH1 0x20 SWAP1 PUSH1 0x1F DUP4 GT PUSH1 0x1 EQ PUSH2 0x2215 JUMPI PUSH2 0x1FA1 SWAP3 SWAP2 PUSH1 0x0 SWAP2 DUP4 PUSH2 0xFC4 JUMPI POP POP DUP2 PUSH1 0x1 SHL SWAP2 PUSH1 0x0 NOT SWAP1 PUSH1 0x3 SHL SHR NOT AND OR SWAP1 JUMP JUMPDEST PUSH1 0x5 DUP6 ADD SSTORE JUMPDEST PUSH1 0xE0 DUP2 ADD MLOAD PUSH1 0x6 DUP6 ADD SSTORE PUSH2 0x100 DUP2 ADD MLOAD PUSH1 0x7 DUP6 ADD SSTORE PUSH2 0x120 DUP2 ADD MLOAD PUSH1 0x8 DUP6 ADD SSTORE PUSH2 0x140 DUP2 ADD MLOAD PUSH1 0x9 DUP6 ADD SSTORE PUSH2 0x160 DUP2 ADD MLOAD PUSH1 0xA DUP6 ADD SSTORE PUSH2 0x180 DUP2 ADD MLOAD PUSH1 0xB DUP6 ADD SSTORE PUSH2 0x1A0 DUP2 ADD MLOAD SWAP1 PUSH1 0x6 DUP3 LT ISZERO PUSH2 0x391 JUMPI PUSH2 0x2008 PUSH2 0x1C0 SWAP3 PUSH1 0xC DUP8 ADD PUSH2 0x39EC JUMP JUMPDEST ADD MLOAD SWAP3 DUP4 MLOAD PUSH1 0x1 PUSH1 0x1 PUSH1 0x40 SHL SUB DUP2 GT PUSH2 0x1035 JUMPI PUSH1 0x20 SWAP5 PUSH2 0x2038 DUP3 PUSH2 0x202F PUSH1 0xD DUP7 ADD SLOAD PUSH2 0x348E JUMP JUMPDEST PUSH1 0xD DUP7 ADD PUSH2 0x3CBD JUMP JUMPDEST DUP6 SWAP1 PUSH1 0x1F DUP4 GT PUSH1 0x1 EQ PUSH2 0x21A7 JUMPI SWAP2 DUP1 PUSH2 0x206A SWAP3 PUSH1 0xD SWAP5 PUSH1 0x0 SWAP3 PUSH2 0x219C JUMPI POP POP DUP2 PUSH1 0x1 SHL SWAP2 PUSH1 0x0 NOT SWAP1 PUSH1 0x3 SHL SHR NOT AND OR SWAP1 JUMP JUMPDEST SWAP2 ADD SSTORE JUMPDEST DUP2 PUSH1 0xFF NOT PUSH1 0x2 DUP2 PUSH1 0xA DUP6 ADD SLOAD AND OR PUSH1 0xA DUP5 ADD SSTORE DUP2 PUSH1 0xB DUP5 ADD SSTORE PUSH1 0x1 DUP4 ADD SLOAD SWAP3 PUSH1 0x40 MLOAD SWAP2 CALLER DUP4 MSTORE PUSH2 0x209F PUSH1 0x24 CALLDATALOAD PUSH2 0x35ED JUMP JUMPDEST PUSH1 0x24 CALLDATALOAD DUP8 DUP5 ADD MSTORE PUSH1 0x60 PUSH1 0x40 DUP5 ADD MSTORE PUSH1 0x0 SWAP2 PUSH1 0x3 DUP2 ADD SLOAD PUSH2 0x20BE DUP2 PUSH2 0x348E JUMP JUMPDEST SWAP3 DUP4 PUSH1 0x60 DUP8 ADD MSTORE PUSH1 0x1 DUP3 AND SWAP2 DUP3 PUSH1 0x0 EQ PUSH2 0x216E JUMPI POP POP PUSH1 0x1 EQ PUSH2 0x2124 JUMPI JUMPDEST POP POP SWAP1 DUP1 PUSH1 0x0 DUP1 MLOAD PUSH1 0x20 PUSH2 0x458D DUP4 CODECOPY DUP2 MLOAD SWAP2 MSTORE SWAP3 SUB SWAP1 LOG3 PUSH1 0x40 MLOAD SWAP1 DUP1 PUSH1 0x4 CALLDATALOAD PUSH32 0xF57507588A3F55547E832AD7906FC1C90A328D2C78895BC24ABF93C41E8568A0 PUSH1 0x0 DUP1 LOG3 DUP2 MSTORE RETURN JUMPDEST PUSH1 0x3 ADD PUSH1 0x0 SWAP1 DUP2 MSTORE DUP8 DUP2 KECCAK256 SWAP1 SWAP3 POP JUMPDEST DUP2 DUP4 LT PUSH2 0x2156 JUMPI POP POP DUP2 ADD PUSH1 0x80 ADD DUP2 PUSH1 0x0 DUP1 MLOAD PUSH1 0x20 PUSH2 0x458D DUP4 CODECOPY DUP2 MLOAD SWAP2 MSTORE PUSH2 0x20DC JUMP JUMPDEST DUP1 SLOAD DUP4 DUP6 ADD PUSH1 0x80 ADD MSTORE DUP7 SWAP5 POP SWAP2 DUP8 ADD SWAP2 PUSH1 0x1 ADD PUSH2 0x2133 JUMP JUMPDEST DUP7 SWAP6 POP PUSH1 0x80 SWAP4 POP PUSH1 0x0 DUP1 MLOAD PUSH1 0x20 PUSH2 0x458D DUP4 CODECOPY DUP2 MLOAD SWAP2 MSTORE SWAP7 SWAP5 SWAP3 POP AND DUP3 DUP5 ADD MSTORE ISZERO ISZERO PUSH1 0x5 SHL DUP3 ADD ADD SWAP2 SWAP3 PUSH2 0x20DC JUMP JUMPDEST ADD MLOAD SWAP1 POP DUP9 DUP1 PUSH2 0xDD0 JUMP JUMPDEST SWAP1 PUSH1 0xD DUP5 ADD PUSH1 0x0 MSTORE DUP7 PUSH1 0x0 KECCAK256 SWAP2 PUSH1 0x0 JUMPDEST PUSH1 0x1F NOT DUP6 AND DUP2 LT PUSH2 0x21FE JUMPI POP SWAP2 DUP4 SWAP2 PUSH1 0x1 SWAP4 PUSH1 0xD SWAP6 PUSH1 0x1F NOT DUP2 AND LT PUSH2 0x21E5 JUMPI JUMPDEST POP POP POP DUP2 SHL ADD SWAP2 ADD SSTORE PUSH2 0x206E JUMP JUMPDEST ADD MLOAD PUSH1 0x0 NOT PUSH1 0xF8 DUP5 PUSH1 0x3 SHL AND SHR NOT AND SWAP1 SSTORE DUP8 DUP1 DUP1 PUSH2 0x21D7 JUMP JUMPDEST SWAP2 SWAP3 DUP9 PUSH1 0x1 DUP2 SWAP3 DUP7 DUP6 ADD MLOAD DUP2 SSTORE ADD SWAP5 ADD SWAP3 ADD PUSH2 0x21B7 JUMP JUMPDEST SWAP2 SWAP1 PUSH1 0x5 DUP8 ADD PUSH1 0x0 MSTORE PUSH1 0x20 PUSH1 0x0 KECCAK256 SWAP1 PUSH1 0x0 SWAP4 JUMPDEST PUSH1 0x1F NOT DUP5 AND DUP6 LT PUSH2 0x226C JUMPI PUSH1 0x1 SWAP5 POP DUP4 PUSH1 0x1F NOT DUP2 AND LT PUSH2 0x2253 JUMPI JUMPDEST POP POP POP DUP2 SHL ADD PUSH1 0x5 DUP6 ADD SSTORE PUSH2 0x1FA7 JUMP JUMPDEST ADD MLOAD PUSH1 0x0 NOT PUSH1 0xF8 DUP5 PUSH1 0x3 SHL AND SHR NOT AND SWAP1 SSTORE DUP7 DUP1 DUP1 PUSH2 0x2243 JUMP JUMPDEST DUP2 DUP2 ADD MLOAD DUP4 SSTORE PUSH1 0x20 SWAP5 DUP6 ADD SWAP5 PUSH1 0x1 SWAP1 SWAP4 ADD SWAP3 SWAP1 SWAP2 ADD SWAP1 PUSH2 0x2228 JUMP JUMPDEST SWAP2 SWAP1 PUSH1 0x4 DUP8 ADD PUSH1 0x0 MSTORE PUSH1 0x20 PUSH1 0x0 KECCAK256 SWAP1 PUSH1 0x0 SWAP4 JUMPDEST PUSH1 0x1F NOT DUP5 AND DUP6 LT PUSH2 0x22DE JUMPI PUSH1 0x1 SWAP5 POP DUP4 PUSH1 0x1F NOT DUP2 AND LT PUSH2 0x22C5 JUMPI JUMPDEST POP POP POP DUP2 SHL ADD PUSH1 0x4 DUP6 ADD SSTORE PUSH2 0x1F41 JUMP JUMPDEST ADD MLOAD PUSH1 0x0 NOT PUSH1 0xF8 DUP5 PUSH1 0x3 SHL AND SHR NOT AND SWAP1 SSTORE DUP7 DUP1 DUP1 PUSH2 0x22B5 JUMP JUMPDEST DUP2 DUP2 ADD MLOAD DUP4 SSTORE PUSH1 0x20 SWAP5 DUP6 ADD SWAP5 PUSH1 0x1 SWAP1 SWAP4 ADD SWAP3 SWAP1 SWAP2 ADD SWAP1 PUSH2 0x229A JUMP JUMPDEST SWAP2 SWAP1 PUSH1 0x3 DUP8 ADD PUSH1 0x0 MSTORE PUSH1 0x20 PUSH1 0x0 KECCAK256 SWAP1 PUSH1 0x0 SWAP4 JUMPDEST PUSH1 0x1F NOT DUP5 AND DUP6 LT PUSH2 0x2350 JUMPI PUSH1 0x1 SWAP5 POP DUP4 PUSH1 0x1F NOT DUP2 AND LT PUSH2 0x2337 JUMPI JUMPDEST POP POP POP DUP2 SHL ADD PUSH1 0x3 DUP6 ADD SSTORE PUSH2 0x1EDB JUMP JUMPDEST ADD MLOAD PUSH1 0x0 NOT PUSH1 0xF8 DUP5 PUSH1 0x3 SHL AND SHR NOT AND SWAP1 SSTORE DUP7 DUP1 DUP1 PUSH2 0x2327 JUMP JUMPDEST DUP2 DUP2 ADD MLOAD DUP4 SSTORE PUSH1 0x20 SWAP5 DUP6 ADD SWAP5 PUSH1 0x1 SWAP1 SWAP4 ADD SWAP3 SWAP1 SWAP2 ADD SWAP1 PUSH2 0x230C JUMP JUMPDEST PUSH1 0x40 MLOAD PUSH3 0x461BCD PUSH1 0xE5 SHL DUP2 MSTORE PUSH1 0x20 PUSH1 0x4 DUP3 ADD MSTORE PUSH1 0x16 PUSH1 0x24 DUP3 ADD MSTORE PUSH22 0x4E6F20766F74696E6720706F77657220657869737473 PUSH1 0x50 SHL PUSH1 0x44 DUP3 ADD MSTORE PUSH1 0x64 SWAP1 REVERT JUMPDEST SWAP1 POP PUSH1 0x20 DUP2 RETURNDATASIZE PUSH1 0x20 GT PUSH2 0x23D3 JUMPI JUMPDEST DUP2 PUSH2 0x23C4 PUSH1 0x20 SWAP4 DUP4 PUSH2 0x35CC JUMP JUMPDEST DUP2 ADD SUB SLT PUSH2 0x3A7 JUMPI MLOAD DUP6 PUSH2 0x1D31 JUMP JUMPDEST RETURNDATASIZE SWAP2 POP PUSH2 0x23B7 JUMP JUMPDEST SWAP4 PUSH2 0x1D01 JUMP JUMPDEST POP PUSH1 0x20 DUP2 RETURNDATASIZE PUSH1 0x20 GT PUSH2 0x240D JUMPI JUMPDEST DUP2 PUSH2 0x23FB PUSH1 0x20 SWAP4 DUP4 PUSH2 0x35CC JUMP JUMPDEST DUP2 ADD SUB SLT PUSH2 0x3A7 JUMPI PUSH2 0x1CC9 SWAP1 MLOAD PUSH2 0x1CBD JUMP JUMPDEST RETURNDATASIZE SWAP2 POP PUSH2 0x23EE JUMP JUMPDEST PUSH1 0x40 MLOAD PUSH3 0x461BCD PUSH1 0xE5 SHL DUP2 MSTORE PUSH1 0x20 PUSH1 0x4 DUP3 ADD MSTORE PUSH1 0x19 PUSH1 0x24 DUP3 ADD MSTORE PUSH32 0x496E73756666696369656E7420706F6C6C20737570706F727400000000000000 PUSH1 0x44 DUP3 ADD MSTORE PUSH1 0x64 SWAP1 REVERT JUMPDEST PUSH1 0x40 MLOAD PUSH3 0x461BCD PUSH1 0xE5 SHL DUP2 MSTORE PUSH1 0x20 PUSH1 0x4 DUP3 ADD MSTORE PUSH1 0xD PUSH1 0x24 DUP3 ADD MSTORE PUSH13 0x139BC81D9BDD195CC818D85CDD PUSH1 0x9A SHL PUSH1 0x44 DUP3 ADD MSTORE PUSH1 0x64 SWAP1 REVERT JUMPDEST PUSH1 0x40 MLOAD PUSH3 0x461BCD PUSH1 0xE5 SHL DUP2 MSTORE PUSH1 0x20 PUSH1 0x4 DUP3 ADD MSTORE PUSH1 0x11 PUSH1 0x24 DUP3 ADD MSTORE PUSH17 0x105B1C9958591E4818DBDB9D995C9D1959 PUSH1 0x7A SHL PUSH1 0x44 DUP3 ADD MSTORE PUSH1 0x64 SWAP1 REVERT JUMPDEST PUSH1 0x40 MLOAD PUSH3 0x461BCD PUSH1 0xE5 SHL DUP2 MSTORE PUSH1 0x20 PUSH1 0x4 DUP3 ADD MSTORE PUSH1 0x18 PUSH1 0x24 DUP3 ADD MSTORE PUSH32 0x506F6C6C206D75737420626520656E6465642066697273740000000000000000 PUSH1 0x44 DUP3 ADD MSTORE PUSH1 0x64 SWAP1 REVERT JUMPDEST CALLVALUE PUSH2 0x3A7 JUMPI PUSH1 0x0 CALLDATASIZE PUSH1 0x3 NOT ADD SLT PUSH2 0x3A7 JUMPI PUSH1 0x20 PUSH2 0x3CF PUSH2 0x3D13 JUMP JUMPDEST CALLVALUE PUSH2 0x3A7 JUMPI PUSH1 0x0 CALLDATASIZE PUSH1 0x3 NOT ADD SLT PUSH2 0x3A7 JUMPI PUSH1 0x2 SLOAD PUSH1 0x40 MLOAD PUSH1 0x1 PUSH1 0x1 PUSH1 0xA0 SHL SUB SWAP1 SWAP2 AND DUP2 MSTORE PUSH1 0x20 SWAP1 RETURN JUMPDEST CALLVALUE PUSH2 0x3A7 JUMPI PUSH1 0x40 CALLDATASIZE PUSH1 0x3 NOT ADD SLT PUSH2 0x3A7 JUMPI PUSH2 0x256A PUSH2 0x3762 JUMP JUMPDEST CALLER PUSH1 0x1 PUSH1 0x1 PUSH1 0xA0 SHL SUB DUP3 AND SUB PUSH2 0x2586 JUMPI PUSH2 0x65D SWAP1 PUSH1 0x4 CALLDATALOAD PUSH2 0x4353 JUMP JUMPDEST PUSH1 0x40 MLOAD PUSH4 0x334BD919 PUSH1 0xE1 SHL DUP2 MSTORE PUSH1 0x4 SWAP1 REVERT JUMPDEST CALLVALUE PUSH2 0x3A7 JUMPI PUSH1 0x0 CALLDATASIZE PUSH1 0x3 NOT ADD SLT PUSH2 0x3A7 JUMPI PUSH1 0x20 PUSH1 0x40 MLOAD PUSH32 0x0 DUP2 MSTORE RETURN JUMPDEST CALLVALUE PUSH2 0x3A7 JUMPI PUSH1 0xA0 CALLDATASIZE PUSH1 0x3 NOT ADD SLT PUSH2 0x3A7 JUMPI PUSH1 0x24 CALLDATALOAD PUSH1 0x1 PUSH1 0x1 PUSH1 0x40 SHL SUB DUP2 GT PUSH2 0x3A7 JUMPI PUSH2 0x2603 SWAP1 CALLDATASIZE SWAP1 PUSH1 0x4 ADD PUSH2 0x3788 JUMP JUMPDEST PUSH1 0x44 CALLDATALOAD PUSH1 0x1 PUSH1 0x1 PUSH1 0x40 SHL SUB DUP2 GT PUSH2 0x3A7 JUMPI PUSH2 0x2622 SWAP1 CALLDATASIZE SWAP1 PUSH1 0x4 ADD PUSH2 0x3788 JUMP JUMPDEST SWAP1 PUSH1 0x64 CALLDATALOAD PUSH1 0x1 PUSH1 0x1 PUSH1 0x40 SHL SUB DUP2 GT PUSH2 0x3A7 JUMPI PUSH2 0x2642 SWAP1 CALLDATASIZE SWAP1 PUSH1 0x4 ADD PUSH2 0x3788 JUMP JUMPDEST SWAP1 PUSH3 0x15180 PUSH1 0x84 CALLDATALOAD LT ISZERO DUP1 PUSH2 0x2A45 JUMPI JUMPDEST ISZERO PUSH2 0x2A0D JUMPI PUSH1 0xD SLOAD SWAP2 PUSH2 0x2664 DUP4 PUSH2 0x3C63 JUMP JUMPDEST PUSH1 0xD SSTORE PUSH2 0x2673 PUSH1 0x84 CALLDATALOAD TIMESTAMP PUSH2 0x3CB0 JUMP JUMPDEST SWAP1 PUSH1 0x40 MLOAD SWAP5 PUSH2 0x2681 DUP7 PUSH2 0x355E JUMP JUMPDEST DUP5 DUP7 MSTORE PUSH1 0x4 CALLDATALOAD PUSH1 0x20 DUP8 ADD MSTORE CALLER PUSH1 0x40 DUP8 ADD MSTORE DUP4 PUSH1 0x60 DUP8 ADD MSTORE PUSH1 0x80 DUP7 ADD MSTORE PUSH1 0xA0 DUP6 ADD MSTORE PUSH1 0x0 PUSH1 0xC0 DUP6 ADD MSTORE PUSH1 0x0 PUSH1 0xE0 DUP6 ADD MSTORE TIMESTAMP PUSH2 0x100 DUP6 ADD MSTORE PUSH2 0x120 DUP5 ADD MSTORE PUSH1 0x0 PUSH2 0x140 DUP5 ADD MSTORE PUSH1 0x0 PUSH2 0x160 DUP5 ADD MSTORE DUP2 PUSH1 0x0 MSTORE PUSH1 0xC PUSH1 0x20 MSTORE PUSH1 0x40 PUSH1 0x0 KECCAK256 DUP4 MLOAD DUP2 SSTORE PUSH1 0x20 DUP5 ADD MLOAD PUSH1 0x1 DUP3 ADD SSTORE PUSH1 0x2 DUP2 ADD PUSH1 0x1 DUP1 PUSH1 0xA0 SHL SUB PUSH1 0x40 DUP7 ADD MLOAD AND PUSH12 0xFFFFFFFFFFFFFFFFFFFFFFFF PUSH1 0xA0 SHL DUP3 SLOAD AND OR SWAP1 SSTORE PUSH1 0x60 DUP5 ADD MLOAD DUP1 MLOAD SWAP1 PUSH1 0x1 PUSH1 0x1 PUSH1 0x40 SHL SUB DUP3 GT PUSH2 0x1035 JUMPI PUSH2 0x2737 DUP3 PUSH2 0xDAB PUSH1 0x3 DUP7 ADD SLOAD PUSH2 0x348E JUMP JUMPDEST PUSH1 0x20 SWAP1 PUSH1 0x1F DUP4 GT PUSH1 0x1 EQ PUSH2 0x299B JUMPI PUSH2 0x2767 SWAP3 SWAP2 PUSH1 0x0 SWAP2 DUP4 PUSH2 0xFC4 JUMPI POP POP DUP2 PUSH1 0x1 SHL SWAP2 PUSH1 0x0 NOT SWAP1 PUSH1 0x3 SHL SHR NOT AND OR SWAP1 JUMP JUMPDEST PUSH1 0x3 DUP3 ADD SSTORE JUMPDEST PUSH1 0x80 DUP5 ADD MLOAD DUP1 MLOAD SWAP1 PUSH1 0x1 PUSH1 0x1 PUSH1 0x40 SHL SUB DUP3 GT PUSH2 0x1035 JUMPI PUSH2 0x2794 DUP3 PUSH2 0xE12 PUSH1 0x4 DUP7 ADD SLOAD PUSH2 0x348E JUMP JUMPDEST PUSH1 0x20 SWAP1 PUSH1 0x1F DUP4 GT PUSH1 0x1 EQ PUSH2 0x292D JUMPI PUSH2 0x27C4 SWAP3 SWAP2 PUSH1 0x0 SWAP2 DUP4 PUSH2 0xFC4 JUMPI POP POP DUP2 PUSH1 0x1 SHL SWAP2 PUSH1 0x0 NOT SWAP1 PUSH1 0x3 SHL SHR NOT AND OR SWAP1 JUMP JUMPDEST PUSH1 0x4 DUP3 ADD SSTORE JUMPDEST PUSH1 0xA0 DUP5 ADD MLOAD DUP1 MLOAD SWAP1 PUSH1 0x1 PUSH1 0x1 PUSH1 0x40 SHL SUB DUP3 GT PUSH2 0x1035 JUMPI PUSH2 0x27F1 DUP3 PUSH2 0xE78 PUSH1 0x5 DUP7 ADD SLOAD PUSH2 0x348E JUMP JUMPDEST PUSH1 0x20 SWAP1 PUSH1 0x1F DUP4 GT PUSH1 0x1 EQ PUSH2 0x28BF JUMPI PUSH2 0x2821 SWAP3 SWAP2 PUSH1 0x0 SWAP2 DUP4 PUSH2 0xFC4 JUMPI POP POP DUP2 PUSH1 0x1 SHL SWAP2 PUSH1 0x0 NOT SWAP1 PUSH1 0x3 SHL SHR NOT AND OR SWAP1 JUMP JUMPDEST PUSH1 0x5 DUP3 ADD SSTORE JUMPDEST PUSH1 0xC0 DUP5 ADD MLOAD PUSH1 0x6 DUP3 ADD SSTORE PUSH1 0xE0 DUP5 ADD MLOAD PUSH1 0x7 DUP3 ADD SSTORE PUSH2 0x100 DUP5 ADD MLOAD PUSH1 0x8 DUP3 ADD SSTORE PUSH2 0x120 DUP5 ADD MLOAD PUSH1 0x9 DUP3 ADD SSTORE PUSH1 0xA DUP2 ADD PUSH2 0x140 DUP6 ADD MLOAD PUSH1 0x3 DUP2 LT ISZERO PUSH2 0x391 JUMPI PUSH1 0x20 SWAP6 PUSH1 0xB SWAP3 PUSH2 0x160 SWAP3 PUSH1 0xFF DUP1 NOT DUP4 SLOAD AND SWAP2 AND OR SWAP1 SSTORE ADD MLOAD SWAP2 ADD SSTORE DUP2 PUSH32 0x658FCCFC8DE51891B480D49E504FBB0F8F9B43F13522A475D1729A74531A9E22 PUSH1 0x40 MLOAD CALLER DUP2 MSTORE PUSH1 0x40 DUP7 DUP3 ADD MSTORE DUP1 PUSH2 0xFB9 PUSH1 0x4 CALLDATALOAD SWAP6 PUSH1 0x40 DUP4 ADD SWAP1 PUSH2 0x35F7 JUMP JUMPDEST SWAP1 PUSH1 0x1F NOT DUP4 AND SWAP2 PUSH1 0x5 DUP6 ADD PUSH1 0x0 MSTORE PUSH1 0x20 PUSH1 0x0 KECCAK256 SWAP3 PUSH1 0x0 JUMPDEST DUP2 DUP2 LT PUSH2 0x2915 JUMPI POP SWAP1 DUP5 PUSH1 0x1 SWAP6 SWAP5 SWAP4 SWAP3 LT PUSH2 0x28FC JUMPI JUMPDEST POP POP POP DUP2 SHL ADD PUSH1 0x5 DUP3 ADD SSTORE PUSH2 0x2827 JUMP JUMPDEST ADD MLOAD PUSH1 0x0 NOT PUSH1 0xF8 DUP5 PUSH1 0x3 SHL AND SHR NOT AND SWAP1 SSTORE DUP7 DUP1 DUP1 PUSH2 0x28EC JUMP JUMPDEST SWAP3 SWAP4 PUSH1 0x20 PUSH1 0x1 DUP2 SWAP3 DUP8 DUP7 ADD MLOAD DUP2 SSTORE ADD SWAP6 ADD SWAP4 ADD PUSH2 0x28D6 JUMP JUMPDEST SWAP1 PUSH1 0x1F NOT DUP4 AND SWAP2 PUSH1 0x4 DUP6 ADD PUSH1 0x0 MSTORE PUSH1 0x20 PUSH1 0x0 KECCAK256 SWAP3 PUSH1 0x0 JUMPDEST DUP2 DUP2 LT PUSH2 0x2983 JUMPI POP SWAP1 DUP5 PUSH1 0x1 SWAP6 SWAP5 SWAP4 SWAP3 LT PUSH2 0x296A JUMPI JUMPDEST POP POP POP DUP2 SHL ADD PUSH1 0x4 DUP3 ADD SSTORE PUSH2 0x27CA JUMP JUMPDEST ADD MLOAD PUSH1 0x0 NOT PUSH1 0xF8 DUP5 PUSH1 0x3 SHL AND SHR NOT AND SWAP1 SSTORE DUP7 DUP1 DUP1 PUSH2 0x295A JUMP JUMPDEST SWAP3 SWAP4 PUSH1 0x20 PUSH1 0x1 DUP2 SWAP3 DUP8 DUP7 ADD MLOAD DUP2 SSTORE ADD SWAP6 ADD SWAP4 ADD PUSH2 0x2944 JUMP JUMPDEST SWAP2 SWAP1 PUSH1 0x3 DUP5 ADD PUSH1 0x0 MSTORE PUSH1 0x20 PUSH1 0x0 KECCAK256 SWAP1 PUSH1 0x0 SWAP4 JUMPDEST PUSH1 0x1F NOT DUP5 AND DUP6 LT PUSH2 0x29F2 JUMPI PUSH1 0x1 SWAP5 POP DUP4 PUSH1 0x1F NOT DUP2 AND LT PUSH2 0x29D9 JUMPI JUMPDEST POP POP POP DUP2 SHL ADD PUSH1 0x3 DUP3 ADD SSTORE PUSH2 0x276D JUMP JUMPDEST ADD MLOAD PUSH1 0x0 NOT PUSH1 0xF8 DUP5 PUSH1 0x3 SHL AND SHR NOT AND SWAP1 SSTORE DUP7 DUP1 DUP1 PUSH2 0x29C9 JUMP JUMPDEST DUP2 DUP2 ADD MLOAD DUP4 SSTORE PUSH1 0x20 SWAP5 DUP6 ADD SWAP5 PUSH1 0x1 SWAP1 SWAP4 ADD SWAP3 SWAP1 SWAP2 ADD SWAP1 PUSH2 0x29AE JUMP JUMPDEST PUSH1 0x40 MLOAD PUSH3 0x461BCD PUSH1 0xE5 SHL DUP2 MSTORE PUSH1 0x20 PUSH1 0x4 DUP3 ADD MSTORE PUSH1 0x10 PUSH1 0x24 DUP3 ADD MSTORE PUSH16 0x24B73B30B634B210323AB930BA34B7B7 PUSH1 0x81 SHL PUSH1 0x44 DUP3 ADD MSTORE PUSH1 0x64 SWAP1 REVERT JUMPDEST POP PUSH3 0x278D00 PUSH1 0x84 CALLDATALOAD GT ISZERO PUSH2 0x2652 JUMP JUMPDEST CALLVALUE PUSH2 0x3A7 JUMPI PUSH1 0x0 CALLDATASIZE PUSH1 0x3 NOT ADD SLT PUSH2 0x3A7 JUMPI PUSH2 0x2A6D PUSH2 0x40CC JUMP JUMPDEST PUSH1 0x40 MLOAD PUSH2 0x2A79 DUP2 PUSH2 0x35B1 JUMP JUMPDEST PUSH1 0x80 CALLDATASIZE DUP3 CALLDATACOPY PUSH1 0x12 DUP1 SLOAD PUSH2 0x2ABC JUMPI JUMPDEST PUSH1 0x40 MLOAD PUSH32 0x229301218EF01CA6B8DA4D31650C5FDF0265077519DFBBFAF6F3254AA666450B SWAP1 DUP1 PUSH2 0x2AB7 DUP6 DUP3 PUSH2 0x3644 JUMP JUMPDEST SUB SWAP1 LOG1 STOP JUMPDEST PUSH1 0x0 JUMPDEST PUSH1 0x4 DUP2 LT PUSH2 0x2ACD JUMPI POP PUSH2 0x2A87 JUMP JUMPDEST PUSH2 0x2AD6 DUP2 PUSH2 0x35ED JUMP JUMPDEST PUSH2 0x2ADF DUP2 PUSH2 0x35ED JUMP JUMPDEST DUP1 PUSH1 0x0 MSTORE PUSH1 0x20 SWAP1 PUSH1 0x10 DUP3 MSTORE PUSH1 0x40 PUSH1 0x0 KECCAK256 SLOAD SWAP2 PUSH2 0x2710 SWAP3 DUP4 DUP2 MUL SWAP4 DUP2 DUP6 DIV EQ SWAP1 ISZERO OR ISZERO PUSH2 0x72C JUMPI PUSH2 0x2B13 PUSH1 0x1 SWAP4 DUP6 SLOAD SWAP1 PUSH2 0x38FF JUMP JUMPDEST PUSH2 0x2B1D DUP4 DUP8 PUSH2 0x391F JUMP JUMPDEST MSTORE PUSH1 0x11 PUSH2 0x2B2A DUP4 DUP8 PUSH2 0x391F JUMP JUMPDEST MLOAD SWAP2 PUSH2 0x2B35 DUP5 PUSH2 0x35ED JUMP JUMPDEST DUP4 PUSH1 0x0 MSTORE MSTORE PUSH1 0x40 PUSH1 0x0 KECCAK256 SSTORE ADD PUSH2 0x2ABF JUMP JUMPDEST CALLVALUE PUSH2 0x3A7 JUMPI PUSH1 0x40 CALLDATASIZE PUSH1 0x3 NOT ADD SLT PUSH2 0x3A7 JUMPI PUSH2 0x65D PUSH1 0x4 CALLDATALOAD PUSH2 0x2B65 PUSH2 0x3762 JUMP JUMPDEST SWAP1 DUP1 PUSH1 0x0 MSTORE PUSH1 0x0 PUSH1 0x20 MSTORE PUSH2 0x2B80 PUSH1 0x1 PUSH1 0x40 PUSH1 0x0 KECCAK256 ADD SLOAD PUSH2 0x4162 JUMP JUMPDEST PUSH2 0x42D5 JUMP JUMPDEST CALLVALUE PUSH2 0x3A7 JUMPI PUSH1 0xE0 CALLDATASIZE PUSH1 0x3 NOT ADD SLT PUSH2 0x3A7 JUMPI PUSH2 0x2B9E PUSH2 0x3778 JUMP JUMPDEST PUSH1 0x44 CALLDATALOAD PUSH1 0x1 PUSH1 0x1 PUSH1 0xA0 SHL SUB DUP2 AND SWAP1 SUB PUSH2 0x3A7 JUMPI PUSH1 0xFF PUSH1 0x84 CALLDATALOAD AND PUSH1 0x84 CALLDATALOAD SUB PUSH2 0x3A7 JUMPI CALLER PUSH1 0x0 SWAP1 DUP2 MSTORE PUSH32 0xFAF93C3D007E112089DC8351E013E6685EF67703975D0224B26FC45941D4F1F5 PUSH1 0x20 MSTORE PUSH1 0x40 SWAP1 KECCAK256 SLOAD PUSH32 0xE2B7FB3B832174769106DAEBCFD6D1970523240DDA11281102DB9363B83B0DC4 SWAP1 PUSH1 0xFF AND ISZERO PUSH2 0x2FF0 JUMPI POP PUSH2 0x2C21 PUSH2 0x4188 JUMP JUMPDEST PUSH1 0x64 CALLDATALOAD TIMESTAMP GT PUSH2 0x2FB7 JUMPI PUSH1 0x4 CALLDATALOAD PUSH1 0x0 MSTORE PUSH1 0x6 PUSH1 0x20 MSTORE PUSH1 0x40 PUSH1 0x0 KECCAK256 PUSH1 0xFF PUSH1 0xC DUP3 ADD SLOAD AND PUSH1 0x6 DUP2 LT ISZERO PUSH2 0x391 JUMPI PUSH1 0x1 PUSH2 0x2C57 SWAP2 EQ PUSH2 0x3B29 JUMP JUMPDEST PUSH2 0x2C67 PUSH1 0x9 DUP3 ADD SLOAD TIMESTAMP LT ISZERO PUSH2 0x3B6B JUMP JUMPDEST PUSH2 0x2C76 PUSH1 0xA DUP3 ADD SLOAD TIMESTAMP LT PUSH2 0x3BAC JUMP JUMPDEST PUSH2 0x2C86 PUSH1 0x2 PUSH1 0xFF DUP5 AND GT ISZERO PUSH2 0x3BE7 JUMP JUMPDEST PUSH1 0x4 CALLDATALOAD PUSH1 0x0 MSTORE PUSH1 0x8 PUSH1 0x20 MSTORE PUSH1 0x40 PUSH1 0x0 KECCAK256 PUSH1 0x1 DUP1 PUSH1 0xA0 SHL SUB PUSH1 0x44 CALLDATALOAD AND PUSH1 0x0 MSTORE PUSH1 0x20 MSTORE PUSH1 0x40 PUSH1 0x0 KECCAK256 SWAP1 PUSH2 0x2CBB PUSH1 0xFF DUP4 SLOAD AND ISZERO PUSH2 0x3C27 JUMP JUMPDEST PUSH1 0x44 CALLDATALOAD PUSH1 0x1 PUSH1 0x1 PUSH1 0xA0 SHL SUB AND PUSH1 0x0 SWAP1 DUP2 MSTORE PUSH1 0x3 PUSH1 0x20 MSTORE PUSH1 0x40 SWAP1 KECCAK256 DUP1 SLOAD SWAP1 PUSH2 0x2CE1 DUP3 PUSH2 0x3C63 JUMP JUMPDEST SWAP1 SSTORE PUSH1 0x40 MLOAD SWAP1 PUSH1 0x20 DUP3 ADD SWAP1 PUSH32 0xA122AEDC7C2408A97BCFE5D8FF1F6A6D7BF779A8B6DD3D72FF503E8FCF9D2EB9 DUP3 MSTORE PUSH1 0x4 CALLDATALOAD PUSH1 0x40 DUP5 ADD MSTORE PUSH1 0xFF DUP7 AND PUSH1 0x60 DUP5 ADD MSTORE PUSH1 0x1 DUP1 PUSH1 0xA0 SHL SUB PUSH1 0x44 CALLDATALOAD AND PUSH1 0x80 DUP5 ADD MSTORE PUSH1 0xA0 DUP4 ADD MSTORE PUSH1 0x64 CALLDATALOAD PUSH1 0xC0 DUP4 ADD MSTORE PUSH1 0xC0 DUP3 MSTORE PUSH1 0xE0 DUP3 ADD DUP3 DUP2 LT PUSH1 0x1 PUSH1 0x1 PUSH1 0x40 SHL SUB DUP3 GT OR PUSH2 0x1035 JUMPI PUSH2 0x2DCB SWAP3 PUSH2 0x2DC2 SWAP3 DUP3 PUSH1 0x40 MSTORE DUP2 MLOAD SWAP1 KECCAK256 PUSH2 0x122 PUSH2 0x100 DUP4 ADD SWAP3 PUSH2 0x1901 PUSH1 0xF0 SHL DUP5 MSTORE PUSH32 0x0 PUSH2 0x102 DUP3 ADD MSTORE ADD MSTORE PUSH1 0x42 DUP3 MSTORE PUSH2 0x2DAE DUP3 PUSH2 0x35B1 JUMP JUMPDEST PUSH1 0xC4 CALLDATALOAD SWAP2 PUSH1 0xA4 CALLDATALOAD SWAP2 PUSH1 0x84 CALLDATALOAD SWAP2 MLOAD SWAP1 KECCAK256 PUSH2 0x4471 JUMP JUMPDEST SWAP1 SWAP3 SWAP2 SWAP3 PUSH2 0x4501 JUMP JUMPDEST PUSH1 0x1 PUSH1 0x1 PUSH1 0xA0 SHL SUB PUSH1 0x44 CALLDATALOAD DUP2 AND SWAP2 AND SUB PUSH2 0x2F7E JUMPI PUSH1 0x2 SLOAD PUSH1 0x1 DUP3 ADD SLOAD PUSH1 0x40 MLOAD PUSH4 0x6DED6A19 PUSH1 0xE1 SHL DUP2 MSTORE PUSH1 0x4 DUP2 ADD SWAP2 SWAP1 SWAP2 MSTORE PUSH1 0x1 PUSH1 0x1 PUSH1 0xA0 SHL SUB PUSH1 0x44 DUP1 CALLDATALOAD DUP3 AND PUSH1 0x24 DUP5 ADD MSTORE SWAP2 SWAP5 SWAP3 PUSH1 0x20 SWAP3 DUP7 SWAP3 SWAP1 SWAP2 DUP4 SWAP2 AND GAS STATICCALL SWAP3 DUP4 ISZERO PUSH2 0x1229 JUMPI PUSH1 0x0 SWAP4 PUSH2 0x2F47 JUMPI JUMPDEST POP PUSH1 0xFF PUSH1 0x2 PUSH2 0x2ECA SWAP4 DUP6 PUSH1 0x1 DUP2 SWAP6 PUSH2 0x2E46 DUP4 ISZERO ISZERO PUSH2 0x3C72 JUMP JUMPDEST DUP1 SLOAD PUSH2 0xFF00 PUSH1 0x8 DUP13 SWAP1 SHL AND DUP8 NOT SWAP1 SWAP2 AND DUP4 OR PUSH2 0xFF00 NOT AND OR DUP2 SSTORE ADD SSTORE DUP7 DUP4 AND PUSH2 0x2F18 JUMPI PUSH1 0x7 DUP2 ADD PUSH2 0x2E78 DUP6 DUP3 SLOAD PUSH2 0x3CB0 JUMP JUMPDEST SWAP1 SSTORE JUMPDEST PUSH1 0x44 CALLDATALOAD PUSH1 0x1 PUSH1 0x1 PUSH1 0xA0 SHL SUB AND PUSH1 0x0 SWAP1 DUP2 MSTORE PUSH1 0xA PUSH1 0x20 MSTORE PUSH1 0x40 SWAP1 KECCAK256 DUP1 SLOAD PUSH2 0x2EA0 SWAP1 PUSH2 0x3C63 JUMP JUMPDEST SWAP1 SSTORE PUSH1 0x44 CALLDATALOAD PUSH1 0x1 PUSH1 0x1 PUSH1 0xA0 SHL SUB AND PUSH1 0x0 SWAP1 DUP2 MSTORE PUSH1 0xB PUSH1 0x20 MSTORE PUSH1 0x40 SWAP1 KECCAK256 TIMESTAMP SWAP1 SSTORE ADD SLOAD PUSH1 0xA0 SHR AND PUSH2 0x41AB JUMP JUMPDEST PUSH1 0xFF PUSH1 0x40 MLOAD SWAP3 AND DUP3 MSTORE PUSH1 0x20 DUP3 ADD MSTORE CALLER PUSH1 0x40 DUP3 ADD MSTORE PUSH1 0x1 DUP1 PUSH1 0xA0 SHL SUB PUSH1 0x44 CALLDATALOAD AND SWAP1 PUSH32 0xB7A759F14619C0391B65E3F8CEB8FD342A3E24929E81D83493445A4A1C87D0FC PUSH1 0x60 PUSH1 0x4 CALLDATALOAD SWAP3 LOG3 PUSH1 0x1 DUP1 SSTORE STOP JUMPDEST DUP7 DUP4 AND PUSH1 0x1 SUB PUSH2 0x2F38 JUMPI PUSH1 0x6 DUP2 ADD PUSH2 0x2F31 DUP6 DUP3 SLOAD PUSH2 0x3CB0 JUMP JUMPDEST SWAP1 SSTORE PUSH2 0x2E7B JUMP JUMPDEST PUSH1 0x8 DUP2 ADD PUSH2 0x2F31 DUP6 DUP3 SLOAD PUSH2 0x3CB0 JUMP JUMPDEST SWAP2 SWAP3 POP PUSH1 0x20 DUP3 RETURNDATASIZE PUSH1 0x20 GT PUSH2 0x2F76 JUMPI JUMPDEST DUP2 PUSH2 0x2F63 PUSH1 0x20 SWAP4 DUP4 PUSH2 0x35CC JUMP JUMPDEST DUP2 ADD SUB SLT PUSH2 0x3A7 JUMPI SWAP1 MLOAD SWAP2 SWAP1 PUSH1 0xFF PUSH2 0x2E2D JUMP JUMPDEST RETURNDATASIZE SWAP2 POP PUSH2 0x2F56 JUMP JUMPDEST PUSH1 0x40 MLOAD PUSH3 0x461BCD PUSH1 0xE5 SHL DUP2 MSTORE PUSH1 0x20 PUSH1 0x4 DUP3 ADD MSTORE PUSH1 0x11 PUSH1 0x24 DUP3 ADD MSTORE PUSH17 0x496E76616C6964207369676E6174757265 PUSH1 0x78 SHL PUSH1 0x44 DUP3 ADD MSTORE PUSH1 0x64 SWAP1 REVERT JUMPDEST PUSH1 0x40 MLOAD PUSH3 0x461BCD PUSH1 0xE5 SHL DUP2 MSTORE PUSH1 0x20 PUSH1 0x4 DUP3 ADD MSTORE PUSH1 0x11 PUSH1 0x24 DUP3 ADD MSTORE PUSH17 0x14DA59DB985D1D5C9948195E1C1A5C9959 PUSH1 0x7A SHL PUSH1 0x44 DUP3 ADD MSTORE PUSH1 0x64 SWAP1 REVERT JUMPDEST PUSH1 0x44 SWAP1 PUSH1 0x40 MLOAD SWAP1 PUSH4 0xE2517D3F PUSH1 0xE0 SHL DUP3 MSTORE CALLER PUSH1 0x4 DUP4 ADD MSTORE PUSH1 0x24 DUP3 ADD MSTORE REVERT JUMPDEST CALLVALUE PUSH2 0x3A7 JUMPI PUSH1 0x0 CALLDATASIZE PUSH1 0x3 NOT ADD SLT PUSH2 0x3A7 JUMPI PUSH1 0x20 PUSH1 0x40 MLOAD PUSH2 0x9C4 DUP2 MSTORE RETURN JUMPDEST CALLVALUE PUSH2 0x3A7 JUMPI PUSH1 0x20 CALLDATASIZE PUSH1 0x3 NOT ADD SLT PUSH2 0x3A7 JUMPI PUSH1 0x4 CALLDATALOAD PUSH1 0x0 MSTORE PUSH1 0x0 PUSH1 0x20 MSTORE PUSH1 0x20 PUSH1 0x1 PUSH1 0x40 PUSH1 0x0 KECCAK256 ADD SLOAD PUSH1 0x40 MLOAD SWAP1 DUP2 MSTORE RETURN JUMPDEST CALLVALUE PUSH2 0x3A7 JUMPI PUSH1 0x20 CALLDATASIZE PUSH1 0x3 NOT ADD SLT PUSH2 0x3A7 JUMPI PUSH2 0x3073 PUSH2 0x3A04 JUMP JUMPDEST POP PUSH1 0x4 CALLDATALOAD PUSH1 0x0 MSTORE PUSH1 0xC PUSH1 0x20 MSTORE PUSH2 0x796 PUSH2 0x308F PUSH1 0x40 PUSH1 0x0 KECCAK256 PUSH2 0x3A60 JUMP JUMPDEST PUSH1 0x40 MLOAD SWAP2 DUP3 SWAP2 PUSH1 0x20 DUP4 MSTORE PUSH1 0x20 DUP4 ADD SWAP1 PUSH2 0x367F JUMP JUMPDEST CALLVALUE PUSH2 0x3A7 JUMPI PUSH1 0x20 CALLDATASIZE PUSH1 0x3 NOT ADD SLT PUSH2 0x3A7 JUMPI PUSH1 0x4 CALLDATALOAD PUSH1 0x4 DUP2 LT ISZERO PUSH2 0x3A7 JUMPI PUSH2 0x30C9 DUP2 PUSH2 0x35ED JUMP JUMPDEST PUSH1 0x0 MSTORE PUSH1 0x11 PUSH1 0x20 MSTORE PUSH1 0x20 PUSH1 0x40 PUSH1 0x0 KECCAK256 SLOAD PUSH1 0x40 MLOAD SWAP1 DUP2 MSTORE RETURN JUMPDEST CALLVALUE PUSH2 0x3A7 JUMPI PUSH1 0x20 CALLDATASIZE PUSH1 0x3 NOT ADD SLT PUSH2 0x3A7 JUMPI PUSH1 0x4 CALLDATALOAD PUSH1 0x4 DUP2 LT ISZERO PUSH2 0x3A7 JUMPI PUSH2 0x3107 DUP2 PUSH2 0x35ED JUMP JUMPDEST PUSH1 0x0 MSTORE PUSH1 0x10 PUSH1 0x20 MSTORE PUSH1 0x20 PUSH1 0x40 PUSH1 0x0 KECCAK256 SLOAD PUSH1 0x40 MLOAD SWAP1 DUP2 MSTORE RETURN JUMPDEST CALLVALUE PUSH2 0x3A7 JUMPI PUSH1 0x20 CALLDATASIZE PUSH1 0x3 NOT ADD SLT PUSH2 0x3A7 JUMPI CALLER PUSH1 0x0 SWAP1 DUP2 MSTORE PUSH32 0xDAE2AA361DFD1CA020A396615627D436107C35EFF9FE7738A3512819782D7069 PUSH1 0x20 MSTORE PUSH1 0x40 SWAP1 KECCAK256 SLOAD PUSH1 0x4 CALLDATALOAD SWAP1 PUSH32 0xD8AA0F3194971A2A116679F7C2090F6939C8D4E01A2A8D7E41D55E5351469E63 SWAP1 PUSH1 0xFF AND ISZERO PUSH2 0x2FF0 JUMPI POP PUSH2 0x3196 PUSH2 0x4188 JUMP JUMPDEST DUP1 PUSH1 0x0 MSTORE PUSH1 0x6 PUSH1 0x20 MSTORE PUSH1 0xC PUSH1 0x40 PUSH1 0x0 KECCAK256 ADD DUP1 SLOAD PUSH1 0xFF DUP2 AND PUSH1 0x6 DUP2 LT ISZERO PUSH2 0x391 JUMPI PUSH1 0x2 SUB PUSH2 0x31F1 JUMPI PUSH1 0xFF NOT AND PUSH1 0x4 OR SWAP1 SSTORE PUSH32 0x712AE1383F79AC853F8D882153778E0260EF8F03B504E2866E0593E04D2B291F PUSH1 0x0 DUP1 LOG2 PUSH1 0x1 DUP1 SSTORE STOP JUMPDEST PUSH1 0x40 MLOAD PUSH3 0x461BCD PUSH1 0xE5 SHL DUP2 MSTORE PUSH1 0x20 PUSH1 0x4 DUP3 ADD MSTORE PUSH1 0x16 PUSH1 0x24 DUP3 ADD MSTORE PUSH22 0x141C9BDC1BDCD85B081B9BDD081CDD58D8D959591959 PUSH1 0x52 SHL PUSH1 0x44 DUP3 ADD MSTORE PUSH1 0x64 SWAP1 REVERT JUMPDEST CALLVALUE PUSH2 0x3A7 JUMPI PUSH1 0x0 CALLDATASIZE PUSH1 0x3 NOT ADD SLT PUSH2 0x3A7 JUMPI PUSH2 0x796 PUSH2 0x324B PUSH2 0x3946 JUMP JUMPDEST PUSH1 0x40 MLOAD SWAP2 DUP3 SWAP2 DUP3 PUSH2 0x3644 JUMP JUMPDEST CALLVALUE PUSH2 0x3A7 JUMPI PUSH1 0x0 CALLDATASIZE PUSH1 0x3 NOT ADD SLT PUSH2 0x3A7 JUMPI PUSH1 0x20 PUSH1 0x40 MLOAD PUSH32 0xD8AA0F3194971A2A116679F7C2090F6939C8D4E01A2A8D7E41D55E5351469E63 DUP2 MSTORE RETURN JUMPDEST CALLVALUE PUSH2 0x3A7 JUMPI PUSH1 0x0 CALLDATASIZE PUSH1 0x3 NOT ADD SLT PUSH2 0x3A7 JUMPI PUSH1 0x20 PUSH1 0x4 SLOAD PUSH1 0x40 MLOAD SWAP1 DUP2 MSTORE RETURN JUMPDEST CALLVALUE PUSH2 0x3A7 JUMPI PUSH1 0x20 CALLDATASIZE PUSH1 0x3 NOT ADD SLT PUSH2 0x3A7 JUMPI PUSH1 0x4 CALLDATALOAD PUSH4 0xFFFFFFFF PUSH1 0xE0 SHL DUP2 AND DUP1 SWAP2 SUB PUSH2 0x3A7 JUMPI PUSH1 0x20 SWAP1 PUSH4 0x7965DB0B PUSH1 0xE0 SHL DUP2 EQ SWAP1 DUP2 ISZERO PUSH2 0x32F5 JUMPI JUMPDEST POP PUSH1 0x40 MLOAD SWAP1 ISZERO ISZERO DUP2 MSTORE RETURN JUMPDEST PUSH4 0x1FFC9A7 PUSH1 0xE0 SHL EQ SWAP1 POP DUP3 PUSH2 0x32EA JUMP JUMPDEST CALLVALUE PUSH2 0x3A7 JUMPI PUSH1 0x20 CALLDATASIZE PUSH1 0x3 NOT ADD SLT PUSH2 0x3A7 JUMPI PUSH1 0x4 CALLDATALOAD PUSH1 0x0 MSTORE PUSH1 0x6 PUSH1 0x20 MSTORE PUSH1 0x40 PUSH1 0x0 KECCAK256 DUP1 SLOAD SWAP1 PUSH1 0x1 DUP2 ADD SLOAD SWAP1 PUSH1 0x2 DUP2 ADD SLOAD SWAP3 PUSH1 0x80 DUP1 PUSH1 0x3 DUP5 ADD SWAP1 PUSH2 0x3347 SWAP2 PUSH2 0x34C8 JUMP JUMPDEST SUB PUSH1 0x80 SWAP1 PUSH2 0x3354 SWAP2 PUSH2 0x35CC JUMP JUMPDEST PUSH1 0x40 MLOAD SWAP1 DUP2 PUSH2 0x3366 DUP2 PUSH1 0x4 DUP7 ADD PUSH2 0x34C8 JUMP JUMPDEST SUB PUSH2 0x3371 SWAP1 DUP4 PUSH2 0x35CC JUMP JUMPDEST PUSH1 0x40 MLOAD SWAP2 DUP3 PUSH2 0x3383 DUP2 PUSH1 0x5 DUP8 ADD PUSH2 0x34C8 JUMP JUMPDEST SUB PUSH2 0x338E SWAP1 DUP5 PUSH2 0x35CC JUMP JUMPDEST PUSH1 0x6 DUP5 ADD SLOAD SWAP3 PUSH1 0x7 DUP6 ADD SLOAD PUSH1 0x8 DUP7 ADD SLOAD PUSH1 0x9 DUP8 ADD SLOAD SWAP2 PUSH1 0xA DUP9 ADD SLOAD SWAP4 PUSH1 0xB DUP10 ADD SLOAD SWAP6 PUSH1 0xC DUP11 ADD SLOAD PUSH1 0xFF AND SWAP8 PUSH1 0x40 MLOAD DUP1 PUSH1 0xD DUP2 SWAP14 ADD SWAP1 PUSH2 0x33CC SWAP2 PUSH2 0x34C8 JUMP JUMPDEST SUB PUSH2 0x33D7 SWAP1 DUP13 PUSH2 0x35CC JUMP JUMPDEST PUSH1 0x40 MLOAD SWAP13 DUP14 SWAP13 DUP14 PUSH2 0x1E0 SWAP4 DUP2 MSTORE PUSH1 0x20 ADD MSTORE DUP13 PUSH1 0x1 PUSH1 0xA0 SHL PUSH1 0x1 SWAP1 SUB DUP3 AND SWAP1 PUSH1 0x40 ADD MSTORE DUP1 PUSH1 0xA0 SHR PUSH1 0xFF AND PUSH2 0x3409 SWAP1 PUSH2 0x35ED JUMP JUMPDEST PUSH1 0xA0 SHR PUSH1 0xFF AND PUSH1 0x60 DUP14 ADD MSTORE DUP1 PUSH1 0x80 DUP14 ADD MSTORE DUP12 ADD PUSH1 0x80 SWAP1 PUSH2 0x3428 SWAP2 PUSH2 0x35F7 JUMP JUMPDEST DUP12 DUP2 SUB PUSH1 0xA0 DUP14 ADD MSTORE PUSH2 0x3439 SWAP2 PUSH2 0x35F7 JUMP JUMPDEST DUP11 DUP2 SUB PUSH1 0xC0 DUP13 ADD MSTORE PUSH2 0x344A SWAP2 PUSH2 0x35F7 JUMP JUMPDEST SWAP7 PUSH1 0xE0 DUP11 ADD MSTORE PUSH2 0x100 DUP10 ADD MSTORE PUSH2 0x120 DUP9 ADD MSTORE PUSH2 0x140 DUP8 ADD MSTORE PUSH2 0x160 DUP7 ADD MSTORE PUSH2 0x180 DUP6 ADD MSTORE PUSH2 0x1A0 DUP5 ADD PUSH2 0x347C SWAP2 PUSH2 0x3637 JUMP JUMPDEST DUP3 DUP2 SUB PUSH2 0x1C0 DUP5 ADD MSTORE PUSH2 0x796 SWAP2 PUSH2 0x35F7 JUMP JUMPDEST SWAP1 PUSH1 0x1 DUP3 DUP2 SHR SWAP3 AND DUP1 ISZERO PUSH2 0x34BE JUMPI JUMPDEST PUSH1 0x20 DUP4 LT EQ PUSH2 0x34A8 JUMPI JUMP JUMPDEST PUSH4 0x4E487B71 PUSH1 0xE0 SHL PUSH1 0x0 MSTORE PUSH1 0x22 PUSH1 0x4 MSTORE PUSH1 0x24 PUSH1 0x0 REVERT JUMPDEST SWAP2 PUSH1 0x7F AND SWAP2 PUSH2 0x349D JUMP JUMPDEST DUP1 SLOAD PUSH1 0x0 SWAP4 SWAP3 PUSH2 0x34D7 DUP3 PUSH2 0x348E JUMP JUMPDEST SWAP2 DUP3 DUP3 MSTORE PUSH1 0x20 SWAP4 PUSH1 0x1 SWAP2 PUSH1 0x1 DUP2 AND SWAP1 DUP2 PUSH1 0x0 EQ PUSH2 0x353F JUMPI POP PUSH1 0x1 EQ PUSH2 0x34FE JUMPI JUMPDEST POP POP POP POP POP JUMP JUMPDEST SWAP1 SWAP4 SWAP5 SWAP6 POP PUSH1 0x0 SWAP3 SWAP2 SWAP3 MSTORE DUP4 PUSH1 0x0 KECCAK256 SWAP3 DUP5 PUSH1 0x0 SWAP5 JUMPDEST DUP4 DUP7 LT PUSH2 0x352B JUMPI POP POP POP POP ADD ADD SWAP1 CODESIZE DUP1 DUP1 DUP1 DUP1 PUSH2 0x34F7 JUMP JUMPDEST DUP1 SLOAD DUP6 DUP8 ADD DUP4 ADD MSTORE SWAP5 ADD SWAP4 DUP6 SWAP1 DUP3 ADD PUSH2 0x3513 JUMP JUMPDEST PUSH1 0xFF NOT AND DUP7 DUP6 ADD MSTORE POP POP POP SWAP1 ISZERO ISZERO PUSH1 0x5 SHL ADD ADD SWAP2 POP CODESIZE DUP1 DUP1 DUP1 DUP1 PUSH2 0x34F7 JUMP JUMPDEST PUSH2 0x180 DUP2 ADD SWAP1 DUP2 LT PUSH1 0x1 PUSH1 0x1 PUSH1 0x40 SHL SUB DUP3 GT OR PUSH2 0x1035 JUMPI PUSH1 0x40 MSTORE JUMP JUMPDEST PUSH2 0x1E0 DUP2 ADD SWAP1 DUP2 LT PUSH1 0x1 PUSH1 0x1 PUSH1 0x40 SHL SUB DUP3 GT OR PUSH2 0x1035 JUMPI PUSH1 0x40 MSTORE JUMP JUMPDEST PUSH1 0x60 DUP2 ADD SWAP1 DUP2 LT PUSH1 0x1 PUSH1 0x1 PUSH1 0x40 SHL SUB DUP3 GT OR PUSH2 0x1035 JUMPI PUSH1 0x40 MSTORE JUMP JUMPDEST PUSH1 0x80 DUP2 ADD SWAP1 DUP2 LT PUSH1 0x1 PUSH1 0x1 PUSH1 0x40 SHL SUB DUP3 GT OR PUSH2 0x1035 JUMPI PUSH1 0x40 MSTORE JUMP JUMPDEST SWAP1 PUSH1 0x1F DUP1 NOT SWAP2 ADD AND DUP2 ADD SWAP1 DUP2 LT PUSH1 0x1 PUSH1 0x1 PUSH1 0x40 SHL SUB DUP3 GT OR PUSH2 0x1035 JUMPI PUSH1 0x40 MSTORE JUMP JUMPDEST PUSH1 0x4 GT ISZERO PUSH2 0x391 JUMPI JUMP JUMPDEST SWAP2 SWAP1 DUP3 MLOAD SWAP3 DUP4 DUP3 MSTORE PUSH1 0x0 JUMPDEST DUP5 DUP2 LT PUSH2 0x3623 JUMPI POP POP DUP3 PUSH1 0x0 PUSH1 0x20 DUP1 SWAP5 SWAP6 DUP5 ADD ADD MSTORE PUSH1 0x1F DUP1 NOT SWAP2 ADD AND ADD ADD SWAP1 JUMP JUMPDEST PUSH1 0x20 DUP2 DUP4 ADD DUP2 ADD MLOAD DUP5 DUP4 ADD DUP3 ADD MSTORE ADD PUSH2 0x3602 JUMP JUMPDEST SWAP1 PUSH1 0x6 DUP3 LT ISZERO PUSH2 0x391 JUMPI MSTORE JUMP JUMPDEST PUSH1 0x80 DUP2 ADD SWAP3 SWAP2 PUSH1 0x0 SWAP2 JUMPDEST PUSH1 0x4 DUP4 LT PUSH2 0x365B JUMPI POP POP POP JUMP JUMPDEST PUSH1 0x1 SWAP1 DUP3 MLOAD DUP2 MSTORE PUSH1 0x20 DUP1 SWAP2 ADD SWAP3 ADD SWAP3 ADD SWAP2 SWAP1 PUSH2 0x364E JUMP JUMPDEST SWAP1 PUSH1 0x3 DUP3 LT ISZERO PUSH2 0x391 JUMPI MSTORE JUMP JUMPDEST SWAP1 PUSH2 0x36E4 PUSH2 0x36D2 PUSH2 0x36C0 PUSH2 0x180 DUP6 MLOAD DUP6 MSTORE PUSH1 0x20 DUP7 ADD MLOAD PUSH1 0x20 DUP7 ADD MSTORE PUSH1 0x1 DUP1 PUSH1 0xA0 SHL SUB PUSH1 0x40 DUP8 ADD MLOAD AND PUSH1 0x40 DUP7 ADD MSTORE PUSH1 0x60 DUP7 ADD MLOAD SWAP1 DUP1 PUSH1 0x60 DUP8 ADD MSTORE DUP6 ADD SWAP1 PUSH2 0x35F7 JUMP JUMPDEST PUSH1 0x80 DUP6 ADD MLOAD DUP5 DUP3 SUB PUSH1 0x80 DUP7 ADD MSTORE PUSH2 0x35F7 JUMP JUMPDEST PUSH1 0xA0 DUP5 ADD MLOAD DUP4 DUP3 SUB PUSH1 0xA0 DUP6 ADD MSTORE PUSH2 0x35F7 JUMP JUMPDEST SWAP2 PUSH1 0xC0 DUP2 ADD MLOAD PUSH1 0xC0 DUP4 ADD MSTORE PUSH1 0xE0 DUP2 ADD MLOAD PUSH1 0xE0 DUP4 ADD MSTORE PUSH2 0x100 DUP1 DUP3 ADD MLOAD SWAP1 DUP4 ADD MSTORE PUSH2 0x120 DUP1 DUP3 ADD MLOAD SWAP1 DUP4 ADD MSTORE PUSH2 0x3722 PUSH2 0x140 DUP1 DUP4 ADD MLOAD SWAP1 DUP5 ADD SWAP1 PUSH2 0x3672 JUMP JUMPDEST PUSH2 0x160 DUP1 SWAP2 ADD MLOAD SWAP2 ADD MSTORE SWAP1 JUMP JUMPDEST CALLVALUE PUSH2 0x3A7 JUMPI PUSH1 0x0 CALLDATASIZE PUSH1 0x3 NOT ADD SLT PUSH2 0x3A7 JUMPI PUSH1 0x20 PUSH1 0x40 MLOAD PUSH2 0x1388 DUP2 MSTORE RETURN JUMPDEST PUSH1 0x4 CALLDATALOAD SWAP1 PUSH1 0x1 PUSH1 0x1 PUSH1 0xA0 SHL SUB DUP3 AND DUP3 SUB PUSH2 0x3A7 JUMPI JUMP JUMPDEST PUSH1 0x24 CALLDATALOAD SWAP1 PUSH1 0x1 PUSH1 0x1 PUSH1 0xA0 SHL SUB DUP3 AND DUP3 SUB PUSH2 0x3A7 JUMPI JUMP JUMPDEST PUSH1 0x24 CALLDATALOAD SWAP1 PUSH1 0xFF DUP3 AND DUP3 SUB PUSH2 0x3A7 JUMPI JUMP JUMPDEST DUP2 PUSH1 0x1F DUP3 ADD SLT ISZERO PUSH2 0x3A7 JUMPI DUP1 CALLDATALOAD SWAP1 PUSH1 0x1 PUSH1 0x1 PUSH1 0x40 SHL SUB DUP3 GT PUSH2 0x1035 JUMPI PUSH1 0x40 MLOAD SWAP3 PUSH2 0x37BC PUSH1 0x1F DUP5 ADD PUSH1 0x1F NOT AND PUSH1 0x20 ADD DUP6 PUSH2 0x35CC JUMP JUMPDEST DUP3 DUP5 MSTORE PUSH1 0x20 DUP4 DUP4 ADD ADD GT PUSH2 0x3A7 JUMPI DUP2 PUSH1 0x0 SWAP3 PUSH1 0x20 DUP1 SWAP4 ADD DUP4 DUP7 ADD CALLDATACOPY DUP4 ADD ADD MSTORE SWAP1 JUMP JUMPDEST CALLVALUE PUSH2 0x3A7 JUMPI PUSH1 0x0 CALLDATASIZE PUSH1 0x3 NOT ADD SLT PUSH2 0x3A7 JUMPI PUSH1 0x20 PUSH1 0x40 MLOAD PUSH2 0x1F4 DUP2 MSTORE RETURN JUMPDEST CALLVALUE PUSH2 0x3A7 JUMPI PUSH1 0x0 CALLDATASIZE PUSH1 0x3 NOT ADD SLT PUSH2 0x3A7 JUMPI PUSH1 0x20 PUSH1 0x40 MLOAD PUSH2 0xBB8 DUP2 MSTORE RETURN JUMPDEST SWAP1 PUSH2 0x38FC SWAP2 PUSH2 0x3894 PUSH2 0x3882 PUSH2 0x3870 PUSH2 0x1E0 DUP5 MLOAD DUP7 MSTORE PUSH1 0x20 DUP6 ADD MLOAD PUSH1 0x20 DUP8 ADD MSTORE PUSH1 0x1 DUP1 PUSH1 0xA0 SHL SUB PUSH1 0x40 DUP7 ADD MLOAD AND PUSH1 0x40 DUP8 ADD MSTORE PUSH1 0x60 DUP6 ADD MLOAD PUSH2 0x3857 DUP2 PUSH2 0x35ED JUMP JUMPDEST PUSH1 0x60 DUP8 ADD MSTORE PUSH1 0x80 DUP6 ADD MLOAD SWAP1 DUP1 PUSH1 0x80 DUP9 ADD MSTORE DUP7 ADD SWAP1 PUSH2 0x35F7 JUMP JUMPDEST PUSH1 0xA0 DUP5 ADD MLOAD DUP6 DUP3 SUB PUSH1 0xA0 DUP8 ADD MSTORE PUSH2 0x35F7 JUMP JUMPDEST PUSH1 0xC0 DUP4 ADD MLOAD DUP5 DUP3 SUB PUSH1 0xC0 DUP7 ADD MSTORE PUSH2 0x35F7 JUMP JUMPDEST SWAP2 PUSH1 0xE0 DUP3 ADD MLOAD PUSH1 0xE0 DUP3 ADD MSTORE PUSH2 0x100 DUP1 DUP4 ADD MLOAD SWAP1 DUP3 ADD MSTORE PUSH2 0x120 DUP1 DUP4 ADD MLOAD SWAP1 DUP3 ADD MSTORE PUSH2 0x140 DUP1 DUP4 ADD MLOAD SWAP1 DUP3 ADD MSTORE PUSH2 0x160 DUP1 DUP4 ADD MLOAD SWAP1 DUP3 ADD MSTORE PUSH2 0x180 DUP1 DUP4 ADD MLOAD SWAP1 DUP3 ADD MSTORE PUSH2 0x38E9 PUSH2 0x1A0 DUP1 DUP5 ADD MLOAD SWAP1 DUP4 ADD SWAP1 PUSH2 0x3637 JUMP JUMPDEST PUSH2 0x1C0 DUP1 SWAP3 ADD MLOAD SWAP2 DUP2 DUP5 SUB SWAP2 ADD MSTORE PUSH2 0x35F7 JUMP JUMPDEST SWAP1 JUMP JUMPDEST DUP2 ISZERO PUSH2 0x3909 JUMPI DIV SWAP1 JUMP JUMPDEST PUSH4 0x4E487B71 PUSH1 0xE0 SHL PUSH1 0x0 MSTORE PUSH1 0x12 PUSH1 0x4 MSTORE PUSH1 0x24 PUSH1 0x0 REVERT JUMPDEST SWAP1 PUSH1 0x4 DUP2 LT ISZERO PUSH2 0x3930 JUMPI PUSH1 0x5 SHL ADD SWAP1 JUMP JUMPDEST PUSH4 0x4E487B71 PUSH1 0xE0 SHL PUSH1 0x0 MSTORE PUSH1 0x32 PUSH1 0x4 MSTORE PUSH1 0x24 PUSH1 0x0 REVERT JUMPDEST PUSH1 0x40 DUP1 MLOAD SWAP2 PUSH2 0x3954 DUP4 PUSH2 0x35B1 JUMP JUMPDEST PUSH1 0x80 CALLDATASIZE DUP5 CALLDATACOPY DUP3 SWAP1 PUSH1 0x12 SLOAD SWAP4 DUP5 ISZERO PUSH2 0x39E5 JUMPI POP PUSH1 0x0 JUMPDEST PUSH1 0x4 DUP1 DUP3 LT ISZERO PUSH2 0x39DC JUMPI PUSH2 0x397C DUP3 PUSH2 0x35ED JUMP JUMPDEST PUSH2 0x3985 DUP3 PUSH2 0x35ED JUMP JUMPDEST DUP2 PUSH1 0x0 MSTORE PUSH1 0x10 PUSH1 0x20 MSTORE DUP5 PUSH1 0x0 KECCAK256 SLOAD SWAP1 PUSH2 0x2710 SWAP2 DUP3 DUP2 MUL SWAP3 DUP2 DUP5 DIV EQ SWAP1 ISZERO OR ISZERO PUSH2 0x39C7 JUMPI POP SWAP1 PUSH2 0x39B6 DUP7 PUSH1 0x1 SWAP4 PUSH2 0x38FF JUMP JUMPDEST PUSH2 0x39C0 DUP3 DUP7 PUSH2 0x391F JUMP JUMPDEST MSTORE ADD PUSH2 0x3969 JUMP JUMPDEST PUSH1 0x11 SWAP1 PUSH4 0x4E487B71 PUSH1 0xE0 SHL PUSH1 0x0 MSTORE MSTORE PUSH1 0x24 PUSH1 0x0 REVERT JUMPDEST POP POP SWAP3 POP SWAP1 POP SWAP1 JUMP JUMPDEST SWAP4 POP SWAP2 POP POP JUMP JUMPDEST SWAP1 PUSH1 0x6 DUP2 LT ISZERO PUSH2 0x391 JUMPI PUSH1 0xFF DUP1 NOT DUP4 SLOAD AND SWAP2 AND OR SWAP1 SSTORE JUMP JUMPDEST PUSH1 0x40 MLOAD SWAP1 PUSH2 0x3A11 DUP3 PUSH2 0x355E JUMP JUMPDEST DUP2 PUSH2 0x160 PUSH1 0x0 SWAP2 DUP3 DUP2 MSTORE DUP3 PUSH1 0x20 DUP3 ADD MSTORE DUP3 PUSH1 0x40 DUP3 ADD MSTORE PUSH1 0x60 DUP1 DUP3 ADD MSTORE PUSH1 0x60 PUSH1 0x80 DUP3 ADD MSTORE PUSH1 0x60 PUSH1 0xA0 DUP3 ADD MSTORE DUP3 PUSH1 0xC0 DUP3 ADD MSTORE DUP3 PUSH1 0xE0 DUP3 ADD MSTORE DUP3 PUSH2 0x100 DUP3 ADD MSTORE DUP3 PUSH2 0x120 DUP3 ADD MSTORE DUP3 PUSH2 0x140 DUP3 ADD MSTORE ADD MSTORE JUMP JUMPDEST SWAP1 PUSH1 0x40 MLOAD PUSH2 0x3A6D DUP2 PUSH2 0x355E JUMP JUMPDEST DUP1 SWAP3 DUP1 SLOAD DUP3 MSTORE PUSH1 0x1 DUP2 ADD SLOAD PUSH1 0x20 DUP4 ADD MSTORE PUSH1 0x1 DUP1 PUSH1 0xA0 SHL SUB PUSH1 0x2 DUP3 ADD SLOAD AND PUSH1 0x40 DUP4 ADD MSTORE PUSH1 0x40 MLOAD PUSH2 0x3AA3 DUP2 PUSH2 0x1D9B DUP2 PUSH1 0x3 DUP7 ADD PUSH2 0x34C8 JUMP JUMPDEST PUSH1 0x60 DUP4 ADD MSTORE PUSH1 0x40 MLOAD PUSH2 0x3ABC DUP2 PUSH2 0x1D9B DUP2 PUSH1 0x4 DUP7 ADD PUSH2 0x34C8 JUMP JUMPDEST PUSH1 0x80 DUP4 ADD MSTORE PUSH1 0x40 MLOAD PUSH2 0x3AD5 DUP2 PUSH2 0x1D9B DUP2 PUSH1 0x5 DUP7 ADD PUSH2 0x34C8 JUMP JUMPDEST PUSH1 0xA0 DUP4 ADD MSTORE PUSH1 0x6 DUP2 ADD SLOAD PUSH1 0xC0 DUP4 ADD MSTORE PUSH1 0x7 DUP2 ADD SLOAD PUSH1 0xE0 DUP4 ADD MSTORE PUSH1 0x8 DUP2 ADD SLOAD PUSH2 0x100 DUP4 ADD MSTORE PUSH1 0x9 DUP2 ADD SLOAD PUSH2 0x120 DUP4 ADD MSTORE PUSH1 0xFF PUSH1 0xA DUP3 ADD SLOAD AND PUSH1 0x3 DUP2 LT ISZERO PUSH2 0x391 JUMPI PUSH2 0x160 SWAP2 PUSH1 0xB SWAP2 PUSH2 0x140 DUP6 ADD MSTORE ADD SLOAD SWAP2 ADD MSTORE JUMP JUMPDEST ISZERO PUSH2 0x3B30 JUMPI JUMP JUMPDEST PUSH1 0x40 MLOAD PUSH3 0x461BCD PUSH1 0xE5 SHL DUP2 MSTORE PUSH1 0x20 PUSH1 0x4 DUP3 ADD MSTORE PUSH1 0x13 PUSH1 0x24 DUP3 ADD MSTORE PUSH19 0x50726F706F73616C206E6F7420616374697665 PUSH1 0x68 SHL PUSH1 0x44 DUP3 ADD MSTORE PUSH1 0x64 SWAP1 REVERT JUMPDEST ISZERO PUSH2 0x3B72 JUMPI JUMP JUMPDEST PUSH1 0x40 MLOAD PUSH3 0x461BCD PUSH1 0xE5 SHL DUP2 MSTORE PUSH1 0x20 PUSH1 0x4 DUP3 ADD MSTORE PUSH1 0x12 PUSH1 0x24 DUP3 ADD MSTORE PUSH18 0x159BDD1A5B99C81B9BDD081CDD185C9D1959 PUSH1 0x72 SHL PUSH1 0x44 DUP3 ADD MSTORE PUSH1 0x64 SWAP1 REVERT JUMPDEST ISZERO PUSH2 0x3BB3 JUMPI JUMP JUMPDEST PUSH1 0x40 MLOAD PUSH3 0x461BCD PUSH1 0xE5 SHL DUP2 MSTORE PUSH1 0x20 PUSH1 0x4 DUP3 ADD MSTORE PUSH1 0xC PUSH1 0x24 DUP3 ADD MSTORE PUSH12 0x159BDD1A5B99C8195B991959 PUSH1 0xA2 SHL PUSH1 0x44 DUP3 ADD MSTORE PUSH1 0x64 SWAP1 REVERT JUMPDEST ISZERO PUSH2 0x3BEE JUMPI JUMP JUMPDEST PUSH1 0x40 MLOAD PUSH3 0x461BCD PUSH1 0xE5 SHL DUP2 MSTORE PUSH1 0x20 PUSH1 0x4 DUP3 ADD MSTORE PUSH1 0x11 PUSH1 0x24 DUP3 ADD MSTORE PUSH17 0x496E76616C696420766F74652074797065 PUSH1 0x78 SHL PUSH1 0x44 DUP3 ADD MSTORE PUSH1 0x64 SWAP1 REVERT JUMPDEST ISZERO PUSH2 0x3C2E JUMPI JUMP JUMPDEST PUSH1 0x40 MLOAD PUSH3 0x461BCD PUSH1 0xE5 SHL DUP2 MSTORE PUSH1 0x20 PUSH1 0x4 DUP3 ADD MSTORE PUSH1 0xD PUSH1 0x24 DUP3 ADD MSTORE PUSH13 0x105B1C9958591E481D9BDD1959 PUSH1 0x9A SHL PUSH1 0x44 DUP3 ADD MSTORE PUSH1 0x64 SWAP1 REVERT JUMPDEST PUSH1 0x0 NOT DUP2 EQ PUSH2 0x72C JUMPI PUSH1 0x1 ADD SWAP1 JUMP JUMPDEST ISZERO PUSH2 0x3C79 JUMPI JUMP JUMPDEST PUSH1 0x40 MLOAD PUSH3 0x461BCD PUSH1 0xE5 SHL DUP2 MSTORE PUSH1 0x20 PUSH1 0x4 DUP3 ADD MSTORE PUSH1 0xF PUSH1 0x24 DUP3 ADD MSTORE PUSH15 0x2737903B37BA34B733903837BBB2B9 PUSH1 0x89 SHL PUSH1 0x44 DUP3 ADD MSTORE PUSH1 0x64 SWAP1 REVERT JUMPDEST SWAP2 SWAP1 DUP3 ADD DUP1 SWAP3 GT PUSH2 0x72C JUMPI JUMP JUMPDEST SWAP1 PUSH1 0x1F DUP2 GT PUSH2 0x3CCB JUMPI POP POP POP JUMP JUMPDEST PUSH1 0x0 SWAP2 PUSH1 0x0 MSTORE PUSH1 0x20 PUSH1 0x0 KECCAK256 SWAP1 PUSH1 0x20 PUSH1 0x1F DUP6 ADD PUSH1 0x5 SHR DUP4 ADD SWAP5 LT PUSH2 0x3D09 JUMPI JUMPDEST PUSH1 0x1F ADD PUSH1 0x5 SHR ADD SWAP2 JUMPDEST DUP3 DUP2 LT PUSH2 0x3CFE JUMPI POP POP POP JUMP JUMPDEST DUP2 DUP2 SSTORE PUSH1 0x1 ADD PUSH2 0x3CF2 JUMP JUMPDEST SWAP1 SWAP3 POP DUP3 SWAP1 PUSH2 0x3CE9 JUMP JUMPDEST PUSH1 0x12 SLOAD DUP1 ISZERO PUSH2 0x3E19 JUMPI PUSH1 0x0 DUP1 JUMPDEST PUSH1 0x4 SWAP1 DUP2 DUP4 LT ISZERO PUSH2 0x3DF4 JUMPI PUSH2 0x3D34 DUP4 PUSH2 0x35ED JUMP JUMPDEST PUSH2 0x3D3D DUP4 PUSH2 0x35ED JUMP JUMPDEST DUP3 PUSH1 0x0 MSTORE PUSH1 0x10 PUSH1 0x20 MSTORE PUSH1 0x40 PUSH1 0x0 KECCAK256 SLOAD PUSH2 0x2710 SWAP1 DUP2 DUP2 MUL SWAP2 DUP2 DUP4 DIV EQ SWAP1 ISZERO OR ISZERO PUSH2 0x3DDF JUMPI DUP5 PUSH2 0x3D6A SWAP2 PUSH2 0x38FF JUMP JUMPDEST PUSH2 0x9C4 SWAP3 SWAP1 PUSH1 0x0 DUP5 DUP3 GT ISZERO PUSH2 0x3DBB JUMPI POP PUSH2 0x9C3 NOT DUP2 ADD SWAP1 DUP2 GT PUSH2 0x3DA6 JUMPI JUMPDEST DUP4 SUB SWAP3 DUP4 GT PUSH2 0x39C7 JUMPI POP PUSH1 0x1 SWAP2 PUSH2 0x3D9E SWAP2 PUSH2 0x3CB0 JUMP JUMPDEST SWAP2 ADD SWAP1 PUSH2 0x3D20 JUMP JUMPDEST PUSH1 0x11 DUP3 PUSH4 0x4E487B71 PUSH1 0xE0 SHL PUSH1 0x0 MSTORE MSTORE PUSH1 0x24 PUSH1 0x0 REVERT JUMPDEST SWAP1 DUP5 SUB SWAP1 DUP5 DUP3 GT PUSH2 0x3DCC JUMPI POP PUSH2 0x3D88 JUMP JUMPDEST PUSH4 0x4E487B71 PUSH1 0xE0 SHL DUP2 MSTORE PUSH1 0x11 DUP4 MSTORE PUSH1 0x24 SWAP1 REVERT JUMPDEST PUSH1 0x11 DUP4 PUSH4 0x4E487B71 PUSH1 0xE0 SHL PUSH1 0x0 MSTORE MSTORE PUSH1 0x24 PUSH1 0x0 REVERT JUMPDEST SWAP3 POP POP POP PUSH1 0x1 SHR SWAP1 PUSH2 0x1388 DUP3 ADD DUP1 SWAP3 GT PUSH2 0x72C JUMPI PUSH2 0x2710 DUP1 DUP4 GT PUSH2 0x3E15 JUMPI POP JUMP JUMPDEST SWAP2 POP JUMP JUMPDEST POP PUSH1 0x0 SWAP1 JUMP JUMPDEST ISZERO PUSH2 0x3E26 JUMPI JUMP JUMPDEST PUSH1 0x40 MLOAD PUSH3 0x461BCD PUSH1 0xE5 SHL DUP2 MSTORE PUSH1 0x20 PUSH1 0x4 DUP3 ADD MSTORE PUSH1 0x1B PUSH1 0x24 DUP3 ADD MSTORE PUSH32 0x4D75737420686F6C6420746F6B656E7320746F2070726F706F73650000000000 PUSH1 0x44 DUP3 ADD MSTORE PUSH1 0x64 SWAP1 REVERT JUMPDEST PUSH1 0x1 PUSH1 0x1 PUSH1 0x40 SHL SUB DUP2 GT PUSH2 0x1035 JUMPI PUSH1 0x5 SHL PUSH1 0x20 ADD SWAP1 JUMP JUMPDEST PUSH1 0x40 MLOAD SWAP1 PUSH2 0x3E8F DUP3 PUSH2 0x357A JUMP JUMPDEST PUSH1 0x60 PUSH2 0x1C0 DUP4 PUSH1 0x0 DUP1 DUP3 MSTORE DUP1 PUSH1 0x20 DUP4 ADD MSTORE DUP1 PUSH1 0x40 DUP4 ADD MSTORE DUP1 DUP5 DUP4 ADD MSTORE DUP4 PUSH1 0x80 DUP4 ADD MSTORE DUP4 PUSH1 0xA0 DUP4 ADD MSTORE DUP4 PUSH1 0xC0 DUP4 ADD MSTORE DUP1 PUSH1 0xE0 DUP4 ADD MSTORE DUP1 PUSH2 0x100 DUP4 ADD MSTORE DUP1 PUSH2 0x120 DUP4 ADD MSTORE DUP1 PUSH2 0x140 DUP4 ADD MSTORE DUP1 PUSH2 0x160 DUP4 ADD MSTORE DUP1 PUSH2 0x180 DUP4 ADD MSTORE PUSH2 0x1A0 DUP3 ADD MSTORE ADD MSTORE JUMP JUMPDEST DUP1 MLOAD DUP3 LT ISZERO PUSH2 0x3930 JUMPI PUSH1 0x20 SWAP2 PUSH1 0x5 SHL ADD ADD SWAP1 JUMP JUMPDEST SWAP1 PUSH1 0x40 SWAP2 DUP3 MLOAD SWAP3 PUSH2 0x3F14 DUP5 PUSH2 0x357A JUMP JUMPDEST DUP2 SLOAD DUP5 MSTORE PUSH1 0x1 DUP3 ADD SLOAD PUSH1 0x20 DUP6 ADD MSTORE PUSH1 0x2 DUP3 ADD SLOAD PUSH1 0x1 PUSH1 0x1 PUSH1 0xA0 SHL SUB DUP2 AND DUP3 DUP7 ADD MSTORE DUP5 SWAP1 PUSH1 0xA0 SHR PUSH1 0xFF AND PUSH2 0x3F46 DUP2 PUSH2 0x35ED JUMP JUMPDEST PUSH1 0x60 DUP3 ADD MSTORE DUP2 MLOAD PUSH2 0x3F5E DUP2 PUSH2 0x1D9B DUP2 PUSH1 0x3 DUP9 ADD PUSH2 0x34C8 JUMP JUMPDEST PUSH1 0x80 DUP3 ADD MSTORE DUP2 MLOAD PUSH2 0x3F76 DUP2 PUSH2 0x1D9B DUP2 PUSH1 0x4 DUP9 ADD PUSH2 0x34C8 JUMP JUMPDEST PUSH1 0xA0 DUP3 ADD MSTORE DUP2 MLOAD PUSH2 0x3F8E DUP2 PUSH2 0x1D9B DUP2 PUSH1 0x5 DUP9 ADD PUSH2 0x34C8 JUMP JUMPDEST PUSH1 0xC0 DUP3 ADD MSTORE PUSH1 0x6 DUP4 ADD SLOAD PUSH1 0xE0 DUP3 ADD MSTORE PUSH1 0x7 DUP4 ADD SLOAD PUSH2 0x100 DUP3 ADD MSTORE PUSH1 0x8 DUP4 ADD SLOAD PUSH2 0x120 DUP3 ADD MSTORE PUSH1 0x9 DUP4 ADD SLOAD PUSH2 0x140 DUP3 ADD MSTORE PUSH1 0xA DUP4 ADD SLOAD PUSH2 0x160 DUP3 ADD MSTORE PUSH1 0xB DUP4 ADD SLOAD PUSH2 0x180 DUP3 ADD MSTORE PUSH1 0xFF PUSH1 0xC DUP5 ADD SLOAD AND SWAP2 PUSH1 0x6 DUP4 LT ISZERO PUSH2 0x391 JUMPI PUSH1 0xD SWAP4 PUSH2 0x4005 PUSH2 0x400C SWAP3 PUSH2 0x1C0 SWAP6 PUSH2 0x1A0 DUP7 ADD MSTORE MLOAD DUP1 SWAP7 DUP2 SWAP4 ADD PUSH2 0x34C8 JUMP JUMPDEST SUB DUP5 PUSH2 0x35CC JUMP JUMPDEST ADD MSTORE JUMP JUMPDEST PUSH1 0x0 MSTORE PUSH1 0xC PUSH1 0x20 MSTORE PUSH1 0x40 PUSH1 0x0 KECCAK256 PUSH2 0x4030 PUSH1 0x7 PUSH1 0x6 DUP4 ADD SLOAD SWAP3 ADD SLOAD DUP3 PUSH2 0x3CB0 JUMP JUMPDEST DUP1 ISZERO PUSH2 0x4053 JUMPI PUSH2 0x2710 SWAP2 DUP3 DUP2 MUL SWAP3 DUP2 DUP5 DIV EQ SWAP1 ISZERO OR ISZERO PUSH2 0x72C JUMPI PUSH2 0x38FC SWAP2 PUSH2 0x38FF JUMP JUMPDEST POP POP PUSH1 0x0 SWAP1 JUMP JUMPDEST ISZERO PUSH2 0x4061 JUMPI JUMP JUMPDEST PUSH1 0x40 MLOAD PUSH3 0x461BCD PUSH1 0xE5 SHL DUP2 MSTORE PUSH1 0x20 PUSH1 0x4 DUP3 ADD MSTORE PUSH1 0xF PUSH1 0x24 DUP3 ADD MSTORE PUSH15 0x506F6C6C206E6F7420616374697665 PUSH1 0x88 SHL PUSH1 0x44 DUP3 ADD MSTORE PUSH1 0x64 SWAP1 REVERT JUMPDEST PUSH1 0x1 DUP1 PUSH1 0xA0 SHL SUB AND PUSH1 0x0 MSTORE PUSH1 0xB PUSH1 0x20 MSTORE PUSH1 0x40 PUSH1 0x0 KECCAK256 SLOAD TIMESTAMP SUB TIMESTAMP DUP2 GT PUSH2 0x72C JUMPI PUSH3 0x278D00 LT ISZERO PUSH2 0x40C6 JUMPI PUSH1 0x0 SWAP1 JUMP JUMPDEST PUSH1 0x5 SLOAD SWAP1 JUMP JUMPDEST CALLER PUSH1 0x0 SWAP1 DUP2 MSTORE PUSH32 0xAD3228B676F7D3CD4284A5443F17F1962B36E491B30A40B2405849E597BA5FB5 PUSH1 0x20 MSTORE PUSH1 0x40 DUP2 KECCAK256 SLOAD PUSH1 0xFF AND ISZERO PUSH2 0x2FF0 JUMPI POP JUMP JUMPDEST CALLER PUSH1 0x0 SWAP1 DUP2 MSTORE PUSH32 0x3412D5605AC6CD444957CEDB533E5DACAD6378B4BC819EBE3652188A665066D5 PUSH1 0x20 MSTORE PUSH1 0x40 SWAP1 KECCAK256 SLOAD PUSH32 0xB09AA5AEB3702CFD50B6B62BC4532604938F21248A27A1D5CA736082B6819CC1 SWAP1 PUSH1 0xFF AND ISZERO PUSH2 0x2FF0 JUMPI POP JUMP JUMPDEST DUP1 PUSH1 0x0 MSTORE PUSH1 0x0 PUSH1 0x20 MSTORE PUSH1 0x40 PUSH1 0x0 KECCAK256 CALLER PUSH1 0x0 MSTORE PUSH1 0x20 MSTORE PUSH1 0xFF PUSH1 0x40 PUSH1 0x0 KECCAK256 SLOAD AND ISZERO PUSH2 0x2FF0 JUMPI POP JUMP JUMPDEST PUSH1 0x2 PUSH1 0x1 SLOAD EQ PUSH2 0x4199 JUMPI PUSH1 0x2 PUSH1 0x1 SSTORE JUMP JUMPDEST PUSH1 0x40 MLOAD PUSH4 0x3EE5AEB5 PUSH1 0xE0 SHL DUP2 MSTORE PUSH1 0x4 SWAP1 REVERT JUMPDEST SWAP2 SWAP1 SWAP2 PUSH2 0x41B7 DUP2 PUSH2 0x35ED JUMP JUMPDEST PUSH1 0x0 SWAP3 DUP2 DUP5 MSTORE PUSH1 0x20 SWAP4 PUSH1 0x10 DUP6 MSTORE PUSH2 0x41E2 PUSH1 0x40 SWAP3 DUP4 DUP4 KECCAK256 PUSH2 0x41D8 DUP3 DUP3 SLOAD PUSH2 0x3CB0 JUMP JUMPDEST SWAP1 SSTORE PUSH1 0x12 SLOAD PUSH2 0x3CB0 JUMP JUMPDEST SWAP5 DUP6 PUSH1 0x12 SSTORE DUP6 PUSH2 0x424F JUMPI JUMPDEST DUP4 SWAP5 SWAP6 POP PUSH2 0x421B PUSH32 0xF5C781C3E6E5F46E3229C8B1E6E98F96D8A2FE20AA04BAF40E0FBA44A06D5F1 SWAP5 PUSH2 0x35ED JUMP JUMPDEST DUP5 DUP3 MSTORE PUSH1 0x10 DUP2 MSTORE DUP3 DUP1 DUP4 KECCAK256 SLOAD SWAP3 PUSH2 0x4231 DUP8 PUSH2 0x35ED JUMP JUMPDEST DUP7 DUP2 MSTORE PUSH1 0x11 DUP4 MSTORE KECCAK256 SLOAD SWAP1 PUSH2 0x4244 DUP7 PUSH2 0x35ED JUMP JUMPDEST DUP4 MLOAD SWAP3 DUP4 MSTORE DUP3 ADD MSTORE LOG2 JUMP JUMPDEST PUSH2 0x4258 DUP5 PUSH2 0x35ED JUMP JUMPDEST DUP4 DUP3 MSTORE PUSH1 0x10 DUP2 MSTORE DUP3 DUP3 KECCAK256 SLOAD PUSH2 0x2710 SWAP1 DUP2 DUP2 MUL SWAP2 DUP2 DUP4 DIV EQ SWAP1 ISZERO OR ISZERO PUSH2 0x42C1 JUMPI PUSH32 0xF5C781C3E6E5F46E3229C8B1E6E98F96D8A2FE20AA04BAF40E0FBA44A06D5F1 SWAP5 SWAP6 SWAP7 PUSH2 0x42A4 SWAP2 PUSH2 0x38FF JUMP JUMPDEST PUSH2 0x42AD DUP7 PUSH2 0x35ED JUMP JUMPDEST DUP6 DUP4 MSTORE PUSH1 0x11 DUP3 MSTORE DUP4 DUP4 KECCAK256 SSTORE DUP6 SWAP5 SWAP4 POP PUSH2 0x41ED JUMP JUMPDEST PUSH4 0x4E487B71 PUSH1 0xE0 SHL DUP4 MSTORE PUSH1 0x11 PUSH1 0x4 MSTORE PUSH1 0x24 DUP4 REVERT JUMPDEST SWAP1 PUSH1 0x0 SWAP2 DUP1 DUP4 MSTORE DUP3 PUSH1 0x20 MSTORE PUSH1 0x40 DUP4 KECCAK256 SWAP2 PUSH1 0x1 DUP1 PUSH1 0xA0 SHL SUB AND SWAP2 DUP3 DUP5 MSTORE PUSH1 0x20 MSTORE PUSH1 0xFF PUSH1 0x40 DUP5 KECCAK256 SLOAD AND ISZERO PUSH1 0x0 EQ PUSH2 0x434E JUMPI DUP1 DUP4 MSTORE DUP3 PUSH1 0x20 MSTORE PUSH1 0x40 DUP4 KECCAK256 DUP3 DUP5 MSTORE PUSH1 0x20 MSTORE PUSH1 0x40 DUP4 KECCAK256 PUSH1 0x1 PUSH1 0xFF NOT DUP3 SLOAD AND OR SWAP1 SSTORE PUSH32 0x2F8788117E7EFF1D82E926EC794901D17C78024A50270940304540A733656F0D CALLER SWAP4 DUP1 LOG4 PUSH1 0x1 SWAP1 JUMP JUMPDEST POP POP SWAP1 JUMP JUMPDEST SWAP1 PUSH1 0x0 SWAP2 DUP1 DUP4 MSTORE DUP3 PUSH1 0x20 MSTORE PUSH1 0x40 DUP4 KECCAK256 SWAP2 PUSH1 0x1 DUP1 PUSH1 0xA0 SHL SUB AND SWAP2 DUP3 DUP5 MSTORE PUSH1 0x20 MSTORE PUSH1 0xFF PUSH1 0x40 DUP5 KECCAK256 SLOAD AND PUSH1 0x0 EQ PUSH2 0x434E JUMPI DUP1 DUP4 MSTORE DUP3 PUSH1 0x20 MSTORE PUSH1 0x40 DUP4 KECCAK256 DUP3 DUP5 MSTORE PUSH1 0x20 MSTORE PUSH1 0x40 DUP4 KECCAK256 PUSH1 0xFF NOT DUP2 SLOAD AND SWAP1 SSTORE PUSH32 0xF6391F5C32D9C69D2A47EA670B442974B53935D1EDC7FD64EB21E047A839171B CALLER SWAP4 DUP1 LOG4 PUSH1 0x1 SWAP1 JUMP JUMPDEST PUSH2 0x43D1 DUP2 PUSH2 0x35ED JUMP JUMPDEST DUP1 PUSH2 0x4434 JUMPI PUSH2 0x7D0 SWAP1 JUMPDEST PUSH2 0x43E4 DUP2 PUSH2 0x35ED JUMP JUMPDEST PUSH1 0x0 MSTORE PUSH1 0x11 PUSH1 0x20 MSTORE PUSH2 0x1388 PUSH1 0x40 PUSH1 0x0 KECCAK256 SLOAD LT ISZERO PUSH2 0x43FE JUMPI SWAP1 JUMP JUMPDEST PUSH2 0x1F4 DUP2 GT ISZERO PUSH2 0x442B JUMPI PUSH2 0x1F3 NOT DUP2 ADD SWAP1 DUP2 GT PUSH2 0x72C JUMPI JUMPDEST PUSH2 0x3E8 SWAP1 DUP2 DUP2 LT ISZERO PUSH2 0x4426 JUMPI POP SWAP1 JUMP JUMPDEST SWAP1 POP SWAP1 JUMP JUMPDEST POP PUSH2 0x3E8 PUSH2 0x4416 JUMP JUMPDEST PUSH2 0x443D DUP2 PUSH2 0x35ED JUMP JUMPDEST PUSH1 0x1 DUP2 SUB PUSH2 0x444E JUMPI PUSH2 0xBB8 SWAP1 PUSH2 0x43DB JUMP JUMPDEST PUSH2 0x4457 DUP2 PUSH2 0x35ED JUMP JUMPDEST PUSH1 0x2 DUP2 SUB PUSH2 0x4468 JUMPI PUSH2 0x9C4 SWAP1 PUSH2 0x43DB JUMP JUMPDEST PUSH2 0x1388 SWAP1 PUSH2 0x43DB JUMP JUMPDEST SWAP2 SWAP1 PUSH32 0x7FFFFFFFFFFFFFFFFFFFFFFFFFFFFFFF5D576E7357A4501DDFE92F46681B20A0 DUP5 GT PUSH2 0x44F5 JUMPI SWAP3 PUSH1 0x20 SWAP3 SWAP2 PUSH1 0xFF PUSH1 0x80 SWAP6 PUSH1 0x40 MLOAD SWAP5 DUP6 MSTORE AND DUP5 DUP5 ADD MSTORE PUSH1 0x40 DUP4 ADD MSTORE PUSH1 0x60 DUP3 ADD MSTORE PUSH1 0x0 SWAP3 DUP4 SWAP2 DUP3 DUP1 MSTORE PUSH1 0x1 GAS STATICCALL ISZERO PUSH2 0x44E9 JUMPI DUP1 MLOAD PUSH1 0x1 PUSH1 0x1 PUSH1 0xA0 SHL SUB DUP2 AND ISZERO PUSH2 0x44E0 JUMPI SWAP2 DUP2 SWAP1 JUMP JUMPDEST POP DUP1 SWAP2 PUSH1 0x1 SWAP2 SWAP1 JUMP JUMPDEST PUSH1 0x40 MLOAD SWAP1 RETURNDATASIZE SWAP1 DUP3 RETURNDATACOPY RETURNDATASIZE SWAP1 REVERT JUMPDEST POP POP POP PUSH1 0x0 SWAP2 PUSH1 0x3 SWAP2 SWAP1 JUMP JUMPDEST PUSH2 0x450A DUP2 PUSH2 0x35ED JUMP JUMPDEST DUP1 PUSH2 0x4513 JUMPI POP POP JUMP JUMPDEST PUSH2 0x451C DUP2 PUSH2 0x35ED JUMP JUMPDEST PUSH1 0x1 DUP2 SUB PUSH2 0x4536 JUMPI PUSH1 0x40 MLOAD PUSH4 0xF645EEDF PUSH1 0xE0 SHL DUP2 MSTORE PUSH1 0x4 SWAP1 REVERT JUMPDEST PUSH2 0x453F DUP2 PUSH2 0x35ED JUMP JUMPDEST PUSH1 0x2 DUP2 SUB PUSH2 0x4560 JUMPI PUSH1 0x40 MLOAD PUSH4 0xFCE698F7 PUSH1 0xE0 SHL DUP2 MSTORE PUSH1 0x4 DUP2 ADD DUP4 SWAP1 MSTORE PUSH1 0x24 SWAP1 REVERT JUMPDEST DUP1 PUSH2 0x456C PUSH1 0x3 SWAP3 PUSH2 0x35ED JUMP JUMPDEST EQ PUSH2 0x4574 JUMPI POP JUMP JUMPDEST PUSH1 0x24 SWAP1 PUSH1 0x40 MLOAD SWAP1 PUSH4 0x35E2F383 PUSH1 0xE2 SHL DUP3 MSTORE PUSH1 0x4 DUP3 ADD MSTORE REVERT INVALID 0xB1 0xD5 PUSH10 0xDC5621A0A51229B7AC0E SELFDESTRUCT DUP2 RETURN 0xE6 0xDF PUSH17 0xA3F72FE608AA58F74BB69D7BB6A2646970 PUSH7 0x735822122095E2 0xC2 0xE7 PUSH30 0x77C7FAD58EADDFFB5303D20EB256F7D5D7A81E0B0EAD80C5E4FF2264736F PUSH13 0x634300081800332F8788117E7E SELFDESTRUCT SAR DUP3 0xE9 0x26 0xEC PUSH26 0x4901D17C78024A50270940304540A733656F0D00000000000000 "},"methodIdentifiers":{"DEFAULT_ADMIN_ROLE()":"a217fddf","DEMAND_QUORUM_BOOST()":"eac3a6bd","DEMAND_QUORUM_BOOST_THRESHOLD()":"252f57d7","DOMAIN_SEPARATOR()":"3644e515","EXECUTOR_ROLE()":"07bd0265","POLL_PROPOSAL_THRESHOLD()":"808c4479","POLL_QUORUM_BONUS()":"3d8803e2","PROPOSER_ROLE()":"8f61f4f5","QUORUM_EMERGENCY()":"5394c879","QUORUM_PARAMETER()":"248bd471","QUORUM_PROPERTY()":"b277d02a","QUORUM_TREASURY()":"42a7c614","RELAYER_ROLE()":"926d7d7f","VOTE_TYPEHASH()":"86522973","cancelProposal(uint256)":"e0a8f6f5","castVote(uint256,uint8)":"56781388","castVoteBySignature(uint256,uint8,address,uint256,uint8,bytes32,bytes32)":"2dcf0d73","createPoll(uint256,string,string,string,uint256)":"364478e2","createProposal(uint256,uint8,string,string,string,bytes)":"9b699e57","createProposalFromPoll(uint256,uint8,bytes)":"4ce83cdb","demandSnapshots(uint8)":"19546f1a","endPoll(uint256)":"f43b8778","executeProposal(uint256)":"0d61b519","finalizeProposal(uint256)":"5652077c","getActivePolls(uint256)":"63f0c7ff","getActiveProposals(uint256)":"6213e5ea","getCommunityHealthScore()":"49672b70","getDemandBars()":"0af4da41","getDemandForType(uint8)":"cae35ba0","getEffectiveQuorum(uint8)":"bcd77a24","getNonce(address)":"2d0335ab","getPoll(uint256)":"1a8cbcaa","getPollSupport(uint256)":"9c4e99ca","getProposal(uint256)":"c7f758a8","getRoleAdmin(bytes32)":"248a9ca3","getVote(uint256,address)":"bc3f931f","getVoteToEarnBonus(address)":"ecc52c04","grantRole(bytes32,address)":"2f2ff15d","hasRole(bytes32,address)":"91d14854","lastVoteTimestamp(address)":"de1cf4ad","nonces(address)":"7ecebe00","pollCount()":"9207891d","pollParticipants(uint256)":"c3b028e2","pollVotes(uint256,address)":"637e54ac","polls(uint256)":"ac2f0074","propertyToken()":"43ae2695","proposalCount()":"da35c664","proposals(uint256)":"013cf08b","renounceRole(bytes32,address)":"36568abe","revokeRole(bytes32,address)":"d547741f","setVoteToEarnBonus(uint256)":"872d1544","setVotingPeriod(uint256)":"ea0217cf","supportsInterface(bytes4)":"01ffc9a7","takeDemandSnapshot()":"33b5e38e","totalDemandWeight()":"514c3d56","totalVotingPower(uint256)":"536f9f42","typeDemandWeights(uint8)":"0e6c151c","votePoll(uint256,bool)":"9d79a9eb","voteToEarnBonus()":"dd9deb1b","voterParticipationCount(address)":"5c7b264d","votes(uint256,address)":"d23254b4","votingPeriod()":"02a251a3"}}}}}