{"contracts/PhaseManager.sol":{"PhaseManager":{"abi":[{"inputs":[{"internalType":"address","name":"_propertyToken","type":"address"},{"internalType":"address","name":"_governance","type":"address"}],"stateMutability":"nonpayable","type":"constructor"},{"inputs":[],"name":"AccessControlBadConfirmation","type":"error"},{"inputs":[{"internalType":"address","name":"account","type":"address"},{"internalType":"bytes32","name":"neededRole","type":"bytes32"}],"name":"AccessControlUnauthorizedAccount","type":"error"},{"anonymous":false,"inputs":[{"indexed":true,"internalType":"uint256","name":"propertyId","type":"uint256"},{"indexed":true,"internalType":"address","name":"claimer","type":"address"},{"indexed":false,"internalType":"uint256","name":"bonus","type":"uint256"}],"name":"BonusClaimed","type":"event"},{"anonymous":false,"inputs":[{"indexed":true,"internalType":"uint256","name":"propertyId","type":"uint256"},{"indexed":false,"internalType":"uint256","name":"demandBps","type":"uint256"}],"name":"DemandDrivenAdvancement","type":"event"},{"anonymous":false,"inputs":[{"indexed":true,"internalType":"uint256","name":"propertyId","type":"uint256"},{"indexed":false,"internalType":"uint8","name":"demandType","type":"uint8"},{"indexed":false,"internalType":"uint256","name":"demandBps","type":"uint256"}],"name":"DemandNudge","type":"event"},{"anonymous":false,"inputs":[{"indexed":true,"internalType":"uint256","name":"propertyId","type":"uint256"},{"indexed":false,"internalType":"uint256","name":"activeVoters","type":"uint256"},{"indexed":false,"internalType":"uint256","name":"totalEligible","type":"uint256"},{"indexed":false,"internalType":"uint256","name":"engagementPercent","type":"uint256"}],"name":"EngagementUpdated","type":"event"},{"anonymous":false,"inputs":[{"indexed":true,"internalType":"uint256","name":"propertyId","type":"uint256"},{"indexed":false,"internalType":"string","name":"nudgeType","type":"string"},{"indexed":false,"internalType":"uint256","name":"engagementPercent","type":"uint256"}],"name":"NudgeTriggered","type":"event"},{"anonymous":false,"inputs":[{"indexed":true,"internalType":"uint256","name":"propertyId","type":"uint256"},{"indexed":false,"internalType":"uint8","name":"fromPhase","type":"uint8"},{"indexed":false,"internalType":"uint8","name":"toPhase","type":"uint8"},{"indexed":false,"internalType":"uint256","name":"engagementPercent","type":"uint256"}],"name":"PhaseAdvancedByEngagement","type":"event"},{"anonymous":false,"inputs":[{"indexed":true,"internalType":"uint256","name":"propertyId","type":"uint256"},{"indexed":false,"internalType":"uint8","name":"fromPhase","type":"uint8"},{"indexed":false,"internalType":"uint8","name":"toPhase","type":"uint8"}],"name":"PhaseAdvancedBySubscription","type":"event"},{"anonymous":false,"inputs":[{"indexed":true,"internalType":"uint256","name":"propertyId","type":"uint256"},{"indexed":false,"internalType":"uint256","name":"pollParticipants","type":"uint256"},{"indexed":false,"internalType":"uint256","name":"bonusEngagement","type":"uint256"}],"name":"PollBonusApplied","type":"event"},{"anonymous":false,"inputs":[{"indexed":true,"internalType":"uint256","name":"propertyId","type":"uint256"},{"indexed":true,"internalType":"address","name":"participant","type":"address"}],"name":"PollParticipationRecorded","type":"event"},{"anonymous":false,"inputs":[{"indexed":true,"internalType":"uint256","name":"propertyId","type":"uint256"}],"name":"PropertyTrackingStarted","type":"event"},{"anonymous":false,"inputs":[{"indexed":true,"internalType":"uint256","name":"propertyId","type":"uint256"}],"name":"PropertyTrackingStopped","type":"event"},{"anonymous":false,"inputs":[{"indexed":true,"internalType":"bytes32","name":"role","type":"bytes32"},{"indexed":true,"internalType":"bytes32","name":"previousAdminRole","type":"bytes32"},{"indexed":true,"internalType":"bytes32","name":"newAdminRole","type":"bytes32"}],"name":"RoleAdminChanged","type":"event"},{"anonymous":false,"inputs":[{"indexed":true,"internalType":"bytes32","name":"role","type":"bytes32"},{"indexed":true,"internalType":"address","name":"account","type":"address"},{"indexed":true,"internalType":"address","name":"sender","type":"address"}],"name":"RoleGranted","type":"event"},{"anonymous":false,"inputs":[{"indexed":true,"internalType":"bytes32","name":"role","type":"bytes32"},{"indexed":true,"internalType":"address","name":"account","type":"address"},{"indexed":true,"internalType":"address","name":"sender","type":"address"}],"name":"RoleRevoked","type":"event"},{"inputs":[],"name":"BONUS_TOKENS","outputs":[{"internalType":"uint256","name":"","type":"uint256"}],"stateMutability":"view","type":"function"},{"inputs":[],"name":"DEFAULT_ADMIN_ROLE","outputs":[{"internalType":"bytes32","name":"","type":"bytes32"}],"stateMutability":"view","type":"function"},{"inputs":[],"name":"ENGAGEMENT_THRESHOLD","outputs":[{"internalType":"uint256","name":"","type":"uint256"}],"stateMutability":"view","type":"function"},{"inputs":[],"name":"MIN_ENGAGEMENT_PERIOD","outputs":[{"internalType":"uint256","name":"","type":"uint256"}],"stateMutability":"view","type":"function"},{"inputs":[],"name":"OPERATOR_ROLE","outputs":[{"internalType":"bytes32","name":"","type":"bytes32"}],"stateMutability":"view","type":"function"},{"inputs":[],"name":"POLL_BONUS_MULTIPLIER","outputs":[{"internalType":"uint256","name":"","type":"uint256"}],"stateMutability":"view","type":"function"},{"inputs":[{"internalType":"uint256","name":"propertyId","type":"uint256"}],"name":"calculateEngagement","outputs":[{"internalType":"uint256","name":"","type":"uint256"}],"stateMutability":"view","type":"function"},{"inputs":[{"internalType":"uint256","name":"propertyId","type":"uint256"}],"name":"checkSubscriptionAdvancement","outputs":[],"stateMutability":"nonpayable","type":"function"},{"inputs":[{"internalType":"bytes","name":"","type":"bytes"}],"name":"checkUpkeep","outputs":[{"internalType":"bool","name":"upkeepNeeded","type":"bool"},{"internalType":"bytes","name":"performData","type":"bytes"}],"stateMutability":"view","type":"function"},{"inputs":[{"internalType":"uint256","name":"propertyId","type":"uint256"}],"name":"claimEngagementBonus","outputs":[],"stateMutability":"nonpayable","type":"function"},{"inputs":[{"internalType":"uint256","name":"propertyId","type":"uint256"}],"name":"claimPollBoostBonus","outputs":[],"stateMutability":"nonpayable","type":"function"},{"inputs":[],"name":"getCommunityHealth","outputs":[{"internalType":"uint256","name":"","type":"uint256"}],"stateMutability":"view","type":"function"},{"inputs":[{"internalType":"uint256","name":"propertyId","type":"uint256"}],"name":"getDemandEngagementMetrics","outputs":[{"internalType":"uint256","name":"baseEngagement","type":"uint256"},{"internalType":"uint256[4]","name":"demandBars","type":"uint256[4]"},{"internalType":"uint256","name":"healthScore","type":"uint256"},{"internalType":"bool","name":"isReadyForAdvancement","type":"bool"}],"stateMutability":"view","type":"function"},{"inputs":[{"internalType":"uint256","name":"propertyId","type":"uint256"}],"name":"getEngagement","outputs":[{"internalType":"uint256","name":"phaseStartTime","type":"uint256"},{"internalType":"uint256","name":"totalEligible","type":"uint256"},{"internalType":"uint256","name":"activeVoters","type":"uint256"},{"internalType":"uint256","name":"engagementPercent","type":"uint256"},{"internalType":"bool","name":"isTracking","type":"bool"}],"stateMutability":"view","type":"function"},{"inputs":[{"internalType":"bytes32","name":"role","type":"bytes32"}],"name":"getRoleAdmin","outputs":[{"internalType":"bytes32","name":"","type":"bytes32"}],"stateMutability":"view","type":"function"},{"inputs":[],"name":"getTrackedProperties","outputs":[{"internalType":"uint256[]","name":"","type":"uint256[]"}],"stateMutability":"view","type":"function"},{"inputs":[],"name":"governance","outputs":[{"internalType":"contract IGovernance","name":"","type":"address"}],"stateMutability":"view","type":"function"},{"inputs":[{"internalType":"bytes32","name":"role","type":"bytes32"},{"internalType":"address","name":"account","type":"address"}],"name":"grantRole","outputs":[],"stateMutability":"nonpayable","type":"function"},{"inputs":[{"internalType":"uint256","name":"","type":"uint256"},{"internalType":"address","name":"","type":"address"}],"name":"hasClaimed","outputs":[{"internalType":"bool","name":"","type":"bool"}],"stateMutability":"view","type":"function"},{"inputs":[{"internalType":"uint256","name":"propertyId","type":"uint256"},{"internalType":"address","name":"participant","type":"address"}],"name":"hasParticipatedInPolls","outputs":[{"internalType":"bool","name":"","type":"bool"}],"stateMutability":"view","type":"function"},{"inputs":[{"internalType":"bytes32","name":"role","type":"bytes32"},{"internalType":"address","name":"account","type":"address"}],"name":"hasRole","outputs":[{"internalType":"bool","name":"","type":"bool"}],"stateMutability":"view","type":"function"},{"inputs":[{"internalType":"uint256","name":"","type":"uint256"}],"name":"isTracked","outputs":[{"internalType":"bool","name":"","type":"bool"}],"stateMutability":"view","type":"function"},{"inputs":[{"internalType":"uint256","name":"","type":"uint256"}],"name":"lastNudgeTime","outputs":[{"internalType":"uint256","name":"","type":"uint256"}],"stateMutability":"view","type":"function"},{"inputs":[],"name":"nudgeCooldown","outputs":[{"internalType":"uint256","name":"","type":"uint256"}],"stateMutability":"view","type":"function"},{"inputs":[{"internalType":"bytes","name":"performData","type":"bytes"}],"name":"performUpkeep","outputs":[],"stateMutability":"nonpayable","type":"function"},{"inputs":[{"internalType":"uint256","name":"","type":"uint256"},{"internalType":"address","name":"","type":"address"}],"name":"pollParticipated","outputs":[{"internalType":"bool","name":"","type":"bool"}],"stateMutability":"view","type":"function"},{"inputs":[{"internalType":"uint256","name":"","type":"uint256"}],"name":"propertyEngagement","outputs":[{"internalType":"uint256","name":"propertyId","type":"uint256"},{"internalType":"uint256","name":"phaseStartTime","type":"uint256"},{"internalType":"uint256","name":"totalEligibleVoters","type":"uint256"},{"internalType":"uint256","name":"activeVoters","type":"uint256"},{"internalType":"uint256","name":"totalProposals","type":"uint256"},{"internalType":"uint256","name":"votedProposals","type":"uint256"},{"internalType":"bool","name":"isTracking","type":"bool"}],"stateMutability":"view","type":"function"},{"inputs":[{"internalType":"uint256","name":"","type":"uint256"}],"name":"propertyPollCount","outputs":[{"internalType":"uint256","name":"","type":"uint256"}],"stateMutability":"view","type":"function"},{"inputs":[],"name":"propertyToken","outputs":[{"internalType":"contract IPropertyToken","name":"","type":"address"}],"stateMutability":"view","type":"function"},{"inputs":[{"internalType":"uint256","name":"propertyId","type":"uint256"},{"internalType":"address","name":"participant","type":"address"}],"name":"recordPollParticipation","outputs":[],"stateMutability":"nonpayable","type":"function"},{"inputs":[{"internalType":"bytes32","name":"role","type":"bytes32"},{"internalType":"address","name":"callerConfirmation","type":"address"}],"name":"renounceRole","outputs":[],"stateMutability":"nonpayable","type":"function"},{"inputs":[{"internalType":"bytes32","name":"role","type":"bytes32"},{"internalType":"address","name":"account","type":"address"}],"name":"revokeRole","outputs":[],"stateMutability":"nonpayable","type":"function"},{"inputs":[{"internalType":"uint256","name":"newCooldown","type":"uint256"}],"name":"setNudgeCooldown","outputs":[],"stateMutability":"nonpayable","type":"function"},{"inputs":[{"internalType":"uint256","name":"propertyId","type":"uint256"},{"internalType":"uint256","name":"totalEligibleVoters","type":"uint256"}],"name":"startTracking","outputs":[],"stateMutability":"nonpayable","type":"function"},{"inputs":[{"internalType":"uint256","name":"propertyId","type":"uint256"}],"name":"stopTracking","outputs":[],"stateMutability":"nonpayable","type":"function"},{"inputs":[{"internalType":"bytes4","name":"interfaceId","type":"bytes4"}],"name":"supportsInterface","outputs":[{"internalType":"bool","name":"","type":"bool"}],"stateMutability":"view","type":"function"},{"inputs":[{"internalType":"uint256","name":"","type":"uint256"}],"name":"trackedProperties","outputs":[{"internalType":"uint256","name":"","type":"uint256"}],"stateMutability":"view","type":"function"},{"inputs":[{"internalType":"uint256","name":"propertyId","type":"uint256"}],"name":"updateDemandEngagement","outputs":[],"stateMutability":"nonpayable","type":"function"},{"inputs":[{"internalType":"uint256","name":"propertyId","type":"uint256"},{"internalType":"uint256","name":"activeVoters","type":"uint256"},{"internalType":"uint256","name":"totalProposals","type":"uint256"},{"internalType":"uint256","name":"votedProposals","type":"uint256"}],"name":"updateEngagement","outputs":[],"stateMutability":"nonpayable","type":"function"},{"inputs":[{"internalType":"uint256","name":"propertyId","type":"uint256"},{"internalType":"uint256","name":"activeVoters","type":"uint256"},{"internalType":"uint256","name":"totalProposals","type":"uint256"},{"internalType":"uint256","name":"votedProposals","type":"uint256"},{"internalType":"uint256","name":"pollParticipants","type":"uint256"}],"name":"updateEngagementWithPolls","outputs":[],"stateMutability":"nonpayable","type":"function"}],"evm":{"bytecode":{"linkReferences":{},"object":"608034620000b557601f6200240d38819003918201601f19168301916001600160401b03831184841017620000ba578084926040948552833981010312620000b5576200005a60206200005283620000d0565b9201620000d0565b62015180600755600180546001600160a01b039384166001600160a01b031991821617909155600280549290931691161790556200009833620000e5565b50620000a43362000165565b506040516121e59081620002088239f35b600080fd5b634e487b7160e01b600052604160045260246000fd5b51906001600160a01b0382168203620000b557565b6001600160a01b031660008181527fad3228b676f7d3cd4284a5443f17f1962b36e491b30a40b2405849e597ba5fb5602052604081205490919060ff166200016157818052816020526040822081835260205260408220600160ff198254161790553391600080516020620023ed8339815191528180a4600190565b5090565b6001600160a01b031660008181527fee57cd81e84075558e8fcc182a1f4393f91fc97f963a136e66b7f949a62f319f60205260408120549091907f97667070c54ef182b0f5858b034beac1b6f3089aa2d3188bb1e8929f4fa9b9299060ff166200020257808352826020526040832082845260205260408320600160ff19825416179055600080516020620023ed833981519152339380a4600190565b50509056fe608060408181526004918236101561001657600080fd5b600092833560e01c91826301ffc9a71461173a5750816306785d8a146116b95781630ad5f421146116295781631194f9e9146115fc57816311f0072f1461147157816314585aeb14611234578163248a9ca31461120a5781632e94dfda146111aa5781632f2ff15d1461118057816330ae780514611163578163313b79da146110b257816336568abe1461106c5781633a21ccc114610f4457816340ab317114610d8657816343ae269514610d5d5781634585e33b14610cd05781635513de4114610cb2578163587bd4a71461064f5781635aa6e67514610c895781635da6559e14610c6157816363e86eb814610bf55781636675584f14610bd65781636e04ff0d14610b9a57816373de7b4b14610b72578163785b2190146109e15781638085b813146109a9578163816aad3c146108c7578163873f6f9e146108815781638e5359e0146107d057816391d148541461078b57816394c9825d146106cc578163a217fddf146106b1578163a27f71b214610695578163a9dc87261461064f578163b415d27914610633578163c8259776146104c4578163d547741f14610485578163d561248614610244578163f333d6c21461021a575063f5b541a6146101dd57600080fd5b34610216578160031936011261021657602090517f97667070c54ef182b0f5858b034beac1b6f3089aa2d3188bb1e8929f4fa9b9298152f35b5080fd5b828434610241576020366003190112610241575061023a60209235611cf3565b9051908152f35b80fd5b919050346103bd5760209081600319360112610481578235928460018060a01b03600154168351926332665ffb60e01b845286818501528284602481855afa938415610477578394610449575b508451636ea9967760e01b815281810188815260ff861660208201528790829081906040010381865afa90811561043f57849161040e575b5085516304fa617360e01b815282810189815260ff871660208201528890829081906040010381875afa9081156104045785916103ce575b501015806103c1575b610312578280f35b813b156103bd57866024849283885195869485936340d57a6760e11b85528401525af180156103b35761039b575b5092847f7214c5e85040cb3e35452fa6ff842070826b1d0bd195171e1c75e6d07bc1b96c945260038152856003848220426001820155015560ff61038383611ce1565b818551941684521690820152a2388080808481808280f35b6103a4906118bd565b6103af578438610340565b8480fd5b84513d84823e3d90fd5b8280fd5b50600360ff85161061030a565b809550888092503d83116103fd575b6103e7818361191f565b810103126103f85788935138610301565b600080fd5b503d6103dd565b87513d87823e3d90fd5b809450878092503d8311610438575b610427818361191f565b810103126103f857879251386102c9565b503d61041d565b86513d86823e3d90fd5b6104669194503d8085833e61045e818361191f565b810190611c56565b505096505050505050509238610291565b85513d85823e3d90fd5b8380fd5b919050346103bd57806003193601126103bd576104c091356104bb60016104aa61178d565b938387528660205286200154611da9565b611e4d565b5080f35b9050346103bd5760203660031901126103bd578035916104e2611d2f565b82845260056020526104f960ff8286205416611bbe565b828452600360205280842061051460ff600683015416611882565b6002548251630af4da4160e01b8152906080908290869082906001600160a01b03165afa9081156106295786916105fa575b505192847fb3316e92a7702b6d2af84bce789e7e416e7c7d89dd355eb882cbf1bd1e443618848051898152876020820152a2611d4c84101591826105ca575b505061058f578380f35b816020916105be7f25f2b88b09799c057d36c9cc83fc1013f5534e15a4e9ae28471219e7ae85f79f9486612084565b51908152a23880808380f35b6001015462093a808101925082106105e757504210153880610585565b634e487b7160e01b865260119052602485fd5b61061c915060803d608011610622575b610614818361191f565b810190611941565b38610546565b503d61060a565b83513d88823e3d90fd5b5050346102165781600319360112610216576020905160018152f35b9050346103bd57816003193601126103bd578160209361066d61178d565b9235815260098552209060018060a01b0316600052825260ff81600020541690519015158152f35b5050346102165781600319360112610216576020905160328152f35b50503461021657816003193601126102165751908152602090f35b9050346103bd5760803660031901126103bd5761078891817f63bd409a0ca0450137d1b574e1e74a5a18cc8934d8f718c1603619b971ce6737600293359283926107766024359161071b611d2f565b858a526003602052838a209061073760ff600684015416611882565b83600383015560443590820155606435600582015561075586611cf3565b97889101549351938493846040919493926060820195825260208201520152565b0390a26107838282611ec2565b612041565b80f35b9050346103bd57816003193601126103bd57816020936107a961178d565b92358152808552209060018060a01b0316600052825260ff81600020541690519015158152f35b9050346103bd5760203660031901126103bd57803591600080526000602052806000203360005260205260ff8160002054161561086357610e1083101580610856575b1561082057505060075580f35b906020606492519162461bcd60e51b8352820152601060248201526f24b73b30b634b21031b7b7b63237bbb760811b6044820152fd5b5062093a80831115610813565b60449250519063e2517d3f60e01b8252339082015260006024820152fd5b9050346103bd57816003193601126103bd578160209361089f61178d565b9235815260088552209060018060a01b0316600052825260ff81600020541690519015158152f35b919050346103bd57806003193601126103bd578135906108e561178d565b926108ee611d2f565b8285526020906005825261090760ff8488205416611bbe565b838652600982528286206001600160a01b039095166000818152958352948390205460ff166109755750828552600981528185206000858152915220805460ff191660011790557f9c81720c57d474644d653192db4aee34eff3e6b5c6b80e4c283ab58871c9382e8380a380f35b915162461bcd60e51b815291820152601060248201526f105b1c9958591e481c9958dbdc99195960821b6044820152606490fd5b828434610241576020366003190112610241578235925483101561024157506109d3602092611835565b91905490519160031b1c8152f35b83833461021657806003193601126103f8578235906109fe611d2f565b818352600560205260ff8184205416610b3d5780519060e0820182811067ffffffffffffffff821117610b2857815282825260066020830192428452828101602435815260608201878152608083019088825260a084019289845260c085019760018952898b526003602052878b2095518655516001860155516002850155516003840155518883015551600582015501915115159160ff199260ff848354169116179055845468010000000000000000811015610b155790610ac8828760018095019055611835565b81549060031b9086821b91600019901b191617905583855260056020528420918254161790557f3621586063592251acf2253a10fe8119554dbb0bf93d6e875b85a3a66a2166b98280a280f35b634e487b7160e01b855260418652602485fd5b604186634e487b7160e01b6000525260246000fd5b5162461bcd60e51b8152602081850152601060248201526f416c726561647920747261636b696e6760801b6044820152606490fd5b9050346103bd5760203660031901126103bd576020928291358152600a845220549051908152f35b8284346102415750610bab366117a3565b5050610bd2610bb8611ab4565b839291925193849315158452806020850152830190611810565b0390f35b5050346102165781600319360112610216576020906007549051908152f35b9050346103bd5760203660031901126103bd578160e0938235815260036020522080549260018201549260028301546003840154918401549260ff600660058701549601541695815197885260208801528601526060850152608084015260a0830152151560c0820152f35b9050346103bd5760203660031901126103bd5760209282913581526006845220549051908152f35b50503461021657816003193601126102165760025490516001600160a01b039091168152602090f35b5050346102165781600319360112610216576020905162093a808152f35b8383346102165780610ce1366117a3565b90809291810103126103f857600190359182845260036020528320610d0c60ff600683015416611882565b01549262093a808401809411610d4a5750610d2d6107889293421015611a7c565b610d3681611cf3565b90610d45611d4c831015611a3c565b612084565b634e487b7160e01b835260119052602482fd5b50503461021657816003193601126102165760015490516001600160a01b039091168152602090f35b919050346103bd57602090816003193601126104815782359160018060a01b039360019460248382885416865192838092634d8c928d60e11b825233888301525afa8015610f3a578890610f00575b610ddf91506119c0565b84875260088352838720336000528352610e0060ff856000205416156119fe565b8487526003835285848820610e1b60ff600683015416611882565b610e31611d4c610e2a89611cf3565b1015611a3c565b015462093a808101809111610eed5790610e4f889392421015611a7c565b85835260088452848320336000528452846000208760ff1982541617905586541690813b156103bd57856064849283885195869485936346b40cdf60e11b85528401523360248401528b60448401525af180156103b357610ed9575b50507f89e1649e796bc46c9dcd5fd4505f79bfdd9197c8eccbdbaf05a6bfd1cb9ea09b91519384523393a380f35b610ee2906118bd565b6103af578438610eab565b634e487b7160e01b885260118352602488fd5b508381813d8311610f33575b610f16818361191f565b81010312610f2f57610f2a610ddf916119b3565b610dd5565b8780fd5b503d610f0c565b85513d8a823e3d90fd5b8383346102165760a036600319011261021657823560843591610f65611d2f565b818452600360205280842092610f8160ff600686015416611882565b60328102818104603214821517156110595795606461078896970490610fa982602435611990565b9560028101549182881161104f575b7f63bd409a0ca0450137d1b574e1e74a5a18cc8934d8f718c1603619b971ce67377fa924d670d57ce0c4ef66945fcc39ba0d6082deb70a897faa080424140b0b1c7d95938389989694938b60038b96015560443590820155600560643591015561102183611cf3565b86519a8b5260208b019190915260408a0181905298606090a282519182526020820152a26107838282611ec2565b9196508691610fb8565b634e487b7160e01b865260118752602486fd5b83833461021657806003193601126102165761108661178d565b90336001600160a01b038316036110a357506104c0919235611e4d565b5163334bd91960e11b81528390fd5b905082346102415780600319360112610241579190815192838254808652602080960190819484527f8a35acfbc15ff81a39ae7d344fd709f28e8600b4aa8c65c6b64bfe7fe36bd19b90845b81811061114f575050508161111491038261191f565b83519485948186019282875251809352850193925b82811061113857505050500390f35b835185528695509381019392810192600101611129565b8254845292880192600192830192016110fe565b50503461021657816003193601126102165760209051611d4c8152f35b919050346103bd57806003193601126103bd576104c091356111a560016104aa61178d565b611dcf565b838334610216576020366003190112610216578060a093359283815260036020522060018101549260028201549260ff60066111ea600386015494611cf3565b940154169381519586526020860152840152606083015215156080820152f35b9050346103bd5760203660031901126103bd57816020936001923581528085522001549051908152f35b9050346103bd5760209182600319360112610481576001548151634d8c928d60e11b81523381850152833593916001600160a01b03919086908290602490829086165afa801561146757879061142d575b61128f91506119c0565b83865260098552828620338752855260ff8387205416156113eb578386526008855282862033875285526112c960ff8488205416156119fe565b8386526003855260018387206112e560ff600683015416611882565b6112f4611d4c610e2a88611cf3565b015462093a8081018091116113d857906113118792421015611a7c565b848252600886528382203383528652838220600160ff198254161790556001541691823b15610216576064859183865195869485936346b40cdf60e11b8552840152336024840152600260448401525af180156113ce5761139b575b50516002815233927f89e1649e796bc46c9dcd5fd4505f79bfdd9197c8eccbdbaf05a6bfd1cb9ea09b91a380f35b936113c77f89e1649e796bc46c9dcd5fd4505f79bfdd9197c8eccbdbaf05a6bfd1cb9ea09b92956118bd565b939061136d565b82513d87823e3d90fd5b634e487b7160e01b875260118352602487fd5b5083606492519162461bcd60e51b8352820152601c60248201527f446964206e6f7420706172746963697061746520696e20706f6c6c73000000006044820152fd5b508581813d8311611460575b611443818361191f565b8101031261145c5761145761128f916119b3565b611285565b8680fd5b503d611439565b84513d89823e3d90fd5b919050346103bd57602090816003193601126104815782359260808251611497816118e7565b3690376114a384611cf3565b9260018060a01b036002541695835195630af4da4160e01b875260808785818b5afa9687156115f25782976115cb575b5082859697988596519687809263049672b760e41b82525afa9485156115c1578295611592575b508152600382528481209460ff6006870154169586611583575b86611552575b50519586528186015b83821061153d5760e087878760a0830152151560c0820152f35b82806001928a51815201980191019096611523565b6001919650015462093a80810180911161157057421015943861151a565b634e487b7160e01b825260118452602482fd5b9550611d4c8851101595611514565b9094508281813d83116115ba575b6115aa818361191f565b81010312610216575193386114fa565b503d6115a0565b86513d84823e3d90fd5b84959697506115e9849160803d60801161062257610614818361191f565b979695506114d3565b85513d84823e3d90fd5b9050346103bd5760203660031901126103bd578160209360ff923581526005855220541690519015158152f35b919050346103bd57826003193601126103bd57600254815163049672b760e41b81529260209184919082906001600160a01b03165afa9182156116af578392611677575b6020838351908152f35b9091506020813d6020116116a7575b816116936020938361191f565b810103126103bd576020925051903861166d565b3d9150611686565b81513d85823e3d90fd5b9050346103bd5760203660031901126103bd5735906116d6611d2f565b81835260056020526116ed60ff8285205416611882565b81835260036020526006818420019060ff1991828154169055600560205283209081541690557f96fbf803f14da8437e0cbe34df7152f998dbc3b7e2343c52fb4285e90387a9ca8280a280f35b8491346103bd5760203660031901126103bd573563ffffffff60e01b81168091036103bd5760209250637965db0b60e01b811490811561177c575b5015158152f35b6301ffc9a760e01b14905083611775565b602435906001600160a01b03821682036103f857565b9060206003198301126103f85760043567ffffffffffffffff928382116103f857806023830112156103f85781600401359384116103f857602484830101116103f8576024019190565b60005b8381106118005750506000910152565b81810151838201526020016117f0565b90602091611829815180928185528580860191016117ed565b601f01601f1916010190565b60045481101561186c5760046000527f8a35acfbc15ff81a39ae7d344fd709f28e8600b4aa8c65c6b64bfe7fe36bd19b0190600090565b634e487b7160e01b600052603260045260246000fd5b1561188957565b60405162461bcd60e51b815260206004820152600c60248201526b4e6f7420747261636b696e6760a01b6044820152606490fd5b67ffffffffffffffff81116118d157604052565b634e487b7160e01b600052604160045260246000fd5b6080810190811067ffffffffffffffff8211176118d157604052565b6040810190811067ffffffffffffffff8211176118d157604052565b90601f8019910116810190811067ffffffffffffffff8211176118d157604052565b906080828203126103f85780601f830112156103f85760405191611964836118e7565b8290608081019283116103f857905b8282106119805750505090565b8151815260209182019101611973565b9190820180921161199d57565b634e487b7160e01b600052601160045260246000fd5b519081151582036103f857565b156119c757565b60405162461bcd60e51b815260206004820152600f60248201526e139bdd081dda1a5d195b1a5cdd1959608a1b6044820152606490fd5b15611a0557565b60405162461bcd60e51b815260206004820152600f60248201526e105b1c9958591e4818db185a5b5959608a1b6044820152606490fd5b15611a4357565b60405162461bcd60e51b8152602060048201526011602482015270151a1c995cda1bdb19081b9bdd081b595d607a1b6044820152606490fd5b15611a8357565b60405162461bcd60e51b8152602060048201526009602482015268546f6f206561726c7960b81b6044820152606490fd5b6004805460005b818110611aec575050506000906040516020810181811067ffffffffffffffff8211176118d1576040526000815290565b611af581611835565b9054600391821b1c8060005260209182526040806000209160ff60068401541615611b9d5760018093015462093a808101809111611ba9574210611b9d57611b3c81611cf3565b90611d4c821015611b565750505050506001905b01611abb565b8251948501528382015280835291959490935060608601925067ffffffffffffffff831186841017611b885750529190565b604190634e487b7160e01b6000525260246000fd5b50505050600190611b50565b601188634e487b7160e01b6000525260246000fd5b15611bc557565b60405162461bcd60e51b8152602060048201526014602482015273141c9bdc195c9d1e481b9bdd081d1c9858dad95960621b6044820152606490fd5b81601f820112156103f857805167ffffffffffffffff81116118d15760405192611c35601f8301601f19166020018561191f565b818452602082840101116103f857611c5391602080850191016117ed565b90565b610140818303126103f857805192602082015167ffffffffffffffff908181116103f85784611c86918501611c01565b9360408401519182116103f857611c9e918401611c01565b9160608101519160808201519160a08101519160c08201519160e081015160ff811681036103f85791611c53610120611cda61010085016119b3565b93016119b3565b60ff60019116019060ff821161199d57565b600052600360205260406000206002810154908115611d2857600301546127109081810291818304149015171561199d570490565b5050600090565b3360009081527fee57cd81e84075558e8fcc182a1f4393f91fc97f963a136e66b7f949a62f319f60205260409020547f97667070c54ef182b0f5858b034beac1b6f3089aa2d3188bb1e8929f4fa9b9299060ff1615611d8b5750565b6044906040519063e2517d3f60e01b82523360048301526024820152fd5b80600052600060205260406000203360005260205260ff6040600020541615611d8b5750565b9060009180835282602052604083209160018060a01b03169182845260205260ff60408420541615600014611e4857808352826020526040832082845260205260408320600160ff198254161790557f2f8788117e7eff1d82e926ec794901d17c78024a50270940304540a733656f0d339380a4600190565b505090565b9060009180835282602052604083209160018060a01b03169182845260205260ff604084205416600014611e485780835282602052604083208284526020526040832060ff1981541690557ff6391f5c32d9c69d2a47ea670b442974b53935d1edc7fd64eb21e047a839171b339380a4600190565b9081600052602090600682526040611ee1816000205460075490611990565b4210612025576109c4821015611f6a577f505a29c5397a0038bf34d9f7baf0047c3f5eae6323bf8450c1e34dacf7cc2a17928151611f1e81611903565b60148152733ab933b2b73a2fb830b93a34b1b4b830ba34b7b760611b82820152925b8560005260068252428360002055611f618351948486958652850190611810565b918301520390a2565b61177082101580612036575b15611fc8577f505a29c5397a0038bf34d9f7baf0047c3f5eae6323bf8450c1e34dacf7cc2a17928151611fa881611903565b600e81526d36b4b632b9ba37b732afb732b0b960911b8282015292611f40565b611b588210158061202b575b15612025577f505a29c5397a0038bf34d9f7baf0047c3f5eae6323bf8450c1e34dacf7cc2a1792815161200681611903565b600d81526c70686173655f636c6f73696e6760981b8282015292611f40565b50505050565b50611d4c8210611fd4565b50611d4c8210611f76565b9081600052600360205260016040600020015462093a80810180911161199d57421061208057611d4c811015612075575050565b61207e91612084565b565b5050565b600154604080516332665ffb60e01b81526004810184905292936001600160a01b039092169260008082602481885afa9182156121a357819261217d575b5060ff821694600386106120da575b50505050505050565b803b156102165781809160248651809481936340d57a6760e11b83528c60048401525af180156103b357606095937fd786d06dd56df8b68a470fb87593bd3d76a14eeea5cf10760563177bd21496b097959360ff936121539361216e575b50898152600360205260038582204260018201550155611ce1565b8251948552166020840152820152a2388080808080806120d1565b612177906118bd565b38612138565b6121929192503d8084833e61045e818361191f565b5050965050505050505090386120c2565b508251903d90823e3d90fdfea2646970667358221220a6b95bcd038c859bc6db9f44ce0e29e658ad830b09dbcdc8d4c16a70a94c7ca064736f6c634300081800332f8788117e7eff1d82e926ec794901d17c78024a50270940304540a733656f0d","opcodes":"PUSH1 0x80 CALLVALUE PUSH3 0xB5 JUMPI PUSH1 0x1F PUSH3 0x240D CODESIZE DUP2 SWAP1 SUB SWAP2 DUP3 ADD PUSH1 0x1F NOT AND DUP4 ADD SWAP2 PUSH1 0x1 PUSH1 0x1 PUSH1 0x40 SHL SUB DUP4 GT DUP5 DUP5 LT OR PUSH3 0xBA JUMPI DUP1 DUP5 SWAP3 PUSH1 0x40 SWAP5 DUP6 MSTORE DUP4 CODECOPY DUP2 ADD SUB SLT PUSH3 0xB5 JUMPI PUSH3 0x5A PUSH1 0x20 PUSH3 0x52 DUP4 PUSH3 0xD0 JUMP JUMPDEST SWAP3 ADD PUSH3 0xD0 JUMP JUMPDEST PUSH3 0x15180 PUSH1 0x7 SSTORE PUSH1 0x1 DUP1 SLOAD PUSH1 0x1 PUSH1 0x1 PUSH1 0xA0 SHL SUB SWAP4 DUP5 AND PUSH1 0x1 PUSH1 0x1 PUSH1 0xA0 SHL SUB NOT SWAP2 DUP3 AND OR SWAP1 SWAP2 SSTORE PUSH1 0x2 DUP1 SLOAD SWAP3 SWAP1 SWAP4 AND SWAP2 AND OR SWAP1 SSTORE PUSH3 0x98 CALLER PUSH3 0xE5 JUMP JUMPDEST POP PUSH3 0xA4 CALLER PUSH3 0x165 JUMP JUMPDEST POP PUSH1 0x40 MLOAD PUSH2 0x21E5 SWAP1 DUP2 PUSH3 0x208 DUP3 CODECOPY RETURN JUMPDEST PUSH1 0x0 DUP1 REVERT JUMPDEST PUSH4 0x4E487B71 PUSH1 0xE0 SHL PUSH1 0x0 MSTORE PUSH1 0x41 PUSH1 0x4 MSTORE PUSH1 0x24 PUSH1 0x0 REVERT JUMPDEST MLOAD SWAP1 PUSH1 0x1 PUSH1 0x1 PUSH1 0xA0 SHL SUB DUP3 AND DUP3 SUB PUSH3 0xB5 JUMPI JUMP JUMPDEST PUSH1 0x1 PUSH1 0x1 PUSH1 0xA0 SHL SUB AND PUSH1 0x0 DUP2 DUP2 MSTORE PUSH32 0xAD3228B676F7D3CD4284A5443F17F1962B36E491B30A40B2405849E597BA5FB5 PUSH1 0x20 MSTORE PUSH1 0x40 DUP2 KECCAK256 SLOAD SWAP1 SWAP2 SWAP1 PUSH1 0xFF AND PUSH3 0x161 JUMPI DUP2 DUP1 MSTORE DUP2 PUSH1 0x20 MSTORE PUSH1 0x40 DUP3 KECCAK256 DUP2 DUP4 MSTORE PUSH1 0x20 MSTORE PUSH1 0x40 DUP3 KECCAK256 PUSH1 0x1 PUSH1 0xFF NOT DUP3 SLOAD AND OR SWAP1 SSTORE CALLER SWAP2 PUSH1 0x0 DUP1 MLOAD PUSH1 0x20 PUSH3 0x23ED DUP4 CODECOPY DUP2 MLOAD SWAP2 MSTORE DUP2 DUP1 LOG4 PUSH1 0x1 SWAP1 JUMP JUMPDEST POP SWAP1 JUMP JUMPDEST PUSH1 0x1 PUSH1 0x1 PUSH1 0xA0 SHL SUB AND PUSH1 0x0 DUP2 DUP2 MSTORE PUSH32 0xEE57CD81E84075558E8FCC182A1F4393F91FC97F963A136E66B7F949A62F319F PUSH1 0x20 MSTORE PUSH1 0x40 DUP2 KECCAK256 SLOAD SWAP1 SWAP2 SWAP1 PUSH32 0x97667070C54EF182B0F5858B034BEAC1B6F3089AA2D3188BB1E8929F4FA9B929 SWAP1 PUSH1 0xFF AND PUSH3 0x202 JUMPI DUP1 DUP4 MSTORE DUP3 PUSH1 0x20 MSTORE PUSH1 0x40 DUP4 KECCAK256 DUP3 DUP5 MSTORE PUSH1 0x20 MSTORE PUSH1 0x40 DUP4 KECCAK256 PUSH1 0x1 PUSH1 0xFF NOT DUP3 SLOAD AND OR SWAP1 SSTORE PUSH1 0x0 DUP1 MLOAD PUSH1 0x20 PUSH3 0x23ED DUP4 CODECOPY DUP2 MLOAD SWAP2 MSTORE CALLER SWAP4 DUP1 LOG4 PUSH1 0x1 SWAP1 JUMP JUMPDEST POP POP SWAP1 JUMP INVALID PUSH1 0x80 PUSH1 0x40 DUP2 DUP2 MSTORE PUSH1 0x4 SWAP2 DUP3 CALLDATASIZE LT ISZERO PUSH2 0x16 JUMPI PUSH1 0x0 DUP1 REVERT JUMPDEST PUSH1 0x0 SWAP3 DUP4 CALLDATALOAD PUSH1 0xE0 SHR SWAP2 DUP3 PUSH4 0x1FFC9A7 EQ PUSH2 0x173A JUMPI POP DUP2 PUSH4 0x6785D8A EQ PUSH2 0x16B9 JUMPI DUP2 PUSH4 0xAD5F421 EQ PUSH2 0x1629 JUMPI DUP2 PUSH4 0x1194F9E9 EQ PUSH2 0x15FC JUMPI DUP2 PUSH4 0x11F0072F EQ PUSH2 0x1471 JUMPI DUP2 PUSH4 0x14585AEB EQ PUSH2 0x1234 JUMPI DUP2 PUSH4 0x248A9CA3 EQ PUSH2 0x120A JUMPI DUP2 PUSH4 0x2E94DFDA EQ PUSH2 0x11AA JUMPI DUP2 PUSH4 0x2F2FF15D EQ PUSH2 0x1180 JUMPI DUP2 PUSH4 0x30AE7805 EQ PUSH2 0x1163 JUMPI DUP2 PUSH4 0x313B79DA EQ PUSH2 0x10B2 JUMPI DUP2 PUSH4 0x36568ABE EQ PUSH2 0x106C JUMPI DUP2 PUSH4 0x3A21CCC1 EQ PUSH2 0xF44 JUMPI DUP2 PUSH4 0x40AB3171 EQ PUSH2 0xD86 JUMPI DUP2 PUSH4 0x43AE2695 EQ PUSH2 0xD5D JUMPI DUP2 PUSH4 0x4585E33B EQ PUSH2 0xCD0 JUMPI DUP2 PUSH4 0x5513DE41 EQ PUSH2 0xCB2 JUMPI DUP2 PUSH4 0x587BD4A7 EQ PUSH2 0x64F JUMPI DUP2 PUSH4 0x5AA6E675 EQ PUSH2 0xC89 JUMPI DUP2 PUSH4 0x5DA6559E EQ PUSH2 0xC61 JUMPI DUP2 PUSH4 0x63E86EB8 EQ PUSH2 0xBF5 JUMPI DUP2 PUSH4 0x6675584F EQ PUSH2 0xBD6 JUMPI DUP2 PUSH4 0x6E04FF0D EQ PUSH2 0xB9A JUMPI DUP2 PUSH4 0x73DE7B4B EQ PUSH2 0xB72 JUMPI DUP2 PUSH4 0x785B2190 EQ PUSH2 0x9E1 JUMPI DUP2 PUSH4 0x8085B813 EQ PUSH2 0x9A9 JUMPI DUP2 PUSH4 0x816AAD3C EQ PUSH2 0x8C7 JUMPI DUP2 PUSH4 0x873F6F9E EQ PUSH2 0x881 JUMPI DUP2 PUSH4 0x8E5359E0 EQ PUSH2 0x7D0 JUMPI DUP2 PUSH4 0x91D14854 EQ PUSH2 0x78B JUMPI DUP2 PUSH4 0x94C9825D EQ PUSH2 0x6CC JUMPI DUP2 PUSH4 0xA217FDDF EQ PUSH2 0x6B1 JUMPI DUP2 PUSH4 0xA27F71B2 EQ PUSH2 0x695 JUMPI DUP2 PUSH4 0xA9DC8726 EQ PUSH2 0x64F JUMPI DUP2 PUSH4 0xB415D279 EQ PUSH2 0x633 JUMPI DUP2 PUSH4 0xC8259776 EQ PUSH2 0x4C4 JUMPI DUP2 PUSH4 0xD547741F EQ PUSH2 0x485 JUMPI DUP2 PUSH4 0xD5612486 EQ PUSH2 0x244 JUMPI DUP2 PUSH4 0xF333D6C2 EQ PUSH2 0x21A JUMPI POP PUSH4 0xF5B541A6 EQ PUSH2 0x1DD JUMPI PUSH1 0x0 DUP1 REVERT JUMPDEST CALLVALUE PUSH2 0x216 JUMPI DUP2 PUSH1 0x3 NOT CALLDATASIZE ADD SLT PUSH2 0x216 JUMPI PUSH1 0x20 SWAP1 MLOAD PUSH32 0x97667070C54EF182B0F5858B034BEAC1B6F3089AA2D3188BB1E8929F4FA9B929 DUP2 MSTORE RETURN JUMPDEST POP DUP1 REVERT JUMPDEST DUP3 DUP5 CALLVALUE PUSH2 0x241 JUMPI PUSH1 0x20 CALLDATASIZE PUSH1 0x3 NOT ADD SLT PUSH2 0x241 JUMPI POP PUSH2 0x23A PUSH1 0x20 SWAP3 CALLDATALOAD PUSH2 0x1CF3 JUMP JUMPDEST SWAP1 MLOAD SWAP1 DUP2 MSTORE RETURN JUMPDEST DUP1 REVERT JUMPDEST SWAP2 SWAP1 POP CALLVALUE PUSH2 0x3BD JUMPI PUSH1 0x20 SWAP1 DUP2 PUSH1 0x3 NOT CALLDATASIZE ADD SLT PUSH2 0x481 JUMPI DUP3 CALLDATALOAD SWAP3 DUP5 PUSH1 0x1 DUP1 PUSH1 0xA0 SHL SUB PUSH1 0x1 SLOAD AND DUP4 MLOAD SWAP3 PUSH4 0x32665FFB PUSH1 0xE0 SHL DUP5 MSTORE DUP7 DUP2 DUP6 ADD MSTORE DUP3 DUP5 PUSH1 0x24 DUP2 DUP6 GAS STATICCALL SWAP4 DUP5 ISZERO PUSH2 0x477 JUMPI DUP4 SWAP5 PUSH2 0x449 JUMPI JUMPDEST POP DUP5 MLOAD PUSH4 0x6EA99677 PUSH1 0xE0 SHL DUP2 MSTORE DUP2 DUP2 ADD DUP9 DUP2 MSTORE PUSH1 0xFF DUP7 AND PUSH1 0x20 DUP3 ADD MSTORE DUP8 SWAP1 DUP3 SWAP1 DUP2 SWAP1 PUSH1 0x40 ADD SUB DUP2 DUP7 GAS STATICCALL SWAP1 DUP2 ISZERO PUSH2 0x43F JUMPI DUP5 SWAP2 PUSH2 0x40E JUMPI JUMPDEST POP DUP6 MLOAD PUSH4 0x4FA6173 PUSH1 0xE0 SHL DUP2 MSTORE DUP3 DUP2 ADD DUP10 DUP2 MSTORE PUSH1 0xFF DUP8 AND PUSH1 0x20 DUP3 ADD MSTORE DUP9 SWAP1 DUP3 SWAP1 DUP2 SWAP1 PUSH1 0x40 ADD SUB DUP2 DUP8 GAS STATICCALL SWAP1 DUP2 ISZERO PUSH2 0x404 JUMPI DUP6 SWAP2 PUSH2 0x3CE JUMPI JUMPDEST POP LT ISZERO DUP1 PUSH2 0x3C1 JUMPI JUMPDEST PUSH2 0x312 JUMPI DUP3 DUP1 RETURN JUMPDEST DUP2 EXTCODESIZE ISZERO PUSH2 0x3BD JUMPI DUP7 PUSH1 0x24 DUP5 SWAP3 DUP4 DUP9 MLOAD SWAP6 DUP7 SWAP5 DUP6 SWAP4 PUSH4 0x40D57A67 PUSH1 0xE1 SHL DUP6 MSTORE DUP5 ADD MSTORE GAS CALL DUP1 ISZERO PUSH2 0x3B3 JUMPI PUSH2 0x39B JUMPI JUMPDEST POP SWAP3 DUP5 PUSH32 0x7214C5E85040CB3E35452FA6FF842070826B1D0BD195171E1C75E6D07BC1B96C SWAP5 MSTORE PUSH1 0x3 DUP2 MSTORE DUP6 PUSH1 0x3 DUP5 DUP3 KECCAK256 TIMESTAMP PUSH1 0x1 DUP3 ADD SSTORE ADD SSTORE PUSH1 0xFF PUSH2 0x383 DUP4 PUSH2 0x1CE1 JUMP JUMPDEST DUP2 DUP6 MLOAD SWAP5 AND DUP5 MSTORE AND SWAP1 DUP3 ADD MSTORE LOG2 CODESIZE DUP1 DUP1 DUP1 DUP5 DUP2 DUP1 DUP3 DUP1 RETURN JUMPDEST PUSH2 0x3A4 SWAP1 PUSH2 0x18BD JUMP JUMPDEST PUSH2 0x3AF JUMPI DUP5 CODESIZE PUSH2 0x340 JUMP JUMPDEST DUP5 DUP1 REVERT JUMPDEST DUP5 MLOAD RETURNDATASIZE DUP5 DUP3 RETURNDATACOPY RETURNDATASIZE SWAP1 REVERT JUMPDEST DUP3 DUP1 REVERT JUMPDEST POP PUSH1 0x3 PUSH1 0xFF DUP6 AND LT PUSH2 0x30A JUMP JUMPDEST DUP1 SWAP6 POP DUP9 DUP1 SWAP3 POP RETURNDATASIZE DUP4 GT PUSH2 0x3FD JUMPI JUMPDEST PUSH2 0x3E7 DUP2 DUP4 PUSH2 0x191F JUMP JUMPDEST DUP2 ADD SUB SLT PUSH2 0x3F8 JUMPI DUP9 SWAP4 MLOAD CODESIZE PUSH2 0x301 JUMP JUMPDEST PUSH1 0x0 DUP1 REVERT JUMPDEST POP RETURNDATASIZE PUSH2 0x3DD JUMP JUMPDEST DUP8 MLOAD RETURNDATASIZE DUP8 DUP3 RETURNDATACOPY RETURNDATASIZE SWAP1 REVERT JUMPDEST DUP1 SWAP5 POP DUP8 DUP1 SWAP3 POP RETURNDATASIZE DUP4 GT PUSH2 0x438 JUMPI JUMPDEST PUSH2 0x427 DUP2 DUP4 PUSH2 0x191F JUMP JUMPDEST DUP2 ADD SUB SLT PUSH2 0x3F8 JUMPI DUP8 SWAP3 MLOAD CODESIZE PUSH2 0x2C9 JUMP JUMPDEST POP RETURNDATASIZE PUSH2 0x41D JUMP JUMPDEST DUP7 MLOAD RETURNDATASIZE DUP7 DUP3 RETURNDATACOPY RETURNDATASIZE SWAP1 REVERT JUMPDEST PUSH2 0x466 SWAP2 SWAP5 POP RETURNDATASIZE DUP1 DUP6 DUP4 RETURNDATACOPY PUSH2 0x45E DUP2 DUP4 PUSH2 0x191F JUMP JUMPDEST DUP2 ADD SWAP1 PUSH2 0x1C56 JUMP JUMPDEST POP POP SWAP7 POP POP POP POP POP POP POP SWAP3 CODESIZE PUSH2 0x291 JUMP JUMPDEST DUP6 MLOAD RETURNDATASIZE DUP6 DUP3 RETURNDATACOPY RETURNDATASIZE SWAP1 REVERT JUMPDEST DUP4 DUP1 REVERT JUMPDEST SWAP2 SWAP1 POP CALLVALUE PUSH2 0x3BD JUMPI DUP1 PUSH1 0x3 NOT CALLDATASIZE ADD SLT PUSH2 0x3BD JUMPI PUSH2 0x4C0 SWAP2 CALLDATALOAD PUSH2 0x4BB PUSH1 0x1 PUSH2 0x4AA PUSH2 0x178D JUMP JUMPDEST SWAP4 DUP4 DUP8 MSTORE DUP7 PUSH1 0x20 MSTORE DUP7 KECCAK256 ADD SLOAD PUSH2 0x1DA9 JUMP JUMPDEST PUSH2 0x1E4D JUMP JUMPDEST POP DUP1 RETURN JUMPDEST SWAP1 POP CALLVALUE PUSH2 0x3BD JUMPI PUSH1 0x20 CALLDATASIZE PUSH1 0x3 NOT ADD SLT PUSH2 0x3BD JUMPI DUP1 CALLDATALOAD SWAP2 PUSH2 0x4E2 PUSH2 0x1D2F JUMP JUMPDEST DUP3 DUP5 MSTORE PUSH1 0x5 PUSH1 0x20 MSTORE PUSH2 0x4F9 PUSH1 0xFF DUP3 DUP7 KECCAK256 SLOAD AND PUSH2 0x1BBE JUMP JUMPDEST DUP3 DUP5 MSTORE PUSH1 0x3 PUSH1 0x20 MSTORE DUP1 DUP5 KECCAK256 PUSH2 0x514 PUSH1 0xFF PUSH1 0x6 DUP4 ADD SLOAD AND PUSH2 0x1882 JUMP JUMPDEST PUSH1 0x2 SLOAD DUP3 MLOAD PUSH4 0xAF4DA41 PUSH1 0xE0 SHL DUP2 MSTORE SWAP1 PUSH1 0x80 SWAP1 DUP3 SWAP1 DUP7 SWAP1 DUP3 SWAP1 PUSH1 0x1 PUSH1 0x1 PUSH1 0xA0 SHL SUB AND GAS STATICCALL SWAP1 DUP2 ISZERO PUSH2 0x629 JUMPI DUP7 SWAP2 PUSH2 0x5FA JUMPI JUMPDEST POP MLOAD SWAP3 DUP5 PUSH32 0xB3316E92A7702B6D2AF84BCE789E7E416E7C7D89DD355EB882CBF1BD1E443618 DUP5 DUP1 MLOAD DUP10 DUP2 MSTORE DUP8 PUSH1 0x20 DUP3 ADD MSTORE LOG2 PUSH2 0x1D4C DUP5 LT ISZERO SWAP2 DUP3 PUSH2 0x5CA JUMPI JUMPDEST POP POP PUSH2 0x58F JUMPI DUP4 DUP1 RETURN JUMPDEST DUP2 PUSH1 0x20 SWAP2 PUSH2 0x5BE PUSH32 0x25F2B88B09799C057D36C9CC83FC1013F5534E15A4E9AE28471219E7AE85F79F SWAP5 DUP7 PUSH2 0x2084 JUMP JUMPDEST MLOAD SWAP1 DUP2 MSTORE LOG2 CODESIZE DUP1 DUP1 DUP4 DUP1 RETURN JUMPDEST PUSH1 0x1 ADD SLOAD PUSH3 0x93A80 DUP2 ADD SWAP3 POP DUP3 LT PUSH2 0x5E7 JUMPI POP TIMESTAMP LT ISZERO CODESIZE DUP1 PUSH2 0x585 JUMP JUMPDEST PUSH4 0x4E487B71 PUSH1 0xE0 SHL DUP7 MSTORE PUSH1 0x11 SWAP1 MSTORE PUSH1 0x24 DUP6 REVERT JUMPDEST PUSH2 0x61C SWAP2 POP PUSH1 0x80 RETURNDATASIZE PUSH1 0x80 GT PUSH2 0x622 JUMPI JUMPDEST PUSH2 0x614 DUP2 DUP4 PUSH2 0x191F JUMP JUMPDEST DUP2 ADD SWAP1 PUSH2 0x1941 JUMP JUMPDEST CODESIZE PUSH2 0x546 JUMP JUMPDEST POP RETURNDATASIZE PUSH2 0x60A JUMP JUMPDEST DUP4 MLOAD RETURNDATASIZE DUP9 DUP3 RETURNDATACOPY RETURNDATASIZE SWAP1 REVERT JUMPDEST POP POP CALLVALUE PUSH2 0x216 JUMPI DUP2 PUSH1 0x3 NOT CALLDATASIZE ADD SLT PUSH2 0x216 JUMPI PUSH1 0x20 SWAP1 MLOAD PUSH1 0x1 DUP2 MSTORE RETURN JUMPDEST SWAP1 POP CALLVALUE PUSH2 0x3BD JUMPI DUP2 PUSH1 0x3 NOT CALLDATASIZE ADD SLT PUSH2 0x3BD JUMPI DUP2 PUSH1 0x20 SWAP4 PUSH2 0x66D PUSH2 0x178D JUMP JUMPDEST SWAP3 CALLDATALOAD DUP2 MSTORE PUSH1 0x9 DUP6 MSTORE KECCAK256 SWAP1 PUSH1 0x1 DUP1 PUSH1 0xA0 SHL SUB AND PUSH1 0x0 MSTORE DUP3 MSTORE PUSH1 0xFF DUP2 PUSH1 0x0 KECCAK256 SLOAD AND SWAP1 MLOAD SWAP1 ISZERO ISZERO DUP2 MSTORE RETURN JUMPDEST POP POP CALLVALUE PUSH2 0x216 JUMPI DUP2 PUSH1 0x3 NOT CALLDATASIZE ADD SLT PUSH2 0x216 JUMPI PUSH1 0x20 SWAP1 MLOAD PUSH1 0x32 DUP2 MSTORE RETURN JUMPDEST POP POP CALLVALUE PUSH2 0x216 JUMPI DUP2 PUSH1 0x3 NOT CALLDATASIZE ADD SLT PUSH2 0x216 JUMPI MLOAD SWAP1 DUP2 MSTORE PUSH1 0x20 SWAP1 RETURN JUMPDEST SWAP1 POP CALLVALUE PUSH2 0x3BD JUMPI PUSH1 0x80 CALLDATASIZE PUSH1 0x3 NOT ADD SLT PUSH2 0x3BD JUMPI PUSH2 0x788 SWAP2 DUP2 PUSH32 0x63BD409A0CA0450137D1B574E1E74A5A18CC8934D8F718C1603619B971CE6737 PUSH1 0x2 SWAP4 CALLDATALOAD SWAP3 DUP4 SWAP3 PUSH2 0x776 PUSH1 0x24 CALLDATALOAD SWAP2 PUSH2 0x71B PUSH2 0x1D2F JUMP JUMPDEST DUP6 DUP11 MSTORE PUSH1 0x3 PUSH1 0x20 MSTORE DUP4 DUP11 KECCAK256 SWAP1 PUSH2 0x737 PUSH1 0xFF PUSH1 0x6 DUP5 ADD SLOAD AND PUSH2 0x1882 JUMP JUMPDEST DUP4 PUSH1 0x3 DUP4 ADD SSTORE PUSH1 0x44 CALLDATALOAD SWAP1 DUP3 ADD SSTORE PUSH1 0x64 CALLDATALOAD PUSH1 0x5 DUP3 ADD SSTORE PUSH2 0x755 DUP7 PUSH2 0x1CF3 JUMP JUMPDEST SWAP8 DUP9 SWAP2 ADD SLOAD SWAP4 MLOAD SWAP4 DUP5 SWAP4 DUP5 PUSH1 0x40 SWAP2 SWAP5 SWAP4 SWAP3 PUSH1 0x60 DUP3 ADD SWAP6 DUP3 MSTORE PUSH1 0x20 DUP3 ADD MSTORE ADD MSTORE JUMP JUMPDEST SUB SWAP1 LOG2 PUSH2 0x783 DUP3 DUP3 PUSH2 0x1EC2 JUMP JUMPDEST PUSH2 0x2041 JUMP JUMPDEST DUP1 RETURN JUMPDEST SWAP1 POP CALLVALUE PUSH2 0x3BD JUMPI DUP2 PUSH1 0x3 NOT CALLDATASIZE ADD SLT PUSH2 0x3BD JUMPI DUP2 PUSH1 0x20 SWAP4 PUSH2 0x7A9 PUSH2 0x178D JUMP JUMPDEST SWAP3 CALLDATALOAD DUP2 MSTORE DUP1 DUP6 MSTORE KECCAK256 SWAP1 PUSH1 0x1 DUP1 PUSH1 0xA0 SHL SUB AND PUSH1 0x0 MSTORE DUP3 MSTORE PUSH1 0xFF DUP2 PUSH1 0x0 KECCAK256 SLOAD AND SWAP1 MLOAD SWAP1 ISZERO ISZERO DUP2 MSTORE RETURN JUMPDEST SWAP1 POP CALLVALUE PUSH2 0x3BD JUMPI PUSH1 0x20 CALLDATASIZE PUSH1 0x3 NOT ADD SLT PUSH2 0x3BD JUMPI DUP1 CALLDATALOAD SWAP2 PUSH1 0x0 DUP1 MSTORE PUSH1 0x0 PUSH1 0x20 MSTORE DUP1 PUSH1 0x0 KECCAK256 CALLER PUSH1 0x0 MSTORE PUSH1 0x20 MSTORE PUSH1 0xFF DUP2 PUSH1 0x0 KECCAK256 SLOAD AND ISZERO PUSH2 0x863 JUMPI PUSH2 0xE10 DUP4 LT ISZERO DUP1 PUSH2 0x856 JUMPI JUMPDEST ISZERO PUSH2 0x820 JUMPI POP POP PUSH1 0x7 SSTORE DUP1 RETURN JUMPDEST SWAP1 PUSH1 0x20 PUSH1 0x64 SWAP3 MLOAD SWAP2 PUSH3 0x461BCD PUSH1 0xE5 SHL DUP4 MSTORE DUP3 ADD MSTORE PUSH1 0x10 PUSH1 0x24 DUP3 ADD MSTORE PUSH16 0x24B73B30B634B21031B7B7B63237BBB7 PUSH1 0x81 SHL PUSH1 0x44 DUP3 ADD MSTORE REVERT JUMPDEST POP PUSH3 0x93A80 DUP4 GT ISZERO PUSH2 0x813 JUMP JUMPDEST PUSH1 0x44 SWAP3 POP MLOAD SWAP1 PUSH4 0xE2517D3F PUSH1 0xE0 SHL DUP3 MSTORE CALLER SWAP1 DUP3 ADD MSTORE PUSH1 0x0 PUSH1 0x24 DUP3 ADD MSTORE REVERT JUMPDEST SWAP1 POP CALLVALUE PUSH2 0x3BD JUMPI DUP2 PUSH1 0x3 NOT CALLDATASIZE ADD SLT PUSH2 0x3BD JUMPI DUP2 PUSH1 0x20 SWAP4 PUSH2 0x89F PUSH2 0x178D JUMP JUMPDEST SWAP3 CALLDATALOAD DUP2 MSTORE PUSH1 0x8 DUP6 MSTORE KECCAK256 SWAP1 PUSH1 0x1 DUP1 PUSH1 0xA0 SHL SUB AND PUSH1 0x0 MSTORE DUP3 MSTORE PUSH1 0xFF DUP2 PUSH1 0x0 KECCAK256 SLOAD AND SWAP1 MLOAD SWAP1 ISZERO ISZERO DUP2 MSTORE RETURN JUMPDEST SWAP2 SWAP1 POP CALLVALUE PUSH2 0x3BD JUMPI DUP1 PUSH1 0x3 NOT CALLDATASIZE ADD SLT PUSH2 0x3BD JUMPI DUP2 CALLDATALOAD SWAP1 PUSH2 0x8E5 PUSH2 0x178D JUMP JUMPDEST SWAP3 PUSH2 0x8EE PUSH2 0x1D2F JUMP JUMPDEST DUP3 DUP6 MSTORE PUSH1 0x20 SWAP1 PUSH1 0x5 DUP3 MSTORE PUSH2 0x907 PUSH1 0xFF DUP5 DUP9 KECCAK256 SLOAD AND PUSH2 0x1BBE JUMP JUMPDEST DUP4 DUP7 MSTORE PUSH1 0x9 DUP3 MSTORE DUP3 DUP7 KECCAK256 PUSH1 0x1 PUSH1 0x1 PUSH1 0xA0 SHL SUB SWAP1 SWAP6 AND PUSH1 0x0 DUP2 DUP2 MSTORE SWAP6 DUP4 MSTORE SWAP5 DUP4 SWAP1 KECCAK256 SLOAD PUSH1 0xFF AND PUSH2 0x975 JUMPI POP DUP3 DUP6 MSTORE PUSH1 0x9 DUP2 MSTORE DUP2 DUP6 KECCAK256 PUSH1 0x0 DUP6 DUP2 MSTORE SWAP2 MSTORE KECCAK256 DUP1 SLOAD PUSH1 0xFF NOT AND PUSH1 0x1 OR SWAP1 SSTORE PUSH32 0x9C81720C57D474644D653192DB4AEE34EFF3E6B5C6B80E4C283AB58871C9382E DUP4 DUP1 LOG3 DUP1 RETURN JUMPDEST SWAP2 MLOAD PUSH3 0x461BCD PUSH1 0xE5 SHL DUP2 MSTORE SWAP2 DUP3 ADD MSTORE PUSH1 0x10 PUSH1 0x24 DUP3 ADD MSTORE PUSH16 0x105B1C9958591E481C9958DBDC991959 PUSH1 0x82 SHL PUSH1 0x44 DUP3 ADD MSTORE PUSH1 0x64 SWAP1 REVERT JUMPDEST DUP3 DUP5 CALLVALUE PUSH2 0x241 JUMPI PUSH1 0x20 CALLDATASIZE PUSH1 0x3 NOT ADD SLT PUSH2 0x241 JUMPI DUP3 CALLDATALOAD SWAP3 SLOAD DUP4 LT ISZERO PUSH2 0x241 JUMPI POP PUSH2 0x9D3 PUSH1 0x20 SWAP3 PUSH2 0x1835 JUMP JUMPDEST SWAP2 SWAP1 SLOAD SWAP1 MLOAD SWAP2 PUSH1 0x3 SHL SHR DUP2 MSTORE RETURN JUMPDEST DUP4 DUP4 CALLVALUE PUSH2 0x216 JUMPI DUP1 PUSH1 0x3 NOT CALLDATASIZE ADD SLT PUSH2 0x3F8 JUMPI DUP3 CALLDATALOAD SWAP1 PUSH2 0x9FE PUSH2 0x1D2F JUMP JUMPDEST DUP2 DUP4 MSTORE PUSH1 0x5 PUSH1 0x20 MSTORE PUSH1 0xFF DUP2 DUP5 KECCAK256 SLOAD AND PUSH2 0xB3D JUMPI DUP1 MLOAD SWAP1 PUSH1 0xE0 DUP3 ADD DUP3 DUP2 LT PUSH8 0xFFFFFFFFFFFFFFFF DUP3 GT OR PUSH2 0xB28 JUMPI DUP2 MSTORE DUP3 DUP3 MSTORE PUSH1 0x6 PUSH1 0x20 DUP4 ADD SWAP3 TIMESTAMP DUP5 MSTORE DUP3 DUP2 ADD PUSH1 0x24 CALLDATALOAD DUP2 MSTORE PUSH1 0x60 DUP3 ADD DUP8 DUP2 MSTORE PUSH1 0x80 DUP4 ADD SWAP1 DUP9 DUP3 MSTORE PUSH1 0xA0 DUP5 ADD SWAP3 DUP10 DUP5 MSTORE PUSH1 0xC0 DUP6 ADD SWAP8 PUSH1 0x1 DUP10 MSTORE DUP10 DUP12 MSTORE PUSH1 0x3 PUSH1 0x20 MSTORE DUP8 DUP12 KECCAK256 SWAP6 MLOAD DUP7 SSTORE MLOAD PUSH1 0x1 DUP7 ADD SSTORE MLOAD PUSH1 0x2 DUP6 ADD SSTORE MLOAD PUSH1 0x3 DUP5 ADD SSTORE MLOAD DUP9 DUP4 ADD SSTORE MLOAD PUSH1 0x5 DUP3 ADD SSTORE ADD SWAP2 MLOAD ISZERO ISZERO SWAP2 PUSH1 0xFF NOT SWAP3 PUSH1 0xFF DUP5 DUP4 SLOAD AND SWAP2 AND OR SWAP1 SSTORE DUP5 SLOAD PUSH9 0x10000000000000000 DUP2 LT ISZERO PUSH2 0xB15 JUMPI SWAP1 PUSH2 0xAC8 DUP3 DUP8 PUSH1 0x1 DUP1 SWAP6 ADD SWAP1 SSTORE PUSH2 0x1835 JUMP JUMPDEST DUP2 SLOAD SWAP1 PUSH1 0x3 SHL SWAP1 DUP7 DUP3 SHL SWAP2 PUSH1 0x0 NOT SWAP1 SHL NOT AND OR SWAP1 SSTORE DUP4 DUP6 MSTORE PUSH1 0x5 PUSH1 0x20 MSTORE DUP5 KECCAK256 SWAP2 DUP3 SLOAD AND OR SWAP1 SSTORE PUSH32 0x3621586063592251ACF2253A10FE8119554DBB0BF93D6E875B85A3A66A2166B9 DUP3 DUP1 LOG2 DUP1 RETURN JUMPDEST PUSH4 0x4E487B71 PUSH1 0xE0 SHL DUP6 MSTORE PUSH1 0x41 DUP7 MSTORE PUSH1 0x24 DUP6 REVERT JUMPDEST PUSH1 0x41 DUP7 PUSH4 0x4E487B71 PUSH1 0xE0 SHL PUSH1 0x0 MSTORE MSTORE PUSH1 0x24 PUSH1 0x0 REVERT JUMPDEST MLOAD PUSH3 0x461BCD PUSH1 0xE5 SHL DUP2 MSTORE PUSH1 0x20 DUP2 DUP6 ADD MSTORE PUSH1 0x10 PUSH1 0x24 DUP3 ADD MSTORE PUSH16 0x416C726561647920747261636B696E67 PUSH1 0x80 SHL PUSH1 0x44 DUP3 ADD MSTORE PUSH1 0x64 SWAP1 REVERT JUMPDEST SWAP1 POP CALLVALUE PUSH2 0x3BD JUMPI PUSH1 0x20 CALLDATASIZE PUSH1 0x3 NOT ADD SLT PUSH2 0x3BD JUMPI PUSH1 0x20 SWAP3 DUP3 SWAP2 CALLDATALOAD DUP2 MSTORE PUSH1 0xA DUP5 MSTORE KECCAK256 SLOAD SWAP1 MLOAD SWAP1 DUP2 MSTORE RETURN JUMPDEST DUP3 DUP5 CALLVALUE PUSH2 0x241 JUMPI POP PUSH2 0xBAB CALLDATASIZE PUSH2 0x17A3 JUMP JUMPDEST POP POP PUSH2 0xBD2 PUSH2 0xBB8 PUSH2 0x1AB4 JUMP JUMPDEST DUP4 SWAP3 SWAP2 SWAP3 MLOAD SWAP4 DUP5 SWAP4 ISZERO ISZERO DUP5 MSTORE DUP1 PUSH1 0x20 DUP6 ADD MSTORE DUP4 ADD SWAP1 PUSH2 0x1810 JUMP JUMPDEST SUB SWAP1 RETURN JUMPDEST POP POP CALLVALUE PUSH2 0x216 JUMPI DUP2 PUSH1 0x3 NOT CALLDATASIZE ADD SLT PUSH2 0x216 JUMPI PUSH1 0x20 SWAP1 PUSH1 0x7 SLOAD SWAP1 MLOAD SWAP1 DUP2 MSTORE RETURN JUMPDEST SWAP1 POP CALLVALUE PUSH2 0x3BD JUMPI PUSH1 0x20 CALLDATASIZE PUSH1 0x3 NOT ADD SLT PUSH2 0x3BD JUMPI DUP2 PUSH1 0xE0 SWAP4 DUP3 CALLDATALOAD DUP2 MSTORE PUSH1 0x3 PUSH1 0x20 MSTORE KECCAK256 DUP1 SLOAD SWAP3 PUSH1 0x1 DUP3 ADD SLOAD SWAP3 PUSH1 0x2 DUP4 ADD SLOAD PUSH1 0x3 DUP5 ADD SLOAD SWAP2 DUP5 ADD SLOAD SWAP3 PUSH1 0xFF PUSH1 0x6 PUSH1 0x5 DUP8 ADD SLOAD SWAP7 ADD SLOAD AND SWAP6 DUP2 MLOAD SWAP8 DUP9 MSTORE PUSH1 0x20 DUP9 ADD MSTORE DUP7 ADD MSTORE PUSH1 0x60 DUP6 ADD MSTORE PUSH1 0x80 DUP5 ADD MSTORE PUSH1 0xA0 DUP4 ADD MSTORE ISZERO ISZERO PUSH1 0xC0 DUP3 ADD MSTORE RETURN JUMPDEST SWAP1 POP CALLVALUE PUSH2 0x3BD JUMPI PUSH1 0x20 CALLDATASIZE PUSH1 0x3 NOT ADD SLT PUSH2 0x3BD JUMPI PUSH1 0x20 SWAP3 DUP3 SWAP2 CALLDATALOAD DUP2 MSTORE PUSH1 0x6 DUP5 MSTORE KECCAK256 SLOAD SWAP1 MLOAD SWAP1 DUP2 MSTORE RETURN JUMPDEST POP POP CALLVALUE PUSH2 0x216 JUMPI DUP2 PUSH1 0x3 NOT CALLDATASIZE ADD SLT PUSH2 0x216 JUMPI PUSH1 0x2 SLOAD SWAP1 MLOAD PUSH1 0x1 PUSH1 0x1 PUSH1 0xA0 SHL SUB SWAP1 SWAP2 AND DUP2 MSTORE PUSH1 0x20 SWAP1 RETURN JUMPDEST POP POP CALLVALUE PUSH2 0x216 JUMPI DUP2 PUSH1 0x3 NOT CALLDATASIZE ADD SLT PUSH2 0x216 JUMPI PUSH1 0x20 SWAP1 MLOAD PUSH3 0x93A80 DUP2 MSTORE RETURN JUMPDEST DUP4 DUP4 CALLVALUE PUSH2 0x216 JUMPI DUP1 PUSH2 0xCE1 CALLDATASIZE PUSH2 0x17A3 JUMP JUMPDEST SWAP1 DUP1 SWAP3 SWAP2 DUP2 ADD SUB SLT PUSH2 0x3F8 JUMPI PUSH1 0x1 SWAP1 CALLDATALOAD SWAP2 DUP3 DUP5 MSTORE PUSH1 0x3 PUSH1 0x20 MSTORE DUP4 KECCAK256 PUSH2 0xD0C PUSH1 0xFF PUSH1 0x6 DUP4 ADD SLOAD AND PUSH2 0x1882 JUMP JUMPDEST ADD SLOAD SWAP3 PUSH3 0x93A80 DUP5 ADD DUP1 SWAP5 GT PUSH2 0xD4A JUMPI POP PUSH2 0xD2D PUSH2 0x788 SWAP3 SWAP4 TIMESTAMP LT ISZERO PUSH2 0x1A7C JUMP JUMPDEST PUSH2 0xD36 DUP2 PUSH2 0x1CF3 JUMP JUMPDEST SWAP1 PUSH2 0xD45 PUSH2 0x1D4C DUP4 LT ISZERO PUSH2 0x1A3C JUMP JUMPDEST PUSH2 0x2084 JUMP JUMPDEST PUSH4 0x4E487B71 PUSH1 0xE0 SHL DUP4 MSTORE PUSH1 0x11 SWAP1 MSTORE PUSH1 0x24 DUP3 REVERT JUMPDEST POP POP CALLVALUE PUSH2 0x216 JUMPI DUP2 PUSH1 0x3 NOT CALLDATASIZE ADD SLT PUSH2 0x216 JUMPI PUSH1 0x1 SLOAD SWAP1 MLOAD PUSH1 0x1 PUSH1 0x1 PUSH1 0xA0 SHL SUB SWAP1 SWAP2 AND DUP2 MSTORE PUSH1 0x20 SWAP1 RETURN JUMPDEST SWAP2 SWAP1 POP CALLVALUE PUSH2 0x3BD JUMPI PUSH1 0x20 SWAP1 DUP2 PUSH1 0x3 NOT CALLDATASIZE ADD SLT PUSH2 0x481 JUMPI DUP3 CALLDATALOAD SWAP2 PUSH1 0x1 DUP1 PUSH1 0xA0 SHL SUB SWAP4 PUSH1 0x1 SWAP5 PUSH1 0x24 DUP4 DUP3 DUP9 SLOAD AND DUP7 MLOAD SWAP3 DUP4 DUP1 SWAP3 PUSH4 0x4D8C928D PUSH1 0xE1 SHL DUP3 MSTORE CALLER DUP9 DUP4 ADD MSTORE GAS STATICCALL DUP1 ISZERO PUSH2 0xF3A JUMPI DUP9 SWAP1 PUSH2 0xF00 JUMPI JUMPDEST PUSH2 0xDDF SWAP2 POP PUSH2 0x19C0 JUMP JUMPDEST DUP5 DUP8 MSTORE PUSH1 0x8 DUP4 MSTORE DUP4 DUP8 KECCAK256 CALLER PUSH1 0x0 MSTORE DUP4 MSTORE PUSH2 0xE00 PUSH1 0xFF DUP6 PUSH1 0x0 KECCAK256 SLOAD AND ISZERO PUSH2 0x19FE JUMP JUMPDEST DUP5 DUP8 MSTORE PUSH1 0x3 DUP4 MSTORE DUP6 DUP5 DUP9 KECCAK256 PUSH2 0xE1B PUSH1 0xFF PUSH1 0x6 DUP4 ADD SLOAD AND PUSH2 0x1882 JUMP JUMPDEST PUSH2 0xE31 PUSH2 0x1D4C PUSH2 0xE2A DUP10 PUSH2 0x1CF3 JUMP JUMPDEST LT ISZERO PUSH2 0x1A3C JUMP JUMPDEST ADD SLOAD PUSH3 0x93A80 DUP2 ADD DUP1 SWAP2 GT PUSH2 0xEED JUMPI SWAP1 PUSH2 0xE4F DUP9 SWAP4 SWAP3 TIMESTAMP LT ISZERO PUSH2 0x1A7C JUMP JUMPDEST DUP6 DUP4 MSTORE PUSH1 0x8 DUP5 MSTORE DUP5 DUP4 KECCAK256 CALLER PUSH1 0x0 MSTORE DUP5 MSTORE DUP5 PUSH1 0x0 KECCAK256 DUP8 PUSH1 0xFF NOT DUP3 SLOAD AND OR SWAP1 SSTORE DUP7 SLOAD AND SWAP1 DUP2 EXTCODESIZE ISZERO PUSH2 0x3BD JUMPI DUP6 PUSH1 0x64 DUP5 SWAP3 DUP4 DUP9 MLOAD SWAP6 DUP7 SWAP5 DUP6 SWAP4 PUSH4 0x46B40CDF PUSH1 0xE1 SHL DUP6 MSTORE DUP5 ADD MSTORE CALLER PUSH1 0x24 DUP5 ADD MSTORE DUP12 PUSH1 0x44 DUP5 ADD MSTORE GAS CALL DUP1 ISZERO PUSH2 0x3B3 JUMPI PUSH2 0xED9 JUMPI JUMPDEST POP POP PUSH32 0x89E1649E796BC46C9DCD5FD4505F79BFDD9197C8ECCBDBAF05A6BFD1CB9EA09B SWAP2 MLOAD SWAP4 DUP5 MSTORE CALLER SWAP4 LOG3 DUP1 RETURN JUMPDEST PUSH2 0xEE2 SWAP1 PUSH2 0x18BD JUMP JUMPDEST PUSH2 0x3AF JUMPI DUP5 CODESIZE PUSH2 0xEAB JUMP JUMPDEST PUSH4 0x4E487B71 PUSH1 0xE0 SHL DUP9 MSTORE PUSH1 0x11 DUP4 MSTORE PUSH1 0x24 DUP9 REVERT JUMPDEST POP DUP4 DUP2 DUP2 RETURNDATASIZE DUP4 GT PUSH2 0xF33 JUMPI JUMPDEST PUSH2 0xF16 DUP2 DUP4 PUSH2 0x191F JUMP JUMPDEST DUP2 ADD SUB SLT PUSH2 0xF2F JUMPI PUSH2 0xF2A PUSH2 0xDDF SWAP2 PUSH2 0x19B3 JUMP JUMPDEST PUSH2 0xDD5 JUMP JUMPDEST DUP8 DUP1 REVERT JUMPDEST POP RETURNDATASIZE PUSH2 0xF0C JUMP JUMPDEST DUP6 MLOAD RETURNDATASIZE DUP11 DUP3 RETURNDATACOPY RETURNDATASIZE SWAP1 REVERT JUMPDEST DUP4 DUP4 CALLVALUE PUSH2 0x216 JUMPI PUSH1 0xA0 CALLDATASIZE PUSH1 0x3 NOT ADD SLT PUSH2 0x216 JUMPI DUP3 CALLDATALOAD PUSH1 0x84 CALLDATALOAD SWAP2 PUSH2 0xF65 PUSH2 0x1D2F JUMP JUMPDEST DUP2 DUP5 MSTORE PUSH1 0x3 PUSH1 0x20 MSTORE DUP1 DUP5 KECCAK256 SWAP3 PUSH2 0xF81 PUSH1 0xFF PUSH1 0x6 DUP7 ADD SLOAD AND PUSH2 0x1882 JUMP JUMPDEST PUSH1 0x32 DUP2 MUL DUP2 DUP2 DIV PUSH1 0x32 EQ DUP3 ISZERO OR ISZERO PUSH2 0x1059 JUMPI SWAP6 PUSH1 0x64 PUSH2 0x788 SWAP7 SWAP8 DIV SWAP1 PUSH2 0xFA9 DUP3 PUSH1 0x24 CALLDATALOAD PUSH2 0x1990 JUMP JUMPDEST SWAP6 PUSH1 0x2 DUP2 ADD SLOAD SWAP2 DUP3 DUP9 GT PUSH2 0x104F JUMPI JUMPDEST PUSH32 0x63BD409A0CA0450137D1B574E1E74A5A18CC8934D8F718C1603619B971CE6737 PUSH32 0xA924D670D57CE0C4EF66945FCC39BA0D6082DEB70A897FAA080424140B0B1C7D SWAP6 SWAP4 DUP4 DUP10 SWAP9 SWAP7 SWAP5 SWAP4 DUP12 PUSH1 0x3 DUP12 SWAP7 ADD SSTORE PUSH1 0x44 CALLDATALOAD SWAP1 DUP3 ADD SSTORE PUSH1 0x5 PUSH1 0x64 CALLDATALOAD SWAP2 ADD SSTORE PUSH2 0x1021 DUP4 PUSH2 0x1CF3 JUMP JUMPDEST DUP7 MLOAD SWAP11 DUP12 MSTORE PUSH1 0x20 DUP12 ADD SWAP2 SWAP1 SWAP2 MSTORE PUSH1 0x40 DUP11 ADD DUP2 SWAP1 MSTORE SWAP9 PUSH1 0x60 SWAP1 LOG2 DUP3 MLOAD SWAP2 DUP3 MSTORE PUSH1 0x20 DUP3 ADD MSTORE LOG2 PUSH2 0x783 DUP3 DUP3 PUSH2 0x1EC2 JUMP JUMPDEST SWAP2 SWAP7 POP DUP7 SWAP2 PUSH2 0xFB8 JUMP JUMPDEST PUSH4 0x4E487B71 PUSH1 0xE0 SHL DUP7 MSTORE PUSH1 0x11 DUP8 MSTORE PUSH1 0x24 DUP7 REVERT JUMPDEST DUP4 DUP4 CALLVALUE PUSH2 0x216 JUMPI DUP1 PUSH1 0x3 NOT CALLDATASIZE ADD SLT PUSH2 0x216 JUMPI PUSH2 0x1086 PUSH2 0x178D JUMP JUMPDEST SWAP1 CALLER PUSH1 0x1 PUSH1 0x1 PUSH1 0xA0 SHL SUB DUP4 AND SUB PUSH2 0x10A3 JUMPI POP PUSH2 0x4C0 SWAP2 SWAP3 CALLDATALOAD PUSH2 0x1E4D JUMP JUMPDEST MLOAD PUSH4 0x334BD919 PUSH1 0xE1 SHL DUP2 MSTORE DUP4 SWAP1 REVERT JUMPDEST SWAP1 POP DUP3 CALLVALUE PUSH2 0x241 JUMPI DUP1 PUSH1 0x3 NOT CALLDATASIZE ADD SLT PUSH2 0x241 JUMPI SWAP2 SWAP1 DUP2 MLOAD SWAP3 DUP4 DUP3 SLOAD DUP1 DUP7 MSTORE PUSH1 0x20 DUP1 SWAP7 ADD SWAP1 DUP2 SWAP5 DUP5 MSTORE PUSH32 0x8A35ACFBC15FF81A39AE7D344FD709F28E8600B4AA8C65C6B64BFE7FE36BD19B SWAP1 DUP5 JUMPDEST DUP2 DUP2 LT PUSH2 0x114F JUMPI POP POP POP DUP2 PUSH2 0x1114 SWAP2 SUB DUP3 PUSH2 0x191F JUMP JUMPDEST DUP4 MLOAD SWAP5 DUP6 SWAP5 DUP2 DUP7 ADD SWAP3 DUP3 DUP8 MSTORE MLOAD DUP1 SWAP4 MSTORE DUP6 ADD SWAP4 SWAP3 JUMPDEST DUP3 DUP2 LT PUSH2 0x1138 JUMPI POP POP POP POP SUB SWAP1 RETURN JUMPDEST DUP4 MLOAD DUP6 MSTORE DUP7 SWAP6 POP SWAP4 DUP2 ADD SWAP4 SWAP3 DUP2 ADD SWAP3 PUSH1 0x1 ADD PUSH2 0x1129 JUMP JUMPDEST DUP3 SLOAD DUP5 MSTORE SWAP3 DUP9 ADD SWAP3 PUSH1 0x1 SWAP3 DUP4 ADD SWAP3 ADD PUSH2 0x10FE JUMP JUMPDEST POP POP CALLVALUE PUSH2 0x216 JUMPI DUP2 PUSH1 0x3 NOT CALLDATASIZE ADD SLT PUSH2 0x216 JUMPI PUSH1 0x20 SWAP1 MLOAD PUSH2 0x1D4C DUP2 MSTORE RETURN JUMPDEST SWAP2 SWAP1 POP CALLVALUE PUSH2 0x3BD JUMPI DUP1 PUSH1 0x3 NOT CALLDATASIZE ADD SLT PUSH2 0x3BD JUMPI PUSH2 0x4C0 SWAP2 CALLDATALOAD PUSH2 0x11A5 PUSH1 0x1 PUSH2 0x4AA PUSH2 0x178D JUMP JUMPDEST PUSH2 0x1DCF JUMP JUMPDEST DUP4 DUP4 CALLVALUE PUSH2 0x216 JUMPI PUSH1 0x20 CALLDATASIZE PUSH1 0x3 NOT ADD SLT PUSH2 0x216 JUMPI DUP1 PUSH1 0xA0 SWAP4 CALLDATALOAD SWAP3 DUP4 DUP2 MSTORE PUSH1 0x3 PUSH1 0x20 MSTORE KECCAK256 PUSH1 0x1 DUP2 ADD SLOAD SWAP3 PUSH1 0x2 DUP3 ADD SLOAD SWAP3 PUSH1 0xFF PUSH1 0x6 PUSH2 0x11EA PUSH1 0x3 DUP7 ADD SLOAD SWAP5 PUSH2 0x1CF3 JUMP JUMPDEST SWAP5 ADD SLOAD AND SWAP4 DUP2 MLOAD SWAP6 DUP7 MSTORE PUSH1 0x20 DUP7 ADD MSTORE DUP5 ADD MSTORE PUSH1 0x60 DUP4 ADD MSTORE ISZERO ISZERO PUSH1 0x80 DUP3 ADD MSTORE RETURN JUMPDEST SWAP1 POP CALLVALUE PUSH2 0x3BD JUMPI PUSH1 0x20 CALLDATASIZE PUSH1 0x3 NOT ADD SLT PUSH2 0x3BD JUMPI DUP2 PUSH1 0x20 SWAP4 PUSH1 0x1 SWAP3 CALLDATALOAD DUP2 MSTORE DUP1 DUP6 MSTORE KECCAK256 ADD SLOAD SWAP1 MLOAD SWAP1 DUP2 MSTORE RETURN JUMPDEST SWAP1 POP CALLVALUE PUSH2 0x3BD JUMPI PUSH1 0x20 SWAP2 DUP3 PUSH1 0x3 NOT CALLDATASIZE ADD SLT PUSH2 0x481 JUMPI PUSH1 0x1 SLOAD DUP2 MLOAD PUSH4 0x4D8C928D PUSH1 0xE1 SHL DUP2 MSTORE CALLER DUP2 DUP6 ADD MSTORE DUP4 CALLDATALOAD SWAP4 SWAP2 PUSH1 0x1 PUSH1 0x1 PUSH1 0xA0 SHL SUB SWAP2 SWAP1 DUP7 SWAP1 DUP3 SWAP1 PUSH1 0x24 SWAP1 DUP3 SWAP1 DUP7 AND GAS STATICCALL DUP1 ISZERO PUSH2 0x1467 JUMPI DUP8 SWAP1 PUSH2 0x142D JUMPI JUMPDEST PUSH2 0x128F SWAP2 POP PUSH2 0x19C0 JUMP JUMPDEST DUP4 DUP7 MSTORE PUSH1 0x9 DUP6 MSTORE DUP3 DUP7 KECCAK256 CALLER DUP8 MSTORE DUP6 MSTORE PUSH1 0xFF DUP4 DUP8 KECCAK256 SLOAD AND ISZERO PUSH2 0x13EB JUMPI DUP4 DUP7 MSTORE PUSH1 0x8 DUP6 MSTORE DUP3 DUP7 KECCAK256 CALLER DUP8 MSTORE DUP6 MSTORE PUSH2 0x12C9 PUSH1 0xFF DUP5 DUP9 KECCAK256 SLOAD AND ISZERO PUSH2 0x19FE JUMP JUMPDEST DUP4 DUP7 MSTORE PUSH1 0x3 DUP6 MSTORE PUSH1 0x1 DUP4 DUP8 KECCAK256 PUSH2 0x12E5 PUSH1 0xFF PUSH1 0x6 DUP4 ADD SLOAD AND PUSH2 0x1882 JUMP JUMPDEST PUSH2 0x12F4 PUSH2 0x1D4C PUSH2 0xE2A DUP9 PUSH2 0x1CF3 JUMP JUMPDEST ADD SLOAD PUSH3 0x93A80 DUP2 ADD DUP1 SWAP2 GT PUSH2 0x13D8 JUMPI SWAP1 PUSH2 0x1311 DUP8 SWAP3 TIMESTAMP LT ISZERO PUSH2 0x1A7C JUMP JUMPDEST DUP5 DUP3 MSTORE PUSH1 0x8 DUP7 MSTORE DUP4 DUP3 KECCAK256 CALLER DUP4 MSTORE DUP7 MSTORE DUP4 DUP3 KECCAK256 PUSH1 0x1 PUSH1 0xFF NOT DUP3 SLOAD AND OR SWAP1 SSTORE PUSH1 0x1 SLOAD AND SWAP2 DUP3 EXTCODESIZE ISZERO PUSH2 0x216 JUMPI PUSH1 0x64 DUP6 SWAP2 DUP4 DUP7 MLOAD SWAP6 DUP7 SWAP5 DUP6 SWAP4 PUSH4 0x46B40CDF PUSH1 0xE1 SHL DUP6 MSTORE DUP5 ADD MSTORE CALLER PUSH1 0x24 DUP5 ADD MSTORE PUSH1 0x2 PUSH1 0x44 DUP5 ADD MSTORE GAS CALL DUP1 ISZERO PUSH2 0x13CE JUMPI PUSH2 0x139B JUMPI JUMPDEST POP MLOAD PUSH1 0x2 DUP2 MSTORE CALLER SWAP3 PUSH32 0x89E1649E796BC46C9DCD5FD4505F79BFDD9197C8ECCBDBAF05A6BFD1CB9EA09B SWAP2 LOG3 DUP1 RETURN JUMPDEST SWAP4 PUSH2 0x13C7 PUSH32 0x89E1649E796BC46C9DCD5FD4505F79BFDD9197C8ECCBDBAF05A6BFD1CB9EA09B SWAP3 SWAP6 PUSH2 0x18BD JUMP JUMPDEST SWAP4 SWAP1 PUSH2 0x136D JUMP JUMPDEST DUP3 MLOAD RETURNDATASIZE DUP8 DUP3 RETURNDATACOPY RETURNDATASIZE SWAP1 REVERT JUMPDEST PUSH4 0x4E487B71 PUSH1 0xE0 SHL DUP8 MSTORE PUSH1 0x11 DUP4 MSTORE PUSH1 0x24 DUP8 REVERT JUMPDEST POP DUP4 PUSH1 0x64 SWAP3 MLOAD SWAP2 PUSH3 0x461BCD PUSH1 0xE5 SHL DUP4 MSTORE DUP3 ADD MSTORE PUSH1 0x1C PUSH1 0x24 DUP3 ADD MSTORE PUSH32 0x446964206E6F7420706172746963697061746520696E20706F6C6C7300000000 PUSH1 0x44 DUP3 ADD MSTORE REVERT JUMPDEST POP DUP6 DUP2 DUP2 RETURNDATASIZE DUP4 GT PUSH2 0x1460 JUMPI JUMPDEST PUSH2 0x1443 DUP2 DUP4 PUSH2 0x191F JUMP JUMPDEST DUP2 ADD SUB SLT PUSH2 0x145C JUMPI PUSH2 0x1457 PUSH2 0x128F SWAP2 PUSH2 0x19B3 JUMP JUMPDEST PUSH2 0x1285 JUMP JUMPDEST DUP7 DUP1 REVERT JUMPDEST POP RETURNDATASIZE PUSH2 0x1439 JUMP JUMPDEST DUP5 MLOAD RETURNDATASIZE DUP10 DUP3 RETURNDATACOPY RETURNDATASIZE SWAP1 REVERT JUMPDEST SWAP2 SWAP1 POP CALLVALUE PUSH2 0x3BD JUMPI PUSH1 0x20 SWAP1 DUP2 PUSH1 0x3 NOT CALLDATASIZE ADD SLT PUSH2 0x481 JUMPI DUP3 CALLDATALOAD SWAP3 PUSH1 0x80 DUP3 MLOAD PUSH2 0x1497 DUP2 PUSH2 0x18E7 JUMP JUMPDEST CALLDATASIZE SWAP1 CALLDATACOPY PUSH2 0x14A3 DUP5 PUSH2 0x1CF3 JUMP JUMPDEST SWAP3 PUSH1 0x1 DUP1 PUSH1 0xA0 SHL SUB PUSH1 0x2 SLOAD AND SWAP6 DUP4 MLOAD SWAP6 PUSH4 0xAF4DA41 PUSH1 0xE0 SHL DUP8 MSTORE PUSH1 0x80 DUP8 DUP6 DUP2 DUP12 GAS STATICCALL SWAP7 DUP8 ISZERO PUSH2 0x15F2 JUMPI DUP3 SWAP8 PUSH2 0x15CB JUMPI JUMPDEST POP DUP3 DUP6 SWAP7 SWAP8 SWAP9 DUP6 SWAP7 MLOAD SWAP7 DUP8 DUP1 SWAP3 PUSH4 0x49672B7 PUSH1 0xE4 SHL DUP3 MSTORE GAS STATICCALL SWAP5 DUP6 ISZERO PUSH2 0x15C1 JUMPI DUP3 SWAP6 PUSH2 0x1592 JUMPI JUMPDEST POP DUP2 MSTORE PUSH1 0x3 DUP3 MSTORE DUP5 DUP2 KECCAK256 SWAP5 PUSH1 0xFF PUSH1 0x6 DUP8 ADD SLOAD AND SWAP6 DUP7 PUSH2 0x1583 JUMPI JUMPDEST DUP7 PUSH2 0x1552 JUMPI JUMPDEST POP MLOAD SWAP6 DUP7 MSTORE DUP2 DUP7 ADD JUMPDEST DUP4 DUP3 LT PUSH2 0x153D JUMPI PUSH1 0xE0 DUP8 DUP8 DUP8 PUSH1 0xA0 DUP4 ADD MSTORE ISZERO ISZERO PUSH1 0xC0 DUP3 ADD MSTORE RETURN JUMPDEST DUP3 DUP1 PUSH1 0x1 SWAP3 DUP11 MLOAD DUP2 MSTORE ADD SWAP9 ADD SWAP2 ADD SWAP1 SWAP7 PUSH2 0x1523 JUMP JUMPDEST PUSH1 0x1 SWAP2 SWAP7 POP ADD SLOAD PUSH3 0x93A80 DUP2 ADD DUP1 SWAP2 GT PUSH2 0x1570 JUMPI TIMESTAMP LT ISZERO SWAP5 CODESIZE PUSH2 0x151A JUMP JUMPDEST PUSH4 0x4E487B71 PUSH1 0xE0 SHL DUP3 MSTORE PUSH1 0x11 DUP5 MSTORE PUSH1 0x24 DUP3 REVERT JUMPDEST SWAP6 POP PUSH2 0x1D4C DUP9 MLOAD LT ISZERO SWAP6 PUSH2 0x1514 JUMP JUMPDEST SWAP1 SWAP5 POP DUP3 DUP2 DUP2 RETURNDATASIZE DUP4 GT PUSH2 0x15BA JUMPI JUMPDEST PUSH2 0x15AA DUP2 DUP4 PUSH2 0x191F JUMP JUMPDEST DUP2 ADD SUB SLT PUSH2 0x216 JUMPI MLOAD SWAP4 CODESIZE PUSH2 0x14FA JUMP JUMPDEST POP RETURNDATASIZE PUSH2 0x15A0 JUMP JUMPDEST DUP7 MLOAD RETURNDATASIZE DUP5 DUP3 RETURNDATACOPY RETURNDATASIZE SWAP1 REVERT JUMPDEST DUP5 SWAP6 SWAP7 SWAP8 POP PUSH2 0x15E9 DUP5 SWAP2 PUSH1 0x80 RETURNDATASIZE PUSH1 0x80 GT PUSH2 0x622 JUMPI PUSH2 0x614 DUP2 DUP4 PUSH2 0x191F JUMP JUMPDEST SWAP8 SWAP7 SWAP6 POP PUSH2 0x14D3 JUMP JUMPDEST DUP6 MLOAD RETURNDATASIZE DUP5 DUP3 RETURNDATACOPY RETURNDATASIZE SWAP1 REVERT JUMPDEST SWAP1 POP CALLVALUE PUSH2 0x3BD JUMPI PUSH1 0x20 CALLDATASIZE PUSH1 0x3 NOT ADD SLT PUSH2 0x3BD JUMPI DUP2 PUSH1 0x20 SWAP4 PUSH1 0xFF SWAP3 CALLDATALOAD DUP2 MSTORE PUSH1 0x5 DUP6 MSTORE KECCAK256 SLOAD AND SWAP1 MLOAD SWAP1 ISZERO ISZERO DUP2 MSTORE RETURN JUMPDEST SWAP2 SWAP1 POP CALLVALUE PUSH2 0x3BD JUMPI DUP3 PUSH1 0x3 NOT CALLDATASIZE ADD SLT PUSH2 0x3BD JUMPI PUSH1 0x2 SLOAD DUP2 MLOAD PUSH4 0x49672B7 PUSH1 0xE4 SHL DUP2 MSTORE SWAP3 PUSH1 0x20 SWAP2 DUP5 SWAP2 SWAP1 DUP3 SWAP1 PUSH1 0x1 PUSH1 0x1 PUSH1 0xA0 SHL SUB AND GAS STATICCALL SWAP2 DUP3 ISZERO PUSH2 0x16AF JUMPI DUP4 SWAP3 PUSH2 0x1677 JUMPI JUMPDEST PUSH1 0x20 DUP4 DUP4 MLOAD SWAP1 DUP2 MSTORE RETURN JUMPDEST SWAP1 SWAP2 POP PUSH1 0x20 DUP2 RETURNDATASIZE PUSH1 0x20 GT PUSH2 0x16A7 JUMPI JUMPDEST DUP2 PUSH2 0x1693 PUSH1 0x20 SWAP4 DUP4 PUSH2 0x191F JUMP JUMPDEST DUP2 ADD SUB SLT PUSH2 0x3BD JUMPI PUSH1 0x20 SWAP3 POP MLOAD SWAP1 CODESIZE PUSH2 0x166D JUMP JUMPDEST RETURNDATASIZE SWAP2 POP PUSH2 0x1686 JUMP JUMPDEST DUP2 MLOAD RETURNDATASIZE DUP6 DUP3 RETURNDATACOPY RETURNDATASIZE SWAP1 REVERT JUMPDEST SWAP1 POP CALLVALUE PUSH2 0x3BD JUMPI PUSH1 0x20 CALLDATASIZE PUSH1 0x3 NOT ADD SLT PUSH2 0x3BD JUMPI CALLDATALOAD SWAP1 PUSH2 0x16D6 PUSH2 0x1D2F JUMP JUMPDEST DUP2 DUP4 MSTORE PUSH1 0x5 PUSH1 0x20 MSTORE PUSH2 0x16ED PUSH1 0xFF DUP3 DUP6 KECCAK256 SLOAD AND PUSH2 0x1882 JUMP JUMPDEST DUP2 DUP4 MSTORE PUSH1 0x3 PUSH1 0x20 MSTORE PUSH1 0x6 DUP2 DUP5 KECCAK256 ADD SWAP1 PUSH1 0xFF NOT SWAP2 DUP3 DUP2 SLOAD AND SWAP1 SSTORE PUSH1 0x5 PUSH1 0x20 MSTORE DUP4 KECCAK256 SWAP1 DUP2 SLOAD AND SWAP1 SSTORE PUSH32 0x96FBF803F14DA8437E0CBE34DF7152F998DBC3B7E2343C52FB4285E90387A9CA DUP3 DUP1 LOG2 DUP1 RETURN JUMPDEST DUP5 SWAP2 CALLVALUE PUSH2 0x3BD JUMPI PUSH1 0x20 CALLDATASIZE PUSH1 0x3 NOT ADD SLT PUSH2 0x3BD JUMPI CALLDATALOAD PUSH4 0xFFFFFFFF PUSH1 0xE0 SHL DUP2 AND DUP1 SWAP2 SUB PUSH2 0x3BD JUMPI PUSH1 0x20 SWAP3 POP PUSH4 0x7965DB0B PUSH1 0xE0 SHL DUP2 EQ SWAP1 DUP2 ISZERO PUSH2 0x177C JUMPI JUMPDEST POP ISZERO ISZERO DUP2 MSTORE RETURN JUMPDEST PUSH4 0x1FFC9A7 PUSH1 0xE0 SHL EQ SWAP1 POP DUP4 PUSH2 0x1775 JUMP JUMPDEST PUSH1 0x24 CALLDATALOAD SWAP1 PUSH1 0x1 PUSH1 0x1 PUSH1 0xA0 SHL SUB DUP3 AND DUP3 SUB PUSH2 0x3F8 JUMPI JUMP JUMPDEST SWAP1 PUSH1 0x20 PUSH1 0x3 NOT DUP4 ADD SLT PUSH2 0x3F8 JUMPI PUSH1 0x4 CALLDATALOAD PUSH8 0xFFFFFFFFFFFFFFFF SWAP3 DUP4 DUP3 GT PUSH2 0x3F8 JUMPI DUP1 PUSH1 0x23 DUP4 ADD SLT ISZERO PUSH2 0x3F8 JUMPI DUP2 PUSH1 0x4 ADD CALLDATALOAD SWAP4 DUP5 GT PUSH2 0x3F8 JUMPI PUSH1 0x24 DUP5 DUP4 ADD ADD GT PUSH2 0x3F8 JUMPI PUSH1 0x24 ADD SWAP2 SWAP1 JUMP JUMPDEST PUSH1 0x0 JUMPDEST DUP4 DUP2 LT PUSH2 0x1800 JUMPI POP POP PUSH1 0x0 SWAP2 ADD MSTORE JUMP JUMPDEST DUP2 DUP2 ADD MLOAD DUP4 DUP3 ADD MSTORE PUSH1 0x20 ADD PUSH2 0x17F0 JUMP JUMPDEST SWAP1 PUSH1 0x20 SWAP2 PUSH2 0x1829 DUP2 MLOAD DUP1 SWAP3 DUP2 DUP6 MSTORE DUP6 DUP1 DUP7 ADD SWAP2 ADD PUSH2 0x17ED JUMP JUMPDEST PUSH1 0x1F ADD PUSH1 0x1F NOT AND ADD ADD SWAP1 JUMP JUMPDEST PUSH1 0x4 SLOAD DUP2 LT ISZERO PUSH2 0x186C JUMPI PUSH1 0x4 PUSH1 0x0 MSTORE PUSH32 0x8A35ACFBC15FF81A39AE7D344FD709F28E8600B4AA8C65C6B64BFE7FE36BD19B ADD SWAP1 PUSH1 0x0 SWAP1 JUMP JUMPDEST PUSH4 0x4E487B71 PUSH1 0xE0 SHL PUSH1 0x0 MSTORE PUSH1 0x32 PUSH1 0x4 MSTORE PUSH1 0x24 PUSH1 0x0 REVERT JUMPDEST ISZERO PUSH2 0x1889 JUMPI JUMP JUMPDEST PUSH1 0x40 MLOAD PUSH3 0x461BCD PUSH1 0xE5 SHL DUP2 MSTORE PUSH1 0x20 PUSH1 0x4 DUP3 ADD MSTORE PUSH1 0xC PUSH1 0x24 DUP3 ADD MSTORE PUSH12 0x4E6F7420747261636B696E67 PUSH1 0xA0 SHL PUSH1 0x44 DUP3 ADD MSTORE PUSH1 0x64 SWAP1 REVERT JUMPDEST PUSH8 0xFFFFFFFFFFFFFFFF DUP2 GT PUSH2 0x18D1 JUMPI PUSH1 0x40 MSTORE JUMP JUMPDEST PUSH4 0x4E487B71 PUSH1 0xE0 SHL PUSH1 0x0 MSTORE PUSH1 0x41 PUSH1 0x4 MSTORE PUSH1 0x24 PUSH1 0x0 REVERT JUMPDEST PUSH1 0x80 DUP2 ADD SWAP1 DUP2 LT PUSH8 0xFFFFFFFFFFFFFFFF DUP3 GT OR PUSH2 0x18D1 JUMPI PUSH1 0x40 MSTORE JUMP JUMPDEST PUSH1 0x40 DUP2 ADD SWAP1 DUP2 LT PUSH8 0xFFFFFFFFFFFFFFFF DUP3 GT OR PUSH2 0x18D1 JUMPI PUSH1 0x40 MSTORE JUMP JUMPDEST SWAP1 PUSH1 0x1F DUP1 NOT SWAP2 ADD AND DUP2 ADD SWAP1 DUP2 LT PUSH8 0xFFFFFFFFFFFFFFFF DUP3 GT OR PUSH2 0x18D1 JUMPI PUSH1 0x40 MSTORE JUMP JUMPDEST SWAP1 PUSH1 0x80 DUP3 DUP3 SUB SLT PUSH2 0x3F8 JUMPI DUP1 PUSH1 0x1F DUP4 ADD SLT ISZERO PUSH2 0x3F8 JUMPI PUSH1 0x40 MLOAD SWAP2 PUSH2 0x1964 DUP4 PUSH2 0x18E7 JUMP JUMPDEST DUP3 SWAP1 PUSH1 0x80 DUP2 ADD SWAP3 DUP4 GT PUSH2 0x3F8 JUMPI SWAP1 JUMPDEST DUP3 DUP3 LT PUSH2 0x1980 JUMPI POP POP POP SWAP1 JUMP JUMPDEST DUP2 MLOAD DUP2 MSTORE PUSH1 0x20 SWAP2 DUP3 ADD SWAP2 ADD PUSH2 0x1973 JUMP JUMPDEST SWAP2 SWAP1 DUP3 ADD DUP1 SWAP3 GT PUSH2 0x199D JUMPI JUMP JUMPDEST PUSH4 0x4E487B71 PUSH1 0xE0 SHL PUSH1 0x0 MSTORE PUSH1 0x11 PUSH1 0x4 MSTORE PUSH1 0x24 PUSH1 0x0 REVERT JUMPDEST MLOAD SWAP1 DUP2 ISZERO ISZERO DUP3 SUB PUSH2 0x3F8 JUMPI JUMP JUMPDEST ISZERO PUSH2 0x19C7 JUMPI JUMP JUMPDEST PUSH1 0x40 MLOAD PUSH3 0x461BCD PUSH1 0xE5 SHL DUP2 MSTORE PUSH1 0x20 PUSH1 0x4 DUP3 ADD MSTORE PUSH1 0xF PUSH1 0x24 DUP3 ADD MSTORE PUSH15 0x139BDD081DDA1A5D195B1A5CDD1959 PUSH1 0x8A SHL PUSH1 0x44 DUP3 ADD MSTORE PUSH1 0x64 SWAP1 REVERT JUMPDEST ISZERO PUSH2 0x1A05 JUMPI JUMP JUMPDEST PUSH1 0x40 MLOAD PUSH3 0x461BCD PUSH1 0xE5 SHL DUP2 MSTORE PUSH1 0x20 PUSH1 0x4 DUP3 ADD MSTORE PUSH1 0xF PUSH1 0x24 DUP3 ADD MSTORE PUSH15 0x105B1C9958591E4818DB185A5B5959 PUSH1 0x8A SHL PUSH1 0x44 DUP3 ADD MSTORE PUSH1 0x64 SWAP1 REVERT JUMPDEST ISZERO PUSH2 0x1A43 JUMPI JUMP JUMPDEST PUSH1 0x40 MLOAD PUSH3 0x461BCD PUSH1 0xE5 SHL DUP2 MSTORE PUSH1 0x20 PUSH1 0x4 DUP3 ADD MSTORE PUSH1 0x11 PUSH1 0x24 DUP3 ADD MSTORE PUSH17 0x151A1C995CDA1BDB19081B9BDD081B595D PUSH1 0x7A SHL PUSH1 0x44 DUP3 ADD MSTORE PUSH1 0x64 SWAP1 REVERT JUMPDEST ISZERO PUSH2 0x1A83 JUMPI JUMP JUMPDEST PUSH1 0x40 MLOAD PUSH3 0x461BCD PUSH1 0xE5 SHL DUP2 MSTORE PUSH1 0x20 PUSH1 0x4 DUP3 ADD MSTORE PUSH1 0x9 PUSH1 0x24 DUP3 ADD MSTORE PUSH9 0x546F6F206561726C79 PUSH1 0xB8 SHL PUSH1 0x44 DUP3 ADD MSTORE PUSH1 0x64 SWAP1 REVERT JUMPDEST PUSH1 0x4 DUP1 SLOAD PUSH1 0x0 JUMPDEST DUP2 DUP2 LT PUSH2 0x1AEC JUMPI POP POP POP PUSH1 0x0 SWAP1 PUSH1 0x40 MLOAD PUSH1 0x20 DUP2 ADD DUP2 DUP2 LT PUSH8 0xFFFFFFFFFFFFFFFF DUP3 GT OR PUSH2 0x18D1 JUMPI PUSH1 0x40 MSTORE PUSH1 0x0 DUP2 MSTORE SWAP1 JUMP JUMPDEST PUSH2 0x1AF5 DUP2 PUSH2 0x1835 JUMP JUMPDEST SWAP1 SLOAD PUSH1 0x3 SWAP2 DUP3 SHL SHR DUP1 PUSH1 0x0 MSTORE PUSH1 0x20 SWAP2 DUP3 MSTORE PUSH1 0x40 DUP1 PUSH1 0x0 KECCAK256 SWAP2 PUSH1 0xFF PUSH1 0x6 DUP5 ADD SLOAD AND ISZERO PUSH2 0x1B9D JUMPI PUSH1 0x1 DUP1 SWAP4 ADD SLOAD PUSH3 0x93A80 DUP2 ADD DUP1 SWAP2 GT PUSH2 0x1BA9 JUMPI TIMESTAMP LT PUSH2 0x1B9D JUMPI PUSH2 0x1B3C DUP2 PUSH2 0x1CF3 JUMP JUMPDEST SWAP1 PUSH2 0x1D4C DUP3 LT ISZERO PUSH2 0x1B56 JUMPI POP POP POP POP POP PUSH1 0x1 SWAP1 JUMPDEST ADD PUSH2 0x1ABB JUMP JUMPDEST DUP3 MLOAD SWAP5 DUP6 ADD MSTORE DUP4 DUP3 ADD MSTORE DUP1 DUP4 MSTORE SWAP2 SWAP6 SWAP5 SWAP1 SWAP4 POP PUSH1 0x60 DUP7 ADD SWAP3 POP PUSH8 0xFFFFFFFFFFFFFFFF DUP4 GT DUP7 DUP5 LT OR PUSH2 0x1B88 JUMPI POP MSTORE SWAP2 SWAP1 JUMP JUMPDEST PUSH1 0x41 SWAP1 PUSH4 0x4E487B71 PUSH1 0xE0 SHL PUSH1 0x0 MSTORE MSTORE PUSH1 0x24 PUSH1 0x0 REVERT JUMPDEST POP POP POP POP PUSH1 0x1 SWAP1 PUSH2 0x1B50 JUMP JUMPDEST PUSH1 0x11 DUP9 PUSH4 0x4E487B71 PUSH1 0xE0 SHL PUSH1 0x0 MSTORE MSTORE PUSH1 0x24 PUSH1 0x0 REVERT JUMPDEST ISZERO PUSH2 0x1BC5 JUMPI JUMP JUMPDEST PUSH1 0x40 MLOAD PUSH3 0x461BCD PUSH1 0xE5 SHL DUP2 MSTORE PUSH1 0x20 PUSH1 0x4 DUP3 ADD MSTORE PUSH1 0x14 PUSH1 0x24 DUP3 ADD MSTORE PUSH20 0x141C9BDC195C9D1E481B9BDD081D1C9858DAD959 PUSH1 0x62 SHL PUSH1 0x44 DUP3 ADD MSTORE PUSH1 0x64 SWAP1 REVERT JUMPDEST DUP2 PUSH1 0x1F DUP3 ADD SLT ISZERO PUSH2 0x3F8 JUMPI DUP1 MLOAD PUSH8 0xFFFFFFFFFFFFFFFF DUP2 GT PUSH2 0x18D1 JUMPI PUSH1 0x40 MLOAD SWAP3 PUSH2 0x1C35 PUSH1 0x1F DUP4 ADD PUSH1 0x1F NOT AND PUSH1 0x20 ADD DUP6 PUSH2 0x191F JUMP JUMPDEST DUP2 DUP5 MSTORE PUSH1 0x20 DUP3 DUP5 ADD ADD GT PUSH2 0x3F8 JUMPI PUSH2 0x1C53 SWAP2 PUSH1 0x20 DUP1 DUP6 ADD SWAP2 ADD PUSH2 0x17ED JUMP JUMPDEST SWAP1 JUMP JUMPDEST PUSH2 0x140 DUP2 DUP4 SUB SLT PUSH2 0x3F8 JUMPI DUP1 MLOAD SWAP3 PUSH1 0x20 DUP3 ADD MLOAD PUSH8 0xFFFFFFFFFFFFFFFF SWAP1 DUP2 DUP2 GT PUSH2 0x3F8 JUMPI DUP5 PUSH2 0x1C86 SWAP2 DUP6 ADD PUSH2 0x1C01 JUMP JUMPDEST SWAP4 PUSH1 0x40 DUP5 ADD MLOAD SWAP2 DUP3 GT PUSH2 0x3F8 JUMPI PUSH2 0x1C9E SWAP2 DUP5 ADD PUSH2 0x1C01 JUMP JUMPDEST SWAP2 PUSH1 0x60 DUP2 ADD MLOAD SWAP2 PUSH1 0x80 DUP3 ADD MLOAD SWAP2 PUSH1 0xA0 DUP2 ADD MLOAD SWAP2 PUSH1 0xC0 DUP3 ADD MLOAD SWAP2 PUSH1 0xE0 DUP2 ADD MLOAD PUSH1 0xFF DUP2 AND DUP2 SUB PUSH2 0x3F8 JUMPI SWAP2 PUSH2 0x1C53 PUSH2 0x120 PUSH2 0x1CDA PUSH2 0x100 DUP6 ADD PUSH2 0x19B3 JUMP JUMPDEST SWAP4 ADD PUSH2 0x19B3 JUMP JUMPDEST PUSH1 0xFF PUSH1 0x1 SWAP2 AND ADD SWAP1 PUSH1 0xFF DUP3 GT PUSH2 0x199D JUMPI JUMP JUMPDEST PUSH1 0x0 MSTORE PUSH1 0x3 PUSH1 0x20 MSTORE PUSH1 0x40 PUSH1 0x0 KECCAK256 PUSH1 0x2 DUP2 ADD SLOAD SWAP1 DUP2 ISZERO PUSH2 0x1D28 JUMPI PUSH1 0x3 ADD SLOAD PUSH2 0x2710 SWAP1 DUP2 DUP2 MUL SWAP2 DUP2 DUP4 DIV EQ SWAP1 ISZERO OR ISZERO PUSH2 0x199D JUMPI DIV SWAP1 JUMP JUMPDEST POP POP PUSH1 0x0 SWAP1 JUMP JUMPDEST CALLER PUSH1 0x0 SWAP1 DUP2 MSTORE PUSH32 0xEE57CD81E84075558E8FCC182A1F4393F91FC97F963A136E66B7F949A62F319F PUSH1 0x20 MSTORE PUSH1 0x40 SWAP1 KECCAK256 SLOAD PUSH32 0x97667070C54EF182B0F5858B034BEAC1B6F3089AA2D3188BB1E8929F4FA9B929 SWAP1 PUSH1 0xFF AND ISZERO PUSH2 0x1D8B JUMPI POP JUMP JUMPDEST PUSH1 0x44 SWAP1 PUSH1 0x40 MLOAD SWAP1 PUSH4 0xE2517D3F PUSH1 0xE0 SHL DUP3 MSTORE CALLER PUSH1 0x4 DUP4 ADD MSTORE PUSH1 0x24 DUP3 ADD MSTORE REVERT JUMPDEST DUP1 PUSH1 0x0 MSTORE PUSH1 0x0 PUSH1 0x20 MSTORE PUSH1 0x40 PUSH1 0x0 KECCAK256 CALLER PUSH1 0x0 MSTORE PUSH1 0x20 MSTORE PUSH1 0xFF PUSH1 0x40 PUSH1 0x0 KECCAK256 SLOAD AND ISZERO PUSH2 0x1D8B JUMPI POP JUMP JUMPDEST SWAP1 PUSH1 0x0 SWAP2 DUP1 DUP4 MSTORE DUP3 PUSH1 0x20 MSTORE PUSH1 0x40 DUP4 KECCAK256 SWAP2 PUSH1 0x1 DUP1 PUSH1 0xA0 SHL SUB AND SWAP2 DUP3 DUP5 MSTORE PUSH1 0x20 MSTORE PUSH1 0xFF PUSH1 0x40 DUP5 KECCAK256 SLOAD AND ISZERO PUSH1 0x0 EQ PUSH2 0x1E48 JUMPI DUP1 DUP4 MSTORE DUP3 PUSH1 0x20 MSTORE PUSH1 0x40 DUP4 KECCAK256 DUP3 DUP5 MSTORE PUSH1 0x20 MSTORE PUSH1 0x40 DUP4 KECCAK256 PUSH1 0x1 PUSH1 0xFF NOT DUP3 SLOAD AND OR SWAP1 SSTORE PUSH32 0x2F8788117E7EFF1D82E926EC794901D17C78024A50270940304540A733656F0D CALLER SWAP4 DUP1 LOG4 PUSH1 0x1 SWAP1 JUMP JUMPDEST POP POP SWAP1 JUMP JUMPDEST SWAP1 PUSH1 0x0 SWAP2 DUP1 DUP4 MSTORE DUP3 PUSH1 0x20 MSTORE PUSH1 0x40 DUP4 KECCAK256 SWAP2 PUSH1 0x1 DUP1 PUSH1 0xA0 SHL SUB AND SWAP2 DUP3 DUP5 MSTORE PUSH1 0x20 MSTORE PUSH1 0xFF PUSH1 0x40 DUP5 KECCAK256 SLOAD AND PUSH1 0x0 EQ PUSH2 0x1E48 JUMPI DUP1 DUP4 MSTORE DUP3 PUSH1 0x20 MSTORE PUSH1 0x40 DUP4 KECCAK256 DUP3 DUP5 MSTORE PUSH1 0x20 MSTORE PUSH1 0x40 DUP4 KECCAK256 PUSH1 0xFF NOT DUP2 SLOAD AND SWAP1 SSTORE PUSH32 0xF6391F5C32D9C69D2A47EA670B442974B53935D1EDC7FD64EB21E047A839171B CALLER SWAP4 DUP1 LOG4 PUSH1 0x1 SWAP1 JUMP JUMPDEST SWAP1 DUP2 PUSH1 0x0 MSTORE PUSH1 0x20 SWAP1 PUSH1 0x6 DUP3 MSTORE PUSH1 0x40 PUSH2 0x1EE1 DUP2 PUSH1 0x0 KECCAK256 SLOAD PUSH1 0x7 SLOAD SWAP1 PUSH2 0x1990 JUMP JUMPDEST TIMESTAMP LT PUSH2 0x2025 JUMPI PUSH2 0x9C4 DUP3 LT ISZERO PUSH2 0x1F6A JUMPI PUSH32 0x505A29C5397A0038BF34D9F7BAF0047C3F5EAE6323BF8450C1E34DACF7CC2A17 SWAP3 DUP2 MLOAD PUSH2 0x1F1E DUP2 PUSH2 0x1903 JUMP JUMPDEST PUSH1 0x14 DUP2 MSTORE PUSH20 0x3AB933B2B73A2FB830B93A34B1B4B830BA34B7B7 PUSH1 0x61 SHL DUP3 DUP3 ADD MSTORE SWAP3 JUMPDEST DUP6 PUSH1 0x0 MSTORE PUSH1 0x6 DUP3 MSTORE TIMESTAMP DUP4 PUSH1 0x0 KECCAK256 SSTORE PUSH2 0x1F61 DUP4 MLOAD SWAP5 DUP5 DUP7 SWAP6 DUP7 MSTORE DUP6 ADD SWAP1 PUSH2 0x1810 JUMP JUMPDEST SWAP2 DUP4 ADD MSTORE SUB SWAP1 LOG2 JUMP JUMPDEST PUSH2 0x1770 DUP3 LT ISZERO DUP1 PUSH2 0x2036 JUMPI JUMPDEST ISZERO PUSH2 0x1FC8 JUMPI PUSH32 0x505A29C5397A0038BF34D9F7BAF0047C3F5EAE6323BF8450C1E34DACF7CC2A17 SWAP3 DUP2 MLOAD PUSH2 0x1FA8 DUP2 PUSH2 0x1903 JUMP JUMPDEST PUSH1 0xE DUP2 MSTORE PUSH14 0x36B4B632B9BA37B732AFB732B0B9 PUSH1 0x91 SHL DUP3 DUP3 ADD MSTORE SWAP3 PUSH2 0x1F40 JUMP JUMPDEST PUSH2 0x1B58 DUP3 LT ISZERO DUP1 PUSH2 0x202B JUMPI JUMPDEST ISZERO PUSH2 0x2025 JUMPI PUSH32 0x505A29C5397A0038BF34D9F7BAF0047C3F5EAE6323BF8450C1E34DACF7CC2A17 SWAP3 DUP2 MLOAD PUSH2 0x2006 DUP2 PUSH2 0x1903 JUMP JUMPDEST PUSH1 0xD DUP2 MSTORE PUSH13 0x70686173655F636C6F73696E67 PUSH1 0x98 SHL DUP3 DUP3 ADD MSTORE SWAP3 PUSH2 0x1F40 JUMP JUMPDEST POP POP POP POP JUMP JUMPDEST POP PUSH2 0x1D4C DUP3 LT PUSH2 0x1FD4 JUMP JUMPDEST POP PUSH2 0x1D4C DUP3 LT PUSH2 0x1F76 JUMP JUMPDEST SWAP1 DUP2 PUSH1 0x0 MSTORE PUSH1 0x3 PUSH1 0x20 MSTORE PUSH1 0x1 PUSH1 0x40 PUSH1 0x0 KECCAK256 ADD SLOAD PUSH3 0x93A80 DUP2 ADD DUP1 SWAP2 GT PUSH2 0x199D JUMPI TIMESTAMP LT PUSH2 0x2080 JUMPI PUSH2 0x1D4C DUP2 LT ISZERO PUSH2 0x2075 JUMPI POP POP JUMP JUMPDEST PUSH2 0x207E SWAP2 PUSH2 0x2084 JUMP JUMPDEST JUMP JUMPDEST POP POP JUMP JUMPDEST PUSH1 0x1 SLOAD PUSH1 0x40 DUP1 MLOAD PUSH4 0x32665FFB PUSH1 0xE0 SHL DUP2 MSTORE PUSH1 0x4 DUP2 ADD DUP5 SWAP1 MSTORE SWAP3 SWAP4 PUSH1 0x1 PUSH1 0x1 PUSH1 0xA0 SHL SUB SWAP1 SWAP3 AND SWAP3 PUSH1 0x0 DUP1 DUP3 PUSH1 0x24 DUP2 DUP9 GAS STATICCALL SWAP2 DUP3 ISZERO PUSH2 0x21A3 JUMPI DUP2 SWAP3 PUSH2 0x217D JUMPI JUMPDEST POP PUSH1 0xFF DUP3 AND SWAP5 PUSH1 0x3 DUP7 LT PUSH2 0x20DA JUMPI JUMPDEST POP POP POP POP POP POP POP JUMP JUMPDEST DUP1 EXTCODESIZE ISZERO PUSH2 0x216 JUMPI DUP2 DUP1 SWAP2 PUSH1 0x24 DUP7 MLOAD DUP1 SWAP5 DUP2 SWAP4 PUSH4 0x40D57A67 PUSH1 0xE1 SHL DUP4 MSTORE DUP13 PUSH1 0x4 DUP5 ADD MSTORE GAS CALL DUP1 ISZERO PUSH2 0x3B3 JUMPI PUSH1 0x60 SWAP6 SWAP4 PUSH32 0xD786D06DD56DF8B68A470FB87593BD3D76A14EEEA5CF10760563177BD21496B0 SWAP8 SWAP6 SWAP4 PUSH1 0xFF SWAP4 PUSH2 0x2153 SWAP4 PUSH2 0x216E JUMPI JUMPDEST POP DUP10 DUP2 MSTORE PUSH1 0x3 PUSH1 0x20 MSTORE PUSH1 0x3 DUP6 DUP3 KECCAK256 TIMESTAMP PUSH1 0x1 DUP3 ADD SSTORE ADD SSTORE PUSH2 0x1CE1 JUMP JUMPDEST DUP3 MLOAD SWAP5 DUP6 MSTORE AND PUSH1 0x20 DUP5 ADD MSTORE DUP3 ADD MSTORE LOG2 CODESIZE DUP1 DUP1 DUP1 DUP1 DUP1 DUP1 PUSH2 0x20D1 JUMP JUMPDEST PUSH2 0x2177 SWAP1 PUSH2 0x18BD JUMP JUMPDEST CODESIZE PUSH2 0x2138 JUMP JUMPDEST PUSH2 0x2192 SWAP2 SWAP3 POP RETURNDATASIZE DUP1 DUP5 DUP4 RETURNDATACOPY PUSH2 0x45E DUP2 DUP4 PUSH2 0x191F JUMP JUMPDEST POP POP SWAP7 POP POP POP POP POP POP POP SWAP1 CODESIZE PUSH2 0x20C2 JUMP JUMPDEST POP DUP3 MLOAD SWAP1 RETURNDATASIZE SWAP1 DUP3 RETURNDATACOPY RETURNDATASIZE SWAP1 REVERT INVALID LOG2 PUSH5 0x6970667358 0x22 SLT KECCAK256 0xA6 0xB9 JUMPDEST 0xCD SUB DUP13 DUP6 SWAP12 0xC6 0xDB SWAP16 PREVRANDAO 0xCE 0xE 0x29 0xE6 PC 0xAD DUP4 SIGNEXTEND MULMOD 0xDB 0xCD 0xC8 0xD4 0xC1 PUSH11 0x70A94C7CA064736F6C6343 STOP ADDMOD XOR STOP CALLER 0x2F DUP8 DUP9 GT PUSH31 0x7EFF1D82E926EC794901D17C78024A50270940304540A733656F0D00000000 "},"methodIdentifiers":{"BONUS_TOKENS()":"b415d279","DEFAULT_ADMIN_ROLE()":"a217fddf","ENGAGEMENT_THRESHOLD()":"30ae7805","MIN_ENGAGEMENT_PERIOD()":"5513de41","OPERATOR_ROLE()":"f5b541a6","POLL_BONUS_MULTIPLIER()":"a27f71b2","calculateEngagement(uint256)":"f333d6c2","checkSubscriptionAdvancement(uint256)":"d5612486","checkUpkeep(bytes)":"6e04ff0d","claimEngagementBonus(uint256)":"40ab3171","claimPollBoostBonus(uint256)":"14585aeb","getCommunityHealth()":"0ad5f421","getDemandEngagementMetrics(uint256)":"11f0072f","getEngagement(uint256)":"2e94dfda","getRoleAdmin(bytes32)":"248a9ca3","getTrackedProperties()":"313b79da","governance()":"5aa6e675","grantRole(bytes32,address)":"2f2ff15d","hasClaimed(uint256,address)":"873f6f9e","hasParticipatedInPolls(uint256,address)":"a9dc8726","hasRole(bytes32,address)":"91d14854","isTracked(uint256)":"1194f9e9","lastNudgeTime(uint256)":"5da6559e","nudgeCooldown()":"6675584f","performUpkeep(bytes)":"4585e33b","pollParticipated(uint256,address)":"587bd4a7","propertyEngagement(uint256)":"63e86eb8","propertyPollCount(uint256)":"73de7b4b","propertyToken()":"43ae2695","recordPollParticipation(uint256,address)":"816aad3c","renounceRole(bytes32,address)":"36568abe","revokeRole(bytes32,address)":"d547741f","setNudgeCooldown(uint256)":"8e5359e0","startTracking(uint256,uint256)":"785b2190","stopTracking(uint256)":"06785d8a","supportsInterface(bytes4)":"01ffc9a7","trackedProperties(uint256)":"8085b813","updateDemandEngagement(uint256)":"c8259776","updateEngagement(uint256,uint256,uint256,uint256)":"94c9825d","updateEngagementWithPolls(uint256,uint256,uint256,uint256,uint256)":"3a21ccc1"}}}}}