{"contracts/PropertyToken.sol":{"PropertyToken":{"abi":[{"inputs":[{"internalType":"string","name":"uri_","type":"string"}],"stateMutability":"nonpayable","type":"constructor"},{"inputs":[],"name":"AccessControlBadConfirmation","type":"error"},{"inputs":[{"internalType":"address","name":"account","type":"address"},{"internalType":"bytes32","name":"neededRole","type":"bytes32"}],"name":"AccessControlUnauthorizedAccount","type":"error"},{"inputs":[{"internalType":"address","name":"sender","type":"address"},{"internalType":"uint256","name":"balance","type":"uint256"},{"internalType":"uint256","name":"needed","type":"uint256"},{"internalType":"uint256","name":"tokenId","type":"uint256"}],"name":"ERC1155InsufficientBalance","type":"error"},{"inputs":[{"internalType":"address","name":"approver","type":"address"}],"name":"ERC1155InvalidApprover","type":"error"},{"inputs":[{"internalType":"uint256","name":"idsLength","type":"uint256"},{"internalType":"uint256","name":"valuesLength","type":"uint256"}],"name":"ERC1155InvalidArrayLength","type":"error"},{"inputs":[{"internalType":"address","name":"operator","type":"address"}],"name":"ERC1155InvalidOperator","type":"error"},{"inputs":[{"internalType":"address","name":"receiver","type":"address"}],"name":"ERC1155InvalidReceiver","type":"error"},{"inputs":[{"internalType":"address","name":"sender","type":"address"}],"name":"ERC1155InvalidSender","type":"error"},{"inputs":[{"internalType":"address","name":"operator","type":"address"},{"internalType":"address","name":"owner","type":"address"}],"name":"ERC1155MissingApprovalForAll","type":"error"},{"inputs":[],"name":"EnforcedPause","type":"error"},{"inputs":[],"name":"ExpectedPause","type":"error"},{"inputs":[],"name":"ReentrancyGuardReentrantCall","type":"error"},{"anonymous":false,"inputs":[{"indexed":true,"internalType":"address","name":"account","type":"address"}],"name":"AddressRemovedFromWhitelist","type":"event"},{"anonymous":false,"inputs":[{"indexed":true,"internalType":"address","name":"account","type":"address"},{"indexed":false,"internalType":"enum PropertyToken.Phase","name":"eligibility","type":"uint8"}],"name":"AddressWhitelisted","type":"event"},{"anonymous":false,"inputs":[{"indexed":true,"internalType":"address","name":"account","type":"address"},{"indexed":true,"internalType":"address","name":"operator","type":"address"},{"indexed":false,"internalType":"bool","name":"approved","type":"bool"}],"name":"ApprovalForAll","type":"event"},{"anonymous":false,"inputs":[{"indexed":false,"internalType":"uint256","name":"newPrice","type":"uint256"}],"name":"BasePriceUpdated","type":"event"},{"anonymous":false,"inputs":[{"indexed":false,"internalType":"address","name":"account","type":"address"}],"name":"Paused","type":"event"},{"anonymous":false,"inputs":[{"indexed":true,"internalType":"uint256","name":"propertyId","type":"uint256"},{"indexed":false,"internalType":"enum PropertyToken.Phase","name":"newPhase","type":"uint8"}],"name":"PhaseAdvanced","type":"event"},{"anonymous":false,"inputs":[{"indexed":true,"internalType":"uint256","name":"propertyId","type":"uint256"},{"indexed":false,"internalType":"string","name":"name","type":"string"},{"indexed":false,"internalType":"uint256","name":"totalSupply","type":"uint256"},{"indexed":false,"internalType":"uint256","name":"fundingTarget","type":"uint256"}],"name":"PropertyCreated","type":"event"},{"anonymous":false,"inputs":[{"indexed":true,"internalType":"uint256","name":"propertyId","type":"uint256"},{"indexed":false,"internalType":"uint256","name":"totalRaised","type":"uint256"}],"name":"PropertyFunded","type":"event"},{"anonymous":false,"inputs":[{"indexed":true,"internalType":"bytes32","name":"role","type":"bytes32"},{"indexed":true,"internalType":"bytes32","name":"previousAdminRole","type":"bytes32"},{"indexed":true,"internalType":"bytes32","name":"newAdminRole","type":"bytes32"}],"name":"RoleAdminChanged","type":"event"},{"anonymous":false,"inputs":[{"indexed":true,"internalType":"bytes32","name":"role","type":"bytes32"},{"indexed":true,"internalType":"address","name":"account","type":"address"},{"indexed":true,"internalType":"address","name":"sender","type":"address"}],"name":"RoleGranted","type":"event"},{"anonymous":false,"inputs":[{"indexed":true,"internalType":"bytes32","name":"role","type":"bytes32"},{"indexed":true,"internalType":"address","name":"account","type":"address"},{"indexed":true,"internalType":"address","name":"sender","type":"address"}],"name":"RoleRevoked","type":"event"},{"anonymous":false,"inputs":[{"indexed":true,"internalType":"uint256","name":"propertyId","type":"uint256"},{"indexed":true,"internalType":"address","name":"from","type":"address"},{"indexed":false,"internalType":"uint256","name":"amount","type":"uint256"},{"indexed":false,"internalType":"enum PropertyToken.Phase","name":"phase","type":"uint8"}],"name":"TokensBurned","type":"event"},{"anonymous":false,"inputs":[{"indexed":true,"internalType":"uint256","name":"propertyId","type":"uint256"},{"indexed":true,"internalType":"address","name":"buyer","type":"address"},{"indexed":false,"internalType":"uint256","name":"amount","type":"uint256"},{"indexed":false,"internalType":"enum PropertyToken.Phase","name":"phase","type":"uint8"}],"name":"TokensMinted","type":"event"},{"anonymous":false,"inputs":[{"indexed":true,"internalType":"address","name":"operator","type":"address"},{"indexed":true,"internalType":"address","name":"from","type":"address"},{"indexed":true,"internalType":"address","name":"to","type":"address"},{"indexed":false,"internalType":"uint256[]","name":"ids","type":"uint256[]"},{"indexed":false,"internalType":"uint256[]","name":"values","type":"uint256[]"}],"name":"TransferBatch","type":"event"},{"anonymous":false,"inputs":[{"indexed":true,"internalType":"address","name":"operator","type":"address"},{"indexed":true,"internalType":"address","name":"from","type":"address"},{"indexed":true,"internalType":"address","name":"to","type":"address"},{"indexed":false,"internalType":"uint256","name":"id","type":"uint256"},{"indexed":false,"internalType":"uint256","name":"value","type":"uint256"}],"name":"TransferSingle","type":"event"},{"anonymous":false,"inputs":[{"indexed":false,"internalType":"string","name":"value","type":"string"},{"indexed":true,"internalType":"uint256","name":"id","type":"uint256"}],"name":"URI","type":"event"},{"anonymous":false,"inputs":[{"indexed":false,"internalType":"address","name":"account","type":"address"}],"name":"Unpaused","type":"event"},{"inputs":[],"name":"BURNER_ROLE","outputs":[{"internalType":"bytes32","name":"","type":"bytes32"}],"stateMutability":"view","type":"function"},{"inputs":[],"name":"COUNTY_ALLOCATION","outputs":[{"internalType":"uint256","name":"","type":"uint256"}],"stateMutability":"view","type":"function"},{"inputs":[],"name":"COUNTY_MULTIPLIER","outputs":[{"internalType":"uint256","name":"","type":"uint256"}],"stateMutability":"view","type":"function"},{"inputs":[],"name":"COUNTY_VOTING_MULTIPLIER","outputs":[{"internalType":"uint256","name":"","type":"uint256"}],"stateMutability":"view","type":"function"},{"inputs":[],"name":"DEFAULT_ADMIN_ROLE","outputs":[{"internalType":"bytes32","name":"","type":"bytes32"}],"stateMutability":"view","type":"function"},{"inputs":[],"name":"INTERNATIONAL_ALLOCATION","outputs":[{"internalType":"uint256","name":"","type":"uint256"}],"stateMutability":"view","type":"function"},{"inputs":[],"name":"INTERNATIONAL_MULTIPLIER","outputs":[{"internalType":"uint256","name":"","type":"uint256"}],"stateMutability":"view","type":"function"},{"inputs":[],"name":"INTERNATIONAL_VOTING_MULTIPLIER","outputs":[{"internalType":"uint256","name":"","type":"uint256"}],"stateMutability":"view","type":"function"},{"inputs":[],"name":"MINTER_ROLE","outputs":[{"internalType":"bytes32","name":"","type":"bytes32"}],"stateMutability":"view","type":"function"},{"inputs":[],"name":"NATIONAL_ALLOCATION","outputs":[{"internalType":"uint256","name":"","type":"uint256"}],"stateMutability":"view","type":"function"},{"inputs":[],"name":"NATIONAL_MULTIPLIER","outputs":[{"internalType":"uint256","name":"","type":"uint256"}],"stateMutability":"view","type":"function"},{"inputs":[],"name":"NATIONAL_VOTING_MULTIPLIER","outputs":[{"internalType":"uint256","name":"","type":"uint256"}],"stateMutability":"view","type":"function"},{"inputs":[],"name":"PAUSER_ROLE","outputs":[{"internalType":"bytes32","name":"","type":"bytes32"}],"stateMutability":"view","type":"function"},{"inputs":[],"name":"PHASE_ADVANCER_ROLE","outputs":[{"internalType":"bytes32","name":"","type":"bytes32"}],"stateMutability":"view","type":"function"},{"inputs":[],"name":"STATE_ALLOCATION","outputs":[{"internalType":"uint256","name":"","type":"uint256"}],"stateMutability":"view","type":"function"},{"inputs":[],"name":"STATE_MULTIPLIER","outputs":[{"internalType":"uint256","name":"","type":"uint256"}],"stateMutability":"view","type":"function"},{"inputs":[],"name":"STATE_VOTING_MULTIPLIER","outputs":[{"internalType":"uint256","name":"","type":"uint256"}],"stateMutability":"view","type":"function"},{"inputs":[],"name":"WHITELIST_ADMIN_ROLE","outputs":[{"internalType":"bytes32","name":"","type":"bytes32"}],"stateMutability":"view","type":"function"},{"inputs":[{"internalType":"address","name":"account","type":"address"},{"internalType":"enum PropertyToken.Phase","name":"eligibility","type":"uint8"}],"name":"addToWhitelist","outputs":[],"stateMutability":"nonpayable","type":"function"},{"inputs":[{"internalType":"address","name":"","type":"address"}],"name":"addressPhaseEligibility","outputs":[{"internalType":"enum PropertyToken.Phase","name":"","type":"uint8"}],"stateMutability":"view","type":"function"},{"inputs":[{"internalType":"uint256","name":"propertyId","type":"uint256"}],"name":"advancePhase","outputs":[],"stateMutability":"nonpayable","type":"function"},{"inputs":[{"internalType":"address","name":"account","type":"address"},{"internalType":"uint256","name":"id","type":"uint256"}],"name":"balanceOf","outputs":[{"internalType":"uint256","name":"","type":"uint256"}],"stateMutability":"view","type":"function"},{"inputs":[{"internalType":"address[]","name":"accounts","type":"address[]"},{"internalType":"uint256[]","name":"ids","type":"uint256[]"}],"name":"balanceOfBatch","outputs":[{"internalType":"uint256[]","name":"","type":"uint256[]"}],"stateMutability":"view","type":"function"},{"inputs":[],"name":"basePrice","outputs":[{"internalType":"uint256","name":"","type":"uint256"}],"stateMutability":"view","type":"function"},{"inputs":[{"internalType":"address","name":"account","type":"address"},{"internalType":"uint256","name":"id","type":"uint256"},{"internalType":"uint256","name":"value","type":"uint256"}],"name":"burn","outputs":[],"stateMutability":"nonpayable","type":"function"},{"inputs":[{"internalType":"address","name":"account","type":"address"},{"internalType":"uint256[]","name":"ids","type":"uint256[]"},{"internalType":"uint256[]","name":"values","type":"uint256[]"}],"name":"burnBatch","outputs":[],"stateMutability":"nonpayable","type":"function"},{"inputs":[{"internalType":"uint256","name":"propertyId","type":"uint256"},{"internalType":"address","name":"holder","type":"address"},{"internalType":"uint256","name":"amount","type":"uint256"}],"name":"burnFromOnFailure","outputs":[],"stateMutability":"nonpayable","type":"function"},{"inputs":[{"internalType":"string","name":"name","type":"string"},{"internalType":"string","name":"propertyUri","type":"string"},{"internalType":"uint256","name":"totalSupply","type":"uint256"},{"internalType":"uint256","name":"fundingTarget","type":"uint256"},{"internalType":"uint256","name":"fundingDuration","type":"uint256"}],"name":"createProperty","outputs":[{"internalType":"uint256","name":"","type":"uint256"}],"stateMutability":"nonpayable","type":"function"},{"inputs":[{"internalType":"uint256","name":"id","type":"uint256"}],"name":"exists","outputs":[{"internalType":"bool","name":"","type":"bool"}],"stateMutability":"view","type":"function"},{"inputs":[],"name":"getAllPropertyIds","outputs":[{"internalType":"uint256[]","name":"","type":"uint256[]"}],"stateMutability":"view","type":"function"},{"inputs":[{"internalType":"uint256","name":"propertyId","type":"uint256"}],"name":"getCurrentPrice","outputs":[{"internalType":"uint256","name":"","type":"uint256"}],"stateMutability":"view","type":"function"},{"inputs":[{"internalType":"uint256","name":"propertyId","type":"uint256"}],"name":"getProperty","outputs":[{"components":[{"internalType":"uint256","name":"id","type":"uint256"},{"internalType":"string","name":"name","type":"string"},{"internalType":"string","name":"uri","type":"string"},{"internalType":"uint256","name":"totalSupply","type":"uint256"},{"internalType":"uint256","name":"mintedSupply","type":"uint256"},{"internalType":"uint256","name":"fundingTarget","type":"uint256"},{"internalType":"uint256","name":"fundingDeadline","type":"uint256"},{"internalType":"enum PropertyToken.Phase","name":"currentPhase","type":"uint8"},{"internalType":"bool","name":"isActive","type":"bool"},{"internalType":"bool","name":"isFunded","type":"bool"}],"internalType":"struct PropertyToken.Property","name":"","type":"tuple"}],"stateMutability":"view","type":"function"},{"inputs":[],"name":"getPropertyCount","outputs":[{"internalType":"uint256","name":"","type":"uint256"}],"stateMutability":"view","type":"function"},{"inputs":[{"internalType":"bytes32","name":"role","type":"bytes32"}],"name":"getRoleAdmin","outputs":[{"internalType":"bytes32","name":"","type":"bytes32"}],"stateMutability":"view","type":"function"},{"inputs":[{"internalType":"uint256","name":"propertyId","type":"uint256"}],"name":"getTotalWeightedVotingPower","outputs":[{"internalType":"uint256","name":"","type":"uint256"}],"stateMutability":"view","type":"function"},{"inputs":[{"internalType":"enum PropertyToken.Phase","name":"phase","type":"uint8"}],"name":"getVotingMultiplier","outputs":[{"internalType":"uint256","name":"","type":"uint256"}],"stateMutability":"pure","type":"function"},{"inputs":[{"internalType":"uint256","name":"propertyId","type":"uint256"},{"internalType":"address","name":"voter","type":"address"}],"name":"getVotingPower","outputs":[{"internalType":"uint256","name":"","type":"uint256"}],"stateMutability":"view","type":"function"},{"inputs":[{"internalType":"bytes32","name":"role","type":"bytes32"},{"internalType":"address","name":"account","type":"address"}],"name":"grantRole","outputs":[],"stateMutability":"nonpayable","type":"function"},{"inputs":[{"internalType":"bytes32","name":"role","type":"bytes32"},{"internalType":"address","name":"account","type":"address"}],"name":"hasRole","outputs":[{"internalType":"bool","name":"","type":"bool"}],"stateMutability":"view","type":"function"},{"inputs":[{"internalType":"uint256","name":"","type":"uint256"},{"internalType":"address","name":"","type":"address"},{"internalType":"enum PropertyToken.Phase","name":"","type":"uint8"}],"name":"holdingsByPhase","outputs":[{"internalType":"uint256","name":"","type":"uint256"}],"stateMutability":"view","type":"function"},{"inputs":[{"internalType":"address","name":"account","type":"address"},{"internalType":"address","name":"operator","type":"address"}],"name":"isApprovedForAll","outputs":[{"internalType":"bool","name":"","type":"bool"}],"stateMutability":"view","type":"function"},{"inputs":[{"internalType":"uint256","name":"propertyId","type":"uint256"}],"name":"markFunded","outputs":[],"stateMutability":"nonpayable","type":"function"},{"inputs":[{"internalType":"uint256","name":"propertyId","type":"uint256"},{"internalType":"address","name":"buyer","type":"address"},{"internalType":"uint256","name":"amount","type":"uint256"}],"name":"mintTokens","outputs":[],"stateMutability":"nonpayable","type":"function"},{"inputs":[],"name":"pause","outputs":[],"stateMutability":"nonpayable","type":"function"},{"inputs":[],"name":"paused","outputs":[{"internalType":"bool","name":"","type":"bool"}],"stateMutability":"view","type":"function"},{"inputs":[{"internalType":"uint256","name":"","type":"uint256"},{"internalType":"enum PropertyToken.Phase","name":"","type":"uint8"}],"name":"phaseAllocations","outputs":[{"internalType":"uint256","name":"","type":"uint256"}],"stateMutability":"view","type":"function"},{"inputs":[{"internalType":"uint256","name":"","type":"uint256"},{"internalType":"enum PropertyToken.Phase","name":"","type":"uint8"}],"name":"phaseMinted","outputs":[{"internalType":"uint256","name":"","type":"uint256"}],"stateMutability":"view","type":"function"},{"inputs":[{"internalType":"uint256","name":"","type":"uint256"}],"name":"properties","outputs":[{"internalType":"uint256","name":"id","type":"uint256"},{"internalType":"string","name":"name","type":"string"},{"internalType":"string","name":"uri","type":"string"},{"internalType":"uint256","name":"totalSupply","type":"uint256"},{"internalType":"uint256","name":"mintedSupply","type":"uint256"},{"internalType":"uint256","name":"fundingTarget","type":"uint256"},{"internalType":"uint256","name":"fundingDeadline","type":"uint256"},{"internalType":"enum PropertyToken.Phase","name":"currentPhase","type":"uint8"},{"internalType":"bool","name":"isActive","type":"bool"},{"internalType":"bool","name":"isFunded","type":"bool"}],"stateMutability":"view","type":"function"},{"inputs":[],"name":"propertyCount","outputs":[{"internalType":"uint256","name":"","type":"uint256"}],"stateMutability":"view","type":"function"},{"inputs":[{"internalType":"uint256","name":"propertyId","type":"uint256"}],"name":"propertyExists","outputs":[{"internalType":"bool","name":"","type":"bool"}],"stateMutability":"view","type":"function"},{"inputs":[{"internalType":"address","name":"account","type":"address"}],"name":"removeFromWhitelist","outputs":[],"stateMutability":"nonpayable","type":"function"},{"inputs":[{"internalType":"bytes32","name":"role","type":"bytes32"},{"internalType":"address","name":"callerConfirmation","type":"address"}],"name":"renounceRole","outputs":[],"stateMutability":"nonpayable","type":"function"},{"inputs":[{"internalType":"bytes32","name":"role","type":"bytes32"},{"internalType":"address","name":"account","type":"address"}],"name":"revokeRole","outputs":[],"stateMutability":"nonpayable","type":"function"},{"inputs":[{"internalType":"address","name":"from","type":"address"},{"internalType":"address","name":"to","type":"address"},{"internalType":"uint256[]","name":"ids","type":"uint256[]"},{"internalType":"uint256[]","name":"values","type":"uint256[]"},{"internalType":"bytes","name":"data","type":"bytes"}],"name":"safeBatchTransferFrom","outputs":[],"stateMutability":"nonpayable","type":"function"},{"inputs":[{"internalType":"address","name":"from","type":"address"},{"internalType":"address","name":"to","type":"address"},{"internalType":"uint256","name":"id","type":"uint256"},{"internalType":"uint256","name":"value","type":"uint256"},{"internalType":"bytes","name":"data","type":"bytes"}],"name":"safeTransferFrom","outputs":[],"stateMutability":"nonpayable","type":"function"},{"inputs":[{"internalType":"address","name":"operator","type":"address"},{"internalType":"bool","name":"approved","type":"bool"}],"name":"setApprovalForAll","outputs":[],"stateMutability":"nonpayable","type":"function"},{"inputs":[{"internalType":"bytes4","name":"interfaceId","type":"bytes4"}],"name":"supportsInterface","outputs":[{"internalType":"bool","name":"","type":"bool"}],"stateMutability":"view","type":"function"},{"inputs":[],"name":"totalSupply","outputs":[{"internalType":"uint256","name":"","type":"uint256"}],"stateMutability":"view","type":"function"},{"inputs":[{"internalType":"uint256","name":"id","type":"uint256"}],"name":"totalSupply","outputs":[{"internalType":"uint256","name":"","type":"uint256"}],"stateMutability":"view","type":"function"},{"inputs":[],"name":"unpause","outputs":[],"stateMutability":"nonpayable","type":"function"},{"inputs":[{"internalType":"uint256","name":"newPrice","type":"uint256"}],"name":"updateBasePrice","outputs":[],"stateMutability":"nonpayable","type":"function"},{"inputs":[{"internalType":"uint256","name":"","type":"uint256"}],"name":"uri","outputs":[{"internalType":"string","name":"","type":"string"}],"stateMutability":"view","type":"function"},{"inputs":[{"internalType":"address","name":"","type":"address"}],"name":"whitelist","outputs":[{"internalType":"bool","name":"","type":"bool"}],"stateMutability":"view","type":"function"}],"evm":{"bytecode":{"linkReferences":{},"object":"60806040523462000275576200437a803803806200001d816200027a565b9283398101906020908181840312620002755780516001600160401b039182821162000275570191601f90848285011215620002755783518381116200024a57601f199462000072828501871684016200027a565b968288528383830101116200027557829060005b838110620002605750506000918701015284519283116200024a57600254936001948581811c911680156200023f575b838210146200022957838111620001dd575b50819284116001146200017457505081929360009262000168575b5050600019600383901b1c191690821b176002555b60ff1960065416600655600755662c68af0bb140006008556200011b33620002a0565b50620001273362000321565b506200013333620003c4565b506200013f3362000462565b506200014b3362000500565b5062000157336200059e565b50604051613d1d90816200063d8239f35b015190503880620000e3565b839291921694600260005282600020926000905b878210620001c557505083859610620001ab575b505050811b01600255620000f8565b015160001960f88460031b161c191690553880806200019c565b80878596829496860151815501950193019062000188565b6002600052826000208480870160051c8201928588106200021f575b0160051c019086905b82811062000212575050620000c8565b6000815501869062000202565b92508192620001f9565b634e487b7160e01b600052602260045260246000fd5b90607f1690620000b6565b634e487b7160e01b600052604160045260246000fd5b81810183015189820184015284920162000086565b600080fd5b6040519190601f01601f191682016001600160401b038111838210176200024a57604052565b6001600160a01b031660008181527f05b8ccbb9d4d8fb16ea74ce3c29a41f1b461fbdaff4714a0d9a8eb05499746bc602052604081205490919060ff166200031d5781805260056020526040822081835260205260408220600160ff1982541617905533916000805160206200435a8339815191528180a4600190565b5090565b6001600160a01b031660008181527f15a28d26fa1bf736cf7edc9922607171ccb09c3c73b808e7772a3013e068a52260205260408120549091907f9f2df0fed2c77648de5860a4cc508cd0818c85b8b8a1ab4ceeef8d981c8956a69060ff16620003bf5780835260056020526040832082845260205260408320600160ff198254161790556000805160206200435a833981519152339380a4600190565b505090565b6001600160a01b031660008181527f99f2891db7a8db76249871a02b43b68c0bb8f22ef8a3bc1034ae9375ef6b7c3c60205260408120549091907f65d7a28e3265b37a6474929f336521b332c1681b933f6cb9f3376673440d862a9060ff16620003bf5780835260056020526040832082845260205260408320600160ff198254161790556000805160206200435a833981519152339380a4600190565b6001600160a01b031660008181527f294bb43e882f8724b7ae88344d047a41612b98ee139a78f923b3689f3cc274b160205260408120549091907f28f5a99355973cc89255b8c4ac88405f27c78ded7608b040ee77a8bdf44d15e29060ff16620003bf5780835260056020526040832082845260205260408320600160ff198254161790556000805160206200435a833981519152339380a4600190565b6001600160a01b031660008181527fc54cc0cad80e711aff5b4fca3e13682b9a8fcd7ff4679fbc81d0391d16e477bd60205260408120549091907f62045f2f519251643cf4b5f0750d99bbda23ce869802ad9f6d52577cd08a645a9060ff16620003bf5780835260056020526040832082845260205260408320600160ff198254161790556000805160206200435a833981519152339380a4600190565b6001600160a01b031660008181527f847f481f687befb06ed3511f1a8dcef57e83007c0147ae5047583d705617093760205260408120549091907f3c11d16cbaffd01df69ce1c404f6340ee057498f5f00246190ea54220576a8489060ff16620003bf5780835260056020526040832082845260205260408320600160ff198254161790556000805160206200435a833981519152339380a460019056fe6080604052600436101561001257600080fd5b60003560e01c8062fdd58e146103fc57806301ffc9a7146103f75780630263b858146103f257806304fa6173146103ed5780630e89341c146103e857806311dd6cdc1461039857806318160ddd146103e357806323067248146103de578063248a9ca3146103d9578063282c51f3146103d45780632eb2c2d6146103cf5780632f2ff15d146103ca57806332665ffb146103c557806335894afd146103c057806336568abe146103bb5780633bb0b5b6146103b65780633f4ba83a146103b15780634a164732146103ac5780634e1273f4146103a75780634f558e79146103a25780634ff69e831461039d578063500e9f731461039857806354202c4e146103935780635561c5b31461038e57806358567dd5146103895780635bbe9f5e146103115780635c975abb146103845780635fc68c461461037f5780636b20c4541461037a5780636ce2f91d146103755780636ea99677146103705780637326b9011461036b5780637ca8c6f11461036657806381aaf4ce146103615780638456cb591461035c5780638ab1d681146103575780638cdc1e87146103525780638d6819be1461034d57806391d14854146103485780639b19251a146103435780639ca027631461033e578063a217fddf14610339578063a22cb46514610334578063a7907f741461032f578063bd85b0391461032a578063c361a33514610325578063c55d0f5614610320578063c5666eb21461031b578063c65b682014610316578063c7527d0814610311578063c7876ea41461030c578063ceadd5b914610307578063d539139314610302578063d547741f146102fd578063dbdad432146102f8578063e63ab1e9146102f3578063e985e9c5146102ee578063edff4969146102e9578063f242432a146102e4578063f5298aca146102df578063f7b10808146102da578063f8147a8a146102d55763fd5baa88146102d057600080fd5b6121ef565b6121d2565b612157565b611f7d565b611e77565b611e33565b611dd2565b611d97565b611d12565b611cd3565b611c98565b611c7b565b611c5d565b6112d3565b611c40565b611b63565b611b45565b611b27565b611afb565b611ade565b611a22565b611a06565b6119b0565b611971565b61191f565b6116a9565b61160e565b6115a6565b61154c565b6114b9565b61149c565b61147e565b61144c565b61141c565b611330565b611313565b6112f0565b6110c5565b6110a8565b61106d565b61075c565b610fe1565b610fb3565b610ef9565b610e86565b610e1c565b610d4c565b610cdb565b610ca0565b610b95565b610aa5565b61097c565b6107e3565b6107b4565b610797565b610779565b610676565b610604565b61053c565b6104a5565b610446565b600435906001600160a01b038216820361041757565b600080fd5b602435906001600160a01b038216820361041757565b35906001600160a01b038216820361041757565b3461041757604036600319011261041757602061048a610464610401565b6024356000526000835260406000209060018060a01b0316600052602052604060002090565b54604051908152f35b6001600160e01b031981160361041757565b346104175760203660031901126104175760206004356104c481610493565b63ffffffff60e01b16637965db0b60e01b81149081156104ea575b506040519015158152f35b636cdb3d1360e11b81149150811561051c575b811561050b575b50386104df565b6301ffc9a760e01b14905038610504565b6303a24d0760e21b811491506104fd565b60243590600482101561041757565b3461041757604036600319011261041757610555610401565b7f473a74f22f6ac6868d6c168fc84aef7f2172066bab41229b471d1c6b85434c82602061058061052d565b9261058961223b565b60018060a01b03169283600052600d82526040600020600160ff19825416179055600e82526105bc816040600020612ff5565b6105c96040518092610ae4565ba2005b600411156105d657565b634e487b7160e01b600052602160045260246000fd5b9060048110156105d657600052602052604060002090565b3461041757604036600319011261041757602061048a61062261052d565b600435600052600c835260406000206105ec565b919082519283825260005b848110610662575050826000602080949584010152601f8019910116010190565b602081830181015184830182015201610641565b346104175760208060031936011261041757604051906000826002549161069c83612010565b9283835260019085828216918260001461073c5750506001146106df575b506106c792500383610872565b6106db604051928284938452830190610636565b0390f35b84915060026000527f405787fa12a823e0f2b7631cc41b3ba8828b3321ca811111fa75cd3aa3bb5ace906000915b8583106107245750506106c79350820101386106ba565b8054838901850152879450869390920191810161070d565b60ff1916858201526106c795151560051b85010192503891506106ba9050565b346104175760003660031901126104175760206040516127108152f35b34610417576000366003190112610417576020600454604051908152f35b34610417576000366003190112610417576020604051611d4c8152f35b346104175760203660031901126104175760043560005260056020526020600160406000200154604051908152f35b346104175760003660031901126104175760206040517f3c11d16cbaffd01df69ce1c404f6340ee057498f5f00246190ea54220576a8488152f35b634e487b7160e01b600052604160045260246000fd5b610140810190811067ffffffffffffffff82111761085157604052565b61081e565b6020810190811067ffffffffffffffff82111761085157604052565b90601f8019910116810190811067ffffffffffffffff82111761085157604052565b604051906108a182610834565b565b67ffffffffffffffff81116108515760051b60200190565b81601f82011215610417578035916108d2836108a3565b926108e06040519485610872565b808452602092838086019260051b820101928311610417578301905b82821061090a575050505090565b813581529083019083016108fc565b67ffffffffffffffff811161085157601f01601f191660200190565b81601f820112156104175780359061094c82610919565b9261095a6040519485610872565b8284526020838301011161041757816000926020809301838601378301015290565b346104175760a036600319011261041757610995610401565b61099d61041c565b906044359167ffffffffffffffff90818411610417576109c2600494369086016108bb565b90606435838111610417576109da90369087016108bb565b92608435908111610417576109f29036908701610935565b936001600160a01b03808216903382141580610a81575b610a5457831615610a3c5715610a2557610a2395506128c3565b005b604051626a0d4560e21b8152600081880152602490fd5b604051632bfa23e760e11b8152600081890152602490fd5b6040805163711bec9160e11b815233818b019081526001600160a01b038616602082015290918291010390fd5b50600082815260016020908152604080832033845290915290205460ff1615610a09565b3461041757604036600319011261041757610a23600435610ac461041c565b90806000526005602052610adf6001604060002001546123f9565b61241a565b9060048210156105d65752565b610b929060208152825160208201526020830151610b36610b2061014092836040860152610160850190610636565b6040860151848203601f19016060860152610636565b9360608101516080840152608081015160a084015260a081015160c084015260c081015160e084015260e0810151610b746101009182860190610ae4565b81015190610b89610120928386019015159052565b01511515910152565b90565b34610417576020366003190112610417576106db604051610bb581610834565b610c9460009182815260606020820152606060408201528260608201528260808201528260a08201528260c08201528260e082015260ff60406101009480868501528061012080950152600435815260096020522093610c886007610c18610894565b9680548852610c296001820161204a565b6020890152610c3a6002820161204a565b60408901526003810154606089015260048101546080890152600581015460a0890152600681015460c0890152015491610c7984841660e08901612ec6565b600883901c8416151590870152565b60101c16151590830152565b60405191829182610af1565b346104175760003660031901126104175760206040517f62045f2f519251643cf4b5f0750d99bbda23ce869802ad9f6d52577cd08a645a8152f35b3461041757604036600319011261041757610cf461041c565b336001600160a01b03821603610d1057610a23906004356124b4565b60405163334bd91960e11b8152600490fd5b606090600319011261041757600435906024356001600160a01b0381168103610417579060443590565b3461041757610d5a36610d22565b9091610d64612299565b8115610dd7576000818152602081815260408083206001600160a01b0387168452909152902082905410610d9b57610a2392612e6f565b60405162461bcd60e51b8152602060048201526014602482015273496e73756666696369656e742062616c616e636560601b6044820152606490fd5b60405162461bcd60e51b815260206004820152601760248201527f416d6f756e74206d75737420626520706f7369746976650000000000000000006044820152606490fd5b3461041757600036600319011261041757610e356122f1565b60065460ff811615610e745760ff19166006557f5db9ee0a495bf2e6ff9c91a7834c1ba4fdd244a5e8aa4e537bd38aeae4b073aa6020604051338152a1005b604051638dfc202b60e01b8152600490fd5b3461041757602036600319011261041757600435600052601160205260206040600020541515604051908152f35b90815180825260208080930193019160005b828110610ed4575050505090565b835185529381019392810192600101610ec6565b906020610b92928181520190610eb4565b346104175760403660031901126104175760043567ffffffffffffffff8082116104175736602383011215610417578160040135610f36816108a3565b92610f446040519485610872565b81845260209160248386019160051b8301019136831161041757602401905b828210610f9c5785602435868111610417576106db91610f8a610f909236906004016108bb565b9061259f565b60405191829182610ee8565b838091610fa884610432565b815201910190610f63565b3461041757602036600319011261041757600435600052600360205260206040600020541515604051908152f35b34610417576000366003190112610417576040518060105480825282602080930160106000527f1b6847dc741a1b0cd08d278845f9d819d87b734759afb55fe2de5cb82a9ae6729260005b858282106110575750505061104392500383610872565b6106db604051928284938452830190610eb4565b855484526001958601958895509301920161102c565b346104175760003660031901126104175760206040517f28f5a99355973cc89255b8c4ac88405f27c78ded7608b040ee77a8bdf44d15e28152f35b346104175760003660031901126104175760206040516107d08152f35b346104175760a03660031901126104175767ffffffffffffffff600435818111610417576110f7903690600401610935565b90602435908111610417576106db917f1efdde4594ed8e2284022aa3bedd98d13b88c18f2bb33d90131dff8e95589ba36111386111d3933690600401610935565b91604435906112c060643561114b612349565b600a5496879661116261115d8961255c565b600a55565b61116e60843542612eb9565b611176610894565b918983528660208401526040830152866060830152600060808301528360a083015260c0820152600060e08201526111b2610100820160019052565b60006101208201526111ce886000526009602052604060002090565b61300d565b6111e76111df856130c7565b612710900490565b61120d6111fe88600052600b602052604060002090565b60008052602052604060002090565b5561121a6111df856130de565b61124161123188600052600b602052604060002090565b6001600052602052604060002090565b5561124e6111df856130f5565b61127561126588600052600b602052604060002090565b6002600052602052604060002090565b556112826111df8561310c565b6112a961129988600052600b602052604060002090565b6003600052602052604060002090565b556112b386613158565b5060405193849384613136565b0390a26040519081529081906020820190565b34610417576000366003190112610417576020604051613a988152f35b3461041757600036600319011261041757602060ff600654166040519015158152f35b34610417576000366003190112610417576020604051610bb88152f35b3461041757606036600319011261041757611349610401565b67ffffffffffffffff6024358181116104175761136a9036906004016108bb565b90604435908111610417576113839036906004016108bb565b906001600160a01b03831633811415806113f8575b6113d157156113b957610a239260006040516113b381610856565b52612664565b604051626a0d4560e21b815260006004820152602490fd5b60405163711bec9160e11b81523360048201526001600160a01b0385166024820152604490fd5b50600081815260016020908152604080832033845290915290205460ff1615611398565b34610417576020366003190112610417576004356004811015610417576114446020916132a8565b604051908152f35b3461041757604036600319011261041757602061048a61146a61052d565b600435600052600b835260406000206105ec565b34610417576000366003190112610417576020601054604051908152f35b346104175760003660031901126104175760206040516157e48152f35b34610417576020366003190112610417573360009081527fc54cc0cad80e711aff5b4fca3e13682b9a8fcd7ff4679fbc81d0391d16e477bd60205260409020547f62045f2f519251643cf4b5f0750d99bbda23ce869802ad9f6d52577cd08a645a9060ff161561152e57610a2360043561356b565b6044906040519063e2517d3f60e01b82523360048301526024820152fd5b34610417576000366003190112610417576115656122f1565b61156d61353b565b600160ff1960065416176006557f62e78cea01bee320cd4e420270b5ea74000d11b0c9f74754ebdbfc544b05a2586020604051338152a1005b34610417576020366003190112610417576115bf610401565b6115c761223b565b6001600160a01b03166000818152600d60205260408120805460ff19169055907f535611fb62fa2a833988f283b779e417e996813e44046f521d76c17b5943b08c8280a280f35b346104175760203660031901126104175760048035600091825b60ff84166003811161169e578281101561168957611683916116776111df8361167161166a61167d966116658b600052600c602052604060002090565b6105ec565b54916132a8565b90613123565b90612eb9565b936132f3565b92611628565b602183634e487b7160e01b6000525260246000fd5b604051828152602090f35b34610417576116b736610d22565b6116bf6123a1565b60026007541461190d5760026007556116d661353b565b6001600160a01b0382166000908152600d60205260409020611703906116fe905b5460ff1690565b613313565b827f689e2353c59bcd8c1c4352ddd0f21299329ad92442d331648747e4e865acde7461188d61173c836000526009602052604060002090565b600460078201916117f76117ef60ff6117b78b826117986116f78a5493611767848660081c166131d4565b838560101c161580156118ff575b61177e90613357565b6001600160a01b03166000908152600e6020526040902090565b916117a2836105cc565b169283916117af836105cc565b161015613394565b6117e86117d2826116658c600052600b602052604060002090565b54916116658b600052600c602052604060002090565b54906133e0565b8811156133ed565b61180a611802612baf565b88888b61344f565b01611816868254612eb9565b905561183a61182f85600052600c602052604060002090565b825460ff16906105ec565b611845868254612eb9565b905561187961182f8761186287600052600f602052604060002090565b9060018060a01b0316600052602052604060002090565b611884868254612eb9565b90555460ff1690565b60405190946001600160a01b03169381906118aa90879083613439565b0390a36118de6118c88261166585600052600c602052604060002090565b549161166584600052600b602052604060002090565b5411156118f0575b610a236001600755565b6118f99061356b565b386118e6565b5060068a0154421115611775565b604051633ee5aeb560e01b8152600490fd5b3461041757604036600319011261041757602060ff61196561193f61041c565b6004356000526005845260406000209060018060a01b0316600052602052604060002090565b54166040519015158152f35b34610417576020366003190112610417576001600160a01b03611992610401565b16600052600d602052602060ff604060002054166040519015158152f35b34610417576060366003190112610417576119c961041c565b6044359060048210156104175760209161166561048a92600435600052600f855260406000209060018060a01b0316600052602052604060002090565b3461041757600036600319011261041757602060405160008152f35b3461041757604036600319011261041757611a3b610401565b6024359081151590818303610417576001600160a01b038116928315611ac657611a87611a989233600052600160205260406000209060018060a01b0316600052602052604060002090565b9060ff801983541691151516179055565b6040519081527f17307eab39ab6107e8899845ad3d59bd9653f200f220920489ca2b5937696c3160203392a3005b60405162ced3e160e81b815260006004820152602490fd5b346104175760003660031901126104175760206040516103e88152f35b346104175760203660031901126104175760043560005260036020526020604060002054604051908152f35b34610417576000366003190112610417576020600a54604051908152f35b34610417576020366003190112610417576020611444600435613216565b3461041757602036600319011261041757600435611b7f6123a1565b80600052600960205260406000206007810160ff8154611ba3828260081c166131d4565b60101c16611c0a57611bf560047fb00cd7db2cf318388d4984a9842ff206b7cf7bc273a58f12701f29755b3ca94193611bea611c05946201000062ff000019825416179055565b015461167185613216565b6040519081529081906020820190565b0390a2005b60405162461bcd60e51b815260206004820152600e60248201526d105b1c9958591e48199d5b99195960921b6044820152606490fd5b346104175760003660031901126104175760206040516175308152f35b34610417576000366003190112610417576020600854604051908152f35b34610417576000366003190112610417576020604051610fa08152f35b346104175760003660031901126104175760206040517f9f2df0fed2c77648de5860a4cc508cd0818c85b8b8a1ab4ceeef8d981c8956a68152f35b3461041757604036600319011261041757610a23600435611cf261041c565b90806000526005602052611d0d6001604060002001546123f9565b6124b4565b346104175760403660031901126104175760048035611d2f61041c565b91600092835b60ff85166003811161169e5783811015611d8257611d7c916116776111df8361167161166a611d76966116658a6118628e600052600f602052604060002090565b946132f3565b93611d35565b602184634e487b7160e01b6000525260246000fd5b346104175760003660031901126104175760206040517f65d7a28e3265b37a6474929f336521b332c1681b933f6cb9f3376673440d862a8152f35b3461041757604036600319011261041757602060ff611965611df2610401565b611dfa61041c565b6001600160a01b0391821660009081526001865260408082209290931681526020919091522090565b6020810192916108a19190610ae4565b34610417576020366003190112610417576001600160a01b03611e54610401565b16600052600e602052602060ff60406000205416611e756040518092610ae4565bf35b346104175760a036600319011261041757611e90610401565b611e9861041c565b60843567ffffffffffffffff811161041757611eb8903690600401610935565b906001600160a01b03838116903382141580611f59575b611f3257821615611f1957156113b957610a2392611f116064356044359160405192600184526020840152604083019160018352606084015260808301604052565b9290916128c3565b604051632bfa23e760e11b815260006004820152602490fd5b60405163711bec9160e11b81523360048201526001600160a01b0386166024820152604490fd5b50600082815260016020908152604080832033845290915290205460ff1615611ecf565b3461041757606036600319011261041757611f96610401565b6001600160a01b038116338114159081611fea575b50611fc157610a23906044359060243590612e6f565b60405163711bec9160e11b81523360048201526001600160a01b03919091166024820152604490fd5b6000908152600160209081526040808320338452909152902060ff915054161538611fab565b90600182811c92168015612040575b602083101461202a57565b634e487b7160e01b600052602260045260246000fd5b91607f169161201f565b906040519182600082549261205e84612010565b9081845260019485811690816000146120cb5750600114612088575b50506108a192500383610872565b9093915060005260209081600020936000915b8183106120b35750506108a19350820101388061207a565b8554888401850152948501948794509183019161209b565b9150506108a194506020925060ff191682840152151560051b820101388061207a565b98959161012098949b9a979361211b6121299261214898948d5260208d61014091829101528d0190610636565b908b820360408d0152610636565b9a60608a0152608089015260a088015260c087015260e0860190610ae4565b15156101008401521515910152565b3461041757602036600319011261041757600435600052600960205260406000208054906106db61218a6001830161204a565b6121966002840161204a565b926003810154946004820154916005810154600760068301549201549360405198899860ff8760101c169760ff808960081c169816968b6120ee565b346104175760003660031901126104175760206040516130d48152f35b34610417576020366003190112610417577ffab5bcbec79a8b5888e114fd4b378427aa58d9b237d85056f0ee5b3ea57df8c5602060043561222e612349565b80600855604051908152a1005b3360009081527f294bb43e882f8724b7ae88344d047a41612b98ee139a78f923b3689f3cc274b1602052604090207f28f5a99355973cc89255b8c4ac88405f27c78ded7608b040ee77a8bdf44d15e29060ff905b54161561152e5750565b3360009081527f847f481f687befb06ed3511f1a8dcef57e83007c0147ae5047583d7056170937602052604090207f3c11d16cbaffd01df69ce1c404f6340ee057498f5f00246190ea54220576a8489060ff9061228f565b3360009081527f99f2891db7a8db76249871a02b43b68c0bb8f22ef8a3bc1034ae9375ef6b7c3c602052604090207f65d7a28e3265b37a6474929f336521b332c1681b933f6cb9f3376673440d862a9060ff9061228f565b3360009081527f05b8ccbb9d4d8fb16ea74ce3c29a41f1b461fbdaff4714a0d9a8eb05499746bc602052604090205460ff161561238257565b60405163e2517d3f60e01b815233600482015260006024820152604490fd5b3360009081527f15a28d26fa1bf736cf7edc9922607171ccb09c3c73b808e7772a3013e068a522602052604090207f9f2df0fed2c77648de5860a4cc508cd0818c85b8b8a1ab4ceeef8d981c8956a69060ff9061228f565b6000818152600560209081526040808320338452909152902060ff9061228f565b600090808252600560205260ff61244684604085209060018060a01b0316600052602052604060002090565b54166124ae578082526005602090815260408084206001600160a01b038616600090815292529020805460ff1916600117905533926001600160a01b0316917f2f8788117e7eff1d82e926ec794901d17c78024a50270940304540a733656f0d9080a4600190565b50905090565b600090808252600560205260ff6124e084604085209060018060a01b0316600052602052604060002090565b5416156124ae578082526005602090815260408084206001600160a01b038616600090815292529020805460ff1916905533926001600160a01b0316917ff6391f5c32d9c69d2a47ea670b442974b53935d1edc7fd64eb21e047a839171b9080a4600190565b634e487b7160e01b600052601160045260246000fd5b600019811461256b5760010190565b612546565b634e487b7160e01b600052603260045260246000fd5b805182101561259a5760209160051b010190565b612570565b919091805183518082036126425750508051906125bb826108a3565b916125c96040519384610872565b8083526125d8601f19916108a3565b0190602091368385013760005b815181101561263a57600581901b8281018401519087018401516000908152602081815260408083206001600160a01b0390941683529290522054612635919061262f8287612586565b5261255c565b6125e5565b509193505050565b604051635b05999160e01b815260048101919091526024810191909152604490fd5b61266c61353b565b6001600160a01b03811680151580806128bb575b612828575b612696575b50906108a1929161372c565b600094929394925b845184101561281a576126b18486612586565b51946126bd8588612586565b519660005b60ff8116600381111580612811575b156127ed576126df816105cc565b6126fb81611665896118628d600052600f602052604060002090565b5480612712575b505061270d906132f3565b6126c2565b61270d929a878b7f79fa03c4f76e383f2eb3d51f38e9daa7af8429e8573f8c1bb7d6103e878e35646127d06127d8968d96818782116000146127e05761276d915061166588995b61186288600052600f602052604060002090565b6127788882546133e0565b90556004612790856000526009602052604060002090565b0161279c8882546133e0565b90556127b68161166586600052600c602052604060002090565b6127c18882546133e0565b90556040519182918883613439565b0390a36133e0565b989038612702565b61166561276d9299612759565b505095509195936128026128079295156136d4565b61255c565b929490939461269e565b508915156126d1565b949392506108a1905061268a565b93919060005b8451811015612876578061280261286c6007612861612850612871968b612586565b516000526009602052604060002090565b015460101c60ff1690565b61363c565b61282e565b5060008052600d60205291939091906128b66128b17f81955a0a11e65eac625c29e8882660bae4e165a75d72780094acae8ece9a29ee6116f7565b613688565b612685565b506000612680565b919392906128cf61353b565b6001600160a01b038381168015158080612b2b575b612acb575b612940575b506128fb838784876137e7565b8116612909575b5050505050565b845160010361292f576020806129259601519201519233612cec565b3880808080612902565b61293b94919233612e38565b612925565b9196956000959195965b8151881015612abf5761295d8883612586565b51926129698987612586565b519560005b60ff81168c600382111580612ab6575b15612a9657908a918c6129ac83611665866118628e61299c856105cc565b600052600f602052604060002090565b54806129c6575b50505050506129c1906132f3565b61296e565b612a4d94936129c1969d938d938d9383878211600014612a89576129fe9150611665889961186288600052600f602052604060002090565b612a098882546133e0565b90558116612a5a57506127d07f79fa03c4f76e383f2eb3d51f38e9daa7af8429e8573f8c1bb7d6103e878e3564916004612790856000526009602052604060002090565b97905088388d8c826129b3565b612a7793506118626116659293600052600f602052604060002090565b612a82838254612eb9565b90556133e0565b6116656129fe9299612759565b50505095612aae9293945061280290999199156136d4565b96919061294a565b5089151561297e565b979250955093386128ee565b9795949392919060005b8851811015612afc578061280261286c6007612861612850612af7968f612586565b612ad5565b5090919293949597612b266128b16116f78660018060a01b0316600052600d602052604060002090565b6128e9565b5082841615156128e4565b908160209103126104175751610b9281610493565b909260a092610b929594600180861b0316835260006020840152604083015260608201528160808201520190610636565b9192610b9295949160a094600180871b038092168552166020840152604083015260608201528160808201520190610636565b60405190612bbc82610856565b60008252565b3d15612bed573d90612bd382610919565b91612be16040519384610872565b82523d6000602084013e565b606090565b9293919093843b612c04575050505050565b602091612c27604051948593849363f23a6e6160e01b9889865260048601612b4b565b038160006001600160a01b0388165af160009181612cbc575b50612c7f5782612c4e612bc2565b8051919082612c7857604051632bfa23e760e11b81526001600160a01b0383166004820152602490fd5b9050602001fd5b6001600160e01b03191603612c9957503880808080612902565b604051632bfa23e760e11b81526001600160a01b03919091166004820152602490fd5b612cde91925060203d8111612ce5575b612cd68183610872565b810190612b36565b9038612c40565b503d612ccc565b939290949194853b612d01575b505050505050565b612d24602093604051958694859463f23a6e6160e01b998a875260048701612b7c565b038160006001600160a01b0388165af160009181612d66575b50612d4b5782612c4e612bc2565b6001600160e01b03191603612c995750388080808080612cf9565b612d7f91925060203d8111612ce557612cd68183610872565b9038612d3d565b92612db5610b929593612dc39360018060a01b031686526000602087015260a0604087015260a0860190610eb4565b908482036060860152610eb4565b916080818403910152610636565b9390610b929593612db591612dc39460018060a01b03809216885216602087015260a0604087015260a0860190610eb4565b9293919093843b612e15575050505050565b602091612c27604051948593849363bc197c8160e01b9889865260048601612d86565b939290949194853b612e4c57505050505050565b612d24602093604051958694859463bc197c8160e01b998a875260048701612dd1565b906001600160a01b038216156113b9576108a192612eaa60405192600184526020840152604083019160018352606084015260808301604052565b9160006040516113b381610856565b9190820180921161256b57565b60048210156105d65752565b90601f8111612ee057505050565b600091825260208220906020601f850160051c83019410612f1c575b601f0160051c01915b828110612f1157505050565b818155600101612f05565b9092508290612efc565b919091825167ffffffffffffffff811161085157612f4e81612f488454612010565b84612ed2565b602080601f8311600114612f8a575081929394600092612f7f575b50508160011b916000199060031b1c1916179055565b015190503880612f69565b90601f19831695612fa085600052602060002090565b926000905b888210612fdd57505083600195969710612fc4575b505050811b019055565b015160001960f88460031b161c19169055388080612fba565b80600185968294968601518155019501930190612fa5565b9060048110156105d65760ff80198354169116179055565b906130af61012060076108a1948451815561302f602086015160018301612f26565b613040604086015160028301612f26565b606085015160038201556080850151600482015560a0850151600582015560c08501516006820155019261308160e082015161307b816105cc565b85612ff5565b6130a8613092610100830151151590565b855461ff00191690151560081b61ff0016178555565b0151151590565b815462ff0000191690151560101b62ff000016179055565b90610fa09182810292818404149015171561256b57565b90610bb89182810292818404149015171561256b57565b906107d09182810292818404149015171561256b57565b906103e89182810292818404149015171561256b57565b8181029291811591840414171561256b57565b61314e60409295949395606083526060830190610636565b9460208201520152565b806000526011602052604060002054156000146131ce576010546801000000000000000081101561085157600181018060105581101561259a5781907f1b6847dc741a1b0cd08d278845f9d819d87b734759afb55fe2de5cb82a9ae6720155601054906000526011602052604060002055600190565b50600090565b156131db57565b60405162461bcd60e51b815260206004820152601360248201527250726f7065727479206e6f742061637469766560681b6044820152606490fd5b600052600960205260ff600760406000200154613237828260081c166131d4565b16613241816105cc565b8061325b5750612710613257815b600854613123565b0490565b613264816105cc565b6001810361327b5750612710613257613a9861324f565b806132876002926105cc565b0361329a576127106132576157e461324f565b61271061325761753061324f565b60048110156105d65780156132ec576132c0816105cc565b600181146132e557806132d46002926105cc565b146132df57611d4c90565b61271090565b506130d490565b50613a9890565b60ff1660ff811461256b5760010190565b60ff1660048110156105d65790565b1561331a57565b60405162461bcd60e51b8152602060048201526015602482015274109d5e595c881b9bdd081dda1a5d195b1a5cdd1959605a1b6044820152606490fd5b1561335e57565b60405162461bcd60e51b815260206004820152600e60248201526d119d5b991a5b99c818db1bdcd95960921b6044820152606490fd5b1561339b57565b60405162461bcd60e51b815260206004820152601e60248201527f4e6f7420656c696769626c6520666f722063757272656e7420706861736500006044820152606490fd5b9190820391821161256b57565b156133f457565b60405162461bcd60e51b815260206004820152601860248201527f4578636565647320706861736520616c6c6f636174696f6e00000000000000006044820152606490fd5b9081526040810192916108a19160200190610ae4565b93916001600160a01b03851615611f195761348760405192600184526020840152604083019160018352606084015260808301604052565b909161349161353b565b61349c8284876138ae565b600094855b84518710156134f9576134ed6134f3916134bb8987612586565b51906134db6134ca8b8a612586565b516000526003602052604060002090565b6134e6838254612eb9565b9055612eb9565b9661255c565b956134a1565b61351391959492965061350e90600454612eb9565b600455565b805160010361353157906020806108a1959301519101519133612bf2565b6108a19333612e03565b60ff6006541661354757565b60405163d93c066560e01b8152600490fd5b60ff60019116019060ff821161256b57565b806000526009602052600760406000200160ff815461358e828260081c166131d4565b169060048210156105d65760038210156135fe576135ed6135f9916116f76135e76135e2866135dd7fa92c850bb09d5afa4a6230f4866fad10264c6fea20047156b39e3e24c5763ad4986105cc565b613559565b613304565b82612ff5565b60405191829182611e23565b0390a2565b60405162461bcd60e51b8152602060048201526016602482015275416c72656164792061742066696e616c20706861736560501b6044820152606490fd5b1561364357565b60405162461bcd60e51b815260206004820152601f60248201527f5472616e7366657273206c6f636b656420647572696e672066756e64696e67006044820152606490fd5b1561368f57565b60405162461bcd60e51b815260206004820152601960248201527f526563697069656e74206e6f742077686974656c6973746564000000000000006044820152606490fd5b156136db57565b60405162461bcd60e51b815260206004820152602360248201527f496e73756666696369656e742070686173652d747261636b656420686f6c64696044820152626e677360e81b6064820152608490fd5b92919261373a8483836139ce565b6001600160a01b031615613798575b6000805b825182101561378657613780906137648387612586565b51906137736134ca8587612586565b828154039055019161255c565b9061374d565b9150506108a191925060045403600455565b6000805b82518210156137d1576137c56137cb916137b68488612586565b51906134db6134ca8688612586565b9161255c565b9061379c565b6137e2915061350e90600454612eb9565b613749565b909392936137f785848385613b3b565b6001600160a01b0391821615613834575b161561381357509050565b6000805b82518210156137865761382e906137648387612586565b90613817565b92600091825b845184101561386f5761386361386991613854868a612586565b51906134db6134ca888a612586565b9361255c565b9261383a565b61388491935061350e90959295600454612eb9565b613808565b90916138a0610b9293604084526040840190610eb4565b916020818403910152610eb4565b919091825182519081810361264257505060005b835181101561392e57600581901b84810160209081015191850101516138fc929184906001600160a01b038216613901575b50505061255c565b6138c2565b6139249161186261391c926000526000602052604060002090565b918254612eb9565b90553883816138f4565b5091600181511460001461398f576020908101519181015160408051938452918301526001600160a01b039092169160009133917fc3d58168c5ae7397731d063d5bbf3d657854427343f4c083240f7aacaa2d0f629190819081015b0390a4565b7f4a39dc06d4c0dbc64b70af90fd698a233a518aa5d07e595d983b8c0526c8f7fb61398a6000939460405191829160018060a01b031696339583613889565b929190805182519081810361264257505060005b8151811015613a9c57600581901b82810160209081015191850101516001600160a01b038716613a1d575b5050613a189061255c565b6139e2565b613a3587611862846000526000602052604060002090565b54818110613a655787611862613a18959493613a5d9303936000526000602052604060002090565b559038613a0d565b6040516303dee4c560e01b81526001600160a01b038916600482015260248101919091526044810182905260648101839052608490fd5b5090600092939160018151148414613afc576020908101519181015160408051938452918301526001600160a01b039092169133917fc3d58168c5ae7397731d063d5bbf3d657854427343f4c083240f7aacaa2d0f62918190810161398a565b6040516001600160a01b039093169233927f4a39dc06d4c0dbc64b70af90fd698a233a518aa5d07e595d983b8c0526c8f7fb92829161398a9183613889565b939291805183519081810361264257505060005b8151811015613c4257600581901b82810160209081015191860101516001600160a01b0392918590898516613bbb575b613b91948216613b965750505061255c565b613b4f565b613bb19161186261391c926000526000602052604060002090565b90553884816138f4565b9192939050613bd889611862846000526000602052604060002090565b54838110613c0b5791869184613b9196959403613c038c611862856000526000602052604060002090565b559450613b7f565b6040516303dee4c560e01b81526001600160a01b038b16600482015260248101919091526044810184905260648101839052608490fd5b508051939493919291600103613ca4576020908101519181015160408051938452918301526001600160a01b03928316939092169133917fc3d58168c5ae7397731d063d5bbf3d657854427343f4c083240f7aacaa2d0f62918190810161398a565b6040516001600160a01b03938416949093169233927f4a39dc06d4c0dbc64b70af90fd698a233a518aa5d07e595d983b8c0526c8f7fb92829161398a918361388956fea2646970667358221220b3d29f5daa6f4198f1e7b5be977176bd28348284ea3a75f07ba29953d815923964736f6c634300081400332f8788117e7eff1d82e926ec794901d17c78024a50270940304540a733656f0d","opcodes":"PUSH1 0x80 PUSH1 0x40 MSTORE CALLVALUE PUSH3 0x275 JUMPI PUSH3 0x437A DUP1 CODESIZE SUB DUP1 PUSH3 0x1D DUP2 PUSH3 0x27A JUMP JUMPDEST SWAP3 DUP4 CODECOPY DUP2 ADD SWAP1 PUSH1 0x20 SWAP1 DUP2 DUP2 DUP5 SUB SLT PUSH3 0x275 JUMPI DUP1 MLOAD PUSH1 0x1 PUSH1 0x1 PUSH1 0x40 SHL SUB SWAP2 DUP3 DUP3 GT PUSH3 0x275 JUMPI ADD SWAP2 PUSH1 0x1F SWAP1 DUP5 DUP3 DUP6 ADD SLT ISZERO PUSH3 0x275 JUMPI DUP4 MLOAD DUP4 DUP2 GT PUSH3 0x24A JUMPI PUSH1 0x1F NOT SWAP5 PUSH3 0x72 DUP3 DUP6 ADD DUP8 AND DUP5 ADD PUSH3 0x27A JUMP JUMPDEST SWAP7 DUP3 DUP9 MSTORE DUP4 DUP4 DUP4 ADD ADD GT PUSH3 0x275 JUMPI DUP3 SWAP1 PUSH1 0x0 JUMPDEST DUP4 DUP2 LT PUSH3 0x260 JUMPI POP POP PUSH1 0x0 SWAP2 DUP8 ADD ADD MSTORE DUP5 MLOAD SWAP3 DUP4 GT PUSH3 0x24A JUMPI PUSH1 0x2 SLOAD SWAP4 PUSH1 0x1 SWAP5 DUP6 DUP2 DUP2 SHR SWAP2 AND DUP1 ISZERO PUSH3 0x23F JUMPI JUMPDEST DUP4 DUP3 LT EQ PUSH3 0x229 JUMPI DUP4 DUP2 GT PUSH3 0x1DD JUMPI JUMPDEST POP DUP2 SWAP3 DUP5 GT PUSH1 0x1 EQ PUSH3 0x174 JUMPI POP POP DUP2 SWAP3 SWAP4 PUSH1 0x0 SWAP3 PUSH3 0x168 JUMPI JUMPDEST POP POP PUSH1 0x0 NOT PUSH1 0x3 DUP4 SWAP1 SHL SHR NOT AND SWAP1 DUP3 SHL OR PUSH1 0x2 SSTORE JUMPDEST PUSH1 0xFF NOT PUSH1 0x6 SLOAD AND PUSH1 0x6 SSTORE PUSH1 0x7 SSTORE PUSH7 0x2C68AF0BB14000 PUSH1 0x8 SSTORE PUSH3 0x11B CALLER PUSH3 0x2A0 JUMP JUMPDEST POP PUSH3 0x127 CALLER PUSH3 0x321 JUMP JUMPDEST POP PUSH3 0x133 CALLER PUSH3 0x3C4 JUMP JUMPDEST POP PUSH3 0x13F CALLER PUSH3 0x462 JUMP JUMPDEST POP PUSH3 0x14B CALLER PUSH3 0x500 JUMP JUMPDEST POP PUSH3 0x157 CALLER PUSH3 0x59E JUMP JUMPDEST POP PUSH1 0x40 MLOAD PUSH2 0x3D1D SWAP1 DUP2 PUSH3 0x63D DUP3 CODECOPY RETURN JUMPDEST ADD MLOAD SWAP1 POP CODESIZE DUP1 PUSH3 0xE3 JUMP JUMPDEST DUP4 SWAP3 SWAP2 SWAP3 AND SWAP5 PUSH1 0x2 PUSH1 0x0 MSTORE DUP3 PUSH1 0x0 KECCAK256 SWAP3 PUSH1 0x0 SWAP1 JUMPDEST DUP8 DUP3 LT PUSH3 0x1C5 JUMPI POP POP DUP4 DUP6 SWAP7 LT PUSH3 0x1AB JUMPI JUMPDEST POP POP POP DUP2 SHL ADD PUSH1 0x2 SSTORE PUSH3 0xF8 JUMP JUMPDEST ADD MLOAD PUSH1 0x0 NOT PUSH1 0xF8 DUP5 PUSH1 0x3 SHL AND SHR NOT AND SWAP1 SSTORE CODESIZE DUP1 DUP1 PUSH3 0x19C JUMP JUMPDEST DUP1 DUP8 DUP6 SWAP7 DUP3 SWAP5 SWAP7 DUP7 ADD MLOAD DUP2 SSTORE ADD SWAP6 ADD SWAP4 ADD SWAP1 PUSH3 0x188 JUMP JUMPDEST PUSH1 0x2 PUSH1 0x0 MSTORE DUP3 PUSH1 0x0 KECCAK256 DUP5 DUP1 DUP8 ADD PUSH1 0x5 SHR DUP3 ADD SWAP3 DUP6 DUP9 LT PUSH3 0x21F JUMPI JUMPDEST ADD PUSH1 0x5 SHR ADD SWAP1 DUP7 SWAP1 JUMPDEST DUP3 DUP2 LT PUSH3 0x212 JUMPI POP POP PUSH3 0xC8 JUMP JUMPDEST PUSH1 0x0 DUP2 SSTORE ADD DUP7 SWAP1 PUSH3 0x202 JUMP JUMPDEST SWAP3 POP DUP2 SWAP3 PUSH3 0x1F9 JUMP JUMPDEST PUSH4 0x4E487B71 PUSH1 0xE0 SHL PUSH1 0x0 MSTORE PUSH1 0x22 PUSH1 0x4 MSTORE PUSH1 0x24 PUSH1 0x0 REVERT JUMPDEST SWAP1 PUSH1 0x7F AND SWAP1 PUSH3 0xB6 JUMP JUMPDEST PUSH4 0x4E487B71 PUSH1 0xE0 SHL PUSH1 0x0 MSTORE PUSH1 0x41 PUSH1 0x4 MSTORE PUSH1 0x24 PUSH1 0x0 REVERT JUMPDEST DUP2 DUP2 ADD DUP4 ADD MLOAD DUP10 DUP3 ADD DUP5 ADD MSTORE DUP5 SWAP3 ADD PUSH3 0x86 JUMP JUMPDEST PUSH1 0x0 DUP1 REVERT JUMPDEST PUSH1 0x40 MLOAD SWAP2 SWAP1 PUSH1 0x1F ADD PUSH1 0x1F NOT AND DUP3 ADD PUSH1 0x1 PUSH1 0x1 PUSH1 0x40 SHL SUB DUP2 GT DUP4 DUP3 LT OR PUSH3 0x24A JUMPI PUSH1 0x40 MSTORE JUMP JUMPDEST PUSH1 0x1 PUSH1 0x1 PUSH1 0xA0 SHL SUB AND PUSH1 0x0 DUP2 DUP2 MSTORE PUSH32 0x5B8CCBB9D4D8FB16EA74CE3C29A41F1B461FBDAFF4714A0D9A8EB05499746BC PUSH1 0x20 MSTORE PUSH1 0x40 DUP2 KECCAK256 SLOAD SWAP1 SWAP2 SWAP1 PUSH1 0xFF AND PUSH3 0x31D JUMPI DUP2 DUP1 MSTORE PUSH1 0x5 PUSH1 0x20 MSTORE PUSH1 0x40 DUP3 KECCAK256 DUP2 DUP4 MSTORE PUSH1 0x20 MSTORE PUSH1 0x40 DUP3 KECCAK256 PUSH1 0x1 PUSH1 0xFF NOT DUP3 SLOAD AND OR SWAP1 SSTORE CALLER SWAP2 PUSH1 0x0 DUP1 MLOAD PUSH1 0x20 PUSH3 0x435A DUP4 CODECOPY DUP2 MLOAD SWAP2 MSTORE DUP2 DUP1 LOG4 PUSH1 0x1 SWAP1 JUMP JUMPDEST POP SWAP1 JUMP JUMPDEST PUSH1 0x1 PUSH1 0x1 PUSH1 0xA0 SHL SUB AND PUSH1 0x0 DUP2 DUP2 MSTORE PUSH32 0x15A28D26FA1BF736CF7EDC9922607171CCB09C3C73B808E7772A3013E068A522 PUSH1 0x20 MSTORE PUSH1 0x40 DUP2 KECCAK256 SLOAD SWAP1 SWAP2 SWAP1 PUSH32 0x9F2DF0FED2C77648DE5860A4CC508CD0818C85B8B8A1AB4CEEEF8D981C8956A6 SWAP1 PUSH1 0xFF AND PUSH3 0x3BF JUMPI DUP1 DUP4 MSTORE PUSH1 0x5 PUSH1 0x20 MSTORE PUSH1 0x40 DUP4 KECCAK256 DUP3 DUP5 MSTORE PUSH1 0x20 MSTORE PUSH1 0x40 DUP4 KECCAK256 PUSH1 0x1 PUSH1 0xFF NOT DUP3 SLOAD AND OR SWAP1 SSTORE PUSH1 0x0 DUP1 MLOAD PUSH1 0x20 PUSH3 0x435A DUP4 CODECOPY DUP2 MLOAD SWAP2 MSTORE CALLER SWAP4 DUP1 LOG4 PUSH1 0x1 SWAP1 JUMP JUMPDEST POP POP SWAP1 JUMP JUMPDEST PUSH1 0x1 PUSH1 0x1 PUSH1 0xA0 SHL SUB AND PUSH1 0x0 DUP2 DUP2 MSTORE PUSH32 0x99F2891DB7A8DB76249871A02B43B68C0BB8F22EF8A3BC1034AE9375EF6B7C3C PUSH1 0x20 MSTORE PUSH1 0x40 DUP2 KECCAK256 SLOAD SWAP1 SWAP2 SWAP1 PUSH32 0x65D7A28E3265B37A6474929F336521B332C1681B933F6CB9F3376673440D862A SWAP1 PUSH1 0xFF AND PUSH3 0x3BF JUMPI DUP1 DUP4 MSTORE PUSH1 0x5 PUSH1 0x20 MSTORE PUSH1 0x40 DUP4 KECCAK256 DUP3 DUP5 MSTORE PUSH1 0x20 MSTORE PUSH1 0x40 DUP4 KECCAK256 PUSH1 0x1 PUSH1 0xFF NOT DUP3 SLOAD AND OR SWAP1 SSTORE PUSH1 0x0 DUP1 MLOAD PUSH1 0x20 PUSH3 0x435A DUP4 CODECOPY DUP2 MLOAD SWAP2 MSTORE CALLER SWAP4 DUP1 LOG4 PUSH1 0x1 SWAP1 JUMP JUMPDEST PUSH1 0x1 PUSH1 0x1 PUSH1 0xA0 SHL SUB AND PUSH1 0x0 DUP2 DUP2 MSTORE PUSH32 0x294BB43E882F8724B7AE88344D047A41612B98EE139A78F923B3689F3CC274B1 PUSH1 0x20 MSTORE PUSH1 0x40 DUP2 KECCAK256 SLOAD SWAP1 SWAP2 SWAP1 PUSH32 0x28F5A99355973CC89255B8C4AC88405F27C78DED7608B040EE77A8BDF44D15E2 SWAP1 PUSH1 0xFF AND PUSH3 0x3BF JUMPI DUP1 DUP4 MSTORE PUSH1 0x5 PUSH1 0x20 MSTORE PUSH1 0x40 DUP4 KECCAK256 DUP3 DUP5 MSTORE PUSH1 0x20 MSTORE PUSH1 0x40 DUP4 KECCAK256 PUSH1 0x1 PUSH1 0xFF NOT DUP3 SLOAD AND OR SWAP1 SSTORE PUSH1 0x0 DUP1 MLOAD PUSH1 0x20 PUSH3 0x435A DUP4 CODECOPY DUP2 MLOAD SWAP2 MSTORE CALLER SWAP4 DUP1 LOG4 PUSH1 0x1 SWAP1 JUMP JUMPDEST PUSH1 0x1 PUSH1 0x1 PUSH1 0xA0 SHL SUB AND PUSH1 0x0 DUP2 DUP2 MSTORE PUSH32 0xC54CC0CAD80E711AFF5B4FCA3E13682B9A8FCD7FF4679FBC81D0391D16E477BD PUSH1 0x20 MSTORE PUSH1 0x40 DUP2 KECCAK256 SLOAD SWAP1 SWAP2 SWAP1 PUSH32 0x62045F2F519251643CF4B5F0750D99BBDA23CE869802AD9F6D52577CD08A645A SWAP1 PUSH1 0xFF AND PUSH3 0x3BF JUMPI DUP1 DUP4 MSTORE PUSH1 0x5 PUSH1 0x20 MSTORE PUSH1 0x40 DUP4 KECCAK256 DUP3 DUP5 MSTORE PUSH1 0x20 MSTORE PUSH1 0x40 DUP4 KECCAK256 PUSH1 0x1 PUSH1 0xFF NOT DUP3 SLOAD AND OR SWAP1 SSTORE PUSH1 0x0 DUP1 MLOAD PUSH1 0x20 PUSH3 0x435A DUP4 CODECOPY DUP2 MLOAD SWAP2 MSTORE CALLER SWAP4 DUP1 LOG4 PUSH1 0x1 SWAP1 JUMP JUMPDEST PUSH1 0x1 PUSH1 0x1 PUSH1 0xA0 SHL SUB AND PUSH1 0x0 DUP2 DUP2 MSTORE PUSH32 0x847F481F687BEFB06ED3511F1A8DCEF57E83007C0147AE5047583D7056170937 PUSH1 0x20 MSTORE PUSH1 0x40 DUP2 KECCAK256 SLOAD SWAP1 SWAP2 SWAP1 PUSH32 0x3C11D16CBAFFD01DF69CE1C404F6340EE057498F5F00246190EA54220576A848 SWAP1 PUSH1 0xFF AND PUSH3 0x3BF JUMPI DUP1 DUP4 MSTORE PUSH1 0x5 PUSH1 0x20 MSTORE PUSH1 0x40 DUP4 KECCAK256 DUP3 DUP5 MSTORE PUSH1 0x20 MSTORE PUSH1 0x40 DUP4 KECCAK256 PUSH1 0x1 PUSH1 0xFF NOT DUP3 SLOAD AND OR SWAP1 SSTORE PUSH1 0x0 DUP1 MLOAD PUSH1 0x20 PUSH3 0x435A DUP4 CODECOPY DUP2 MLOAD SWAP2 MSTORE CALLER SWAP4 DUP1 LOG4 PUSH1 0x1 SWAP1 JUMP INVALID PUSH1 0x80 PUSH1 0x40 MSTORE PUSH1 0x4 CALLDATASIZE LT ISZERO PUSH2 0x12 JUMPI PUSH1 0x0 DUP1 REVERT JUMPDEST PUSH1 0x0 CALLDATALOAD PUSH1 0xE0 SHR DUP1 PUSH3 0xFDD58E EQ PUSH2 0x3FC JUMPI DUP1 PUSH4 0x1FFC9A7 EQ PUSH2 0x3F7 JUMPI DUP1 PUSH4 0x263B858 EQ PUSH2 0x3F2 JUMPI DUP1 PUSH4 0x4FA6173 EQ PUSH2 0x3ED JUMPI DUP1 PUSH4 0xE89341C EQ PUSH2 0x3E8 JUMPI DUP1 PUSH4 0x11DD6CDC EQ PUSH2 0x398 JUMPI DUP1 PUSH4 0x18160DDD EQ PUSH2 0x3E3 JUMPI DUP1 PUSH4 0x23067248 EQ PUSH2 0x3DE JUMPI DUP1 PUSH4 0x248A9CA3 EQ PUSH2 0x3D9 JUMPI DUP1 PUSH4 0x282C51F3 EQ PUSH2 0x3D4 JUMPI DUP1 PUSH4 0x2EB2C2D6 EQ PUSH2 0x3CF JUMPI DUP1 PUSH4 0x2F2FF15D EQ PUSH2 0x3CA JUMPI DUP1 PUSH4 0x32665FFB EQ PUSH2 0x3C5 JUMPI DUP1 PUSH4 0x35894AFD EQ PUSH2 0x3C0 JUMPI DUP1 PUSH4 0x36568ABE EQ PUSH2 0x3BB JUMPI DUP1 PUSH4 0x3BB0B5B6 EQ PUSH2 0x3B6 JUMPI DUP1 PUSH4 0x3F4BA83A EQ PUSH2 0x3B1 JUMPI DUP1 PUSH4 0x4A164732 EQ PUSH2 0x3AC JUMPI DUP1 PUSH4 0x4E1273F4 EQ PUSH2 0x3A7 JUMPI DUP1 PUSH4 0x4F558E79 EQ PUSH2 0x3A2 JUMPI DUP1 PUSH4 0x4FF69E83 EQ PUSH2 0x39D JUMPI DUP1 PUSH4 0x500E9F73 EQ PUSH2 0x398 JUMPI DUP1 PUSH4 0x54202C4E EQ PUSH2 0x393 JUMPI DUP1 PUSH4 0x5561C5B3 EQ PUSH2 0x38E JUMPI DUP1 PUSH4 0x58567DD5 EQ PUSH2 0x389 JUMPI DUP1 PUSH4 0x5BBE9F5E EQ PUSH2 0x311 JUMPI DUP1 PUSH4 0x5C975ABB EQ PUSH2 0x384 JUMPI DUP1 PUSH4 0x5FC68C46 EQ PUSH2 0x37F JUMPI DUP1 PUSH4 0x6B20C454 EQ PUSH2 0x37A JUMPI DUP1 PUSH4 0x6CE2F91D EQ PUSH2 0x375 JUMPI DUP1 PUSH4 0x6EA99677 EQ PUSH2 0x370 JUMPI DUP1 PUSH4 0x7326B901 EQ PUSH2 0x36B JUMPI DUP1 PUSH4 0x7CA8C6F1 EQ PUSH2 0x366 JUMPI DUP1 PUSH4 0x81AAF4CE EQ PUSH2 0x361 JUMPI DUP1 PUSH4 0x8456CB59 EQ PUSH2 0x35C JUMPI DUP1 PUSH4 0x8AB1D681 EQ PUSH2 0x357 JUMPI DUP1 PUSH4 0x8CDC1E87 EQ PUSH2 0x352 JUMPI DUP1 PUSH4 0x8D6819BE EQ PUSH2 0x34D JUMPI DUP1 PUSH4 0x91D14854 EQ PUSH2 0x348 JUMPI DUP1 PUSH4 0x9B19251A EQ PUSH2 0x343 JUMPI DUP1 PUSH4 0x9CA02763 EQ PUSH2 0x33E JUMPI DUP1 PUSH4 0xA217FDDF EQ PUSH2 0x339 JUMPI DUP1 PUSH4 0xA22CB465 EQ PUSH2 0x334 JUMPI DUP1 PUSH4 0xA7907F74 EQ PUSH2 0x32F JUMPI DUP1 PUSH4 0xBD85B039 EQ PUSH2 0x32A JUMPI DUP1 PUSH4 0xC361A335 EQ PUSH2 0x325 JUMPI DUP1 PUSH4 0xC55D0F56 EQ PUSH2 0x320 JUMPI DUP1 PUSH4 0xC5666EB2 EQ PUSH2 0x31B JUMPI DUP1 PUSH4 0xC65B6820 EQ PUSH2 0x316 JUMPI DUP1 PUSH4 0xC7527D08 EQ PUSH2 0x311 JUMPI DUP1 PUSH4 0xC7876EA4 EQ PUSH2 0x30C JUMPI DUP1 PUSH4 0xCEADD5B9 EQ PUSH2 0x307 JUMPI DUP1 PUSH4 0xD5391393 EQ PUSH2 0x302 JUMPI DUP1 PUSH4 0xD547741F EQ PUSH2 0x2FD JUMPI DUP1 PUSH4 0xDBDAD432 EQ PUSH2 0x2F8 JUMPI DUP1 PUSH4 0xE63AB1E9 EQ PUSH2 0x2F3 JUMPI DUP1 PUSH4 0xE985E9C5 EQ PUSH2 0x2EE JUMPI DUP1 PUSH4 0xEDFF4969 EQ PUSH2 0x2E9 JUMPI DUP1 PUSH4 0xF242432A EQ PUSH2 0x2E4 JUMPI DUP1 PUSH4 0xF5298ACA EQ PUSH2 0x2DF JUMPI DUP1 PUSH4 0xF7B10808 EQ PUSH2 0x2DA JUMPI DUP1 PUSH4 0xF8147A8A EQ PUSH2 0x2D5 JUMPI PUSH4 0xFD5BAA88 EQ PUSH2 0x2D0 JUMPI PUSH1 0x0 DUP1 REVERT JUMPDEST PUSH2 0x21EF JUMP JUMPDEST PUSH2 0x21D2 JUMP JUMPDEST PUSH2 0x2157 JUMP JUMPDEST PUSH2 0x1F7D JUMP JUMPDEST PUSH2 0x1E77 JUMP JUMPDEST PUSH2 0x1E33 JUMP JUMPDEST PUSH2 0x1DD2 JUMP JUMPDEST PUSH2 0x1D97 JUMP JUMPDEST PUSH2 0x1D12 JUMP JUMPDEST PUSH2 0x1CD3 JUMP JUMPDEST PUSH2 0x1C98 JUMP JUMPDEST PUSH2 0x1C7B JUMP JUMPDEST PUSH2 0x1C5D JUMP JUMPDEST PUSH2 0x12D3 JUMP JUMPDEST PUSH2 0x1C40 JUMP JUMPDEST PUSH2 0x1B63 JUMP JUMPDEST PUSH2 0x1B45 JUMP JUMPDEST PUSH2 0x1B27 JUMP JUMPDEST PUSH2 0x1AFB JUMP JUMPDEST PUSH2 0x1ADE JUMP JUMPDEST PUSH2 0x1A22 JUMP JUMPDEST PUSH2 0x1A06 JUMP JUMPDEST PUSH2 0x19B0 JUMP JUMPDEST PUSH2 0x1971 JUMP JUMPDEST PUSH2 0x191F JUMP JUMPDEST PUSH2 0x16A9 JUMP JUMPDEST PUSH2 0x160E JUMP JUMPDEST PUSH2 0x15A6 JUMP JUMPDEST PUSH2 0x154C JUMP JUMPDEST PUSH2 0x14B9 JUMP JUMPDEST PUSH2 0x149C JUMP JUMPDEST PUSH2 0x147E JUMP JUMPDEST PUSH2 0x144C JUMP JUMPDEST PUSH2 0x141C JUMP JUMPDEST PUSH2 0x1330 JUMP JUMPDEST PUSH2 0x1313 JUMP JUMPDEST PUSH2 0x12F0 JUMP JUMPDEST PUSH2 0x10C5 JUMP JUMPDEST PUSH2 0x10A8 JUMP JUMPDEST PUSH2 0x106D JUMP JUMPDEST PUSH2 0x75C JUMP JUMPDEST PUSH2 0xFE1 JUMP JUMPDEST PUSH2 0xFB3 JUMP JUMPDEST PUSH2 0xEF9 JUMP JUMPDEST PUSH2 0xE86 JUMP JUMPDEST PUSH2 0xE1C JUMP JUMPDEST PUSH2 0xD4C JUMP JUMPDEST PUSH2 0xCDB JUMP JUMPDEST PUSH2 0xCA0 JUMP JUMPDEST PUSH2 0xB95 JUMP JUMPDEST PUSH2 0xAA5 JUMP JUMPDEST PUSH2 0x97C JUMP JUMPDEST PUSH2 0x7E3 JUMP JUMPDEST PUSH2 0x7B4 JUMP JUMPDEST PUSH2 0x797 JUMP JUMPDEST PUSH2 0x779 JUMP JUMPDEST PUSH2 0x676 JUMP JUMPDEST PUSH2 0x604 JUMP JUMPDEST PUSH2 0x53C JUMP JUMPDEST PUSH2 0x4A5 JUMP JUMPDEST PUSH2 0x446 JUMP JUMPDEST PUSH1 0x4 CALLDATALOAD SWAP1 PUSH1 0x1 PUSH1 0x1 PUSH1 0xA0 SHL SUB DUP3 AND DUP3 SUB PUSH2 0x417 JUMPI JUMP JUMPDEST PUSH1 0x0 DUP1 REVERT JUMPDEST PUSH1 0x24 CALLDATALOAD SWAP1 PUSH1 0x1 PUSH1 0x1 PUSH1 0xA0 SHL SUB DUP3 AND DUP3 SUB PUSH2 0x417 JUMPI JUMP JUMPDEST CALLDATALOAD SWAP1 PUSH1 0x1 PUSH1 0x1 PUSH1 0xA0 SHL SUB DUP3 AND DUP3 SUB PUSH2 0x417 JUMPI JUMP JUMPDEST CALLVALUE PUSH2 0x417 JUMPI PUSH1 0x40 CALLDATASIZE PUSH1 0x3 NOT ADD SLT PUSH2 0x417 JUMPI PUSH1 0x20 PUSH2 0x48A PUSH2 0x464 PUSH2 0x401 JUMP JUMPDEST PUSH1 0x24 CALLDATALOAD PUSH1 0x0 MSTORE PUSH1 0x0 DUP4 MSTORE PUSH1 0x40 PUSH1 0x0 KECCAK256 SWAP1 PUSH1 0x1 DUP1 PUSH1 0xA0 SHL SUB AND PUSH1 0x0 MSTORE PUSH1 0x20 MSTORE PUSH1 0x40 PUSH1 0x0 KECCAK256 SWAP1 JUMP JUMPDEST SLOAD PUSH1 0x40 MLOAD SWAP1 DUP2 MSTORE RETURN JUMPDEST PUSH1 0x1 PUSH1 0x1 PUSH1 0xE0 SHL SUB NOT DUP2 AND SUB PUSH2 0x417 JUMPI JUMP JUMPDEST CALLVALUE PUSH2 0x417 JUMPI PUSH1 0x20 CALLDATASIZE PUSH1 0x3 NOT ADD SLT PUSH2 0x417 JUMPI PUSH1 0x20 PUSH1 0x4 CALLDATALOAD PUSH2 0x4C4 DUP2 PUSH2 0x493 JUMP JUMPDEST PUSH4 0xFFFFFFFF PUSH1 0xE0 SHL AND PUSH4 0x7965DB0B PUSH1 0xE0 SHL DUP2 EQ SWAP1 DUP2 ISZERO PUSH2 0x4EA JUMPI JUMPDEST POP PUSH1 0x40 MLOAD SWAP1 ISZERO ISZERO DUP2 MSTORE RETURN JUMPDEST PUSH4 0x6CDB3D13 PUSH1 0xE1 SHL DUP2 EQ SWAP2 POP DUP2 ISZERO PUSH2 0x51C JUMPI JUMPDEST DUP2 ISZERO PUSH2 0x50B JUMPI JUMPDEST POP CODESIZE PUSH2 0x4DF JUMP JUMPDEST PUSH4 0x1FFC9A7 PUSH1 0xE0 SHL EQ SWAP1 POP CODESIZE PUSH2 0x504 JUMP JUMPDEST PUSH4 0x3A24D07 PUSH1 0xE2 SHL DUP2 EQ SWAP2 POP PUSH2 0x4FD JUMP JUMPDEST PUSH1 0x24 CALLDATALOAD SWAP1 PUSH1 0x4 DUP3 LT ISZERO PUSH2 0x417 JUMPI JUMP JUMPDEST CALLVALUE PUSH2 0x417 JUMPI PUSH1 0x40 CALLDATASIZE PUSH1 0x3 NOT ADD SLT PUSH2 0x417 JUMPI PUSH2 0x555 PUSH2 0x401 JUMP JUMPDEST PUSH32 0x473A74F22F6AC6868D6C168FC84AEF7F2172066BAB41229B471D1C6B85434C82 PUSH1 0x20 PUSH2 0x580 PUSH2 0x52D JUMP JUMPDEST SWAP3 PUSH2 0x589 PUSH2 0x223B JUMP JUMPDEST PUSH1 0x1 DUP1 PUSH1 0xA0 SHL SUB AND SWAP3 DUP4 PUSH1 0x0 MSTORE PUSH1 0xD DUP3 MSTORE PUSH1 0x40 PUSH1 0x0 KECCAK256 PUSH1 0x1 PUSH1 0xFF NOT DUP3 SLOAD AND OR SWAP1 SSTORE PUSH1 0xE DUP3 MSTORE PUSH2 0x5BC DUP2 PUSH1 0x40 PUSH1 0x0 KECCAK256 PUSH2 0x2FF5 JUMP JUMPDEST PUSH2 0x5C9 PUSH1 0x40 MLOAD DUP1 SWAP3 PUSH2 0xAE4 JUMP JUMPDEST LOG2 STOP JUMPDEST PUSH1 0x4 GT ISZERO PUSH2 0x5D6 JUMPI JUMP JUMPDEST PUSH4 0x4E487B71 PUSH1 0xE0 SHL PUSH1 0x0 MSTORE PUSH1 0x21 PUSH1 0x4 MSTORE PUSH1 0x24 PUSH1 0x0 REVERT JUMPDEST SWAP1 PUSH1 0x4 DUP2 LT ISZERO PUSH2 0x5D6 JUMPI PUSH1 0x0 MSTORE PUSH1 0x20 MSTORE PUSH1 0x40 PUSH1 0x0 KECCAK256 SWAP1 JUMP JUMPDEST CALLVALUE PUSH2 0x417 JUMPI PUSH1 0x40 CALLDATASIZE PUSH1 0x3 NOT ADD SLT PUSH2 0x417 JUMPI PUSH1 0x20 PUSH2 0x48A PUSH2 0x622 PUSH2 0x52D JUMP JUMPDEST PUSH1 0x4 CALLDATALOAD PUSH1 0x0 MSTORE PUSH1 0xC DUP4 MSTORE PUSH1 0x40 PUSH1 0x0 KECCAK256 PUSH2 0x5EC JUMP JUMPDEST SWAP2 SWAP1 DUP3 MLOAD SWAP3 DUP4 DUP3 MSTORE PUSH1 0x0 JUMPDEST DUP5 DUP2 LT PUSH2 0x662 JUMPI POP POP DUP3 PUSH1 0x0 PUSH1 0x20 DUP1 SWAP5 SWAP6 DUP5 ADD ADD MSTORE PUSH1 0x1F DUP1 NOT SWAP2 ADD AND ADD ADD SWAP1 JUMP JUMPDEST PUSH1 0x20 DUP2 DUP4 ADD DUP2 ADD MLOAD DUP5 DUP4 ADD DUP3 ADD MSTORE ADD PUSH2 0x641 JUMP JUMPDEST CALLVALUE PUSH2 0x417 JUMPI PUSH1 0x20 DUP1 PUSH1 0x3 NOT CALLDATASIZE ADD SLT PUSH2 0x417 JUMPI PUSH1 0x40 MLOAD SWAP1 PUSH1 0x0 DUP3 PUSH1 0x2 SLOAD SWAP2 PUSH2 0x69C DUP4 PUSH2 0x2010 JUMP JUMPDEST SWAP3 DUP4 DUP4 MSTORE PUSH1 0x1 SWAP1 DUP6 DUP3 DUP3 AND SWAP2 DUP3 PUSH1 0x0 EQ PUSH2 0x73C JUMPI POP POP PUSH1 0x1 EQ PUSH2 0x6DF JUMPI JUMPDEST POP PUSH2 0x6C7 SWAP3 POP SUB DUP4 PUSH2 0x872 JUMP JUMPDEST PUSH2 0x6DB PUSH1 0x40 MLOAD SWAP3 DUP3 DUP5 SWAP4 DUP5 MSTORE DUP4 ADD SWAP1 PUSH2 0x636 JUMP JUMPDEST SUB SWAP1 RETURN JUMPDEST DUP5 SWAP2 POP PUSH1 0x2 PUSH1 0x0 MSTORE PUSH32 0x405787FA12A823E0F2B7631CC41B3BA8828B3321CA811111FA75CD3AA3BB5ACE SWAP1 PUSH1 0x0 SWAP2 JUMPDEST DUP6 DUP4 LT PUSH2 0x724 JUMPI POP POP PUSH2 0x6C7 SWAP4 POP DUP3 ADD ADD CODESIZE PUSH2 0x6BA JUMP JUMPDEST DUP1 SLOAD DUP4 DUP10 ADD DUP6 ADD MSTORE DUP8 SWAP5 POP DUP7 SWAP4 SWAP1 SWAP3 ADD SWAP2 DUP2 ADD PUSH2 0x70D JUMP JUMPDEST PUSH1 0xFF NOT AND DUP6 DUP3 ADD MSTORE PUSH2 0x6C7 SWAP6 ISZERO ISZERO PUSH1 0x5 SHL DUP6 ADD ADD SWAP3 POP CODESIZE SWAP2 POP PUSH2 0x6BA SWAP1 POP JUMP JUMPDEST CALLVALUE PUSH2 0x417 JUMPI PUSH1 0x0 CALLDATASIZE PUSH1 0x3 NOT ADD SLT PUSH2 0x417 JUMPI PUSH1 0x20 PUSH1 0x40 MLOAD PUSH2 0x2710 DUP2 MSTORE RETURN JUMPDEST CALLVALUE PUSH2 0x417 JUMPI PUSH1 0x0 CALLDATASIZE PUSH1 0x3 NOT ADD SLT PUSH2 0x417 JUMPI PUSH1 0x20 PUSH1 0x4 SLOAD PUSH1 0x40 MLOAD SWAP1 DUP2 MSTORE RETURN JUMPDEST CALLVALUE PUSH2 0x417 JUMPI PUSH1 0x0 CALLDATASIZE PUSH1 0x3 NOT ADD SLT PUSH2 0x417 JUMPI PUSH1 0x20 PUSH1 0x40 MLOAD PUSH2 0x1D4C DUP2 MSTORE RETURN JUMPDEST CALLVALUE PUSH2 0x417 JUMPI PUSH1 0x20 CALLDATASIZE PUSH1 0x3 NOT ADD SLT PUSH2 0x417 JUMPI PUSH1 0x4 CALLDATALOAD PUSH1 0x0 MSTORE PUSH1 0x5 PUSH1 0x20 MSTORE PUSH1 0x20 PUSH1 0x1 PUSH1 0x40 PUSH1 0x0 KECCAK256 ADD SLOAD PUSH1 0x40 MLOAD SWAP1 DUP2 MSTORE RETURN JUMPDEST CALLVALUE PUSH2 0x417 JUMPI PUSH1 0x0 CALLDATASIZE PUSH1 0x3 NOT ADD SLT PUSH2 0x417 JUMPI PUSH1 0x20 PUSH1 0x40 MLOAD PUSH32 0x3C11D16CBAFFD01DF69CE1C404F6340EE057498F5F00246190EA54220576A848 DUP2 MSTORE RETURN JUMPDEST PUSH4 0x4E487B71 PUSH1 0xE0 SHL PUSH1 0x0 MSTORE PUSH1 0x41 PUSH1 0x4 MSTORE PUSH1 0x24 PUSH1 0x0 REVERT JUMPDEST PUSH2 0x140 DUP2 ADD SWAP1 DUP2 LT PUSH8 0xFFFFFFFFFFFFFFFF DUP3 GT OR PUSH2 0x851 JUMPI PUSH1 0x40 MSTORE JUMP JUMPDEST PUSH2 0x81E JUMP JUMPDEST PUSH1 0x20 DUP2 ADD SWAP1 DUP2 LT PUSH8 0xFFFFFFFFFFFFFFFF DUP3 GT OR PUSH2 0x851 JUMPI PUSH1 0x40 MSTORE JUMP JUMPDEST SWAP1 PUSH1 0x1F DUP1 NOT SWAP2 ADD AND DUP2 ADD SWAP1 DUP2 LT PUSH8 0xFFFFFFFFFFFFFFFF DUP3 GT OR PUSH2 0x851 JUMPI PUSH1 0x40 MSTORE JUMP JUMPDEST PUSH1 0x40 MLOAD SWAP1 PUSH2 0x8A1 DUP3 PUSH2 0x834 JUMP JUMPDEST JUMP JUMPDEST PUSH8 0xFFFFFFFFFFFFFFFF DUP2 GT PUSH2 0x851 JUMPI PUSH1 0x5 SHL PUSH1 0x20 ADD SWAP1 JUMP JUMPDEST DUP2 PUSH1 0x1F DUP3 ADD SLT ISZERO PUSH2 0x417 JUMPI DUP1 CALLDATALOAD SWAP2 PUSH2 0x8D2 DUP4 PUSH2 0x8A3 JUMP JUMPDEST SWAP3 PUSH2 0x8E0 PUSH1 0x40 MLOAD SWAP5 DUP6 PUSH2 0x872 JUMP JUMPDEST DUP1 DUP5 MSTORE PUSH1 0x20 SWAP3 DUP4 DUP1 DUP7 ADD SWAP3 PUSH1 0x5 SHL DUP3 ADD ADD SWAP3 DUP4 GT PUSH2 0x417 JUMPI DUP4 ADD SWAP1 JUMPDEST DUP3 DUP3 LT PUSH2 0x90A JUMPI POP POP POP POP SWAP1 JUMP JUMPDEST DUP2 CALLDATALOAD DUP2 MSTORE SWAP1 DUP4 ADD SWAP1 DUP4 ADD PUSH2 0x8FC JUMP JUMPDEST PUSH8 0xFFFFFFFFFFFFFFFF DUP2 GT PUSH2 0x851 JUMPI PUSH1 0x1F ADD PUSH1 0x1F NOT AND PUSH1 0x20 ADD SWAP1 JUMP JUMPDEST DUP2 PUSH1 0x1F DUP3 ADD SLT ISZERO PUSH2 0x417 JUMPI DUP1 CALLDATALOAD SWAP1 PUSH2 0x94C DUP3 PUSH2 0x919 JUMP JUMPDEST SWAP3 PUSH2 0x95A PUSH1 0x40 MLOAD SWAP5 DUP6 PUSH2 0x872 JUMP JUMPDEST DUP3 DUP5 MSTORE PUSH1 0x20 DUP4 DUP4 ADD ADD GT PUSH2 0x417 JUMPI DUP2 PUSH1 0x0 SWAP3 PUSH1 0x20 DUP1 SWAP4 ADD DUP4 DUP7 ADD CALLDATACOPY DUP4 ADD ADD MSTORE SWAP1 JUMP JUMPDEST CALLVALUE PUSH2 0x417 JUMPI PUSH1 0xA0 CALLDATASIZE PUSH1 0x3 NOT ADD SLT PUSH2 0x417 JUMPI PUSH2 0x995 PUSH2 0x401 JUMP JUMPDEST PUSH2 0x99D PUSH2 0x41C JUMP JUMPDEST SWAP1 PUSH1 0x44 CALLDATALOAD SWAP2 PUSH8 0xFFFFFFFFFFFFFFFF SWAP1 DUP2 DUP5 GT PUSH2 0x417 JUMPI PUSH2 0x9C2 PUSH1 0x4 SWAP5 CALLDATASIZE SWAP1 DUP7 ADD PUSH2 0x8BB JUMP JUMPDEST SWAP1 PUSH1 0x64 CALLDATALOAD DUP4 DUP2 GT PUSH2 0x417 JUMPI PUSH2 0x9DA SWAP1 CALLDATASIZE SWAP1 DUP8 ADD PUSH2 0x8BB JUMP JUMPDEST SWAP3 PUSH1 0x84 CALLDATALOAD SWAP1 DUP2 GT PUSH2 0x417 JUMPI PUSH2 0x9F2 SWAP1 CALLDATASIZE SWAP1 DUP8 ADD PUSH2 0x935 JUMP JUMPDEST SWAP4 PUSH1 0x1 PUSH1 0x1 PUSH1 0xA0 SHL SUB DUP1 DUP3 AND SWAP1 CALLER DUP3 EQ ISZERO DUP1 PUSH2 0xA81 JUMPI JUMPDEST PUSH2 0xA54 JUMPI DUP4 AND ISZERO PUSH2 0xA3C JUMPI ISZERO PUSH2 0xA25 JUMPI PUSH2 0xA23 SWAP6 POP PUSH2 0x28C3 JUMP JUMPDEST STOP JUMPDEST PUSH1 0x40 MLOAD PUSH3 0x6A0D45 PUSH1 0xE2 SHL DUP2 MSTORE PUSH1 0x0 DUP2 DUP9 ADD MSTORE PUSH1 0x24 SWAP1 REVERT JUMPDEST PUSH1 0x40 MLOAD PUSH4 0x2BFA23E7 PUSH1 0xE1 SHL DUP2 MSTORE PUSH1 0x0 DUP2 DUP10 ADD MSTORE PUSH1 0x24 SWAP1 REVERT JUMPDEST PUSH1 0x40 DUP1 MLOAD PUSH4 0x711BEC91 PUSH1 0xE1 SHL DUP2 MSTORE CALLER DUP2 DUP12 ADD SWAP1 DUP2 MSTORE PUSH1 0x1 PUSH1 0x1 PUSH1 0xA0 SHL SUB DUP7 AND PUSH1 0x20 DUP3 ADD MSTORE SWAP1 SWAP2 DUP3 SWAP2 ADD SUB SWAP1 REVERT JUMPDEST POP PUSH1 0x0 DUP3 DUP2 MSTORE PUSH1 0x1 PUSH1 0x20 SWAP1 DUP2 MSTORE PUSH1 0x40 DUP1 DUP4 KECCAK256 CALLER DUP5 MSTORE SWAP1 SWAP2 MSTORE SWAP1 KECCAK256 SLOAD PUSH1 0xFF AND ISZERO PUSH2 0xA09 JUMP JUMPDEST CALLVALUE PUSH2 0x417 JUMPI PUSH1 0x40 CALLDATASIZE PUSH1 0x3 NOT ADD SLT PUSH2 0x417 JUMPI PUSH2 0xA23 PUSH1 0x4 CALLDATALOAD PUSH2 0xAC4 PUSH2 0x41C JUMP JUMPDEST SWAP1 DUP1 PUSH1 0x0 MSTORE PUSH1 0x5 PUSH1 0x20 MSTORE PUSH2 0xADF PUSH1 0x1 PUSH1 0x40 PUSH1 0x0 KECCAK256 ADD SLOAD PUSH2 0x23F9 JUMP JUMPDEST PUSH2 0x241A JUMP JUMPDEST SWAP1 PUSH1 0x4 DUP3 LT ISZERO PUSH2 0x5D6 JUMPI MSTORE JUMP JUMPDEST PUSH2 0xB92 SWAP1 PUSH1 0x20 DUP2 MSTORE DUP3 MLOAD PUSH1 0x20 DUP3 ADD MSTORE PUSH1 0x20 DUP4 ADD MLOAD PUSH2 0xB36 PUSH2 0xB20 PUSH2 0x140 SWAP3 DUP4 PUSH1 0x40 DUP7 ADD MSTORE PUSH2 0x160 DUP6 ADD SWAP1 PUSH2 0x636 JUMP JUMPDEST PUSH1 0x40 DUP7 ADD MLOAD DUP5 DUP3 SUB PUSH1 0x1F NOT ADD PUSH1 0x60 DUP7 ADD MSTORE PUSH2 0x636 JUMP JUMPDEST SWAP4 PUSH1 0x60 DUP2 ADD MLOAD PUSH1 0x80 DUP5 ADD MSTORE PUSH1 0x80 DUP2 ADD MLOAD PUSH1 0xA0 DUP5 ADD MSTORE PUSH1 0xA0 DUP2 ADD MLOAD PUSH1 0xC0 DUP5 ADD MSTORE PUSH1 0xC0 DUP2 ADD MLOAD PUSH1 0xE0 DUP5 ADD MSTORE PUSH1 0xE0 DUP2 ADD MLOAD PUSH2 0xB74 PUSH2 0x100 SWAP2 DUP3 DUP7 ADD SWAP1 PUSH2 0xAE4 JUMP JUMPDEST DUP2 ADD MLOAD SWAP1 PUSH2 0xB89 PUSH2 0x120 SWAP3 DUP4 DUP7 ADD SWAP1 ISZERO ISZERO SWAP1 MSTORE JUMP JUMPDEST ADD MLOAD ISZERO ISZERO SWAP2 ADD MSTORE JUMP JUMPDEST SWAP1 JUMP JUMPDEST CALLVALUE PUSH2 0x417 JUMPI PUSH1 0x20 CALLDATASIZE PUSH1 0x3 NOT ADD SLT PUSH2 0x417 JUMPI PUSH2 0x6DB PUSH1 0x40 MLOAD PUSH2 0xBB5 DUP2 PUSH2 0x834 JUMP JUMPDEST PUSH2 0xC94 PUSH1 0x0 SWAP2 DUP3 DUP2 MSTORE PUSH1 0x60 PUSH1 0x20 DUP3 ADD MSTORE PUSH1 0x60 PUSH1 0x40 DUP3 ADD MSTORE DUP3 PUSH1 0x60 DUP3 ADD MSTORE DUP3 PUSH1 0x80 DUP3 ADD MSTORE DUP3 PUSH1 0xA0 DUP3 ADD MSTORE DUP3 PUSH1 0xC0 DUP3 ADD MSTORE DUP3 PUSH1 0xE0 DUP3 ADD MSTORE PUSH1 0xFF PUSH1 0x40 PUSH2 0x100 SWAP5 DUP1 DUP7 DUP6 ADD MSTORE DUP1 PUSH2 0x120 DUP1 SWAP6 ADD MSTORE PUSH1 0x4 CALLDATALOAD DUP2 MSTORE PUSH1 0x9 PUSH1 0x20 MSTORE KECCAK256 SWAP4 PUSH2 0xC88 PUSH1 0x7 PUSH2 0xC18 PUSH2 0x894 JUMP JUMPDEST SWAP7 DUP1 SLOAD DUP9 MSTORE PUSH2 0xC29 PUSH1 0x1 DUP3 ADD PUSH2 0x204A JUMP JUMPDEST PUSH1 0x20 DUP10 ADD MSTORE PUSH2 0xC3A PUSH1 0x2 DUP3 ADD PUSH2 0x204A JUMP JUMPDEST PUSH1 0x40 DUP10 ADD MSTORE PUSH1 0x3 DUP2 ADD SLOAD PUSH1 0x60 DUP10 ADD MSTORE PUSH1 0x4 DUP2 ADD SLOAD PUSH1 0x80 DUP10 ADD MSTORE PUSH1 0x5 DUP2 ADD SLOAD PUSH1 0xA0 DUP10 ADD MSTORE PUSH1 0x6 DUP2 ADD SLOAD PUSH1 0xC0 DUP10 ADD MSTORE ADD SLOAD SWAP2 PUSH2 0xC79 DUP5 DUP5 AND PUSH1 0xE0 DUP10 ADD PUSH2 0x2EC6 JUMP JUMPDEST PUSH1 0x8 DUP4 SWAP1 SHR DUP5 AND ISZERO ISZERO SWAP1 DUP8 ADD MSTORE JUMP JUMPDEST PUSH1 0x10 SHR AND ISZERO ISZERO SWAP1 DUP4 ADD MSTORE JUMP JUMPDEST PUSH1 0x40 MLOAD SWAP2 DUP3 SWAP2 DUP3 PUSH2 0xAF1 JUMP JUMPDEST CALLVALUE PUSH2 0x417 JUMPI PUSH1 0x0 CALLDATASIZE PUSH1 0x3 NOT ADD SLT PUSH2 0x417 JUMPI PUSH1 0x20 PUSH1 0x40 MLOAD PUSH32 0x62045F2F519251643CF4B5F0750D99BBDA23CE869802AD9F6D52577CD08A645A DUP2 MSTORE RETURN JUMPDEST CALLVALUE PUSH2 0x417 JUMPI PUSH1 0x40 CALLDATASIZE PUSH1 0x3 NOT ADD SLT PUSH2 0x417 JUMPI PUSH2 0xCF4 PUSH2 0x41C JUMP JUMPDEST CALLER PUSH1 0x1 PUSH1 0x1 PUSH1 0xA0 SHL SUB DUP3 AND SUB PUSH2 0xD10 JUMPI PUSH2 0xA23 SWAP1 PUSH1 0x4 CALLDATALOAD PUSH2 0x24B4 JUMP JUMPDEST PUSH1 0x40 MLOAD PUSH4 0x334BD919 PUSH1 0xE1 SHL DUP2 MSTORE PUSH1 0x4 SWAP1 REVERT JUMPDEST PUSH1 0x60 SWAP1 PUSH1 0x3 NOT ADD SLT PUSH2 0x417 JUMPI PUSH1 0x4 CALLDATALOAD SWAP1 PUSH1 0x24 CALLDATALOAD PUSH1 0x1 PUSH1 0x1 PUSH1 0xA0 SHL SUB DUP2 AND DUP2 SUB PUSH2 0x417 JUMPI SWAP1 PUSH1 0x44 CALLDATALOAD SWAP1 JUMP JUMPDEST CALLVALUE PUSH2 0x417 JUMPI PUSH2 0xD5A CALLDATASIZE PUSH2 0xD22 JUMP JUMPDEST SWAP1 SWAP2 PUSH2 0xD64 PUSH2 0x2299 JUMP JUMPDEST DUP2 ISZERO PUSH2 0xDD7 JUMPI PUSH1 0x0 DUP2 DUP2 MSTORE PUSH1 0x20 DUP2 DUP2 MSTORE PUSH1 0x40 DUP1 DUP4 KECCAK256 PUSH1 0x1 PUSH1 0x1 PUSH1 0xA0 SHL SUB DUP8 AND DUP5 MSTORE SWAP1 SWAP2 MSTORE SWAP1 KECCAK256 DUP3 SWAP1 SLOAD LT PUSH2 0xD9B JUMPI PUSH2 0xA23 SWAP3 PUSH2 0x2E6F JUMP JUMPDEST PUSH1 0x40 MLOAD PUSH3 0x461BCD PUSH1 0xE5 SHL DUP2 MSTORE PUSH1 0x20 PUSH1 0x4 DUP3 ADD MSTORE PUSH1 0x14 PUSH1 0x24 DUP3 ADD MSTORE PUSH20 0x496E73756666696369656E742062616C616E6365 PUSH1 0x60 SHL PUSH1 0x44 DUP3 ADD MSTORE PUSH1 0x64 SWAP1 REVERT JUMPDEST PUSH1 0x40 MLOAD PUSH3 0x461BCD PUSH1 0xE5 SHL DUP2 MSTORE PUSH1 0x20 PUSH1 0x4 DUP3 ADD MSTORE PUSH1 0x17 PUSH1 0x24 DUP3 ADD MSTORE PUSH32 0x416D6F756E74206D75737420626520706F736974697665000000000000000000 PUSH1 0x44 DUP3 ADD MSTORE PUSH1 0x64 SWAP1 REVERT JUMPDEST CALLVALUE PUSH2 0x417 JUMPI PUSH1 0x0 CALLDATASIZE PUSH1 0x3 NOT ADD SLT PUSH2 0x417 JUMPI PUSH2 0xE35 PUSH2 0x22F1 JUMP JUMPDEST PUSH1 0x6 SLOAD PUSH1 0xFF DUP2 AND ISZERO PUSH2 0xE74 JUMPI PUSH1 0xFF NOT AND PUSH1 0x6 SSTORE PUSH32 0x5DB9EE0A495BF2E6FF9C91A7834C1BA4FDD244A5E8AA4E537BD38AEAE4B073AA PUSH1 0x20 PUSH1 0x40 MLOAD CALLER DUP2 MSTORE LOG1 STOP JUMPDEST PUSH1 0x40 MLOAD PUSH4 0x8DFC202B PUSH1 0xE0 SHL DUP2 MSTORE PUSH1 0x4 SWAP1 REVERT JUMPDEST CALLVALUE PUSH2 0x417 JUMPI PUSH1 0x20 CALLDATASIZE PUSH1 0x3 NOT ADD SLT PUSH2 0x417 JUMPI PUSH1 0x4 CALLDATALOAD PUSH1 0x0 MSTORE PUSH1 0x11 PUSH1 0x20 MSTORE PUSH1 0x20 PUSH1 0x40 PUSH1 0x0 KECCAK256 SLOAD ISZERO ISZERO PUSH1 0x40 MLOAD SWAP1 DUP2 MSTORE RETURN JUMPDEST SWAP1 DUP2 MLOAD DUP1 DUP3 MSTORE PUSH1 0x20 DUP1 DUP1 SWAP4 ADD SWAP4 ADD SWAP2 PUSH1 0x0 JUMPDEST DUP3 DUP2 LT PUSH2 0xED4 JUMPI POP POP POP POP SWAP1 JUMP JUMPDEST DUP4 MLOAD DUP6 MSTORE SWAP4 DUP2 ADD SWAP4 SWAP3 DUP2 ADD SWAP3 PUSH1 0x1 ADD PUSH2 0xEC6 JUMP JUMPDEST SWAP1 PUSH1 0x20 PUSH2 0xB92 SWAP3 DUP2 DUP2 MSTORE ADD SWAP1 PUSH2 0xEB4 JUMP JUMPDEST CALLVALUE PUSH2 0x417 JUMPI PUSH1 0x40 CALLDATASIZE PUSH1 0x3 NOT ADD SLT PUSH2 0x417 JUMPI PUSH1 0x4 CALLDATALOAD PUSH8 0xFFFFFFFFFFFFFFFF DUP1 DUP3 GT PUSH2 0x417 JUMPI CALLDATASIZE PUSH1 0x23 DUP4 ADD SLT ISZERO PUSH2 0x417 JUMPI DUP2 PUSH1 0x4 ADD CALLDATALOAD PUSH2 0xF36 DUP2 PUSH2 0x8A3 JUMP JUMPDEST SWAP3 PUSH2 0xF44 PUSH1 0x40 MLOAD SWAP5 DUP6 PUSH2 0x872 JUMP JUMPDEST DUP2 DUP5 MSTORE PUSH1 0x20 SWAP2 PUSH1 0x24 DUP4 DUP7 ADD SWAP2 PUSH1 0x5 SHL DUP4 ADD ADD SWAP2 CALLDATASIZE DUP4 GT PUSH2 0x417 JUMPI PUSH1 0x24 ADD SWAP1 JUMPDEST DUP3 DUP3 LT PUSH2 0xF9C JUMPI DUP6 PUSH1 0x24 CALLDATALOAD DUP7 DUP2 GT PUSH2 0x417 JUMPI PUSH2 0x6DB SWAP2 PUSH2 0xF8A PUSH2 0xF90 SWAP3 CALLDATASIZE SWAP1 PUSH1 0x4 ADD PUSH2 0x8BB JUMP JUMPDEST SWAP1 PUSH2 0x259F JUMP JUMPDEST PUSH1 0x40 MLOAD SWAP2 DUP3 SWAP2 DUP3 PUSH2 0xEE8 JUMP JUMPDEST DUP4 DUP1 SWAP2 PUSH2 0xFA8 DUP5 PUSH2 0x432 JUMP JUMPDEST DUP2 MSTORE ADD SWAP2 ADD SWAP1 PUSH2 0xF63 JUMP JUMPDEST CALLVALUE PUSH2 0x417 JUMPI PUSH1 0x20 CALLDATASIZE PUSH1 0x3 NOT ADD SLT PUSH2 0x417 JUMPI PUSH1 0x4 CALLDATALOAD PUSH1 0x0 MSTORE PUSH1 0x3 PUSH1 0x20 MSTORE PUSH1 0x20 PUSH1 0x40 PUSH1 0x0 KECCAK256 SLOAD ISZERO ISZERO PUSH1 0x40 MLOAD SWAP1 DUP2 MSTORE RETURN JUMPDEST CALLVALUE PUSH2 0x417 JUMPI PUSH1 0x0 CALLDATASIZE PUSH1 0x3 NOT ADD SLT PUSH2 0x417 JUMPI PUSH1 0x40 MLOAD DUP1 PUSH1 0x10 SLOAD DUP1 DUP3 MSTORE DUP3 PUSH1 0x20 DUP1 SWAP4 ADD PUSH1 0x10 PUSH1 0x0 MSTORE PUSH32 0x1B6847DC741A1B0CD08D278845F9D819D87B734759AFB55FE2DE5CB82A9AE672 SWAP3 PUSH1 0x0 JUMPDEST DUP6 DUP3 DUP3 LT PUSH2 0x1057 JUMPI POP POP POP PUSH2 0x1043 SWAP3 POP SUB DUP4 PUSH2 0x872 JUMP JUMPDEST PUSH2 0x6DB PUSH1 0x40 MLOAD SWAP3 DUP3 DUP5 SWAP4 DUP5 MSTORE DUP4 ADD SWAP1 PUSH2 0xEB4 JUMP JUMPDEST DUP6 SLOAD DUP5 MSTORE PUSH1 0x1 SWAP6 DUP7 ADD SWAP6 DUP9 SWAP6 POP SWAP4 ADD SWAP3 ADD PUSH2 0x102C JUMP JUMPDEST CALLVALUE PUSH2 0x417 JUMPI PUSH1 0x0 CALLDATASIZE PUSH1 0x3 NOT ADD SLT PUSH2 0x417 JUMPI PUSH1 0x20 PUSH1 0x40 MLOAD PUSH32 0x28F5A99355973CC89255B8C4AC88405F27C78DED7608B040EE77A8BDF44D15E2 DUP2 MSTORE RETURN JUMPDEST CALLVALUE PUSH2 0x417 JUMPI PUSH1 0x0 CALLDATASIZE PUSH1 0x3 NOT ADD SLT PUSH2 0x417 JUMPI PUSH1 0x20 PUSH1 0x40 MLOAD PUSH2 0x7D0 DUP2 MSTORE RETURN JUMPDEST CALLVALUE PUSH2 0x417 JUMPI PUSH1 0xA0 CALLDATASIZE PUSH1 0x3 NOT ADD SLT PUSH2 0x417 JUMPI PUSH8 0xFFFFFFFFFFFFFFFF PUSH1 0x4 CALLDATALOAD DUP2 DUP2 GT PUSH2 0x417 JUMPI PUSH2 0x10F7 SWAP1 CALLDATASIZE SWAP1 PUSH1 0x4 ADD PUSH2 0x935 JUMP JUMPDEST SWAP1 PUSH1 0x24 CALLDATALOAD SWAP1 DUP2 GT PUSH2 0x417 JUMPI PUSH2 0x6DB SWAP2 PUSH32 0x1EFDDE4594ED8E2284022AA3BEDD98D13B88C18F2BB33D90131DFF8E95589BA3 PUSH2 0x1138 PUSH2 0x11D3 SWAP4 CALLDATASIZE SWAP1 PUSH1 0x4 ADD PUSH2 0x935 JUMP JUMPDEST SWAP2 PUSH1 0x44 CALLDATALOAD SWAP1 PUSH2 0x12C0 PUSH1 0x64 CALLDATALOAD PUSH2 0x114B PUSH2 0x2349 JUMP JUMPDEST PUSH1 0xA SLOAD SWAP7 DUP8 SWAP7 PUSH2 0x1162 PUSH2 0x115D DUP10 PUSH2 0x255C JUMP JUMPDEST PUSH1 0xA SSTORE JUMP JUMPDEST PUSH2 0x116E PUSH1 0x84 CALLDATALOAD TIMESTAMP PUSH2 0x2EB9 JUMP JUMPDEST PUSH2 0x1176 PUSH2 0x894 JUMP JUMPDEST SWAP2 DUP10 DUP4 MSTORE DUP7 PUSH1 0x20 DUP5 ADD MSTORE PUSH1 0x40 DUP4 ADD MSTORE DUP7 PUSH1 0x60 DUP4 ADD MSTORE PUSH1 0x0 PUSH1 0x80 DUP4 ADD MSTORE DUP4 PUSH1 0xA0 DUP4 ADD MSTORE PUSH1 0xC0 DUP3 ADD MSTORE PUSH1 0x0 PUSH1 0xE0 DUP3 ADD MSTORE PUSH2 0x11B2 PUSH2 0x100 DUP3 ADD PUSH1 0x1 SWAP1 MSTORE JUMP JUMPDEST PUSH1 0x0 PUSH2 0x120 DUP3 ADD MSTORE PUSH2 0x11CE DUP9 PUSH1 0x0 MSTORE PUSH1 0x9 PUSH1 0x20 MSTORE PUSH1 0x40 PUSH1 0x0 KECCAK256 SWAP1 JUMP JUMPDEST PUSH2 0x300D JUMP JUMPDEST PUSH2 0x11E7 PUSH2 0x11DF DUP6 PUSH2 0x30C7 JUMP JUMPDEST PUSH2 0x2710 SWAP1 DIV SWAP1 JUMP JUMPDEST PUSH2 0x120D PUSH2 0x11FE DUP9 PUSH1 0x0 MSTORE PUSH1 0xB PUSH1 0x20 MSTORE PUSH1 0x40 PUSH1 0x0 KECCAK256 SWAP1 JUMP JUMPDEST PUSH1 0x0 DUP1 MSTORE PUSH1 0x20 MSTORE PUSH1 0x40 PUSH1 0x0 KECCAK256 SWAP1 JUMP JUMPDEST SSTORE PUSH2 0x121A PUSH2 0x11DF DUP6 PUSH2 0x30DE JUMP JUMPDEST PUSH2 0x1241 PUSH2 0x1231 DUP9 PUSH1 0x0 MSTORE PUSH1 0xB PUSH1 0x20 MSTORE PUSH1 0x40 PUSH1 0x0 KECCAK256 SWAP1 JUMP JUMPDEST PUSH1 0x1 PUSH1 0x0 MSTORE PUSH1 0x20 MSTORE PUSH1 0x40 PUSH1 0x0 KECCAK256 SWAP1 JUMP JUMPDEST SSTORE PUSH2 0x124E PUSH2 0x11DF DUP6 PUSH2 0x30F5 JUMP JUMPDEST PUSH2 0x1275 PUSH2 0x1265 DUP9 PUSH1 0x0 MSTORE PUSH1 0xB PUSH1 0x20 MSTORE PUSH1 0x40 PUSH1 0x0 KECCAK256 SWAP1 JUMP JUMPDEST PUSH1 0x2 PUSH1 0x0 MSTORE PUSH1 0x20 MSTORE PUSH1 0x40 PUSH1 0x0 KECCAK256 SWAP1 JUMP JUMPDEST SSTORE PUSH2 0x1282 PUSH2 0x11DF DUP6 PUSH2 0x310C JUMP JUMPDEST PUSH2 0x12A9 PUSH2 0x1299 DUP9 PUSH1 0x0 MSTORE PUSH1 0xB PUSH1 0x20 MSTORE PUSH1 0x40 PUSH1 0x0 KECCAK256 SWAP1 JUMP JUMPDEST PUSH1 0x3 PUSH1 0x0 MSTORE PUSH1 0x20 MSTORE PUSH1 0x40 PUSH1 0x0 KECCAK256 SWAP1 JUMP JUMPDEST SSTORE PUSH2 0x12B3 DUP7 PUSH2 0x3158 JUMP JUMPDEST POP PUSH1 0x40 MLOAD SWAP4 DUP5 SWAP4 DUP5 PUSH2 0x3136 JUMP JUMPDEST SUB SWAP1 LOG2 PUSH1 0x40 MLOAD SWAP1 DUP2 MSTORE SWAP1 DUP2 SWAP1 PUSH1 0x20 DUP3 ADD SWAP1 JUMP JUMPDEST CALLVALUE PUSH2 0x417 JUMPI PUSH1 0x0 CALLDATASIZE PUSH1 0x3 NOT ADD SLT PUSH2 0x417 JUMPI PUSH1 0x20 PUSH1 0x40 MLOAD PUSH2 0x3A98 DUP2 MSTORE RETURN JUMPDEST CALLVALUE PUSH2 0x417 JUMPI PUSH1 0x0 CALLDATASIZE PUSH1 0x3 NOT ADD SLT PUSH2 0x417 JUMPI PUSH1 0x20 PUSH1 0xFF PUSH1 0x6 SLOAD AND PUSH1 0x40 MLOAD SWAP1 ISZERO ISZERO DUP2 MSTORE RETURN JUMPDEST CALLVALUE PUSH2 0x417 JUMPI PUSH1 0x0 CALLDATASIZE PUSH1 0x3 NOT ADD SLT PUSH2 0x417 JUMPI PUSH1 0x20 PUSH1 0x40 MLOAD PUSH2 0xBB8 DUP2 MSTORE RETURN JUMPDEST CALLVALUE PUSH2 0x417 JUMPI PUSH1 0x60 CALLDATASIZE PUSH1 0x3 NOT ADD SLT PUSH2 0x417 JUMPI PUSH2 0x1349 PUSH2 0x401 JUMP JUMPDEST PUSH8 0xFFFFFFFFFFFFFFFF PUSH1 0x24 CALLDATALOAD DUP2 DUP2 GT PUSH2 0x417 JUMPI PUSH2 0x136A SWAP1 CALLDATASIZE SWAP1 PUSH1 0x4 ADD PUSH2 0x8BB JUMP JUMPDEST SWAP1 PUSH1 0x44 CALLDATALOAD SWAP1 DUP2 GT PUSH2 0x417 JUMPI PUSH2 0x1383 SWAP1 CALLDATASIZE SWAP1 PUSH1 0x4 ADD PUSH2 0x8BB JUMP JUMPDEST SWAP1 PUSH1 0x1 PUSH1 0x1 PUSH1 0xA0 SHL SUB DUP4 AND CALLER DUP2 EQ ISZERO DUP1 PUSH2 0x13F8 JUMPI JUMPDEST PUSH2 0x13D1 JUMPI ISZERO PUSH2 0x13B9 JUMPI PUSH2 0xA23 SWAP3 PUSH1 0x0 PUSH1 0x40 MLOAD PUSH2 0x13B3 DUP2 PUSH2 0x856 JUMP JUMPDEST MSTORE PUSH2 0x2664 JUMP JUMPDEST PUSH1 0x40 MLOAD PUSH3 0x6A0D45 PUSH1 0xE2 SHL DUP2 MSTORE PUSH1 0x0 PUSH1 0x4 DUP3 ADD MSTORE PUSH1 0x24 SWAP1 REVERT JUMPDEST PUSH1 0x40 MLOAD PUSH4 0x711BEC91 PUSH1 0xE1 SHL DUP2 MSTORE CALLER PUSH1 0x4 DUP3 ADD MSTORE PUSH1 0x1 PUSH1 0x1 PUSH1 0xA0 SHL SUB DUP6 AND PUSH1 0x24 DUP3 ADD MSTORE PUSH1 0x44 SWAP1 REVERT JUMPDEST POP PUSH1 0x0 DUP2 DUP2 MSTORE PUSH1 0x1 PUSH1 0x20 SWAP1 DUP2 MSTORE PUSH1 0x40 DUP1 DUP4 KECCAK256 CALLER DUP5 MSTORE SWAP1 SWAP2 MSTORE SWAP1 KECCAK256 SLOAD PUSH1 0xFF AND ISZERO PUSH2 0x1398 JUMP JUMPDEST CALLVALUE PUSH2 0x417 JUMPI PUSH1 0x20 CALLDATASIZE PUSH1 0x3 NOT ADD SLT PUSH2 0x417 JUMPI PUSH1 0x4 CALLDATALOAD PUSH1 0x4 DUP2 LT ISZERO PUSH2 0x417 JUMPI PUSH2 0x1444 PUSH1 0x20 SWAP2 PUSH2 0x32A8 JUMP JUMPDEST PUSH1 0x40 MLOAD SWAP1 DUP2 MSTORE RETURN JUMPDEST CALLVALUE PUSH2 0x417 JUMPI PUSH1 0x40 CALLDATASIZE PUSH1 0x3 NOT ADD SLT PUSH2 0x417 JUMPI PUSH1 0x20 PUSH2 0x48A PUSH2 0x146A PUSH2 0x52D JUMP JUMPDEST PUSH1 0x4 CALLDATALOAD PUSH1 0x0 MSTORE PUSH1 0xB DUP4 MSTORE PUSH1 0x40 PUSH1 0x0 KECCAK256 PUSH2 0x5EC JUMP JUMPDEST CALLVALUE PUSH2 0x417 JUMPI PUSH1 0x0 CALLDATASIZE PUSH1 0x3 NOT ADD SLT PUSH2 0x417 JUMPI PUSH1 0x20 PUSH1 0x10 SLOAD PUSH1 0x40 MLOAD SWAP1 DUP2 MSTORE RETURN JUMPDEST CALLVALUE PUSH2 0x417 JUMPI PUSH1 0x0 CALLDATASIZE PUSH1 0x3 NOT ADD SLT PUSH2 0x417 JUMPI PUSH1 0x20 PUSH1 0x40 MLOAD PUSH2 0x57E4 DUP2 MSTORE RETURN JUMPDEST CALLVALUE PUSH2 0x417 JUMPI PUSH1 0x20 CALLDATASIZE PUSH1 0x3 NOT ADD SLT PUSH2 0x417 JUMPI CALLER PUSH1 0x0 SWAP1 DUP2 MSTORE PUSH32 0xC54CC0CAD80E711AFF5B4FCA3E13682B9A8FCD7FF4679FBC81D0391D16E477BD PUSH1 0x20 MSTORE PUSH1 0x40 SWAP1 KECCAK256 SLOAD PUSH32 0x62045F2F519251643CF4B5F0750D99BBDA23CE869802AD9F6D52577CD08A645A SWAP1 PUSH1 0xFF AND ISZERO PUSH2 0x152E JUMPI PUSH2 0xA23 PUSH1 0x4 CALLDATALOAD PUSH2 0x356B JUMP JUMPDEST PUSH1 0x44 SWAP1 PUSH1 0x40 MLOAD SWAP1 PUSH4 0xE2517D3F PUSH1 0xE0 SHL DUP3 MSTORE CALLER PUSH1 0x4 DUP4 ADD MSTORE PUSH1 0x24 DUP3 ADD MSTORE REVERT JUMPDEST CALLVALUE PUSH2 0x417 JUMPI PUSH1 0x0 CALLDATASIZE PUSH1 0x3 NOT ADD SLT PUSH2 0x417 JUMPI PUSH2 0x1565 PUSH2 0x22F1 JUMP JUMPDEST PUSH2 0x156D PUSH2 0x353B JUMP JUMPDEST PUSH1 0x1 PUSH1 0xFF NOT PUSH1 0x6 SLOAD AND OR PUSH1 0x6 SSTORE PUSH32 0x62E78CEA01BEE320CD4E420270B5EA74000D11B0C9F74754EBDBFC544B05A258 PUSH1 0x20 PUSH1 0x40 MLOAD CALLER DUP2 MSTORE LOG1 STOP JUMPDEST CALLVALUE PUSH2 0x417 JUMPI PUSH1 0x20 CALLDATASIZE PUSH1 0x3 NOT ADD SLT PUSH2 0x417 JUMPI PUSH2 0x15BF PUSH2 0x401 JUMP JUMPDEST PUSH2 0x15C7 PUSH2 0x223B JUMP JUMPDEST PUSH1 0x1 PUSH1 0x1 PUSH1 0xA0 SHL SUB AND PUSH1 0x0 DUP2 DUP2 MSTORE PUSH1 0xD PUSH1 0x20 MSTORE PUSH1 0x40 DUP2 KECCAK256 DUP1 SLOAD PUSH1 0xFF NOT AND SWAP1 SSTORE SWAP1 PUSH32 0x535611FB62FA2A833988F283B779E417E996813E44046F521D76C17B5943B08C DUP3 DUP1 LOG2 DUP1 RETURN JUMPDEST CALLVALUE PUSH2 0x417 JUMPI PUSH1 0x20 CALLDATASIZE PUSH1 0x3 NOT ADD SLT PUSH2 0x417 JUMPI PUSH1 0x4 DUP1 CALLDATALOAD PUSH1 0x0 SWAP2 DUP3 JUMPDEST PUSH1 0xFF DUP5 AND PUSH1 0x3 DUP2 GT PUSH2 0x169E JUMPI DUP3 DUP2 LT ISZERO PUSH2 0x1689 JUMPI PUSH2 0x1683 SWAP2 PUSH2 0x1677 PUSH2 0x11DF DUP4 PUSH2 0x1671 PUSH2 0x166A PUSH2 0x167D SWAP7 PUSH2 0x1665 DUP12 PUSH1 0x0 MSTORE PUSH1 0xC PUSH1 0x20 MSTORE PUSH1 0x40 PUSH1 0x0 KECCAK256 SWAP1 JUMP JUMPDEST PUSH2 0x5EC JUMP JUMPDEST SLOAD SWAP2 PUSH2 0x32A8 JUMP JUMPDEST SWAP1 PUSH2 0x3123 JUMP JUMPDEST SWAP1 PUSH2 0x2EB9 JUMP JUMPDEST SWAP4 PUSH2 0x32F3 JUMP JUMPDEST SWAP3 PUSH2 0x1628 JUMP JUMPDEST PUSH1 0x21 DUP4 PUSH4 0x4E487B71 PUSH1 0xE0 SHL PUSH1 0x0 MSTORE MSTORE PUSH1 0x24 PUSH1 0x0 REVERT JUMPDEST PUSH1 0x40 MLOAD DUP3 DUP2 MSTORE PUSH1 0x20 SWAP1 RETURN JUMPDEST CALLVALUE PUSH2 0x417 JUMPI PUSH2 0x16B7 CALLDATASIZE PUSH2 0xD22 JUMP JUMPDEST PUSH2 0x16BF PUSH2 0x23A1 JUMP JUMPDEST PUSH1 0x2 PUSH1 0x7 SLOAD EQ PUSH2 0x190D JUMPI PUSH1 0x2 PUSH1 0x7 SSTORE PUSH2 0x16D6 PUSH2 0x353B JUMP JUMPDEST PUSH1 0x1 PUSH1 0x1 PUSH1 0xA0 SHL SUB DUP3 AND PUSH1 0x0 SWAP1 DUP2 MSTORE PUSH1 0xD PUSH1 0x20 MSTORE PUSH1 0x40 SWAP1 KECCAK256 PUSH2 0x1703 SWAP1 PUSH2 0x16FE SWAP1 JUMPDEST SLOAD PUSH1 0xFF AND SWAP1 JUMP JUMPDEST PUSH2 0x3313 JUMP JUMPDEST DUP3 PUSH32 0x689E2353C59BCD8C1C4352DDD0F21299329AD92442D331648747E4E865ACDE74 PUSH2 0x188D PUSH2 0x173C DUP4 PUSH1 0x0 MSTORE PUSH1 0x9 PUSH1 0x20 MSTORE PUSH1 0x40 PUSH1 0x0 KECCAK256 SWAP1 JUMP JUMPDEST PUSH1 0x4 PUSH1 0x7 DUP3 ADD SWAP2 PUSH2 0x17F7 PUSH2 0x17EF PUSH1 0xFF PUSH2 0x17B7 DUP12 DUP3 PUSH2 0x1798 PUSH2 0x16F7 DUP11 SLOAD SWAP4 PUSH2 0x1767 DUP5 DUP7 PUSH1 0x8 SHR AND PUSH2 0x31D4 JUMP JUMPDEST DUP4 DUP6 PUSH1 0x10 SHR AND ISZERO DUP1 ISZERO PUSH2 0x18FF JUMPI JUMPDEST PUSH2 0x177E SWAP1 PUSH2 0x3357 JUMP JUMPDEST PUSH1 0x1 PUSH1 0x1 PUSH1 0xA0 SHL SUB AND PUSH1 0x0 SWAP1 DUP2 MSTORE PUSH1 0xE PUSH1 0x20 MSTORE PUSH1 0x40 SWAP1 KECCAK256 SWAP1 JUMP JUMPDEST SWAP2 PUSH2 0x17A2 DUP4 PUSH2 0x5CC JUMP JUMPDEST AND SWAP3 DUP4 SWAP2 PUSH2 0x17AF DUP4 PUSH2 0x5CC JUMP JUMPDEST AND LT ISZERO PUSH2 0x3394 JUMP JUMPDEST PUSH2 0x17E8 PUSH2 0x17D2 DUP3 PUSH2 0x1665 DUP13 PUSH1 0x0 MSTORE PUSH1 0xB PUSH1 0x20 MSTORE PUSH1 0x40 PUSH1 0x0 KECCAK256 SWAP1 JUMP JUMPDEST SLOAD SWAP2 PUSH2 0x1665 DUP12 PUSH1 0x0 MSTORE PUSH1 0xC PUSH1 0x20 MSTORE PUSH1 0x40 PUSH1 0x0 KECCAK256 SWAP1 JUMP JUMPDEST SLOAD SWAP1 PUSH2 0x33E0 JUMP JUMPDEST DUP9 GT ISZERO PUSH2 0x33ED JUMP JUMPDEST PUSH2 0x180A PUSH2 0x1802 PUSH2 0x2BAF JUMP JUMPDEST DUP9 DUP9 DUP12 PUSH2 0x344F JUMP JUMPDEST ADD PUSH2 0x1816 DUP7 DUP3 SLOAD PUSH2 0x2EB9 JUMP JUMPDEST SWAP1 SSTORE PUSH2 0x183A PUSH2 0x182F DUP6 PUSH1 0x0 MSTORE PUSH1 0xC PUSH1 0x20 MSTORE PUSH1 0x40 PUSH1 0x0 KECCAK256 SWAP1 JUMP JUMPDEST DUP3 SLOAD PUSH1 0xFF AND SWAP1 PUSH2 0x5EC JUMP JUMPDEST PUSH2 0x1845 DUP7 DUP3 SLOAD PUSH2 0x2EB9 JUMP JUMPDEST SWAP1 SSTORE PUSH2 0x1879 PUSH2 0x182F DUP8 PUSH2 0x1862 DUP8 PUSH1 0x0 MSTORE PUSH1 0xF PUSH1 0x20 MSTORE PUSH1 0x40 PUSH1 0x0 KECCAK256 SWAP1 JUMP JUMPDEST SWAP1 PUSH1 0x1 DUP1 PUSH1 0xA0 SHL SUB AND PUSH1 0x0 MSTORE PUSH1 0x20 MSTORE PUSH1 0x40 PUSH1 0x0 KECCAK256 SWAP1 JUMP JUMPDEST PUSH2 0x1884 DUP7 DUP3 SLOAD PUSH2 0x2EB9 JUMP JUMPDEST SWAP1 SSTORE SLOAD PUSH1 0xFF AND SWAP1 JUMP JUMPDEST PUSH1 0x40 MLOAD SWAP1 SWAP5 PUSH1 0x1 PUSH1 0x1 PUSH1 0xA0 SHL SUB AND SWAP4 DUP2 SWAP1 PUSH2 0x18AA SWAP1 DUP8 SWAP1 DUP4 PUSH2 0x3439 JUMP JUMPDEST SUB SWAP1 LOG3 PUSH2 0x18DE PUSH2 0x18C8 DUP3 PUSH2 0x1665 DUP6 PUSH1 0x0 MSTORE PUSH1 0xC PUSH1 0x20 MSTORE PUSH1 0x40 PUSH1 0x0 KECCAK256 SWAP1 JUMP JUMPDEST SLOAD SWAP2 PUSH2 0x1665 DUP5 PUSH1 0x0 MSTORE PUSH1 0xB PUSH1 0x20 MSTORE PUSH1 0x40 PUSH1 0x0 KECCAK256 SWAP1 JUMP JUMPDEST SLOAD GT ISZERO PUSH2 0x18F0 JUMPI JUMPDEST PUSH2 0xA23 PUSH1 0x1 PUSH1 0x7 SSTORE JUMP JUMPDEST PUSH2 0x18F9 SWAP1 PUSH2 0x356B JUMP JUMPDEST CODESIZE PUSH2 0x18E6 JUMP JUMPDEST POP PUSH1 0x6 DUP11 ADD SLOAD TIMESTAMP GT ISZERO PUSH2 0x1775 JUMP JUMPDEST PUSH1 0x40 MLOAD PUSH4 0x3EE5AEB5 PUSH1 0xE0 SHL DUP2 MSTORE PUSH1 0x4 SWAP1 REVERT JUMPDEST CALLVALUE PUSH2 0x417 JUMPI PUSH1 0x40 CALLDATASIZE PUSH1 0x3 NOT ADD SLT PUSH2 0x417 JUMPI PUSH1 0x20 PUSH1 0xFF PUSH2 0x1965 PUSH2 0x193F PUSH2 0x41C JUMP JUMPDEST PUSH1 0x4 CALLDATALOAD PUSH1 0x0 MSTORE PUSH1 0x5 DUP5 MSTORE PUSH1 0x40 PUSH1 0x0 KECCAK256 SWAP1 PUSH1 0x1 DUP1 PUSH1 0xA0 SHL SUB AND PUSH1 0x0 MSTORE PUSH1 0x20 MSTORE PUSH1 0x40 PUSH1 0x0 KECCAK256 SWAP1 JUMP JUMPDEST SLOAD AND PUSH1 0x40 MLOAD SWAP1 ISZERO ISZERO DUP2 MSTORE RETURN JUMPDEST CALLVALUE PUSH2 0x417 JUMPI PUSH1 0x20 CALLDATASIZE PUSH1 0x3 NOT ADD SLT PUSH2 0x417 JUMPI PUSH1 0x1 PUSH1 0x1 PUSH1 0xA0 SHL SUB PUSH2 0x1992 PUSH2 0x401 JUMP JUMPDEST AND PUSH1 0x0 MSTORE PUSH1 0xD PUSH1 0x20 MSTORE PUSH1 0x20 PUSH1 0xFF PUSH1 0x40 PUSH1 0x0 KECCAK256 SLOAD AND PUSH1 0x40 MLOAD SWAP1 ISZERO ISZERO DUP2 MSTORE RETURN JUMPDEST CALLVALUE PUSH2 0x417 JUMPI PUSH1 0x60 CALLDATASIZE PUSH1 0x3 NOT ADD SLT PUSH2 0x417 JUMPI PUSH2 0x19C9 PUSH2 0x41C JUMP JUMPDEST PUSH1 0x44 CALLDATALOAD SWAP1 PUSH1 0x4 DUP3 LT ISZERO PUSH2 0x417 JUMPI PUSH1 0x20 SWAP2 PUSH2 0x1665 PUSH2 0x48A SWAP3 PUSH1 0x4 CALLDATALOAD PUSH1 0x0 MSTORE PUSH1 0xF DUP6 MSTORE PUSH1 0x40 PUSH1 0x0 KECCAK256 SWAP1 PUSH1 0x1 DUP1 PUSH1 0xA0 SHL SUB AND PUSH1 0x0 MSTORE PUSH1 0x20 MSTORE PUSH1 0x40 PUSH1 0x0 KECCAK256 SWAP1 JUMP JUMPDEST CALLVALUE PUSH2 0x417 JUMPI PUSH1 0x0 CALLDATASIZE PUSH1 0x3 NOT ADD SLT PUSH2 0x417 JUMPI PUSH1 0x20 PUSH1 0x40 MLOAD PUSH1 0x0 DUP2 MSTORE RETURN JUMPDEST CALLVALUE PUSH2 0x417 JUMPI PUSH1 0x40 CALLDATASIZE PUSH1 0x3 NOT ADD SLT PUSH2 0x417 JUMPI PUSH2 0x1A3B PUSH2 0x401 JUMP JUMPDEST PUSH1 0x24 CALLDATALOAD SWAP1 DUP2 ISZERO ISZERO SWAP1 DUP2 DUP4 SUB PUSH2 0x417 JUMPI PUSH1 0x1 PUSH1 0x1 PUSH1 0xA0 SHL SUB DUP2 AND SWAP3 DUP4 ISZERO PUSH2 0x1AC6 JUMPI PUSH2 0x1A87 PUSH2 0x1A98 SWAP3 CALLER PUSH1 0x0 MSTORE PUSH1 0x1 PUSH1 0x20 MSTORE PUSH1 0x40 PUSH1 0x0 KECCAK256 SWAP1 PUSH1 0x1 DUP1 PUSH1 0xA0 SHL SUB AND PUSH1 0x0 MSTORE PUSH1 0x20 MSTORE PUSH1 0x40 PUSH1 0x0 KECCAK256 SWAP1 JUMP JUMPDEST SWAP1 PUSH1 0xFF DUP1 NOT DUP4 SLOAD AND SWAP2 ISZERO ISZERO AND OR SWAP1 SSTORE JUMP JUMPDEST PUSH1 0x40 MLOAD SWAP1 DUP2 MSTORE PUSH32 0x17307EAB39AB6107E8899845AD3D59BD9653F200F220920489CA2B5937696C31 PUSH1 0x20 CALLER SWAP3 LOG3 STOP JUMPDEST PUSH1 0x40 MLOAD PUSH3 0xCED3E1 PUSH1 0xE8 SHL DUP2 MSTORE PUSH1 0x0 PUSH1 0x4 DUP3 ADD MSTORE PUSH1 0x24 SWAP1 REVERT JUMPDEST CALLVALUE PUSH2 0x417 JUMPI PUSH1 0x0 CALLDATASIZE PUSH1 0x3 NOT ADD SLT PUSH2 0x417 JUMPI PUSH1 0x20 PUSH1 0x40 MLOAD PUSH2 0x3E8 DUP2 MSTORE RETURN JUMPDEST CALLVALUE PUSH2 0x417 JUMPI PUSH1 0x20 CALLDATASIZE PUSH1 0x3 NOT ADD SLT PUSH2 0x417 JUMPI PUSH1 0x4 CALLDATALOAD PUSH1 0x0 MSTORE PUSH1 0x3 PUSH1 0x20 MSTORE PUSH1 0x20 PUSH1 0x40 PUSH1 0x0 KECCAK256 SLOAD PUSH1 0x40 MLOAD SWAP1 DUP2 MSTORE RETURN JUMPDEST CALLVALUE PUSH2 0x417 JUMPI PUSH1 0x0 CALLDATASIZE PUSH1 0x3 NOT ADD SLT PUSH2 0x417 JUMPI PUSH1 0x20 PUSH1 0xA SLOAD PUSH1 0x40 MLOAD SWAP1 DUP2 MSTORE RETURN JUMPDEST CALLVALUE PUSH2 0x417 JUMPI PUSH1 0x20 CALLDATASIZE PUSH1 0x3 NOT ADD SLT PUSH2 0x417 JUMPI PUSH1 0x20 PUSH2 0x1444 PUSH1 0x4 CALLDATALOAD PUSH2 0x3216 JUMP JUMPDEST CALLVALUE PUSH2 0x417 JUMPI PUSH1 0x20 CALLDATASIZE PUSH1 0x3 NOT ADD SLT PUSH2 0x417 JUMPI PUSH1 0x4 CALLDATALOAD PUSH2 0x1B7F PUSH2 0x23A1 JUMP JUMPDEST DUP1 PUSH1 0x0 MSTORE PUSH1 0x9 PUSH1 0x20 MSTORE PUSH1 0x40 PUSH1 0x0 KECCAK256 PUSH1 0x7 DUP2 ADD PUSH1 0xFF DUP2 SLOAD PUSH2 0x1BA3 DUP3 DUP3 PUSH1 0x8 SHR AND PUSH2 0x31D4 JUMP JUMPDEST PUSH1 0x10 SHR AND PUSH2 0x1C0A JUMPI PUSH2 0x1BF5 PUSH1 0x4 PUSH32 0xB00CD7DB2CF318388D4984A9842FF206B7CF7BC273A58F12701F29755B3CA941 SWAP4 PUSH2 0x1BEA PUSH2 0x1C05 SWAP5 PUSH3 0x10000 PUSH3 0xFF0000 NOT DUP3 SLOAD AND OR SWAP1 SSTORE JUMP JUMPDEST ADD SLOAD PUSH2 0x1671 DUP6 PUSH2 0x3216 JUMP JUMPDEST PUSH1 0x40 MLOAD SWAP1 DUP2 MSTORE SWAP1 DUP2 SWAP1 PUSH1 0x20 DUP3 ADD SWAP1 JUMP JUMPDEST SUB SWAP1 LOG2 STOP JUMPDEST PUSH1 0x40 MLOAD PUSH3 0x461BCD PUSH1 0xE5 SHL DUP2 MSTORE PUSH1 0x20 PUSH1 0x4 DUP3 ADD MSTORE PUSH1 0xE PUSH1 0x24 DUP3 ADD MSTORE PUSH14 0x105B1C9958591E48199D5B991959 PUSH1 0x92 SHL PUSH1 0x44 DUP3 ADD MSTORE PUSH1 0x64 SWAP1 REVERT JUMPDEST CALLVALUE PUSH2 0x417 JUMPI PUSH1 0x0 CALLDATASIZE PUSH1 0x3 NOT ADD SLT PUSH2 0x417 JUMPI PUSH1 0x20 PUSH1 0x40 MLOAD PUSH2 0x7530 DUP2 MSTORE RETURN JUMPDEST CALLVALUE PUSH2 0x417 JUMPI PUSH1 0x0 CALLDATASIZE PUSH1 0x3 NOT ADD SLT PUSH2 0x417 JUMPI PUSH1 0x20 PUSH1 0x8 SLOAD PUSH1 0x40 MLOAD SWAP1 DUP2 MSTORE RETURN JUMPDEST CALLVALUE PUSH2 0x417 JUMPI PUSH1 0x0 CALLDATASIZE PUSH1 0x3 NOT ADD SLT PUSH2 0x417 JUMPI PUSH1 0x20 PUSH1 0x40 MLOAD PUSH2 0xFA0 DUP2 MSTORE RETURN JUMPDEST CALLVALUE PUSH2 0x417 JUMPI PUSH1 0x0 CALLDATASIZE PUSH1 0x3 NOT ADD SLT PUSH2 0x417 JUMPI PUSH1 0x20 PUSH1 0x40 MLOAD PUSH32 0x9F2DF0FED2C77648DE5860A4CC508CD0818C85B8B8A1AB4CEEEF8D981C8956A6 DUP2 MSTORE RETURN JUMPDEST CALLVALUE PUSH2 0x417 JUMPI PUSH1 0x40 CALLDATASIZE PUSH1 0x3 NOT ADD SLT PUSH2 0x417 JUMPI PUSH2 0xA23 PUSH1 0x4 CALLDATALOAD PUSH2 0x1CF2 PUSH2 0x41C JUMP JUMPDEST SWAP1 DUP1 PUSH1 0x0 MSTORE PUSH1 0x5 PUSH1 0x20 MSTORE PUSH2 0x1D0D PUSH1 0x1 PUSH1 0x40 PUSH1 0x0 KECCAK256 ADD SLOAD PUSH2 0x23F9 JUMP JUMPDEST PUSH2 0x24B4 JUMP JUMPDEST CALLVALUE PUSH2 0x417 JUMPI PUSH1 0x40 CALLDATASIZE PUSH1 0x3 NOT ADD SLT PUSH2 0x417 JUMPI PUSH1 0x4 DUP1 CALLDATALOAD PUSH2 0x1D2F PUSH2 0x41C JUMP JUMPDEST SWAP2 PUSH1 0x0 SWAP3 DUP4 JUMPDEST PUSH1 0xFF DUP6 AND PUSH1 0x3 DUP2 GT PUSH2 0x169E JUMPI DUP4 DUP2 LT ISZERO PUSH2 0x1D82 JUMPI PUSH2 0x1D7C SWAP2 PUSH2 0x1677 PUSH2 0x11DF DUP4 PUSH2 0x1671 PUSH2 0x166A PUSH2 0x1D76 SWAP7 PUSH2 0x1665 DUP11 PUSH2 0x1862 DUP15 PUSH1 0x0 MSTORE PUSH1 0xF PUSH1 0x20 MSTORE PUSH1 0x40 PUSH1 0x0 KECCAK256 SWAP1 JUMP JUMPDEST SWAP5 PUSH2 0x32F3 JUMP JUMPDEST SWAP4 PUSH2 0x1D35 JUMP JUMPDEST PUSH1 0x21 DUP5 PUSH4 0x4E487B71 PUSH1 0xE0 SHL PUSH1 0x0 MSTORE MSTORE PUSH1 0x24 PUSH1 0x0 REVERT JUMPDEST CALLVALUE PUSH2 0x417 JUMPI PUSH1 0x0 CALLDATASIZE PUSH1 0x3 NOT ADD SLT PUSH2 0x417 JUMPI PUSH1 0x20 PUSH1 0x40 MLOAD PUSH32 0x65D7A28E3265B37A6474929F336521B332C1681B933F6CB9F3376673440D862A DUP2 MSTORE RETURN JUMPDEST CALLVALUE PUSH2 0x417 JUMPI PUSH1 0x40 CALLDATASIZE PUSH1 0x3 NOT ADD SLT PUSH2 0x417 JUMPI PUSH1 0x20 PUSH1 0xFF PUSH2 0x1965 PUSH2 0x1DF2 PUSH2 0x401 JUMP JUMPDEST PUSH2 0x1DFA PUSH2 0x41C JUMP JUMPDEST PUSH1 0x1 PUSH1 0x1 PUSH1 0xA0 SHL SUB SWAP2 DUP3 AND PUSH1 0x0 SWAP1 DUP2 MSTORE PUSH1 0x1 DUP7 MSTORE PUSH1 0x40 DUP1 DUP3 KECCAK256 SWAP3 SWAP1 SWAP4 AND DUP2 MSTORE PUSH1 0x20 SWAP2 SWAP1 SWAP2 MSTORE KECCAK256 SWAP1 JUMP JUMPDEST PUSH1 0x20 DUP2 ADD SWAP3 SWAP2 PUSH2 0x8A1 SWAP2 SWAP1 PUSH2 0xAE4 JUMP JUMPDEST CALLVALUE PUSH2 0x417 JUMPI PUSH1 0x20 CALLDATASIZE PUSH1 0x3 NOT ADD SLT PUSH2 0x417 JUMPI PUSH1 0x1 PUSH1 0x1 PUSH1 0xA0 SHL SUB PUSH2 0x1E54 PUSH2 0x401 JUMP JUMPDEST AND PUSH1 0x0 MSTORE PUSH1 0xE PUSH1 0x20 MSTORE PUSH1 0x20 PUSH1 0xFF PUSH1 0x40 PUSH1 0x0 KECCAK256 SLOAD AND PUSH2 0x1E75 PUSH1 0x40 MLOAD DUP1 SWAP3 PUSH2 0xAE4 JUMP JUMPDEST RETURN JUMPDEST CALLVALUE PUSH2 0x417 JUMPI PUSH1 0xA0 CALLDATASIZE PUSH1 0x3 NOT ADD SLT PUSH2 0x417 JUMPI PUSH2 0x1E90 PUSH2 0x401 JUMP JUMPDEST PUSH2 0x1E98 PUSH2 0x41C JUMP JUMPDEST PUSH1 0x84 CALLDATALOAD PUSH8 0xFFFFFFFFFFFFFFFF DUP2 GT PUSH2 0x417 JUMPI PUSH2 0x1EB8 SWAP1 CALLDATASIZE SWAP1 PUSH1 0x4 ADD PUSH2 0x935 JUMP JUMPDEST SWAP1 PUSH1 0x1 PUSH1 0x1 PUSH1 0xA0 SHL SUB DUP4 DUP2 AND SWAP1 CALLER DUP3 EQ ISZERO DUP1 PUSH2 0x1F59 JUMPI JUMPDEST PUSH2 0x1F32 JUMPI DUP3 AND ISZERO PUSH2 0x1F19 JUMPI ISZERO PUSH2 0x13B9 JUMPI PUSH2 0xA23 SWAP3 PUSH2 0x1F11 PUSH1 0x64 CALLDATALOAD PUSH1 0x44 CALLDATALOAD SWAP2 PUSH1 0x40 MLOAD SWAP3 PUSH1 0x1 DUP5 MSTORE PUSH1 0x20 DUP5 ADD MSTORE PUSH1 0x40 DUP4 ADD SWAP2 PUSH1 0x1 DUP4 MSTORE PUSH1 0x60 DUP5 ADD MSTORE PUSH1 0x80 DUP4 ADD PUSH1 0x40 MSTORE JUMP JUMPDEST SWAP3 SWAP1 SWAP2 PUSH2 0x28C3 JUMP JUMPDEST PUSH1 0x40 MLOAD PUSH4 0x2BFA23E7 PUSH1 0xE1 SHL DUP2 MSTORE PUSH1 0x0 PUSH1 0x4 DUP3 ADD MSTORE PUSH1 0x24 SWAP1 REVERT JUMPDEST PUSH1 0x40 MLOAD PUSH4 0x711BEC91 PUSH1 0xE1 SHL DUP2 MSTORE CALLER PUSH1 0x4 DUP3 ADD MSTORE PUSH1 0x1 PUSH1 0x1 PUSH1 0xA0 SHL SUB DUP7 AND PUSH1 0x24 DUP3 ADD MSTORE PUSH1 0x44 SWAP1 REVERT JUMPDEST POP PUSH1 0x0 DUP3 DUP2 MSTORE PUSH1 0x1 PUSH1 0x20 SWAP1 DUP2 MSTORE PUSH1 0x40 DUP1 DUP4 KECCAK256 CALLER DUP5 MSTORE SWAP1 SWAP2 MSTORE SWAP1 KECCAK256 SLOAD PUSH1 0xFF AND ISZERO PUSH2 0x1ECF JUMP JUMPDEST CALLVALUE PUSH2 0x417 JUMPI PUSH1 0x60 CALLDATASIZE PUSH1 0x3 NOT ADD SLT PUSH2 0x417 JUMPI PUSH2 0x1F96 PUSH2 0x401 JUMP JUMPDEST PUSH1 0x1 PUSH1 0x1 PUSH1 0xA0 SHL SUB DUP2 AND CALLER DUP2 EQ ISZERO SWAP1 DUP2 PUSH2 0x1FEA JUMPI JUMPDEST POP PUSH2 0x1FC1 JUMPI PUSH2 0xA23 SWAP1 PUSH1 0x44 CALLDATALOAD SWAP1 PUSH1 0x24 CALLDATALOAD SWAP1 PUSH2 0x2E6F JUMP JUMPDEST PUSH1 0x40 MLOAD PUSH4 0x711BEC91 PUSH1 0xE1 SHL DUP2 MSTORE CALLER PUSH1 0x4 DUP3 ADD MSTORE PUSH1 0x1 PUSH1 0x1 PUSH1 0xA0 SHL SUB SWAP2 SWAP1 SWAP2 AND PUSH1 0x24 DUP3 ADD MSTORE PUSH1 0x44 SWAP1 REVERT JUMPDEST PUSH1 0x0 SWAP1 DUP2 MSTORE PUSH1 0x1 PUSH1 0x20 SWAP1 DUP2 MSTORE PUSH1 0x40 DUP1 DUP4 KECCAK256 CALLER DUP5 MSTORE SWAP1 SWAP2 MSTORE SWAP1 KECCAK256 PUSH1 0xFF SWAP2 POP SLOAD AND ISZERO CODESIZE PUSH2 0x1FAB JUMP JUMPDEST SWAP1 PUSH1 0x1 DUP3 DUP2 SHR SWAP3 AND DUP1 ISZERO PUSH2 0x2040 JUMPI JUMPDEST PUSH1 0x20 DUP4 LT EQ PUSH2 0x202A JUMPI JUMP JUMPDEST PUSH4 0x4E487B71 PUSH1 0xE0 SHL PUSH1 0x0 MSTORE PUSH1 0x22 PUSH1 0x4 MSTORE PUSH1 0x24 PUSH1 0x0 REVERT JUMPDEST SWAP2 PUSH1 0x7F AND SWAP2 PUSH2 0x201F JUMP JUMPDEST SWAP1 PUSH1 0x40 MLOAD SWAP2 DUP3 PUSH1 0x0 DUP3 SLOAD SWAP3 PUSH2 0x205E DUP5 PUSH2 0x2010 JUMP JUMPDEST SWAP1 DUP2 DUP5 MSTORE PUSH1 0x1 SWAP5 DUP6 DUP2 AND SWAP1 DUP2 PUSH1 0x0 EQ PUSH2 0x20CB JUMPI POP PUSH1 0x1 EQ PUSH2 0x2088 JUMPI JUMPDEST POP POP PUSH2 0x8A1 SWAP3 POP SUB DUP4 PUSH2 0x872 JUMP JUMPDEST SWAP1 SWAP4 SWAP2 POP PUSH1 0x0 MSTORE PUSH1 0x20 SWAP1 DUP2 PUSH1 0x0 KECCAK256 SWAP4 PUSH1 0x0 SWAP2 JUMPDEST DUP2 DUP4 LT PUSH2 0x20B3 JUMPI POP POP PUSH2 0x8A1 SWAP4 POP DUP3 ADD ADD CODESIZE DUP1 PUSH2 0x207A JUMP JUMPDEST DUP6 SLOAD DUP9 DUP5 ADD DUP6 ADD MSTORE SWAP5 DUP6 ADD SWAP5 DUP8 SWAP5 POP SWAP2 DUP4 ADD SWAP2 PUSH2 0x209B JUMP JUMPDEST SWAP2 POP POP PUSH2 0x8A1 SWAP5 POP PUSH1 0x20 SWAP3 POP PUSH1 0xFF NOT AND DUP3 DUP5 ADD MSTORE ISZERO ISZERO PUSH1 0x5 SHL DUP3 ADD ADD CODESIZE DUP1 PUSH2 0x207A JUMP JUMPDEST SWAP9 SWAP6 SWAP2 PUSH2 0x120 SWAP9 SWAP5 SWAP12 SWAP11 SWAP8 SWAP4 PUSH2 0x211B PUSH2 0x2129 SWAP3 PUSH2 0x2148 SWAP9 SWAP5 DUP14 MSTORE PUSH1 0x20 DUP14 PUSH2 0x140 SWAP2 DUP3 SWAP2 ADD MSTORE DUP14 ADD SWAP1 PUSH2 0x636 JUMP JUMPDEST SWAP1 DUP12 DUP3 SUB PUSH1 0x40 DUP14 ADD MSTORE PUSH2 0x636 JUMP JUMPDEST SWAP11 PUSH1 0x60 DUP11 ADD MSTORE PUSH1 0x80 DUP10 ADD MSTORE PUSH1 0xA0 DUP9 ADD MSTORE PUSH1 0xC0 DUP8 ADD MSTORE PUSH1 0xE0 DUP7 ADD SWAP1 PUSH2 0xAE4 JUMP JUMPDEST ISZERO ISZERO PUSH2 0x100 DUP5 ADD MSTORE ISZERO ISZERO SWAP2 ADD MSTORE JUMP JUMPDEST CALLVALUE PUSH2 0x417 JUMPI PUSH1 0x20 CALLDATASIZE PUSH1 0x3 NOT ADD SLT PUSH2 0x417 JUMPI PUSH1 0x4 CALLDATALOAD PUSH1 0x0 MSTORE PUSH1 0x9 PUSH1 0x20 MSTORE PUSH1 0x40 PUSH1 0x0 KECCAK256 DUP1 SLOAD SWAP1 PUSH2 0x6DB PUSH2 0x218A PUSH1 0x1 DUP4 ADD PUSH2 0x204A JUMP JUMPDEST PUSH2 0x2196 PUSH1 0x2 DUP5 ADD PUSH2 0x204A JUMP JUMPDEST SWAP3 PUSH1 0x3 DUP2 ADD SLOAD SWAP5 PUSH1 0x4 DUP3 ADD SLOAD SWAP2 PUSH1 0x5 DUP2 ADD SLOAD PUSH1 0x7 PUSH1 0x6 DUP4 ADD SLOAD SWAP3 ADD SLOAD SWAP4 PUSH1 0x40 MLOAD SWAP9 DUP10 SWAP9 PUSH1 0xFF DUP8 PUSH1 0x10 SHR AND SWAP8 PUSH1 0xFF DUP1 DUP10 PUSH1 0x8 SHR AND SWAP9 AND SWAP7 DUP12 PUSH2 0x20EE JUMP JUMPDEST CALLVALUE PUSH2 0x417 JUMPI PUSH1 0x0 CALLDATASIZE PUSH1 0x3 NOT ADD SLT PUSH2 0x417 JUMPI PUSH1 0x20 PUSH1 0x40 MLOAD PUSH2 0x30D4 DUP2 MSTORE RETURN JUMPDEST CALLVALUE PUSH2 0x417 JUMPI PUSH1 0x20 CALLDATASIZE PUSH1 0x3 NOT ADD SLT PUSH2 0x417 JUMPI PUSH32 0xFAB5BCBEC79A8B5888E114FD4B378427AA58D9B237D85056F0EE5B3EA57DF8C5 PUSH1 0x20 PUSH1 0x4 CALLDATALOAD PUSH2 0x222E PUSH2 0x2349 JUMP JUMPDEST DUP1 PUSH1 0x8 SSTORE PUSH1 0x40 MLOAD SWAP1 DUP2 MSTORE LOG1 STOP JUMPDEST CALLER PUSH1 0x0 SWAP1 DUP2 MSTORE PUSH32 0x294BB43E882F8724B7AE88344D047A41612B98EE139A78F923B3689F3CC274B1 PUSH1 0x20 MSTORE PUSH1 0x40 SWAP1 KECCAK256 PUSH32 0x28F5A99355973CC89255B8C4AC88405F27C78DED7608B040EE77A8BDF44D15E2 SWAP1 PUSH1 0xFF SWAP1 JUMPDEST SLOAD AND ISZERO PUSH2 0x152E JUMPI POP JUMP JUMPDEST CALLER PUSH1 0x0 SWAP1 DUP2 MSTORE PUSH32 0x847F481F687BEFB06ED3511F1A8DCEF57E83007C0147AE5047583D7056170937 PUSH1 0x20 MSTORE PUSH1 0x40 SWAP1 KECCAK256 PUSH32 0x3C11D16CBAFFD01DF69CE1C404F6340EE057498F5F00246190EA54220576A848 SWAP1 PUSH1 0xFF SWAP1 PUSH2 0x228F JUMP JUMPDEST CALLER PUSH1 0x0 SWAP1 DUP2 MSTORE PUSH32 0x99F2891DB7A8DB76249871A02B43B68C0BB8F22EF8A3BC1034AE9375EF6B7C3C PUSH1 0x20 MSTORE PUSH1 0x40 SWAP1 KECCAK256 PUSH32 0x65D7A28E3265B37A6474929F336521B332C1681B933F6CB9F3376673440D862A SWAP1 PUSH1 0xFF SWAP1 PUSH2 0x228F JUMP JUMPDEST CALLER PUSH1 0x0 SWAP1 DUP2 MSTORE PUSH32 0x5B8CCBB9D4D8FB16EA74CE3C29A41F1B461FBDAFF4714A0D9A8EB05499746BC PUSH1 0x20 MSTORE PUSH1 0x40 SWAP1 KECCAK256 SLOAD PUSH1 0xFF AND ISZERO PUSH2 0x2382 JUMPI JUMP JUMPDEST PUSH1 0x40 MLOAD PUSH4 0xE2517D3F PUSH1 0xE0 SHL DUP2 MSTORE CALLER PUSH1 0x4 DUP3 ADD MSTORE PUSH1 0x0 PUSH1 0x24 DUP3 ADD MSTORE PUSH1 0x44 SWAP1 REVERT JUMPDEST CALLER PUSH1 0x0 SWAP1 DUP2 MSTORE PUSH32 0x15A28D26FA1BF736CF7EDC9922607171CCB09C3C73B808E7772A3013E068A522 PUSH1 0x20 MSTORE PUSH1 0x40 SWAP1 KECCAK256 PUSH32 0x9F2DF0FED2C77648DE5860A4CC508CD0818C85B8B8A1AB4CEEEF8D981C8956A6 SWAP1 PUSH1 0xFF SWAP1 PUSH2 0x228F JUMP JUMPDEST PUSH1 0x0 DUP2 DUP2 MSTORE PUSH1 0x5 PUSH1 0x20 SWAP1 DUP2 MSTORE PUSH1 0x40 DUP1 DUP4 KECCAK256 CALLER DUP5 MSTORE SWAP1 SWAP2 MSTORE SWAP1 KECCAK256 PUSH1 0xFF SWAP1 PUSH2 0x228F JUMP JUMPDEST PUSH1 0x0 SWAP1 DUP1 DUP3 MSTORE PUSH1 0x5 PUSH1 0x20 MSTORE PUSH1 0xFF PUSH2 0x2446 DUP5 PUSH1 0x40 DUP6 KECCAK256 SWAP1 PUSH1 0x1 DUP1 PUSH1 0xA0 SHL SUB AND PUSH1 0x0 MSTORE PUSH1 0x20 MSTORE PUSH1 0x40 PUSH1 0x0 KECCAK256 SWAP1 JUMP JUMPDEST SLOAD AND PUSH2 0x24AE JUMPI DUP1 DUP3 MSTORE PUSH1 0x5 PUSH1 0x20 SWAP1 DUP2 MSTORE PUSH1 0x40 DUP1 DUP5 KECCAK256 PUSH1 0x1 PUSH1 0x1 PUSH1 0xA0 SHL SUB DUP7 AND PUSH1 0x0 SWAP1 DUP2 MSTORE SWAP3 MSTORE SWAP1 KECCAK256 DUP1 SLOAD PUSH1 0xFF NOT AND PUSH1 0x1 OR SWAP1 SSTORE CALLER SWAP3 PUSH1 0x1 PUSH1 0x1 PUSH1 0xA0 SHL SUB AND SWAP2 PUSH32 0x2F8788117E7EFF1D82E926EC794901D17C78024A50270940304540A733656F0D SWAP1 DUP1 LOG4 PUSH1 0x1 SWAP1 JUMP JUMPDEST POP SWAP1 POP SWAP1 JUMP JUMPDEST PUSH1 0x0 SWAP1 DUP1 DUP3 MSTORE PUSH1 0x5 PUSH1 0x20 MSTORE PUSH1 0xFF PUSH2 0x24E0 DUP5 PUSH1 0x40 DUP6 KECCAK256 SWAP1 PUSH1 0x1 DUP1 PUSH1 0xA0 SHL SUB AND PUSH1 0x0 MSTORE PUSH1 0x20 MSTORE PUSH1 0x40 PUSH1 0x0 KECCAK256 SWAP1 JUMP JUMPDEST SLOAD AND ISZERO PUSH2 0x24AE JUMPI DUP1 DUP3 MSTORE PUSH1 0x5 PUSH1 0x20 SWAP1 DUP2 MSTORE PUSH1 0x40 DUP1 DUP5 KECCAK256 PUSH1 0x1 PUSH1 0x1 PUSH1 0xA0 SHL SUB DUP7 AND PUSH1 0x0 SWAP1 DUP2 MSTORE SWAP3 MSTORE SWAP1 KECCAK256 DUP1 SLOAD PUSH1 0xFF NOT AND SWAP1 SSTORE CALLER SWAP3 PUSH1 0x1 PUSH1 0x1 PUSH1 0xA0 SHL SUB AND SWAP2 PUSH32 0xF6391F5C32D9C69D2A47EA670B442974B53935D1EDC7FD64EB21E047A839171B SWAP1 DUP1 LOG4 PUSH1 0x1 SWAP1 JUMP JUMPDEST PUSH4 0x4E487B71 PUSH1 0xE0 SHL PUSH1 0x0 MSTORE PUSH1 0x11 PUSH1 0x4 MSTORE PUSH1 0x24 PUSH1 0x0 REVERT JUMPDEST PUSH1 0x0 NOT DUP2 EQ PUSH2 0x256B JUMPI PUSH1 0x1 ADD SWAP1 JUMP JUMPDEST PUSH2 0x2546 JUMP JUMPDEST PUSH4 0x4E487B71 PUSH1 0xE0 SHL PUSH1 0x0 MSTORE PUSH1 0x32 PUSH1 0x4 MSTORE PUSH1 0x24 PUSH1 0x0 REVERT JUMPDEST DUP1 MLOAD DUP3 LT ISZERO PUSH2 0x259A JUMPI PUSH1 0x20 SWAP2 PUSH1 0x5 SHL ADD ADD SWAP1 JUMP JUMPDEST PUSH2 0x2570 JUMP JUMPDEST SWAP2 SWAP1 SWAP2 DUP1 MLOAD DUP4 MLOAD DUP1 DUP3 SUB PUSH2 0x2642 JUMPI POP POP DUP1 MLOAD SWAP1 PUSH2 0x25BB DUP3 PUSH2 0x8A3 JUMP JUMPDEST SWAP2 PUSH2 0x25C9 PUSH1 0x40 MLOAD SWAP4 DUP5 PUSH2 0x872 JUMP JUMPDEST DUP1 DUP4 MSTORE PUSH2 0x25D8 PUSH1 0x1F NOT SWAP2 PUSH2 0x8A3 JUMP JUMPDEST ADD SWAP1 PUSH1 0x20 SWAP2 CALLDATASIZE DUP4 DUP6 ADD CALLDATACOPY PUSH1 0x0 JUMPDEST DUP2 MLOAD DUP2 LT ISZERO PUSH2 0x263A JUMPI PUSH1 0x5 DUP2 SWAP1 SHL DUP3 DUP2 ADD DUP5 ADD MLOAD SWAP1 DUP8 ADD DUP5 ADD MLOAD PUSH1 0x0 SWAP1 DUP2 MSTORE PUSH1 0x20 DUP2 DUP2 MSTORE PUSH1 0x40 DUP1 DUP4 KECCAK256 PUSH1 0x1 PUSH1 0x1 PUSH1 0xA0 SHL SUB SWAP1 SWAP5 AND DUP4 MSTORE SWAP3 SWAP1 MSTORE KECCAK256 SLOAD PUSH2 0x2635 SWAP2 SWAP1 PUSH2 0x262F DUP3 DUP8 PUSH2 0x2586 JUMP JUMPDEST MSTORE PUSH2 0x255C JUMP JUMPDEST PUSH2 0x25E5 JUMP JUMPDEST POP SWAP2 SWAP4 POP POP POP JUMP JUMPDEST PUSH1 0x40 MLOAD PUSH4 0x5B059991 PUSH1 0xE0 SHL DUP2 MSTORE PUSH1 0x4 DUP2 ADD SWAP2 SWAP1 SWAP2 MSTORE PUSH1 0x24 DUP2 ADD SWAP2 SWAP1 SWAP2 MSTORE PUSH1 0x44 SWAP1 REVERT JUMPDEST PUSH2 0x266C PUSH2 0x353B JUMP JUMPDEST PUSH1 0x1 PUSH1 0x1 PUSH1 0xA0 SHL SUB DUP2 AND DUP1 ISZERO ISZERO DUP1 DUP1 PUSH2 0x28BB JUMPI JUMPDEST PUSH2 0x2828 JUMPI JUMPDEST PUSH2 0x2696 JUMPI JUMPDEST POP SWAP1 PUSH2 0x8A1 SWAP3 SWAP2 PUSH2 0x372C JUMP JUMPDEST PUSH1 0x0 SWAP5 SWAP3 SWAP4 SWAP5 SWAP3 JUMPDEST DUP5 MLOAD DUP5 LT ISZERO PUSH2 0x281A JUMPI PUSH2 0x26B1 DUP5 DUP7 PUSH2 0x2586 JUMP JUMPDEST MLOAD SWAP5 PUSH2 0x26BD DUP6 DUP9 PUSH2 0x2586 JUMP JUMPDEST MLOAD SWAP7 PUSH1 0x0 JUMPDEST PUSH1 0xFF DUP2 AND PUSH1 0x3 DUP2 GT ISZERO DUP1 PUSH2 0x2811 JUMPI JUMPDEST ISZERO PUSH2 0x27ED JUMPI PUSH2 0x26DF DUP2 PUSH2 0x5CC JUMP JUMPDEST PUSH2 0x26FB DUP2 PUSH2 0x1665 DUP10 PUSH2 0x1862 DUP14 PUSH1 0x0 MSTORE PUSH1 0xF PUSH1 0x20 MSTORE PUSH1 0x40 PUSH1 0x0 KECCAK256 SWAP1 JUMP JUMPDEST SLOAD DUP1 PUSH2 0x2712 JUMPI JUMPDEST POP POP PUSH2 0x270D SWAP1 PUSH2 0x32F3 JUMP JUMPDEST PUSH2 0x26C2 JUMP JUMPDEST PUSH2 0x270D SWAP3 SWAP11 DUP8 DUP12 PUSH32 0x79FA03C4F76E383F2EB3D51F38E9DAA7AF8429E8573F8C1BB7D6103E878E3564 PUSH2 0x27D0 PUSH2 0x27D8 SWAP7 DUP14 SWAP7 DUP2 DUP8 DUP3 GT PUSH1 0x0 EQ PUSH2 0x27E0 JUMPI PUSH2 0x276D SWAP2 POP PUSH2 0x1665 DUP9 SWAP10 JUMPDEST PUSH2 0x1862 DUP9 PUSH1 0x0 MSTORE PUSH1 0xF PUSH1 0x20 MSTORE PUSH1 0x40 PUSH1 0x0 KECCAK256 SWAP1 JUMP JUMPDEST PUSH2 0x2778 DUP9 DUP3 SLOAD PUSH2 0x33E0 JUMP JUMPDEST SWAP1 SSTORE PUSH1 0x4 PUSH2 0x2790 DUP6 PUSH1 0x0 MSTORE PUSH1 0x9 PUSH1 0x20 MSTORE PUSH1 0x40 PUSH1 0x0 KECCAK256 SWAP1 JUMP JUMPDEST ADD PUSH2 0x279C DUP9 DUP3 SLOAD PUSH2 0x33E0 JUMP JUMPDEST SWAP1 SSTORE PUSH2 0x27B6 DUP2 PUSH2 0x1665 DUP7 PUSH1 0x0 MSTORE PUSH1 0xC PUSH1 0x20 MSTORE PUSH1 0x40 PUSH1 0x0 KECCAK256 SWAP1 JUMP JUMPDEST PUSH2 0x27C1 DUP9 DUP3 SLOAD PUSH2 0x33E0 JUMP JUMPDEST SWAP1 SSTORE PUSH1 0x40 MLOAD SWAP2 DUP3 SWAP2 DUP9 DUP4 PUSH2 0x3439 JUMP JUMPDEST SUB SWAP1 LOG3 PUSH2 0x33E0 JUMP JUMPDEST SWAP9 SWAP1 CODESIZE PUSH2 0x2702 JUMP JUMPDEST PUSH2 0x1665 PUSH2 0x276D SWAP3 SWAP10 PUSH2 0x2759 JUMP JUMPDEST POP POP SWAP6 POP SWAP2 SWAP6 SWAP4 PUSH2 0x2802 PUSH2 0x2807 SWAP3 SWAP6 ISZERO PUSH2 0x36D4 JUMP JUMPDEST PUSH2 0x255C JUMP JUMPDEST SWAP3 SWAP5 SWAP1 SWAP4 SWAP5 PUSH2 0x269E JUMP JUMPDEST POP DUP10 ISZERO ISZERO PUSH2 0x26D1 JUMP JUMPDEST SWAP5 SWAP4 SWAP3 POP PUSH2 0x8A1 SWAP1 POP PUSH2 0x268A JUMP JUMPDEST SWAP4 SWAP2 SWAP1 PUSH1 0x0 JUMPDEST DUP5 MLOAD DUP2 LT ISZERO PUSH2 0x2876 JUMPI DUP1 PUSH2 0x2802 PUSH2 0x286C PUSH1 0x7 PUSH2 0x2861 PUSH2 0x2850 PUSH2 0x2871 SWAP7 DUP12 PUSH2 0x2586 JUMP JUMPDEST MLOAD PUSH1 0x0 MSTORE PUSH1 0x9 PUSH1 0x20 MSTORE PUSH1 0x40 PUSH1 0x0 KECCAK256 SWAP1 JUMP JUMPDEST ADD SLOAD PUSH1 0x10 SHR PUSH1 0xFF AND SWAP1 JUMP JUMPDEST PUSH2 0x363C JUMP JUMPDEST PUSH2 0x282E JUMP JUMPDEST POP PUSH1 0x0 DUP1 MSTORE PUSH1 0xD PUSH1 0x20 MSTORE SWAP2 SWAP4 SWAP1 SWAP2 SWAP1 PUSH2 0x28B6 PUSH2 0x28B1 PUSH32 0x81955A0A11E65EAC625C29E8882660BAE4E165A75D72780094ACAE8ECE9A29EE PUSH2 0x16F7 JUMP JUMPDEST PUSH2 0x3688 JUMP JUMPDEST PUSH2 0x2685 JUMP JUMPDEST POP PUSH1 0x0 PUSH2 0x2680 JUMP JUMPDEST SWAP2 SWAP4 SWAP3 SWAP1 PUSH2 0x28CF PUSH2 0x353B JUMP JUMPDEST PUSH1 0x1 PUSH1 0x1 PUSH1 0xA0 SHL SUB DUP4 DUP2 AND DUP1 ISZERO ISZERO DUP1 DUP1 PUSH2 0x2B2B JUMPI JUMPDEST PUSH2 0x2ACB JUMPI JUMPDEST PUSH2 0x2940 JUMPI JUMPDEST POP PUSH2 0x28FB DUP4 DUP8 DUP5 DUP8 PUSH2 0x37E7 JUMP JUMPDEST DUP2 AND PUSH2 0x2909 JUMPI JUMPDEST POP POP POP POP POP JUMP JUMPDEST DUP5 MLOAD PUSH1 0x1 SUB PUSH2 0x292F JUMPI PUSH1 0x20 DUP1 PUSH2 0x2925 SWAP7 ADD MLOAD SWAP3 ADD MLOAD SWAP3 CALLER PUSH2 0x2CEC JUMP JUMPDEST CODESIZE DUP1 DUP1 DUP1 DUP1 PUSH2 0x2902 JUMP JUMPDEST PUSH2 0x293B SWAP5 SWAP2 SWAP3 CALLER PUSH2 0x2E38 JUMP JUMPDEST PUSH2 0x2925 JUMP JUMPDEST SWAP2 SWAP7 SWAP6 PUSH1 0x0 SWAP6 SWAP2 SWAP6 SWAP7 JUMPDEST DUP2 MLOAD DUP9 LT ISZERO PUSH2 0x2ABF JUMPI PUSH2 0x295D DUP9 DUP4 PUSH2 0x2586 JUMP JUMPDEST MLOAD SWAP3 PUSH2 0x2969 DUP10 DUP8 PUSH2 0x2586 JUMP JUMPDEST MLOAD SWAP6 PUSH1 0x0 JUMPDEST PUSH1 0xFF DUP2 AND DUP13 PUSH1 0x3 DUP3 GT ISZERO DUP1 PUSH2 0x2AB6 JUMPI JUMPDEST ISZERO PUSH2 0x2A96 JUMPI SWAP1 DUP11 SWAP2 DUP13 PUSH2 0x29AC DUP4 PUSH2 0x1665 DUP7 PUSH2 0x1862 DUP15 PUSH2 0x299C DUP6 PUSH2 0x5CC JUMP JUMPDEST PUSH1 0x0 MSTORE PUSH1 0xF PUSH1 0x20 MSTORE PUSH1 0x40 PUSH1 0x0 KECCAK256 SWAP1 JUMP JUMPDEST SLOAD DUP1 PUSH2 0x29C6 JUMPI JUMPDEST POP POP POP POP POP PUSH2 0x29C1 SWAP1 PUSH2 0x32F3 JUMP JUMPDEST PUSH2 0x296E JUMP JUMPDEST PUSH2 0x2A4D SWAP5 SWAP4 PUSH2 0x29C1 SWAP7 SWAP14 SWAP4 DUP14 SWAP4 DUP14 SWAP4 DUP4 DUP8 DUP3 GT PUSH1 0x0 EQ PUSH2 0x2A89 JUMPI PUSH2 0x29FE SWAP2 POP PUSH2 0x1665 DUP9 SWAP10 PUSH2 0x1862 DUP9 PUSH1 0x0 MSTORE PUSH1 0xF PUSH1 0x20 MSTORE PUSH1 0x40 PUSH1 0x0 KECCAK256 SWAP1 JUMP JUMPDEST PUSH2 0x2A09 DUP9 DUP3 SLOAD PUSH2 0x33E0 JUMP JUMPDEST SWAP1 SSTORE DUP2 AND PUSH2 0x2A5A JUMPI POP PUSH2 0x27D0 PUSH32 0x79FA03C4F76E383F2EB3D51F38E9DAA7AF8429E8573F8C1BB7D6103E878E3564 SWAP2 PUSH1 0x4 PUSH2 0x2790 DUP6 PUSH1 0x0 MSTORE PUSH1 0x9 PUSH1 0x20 MSTORE PUSH1 0x40 PUSH1 0x0 KECCAK256 SWAP1 JUMP JUMPDEST SWAP8 SWAP1 POP DUP9 CODESIZE DUP14 DUP13 DUP3 PUSH2 0x29B3 JUMP JUMPDEST PUSH2 0x2A77 SWAP4 POP PUSH2 0x1862 PUSH2 0x1665 SWAP3 SWAP4 PUSH1 0x0 MSTORE PUSH1 0xF PUSH1 0x20 MSTORE PUSH1 0x40 PUSH1 0x0 KECCAK256 SWAP1 JUMP JUMPDEST PUSH2 0x2A82 DUP4 DUP3 SLOAD PUSH2 0x2EB9 JUMP JUMPDEST SWAP1 SSTORE PUSH2 0x33E0 JUMP JUMPDEST PUSH2 0x1665 PUSH2 0x29FE SWAP3 SWAP10 PUSH2 0x2759 JUMP JUMPDEST POP POP POP SWAP6 PUSH2 0x2AAE SWAP3 SWAP4 SWAP5 POP PUSH2 0x2802 SWAP1 SWAP10 SWAP2 SWAP10 ISZERO PUSH2 0x36D4 JUMP JUMPDEST SWAP7 SWAP2 SWAP1 PUSH2 0x294A JUMP JUMPDEST POP DUP10 ISZERO ISZERO PUSH2 0x297E JUMP JUMPDEST SWAP8 SWAP3 POP SWAP6 POP SWAP4 CODESIZE PUSH2 0x28EE JUMP JUMPDEST SWAP8 SWAP6 SWAP5 SWAP4 SWAP3 SWAP2 SWAP1 PUSH1 0x0 JUMPDEST DUP9 MLOAD DUP2 LT ISZERO PUSH2 0x2AFC JUMPI DUP1 PUSH2 0x2802 PUSH2 0x286C PUSH1 0x7 PUSH2 0x2861 PUSH2 0x2850 PUSH2 0x2AF7 SWAP7 DUP16 PUSH2 0x2586 JUMP JUMPDEST PUSH2 0x2AD5 JUMP JUMPDEST POP SWAP1 SWAP2 SWAP3 SWAP4 SWAP5 SWAP6 SWAP8 PUSH2 0x2B26 PUSH2 0x28B1 PUSH2 0x16F7 DUP7 PUSH1 0x1 DUP1 PUSH1 0xA0 SHL SUB AND PUSH1 0x0 MSTORE PUSH1 0xD PUSH1 0x20 MSTORE PUSH1 0x40 PUSH1 0x0 KECCAK256 SWAP1 JUMP JUMPDEST PUSH2 0x28E9 JUMP JUMPDEST POP DUP3 DUP5 AND ISZERO ISZERO PUSH2 0x28E4 JUMP JUMPDEST SWAP1 DUP2 PUSH1 0x20 SWAP2 SUB SLT PUSH2 0x417 JUMPI MLOAD PUSH2 0xB92 DUP2 PUSH2 0x493 JUMP JUMPDEST SWAP1 SWAP3 PUSH1 0xA0 SWAP3 PUSH2 0xB92 SWAP6 SWAP5 PUSH1 0x1 DUP1 DUP7 SHL SUB AND DUP4 MSTORE PUSH1 0x0 PUSH1 0x20 DUP5 ADD MSTORE PUSH1 0x40 DUP4 ADD MSTORE PUSH1 0x60 DUP3 ADD MSTORE DUP2 PUSH1 0x80 DUP3 ADD MSTORE ADD SWAP1 PUSH2 0x636 JUMP JUMPDEST SWAP2 SWAP3 PUSH2 0xB92 SWAP6 SWAP5 SWAP2 PUSH1 0xA0 SWAP5 PUSH1 0x1 DUP1 DUP8 SHL SUB DUP1 SWAP3 AND DUP6 MSTORE AND PUSH1 0x20 DUP5 ADD MSTORE PUSH1 0x40 DUP4 ADD MSTORE PUSH1 0x60 DUP3 ADD MSTORE DUP2 PUSH1 0x80 DUP3 ADD MSTORE ADD SWAP1 PUSH2 0x636 JUMP JUMPDEST PUSH1 0x40 MLOAD SWAP1 PUSH2 0x2BBC DUP3 PUSH2 0x856 JUMP JUMPDEST PUSH1 0x0 DUP3 MSTORE JUMP JUMPDEST RETURNDATASIZE ISZERO PUSH2 0x2BED JUMPI RETURNDATASIZE SWAP1 PUSH2 0x2BD3 DUP3 PUSH2 0x919 JUMP JUMPDEST SWAP2 PUSH2 0x2BE1 PUSH1 0x40 MLOAD SWAP4 DUP5 PUSH2 0x872 JUMP JUMPDEST DUP3 MSTORE RETURNDATASIZE PUSH1 0x0 PUSH1 0x20 DUP5 ADD RETURNDATACOPY JUMP JUMPDEST PUSH1 0x60 SWAP1 JUMP JUMPDEST SWAP3 SWAP4 SWAP2 SWAP1 SWAP4 DUP5 EXTCODESIZE PUSH2 0x2C04 JUMPI POP POP POP POP POP JUMP JUMPDEST PUSH1 0x20 SWAP2 PUSH2 0x2C27 PUSH1 0x40 MLOAD SWAP5 DUP6 SWAP4 DUP5 SWAP4 PUSH4 0xF23A6E61 PUSH1 0xE0 SHL SWAP9 DUP10 DUP7 MSTORE PUSH1 0x4 DUP7 ADD PUSH2 0x2B4B JUMP JUMPDEST SUB DUP2 PUSH1 0x0 PUSH1 0x1 PUSH1 0x1 PUSH1 0xA0 SHL SUB DUP9 AND GAS CALL PUSH1 0x0 SWAP2 DUP2 PUSH2 0x2CBC JUMPI JUMPDEST POP PUSH2 0x2C7F JUMPI DUP3 PUSH2 0x2C4E PUSH2 0x2BC2 JUMP JUMPDEST DUP1 MLOAD SWAP2 SWAP1 DUP3 PUSH2 0x2C78 JUMPI PUSH1 0x40 MLOAD PUSH4 0x2BFA23E7 PUSH1 0xE1 SHL DUP2 MSTORE PUSH1 0x1 PUSH1 0x1 PUSH1 0xA0 SHL SUB DUP4 AND PUSH1 0x4 DUP3 ADD MSTORE PUSH1 0x24 SWAP1 REVERT JUMPDEST SWAP1 POP PUSH1 0x20 ADD REVERT JUMPDEST PUSH1 0x1 PUSH1 0x1 PUSH1 0xE0 SHL SUB NOT AND SUB PUSH2 0x2C99 JUMPI POP CODESIZE DUP1 DUP1 DUP1 DUP1 PUSH2 0x2902 JUMP JUMPDEST PUSH1 0x40 MLOAD PUSH4 0x2BFA23E7 PUSH1 0xE1 SHL DUP2 MSTORE PUSH1 0x1 PUSH1 0x1 PUSH1 0xA0 SHL SUB SWAP2 SWAP1 SWAP2 AND PUSH1 0x4 DUP3 ADD MSTORE PUSH1 0x24 SWAP1 REVERT JUMPDEST PUSH2 0x2CDE SWAP2 SWAP3 POP PUSH1 0x20 RETURNDATASIZE DUP2 GT PUSH2 0x2CE5 JUMPI JUMPDEST PUSH2 0x2CD6 DUP2 DUP4 PUSH2 0x872 JUMP JUMPDEST DUP2 ADD SWAP1 PUSH2 0x2B36 JUMP JUMPDEST SWAP1 CODESIZE PUSH2 0x2C40 JUMP JUMPDEST POP RETURNDATASIZE PUSH2 0x2CCC JUMP JUMPDEST SWAP4 SWAP3 SWAP1 SWAP5 SWAP2 SWAP5 DUP6 EXTCODESIZE PUSH2 0x2D01 JUMPI JUMPDEST POP POP POP POP POP POP JUMP JUMPDEST PUSH2 0x2D24 PUSH1 0x20 SWAP4 PUSH1 0x40 MLOAD SWAP6 DUP7 SWAP5 DUP6 SWAP5 PUSH4 0xF23A6E61 PUSH1 0xE0 SHL SWAP10 DUP11 DUP8 MSTORE PUSH1 0x4 DUP8 ADD PUSH2 0x2B7C JUMP JUMPDEST SUB DUP2 PUSH1 0x0 PUSH1 0x1 PUSH1 0x1 PUSH1 0xA0 SHL SUB DUP9 AND GAS CALL PUSH1 0x0 SWAP2 DUP2 PUSH2 0x2D66 JUMPI JUMPDEST POP PUSH2 0x2D4B JUMPI DUP3 PUSH2 0x2C4E PUSH2 0x2BC2 JUMP JUMPDEST PUSH1 0x1 PUSH1 0x1 PUSH1 0xE0 SHL SUB NOT AND SUB PUSH2 0x2C99 JUMPI POP CODESIZE DUP1 DUP1 DUP1 DUP1 DUP1 PUSH2 0x2CF9 JUMP JUMPDEST PUSH2 0x2D7F SWAP2 SWAP3 POP PUSH1 0x20 RETURNDATASIZE DUP2 GT PUSH2 0x2CE5 JUMPI PUSH2 0x2CD6 DUP2 DUP4 PUSH2 0x872 JUMP JUMPDEST SWAP1 CODESIZE PUSH2 0x2D3D JUMP JUMPDEST SWAP3 PUSH2 0x2DB5 PUSH2 0xB92 SWAP6 SWAP4 PUSH2 0x2DC3 SWAP4 PUSH1 0x1 DUP1 PUSH1 0xA0 SHL SUB AND DUP7 MSTORE PUSH1 0x0 PUSH1 0x20 DUP8 ADD MSTORE PUSH1 0xA0 PUSH1 0x40 DUP8 ADD MSTORE PUSH1 0xA0 DUP7 ADD SWAP1 PUSH2 0xEB4 JUMP JUMPDEST SWAP1 DUP5 DUP3 SUB PUSH1 0x60 DUP7 ADD MSTORE PUSH2 0xEB4 JUMP JUMPDEST SWAP2 PUSH1 0x80 DUP2 DUP5 SUB SWAP2 ADD MSTORE PUSH2 0x636 JUMP JUMPDEST SWAP4 SWAP1 PUSH2 0xB92 SWAP6 SWAP4 PUSH2 0x2DB5 SWAP2 PUSH2 0x2DC3 SWAP5 PUSH1 0x1 DUP1 PUSH1 0xA0 SHL SUB DUP1 SWAP3 AND DUP9 MSTORE AND PUSH1 0x20 DUP8 ADD MSTORE PUSH1 0xA0 PUSH1 0x40 DUP8 ADD MSTORE PUSH1 0xA0 DUP7 ADD SWAP1 PUSH2 0xEB4 JUMP JUMPDEST SWAP3 SWAP4 SWAP2 SWAP1 SWAP4 DUP5 EXTCODESIZE PUSH2 0x2E15 JUMPI POP POP POP POP POP JUMP JUMPDEST PUSH1 0x20 SWAP2 PUSH2 0x2C27 PUSH1 0x40 MLOAD SWAP5 DUP6 SWAP4 DUP5 SWAP4 PUSH4 0xBC197C81 PUSH1 0xE0 SHL SWAP9 DUP10 DUP7 MSTORE PUSH1 0x4 DUP7 ADD PUSH2 0x2D86 JUMP JUMPDEST SWAP4 SWAP3 SWAP1 SWAP5 SWAP2 SWAP5 DUP6 EXTCODESIZE PUSH2 0x2E4C JUMPI POP POP POP POP POP POP JUMP JUMPDEST PUSH2 0x2D24 PUSH1 0x20 SWAP4 PUSH1 0x40 MLOAD SWAP6 DUP7 SWAP5 DUP6 SWAP5 PUSH4 0xBC197C81 PUSH1 0xE0 SHL SWAP10 DUP11 DUP8 MSTORE PUSH1 0x4 DUP8 ADD PUSH2 0x2DD1 JUMP JUMPDEST SWAP1 PUSH1 0x1 PUSH1 0x1 PUSH1 0xA0 SHL SUB DUP3 AND ISZERO PUSH2 0x13B9 JUMPI PUSH2 0x8A1 SWAP3 PUSH2 0x2EAA PUSH1 0x40 MLOAD SWAP3 PUSH1 0x1 DUP5 MSTORE PUSH1 0x20 DUP5 ADD MSTORE PUSH1 0x40 DUP4 ADD SWAP2 PUSH1 0x1 DUP4 MSTORE PUSH1 0x60 DUP5 ADD MSTORE PUSH1 0x80 DUP4 ADD PUSH1 0x40 MSTORE JUMP JUMPDEST SWAP2 PUSH1 0x0 PUSH1 0x40 MLOAD PUSH2 0x13B3 DUP2 PUSH2 0x856 JUMP JUMPDEST SWAP2 SWAP1 DUP3 ADD DUP1 SWAP3 GT PUSH2 0x256B JUMPI JUMP JUMPDEST PUSH1 0x4 DUP3 LT ISZERO PUSH2 0x5D6 JUMPI MSTORE JUMP JUMPDEST SWAP1 PUSH1 0x1F DUP2 GT PUSH2 0x2EE0 JUMPI POP POP POP JUMP JUMPDEST PUSH1 0x0 SWAP2 DUP3 MSTORE PUSH1 0x20 DUP3 KECCAK256 SWAP1 PUSH1 0x20 PUSH1 0x1F DUP6 ADD PUSH1 0x5 SHR DUP4 ADD SWAP5 LT PUSH2 0x2F1C JUMPI JUMPDEST PUSH1 0x1F ADD PUSH1 0x5 SHR ADD SWAP2 JUMPDEST DUP3 DUP2 LT PUSH2 0x2F11 JUMPI POP POP POP JUMP JUMPDEST DUP2 DUP2 SSTORE PUSH1 0x1 ADD PUSH2 0x2F05 JUMP JUMPDEST SWAP1 SWAP3 POP DUP3 SWAP1 PUSH2 0x2EFC JUMP JUMPDEST SWAP2 SWAP1 SWAP2 DUP3 MLOAD PUSH8 0xFFFFFFFFFFFFFFFF DUP2 GT PUSH2 0x851 JUMPI PUSH2 0x2F4E DUP2 PUSH2 0x2F48 DUP5 SLOAD PUSH2 0x2010 JUMP JUMPDEST DUP5 PUSH2 0x2ED2 JUMP JUMPDEST PUSH1 0x20 DUP1 PUSH1 0x1F DUP4 GT PUSH1 0x1 EQ PUSH2 0x2F8A JUMPI POP DUP2 SWAP3 SWAP4 SWAP5 PUSH1 0x0 SWAP3 PUSH2 0x2F7F JUMPI JUMPDEST POP POP DUP2 PUSH1 0x1 SHL SWAP2 PUSH1 0x0 NOT SWAP1 PUSH1 0x3 SHL SHR NOT AND OR SWAP1 SSTORE JUMP JUMPDEST ADD MLOAD SWAP1 POP CODESIZE DUP1 PUSH2 0x2F69 JUMP JUMPDEST SWAP1 PUSH1 0x1F NOT DUP4 AND SWAP6 PUSH2 0x2FA0 DUP6 PUSH1 0x0 MSTORE PUSH1 0x20 PUSH1 0x0 KECCAK256 SWAP1 JUMP JUMPDEST SWAP3 PUSH1 0x0 SWAP1 JUMPDEST DUP9 DUP3 LT PUSH2 0x2FDD JUMPI POP POP DUP4 PUSH1 0x1 SWAP6 SWAP7 SWAP8 LT PUSH2 0x2FC4 JUMPI JUMPDEST POP POP POP DUP2 SHL ADD SWAP1 SSTORE JUMP JUMPDEST ADD MLOAD PUSH1 0x0 NOT PUSH1 0xF8 DUP5 PUSH1 0x3 SHL AND SHR NOT AND SWAP1 SSTORE CODESIZE DUP1 DUP1 PUSH2 0x2FBA JUMP JUMPDEST DUP1 PUSH1 0x1 DUP6 SWAP7 DUP3 SWAP5 SWAP7 DUP7 ADD MLOAD DUP2 SSTORE ADD SWAP6 ADD SWAP4 ADD SWAP1 PUSH2 0x2FA5 JUMP JUMPDEST SWAP1 PUSH1 0x4 DUP2 LT ISZERO PUSH2 0x5D6 JUMPI PUSH1 0xFF DUP1 NOT DUP4 SLOAD AND SWAP2 AND OR SWAP1 SSTORE JUMP JUMPDEST SWAP1 PUSH2 0x30AF PUSH2 0x120 PUSH1 0x7 PUSH2 0x8A1 SWAP5 DUP5 MLOAD DUP2 SSTORE PUSH2 0x302F PUSH1 0x20 DUP7 ADD MLOAD PUSH1 0x1 DUP4 ADD PUSH2 0x2F26 JUMP JUMPDEST PUSH2 0x3040 PUSH1 0x40 DUP7 ADD MLOAD PUSH1 0x2 DUP4 ADD PUSH2 0x2F26 JUMP JUMPDEST PUSH1 0x60 DUP6 ADD MLOAD PUSH1 0x3 DUP3 ADD SSTORE PUSH1 0x80 DUP6 ADD MLOAD PUSH1 0x4 DUP3 ADD SSTORE PUSH1 0xA0 DUP6 ADD MLOAD PUSH1 0x5 DUP3 ADD SSTORE PUSH1 0xC0 DUP6 ADD MLOAD PUSH1 0x6 DUP3 ADD SSTORE ADD SWAP3 PUSH2 0x3081 PUSH1 0xE0 DUP3 ADD MLOAD PUSH2 0x307B DUP2 PUSH2 0x5CC JUMP JUMPDEST DUP6 PUSH2 0x2FF5 JUMP JUMPDEST PUSH2 0x30A8 PUSH2 0x3092 PUSH2 0x100 DUP4 ADD MLOAD ISZERO ISZERO SWAP1 JUMP JUMPDEST DUP6 SLOAD PUSH2 0xFF00 NOT AND SWAP1 ISZERO ISZERO PUSH1 0x8 SHL PUSH2 0xFF00 AND OR DUP6 SSTORE JUMP JUMPDEST ADD MLOAD ISZERO ISZERO SWAP1 JUMP JUMPDEST DUP2 SLOAD PUSH3 0xFF0000 NOT AND SWAP1 ISZERO ISZERO PUSH1 0x10 SHL PUSH3 0xFF0000 AND OR SWAP1 SSTORE JUMP JUMPDEST SWAP1 PUSH2 0xFA0 SWAP2 DUP3 DUP2 MUL SWAP3 DUP2 DUP5 DIV EQ SWAP1 ISZERO OR ISZERO PUSH2 0x256B JUMPI JUMP JUMPDEST SWAP1 PUSH2 0xBB8 SWAP2 DUP3 DUP2 MUL SWAP3 DUP2 DUP5 DIV EQ SWAP1 ISZERO OR ISZERO PUSH2 0x256B JUMPI JUMP JUMPDEST SWAP1 PUSH2 0x7D0 SWAP2 DUP3 DUP2 MUL SWAP3 DUP2 DUP5 DIV EQ SWAP1 ISZERO OR ISZERO PUSH2 0x256B JUMPI JUMP JUMPDEST SWAP1 PUSH2 0x3E8 SWAP2 DUP3 DUP2 MUL SWAP3 DUP2 DUP5 DIV EQ SWAP1 ISZERO OR ISZERO PUSH2 0x256B JUMPI JUMP JUMPDEST DUP2 DUP2 MUL SWAP3 SWAP2 DUP2 ISZERO SWAP2 DUP5 DIV EQ OR ISZERO PUSH2 0x256B JUMPI JUMP JUMPDEST PUSH2 0x314E PUSH1 0x40 SWAP3 SWAP6 SWAP5 SWAP4 SWAP6 PUSH1 0x60 DUP4 MSTORE PUSH1 0x60 DUP4 ADD SWAP1 PUSH2 0x636 JUMP JUMPDEST SWAP5 PUSH1 0x20 DUP3 ADD MSTORE ADD MSTORE JUMP JUMPDEST DUP1 PUSH1 0x0 MSTORE PUSH1 0x11 PUSH1 0x20 MSTORE PUSH1 0x40 PUSH1 0x0 KECCAK256 SLOAD ISZERO PUSH1 0x0 EQ PUSH2 0x31CE JUMPI PUSH1 0x10 SLOAD PUSH9 0x10000000000000000 DUP2 LT ISZERO PUSH2 0x851 JUMPI PUSH1 0x1 DUP2 ADD DUP1 PUSH1 0x10 SSTORE DUP2 LT ISZERO PUSH2 0x259A JUMPI DUP2 SWAP1 PUSH32 0x1B6847DC741A1B0CD08D278845F9D819D87B734759AFB55FE2DE5CB82A9AE672 ADD SSTORE PUSH1 0x10 SLOAD SWAP1 PUSH1 0x0 MSTORE PUSH1 0x11 PUSH1 0x20 MSTORE PUSH1 0x40 PUSH1 0x0 KECCAK256 SSTORE PUSH1 0x1 SWAP1 JUMP JUMPDEST POP PUSH1 0x0 SWAP1 JUMP JUMPDEST ISZERO PUSH2 0x31DB JUMPI JUMP JUMPDEST PUSH1 0x40 MLOAD PUSH3 0x461BCD PUSH1 0xE5 SHL DUP2 MSTORE PUSH1 0x20 PUSH1 0x4 DUP3 ADD MSTORE PUSH1 0x13 PUSH1 0x24 DUP3 ADD MSTORE PUSH19 0x50726F7065727479206E6F7420616374697665 PUSH1 0x68 SHL PUSH1 0x44 DUP3 ADD MSTORE PUSH1 0x64 SWAP1 REVERT JUMPDEST PUSH1 0x0 MSTORE PUSH1 0x9 PUSH1 0x20 MSTORE PUSH1 0xFF PUSH1 0x7 PUSH1 0x40 PUSH1 0x0 KECCAK256 ADD SLOAD PUSH2 0x3237 DUP3 DUP3 PUSH1 0x8 SHR AND PUSH2 0x31D4 JUMP JUMPDEST AND PUSH2 0x3241 DUP2 PUSH2 0x5CC JUMP JUMPDEST DUP1 PUSH2 0x325B JUMPI POP PUSH2 0x2710 PUSH2 0x3257 DUP2 JUMPDEST PUSH1 0x8 SLOAD PUSH2 0x3123 JUMP JUMPDEST DIV SWAP1 JUMP JUMPDEST PUSH2 0x3264 DUP2 PUSH2 0x5CC JUMP JUMPDEST PUSH1 0x1 DUP2 SUB PUSH2 0x327B JUMPI POP PUSH2 0x2710 PUSH2 0x3257 PUSH2 0x3A98 PUSH2 0x324F JUMP JUMPDEST DUP1 PUSH2 0x3287 PUSH1 0x2 SWAP3 PUSH2 0x5CC JUMP JUMPDEST SUB PUSH2 0x329A JUMPI PUSH2 0x2710 PUSH2 0x3257 PUSH2 0x57E4 PUSH2 0x324F JUMP JUMPDEST PUSH2 0x2710 PUSH2 0x3257 PUSH2 0x7530 PUSH2 0x324F JUMP JUMPDEST PUSH1 0x4 DUP2 LT ISZERO PUSH2 0x5D6 JUMPI DUP1 ISZERO PUSH2 0x32EC JUMPI PUSH2 0x32C0 DUP2 PUSH2 0x5CC JUMP JUMPDEST PUSH1 0x1 DUP2 EQ PUSH2 0x32E5 JUMPI DUP1 PUSH2 0x32D4 PUSH1 0x2 SWAP3 PUSH2 0x5CC JUMP JUMPDEST EQ PUSH2 0x32DF JUMPI PUSH2 0x1D4C SWAP1 JUMP JUMPDEST PUSH2 0x2710 SWAP1 JUMP JUMPDEST POP PUSH2 0x30D4 SWAP1 JUMP JUMPDEST POP PUSH2 0x3A98 SWAP1 JUMP JUMPDEST PUSH1 0xFF AND PUSH1 0xFF DUP2 EQ PUSH2 0x256B JUMPI PUSH1 0x1 ADD SWAP1 JUMP JUMPDEST PUSH1 0xFF AND PUSH1 0x4 DUP2 LT ISZERO PUSH2 0x5D6 JUMPI SWAP1 JUMP JUMPDEST ISZERO PUSH2 0x331A JUMPI JUMP JUMPDEST PUSH1 0x40 MLOAD PUSH3 0x461BCD PUSH1 0xE5 SHL DUP2 MSTORE PUSH1 0x20 PUSH1 0x4 DUP3 ADD MSTORE PUSH1 0x15 PUSH1 0x24 DUP3 ADD MSTORE PUSH21 0x109D5E595C881B9BDD081DDA1A5D195B1A5CDD1959 PUSH1 0x5A SHL PUSH1 0x44 DUP3 ADD MSTORE PUSH1 0x64 SWAP1 REVERT JUMPDEST ISZERO PUSH2 0x335E JUMPI JUMP JUMPDEST PUSH1 0x40 MLOAD PUSH3 0x461BCD PUSH1 0xE5 SHL DUP2 MSTORE PUSH1 0x20 PUSH1 0x4 DUP3 ADD MSTORE PUSH1 0xE PUSH1 0x24 DUP3 ADD MSTORE PUSH14 0x119D5B991A5B99C818DB1BDCD959 PUSH1 0x92 SHL PUSH1 0x44 DUP3 ADD MSTORE PUSH1 0x64 SWAP1 REVERT JUMPDEST ISZERO PUSH2 0x339B JUMPI JUMP JUMPDEST PUSH1 0x40 MLOAD PUSH3 0x461BCD PUSH1 0xE5 SHL DUP2 MSTORE PUSH1 0x20 PUSH1 0x4 DUP3 ADD MSTORE PUSH1 0x1E PUSH1 0x24 DUP3 ADD MSTORE PUSH32 0x4E6F7420656C696769626C6520666F722063757272656E742070686173650000 PUSH1 0x44 DUP3 ADD MSTORE PUSH1 0x64 SWAP1 REVERT JUMPDEST SWAP2 SWAP1 DUP3 SUB SWAP2 DUP3 GT PUSH2 0x256B JUMPI JUMP JUMPDEST ISZERO PUSH2 0x33F4 JUMPI JUMP JUMPDEST PUSH1 0x40 MLOAD PUSH3 0x461BCD PUSH1 0xE5 SHL DUP2 MSTORE PUSH1 0x20 PUSH1 0x4 DUP3 ADD MSTORE PUSH1 0x18 PUSH1 0x24 DUP3 ADD MSTORE PUSH32 0x4578636565647320706861736520616C6C6F636174696F6E0000000000000000 PUSH1 0x44 DUP3 ADD MSTORE PUSH1 0x64 SWAP1 REVERT JUMPDEST SWAP1 DUP2 MSTORE PUSH1 0x40 DUP2 ADD SWAP3 SWAP2 PUSH2 0x8A1 SWAP2 PUSH1 0x20 ADD SWAP1 PUSH2 0xAE4 JUMP JUMPDEST SWAP4 SWAP2 PUSH1 0x1 PUSH1 0x1 PUSH1 0xA0 SHL SUB DUP6 AND ISZERO PUSH2 0x1F19 JUMPI PUSH2 0x3487 PUSH1 0x40 MLOAD SWAP3 PUSH1 0x1 DUP5 MSTORE PUSH1 0x20 DUP5 ADD MSTORE PUSH1 0x40 DUP4 ADD SWAP2 PUSH1 0x1 DUP4 MSTORE PUSH1 0x60 DUP5 ADD MSTORE PUSH1 0x80 DUP4 ADD PUSH1 0x40 MSTORE JUMP JUMPDEST SWAP1 SWAP2 PUSH2 0x3491 PUSH2 0x353B JUMP JUMPDEST PUSH2 0x349C DUP3 DUP5 DUP8 PUSH2 0x38AE JUMP JUMPDEST PUSH1 0x0 SWAP5 DUP6 JUMPDEST DUP5 MLOAD DUP8 LT ISZERO PUSH2 0x34F9 JUMPI PUSH2 0x34ED PUSH2 0x34F3 SWAP2 PUSH2 0x34BB DUP10 DUP8 PUSH2 0x2586 JUMP JUMPDEST MLOAD SWAP1 PUSH2 0x34DB PUSH2 0x34CA DUP12 DUP11 PUSH2 0x2586 JUMP JUMPDEST MLOAD PUSH1 0x0 MSTORE PUSH1 0x3 PUSH1 0x20 MSTORE PUSH1 0x40 PUSH1 0x0 KECCAK256 SWAP1 JUMP JUMPDEST PUSH2 0x34E6 DUP4 DUP3 SLOAD PUSH2 0x2EB9 JUMP JUMPDEST SWAP1 SSTORE PUSH2 0x2EB9 JUMP JUMPDEST SWAP7 PUSH2 0x255C JUMP JUMPDEST SWAP6 PUSH2 0x34A1 JUMP JUMPDEST PUSH2 0x3513 SWAP2 SWAP6 SWAP5 SWAP3 SWAP7 POP PUSH2 0x350E SWAP1 PUSH1 0x4 SLOAD PUSH2 0x2EB9 JUMP JUMPDEST PUSH1 0x4 SSTORE JUMP JUMPDEST DUP1 MLOAD PUSH1 0x1 SUB PUSH2 0x3531 JUMPI SWAP1 PUSH1 0x20 DUP1 PUSH2 0x8A1 SWAP6 SWAP4 ADD MLOAD SWAP2 ADD MLOAD SWAP2 CALLER PUSH2 0x2BF2 JUMP JUMPDEST PUSH2 0x8A1 SWAP4 CALLER PUSH2 0x2E03 JUMP JUMPDEST PUSH1 0xFF PUSH1 0x6 SLOAD AND PUSH2 0x3547 JUMPI JUMP JUMPDEST PUSH1 0x40 MLOAD PUSH4 0xD93C0665 PUSH1 0xE0 SHL DUP2 MSTORE PUSH1 0x4 SWAP1 REVERT JUMPDEST PUSH1 0xFF PUSH1 0x1 SWAP2 AND ADD SWAP1 PUSH1 0xFF DUP3 GT PUSH2 0x256B JUMPI JUMP JUMPDEST DUP1 PUSH1 0x0 MSTORE PUSH1 0x9 PUSH1 0x20 MSTORE PUSH1 0x7 PUSH1 0x40 PUSH1 0x0 KECCAK256 ADD PUSH1 0xFF DUP2 SLOAD PUSH2 0x358E DUP3 DUP3 PUSH1 0x8 SHR AND PUSH2 0x31D4 JUMP JUMPDEST AND SWAP1 PUSH1 0x4 DUP3 LT ISZERO PUSH2 0x5D6 JUMPI PUSH1 0x3 DUP3 LT ISZERO PUSH2 0x35FE JUMPI PUSH2 0x35ED PUSH2 0x35F9 SWAP2 PUSH2 0x16F7 PUSH2 0x35E7 PUSH2 0x35E2 DUP7 PUSH2 0x35DD PUSH32 0xA92C850BB09D5AFA4A6230F4866FAD10264C6FEA20047156B39E3E24C5763AD4 SWAP9 PUSH2 0x5CC JUMP JUMPDEST PUSH2 0x3559 JUMP JUMPDEST PUSH2 0x3304 JUMP JUMPDEST DUP3 PUSH2 0x2FF5 JUMP JUMPDEST PUSH1 0x40 MLOAD SWAP2 DUP3 SWAP2 DUP3 PUSH2 0x1E23 JUMP JUMPDEST SUB SWAP1 LOG2 JUMP JUMPDEST PUSH1 0x40 MLOAD PUSH3 0x461BCD PUSH1 0xE5 SHL DUP2 MSTORE PUSH1 0x20 PUSH1 0x4 DUP3 ADD MSTORE PUSH1 0x16 PUSH1 0x24 DUP3 ADD MSTORE PUSH22 0x416C72656164792061742066696E616C207068617365 PUSH1 0x50 SHL PUSH1 0x44 DUP3 ADD MSTORE PUSH1 0x64 SWAP1 REVERT JUMPDEST ISZERO PUSH2 0x3643 JUMPI JUMP JUMPDEST PUSH1 0x40 MLOAD PUSH3 0x461BCD PUSH1 0xE5 SHL DUP2 MSTORE PUSH1 0x20 PUSH1 0x4 DUP3 ADD MSTORE PUSH1 0x1F PUSH1 0x24 DUP3 ADD MSTORE PUSH32 0x5472616E7366657273206C6F636B656420647572696E672066756E64696E6700 PUSH1 0x44 DUP3 ADD MSTORE PUSH1 0x64 SWAP1 REVERT JUMPDEST ISZERO PUSH2 0x368F JUMPI JUMP JUMPDEST PUSH1 0x40 MLOAD PUSH3 0x461BCD PUSH1 0xE5 SHL DUP2 MSTORE PUSH1 0x20 PUSH1 0x4 DUP3 ADD MSTORE PUSH1 0x19 PUSH1 0x24 DUP3 ADD MSTORE PUSH32 0x526563697069656E74206E6F742077686974656C697374656400000000000000 PUSH1 0x44 DUP3 ADD MSTORE PUSH1 0x64 SWAP1 REVERT JUMPDEST ISZERO PUSH2 0x36DB JUMPI JUMP JUMPDEST PUSH1 0x40 MLOAD PUSH3 0x461BCD PUSH1 0xE5 SHL DUP2 MSTORE PUSH1 0x20 PUSH1 0x4 DUP3 ADD MSTORE PUSH1 0x23 PUSH1 0x24 DUP3 ADD MSTORE PUSH32 0x496E73756666696369656E742070686173652D747261636B656420686F6C6469 PUSH1 0x44 DUP3 ADD MSTORE PUSH3 0x6E6773 PUSH1 0xE8 SHL PUSH1 0x64 DUP3 ADD MSTORE PUSH1 0x84 SWAP1 REVERT JUMPDEST SWAP3 SWAP2 SWAP3 PUSH2 0x373A DUP5 DUP4 DUP4 PUSH2 0x39CE JUMP JUMPDEST PUSH1 0x1 PUSH1 0x1 PUSH1 0xA0 SHL SUB AND ISZERO PUSH2 0x3798 JUMPI JUMPDEST PUSH1 0x0 DUP1 JUMPDEST DUP3 MLOAD DUP3 LT ISZERO PUSH2 0x3786 JUMPI PUSH2 0x3780 SWAP1 PUSH2 0x3764 DUP4 DUP8 PUSH2 0x2586 JUMP JUMPDEST MLOAD SWAP1 PUSH2 0x3773 PUSH2 0x34CA DUP6 DUP8 PUSH2 0x2586 JUMP JUMPDEST DUP3 DUP2 SLOAD SUB SWAP1 SSTORE ADD SWAP2 PUSH2 0x255C JUMP JUMPDEST SWAP1 PUSH2 0x374D JUMP JUMPDEST SWAP2 POP POP PUSH2 0x8A1 SWAP2 SWAP3 POP PUSH1 0x4 SLOAD SUB PUSH1 0x4 SSTORE JUMP JUMPDEST PUSH1 0x0 DUP1 JUMPDEST DUP3 MLOAD DUP3 LT ISZERO PUSH2 0x37D1 JUMPI PUSH2 0x37C5 PUSH2 0x37CB SWAP2 PUSH2 0x37B6 DUP5 DUP9 PUSH2 0x2586 JUMP JUMPDEST MLOAD SWAP1 PUSH2 0x34DB PUSH2 0x34CA DUP7 DUP9 PUSH2 0x2586 JUMP JUMPDEST SWAP2 PUSH2 0x255C JUMP JUMPDEST SWAP1 PUSH2 0x379C JUMP JUMPDEST PUSH2 0x37E2 SWAP2 POP PUSH2 0x350E SWAP1 PUSH1 0x4 SLOAD PUSH2 0x2EB9 JUMP JUMPDEST PUSH2 0x3749 JUMP JUMPDEST SWAP1 SWAP4 SWAP3 SWAP4 PUSH2 0x37F7 DUP6 DUP5 DUP4 DUP6 PUSH2 0x3B3B JUMP JUMPDEST PUSH1 0x1 PUSH1 0x1 PUSH1 0xA0 SHL SUB SWAP2 DUP3 AND ISZERO PUSH2 0x3834 JUMPI JUMPDEST AND ISZERO PUSH2 0x3813 JUMPI POP SWAP1 POP JUMP JUMPDEST PUSH1 0x0 DUP1 JUMPDEST DUP3 MLOAD DUP3 LT ISZERO PUSH2 0x3786 JUMPI PUSH2 0x382E SWAP1 PUSH2 0x3764 DUP4 DUP8 PUSH2 0x2586 JUMP JUMPDEST SWAP1 PUSH2 0x3817 JUMP JUMPDEST SWAP3 PUSH1 0x0 SWAP2 DUP3 JUMPDEST DUP5 MLOAD DUP5 LT ISZERO PUSH2 0x386F JUMPI PUSH2 0x3863 PUSH2 0x3869 SWAP2 PUSH2 0x3854 DUP7 DUP11 PUSH2 0x2586 JUMP JUMPDEST MLOAD SWAP1 PUSH2 0x34DB PUSH2 0x34CA DUP9 DUP11 PUSH2 0x2586 JUMP JUMPDEST SWAP4 PUSH2 0x255C JUMP JUMPDEST SWAP3 PUSH2 0x383A JUMP JUMPDEST PUSH2 0x3884 SWAP2 SWAP4 POP PUSH2 0x350E SWAP1 SWAP6 SWAP3 SWAP6 PUSH1 0x4 SLOAD PUSH2 0x2EB9 JUMP JUMPDEST PUSH2 0x3808 JUMP JUMPDEST SWAP1 SWAP2 PUSH2 0x38A0 PUSH2 0xB92 SWAP4 PUSH1 0x40 DUP5 MSTORE PUSH1 0x40 DUP5 ADD SWAP1 PUSH2 0xEB4 JUMP JUMPDEST SWAP2 PUSH1 0x20 DUP2 DUP5 SUB SWAP2 ADD MSTORE PUSH2 0xEB4 JUMP JUMPDEST SWAP2 SWAP1 SWAP2 DUP3 MLOAD DUP3 MLOAD SWAP1 DUP2 DUP2 SUB PUSH2 0x2642 JUMPI POP POP PUSH1 0x0 JUMPDEST DUP4 MLOAD DUP2 LT ISZERO PUSH2 0x392E JUMPI PUSH1 0x5 DUP2 SWAP1 SHL DUP5 DUP2 ADD PUSH1 0x20 SWAP1 DUP2 ADD MLOAD SWAP2 DUP6 ADD ADD MLOAD PUSH2 0x38FC SWAP3 SWAP2 DUP5 SWAP1 PUSH1 0x1 PUSH1 0x1 PUSH1 0xA0 SHL SUB DUP3 AND PUSH2 0x3901 JUMPI JUMPDEST POP POP POP PUSH2 0x255C JUMP JUMPDEST PUSH2 0x38C2 JUMP JUMPDEST PUSH2 0x3924 SWAP2 PUSH2 0x1862 PUSH2 0x391C SWAP3 PUSH1 0x0 MSTORE PUSH1 0x0 PUSH1 0x20 MSTORE PUSH1 0x40 PUSH1 0x0 KECCAK256 SWAP1 JUMP JUMPDEST SWAP2 DUP3 SLOAD PUSH2 0x2EB9 JUMP JUMPDEST SWAP1 SSTORE CODESIZE DUP4 DUP2 PUSH2 0x38F4 JUMP JUMPDEST POP SWAP2 PUSH1 0x1 DUP2 MLOAD EQ PUSH1 0x0 EQ PUSH2 0x398F JUMPI PUSH1 0x20 SWAP1 DUP2 ADD MLOAD SWAP2 DUP2 ADD MLOAD PUSH1 0x40 DUP1 MLOAD SWAP4 DUP5 MSTORE SWAP2 DUP4 ADD MSTORE PUSH1 0x1 PUSH1 0x1 PUSH1 0xA0 SHL SUB SWAP1 SWAP3 AND SWAP2 PUSH1 0x0 SWAP2 CALLER SWAP2 PUSH32 0xC3D58168C5AE7397731D063D5BBF3D657854427343F4C083240F7AACAA2D0F62 SWAP2 SWAP1 DUP2 SWAP1 DUP2 ADD JUMPDEST SUB SWAP1 LOG4 JUMP JUMPDEST PUSH32 0x4A39DC06D4C0DBC64B70AF90FD698A233A518AA5D07E595D983B8C0526C8F7FB PUSH2 0x398A PUSH1 0x0 SWAP4 SWAP5 PUSH1 0x40 MLOAD SWAP2 DUP3 SWAP2 PUSH1 0x1 DUP1 PUSH1 0xA0 SHL SUB AND SWAP7 CALLER SWAP6 DUP4 PUSH2 0x3889 JUMP JUMPDEST SWAP3 SWAP2 SWAP1 DUP1 MLOAD DUP3 MLOAD SWAP1 DUP2 DUP2 SUB PUSH2 0x2642 JUMPI POP POP PUSH1 0x0 JUMPDEST DUP2 MLOAD DUP2 LT ISZERO PUSH2 0x3A9C JUMPI PUSH1 0x5 DUP2 SWAP1 SHL DUP3 DUP2 ADD PUSH1 0x20 SWAP1 DUP2 ADD MLOAD SWAP2 DUP6 ADD ADD MLOAD PUSH1 0x1 PUSH1 0x1 PUSH1 0xA0 SHL SUB DUP8 AND PUSH2 0x3A1D JUMPI JUMPDEST POP POP PUSH2 0x3A18 SWAP1 PUSH2 0x255C JUMP JUMPDEST PUSH2 0x39E2 JUMP JUMPDEST PUSH2 0x3A35 DUP8 PUSH2 0x1862 DUP5 PUSH1 0x0 MSTORE PUSH1 0x0 PUSH1 0x20 MSTORE PUSH1 0x40 PUSH1 0x0 KECCAK256 SWAP1 JUMP JUMPDEST SLOAD DUP2 DUP2 LT PUSH2 0x3A65 JUMPI DUP8 PUSH2 0x1862 PUSH2 0x3A18 SWAP6 SWAP5 SWAP4 PUSH2 0x3A5D SWAP4 SUB SWAP4 PUSH1 0x0 MSTORE PUSH1 0x0 PUSH1 0x20 MSTORE PUSH1 0x40 PUSH1 0x0 KECCAK256 SWAP1 JUMP JUMPDEST SSTORE SWAP1 CODESIZE PUSH2 0x3A0D JUMP JUMPDEST PUSH1 0x40 MLOAD PUSH4 0x3DEE4C5 PUSH1 0xE0 SHL DUP2 MSTORE PUSH1 0x1 PUSH1 0x1 PUSH1 0xA0 SHL SUB DUP10 AND PUSH1 0x4 DUP3 ADD MSTORE PUSH1 0x24 DUP2 ADD SWAP2 SWAP1 SWAP2 MSTORE PUSH1 0x44 DUP2 ADD DUP3 SWAP1 MSTORE PUSH1 0x64 DUP2 ADD DUP4 SWAP1 MSTORE PUSH1 0x84 SWAP1 REVERT JUMPDEST POP SWAP1 PUSH1 0x0 SWAP3 SWAP4 SWAP2 PUSH1 0x1 DUP2 MLOAD EQ DUP5 EQ PUSH2 0x3AFC JUMPI PUSH1 0x20 SWAP1 DUP2 ADD MLOAD SWAP2 DUP2 ADD MLOAD PUSH1 0x40 DUP1 MLOAD SWAP4 DUP5 MSTORE SWAP2 DUP4 ADD MSTORE PUSH1 0x1 PUSH1 0x1 PUSH1 0xA0 SHL SUB SWAP1 SWAP3 AND SWAP2 CALLER SWAP2 PUSH32 0xC3D58168C5AE7397731D063D5BBF3D657854427343F4C083240F7AACAA2D0F62 SWAP2 DUP2 SWAP1 DUP2 ADD PUSH2 0x398A JUMP JUMPDEST PUSH1 0x40 MLOAD PUSH1 0x1 PUSH1 0x1 PUSH1 0xA0 SHL SUB SWAP1 SWAP4 AND SWAP3 CALLER SWAP3 PUSH32 0x4A39DC06D4C0DBC64B70AF90FD698A233A518AA5D07E595D983B8C0526C8F7FB SWAP3 DUP3 SWAP2 PUSH2 0x398A SWAP2 DUP4 PUSH2 0x3889 JUMP JUMPDEST SWAP4 SWAP3 SWAP2 DUP1 MLOAD DUP4 MLOAD SWAP1 DUP2 DUP2 SUB PUSH2 0x2642 JUMPI POP POP PUSH1 0x0 JUMPDEST DUP2 MLOAD DUP2 LT ISZERO PUSH2 0x3C42 JUMPI PUSH1 0x5 DUP2 SWAP1 SHL DUP3 DUP2 ADD PUSH1 0x20 SWAP1 DUP2 ADD MLOAD SWAP2 DUP7 ADD ADD MLOAD PUSH1 0x1 PUSH1 0x1 PUSH1 0xA0 SHL SUB SWAP3 SWAP2 DUP6 SWAP1 DUP10 DUP6 AND PUSH2 0x3BBB JUMPI JUMPDEST PUSH2 0x3B91 SWAP5 DUP3 AND PUSH2 0x3B96 JUMPI POP POP POP PUSH2 0x255C JUMP JUMPDEST PUSH2 0x3B4F JUMP JUMPDEST PUSH2 0x3BB1 SWAP2 PUSH2 0x1862 PUSH2 0x391C SWAP3 PUSH1 0x0 MSTORE PUSH1 0x0 PUSH1 0x20 MSTORE PUSH1 0x40 PUSH1 0x0 KECCAK256 SWAP1 JUMP JUMPDEST SWAP1 SSTORE CODESIZE DUP5 DUP2 PUSH2 0x38F4 JUMP JUMPDEST SWAP2 SWAP3 SWAP4 SWAP1 POP PUSH2 0x3BD8 DUP10 PUSH2 0x1862 DUP5 PUSH1 0x0 MSTORE PUSH1 0x0 PUSH1 0x20 MSTORE PUSH1 0x40 PUSH1 0x0 KECCAK256 SWAP1 JUMP JUMPDEST SLOAD DUP4 DUP2 LT PUSH2 0x3C0B JUMPI SWAP2 DUP7 SWAP2 DUP5 PUSH2 0x3B91 SWAP7 SWAP6 SWAP5 SUB PUSH2 0x3C03 DUP13 PUSH2 0x1862 DUP6 PUSH1 0x0 MSTORE PUSH1 0x0 PUSH1 0x20 MSTORE PUSH1 0x40 PUSH1 0x0 KECCAK256 SWAP1 JUMP JUMPDEST SSTORE SWAP5 POP PUSH2 0x3B7F JUMP JUMPDEST PUSH1 0x40 MLOAD PUSH4 0x3DEE4C5 PUSH1 0xE0 SHL DUP2 MSTORE PUSH1 0x1 PUSH1 0x1 PUSH1 0xA0 SHL SUB DUP12 AND PUSH1 0x4 DUP3 ADD MSTORE PUSH1 0x24 DUP2 ADD SWAP2 SWAP1 SWAP2 MSTORE PUSH1 0x44 DUP2 ADD DUP5 SWAP1 MSTORE PUSH1 0x64 DUP2 ADD DUP4 SWAP1 MSTORE PUSH1 0x84 SWAP1 REVERT JUMPDEST POP DUP1 MLOAD SWAP4 SWAP5 SWAP4 SWAP2 SWAP3 SWAP2 PUSH1 0x1 SUB PUSH2 0x3CA4 JUMPI PUSH1 0x20 SWAP1 DUP2 ADD MLOAD SWAP2 DUP2 ADD MLOAD PUSH1 0x40 DUP1 MLOAD SWAP4 DUP5 MSTORE SWAP2 DUP4 ADD MSTORE PUSH1 0x1 PUSH1 0x1 PUSH1 0xA0 SHL SUB SWAP3 DUP4 AND SWAP4 SWAP1 SWAP3 AND SWAP2 CALLER SWAP2 PUSH32 0xC3D58168C5AE7397731D063D5BBF3D657854427343F4C083240F7AACAA2D0F62 SWAP2 DUP2 SWAP1 DUP2 ADD PUSH2 0x398A JUMP JUMPDEST PUSH1 0x40 MLOAD PUSH1 0x1 PUSH1 0x1 PUSH1 0xA0 SHL SUB SWAP4 DUP5 AND SWAP5 SWAP1 SWAP4 AND SWAP3 CALLER SWAP3 PUSH32 0x4A39DC06D4C0DBC64B70AF90FD698A233A518AA5D07E595D983B8C0526C8F7FB SWAP3 DUP3 SWAP2 PUSH2 0x398A SWAP2 DUP4 PUSH2 0x3889 JUMP INVALID LOG2 PUSH5 0x6970667358 0x22 SLT KECCAK256 0xB3 0xD2 SWAP16 0x5D 0xAA PUSH16 0x4198F1E7B5BE977176BD28348284EA3A PUSH22 0xF07BA29953D815923964736F6C634300081400332F87 DUP9 GT PUSH31 0x7EFF1D82E926EC794901D17C78024A50270940304540A733656F0D00000000 "},"methodIdentifiers":{"BURNER_ROLE()":"282c51f3","COUNTY_ALLOCATION()":"ceadd5b9","COUNTY_MULTIPLIER()":"11dd6cdc","COUNTY_VOTING_MULTIPLIER()":"c7527d08","DEFAULT_ADMIN_ROLE()":"a217fddf","INTERNATIONAL_ALLOCATION()":"a7907f74","INTERNATIONAL_MULTIPLIER()":"c65b6820","INTERNATIONAL_VOTING_MULTIPLIER()":"23067248","MINTER_ROLE()":"d5391393","NATIONAL_ALLOCATION()":"5561c5b3","NATIONAL_MULTIPLIER()":"7ca8c6f1","NATIONAL_VOTING_MULTIPLIER()":"500e9f73","PAUSER_ROLE()":"e63ab1e9","PHASE_ADVANCER_ROLE()":"35894afd","STATE_ALLOCATION()":"5fc68c46","STATE_MULTIPLIER()":"5bbe9f5e","STATE_VOTING_MULTIPLIER()":"f8147a8a","WHITELIST_ADMIN_ROLE()":"54202c4e","addToWhitelist(address,uint8)":"0263b858","addressPhaseEligibility(address)":"edff4969","advancePhase(uint256)":"81aaf4ce","balanceOf(address,uint256)":"00fdd58e","balanceOfBatch(address[],uint256[])":"4e1273f4","basePrice()":"c7876ea4","burn(address,uint256,uint256)":"f5298aca","burnBatch(address,uint256[],uint256[])":"6b20c454","burnFromOnFailure(uint256,address,uint256)":"3bb0b5b6","createProperty(string,string,uint256,uint256,uint256)":"58567dd5","exists(uint256)":"4f558e79","getAllPropertyIds()":"4ff69e83","getCurrentPrice(uint256)":"c55d0f56","getProperty(uint256)":"32665ffb","getPropertyCount()":"7326b901","getRoleAdmin(bytes32)":"248a9ca3","getTotalWeightedVotingPower(uint256)":"8cdc1e87","getVotingMultiplier(uint8)":"6ce2f91d","getVotingPower(uint256,address)":"dbdad432","grantRole(bytes32,address)":"2f2ff15d","hasRole(bytes32,address)":"91d14854","holdingsByPhase(uint256,address,uint8)":"9ca02763","isApprovedForAll(address,address)":"e985e9c5","markFunded(uint256)":"c5666eb2","mintTokens(uint256,address,uint256)":"8d6819be","pause()":"8456cb59","paused()":"5c975abb","phaseAllocations(uint256,uint8)":"6ea99677","phaseMinted(uint256,uint8)":"04fa6173","properties(uint256)":"f7b10808","propertyCount()":"c361a335","propertyExists(uint256)":"4a164732","removeFromWhitelist(address)":"8ab1d681","renounceRole(bytes32,address)":"36568abe","revokeRole(bytes32,address)":"d547741f","safeBatchTransferFrom(address,address,uint256[],uint256[],bytes)":"2eb2c2d6","safeTransferFrom(address,address,uint256,uint256,bytes)":"f242432a","setApprovalForAll(address,bool)":"a22cb465","supportsInterface(bytes4)":"01ffc9a7","totalSupply()":"18160ddd","totalSupply(uint256)":"bd85b039","unpause()":"3f4ba83a","updateBasePrice(uint256)":"fd5baa88","uri(uint256)":"0e89341c","whitelist(address)":"9b19251a"}}}}}