{"contracts/Escrow.sol":{"Escrow":{"abi":[{"inputs":[{"internalType":"address","name":"_propertyToken","type":"address"}],"stateMutability":"nonpayable","type":"constructor"},{"inputs":[],"name":"AccessControlBadConfirmation","type":"error"},{"inputs":[{"internalType":"address","name":"account","type":"address"},{"internalType":"bytes32","name":"neededRole","type":"bytes32"}],"name":"AccessControlUnauthorizedAccount","type":"error"},{"inputs":[],"name":"EnforcedPause","type":"error"},{"inputs":[],"name":"ExpectedPause","type":"error"},{"inputs":[],"name":"ReentrancyGuardReentrantCall","type":"error"},{"anonymous":false,"inputs":[{"indexed":true,"internalType":"uint256","name":"propertyId","type":"uint256"},{"indexed":false,"internalType":"uint256","name":"totalRaised","type":"uint256"}],"name":"FundingComplete","type":"event"},{"anonymous":false,"inputs":[{"indexed":true,"internalType":"uint256","name":"propertyId","type":"uint256"},{"indexed":false,"internalType":"uint256","name":"totalRaised","type":"uint256"},{"indexed":false,"internalType":"uint256","name":"target","type":"uint256"}],"name":"FundingFailed","type":"event"},{"anonymous":false,"inputs":[{"indexed":true,"internalType":"uint256","name":"propertyId","type":"uint256"},{"indexed":true,"internalType":"address","name":"recipient","type":"address"},{"indexed":false,"internalType":"uint256","name":"amount","type":"uint256"}],"name":"FundsReleased","type":"event"},{"anonymous":false,"inputs":[{"indexed":false,"internalType":"address","name":"account","type":"address"}],"name":"Paused","type":"event"},{"anonymous":false,"inputs":[{"indexed":true,"internalType":"uint256","name":"propertyId","type":"uint256"},{"indexed":true,"internalType":"address","name":"buyer","type":"address"},{"indexed":false,"internalType":"uint256","name":"amount","type":"uint256"},{"indexed":false,"internalType":"uint256","name":"totalPaid","type":"uint256"},{"indexed":false,"internalType":"uint256","name":"timestamp","type":"uint256"}],"name":"PurchaseReceived","type":"event"},{"anonymous":false,"inputs":[{"indexed":true,"internalType":"uint256","name":"propertyId","type":"uint256"},{"indexed":true,"internalType":"address","name":"buyer","type":"address"},{"indexed":false,"internalType":"uint256","name":"principal","type":"uint256"},{"indexed":false,"internalType":"uint256","name":"interest","type":"uint256"},{"indexed":false,"internalType":"uint256","name":"total","type":"uint256"}],"name":"RefundProcessed","type":"event"},{"anonymous":false,"inputs":[{"indexed":true,"internalType":"bytes32","name":"role","type":"bytes32"},{"indexed":true,"internalType":"bytes32","name":"previousAdminRole","type":"bytes32"},{"indexed":true,"internalType":"bytes32","name":"newAdminRole","type":"bytes32"}],"name":"RoleAdminChanged","type":"event"},{"anonymous":false,"inputs":[{"indexed":true,"internalType":"bytes32","name":"role","type":"bytes32"},{"indexed":true,"internalType":"address","name":"account","type":"address"},{"indexed":true,"internalType":"address","name":"sender","type":"address"}],"name":"RoleGranted","type":"event"},{"anonymous":false,"inputs":[{"indexed":true,"internalType":"bytes32","name":"role","type":"bytes32"},{"indexed":true,"internalType":"address","name":"account","type":"address"},{"indexed":true,"internalType":"address","name":"sender","type":"address"}],"name":"RoleRevoked","type":"event"},{"anonymous":false,"inputs":[{"indexed":false,"internalType":"address","name":"account","type":"address"}],"name":"Unpaused","type":"event"},{"inputs":[],"name":"BASIS_POINTS","outputs":[{"internalType":"uint256","name":"","type":"uint256"}],"stateMutability":"view","type":"function"},{"inputs":[],"name":"DEFAULT_ADMIN_ROLE","outputs":[{"internalType":"bytes32","name":"","type":"bytes32"}],"stateMutability":"view","type":"function"},{"inputs":[],"name":"OPERATOR_ROLE","outputs":[{"internalType":"bytes32","name":"","type":"bytes32"}],"stateMutability":"view","type":"function"},{"inputs":[],"name":"REFUND_APR","outputs":[{"internalType":"uint256","name":"","type":"uint256"}],"stateMutability":"view","type":"function"},{"inputs":[],"name":"SECONDS_PER_YEAR","outputs":[{"internalType":"uint256","name":"","type":"uint256"}],"stateMutability":"view","type":"function"},{"inputs":[{"internalType":"uint256","name":"","type":"uint256"}],"name":"activeProperties","outputs":[{"internalType":"uint256","name":"","type":"uint256"}],"stateMutability":"view","type":"function"},{"inputs":[{"internalType":"uint256","name":"","type":"uint256"},{"internalType":"address","name":"","type":"address"}],"name":"buyerContributions","outputs":[{"internalType":"uint256","name":"","type":"uint256"}],"stateMutability":"view","type":"function"},{"inputs":[{"internalType":"uint256","name":"principal","type":"uint256"},{"internalType":"uint256","name":"investmentTimestamp","type":"uint256"}],"name":"calculateRefund","outputs":[{"internalType":"uint256","name":"","type":"uint256"}],"stateMutability":"view","type":"function"},{"inputs":[{"internalType":"bytes","name":"","type":"bytes"}],"name":"checkUpkeep","outputs":[{"internalType":"bool","name":"upkeepNeeded","type":"bool"},{"internalType":"bytes","name":"performData","type":"bytes"}],"stateMutability":"view","type":"function"},{"inputs":[{"internalType":"uint256","name":"propertyId","type":"uint256"}],"name":"getEscrowStatus","outputs":[{"internalType":"uint256","name":"totalRaised","type":"uint256"},{"internalType":"uint256","name":"fundingTarget","type":"uint256"},{"internalType":"uint256","name":"deadline","type":"uint256"},{"internalType":"bool","name":"isComplete","type":"bool"},{"internalType":"uint256","name":"percentFunded","type":"uint256"}],"stateMutability":"view","type":"function"},{"inputs":[{"internalType":"uint256","name":"propertyId","type":"uint256"}],"name":"getPurchases","outputs":[{"components":[{"internalType":"address","name":"buyer","type":"address"},{"internalType":"uint256","name":"propertyId","type":"uint256"},{"internalType":"uint256","name":"amount","type":"uint256"},{"internalType":"uint256","name":"price","type":"uint256"},{"internalType":"uint256","name":"totalPaid","type":"uint256"},{"internalType":"uint256","name":"timestamp","type":"uint256"},{"internalType":"bool","name":"refunded","type":"bool"}],"internalType":"struct Escrow.Purchase[]","name":"","type":"tuple[]"}],"stateMutability":"view","type":"function"},{"inputs":[{"internalType":"bytes32","name":"role","type":"bytes32"}],"name":"getRoleAdmin","outputs":[{"internalType":"bytes32","name":"","type":"bytes32"}],"stateMutability":"view","type":"function"},{"inputs":[{"internalType":"bytes32","name":"role","type":"bytes32"},{"internalType":"address","name":"account","type":"address"}],"name":"grantRole","outputs":[],"stateMutability":"nonpayable","type":"function"},{"inputs":[{"internalType":"bytes32","name":"role","type":"bytes32"},{"internalType":"address","name":"account","type":"address"}],"name":"hasRole","outputs":[{"internalType":"bool","name":"","type":"bool"}],"stateMutability":"view","type":"function"},{"inputs":[{"internalType":"uint256","name":"propertyId","type":"uint256"},{"internalType":"uint256","name":"fundingTarget","type":"uint256"},{"internalType":"uint256","name":"deadline","type":"uint256"}],"name":"initializeEscrow","outputs":[],"stateMutability":"nonpayable","type":"function"},{"inputs":[{"internalType":"uint256","name":"","type":"uint256"}],"name":"isPropertyActive","outputs":[{"internalType":"bool","name":"","type":"bool"}],"stateMutability":"view","type":"function"},{"inputs":[],"name":"pause","outputs":[],"stateMutability":"nonpayable","type":"function"},{"inputs":[],"name":"paused","outputs":[{"internalType":"bool","name":"","type":"bool"}],"stateMutability":"view","type":"function"},{"inputs":[{"internalType":"bytes","name":"performData","type":"bytes"}],"name":"performUpkeep","outputs":[],"stateMutability":"nonpayable","type":"function"},{"inputs":[{"internalType":"uint256","name":"propertyId","type":"uint256"}],"name":"processRefunds","outputs":[],"stateMutability":"nonpayable","type":"function"},{"inputs":[{"internalType":"uint256","name":"","type":"uint256"}],"name":"propertyEscrows","outputs":[{"internalType":"uint256","name":"totalRaised","type":"uint256"},{"internalType":"uint256","name":"fundingTarget","type":"uint256"},{"internalType":"uint256","name":"deadline","type":"uint256"},{"internalType":"bool","name":"isComplete","type":"bool"},{"internalType":"bool","name":"refundsProcessed","type":"bool"}],"stateMutability":"view","type":"function"},{"inputs":[{"internalType":"uint256","name":"","type":"uint256"},{"internalType":"uint256","name":"","type":"uint256"}],"name":"propertyPurchases","outputs":[{"internalType":"address","name":"buyer","type":"address"},{"internalType":"uint256","name":"propertyId","type":"uint256"},{"internalType":"uint256","name":"amount","type":"uint256"},{"internalType":"uint256","name":"price","type":"uint256"},{"internalType":"uint256","name":"totalPaid","type":"uint256"},{"internalType":"uint256","name":"timestamp","type":"uint256"},{"internalType":"bool","name":"refunded","type":"bool"}],"stateMutability":"view","type":"function"},{"inputs":[],"name":"propertyToken","outputs":[{"internalType":"contract IPropertyToken","name":"","type":"address"}],"stateMutability":"view","type":"function"},{"inputs":[{"internalType":"uint256","name":"propertyId","type":"uint256"},{"internalType":"uint256","name":"amount","type":"uint256"}],"name":"purchase","outputs":[],"stateMutability":"payable","type":"function"},{"inputs":[{"internalType":"uint256","name":"propertyId","type":"uint256"},{"internalType":"address","name":"recipient","type":"address"}],"name":"releaseFunds","outputs":[],"stateMutability":"nonpayable","type":"function"},{"inputs":[{"internalType":"bytes32","name":"role","type":"bytes32"},{"internalType":"address","name":"callerConfirmation","type":"address"}],"name":"renounceRole","outputs":[],"stateMutability":"nonpayable","type":"function"},{"inputs":[{"internalType":"bytes32","name":"role","type":"bytes32"},{"internalType":"address","name":"account","type":"address"}],"name":"revokeRole","outputs":[],"stateMutability":"nonpayable","type":"function"},{"inputs":[{"internalType":"bytes4","name":"interfaceId","type":"bytes4"}],"name":"supportsInterface","outputs":[{"internalType":"bool","name":"","type":"bool"}],"stateMutability":"view","type":"function"},{"inputs":[],"name":"unpause","outputs":[],"stateMutability":"nonpayable","type":"function"},{"stateMutability":"payable","type":"receive"}],"evm":{"bytecode":{"linkReferences":{},"object":"608034620000a457601f62001d1338819003918201601f19168301916001600160401b03831184841017620000a957808492602094604052833981010312620000a457516001600160a01b0381168103620000a45760018055600280546001600160a81b03191660089290921b610100600160a81b03169190911790556200008733620000bf565b5062000093336200013f565b50604051611b119081620001e28239f35b600080fd5b634e487b7160e01b600052604160045260246000fd5b6001600160a01b031660008181527fad3228b676f7d3cd4284a5443f17f1962b36e491b30a40b2405849e597ba5fb5602052604081205490919060ff166200013b57818052816020526040822081835260205260408220600160ff19825416179055339160008051602062001cf38339815191528180a4600190565b5090565b6001600160a01b031660008181527fee57cd81e84075558e8fcc182a1f4393f91fc97f963a136e66b7f949a62f319f60205260408120549091907f97667070c54ef182b0f5858b034beac1b6f3089aa2d3188bb1e8929f4fa9b9299060ff16620001dc57808352826020526040832082845260205260408320600160ff1982541617905560008051602062001cf3833981519152339380a4600190565b50509056fe608080604052600436101561001d575b50361561001b57600080fd5b005b60009060e08235811c91826301ffc9a71461149857508163066d4d5e1461132557816311e2e175146112e157816314a2873a146112c4578163154bb891146112955781631af23a591461112e5781632430fc3d146110cf578163248a9ca3146110a35781632f2ff15d14611066578163345460cd14610fb657816336568abe14610f6e5781633f4ba83a14610f0357816343ae269514610ed65781634585e33b14610df65781635c975abb14610dd35781636e04ff0d14610d635781636f629ed514610be757816370876c981461075d5781638456cb591461070257816391d14854146106b7578163a217fddf1461069b578163a8b268de14610662578163c6f56901146102d2578163d2e0f66e1461024357508063d547741f14610202578063e1f1c4a7146101e5578063e38abd0f146101c3578063e6a69ab8146101a45763f5b541a60361000f57346101a157806003193601126101a15760206040517f97667070c54ef182b0f5858b034beac1b6f3089aa2d3188bb1e8929f4fa9b9298152f35b80fd5b50346101a157806003193601126101a15760206040516301e133808152f35b50346101a15760206101dd6101d73661154d565b90611946565b604051908152f35b50346101a157806003193601126101a15760206040516127108152f35b50346101a15760403660031901126101a15761023f6004356102226114ed565b908084528360205261023a6001604086200154611680565b611724565b5080f35b9050346102ce576102533661154d565b90835260036020526040832080548210156102ca5790610272916115b0565b5060018060a01b03815416906001810154906002810154600382015460048301549160ff600660058601549501541694604051968752602087015260408601526060850152608084015260a0830152151560c0820152f35b8380fd5b5080fd5b82346101a15760203660031901126101a1576102ec611923565b6004358152600460205260408120600760205261030f60ff604084205416611801565b60038101805460ff81166106245761032d6002840154421015611983565b60ff8160081c166105df576101009061ff001916179055805460018092015460405191825260208201527fe530e08c8f5e186cb204c6c0e883b12ddbcd56a383e4113f06dbee1e09fde7c6604060043592a26004358252600360205280604083208184905b6103b5575b5050506004358252600760205260408220805460ff19169055805580f35b81548110156105da576103c881836115b0565b506006810180549060ff8216156103ec575b5050506103e6906119c6565b82610392565b909291946104036004870154600588015490611946565b60ff199094161790556002548454604051627eeac760e11b81526001600160a01b039182166004808301829052356024830152899360081c9092169190602081604481865afa9081156105cf578491610595575b5080610520575b5050508080808560018060a01b038954165af16104796118c5565b50156104e25784936103e6927f35b1f7e4c3146d284962cc37abf509799d0f4be30b6a19d025ba7309302c9487600460018060a01b03845416930154916104c083826118b8565b60408051948552602085019190915283015260043591606090a39086806103da565b60405162461bcd60e51b81526020600482015260166024820152751499599d5b99081d1c985b9cd9995c8819985a5b195960521b6044820152606490fd5b823b156102ca57604051631dd85adb60e11b815260048035908201526001600160a01b0392909216602483015260448201529082908290606490829084905af1801561058a57610572575b808061045e565b61057b90611799565b61058657858761056b565b8580fd5b6040513d84823e3d90fd5b9350506020833d6020116105c7575b816105b1602093836117df565b810103126105c2578892518a610457565b600080fd5b3d91506105a4565b6040513d86823e3d90fd5b610397565b60405162461bcd60e51b815260206004820152601960248201527f526566756e647320616c72656164792070726f636573736564000000000000006044820152606490fd5b60405162461bcd60e51b8152602060048201526016602482015275119d5b991a5b99c81dd85cc81cdd58d8d95cdcd99d5b60521b6044820152606490fd5b82346101a15760203660031901126101a157600435906006548210156101a157602061068d83611563565b90546040519160031b1c8152f35b82346101a157806003193601126101a157602090604051908152f35b82346101a15760403660031901126101a15760406106d36114ed565b91600435815280602052209060018060a01b0316600052602052602060ff604060002054166040519015158152f35b82346101a157806003193601126101a15761071b611646565b610723611905565b600160ff1960025416176002557f62e78cea01bee320cd4e420270b5ea74000d11b0c9f74754ebdbfc544b05a2586020604051338152a180f35b826107673661154d565b61076f611923565b610777611905565b81835260046020526040832090600760205261079960ff604086205416611801565b6107aa60ff60038401541615611843565b6002820154421015610ba2576002546040516362ae87ab60e11b81526004810185905291906020908390602490829060081c6001600160a01b03165afa918215610b97578592610b63575b506108008183611882565b91823410610b275784865260036020526040862060405191610821836117c3565b33835286602084015283604084015260608301528360808301524260a08301528660c0830152805490600160401b821015610b135790610866916001820181556115b0565b919091610aff5790600660c06108df9360018060a01b038151166bffffffffffffffffffffffff60a01b8554161784556020810151600185015560408101516002850155606081015160038501556080810151600485015560a081015160058501550151151591019060ff801983541691151516179055565b6108ea8284546118ab565b835583855260056020526040852033600052602052604060002061090f8382546118ab565b905560025460081c6001600160a01b031690813b15610586576040516346b40cdf60e11b8152600481018690523360248201526044810182905291869081908490606490829084905af1928315610af2578693610ad5575b5050823411610a78575b6109b77f076d4a8f0927f81646eba8e062c7769238e76316ca0f16820b27d377c2becc1e9160405191829133964291846040919493926060820195825260208201520152565b0390a36001815491015411156109d0575b506001805580f35b80825260046020526040822060038101805460ff19166001179055600254839060081c6001600160a01b0316803b156102ce578180916024604051809481936362b3375960e11b83528960048401525af1801561058a57610a60575b505060207fa94752e9c9082234a8789d877418277dfc7f671e8c27e4a3c22928cae04473129154604051908152a2816109c8565b610a6990611799565b610a74578284610a2c565b8280fd5b905084808080610a8886346118b8565b335af1610a936118c5565b5015610aa0578390610971565b60405162461bcd60e51b815260206004820152600d60248201526c1499599d5b990819985a5b1959609a1b6044820152606490fd5b610ae191929350611799565b610aee5783908587610967565b8480fd5b50604051903d90823e3d90fd5b634e487b7160e01b87526004879052602487fd5b634e487b7160e01b88526041600452602488fd5b60405162461bcd60e51b8152602060048201526014602482015273125b9cdd59999a58da595b9d081c185e5b595b9d60621b6044820152606490fd5b9091506020813d602011610b8f575b81610b7f602093836117df565b810103126105c2575190856107f5565b3d9150610b72565b6040513d87823e3d90fd5b60405162461bcd60e51b815260206004820152601760248201527f46756e64696e6720646561646c696e65207061737365640000000000000000006044820152606490fd5b82346101a1576020806003193601126102ce5760043582526003908181526040832092835467ffffffffffffffff8111610d4f578591848692604051916005610c348884831b01856117df565b82845287840191829686528886209186935b858510610cdb575050505050506040519485948186019282875251809352604086019493905b838210610c795786860387f35b845180516001600160a01b03168752808401518785015260408082015190880152606080820151908801526080808201519088015260a0808201519088015260c090810151151590870152879650948501949382019360019190910190610c6c565b60078b60019260409d9a999b9c9d51610cf3816117c3565b848060a01b038854168152848801548382015260028801546040820152868801546060820152600488015460808201528588015460a082015260ff600689015416151560c0820152815201940194019392999897959699610c46565b634e487b7160e01b82526041600452602482fd5b82346101a157610d7236611503565b5050610d7c6119d5565b9060405192839115158252602090604082840152835191826040850152815b838110610dbc57505060608094508284010152601f80199101168101030190f35b808601820151878201606001528694508101610d9b565b82346101a157806003193601126101a157602060ff600254166040519015158152f35b82346101a1576020610e0736611503565b90809291810103126102ce57358082526004602052604082206007602052610e3560ff604085205416611801565b60ff6003820154610e4882821615611843565b60081c16610e9d576002610e60910154421015611983565b303b156102ce576040519063c6f5690160e01b82526004820152818160248183305af1801561058a57610e91575080f35b610e9a90611799565b80f35b60405162461bcd60e51b81526020600482015260116024820152701499599d5b991cc81c1c9bd8d95cdcd959607a1b6044820152606490fd5b82346101a157806003193601126101a15760025460405160089190911c6001600160a01b03168152602090f35b82346101a157806003193601126101a157610f1c611646565b60025460ff811615610f5c5760ff19166002557f5db9ee0a495bf2e6ff9c91a7834c1ba4fdd244a5e8aa4e537bd38aeae4b073aa6020604051338152a180f35b604051638dfc202b60e01b8152600490fd5b82346101a15760403660031901126101a157610f886114ed565b336001600160a01b03821603610fa45761023f90600435611724565b60405163334bd91960e11b8152600490fd5b82346101a15760203660031901126101a1576004803582526020526040812060018101548015928361105c57825493612710948581029581870414901517156110485761103457508060a09304905b82549260ff60036002830154920154169160405194855260208501526040840152151560608301526080820152f35b634e487b7160e01b81526012600452602490fd5b634e487b7160e01b82526011600452602482fd5b60a0935090611005565b82346101a15760403660031901126101a15761023f6004356110866114ed565b908084528360205261109e6001604086200154611680565b6116a6565b82346101a15760203660031901126101a157600160406020926004358152808452200154604051908152f35b82346101a15760203660031901126101a157604060a091600435815260046020522060ff8154916001810154906003600282015491015491604051948552602085015260408401528181161515606084015260081c1615156080820152f35b82346101a15760403660031901126101a15760043561114b6114ed565b906111546115cc565b61115c611923565b808352602060048152604084209260ff6003850154161561125957835493841561121e578590558285526007825260408520805460ff191690556001600160a01b0316928480808084885af16111b06118c5565b50156111e757907f6e3c6096795c8298a218b2cfb8bde42726ff7c9a3d27b4d3ba41ab7f74feb5fb91604051908152a36001805580f35b60405162461bcd60e51b815260048101839052600f60248201526e151c985b9cd9995c8819985a5b1959608a1b6044820152606490fd5b60405162461bcd60e51b81526004810184905260136024820152724e6f2066756e647320746f2072656c6561736560681b6044820152606490fd5b60405162461bcd60e51b815260048101839052601460248201527346756e64696e67206e6f7420636f6d706c65746560601b6044820152606490fd5b82346101a15760203660031901126101a15760ff60406020926004358152600784522054166040519015158152f35b82346101a157806003193601126101a157602060405161012c8152f35b82346101a15760403660031901126101a15760406020916113006114ed565b6004358252600584528282206001600160a01b03909116825283522054604051908152f35b82346101a15760603660031901126101a1576004356113426115cc565b808252600760205260ff60408320541661145b5760405160a0810181811067ffffffffffffffff821117611447576040528281526020810160243581526113d160036040840193604435855260608101948786526080820194888652878952600460205260408920925183555160018301555160028201550192511515839060ff801983541691151516179055565b51815461ff00191690151560081b61ff0016179055600654600160401b811015611433578060016114059201600655611563565b81549060031b9083821b91600019901b19161790558152600760205260408120600160ff1982541617905580f35b634e487b7160e01b83526041600452602483fd5b634e487b7160e01b84526041600452602484fd5b60405162461bcd60e51b8152602060048201526015602482015274457363726f7720616c72656164792065786973747360581b6044820152606490fd5b8390346102ce5760203660031901126102ce5760043563ffffffff60e01b8116809103610a745760209250637965db0b60e01b81149081156114dc575b5015158152f35b6301ffc9a760e01b149050836114d5565b602435906001600160a01b03821682036105c257565b9060206003198301126105c25760043567ffffffffffffffff928382116105c257806023830112156105c25781600401359384116105c257602484830101116105c2576024019190565b60409060031901126105c2576004359060243590565b60065481101561159a5760066000527ff652222313e28459528d920b65115c16c04f3efc82aaedc97be59f3f377c0d3f0190600090565b634e487b7160e01b600052603260045260246000fd5b805482101561159a576000526007602060002091020190600090565b3360009081527fee57cd81e84075558e8fcc182a1f4393f91fc97f963a136e66b7f949a62f319f60205260409020547f97667070c54ef182b0f5858b034beac1b6f3089aa2d3188bb1e8929f4fa9b9299060ff16156116285750565b6044906040519063e2517d3f60e01b82523360048301526024820152fd5b3360009081527fad3228b676f7d3cd4284a5443f17f1962b36e491b30a40b2405849e597ba5fb5602052604081205460ff16156116285750565b80600052600060205260406000203360005260205260ff60406000205416156116285750565b9060009180835282602052604083209160018060a01b03169182845260205260ff6040842054161560001461171f57808352826020526040832082845260205260408320600160ff198254161790557f2f8788117e7eff1d82e926ec794901d17c78024a50270940304540a733656f0d339380a4600190565b505090565b9060009180835282602052604083209160018060a01b03169182845260205260ff60408420541660001461171f5780835282602052604083208284526020526040832060ff1981541690557ff6391f5c32d9c69d2a47ea670b442974b53935d1edc7fd64eb21e047a839171b339380a4600190565b67ffffffffffffffff81116117ad57604052565b634e487b7160e01b600052604160045260246000fd5b60e0810190811067ffffffffffffffff8211176117ad57604052565b90601f8019910116810190811067ffffffffffffffff8211176117ad57604052565b1561180857565b60405162461bcd60e51b815260206004820152601360248201527250726f7065727479206e6f742061637469766560681b6044820152606490fd5b1561184a57565b60405162461bcd60e51b815260206004820152601060248201526f46756e64696e6720636f6d706c65746560801b6044820152606490fd5b8181029291811591840414171561189557565b634e487b7160e01b600052601160045260246000fd5b9190820180921161189557565b9190820391821161189557565b3d15611900573d9067ffffffffffffffff82116117ad57604051916118f4601f8201601f1916602001846117df565b82523d6000602084013e565b606090565b60ff6002541661191157565b60405163d93c066560e01b8152600490fd5b600260015414611934576002600155565b604051633ee5aeb560e01b8152600490fd5b9061195190426118b8565b9061012c918282029282840414821517156118955761197964496cebb8009161198094611882565b04906118ab565b90565b1561198a57565b60405162461bcd60e51b8152602060048201526014602482015273111958591b1a5b99481b9bdd081c995858da195960621b6044820152606490fd5b60001981146118955760010190565b60065460005b818110611a0b5750506000906040516020810181811067ffffffffffffffff8211176117ad576040526000815290565b611a1481611563565b9054600391821b1c90816000526004906020828152604091826000206007835260ff808560002054169283611acd575b83611abc575b505081611aad575b50611a695750505050611a64906119c6565b6119db565b919350809295945051948186015284528084019184831067ffffffffffffffff841117611a9857505260019190565b604190634e487b7160e01b6000525260246000fd5b60029150015442101538611a52565b82015460081c161591503880611a4a565b828101548216159350611a4456fea264697066735822122086e0f41a7b2fb827e86addce4628f40f1b029f3a80a07eda6370dbbd5fddcec464736f6c634300081400332f8788117e7eff1d82e926ec794901d17c78024a50270940304540a733656f0d","opcodes":"PUSH1 0x80 CALLVALUE PUSH3 0xA4 JUMPI PUSH1 0x1F PUSH3 0x1D13 CODESIZE DUP2 SWAP1 SUB SWAP2 DUP3 ADD PUSH1 0x1F NOT AND DUP4 ADD SWAP2 PUSH1 0x1 PUSH1 0x1 PUSH1 0x40 SHL SUB DUP4 GT DUP5 DUP5 LT OR PUSH3 0xA9 JUMPI DUP1 DUP5 SWAP3 PUSH1 0x20 SWAP5 PUSH1 0x40 MSTORE DUP4 CODECOPY DUP2 ADD SUB SLT PUSH3 0xA4 JUMPI MLOAD PUSH1 0x1 PUSH1 0x1 PUSH1 0xA0 SHL SUB DUP2 AND DUP2 SUB PUSH3 0xA4 JUMPI PUSH1 0x1 DUP1 SSTORE PUSH1 0x2 DUP1 SLOAD PUSH1 0x1 PUSH1 0x1 PUSH1 0xA8 SHL SUB NOT AND PUSH1 0x8 SWAP3 SWAP1 SWAP3 SHL PUSH2 0x100 PUSH1 0x1 PUSH1 0xA8 SHL SUB AND SWAP2 SWAP1 SWAP2 OR SWAP1 SSTORE PUSH3 0x87 CALLER PUSH3 0xBF JUMP JUMPDEST POP PUSH3 0x93 CALLER PUSH3 0x13F JUMP JUMPDEST POP PUSH1 0x40 MLOAD PUSH2 0x1B11 SWAP1 DUP2 PUSH3 0x1E2 DUP3 CODECOPY RETURN JUMPDEST PUSH1 0x0 DUP1 REVERT JUMPDEST PUSH4 0x4E487B71 PUSH1 0xE0 SHL PUSH1 0x0 MSTORE PUSH1 0x41 PUSH1 0x4 MSTORE PUSH1 0x24 PUSH1 0x0 REVERT JUMPDEST PUSH1 0x1 PUSH1 0x1 PUSH1 0xA0 SHL SUB AND PUSH1 0x0 DUP2 DUP2 MSTORE PUSH32 0xAD3228B676F7D3CD4284A5443F17F1962B36E491B30A40B2405849E597BA5FB5 PUSH1 0x20 MSTORE PUSH1 0x40 DUP2 KECCAK256 SLOAD SWAP1 SWAP2 SWAP1 PUSH1 0xFF AND PUSH3 0x13B JUMPI DUP2 DUP1 MSTORE DUP2 PUSH1 0x20 MSTORE PUSH1 0x40 DUP3 KECCAK256 DUP2 DUP4 MSTORE PUSH1 0x20 MSTORE PUSH1 0x40 DUP3 KECCAK256 PUSH1 0x1 PUSH1 0xFF NOT DUP3 SLOAD AND OR SWAP1 SSTORE CALLER SWAP2 PUSH1 0x0 DUP1 MLOAD PUSH1 0x20 PUSH3 0x1CF3 DUP4 CODECOPY DUP2 MLOAD SWAP2 MSTORE DUP2 DUP1 LOG4 PUSH1 0x1 SWAP1 JUMP JUMPDEST POP SWAP1 JUMP JUMPDEST PUSH1 0x1 PUSH1 0x1 PUSH1 0xA0 SHL SUB AND PUSH1 0x0 DUP2 DUP2 MSTORE PUSH32 0xEE57CD81E84075558E8FCC182A1F4393F91FC97F963A136E66B7F949A62F319F PUSH1 0x20 MSTORE PUSH1 0x40 DUP2 KECCAK256 SLOAD SWAP1 SWAP2 SWAP1 PUSH32 0x97667070C54EF182B0F5858B034BEAC1B6F3089AA2D3188BB1E8929F4FA9B929 SWAP1 PUSH1 0xFF AND PUSH3 0x1DC JUMPI DUP1 DUP4 MSTORE DUP3 PUSH1 0x20 MSTORE PUSH1 0x40 DUP4 KECCAK256 DUP3 DUP5 MSTORE PUSH1 0x20 MSTORE PUSH1 0x40 DUP4 KECCAK256 PUSH1 0x1 PUSH1 0xFF NOT DUP3 SLOAD AND OR SWAP1 SSTORE PUSH1 0x0 DUP1 MLOAD PUSH1 0x20 PUSH3 0x1CF3 DUP4 CODECOPY DUP2 MLOAD SWAP2 MSTORE CALLER SWAP4 DUP1 LOG4 PUSH1 0x1 SWAP1 JUMP JUMPDEST POP POP SWAP1 JUMP INVALID PUSH1 0x80 DUP1 PUSH1 0x40 MSTORE PUSH1 0x4 CALLDATASIZE LT ISZERO PUSH2 0x1D JUMPI JUMPDEST POP CALLDATASIZE ISZERO PUSH2 0x1B JUMPI PUSH1 0x0 DUP1 REVERT JUMPDEST STOP JUMPDEST PUSH1 0x0 SWAP1 PUSH1 0xE0 DUP3 CALLDATALOAD DUP2 SHR SWAP2 DUP3 PUSH4 0x1FFC9A7 EQ PUSH2 0x1498 JUMPI POP DUP2 PUSH4 0x66D4D5E EQ PUSH2 0x1325 JUMPI DUP2 PUSH4 0x11E2E175 EQ PUSH2 0x12E1 JUMPI DUP2 PUSH4 0x14A2873A EQ PUSH2 0x12C4 JUMPI DUP2 PUSH4 0x154BB891 EQ PUSH2 0x1295 JUMPI DUP2 PUSH4 0x1AF23A59 EQ PUSH2 0x112E JUMPI DUP2 PUSH4 0x2430FC3D EQ PUSH2 0x10CF JUMPI DUP2 PUSH4 0x248A9CA3 EQ PUSH2 0x10A3 JUMPI DUP2 PUSH4 0x2F2FF15D EQ PUSH2 0x1066 JUMPI DUP2 PUSH4 0x345460CD EQ PUSH2 0xFB6 JUMPI DUP2 PUSH4 0x36568ABE EQ PUSH2 0xF6E JUMPI DUP2 PUSH4 0x3F4BA83A EQ PUSH2 0xF03 JUMPI DUP2 PUSH4 0x43AE2695 EQ PUSH2 0xED6 JUMPI DUP2 PUSH4 0x4585E33B EQ PUSH2 0xDF6 JUMPI DUP2 PUSH4 0x5C975ABB EQ PUSH2 0xDD3 JUMPI DUP2 PUSH4 0x6E04FF0D EQ PUSH2 0xD63 JUMPI DUP2 PUSH4 0x6F629ED5 EQ PUSH2 0xBE7 JUMPI DUP2 PUSH4 0x70876C98 EQ PUSH2 0x75D JUMPI DUP2 PUSH4 0x8456CB59 EQ PUSH2 0x702 JUMPI DUP2 PUSH4 0x91D14854 EQ PUSH2 0x6B7 JUMPI DUP2 PUSH4 0xA217FDDF EQ PUSH2 0x69B JUMPI DUP2 PUSH4 0xA8B268DE EQ PUSH2 0x662 JUMPI DUP2 PUSH4 0xC6F56901 EQ PUSH2 0x2D2 JUMPI DUP2 PUSH4 0xD2E0F66E EQ PUSH2 0x243 JUMPI POP DUP1 PUSH4 0xD547741F EQ PUSH2 0x202 JUMPI DUP1 PUSH4 0xE1F1C4A7 EQ PUSH2 0x1E5 JUMPI DUP1 PUSH4 0xE38ABD0F EQ PUSH2 0x1C3 JUMPI DUP1 PUSH4 0xE6A69AB8 EQ PUSH2 0x1A4 JUMPI PUSH4 0xF5B541A6 SUB PUSH2 0xF JUMPI CALLVALUE PUSH2 0x1A1 JUMPI DUP1 PUSH1 0x3 NOT CALLDATASIZE ADD SLT PUSH2 0x1A1 JUMPI PUSH1 0x20 PUSH1 0x40 MLOAD PUSH32 0x97667070C54EF182B0F5858B034BEAC1B6F3089AA2D3188BB1E8929F4FA9B929 DUP2 MSTORE RETURN JUMPDEST DUP1 REVERT JUMPDEST POP CALLVALUE PUSH2 0x1A1 JUMPI DUP1 PUSH1 0x3 NOT CALLDATASIZE ADD SLT PUSH2 0x1A1 JUMPI PUSH1 0x20 PUSH1 0x40 MLOAD PUSH4 0x1E13380 DUP2 MSTORE RETURN JUMPDEST POP CALLVALUE PUSH2 0x1A1 JUMPI PUSH1 0x20 PUSH2 0x1DD PUSH2 0x1D7 CALLDATASIZE PUSH2 0x154D JUMP JUMPDEST SWAP1 PUSH2 0x1946 JUMP JUMPDEST PUSH1 0x40 MLOAD SWAP1 DUP2 MSTORE RETURN JUMPDEST POP CALLVALUE PUSH2 0x1A1 JUMPI DUP1 PUSH1 0x3 NOT CALLDATASIZE ADD SLT PUSH2 0x1A1 JUMPI PUSH1 0x20 PUSH1 0x40 MLOAD PUSH2 0x2710 DUP2 MSTORE RETURN JUMPDEST POP CALLVALUE PUSH2 0x1A1 JUMPI PUSH1 0x40 CALLDATASIZE PUSH1 0x3 NOT ADD SLT PUSH2 0x1A1 JUMPI PUSH2 0x23F PUSH1 0x4 CALLDATALOAD PUSH2 0x222 PUSH2 0x14ED JUMP JUMPDEST SWAP1 DUP1 DUP5 MSTORE DUP4 PUSH1 0x20 MSTORE PUSH2 0x23A PUSH1 0x1 PUSH1 0x40 DUP7 KECCAK256 ADD SLOAD PUSH2 0x1680 JUMP JUMPDEST PUSH2 0x1724 JUMP JUMPDEST POP DUP1 RETURN JUMPDEST SWAP1 POP CALLVALUE PUSH2 0x2CE JUMPI PUSH2 0x253 CALLDATASIZE PUSH2 0x154D JUMP JUMPDEST SWAP1 DUP4 MSTORE PUSH1 0x3 PUSH1 0x20 MSTORE PUSH1 0x40 DUP4 KECCAK256 DUP1 SLOAD DUP3 LT ISZERO PUSH2 0x2CA JUMPI SWAP1 PUSH2 0x272 SWAP2 PUSH2 0x15B0 JUMP JUMPDEST POP PUSH1 0x1 DUP1 PUSH1 0xA0 SHL SUB DUP2 SLOAD AND SWAP1 PUSH1 0x1 DUP2 ADD SLOAD SWAP1 PUSH1 0x2 DUP2 ADD SLOAD PUSH1 0x3 DUP3 ADD SLOAD PUSH1 0x4 DUP4 ADD SLOAD SWAP2 PUSH1 0xFF PUSH1 0x6 PUSH1 0x5 DUP7 ADD SLOAD SWAP6 ADD SLOAD AND SWAP5 PUSH1 0x40 MLOAD SWAP7 DUP8 MSTORE PUSH1 0x20 DUP8 ADD MSTORE PUSH1 0x40 DUP7 ADD MSTORE PUSH1 0x60 DUP6 ADD MSTORE PUSH1 0x80 DUP5 ADD MSTORE PUSH1 0xA0 DUP4 ADD MSTORE ISZERO ISZERO PUSH1 0xC0 DUP3 ADD MSTORE RETURN JUMPDEST DUP4 DUP1 REVERT JUMPDEST POP DUP1 REVERT JUMPDEST DUP3 CALLVALUE PUSH2 0x1A1 JUMPI PUSH1 0x20 CALLDATASIZE PUSH1 0x3 NOT ADD SLT PUSH2 0x1A1 JUMPI PUSH2 0x2EC PUSH2 0x1923 JUMP JUMPDEST PUSH1 0x4 CALLDATALOAD DUP2 MSTORE PUSH1 0x4 PUSH1 0x20 MSTORE PUSH1 0x40 DUP2 KECCAK256 PUSH1 0x7 PUSH1 0x20 MSTORE PUSH2 0x30F PUSH1 0xFF PUSH1 0x40 DUP5 KECCAK256 SLOAD AND PUSH2 0x1801 JUMP JUMPDEST PUSH1 0x3 DUP2 ADD DUP1 SLOAD PUSH1 0xFF DUP2 AND PUSH2 0x624 JUMPI PUSH2 0x32D PUSH1 0x2 DUP5 ADD SLOAD TIMESTAMP LT ISZERO PUSH2 0x1983 JUMP JUMPDEST PUSH1 0xFF DUP2 PUSH1 0x8 SHR AND PUSH2 0x5DF JUMPI PUSH2 0x100 SWAP1 PUSH2 0xFF00 NOT AND OR SWAP1 SSTORE DUP1 SLOAD PUSH1 0x1 DUP1 SWAP3 ADD SLOAD PUSH1 0x40 MLOAD SWAP2 DUP3 MSTORE PUSH1 0x20 DUP3 ADD MSTORE PUSH32 0xE530E08C8F5E186CB204C6C0E883B12DDBCD56A383E4113F06DBEE1E09FDE7C6 PUSH1 0x40 PUSH1 0x4 CALLDATALOAD SWAP3 LOG2 PUSH1 0x4 CALLDATALOAD DUP3 MSTORE PUSH1 0x3 PUSH1 0x20 MSTORE DUP1 PUSH1 0x40 DUP4 KECCAK256 DUP2 DUP5 SWAP1 JUMPDEST PUSH2 0x3B5 JUMPI JUMPDEST POP POP POP PUSH1 0x4 CALLDATALOAD DUP3 MSTORE PUSH1 0x7 PUSH1 0x20 MSTORE PUSH1 0x40 DUP3 KECCAK256 DUP1 SLOAD PUSH1 0xFF NOT AND SWAP1 SSTORE DUP1 SSTORE DUP1 RETURN JUMPDEST DUP2 SLOAD DUP2 LT ISZERO PUSH2 0x5DA JUMPI PUSH2 0x3C8 DUP2 DUP4 PUSH2 0x15B0 JUMP JUMPDEST POP PUSH1 0x6 DUP2 ADD DUP1 SLOAD SWAP1 PUSH1 0xFF DUP3 AND ISZERO PUSH2 0x3EC JUMPI JUMPDEST POP POP POP PUSH2 0x3E6 SWAP1 PUSH2 0x19C6 JUMP JUMPDEST DUP3 PUSH2 0x392 JUMP JUMPDEST SWAP1 SWAP3 SWAP2 SWAP5 PUSH2 0x403 PUSH1 0x4 DUP8 ADD SLOAD PUSH1 0x5 DUP9 ADD SLOAD SWAP1 PUSH2 0x1946 JUMP JUMPDEST PUSH1 0xFF NOT SWAP1 SWAP5 AND OR SWAP1 SSTORE PUSH1 0x2 SLOAD DUP5 SLOAD PUSH1 0x40 MLOAD PUSH3 0x7EEAC7 PUSH1 0xE1 SHL DUP2 MSTORE PUSH1 0x1 PUSH1 0x1 PUSH1 0xA0 SHL SUB SWAP2 DUP3 AND PUSH1 0x4 DUP1 DUP4 ADD DUP3 SWAP1 MSTORE CALLDATALOAD PUSH1 0x24 DUP4 ADD MSTORE DUP10 SWAP4 PUSH1 0x8 SHR SWAP1 SWAP3 AND SWAP2 SWAP1 PUSH1 0x20 DUP2 PUSH1 0x44 DUP2 DUP7 GAS STATICCALL SWAP1 DUP2 ISZERO PUSH2 0x5CF JUMPI DUP5 SWAP2 PUSH2 0x595 JUMPI JUMPDEST POP DUP1 PUSH2 0x520 JUMPI JUMPDEST POP POP POP DUP1 DUP1 DUP1 DUP6 PUSH1 0x1 DUP1 PUSH1 0xA0 SHL SUB DUP10 SLOAD AND GAS CALL PUSH2 0x479 PUSH2 0x18C5 JUMP JUMPDEST POP ISZERO PUSH2 0x4E2 JUMPI DUP5 SWAP4 PUSH2 0x3E6 SWAP3 PUSH32 0x35B1F7E4C3146D284962CC37ABF509799D0F4BE30B6A19D025BA7309302C9487 PUSH1 0x4 PUSH1 0x1 DUP1 PUSH1 0xA0 SHL SUB DUP5 SLOAD AND SWAP4 ADD SLOAD SWAP2 PUSH2 0x4C0 DUP4 DUP3 PUSH2 0x18B8 JUMP JUMPDEST PUSH1 0x40 DUP1 MLOAD SWAP5 DUP6 MSTORE PUSH1 0x20 DUP6 ADD SWAP2 SWAP1 SWAP2 MSTORE DUP4 ADD MSTORE PUSH1 0x4 CALLDATALOAD SWAP2 PUSH1 0x60 SWAP1 LOG3 SWAP1 DUP7 DUP1 PUSH2 0x3DA JUMP JUMPDEST PUSH1 0x40 MLOAD PUSH3 0x461BCD PUSH1 0xE5 SHL DUP2 MSTORE PUSH1 0x20 PUSH1 0x4 DUP3 ADD MSTORE PUSH1 0x16 PUSH1 0x24 DUP3 ADD MSTORE PUSH22 0x1499599D5B99081D1C985B9CD9995C8819985A5B1959 PUSH1 0x52 SHL PUSH1 0x44 DUP3 ADD MSTORE PUSH1 0x64 SWAP1 REVERT JUMPDEST DUP3 EXTCODESIZE ISZERO PUSH2 0x2CA JUMPI PUSH1 0x40 MLOAD PUSH4 0x1DD85ADB PUSH1 0xE1 SHL DUP2 MSTORE PUSH1 0x4 DUP1 CALLDATALOAD SWAP1 DUP3 ADD MSTORE PUSH1 0x1 PUSH1 0x1 PUSH1 0xA0 SHL SUB SWAP3 SWAP1 SWAP3 AND PUSH1 0x24 DUP4 ADD MSTORE PUSH1 0x44 DUP3 ADD MSTORE SWAP1 DUP3 SWAP1 DUP3 SWAP1 PUSH1 0x64 SWAP1 DUP3 SWAP1 DUP5 SWAP1 GAS CALL DUP1 ISZERO PUSH2 0x58A JUMPI PUSH2 0x572 JUMPI JUMPDEST DUP1 DUP1 PUSH2 0x45E JUMP JUMPDEST PUSH2 0x57B SWAP1 PUSH2 0x1799 JUMP JUMPDEST PUSH2 0x586 JUMPI DUP6 DUP8 PUSH2 0x56B JUMP JUMPDEST DUP6 DUP1 REVERT JUMPDEST PUSH1 0x40 MLOAD RETURNDATASIZE DUP5 DUP3 RETURNDATACOPY RETURNDATASIZE SWAP1 REVERT JUMPDEST SWAP4 POP POP PUSH1 0x20 DUP4 RETURNDATASIZE PUSH1 0x20 GT PUSH2 0x5C7 JUMPI JUMPDEST DUP2 PUSH2 0x5B1 PUSH1 0x20 SWAP4 DUP4 PUSH2 0x17DF JUMP JUMPDEST DUP2 ADD SUB SLT PUSH2 0x5C2 JUMPI DUP9 SWAP3 MLOAD DUP11 PUSH2 0x457 JUMP JUMPDEST PUSH1 0x0 DUP1 REVERT JUMPDEST RETURNDATASIZE SWAP2 POP PUSH2 0x5A4 JUMP JUMPDEST PUSH1 0x40 MLOAD RETURNDATASIZE DUP7 DUP3 RETURNDATACOPY RETURNDATASIZE SWAP1 REVERT JUMPDEST PUSH2 0x397 JUMP JUMPDEST PUSH1 0x40 MLOAD PUSH3 0x461BCD PUSH1 0xE5 SHL DUP2 MSTORE PUSH1 0x20 PUSH1 0x4 DUP3 ADD MSTORE PUSH1 0x19 PUSH1 0x24 DUP3 ADD MSTORE PUSH32 0x526566756E647320616C72656164792070726F63657373656400000000000000 PUSH1 0x44 DUP3 ADD MSTORE PUSH1 0x64 SWAP1 REVERT JUMPDEST PUSH1 0x40 MLOAD PUSH3 0x461BCD PUSH1 0xE5 SHL DUP2 MSTORE PUSH1 0x20 PUSH1 0x4 DUP3 ADD MSTORE PUSH1 0x16 PUSH1 0x24 DUP3 ADD MSTORE PUSH22 0x119D5B991A5B99C81DD85CC81CDD58D8D95CDCD99D5B PUSH1 0x52 SHL PUSH1 0x44 DUP3 ADD MSTORE PUSH1 0x64 SWAP1 REVERT JUMPDEST DUP3 CALLVALUE PUSH2 0x1A1 JUMPI PUSH1 0x20 CALLDATASIZE PUSH1 0x3 NOT ADD SLT PUSH2 0x1A1 JUMPI PUSH1 0x4 CALLDATALOAD SWAP1 PUSH1 0x6 SLOAD DUP3 LT ISZERO PUSH2 0x1A1 JUMPI PUSH1 0x20 PUSH2 0x68D DUP4 PUSH2 0x1563 JUMP JUMPDEST SWAP1 SLOAD PUSH1 0x40 MLOAD SWAP2 PUSH1 0x3 SHL SHR DUP2 MSTORE RETURN JUMPDEST DUP3 CALLVALUE PUSH2 0x1A1 JUMPI DUP1 PUSH1 0x3 NOT CALLDATASIZE ADD SLT PUSH2 0x1A1 JUMPI PUSH1 0x20 SWAP1 PUSH1 0x40 MLOAD SWAP1 DUP2 MSTORE RETURN JUMPDEST DUP3 CALLVALUE PUSH2 0x1A1 JUMPI PUSH1 0x40 CALLDATASIZE PUSH1 0x3 NOT ADD SLT PUSH2 0x1A1 JUMPI PUSH1 0x40 PUSH2 0x6D3 PUSH2 0x14ED JUMP JUMPDEST SWAP2 PUSH1 0x4 CALLDATALOAD DUP2 MSTORE DUP1 PUSH1 0x20 MSTORE KECCAK256 SWAP1 PUSH1 0x1 DUP1 PUSH1 0xA0 SHL SUB AND PUSH1 0x0 MSTORE PUSH1 0x20 MSTORE PUSH1 0x20 PUSH1 0xFF PUSH1 0x40 PUSH1 0x0 KECCAK256 SLOAD AND PUSH1 0x40 MLOAD SWAP1 ISZERO ISZERO DUP2 MSTORE RETURN JUMPDEST DUP3 CALLVALUE PUSH2 0x1A1 JUMPI DUP1 PUSH1 0x3 NOT CALLDATASIZE ADD SLT PUSH2 0x1A1 JUMPI PUSH2 0x71B PUSH2 0x1646 JUMP JUMPDEST PUSH2 0x723 PUSH2 0x1905 JUMP JUMPDEST PUSH1 0x1 PUSH1 0xFF NOT PUSH1 0x2 SLOAD AND OR PUSH1 0x2 SSTORE PUSH32 0x62E78CEA01BEE320CD4E420270B5EA74000D11B0C9F74754EBDBFC544B05A258 PUSH1 0x20 PUSH1 0x40 MLOAD CALLER DUP2 MSTORE LOG1 DUP1 RETURN JUMPDEST DUP3 PUSH2 0x767 CALLDATASIZE PUSH2 0x154D JUMP JUMPDEST PUSH2 0x76F PUSH2 0x1923 JUMP JUMPDEST PUSH2 0x777 PUSH2 0x1905 JUMP JUMPDEST DUP2 DUP4 MSTORE PUSH1 0x4 PUSH1 0x20 MSTORE PUSH1 0x40 DUP4 KECCAK256 SWAP1 PUSH1 0x7 PUSH1 0x20 MSTORE PUSH2 0x799 PUSH1 0xFF PUSH1 0x40 DUP7 KECCAK256 SLOAD AND PUSH2 0x1801 JUMP JUMPDEST PUSH2 0x7AA PUSH1 0xFF PUSH1 0x3 DUP5 ADD SLOAD AND ISZERO PUSH2 0x1843 JUMP JUMPDEST PUSH1 0x2 DUP3 ADD SLOAD TIMESTAMP LT ISZERO PUSH2 0xBA2 JUMPI PUSH1 0x2 SLOAD PUSH1 0x40 MLOAD PUSH4 0x62AE87AB PUSH1 0xE1 SHL DUP2 MSTORE PUSH1 0x4 DUP2 ADD DUP6 SWAP1 MSTORE SWAP2 SWAP1 PUSH1 0x20 SWAP1 DUP4 SWAP1 PUSH1 0x24 SWAP1 DUP3 SWAP1 PUSH1 0x8 SHR PUSH1 0x1 PUSH1 0x1 PUSH1 0xA0 SHL SUB AND GAS STATICCALL SWAP2 DUP3 ISZERO PUSH2 0xB97 JUMPI DUP6 SWAP3 PUSH2 0xB63 JUMPI JUMPDEST POP PUSH2 0x800 DUP2 DUP4 PUSH2 0x1882 JUMP JUMPDEST SWAP2 DUP3 CALLVALUE LT PUSH2 0xB27 JUMPI DUP5 DUP7 MSTORE PUSH1 0x3 PUSH1 0x20 MSTORE PUSH1 0x40 DUP7 KECCAK256 PUSH1 0x40 MLOAD SWAP2 PUSH2 0x821 DUP4 PUSH2 0x17C3 JUMP JUMPDEST CALLER DUP4 MSTORE DUP7 PUSH1 0x20 DUP5 ADD MSTORE DUP4 PUSH1 0x40 DUP5 ADD MSTORE PUSH1 0x60 DUP4 ADD MSTORE DUP4 PUSH1 0x80 DUP4 ADD MSTORE TIMESTAMP PUSH1 0xA0 DUP4 ADD MSTORE DUP7 PUSH1 0xC0 DUP4 ADD MSTORE DUP1 SLOAD SWAP1 PUSH1 0x1 PUSH1 0x40 SHL DUP3 LT ISZERO PUSH2 0xB13 JUMPI SWAP1 PUSH2 0x866 SWAP2 PUSH1 0x1 DUP3 ADD DUP2 SSTORE PUSH2 0x15B0 JUMP JUMPDEST SWAP2 SWAP1 SWAP2 PUSH2 0xAFF JUMPI SWAP1 PUSH1 0x6 PUSH1 0xC0 PUSH2 0x8DF SWAP4 PUSH1 0x1 DUP1 PUSH1 0xA0 SHL SUB DUP2 MLOAD AND PUSH12 0xFFFFFFFFFFFFFFFFFFFFFFFF PUSH1 0xA0 SHL DUP6 SLOAD AND OR DUP5 SSTORE PUSH1 0x20 DUP2 ADD MLOAD PUSH1 0x1 DUP6 ADD SSTORE PUSH1 0x40 DUP2 ADD MLOAD PUSH1 0x2 DUP6 ADD SSTORE PUSH1 0x60 DUP2 ADD MLOAD PUSH1 0x3 DUP6 ADD SSTORE PUSH1 0x80 DUP2 ADD MLOAD PUSH1 0x4 DUP6 ADD SSTORE PUSH1 0xA0 DUP2 ADD MLOAD PUSH1 0x5 DUP6 ADD SSTORE ADD MLOAD ISZERO ISZERO SWAP2 ADD SWAP1 PUSH1 0xFF DUP1 NOT DUP4 SLOAD AND SWAP2 ISZERO ISZERO AND OR SWAP1 SSTORE JUMP JUMPDEST PUSH2 0x8EA DUP3 DUP5 SLOAD PUSH2 0x18AB JUMP JUMPDEST DUP4 SSTORE DUP4 DUP6 MSTORE PUSH1 0x5 PUSH1 0x20 MSTORE PUSH1 0x40 DUP6 KECCAK256 CALLER PUSH1 0x0 MSTORE PUSH1 0x20 MSTORE PUSH1 0x40 PUSH1 0x0 KECCAK256 PUSH2 0x90F DUP4 DUP3 SLOAD PUSH2 0x18AB JUMP JUMPDEST SWAP1 SSTORE PUSH1 0x2 SLOAD PUSH1 0x8 SHR PUSH1 0x1 PUSH1 0x1 PUSH1 0xA0 SHL SUB AND SWAP1 DUP2 EXTCODESIZE ISZERO PUSH2 0x586 JUMPI PUSH1 0x40 MLOAD PUSH4 0x46B40CDF PUSH1 0xE1 SHL DUP2 MSTORE PUSH1 0x4 DUP2 ADD DUP7 SWAP1 MSTORE CALLER PUSH1 0x24 DUP3 ADD MSTORE PUSH1 0x44 DUP2 ADD DUP3 SWAP1 MSTORE SWAP2 DUP7 SWAP1 DUP2 SWAP1 DUP5 SWAP1 PUSH1 0x64 SWAP1 DUP3 SWAP1 DUP5 SWAP1 GAS CALL SWAP3 DUP4 ISZERO PUSH2 0xAF2 JUMPI DUP7 SWAP4 PUSH2 0xAD5 JUMPI JUMPDEST POP POP DUP3 CALLVALUE GT PUSH2 0xA78 JUMPI JUMPDEST PUSH2 0x9B7 PUSH32 0x76D4A8F0927F81646EBA8E062C7769238E76316CA0F16820B27D377C2BECC1E SWAP2 PUSH1 0x40 MLOAD SWAP2 DUP3 SWAP2 CALLER SWAP7 TIMESTAMP SWAP2 DUP5 PUSH1 0x40 SWAP2 SWAP5 SWAP4 SWAP3 PUSH1 0x60 DUP3 ADD SWAP6 DUP3 MSTORE PUSH1 0x20 DUP3 ADD MSTORE ADD MSTORE JUMP JUMPDEST SUB SWAP1 LOG3 PUSH1 0x1 DUP2 SLOAD SWAP2 ADD SLOAD GT ISZERO PUSH2 0x9D0 JUMPI JUMPDEST POP PUSH1 0x1 DUP1 SSTORE DUP1 RETURN JUMPDEST DUP1 DUP3 MSTORE PUSH1 0x4 PUSH1 0x20 MSTORE PUSH1 0x40 DUP3 KECCAK256 PUSH1 0x3 DUP2 ADD DUP1 SLOAD PUSH1 0xFF NOT AND PUSH1 0x1 OR SWAP1 SSTORE PUSH1 0x2 SLOAD DUP4 SWAP1 PUSH1 0x8 SHR PUSH1 0x1 PUSH1 0x1 PUSH1 0xA0 SHL SUB AND DUP1 EXTCODESIZE ISZERO PUSH2 0x2CE JUMPI DUP2 DUP1 SWAP2 PUSH1 0x24 PUSH1 0x40 MLOAD DUP1 SWAP5 DUP2 SWAP4 PUSH4 0x62B33759 PUSH1 0xE1 SHL DUP4 MSTORE DUP10 PUSH1 0x4 DUP5 ADD MSTORE GAS CALL DUP1 ISZERO PUSH2 0x58A JUMPI PUSH2 0xA60 JUMPI JUMPDEST POP POP PUSH1 0x20 PUSH32 0xA94752E9C9082234A8789D877418277DFC7F671E8C27E4A3C22928CAE0447312 SWAP2 SLOAD PUSH1 0x40 MLOAD SWAP1 DUP2 MSTORE LOG2 DUP2 PUSH2 0x9C8 JUMP JUMPDEST PUSH2 0xA69 SWAP1 PUSH2 0x1799 JUMP JUMPDEST PUSH2 0xA74 JUMPI DUP3 DUP5 PUSH2 0xA2C JUMP JUMPDEST DUP3 DUP1 REVERT JUMPDEST SWAP1 POP DUP5 DUP1 DUP1 DUP1 PUSH2 0xA88 DUP7 CALLVALUE PUSH2 0x18B8 JUMP JUMPDEST CALLER GAS CALL PUSH2 0xA93 PUSH2 0x18C5 JUMP JUMPDEST POP ISZERO PUSH2 0xAA0 JUMPI DUP4 SWAP1 PUSH2 0x971 JUMP JUMPDEST PUSH1 0x40 MLOAD PUSH3 0x461BCD PUSH1 0xE5 SHL DUP2 MSTORE PUSH1 0x20 PUSH1 0x4 DUP3 ADD MSTORE PUSH1 0xD PUSH1 0x24 DUP3 ADD MSTORE PUSH13 0x1499599D5B990819985A5B1959 PUSH1 0x9A SHL PUSH1 0x44 DUP3 ADD MSTORE PUSH1 0x64 SWAP1 REVERT JUMPDEST PUSH2 0xAE1 SWAP2 SWAP3 SWAP4 POP PUSH2 0x1799 JUMP JUMPDEST PUSH2 0xAEE JUMPI DUP4 SWAP1 DUP6 DUP8 PUSH2 0x967 JUMP JUMPDEST DUP5 DUP1 REVERT JUMPDEST POP PUSH1 0x40 MLOAD SWAP1 RETURNDATASIZE SWAP1 DUP3 RETURNDATACOPY RETURNDATASIZE SWAP1 REVERT JUMPDEST PUSH4 0x4E487B71 PUSH1 0xE0 SHL DUP8 MSTORE PUSH1 0x4 DUP8 SWAP1 MSTORE PUSH1 0x24 DUP8 REVERT JUMPDEST PUSH4 0x4E487B71 PUSH1 0xE0 SHL DUP9 MSTORE PUSH1 0x41 PUSH1 0x4 MSTORE PUSH1 0x24 DUP9 REVERT JUMPDEST PUSH1 0x40 MLOAD PUSH3 0x461BCD PUSH1 0xE5 SHL DUP2 MSTORE PUSH1 0x20 PUSH1 0x4 DUP3 ADD MSTORE PUSH1 0x14 PUSH1 0x24 DUP3 ADD MSTORE PUSH20 0x125B9CDD59999A58DA595B9D081C185E5B595B9D PUSH1 0x62 SHL PUSH1 0x44 DUP3 ADD MSTORE PUSH1 0x64 SWAP1 REVERT JUMPDEST SWAP1 SWAP2 POP PUSH1 0x20 DUP2 RETURNDATASIZE PUSH1 0x20 GT PUSH2 0xB8F JUMPI JUMPDEST DUP2 PUSH2 0xB7F PUSH1 0x20 SWAP4 DUP4 PUSH2 0x17DF JUMP JUMPDEST DUP2 ADD SUB SLT PUSH2 0x5C2 JUMPI MLOAD SWAP1 DUP6 PUSH2 0x7F5 JUMP JUMPDEST RETURNDATASIZE SWAP2 POP PUSH2 0xB72 JUMP JUMPDEST PUSH1 0x40 MLOAD RETURNDATASIZE DUP8 DUP3 RETURNDATACOPY RETURNDATASIZE SWAP1 REVERT JUMPDEST PUSH1 0x40 MLOAD PUSH3 0x461BCD PUSH1 0xE5 SHL DUP2 MSTORE PUSH1 0x20 PUSH1 0x4 DUP3 ADD MSTORE PUSH1 0x17 PUSH1 0x24 DUP3 ADD MSTORE PUSH32 0x46756E64696E6720646561646C696E6520706173736564000000000000000000 PUSH1 0x44 DUP3 ADD MSTORE PUSH1 0x64 SWAP1 REVERT JUMPDEST DUP3 CALLVALUE PUSH2 0x1A1 JUMPI PUSH1 0x20 DUP1 PUSH1 0x3 NOT CALLDATASIZE ADD SLT PUSH2 0x2CE JUMPI PUSH1 0x4 CALLDATALOAD DUP3 MSTORE PUSH1 0x3 SWAP1 DUP2 DUP2 MSTORE PUSH1 0x40 DUP4 KECCAK256 SWAP3 DUP4 SLOAD PUSH8 0xFFFFFFFFFFFFFFFF DUP2 GT PUSH2 0xD4F JUMPI DUP6 SWAP2 DUP5 DUP7 SWAP3 PUSH1 0x40 MLOAD SWAP2 PUSH1 0x5 PUSH2 0xC34 DUP9 DUP5 DUP4 SHL ADD DUP6 PUSH2 0x17DF JUMP JUMPDEST DUP3 DUP5 MSTORE DUP8 DUP5 ADD SWAP2 DUP3 SWAP7 DUP7 MSTORE DUP9 DUP7 KECCAK256 SWAP2 DUP7 SWAP4 JUMPDEST DUP6 DUP6 LT PUSH2 0xCDB JUMPI POP POP POP POP POP POP PUSH1 0x40 MLOAD SWAP5 DUP6 SWAP5 DUP2 DUP7 ADD SWAP3 DUP3 DUP8 MSTORE MLOAD DUP1 SWAP4 MSTORE PUSH1 0x40 DUP7 ADD SWAP5 SWAP4 SWAP1 JUMPDEST DUP4 DUP3 LT PUSH2 0xC79 JUMPI DUP7 DUP7 SUB DUP8 RETURN JUMPDEST DUP5 MLOAD DUP1 MLOAD PUSH1 0x1 PUSH1 0x1 PUSH1 0xA0 SHL SUB AND DUP8 MSTORE DUP1 DUP5 ADD MLOAD DUP8 DUP6 ADD MSTORE PUSH1 0x40 DUP1 DUP3 ADD MLOAD SWAP1 DUP9 ADD MSTORE PUSH1 0x60 DUP1 DUP3 ADD MLOAD SWAP1 DUP9 ADD MSTORE PUSH1 0x80 DUP1 DUP3 ADD MLOAD SWAP1 DUP9 ADD MSTORE PUSH1 0xA0 DUP1 DUP3 ADD MLOAD SWAP1 DUP9 ADD MSTORE PUSH1 0xC0 SWAP1 DUP2 ADD MLOAD ISZERO ISZERO SWAP1 DUP8 ADD MSTORE DUP8 SWAP7 POP SWAP5 DUP6 ADD SWAP5 SWAP4 DUP3 ADD SWAP4 PUSH1 0x1 SWAP2 SWAP1 SWAP2 ADD SWAP1 PUSH2 0xC6C JUMP JUMPDEST PUSH1 0x7 DUP12 PUSH1 0x1 SWAP3 PUSH1 0x40 SWAP14 SWAP11 SWAP10 SWAP12 SWAP13 SWAP14 MLOAD PUSH2 0xCF3 DUP2 PUSH2 0x17C3 JUMP JUMPDEST DUP5 DUP1 PUSH1 0xA0 SHL SUB DUP9 SLOAD AND DUP2 MSTORE DUP5 DUP9 ADD SLOAD DUP4 DUP3 ADD MSTORE PUSH1 0x2 DUP9 ADD SLOAD PUSH1 0x40 DUP3 ADD MSTORE DUP7 DUP9 ADD SLOAD PUSH1 0x60 DUP3 ADD MSTORE PUSH1 0x4 DUP9 ADD SLOAD PUSH1 0x80 DUP3 ADD MSTORE DUP6 DUP9 ADD SLOAD PUSH1 0xA0 DUP3 ADD MSTORE PUSH1 0xFF PUSH1 0x6 DUP10 ADD SLOAD AND ISZERO ISZERO PUSH1 0xC0 DUP3 ADD MSTORE DUP2 MSTORE ADD SWAP5 ADD SWAP5 ADD SWAP4 SWAP3 SWAP10 SWAP9 SWAP8 SWAP6 SWAP7 SWAP10 PUSH2 0xC46 JUMP JUMPDEST PUSH4 0x4E487B71 PUSH1 0xE0 SHL DUP3 MSTORE PUSH1 0x41 PUSH1 0x4 MSTORE PUSH1 0x24 DUP3 REVERT JUMPDEST DUP3 CALLVALUE PUSH2 0x1A1 JUMPI PUSH2 0xD72 CALLDATASIZE PUSH2 0x1503 JUMP JUMPDEST POP POP PUSH2 0xD7C PUSH2 0x19D5 JUMP JUMPDEST SWAP1 PUSH1 0x40 MLOAD SWAP3 DUP4 SWAP2 ISZERO ISZERO DUP3 MSTORE PUSH1 0x20 SWAP1 PUSH1 0x40 DUP3 DUP5 ADD MSTORE DUP4 MLOAD SWAP2 DUP3 PUSH1 0x40 DUP6 ADD MSTORE DUP2 JUMPDEST DUP4 DUP2 LT PUSH2 0xDBC JUMPI POP POP PUSH1 0x60 DUP1 SWAP5 POP DUP3 DUP5 ADD ADD MSTORE PUSH1 0x1F DUP1 NOT SWAP2 ADD AND DUP2 ADD SUB ADD SWAP1 RETURN JUMPDEST DUP1 DUP7 ADD DUP3 ADD MLOAD DUP8 DUP3 ADD PUSH1 0x60 ADD MSTORE DUP7 SWAP5 POP DUP2 ADD PUSH2 0xD9B JUMP JUMPDEST DUP3 CALLVALUE PUSH2 0x1A1 JUMPI DUP1 PUSH1 0x3 NOT CALLDATASIZE ADD SLT PUSH2 0x1A1 JUMPI PUSH1 0x20 PUSH1 0xFF PUSH1 0x2 SLOAD AND PUSH1 0x40 MLOAD SWAP1 ISZERO ISZERO DUP2 MSTORE RETURN JUMPDEST DUP3 CALLVALUE PUSH2 0x1A1 JUMPI PUSH1 0x20 PUSH2 0xE07 CALLDATASIZE PUSH2 0x1503 JUMP JUMPDEST SWAP1 DUP1 SWAP3 SWAP2 DUP2 ADD SUB SLT PUSH2 0x2CE JUMPI CALLDATALOAD DUP1 DUP3 MSTORE PUSH1 0x4 PUSH1 0x20 MSTORE PUSH1 0x40 DUP3 KECCAK256 PUSH1 0x7 PUSH1 0x20 MSTORE PUSH2 0xE35 PUSH1 0xFF PUSH1 0x40 DUP6 KECCAK256 SLOAD AND PUSH2 0x1801 JUMP JUMPDEST PUSH1 0xFF PUSH1 0x3 DUP3 ADD SLOAD PUSH2 0xE48 DUP3 DUP3 AND ISZERO PUSH2 0x1843 JUMP JUMPDEST PUSH1 0x8 SHR AND PUSH2 0xE9D JUMPI PUSH1 0x2 PUSH2 0xE60 SWAP2 ADD SLOAD TIMESTAMP LT ISZERO PUSH2 0x1983 JUMP JUMPDEST ADDRESS EXTCODESIZE ISZERO PUSH2 0x2CE JUMPI PUSH1 0x40 MLOAD SWAP1 PUSH4 0xC6F56901 PUSH1 0xE0 SHL DUP3 MSTORE PUSH1 0x4 DUP3 ADD MSTORE DUP2 DUP2 PUSH1 0x24 DUP2 DUP4 ADDRESS GAS CALL DUP1 ISZERO PUSH2 0x58A JUMPI PUSH2 0xE91 JUMPI POP DUP1 RETURN JUMPDEST PUSH2 0xE9A SWAP1 PUSH2 0x1799 JUMP JUMPDEST DUP1 RETURN JUMPDEST PUSH1 0x40 MLOAD PUSH3 0x461BCD PUSH1 0xE5 SHL DUP2 MSTORE PUSH1 0x20 PUSH1 0x4 DUP3 ADD MSTORE PUSH1 0x11 PUSH1 0x24 DUP3 ADD MSTORE PUSH17 0x1499599D5B991CC81C1C9BD8D95CDCD959 PUSH1 0x7A SHL PUSH1 0x44 DUP3 ADD MSTORE PUSH1 0x64 SWAP1 REVERT JUMPDEST DUP3 CALLVALUE PUSH2 0x1A1 JUMPI DUP1 PUSH1 0x3 NOT CALLDATASIZE ADD SLT PUSH2 0x1A1 JUMPI PUSH1 0x2 SLOAD PUSH1 0x40 MLOAD PUSH1 0x8 SWAP2 SWAP1 SWAP2 SHR PUSH1 0x1 PUSH1 0x1 PUSH1 0xA0 SHL SUB AND DUP2 MSTORE PUSH1 0x20 SWAP1 RETURN JUMPDEST DUP3 CALLVALUE PUSH2 0x1A1 JUMPI DUP1 PUSH1 0x3 NOT CALLDATASIZE ADD SLT PUSH2 0x1A1 JUMPI PUSH2 0xF1C PUSH2 0x1646 JUMP JUMPDEST PUSH1 0x2 SLOAD PUSH1 0xFF DUP2 AND ISZERO PUSH2 0xF5C JUMPI PUSH1 0xFF NOT AND PUSH1 0x2 SSTORE PUSH32 0x5DB9EE0A495BF2E6FF9C91A7834C1BA4FDD244A5E8AA4E537BD38AEAE4B073AA PUSH1 0x20 PUSH1 0x40 MLOAD CALLER DUP2 MSTORE LOG1 DUP1 RETURN JUMPDEST PUSH1 0x40 MLOAD PUSH4 0x8DFC202B PUSH1 0xE0 SHL DUP2 MSTORE PUSH1 0x4 SWAP1 REVERT JUMPDEST DUP3 CALLVALUE PUSH2 0x1A1 JUMPI PUSH1 0x40 CALLDATASIZE PUSH1 0x3 NOT ADD SLT PUSH2 0x1A1 JUMPI PUSH2 0xF88 PUSH2 0x14ED JUMP JUMPDEST CALLER PUSH1 0x1 PUSH1 0x1 PUSH1 0xA0 SHL SUB DUP3 AND SUB PUSH2 0xFA4 JUMPI PUSH2 0x23F SWAP1 PUSH1 0x4 CALLDATALOAD PUSH2 0x1724 JUMP JUMPDEST PUSH1 0x40 MLOAD PUSH4 0x334BD919 PUSH1 0xE1 SHL DUP2 MSTORE PUSH1 0x4 SWAP1 REVERT JUMPDEST DUP3 CALLVALUE PUSH2 0x1A1 JUMPI PUSH1 0x20 CALLDATASIZE PUSH1 0x3 NOT ADD SLT PUSH2 0x1A1 JUMPI PUSH1 0x4 DUP1 CALLDATALOAD DUP3 MSTORE PUSH1 0x20 MSTORE PUSH1 0x40 DUP2 KECCAK256 PUSH1 0x1 DUP2 ADD SLOAD DUP1 ISZERO SWAP3 DUP4 PUSH2 0x105C JUMPI DUP3 SLOAD SWAP4 PUSH2 0x2710 SWAP5 DUP6 DUP2 MUL SWAP6 DUP2 DUP8 DIV EQ SWAP1 ISZERO OR ISZERO PUSH2 0x1048 JUMPI PUSH2 0x1034 JUMPI POP DUP1 PUSH1 0xA0 SWAP4 DIV SWAP1 JUMPDEST DUP3 SLOAD SWAP3 PUSH1 0xFF PUSH1 0x3 PUSH1 0x2 DUP4 ADD SLOAD SWAP3 ADD SLOAD AND SWAP2 PUSH1 0x40 MLOAD SWAP5 DUP6 MSTORE PUSH1 0x20 DUP6 ADD MSTORE PUSH1 0x40 DUP5 ADD MSTORE ISZERO ISZERO PUSH1 0x60 DUP4 ADD MSTORE PUSH1 0x80 DUP3 ADD MSTORE RETURN JUMPDEST PUSH4 0x4E487B71 PUSH1 0xE0 SHL DUP2 MSTORE PUSH1 0x12 PUSH1 0x4 MSTORE PUSH1 0x24 SWAP1 REVERT JUMPDEST PUSH4 0x4E487B71 PUSH1 0xE0 SHL DUP3 MSTORE PUSH1 0x11 PUSH1 0x4 MSTORE PUSH1 0x24 DUP3 REVERT JUMPDEST PUSH1 0xA0 SWAP4 POP SWAP1 PUSH2 0x1005 JUMP JUMPDEST DUP3 CALLVALUE PUSH2 0x1A1 JUMPI PUSH1 0x40 CALLDATASIZE PUSH1 0x3 NOT ADD SLT PUSH2 0x1A1 JUMPI PUSH2 0x23F PUSH1 0x4 CALLDATALOAD PUSH2 0x1086 PUSH2 0x14ED JUMP JUMPDEST SWAP1 DUP1 DUP5 MSTORE DUP4 PUSH1 0x20 MSTORE PUSH2 0x109E PUSH1 0x1 PUSH1 0x40 DUP7 KECCAK256 ADD SLOAD PUSH2 0x1680 JUMP JUMPDEST PUSH2 0x16A6 JUMP JUMPDEST DUP3 CALLVALUE PUSH2 0x1A1 JUMPI PUSH1 0x20 CALLDATASIZE PUSH1 0x3 NOT ADD SLT PUSH2 0x1A1 JUMPI PUSH1 0x1 PUSH1 0x40 PUSH1 0x20 SWAP3 PUSH1 0x4 CALLDATALOAD DUP2 MSTORE DUP1 DUP5 MSTORE KECCAK256 ADD SLOAD PUSH1 0x40 MLOAD SWAP1 DUP2 MSTORE RETURN JUMPDEST DUP3 CALLVALUE PUSH2 0x1A1 JUMPI PUSH1 0x20 CALLDATASIZE PUSH1 0x3 NOT ADD SLT PUSH2 0x1A1 JUMPI PUSH1 0x40 PUSH1 0xA0 SWAP2 PUSH1 0x4 CALLDATALOAD DUP2 MSTORE PUSH1 0x4 PUSH1 0x20 MSTORE KECCAK256 PUSH1 0xFF DUP2 SLOAD SWAP2 PUSH1 0x1 DUP2 ADD SLOAD SWAP1 PUSH1 0x3 PUSH1 0x2 DUP3 ADD SLOAD SWAP2 ADD SLOAD SWAP2 PUSH1 0x40 MLOAD SWAP5 DUP6 MSTORE PUSH1 0x20 DUP6 ADD MSTORE PUSH1 0x40 DUP5 ADD MSTORE DUP2 DUP2 AND ISZERO ISZERO PUSH1 0x60 DUP5 ADD MSTORE PUSH1 0x8 SHR AND ISZERO ISZERO PUSH1 0x80 DUP3 ADD MSTORE RETURN JUMPDEST DUP3 CALLVALUE PUSH2 0x1A1 JUMPI PUSH1 0x40 CALLDATASIZE PUSH1 0x3 NOT ADD SLT PUSH2 0x1A1 JUMPI PUSH1 0x4 CALLDATALOAD PUSH2 0x114B PUSH2 0x14ED JUMP JUMPDEST SWAP1 PUSH2 0x1154 PUSH2 0x15CC JUMP JUMPDEST PUSH2 0x115C PUSH2 0x1923 JUMP JUMPDEST DUP1 DUP4 MSTORE PUSH1 0x20 PUSH1 0x4 DUP2 MSTORE PUSH1 0x40 DUP5 KECCAK256 SWAP3 PUSH1 0xFF PUSH1 0x3 DUP6 ADD SLOAD AND ISZERO PUSH2 0x1259 JUMPI DUP4 SLOAD SWAP4 DUP5 ISZERO PUSH2 0x121E JUMPI DUP6 SWAP1 SSTORE DUP3 DUP6 MSTORE PUSH1 0x7 DUP3 MSTORE PUSH1 0x40 DUP6 KECCAK256 DUP1 SLOAD PUSH1 0xFF NOT AND SWAP1 SSTORE PUSH1 0x1 PUSH1 0x1 PUSH1 0xA0 SHL SUB AND SWAP3 DUP5 DUP1 DUP1 DUP1 DUP5 DUP9 GAS CALL PUSH2 0x11B0 PUSH2 0x18C5 JUMP JUMPDEST POP ISZERO PUSH2 0x11E7 JUMPI SWAP1 PUSH32 0x6E3C6096795C8298A218B2CFB8BDE42726FF7C9A3D27B4D3BA41AB7F74FEB5FB SWAP2 PUSH1 0x40 MLOAD SWAP1 DUP2 MSTORE LOG3 PUSH1 0x1 DUP1 SSTORE DUP1 RETURN JUMPDEST PUSH1 0x40 MLOAD PUSH3 0x461BCD PUSH1 0xE5 SHL DUP2 MSTORE PUSH1 0x4 DUP2 ADD DUP4 SWAP1 MSTORE PUSH1 0xF PUSH1 0x24 DUP3 ADD MSTORE PUSH15 0x151C985B9CD9995C8819985A5B1959 PUSH1 0x8A SHL PUSH1 0x44 DUP3 ADD MSTORE PUSH1 0x64 SWAP1 REVERT JUMPDEST PUSH1 0x40 MLOAD PUSH3 0x461BCD PUSH1 0xE5 SHL DUP2 MSTORE PUSH1 0x4 DUP2 ADD DUP5 SWAP1 MSTORE PUSH1 0x13 PUSH1 0x24 DUP3 ADD MSTORE PUSH19 0x4E6F2066756E647320746F2072656C65617365 PUSH1 0x68 SHL PUSH1 0x44 DUP3 ADD MSTORE PUSH1 0x64 SWAP1 REVERT JUMPDEST PUSH1 0x40 MLOAD PUSH3 0x461BCD PUSH1 0xE5 SHL DUP2 MSTORE PUSH1 0x4 DUP2 ADD DUP4 SWAP1 MSTORE PUSH1 0x14 PUSH1 0x24 DUP3 ADD MSTORE PUSH20 0x46756E64696E67206E6F7420636F6D706C657465 PUSH1 0x60 SHL PUSH1 0x44 DUP3 ADD MSTORE PUSH1 0x64 SWAP1 REVERT JUMPDEST DUP3 CALLVALUE PUSH2 0x1A1 JUMPI PUSH1 0x20 CALLDATASIZE PUSH1 0x3 NOT ADD SLT PUSH2 0x1A1 JUMPI PUSH1 0xFF PUSH1 0x40 PUSH1 0x20 SWAP3 PUSH1 0x4 CALLDATALOAD DUP2 MSTORE PUSH1 0x7 DUP5 MSTORE KECCAK256 SLOAD AND PUSH1 0x40 MLOAD SWAP1 ISZERO ISZERO DUP2 MSTORE RETURN JUMPDEST DUP3 CALLVALUE PUSH2 0x1A1 JUMPI DUP1 PUSH1 0x3 NOT CALLDATASIZE ADD SLT PUSH2 0x1A1 JUMPI PUSH1 0x20 PUSH1 0x40 MLOAD PUSH2 0x12C DUP2 MSTORE RETURN JUMPDEST DUP3 CALLVALUE PUSH2 0x1A1 JUMPI PUSH1 0x40 CALLDATASIZE PUSH1 0x3 NOT ADD SLT PUSH2 0x1A1 JUMPI PUSH1 0x40 PUSH1 0x20 SWAP2 PUSH2 0x1300 PUSH2 0x14ED JUMP JUMPDEST PUSH1 0x4 CALLDATALOAD DUP3 MSTORE PUSH1 0x5 DUP5 MSTORE DUP3 DUP3 KECCAK256 PUSH1 0x1 PUSH1 0x1 PUSH1 0xA0 SHL SUB SWAP1 SWAP2 AND DUP3 MSTORE DUP4 MSTORE KECCAK256 SLOAD PUSH1 0x40 MLOAD SWAP1 DUP2 MSTORE RETURN JUMPDEST DUP3 CALLVALUE PUSH2 0x1A1 JUMPI PUSH1 0x60 CALLDATASIZE PUSH1 0x3 NOT ADD SLT PUSH2 0x1A1 JUMPI PUSH1 0x4 CALLDATALOAD PUSH2 0x1342 PUSH2 0x15CC JUMP JUMPDEST DUP1 DUP3 MSTORE PUSH1 0x7 PUSH1 0x20 MSTORE PUSH1 0xFF PUSH1 0x40 DUP4 KECCAK256 SLOAD AND PUSH2 0x145B JUMPI PUSH1 0x40 MLOAD PUSH1 0xA0 DUP2 ADD DUP2 DUP2 LT PUSH8 0xFFFFFFFFFFFFFFFF DUP3 GT OR PUSH2 0x1447 JUMPI PUSH1 0x40 MSTORE DUP3 DUP2 MSTORE PUSH1 0x20 DUP2 ADD PUSH1 0x24 CALLDATALOAD DUP2 MSTORE PUSH2 0x13D1 PUSH1 0x3 PUSH1 0x40 DUP5 ADD SWAP4 PUSH1 0x44 CALLDATALOAD DUP6 MSTORE PUSH1 0x60 DUP2 ADD SWAP5 DUP8 DUP7 MSTORE PUSH1 0x80 DUP3 ADD SWAP5 DUP9 DUP7 MSTORE DUP8 DUP10 MSTORE PUSH1 0x4 PUSH1 0x20 MSTORE PUSH1 0x40 DUP10 KECCAK256 SWAP3 MLOAD DUP4 SSTORE MLOAD PUSH1 0x1 DUP4 ADD SSTORE MLOAD PUSH1 0x2 DUP3 ADD SSTORE ADD SWAP3 MLOAD ISZERO ISZERO DUP4 SWAP1 PUSH1 0xFF DUP1 NOT DUP4 SLOAD AND SWAP2 ISZERO ISZERO AND OR SWAP1 SSTORE JUMP JUMPDEST MLOAD DUP2 SLOAD PUSH2 0xFF00 NOT AND SWAP1 ISZERO ISZERO PUSH1 0x8 SHL PUSH2 0xFF00 AND OR SWAP1 SSTORE PUSH1 0x6 SLOAD PUSH1 0x1 PUSH1 0x40 SHL DUP2 LT ISZERO PUSH2 0x1433 JUMPI DUP1 PUSH1 0x1 PUSH2 0x1405 SWAP3 ADD PUSH1 0x6 SSTORE PUSH2 0x1563 JUMP JUMPDEST DUP2 SLOAD SWAP1 PUSH1 0x3 SHL SWAP1 DUP4 DUP3 SHL SWAP2 PUSH1 0x0 NOT SWAP1 SHL NOT AND OR SWAP1 SSTORE DUP2 MSTORE PUSH1 0x7 PUSH1 0x20 MSTORE PUSH1 0x40 DUP2 KECCAK256 PUSH1 0x1 PUSH1 0xFF NOT DUP3 SLOAD AND OR SWAP1 SSTORE DUP1 RETURN JUMPDEST PUSH4 0x4E487B71 PUSH1 0xE0 SHL DUP4 MSTORE PUSH1 0x41 PUSH1 0x4 MSTORE PUSH1 0x24 DUP4 REVERT JUMPDEST PUSH4 0x4E487B71 PUSH1 0xE0 SHL DUP5 MSTORE PUSH1 0x41 PUSH1 0x4 MSTORE PUSH1 0x24 DUP5 REVERT JUMPDEST PUSH1 0x40 MLOAD PUSH3 0x461BCD PUSH1 0xE5 SHL DUP2 MSTORE PUSH1 0x20 PUSH1 0x4 DUP3 ADD MSTORE PUSH1 0x15 PUSH1 0x24 DUP3 ADD MSTORE PUSH21 0x457363726F7720616C726561647920657869737473 PUSH1 0x58 SHL PUSH1 0x44 DUP3 ADD MSTORE PUSH1 0x64 SWAP1 REVERT JUMPDEST DUP4 SWAP1 CALLVALUE PUSH2 0x2CE JUMPI PUSH1 0x20 CALLDATASIZE PUSH1 0x3 NOT ADD SLT PUSH2 0x2CE JUMPI PUSH1 0x4 CALLDATALOAD PUSH4 0xFFFFFFFF PUSH1 0xE0 SHL DUP2 AND DUP1 SWAP2 SUB PUSH2 0xA74 JUMPI PUSH1 0x20 SWAP3 POP PUSH4 0x7965DB0B PUSH1 0xE0 SHL DUP2 EQ SWAP1 DUP2 ISZERO PUSH2 0x14DC JUMPI JUMPDEST POP ISZERO ISZERO DUP2 MSTORE RETURN JUMPDEST PUSH4 0x1FFC9A7 PUSH1 0xE0 SHL EQ SWAP1 POP DUP4 PUSH2 0x14D5 JUMP JUMPDEST PUSH1 0x24 CALLDATALOAD SWAP1 PUSH1 0x1 PUSH1 0x1 PUSH1 0xA0 SHL SUB DUP3 AND DUP3 SUB PUSH2 0x5C2 JUMPI JUMP JUMPDEST SWAP1 PUSH1 0x20 PUSH1 0x3 NOT DUP4 ADD SLT PUSH2 0x5C2 JUMPI PUSH1 0x4 CALLDATALOAD PUSH8 0xFFFFFFFFFFFFFFFF SWAP3 DUP4 DUP3 GT PUSH2 0x5C2 JUMPI DUP1 PUSH1 0x23 DUP4 ADD SLT ISZERO PUSH2 0x5C2 JUMPI DUP2 PUSH1 0x4 ADD CALLDATALOAD SWAP4 DUP5 GT PUSH2 0x5C2 JUMPI PUSH1 0x24 DUP5 DUP4 ADD ADD GT PUSH2 0x5C2 JUMPI PUSH1 0x24 ADD SWAP2 SWAP1 JUMP JUMPDEST PUSH1 0x40 SWAP1 PUSH1 0x3 NOT ADD SLT PUSH2 0x5C2 JUMPI PUSH1 0x4 CALLDATALOAD SWAP1 PUSH1 0x24 CALLDATALOAD SWAP1 JUMP JUMPDEST PUSH1 0x6 SLOAD DUP2 LT ISZERO PUSH2 0x159A JUMPI PUSH1 0x6 PUSH1 0x0 MSTORE PUSH32 0xF652222313E28459528D920B65115C16C04F3EFC82AAEDC97BE59F3F377C0D3F ADD SWAP1 PUSH1 0x0 SWAP1 JUMP JUMPDEST PUSH4 0x4E487B71 PUSH1 0xE0 SHL PUSH1 0x0 MSTORE PUSH1 0x32 PUSH1 0x4 MSTORE PUSH1 0x24 PUSH1 0x0 REVERT JUMPDEST DUP1 SLOAD DUP3 LT ISZERO PUSH2 0x159A JUMPI PUSH1 0x0 MSTORE PUSH1 0x7 PUSH1 0x20 PUSH1 0x0 KECCAK256 SWAP2 MUL ADD SWAP1 PUSH1 0x0 SWAP1 JUMP JUMPDEST CALLER PUSH1 0x0 SWAP1 DUP2 MSTORE PUSH32 0xEE57CD81E84075558E8FCC182A1F4393F91FC97F963A136E66B7F949A62F319F PUSH1 0x20 MSTORE PUSH1 0x40 SWAP1 KECCAK256 SLOAD PUSH32 0x97667070C54EF182B0F5858B034BEAC1B6F3089AA2D3188BB1E8929F4FA9B929 SWAP1 PUSH1 0xFF AND ISZERO PUSH2 0x1628 JUMPI POP JUMP JUMPDEST PUSH1 0x44 SWAP1 PUSH1 0x40 MLOAD SWAP1 PUSH4 0xE2517D3F PUSH1 0xE0 SHL DUP3 MSTORE CALLER PUSH1 0x4 DUP4 ADD MSTORE PUSH1 0x24 DUP3 ADD MSTORE REVERT JUMPDEST CALLER PUSH1 0x0 SWAP1 DUP2 MSTORE PUSH32 0xAD3228B676F7D3CD4284A5443F17F1962B36E491B30A40B2405849E597BA5FB5 PUSH1 0x20 MSTORE PUSH1 0x40 DUP2 KECCAK256 SLOAD PUSH1 0xFF AND ISZERO PUSH2 0x1628 JUMPI POP JUMP JUMPDEST DUP1 PUSH1 0x0 MSTORE PUSH1 0x0 PUSH1 0x20 MSTORE PUSH1 0x40 PUSH1 0x0 KECCAK256 CALLER PUSH1 0x0 MSTORE PUSH1 0x20 MSTORE PUSH1 0xFF PUSH1 0x40 PUSH1 0x0 KECCAK256 SLOAD AND ISZERO PUSH2 0x1628 JUMPI POP JUMP JUMPDEST SWAP1 PUSH1 0x0 SWAP2 DUP1 DUP4 MSTORE DUP3 PUSH1 0x20 MSTORE PUSH1 0x40 DUP4 KECCAK256 SWAP2 PUSH1 0x1 DUP1 PUSH1 0xA0 SHL SUB AND SWAP2 DUP3 DUP5 MSTORE PUSH1 0x20 MSTORE PUSH1 0xFF PUSH1 0x40 DUP5 KECCAK256 SLOAD AND ISZERO PUSH1 0x0 EQ PUSH2 0x171F JUMPI DUP1 DUP4 MSTORE DUP3 PUSH1 0x20 MSTORE PUSH1 0x40 DUP4 KECCAK256 DUP3 DUP5 MSTORE PUSH1 0x20 MSTORE PUSH1 0x40 DUP4 KECCAK256 PUSH1 0x1 PUSH1 0xFF NOT DUP3 SLOAD AND OR SWAP1 SSTORE PUSH32 0x2F8788117E7EFF1D82E926EC794901D17C78024A50270940304540A733656F0D CALLER SWAP4 DUP1 LOG4 PUSH1 0x1 SWAP1 JUMP JUMPDEST POP POP SWAP1 JUMP JUMPDEST SWAP1 PUSH1 0x0 SWAP2 DUP1 DUP4 MSTORE DUP3 PUSH1 0x20 MSTORE PUSH1 0x40 DUP4 KECCAK256 SWAP2 PUSH1 0x1 DUP1 PUSH1 0xA0 SHL SUB AND SWAP2 DUP3 DUP5 MSTORE PUSH1 0x20 MSTORE PUSH1 0xFF PUSH1 0x40 DUP5 KECCAK256 SLOAD AND PUSH1 0x0 EQ PUSH2 0x171F JUMPI DUP1 DUP4 MSTORE DUP3 PUSH1 0x20 MSTORE PUSH1 0x40 DUP4 KECCAK256 DUP3 DUP5 MSTORE PUSH1 0x20 MSTORE PUSH1 0x40 DUP4 KECCAK256 PUSH1 0xFF NOT DUP2 SLOAD AND SWAP1 SSTORE PUSH32 0xF6391F5C32D9C69D2A47EA670B442974B53935D1EDC7FD64EB21E047A839171B CALLER SWAP4 DUP1 LOG4 PUSH1 0x1 SWAP1 JUMP JUMPDEST PUSH8 0xFFFFFFFFFFFFFFFF DUP2 GT PUSH2 0x17AD JUMPI PUSH1 0x40 MSTORE JUMP JUMPDEST PUSH4 0x4E487B71 PUSH1 0xE0 SHL PUSH1 0x0 MSTORE PUSH1 0x41 PUSH1 0x4 MSTORE PUSH1 0x24 PUSH1 0x0 REVERT JUMPDEST PUSH1 0xE0 DUP2 ADD SWAP1 DUP2 LT PUSH8 0xFFFFFFFFFFFFFFFF DUP3 GT OR PUSH2 0x17AD JUMPI PUSH1 0x40 MSTORE JUMP JUMPDEST SWAP1 PUSH1 0x1F DUP1 NOT SWAP2 ADD AND DUP2 ADD SWAP1 DUP2 LT PUSH8 0xFFFFFFFFFFFFFFFF DUP3 GT OR PUSH2 0x17AD JUMPI PUSH1 0x40 MSTORE JUMP JUMPDEST ISZERO PUSH2 0x1808 JUMPI JUMP JUMPDEST PUSH1 0x40 MLOAD PUSH3 0x461BCD PUSH1 0xE5 SHL DUP2 MSTORE PUSH1 0x20 PUSH1 0x4 DUP3 ADD MSTORE PUSH1 0x13 PUSH1 0x24 DUP3 ADD MSTORE PUSH19 0x50726F7065727479206E6F7420616374697665 PUSH1 0x68 SHL PUSH1 0x44 DUP3 ADD MSTORE PUSH1 0x64 SWAP1 REVERT JUMPDEST ISZERO PUSH2 0x184A JUMPI JUMP JUMPDEST PUSH1 0x40 MLOAD PUSH3 0x461BCD PUSH1 0xE5 SHL DUP2 MSTORE PUSH1 0x20 PUSH1 0x4 DUP3 ADD MSTORE PUSH1 0x10 PUSH1 0x24 DUP3 ADD MSTORE PUSH16 0x46756E64696E6720636F6D706C657465 PUSH1 0x80 SHL PUSH1 0x44 DUP3 ADD MSTORE PUSH1 0x64 SWAP1 REVERT JUMPDEST DUP2 DUP2 MUL SWAP3 SWAP2 DUP2 ISZERO SWAP2 DUP5 DIV EQ OR ISZERO PUSH2 0x1895 JUMPI JUMP JUMPDEST PUSH4 0x4E487B71 PUSH1 0xE0 SHL PUSH1 0x0 MSTORE PUSH1 0x11 PUSH1 0x4 MSTORE PUSH1 0x24 PUSH1 0x0 REVERT JUMPDEST SWAP2 SWAP1 DUP3 ADD DUP1 SWAP3 GT PUSH2 0x1895 JUMPI JUMP JUMPDEST SWAP2 SWAP1 DUP3 SUB SWAP2 DUP3 GT PUSH2 0x1895 JUMPI JUMP JUMPDEST RETURNDATASIZE ISZERO PUSH2 0x1900 JUMPI RETURNDATASIZE SWAP1 PUSH8 0xFFFFFFFFFFFFFFFF DUP3 GT PUSH2 0x17AD JUMPI PUSH1 0x40 MLOAD SWAP2 PUSH2 0x18F4 PUSH1 0x1F DUP3 ADD PUSH1 0x1F NOT AND PUSH1 0x20 ADD DUP5 PUSH2 0x17DF JUMP JUMPDEST DUP3 MSTORE RETURNDATASIZE PUSH1 0x0 PUSH1 0x20 DUP5 ADD RETURNDATACOPY JUMP JUMPDEST PUSH1 0x60 SWAP1 JUMP JUMPDEST PUSH1 0xFF PUSH1 0x2 SLOAD AND PUSH2 0x1911 JUMPI JUMP JUMPDEST PUSH1 0x40 MLOAD PUSH4 0xD93C0665 PUSH1 0xE0 SHL DUP2 MSTORE PUSH1 0x4 SWAP1 REVERT JUMPDEST PUSH1 0x2 PUSH1 0x1 SLOAD EQ PUSH2 0x1934 JUMPI PUSH1 0x2 PUSH1 0x1 SSTORE JUMP JUMPDEST PUSH1 0x40 MLOAD PUSH4 0x3EE5AEB5 PUSH1 0xE0 SHL DUP2 MSTORE PUSH1 0x4 SWAP1 REVERT JUMPDEST SWAP1 PUSH2 0x1951 SWAP1 TIMESTAMP PUSH2 0x18B8 JUMP JUMPDEST SWAP1 PUSH2 0x12C SWAP2 DUP3 DUP3 MUL SWAP3 DUP3 DUP5 DIV EQ DUP3 ISZERO OR ISZERO PUSH2 0x1895 JUMPI PUSH2 0x1979 PUSH5 0x496CEBB800 SWAP2 PUSH2 0x1980 SWAP5 PUSH2 0x1882 JUMP JUMPDEST DIV SWAP1 PUSH2 0x18AB JUMP JUMPDEST SWAP1 JUMP JUMPDEST ISZERO PUSH2 0x198A JUMPI JUMP JUMPDEST PUSH1 0x40 MLOAD PUSH3 0x461BCD PUSH1 0xE5 SHL DUP2 MSTORE PUSH1 0x20 PUSH1 0x4 DUP3 ADD MSTORE PUSH1 0x14 PUSH1 0x24 DUP3 ADD MSTORE PUSH20 0x111958591B1A5B99481B9BDD081C995858DA1959 PUSH1 0x62 SHL PUSH1 0x44 DUP3 ADD MSTORE PUSH1 0x64 SWAP1 REVERT JUMPDEST PUSH1 0x0 NOT DUP2 EQ PUSH2 0x1895 JUMPI PUSH1 0x1 ADD SWAP1 JUMP JUMPDEST PUSH1 0x6 SLOAD PUSH1 0x0 JUMPDEST DUP2 DUP2 LT PUSH2 0x1A0B JUMPI POP POP PUSH1 0x0 SWAP1 PUSH1 0x40 MLOAD PUSH1 0x20 DUP2 ADD DUP2 DUP2 LT PUSH8 0xFFFFFFFFFFFFFFFF DUP3 GT OR PUSH2 0x17AD JUMPI PUSH1 0x40 MSTORE PUSH1 0x0 DUP2 MSTORE SWAP1 JUMP JUMPDEST PUSH2 0x1A14 DUP2 PUSH2 0x1563 JUMP JUMPDEST SWAP1 SLOAD PUSH1 0x3 SWAP2 DUP3 SHL SHR SWAP1 DUP2 PUSH1 0x0 MSTORE PUSH1 0x4 SWAP1 PUSH1 0x20 DUP3 DUP2 MSTORE PUSH1 0x40 SWAP2 DUP3 PUSH1 0x0 KECCAK256 PUSH1 0x7 DUP4 MSTORE PUSH1 0xFF DUP1 DUP6 PUSH1 0x0 KECCAK256 SLOAD AND SWAP3 DUP4 PUSH2 0x1ACD JUMPI JUMPDEST DUP4 PUSH2 0x1ABC JUMPI JUMPDEST POP POP DUP2 PUSH2 0x1AAD JUMPI JUMPDEST POP PUSH2 0x1A69 JUMPI POP POP POP POP PUSH2 0x1A64 SWAP1 PUSH2 0x19C6 JUMP JUMPDEST PUSH2 0x19DB JUMP JUMPDEST SWAP2 SWAP4 POP DUP1 SWAP3 SWAP6 SWAP5 POP MLOAD SWAP5 DUP2 DUP7 ADD MSTORE DUP5 MSTORE DUP1 DUP5 ADD SWAP2 DUP5 DUP4 LT PUSH8 0xFFFFFFFFFFFFFFFF DUP5 GT OR PUSH2 0x1A98 JUMPI POP MSTORE PUSH1 0x1 SWAP2 SWAP1 JUMP JUMPDEST PUSH1 0x41 SWAP1 PUSH4 0x4E487B71 PUSH1 0xE0 SHL PUSH1 0x0 MSTORE MSTORE PUSH1 0x24 PUSH1 0x0 REVERT JUMPDEST PUSH1 0x2 SWAP2 POP ADD SLOAD TIMESTAMP LT ISZERO CODESIZE PUSH2 0x1A52 JUMP JUMPDEST DUP3 ADD SLOAD PUSH1 0x8 SHR AND ISZERO SWAP2 POP CODESIZE DUP1 PUSH2 0x1A4A JUMP JUMPDEST DUP3 DUP2 ADD SLOAD DUP3 AND ISZERO SWAP4 POP PUSH2 0x1A44 JUMP INVALID LOG2 PUSH5 0x6970667358 0x22 SLT KECCAK256 DUP7 0xE0 DELEGATECALL BYTE PUSH28 0x2FB827E86ADDCE4628F40F1B029F3A80A07EDA6370DBBD5FDDCEC464 PUSH20 0x6F6C634300081400332F8788117E7EFF1D82E926 0xEC PUSH26 0x4901D17C78024A50270940304540A733656F0D00000000000000 "},"methodIdentifiers":{"BASIS_POINTS()":"e1f1c4a7","DEFAULT_ADMIN_ROLE()":"a217fddf","OPERATOR_ROLE()":"f5b541a6","REFUND_APR()":"14a2873a","SECONDS_PER_YEAR()":"e6a69ab8","activeProperties(uint256)":"a8b268de","buyerContributions(uint256,address)":"11e2e175","calculateRefund(uint256,uint256)":"e38abd0f","checkUpkeep(bytes)":"6e04ff0d","getEscrowStatus(uint256)":"345460cd","getPurchases(uint256)":"6f629ed5","getRoleAdmin(bytes32)":"248a9ca3","grantRole(bytes32,address)":"2f2ff15d","hasRole(bytes32,address)":"91d14854","initializeEscrow(uint256,uint256,uint256)":"066d4d5e","isPropertyActive(uint256)":"154bb891","pause()":"8456cb59","paused()":"5c975abb","performUpkeep(bytes)":"4585e33b","processRefunds(uint256)":"c6f56901","propertyEscrows(uint256)":"2430fc3d","propertyPurchases(uint256,uint256)":"d2e0f66e","propertyToken()":"43ae2695","purchase(uint256,uint256)":"70876c98","releaseFunds(uint256,address)":"1af23a59","renounceRole(bytes32,address)":"36568abe","revokeRole(bytes32,address)":"d547741f","supportsInterface(bytes4)":"01ffc9a7","unpause()":"3f4ba83a"}}}}}