{"contracts/PhaseManager.sol":{"PhaseManager":{"abi":[{"inputs":[{"internalType":"address","name":"_propertyToken","type":"address"},{"internalType":"address","name":"_governance","type":"address"}],"stateMutability":"nonpayable","type":"constructor"},{"inputs":[],"name":"AccessControlBadConfirmation","type":"error"},{"inputs":[{"internalType":"address","name":"account","type":"address"},{"internalType":"bytes32","name":"neededRole","type":"bytes32"}],"name":"AccessControlUnauthorizedAccount","type":"error"},{"anonymous":false,"inputs":[{"indexed":true,"internalType":"uint256","name":"propertyId","type":"uint256"},{"indexed":false,"internalType":"uint256","name":"activeVoters","type":"uint256"},{"indexed":false,"internalType":"uint256","name":"totalEligible","type":"uint256"},{"indexed":false,"internalType":"uint256","name":"engagementPercent","type":"uint256"}],"name":"EngagementUpdated","type":"event"},{"anonymous":false,"inputs":[{"indexed":true,"internalType":"uint256","name":"propertyId","type":"uint256"},{"indexed":false,"internalType":"string","name":"nudgeType","type":"string"},{"indexed":false,"internalType":"uint256","name":"engagementPercent","type":"uint256"}],"name":"NudgeTriggered","type":"event"},{"anonymous":false,"inputs":[{"indexed":true,"internalType":"uint256","name":"propertyId","type":"uint256"},{"indexed":false,"internalType":"uint8","name":"fromPhase","type":"uint8"},{"indexed":false,"internalType":"uint8","name":"toPhase","type":"uint8"},{"indexed":false,"internalType":"uint256","name":"engagementPercent","type":"uint256"}],"name":"PhaseAdvancedByEngagement","type":"event"},{"anonymous":false,"inputs":[{"indexed":true,"internalType":"uint256","name":"propertyId","type":"uint256"},{"indexed":false,"internalType":"uint8","name":"fromPhase","type":"uint8"},{"indexed":false,"internalType":"uint8","name":"toPhase","type":"uint8"}],"name":"PhaseAdvancedBySubscription","type":"event"},{"anonymous":false,"inputs":[{"indexed":true,"internalType":"uint256","name":"propertyId","type":"uint256"}],"name":"PropertyTrackingStarted","type":"event"},{"anonymous":false,"inputs":[{"indexed":true,"internalType":"uint256","name":"propertyId","type":"uint256"}],"name":"PropertyTrackingStopped","type":"event"},{"anonymous":false,"inputs":[{"indexed":true,"internalType":"bytes32","name":"role","type":"bytes32"},{"indexed":true,"internalType":"bytes32","name":"previousAdminRole","type":"bytes32"},{"indexed":true,"internalType":"bytes32","name":"newAdminRole","type":"bytes32"}],"name":"RoleAdminChanged","type":"event"},{"anonymous":false,"inputs":[{"indexed":true,"internalType":"bytes32","name":"role","type":"bytes32"},{"indexed":true,"internalType":"address","name":"account","type":"address"},{"indexed":true,"internalType":"address","name":"sender","type":"address"}],"name":"RoleGranted","type":"event"},{"anonymous":false,"inputs":[{"indexed":true,"internalType":"bytes32","name":"role","type":"bytes32"},{"indexed":true,"internalType":"address","name":"account","type":"address"},{"indexed":true,"internalType":"address","name":"sender","type":"address"}],"name":"RoleRevoked","type":"event"},{"inputs":[],"name":"DEFAULT_ADMIN_ROLE","outputs":[{"internalType":"bytes32","name":"","type":"bytes32"}],"stateMutability":"view","type":"function"},{"inputs":[],"name":"ENGAGEMENT_THRESHOLD","outputs":[{"internalType":"uint256","name":"","type":"uint256"}],"stateMutability":"view","type":"function"},{"inputs":[],"name":"MIN_ENGAGEMENT_PERIOD","outputs":[{"internalType":"uint256","name":"","type":"uint256"}],"stateMutability":"view","type":"function"},{"inputs":[],"name":"OPERATOR_ROLE","outputs":[{"internalType":"bytes32","name":"","type":"bytes32"}],"stateMutability":"view","type":"function"},{"inputs":[{"internalType":"uint256","name":"propertyId","type":"uint256"}],"name":"calculateEngagement","outputs":[{"internalType":"uint256","name":"","type":"uint256"}],"stateMutability":"view","type":"function"},{"inputs":[{"internalType":"uint256","name":"propertyId","type":"uint256"}],"name":"checkSubscriptionAdvancement","outputs":[],"stateMutability":"nonpayable","type":"function"},{"inputs":[{"internalType":"bytes","name":"","type":"bytes"}],"name":"checkUpkeep","outputs":[{"internalType":"bool","name":"upkeepNeeded","type":"bool"},{"internalType":"bytes","name":"performData","type":"bytes"}],"stateMutability":"view","type":"function"},{"inputs":[{"internalType":"uint256","name":"propertyId","type":"uint256"}],"name":"getEngagement","outputs":[{"internalType":"uint256","name":"phaseStartTime","type":"uint256"},{"internalType":"uint256","name":"totalEligible","type":"uint256"},{"internalType":"uint256","name":"activeVoters","type":"uint256"},{"internalType":"uint256","name":"engagementPercent","type":"uint256"},{"internalType":"bool","name":"isTracking","type":"bool"}],"stateMutability":"view","type":"function"},{"inputs":[{"internalType":"bytes32","name":"role","type":"bytes32"}],"name":"getRoleAdmin","outputs":[{"internalType":"bytes32","name":"","type":"bytes32"}],"stateMutability":"view","type":"function"},{"inputs":[],"name":"getTrackedProperties","outputs":[{"internalType":"uint256[]","name":"","type":"uint256[]"}],"stateMutability":"view","type":"function"},{"inputs":[],"name":"governance","outputs":[{"internalType":"contract IGovernance","name":"","type":"address"}],"stateMutability":"view","type":"function"},{"inputs":[{"internalType":"bytes32","name":"role","type":"bytes32"},{"internalType":"address","name":"account","type":"address"}],"name":"grantRole","outputs":[],"stateMutability":"nonpayable","type":"function"},{"inputs":[{"internalType":"bytes32","name":"role","type":"bytes32"},{"internalType":"address","name":"account","type":"address"}],"name":"hasRole","outputs":[{"internalType":"bool","name":"","type":"bool"}],"stateMutability":"view","type":"function"},{"inputs":[{"internalType":"uint256","name":"","type":"uint256"}],"name":"isTracked","outputs":[{"internalType":"bool","name":"","type":"bool"}],"stateMutability":"view","type":"function"},{"inputs":[{"internalType":"uint256","name":"","type":"uint256"}],"name":"lastNudgeTime","outputs":[{"internalType":"uint256","name":"","type":"uint256"}],"stateMutability":"view","type":"function"},{"inputs":[],"name":"nudgeCooldown","outputs":[{"internalType":"uint256","name":"","type":"uint256"}],"stateMutability":"view","type":"function"},{"inputs":[{"internalType":"bytes","name":"performData","type":"bytes"}],"name":"performUpkeep","outputs":[],"stateMutability":"nonpayable","type":"function"},{"inputs":[{"internalType":"uint256","name":"","type":"uint256"}],"name":"propertyEngagement","outputs":[{"internalType":"uint256","name":"propertyId","type":"uint256"},{"internalType":"uint256","name":"phaseStartTime","type":"uint256"},{"internalType":"uint256","name":"totalEligibleVoters","type":"uint256"},{"internalType":"uint256","name":"activeVoters","type":"uint256"},{"internalType":"uint256","name":"totalProposals","type":"uint256"},{"internalType":"uint256","name":"votedProposals","type":"uint256"},{"internalType":"bool","name":"isTracking","type":"bool"}],"stateMutability":"view","type":"function"},{"inputs":[],"name":"propertyToken","outputs":[{"internalType":"contract IPropertyToken","name":"","type":"address"}],"stateMutability":"view","type":"function"},{"inputs":[{"internalType":"bytes32","name":"role","type":"bytes32"},{"internalType":"address","name":"callerConfirmation","type":"address"}],"name":"renounceRole","outputs":[],"stateMutability":"nonpayable","type":"function"},{"inputs":[{"internalType":"bytes32","name":"role","type":"bytes32"},{"internalType":"address","name":"account","type":"address"}],"name":"revokeRole","outputs":[],"stateMutability":"nonpayable","type":"function"},{"inputs":[{"internalType":"uint256","name":"newCooldown","type":"uint256"}],"name":"setNudgeCooldown","outputs":[],"stateMutability":"nonpayable","type":"function"},{"inputs":[{"internalType":"uint256","name":"propertyId","type":"uint256"},{"internalType":"uint256","name":"totalEligibleVoters","type":"uint256"}],"name":"startTracking","outputs":[],"stateMutability":"nonpayable","type":"function"},{"inputs":[{"internalType":"uint256","name":"propertyId","type":"uint256"}],"name":"stopTracking","outputs":[],"stateMutability":"nonpayable","type":"function"},{"inputs":[{"internalType":"bytes4","name":"interfaceId","type":"bytes4"}],"name":"supportsInterface","outputs":[{"internalType":"bool","name":"","type":"bool"}],"stateMutability":"view","type":"function"},{"inputs":[{"internalType":"uint256","name":"","type":"uint256"}],"name":"trackedProperties","outputs":[{"internalType":"uint256","name":"","type":"uint256"}],"stateMutability":"view","type":"function"},{"inputs":[{"internalType":"uint256","name":"propertyId","type":"uint256"},{"internalType":"uint256","name":"activeVoters","type":"uint256"},{"internalType":"uint256","name":"totalProposals","type":"uint256"},{"internalType":"uint256","name":"votedProposals","type":"uint256"}],"name":"updateEngagement","outputs":[],"stateMutability":"nonpayable","type":"function"}],"evm":{"bytecode":{"linkReferences":{},"object":"608034620000b557601f620017bf38819003918201601f19168301916001600160401b03831184841017620000ba578084926040948552833981010312620000b5576200005a60206200005283620000d0565b9201620000d0565b62015180600755600180546001600160a01b039384166001600160a01b031991821617909155600280549290931691161790556200009833620000e5565b50620000a43362000165565b506040516115979081620002088239f35b600080fd5b634e487b7160e01b600052604160045260246000fd5b51906001600160a01b0382168203620000b557565b6001600160a01b031660008181527fad3228b676f7d3cd4284a5443f17f1962b36e491b30a40b2405849e597ba5fb5602052604081205490919060ff166200016157818052816020526040822081835260205260408220600160ff1982541617905533916000805160206200179f8339815191528180a4600190565b5090565b6001600160a01b031660008181527fee57cd81e84075558e8fcc182a1f4393f91fc97f963a136e66b7f949a62f319f60205260408120549091907f97667070c54ef182b0f5858b034beac1b6f3089aa2d3188bb1e8929f4fa9b9299060ff166200020257808352826020526040832082845260205260408320600160ff198254161790556000805160206200179f833981519152339380a4600190565b50509056fe608060408181526004918236101561001657600080fd5b600092833560e01c91826301ffc9a714610c4c5750816306785d8a14610bcb5781631194f9e914610b9e578163248a9ca314610b745781632e94dfda14610b145781632f2ff15d14610af657816330ae780514610ad9578163313b79da14610a2857816336568abe146109ed57816343ae2695146109c45781634585e33b146108dc5781635513de41146108be5781635aa6e675146108955781635da6559e1461086d57816363e86eb8146108015781636675584f146107e25781636e04ff0d146107a6578163785b21901461062a5781638085b813146105f25781638e5359e01461054757816391d148541461050d57816394c9825d14610460578163a217fddf14610445578163d547741f14610410578163d5612486146101b5578163f333d6c21461018b575063f5b541a61461014e57600080fd5b34610187578160031936011261018757602090517f97667070c54ef182b0f5858b034beac1b6f3089aa2d3188bb1e8929f4fa9b9298152f35b5080fd5b8284346101b25760203660031901126101b257506101ab60209235610fdf565b9051908152f35b80fd5b83915034610187576020928360031936011261040c5760015481516332665ffb60e01b815283358185018190529390916001600160a01b0316908583602481855afa9283156104025786936103d4575b508351636ea9967760e01b815281810186815260ff851660208201528890829081906040010381865afa9081156103ca578791610399575b5084516304fa617360e01b815282810187815260ff861660208201528990829081906040010381875afa90811561038f57889161035e575b50101580610351575b610286578580f35b813b1561034d57846024879283875195869485936340d57a6760e11b85528401525af1801561034357610310575b508394837f7214c5e85040cb3e35452fa6ff842070826b1d0bd195171e1c75e6d07bc1b96c94955260038152856003848220426001820155015560ff6102f983611161565b818551941684521690820152a28082808080808580f35b9361033c7f7214c5e85040cb3e35452fa6ff842070826b1d0bd195171e1c75e6d07bc1b96c9495610f3c565b93926102b4565b83513d87823e3d90fd5b8580fd5b50600360ff84161061027e565b90508881813d8311610388575b6103758183610f82565b81010312610384575189610275565b8780fd5b503d61036b565b86513d8a823e3d90fd5b90508781813d83116103c3575b6103b08183610f82565b810103126103bf57518861023d565b8680fd5b503d6103a6565b85513d89823e3d90fd5b6103f19193503d8088833e6103e98183610f82565b8101906110d6565b505096505050505050509187610205565b84513d88823e3d90fd5b8280fd5b5050346101875760016104419161043c61042936610c9f565b9390928387528660205286200154610e23565b610ec7565b5080f35b50503461018757816003193601126101875751908152602090f35b90503461040c57608036600319011261040c5761050a91817f63bd409a0ca0450137d1b574e1e74a5a18cc8934d8f718c1603619b971ce6737606060029435938493602435916104ae610da9565b858a526003602052808a20916104ca60ff600685015416610fa4565b8360038401556044359083015560643560058301556104e886610fdf565b978892015481519384526020840152820152a261050582826112a8565b611031565b80f35b5050346101875760ff8160209361052336610c9f565b9082528186528282206001600160a01b039091168252855220549151911615158152f35b90503461040c57602036600319011261040c578035918380528360205280842033855260205260ff8185205416156105d557610e10831015806105c8575b1561059257505060075580f35b906020606492519162461bcd60e51b8352820152601060248201526f24b73b30b634b21031b7b7b63237bbb760811b6044820152fd5b5062093a80831115610585565b9083604492519163e2517d3f60e01b835233908301526024820152fd5b8284346101b25760203660031901126101b257823592548310156101b2575061061c602092610d5c565b91905490519160031b1c8152f35b838334610187578060031936011261018757823590610647610da9565b818352600560205260ff81842054166107715780519060e0820182811067ffffffffffffffff82111761075e57815282825260066020830192428452828101602435815260608201878152608083019088825260a084019289845260c085019760018952898b526003602052878b2095518655516001860155516002850155516003840155518883015551600582015501915115159160ff199260ff84835416911617905584546801000000000000000081101561075e5790610711828760018095019055610d5c565b81549060031b9086821b91600019901b191617905583855260056020528420918254161790557f3621586063592251acf2253a10fe8119554dbb0bf93d6e875b85a3a66a2166b98280a280f35b634e487b7160e01b855260418652602485fd5b5162461bcd60e51b8152602081850152601060248201526f416c726561647920747261636b696e6760801b6044820152606490fd5b8284346101b257506107b736610cca565b50506107de6107c461143a565b839291925193849315158452806020850152830190610d37565b0390f35b5050346101875781600319360112610187576020906007549051908152f35b90503461040c57602036600319011261040c578160e0938235815260036020522080549260018201549260028301546003840154918401549260ff600660058701549601541695815197885260208801528601526060850152608084015260a0830152151560c0820152f35b90503461040c57602036600319011261040c5760209282913581526006845220549051908152f35b50503461018757816003193601126101875760025490516001600160a01b039091168152602090f35b5050346101875781600319360112610187576020905162093a808152f35b8391503461018757826108ee36610cca565b908092918101031261040c57358083526003602052600184842061091860ff600683015416610fa4565b015462093a8081018091116109b15742106109825761093681610fdf565b91611d4c831061094b57509061050a91611173565b606490602086519162461bcd60e51b83528201526011602482015270151a1c995cda1bdb19081b9bdd081b595d607a1b6044820152fd5b835162461bcd60e51b81526020818401526009602482015268546f6f206561726c7960b81b6044820152606490fd5b634e487b7160e01b845260118352602484fd5b50503461018757816003193601126101875760015490516001600160a01b039091168152602090f35b838334610187576109fd36610c9f565b91336001600160a01b03841603610a1957509061044191610ec7565b5163334bd91960e11b81528490fd5b905082346101b257806003193601126101b2579190815192838254808652602080960190819484527f8a35acfbc15ff81a39ae7d344fd709f28e8600b4aa8c65c6b64bfe7fe36bd19b90845b818110610ac55750505081610a8a910382610f82565b83519485948186019282875251809352850193925b828110610aae57505050500390f35b835185528695509381019392810192600101610a9f565b825484529288019260019283019201610a74565b50503461018757816003193601126101875760209051611d4c8152f35b50503461018757600161044191610b0f61042936610c9f565b610e49565b838334610187576020366003190112610187578060a093359283815260036020522060018101549260028201549260ff6006610b54600386015494610fdf565b940154169381519586526020860152840152606083015215156080820152f35b90503461040c57602036600319011261040c57816020936001923581528085522001549051908152f35b90503461040c57602036600319011261040c578160209360ff923581526005855220541690519015158152f35b90503461040c57602036600319011261040c573590610be8610da9565b8183526005602052610bff60ff8285205416610fa4565b81835260036020526006818420019060ff1991828154169055600560205283209081541690557f96fbf803f14da8437e0cbe34df7152f998dbc3b7e2343c52fb4285e90387a9ca8280a280f35b84913461040c57602036600319011261040c573563ffffffff60e01b811680910361040c5760209250637965db0b60e01b8114908115610c8e575b5015158152f35b6301ffc9a760e01b14905083610c87565b6040906003190112610cc557600435906024356001600160a01b0381168103610cc55790565b600080fd5b906020600319830112610cc55760043567ffffffffffffffff92838211610cc55780602383011215610cc5578160040135938411610cc55760248483010111610cc5576024019190565b60005b838110610d275750506000910152565b8181015183820152602001610d17565b90602091610d5081518092818552858086019101610d14565b601f01601f1916010190565b600454811015610d935760046000527f8a35acfbc15ff81a39ae7d344fd709f28e8600b4aa8c65c6b64bfe7fe36bd19b0190600090565b634e487b7160e01b600052603260045260246000fd5b3360009081527fee57cd81e84075558e8fcc182a1f4393f91fc97f963a136e66b7f949a62f319f60205260409020547f97667070c54ef182b0f5858b034beac1b6f3089aa2d3188bb1e8929f4fa9b9299060ff1615610e055750565b6044906040519063e2517d3f60e01b82523360048301526024820152fd5b80600052600060205260406000203360005260205260ff6040600020541615610e055750565b9060009180835282602052604083209160018060a01b03169182845260205260ff60408420541615600014610ec257808352826020526040832082845260205260408320600160ff198254161790557f2f8788117e7eff1d82e926ec794901d17c78024a50270940304540a733656f0d339380a4600190565b505090565b9060009180835282602052604083209160018060a01b03169182845260205260ff604084205416600014610ec25780835282602052604083208284526020526040832060ff1981541690557ff6391f5c32d9c69d2a47ea670b442974b53935d1edc7fd64eb21e047a839171b339380a4600190565b67ffffffffffffffff8111610f5057604052565b634e487b7160e01b600052604160045260246000fd5b6040810190811067ffffffffffffffff821117610f5057604052565b90601f8019910116810190811067ffffffffffffffff821117610f5057604052565b15610fab57565b60405162461bcd60e51b815260206004820152600c60248201526b4e6f7420747261636b696e6760a01b6044820152606490fd5b60005260036020526040600020600281015490811561102a576003015461271090818102918183041490151715611014570490565b634e487b7160e01b600052601160045260246000fd5b5050600090565b9081600052600360205260016040600020015462093a80810180911161101457421061107057611d4c811015611065575050565b61106e91611173565b565b5050565b81601f82011215610cc557805167ffffffffffffffff8111610f5057604051926110a8601f8301601f191660200185610f82565b81845260208284010111610cc5576110c69160208085019101610d14565b90565b51908115158203610cc557565b61014081830312610cc557805192602082015167ffffffffffffffff90818111610cc55784611106918501611074565b936040840151918211610cc55761111e918401611074565b9160608101519160808201519160a08101519160c08201519160e081015160ff81168103610cc557916110c661012061115a61010085016110c9565b93016110c9565b60ff60019116019060ff821161101457565b600154604080516332665ffb60e01b81526004810184905292936001600160a01b039092169260008082602481885afa91821561129c578192611276575b5060ff821694600386106111c9575b50505050505050565b803b156101875781809160248651809481936340d57a6760e11b83528c60048401525af1801561126c57606095937fd786d06dd56df8b68a470fb87593bd3d76a14eeea5cf10760563177bd21496b097959360ff936112429361125d575b50898152600360205260038582204260018201550155611161565b8251948552166020840152820152a2388080808080806111c0565b61126690610f3c565b38611227565b84513d84823e3d90fd5b61128b9192503d8084833e6103e98183610f82565b5050965050505050505090386111b1565b508251903d90823e3d90fd5b906000828152602060068152604090818320546007548101809111611426574210611409576109c484101561134e577f505a29c5397a0038bf34d9f7baf0047c3f5eae6323bf8450c1e34dacf7cc2a1793825161130481610f66565b60148152733ab933b2b73a2fb830b93a34b1b4b830ba34b7b760611b83820152935b8681526006835283429120556113458351948486958652850190610d37565b918301520390a2565b6117708410158061141b575b156113ac577f505a29c5397a0038bf34d9f7baf0047c3f5eae6323bf8450c1e34dacf7cc2a1793825161138c81610f66565b600e81526d36b4b632b9ba37b732afb732b0b960911b8382015293611326565b611b5884101580611410575b15611409577f505a29c5397a0038bf34d9f7baf0047c3f5eae6323bf8450c1e34dacf7cc2a179382516113ea81610f66565b600d81526c70686173655f636c6f73696e6760981b8382015293611326565b5050505050565b50611d4c84106113b8565b50611d4c841061135a565b634e487b7160e01b84526011600452602484fd5b6000906004918254905b81811061148b575050604051600092602082019067ffffffffffffffff82118383101761147657506040526000815290565b604190634e487b7160e01b6000525260246000fd5b61149481610d5c565b9054600391821b1c8060005260209182526040806000209160ff600684015416156115435760018093015462093a80810180911161154c574210611543576114db81610fdf565b90611d4c8210156115125750505050505b60001981146114fd57600101611444565b601184634e487b7160e01b6000525260246000fd5b82519485015283820152808352919590935060608601925067ffffffffffffffff8311868410176114765750529190565b505050506114ec565b601189634e487b7160e01b6000525260246000fdfea26469706673582212207385fe94cd1049270e64ace715a19260ff2d98a7bf3b195a38572b09eeeec7cd64736f6c634300081400332f8788117e7eff1d82e926ec794901d17c78024a50270940304540a733656f0d","opcodes":"PUSH1 0x80 CALLVALUE PUSH3 0xB5 JUMPI PUSH1 0x1F PUSH3 0x17BF CODESIZE DUP2 SWAP1 SUB SWAP2 DUP3 ADD PUSH1 0x1F NOT AND DUP4 ADD SWAP2 PUSH1 0x1 PUSH1 0x1 PUSH1 0x40 SHL SUB DUP4 GT DUP5 DUP5 LT OR PUSH3 0xBA JUMPI DUP1 DUP5 SWAP3 PUSH1 0x40 SWAP5 DUP6 MSTORE DUP4 CODECOPY DUP2 ADD SUB SLT PUSH3 0xB5 JUMPI PUSH3 0x5A PUSH1 0x20 PUSH3 0x52 DUP4 PUSH3 0xD0 JUMP JUMPDEST SWAP3 ADD PUSH3 0xD0 JUMP JUMPDEST PUSH3 0x15180 PUSH1 0x7 SSTORE PUSH1 0x1 DUP1 SLOAD PUSH1 0x1 PUSH1 0x1 PUSH1 0xA0 SHL SUB SWAP4 DUP5 AND PUSH1 0x1 PUSH1 0x1 PUSH1 0xA0 SHL SUB NOT SWAP2 DUP3 AND OR SWAP1 SWAP2 SSTORE PUSH1 0x2 DUP1 SLOAD SWAP3 SWAP1 SWAP4 AND SWAP2 AND OR SWAP1 SSTORE PUSH3 0x98 CALLER PUSH3 0xE5 JUMP JUMPDEST POP PUSH3 0xA4 CALLER PUSH3 0x165 JUMP JUMPDEST POP PUSH1 0x40 MLOAD PUSH2 0x1597 SWAP1 DUP2 PUSH3 0x208 DUP3 CODECOPY RETURN JUMPDEST PUSH1 0x0 DUP1 REVERT JUMPDEST PUSH4 0x4E487B71 PUSH1 0xE0 SHL PUSH1 0x0 MSTORE PUSH1 0x41 PUSH1 0x4 MSTORE PUSH1 0x24 PUSH1 0x0 REVERT JUMPDEST MLOAD SWAP1 PUSH1 0x1 PUSH1 0x1 PUSH1 0xA0 SHL SUB DUP3 AND DUP3 SUB PUSH3 0xB5 JUMPI JUMP JUMPDEST PUSH1 0x1 PUSH1 0x1 PUSH1 0xA0 SHL SUB AND PUSH1 0x0 DUP2 DUP2 MSTORE PUSH32 0xAD3228B676F7D3CD4284A5443F17F1962B36E491B30A40B2405849E597BA5FB5 PUSH1 0x20 MSTORE PUSH1 0x40 DUP2 KECCAK256 SLOAD SWAP1 SWAP2 SWAP1 PUSH1 0xFF AND PUSH3 0x161 JUMPI DUP2 DUP1 MSTORE DUP2 PUSH1 0x20 MSTORE PUSH1 0x40 DUP3 KECCAK256 DUP2 DUP4 MSTORE PUSH1 0x20 MSTORE PUSH1 0x40 DUP3 KECCAK256 PUSH1 0x1 PUSH1 0xFF NOT DUP3 SLOAD AND OR SWAP1 SSTORE CALLER SWAP2 PUSH1 0x0 DUP1 MLOAD PUSH1 0x20 PUSH3 0x179F DUP4 CODECOPY DUP2 MLOAD SWAP2 MSTORE DUP2 DUP1 LOG4 PUSH1 0x1 SWAP1 JUMP JUMPDEST POP SWAP1 JUMP JUMPDEST PUSH1 0x1 PUSH1 0x1 PUSH1 0xA0 SHL SUB AND PUSH1 0x0 DUP2 DUP2 MSTORE PUSH32 0xEE57CD81E84075558E8FCC182A1F4393F91FC97F963A136E66B7F949A62F319F PUSH1 0x20 MSTORE PUSH1 0x40 DUP2 KECCAK256 SLOAD SWAP1 SWAP2 SWAP1 PUSH32 0x97667070C54EF182B0F5858B034BEAC1B6F3089AA2D3188BB1E8929F4FA9B929 SWAP1 PUSH1 0xFF AND PUSH3 0x202 JUMPI DUP1 DUP4 MSTORE DUP3 PUSH1 0x20 MSTORE PUSH1 0x40 DUP4 KECCAK256 DUP3 DUP5 MSTORE PUSH1 0x20 MSTORE PUSH1 0x40 DUP4 KECCAK256 PUSH1 0x1 PUSH1 0xFF NOT DUP3 SLOAD AND OR SWAP1 SSTORE PUSH1 0x0 DUP1 MLOAD PUSH1 0x20 PUSH3 0x179F DUP4 CODECOPY DUP2 MLOAD SWAP2 MSTORE CALLER SWAP4 DUP1 LOG4 PUSH1 0x1 SWAP1 JUMP JUMPDEST POP POP SWAP1 JUMP INVALID PUSH1 0x80 PUSH1 0x40 DUP2 DUP2 MSTORE PUSH1 0x4 SWAP2 DUP3 CALLDATASIZE LT ISZERO PUSH2 0x16 JUMPI PUSH1 0x0 DUP1 REVERT JUMPDEST PUSH1 0x0 SWAP3 DUP4 CALLDATALOAD PUSH1 0xE0 SHR SWAP2 DUP3 PUSH4 0x1FFC9A7 EQ PUSH2 0xC4C JUMPI POP DUP2 PUSH4 0x6785D8A EQ PUSH2 0xBCB JUMPI DUP2 PUSH4 0x1194F9E9 EQ PUSH2 0xB9E JUMPI DUP2 PUSH4 0x248A9CA3 EQ PUSH2 0xB74 JUMPI DUP2 PUSH4 0x2E94DFDA EQ PUSH2 0xB14 JUMPI DUP2 PUSH4 0x2F2FF15D EQ PUSH2 0xAF6 JUMPI DUP2 PUSH4 0x30AE7805 EQ PUSH2 0xAD9 JUMPI DUP2 PUSH4 0x313B79DA EQ PUSH2 0xA28 JUMPI DUP2 PUSH4 0x36568ABE EQ PUSH2 0x9ED JUMPI DUP2 PUSH4 0x43AE2695 EQ PUSH2 0x9C4 JUMPI DUP2 PUSH4 0x4585E33B EQ PUSH2 0x8DC JUMPI DUP2 PUSH4 0x5513DE41 EQ PUSH2 0x8BE JUMPI DUP2 PUSH4 0x5AA6E675 EQ PUSH2 0x895 JUMPI DUP2 PUSH4 0x5DA6559E EQ PUSH2 0x86D JUMPI DUP2 PUSH4 0x63E86EB8 EQ PUSH2 0x801 JUMPI DUP2 PUSH4 0x6675584F EQ PUSH2 0x7E2 JUMPI DUP2 PUSH4 0x6E04FF0D EQ PUSH2 0x7A6 JUMPI DUP2 PUSH4 0x785B2190 EQ PUSH2 0x62A JUMPI DUP2 PUSH4 0x8085B813 EQ PUSH2 0x5F2 JUMPI DUP2 PUSH4 0x8E5359E0 EQ PUSH2 0x547 JUMPI DUP2 PUSH4 0x91D14854 EQ PUSH2 0x50D JUMPI DUP2 PUSH4 0x94C9825D EQ PUSH2 0x460 JUMPI DUP2 PUSH4 0xA217FDDF EQ PUSH2 0x445 JUMPI DUP2 PUSH4 0xD547741F EQ PUSH2 0x410 JUMPI DUP2 PUSH4 0xD5612486 EQ PUSH2 0x1B5 JUMPI DUP2 PUSH4 0xF333D6C2 EQ PUSH2 0x18B JUMPI POP PUSH4 0xF5B541A6 EQ PUSH2 0x14E JUMPI PUSH1 0x0 DUP1 REVERT JUMPDEST CALLVALUE PUSH2 0x187 JUMPI DUP2 PUSH1 0x3 NOT CALLDATASIZE ADD SLT PUSH2 0x187 JUMPI PUSH1 0x20 SWAP1 MLOAD PUSH32 0x97667070C54EF182B0F5858B034BEAC1B6F3089AA2D3188BB1E8929F4FA9B929 DUP2 MSTORE RETURN JUMPDEST POP DUP1 REVERT JUMPDEST DUP3 DUP5 CALLVALUE PUSH2 0x1B2 JUMPI PUSH1 0x20 CALLDATASIZE PUSH1 0x3 NOT ADD SLT PUSH2 0x1B2 JUMPI POP PUSH2 0x1AB PUSH1 0x20 SWAP3 CALLDATALOAD PUSH2 0xFDF JUMP JUMPDEST SWAP1 MLOAD SWAP1 DUP2 MSTORE RETURN JUMPDEST DUP1 REVERT JUMPDEST DUP4 SWAP2 POP CALLVALUE PUSH2 0x187 JUMPI PUSH1 0x20 SWAP3 DUP4 PUSH1 0x3 NOT CALLDATASIZE ADD SLT PUSH2 0x40C JUMPI PUSH1 0x1 SLOAD DUP2 MLOAD PUSH4 0x32665FFB PUSH1 0xE0 SHL DUP2 MSTORE DUP4 CALLDATALOAD DUP2 DUP6 ADD DUP2 SWAP1 MSTORE SWAP4 SWAP1 SWAP2 PUSH1 0x1 PUSH1 0x1 PUSH1 0xA0 SHL SUB AND SWAP1 DUP6 DUP4 PUSH1 0x24 DUP2 DUP6 GAS STATICCALL SWAP3 DUP4 ISZERO PUSH2 0x402 JUMPI DUP7 SWAP4 PUSH2 0x3D4 JUMPI JUMPDEST POP DUP4 MLOAD PUSH4 0x6EA99677 PUSH1 0xE0 SHL DUP2 MSTORE DUP2 DUP2 ADD DUP7 DUP2 MSTORE PUSH1 0xFF DUP6 AND PUSH1 0x20 DUP3 ADD MSTORE DUP9 SWAP1 DUP3 SWAP1 DUP2 SWAP1 PUSH1 0x40 ADD SUB DUP2 DUP7 GAS STATICCALL SWAP1 DUP2 ISZERO PUSH2 0x3CA JUMPI DUP8 SWAP2 PUSH2 0x399 JUMPI JUMPDEST POP DUP5 MLOAD PUSH4 0x4FA6173 PUSH1 0xE0 SHL DUP2 MSTORE DUP3 DUP2 ADD DUP8 DUP2 MSTORE PUSH1 0xFF DUP7 AND PUSH1 0x20 DUP3 ADD MSTORE DUP10 SWAP1 DUP3 SWAP1 DUP2 SWAP1 PUSH1 0x40 ADD SUB DUP2 DUP8 GAS STATICCALL SWAP1 DUP2 ISZERO PUSH2 0x38F JUMPI DUP9 SWAP2 PUSH2 0x35E JUMPI JUMPDEST POP LT ISZERO DUP1 PUSH2 0x351 JUMPI JUMPDEST PUSH2 0x286 JUMPI DUP6 DUP1 RETURN JUMPDEST DUP2 EXTCODESIZE ISZERO PUSH2 0x34D JUMPI DUP5 PUSH1 0x24 DUP8 SWAP3 DUP4 DUP8 MLOAD SWAP6 DUP7 SWAP5 DUP6 SWAP4 PUSH4 0x40D57A67 PUSH1 0xE1 SHL DUP6 MSTORE DUP5 ADD MSTORE GAS CALL DUP1 ISZERO PUSH2 0x343 JUMPI PUSH2 0x310 JUMPI JUMPDEST POP DUP4 SWAP5 DUP4 PUSH32 0x7214C5E85040CB3E35452FA6FF842070826B1D0BD195171E1C75E6D07BC1B96C SWAP5 SWAP6 MSTORE PUSH1 0x3 DUP2 MSTORE DUP6 PUSH1 0x3 DUP5 DUP3 KECCAK256 TIMESTAMP PUSH1 0x1 DUP3 ADD SSTORE ADD SSTORE PUSH1 0xFF PUSH2 0x2F9 DUP4 PUSH2 0x1161 JUMP JUMPDEST DUP2 DUP6 MLOAD SWAP5 AND DUP5 MSTORE AND SWAP1 DUP3 ADD MSTORE LOG2 DUP1 DUP3 DUP1 DUP1 DUP1 DUP1 DUP6 DUP1 RETURN JUMPDEST SWAP4 PUSH2 0x33C PUSH32 0x7214C5E85040CB3E35452FA6FF842070826B1D0BD195171E1C75E6D07BC1B96C SWAP5 SWAP6 PUSH2 0xF3C JUMP JUMPDEST SWAP4 SWAP3 PUSH2 0x2B4 JUMP JUMPDEST DUP4 MLOAD RETURNDATASIZE DUP8 DUP3 RETURNDATACOPY RETURNDATASIZE SWAP1 REVERT JUMPDEST DUP6 DUP1 REVERT JUMPDEST POP PUSH1 0x3 PUSH1 0xFF DUP5 AND LT PUSH2 0x27E JUMP JUMPDEST SWAP1 POP DUP9 DUP2 DUP2 RETURNDATASIZE DUP4 GT PUSH2 0x388 JUMPI JUMPDEST PUSH2 0x375 DUP2 DUP4 PUSH2 0xF82 JUMP JUMPDEST DUP2 ADD SUB SLT PUSH2 0x384 JUMPI MLOAD DUP10 PUSH2 0x275 JUMP JUMPDEST DUP8 DUP1 REVERT JUMPDEST POP RETURNDATASIZE PUSH2 0x36B JUMP JUMPDEST DUP7 MLOAD RETURNDATASIZE DUP11 DUP3 RETURNDATACOPY RETURNDATASIZE SWAP1 REVERT JUMPDEST SWAP1 POP DUP8 DUP2 DUP2 RETURNDATASIZE DUP4 GT PUSH2 0x3C3 JUMPI JUMPDEST PUSH2 0x3B0 DUP2 DUP4 PUSH2 0xF82 JUMP JUMPDEST DUP2 ADD SUB SLT PUSH2 0x3BF JUMPI MLOAD DUP9 PUSH2 0x23D JUMP JUMPDEST DUP7 DUP1 REVERT JUMPDEST POP RETURNDATASIZE PUSH2 0x3A6 JUMP JUMPDEST DUP6 MLOAD RETURNDATASIZE DUP10 DUP3 RETURNDATACOPY RETURNDATASIZE SWAP1 REVERT JUMPDEST PUSH2 0x3F1 SWAP2 SWAP4 POP RETURNDATASIZE DUP1 DUP9 DUP4 RETURNDATACOPY PUSH2 0x3E9 DUP2 DUP4 PUSH2 0xF82 JUMP JUMPDEST DUP2 ADD SWAP1 PUSH2 0x10D6 JUMP JUMPDEST POP POP SWAP7 POP POP POP POP POP POP POP SWAP2 DUP8 PUSH2 0x205 JUMP JUMPDEST DUP5 MLOAD RETURNDATASIZE DUP9 DUP3 RETURNDATACOPY RETURNDATASIZE SWAP1 REVERT JUMPDEST DUP3 DUP1 REVERT JUMPDEST POP POP CALLVALUE PUSH2 0x187 JUMPI PUSH1 0x1 PUSH2 0x441 SWAP2 PUSH2 0x43C PUSH2 0x429 CALLDATASIZE PUSH2 0xC9F JUMP JUMPDEST SWAP4 SWAP1 SWAP3 DUP4 DUP8 MSTORE DUP7 PUSH1 0x20 MSTORE DUP7 KECCAK256 ADD SLOAD PUSH2 0xE23 JUMP JUMPDEST PUSH2 0xEC7 JUMP JUMPDEST POP DUP1 RETURN JUMPDEST POP POP CALLVALUE PUSH2 0x187 JUMPI DUP2 PUSH1 0x3 NOT CALLDATASIZE ADD SLT PUSH2 0x187 JUMPI MLOAD SWAP1 DUP2 MSTORE PUSH1 0x20 SWAP1 RETURN JUMPDEST SWAP1 POP CALLVALUE PUSH2 0x40C JUMPI PUSH1 0x80 CALLDATASIZE PUSH1 0x3 NOT ADD SLT PUSH2 0x40C JUMPI PUSH2 0x50A SWAP2 DUP2 PUSH32 0x63BD409A0CA0450137D1B574E1E74A5A18CC8934D8F718C1603619B971CE6737 PUSH1 0x60 PUSH1 0x2 SWAP5 CALLDATALOAD SWAP4 DUP5 SWAP4 PUSH1 0x24 CALLDATALOAD SWAP2 PUSH2 0x4AE PUSH2 0xDA9 JUMP JUMPDEST DUP6 DUP11 MSTORE PUSH1 0x3 PUSH1 0x20 MSTORE DUP1 DUP11 KECCAK256 SWAP2 PUSH2 0x4CA PUSH1 0xFF PUSH1 0x6 DUP6 ADD SLOAD AND PUSH2 0xFA4 JUMP JUMPDEST DUP4 PUSH1 0x3 DUP5 ADD SSTORE PUSH1 0x44 CALLDATALOAD SWAP1 DUP4 ADD SSTORE PUSH1 0x64 CALLDATALOAD PUSH1 0x5 DUP4 ADD SSTORE PUSH2 0x4E8 DUP7 PUSH2 0xFDF JUMP JUMPDEST SWAP8 DUP9 SWAP3 ADD SLOAD DUP2 MLOAD SWAP4 DUP5 MSTORE PUSH1 0x20 DUP5 ADD MSTORE DUP3 ADD MSTORE LOG2 PUSH2 0x505 DUP3 DUP3 PUSH2 0x12A8 JUMP JUMPDEST PUSH2 0x1031 JUMP JUMPDEST DUP1 RETURN JUMPDEST POP POP CALLVALUE PUSH2 0x187 JUMPI PUSH1 0xFF DUP2 PUSH1 0x20 SWAP4 PUSH2 0x523 CALLDATASIZE PUSH2 0xC9F JUMP JUMPDEST SWAP1 DUP3 MSTORE DUP2 DUP7 MSTORE DUP3 DUP3 KECCAK256 PUSH1 0x1 PUSH1 0x1 PUSH1 0xA0 SHL SUB SWAP1 SWAP2 AND DUP3 MSTORE DUP6 MSTORE KECCAK256 SLOAD SWAP2 MLOAD SWAP2 AND ISZERO ISZERO DUP2 MSTORE RETURN JUMPDEST SWAP1 POP CALLVALUE PUSH2 0x40C JUMPI PUSH1 0x20 CALLDATASIZE PUSH1 0x3 NOT ADD SLT PUSH2 0x40C JUMPI DUP1 CALLDATALOAD SWAP2 DUP4 DUP1 MSTORE DUP4 PUSH1 0x20 MSTORE DUP1 DUP5 KECCAK256 CALLER DUP6 MSTORE PUSH1 0x20 MSTORE PUSH1 0xFF DUP2 DUP6 KECCAK256 SLOAD AND ISZERO PUSH2 0x5D5 JUMPI PUSH2 0xE10 DUP4 LT ISZERO DUP1 PUSH2 0x5C8 JUMPI JUMPDEST ISZERO PUSH2 0x592 JUMPI POP POP PUSH1 0x7 SSTORE DUP1 RETURN JUMPDEST SWAP1 PUSH1 0x20 PUSH1 0x64 SWAP3 MLOAD SWAP2 PUSH3 0x461BCD PUSH1 0xE5 SHL DUP4 MSTORE DUP3 ADD MSTORE PUSH1 0x10 PUSH1 0x24 DUP3 ADD MSTORE PUSH16 0x24B73B30B634B21031B7B7B63237BBB7 PUSH1 0x81 SHL PUSH1 0x44 DUP3 ADD MSTORE REVERT JUMPDEST POP PUSH3 0x93A80 DUP4 GT ISZERO PUSH2 0x585 JUMP JUMPDEST SWAP1 DUP4 PUSH1 0x44 SWAP3 MLOAD SWAP2 PUSH4 0xE2517D3F PUSH1 0xE0 SHL DUP4 MSTORE CALLER SWAP1 DUP4 ADD MSTORE PUSH1 0x24 DUP3 ADD MSTORE REVERT JUMPDEST DUP3 DUP5 CALLVALUE PUSH2 0x1B2 JUMPI PUSH1 0x20 CALLDATASIZE PUSH1 0x3 NOT ADD SLT PUSH2 0x1B2 JUMPI DUP3 CALLDATALOAD SWAP3 SLOAD DUP4 LT ISZERO PUSH2 0x1B2 JUMPI POP PUSH2 0x61C PUSH1 0x20 SWAP3 PUSH2 0xD5C JUMP JUMPDEST SWAP2 SWAP1 SLOAD SWAP1 MLOAD SWAP2 PUSH1 0x3 SHL SHR DUP2 MSTORE RETURN JUMPDEST DUP4 DUP4 CALLVALUE PUSH2 0x187 JUMPI DUP1 PUSH1 0x3 NOT CALLDATASIZE ADD SLT PUSH2 0x187 JUMPI DUP3 CALLDATALOAD SWAP1 PUSH2 0x647 PUSH2 0xDA9 JUMP JUMPDEST DUP2 DUP4 MSTORE PUSH1 0x5 PUSH1 0x20 MSTORE PUSH1 0xFF DUP2 DUP5 KECCAK256 SLOAD AND PUSH2 0x771 JUMPI DUP1 MLOAD SWAP1 PUSH1 0xE0 DUP3 ADD DUP3 DUP2 LT PUSH8 0xFFFFFFFFFFFFFFFF DUP3 GT OR PUSH2 0x75E JUMPI DUP2 MSTORE DUP3 DUP3 MSTORE PUSH1 0x6 PUSH1 0x20 DUP4 ADD SWAP3 TIMESTAMP DUP5 MSTORE DUP3 DUP2 ADD PUSH1 0x24 CALLDATALOAD DUP2 MSTORE PUSH1 0x60 DUP3 ADD DUP8 DUP2 MSTORE PUSH1 0x80 DUP4 ADD SWAP1 DUP9 DUP3 MSTORE PUSH1 0xA0 DUP5 ADD SWAP3 DUP10 DUP5 MSTORE PUSH1 0xC0 DUP6 ADD SWAP8 PUSH1 0x1 DUP10 MSTORE DUP10 DUP12 MSTORE PUSH1 0x3 PUSH1 0x20 MSTORE DUP8 DUP12 KECCAK256 SWAP6 MLOAD DUP7 SSTORE MLOAD PUSH1 0x1 DUP7 ADD SSTORE MLOAD PUSH1 0x2 DUP6 ADD SSTORE MLOAD PUSH1 0x3 DUP5 ADD SSTORE MLOAD DUP9 DUP4 ADD SSTORE MLOAD PUSH1 0x5 DUP3 ADD SSTORE ADD SWAP2 MLOAD ISZERO ISZERO SWAP2 PUSH1 0xFF NOT SWAP3 PUSH1 0xFF DUP5 DUP4 SLOAD AND SWAP2 AND OR SWAP1 SSTORE DUP5 SLOAD PUSH9 0x10000000000000000 DUP2 LT ISZERO PUSH2 0x75E JUMPI SWAP1 PUSH2 0x711 DUP3 DUP8 PUSH1 0x1 DUP1 SWAP6 ADD SWAP1 SSTORE PUSH2 0xD5C JUMP JUMPDEST DUP2 SLOAD SWAP1 PUSH1 0x3 SHL SWAP1 DUP7 DUP3 SHL SWAP2 PUSH1 0x0 NOT SWAP1 SHL NOT AND OR SWAP1 SSTORE DUP4 DUP6 MSTORE PUSH1 0x5 PUSH1 0x20 MSTORE DUP5 KECCAK256 SWAP2 DUP3 SLOAD AND OR SWAP1 SSTORE PUSH32 0x3621586063592251ACF2253A10FE8119554DBB0BF93D6E875B85A3A66A2166B9 DUP3 DUP1 LOG2 DUP1 RETURN JUMPDEST PUSH4 0x4E487B71 PUSH1 0xE0 SHL DUP6 MSTORE PUSH1 0x41 DUP7 MSTORE PUSH1 0x24 DUP6 REVERT JUMPDEST MLOAD PUSH3 0x461BCD PUSH1 0xE5 SHL DUP2 MSTORE PUSH1 0x20 DUP2 DUP6 ADD MSTORE PUSH1 0x10 PUSH1 0x24 DUP3 ADD MSTORE PUSH16 0x416C726561647920747261636B696E67 PUSH1 0x80 SHL PUSH1 0x44 DUP3 ADD MSTORE PUSH1 0x64 SWAP1 REVERT JUMPDEST DUP3 DUP5 CALLVALUE PUSH2 0x1B2 JUMPI POP PUSH2 0x7B7 CALLDATASIZE PUSH2 0xCCA JUMP JUMPDEST POP POP PUSH2 0x7DE PUSH2 0x7C4 PUSH2 0x143A JUMP JUMPDEST DUP4 SWAP3 SWAP2 SWAP3 MLOAD SWAP4 DUP5 SWAP4 ISZERO ISZERO DUP5 MSTORE DUP1 PUSH1 0x20 DUP6 ADD MSTORE DUP4 ADD SWAP1 PUSH2 0xD37 JUMP JUMPDEST SUB SWAP1 RETURN JUMPDEST POP POP CALLVALUE PUSH2 0x187 JUMPI DUP2 PUSH1 0x3 NOT CALLDATASIZE ADD SLT PUSH2 0x187 JUMPI PUSH1 0x20 SWAP1 PUSH1 0x7 SLOAD SWAP1 MLOAD SWAP1 DUP2 MSTORE RETURN JUMPDEST SWAP1 POP CALLVALUE PUSH2 0x40C JUMPI PUSH1 0x20 CALLDATASIZE PUSH1 0x3 NOT ADD SLT PUSH2 0x40C JUMPI DUP2 PUSH1 0xE0 SWAP4 DUP3 CALLDATALOAD DUP2 MSTORE PUSH1 0x3 PUSH1 0x20 MSTORE KECCAK256 DUP1 SLOAD SWAP3 PUSH1 0x1 DUP3 ADD SLOAD SWAP3 PUSH1 0x2 DUP4 ADD SLOAD PUSH1 0x3 DUP5 ADD SLOAD SWAP2 DUP5 ADD SLOAD SWAP3 PUSH1 0xFF PUSH1 0x6 PUSH1 0x5 DUP8 ADD SLOAD SWAP7 ADD SLOAD AND SWAP6 DUP2 MLOAD SWAP8 DUP9 MSTORE PUSH1 0x20 DUP9 ADD MSTORE DUP7 ADD MSTORE PUSH1 0x60 DUP6 ADD MSTORE PUSH1 0x80 DUP5 ADD MSTORE PUSH1 0xA0 DUP4 ADD MSTORE ISZERO ISZERO PUSH1 0xC0 DUP3 ADD MSTORE RETURN JUMPDEST SWAP1 POP CALLVALUE PUSH2 0x40C JUMPI PUSH1 0x20 CALLDATASIZE PUSH1 0x3 NOT ADD SLT PUSH2 0x40C JUMPI PUSH1 0x20 SWAP3 DUP3 SWAP2 CALLDATALOAD DUP2 MSTORE PUSH1 0x6 DUP5 MSTORE KECCAK256 SLOAD SWAP1 MLOAD SWAP1 DUP2 MSTORE RETURN JUMPDEST POP POP CALLVALUE PUSH2 0x187 JUMPI DUP2 PUSH1 0x3 NOT CALLDATASIZE ADD SLT PUSH2 0x187 JUMPI PUSH1 0x2 SLOAD SWAP1 MLOAD PUSH1 0x1 PUSH1 0x1 PUSH1 0xA0 SHL SUB SWAP1 SWAP2 AND DUP2 MSTORE PUSH1 0x20 SWAP1 RETURN JUMPDEST POP POP CALLVALUE PUSH2 0x187 JUMPI DUP2 PUSH1 0x3 NOT CALLDATASIZE ADD SLT PUSH2 0x187 JUMPI PUSH1 0x20 SWAP1 MLOAD PUSH3 0x93A80 DUP2 MSTORE RETURN JUMPDEST DUP4 SWAP2 POP CALLVALUE PUSH2 0x187 JUMPI DUP3 PUSH2 0x8EE CALLDATASIZE PUSH2 0xCCA JUMP JUMPDEST SWAP1 DUP1 SWAP3 SWAP2 DUP2 ADD SUB SLT PUSH2 0x40C JUMPI CALLDATALOAD DUP1 DUP4 MSTORE PUSH1 0x3 PUSH1 0x20 MSTORE PUSH1 0x1 DUP5 DUP5 KECCAK256 PUSH2 0x918 PUSH1 0xFF PUSH1 0x6 DUP4 ADD SLOAD AND PUSH2 0xFA4 JUMP JUMPDEST ADD SLOAD PUSH3 0x93A80 DUP2 ADD DUP1 SWAP2 GT PUSH2 0x9B1 JUMPI TIMESTAMP LT PUSH2 0x982 JUMPI PUSH2 0x936 DUP2 PUSH2 0xFDF JUMP JUMPDEST SWAP2 PUSH2 0x1D4C DUP4 LT PUSH2 0x94B JUMPI POP SWAP1 PUSH2 0x50A SWAP2 PUSH2 0x1173 JUMP JUMPDEST PUSH1 0x64 SWAP1 PUSH1 0x20 DUP7 MLOAD SWAP2 PUSH3 0x461BCD PUSH1 0xE5 SHL DUP4 MSTORE DUP3 ADD MSTORE PUSH1 0x11 PUSH1 0x24 DUP3 ADD MSTORE PUSH17 0x151A1C995CDA1BDB19081B9BDD081B595D PUSH1 0x7A SHL PUSH1 0x44 DUP3 ADD MSTORE REVERT JUMPDEST DUP4 MLOAD PUSH3 0x461BCD PUSH1 0xE5 SHL DUP2 MSTORE PUSH1 0x20 DUP2 DUP5 ADD MSTORE PUSH1 0x9 PUSH1 0x24 DUP3 ADD MSTORE PUSH9 0x546F6F206561726C79 PUSH1 0xB8 SHL PUSH1 0x44 DUP3 ADD MSTORE PUSH1 0x64 SWAP1 REVERT JUMPDEST PUSH4 0x4E487B71 PUSH1 0xE0 SHL DUP5 MSTORE PUSH1 0x11 DUP4 MSTORE PUSH1 0x24 DUP5 REVERT JUMPDEST POP POP CALLVALUE PUSH2 0x187 JUMPI DUP2 PUSH1 0x3 NOT CALLDATASIZE ADD SLT PUSH2 0x187 JUMPI PUSH1 0x1 SLOAD SWAP1 MLOAD PUSH1 0x1 PUSH1 0x1 PUSH1 0xA0 SHL SUB SWAP1 SWAP2 AND DUP2 MSTORE PUSH1 0x20 SWAP1 RETURN JUMPDEST DUP4 DUP4 CALLVALUE PUSH2 0x187 JUMPI PUSH2 0x9FD CALLDATASIZE PUSH2 0xC9F JUMP JUMPDEST SWAP2 CALLER PUSH1 0x1 PUSH1 0x1 PUSH1 0xA0 SHL SUB DUP5 AND SUB PUSH2 0xA19 JUMPI POP SWAP1 PUSH2 0x441 SWAP2 PUSH2 0xEC7 JUMP JUMPDEST MLOAD PUSH4 0x334BD919 PUSH1 0xE1 SHL DUP2 MSTORE DUP5 SWAP1 REVERT JUMPDEST SWAP1 POP DUP3 CALLVALUE PUSH2 0x1B2 JUMPI DUP1 PUSH1 0x3 NOT CALLDATASIZE ADD SLT PUSH2 0x1B2 JUMPI SWAP2 SWAP1 DUP2 MLOAD SWAP3 DUP4 DUP3 SLOAD DUP1 DUP7 MSTORE PUSH1 0x20 DUP1 SWAP7 ADD SWAP1 DUP2 SWAP5 DUP5 MSTORE PUSH32 0x8A35ACFBC15FF81A39AE7D344FD709F28E8600B4AA8C65C6B64BFE7FE36BD19B SWAP1 DUP5 JUMPDEST DUP2 DUP2 LT PUSH2 0xAC5 JUMPI POP POP POP DUP2 PUSH2 0xA8A SWAP2 SUB DUP3 PUSH2 0xF82 JUMP JUMPDEST DUP4 MLOAD SWAP5 DUP6 SWAP5 DUP2 DUP7 ADD SWAP3 DUP3 DUP8 MSTORE MLOAD DUP1 SWAP4 MSTORE DUP6 ADD SWAP4 SWAP3 JUMPDEST DUP3 DUP2 LT PUSH2 0xAAE JUMPI POP POP POP POP SUB SWAP1 RETURN JUMPDEST DUP4 MLOAD DUP6 MSTORE DUP7 SWAP6 POP SWAP4 DUP2 ADD SWAP4 SWAP3 DUP2 ADD SWAP3 PUSH1 0x1 ADD PUSH2 0xA9F JUMP JUMPDEST DUP3 SLOAD DUP5 MSTORE SWAP3 DUP9 ADD SWAP3 PUSH1 0x1 SWAP3 DUP4 ADD SWAP3 ADD PUSH2 0xA74 JUMP JUMPDEST POP POP CALLVALUE PUSH2 0x187 JUMPI DUP2 PUSH1 0x3 NOT CALLDATASIZE ADD SLT PUSH2 0x187 JUMPI PUSH1 0x20 SWAP1 MLOAD PUSH2 0x1D4C DUP2 MSTORE RETURN JUMPDEST POP POP CALLVALUE PUSH2 0x187 JUMPI PUSH1 0x1 PUSH2 0x441 SWAP2 PUSH2 0xB0F PUSH2 0x429 CALLDATASIZE PUSH2 0xC9F JUMP JUMPDEST PUSH2 0xE49 JUMP JUMPDEST DUP4 DUP4 CALLVALUE PUSH2 0x187 JUMPI PUSH1 0x20 CALLDATASIZE PUSH1 0x3 NOT ADD SLT PUSH2 0x187 JUMPI DUP1 PUSH1 0xA0 SWAP4 CALLDATALOAD SWAP3 DUP4 DUP2 MSTORE PUSH1 0x3 PUSH1 0x20 MSTORE KECCAK256 PUSH1 0x1 DUP2 ADD SLOAD SWAP3 PUSH1 0x2 DUP3 ADD SLOAD SWAP3 PUSH1 0xFF PUSH1 0x6 PUSH2 0xB54 PUSH1 0x3 DUP7 ADD SLOAD SWAP5 PUSH2 0xFDF JUMP JUMPDEST SWAP5 ADD SLOAD AND SWAP4 DUP2 MLOAD SWAP6 DUP7 MSTORE PUSH1 0x20 DUP7 ADD MSTORE DUP5 ADD MSTORE PUSH1 0x60 DUP4 ADD MSTORE ISZERO ISZERO PUSH1 0x80 DUP3 ADD MSTORE RETURN JUMPDEST SWAP1 POP CALLVALUE PUSH2 0x40C JUMPI PUSH1 0x20 CALLDATASIZE PUSH1 0x3 NOT ADD SLT PUSH2 0x40C JUMPI DUP2 PUSH1 0x20 SWAP4 PUSH1 0x1 SWAP3 CALLDATALOAD DUP2 MSTORE DUP1 DUP6 MSTORE KECCAK256 ADD SLOAD SWAP1 MLOAD SWAP1 DUP2 MSTORE RETURN JUMPDEST SWAP1 POP CALLVALUE PUSH2 0x40C JUMPI PUSH1 0x20 CALLDATASIZE PUSH1 0x3 NOT ADD SLT PUSH2 0x40C JUMPI DUP2 PUSH1 0x20 SWAP4 PUSH1 0xFF SWAP3 CALLDATALOAD DUP2 MSTORE PUSH1 0x5 DUP6 MSTORE KECCAK256 SLOAD AND SWAP1 MLOAD SWAP1 ISZERO ISZERO DUP2 MSTORE RETURN JUMPDEST SWAP1 POP CALLVALUE PUSH2 0x40C JUMPI PUSH1 0x20 CALLDATASIZE PUSH1 0x3 NOT ADD SLT PUSH2 0x40C JUMPI CALLDATALOAD SWAP1 PUSH2 0xBE8 PUSH2 0xDA9 JUMP JUMPDEST DUP2 DUP4 MSTORE PUSH1 0x5 PUSH1 0x20 MSTORE PUSH2 0xBFF PUSH1 0xFF DUP3 DUP6 KECCAK256 SLOAD AND PUSH2 0xFA4 JUMP JUMPDEST DUP2 DUP4 MSTORE PUSH1 0x3 PUSH1 0x20 MSTORE PUSH1 0x6 DUP2 DUP5 KECCAK256 ADD SWAP1 PUSH1 0xFF NOT SWAP2 DUP3 DUP2 SLOAD AND SWAP1 SSTORE PUSH1 0x5 PUSH1 0x20 MSTORE DUP4 KECCAK256 SWAP1 DUP2 SLOAD AND SWAP1 SSTORE PUSH32 0x96FBF803F14DA8437E0CBE34DF7152F998DBC3B7E2343C52FB4285E90387A9CA DUP3 DUP1 LOG2 DUP1 RETURN JUMPDEST DUP5 SWAP2 CALLVALUE PUSH2 0x40C JUMPI PUSH1 0x20 CALLDATASIZE PUSH1 0x3 NOT ADD SLT PUSH2 0x40C JUMPI CALLDATALOAD PUSH4 0xFFFFFFFF PUSH1 0xE0 SHL DUP2 AND DUP1 SWAP2 SUB PUSH2 0x40C JUMPI PUSH1 0x20 SWAP3 POP PUSH4 0x7965DB0B PUSH1 0xE0 SHL DUP2 EQ SWAP1 DUP2 ISZERO PUSH2 0xC8E JUMPI JUMPDEST POP ISZERO ISZERO DUP2 MSTORE RETURN JUMPDEST PUSH4 0x1FFC9A7 PUSH1 0xE0 SHL EQ SWAP1 POP DUP4 PUSH2 0xC87 JUMP JUMPDEST PUSH1 0x40 SWAP1 PUSH1 0x3 NOT ADD SLT PUSH2 0xCC5 JUMPI PUSH1 0x4 CALLDATALOAD SWAP1 PUSH1 0x24 CALLDATALOAD PUSH1 0x1 PUSH1 0x1 PUSH1 0xA0 SHL SUB DUP2 AND DUP2 SUB PUSH2 0xCC5 JUMPI SWAP1 JUMP JUMPDEST PUSH1 0x0 DUP1 REVERT JUMPDEST SWAP1 PUSH1 0x20 PUSH1 0x3 NOT DUP4 ADD SLT PUSH2 0xCC5 JUMPI PUSH1 0x4 CALLDATALOAD PUSH8 0xFFFFFFFFFFFFFFFF SWAP3 DUP4 DUP3 GT PUSH2 0xCC5 JUMPI DUP1 PUSH1 0x23 DUP4 ADD SLT ISZERO PUSH2 0xCC5 JUMPI DUP2 PUSH1 0x4 ADD CALLDATALOAD SWAP4 DUP5 GT PUSH2 0xCC5 JUMPI PUSH1 0x24 DUP5 DUP4 ADD ADD GT PUSH2 0xCC5 JUMPI PUSH1 0x24 ADD SWAP2 SWAP1 JUMP JUMPDEST PUSH1 0x0 JUMPDEST DUP4 DUP2 LT PUSH2 0xD27 JUMPI POP POP PUSH1 0x0 SWAP2 ADD MSTORE JUMP JUMPDEST DUP2 DUP2 ADD MLOAD DUP4 DUP3 ADD MSTORE PUSH1 0x20 ADD PUSH2 0xD17 JUMP JUMPDEST SWAP1 PUSH1 0x20 SWAP2 PUSH2 0xD50 DUP2 MLOAD DUP1 SWAP3 DUP2 DUP6 MSTORE DUP6 DUP1 DUP7 ADD SWAP2 ADD PUSH2 0xD14 JUMP JUMPDEST PUSH1 0x1F ADD PUSH1 0x1F NOT AND ADD ADD SWAP1 JUMP JUMPDEST PUSH1 0x4 SLOAD DUP2 LT ISZERO PUSH2 0xD93 JUMPI PUSH1 0x4 PUSH1 0x0 MSTORE PUSH32 0x8A35ACFBC15FF81A39AE7D344FD709F28E8600B4AA8C65C6B64BFE7FE36BD19B ADD SWAP1 PUSH1 0x0 SWAP1 JUMP JUMPDEST PUSH4 0x4E487B71 PUSH1 0xE0 SHL PUSH1 0x0 MSTORE PUSH1 0x32 PUSH1 0x4 MSTORE PUSH1 0x24 PUSH1 0x0 REVERT JUMPDEST CALLER PUSH1 0x0 SWAP1 DUP2 MSTORE PUSH32 0xEE57CD81E84075558E8FCC182A1F4393F91FC97F963A136E66B7F949A62F319F PUSH1 0x20 MSTORE PUSH1 0x40 SWAP1 KECCAK256 SLOAD PUSH32 0x97667070C54EF182B0F5858B034BEAC1B6F3089AA2D3188BB1E8929F4FA9B929 SWAP1 PUSH1 0xFF AND ISZERO PUSH2 0xE05 JUMPI POP JUMP JUMPDEST PUSH1 0x44 SWAP1 PUSH1 0x40 MLOAD SWAP1 PUSH4 0xE2517D3F PUSH1 0xE0 SHL DUP3 MSTORE CALLER PUSH1 0x4 DUP4 ADD MSTORE PUSH1 0x24 DUP3 ADD MSTORE REVERT JUMPDEST DUP1 PUSH1 0x0 MSTORE PUSH1 0x0 PUSH1 0x20 MSTORE PUSH1 0x40 PUSH1 0x0 KECCAK256 CALLER PUSH1 0x0 MSTORE PUSH1 0x20 MSTORE PUSH1 0xFF PUSH1 0x40 PUSH1 0x0 KECCAK256 SLOAD AND ISZERO PUSH2 0xE05 JUMPI POP JUMP JUMPDEST SWAP1 PUSH1 0x0 SWAP2 DUP1 DUP4 MSTORE DUP3 PUSH1 0x20 MSTORE PUSH1 0x40 DUP4 KECCAK256 SWAP2 PUSH1 0x1 DUP1 PUSH1 0xA0 SHL SUB AND SWAP2 DUP3 DUP5 MSTORE PUSH1 0x20 MSTORE PUSH1 0xFF PUSH1 0x40 DUP5 KECCAK256 SLOAD AND ISZERO PUSH1 0x0 EQ PUSH2 0xEC2 JUMPI DUP1 DUP4 MSTORE DUP3 PUSH1 0x20 MSTORE PUSH1 0x40 DUP4 KECCAK256 DUP3 DUP5 MSTORE PUSH1 0x20 MSTORE PUSH1 0x40 DUP4 KECCAK256 PUSH1 0x1 PUSH1 0xFF NOT DUP3 SLOAD AND OR SWAP1 SSTORE PUSH32 0x2F8788117E7EFF1D82E926EC794901D17C78024A50270940304540A733656F0D CALLER SWAP4 DUP1 LOG4 PUSH1 0x1 SWAP1 JUMP JUMPDEST POP POP SWAP1 JUMP JUMPDEST SWAP1 PUSH1 0x0 SWAP2 DUP1 DUP4 MSTORE DUP3 PUSH1 0x20 MSTORE PUSH1 0x40 DUP4 KECCAK256 SWAP2 PUSH1 0x1 DUP1 PUSH1 0xA0 SHL SUB AND SWAP2 DUP3 DUP5 MSTORE PUSH1 0x20 MSTORE PUSH1 0xFF PUSH1 0x40 DUP5 KECCAK256 SLOAD AND PUSH1 0x0 EQ PUSH2 0xEC2 JUMPI DUP1 DUP4 MSTORE DUP3 PUSH1 0x20 MSTORE PUSH1 0x40 DUP4 KECCAK256 DUP3 DUP5 MSTORE PUSH1 0x20 MSTORE PUSH1 0x40 DUP4 KECCAK256 PUSH1 0xFF NOT DUP2 SLOAD AND SWAP1 SSTORE PUSH32 0xF6391F5C32D9C69D2A47EA670B442974B53935D1EDC7FD64EB21E047A839171B CALLER SWAP4 DUP1 LOG4 PUSH1 0x1 SWAP1 JUMP JUMPDEST PUSH8 0xFFFFFFFFFFFFFFFF DUP2 GT PUSH2 0xF50 JUMPI PUSH1 0x40 MSTORE JUMP JUMPDEST PUSH4 0x4E487B71 PUSH1 0xE0 SHL PUSH1 0x0 MSTORE PUSH1 0x41 PUSH1 0x4 MSTORE PUSH1 0x24 PUSH1 0x0 REVERT JUMPDEST PUSH1 0x40 DUP2 ADD SWAP1 DUP2 LT PUSH8 0xFFFFFFFFFFFFFFFF DUP3 GT OR PUSH2 0xF50 JUMPI PUSH1 0x40 MSTORE JUMP JUMPDEST SWAP1 PUSH1 0x1F DUP1 NOT SWAP2 ADD AND DUP2 ADD SWAP1 DUP2 LT PUSH8 0xFFFFFFFFFFFFFFFF DUP3 GT OR PUSH2 0xF50 JUMPI PUSH1 0x40 MSTORE JUMP JUMPDEST ISZERO PUSH2 0xFAB JUMPI JUMP JUMPDEST PUSH1 0x40 MLOAD PUSH3 0x461BCD PUSH1 0xE5 SHL DUP2 MSTORE PUSH1 0x20 PUSH1 0x4 DUP3 ADD MSTORE PUSH1 0xC PUSH1 0x24 DUP3 ADD MSTORE PUSH12 0x4E6F7420747261636B696E67 PUSH1 0xA0 SHL PUSH1 0x44 DUP3 ADD MSTORE PUSH1 0x64 SWAP1 REVERT JUMPDEST PUSH1 0x0 MSTORE PUSH1 0x3 PUSH1 0x20 MSTORE PUSH1 0x40 PUSH1 0x0 KECCAK256 PUSH1 0x2 DUP2 ADD SLOAD SWAP1 DUP2 ISZERO PUSH2 0x102A JUMPI PUSH1 0x3 ADD SLOAD PUSH2 0x2710 SWAP1 DUP2 DUP2 MUL SWAP2 DUP2 DUP4 DIV EQ SWAP1 ISZERO OR ISZERO PUSH2 0x1014 JUMPI DIV SWAP1 JUMP JUMPDEST PUSH4 0x4E487B71 PUSH1 0xE0 SHL PUSH1 0x0 MSTORE PUSH1 0x11 PUSH1 0x4 MSTORE PUSH1 0x24 PUSH1 0x0 REVERT JUMPDEST POP POP PUSH1 0x0 SWAP1 JUMP JUMPDEST SWAP1 DUP2 PUSH1 0x0 MSTORE PUSH1 0x3 PUSH1 0x20 MSTORE PUSH1 0x1 PUSH1 0x40 PUSH1 0x0 KECCAK256 ADD SLOAD PUSH3 0x93A80 DUP2 ADD DUP1 SWAP2 GT PUSH2 0x1014 JUMPI TIMESTAMP LT PUSH2 0x1070 JUMPI PUSH2 0x1D4C DUP2 LT ISZERO PUSH2 0x1065 JUMPI POP POP JUMP JUMPDEST PUSH2 0x106E SWAP2 PUSH2 0x1173 JUMP JUMPDEST JUMP JUMPDEST POP POP JUMP JUMPDEST DUP2 PUSH1 0x1F DUP3 ADD SLT ISZERO PUSH2 0xCC5 JUMPI DUP1 MLOAD PUSH8 0xFFFFFFFFFFFFFFFF DUP2 GT PUSH2 0xF50 JUMPI PUSH1 0x40 MLOAD SWAP3 PUSH2 0x10A8 PUSH1 0x1F DUP4 ADD PUSH1 0x1F NOT AND PUSH1 0x20 ADD DUP6 PUSH2 0xF82 JUMP JUMPDEST DUP2 DUP5 MSTORE PUSH1 0x20 DUP3 DUP5 ADD ADD GT PUSH2 0xCC5 JUMPI PUSH2 0x10C6 SWAP2 PUSH1 0x20 DUP1 DUP6 ADD SWAP2 ADD PUSH2 0xD14 JUMP JUMPDEST SWAP1 JUMP JUMPDEST MLOAD SWAP1 DUP2 ISZERO ISZERO DUP3 SUB PUSH2 0xCC5 JUMPI JUMP JUMPDEST PUSH2 0x140 DUP2 DUP4 SUB SLT PUSH2 0xCC5 JUMPI DUP1 MLOAD SWAP3 PUSH1 0x20 DUP3 ADD MLOAD PUSH8 0xFFFFFFFFFFFFFFFF SWAP1 DUP2 DUP2 GT PUSH2 0xCC5 JUMPI DUP5 PUSH2 0x1106 SWAP2 DUP6 ADD PUSH2 0x1074 JUMP JUMPDEST SWAP4 PUSH1 0x40 DUP5 ADD MLOAD SWAP2 DUP3 GT PUSH2 0xCC5 JUMPI PUSH2 0x111E SWAP2 DUP5 ADD PUSH2 0x1074 JUMP JUMPDEST SWAP2 PUSH1 0x60 DUP2 ADD MLOAD SWAP2 PUSH1 0x80 DUP3 ADD MLOAD SWAP2 PUSH1 0xA0 DUP2 ADD MLOAD SWAP2 PUSH1 0xC0 DUP3 ADD MLOAD SWAP2 PUSH1 0xE0 DUP2 ADD MLOAD PUSH1 0xFF DUP2 AND DUP2 SUB PUSH2 0xCC5 JUMPI SWAP2 PUSH2 0x10C6 PUSH2 0x120 PUSH2 0x115A PUSH2 0x100 DUP6 ADD PUSH2 0x10C9 JUMP JUMPDEST SWAP4 ADD PUSH2 0x10C9 JUMP JUMPDEST PUSH1 0xFF PUSH1 0x1 SWAP2 AND ADD SWAP1 PUSH1 0xFF DUP3 GT PUSH2 0x1014 JUMPI JUMP JUMPDEST PUSH1 0x1 SLOAD PUSH1 0x40 DUP1 MLOAD PUSH4 0x32665FFB PUSH1 0xE0 SHL DUP2 MSTORE PUSH1 0x4 DUP2 ADD DUP5 SWAP1 MSTORE SWAP3 SWAP4 PUSH1 0x1 PUSH1 0x1 PUSH1 0xA0 SHL SUB SWAP1 SWAP3 AND SWAP3 PUSH1 0x0 DUP1 DUP3 PUSH1 0x24 DUP2 DUP9 GAS STATICCALL SWAP2 DUP3 ISZERO PUSH2 0x129C JUMPI DUP2 SWAP3 PUSH2 0x1276 JUMPI JUMPDEST POP PUSH1 0xFF DUP3 AND SWAP5 PUSH1 0x3 DUP7 LT PUSH2 0x11C9 JUMPI JUMPDEST POP POP POP POP POP POP POP JUMP JUMPDEST DUP1 EXTCODESIZE ISZERO PUSH2 0x187 JUMPI DUP2 DUP1 SWAP2 PUSH1 0x24 DUP7 MLOAD DUP1 SWAP5 DUP2 SWAP4 PUSH4 0x40D57A67 PUSH1 0xE1 SHL DUP4 MSTORE DUP13 PUSH1 0x4 DUP5 ADD MSTORE GAS CALL DUP1 ISZERO PUSH2 0x126C JUMPI PUSH1 0x60 SWAP6 SWAP4 PUSH32 0xD786D06DD56DF8B68A470FB87593BD3D76A14EEEA5CF10760563177BD21496B0 SWAP8 SWAP6 SWAP4 PUSH1 0xFF SWAP4 PUSH2 0x1242 SWAP4 PUSH2 0x125D JUMPI JUMPDEST POP DUP10 DUP2 MSTORE PUSH1 0x3 PUSH1 0x20 MSTORE PUSH1 0x3 DUP6 DUP3 KECCAK256 TIMESTAMP PUSH1 0x1 DUP3 ADD SSTORE ADD SSTORE PUSH2 0x1161 JUMP JUMPDEST DUP3 MLOAD SWAP5 DUP6 MSTORE AND PUSH1 0x20 DUP5 ADD MSTORE DUP3 ADD MSTORE LOG2 CODESIZE DUP1 DUP1 DUP1 DUP1 DUP1 DUP1 PUSH2 0x11C0 JUMP JUMPDEST PUSH2 0x1266 SWAP1 PUSH2 0xF3C JUMP JUMPDEST CODESIZE PUSH2 0x1227 JUMP JUMPDEST DUP5 MLOAD RETURNDATASIZE DUP5 DUP3 RETURNDATACOPY RETURNDATASIZE SWAP1 REVERT JUMPDEST PUSH2 0x128B SWAP2 SWAP3 POP RETURNDATASIZE DUP1 DUP5 DUP4 RETURNDATACOPY PUSH2 0x3E9 DUP2 DUP4 PUSH2 0xF82 JUMP JUMPDEST POP POP SWAP7 POP POP POP POP POP POP POP SWAP1 CODESIZE PUSH2 0x11B1 JUMP JUMPDEST POP DUP3 MLOAD SWAP1 RETURNDATASIZE SWAP1 DUP3 RETURNDATACOPY RETURNDATASIZE SWAP1 REVERT JUMPDEST SWAP1 PUSH1 0x0 DUP3 DUP2 MSTORE PUSH1 0x20 PUSH1 0x6 DUP2 MSTORE PUSH1 0x40 SWAP1 DUP2 DUP4 KECCAK256 SLOAD PUSH1 0x7 SLOAD DUP2 ADD DUP1 SWAP2 GT PUSH2 0x1426 JUMPI TIMESTAMP LT PUSH2 0x1409 JUMPI PUSH2 0x9C4 DUP5 LT ISZERO PUSH2 0x134E JUMPI PUSH32 0x505A29C5397A0038BF34D9F7BAF0047C3F5EAE6323BF8450C1E34DACF7CC2A17 SWAP4 DUP3 MLOAD PUSH2 0x1304 DUP2 PUSH2 0xF66 JUMP JUMPDEST PUSH1 0x14 DUP2 MSTORE PUSH20 0x3AB933B2B73A2FB830B93A34B1B4B830BA34B7B7 PUSH1 0x61 SHL DUP4 DUP3 ADD MSTORE SWAP4 JUMPDEST DUP7 DUP2 MSTORE PUSH1 0x6 DUP4 MSTORE DUP4 TIMESTAMP SWAP2 KECCAK256 SSTORE PUSH2 0x1345 DUP4 MLOAD SWAP5 DUP5 DUP7 SWAP6 DUP7 MSTORE DUP6 ADD SWAP1 PUSH2 0xD37 JUMP JUMPDEST SWAP2 DUP4 ADD MSTORE SUB SWAP1 LOG2 JUMP JUMPDEST PUSH2 0x1770 DUP5 LT ISZERO DUP1 PUSH2 0x141B JUMPI JUMPDEST ISZERO PUSH2 0x13AC JUMPI PUSH32 0x505A29C5397A0038BF34D9F7BAF0047C3F5EAE6323BF8450C1E34DACF7CC2A17 SWAP4 DUP3 MLOAD PUSH2 0x138C DUP2 PUSH2 0xF66 JUMP JUMPDEST PUSH1 0xE DUP2 MSTORE PUSH14 0x36B4B632B9BA37B732AFB732B0B9 PUSH1 0x91 SHL DUP4 DUP3 ADD MSTORE SWAP4 PUSH2 0x1326 JUMP JUMPDEST PUSH2 0x1B58 DUP5 LT ISZERO DUP1 PUSH2 0x1410 JUMPI JUMPDEST ISZERO PUSH2 0x1409 JUMPI PUSH32 0x505A29C5397A0038BF34D9F7BAF0047C3F5EAE6323BF8450C1E34DACF7CC2A17 SWAP4 DUP3 MLOAD PUSH2 0x13EA DUP2 PUSH2 0xF66 JUMP JUMPDEST PUSH1 0xD DUP2 MSTORE PUSH13 0x70686173655F636C6F73696E67 PUSH1 0x98 SHL DUP4 DUP3 ADD MSTORE SWAP4 PUSH2 0x1326 JUMP JUMPDEST POP POP POP POP POP JUMP JUMPDEST POP PUSH2 0x1D4C DUP5 LT PUSH2 0x13B8 JUMP JUMPDEST POP PUSH2 0x1D4C DUP5 LT PUSH2 0x135A JUMP JUMPDEST PUSH4 0x4E487B71 PUSH1 0xE0 SHL DUP5 MSTORE PUSH1 0x11 PUSH1 0x4 MSTORE PUSH1 0x24 DUP5 REVERT JUMPDEST PUSH1 0x0 SWAP1 PUSH1 0x4 SWAP2 DUP3 SLOAD SWAP1 JUMPDEST DUP2 DUP2 LT PUSH2 0x148B JUMPI POP POP PUSH1 0x40 MLOAD PUSH1 0x0 SWAP3 PUSH1 0x20 DUP3 ADD SWAP1 PUSH8 0xFFFFFFFFFFFFFFFF DUP3 GT DUP4 DUP4 LT OR PUSH2 0x1476 JUMPI POP PUSH1 0x40 MSTORE PUSH1 0x0 DUP2 MSTORE SWAP1 JUMP JUMPDEST PUSH1 0x41 SWAP1 PUSH4 0x4E487B71 PUSH1 0xE0 SHL PUSH1 0x0 MSTORE MSTORE PUSH1 0x24 PUSH1 0x0 REVERT JUMPDEST PUSH2 0x1494 DUP2 PUSH2 0xD5C JUMP JUMPDEST SWAP1 SLOAD PUSH1 0x3 SWAP2 DUP3 SHL SHR DUP1 PUSH1 0x0 MSTORE PUSH1 0x20 SWAP2 DUP3 MSTORE PUSH1 0x40 DUP1 PUSH1 0x0 KECCAK256 SWAP2 PUSH1 0xFF PUSH1 0x6 DUP5 ADD SLOAD AND ISZERO PUSH2 0x1543 JUMPI PUSH1 0x1 DUP1 SWAP4 ADD SLOAD PUSH3 0x93A80 DUP2 ADD DUP1 SWAP2 GT PUSH2 0x154C JUMPI TIMESTAMP LT PUSH2 0x1543 JUMPI PUSH2 0x14DB DUP2 PUSH2 0xFDF JUMP JUMPDEST SWAP1 PUSH2 0x1D4C DUP3 LT ISZERO PUSH2 0x1512 JUMPI POP POP POP POP POP JUMPDEST PUSH1 0x0 NOT DUP2 EQ PUSH2 0x14FD JUMPI PUSH1 0x1 ADD PUSH2 0x1444 JUMP JUMPDEST PUSH1 0x11 DUP5 PUSH4 0x4E487B71 PUSH1 0xE0 SHL PUSH1 0x0 MSTORE MSTORE PUSH1 0x24 PUSH1 0x0 REVERT JUMPDEST DUP3 MLOAD SWAP5 DUP6 ADD MSTORE DUP4 DUP3 ADD MSTORE DUP1 DUP4 MSTORE SWAP2 SWAP6 SWAP1 SWAP4 POP PUSH1 0x60 DUP7 ADD SWAP3 POP PUSH8 0xFFFFFFFFFFFFFFFF DUP4 GT DUP7 DUP5 LT OR PUSH2 0x1476 JUMPI POP MSTORE SWAP2 SWAP1 JUMP JUMPDEST POP POP POP POP PUSH2 0x14EC JUMP JUMPDEST PUSH1 0x11 DUP10 PUSH4 0x4E487B71 PUSH1 0xE0 SHL PUSH1 0x0 MSTORE MSTORE PUSH1 0x24 PUSH1 0x0 REVERT INVALID LOG2 PUSH5 0x6970667358 0x22 SLT KECCAK256 PUSH20 0x85FE94CD1049270E64ACE715A19260FF2D98A7BF EXTCODESIZE NOT GAS CODESIZE JUMPI 0x2B MULMOD 0xEE 0xEE 0xC7 0xCD PUSH5 0x736F6C6343 STOP ADDMOD EQ STOP CALLER 0x2F DUP8 DUP9 GT PUSH31 0x7EFF1D82E926EC794901D17C78024A50270940304540A733656F0D00000000 "},"methodIdentifiers":{"DEFAULT_ADMIN_ROLE()":"a217fddf","ENGAGEMENT_THRESHOLD()":"30ae7805","MIN_ENGAGEMENT_PERIOD()":"5513de41","OPERATOR_ROLE()":"f5b541a6","calculateEngagement(uint256)":"f333d6c2","checkSubscriptionAdvancement(uint256)":"d5612486","checkUpkeep(bytes)":"6e04ff0d","getEngagement(uint256)":"2e94dfda","getRoleAdmin(bytes32)":"248a9ca3","getTrackedProperties()":"313b79da","governance()":"5aa6e675","grantRole(bytes32,address)":"2f2ff15d","hasRole(bytes32,address)":"91d14854","isTracked(uint256)":"1194f9e9","lastNudgeTime(uint256)":"5da6559e","nudgeCooldown()":"6675584f","performUpkeep(bytes)":"4585e33b","propertyEngagement(uint256)":"63e86eb8","propertyToken()":"43ae2695","renounceRole(bytes32,address)":"36568abe","revokeRole(bytes32,address)":"d547741f","setNudgeCooldown(uint256)":"8e5359e0","startTracking(uint256,uint256)":"785b2190","stopTracking(uint256)":"06785d8a","supportsInterface(bytes4)":"01ffc9a7","trackedProperties(uint256)":"8085b813","updateEngagement(uint256,uint256,uint256,uint256)":"94c9825d"}}}}}