{"contracts/PropertyToken.sol":{"PropertyToken":{"abi":[{"inputs":[{"internalType":"string","name":"uri_","type":"string"}],"stateMutability":"nonpayable","type":"constructor"},{"inputs":[],"name":"AccessControlBadConfirmation","type":"error"},{"inputs":[{"internalType":"address","name":"account","type":"address"},{"internalType":"bytes32","name":"neededRole","type":"bytes32"}],"name":"AccessControlUnauthorizedAccount","type":"error"},{"inputs":[{"internalType":"address","name":"sender","type":"address"},{"internalType":"uint256","name":"balance","type":"uint256"},{"internalType":"uint256","name":"needed","type":"uint256"},{"internalType":"uint256","name":"tokenId","type":"uint256"}],"name":"ERC1155InsufficientBalance","type":"error"},{"inputs":[{"internalType":"address","name":"approver","type":"address"}],"name":"ERC1155InvalidApprover","type":"error"},{"inputs":[{"internalType":"uint256","name":"idsLength","type":"uint256"},{"internalType":"uint256","name":"valuesLength","type":"uint256"}],"name":"ERC1155InvalidArrayLength","type":"error"},{"inputs":[{"internalType":"address","name":"operator","type":"address"}],"name":"ERC1155InvalidOperator","type":"error"},{"inputs":[{"internalType":"address","name":"receiver","type":"address"}],"name":"ERC1155InvalidReceiver","type":"error"},{"inputs":[{"internalType":"address","name":"sender","type":"address"}],"name":"ERC1155InvalidSender","type":"error"},{"inputs":[{"internalType":"address","name":"operator","type":"address"},{"internalType":"address","name":"owner","type":"address"}],"name":"ERC1155MissingApprovalForAll","type":"error"},{"inputs":[],"name":"EnforcedPause","type":"error"},{"inputs":[],"name":"ExpectedPause","type":"error"},{"inputs":[],"name":"ReentrancyGuardReentrantCall","type":"error"},{"anonymous":false,"inputs":[{"indexed":true,"internalType":"address","name":"account","type":"address"},{"indexed":false,"internalType":"uint256","name":"timestamp","type":"uint256"},{"indexed":false,"internalType":"string","name":"reason","type":"string"}],"name":"AMLCheckFailed","type":"event"},{"anonymous":false,"inputs":[{"indexed":true,"internalType":"address","name":"account","type":"address"},{"indexed":false,"internalType":"uint256","name":"timestamp","type":"uint256"},{"indexed":false,"internalType":"bytes32","name":"checkId","type":"bytes32"}],"name":"AMLCheckPassed","type":"event"},{"anonymous":false,"inputs":[{"indexed":true,"internalType":"address","name":"account","type":"address"}],"name":"AddressRemovedFromWhitelist","type":"event"},{"anonymous":false,"inputs":[{"indexed":true,"internalType":"address","name":"account","type":"address"},{"indexed":false,"internalType":"enum PropertyToken.Phase","name":"eligibility","type":"uint8"}],"name":"AddressWhitelisted","type":"event"},{"anonymous":false,"inputs":[{"indexed":true,"internalType":"address","name":"account","type":"address"},{"indexed":true,"internalType":"address","name":"operator","type":"address"},{"indexed":false,"internalType":"bool","name":"approved","type":"bool"}],"name":"ApprovalForAll","type":"event"},{"anonymous":false,"inputs":[{"indexed":false,"internalType":"uint256","name":"newPrice","type":"uint256"}],"name":"BasePriceUpdated","type":"event"},{"anonymous":false,"inputs":[{"indexed":true,"internalType":"uint256","name":"propertyId","type":"uint256"},{"indexed":false,"internalType":"uint256","name":"timestamp","type":"uint256"},{"indexed":false,"internalType":"uint256","name":"totalHolders","type":"uint256"},{"indexed":false,"internalType":"uint256","name":"totalSupplyMinted","type":"uint256"}],"name":"ComplianceCheckpoint","type":"event"},{"anonymous":false,"inputs":[{"indexed":true,"internalType":"address","name":"account","type":"address"},{"indexed":false,"internalType":"uint256","name":"timestamp","type":"uint256"},{"indexed":false,"internalType":"bytes32","name":"verificationId","type":"bytes32"}],"name":"KYCVerificationCompleted","type":"event"},{"anonymous":false,"inputs":[{"indexed":true,"internalType":"address","name":"account","type":"address"},{"indexed":false,"internalType":"uint256","name":"timestamp","type":"uint256"},{"indexed":false,"internalType":"string","name":"reason","type":"string"}],"name":"KYCVerificationRevoked","type":"event"},{"anonymous":false,"inputs":[{"indexed":true,"internalType":"uint256","name":"propertyId","type":"uint256"},{"indexed":false,"internalType":"string","name":"llcIdentifier","type":"string"},{"indexed":false,"internalType":"address","name":"custodian","type":"address"}],"name":"LLCBackingUpdated","type":"event"},{"anonymous":false,"inputs":[{"indexed":false,"internalType":"address","name":"account","type":"address"}],"name":"Paused","type":"event"},{"anonymous":false,"inputs":[{"indexed":true,"internalType":"uint256","name":"propertyId","type":"uint256"},{"indexed":false,"internalType":"enum PropertyToken.Phase","name":"newPhase","type":"uint8"}],"name":"PhaseAdvanced","type":"event"},{"anonymous":false,"inputs":[{"indexed":true,"internalType":"uint256","name":"propertyId","type":"uint256"},{"indexed":false,"internalType":"string","name":"name","type":"string"},{"indexed":false,"internalType":"uint256","name":"totalSupply","type":"uint256"},{"indexed":false,"internalType":"uint256","name":"fundingTarget","type":"uint256"},{"indexed":false,"internalType":"string","name":"llcIdentifier","type":"string"},{"indexed":false,"internalType":"address","name":"custodian","type":"address"}],"name":"PropertyCreated","type":"event"},{"anonymous":false,"inputs":[{"indexed":true,"internalType":"uint256","name":"propertyId","type":"uint256"},{"indexed":false,"internalType":"uint256","name":"totalRaised","type":"uint256"}],"name":"PropertyFunded","type":"event"},{"anonymous":false,"inputs":[{"indexed":true,"internalType":"uint256","name":"propertyId","type":"uint256"},{"indexed":true,"internalType":"address","name":"requestor","type":"address"},{"indexed":false,"internalType":"uint256","name":"timestamp","type":"uint256"}],"name":"RegulatorAuditRequested","type":"event"},{"anonymous":false,"inputs":[{"indexed":true,"internalType":"bytes32","name":"role","type":"bytes32"},{"indexed":true,"internalType":"bytes32","name":"previousAdminRole","type":"bytes32"},{"indexed":true,"internalType":"bytes32","name":"newAdminRole","type":"bytes32"}],"name":"RoleAdminChanged","type":"event"},{"anonymous":false,"inputs":[{"indexed":true,"internalType":"bytes32","name":"role","type":"bytes32"},{"indexed":true,"internalType":"address","name":"account","type":"address"},{"indexed":true,"internalType":"address","name":"sender","type":"address"}],"name":"RoleGranted","type":"event"},{"anonymous":false,"inputs":[{"indexed":true,"internalType":"bytes32","name":"role","type":"bytes32"},{"indexed":true,"internalType":"address","name":"account","type":"address"},{"indexed":true,"internalType":"address","name":"sender","type":"address"}],"name":"RoleRevoked","type":"event"},{"anonymous":false,"inputs":[{"indexed":true,"internalType":"uint256","name":"propertyId","type":"uint256"},{"indexed":true,"internalType":"address","name":"from","type":"address"},{"indexed":false,"internalType":"uint256","name":"amount","type":"uint256"},{"indexed":false,"internalType":"enum PropertyToken.Phase","name":"phase","type":"uint8"}],"name":"TokensBurned","type":"event"},{"anonymous":false,"inputs":[{"indexed":true,"internalType":"uint256","name":"propertyId","type":"uint256"},{"indexed":true,"internalType":"address","name":"buyer","type":"address"},{"indexed":false,"internalType":"uint256","name":"amount","type":"uint256"},{"indexed":false,"internalType":"enum PropertyToken.Phase","name":"phase","type":"uint8"}],"name":"TokensMinted","type":"event"},{"anonymous":false,"inputs":[{"indexed":true,"internalType":"address","name":"operator","type":"address"},{"indexed":true,"internalType":"address","name":"from","type":"address"},{"indexed":true,"internalType":"address","name":"to","type":"address"},{"indexed":false,"internalType":"uint256[]","name":"ids","type":"uint256[]"},{"indexed":false,"internalType":"uint256[]","name":"values","type":"uint256[]"}],"name":"TransferBatch","type":"event"},{"anonymous":false,"inputs":[{"indexed":true,"internalType":"uint256","name":"propertyId","type":"uint256"},{"indexed":true,"internalType":"address","name":"from","type":"address"},{"indexed":true,"internalType":"address","name":"to","type":"address"},{"indexed":false,"internalType":"string","name":"reason","type":"string"}],"name":"TransferRestricted","type":"event"},{"anonymous":false,"inputs":[{"indexed":true,"internalType":"address","name":"operator","type":"address"},{"indexed":true,"internalType":"address","name":"from","type":"address"},{"indexed":true,"internalType":"address","name":"to","type":"address"},{"indexed":false,"internalType":"uint256","name":"id","type":"uint256"},{"indexed":false,"internalType":"uint256","name":"value","type":"uint256"}],"name":"TransferSingle","type":"event"},{"anonymous":false,"inputs":[{"indexed":false,"internalType":"string","name":"value","type":"string"},{"indexed":true,"internalType":"uint256","name":"id","type":"uint256"}],"name":"URI","type":"event"},{"anonymous":false,"inputs":[{"indexed":false,"internalType":"address","name":"account","type":"address"}],"name":"Unpaused","type":"event"},{"inputs":[],"name":"BURNER_ROLE","outputs":[{"internalType":"bytes32","name":"","type":"bytes32"}],"stateMutability":"view","type":"function"},{"inputs":[],"name":"COUNTY_ALLOCATION","outputs":[{"internalType":"uint256","name":"","type":"uint256"}],"stateMutability":"view","type":"function"},{"inputs":[],"name":"COUNTY_MULTIPLIER","outputs":[{"internalType":"uint256","name":"","type":"uint256"}],"stateMutability":"view","type":"function"},{"inputs":[],"name":"COUNTY_VOTING_MULTIPLIER","outputs":[{"internalType":"uint256","name":"","type":"uint256"}],"stateMutability":"view","type":"function"},{"inputs":[],"name":"DEFAULT_ADMIN_ROLE","outputs":[{"internalType":"bytes32","name":"","type":"bytes32"}],"stateMutability":"view","type":"function"},{"inputs":[],"name":"INTERNATIONAL_ALLOCATION","outputs":[{"internalType":"uint256","name":"","type":"uint256"}],"stateMutability":"view","type":"function"},{"inputs":[],"name":"INTERNATIONAL_MULTIPLIER","outputs":[{"internalType":"uint256","name":"","type":"uint256"}],"stateMutability":"view","type":"function"},{"inputs":[],"name":"INTERNATIONAL_VOTING_MULTIPLIER","outputs":[{"internalType":"uint256","name":"","type":"uint256"}],"stateMutability":"view","type":"function"},{"inputs":[],"name":"MINTER_ROLE","outputs":[{"internalType":"bytes32","name":"","type":"bytes32"}],"stateMutability":"view","type":"function"},{"inputs":[],"name":"NATIONAL_ALLOCATION","outputs":[{"internalType":"uint256","name":"","type":"uint256"}],"stateMutability":"view","type":"function"},{"inputs":[],"name":"NATIONAL_MULTIPLIER","outputs":[{"internalType":"uint256","name":"","type":"uint256"}],"stateMutability":"view","type":"function"},{"inputs":[],"name":"NATIONAL_VOTING_MULTIPLIER","outputs":[{"internalType":"uint256","name":"","type":"uint256"}],"stateMutability":"view","type":"function"},{"inputs":[],"name":"PAUSER_ROLE","outputs":[{"internalType":"bytes32","name":"","type":"bytes32"}],"stateMutability":"view","type":"function"},{"inputs":[],"name":"PHASE_ADVANCER_ROLE","outputs":[{"internalType":"bytes32","name":"","type":"bytes32"}],"stateMutability":"view","type":"function"},{"inputs":[],"name":"STATE_ALLOCATION","outputs":[{"internalType":"uint256","name":"","type":"uint256"}],"stateMutability":"view","type":"function"},{"inputs":[],"name":"STATE_MULTIPLIER","outputs":[{"internalType":"uint256","name":"","type":"uint256"}],"stateMutability":"view","type":"function"},{"inputs":[],"name":"STATE_VOTING_MULTIPLIER","outputs":[{"internalType":"uint256","name":"","type":"uint256"}],"stateMutability":"view","type":"function"},{"inputs":[],"name":"WHITELIST_ADMIN_ROLE","outputs":[{"internalType":"bytes32","name":"","type":"bytes32"}],"stateMutability":"view","type":"function"},{"inputs":[{"internalType":"address","name":"account","type":"address"},{"internalType":"enum PropertyToken.Phase","name":"eligibility","type":"uint8"}],"name":"addToWhitelist","outputs":[],"stateMutability":"nonpayable","type":"function"},{"inputs":[{"internalType":"address","name":"","type":"address"}],"name":"addressPhaseEligibility","outputs":[{"internalType":"enum PropertyToken.Phase","name":"","type":"uint8"}],"stateMutability":"view","type":"function"},{"inputs":[{"internalType":"uint256","name":"propertyId","type":"uint256"}],"name":"advancePhase","outputs":[],"stateMutability":"nonpayable","type":"function"},{"inputs":[{"internalType":"address","name":"","type":"address"}],"name":"amlCheckIds","outputs":[{"internalType":"bytes32","name":"","type":"bytes32"}],"stateMutability":"view","type":"function"},{"inputs":[{"internalType":"address","name":"account","type":"address"},{"internalType":"enum PropertyToken.Phase","name":"eligibility","type":"uint8"},{"internalType":"bytes","name":"verificationData","type":"bytes"}],"name":"autoWhitelist","outputs":[],"stateMutability":"nonpayable","type":"function"},{"inputs":[{"internalType":"address","name":"account","type":"address"},{"internalType":"uint256","name":"id","type":"uint256"}],"name":"balanceOf","outputs":[{"internalType":"uint256","name":"","type":"uint256"}],"stateMutability":"view","type":"function"},{"inputs":[{"internalType":"address[]","name":"accounts","type":"address[]"},{"internalType":"uint256[]","name":"ids","type":"uint256[]"}],"name":"balanceOfBatch","outputs":[{"internalType":"uint256[]","name":"","type":"uint256[]"}],"stateMutability":"view","type":"function"},{"inputs":[],"name":"basePrice","outputs":[{"internalType":"uint256","name":"","type":"uint256"}],"stateMutability":"view","type":"function"},{"inputs":[{"internalType":"address","name":"account","type":"address"},{"internalType":"uint256","name":"id","type":"uint256"},{"internalType":"uint256","name":"value","type":"uint256"}],"name":"burn","outputs":[],"stateMutability":"nonpayable","type":"function"},{"inputs":[{"internalType":"address","name":"account","type":"address"},{"internalType":"uint256[]","name":"ids","type":"uint256[]"},{"internalType":"uint256[]","name":"values","type":"uint256[]"}],"name":"burnBatch","outputs":[],"stateMutability":"nonpayable","type":"function"},{"inputs":[{"internalType":"uint256","name":"propertyId","type":"uint256"},{"internalType":"address","name":"holder","type":"address"},{"internalType":"uint256","name":"amount","type":"uint256"}],"name":"burnFromOnFailure","outputs":[],"stateMutability":"nonpayable","type":"function"},{"inputs":[{"internalType":"uint256","name":"propertyId","type":"uint256"}],"name":"createComplianceCheckpoint","outputs":[],"stateMutability":"nonpayable","type":"function"},{"inputs":[{"internalType":"string","name":"name","type":"string"},{"internalType":"string","name":"propertyUri","type":"string"},{"internalType":"uint256","name":"totalSupply","type":"uint256"},{"internalType":"uint256","name":"fundingTarget","type":"uint256"},{"internalType":"uint256","name":"fundingDuration","type":"uint256"},{"internalType":"string","name":"llcId","type":"string"},{"internalType":"address","name":"custodian","type":"address"}],"name":"createProperty","outputs":[{"internalType":"uint256","name":"","type":"uint256"}],"stateMutability":"nonpayable","type":"function"},{"inputs":[{"internalType":"uint256","name":"id","type":"uint256"}],"name":"exists","outputs":[{"internalType":"bool","name":"","type":"bool"}],"stateMutability":"view","type":"function"},{"inputs":[],"name":"getAllPropertyIds","outputs":[{"internalType":"uint256[]","name":"","type":"uint256[]"}],"stateMutability":"view","type":"function"},{"inputs":[{"internalType":"uint256","name":"propertyId","type":"uint256"}],"name":"getCurrentPrice","outputs":[{"internalType":"uint256","name":"","type":"uint256"}],"stateMutability":"view","type":"function"},{"inputs":[{"internalType":"address","name":"account","type":"address"}],"name":"getKYCStatus","outputs":[{"internalType":"bool","name":"isVerified","type":"bool"},{"internalType":"bytes32","name":"verificationId","type":"bytes32"},{"internalType":"uint256","name":"verificationTimestamp","type":"uint256"}],"stateMutability":"view","type":"function"},{"inputs":[{"internalType":"uint256","name":"propertyId","type":"uint256"}],"name":"getProperty","outputs":[{"components":[{"internalType":"uint256","name":"id","type":"uint256"},{"internalType":"string","name":"name","type":"string"},{"internalType":"string","name":"uri","type":"string"},{"internalType":"uint256","name":"totalSupply","type":"uint256"},{"internalType":"uint256","name":"mintedSupply","type":"uint256"},{"internalType":"uint256","name":"fundingTarget","type":"uint256"},{"internalType":"uint256","name":"fundingDeadline","type":"uint256"},{"internalType":"enum PropertyToken.Phase","name":"currentPhase","type":"uint8"},{"internalType":"bool","name":"isActive","type":"bool"},{"internalType":"bool","name":"isFunded","type":"bool"},{"internalType":"string","name":"llcIdentifier","type":"string"},{"internalType":"address","name":"custodian","type":"address"}],"internalType":"struct PropertyToken.Property","name":"","type":"tuple"}],"stateMutability":"view","type":"function"},{"inputs":[],"name":"getPropertyCount","outputs":[{"internalType":"uint256","name":"","type":"uint256"}],"stateMutability":"view","type":"function"},{"inputs":[{"internalType":"bytes32","name":"role","type":"bytes32"}],"name":"getRoleAdmin","outputs":[{"internalType":"bytes32","name":"","type":"bytes32"}],"stateMutability":"view","type":"function"},{"inputs":[{"internalType":"uint256","name":"propertyId","type":"uint256"}],"name":"getTotalWeightedVotingPower","outputs":[{"internalType":"uint256","name":"","type":"uint256"}],"stateMutability":"view","type":"function"},{"inputs":[{"internalType":"enum PropertyToken.Phase","name":"phase","type":"uint8"}],"name":"getVotingMultiplier","outputs":[{"internalType":"uint256","name":"","type":"uint256"}],"stateMutability":"pure","type":"function"},{"inputs":[{"internalType":"uint256","name":"propertyId","type":"uint256"},{"internalType":"address","name":"voter","type":"address"}],"name":"getVotingPower","outputs":[{"internalType":"uint256","name":"","type":"uint256"}],"stateMutability":"view","type":"function"},{"inputs":[{"internalType":"bytes32","name":"role","type":"bytes32"},{"internalType":"address","name":"account","type":"address"}],"name":"grantRole","outputs":[],"stateMutability":"nonpayable","type":"function"},{"inputs":[{"internalType":"bytes32","name":"role","type":"bytes32"},{"internalType":"address","name":"account","type":"address"}],"name":"hasRole","outputs":[{"internalType":"bool","name":"","type":"bool"}],"stateMutability":"view","type":"function"},{"inputs":[{"internalType":"uint256","name":"","type":"uint256"},{"internalType":"address","name":"","type":"address"},{"internalType":"enum PropertyToken.Phase","name":"","type":"uint8"}],"name":"holdingsByPhase","outputs":[{"internalType":"uint256","name":"","type":"uint256"}],"stateMutability":"view","type":"function"},{"inputs":[{"internalType":"address","name":"account","type":"address"},{"internalType":"address","name":"operator","type":"address"}],"name":"isApprovedForAll","outputs":[{"internalType":"bool","name":"","type":"bool"}],"stateMutability":"view","type":"function"},{"inputs":[{"internalType":"address","name":"","type":"address"}],"name":"kycVerificationIds","outputs":[{"internalType":"bytes32","name":"","type":"bytes32"}],"stateMutability":"view","type":"function"},{"inputs":[{"internalType":"address","name":"","type":"address"}],"name":"kycVerificationTimestamps","outputs":[{"internalType":"uint256","name":"","type":"uint256"}],"stateMutability":"view","type":"function"},{"inputs":[{"internalType":"uint256","name":"propertyId","type":"uint256"}],"name":"markFunded","outputs":[],"stateMutability":"nonpayable","type":"function"},{"inputs":[{"internalType":"uint256","name":"propertyId","type":"uint256"},{"internalType":"address","name":"buyer","type":"address"},{"internalType":"uint256","name":"amount","type":"uint256"}],"name":"mintTokens","outputs":[],"stateMutability":"nonpayable","type":"function"},{"inputs":[],"name":"pause","outputs":[],"stateMutability":"nonpayable","type":"function"},{"inputs":[],"name":"paused","outputs":[{"internalType":"bool","name":"","type":"bool"}],"stateMutability":"view","type":"function"},{"inputs":[{"internalType":"uint256","name":"","type":"uint256"},{"internalType":"enum PropertyToken.Phase","name":"","type":"uint8"}],"name":"phaseAllocations","outputs":[{"internalType":"uint256","name":"","type":"uint256"}],"stateMutability":"view","type":"function"},{"inputs":[{"internalType":"uint256","name":"","type":"uint256"},{"internalType":"enum PropertyToken.Phase","name":"","type":"uint8"}],"name":"phaseMinted","outputs":[{"internalType":"uint256","name":"","type":"uint256"}],"stateMutability":"view","type":"function"},{"inputs":[{"internalType":"uint256","name":"","type":"uint256"}],"name":"properties","outputs":[{"internalType":"uint256","name":"id","type":"uint256"},{"internalType":"string","name":"name","type":"string"},{"internalType":"string","name":"uri","type":"string"},{"internalType":"uint256","name":"totalSupply","type":"uint256"},{"internalType":"uint256","name":"mintedSupply","type":"uint256"},{"internalType":"uint256","name":"fundingTarget","type":"uint256"},{"internalType":"uint256","name":"fundingDeadline","type":"uint256"},{"internalType":"enum PropertyToken.Phase","name":"currentPhase","type":"uint8"},{"internalType":"bool","name":"isActive","type":"bool"},{"internalType":"bool","name":"isFunded","type":"bool"},{"internalType":"string","name":"llcIdentifier","type":"string"},{"internalType":"address","name":"custodian","type":"address"}],"stateMutability":"view","type":"function"},{"inputs":[],"name":"propertyCount","outputs":[{"internalType":"uint256","name":"","type":"uint256"}],"stateMutability":"view","type":"function"},{"inputs":[{"internalType":"uint256","name":"propertyId","type":"uint256"}],"name":"propertyExists","outputs":[{"internalType":"bool","name":"","type":"bool"}],"stateMutability":"view","type":"function"},{"inputs":[{"internalType":"address","name":"account","type":"address"},{"internalType":"bytes32","name":"checkId","type":"bytes32"}],"name":"recordAMLCheck","outputs":[],"stateMutability":"nonpayable","type":"function"},{"inputs":[{"internalType":"address","name":"account","type":"address"},{"internalType":"string","name":"reason","type":"string"}],"name":"recordAMLFailure","outputs":[],"stateMutability":"nonpayable","type":"function"},{"inputs":[{"internalType":"address","name":"account","type":"address"},{"internalType":"bytes32","name":"verificationId","type":"bytes32"}],"name":"recordKYCVerification","outputs":[],"stateMutability":"nonpayable","type":"function"},{"inputs":[{"internalType":"address","name":"account","type":"address"}],"name":"removeFromWhitelist","outputs":[],"stateMutability":"nonpayable","type":"function"},{"inputs":[{"internalType":"bytes32","name":"role","type":"bytes32"},{"internalType":"address","name":"callerConfirmation","type":"address"}],"name":"renounceRole","outputs":[],"stateMutability":"nonpayable","type":"function"},{"inputs":[{"internalType":"uint256","name":"propertyId","type":"uint256"}],"name":"requestRegulatorAudit","outputs":[],"stateMutability":"nonpayable","type":"function"},{"inputs":[{"internalType":"address","name":"account","type":"address"},{"internalType":"string","name":"reason","type":"string"}],"name":"revokeKYCVerification","outputs":[],"stateMutability":"nonpayable","type":"function"},{"inputs":[{"internalType":"bytes32","name":"role","type":"bytes32"},{"internalType":"address","name":"account","type":"address"}],"name":"revokeRole","outputs":[],"stateMutability":"nonpayable","type":"function"},{"inputs":[{"internalType":"address","name":"from","type":"address"},{"internalType":"address","name":"to","type":"address"},{"internalType":"uint256[]","name":"ids","type":"uint256[]"},{"internalType":"uint256[]","name":"values","type":"uint256[]"},{"internalType":"bytes","name":"data","type":"bytes"}],"name":"safeBatchTransferFrom","outputs":[],"stateMutability":"nonpayable","type":"function"},{"inputs":[{"internalType":"address","name":"from","type":"address"},{"internalType":"address","name":"to","type":"address"},{"internalType":"uint256","name":"id","type":"uint256"},{"internalType":"uint256","name":"value","type":"uint256"},{"internalType":"bytes","name":"data","type":"bytes"}],"name":"safeTransferFrom","outputs":[],"stateMutability":"nonpayable","type":"function"},{"inputs":[{"internalType":"address","name":"operator","type":"address"},{"internalType":"bool","name":"approved","type":"bool"}],"name":"setApprovalForAll","outputs":[],"stateMutability":"nonpayable","type":"function"},{"inputs":[{"internalType":"bytes4","name":"interfaceId","type":"bytes4"}],"name":"supportsInterface","outputs":[{"internalType":"bool","name":"","type":"bool"}],"stateMutability":"view","type":"function"},{"inputs":[],"name":"totalSupply","outputs":[{"internalType":"uint256","name":"","type":"uint256"}],"stateMutability":"view","type":"function"},{"inputs":[{"internalType":"uint256","name":"id","type":"uint256"}],"name":"totalSupply","outputs":[{"internalType":"uint256","name":"","type":"uint256"}],"stateMutability":"view","type":"function"},{"inputs":[],"name":"unpause","outputs":[],"stateMutability":"nonpayable","type":"function"},{"inputs":[{"internalType":"uint256","name":"newPrice","type":"uint256"}],"name":"updateBasePrice","outputs":[],"stateMutability":"nonpayable","type":"function"},{"inputs":[{"internalType":"uint256","name":"propertyId","type":"uint256"},{"internalType":"string","name":"llcId","type":"string"},{"internalType":"address","name":"custodian","type":"address"}],"name":"updateLLCBacking","outputs":[],"stateMutability":"nonpayable","type":"function"},{"inputs":[{"internalType":"uint256","name":"","type":"uint256"}],"name":"uri","outputs":[{"internalType":"string","name":"","type":"string"}],"stateMutability":"view","type":"function"},{"inputs":[{"internalType":"address","name":"","type":"address"}],"name":"whitelist","outputs":[{"internalType":"bool","name":"","type":"bool"}],"stateMutability":"view","type":"function"}],"evm":{"bytecode":{"linkReferences":{},"object":"60806040523462000275576200500e803803806200001d816200027a565b9283398101906020908181840312620002755780516001600160401b039182821162000275570191601f90848285011215620002755783518381116200024a57601f199462000072828501871684016200027a565b968288528383830101116200027557829060005b838110620002605750506000918701015284519283116200024a57600254936001948581811c911680156200023f575b838210146200022957838111620001dd575b50819284116001146200017457505081929360009262000168575b5050600019600383901b1c191690821b176002555b60ff1960065416600655600755662c68af0bb140006008556200011b33620002a0565b50620001273362000321565b506200013333620003c4565b506200013f3362000462565b506200014b3362000500565b5062000157336200059e565b506040516149b190816200063d8239f35b015190503880620000e3565b839291921694600260005282600020926000905b878210620001c557505083859610620001ab575b505050811b01600255620000f8565b015160001960f88460031b161c191690553880806200019c565b80878596829496860151815501950193019062000188565b6002600052826000208480870160051c8201928588106200021f575b0160051c019086905b82811062000212575050620000c8565b6000815501869062000202565b92508192620001f9565b634e487b7160e01b600052602260045260246000fd5b90607f1690620000b6565b634e487b7160e01b600052604160045260246000fd5b81810183015189820184015284920162000086565b600080fd5b6040519190601f01601f191682016001600160401b038111838210176200024a57604052565b6001600160a01b031660008181527f05b8ccbb9d4d8fb16ea74ce3c29a41f1b461fbdaff4714a0d9a8eb05499746bc602052604081205490919060ff166200031d5781805260056020526040822081835260205260408220600160ff19825416179055339160008051602062004fee8339815191528180a4600190565b5090565b6001600160a01b031660008181527f15a28d26fa1bf736cf7edc9922607171ccb09c3c73b808e7772a3013e068a52260205260408120549091907f9f2df0fed2c77648de5860a4cc508cd0818c85b8b8a1ab4ceeef8d981c8956a69060ff16620003bf5780835260056020526040832082845260205260408320600160ff1982541617905560008051602062004fee833981519152339380a4600190565b505090565b6001600160a01b031660008181527f99f2891db7a8db76249871a02b43b68c0bb8f22ef8a3bc1034ae9375ef6b7c3c60205260408120549091907f65d7a28e3265b37a6474929f336521b332c1681b933f6cb9f3376673440d862a9060ff16620003bf5780835260056020526040832082845260205260408320600160ff1982541617905560008051602062004fee833981519152339380a4600190565b6001600160a01b031660008181527f294bb43e882f8724b7ae88344d047a41612b98ee139a78f923b3689f3cc274b160205260408120549091907f28f5a99355973cc89255b8c4ac88405f27c78ded7608b040ee77a8bdf44d15e29060ff16620003bf5780835260056020526040832082845260205260408320600160ff1982541617905560008051602062004fee833981519152339380a4600190565b6001600160a01b031660008181527fc54cc0cad80e711aff5b4fca3e13682b9a8fcd7ff4679fbc81d0391d16e477bd60205260408120549091907f62045f2f519251643cf4b5f0750d99bbda23ce869802ad9f6d52577cd08a645a9060ff16620003bf5780835260056020526040832082845260205260408320600160ff1982541617905560008051602062004fee833981519152339380a4600190565b6001600160a01b031660008181527f847f481f687befb06ed3511f1a8dcef57e83007c0147ae5047583d705617093760205260408120549091907f3c11d16cbaffd01df69ce1c404f6340ee057498f5f00246190ea54220576a8489060ff16620003bf5780835260056020526040832082845260205260408320600160ff1982541617905560008051602062004fee833981519152339380a460019056fe6080604052600436101561001257600080fd5b60003560e01c80620c8df0146104bb578062fdd58e146104b657806301ffc9a7146104b15780630263b858146104ac57806304fa6173146104a75780630e89341c146104a25780630fbe640f1461049d57806311dd6cdc1461043e57806318160ddd1461049857806319e7645414610493578063230672481461048e578063248a9ca3146104895780632632067a14610484578063282c51f31461047f5780632eb2c2d61461047a5780632f2ff15d1461047557806332665ffb1461047057806335894afd1461046b57806336568abe146104665780633bb0b5b6146104615780633f4ba83a1461045c57806343cb5413146104575780634a164732146104525780634e1273f41461044d5780634f558e79146104485780634ff69e8314610443578063500e9f731461043e57806354202c4e146104395780635561c5b3146104345780635bbe9f5e146103995780635c975abb1461042f5780635fc68c461461042a57806365c4c7e2146104255780636b20c454146104205780636ce2f91d1461041b5780636e1ffa9b146104165780636ea99677146104115780637326b9011461040c578063742c4f4c1461040757806375cfcb3d146104025780637b667e6f146103fd5780637ca8c6f1146103f857806381aaf4ce146103f35780638456cb59146103ee578063847ede74146103e95780638ab1d681146103e45780638cdc1e87146103df5780638d6819be146103da57806391d14854146103d55780639b19251a146103d05780639ca02763146103cb578063a217fddf146103c6578063a22cb465146103c1578063a7907f74146103bc578063bd85b039146103b7578063c361a335146103b2578063c55d0f56146103ad578063c5666eb2146103a8578063c611643c146103a3578063c65b68201461039e578063c7527d0814610399578063c7876ea414610394578063ceadd5b91461038f578063d53913931461038a578063d547741f14610385578063dbdad43214610380578063e63ab1e91461037b578063e985e9c514610376578063edff496914610371578063f242432a1461036c578063f5298aca14610367578063f7b1080814610362578063f8147a8a1461035d578063f918ce1b146103585763fd5baa881461035357600080fd5b612810565b612788565b61276b565b6126cd565b6124cf565b6123ca565b612386565b612325565b6122ea565b612265565b612226565b6121eb565b6121ce565b6121b0565b611468565b612193565b61210f565b612037565b612019565b611ffb565b611fcf565b611fb2565b611ef6565b611eda565b611e84565b611e45565b611df3565b611b86565b611ae3565b611a7b565b6119f9565b61199f565b61190c565b6118ef565b6118a4565b61186a565b6117f0565b6117d2565b6117a0565b611724565b6116f4565b611609565b6114c5565b6114a8565b611485565b61144b565b611410565b6108f6565b611381565b611353565b611299565b611226565b61118c565b6110df565b61100f565b610f9e565b610f63565b610ed5565b610db1565b610c89565b610af3565b6109e4565b610988565b61096b565b610931565b610913565b6108bc565b6107d5565b610763565b61069b565b610604565b6105a5565b610531565b600435906001600160a01b03821682036104d657565b600080fd5b602435906001600160a01b03821682036104d657565b604435906001600160a01b03821682036104d657565b60c435906001600160a01b03821682036104d657565b35906001600160a01b03821682036104d657565b346104d6576020806003193601126104d6576060906001600160a01b036105566104c0565b16600052600d815260409060ff8260002054169182610592575b6012825280600020546013835281600020549282519415158552840152820152f35b9150601281528160002054151591610570565b346104d65760403660031901126104d65760206105e96105c36104c0565b6024356000526000835260406000209060018060a01b0316600052602052604060002090565b54604051908152f35b6001600160e01b03198116036104d657565b346104d65760203660031901126104d6576020600435610623816105f2565b63ffffffff60e01b16637965db0b60e01b8114908115610649575b506040519015158152f35b636cdb3d1360e11b81149150811561067b575b811561066a575b503861063e565b6301ffc9a760e01b14905038610663565b6303a24d0760e21b8114915061065c565b6024359060048210156104d657565b346104d65760403660031901126104d6576106b46104c0565b7f473a74f22f6ac6868d6c168fc84aef7f2172066bab41229b471d1c6b85434c8260206106df61068c565b926106e861339a565b60018060a01b03169283600052600d82526040600020600160ff19825416179055600e825261071b81604060002061285c565b6107286040518092610df0565ba2005b6004111561073557565b634e487b7160e01b600052602160045260246000fd5b90600481101561073557600052602052604060002090565b346104d65760403660031901126104d65760206105e961078161068c565b600435600052600c8352604060002061074b565b919082519283825260005b8481106107c1575050826000602080949584010152601f8019910116010190565b6020818301810151848301820152016107a0565b346104d6576020806003193601126104d65760405190600082600254916107fb83612562565b928383526001908560018216918260001461089c57505060011461083f575b5061082792500383610b80565b61083b604051928284938452830190610795565b0390f35b84915060026000527f405787fa12a823e0f2b7631cc41b3ba8828b3321ca811111fa75cd3aa3bb5ace906000915b85831061088457505061082793508201013861081a565b8054838901850152879450869390920191810161086d565b60ff19168582015261082795151560051b850101925038915061081a9050565b346104d65760203660031901126104d6576001600160a01b036108dd6104c0565b1660005260136020526020604060002054604051908152f35b346104d65760003660031901126104d65760206040516127108152f35b346104d65760003660031901126104d6576020600454604051908152f35b346104d65760203660031901126104d6576001600160a01b036109526104c0565b1660005260146020526020604060002054604051908152f35b346104d65760003660031901126104d6576020604051611d4c8152f35b346104d65760203660031901126104d65760043560005260056020526020600160406000200154604051908152f35b9181601f840112156104d6578235916001600160401b0383116104d657602083818601950101116104d657565b346104d65760603660031901126104d6576109fd6104c0565b610a0561068c565b6044356001600160401b0381116104d657610a249036906004016109b7565b9050610a2e61339a565b15610ab757610ab281610aa67f473a74f22f6ac6868d6c168fc84aef7f2172066bab41229b471d1c6b85434c8293610aa160018060a01b0387169687600052600d602052610a876040600020600160ff19825416179055565b6001600160a01b03166000908152600e6020526040902090565b61285c565b60405191829182612376565b0390a2005b60405162461bcd60e51b81526020600482015260146024820152734e6f20766572696669636174696f6e206461746160601b6044820152606490fd5b346104d65760003660031901126104d65760206040517f3c11d16cbaffd01df69ce1c404f6340ee057498f5f00246190ea54220576a8488152f35b634e487b7160e01b600052604160045260246000fd5b61018081019081106001600160401b03821117610b6057604052565b610b2e565b602081019081106001600160401b03821117610b6057604052565b90601f801991011681019081106001600160401b03821117610b6057604052565b60405190610bae82610b44565b565b6001600160401b038111610b605760051b60200190565b9080601f830112156104d6576020908235610be181610bb0565b93610bef6040519586610b80565b81855260208086019260051b8201019283116104d657602001905b828210610c18575050505090565b81358152908301908301610c0a565b6001600160401b038111610b6057601f01601f191660200190565b81601f820112156104d657803590610c5982610c27565b92610c676040519485610b80565b828452602083830101116104d657816000926020809301838601378301015290565b346104d65760a03660031901126104d657610ca26104c0565b610caa6104db565b90604435916001600160401b03908184116104d657610cce60049436908601610bc7565b906064358381116104d657610ce69036908701610bc7565b926084359081116104d657610cfe9036908701610c42565b936001600160a01b03808216903382141580610d8d575b610d6057831615610d485715610d3157610d2f9550613cc2565b005b604051626a0d4560e21b8152600081880152602490fd5b604051632bfa23e760e11b8152600081890152602490fd5b6040805163711bec9160e11b815233818b019081526001600160a01b038616602082015290918291010390fd5b50600082815260016020908152604080832033845290915290205460ff1615610d15565b346104d65760403660031901126104d657610d2f600435610dd06104db565b90806000526005602052610deb600160406000200154613558565b613579565b9060048210156107355752565b610ed29060208152825160208201526020830151610e29610180918260408501526101a0840190610795565b610ec1610e48604087015192601f199384878303016060880152610795565b60608701516080860152608087015160a086015260a087015160c086015260c087015160e086015260e0870151610e856101009182880190610df0565b870151610e99610120918288019015159052565b870151610ead610140918288019015159052565b870151610160938683030184870152610795565b9401516001600160a01b0316910152565b90565b346104d65760203660031901126104d65761083b610f5760406101608151610efc81610b44565b6000918183809352606060208201526060858201528260608201528260808201528260a08201528260c08201528260e08201528261010082015282610120820152606061014082015201526004358152600960205220612880565b60405191829182610dfd565b346104d65760003660031901126104d65760206040517f62045f2f519251643cf4b5f0750d99bbda23ce869802ad9f6d52577cd08a645a8152f35b346104d65760403660031901126104d657610fb76104db565b336001600160a01b03821603610fd357610d2f90600435613613565b60405163334bd91960e11b8152600490fd5b60609060031901126104d657600435906024356001600160a01b03811681036104d6579060443590565b346104d65761101d36610fe5565b90916110276133f8565b811561109a576000818152602081815260408083206001600160a01b038716845290915290208290541061105e57610d2f926136a5565b60405162461bcd60e51b8152602060048201526014602482015273496e73756666696369656e742062616c616e636560601b6044820152606490fd5b60405162461bcd60e51b815260206004820152601760248201527f416d6f756e74206d75737420626520706f7369746976650000000000000000006044820152606490fd5b346104d65760003660031901126104d6576110f8613450565b60065460ff8116156111375760ff19166006557f5db9ee0a495bf2e6ff9c91a7834c1ba4fdd244a5e8aa4e537bd38aeae4b073aa6020604051338152a1005b604051638dfc202b60e01b8152600490fd5b9060406003198301126104d6576004356001600160a01b03811681036104d65791602435906001600160401b0382116104d657611188916004016109b7565b9091565b346104d6577fed82f44f688727207518136f7e93ae71dc311562b9f1841866814c6dbe3fc4876111bb36611149565b9092916111c661339a565b6001600160a01b03166000818152600d6020526040808220805460ff1916905551909491938493909282916111fc914284612968565b0390a27f535611fb62fa2a833988f283b779e417e996813e44046f521d76c17b5943b08c8280a280f35b346104d65760203660031901126104d657600435600052601160205260206040600020541515604051908152f35b90815180825260208080930193019160005b828110611274575050505090565b835185529381019392810192600101611266565b906020610ed2928181520190611254565b346104d65760403660031901126104d6576004356001600160401b038082116104d657366023830112156104d65781600401356112d581610bb0565b926112e36040519485610b80565b8184526020916024602086019160051b830101913683116104d657602401905b82821061133c57856024358681116104d65761083b9161132a611330923690600401610bc7565b906129ae565b60405191829182611288565b8380916113488461051d565b815201910190611303565b346104d65760203660031901126104d657600435600052600360205260206040600020541515604051908152f35b346104d65760003660031901126104d657604051806010549182815260208091019260106000527f1b6847dc741a1b0cd08d278845f9d819d87b734759afb55fe2de5cb82a9ae672916000905b8282106113f95761083b856113e581890382610b80565b604051918291602083526020830190611254565b8354865294850194600193840193909101906113ce565b346104d65760003660031901126104d65760206040517f28f5a99355973cc89255b8c4ac88405f27c78ded7608b040ee77a8bdf44d15e28152f35b346104d65760003660031901126104d65760206040516107d08152f35b346104d65760003660031901126104d6576020604051613a988152f35b346104d65760003660031901126104d657602060ff600654166040519015158152f35b346104d65760003660031901126104d6576020604051610bb88152f35b346104d65760603660031901126104d6576004356024356001600160401b0381116104d6576114f89036906004016109b7565b6115006104f1565b916115096134a8565b83600052600960205261152960ff60076040600020015460081c16612a6d565b6001600160a01b038316156115cf57610ab27f421276d75471dec1af882730784ceb99cd90745bcb3355fffe059aae8cfcefdc93611568841515612aaf565b611589848460086115838a6000526009602052604060002090565b01612b51565b6115c38160096115a3896000526009602052604060002090565b0180546001600160a01b0319166001600160a01b03909216919091179055565b60405193849384612c1f565b60405162461bcd60e51b815260206004820152601260248201527110dd5cdd1bd91a585b881c995c5d5a5c995960721b6044820152606490fd5b346104d65760603660031901126104d6576116226104c0565b6001600160401b036024358181116104d657611642903690600401610bc7565b906044359081116104d65761165b903690600401610bc7565b906001600160a01b03831633811415806116d0575b6116a9571561169157610d2f92600060405161168b81610b65565b52613a70565b604051626a0d4560e21b815260006004820152602490fd5b60405163711bec9160e11b81523360048201526001600160a01b0385166024820152604490fd5b50600081815260016020908152604080832033845290915290205460ff1615611670565b346104d65760203660031901126104d65760043560048110156104d65761171c602091612c38565b604051908152f35b346104d65760403660031901126104d65761173d6104c0565b7f73d81b71910f8bd08cf791875865c73764d8d891af9db3d5529a9c6574ef6dd1610ab26024359261176d61339a565b60018060a01b03169283600052601460205280604060002055604051918291428360209093929193604081019481520152565b346104d65760403660031901126104d65760206105e96117be61068c565b600435600052600b8352604060002061074b565b346104d65760003660031901126104d6576020601054604051908152f35b346104d65760203660031901126104d65760043561180c6134a8565b8060005260096020527f97997c603fecb6522ee76ac10b6a193d5ce1db7b82c8271b2a27a63f022e53b560606004604060002061185260ff600783015460081c16612a6d565b015460405190428252600060208301526040820152a2005b346104d65760203660031901126104d6576001600160a01b0361188b6104c0565b1660005260126020526020604060002054604051908152f35b346104d65760203660031901126104d6576118bd6134a8565b60405142815233907fe6b09768ac52cdf77f7335552a3533efca4c4c467299850e0e7af38a1d8b52b1602060043592a3005b346104d65760003660031901126104d65760206040516157e48152f35b346104d65760203660031901126104d6573360009081527fc54cc0cad80e711aff5b4fca3e13682b9a8fcd7ff4679fbc81d0391d16e477bd60205260409020547f62045f2f519251643cf4b5f0750d99bbda23ce869802ad9f6d52577cd08a645a9060ff161561198157610d2f6004356138ac565b6044906040519063e2517d3f60e01b82523360048301526024820152fd5b346104d65760003660031901126104d6576119b8613450565b6119c061396b565b600160ff1960065416176006557f62e78cea01bee320cd4e420270b5ea74000d11b0c9f74754ebdbfc544b05a2586020604051338152a1005b346104d6577f71ff24386d252605e27e246db81bba937113d7887d04711cefa5fe7295437566611a2836611149565b909291611a3361339a565b60018060a01b031691829160009483865260126020528560408120556013602052856040812055600d6020526040862060ff1981541690556111fc6040519283924284612968565b346104d65760203660031901126104d657611a946104c0565b611a9c61339a565b6001600160a01b03166000818152600d60205260408120805460ff19169055907f535611fb62fa2a833988f283b779e417e996813e44046f521d76c17b5943b08c8280a280f35b346104d65760203660031901126104d65760006004803590825b60ff841660038111611b7b5782811015611b6657611b6091611b54611b4c83611b46611b3f611b5a96611b3a8b600052600c602052604060002090565b61074b565b5491612c38565b90612d1a565b612710900490565b90612d2d565b93612c99565b92611afd565b602183634e487b7160e01b6000525260246000fd5b604051828152602090f35b346104d657611b9436610fe5565b611b9c613500565b600260075414611de1576002600755611bb361396b565b6001600160a01b0382166000908152600d60205260409020611be090611bdb905b5460ff1690565b612d3a565b827f689e2353c59bcd8c1c4352ddd0f21299329ad92442d331648747e4e865acde74611c5f611d6b611c1c846000526009602052604060002090565b60046007820191611cd5611ccd60ff611c958c82611c76611bd48a5493611c47848660081c16612a6d565b60098a01546001600160a01b039e908f161515612d7e565b838560101c16158015611dd3575b610a8790612dbb565b91611c808361072b565b16928391611c8d8361072b565b161015612df8565b611cc6611cb082611b3a8d600052600b602052604060002090565b5491611b3a8c600052600c602052604060002090565b5490612e44565b891115612e51565b611ce8611ce0612e9d565b89898c613989565b01611cf4878254612d2d565b9055611d18611d0d86600052600c602052604060002090565b825460ff169061074b565b611d23878254612d2d565b9055611d57611d0d88611d4088600052600f602052604060002090565b9060018060a01b0316600052602052604060002090565b611d62878254612d2d565b90555460ff1690565b94611d7e86604051938493169683612eb0565b0390a3611db2611d9c82611b3a85600052600c602052604060002090565b5491611b3a84600052600b602052604060002090565b541115611dc4575b610d2f6001600755565b611dcd906138ac565b38611dba565b5060068a0154421115611c6d565b604051633ee5aeb560e01b8152600490fd5b346104d65760403660031901126104d657602060ff611e39611e136104db565b6004356000526005845260406000209060018060a01b0316600052602052604060002090565b54166040519015158152f35b346104d65760203660031901126104d6576001600160a01b03611e666104c0565b16600052600d602052602060ff604060002054166040519015158152f35b346104d65760603660031901126104d657611e9d6104db565b6044359060048210156104d657602091611b3a6105e992600435600052600f855260406000209060018060a01b0316600052602052604060002090565b346104d65760003660031901126104d657602060405160008152f35b346104d65760403660031901126104d657611f0f6104c0565b60243590811515908183036104d6576001600160a01b038116928315611f9a57611f5b611f6c9233600052600160205260406000209060018060a01b0316600052602052604060002090565b9060ff801983541691151516179055565b6040519081527f17307eab39ab6107e8899845ad3d59bd9653f200f220920489ca2b5937696c3160203392a3005b60405162ced3e160e81b815260006004820152602490fd5b346104d65760003660031901126104d65760206040516103e88152f35b346104d65760203660031901126104d65760043560005260036020526020604060002054604051908152f35b346104d65760003660031901126104d6576020600a54604051908152f35b346104d65760203660031901126104d657602061171c600435612ec6565b346104d65760203660031901126104d657600435612053613500565b80600052600960205260406000206007810160ff8154612077828260081c16612a6d565b60101c166120d9576120c960047fb00cd7db2cf318388d4984a9842ff206b7cf7bc273a58f12701f29755b3ca941936120be610ab2946201000062ff000019825416179055565b0154611b4685612ec6565b6040519081529081906020820190565b60405162461bcd60e51b815260206004820152600e60248201526d105b1c9958591e48199d5b99195960921b6044820152606490fd5b346104d65760e03660031901126104d6576001600160401b036004358181116104d657612140903690600401610c42565b906024358181116104d657612159903690600401610c42565b60a4359182116104d65761083b926121786120c9933690600401610c42565b90612181610507565b92608435916064359160443591612f58565b346104d65760003660031901126104d65760206040516175308152f35b346104d65760003660031901126104d6576020600854604051908152f35b346104d65760003660031901126104d6576020604051610fa08152f35b346104d65760003660031901126104d65760206040517f9f2df0fed2c77648de5860a4cc508cd0818c85b8b8a1ab4ceeef8d981c8956a68152f35b346104d65760403660031901126104d657610d2f6004356122456104db565b90806000526005602052612260600160406000200154613558565b613613565b346104d65760403660031901126104d657600480356122826104db565b60009290835b60ff851660038111611b7b57838110156122d5576122cf91611b54611b4c83611b46611b3f6122c996611b3a8a611d408e600052600f602052604060002090565b94612c99565b93612288565b602184634e487b7160e01b6000525260246000fd5b346104d65760003660031901126104d65760206040517f65d7a28e3265b37a6474929f336521b332c1681b933f6cb9f3376673440d862a8152f35b346104d65760403660031901126104d657602060ff611e396123456104c0565b61234d6104db565b6001600160a01b0391821660009081526001865260408082209290931681526020919091522090565b602081019291610bae9190610df0565b346104d65760203660031901126104d6576001600160a01b036123a76104c0565b16600052600e602052602060ff604060002054166123c86040518092610df0565bf35b346104d65760a03660031901126104d6576123e36104c0565b6123eb6104db565b6084356001600160401b0381116104d65761240a903690600401610c42565b906001600160a01b038381169033821415806124ab575b6124845782161561246b571561169157610d2f926124636064356044359160405192600184526020840152604083019160018352606084015260808301604052565b929091613cc2565b604051632bfa23e760e11b815260006004820152602490fd5b60405163711bec9160e11b81523360048201526001600160a01b0386166024820152604490fd5b50600082815260016020908152604080832033845290915290205460ff1615612421565b346104d65760603660031901126104d6576124e86104c0565b6001600160a01b03811633811415908161253c575b5061251357610d2f9060443590602435906136a5565b60405163711bec9160e11b81523360048201526001600160a01b03919091166024820152604490fd5b6000908152600160209081526040808320338452909152902060ff9150541615386124fd565b90600182811c92168015612592575b602083101461257c57565b634e487b7160e01b600052602260045260246000fd5b91607f1691612571565b906040519182600082546125af81612562565b9081845260209460019160018116908160001461261d57506001146125de575b505050610bae92500383610b80565b600090815285812095935091905b818310612605575050610bae93508201013880806125cf565b855488840185015294850194879450918301916125ec565b92505050610bae94925060ff191682840152151560051b8201013880806125cf565b9a9691946126808c9d9e9d61269f969a956126726126bd9d996101609f9b96610180908552806020860152840190610795565b916040818403910152610795565b9860608d015260808c015260a08b015260c08a015260e0890190610df0565b15156101008701521515610120860152848203610140860152610795565b6001600160a01b03909416910152565b346104d65760203660031901126104d6576004356000526009602052604060002080549061083b6127006001830161259c565b9261270d6002840161259c565b92600381015494600482015492600583015490600684015460078501549261274b600961273c6008890161259c565b9701546001600160a01b031690565b966040519a8b9a60ff8760101c169760ff808960081c169816968d61263f565b346104d65760003660031901126104d65760206040516130d48152f35b346104d65760403660031901126104d6576127a16104c0565b7f101006801e3b4b14d09186f508bd7a78c4d24598dd6126863425d0350503fb02610ab2602435926127d161339a565b60018060a01b03169283600052601260205280604060002055601360205242604060002055604051918291428360209093929193604081019481520152565b346104d65760203660031901126104d6577ffab5bcbec79a8b5888e114fd4b378427aa58d9b237d85056f0ee5b3ea57df8c5602060043561284f6134a8565b80600855604051908152a1005b9060048110156107355760ff80198354169116179055565b60048210156107355752565b90610bae6129366009612891610ba1565b94805486526128a26001820161259c565b60208701526128b36002820161259c565b60408701526003810154606087015260048101546080870152600581015460a0870152600681015460c087015261291660ff60078301546128f982821660e08b01612874565b600881901c821615156101008a015260101c161515610120880152565b6129226008820161259c565b61014087015201546001600160a01b031690565b6001600160a01b0316610160840152565b908060209392818452848401376000828201840152601f01601f1916010190565b604090610ed2949281528160208201520191612947565b634e487b7160e01b600052603260045260246000fd5b80518210156129a95760209160051b010190565b61297f565b91909180518351808203612a4b5750508051906129e36129cd83610bb0565b926129db6040519485610b80565b808452610bb0565b60209190601f1901368484013760005b8151811015612a4357600581901b8281018401519087018401516000908152602081815260408083206001600160a01b039094168352929052205460019190612a3c8287612995565b52016129f3565b509193505050565b604051635b05999160e01b815260048101919091526024810191909152604490fd5b15612a7457565b60405162461bcd60e51b815260206004820152601360248201527250726f7065727479206e6f742061637469766560681b6044820152606490fd5b15612ab657565b60405162461bcd60e51b815260206004820152601760248201527f4c4c43206964656e7469666965722072657175697265640000000000000000006044820152606490fd5b90601f8111612b0957505050565b6000916000526020600020906020601f850160051c83019410612b47575b601f0160051c01915b828110612b3c57505050565b818155600101612b30565b9092508290612b27565b9092916001600160401b038111610b6057612b7681612b708454612562565b84612afb565b6000601f8211600114612bb7578190612ba8939495600092612bac575b50508160011b916000199060031b1c19161790565b9055565b013590503880612b93565b601f19821694612bcc84600052602060002090565b91805b878110612c07575083600195969710612bed575b505050811b019055565b0135600019600384901b60f8161c19169055388080612be3565b90926020600181928686013581550194019101612bcf565b916020916126bd91959495604085526040850191612947565b6004811015610735578015612c7c57612c508161072b565b60018114612c755780612c6460029261072b565b14612c6f57611d4c90565b61271090565b506130d490565b50613a9890565b634e487b7160e01b600052601160045260246000fd5b60ff1660ff8114612caa5760010190565b612c83565b60ff1660048110156107355790565b90610fa091828102928184041490151715612caa57565b90610bb891828102928184041490151715612caa57565b906107d091828102928184041490151715612caa57565b906103e891828102928184041490151715612caa57565b81810292918115918404141715612caa57565b91908201809211612caa57565b15612d4157565b60405162461bcd60e51b8152602060048201526015602482015274109d5e595c881b9bdd081dda1a5d195b1a5cdd1959605a1b6044820152606490fd5b15612d8557565b60405162461bcd60e51b815260206004820152600e60248201526d4e6f204c4c43206261636b696e6760901b6044820152606490fd5b15612dc257565b60405162461bcd60e51b815260206004820152600e60248201526d119d5b991a5b99c818db1bdcd95960921b6044820152606490fd5b15612dff57565b60405162461bcd60e51b815260206004820152601e60248201527f4e6f7420656c696769626c6520666f722063757272656e7420706861736500006044820152606490fd5b91908203918211612caa57565b15612e5857565b60405162461bcd60e51b815260206004820152601860248201527f4578636565647320706861736520616c6c6f636174696f6e00000000000000006044820152606490fd5b60405190612eaa82610b65565b60008252565b908152604081019291610bae9160200190610df0565b600052600960205260ff600760406000200154612ee7828260081c16612a6d565b16612ef18161072b565b80612f0b5750612710612f07815b600854612d1a565b0490565b612f148161072b565b60018103612f2b5750612710612f07613a98612eff565b80612f3760029261072b565b03612f4a57612710612f076157e4612eff565b612710612f07617530612eff565b9192957f2a077b72ac27e0177a757dbdf9bc56585dbb145d7dcd128808fcd8244267aff69495612fce9761304b61313094612f916134a8565b612fa56001600160a01b0386161515613136565b612fb184511515612aaf565b600a549a8b9a612fc8612fc38d61318d565b600a55565b42612d2d565b612fd6610ba1565b918b83528860208401526040830152886060830152600060808301528360a083015260c0820152600060e0820152613012610100820160019052565b600061012082015261014081018490526001600160a01b0385166101608201526130468a6000526009602052604060002090565b613265565b613057611b4c87612cbe565b61307d61306e8a600052600b602052604060002090565b60008052602052604060002090565b5561308a611b4c87612cd5565b6130b16130a18a600052600b602052604060002090565b6001600052602052604060002090565b556130be611b4c87612cec565b6130e56130d58a600052600b602052604060002090565b6002600052602052604060002090565b556130f2611b4c87612d03565b6131196131098a600052600b602052604060002090565b6003600052602052604060002090565b5561312388613f35565b5060405195869586613365565b0390a290565b1561313d57565b60405162461bcd60e51b815260206004820152602260248201527f437573746f6469616e20726571756972656420666f72204c4c43206261636b696044820152616e6760f01b6064820152608490fd5b6000198114612caa5760010190565b91909182516001600160401b038111610b60576131bd81612b708454612562565b602080601f83116001146131fb57508190612ba89394956000926131f05750508160011b916000199060031b1c19161790565b015190503880612b93565b90601f1983169561321185600052602060002090565b926000905b88821061324d5750508360019596971061323457505050811b019055565b015160001960f88460031b161c19169055388080612be3565b80600185968294968601518155019501930190613216565b6009613344610160610bae948051855561328660208201516001870161319c565b61329760408201516002870161319c565b606081015160038601556080810151600486015560a0810151600586015560c08101516006860155613324600786016132dd60e08401516132d78161072b565b8261285c565b6133046132ee610100850151151590565b825461ff00191690151560081b61ff0016178255565b6101208301511515815462ff0000191690151560101b62ff000016179055565b6133366101408201516008870161319c565b01516001600160a01b031690565b910180546001600160a01b0319166001600160a01b03909216919091179055565b936080936133826126bd949398979860a0885260a0880190610795565b92602087015260408601528482036060860152610795565b3360009081527f294bb43e882f8724b7ae88344d047a41612b98ee139a78f923b3689f3cc274b1602052604090207f28f5a99355973cc89255b8c4ac88405f27c78ded7608b040ee77a8bdf44d15e29060ff905b5416156119815750565b3360009081527f847f481f687befb06ed3511f1a8dcef57e83007c0147ae5047583d7056170937602052604090207f3c11d16cbaffd01df69ce1c404f6340ee057498f5f00246190ea54220576a8489060ff906133ee565b3360009081527f99f2891db7a8db76249871a02b43b68c0bb8f22ef8a3bc1034ae9375ef6b7c3c602052604090207f65d7a28e3265b37a6474929f336521b332c1681b933f6cb9f3376673440d862a9060ff906133ee565b3360009081527f05b8ccbb9d4d8fb16ea74ce3c29a41f1b461fbdaff4714a0d9a8eb05499746bc602052604090205460ff16156134e157565b60405163e2517d3f60e01b815233600482015260006024820152604490fd5b3360009081527f15a28d26fa1bf736cf7edc9922607171ccb09c3c73b808e7772a3013e068a522602052604090207f9f2df0fed2c77648de5860a4cc508cd0818c85b8b8a1ab4ceeef8d981c8956a69060ff906133ee565b6000818152600560209081526040808320338452909152902060ff906133ee565b600090808252600560205260ff6135a584604085209060018060a01b0316600052602052604060002090565b541661360d578082526005602090815260408084206001600160a01b038616600090815292529020805460ff1916600117905533926001600160a01b0316917f2f8788117e7eff1d82e926ec794901d17c78024a50270940304540a733656f0d9080a4600190565b50905090565b600090808252600560205260ff61363f84604085209060018060a01b0316600052602052604060002090565b54161561360d578082526005602090815260408084206001600160a01b038616600090815292529020805460ff1916905533926001600160a01b0316917ff6391f5c32d9c69d2a47ea670b442974b53935d1edc7fd64eb21e047a839171b9080a4600190565b92916001600160a01b03841691908215611691576136e5919493949160405192600184526020840152604083019160018352606084015260808301604052565b929093604092604051956136f887610b65565b600080975261370561396b565b6000955b81518710156138895761371c8783612995565b51916137288883612995565b5194895b60ff8116600381111580613880575b15613865578061374b8a9261072b565b8a8d61376983611b3a86611d408d600052600f602052604060002090565b549081613784575b505050505061377f90612c99565b61372c565b7f79fa03c4f76e383f2eb3d51f38e9daa7af8429e8573f8c1bb7d6103e878e356461384361384b969561377f989e958e958e955082888211600014613858576137e29150611b3a899a5b611d4089600052600f602052604060002090565b6137ed898254612e44565b90556004613805866000526009602052604060002090565b01613811898254612e44565b905561382b82611b3a87600052600c602052604060002090565b613836898254612e44565b9055519182918883612eb0565b0390a3612e44565b96905087388a818e613771565b611b3a6137e2929a6137ce565b5050979092506138786001929515614049565b019592613709565b5087151561373b565b94509291955050610bae93506143c9565b60ff60019116019060ff8211612caa57565b806000526009602052600760406000200160ff81546138cf828260081c16612a6d565b1690600482101561073557600382101561392d57610aa661392891611bd46132d76139238661391e7fa92c850bb09d5afa4a6230f4866fad10264c6fea20047156b39e3e24c5763ad49861072b565b61389a565b612caf565b0390a2565b60405162461bcd60e51b8152602060048201526016602482015275416c72656164792061742066696e616c20706861736560501b6044820152606490fd5b60ff6006541661397757565b60405163d93c066560e01b8152600490fd5b93916001600160a01b0385161561246b576139c160405192600184526020840152604083019160018352606084015260808301604052565b90916139cb61396b565b6139d6828487614553565b600094855b8451871015613a2e57613a266001916139f48987612995565b5190613a14613a038b8a612995565b516000526003602052604060002090565b613a1f838254612d2d565b9055612d2d565b9601956139db565b613a48919594929650613a4390600454612d2d565b600455565b8051600103613a665790602080610bae95930151910151913361435d565b610bae9333614163565b613a7861396b565b6001600160a01b0381168015158080613cba575b613c27575b613aa2575b5090610bae92916143c9565b600094929394925b8451841015613c1957613abd8486612995565b5194613ac98588612995565b519660005b60ff8116600381111580613c10575b15613bf157613aeb8161072b565b613b0781611b3a89611d408d600052600f602052604060002090565b5480613b1e575b5050613b1990612c99565b613ace565b613b19929a878b7f79fa03c4f76e383f2eb3d51f38e9daa7af8429e8573f8c1bb7d6103e878e3564613843613bdc968d9681878211600014613be457613b799150611b3a88995b611d4088600052600f602052604060002090565b613b84888254612e44565b90556004613b9c856000526009602052604060002090565b01613ba8888254612e44565b9055613bc281611b3a86600052600c602052604060002090565b613bcd888254612e44565b90556040519182918883612eb0565b989038613b0e565b611b3a613b799299613b65565b50509550919593613c056001929515614049565b019294909394613aaa565b50891515613add565b94939250610bae9050613a96565b93919060005b8451811015613c755780613c6f613c6a6007613c5f613c4e6001968b612995565b516000526009602052604060002090565b015460101c60ff1690565b613fb1565b01613c2d565b5060008052600d6020529193909190613cb5613cb07f81955a0a11e65eac625c29e8882660bae4e165a75d72780094acae8ece9a29ee611bd4565b613ffd565b613a91565b506000613a8c565b91939290613cce61396b565b6001600160a01b038381168015158080613f2a575b613eca575b613d3f575b50613cfa8387848761447a565b8116613d08575b5050505050565b8451600103613d2e57602080613d249601519201519233614392565b3880808080613d01565b613d3a9491923361425e565b613d24565b9196956000959195965b8151881015613ebe57613d5c8883612995565b5192613d688987612995565b519560005b60ff81168c600382111580613eb5575b15613e9557908a918c613dab83611b3a86611d408e613d9b8561072b565b600052600f602052604060002090565b5480613dc5575b5050505050613dc090612c99565b613d6d565b613e4c9493613dc0969d938d938d9383878211600014613e8857613dfd9150611b3a8899611d4088600052600f602052604060002090565b613e08888254612e44565b90558116613e5957506138437f79fa03c4f76e383f2eb3d51f38e9daa7af8429e8573f8c1bb7d6103e878e3564916004613b9c856000526009602052604060002090565b97905088388d8c82613db2565b613e769350611d40611b3a9293600052600f602052604060002090565b613e81838254612d2d565b9055612e44565b611b3a613dfd9299613b65565b50505095600192939450613eac9099919915614049565b01969190613d49565b50891515613d7d565b97925095509338613ced565b9795949392919060005b8851811015613efb5780613ef5613c6a6007613c5f613c4e6001968f612995565b01613ed4565b5090919293949597613f25613cb0611bd48660018060a01b0316600052600d602052604060002090565b613ce8565b508284161515613ce3565b80600052601160205260406000205415600014613fab5760105468010000000000000000811015610b605760018101806010558110156129a95781907f1b6847dc741a1b0cd08d278845f9d819d87b734759afb55fe2de5cb82a9ae6720155601054906000526011602052604060002055600190565b50600090565b15613fb857565b60405162461bcd60e51b815260206004820152601f60248201527f5472616e7366657273206c6f636b656420647572696e672066756e64696e67006044820152606490fd5b1561400457565b60405162461bcd60e51b815260206004820152601960248201527f526563697069656e74206e6f742077686974656c6973746564000000000000006044820152606490fd5b1561405057565b60405162461bcd60e51b815260206004820152602360248201527f496e73756666696369656e742070686173652d747261636b656420686f6c64696044820152626e677360e81b6064820152608490fd5b908160209103126104d65751610ed2816105f2565b926140e5610ed295936140f39360018060a01b031686526000602087015260a0604087015260a0860190611254565b908482036060860152611254565b916080818403910152610795565b9390610ed295936140e5916140f39460018060a01b03809216885216602087015260a0604087015260a0860190611254565b3d1561415e573d9061414482610c27565b916141526040519384610b80565b82523d6000602084013e565b606090565b9293919093843b614175575050505050565b602091614198604051948593849363bc197c8160e01b98898652600486016140b6565b038160006001600160a01b0388165af16000918161422d575b506141f057826141bf614133565b80519190826141e957604051632bfa23e760e11b81526001600160a01b0383166004820152602490fd5b9050602001fd5b6001600160e01b0319160361420a57503880808080613d01565b604051632bfa23e760e11b81526001600160a01b03919091166004820152602490fd5b61425091925060203d602011614257575b6142488183610b80565b8101906140a1565b90386141b1565b503d61423e565b939290949194853b614273575b505050505050565b614296602093604051958694859463bc197c8160e01b998a875260048701614101565b038160006001600160a01b0388165af1600091816142d8575b506142bd57826141bf614133565b6001600160e01b0319160361420a575038808080808061426b565b6142f291925060203d602011614257576142488183610b80565b90386142af565b909260a092610ed29594600180861b0316835260006020840152604083015260608201528160808201520190610795565b9192610ed295949160a094600180871b038092168552166020840152604083015260608201528160808201520190610795565b9293919093843b61436f575050505050565b602091614198604051948593849363f23a6e6160e01b98898652600486016142f9565b939290949194853b6143a657505050505050565b614296602093604051958694859463f23a6e6160e01b998a87526004870161432a565b9291926143d784838361466e565b6001600160a01b031615614430575b6000805b825182101561441e576001906144008387612995565b519061440f613a038587612995565b828154039055019101906143ea565b915050610bae91925060045403600455565b6000805b82518210156144645761445c60019161444d8488612995565b5190613a14613a038688612995565b910190614434565b6144759150613a4390600454612d2d565b6143e6565b9093929361448a858483856147d4565b6001600160a01b03918216156144de575b16156144a657509050565b6000805b825182101561441e576001906144c08387612995565b51906144cf613a038587612995565b828154039055019101906144aa565b92600091825b84518410156145145761450c6001916144fd868a612995565b5190613a14613a03888a612995565b9301926144e4565b614529919350613a4390959295600454612d2d565b61449b565b9091614545610ed293604084526040840190611254565b916020818403910152611254565b9190918251825190818103612a4b57505060005b83518110156145ce57600581901b84810160209081015191850101516001929184906001600160a01b0382166145a1575b50505001614567565b6145c491611d406145bc926000526000602052604060002090565b918254612d2d565b9055388381614598565b5091600181511460001461462f576020908101519181015160408051938452918301526001600160a01b039092169160009133917fc3d58168c5ae7397731d063d5bbf3d657854427343f4c083240f7aacaa2d0f629190819081015b0390a4565b7f4a39dc06d4c0dbc64b70af90fd698a233a518aa5d07e595d983b8c0526c8f7fb61462a6000939460405191829160018060a01b03169633958361452e565b9291908051825190818103612a4b57505060005b815181101561473557600581901b82810160209081015191850101516001600160a01b0387166146b7575b5050600101614682565b6146cf87611d40846000526000602052604060002090565b548181106146fe5787611d4060019594936146f69303936000526000602052604060002090565b5590386146ad565b6040516303dee4c560e01b81526001600160a01b038916600482015260248101919091526044810182905260648101839052608490fd5b5090600092939160018151148414614795576020908101519181015160408051938452918301526001600160a01b039092169133917fc3d58168c5ae7397731d063d5bbf3d657854427343f4c083240f7aacaa2d0f62918190810161462a565b6040516001600160a01b039093169233927f4a39dc06d4c0dbc64b70af90fd698a233a518aa5d07e595d983b8c0526c8f7fb92829161462a918361452e565b9392918051835190818103612a4b57505060005b81518110156148d657600581901b82810160209081015191860101516001600160a01b0392918590898516614850575b600194821661482b575b505050016147e8565b61484691611d406145bc926000526000602052604060002090565b9055388481614822565b919293905061486d89611d40846000526000602052604060002090565b5483811061489f57918691846001969594036148978c611d40856000526000602052604060002090565b559450614818565b6040516303dee4c560e01b81526001600160a01b038b16600482015260248101919091526044810184905260648101839052608490fd5b508051939493919291600103614938576020908101519181015160408051938452918301526001600160a01b03928316939092169133917fc3d58168c5ae7397731d063d5bbf3d657854427343f4c083240f7aacaa2d0f62918190810161462a565b6040516001600160a01b03938416949093169233927f4a39dc06d4c0dbc64b70af90fd698a233a518aa5d07e595d983b8c0526c8f7fb92829161462a918361452e56fea2646970667358221220c7173333c87abcf90ef86b9c799a3292896cc62dc697b368788e64eaf47f2dcc64736f6c634300081800332f8788117e7eff1d82e926ec794901d17c78024a50270940304540a733656f0d","opcodes":"PUSH1 0x80 PUSH1 0x40 MSTORE CALLVALUE PUSH3 0x275 JUMPI PUSH3 0x500E DUP1 CODESIZE SUB DUP1 PUSH3 0x1D DUP2 PUSH3 0x27A JUMP JUMPDEST SWAP3 DUP4 CODECOPY DUP2 ADD SWAP1 PUSH1 0x20 SWAP1 DUP2 DUP2 DUP5 SUB SLT PUSH3 0x275 JUMPI DUP1 MLOAD PUSH1 0x1 PUSH1 0x1 PUSH1 0x40 SHL SUB SWAP2 DUP3 DUP3 GT PUSH3 0x275 JUMPI ADD SWAP2 PUSH1 0x1F SWAP1 DUP5 DUP3 DUP6 ADD SLT ISZERO PUSH3 0x275 JUMPI DUP4 MLOAD DUP4 DUP2 GT PUSH3 0x24A JUMPI PUSH1 0x1F NOT SWAP5 PUSH3 0x72 DUP3 DUP6 ADD DUP8 AND DUP5 ADD PUSH3 0x27A JUMP JUMPDEST SWAP7 DUP3 DUP9 MSTORE DUP4 DUP4 DUP4 ADD ADD GT PUSH3 0x275 JUMPI DUP3 SWAP1 PUSH1 0x0 JUMPDEST DUP4 DUP2 LT PUSH3 0x260 JUMPI POP POP PUSH1 0x0 SWAP2 DUP8 ADD ADD MSTORE DUP5 MLOAD SWAP3 DUP4 GT PUSH3 0x24A JUMPI PUSH1 0x2 SLOAD SWAP4 PUSH1 0x1 SWAP5 DUP6 DUP2 DUP2 SHR SWAP2 AND DUP1 ISZERO PUSH3 0x23F JUMPI JUMPDEST DUP4 DUP3 LT EQ PUSH3 0x229 JUMPI DUP4 DUP2 GT PUSH3 0x1DD JUMPI JUMPDEST POP DUP2 SWAP3 DUP5 GT PUSH1 0x1 EQ PUSH3 0x174 JUMPI POP POP DUP2 SWAP3 SWAP4 PUSH1 0x0 SWAP3 PUSH3 0x168 JUMPI JUMPDEST POP POP PUSH1 0x0 NOT PUSH1 0x3 DUP4 SWAP1 SHL SHR NOT AND SWAP1 DUP3 SHL OR PUSH1 0x2 SSTORE JUMPDEST PUSH1 0xFF NOT PUSH1 0x6 SLOAD AND PUSH1 0x6 SSTORE PUSH1 0x7 SSTORE PUSH7 0x2C68AF0BB14000 PUSH1 0x8 SSTORE PUSH3 0x11B CALLER PUSH3 0x2A0 JUMP JUMPDEST POP PUSH3 0x127 CALLER PUSH3 0x321 JUMP JUMPDEST POP PUSH3 0x133 CALLER PUSH3 0x3C4 JUMP JUMPDEST POP PUSH3 0x13F CALLER PUSH3 0x462 JUMP JUMPDEST POP PUSH3 0x14B CALLER PUSH3 0x500 JUMP JUMPDEST POP PUSH3 0x157 CALLER PUSH3 0x59E JUMP JUMPDEST POP PUSH1 0x40 MLOAD PUSH2 0x49B1 SWAP1 DUP2 PUSH3 0x63D DUP3 CODECOPY RETURN JUMPDEST ADD MLOAD SWAP1 POP CODESIZE DUP1 PUSH3 0xE3 JUMP JUMPDEST DUP4 SWAP3 SWAP2 SWAP3 AND SWAP5 PUSH1 0x2 PUSH1 0x0 MSTORE DUP3 PUSH1 0x0 KECCAK256 SWAP3 PUSH1 0x0 SWAP1 JUMPDEST DUP8 DUP3 LT PUSH3 0x1C5 JUMPI POP POP DUP4 DUP6 SWAP7 LT PUSH3 0x1AB JUMPI JUMPDEST POP POP POP DUP2 SHL ADD PUSH1 0x2 SSTORE PUSH3 0xF8 JUMP JUMPDEST ADD MLOAD PUSH1 0x0 NOT PUSH1 0xF8 DUP5 PUSH1 0x3 SHL AND SHR NOT AND SWAP1 SSTORE CODESIZE DUP1 DUP1 PUSH3 0x19C JUMP JUMPDEST DUP1 DUP8 DUP6 SWAP7 DUP3 SWAP5 SWAP7 DUP7 ADD MLOAD DUP2 SSTORE ADD SWAP6 ADD SWAP4 ADD SWAP1 PUSH3 0x188 JUMP JUMPDEST PUSH1 0x2 PUSH1 0x0 MSTORE DUP3 PUSH1 0x0 KECCAK256 DUP5 DUP1 DUP8 ADD PUSH1 0x5 SHR DUP3 ADD SWAP3 DUP6 DUP9 LT PUSH3 0x21F JUMPI JUMPDEST ADD PUSH1 0x5 SHR ADD SWAP1 DUP7 SWAP1 JUMPDEST DUP3 DUP2 LT PUSH3 0x212 JUMPI POP POP PUSH3 0xC8 JUMP JUMPDEST PUSH1 0x0 DUP2 SSTORE ADD DUP7 SWAP1 PUSH3 0x202 JUMP JUMPDEST SWAP3 POP DUP2 SWAP3 PUSH3 0x1F9 JUMP JUMPDEST PUSH4 0x4E487B71 PUSH1 0xE0 SHL PUSH1 0x0 MSTORE PUSH1 0x22 PUSH1 0x4 MSTORE PUSH1 0x24 PUSH1 0x0 REVERT JUMPDEST SWAP1 PUSH1 0x7F AND SWAP1 PUSH3 0xB6 JUMP JUMPDEST PUSH4 0x4E487B71 PUSH1 0xE0 SHL PUSH1 0x0 MSTORE PUSH1 0x41 PUSH1 0x4 MSTORE PUSH1 0x24 PUSH1 0x0 REVERT JUMPDEST DUP2 DUP2 ADD DUP4 ADD MLOAD DUP10 DUP3 ADD DUP5 ADD MSTORE DUP5 SWAP3 ADD PUSH3 0x86 JUMP JUMPDEST PUSH1 0x0 DUP1 REVERT JUMPDEST PUSH1 0x40 MLOAD SWAP2 SWAP1 PUSH1 0x1F ADD PUSH1 0x1F NOT AND DUP3 ADD PUSH1 0x1 PUSH1 0x1 PUSH1 0x40 SHL SUB DUP2 GT DUP4 DUP3 LT OR PUSH3 0x24A JUMPI PUSH1 0x40 MSTORE JUMP JUMPDEST PUSH1 0x1 PUSH1 0x1 PUSH1 0xA0 SHL SUB AND PUSH1 0x0 DUP2 DUP2 MSTORE PUSH32 0x5B8CCBB9D4D8FB16EA74CE3C29A41F1B461FBDAFF4714A0D9A8EB05499746BC PUSH1 0x20 MSTORE PUSH1 0x40 DUP2 KECCAK256 SLOAD SWAP1 SWAP2 SWAP1 PUSH1 0xFF AND PUSH3 0x31D JUMPI DUP2 DUP1 MSTORE PUSH1 0x5 PUSH1 0x20 MSTORE PUSH1 0x40 DUP3 KECCAK256 DUP2 DUP4 MSTORE PUSH1 0x20 MSTORE PUSH1 0x40 DUP3 KECCAK256 PUSH1 0x1 PUSH1 0xFF NOT DUP3 SLOAD AND OR SWAP1 SSTORE CALLER SWAP2 PUSH1 0x0 DUP1 MLOAD PUSH1 0x20 PUSH3 0x4FEE DUP4 CODECOPY DUP2 MLOAD SWAP2 MSTORE DUP2 DUP1 LOG4 PUSH1 0x1 SWAP1 JUMP JUMPDEST POP SWAP1 JUMP JUMPDEST PUSH1 0x1 PUSH1 0x1 PUSH1 0xA0 SHL SUB AND PUSH1 0x0 DUP2 DUP2 MSTORE PUSH32 0x15A28D26FA1BF736CF7EDC9922607171CCB09C3C73B808E7772A3013E068A522 PUSH1 0x20 MSTORE PUSH1 0x40 DUP2 KECCAK256 SLOAD SWAP1 SWAP2 SWAP1 PUSH32 0x9F2DF0FED2C77648DE5860A4CC508CD0818C85B8B8A1AB4CEEEF8D981C8956A6 SWAP1 PUSH1 0xFF AND PUSH3 0x3BF JUMPI DUP1 DUP4 MSTORE PUSH1 0x5 PUSH1 0x20 MSTORE PUSH1 0x40 DUP4 KECCAK256 DUP3 DUP5 MSTORE PUSH1 0x20 MSTORE PUSH1 0x40 DUP4 KECCAK256 PUSH1 0x1 PUSH1 0xFF NOT DUP3 SLOAD AND OR SWAP1 SSTORE PUSH1 0x0 DUP1 MLOAD PUSH1 0x20 PUSH3 0x4FEE DUP4 CODECOPY DUP2 MLOAD SWAP2 MSTORE CALLER SWAP4 DUP1 LOG4 PUSH1 0x1 SWAP1 JUMP JUMPDEST POP POP SWAP1 JUMP JUMPDEST PUSH1 0x1 PUSH1 0x1 PUSH1 0xA0 SHL SUB AND PUSH1 0x0 DUP2 DUP2 MSTORE PUSH32 0x99F2891DB7A8DB76249871A02B43B68C0BB8F22EF8A3BC1034AE9375EF6B7C3C PUSH1 0x20 MSTORE PUSH1 0x40 DUP2 KECCAK256 SLOAD SWAP1 SWAP2 SWAP1 PUSH32 0x65D7A28E3265B37A6474929F336521B332C1681B933F6CB9F3376673440D862A SWAP1 PUSH1 0xFF AND PUSH3 0x3BF JUMPI DUP1 DUP4 MSTORE PUSH1 0x5 PUSH1 0x20 MSTORE PUSH1 0x40 DUP4 KECCAK256 DUP3 DUP5 MSTORE PUSH1 0x20 MSTORE PUSH1 0x40 DUP4 KECCAK256 PUSH1 0x1 PUSH1 0xFF NOT DUP3 SLOAD AND OR SWAP1 SSTORE PUSH1 0x0 DUP1 MLOAD PUSH1 0x20 PUSH3 0x4FEE DUP4 CODECOPY DUP2 MLOAD SWAP2 MSTORE CALLER SWAP4 DUP1 LOG4 PUSH1 0x1 SWAP1 JUMP JUMPDEST PUSH1 0x1 PUSH1 0x1 PUSH1 0xA0 SHL SUB AND PUSH1 0x0 DUP2 DUP2 MSTORE PUSH32 0x294BB43E882F8724B7AE88344D047A41612B98EE139A78F923B3689F3CC274B1 PUSH1 0x20 MSTORE PUSH1 0x40 DUP2 KECCAK256 SLOAD SWAP1 SWAP2 SWAP1 PUSH32 0x28F5A99355973CC89255B8C4AC88405F27C78DED7608B040EE77A8BDF44D15E2 SWAP1 PUSH1 0xFF AND PUSH3 0x3BF JUMPI DUP1 DUP4 MSTORE PUSH1 0x5 PUSH1 0x20 MSTORE PUSH1 0x40 DUP4 KECCAK256 DUP3 DUP5 MSTORE PUSH1 0x20 MSTORE PUSH1 0x40 DUP4 KECCAK256 PUSH1 0x1 PUSH1 0xFF NOT DUP3 SLOAD AND OR SWAP1 SSTORE PUSH1 0x0 DUP1 MLOAD PUSH1 0x20 PUSH3 0x4FEE DUP4 CODECOPY DUP2 MLOAD SWAP2 MSTORE CALLER SWAP4 DUP1 LOG4 PUSH1 0x1 SWAP1 JUMP JUMPDEST PUSH1 0x1 PUSH1 0x1 PUSH1 0xA0 SHL SUB AND PUSH1 0x0 DUP2 DUP2 MSTORE PUSH32 0xC54CC0CAD80E711AFF5B4FCA3E13682B9A8FCD7FF4679FBC81D0391D16E477BD PUSH1 0x20 MSTORE PUSH1 0x40 DUP2 KECCAK256 SLOAD SWAP1 SWAP2 SWAP1 PUSH32 0x62045F2F519251643CF4B5F0750D99BBDA23CE869802AD9F6D52577CD08A645A SWAP1 PUSH1 0xFF AND PUSH3 0x3BF JUMPI DUP1 DUP4 MSTORE PUSH1 0x5 PUSH1 0x20 MSTORE PUSH1 0x40 DUP4 KECCAK256 DUP3 DUP5 MSTORE PUSH1 0x20 MSTORE PUSH1 0x40 DUP4 KECCAK256 PUSH1 0x1 PUSH1 0xFF NOT DUP3 SLOAD AND OR SWAP1 SSTORE PUSH1 0x0 DUP1 MLOAD PUSH1 0x20 PUSH3 0x4FEE DUP4 CODECOPY DUP2 MLOAD SWAP2 MSTORE CALLER SWAP4 DUP1 LOG4 PUSH1 0x1 SWAP1 JUMP JUMPDEST PUSH1 0x1 PUSH1 0x1 PUSH1 0xA0 SHL SUB AND PUSH1 0x0 DUP2 DUP2 MSTORE PUSH32 0x847F481F687BEFB06ED3511F1A8DCEF57E83007C0147AE5047583D7056170937 PUSH1 0x20 MSTORE PUSH1 0x40 DUP2 KECCAK256 SLOAD SWAP1 SWAP2 SWAP1 PUSH32 0x3C11D16CBAFFD01DF69CE1C404F6340EE057498F5F00246190EA54220576A848 SWAP1 PUSH1 0xFF AND PUSH3 0x3BF JUMPI DUP1 DUP4 MSTORE PUSH1 0x5 PUSH1 0x20 MSTORE PUSH1 0x40 DUP4 KECCAK256 DUP3 DUP5 MSTORE PUSH1 0x20 MSTORE PUSH1 0x40 DUP4 KECCAK256 PUSH1 0x1 PUSH1 0xFF NOT DUP3 SLOAD AND OR SWAP1 SSTORE PUSH1 0x0 DUP1 MLOAD PUSH1 0x20 PUSH3 0x4FEE DUP4 CODECOPY DUP2 MLOAD SWAP2 MSTORE CALLER SWAP4 DUP1 LOG4 PUSH1 0x1 SWAP1 JUMP INVALID PUSH1 0x80 PUSH1 0x40 MSTORE PUSH1 0x4 CALLDATASIZE LT ISZERO PUSH2 0x12 JUMPI PUSH1 0x0 DUP1 REVERT JUMPDEST PUSH1 0x0 CALLDATALOAD PUSH1 0xE0 SHR DUP1 PUSH3 0xC8DF0 EQ PUSH2 0x4BB JUMPI DUP1 PUSH3 0xFDD58E EQ PUSH2 0x4B6 JUMPI DUP1 PUSH4 0x1FFC9A7 EQ PUSH2 0x4B1 JUMPI DUP1 PUSH4 0x263B858 EQ PUSH2 0x4AC JUMPI DUP1 PUSH4 0x4FA6173 EQ PUSH2 0x4A7 JUMPI DUP1 PUSH4 0xE89341C EQ PUSH2 0x4A2 JUMPI DUP1 PUSH4 0xFBE640F EQ PUSH2 0x49D JUMPI DUP1 PUSH4 0x11DD6CDC EQ PUSH2 0x43E JUMPI DUP1 PUSH4 0x18160DDD EQ PUSH2 0x498 JUMPI DUP1 PUSH4 0x19E76454 EQ PUSH2 0x493 JUMPI DUP1 PUSH4 0x23067248 EQ PUSH2 0x48E JUMPI DUP1 PUSH4 0x248A9CA3 EQ PUSH2 0x489 JUMPI DUP1 PUSH4 0x2632067A EQ PUSH2 0x484 JUMPI DUP1 PUSH4 0x282C51F3 EQ PUSH2 0x47F JUMPI DUP1 PUSH4 0x2EB2C2D6 EQ PUSH2 0x47A JUMPI DUP1 PUSH4 0x2F2FF15D EQ PUSH2 0x475 JUMPI DUP1 PUSH4 0x32665FFB EQ PUSH2 0x470 JUMPI DUP1 PUSH4 0x35894AFD EQ PUSH2 0x46B JUMPI DUP1 PUSH4 0x36568ABE EQ PUSH2 0x466 JUMPI DUP1 PUSH4 0x3BB0B5B6 EQ PUSH2 0x461 JUMPI DUP1 PUSH4 0x3F4BA83A EQ PUSH2 0x45C JUMPI DUP1 PUSH4 0x43CB5413 EQ PUSH2 0x457 JUMPI DUP1 PUSH4 0x4A164732 EQ PUSH2 0x452 JUMPI DUP1 PUSH4 0x4E1273F4 EQ PUSH2 0x44D JUMPI DUP1 PUSH4 0x4F558E79 EQ PUSH2 0x448 JUMPI DUP1 PUSH4 0x4FF69E83 EQ PUSH2 0x443 JUMPI DUP1 PUSH4 0x500E9F73 EQ PUSH2 0x43E JUMPI DUP1 PUSH4 0x54202C4E EQ PUSH2 0x439 JUMPI DUP1 PUSH4 0x5561C5B3 EQ PUSH2 0x434 JUMPI DUP1 PUSH4 0x5BBE9F5E EQ PUSH2 0x399 JUMPI DUP1 PUSH4 0x5C975ABB EQ PUSH2 0x42F JUMPI DUP1 PUSH4 0x5FC68C46 EQ PUSH2 0x42A JUMPI DUP1 PUSH4 0x65C4C7E2 EQ PUSH2 0x425 JUMPI DUP1 PUSH4 0x6B20C454 EQ PUSH2 0x420 JUMPI DUP1 PUSH4 0x6CE2F91D EQ PUSH2 0x41B JUMPI DUP1 PUSH4 0x6E1FFA9B EQ PUSH2 0x416 JUMPI DUP1 PUSH4 0x6EA99677 EQ PUSH2 0x411 JUMPI DUP1 PUSH4 0x7326B901 EQ PUSH2 0x40C JUMPI DUP1 PUSH4 0x742C4F4C EQ PUSH2 0x407 JUMPI DUP1 PUSH4 0x75CFCB3D EQ PUSH2 0x402 JUMPI DUP1 PUSH4 0x7B667E6F EQ PUSH2 0x3FD JUMPI DUP1 PUSH4 0x7CA8C6F1 EQ PUSH2 0x3F8 JUMPI DUP1 PUSH4 0x81AAF4CE EQ PUSH2 0x3F3 JUMPI DUP1 PUSH4 0x8456CB59 EQ PUSH2 0x3EE JUMPI DUP1 PUSH4 0x847EDE74 EQ PUSH2 0x3E9 JUMPI DUP1 PUSH4 0x8AB1D681 EQ PUSH2 0x3E4 JUMPI DUP1 PUSH4 0x8CDC1E87 EQ PUSH2 0x3DF JUMPI DUP1 PUSH4 0x8D6819BE EQ PUSH2 0x3DA JUMPI DUP1 PUSH4 0x91D14854 EQ PUSH2 0x3D5 JUMPI DUP1 PUSH4 0x9B19251A EQ PUSH2 0x3D0 JUMPI DUP1 PUSH4 0x9CA02763 EQ PUSH2 0x3CB JUMPI DUP1 PUSH4 0xA217FDDF EQ PUSH2 0x3C6 JUMPI DUP1 PUSH4 0xA22CB465 EQ PUSH2 0x3C1 JUMPI DUP1 PUSH4 0xA7907F74 EQ PUSH2 0x3BC JUMPI DUP1 PUSH4 0xBD85B039 EQ PUSH2 0x3B7 JUMPI DUP1 PUSH4 0xC361A335 EQ PUSH2 0x3B2 JUMPI DUP1 PUSH4 0xC55D0F56 EQ PUSH2 0x3AD JUMPI DUP1 PUSH4 0xC5666EB2 EQ PUSH2 0x3A8 JUMPI DUP1 PUSH4 0xC611643C EQ PUSH2 0x3A3 JUMPI DUP1 PUSH4 0xC65B6820 EQ PUSH2 0x39E JUMPI DUP1 PUSH4 0xC7527D08 EQ PUSH2 0x399 JUMPI DUP1 PUSH4 0xC7876EA4 EQ PUSH2 0x394 JUMPI DUP1 PUSH4 0xCEADD5B9 EQ PUSH2 0x38F JUMPI DUP1 PUSH4 0xD5391393 EQ PUSH2 0x38A JUMPI DUP1 PUSH4 0xD547741F EQ PUSH2 0x385 JUMPI DUP1 PUSH4 0xDBDAD432 EQ PUSH2 0x380 JUMPI DUP1 PUSH4 0xE63AB1E9 EQ PUSH2 0x37B JUMPI DUP1 PUSH4 0xE985E9C5 EQ PUSH2 0x376 JUMPI DUP1 PUSH4 0xEDFF4969 EQ PUSH2 0x371 JUMPI DUP1 PUSH4 0xF242432A EQ PUSH2 0x36C JUMPI DUP1 PUSH4 0xF5298ACA EQ PUSH2 0x367 JUMPI DUP1 PUSH4 0xF7B10808 EQ PUSH2 0x362 JUMPI DUP1 PUSH4 0xF8147A8A EQ PUSH2 0x35D JUMPI DUP1 PUSH4 0xF918CE1B EQ PUSH2 0x358 JUMPI PUSH4 0xFD5BAA88 EQ PUSH2 0x353 JUMPI PUSH1 0x0 DUP1 REVERT JUMPDEST PUSH2 0x2810 JUMP JUMPDEST PUSH2 0x2788 JUMP JUMPDEST PUSH2 0x276B JUMP JUMPDEST PUSH2 0x26CD JUMP JUMPDEST PUSH2 0x24CF JUMP JUMPDEST PUSH2 0x23CA JUMP JUMPDEST PUSH2 0x2386 JUMP JUMPDEST PUSH2 0x2325 JUMP JUMPDEST PUSH2 0x22EA JUMP JUMPDEST PUSH2 0x2265 JUMP JUMPDEST PUSH2 0x2226 JUMP JUMPDEST PUSH2 0x21EB JUMP JUMPDEST PUSH2 0x21CE JUMP JUMPDEST PUSH2 0x21B0 JUMP JUMPDEST PUSH2 0x1468 JUMP JUMPDEST PUSH2 0x2193 JUMP JUMPDEST PUSH2 0x210F JUMP JUMPDEST PUSH2 0x2037 JUMP JUMPDEST PUSH2 0x2019 JUMP JUMPDEST PUSH2 0x1FFB JUMP JUMPDEST PUSH2 0x1FCF JUMP JUMPDEST PUSH2 0x1FB2 JUMP JUMPDEST PUSH2 0x1EF6 JUMP JUMPDEST PUSH2 0x1EDA JUMP JUMPDEST PUSH2 0x1E84 JUMP JUMPDEST PUSH2 0x1E45 JUMP JUMPDEST PUSH2 0x1DF3 JUMP JUMPDEST PUSH2 0x1B86 JUMP JUMPDEST PUSH2 0x1AE3 JUMP JUMPDEST PUSH2 0x1A7B JUMP JUMPDEST PUSH2 0x19F9 JUMP JUMPDEST PUSH2 0x199F JUMP JUMPDEST PUSH2 0x190C JUMP JUMPDEST PUSH2 0x18EF JUMP JUMPDEST PUSH2 0x18A4 JUMP JUMPDEST PUSH2 0x186A JUMP JUMPDEST PUSH2 0x17F0 JUMP JUMPDEST PUSH2 0x17D2 JUMP JUMPDEST PUSH2 0x17A0 JUMP JUMPDEST PUSH2 0x1724 JUMP JUMPDEST PUSH2 0x16F4 JUMP JUMPDEST PUSH2 0x1609 JUMP JUMPDEST PUSH2 0x14C5 JUMP JUMPDEST PUSH2 0x14A8 JUMP JUMPDEST PUSH2 0x1485 JUMP JUMPDEST PUSH2 0x144B JUMP JUMPDEST PUSH2 0x1410 JUMP JUMPDEST PUSH2 0x8F6 JUMP JUMPDEST PUSH2 0x1381 JUMP JUMPDEST PUSH2 0x1353 JUMP JUMPDEST PUSH2 0x1299 JUMP JUMPDEST PUSH2 0x1226 JUMP JUMPDEST PUSH2 0x118C JUMP JUMPDEST PUSH2 0x10DF JUMP JUMPDEST PUSH2 0x100F JUMP JUMPDEST PUSH2 0xF9E JUMP JUMPDEST PUSH2 0xF63 JUMP JUMPDEST PUSH2 0xED5 JUMP JUMPDEST PUSH2 0xDB1 JUMP JUMPDEST PUSH2 0xC89 JUMP JUMPDEST PUSH2 0xAF3 JUMP JUMPDEST PUSH2 0x9E4 JUMP JUMPDEST PUSH2 0x988 JUMP JUMPDEST PUSH2 0x96B JUMP JUMPDEST PUSH2 0x931 JUMP JUMPDEST PUSH2 0x913 JUMP JUMPDEST PUSH2 0x8BC JUMP JUMPDEST PUSH2 0x7D5 JUMP JUMPDEST PUSH2 0x763 JUMP JUMPDEST PUSH2 0x69B JUMP JUMPDEST PUSH2 0x604 JUMP JUMPDEST PUSH2 0x5A5 JUMP JUMPDEST PUSH2 0x531 JUMP JUMPDEST PUSH1 0x4 CALLDATALOAD SWAP1 PUSH1 0x1 PUSH1 0x1 PUSH1 0xA0 SHL SUB DUP3 AND DUP3 SUB PUSH2 0x4D6 JUMPI JUMP JUMPDEST PUSH1 0x0 DUP1 REVERT JUMPDEST PUSH1 0x24 CALLDATALOAD SWAP1 PUSH1 0x1 PUSH1 0x1 PUSH1 0xA0 SHL SUB DUP3 AND DUP3 SUB PUSH2 0x4D6 JUMPI JUMP JUMPDEST PUSH1 0x44 CALLDATALOAD SWAP1 PUSH1 0x1 PUSH1 0x1 PUSH1 0xA0 SHL SUB DUP3 AND DUP3 SUB PUSH2 0x4D6 JUMPI JUMP JUMPDEST PUSH1 0xC4 CALLDATALOAD SWAP1 PUSH1 0x1 PUSH1 0x1 PUSH1 0xA0 SHL SUB DUP3 AND DUP3 SUB PUSH2 0x4D6 JUMPI JUMP JUMPDEST CALLDATALOAD SWAP1 PUSH1 0x1 PUSH1 0x1 PUSH1 0xA0 SHL SUB DUP3 AND DUP3 SUB PUSH2 0x4D6 JUMPI JUMP JUMPDEST CALLVALUE PUSH2 0x4D6 JUMPI PUSH1 0x20 DUP1 PUSH1 0x3 NOT CALLDATASIZE ADD SLT PUSH2 0x4D6 JUMPI PUSH1 0x60 SWAP1 PUSH1 0x1 PUSH1 0x1 PUSH1 0xA0 SHL SUB PUSH2 0x556 PUSH2 0x4C0 JUMP JUMPDEST AND PUSH1 0x0 MSTORE PUSH1 0xD DUP2 MSTORE PUSH1 0x40 SWAP1 PUSH1 0xFF DUP3 PUSH1 0x0 KECCAK256 SLOAD AND SWAP2 DUP3 PUSH2 0x592 JUMPI JUMPDEST PUSH1 0x12 DUP3 MSTORE DUP1 PUSH1 0x0 KECCAK256 SLOAD PUSH1 0x13 DUP4 MSTORE DUP2 PUSH1 0x0 KECCAK256 SLOAD SWAP3 DUP3 MLOAD SWAP5 ISZERO ISZERO DUP6 MSTORE DUP5 ADD MSTORE DUP3 ADD MSTORE RETURN JUMPDEST SWAP2 POP PUSH1 0x12 DUP2 MSTORE DUP2 PUSH1 0x0 KECCAK256 SLOAD ISZERO ISZERO SWAP2 PUSH2 0x570 JUMP JUMPDEST CALLVALUE PUSH2 0x4D6 JUMPI PUSH1 0x40 CALLDATASIZE PUSH1 0x3 NOT ADD SLT PUSH2 0x4D6 JUMPI PUSH1 0x20 PUSH2 0x5E9 PUSH2 0x5C3 PUSH2 0x4C0 JUMP JUMPDEST PUSH1 0x24 CALLDATALOAD PUSH1 0x0 MSTORE PUSH1 0x0 DUP4 MSTORE PUSH1 0x40 PUSH1 0x0 KECCAK256 SWAP1 PUSH1 0x1 DUP1 PUSH1 0xA0 SHL SUB AND PUSH1 0x0 MSTORE PUSH1 0x20 MSTORE PUSH1 0x40 PUSH1 0x0 KECCAK256 SWAP1 JUMP JUMPDEST SLOAD PUSH1 0x40 MLOAD SWAP1 DUP2 MSTORE RETURN JUMPDEST PUSH1 0x1 PUSH1 0x1 PUSH1 0xE0 SHL SUB NOT DUP2 AND SUB PUSH2 0x4D6 JUMPI JUMP JUMPDEST CALLVALUE PUSH2 0x4D6 JUMPI PUSH1 0x20 CALLDATASIZE PUSH1 0x3 NOT ADD SLT PUSH2 0x4D6 JUMPI PUSH1 0x20 PUSH1 0x4 CALLDATALOAD PUSH2 0x623 DUP2 PUSH2 0x5F2 JUMP JUMPDEST PUSH4 0xFFFFFFFF PUSH1 0xE0 SHL AND PUSH4 0x7965DB0B PUSH1 0xE0 SHL DUP2 EQ SWAP1 DUP2 ISZERO PUSH2 0x649 JUMPI JUMPDEST POP PUSH1 0x40 MLOAD SWAP1 ISZERO ISZERO DUP2 MSTORE RETURN JUMPDEST PUSH4 0x6CDB3D13 PUSH1 0xE1 SHL DUP2 EQ SWAP2 POP DUP2 ISZERO PUSH2 0x67B JUMPI JUMPDEST DUP2 ISZERO PUSH2 0x66A JUMPI JUMPDEST POP CODESIZE PUSH2 0x63E JUMP JUMPDEST PUSH4 0x1FFC9A7 PUSH1 0xE0 SHL EQ SWAP1 POP CODESIZE PUSH2 0x663 JUMP JUMPDEST PUSH4 0x3A24D07 PUSH1 0xE2 SHL DUP2 EQ SWAP2 POP PUSH2 0x65C JUMP JUMPDEST PUSH1 0x24 CALLDATALOAD SWAP1 PUSH1 0x4 DUP3 LT ISZERO PUSH2 0x4D6 JUMPI JUMP JUMPDEST CALLVALUE PUSH2 0x4D6 JUMPI PUSH1 0x40 CALLDATASIZE PUSH1 0x3 NOT ADD SLT PUSH2 0x4D6 JUMPI PUSH2 0x6B4 PUSH2 0x4C0 JUMP JUMPDEST PUSH32 0x473A74F22F6AC6868D6C168FC84AEF7F2172066BAB41229B471D1C6B85434C82 PUSH1 0x20 PUSH2 0x6DF PUSH2 0x68C JUMP JUMPDEST SWAP3 PUSH2 0x6E8 PUSH2 0x339A JUMP JUMPDEST PUSH1 0x1 DUP1 PUSH1 0xA0 SHL SUB AND SWAP3 DUP4 PUSH1 0x0 MSTORE PUSH1 0xD DUP3 MSTORE PUSH1 0x40 PUSH1 0x0 KECCAK256 PUSH1 0x1 PUSH1 0xFF NOT DUP3 SLOAD AND OR SWAP1 SSTORE PUSH1 0xE DUP3 MSTORE PUSH2 0x71B DUP2 PUSH1 0x40 PUSH1 0x0 KECCAK256 PUSH2 0x285C JUMP JUMPDEST PUSH2 0x728 PUSH1 0x40 MLOAD DUP1 SWAP3 PUSH2 0xDF0 JUMP JUMPDEST LOG2 STOP JUMPDEST PUSH1 0x4 GT ISZERO PUSH2 0x735 JUMPI JUMP JUMPDEST PUSH4 0x4E487B71 PUSH1 0xE0 SHL PUSH1 0x0 MSTORE PUSH1 0x21 PUSH1 0x4 MSTORE PUSH1 0x24 PUSH1 0x0 REVERT JUMPDEST SWAP1 PUSH1 0x4 DUP2 LT ISZERO PUSH2 0x735 JUMPI PUSH1 0x0 MSTORE PUSH1 0x20 MSTORE PUSH1 0x40 PUSH1 0x0 KECCAK256 SWAP1 JUMP JUMPDEST CALLVALUE PUSH2 0x4D6 JUMPI PUSH1 0x40 CALLDATASIZE PUSH1 0x3 NOT ADD SLT PUSH2 0x4D6 JUMPI PUSH1 0x20 PUSH2 0x5E9 PUSH2 0x781 PUSH2 0x68C JUMP JUMPDEST PUSH1 0x4 CALLDATALOAD PUSH1 0x0 MSTORE PUSH1 0xC DUP4 MSTORE PUSH1 0x40 PUSH1 0x0 KECCAK256 PUSH2 0x74B JUMP JUMPDEST SWAP2 SWAP1 DUP3 MLOAD SWAP3 DUP4 DUP3 MSTORE PUSH1 0x0 JUMPDEST DUP5 DUP2 LT PUSH2 0x7C1 JUMPI POP POP DUP3 PUSH1 0x0 PUSH1 0x20 DUP1 SWAP5 SWAP6 DUP5 ADD ADD MSTORE PUSH1 0x1F DUP1 NOT SWAP2 ADD AND ADD ADD SWAP1 JUMP JUMPDEST PUSH1 0x20 DUP2 DUP4 ADD DUP2 ADD MLOAD DUP5 DUP4 ADD DUP3 ADD MSTORE ADD PUSH2 0x7A0 JUMP JUMPDEST CALLVALUE PUSH2 0x4D6 JUMPI PUSH1 0x20 DUP1 PUSH1 0x3 NOT CALLDATASIZE ADD SLT PUSH2 0x4D6 JUMPI PUSH1 0x40 MLOAD SWAP1 PUSH1 0x0 DUP3 PUSH1 0x2 SLOAD SWAP2 PUSH2 0x7FB DUP4 PUSH2 0x2562 JUMP JUMPDEST SWAP3 DUP4 DUP4 MSTORE PUSH1 0x1 SWAP1 DUP6 PUSH1 0x1 DUP3 AND SWAP2 DUP3 PUSH1 0x0 EQ PUSH2 0x89C JUMPI POP POP PUSH1 0x1 EQ PUSH2 0x83F JUMPI JUMPDEST POP PUSH2 0x827 SWAP3 POP SUB DUP4 PUSH2 0xB80 JUMP JUMPDEST PUSH2 0x83B PUSH1 0x40 MLOAD SWAP3 DUP3 DUP5 SWAP4 DUP5 MSTORE DUP4 ADD SWAP1 PUSH2 0x795 JUMP JUMPDEST SUB SWAP1 RETURN JUMPDEST DUP5 SWAP2 POP PUSH1 0x2 PUSH1 0x0 MSTORE PUSH32 0x405787FA12A823E0F2B7631CC41B3BA8828B3321CA811111FA75CD3AA3BB5ACE SWAP1 PUSH1 0x0 SWAP2 JUMPDEST DUP6 DUP4 LT PUSH2 0x884 JUMPI POP POP PUSH2 0x827 SWAP4 POP DUP3 ADD ADD CODESIZE PUSH2 0x81A JUMP JUMPDEST DUP1 SLOAD DUP4 DUP10 ADD DUP6 ADD MSTORE DUP8 SWAP5 POP DUP7 SWAP4 SWAP1 SWAP3 ADD SWAP2 DUP2 ADD PUSH2 0x86D JUMP JUMPDEST PUSH1 0xFF NOT AND DUP6 DUP3 ADD MSTORE PUSH2 0x827 SWAP6 ISZERO ISZERO PUSH1 0x5 SHL DUP6 ADD ADD SWAP3 POP CODESIZE SWAP2 POP PUSH2 0x81A SWAP1 POP JUMP JUMPDEST CALLVALUE PUSH2 0x4D6 JUMPI PUSH1 0x20 CALLDATASIZE PUSH1 0x3 NOT ADD SLT PUSH2 0x4D6 JUMPI PUSH1 0x1 PUSH1 0x1 PUSH1 0xA0 SHL SUB PUSH2 0x8DD PUSH2 0x4C0 JUMP JUMPDEST AND PUSH1 0x0 MSTORE PUSH1 0x13 PUSH1 0x20 MSTORE PUSH1 0x20 PUSH1 0x40 PUSH1 0x0 KECCAK256 SLOAD PUSH1 0x40 MLOAD SWAP1 DUP2 MSTORE RETURN JUMPDEST CALLVALUE PUSH2 0x4D6 JUMPI PUSH1 0x0 CALLDATASIZE PUSH1 0x3 NOT ADD SLT PUSH2 0x4D6 JUMPI PUSH1 0x20 PUSH1 0x40 MLOAD PUSH2 0x2710 DUP2 MSTORE RETURN JUMPDEST CALLVALUE PUSH2 0x4D6 JUMPI PUSH1 0x0 CALLDATASIZE PUSH1 0x3 NOT ADD SLT PUSH2 0x4D6 JUMPI PUSH1 0x20 PUSH1 0x4 SLOAD PUSH1 0x40 MLOAD SWAP1 DUP2 MSTORE RETURN JUMPDEST CALLVALUE PUSH2 0x4D6 JUMPI PUSH1 0x20 CALLDATASIZE PUSH1 0x3 NOT ADD SLT PUSH2 0x4D6 JUMPI PUSH1 0x1 PUSH1 0x1 PUSH1 0xA0 SHL SUB PUSH2 0x952 PUSH2 0x4C0 JUMP JUMPDEST AND PUSH1 0x0 MSTORE PUSH1 0x14 PUSH1 0x20 MSTORE PUSH1 0x20 PUSH1 0x40 PUSH1 0x0 KECCAK256 SLOAD PUSH1 0x40 MLOAD SWAP1 DUP2 MSTORE RETURN JUMPDEST CALLVALUE PUSH2 0x4D6 JUMPI PUSH1 0x0 CALLDATASIZE PUSH1 0x3 NOT ADD SLT PUSH2 0x4D6 JUMPI PUSH1 0x20 PUSH1 0x40 MLOAD PUSH2 0x1D4C DUP2 MSTORE RETURN JUMPDEST CALLVALUE PUSH2 0x4D6 JUMPI PUSH1 0x20 CALLDATASIZE PUSH1 0x3 NOT ADD SLT PUSH2 0x4D6 JUMPI PUSH1 0x4 CALLDATALOAD PUSH1 0x0 MSTORE PUSH1 0x5 PUSH1 0x20 MSTORE PUSH1 0x20 PUSH1 0x1 PUSH1 0x40 PUSH1 0x0 KECCAK256 ADD SLOAD PUSH1 0x40 MLOAD SWAP1 DUP2 MSTORE RETURN JUMPDEST SWAP2 DUP2 PUSH1 0x1F DUP5 ADD SLT ISZERO PUSH2 0x4D6 JUMPI DUP3 CALLDATALOAD SWAP2 PUSH1 0x1 PUSH1 0x1 PUSH1 0x40 SHL SUB DUP4 GT PUSH2 0x4D6 JUMPI PUSH1 0x20 DUP4 DUP2 DUP7 ADD SWAP6 ADD ADD GT PUSH2 0x4D6 JUMPI JUMP JUMPDEST CALLVALUE PUSH2 0x4D6 JUMPI PUSH1 0x60 CALLDATASIZE PUSH1 0x3 NOT ADD SLT PUSH2 0x4D6 JUMPI PUSH2 0x9FD PUSH2 0x4C0 JUMP JUMPDEST PUSH2 0xA05 PUSH2 0x68C JUMP JUMPDEST PUSH1 0x44 CALLDATALOAD PUSH1 0x1 PUSH1 0x1 PUSH1 0x40 SHL SUB DUP2 GT PUSH2 0x4D6 JUMPI PUSH2 0xA24 SWAP1 CALLDATASIZE SWAP1 PUSH1 0x4 ADD PUSH2 0x9B7 JUMP JUMPDEST SWAP1 POP PUSH2 0xA2E PUSH2 0x339A JUMP JUMPDEST ISZERO PUSH2 0xAB7 JUMPI PUSH2 0xAB2 DUP2 PUSH2 0xAA6 PUSH32 0x473A74F22F6AC6868D6C168FC84AEF7F2172066BAB41229B471D1C6B85434C82 SWAP4 PUSH2 0xAA1 PUSH1 0x1 DUP1 PUSH1 0xA0 SHL SUB DUP8 AND SWAP7 DUP8 PUSH1 0x0 MSTORE PUSH1 0xD PUSH1 0x20 MSTORE PUSH2 0xA87 PUSH1 0x40 PUSH1 0x0 KECCAK256 PUSH1 0x1 PUSH1 0xFF NOT DUP3 SLOAD AND OR SWAP1 SSTORE JUMP JUMPDEST PUSH1 0x1 PUSH1 0x1 PUSH1 0xA0 SHL SUB AND PUSH1 0x0 SWAP1 DUP2 MSTORE PUSH1 0xE PUSH1 0x20 MSTORE PUSH1 0x40 SWAP1 KECCAK256 SWAP1 JUMP JUMPDEST PUSH2 0x285C JUMP JUMPDEST PUSH1 0x40 MLOAD SWAP2 DUP3 SWAP2 DUP3 PUSH2 0x2376 JUMP JUMPDEST SUB SWAP1 LOG2 STOP JUMPDEST PUSH1 0x40 MLOAD PUSH3 0x461BCD PUSH1 0xE5 SHL DUP2 MSTORE PUSH1 0x20 PUSH1 0x4 DUP3 ADD MSTORE PUSH1 0x14 PUSH1 0x24 DUP3 ADD MSTORE PUSH20 0x4E6F20766572696669636174696F6E2064617461 PUSH1 0x60 SHL PUSH1 0x44 DUP3 ADD MSTORE PUSH1 0x64 SWAP1 REVERT JUMPDEST CALLVALUE PUSH2 0x4D6 JUMPI PUSH1 0x0 CALLDATASIZE PUSH1 0x3 NOT ADD SLT PUSH2 0x4D6 JUMPI PUSH1 0x20 PUSH1 0x40 MLOAD PUSH32 0x3C11D16CBAFFD01DF69CE1C404F6340EE057498F5F00246190EA54220576A848 DUP2 MSTORE RETURN JUMPDEST PUSH4 0x4E487B71 PUSH1 0xE0 SHL PUSH1 0x0 MSTORE PUSH1 0x41 PUSH1 0x4 MSTORE PUSH1 0x24 PUSH1 0x0 REVERT JUMPDEST PUSH2 0x180 DUP2 ADD SWAP1 DUP2 LT PUSH1 0x1 PUSH1 0x1 PUSH1 0x40 SHL SUB DUP3 GT OR PUSH2 0xB60 JUMPI PUSH1 0x40 MSTORE JUMP JUMPDEST PUSH2 0xB2E JUMP JUMPDEST PUSH1 0x20 DUP2 ADD SWAP1 DUP2 LT PUSH1 0x1 PUSH1 0x1 PUSH1 0x40 SHL SUB DUP3 GT OR PUSH2 0xB60 JUMPI PUSH1 0x40 MSTORE JUMP JUMPDEST SWAP1 PUSH1 0x1F DUP1 NOT SWAP2 ADD AND DUP2 ADD SWAP1 DUP2 LT PUSH1 0x1 PUSH1 0x1 PUSH1 0x40 SHL SUB DUP3 GT OR PUSH2 0xB60 JUMPI PUSH1 0x40 MSTORE JUMP JUMPDEST PUSH1 0x40 MLOAD SWAP1 PUSH2 0xBAE DUP3 PUSH2 0xB44 JUMP JUMPDEST JUMP JUMPDEST PUSH1 0x1 PUSH1 0x1 PUSH1 0x40 SHL SUB DUP2 GT PUSH2 0xB60 JUMPI PUSH1 0x5 SHL PUSH1 0x20 ADD SWAP1 JUMP JUMPDEST SWAP1 DUP1 PUSH1 0x1F DUP4 ADD SLT ISZERO PUSH2 0x4D6 JUMPI PUSH1 0x20 SWAP1 DUP3 CALLDATALOAD PUSH2 0xBE1 DUP2 PUSH2 0xBB0 JUMP JUMPDEST SWAP4 PUSH2 0xBEF PUSH1 0x40 MLOAD SWAP6 DUP7 PUSH2 0xB80 JUMP JUMPDEST DUP2 DUP6 MSTORE PUSH1 0x20 DUP1 DUP7 ADD SWAP3 PUSH1 0x5 SHL DUP3 ADD ADD SWAP3 DUP4 GT PUSH2 0x4D6 JUMPI PUSH1 0x20 ADD SWAP1 JUMPDEST DUP3 DUP3 LT PUSH2 0xC18 JUMPI POP POP POP POP SWAP1 JUMP JUMPDEST DUP2 CALLDATALOAD DUP2 MSTORE SWAP1 DUP4 ADD SWAP1 DUP4 ADD PUSH2 0xC0A JUMP JUMPDEST PUSH1 0x1 PUSH1 0x1 PUSH1 0x40 SHL SUB DUP2 GT PUSH2 0xB60 JUMPI PUSH1 0x1F ADD PUSH1 0x1F NOT AND PUSH1 0x20 ADD SWAP1 JUMP JUMPDEST DUP2 PUSH1 0x1F DUP3 ADD SLT ISZERO PUSH2 0x4D6 JUMPI DUP1 CALLDATALOAD SWAP1 PUSH2 0xC59 DUP3 PUSH2 0xC27 JUMP JUMPDEST SWAP3 PUSH2 0xC67 PUSH1 0x40 MLOAD SWAP5 DUP6 PUSH2 0xB80 JUMP JUMPDEST DUP3 DUP5 MSTORE PUSH1 0x20 DUP4 DUP4 ADD ADD GT PUSH2 0x4D6 JUMPI DUP2 PUSH1 0x0 SWAP3 PUSH1 0x20 DUP1 SWAP4 ADD DUP4 DUP7 ADD CALLDATACOPY DUP4 ADD ADD MSTORE SWAP1 JUMP JUMPDEST CALLVALUE PUSH2 0x4D6 JUMPI PUSH1 0xA0 CALLDATASIZE PUSH1 0x3 NOT ADD SLT PUSH2 0x4D6 JUMPI PUSH2 0xCA2 PUSH2 0x4C0 JUMP JUMPDEST PUSH2 0xCAA PUSH2 0x4DB JUMP JUMPDEST SWAP1 PUSH1 0x44 CALLDATALOAD SWAP2 PUSH1 0x1 PUSH1 0x1 PUSH1 0x40 SHL SUB SWAP1 DUP2 DUP5 GT PUSH2 0x4D6 JUMPI PUSH2 0xCCE PUSH1 0x4 SWAP5 CALLDATASIZE SWAP1 DUP7 ADD PUSH2 0xBC7 JUMP JUMPDEST SWAP1 PUSH1 0x64 CALLDATALOAD DUP4 DUP2 GT PUSH2 0x4D6 JUMPI PUSH2 0xCE6 SWAP1 CALLDATASIZE SWAP1 DUP8 ADD PUSH2 0xBC7 JUMP JUMPDEST SWAP3 PUSH1 0x84 CALLDATALOAD SWAP1 DUP2 GT PUSH2 0x4D6 JUMPI PUSH2 0xCFE SWAP1 CALLDATASIZE SWAP1 DUP8 ADD PUSH2 0xC42 JUMP JUMPDEST SWAP4 PUSH1 0x1 PUSH1 0x1 PUSH1 0xA0 SHL SUB DUP1 DUP3 AND SWAP1 CALLER DUP3 EQ ISZERO DUP1 PUSH2 0xD8D JUMPI JUMPDEST PUSH2 0xD60 JUMPI DUP4 AND ISZERO PUSH2 0xD48 JUMPI ISZERO PUSH2 0xD31 JUMPI PUSH2 0xD2F SWAP6 POP PUSH2 0x3CC2 JUMP JUMPDEST STOP JUMPDEST PUSH1 0x40 MLOAD PUSH3 0x6A0D45 PUSH1 0xE2 SHL DUP2 MSTORE PUSH1 0x0 DUP2 DUP9 ADD MSTORE PUSH1 0x24 SWAP1 REVERT JUMPDEST PUSH1 0x40 MLOAD PUSH4 0x2BFA23E7 PUSH1 0xE1 SHL DUP2 MSTORE PUSH1 0x0 DUP2 DUP10 ADD MSTORE PUSH1 0x24 SWAP1 REVERT JUMPDEST PUSH1 0x40 DUP1 MLOAD PUSH4 0x711BEC91 PUSH1 0xE1 SHL DUP2 MSTORE CALLER DUP2 DUP12 ADD SWAP1 DUP2 MSTORE PUSH1 0x1 PUSH1 0x1 PUSH1 0xA0 SHL SUB DUP7 AND PUSH1 0x20 DUP3 ADD MSTORE SWAP1 SWAP2 DUP3 SWAP2 ADD SUB SWAP1 REVERT JUMPDEST POP PUSH1 0x0 DUP3 DUP2 MSTORE PUSH1 0x1 PUSH1 0x20 SWAP1 DUP2 MSTORE PUSH1 0x40 DUP1 DUP4 KECCAK256 CALLER DUP5 MSTORE SWAP1 SWAP2 MSTORE SWAP1 KECCAK256 SLOAD PUSH1 0xFF AND ISZERO PUSH2 0xD15 JUMP JUMPDEST CALLVALUE PUSH2 0x4D6 JUMPI PUSH1 0x40 CALLDATASIZE PUSH1 0x3 NOT ADD SLT PUSH2 0x4D6 JUMPI PUSH2 0xD2F PUSH1 0x4 CALLDATALOAD PUSH2 0xDD0 PUSH2 0x4DB JUMP JUMPDEST SWAP1 DUP1 PUSH1 0x0 MSTORE PUSH1 0x5 PUSH1 0x20 MSTORE PUSH2 0xDEB PUSH1 0x1 PUSH1 0x40 PUSH1 0x0 KECCAK256 ADD SLOAD PUSH2 0x3558 JUMP JUMPDEST PUSH2 0x3579 JUMP JUMPDEST SWAP1 PUSH1 0x4 DUP3 LT ISZERO PUSH2 0x735 JUMPI MSTORE JUMP JUMPDEST PUSH2 0xED2 SWAP1 PUSH1 0x20 DUP2 MSTORE DUP3 MLOAD PUSH1 0x20 DUP3 ADD MSTORE PUSH1 0x20 DUP4 ADD MLOAD PUSH2 0xE29 PUSH2 0x180 SWAP2 DUP3 PUSH1 0x40 DUP6 ADD MSTORE PUSH2 0x1A0 DUP5 ADD SWAP1 PUSH2 0x795 JUMP JUMPDEST PUSH2 0xEC1 PUSH2 0xE48 PUSH1 0x40 DUP8 ADD MLOAD SWAP3 PUSH1 0x1F NOT SWAP4 DUP5 DUP8 DUP4 SUB ADD PUSH1 0x60 DUP9 ADD MSTORE PUSH2 0x795 JUMP JUMPDEST PUSH1 0x60 DUP8 ADD MLOAD PUSH1 0x80 DUP7 ADD MSTORE PUSH1 0x80 DUP8 ADD MLOAD PUSH1 0xA0 DUP7 ADD MSTORE PUSH1 0xA0 DUP8 ADD MLOAD PUSH1 0xC0 DUP7 ADD MSTORE PUSH1 0xC0 DUP8 ADD MLOAD PUSH1 0xE0 DUP7 ADD MSTORE PUSH1 0xE0 DUP8 ADD MLOAD PUSH2 0xE85 PUSH2 0x100 SWAP2 DUP3 DUP9 ADD SWAP1 PUSH2 0xDF0 JUMP JUMPDEST DUP8 ADD MLOAD PUSH2 0xE99 PUSH2 0x120 SWAP2 DUP3 DUP9 ADD SWAP1 ISZERO ISZERO SWAP1 MSTORE JUMP JUMPDEST DUP8 ADD MLOAD PUSH2 0xEAD PUSH2 0x140 SWAP2 DUP3 DUP9 ADD SWAP1 ISZERO ISZERO SWAP1 MSTORE JUMP JUMPDEST DUP8 ADD MLOAD PUSH2 0x160 SWAP4 DUP7 DUP4 SUB ADD DUP5 DUP8 ADD MSTORE PUSH2 0x795 JUMP JUMPDEST SWAP5 ADD MLOAD PUSH1 0x1 PUSH1 0x1 PUSH1 0xA0 SHL SUB AND SWAP2 ADD MSTORE JUMP JUMPDEST SWAP1 JUMP JUMPDEST CALLVALUE PUSH2 0x4D6 JUMPI PUSH1 0x20 CALLDATASIZE PUSH1 0x3 NOT ADD SLT PUSH2 0x4D6 JUMPI PUSH2 0x83B PUSH2 0xF57 PUSH1 0x40 PUSH2 0x160 DUP2 MLOAD PUSH2 0xEFC DUP2 PUSH2 0xB44 JUMP JUMPDEST PUSH1 0x0 SWAP2 DUP2 DUP4 DUP1 SWAP4 MSTORE PUSH1 0x60 PUSH1 0x20 DUP3 ADD MSTORE PUSH1 0x60 DUP6 DUP3 ADD MSTORE DUP3 PUSH1 0x60 DUP3 ADD MSTORE DUP3 PUSH1 0x80 DUP3 ADD MSTORE DUP3 PUSH1 0xA0 DUP3 ADD MSTORE DUP3 PUSH1 0xC0 DUP3 ADD MSTORE DUP3 PUSH1 0xE0 DUP3 ADD MSTORE DUP3 PUSH2 0x100 DUP3 ADD MSTORE DUP3 PUSH2 0x120 DUP3 ADD MSTORE PUSH1 0x60 PUSH2 0x140 DUP3 ADD MSTORE ADD MSTORE PUSH1 0x4 CALLDATALOAD DUP2 MSTORE PUSH1 0x9 PUSH1 0x20 MSTORE KECCAK256 PUSH2 0x2880 JUMP JUMPDEST PUSH1 0x40 MLOAD SWAP2 DUP3 SWAP2 DUP3 PUSH2 0xDFD JUMP JUMPDEST CALLVALUE PUSH2 0x4D6 JUMPI PUSH1 0x0 CALLDATASIZE PUSH1 0x3 NOT ADD SLT PUSH2 0x4D6 JUMPI PUSH1 0x20 PUSH1 0x40 MLOAD PUSH32 0x62045F2F519251643CF4B5F0750D99BBDA23CE869802AD9F6D52577CD08A645A DUP2 MSTORE RETURN JUMPDEST CALLVALUE PUSH2 0x4D6 JUMPI PUSH1 0x40 CALLDATASIZE PUSH1 0x3 NOT ADD SLT PUSH2 0x4D6 JUMPI PUSH2 0xFB7 PUSH2 0x4DB JUMP JUMPDEST CALLER PUSH1 0x1 PUSH1 0x1 PUSH1 0xA0 SHL SUB DUP3 AND SUB PUSH2 0xFD3 JUMPI PUSH2 0xD2F SWAP1 PUSH1 0x4 CALLDATALOAD PUSH2 0x3613 JUMP JUMPDEST PUSH1 0x40 MLOAD PUSH4 0x334BD919 PUSH1 0xE1 SHL DUP2 MSTORE PUSH1 0x4 SWAP1 REVERT JUMPDEST PUSH1 0x60 SWAP1 PUSH1 0x3 NOT ADD SLT PUSH2 0x4D6 JUMPI PUSH1 0x4 CALLDATALOAD SWAP1 PUSH1 0x24 CALLDATALOAD PUSH1 0x1 PUSH1 0x1 PUSH1 0xA0 SHL SUB DUP2 AND DUP2 SUB PUSH2 0x4D6 JUMPI SWAP1 PUSH1 0x44 CALLDATALOAD SWAP1 JUMP JUMPDEST CALLVALUE PUSH2 0x4D6 JUMPI PUSH2 0x101D CALLDATASIZE PUSH2 0xFE5 JUMP JUMPDEST SWAP1 SWAP2 PUSH2 0x1027 PUSH2 0x33F8 JUMP JUMPDEST DUP2 ISZERO PUSH2 0x109A JUMPI PUSH1 0x0 DUP2 DUP2 MSTORE PUSH1 0x20 DUP2 DUP2 MSTORE PUSH1 0x40 DUP1 DUP4 KECCAK256 PUSH1 0x1 PUSH1 0x1 PUSH1 0xA0 SHL SUB DUP8 AND DUP5 MSTORE SWAP1 SWAP2 MSTORE SWAP1 KECCAK256 DUP3 SWAP1 SLOAD LT PUSH2 0x105E JUMPI PUSH2 0xD2F SWAP3 PUSH2 0x36A5 JUMP JUMPDEST PUSH1 0x40 MLOAD PUSH3 0x461BCD PUSH1 0xE5 SHL DUP2 MSTORE PUSH1 0x20 PUSH1 0x4 DUP3 ADD MSTORE PUSH1 0x14 PUSH1 0x24 DUP3 ADD MSTORE PUSH20 0x496E73756666696369656E742062616C616E6365 PUSH1 0x60 SHL PUSH1 0x44 DUP3 ADD MSTORE PUSH1 0x64 SWAP1 REVERT JUMPDEST PUSH1 0x40 MLOAD PUSH3 0x461BCD PUSH1 0xE5 SHL DUP2 MSTORE PUSH1 0x20 PUSH1 0x4 DUP3 ADD MSTORE PUSH1 0x17 PUSH1 0x24 DUP3 ADD MSTORE PUSH32 0x416D6F756E74206D75737420626520706F736974697665000000000000000000 PUSH1 0x44 DUP3 ADD MSTORE PUSH1 0x64 SWAP1 REVERT JUMPDEST CALLVALUE PUSH2 0x4D6 JUMPI PUSH1 0x0 CALLDATASIZE PUSH1 0x3 NOT ADD SLT PUSH2 0x4D6 JUMPI PUSH2 0x10F8 PUSH2 0x3450 JUMP JUMPDEST PUSH1 0x6 SLOAD PUSH1 0xFF DUP2 AND ISZERO PUSH2 0x1137 JUMPI PUSH1 0xFF NOT AND PUSH1 0x6 SSTORE PUSH32 0x5DB9EE0A495BF2E6FF9C91A7834C1BA4FDD244A5E8AA4E537BD38AEAE4B073AA PUSH1 0x20 PUSH1 0x40 MLOAD CALLER DUP2 MSTORE LOG1 STOP JUMPDEST PUSH1 0x40 MLOAD PUSH4 0x8DFC202B PUSH1 0xE0 SHL DUP2 MSTORE PUSH1 0x4 SWAP1 REVERT JUMPDEST SWAP1 PUSH1 0x40 PUSH1 0x3 NOT DUP4 ADD SLT PUSH2 0x4D6 JUMPI PUSH1 0x4 CALLDATALOAD PUSH1 0x1 PUSH1 0x1 PUSH1 0xA0 SHL SUB DUP2 AND DUP2 SUB PUSH2 0x4D6 JUMPI SWAP2 PUSH1 0x24 CALLDATALOAD SWAP1 PUSH1 0x1 PUSH1 0x1 PUSH1 0x40 SHL SUB DUP3 GT PUSH2 0x4D6 JUMPI PUSH2 0x1188 SWAP2 PUSH1 0x4 ADD PUSH2 0x9B7 JUMP JUMPDEST SWAP1 SWAP2 JUMP JUMPDEST CALLVALUE PUSH2 0x4D6 JUMPI PUSH32 0xED82F44F688727207518136F7E93AE71DC311562B9F1841866814C6DBE3FC487 PUSH2 0x11BB CALLDATASIZE PUSH2 0x1149 JUMP JUMPDEST SWAP1 SWAP3 SWAP2 PUSH2 0x11C6 PUSH2 0x339A JUMP JUMPDEST PUSH1 0x1 PUSH1 0x1 PUSH1 0xA0 SHL SUB AND PUSH1 0x0 DUP2 DUP2 MSTORE PUSH1 0xD PUSH1 0x20 MSTORE PUSH1 0x40 DUP1 DUP3 KECCAK256 DUP1 SLOAD PUSH1 0xFF NOT AND SWAP1 SSTORE MLOAD SWAP1 SWAP5 SWAP2 SWAP4 DUP5 SWAP4 SWAP1 SWAP3 DUP3 SWAP2 PUSH2 0x11FC SWAP2 TIMESTAMP DUP5 PUSH2 0x2968 JUMP JUMPDEST SUB SWAP1 LOG2 PUSH32 0x535611FB62FA2A833988F283B779E417E996813E44046F521D76C17B5943B08C DUP3 DUP1 LOG2 DUP1 RETURN JUMPDEST CALLVALUE PUSH2 0x4D6 JUMPI PUSH1 0x20 CALLDATASIZE PUSH1 0x3 NOT ADD SLT PUSH2 0x4D6 JUMPI PUSH1 0x4 CALLDATALOAD PUSH1 0x0 MSTORE PUSH1 0x11 PUSH1 0x20 MSTORE PUSH1 0x20 PUSH1 0x40 PUSH1 0x0 KECCAK256 SLOAD ISZERO ISZERO PUSH1 0x40 MLOAD SWAP1 DUP2 MSTORE RETURN JUMPDEST SWAP1 DUP2 MLOAD DUP1 DUP3 MSTORE PUSH1 0x20 DUP1 DUP1 SWAP4 ADD SWAP4 ADD SWAP2 PUSH1 0x0 JUMPDEST DUP3 DUP2 LT PUSH2 0x1274 JUMPI POP POP POP POP SWAP1 JUMP JUMPDEST DUP4 MLOAD DUP6 MSTORE SWAP4 DUP2 ADD SWAP4 SWAP3 DUP2 ADD SWAP3 PUSH1 0x1 ADD PUSH2 0x1266 JUMP JUMPDEST SWAP1 PUSH1 0x20 PUSH2 0xED2 SWAP3 DUP2 DUP2 MSTORE ADD SWAP1 PUSH2 0x1254 JUMP JUMPDEST CALLVALUE PUSH2 0x4D6 JUMPI PUSH1 0x40 CALLDATASIZE PUSH1 0x3 NOT ADD SLT PUSH2 0x4D6 JUMPI PUSH1 0x4 CALLDATALOAD PUSH1 0x1 PUSH1 0x1 PUSH1 0x40 SHL SUB DUP1 DUP3 GT PUSH2 0x4D6 JUMPI CALLDATASIZE PUSH1 0x23 DUP4 ADD SLT ISZERO PUSH2 0x4D6 JUMPI DUP2 PUSH1 0x4 ADD CALLDATALOAD PUSH2 0x12D5 DUP2 PUSH2 0xBB0 JUMP JUMPDEST SWAP3 PUSH2 0x12E3 PUSH1 0x40 MLOAD SWAP5 DUP6 PUSH2 0xB80 JUMP JUMPDEST DUP2 DUP5 MSTORE PUSH1 0x20 SWAP2 PUSH1 0x24 PUSH1 0x20 DUP7 ADD SWAP2 PUSH1 0x5 SHL DUP4 ADD ADD SWAP2 CALLDATASIZE DUP4 GT PUSH2 0x4D6 JUMPI PUSH1 0x24 ADD SWAP1 JUMPDEST DUP3 DUP3 LT PUSH2 0x133C JUMPI DUP6 PUSH1 0x24 CALLDATALOAD DUP7 DUP2 GT PUSH2 0x4D6 JUMPI PUSH2 0x83B SWAP2 PUSH2 0x132A PUSH2 0x1330 SWAP3 CALLDATASIZE SWAP1 PUSH1 0x4 ADD PUSH2 0xBC7 JUMP JUMPDEST SWAP1 PUSH2 0x29AE JUMP JUMPDEST PUSH1 0x40 MLOAD SWAP2 DUP3 SWAP2 DUP3 PUSH2 0x1288 JUMP JUMPDEST DUP4 DUP1 SWAP2 PUSH2 0x1348 DUP5 PUSH2 0x51D JUMP JUMPDEST DUP2 MSTORE ADD SWAP2 ADD SWAP1 PUSH2 0x1303 JUMP JUMPDEST CALLVALUE PUSH2 0x4D6 JUMPI PUSH1 0x20 CALLDATASIZE PUSH1 0x3 NOT ADD SLT PUSH2 0x4D6 JUMPI PUSH1 0x4 CALLDATALOAD PUSH1 0x0 MSTORE PUSH1 0x3 PUSH1 0x20 MSTORE PUSH1 0x20 PUSH1 0x40 PUSH1 0x0 KECCAK256 SLOAD ISZERO ISZERO PUSH1 0x40 MLOAD SWAP1 DUP2 MSTORE RETURN JUMPDEST CALLVALUE PUSH2 0x4D6 JUMPI PUSH1 0x0 CALLDATASIZE PUSH1 0x3 NOT ADD SLT PUSH2 0x4D6 JUMPI PUSH1 0x40 MLOAD DUP1 PUSH1 0x10 SLOAD SWAP2 DUP3 DUP2 MSTORE PUSH1 0x20 DUP1 SWAP2 ADD SWAP3 PUSH1 0x10 PUSH1 0x0 MSTORE PUSH32 0x1B6847DC741A1B0CD08D278845F9D819D87B734759AFB55FE2DE5CB82A9AE672 SWAP2 PUSH1 0x0 SWAP1 JUMPDEST DUP3 DUP3 LT PUSH2 0x13F9 JUMPI PUSH2 0x83B DUP6 PUSH2 0x13E5 DUP2 DUP10 SUB DUP3 PUSH2 0xB80 JUMP JUMPDEST PUSH1 0x40 MLOAD SWAP2 DUP3 SWAP2 PUSH1 0x20 DUP4 MSTORE PUSH1 0x20 DUP4 ADD SWAP1 PUSH2 0x1254 JUMP JUMPDEST DUP4 SLOAD DUP7 MSTORE SWAP5 DUP6 ADD SWAP5 PUSH1 0x1 SWAP4 DUP5 ADD SWAP4 SWAP1 SWAP2 ADD SWAP1 PUSH2 0x13CE JUMP JUMPDEST CALLVALUE PUSH2 0x4D6 JUMPI PUSH1 0x0 CALLDATASIZE PUSH1 0x3 NOT ADD SLT PUSH2 0x4D6 JUMPI PUSH1 0x20 PUSH1 0x40 MLOAD PUSH32 0x28F5A99355973CC89255B8C4AC88405F27C78DED7608B040EE77A8BDF44D15E2 DUP2 MSTORE RETURN JUMPDEST CALLVALUE PUSH2 0x4D6 JUMPI PUSH1 0x0 CALLDATASIZE PUSH1 0x3 NOT ADD SLT PUSH2 0x4D6 JUMPI PUSH1 0x20 PUSH1 0x40 MLOAD PUSH2 0x7D0 DUP2 MSTORE RETURN JUMPDEST CALLVALUE PUSH2 0x4D6 JUMPI PUSH1 0x0 CALLDATASIZE PUSH1 0x3 NOT ADD SLT PUSH2 0x4D6 JUMPI PUSH1 0x20 PUSH1 0x40 MLOAD PUSH2 0x3A98 DUP2 MSTORE RETURN JUMPDEST CALLVALUE PUSH2 0x4D6 JUMPI PUSH1 0x0 CALLDATASIZE PUSH1 0x3 NOT ADD SLT PUSH2 0x4D6 JUMPI PUSH1 0x20 PUSH1 0xFF PUSH1 0x6 SLOAD AND PUSH1 0x40 MLOAD SWAP1 ISZERO ISZERO DUP2 MSTORE RETURN JUMPDEST CALLVALUE PUSH2 0x4D6 JUMPI PUSH1 0x0 CALLDATASIZE PUSH1 0x3 NOT ADD SLT PUSH2 0x4D6 JUMPI PUSH1 0x20 PUSH1 0x40 MLOAD PUSH2 0xBB8 DUP2 MSTORE RETURN JUMPDEST CALLVALUE PUSH2 0x4D6 JUMPI PUSH1 0x60 CALLDATASIZE PUSH1 0x3 NOT ADD SLT PUSH2 0x4D6 JUMPI PUSH1 0x4 CALLDATALOAD PUSH1 0x24 CALLDATALOAD PUSH1 0x1 PUSH1 0x1 PUSH1 0x40 SHL SUB DUP2 GT PUSH2 0x4D6 JUMPI PUSH2 0x14F8 SWAP1 CALLDATASIZE SWAP1 PUSH1 0x4 ADD PUSH2 0x9B7 JUMP JUMPDEST PUSH2 0x1500 PUSH2 0x4F1 JUMP JUMPDEST SWAP2 PUSH2 0x1509 PUSH2 0x34A8 JUMP JUMPDEST DUP4 PUSH1 0x0 MSTORE PUSH1 0x9 PUSH1 0x20 MSTORE PUSH2 0x1529 PUSH1 0xFF PUSH1 0x7 PUSH1 0x40 PUSH1 0x0 KECCAK256 ADD SLOAD PUSH1 0x8 SHR AND PUSH2 0x2A6D JUMP JUMPDEST PUSH1 0x1 PUSH1 0x1 PUSH1 0xA0 SHL SUB DUP4 AND ISZERO PUSH2 0x15CF JUMPI PUSH2 0xAB2 PUSH32 0x421276D75471DEC1AF882730784CEB99CD90745BCB3355FFFE059AAE8CFCEFDC SWAP4 PUSH2 0x1568 DUP5 ISZERO ISZERO PUSH2 0x2AAF JUMP JUMPDEST PUSH2 0x1589 DUP5 DUP5 PUSH1 0x8 PUSH2 0x1583 DUP11 PUSH1 0x0 MSTORE PUSH1 0x9 PUSH1 0x20 MSTORE PUSH1 0x40 PUSH1 0x0 KECCAK256 SWAP1 JUMP JUMPDEST ADD PUSH2 0x2B51 JUMP JUMPDEST PUSH2 0x15C3 DUP2 PUSH1 0x9 PUSH2 0x15A3 DUP10 PUSH1 0x0 MSTORE PUSH1 0x9 PUSH1 0x20 MSTORE PUSH1 0x40 PUSH1 0x0 KECCAK256 SWAP1 JUMP JUMPDEST ADD DUP1 SLOAD PUSH1 0x1 PUSH1 0x1 PUSH1 0xA0 SHL SUB NOT AND PUSH1 0x1 PUSH1 0x1 PUSH1 0xA0 SHL SUB SWAP1 SWAP3 AND SWAP2 SWAP1 SWAP2 OR SWAP1 SSTORE JUMP JUMPDEST PUSH1 0x40 MLOAD SWAP4 DUP5 SWAP4 DUP5 PUSH2 0x2C1F JUMP JUMPDEST PUSH1 0x40 MLOAD PUSH3 0x461BCD PUSH1 0xE5 SHL DUP2 MSTORE PUSH1 0x20 PUSH1 0x4 DUP3 ADD MSTORE PUSH1 0x12 PUSH1 0x24 DUP3 ADD MSTORE PUSH18 0x10DD5CDD1BD91A585B881C995C5D5A5C9959 PUSH1 0x72 SHL PUSH1 0x44 DUP3 ADD MSTORE PUSH1 0x64 SWAP1 REVERT JUMPDEST CALLVALUE PUSH2 0x4D6 JUMPI PUSH1 0x60 CALLDATASIZE PUSH1 0x3 NOT ADD SLT PUSH2 0x4D6 JUMPI PUSH2 0x1622 PUSH2 0x4C0 JUMP JUMPDEST PUSH1 0x1 PUSH1 0x1 PUSH1 0x40 SHL SUB PUSH1 0x24 CALLDATALOAD DUP2 DUP2 GT PUSH2 0x4D6 JUMPI PUSH2 0x1642 SWAP1 CALLDATASIZE SWAP1 PUSH1 0x4 ADD PUSH2 0xBC7 JUMP JUMPDEST SWAP1 PUSH1 0x44 CALLDATALOAD SWAP1 DUP2 GT PUSH2 0x4D6 JUMPI PUSH2 0x165B SWAP1 CALLDATASIZE SWAP1 PUSH1 0x4 ADD PUSH2 0xBC7 JUMP JUMPDEST SWAP1 PUSH1 0x1 PUSH1 0x1 PUSH1 0xA0 SHL SUB DUP4 AND CALLER DUP2 EQ ISZERO DUP1 PUSH2 0x16D0 JUMPI JUMPDEST PUSH2 0x16A9 JUMPI ISZERO PUSH2 0x1691 JUMPI PUSH2 0xD2F SWAP3 PUSH1 0x0 PUSH1 0x40 MLOAD PUSH2 0x168B DUP2 PUSH2 0xB65 JUMP JUMPDEST MSTORE PUSH2 0x3A70 JUMP JUMPDEST PUSH1 0x40 MLOAD PUSH3 0x6A0D45 PUSH1 0xE2 SHL DUP2 MSTORE PUSH1 0x0 PUSH1 0x4 DUP3 ADD MSTORE PUSH1 0x24 SWAP1 REVERT JUMPDEST PUSH1 0x40 MLOAD PUSH4 0x711BEC91 PUSH1 0xE1 SHL DUP2 MSTORE CALLER PUSH1 0x4 DUP3 ADD MSTORE PUSH1 0x1 PUSH1 0x1 PUSH1 0xA0 SHL SUB DUP6 AND PUSH1 0x24 DUP3 ADD MSTORE PUSH1 0x44 SWAP1 REVERT JUMPDEST POP PUSH1 0x0 DUP2 DUP2 MSTORE PUSH1 0x1 PUSH1 0x20 SWAP1 DUP2 MSTORE PUSH1 0x40 DUP1 DUP4 KECCAK256 CALLER DUP5 MSTORE SWAP1 SWAP2 MSTORE SWAP1 KECCAK256 SLOAD PUSH1 0xFF AND ISZERO PUSH2 0x1670 JUMP JUMPDEST CALLVALUE PUSH2 0x4D6 JUMPI PUSH1 0x20 CALLDATASIZE PUSH1 0x3 NOT ADD SLT PUSH2 0x4D6 JUMPI PUSH1 0x4 CALLDATALOAD PUSH1 0x4 DUP2 LT ISZERO PUSH2 0x4D6 JUMPI PUSH2 0x171C PUSH1 0x20 SWAP2 PUSH2 0x2C38 JUMP JUMPDEST PUSH1 0x40 MLOAD SWAP1 DUP2 MSTORE RETURN JUMPDEST CALLVALUE PUSH2 0x4D6 JUMPI PUSH1 0x40 CALLDATASIZE PUSH1 0x3 NOT ADD SLT PUSH2 0x4D6 JUMPI PUSH2 0x173D PUSH2 0x4C0 JUMP JUMPDEST PUSH32 0x73D81B71910F8BD08CF791875865C73764D8D891AF9DB3D5529A9C6574EF6DD1 PUSH2 0xAB2 PUSH1 0x24 CALLDATALOAD SWAP3 PUSH2 0x176D PUSH2 0x339A JUMP JUMPDEST PUSH1 0x1 DUP1 PUSH1 0xA0 SHL SUB AND SWAP3 DUP4 PUSH1 0x0 MSTORE PUSH1 0x14 PUSH1 0x20 MSTORE DUP1 PUSH1 0x40 PUSH1 0x0 KECCAK256 SSTORE PUSH1 0x40 MLOAD SWAP2 DUP3 SWAP2 TIMESTAMP DUP4 PUSH1 0x20 SWAP1 SWAP4 SWAP3 SWAP2 SWAP4 PUSH1 0x40 DUP2 ADD SWAP5 DUP2 MSTORE ADD MSTORE JUMP JUMPDEST CALLVALUE PUSH2 0x4D6 JUMPI PUSH1 0x40 CALLDATASIZE PUSH1 0x3 NOT ADD SLT PUSH2 0x4D6 JUMPI PUSH1 0x20 PUSH2 0x5E9 PUSH2 0x17BE PUSH2 0x68C JUMP JUMPDEST PUSH1 0x4 CALLDATALOAD PUSH1 0x0 MSTORE PUSH1 0xB DUP4 MSTORE PUSH1 0x40 PUSH1 0x0 KECCAK256 PUSH2 0x74B JUMP JUMPDEST CALLVALUE PUSH2 0x4D6 JUMPI PUSH1 0x0 CALLDATASIZE PUSH1 0x3 NOT ADD SLT PUSH2 0x4D6 JUMPI PUSH1 0x20 PUSH1 0x10 SLOAD PUSH1 0x40 MLOAD SWAP1 DUP2 MSTORE RETURN JUMPDEST CALLVALUE PUSH2 0x4D6 JUMPI PUSH1 0x20 CALLDATASIZE PUSH1 0x3 NOT ADD SLT PUSH2 0x4D6 JUMPI PUSH1 0x4 CALLDATALOAD PUSH2 0x180C PUSH2 0x34A8 JUMP JUMPDEST DUP1 PUSH1 0x0 MSTORE PUSH1 0x9 PUSH1 0x20 MSTORE PUSH32 0x97997C603FECB6522EE76AC10B6A193D5CE1DB7B82C8271B2A27A63F022E53B5 PUSH1 0x60 PUSH1 0x4 PUSH1 0x40 PUSH1 0x0 KECCAK256 PUSH2 0x1852 PUSH1 0xFF PUSH1 0x7 DUP4 ADD SLOAD PUSH1 0x8 SHR AND PUSH2 0x2A6D JUMP JUMPDEST ADD SLOAD PUSH1 0x40 MLOAD SWAP1 TIMESTAMP DUP3 MSTORE PUSH1 0x0 PUSH1 0x20 DUP4 ADD MSTORE PUSH1 0x40 DUP3 ADD MSTORE LOG2 STOP JUMPDEST CALLVALUE PUSH2 0x4D6 JUMPI PUSH1 0x20 CALLDATASIZE PUSH1 0x3 NOT ADD SLT PUSH2 0x4D6 JUMPI PUSH1 0x1 PUSH1 0x1 PUSH1 0xA0 SHL SUB PUSH2 0x188B PUSH2 0x4C0 JUMP JUMPDEST AND PUSH1 0x0 MSTORE PUSH1 0x12 PUSH1 0x20 MSTORE PUSH1 0x20 PUSH1 0x40 PUSH1 0x0 KECCAK256 SLOAD PUSH1 0x40 MLOAD SWAP1 DUP2 MSTORE RETURN JUMPDEST CALLVALUE PUSH2 0x4D6 JUMPI PUSH1 0x20 CALLDATASIZE PUSH1 0x3 NOT ADD SLT PUSH2 0x4D6 JUMPI PUSH2 0x18BD PUSH2 0x34A8 JUMP JUMPDEST PUSH1 0x40 MLOAD TIMESTAMP DUP2 MSTORE CALLER SWAP1 PUSH32 0xE6B09768AC52CDF77F7335552A3533EFCA4C4C467299850E0E7AF38A1D8B52B1 PUSH1 0x20 PUSH1 0x4 CALLDATALOAD SWAP3 LOG3 STOP JUMPDEST CALLVALUE PUSH2 0x4D6 JUMPI PUSH1 0x0 CALLDATASIZE PUSH1 0x3 NOT ADD SLT PUSH2 0x4D6 JUMPI PUSH1 0x20 PUSH1 0x40 MLOAD PUSH2 0x57E4 DUP2 MSTORE RETURN JUMPDEST CALLVALUE PUSH2 0x4D6 JUMPI PUSH1 0x20 CALLDATASIZE PUSH1 0x3 NOT ADD SLT PUSH2 0x4D6 JUMPI CALLER PUSH1 0x0 SWAP1 DUP2 MSTORE PUSH32 0xC54CC0CAD80E711AFF5B4FCA3E13682B9A8FCD7FF4679FBC81D0391D16E477BD PUSH1 0x20 MSTORE PUSH1 0x40 SWAP1 KECCAK256 SLOAD PUSH32 0x62045F2F519251643CF4B5F0750D99BBDA23CE869802AD9F6D52577CD08A645A SWAP1 PUSH1 0xFF AND ISZERO PUSH2 0x1981 JUMPI PUSH2 0xD2F PUSH1 0x4 CALLDATALOAD PUSH2 0x38AC JUMP JUMPDEST PUSH1 0x44 SWAP1 PUSH1 0x40 MLOAD SWAP1 PUSH4 0xE2517D3F PUSH1 0xE0 SHL DUP3 MSTORE CALLER PUSH1 0x4 DUP4 ADD MSTORE PUSH1 0x24 DUP3 ADD MSTORE REVERT JUMPDEST CALLVALUE PUSH2 0x4D6 JUMPI PUSH1 0x0 CALLDATASIZE PUSH1 0x3 NOT ADD SLT PUSH2 0x4D6 JUMPI PUSH2 0x19B8 PUSH2 0x3450 JUMP JUMPDEST PUSH2 0x19C0 PUSH2 0x396B JUMP JUMPDEST PUSH1 0x1 PUSH1 0xFF NOT PUSH1 0x6 SLOAD AND OR PUSH1 0x6 SSTORE PUSH32 0x62E78CEA01BEE320CD4E420270B5EA74000D11B0C9F74754EBDBFC544B05A258 PUSH1 0x20 PUSH1 0x40 MLOAD CALLER DUP2 MSTORE LOG1 STOP JUMPDEST CALLVALUE PUSH2 0x4D6 JUMPI PUSH32 0x71FF24386D252605E27E246DB81BBA937113D7887D04711CEFA5FE7295437566 PUSH2 0x1A28 CALLDATASIZE PUSH2 0x1149 JUMP JUMPDEST SWAP1 SWAP3 SWAP2 PUSH2 0x1A33 PUSH2 0x339A JUMP JUMPDEST PUSH1 0x1 DUP1 PUSH1 0xA0 SHL SUB AND SWAP2 DUP3 SWAP2 PUSH1 0x0 SWAP5 DUP4 DUP7 MSTORE PUSH1 0x12 PUSH1 0x20 MSTORE DUP6 PUSH1 0x40 DUP2 KECCAK256 SSTORE PUSH1 0x13 PUSH1 0x20 MSTORE DUP6 PUSH1 0x40 DUP2 KECCAK256 SSTORE PUSH1 0xD PUSH1 0x20 MSTORE PUSH1 0x40 DUP7 KECCAK256 PUSH1 0xFF NOT DUP2 SLOAD AND SWAP1 SSTORE PUSH2 0x11FC PUSH1 0x40 MLOAD SWAP3 DUP4 SWAP3 TIMESTAMP DUP5 PUSH2 0x2968 JUMP JUMPDEST CALLVALUE PUSH2 0x4D6 JUMPI PUSH1 0x20 CALLDATASIZE PUSH1 0x3 NOT ADD SLT PUSH2 0x4D6 JUMPI PUSH2 0x1A94 PUSH2 0x4C0 JUMP JUMPDEST PUSH2 0x1A9C PUSH2 0x339A JUMP JUMPDEST PUSH1 0x1 PUSH1 0x1 PUSH1 0xA0 SHL SUB AND PUSH1 0x0 DUP2 DUP2 MSTORE PUSH1 0xD PUSH1 0x20 MSTORE PUSH1 0x40 DUP2 KECCAK256 DUP1 SLOAD PUSH1 0xFF NOT AND SWAP1 SSTORE SWAP1 PUSH32 0x535611FB62FA2A833988F283B779E417E996813E44046F521D76C17B5943B08C DUP3 DUP1 LOG2 DUP1 RETURN JUMPDEST CALLVALUE PUSH2 0x4D6 JUMPI PUSH1 0x20 CALLDATASIZE PUSH1 0x3 NOT ADD SLT PUSH2 0x4D6 JUMPI PUSH1 0x0 PUSH1 0x4 DUP1 CALLDATALOAD SWAP1 DUP3 JUMPDEST PUSH1 0xFF DUP5 AND PUSH1 0x3 DUP2 GT PUSH2 0x1B7B JUMPI DUP3 DUP2 LT ISZERO PUSH2 0x1B66 JUMPI PUSH2 0x1B60 SWAP2 PUSH2 0x1B54 PUSH2 0x1B4C DUP4 PUSH2 0x1B46 PUSH2 0x1B3F PUSH2 0x1B5A SWAP7 PUSH2 0x1B3A DUP12 PUSH1 0x0 MSTORE PUSH1 0xC PUSH1 0x20 MSTORE PUSH1 0x40 PUSH1 0x0 KECCAK256 SWAP1 JUMP JUMPDEST PUSH2 0x74B JUMP JUMPDEST SLOAD SWAP2 PUSH2 0x2C38 JUMP JUMPDEST SWAP1 PUSH2 0x2D1A JUMP JUMPDEST PUSH2 0x2710 SWAP1 DIV SWAP1 JUMP JUMPDEST SWAP1 PUSH2 0x2D2D JUMP JUMPDEST SWAP4 PUSH2 0x2C99 JUMP JUMPDEST SWAP3 PUSH2 0x1AFD JUMP JUMPDEST PUSH1 0x21 DUP4 PUSH4 0x4E487B71 PUSH1 0xE0 SHL PUSH1 0x0 MSTORE MSTORE PUSH1 0x24 PUSH1 0x0 REVERT JUMPDEST PUSH1 0x40 MLOAD DUP3 DUP2 MSTORE PUSH1 0x20 SWAP1 RETURN JUMPDEST CALLVALUE PUSH2 0x4D6 JUMPI PUSH2 0x1B94 CALLDATASIZE PUSH2 0xFE5 JUMP JUMPDEST PUSH2 0x1B9C PUSH2 0x3500 JUMP JUMPDEST PUSH1 0x2 PUSH1 0x7 SLOAD EQ PUSH2 0x1DE1 JUMPI PUSH1 0x2 PUSH1 0x7 SSTORE PUSH2 0x1BB3 PUSH2 0x396B JUMP JUMPDEST PUSH1 0x1 PUSH1 0x1 PUSH1 0xA0 SHL SUB DUP3 AND PUSH1 0x0 SWAP1 DUP2 MSTORE PUSH1 0xD PUSH1 0x20 MSTORE PUSH1 0x40 SWAP1 KECCAK256 PUSH2 0x1BE0 SWAP1 PUSH2 0x1BDB SWAP1 JUMPDEST SLOAD PUSH1 0xFF AND SWAP1 JUMP JUMPDEST PUSH2 0x2D3A JUMP JUMPDEST DUP3 PUSH32 0x689E2353C59BCD8C1C4352DDD0F21299329AD92442D331648747E4E865ACDE74 PUSH2 0x1C5F PUSH2 0x1D6B PUSH2 0x1C1C DUP5 PUSH1 0x0 MSTORE PUSH1 0x9 PUSH1 0x20 MSTORE PUSH1 0x40 PUSH1 0x0 KECCAK256 SWAP1 JUMP JUMPDEST PUSH1 0x4 PUSH1 0x7 DUP3 ADD SWAP2 PUSH2 0x1CD5 PUSH2 0x1CCD PUSH1 0xFF PUSH2 0x1C95 DUP13 DUP3 PUSH2 0x1C76 PUSH2 0x1BD4 DUP11 SLOAD SWAP4 PUSH2 0x1C47 DUP5 DUP7 PUSH1 0x8 SHR AND PUSH2 0x2A6D JUMP JUMPDEST PUSH1 0x9 DUP11 ADD SLOAD PUSH1 0x1 PUSH1 0x1 PUSH1 0xA0 SHL SUB SWAP15 SWAP1 DUP16 AND ISZERO ISZERO PUSH2 0x2D7E JUMP JUMPDEST DUP4 DUP6 PUSH1 0x10 SHR AND ISZERO DUP1 ISZERO PUSH2 0x1DD3 JUMPI JUMPDEST PUSH2 0xA87 SWAP1 PUSH2 0x2DBB JUMP JUMPDEST SWAP2 PUSH2 0x1C80 DUP4 PUSH2 0x72B JUMP JUMPDEST AND SWAP3 DUP4 SWAP2 PUSH2 0x1C8D DUP4 PUSH2 0x72B JUMP JUMPDEST AND LT ISZERO PUSH2 0x2DF8 JUMP JUMPDEST PUSH2 0x1CC6 PUSH2 0x1CB0 DUP3 PUSH2 0x1B3A DUP14 PUSH1 0x0 MSTORE PUSH1 0xB PUSH1 0x20 MSTORE PUSH1 0x40 PUSH1 0x0 KECCAK256 SWAP1 JUMP JUMPDEST SLOAD SWAP2 PUSH2 0x1B3A DUP13 PUSH1 0x0 MSTORE PUSH1 0xC PUSH1 0x20 MSTORE PUSH1 0x40 PUSH1 0x0 KECCAK256 SWAP1 JUMP JUMPDEST SLOAD SWAP1 PUSH2 0x2E44 JUMP JUMPDEST DUP10 GT ISZERO PUSH2 0x2E51 JUMP JUMPDEST PUSH2 0x1CE8 PUSH2 0x1CE0 PUSH2 0x2E9D JUMP JUMPDEST DUP10 DUP10 DUP13 PUSH2 0x3989 JUMP JUMPDEST ADD PUSH2 0x1CF4 DUP8 DUP3 SLOAD PUSH2 0x2D2D JUMP JUMPDEST SWAP1 SSTORE PUSH2 0x1D18 PUSH2 0x1D0D DUP7 PUSH1 0x0 MSTORE PUSH1 0xC PUSH1 0x20 MSTORE PUSH1 0x40 PUSH1 0x0 KECCAK256 SWAP1 JUMP JUMPDEST DUP3 SLOAD PUSH1 0xFF AND SWAP1 PUSH2 0x74B JUMP JUMPDEST PUSH2 0x1D23 DUP8 DUP3 SLOAD PUSH2 0x2D2D JUMP JUMPDEST SWAP1 SSTORE PUSH2 0x1D57 PUSH2 0x1D0D DUP9 PUSH2 0x1D40 DUP9 PUSH1 0x0 MSTORE PUSH1 0xF PUSH1 0x20 MSTORE PUSH1 0x40 PUSH1 0x0 KECCAK256 SWAP1 JUMP JUMPDEST SWAP1 PUSH1 0x1 DUP1 PUSH1 0xA0 SHL SUB AND PUSH1 0x0 MSTORE PUSH1 0x20 MSTORE PUSH1 0x40 PUSH1 0x0 KECCAK256 SWAP1 JUMP JUMPDEST PUSH2 0x1D62 DUP8 DUP3 SLOAD PUSH2 0x2D2D JUMP JUMPDEST SWAP1 SSTORE SLOAD PUSH1 0xFF AND SWAP1 JUMP JUMPDEST SWAP5 PUSH2 0x1D7E DUP7 PUSH1 0x40 MLOAD SWAP4 DUP5 SWAP4 AND SWAP7 DUP4 PUSH2 0x2EB0 JUMP JUMPDEST SUB SWAP1 LOG3 PUSH2 0x1DB2 PUSH2 0x1D9C DUP3 PUSH2 0x1B3A DUP6 PUSH1 0x0 MSTORE PUSH1 0xC PUSH1 0x20 MSTORE PUSH1 0x40 PUSH1 0x0 KECCAK256 SWAP1 JUMP JUMPDEST SLOAD SWAP2 PUSH2 0x1B3A DUP5 PUSH1 0x0 MSTORE PUSH1 0xB PUSH1 0x20 MSTORE PUSH1 0x40 PUSH1 0x0 KECCAK256 SWAP1 JUMP JUMPDEST SLOAD GT ISZERO PUSH2 0x1DC4 JUMPI JUMPDEST PUSH2 0xD2F PUSH1 0x1 PUSH1 0x7 SSTORE JUMP JUMPDEST PUSH2 0x1DCD SWAP1 PUSH2 0x38AC JUMP JUMPDEST CODESIZE PUSH2 0x1DBA JUMP JUMPDEST POP PUSH1 0x6 DUP11 ADD SLOAD TIMESTAMP GT ISZERO PUSH2 0x1C6D JUMP JUMPDEST PUSH1 0x40 MLOAD PUSH4 0x3EE5AEB5 PUSH1 0xE0 SHL DUP2 MSTORE PUSH1 0x4 SWAP1 REVERT JUMPDEST CALLVALUE PUSH2 0x4D6 JUMPI PUSH1 0x40 CALLDATASIZE PUSH1 0x3 NOT ADD SLT PUSH2 0x4D6 JUMPI PUSH1 0x20 PUSH1 0xFF PUSH2 0x1E39 PUSH2 0x1E13 PUSH2 0x4DB JUMP JUMPDEST PUSH1 0x4 CALLDATALOAD PUSH1 0x0 MSTORE PUSH1 0x5 DUP5 MSTORE PUSH1 0x40 PUSH1 0x0 KECCAK256 SWAP1 PUSH1 0x1 DUP1 PUSH1 0xA0 SHL SUB AND PUSH1 0x0 MSTORE PUSH1 0x20 MSTORE PUSH1 0x40 PUSH1 0x0 KECCAK256 SWAP1 JUMP JUMPDEST SLOAD AND PUSH1 0x40 MLOAD SWAP1 ISZERO ISZERO DUP2 MSTORE RETURN JUMPDEST CALLVALUE PUSH2 0x4D6 JUMPI PUSH1 0x20 CALLDATASIZE PUSH1 0x3 NOT ADD SLT PUSH2 0x4D6 JUMPI PUSH1 0x1 PUSH1 0x1 PUSH1 0xA0 SHL SUB PUSH2 0x1E66 PUSH2 0x4C0 JUMP JUMPDEST AND PUSH1 0x0 MSTORE PUSH1 0xD PUSH1 0x20 MSTORE PUSH1 0x20 PUSH1 0xFF PUSH1 0x40 PUSH1 0x0 KECCAK256 SLOAD AND PUSH1 0x40 MLOAD SWAP1 ISZERO ISZERO DUP2 MSTORE RETURN JUMPDEST CALLVALUE PUSH2 0x4D6 JUMPI PUSH1 0x60 CALLDATASIZE PUSH1 0x3 NOT ADD SLT PUSH2 0x4D6 JUMPI PUSH2 0x1E9D PUSH2 0x4DB JUMP JUMPDEST PUSH1 0x44 CALLDATALOAD SWAP1 PUSH1 0x4 DUP3 LT ISZERO PUSH2 0x4D6 JUMPI PUSH1 0x20 SWAP2 PUSH2 0x1B3A PUSH2 0x5E9 SWAP3 PUSH1 0x4 CALLDATALOAD PUSH1 0x0 MSTORE PUSH1 0xF DUP6 MSTORE PUSH1 0x40 PUSH1 0x0 KECCAK256 SWAP1 PUSH1 0x1 DUP1 PUSH1 0xA0 SHL SUB AND PUSH1 0x0 MSTORE PUSH1 0x20 MSTORE PUSH1 0x40 PUSH1 0x0 KECCAK256 SWAP1 JUMP JUMPDEST CALLVALUE PUSH2 0x4D6 JUMPI PUSH1 0x0 CALLDATASIZE PUSH1 0x3 NOT ADD SLT PUSH2 0x4D6 JUMPI PUSH1 0x20 PUSH1 0x40 MLOAD PUSH1 0x0 DUP2 MSTORE RETURN JUMPDEST CALLVALUE PUSH2 0x4D6 JUMPI PUSH1 0x40 CALLDATASIZE PUSH1 0x3 NOT ADD SLT PUSH2 0x4D6 JUMPI PUSH2 0x1F0F PUSH2 0x4C0 JUMP JUMPDEST PUSH1 0x24 CALLDATALOAD SWAP1 DUP2 ISZERO ISZERO SWAP1 DUP2 DUP4 SUB PUSH2 0x4D6 JUMPI PUSH1 0x1 PUSH1 0x1 PUSH1 0xA0 SHL SUB DUP2 AND SWAP3 DUP4 ISZERO PUSH2 0x1F9A JUMPI PUSH2 0x1F5B PUSH2 0x1F6C SWAP3 CALLER PUSH1 0x0 MSTORE PUSH1 0x1 PUSH1 0x20 MSTORE PUSH1 0x40 PUSH1 0x0 KECCAK256 SWAP1 PUSH1 0x1 DUP1 PUSH1 0xA0 SHL SUB AND PUSH1 0x0 MSTORE PUSH1 0x20 MSTORE PUSH1 0x40 PUSH1 0x0 KECCAK256 SWAP1 JUMP JUMPDEST SWAP1 PUSH1 0xFF DUP1 NOT DUP4 SLOAD AND SWAP2 ISZERO ISZERO AND OR SWAP1 SSTORE JUMP JUMPDEST PUSH1 0x40 MLOAD SWAP1 DUP2 MSTORE PUSH32 0x17307EAB39AB6107E8899845AD3D59BD9653F200F220920489CA2B5937696C31 PUSH1 0x20 CALLER SWAP3 LOG3 STOP JUMPDEST PUSH1 0x40 MLOAD PUSH3 0xCED3E1 PUSH1 0xE8 SHL DUP2 MSTORE PUSH1 0x0 PUSH1 0x4 DUP3 ADD MSTORE PUSH1 0x24 SWAP1 REVERT JUMPDEST CALLVALUE PUSH2 0x4D6 JUMPI PUSH1 0x0 CALLDATASIZE PUSH1 0x3 NOT ADD SLT PUSH2 0x4D6 JUMPI PUSH1 0x20 PUSH1 0x40 MLOAD PUSH2 0x3E8 DUP2 MSTORE RETURN JUMPDEST CALLVALUE PUSH2 0x4D6 JUMPI PUSH1 0x20 CALLDATASIZE PUSH1 0x3 NOT ADD SLT PUSH2 0x4D6 JUMPI PUSH1 0x4 CALLDATALOAD PUSH1 0x0 MSTORE PUSH1 0x3 PUSH1 0x20 MSTORE PUSH1 0x20 PUSH1 0x40 PUSH1 0x0 KECCAK256 SLOAD PUSH1 0x40 MLOAD SWAP1 DUP2 MSTORE RETURN JUMPDEST CALLVALUE PUSH2 0x4D6 JUMPI PUSH1 0x0 CALLDATASIZE PUSH1 0x3 NOT ADD SLT PUSH2 0x4D6 JUMPI PUSH1 0x20 PUSH1 0xA SLOAD PUSH1 0x40 MLOAD SWAP1 DUP2 MSTORE RETURN JUMPDEST CALLVALUE PUSH2 0x4D6 JUMPI PUSH1 0x20 CALLDATASIZE PUSH1 0x3 NOT ADD SLT PUSH2 0x4D6 JUMPI PUSH1 0x20 PUSH2 0x171C PUSH1 0x4 CALLDATALOAD PUSH2 0x2EC6 JUMP JUMPDEST CALLVALUE PUSH2 0x4D6 JUMPI PUSH1 0x20 CALLDATASIZE PUSH1 0x3 NOT ADD SLT PUSH2 0x4D6 JUMPI PUSH1 0x4 CALLDATALOAD PUSH2 0x2053 PUSH2 0x3500 JUMP JUMPDEST DUP1 PUSH1 0x0 MSTORE PUSH1 0x9 PUSH1 0x20 MSTORE PUSH1 0x40 PUSH1 0x0 KECCAK256 PUSH1 0x7 DUP2 ADD PUSH1 0xFF DUP2 SLOAD PUSH2 0x2077 DUP3 DUP3 PUSH1 0x8 SHR AND PUSH2 0x2A6D JUMP JUMPDEST PUSH1 0x10 SHR AND PUSH2 0x20D9 JUMPI PUSH2 0x20C9 PUSH1 0x4 PUSH32 0xB00CD7DB2CF318388D4984A9842FF206B7CF7BC273A58F12701F29755B3CA941 SWAP4 PUSH2 0x20BE PUSH2 0xAB2 SWAP5 PUSH3 0x10000 PUSH3 0xFF0000 NOT DUP3 SLOAD AND OR SWAP1 SSTORE JUMP JUMPDEST ADD SLOAD PUSH2 0x1B46 DUP6 PUSH2 0x2EC6 JUMP JUMPDEST PUSH1 0x40 MLOAD SWAP1 DUP2 MSTORE SWAP1 DUP2 SWAP1 PUSH1 0x20 DUP3 ADD SWAP1 JUMP JUMPDEST PUSH1 0x40 MLOAD PUSH3 0x461BCD PUSH1 0xE5 SHL DUP2 MSTORE PUSH1 0x20 PUSH1 0x4 DUP3 ADD MSTORE PUSH1 0xE PUSH1 0x24 DUP3 ADD MSTORE PUSH14 0x105B1C9958591E48199D5B991959 PUSH1 0x92 SHL PUSH1 0x44 DUP3 ADD MSTORE PUSH1 0x64 SWAP1 REVERT JUMPDEST CALLVALUE PUSH2 0x4D6 JUMPI PUSH1 0xE0 CALLDATASIZE PUSH1 0x3 NOT ADD SLT PUSH2 0x4D6 JUMPI PUSH1 0x1 PUSH1 0x1 PUSH1 0x40 SHL SUB PUSH1 0x4 CALLDATALOAD DUP2 DUP2 GT PUSH2 0x4D6 JUMPI PUSH2 0x2140 SWAP1 CALLDATASIZE SWAP1 PUSH1 0x4 ADD PUSH2 0xC42 JUMP JUMPDEST SWAP1 PUSH1 0x24 CALLDATALOAD DUP2 DUP2 GT PUSH2 0x4D6 JUMPI PUSH2 0x2159 SWAP1 CALLDATASIZE SWAP1 PUSH1 0x4 ADD PUSH2 0xC42 JUMP JUMPDEST PUSH1 0xA4 CALLDATALOAD SWAP2 DUP3 GT PUSH2 0x4D6 JUMPI PUSH2 0x83B SWAP3 PUSH2 0x2178 PUSH2 0x20C9 SWAP4 CALLDATASIZE SWAP1 PUSH1 0x4 ADD PUSH2 0xC42 JUMP JUMPDEST SWAP1 PUSH2 0x2181 PUSH2 0x507 JUMP JUMPDEST SWAP3 PUSH1 0x84 CALLDATALOAD SWAP2 PUSH1 0x64 CALLDATALOAD SWAP2 PUSH1 0x44 CALLDATALOAD SWAP2 PUSH2 0x2F58 JUMP JUMPDEST CALLVALUE PUSH2 0x4D6 JUMPI PUSH1 0x0 CALLDATASIZE PUSH1 0x3 NOT ADD SLT PUSH2 0x4D6 JUMPI PUSH1 0x20 PUSH1 0x40 MLOAD PUSH2 0x7530 DUP2 MSTORE RETURN JUMPDEST CALLVALUE PUSH2 0x4D6 JUMPI PUSH1 0x0 CALLDATASIZE PUSH1 0x3 NOT ADD SLT PUSH2 0x4D6 JUMPI PUSH1 0x20 PUSH1 0x8 SLOAD PUSH1 0x40 MLOAD SWAP1 DUP2 MSTORE RETURN JUMPDEST CALLVALUE PUSH2 0x4D6 JUMPI PUSH1 0x0 CALLDATASIZE PUSH1 0x3 NOT ADD SLT PUSH2 0x4D6 JUMPI PUSH1 0x20 PUSH1 0x40 MLOAD PUSH2 0xFA0 DUP2 MSTORE RETURN JUMPDEST CALLVALUE PUSH2 0x4D6 JUMPI PUSH1 0x0 CALLDATASIZE PUSH1 0x3 NOT ADD SLT PUSH2 0x4D6 JUMPI PUSH1 0x20 PUSH1 0x40 MLOAD PUSH32 0x9F2DF0FED2C77648DE5860A4CC508CD0818C85B8B8A1AB4CEEEF8D981C8956A6 DUP2 MSTORE RETURN JUMPDEST CALLVALUE PUSH2 0x4D6 JUMPI PUSH1 0x40 CALLDATASIZE PUSH1 0x3 NOT ADD SLT PUSH2 0x4D6 JUMPI PUSH2 0xD2F PUSH1 0x4 CALLDATALOAD PUSH2 0x2245 PUSH2 0x4DB JUMP JUMPDEST SWAP1 DUP1 PUSH1 0x0 MSTORE PUSH1 0x5 PUSH1 0x20 MSTORE PUSH2 0x2260 PUSH1 0x1 PUSH1 0x40 PUSH1 0x0 KECCAK256 ADD SLOAD PUSH2 0x3558 JUMP JUMPDEST PUSH2 0x3613 JUMP JUMPDEST CALLVALUE PUSH2 0x4D6 JUMPI PUSH1 0x40 CALLDATASIZE PUSH1 0x3 NOT ADD SLT PUSH2 0x4D6 JUMPI PUSH1 0x4 DUP1 CALLDATALOAD PUSH2 0x2282 PUSH2 0x4DB JUMP JUMPDEST PUSH1 0x0 SWAP3 SWAP1 DUP4 JUMPDEST PUSH1 0xFF DUP6 AND PUSH1 0x3 DUP2 GT PUSH2 0x1B7B JUMPI DUP4 DUP2 LT ISZERO PUSH2 0x22D5 JUMPI PUSH2 0x22CF SWAP2 PUSH2 0x1B54 PUSH2 0x1B4C DUP4 PUSH2 0x1B46 PUSH2 0x1B3F PUSH2 0x22C9 SWAP7 PUSH2 0x1B3A DUP11 PUSH2 0x1D40 DUP15 PUSH1 0x0 MSTORE PUSH1 0xF PUSH1 0x20 MSTORE PUSH1 0x40 PUSH1 0x0 KECCAK256 SWAP1 JUMP JUMPDEST SWAP5 PUSH2 0x2C99 JUMP JUMPDEST SWAP4 PUSH2 0x2288 JUMP JUMPDEST PUSH1 0x21 DUP5 PUSH4 0x4E487B71 PUSH1 0xE0 SHL PUSH1 0x0 MSTORE MSTORE PUSH1 0x24 PUSH1 0x0 REVERT JUMPDEST CALLVALUE PUSH2 0x4D6 JUMPI PUSH1 0x0 CALLDATASIZE PUSH1 0x3 NOT ADD SLT PUSH2 0x4D6 JUMPI PUSH1 0x20 PUSH1 0x40 MLOAD PUSH32 0x65D7A28E3265B37A6474929F336521B332C1681B933F6CB9F3376673440D862A DUP2 MSTORE RETURN JUMPDEST CALLVALUE PUSH2 0x4D6 JUMPI PUSH1 0x40 CALLDATASIZE PUSH1 0x3 NOT ADD SLT PUSH2 0x4D6 JUMPI PUSH1 0x20 PUSH1 0xFF PUSH2 0x1E39 PUSH2 0x2345 PUSH2 0x4C0 JUMP JUMPDEST PUSH2 0x234D PUSH2 0x4DB JUMP JUMPDEST PUSH1 0x1 PUSH1 0x1 PUSH1 0xA0 SHL SUB SWAP2 DUP3 AND PUSH1 0x0 SWAP1 DUP2 MSTORE PUSH1 0x1 DUP7 MSTORE PUSH1 0x40 DUP1 DUP3 KECCAK256 SWAP3 SWAP1 SWAP4 AND DUP2 MSTORE PUSH1 0x20 SWAP2 SWAP1 SWAP2 MSTORE KECCAK256 SWAP1 JUMP JUMPDEST PUSH1 0x20 DUP2 ADD SWAP3 SWAP2 PUSH2 0xBAE SWAP2 SWAP1 PUSH2 0xDF0 JUMP JUMPDEST CALLVALUE PUSH2 0x4D6 JUMPI PUSH1 0x20 CALLDATASIZE PUSH1 0x3 NOT ADD SLT PUSH2 0x4D6 JUMPI PUSH1 0x1 PUSH1 0x1 PUSH1 0xA0 SHL SUB PUSH2 0x23A7 PUSH2 0x4C0 JUMP JUMPDEST AND PUSH1 0x0 MSTORE PUSH1 0xE PUSH1 0x20 MSTORE PUSH1 0x20 PUSH1 0xFF PUSH1 0x40 PUSH1 0x0 KECCAK256 SLOAD AND PUSH2 0x23C8 PUSH1 0x40 MLOAD DUP1 SWAP3 PUSH2 0xDF0 JUMP JUMPDEST RETURN JUMPDEST CALLVALUE PUSH2 0x4D6 JUMPI PUSH1 0xA0 CALLDATASIZE PUSH1 0x3 NOT ADD SLT PUSH2 0x4D6 JUMPI PUSH2 0x23E3 PUSH2 0x4C0 JUMP JUMPDEST PUSH2 0x23EB PUSH2 0x4DB JUMP JUMPDEST PUSH1 0x84 CALLDATALOAD PUSH1 0x1 PUSH1 0x1 PUSH1 0x40 SHL SUB DUP2 GT PUSH2 0x4D6 JUMPI PUSH2 0x240A SWAP1 CALLDATASIZE SWAP1 PUSH1 0x4 ADD PUSH2 0xC42 JUMP JUMPDEST SWAP1 PUSH1 0x1 PUSH1 0x1 PUSH1 0xA0 SHL SUB DUP4 DUP2 AND SWAP1 CALLER DUP3 EQ ISZERO DUP1 PUSH2 0x24AB JUMPI JUMPDEST PUSH2 0x2484 JUMPI DUP3 AND ISZERO PUSH2 0x246B JUMPI ISZERO PUSH2 0x1691 JUMPI PUSH2 0xD2F SWAP3 PUSH2 0x2463 PUSH1 0x64 CALLDATALOAD PUSH1 0x44 CALLDATALOAD SWAP2 PUSH1 0x40 MLOAD SWAP3 PUSH1 0x1 DUP5 MSTORE PUSH1 0x20 DUP5 ADD MSTORE PUSH1 0x40 DUP4 ADD SWAP2 PUSH1 0x1 DUP4 MSTORE PUSH1 0x60 DUP5 ADD MSTORE PUSH1 0x80 DUP4 ADD PUSH1 0x40 MSTORE JUMP JUMPDEST SWAP3 SWAP1 SWAP2 PUSH2 0x3CC2 JUMP JUMPDEST PUSH1 0x40 MLOAD PUSH4 0x2BFA23E7 PUSH1 0xE1 SHL DUP2 MSTORE PUSH1 0x0 PUSH1 0x4 DUP3 ADD MSTORE PUSH1 0x24 SWAP1 REVERT JUMPDEST PUSH1 0x40 MLOAD PUSH4 0x711BEC91 PUSH1 0xE1 SHL DUP2 MSTORE CALLER PUSH1 0x4 DUP3 ADD MSTORE PUSH1 0x1 PUSH1 0x1 PUSH1 0xA0 SHL SUB DUP7 AND PUSH1 0x24 DUP3 ADD MSTORE PUSH1 0x44 SWAP1 REVERT JUMPDEST POP PUSH1 0x0 DUP3 DUP2 MSTORE PUSH1 0x1 PUSH1 0x20 SWAP1 DUP2 MSTORE PUSH1 0x40 DUP1 DUP4 KECCAK256 CALLER DUP5 MSTORE SWAP1 SWAP2 MSTORE SWAP1 KECCAK256 SLOAD PUSH1 0xFF AND ISZERO PUSH2 0x2421 JUMP JUMPDEST CALLVALUE PUSH2 0x4D6 JUMPI PUSH1 0x60 CALLDATASIZE PUSH1 0x3 NOT ADD SLT PUSH2 0x4D6 JUMPI PUSH2 0x24E8 PUSH2 0x4C0 JUMP JUMPDEST PUSH1 0x1 PUSH1 0x1 PUSH1 0xA0 SHL SUB DUP2 AND CALLER DUP2 EQ ISZERO SWAP1 DUP2 PUSH2 0x253C JUMPI JUMPDEST POP PUSH2 0x2513 JUMPI PUSH2 0xD2F SWAP1 PUSH1 0x44 CALLDATALOAD SWAP1 PUSH1 0x24 CALLDATALOAD SWAP1 PUSH2 0x36A5 JUMP JUMPDEST PUSH1 0x40 MLOAD PUSH4 0x711BEC91 PUSH1 0xE1 SHL DUP2 MSTORE CALLER PUSH1 0x4 DUP3 ADD MSTORE PUSH1 0x1 PUSH1 0x1 PUSH1 0xA0 SHL SUB SWAP2 SWAP1 SWAP2 AND PUSH1 0x24 DUP3 ADD MSTORE PUSH1 0x44 SWAP1 REVERT JUMPDEST PUSH1 0x0 SWAP1 DUP2 MSTORE PUSH1 0x1 PUSH1 0x20 SWAP1 DUP2 MSTORE PUSH1 0x40 DUP1 DUP4 KECCAK256 CALLER DUP5 MSTORE SWAP1 SWAP2 MSTORE SWAP1 KECCAK256 PUSH1 0xFF SWAP2 POP SLOAD AND ISZERO CODESIZE PUSH2 0x24FD JUMP JUMPDEST SWAP1 PUSH1 0x1 DUP3 DUP2 SHR SWAP3 AND DUP1 ISZERO PUSH2 0x2592 JUMPI JUMPDEST PUSH1 0x20 DUP4 LT EQ PUSH2 0x257C JUMPI JUMP JUMPDEST PUSH4 0x4E487B71 PUSH1 0xE0 SHL PUSH1 0x0 MSTORE PUSH1 0x22 PUSH1 0x4 MSTORE PUSH1 0x24 PUSH1 0x0 REVERT JUMPDEST SWAP2 PUSH1 0x7F AND SWAP2 PUSH2 0x2571 JUMP JUMPDEST SWAP1 PUSH1 0x40 MLOAD SWAP2 DUP3 PUSH1 0x0 DUP3 SLOAD PUSH2 0x25AF DUP2 PUSH2 0x2562 JUMP JUMPDEST SWAP1 DUP2 DUP5 MSTORE PUSH1 0x20 SWAP5 PUSH1 0x1 SWAP2 PUSH1 0x1 DUP2 AND SWAP1 DUP2 PUSH1 0x0 EQ PUSH2 0x261D JUMPI POP PUSH1 0x1 EQ PUSH2 0x25DE JUMPI JUMPDEST POP POP POP PUSH2 0xBAE SWAP3 POP SUB DUP4 PUSH2 0xB80 JUMP JUMPDEST PUSH1 0x0 SWAP1 DUP2 MSTORE DUP6 DUP2 KECCAK256 SWAP6 SWAP4 POP SWAP2 SWAP1 JUMPDEST DUP2 DUP4 LT PUSH2 0x2605 JUMPI POP POP PUSH2 0xBAE SWAP4 POP DUP3 ADD ADD CODESIZE DUP1 DUP1 PUSH2 0x25CF JUMP JUMPDEST DUP6 SLOAD DUP9 DUP5 ADD DUP6 ADD MSTORE SWAP5 DUP6 ADD SWAP5 DUP8 SWAP5 POP SWAP2 DUP4 ADD SWAP2 PUSH2 0x25EC JUMP JUMPDEST SWAP3 POP POP POP PUSH2 0xBAE SWAP5 SWAP3 POP PUSH1 0xFF NOT AND DUP3 DUP5 ADD MSTORE ISZERO ISZERO PUSH1 0x5 SHL DUP3 ADD ADD CODESIZE DUP1 DUP1 PUSH2 0x25CF JUMP JUMPDEST SWAP11 SWAP7 SWAP2 SWAP5 PUSH2 0x2680 DUP13 SWAP14 SWAP15 SWAP14 PUSH2 0x269F SWAP7 SWAP11 SWAP6 PUSH2 0x2672 PUSH2 0x26BD SWAP14 SWAP10 PUSH2 0x160 SWAP16 SWAP12 SWAP7 PUSH2 0x180 SWAP1 DUP6 MSTORE DUP1 PUSH1 0x20 DUP7 ADD MSTORE DUP5 ADD SWAP1 PUSH2 0x795 JUMP JUMPDEST SWAP2 PUSH1 0x40 DUP2 DUP5 SUB SWAP2 ADD MSTORE PUSH2 0x795 JUMP JUMPDEST SWAP9 PUSH1 0x60 DUP14 ADD MSTORE PUSH1 0x80 DUP13 ADD MSTORE PUSH1 0xA0 DUP12 ADD MSTORE PUSH1 0xC0 DUP11 ADD MSTORE PUSH1 0xE0 DUP10 ADD SWAP1 PUSH2 0xDF0 JUMP JUMPDEST ISZERO ISZERO PUSH2 0x100 DUP8 ADD MSTORE ISZERO ISZERO PUSH2 0x120 DUP7 ADD MSTORE DUP5 DUP3 SUB PUSH2 0x140 DUP7 ADD MSTORE PUSH2 0x795 JUMP JUMPDEST PUSH1 0x1 PUSH1 0x1 PUSH1 0xA0 SHL SUB SWAP1 SWAP5 AND SWAP2 ADD MSTORE JUMP JUMPDEST CALLVALUE PUSH2 0x4D6 JUMPI PUSH1 0x20 CALLDATASIZE PUSH1 0x3 NOT ADD SLT PUSH2 0x4D6 JUMPI PUSH1 0x4 CALLDATALOAD PUSH1 0x0 MSTORE PUSH1 0x9 PUSH1 0x20 MSTORE PUSH1 0x40 PUSH1 0x0 KECCAK256 DUP1 SLOAD SWAP1 PUSH2 0x83B PUSH2 0x2700 PUSH1 0x1 DUP4 ADD PUSH2 0x259C JUMP JUMPDEST SWAP3 PUSH2 0x270D PUSH1 0x2 DUP5 ADD PUSH2 0x259C JUMP JUMPDEST SWAP3 PUSH1 0x3 DUP2 ADD SLOAD SWAP5 PUSH1 0x4 DUP3 ADD SLOAD SWAP3 PUSH1 0x5 DUP4 ADD SLOAD SWAP1 PUSH1 0x6 DUP5 ADD SLOAD PUSH1 0x7 DUP6 ADD SLOAD SWAP3 PUSH2 0x274B PUSH1 0x9 PUSH2 0x273C PUSH1 0x8 DUP10 ADD PUSH2 0x259C JUMP JUMPDEST SWAP8 ADD SLOAD PUSH1 0x1 PUSH1 0x1 PUSH1 0xA0 SHL SUB AND SWAP1 JUMP JUMPDEST SWAP7 PUSH1 0x40 MLOAD SWAP11 DUP12 SWAP11 PUSH1 0xFF DUP8 PUSH1 0x10 SHR AND SWAP8 PUSH1 0xFF DUP1 DUP10 PUSH1 0x8 SHR AND SWAP9 AND SWAP7 DUP14 PUSH2 0x263F JUMP JUMPDEST CALLVALUE PUSH2 0x4D6 JUMPI PUSH1 0x0 CALLDATASIZE PUSH1 0x3 NOT ADD SLT PUSH2 0x4D6 JUMPI PUSH1 0x20 PUSH1 0x40 MLOAD PUSH2 0x30D4 DUP2 MSTORE RETURN JUMPDEST CALLVALUE PUSH2 0x4D6 JUMPI PUSH1 0x40 CALLDATASIZE PUSH1 0x3 NOT ADD SLT PUSH2 0x4D6 JUMPI PUSH2 0x27A1 PUSH2 0x4C0 JUMP JUMPDEST PUSH32 0x101006801E3B4B14D09186F508BD7A78C4D24598DD6126863425D0350503FB02 PUSH2 0xAB2 PUSH1 0x24 CALLDATALOAD SWAP3 PUSH2 0x27D1 PUSH2 0x339A JUMP JUMPDEST PUSH1 0x1 DUP1 PUSH1 0xA0 SHL SUB AND SWAP3 DUP4 PUSH1 0x0 MSTORE PUSH1 0x12 PUSH1 0x20 MSTORE DUP1 PUSH1 0x40 PUSH1 0x0 KECCAK256 SSTORE PUSH1 0x13 PUSH1 0x20 MSTORE TIMESTAMP PUSH1 0x40 PUSH1 0x0 KECCAK256 SSTORE PUSH1 0x40 MLOAD SWAP2 DUP3 SWAP2 TIMESTAMP DUP4 PUSH1 0x20 SWAP1 SWAP4 SWAP3 SWAP2 SWAP4 PUSH1 0x40 DUP2 ADD SWAP5 DUP2 MSTORE ADD MSTORE JUMP JUMPDEST CALLVALUE PUSH2 0x4D6 JUMPI PUSH1 0x20 CALLDATASIZE PUSH1 0x3 NOT ADD SLT PUSH2 0x4D6 JUMPI PUSH32 0xFAB5BCBEC79A8B5888E114FD4B378427AA58D9B237D85056F0EE5B3EA57DF8C5 PUSH1 0x20 PUSH1 0x4 CALLDATALOAD PUSH2 0x284F PUSH2 0x34A8 JUMP JUMPDEST DUP1 PUSH1 0x8 SSTORE PUSH1 0x40 MLOAD SWAP1 DUP2 MSTORE LOG1 STOP JUMPDEST SWAP1 PUSH1 0x4 DUP2 LT ISZERO PUSH2 0x735 JUMPI PUSH1 0xFF DUP1 NOT DUP4 SLOAD AND SWAP2 AND OR SWAP1 SSTORE JUMP JUMPDEST PUSH1 0x4 DUP3 LT ISZERO PUSH2 0x735 JUMPI MSTORE JUMP JUMPDEST SWAP1 PUSH2 0xBAE PUSH2 0x2936 PUSH1 0x9 PUSH2 0x2891 PUSH2 0xBA1 JUMP JUMPDEST SWAP5 DUP1 SLOAD DUP7 MSTORE PUSH2 0x28A2 PUSH1 0x1 DUP3 ADD PUSH2 0x259C JUMP JUMPDEST PUSH1 0x20 DUP8 ADD MSTORE PUSH2 0x28B3 PUSH1 0x2 DUP3 ADD PUSH2 0x259C JUMP JUMPDEST PUSH1 0x40 DUP8 ADD MSTORE PUSH1 0x3 DUP2 ADD SLOAD PUSH1 0x60 DUP8 ADD MSTORE PUSH1 0x4 DUP2 ADD SLOAD PUSH1 0x80 DUP8 ADD MSTORE PUSH1 0x5 DUP2 ADD SLOAD PUSH1 0xA0 DUP8 ADD MSTORE PUSH1 0x6 DUP2 ADD SLOAD PUSH1 0xC0 DUP8 ADD MSTORE PUSH2 0x2916 PUSH1 0xFF PUSH1 0x7 DUP4 ADD SLOAD PUSH2 0x28F9 DUP3 DUP3 AND PUSH1 0xE0 DUP12 ADD PUSH2 0x2874 JUMP JUMPDEST PUSH1 0x8 DUP2 SWAP1 SHR DUP3 AND ISZERO ISZERO PUSH2 0x100 DUP11 ADD MSTORE PUSH1 0x10 SHR AND ISZERO ISZERO PUSH2 0x120 DUP9 ADD MSTORE JUMP JUMPDEST PUSH2 0x2922 PUSH1 0x8 DUP3 ADD PUSH2 0x259C JUMP JUMPDEST PUSH2 0x140 DUP8 ADD MSTORE ADD SLOAD PUSH1 0x1 PUSH1 0x1 PUSH1 0xA0 SHL SUB AND SWAP1 JUMP JUMPDEST PUSH1 0x1 PUSH1 0x1 PUSH1 0xA0 SHL SUB AND PUSH2 0x160 DUP5 ADD MSTORE JUMP JUMPDEST SWAP1 DUP1 PUSH1 0x20 SWAP4 SWAP3 DUP2 DUP5 MSTORE DUP5 DUP5 ADD CALLDATACOPY PUSH1 0x0 DUP3 DUP3 ADD DUP5 ADD MSTORE PUSH1 0x1F ADD PUSH1 0x1F NOT AND ADD ADD SWAP1 JUMP JUMPDEST PUSH1 0x40 SWAP1 PUSH2 0xED2 SWAP5 SWAP3 DUP2 MSTORE DUP2 PUSH1 0x20 DUP3 ADD MSTORE ADD SWAP2 PUSH2 0x2947 JUMP JUMPDEST PUSH4 0x4E487B71 PUSH1 0xE0 SHL PUSH1 0x0 MSTORE PUSH1 0x32 PUSH1 0x4 MSTORE PUSH1 0x24 PUSH1 0x0 REVERT JUMPDEST DUP1 MLOAD DUP3 LT ISZERO PUSH2 0x29A9 JUMPI PUSH1 0x20 SWAP2 PUSH1 0x5 SHL ADD ADD SWAP1 JUMP JUMPDEST PUSH2 0x297F JUMP JUMPDEST SWAP2 SWAP1 SWAP2 DUP1 MLOAD DUP4 MLOAD DUP1 DUP3 SUB PUSH2 0x2A4B JUMPI POP POP DUP1 MLOAD SWAP1 PUSH2 0x29E3 PUSH2 0x29CD DUP4 PUSH2 0xBB0 JUMP JUMPDEST SWAP3 PUSH2 0x29DB PUSH1 0x40 MLOAD SWAP5 DUP6 PUSH2 0xB80 JUMP JUMPDEST DUP1 DUP5 MSTORE PUSH2 0xBB0 JUMP JUMPDEST PUSH1 0x20 SWAP2 SWAP1 PUSH1 0x1F NOT ADD CALLDATASIZE DUP5 DUP5 ADD CALLDATACOPY PUSH1 0x0 JUMPDEST DUP2 MLOAD DUP2 LT ISZERO PUSH2 0x2A43 JUMPI PUSH1 0x5 DUP2 SWAP1 SHL DUP3 DUP2 ADD DUP5 ADD MLOAD SWAP1 DUP8 ADD DUP5 ADD MLOAD PUSH1 0x0 SWAP1 DUP2 MSTORE PUSH1 0x20 DUP2 DUP2 MSTORE PUSH1 0x40 DUP1 DUP4 KECCAK256 PUSH1 0x1 PUSH1 0x1 PUSH1 0xA0 SHL SUB SWAP1 SWAP5 AND DUP4 MSTORE SWAP3 SWAP1 MSTORE KECCAK256 SLOAD PUSH1 0x1 SWAP2 SWAP1 PUSH2 0x2A3C DUP3 DUP8 PUSH2 0x2995 JUMP JUMPDEST MSTORE ADD PUSH2 0x29F3 JUMP JUMPDEST POP SWAP2 SWAP4 POP POP POP JUMP JUMPDEST PUSH1 0x40 MLOAD PUSH4 0x5B059991 PUSH1 0xE0 SHL DUP2 MSTORE PUSH1 0x4 DUP2 ADD SWAP2 SWAP1 SWAP2 MSTORE PUSH1 0x24 DUP2 ADD SWAP2 SWAP1 SWAP2 MSTORE PUSH1 0x44 SWAP1 REVERT JUMPDEST ISZERO PUSH2 0x2A74 JUMPI JUMP JUMPDEST PUSH1 0x40 MLOAD PUSH3 0x461BCD PUSH1 0xE5 SHL DUP2 MSTORE PUSH1 0x20 PUSH1 0x4 DUP3 ADD MSTORE PUSH1 0x13 PUSH1 0x24 DUP3 ADD MSTORE PUSH19 0x50726F7065727479206E6F7420616374697665 PUSH1 0x68 SHL PUSH1 0x44 DUP3 ADD MSTORE PUSH1 0x64 SWAP1 REVERT JUMPDEST ISZERO PUSH2 0x2AB6 JUMPI JUMP JUMPDEST PUSH1 0x40 MLOAD PUSH3 0x461BCD PUSH1 0xE5 SHL DUP2 MSTORE PUSH1 0x20 PUSH1 0x4 DUP3 ADD MSTORE PUSH1 0x17 PUSH1 0x24 DUP3 ADD MSTORE PUSH32 0x4C4C43206964656E746966696572207265717569726564000000000000000000 PUSH1 0x44 DUP3 ADD MSTORE PUSH1 0x64 SWAP1 REVERT JUMPDEST SWAP1 PUSH1 0x1F DUP2 GT PUSH2 0x2B09 JUMPI POP POP POP JUMP JUMPDEST PUSH1 0x0 SWAP2 PUSH1 0x0 MSTORE PUSH1 0x20 PUSH1 0x0 KECCAK256 SWAP1 PUSH1 0x20 PUSH1 0x1F DUP6 ADD PUSH1 0x5 SHR DUP4 ADD SWAP5 LT PUSH2 0x2B47 JUMPI JUMPDEST PUSH1 0x1F ADD PUSH1 0x5 SHR ADD SWAP2 JUMPDEST DUP3 DUP2 LT PUSH2 0x2B3C JUMPI POP POP POP JUMP JUMPDEST DUP2 DUP2 SSTORE PUSH1 0x1 ADD PUSH2 0x2B30 JUMP JUMPDEST SWAP1 SWAP3 POP DUP3 SWAP1 PUSH2 0x2B27 JUMP JUMPDEST SWAP1 SWAP3 SWAP2 PUSH1 0x1 PUSH1 0x1 PUSH1 0x40 SHL SUB DUP2 GT PUSH2 0xB60 JUMPI PUSH2 0x2B76 DUP2 PUSH2 0x2B70 DUP5 SLOAD PUSH2 0x2562 JUMP JUMPDEST DUP5 PUSH2 0x2AFB JUMP JUMPDEST PUSH1 0x0 PUSH1 0x1F DUP3 GT PUSH1 0x1 EQ PUSH2 0x2BB7 JUMPI DUP2 SWAP1 PUSH2 0x2BA8 SWAP4 SWAP5 SWAP6 PUSH1 0x0 SWAP3 PUSH2 0x2BAC JUMPI JUMPDEST POP POP DUP2 PUSH1 0x1 SHL SWAP2 PUSH1 0x0 NOT SWAP1 PUSH1 0x3 SHL SHR NOT AND OR SWAP1 JUMP JUMPDEST SWAP1 SSTORE JUMP JUMPDEST ADD CALLDATALOAD SWAP1 POP CODESIZE DUP1 PUSH2 0x2B93 JUMP JUMPDEST PUSH1 0x1F NOT DUP3 AND SWAP5 PUSH2 0x2BCC DUP5 PUSH1 0x0 MSTORE PUSH1 0x20 PUSH1 0x0 KECCAK256 SWAP1 JUMP JUMPDEST SWAP2 DUP1 JUMPDEST DUP8 DUP2 LT PUSH2 0x2C07 JUMPI POP DUP4 PUSH1 0x1 SWAP6 SWAP7 SWAP8 LT PUSH2 0x2BED JUMPI JUMPDEST POP POP POP DUP2 SHL ADD SWAP1 SSTORE JUMP JUMPDEST ADD CALLDATALOAD PUSH1 0x0 NOT PUSH1 0x3 DUP5 SWAP1 SHL PUSH1 0xF8 AND SHR NOT AND SWAP1 SSTORE CODESIZE DUP1 DUP1 PUSH2 0x2BE3 JUMP JUMPDEST SWAP1 SWAP3 PUSH1 0x20 PUSH1 0x1 DUP2 SWAP3 DUP7 DUP7 ADD CALLDATALOAD DUP2 SSTORE ADD SWAP5 ADD SWAP2 ADD PUSH2 0x2BCF JUMP JUMPDEST SWAP2 PUSH1 0x20 SWAP2 PUSH2 0x26BD SWAP2 SWAP6 SWAP5 SWAP6 PUSH1 0x40 DUP6 MSTORE PUSH1 0x40 DUP6 ADD SWAP2 PUSH2 0x2947 JUMP JUMPDEST PUSH1 0x4 DUP2 LT ISZERO PUSH2 0x735 JUMPI DUP1 ISZERO PUSH2 0x2C7C JUMPI PUSH2 0x2C50 DUP2 PUSH2 0x72B JUMP JUMPDEST PUSH1 0x1 DUP2 EQ PUSH2 0x2C75 JUMPI DUP1 PUSH2 0x2C64 PUSH1 0x2 SWAP3 PUSH2 0x72B JUMP JUMPDEST EQ PUSH2 0x2C6F JUMPI PUSH2 0x1D4C SWAP1 JUMP JUMPDEST PUSH2 0x2710 SWAP1 JUMP JUMPDEST POP PUSH2 0x30D4 SWAP1 JUMP JUMPDEST POP PUSH2 0x3A98 SWAP1 JUMP JUMPDEST PUSH4 0x4E487B71 PUSH1 0xE0 SHL PUSH1 0x0 MSTORE PUSH1 0x11 PUSH1 0x4 MSTORE PUSH1 0x24 PUSH1 0x0 REVERT JUMPDEST PUSH1 0xFF AND PUSH1 0xFF DUP2 EQ PUSH2 0x2CAA JUMPI PUSH1 0x1 ADD SWAP1 JUMP JUMPDEST PUSH2 0x2C83 JUMP JUMPDEST PUSH1 0xFF AND PUSH1 0x4 DUP2 LT ISZERO PUSH2 0x735 JUMPI SWAP1 JUMP JUMPDEST SWAP1 PUSH2 0xFA0 SWAP2 DUP3 DUP2 MUL SWAP3 DUP2 DUP5 DIV EQ SWAP1 ISZERO OR ISZERO PUSH2 0x2CAA JUMPI JUMP JUMPDEST SWAP1 PUSH2 0xBB8 SWAP2 DUP3 DUP2 MUL SWAP3 DUP2 DUP5 DIV EQ SWAP1 ISZERO OR ISZERO PUSH2 0x2CAA JUMPI JUMP JUMPDEST SWAP1 PUSH2 0x7D0 SWAP2 DUP3 DUP2 MUL SWAP3 DUP2 DUP5 DIV EQ SWAP1 ISZERO OR ISZERO PUSH2 0x2CAA JUMPI JUMP JUMPDEST SWAP1 PUSH2 0x3E8 SWAP2 DUP3 DUP2 MUL SWAP3 DUP2 DUP5 DIV EQ SWAP1 ISZERO OR ISZERO PUSH2 0x2CAA JUMPI JUMP JUMPDEST DUP2 DUP2 MUL SWAP3 SWAP2 DUP2 ISZERO SWAP2 DUP5 DIV EQ OR ISZERO PUSH2 0x2CAA JUMPI JUMP JUMPDEST SWAP2 SWAP1 DUP3 ADD DUP1 SWAP3 GT PUSH2 0x2CAA JUMPI JUMP JUMPDEST ISZERO PUSH2 0x2D41 JUMPI JUMP JUMPDEST PUSH1 0x40 MLOAD PUSH3 0x461BCD PUSH1 0xE5 SHL DUP2 MSTORE PUSH1 0x20 PUSH1 0x4 DUP3 ADD MSTORE PUSH1 0x15 PUSH1 0x24 DUP3 ADD MSTORE PUSH21 0x109D5E595C881B9BDD081DDA1A5D195B1A5CDD1959 PUSH1 0x5A SHL PUSH1 0x44 DUP3 ADD MSTORE PUSH1 0x64 SWAP1 REVERT JUMPDEST ISZERO PUSH2 0x2D85 JUMPI JUMP JUMPDEST PUSH1 0x40 MLOAD PUSH3 0x461BCD PUSH1 0xE5 SHL DUP2 MSTORE PUSH1 0x20 PUSH1 0x4 DUP3 ADD MSTORE PUSH1 0xE PUSH1 0x24 DUP3 ADD MSTORE PUSH14 0x4E6F204C4C43206261636B696E67 PUSH1 0x90 SHL PUSH1 0x44 DUP3 ADD MSTORE PUSH1 0x64 SWAP1 REVERT JUMPDEST ISZERO PUSH2 0x2DC2 JUMPI JUMP JUMPDEST PUSH1 0x40 MLOAD PUSH3 0x461BCD PUSH1 0xE5 SHL DUP2 MSTORE PUSH1 0x20 PUSH1 0x4 DUP3 ADD MSTORE PUSH1 0xE PUSH1 0x24 DUP3 ADD MSTORE PUSH14 0x119D5B991A5B99C818DB1BDCD959 PUSH1 0x92 SHL PUSH1 0x44 DUP3 ADD MSTORE PUSH1 0x64 SWAP1 REVERT JUMPDEST ISZERO PUSH2 0x2DFF JUMPI JUMP JUMPDEST PUSH1 0x40 MLOAD PUSH3 0x461BCD PUSH1 0xE5 SHL DUP2 MSTORE PUSH1 0x20 PUSH1 0x4 DUP3 ADD MSTORE PUSH1 0x1E PUSH1 0x24 DUP3 ADD MSTORE PUSH32 0x4E6F7420656C696769626C6520666F722063757272656E742070686173650000 PUSH1 0x44 DUP3 ADD MSTORE PUSH1 0x64 SWAP1 REVERT JUMPDEST SWAP2 SWAP1 DUP3 SUB SWAP2 DUP3 GT PUSH2 0x2CAA JUMPI JUMP JUMPDEST ISZERO PUSH2 0x2E58 JUMPI JUMP JUMPDEST PUSH1 0x40 MLOAD PUSH3 0x461BCD PUSH1 0xE5 SHL DUP2 MSTORE PUSH1 0x20 PUSH1 0x4 DUP3 ADD MSTORE PUSH1 0x18 PUSH1 0x24 DUP3 ADD MSTORE PUSH32 0x4578636565647320706861736520616C6C6F636174696F6E0000000000000000 PUSH1 0x44 DUP3 ADD MSTORE PUSH1 0x64 SWAP1 REVERT JUMPDEST PUSH1 0x40 MLOAD SWAP1 PUSH2 0x2EAA DUP3 PUSH2 0xB65 JUMP JUMPDEST PUSH1 0x0 DUP3 MSTORE JUMP JUMPDEST SWAP1 DUP2 MSTORE PUSH1 0x40 DUP2 ADD SWAP3 SWAP2 PUSH2 0xBAE SWAP2 PUSH1 0x20 ADD SWAP1 PUSH2 0xDF0 JUMP JUMPDEST PUSH1 0x0 MSTORE PUSH1 0x9 PUSH1 0x20 MSTORE PUSH1 0xFF PUSH1 0x7 PUSH1 0x40 PUSH1 0x0 KECCAK256 ADD SLOAD PUSH2 0x2EE7 DUP3 DUP3 PUSH1 0x8 SHR AND PUSH2 0x2A6D JUMP JUMPDEST AND PUSH2 0x2EF1 DUP2 PUSH2 0x72B JUMP JUMPDEST DUP1 PUSH2 0x2F0B JUMPI POP PUSH2 0x2710 PUSH2 0x2F07 DUP2 JUMPDEST PUSH1 0x8 SLOAD PUSH2 0x2D1A JUMP JUMPDEST DIV SWAP1 JUMP JUMPDEST PUSH2 0x2F14 DUP2 PUSH2 0x72B JUMP JUMPDEST PUSH1 0x1 DUP2 SUB PUSH2 0x2F2B JUMPI POP PUSH2 0x2710 PUSH2 0x2F07 PUSH2 0x3A98 PUSH2 0x2EFF JUMP JUMPDEST DUP1 PUSH2 0x2F37 PUSH1 0x2 SWAP3 PUSH2 0x72B JUMP JUMPDEST SUB PUSH2 0x2F4A JUMPI PUSH2 0x2710 PUSH2 0x2F07 PUSH2 0x57E4 PUSH2 0x2EFF JUMP JUMPDEST PUSH2 0x2710 PUSH2 0x2F07 PUSH2 0x7530 PUSH2 0x2EFF JUMP JUMPDEST SWAP2 SWAP3 SWAP6 PUSH32 0x2A077B72AC27E0177A757DBDF9BC56585DBB145D7DCD128808FCD8244267AFF6 SWAP5 SWAP6 PUSH2 0x2FCE SWAP8 PUSH2 0x304B PUSH2 0x3130 SWAP5 PUSH2 0x2F91 PUSH2 0x34A8 JUMP JUMPDEST PUSH2 0x2FA5 PUSH1 0x1 PUSH1 0x1 PUSH1 0xA0 SHL SUB DUP7 AND ISZERO ISZERO PUSH2 0x3136 JUMP JUMPDEST PUSH2 0x2FB1 DUP5 MLOAD ISZERO ISZERO PUSH2 0x2AAF JUMP JUMPDEST PUSH1 0xA SLOAD SWAP11 DUP12 SWAP11 PUSH2 0x2FC8 PUSH2 0x2FC3 DUP14 PUSH2 0x318D JUMP JUMPDEST PUSH1 0xA SSTORE JUMP JUMPDEST TIMESTAMP PUSH2 0x2D2D JUMP JUMPDEST PUSH2 0x2FD6 PUSH2 0xBA1 JUMP JUMPDEST SWAP2 DUP12 DUP4 MSTORE DUP9 PUSH1 0x20 DUP5 ADD MSTORE PUSH1 0x40 DUP4 ADD MSTORE DUP9 PUSH1 0x60 DUP4 ADD MSTORE PUSH1 0x0 PUSH1 0x80 DUP4 ADD MSTORE DUP4 PUSH1 0xA0 DUP4 ADD MSTORE PUSH1 0xC0 DUP3 ADD MSTORE PUSH1 0x0 PUSH1 0xE0 DUP3 ADD MSTORE PUSH2 0x3012 PUSH2 0x100 DUP3 ADD PUSH1 0x1 SWAP1 MSTORE JUMP JUMPDEST PUSH1 0x0 PUSH2 0x120 DUP3 ADD MSTORE PUSH2 0x140 DUP2 ADD DUP5 SWAP1 MSTORE PUSH1 0x1 PUSH1 0x1 PUSH1 0xA0 SHL SUB DUP6 AND PUSH2 0x160 DUP3 ADD MSTORE PUSH2 0x3046 DUP11 PUSH1 0x0 MSTORE PUSH1 0x9 PUSH1 0x20 MSTORE PUSH1 0x40 PUSH1 0x0 KECCAK256 SWAP1 JUMP JUMPDEST PUSH2 0x3265 JUMP JUMPDEST PUSH2 0x3057 PUSH2 0x1B4C DUP8 PUSH2 0x2CBE JUMP JUMPDEST PUSH2 0x307D PUSH2 0x306E DUP11 PUSH1 0x0 MSTORE PUSH1 0xB PUSH1 0x20 MSTORE PUSH1 0x40 PUSH1 0x0 KECCAK256 SWAP1 JUMP JUMPDEST PUSH1 0x0 DUP1 MSTORE PUSH1 0x20 MSTORE PUSH1 0x40 PUSH1 0x0 KECCAK256 SWAP1 JUMP JUMPDEST SSTORE PUSH2 0x308A PUSH2 0x1B4C DUP8 PUSH2 0x2CD5 JUMP JUMPDEST PUSH2 0x30B1 PUSH2 0x30A1 DUP11 PUSH1 0x0 MSTORE PUSH1 0xB PUSH1 0x20 MSTORE PUSH1 0x40 PUSH1 0x0 KECCAK256 SWAP1 JUMP JUMPDEST PUSH1 0x1 PUSH1 0x0 MSTORE PUSH1 0x20 MSTORE PUSH1 0x40 PUSH1 0x0 KECCAK256 SWAP1 JUMP JUMPDEST SSTORE PUSH2 0x30BE PUSH2 0x1B4C DUP8 PUSH2 0x2CEC JUMP JUMPDEST PUSH2 0x30E5 PUSH2 0x30D5 DUP11 PUSH1 0x0 MSTORE PUSH1 0xB PUSH1 0x20 MSTORE PUSH1 0x40 PUSH1 0x0 KECCAK256 SWAP1 JUMP JUMPDEST PUSH1 0x2 PUSH1 0x0 MSTORE PUSH1 0x20 MSTORE PUSH1 0x40 PUSH1 0x0 KECCAK256 SWAP1 JUMP JUMPDEST SSTORE PUSH2 0x30F2 PUSH2 0x1B4C DUP8 PUSH2 0x2D03 JUMP JUMPDEST PUSH2 0x3119 PUSH2 0x3109 DUP11 PUSH1 0x0 MSTORE PUSH1 0xB PUSH1 0x20 MSTORE PUSH1 0x40 PUSH1 0x0 KECCAK256 SWAP1 JUMP JUMPDEST PUSH1 0x3 PUSH1 0x0 MSTORE PUSH1 0x20 MSTORE PUSH1 0x40 PUSH1 0x0 KECCAK256 SWAP1 JUMP JUMPDEST SSTORE PUSH2 0x3123 DUP9 PUSH2 0x3F35 JUMP JUMPDEST POP PUSH1 0x40 MLOAD SWAP6 DUP7 SWAP6 DUP7 PUSH2 0x3365 JUMP JUMPDEST SUB SWAP1 LOG2 SWAP1 JUMP JUMPDEST ISZERO PUSH2 0x313D JUMPI JUMP JUMPDEST PUSH1 0x40 MLOAD PUSH3 0x461BCD PUSH1 0xE5 SHL DUP2 MSTORE PUSH1 0x20 PUSH1 0x4 DUP3 ADD MSTORE PUSH1 0x22 PUSH1 0x24 DUP3 ADD MSTORE PUSH32 0x437573746F6469616E20726571756972656420666F72204C4C43206261636B69 PUSH1 0x44 DUP3 ADD MSTORE PUSH2 0x6E67 PUSH1 0xF0 SHL PUSH1 0x64 DUP3 ADD MSTORE PUSH1 0x84 SWAP1 REVERT JUMPDEST PUSH1 0x0 NOT DUP2 EQ PUSH2 0x2CAA JUMPI PUSH1 0x1 ADD SWAP1 JUMP JUMPDEST SWAP2 SWAP1 SWAP2 DUP3 MLOAD PUSH1 0x1 PUSH1 0x1 PUSH1 0x40 SHL SUB DUP2 GT PUSH2 0xB60 JUMPI PUSH2 0x31BD DUP2 PUSH2 0x2B70 DUP5 SLOAD PUSH2 0x2562 JUMP JUMPDEST PUSH1 0x20 DUP1 PUSH1 0x1F DUP4 GT PUSH1 0x1 EQ PUSH2 0x31FB JUMPI POP DUP2 SWAP1 PUSH2 0x2BA8 SWAP4 SWAP5 SWAP6 PUSH1 0x0 SWAP3 PUSH2 0x31F0 JUMPI POP POP DUP2 PUSH1 0x1 SHL SWAP2 PUSH1 0x0 NOT SWAP1 PUSH1 0x3 SHL SHR NOT AND OR SWAP1 JUMP JUMPDEST ADD MLOAD SWAP1 POP CODESIZE DUP1 PUSH2 0x2B93 JUMP JUMPDEST SWAP1 PUSH1 0x1F NOT DUP4 AND SWAP6 PUSH2 0x3211 DUP6 PUSH1 0x0 MSTORE PUSH1 0x20 PUSH1 0x0 KECCAK256 SWAP1 JUMP JUMPDEST SWAP3 PUSH1 0x0 SWAP1 JUMPDEST DUP9 DUP3 LT PUSH2 0x324D JUMPI POP POP DUP4 PUSH1 0x1 SWAP6 SWAP7 SWAP8 LT PUSH2 0x3234 JUMPI POP POP POP DUP2 SHL ADD SWAP1 SSTORE JUMP JUMPDEST ADD MLOAD PUSH1 0x0 NOT PUSH1 0xF8 DUP5 PUSH1 0x3 SHL AND SHR NOT AND SWAP1 SSTORE CODESIZE DUP1 DUP1 PUSH2 0x2BE3 JUMP JUMPDEST DUP1 PUSH1 0x1 DUP6 SWAP7 DUP3 SWAP5 SWAP7 DUP7 ADD MLOAD DUP2 SSTORE ADD SWAP6 ADD SWAP4 ADD SWAP1 PUSH2 0x3216 JUMP JUMPDEST PUSH1 0x9 PUSH2 0x3344 PUSH2 0x160 PUSH2 0xBAE SWAP5 DUP1 MLOAD DUP6 SSTORE PUSH2 0x3286 PUSH1 0x20 DUP3 ADD MLOAD PUSH1 0x1 DUP8 ADD PUSH2 0x319C JUMP JUMPDEST PUSH2 0x3297 PUSH1 0x40 DUP3 ADD MLOAD PUSH1 0x2 DUP8 ADD PUSH2 0x319C JUMP JUMPDEST PUSH1 0x60 DUP2 ADD MLOAD PUSH1 0x3 DUP7 ADD SSTORE PUSH1 0x80 DUP2 ADD MLOAD PUSH1 0x4 DUP7 ADD SSTORE PUSH1 0xA0 DUP2 ADD MLOAD PUSH1 0x5 DUP7 ADD SSTORE PUSH1 0xC0 DUP2 ADD MLOAD PUSH1 0x6 DUP7 ADD SSTORE PUSH2 0x3324 PUSH1 0x7 DUP7 ADD PUSH2 0x32DD PUSH1 0xE0 DUP5 ADD MLOAD PUSH2 0x32D7 DUP2 PUSH2 0x72B JUMP JUMPDEST DUP3 PUSH2 0x285C JUMP JUMPDEST PUSH2 0x3304 PUSH2 0x32EE PUSH2 0x100 DUP6 ADD MLOAD ISZERO ISZERO SWAP1 JUMP JUMPDEST DUP3 SLOAD PUSH2 0xFF00 NOT AND SWAP1 ISZERO ISZERO PUSH1 0x8 SHL PUSH2 0xFF00 AND OR DUP3 SSTORE JUMP JUMPDEST PUSH2 0x120 DUP4 ADD MLOAD ISZERO ISZERO DUP2 SLOAD PUSH3 0xFF0000 NOT AND SWAP1 ISZERO ISZERO PUSH1 0x10 SHL PUSH3 0xFF0000 AND OR SWAP1 SSTORE JUMP JUMPDEST PUSH2 0x3336 PUSH2 0x140 DUP3 ADD MLOAD PUSH1 0x8 DUP8 ADD PUSH2 0x319C JUMP JUMPDEST ADD MLOAD PUSH1 0x1 PUSH1 0x1 PUSH1 0xA0 SHL SUB AND SWAP1 JUMP JUMPDEST SWAP2 ADD DUP1 SLOAD PUSH1 0x1 PUSH1 0x1 PUSH1 0xA0 SHL SUB NOT AND PUSH1 0x1 PUSH1 0x1 PUSH1 0xA0 SHL SUB SWAP1 SWAP3 AND SWAP2 SWAP1 SWAP2 OR SWAP1 SSTORE JUMP JUMPDEST SWAP4 PUSH1 0x80 SWAP4 PUSH2 0x3382 PUSH2 0x26BD SWAP5 SWAP4 SWAP9 SWAP8 SWAP9 PUSH1 0xA0 DUP9 MSTORE PUSH1 0xA0 DUP9 ADD SWAP1 PUSH2 0x795 JUMP JUMPDEST SWAP3 PUSH1 0x20 DUP8 ADD MSTORE PUSH1 0x40 DUP7 ADD MSTORE DUP5 DUP3 SUB PUSH1 0x60 DUP7 ADD MSTORE PUSH2 0x795 JUMP JUMPDEST CALLER PUSH1 0x0 SWAP1 DUP2 MSTORE PUSH32 0x294BB43E882F8724B7AE88344D047A41612B98EE139A78F923B3689F3CC274B1 PUSH1 0x20 MSTORE PUSH1 0x40 SWAP1 KECCAK256 PUSH32 0x28F5A99355973CC89255B8C4AC88405F27C78DED7608B040EE77A8BDF44D15E2 SWAP1 PUSH1 0xFF SWAP1 JUMPDEST SLOAD AND ISZERO PUSH2 0x1981 JUMPI POP JUMP JUMPDEST CALLER PUSH1 0x0 SWAP1 DUP2 MSTORE PUSH32 0x847F481F687BEFB06ED3511F1A8DCEF57E83007C0147AE5047583D7056170937 PUSH1 0x20 MSTORE PUSH1 0x40 SWAP1 KECCAK256 PUSH32 0x3C11D16CBAFFD01DF69CE1C404F6340EE057498F5F00246190EA54220576A848 SWAP1 PUSH1 0xFF SWAP1 PUSH2 0x33EE JUMP JUMPDEST CALLER PUSH1 0x0 SWAP1 DUP2 MSTORE PUSH32 0x99F2891DB7A8DB76249871A02B43B68C0BB8F22EF8A3BC1034AE9375EF6B7C3C PUSH1 0x20 MSTORE PUSH1 0x40 SWAP1 KECCAK256 PUSH32 0x65D7A28E3265B37A6474929F336521B332C1681B933F6CB9F3376673440D862A SWAP1 PUSH1 0xFF SWAP1 PUSH2 0x33EE JUMP JUMPDEST CALLER PUSH1 0x0 SWAP1 DUP2 MSTORE PUSH32 0x5B8CCBB9D4D8FB16EA74CE3C29A41F1B461FBDAFF4714A0D9A8EB05499746BC PUSH1 0x20 MSTORE PUSH1 0x40 SWAP1 KECCAK256 SLOAD PUSH1 0xFF AND ISZERO PUSH2 0x34E1 JUMPI JUMP JUMPDEST PUSH1 0x40 MLOAD PUSH4 0xE2517D3F PUSH1 0xE0 SHL DUP2 MSTORE CALLER PUSH1 0x4 DUP3 ADD MSTORE PUSH1 0x0 PUSH1 0x24 DUP3 ADD MSTORE PUSH1 0x44 SWAP1 REVERT JUMPDEST CALLER PUSH1 0x0 SWAP1 DUP2 MSTORE PUSH32 0x15A28D26FA1BF736CF7EDC9922607171CCB09C3C73B808E7772A3013E068A522 PUSH1 0x20 MSTORE PUSH1 0x40 SWAP1 KECCAK256 PUSH32 0x9F2DF0FED2C77648DE5860A4CC508CD0818C85B8B8A1AB4CEEEF8D981C8956A6 SWAP1 PUSH1 0xFF SWAP1 PUSH2 0x33EE JUMP JUMPDEST PUSH1 0x0 DUP2 DUP2 MSTORE PUSH1 0x5 PUSH1 0x20 SWAP1 DUP2 MSTORE PUSH1 0x40 DUP1 DUP4 KECCAK256 CALLER DUP5 MSTORE SWAP1 SWAP2 MSTORE SWAP1 KECCAK256 PUSH1 0xFF SWAP1 PUSH2 0x33EE JUMP JUMPDEST PUSH1 0x0 SWAP1 DUP1 DUP3 MSTORE PUSH1 0x5 PUSH1 0x20 MSTORE PUSH1 0xFF PUSH2 0x35A5 DUP5 PUSH1 0x40 DUP6 KECCAK256 SWAP1 PUSH1 0x1 DUP1 PUSH1 0xA0 SHL SUB AND PUSH1 0x0 MSTORE PUSH1 0x20 MSTORE PUSH1 0x40 PUSH1 0x0 KECCAK256 SWAP1 JUMP JUMPDEST SLOAD AND PUSH2 0x360D JUMPI DUP1 DUP3 MSTORE PUSH1 0x5 PUSH1 0x20 SWAP1 DUP2 MSTORE PUSH1 0x40 DUP1 DUP5 KECCAK256 PUSH1 0x1 PUSH1 0x1 PUSH1 0xA0 SHL SUB DUP7 AND PUSH1 0x0 SWAP1 DUP2 MSTORE SWAP3 MSTORE SWAP1 KECCAK256 DUP1 SLOAD PUSH1 0xFF NOT AND PUSH1 0x1 OR SWAP1 SSTORE CALLER SWAP3 PUSH1 0x1 PUSH1 0x1 PUSH1 0xA0 SHL SUB AND SWAP2 PUSH32 0x2F8788117E7EFF1D82E926EC794901D17C78024A50270940304540A733656F0D SWAP1 DUP1 LOG4 PUSH1 0x1 SWAP1 JUMP JUMPDEST POP SWAP1 POP SWAP1 JUMP JUMPDEST PUSH1 0x0 SWAP1 DUP1 DUP3 MSTORE PUSH1 0x5 PUSH1 0x20 MSTORE PUSH1 0xFF PUSH2 0x363F DUP5 PUSH1 0x40 DUP6 KECCAK256 SWAP1 PUSH1 0x1 DUP1 PUSH1 0xA0 SHL SUB AND PUSH1 0x0 MSTORE PUSH1 0x20 MSTORE PUSH1 0x40 PUSH1 0x0 KECCAK256 SWAP1 JUMP JUMPDEST SLOAD AND ISZERO PUSH2 0x360D JUMPI DUP1 DUP3 MSTORE PUSH1 0x5 PUSH1 0x20 SWAP1 DUP2 MSTORE PUSH1 0x40 DUP1 DUP5 KECCAK256 PUSH1 0x1 PUSH1 0x1 PUSH1 0xA0 SHL SUB DUP7 AND PUSH1 0x0 SWAP1 DUP2 MSTORE SWAP3 MSTORE SWAP1 KECCAK256 DUP1 SLOAD PUSH1 0xFF NOT AND SWAP1 SSTORE CALLER SWAP3 PUSH1 0x1 PUSH1 0x1 PUSH1 0xA0 SHL SUB AND SWAP2 PUSH32 0xF6391F5C32D9C69D2A47EA670B442974B53935D1EDC7FD64EB21E047A839171B SWAP1 DUP1 LOG4 PUSH1 0x1 SWAP1 JUMP JUMPDEST SWAP3 SWAP2 PUSH1 0x1 PUSH1 0x1 PUSH1 0xA0 SHL SUB DUP5 AND SWAP2 SWAP1 DUP3 ISZERO PUSH2 0x1691 JUMPI PUSH2 0x36E5 SWAP2 SWAP5 SWAP4 SWAP5 SWAP2 PUSH1 0x40 MLOAD SWAP3 PUSH1 0x1 DUP5 MSTORE PUSH1 0x20 DUP5 ADD MSTORE PUSH1 0x40 DUP4 ADD SWAP2 PUSH1 0x1 DUP4 MSTORE PUSH1 0x60 DUP5 ADD MSTORE PUSH1 0x80 DUP4 ADD PUSH1 0x40 MSTORE JUMP JUMPDEST SWAP3 SWAP1 SWAP4 PUSH1 0x40 SWAP3 PUSH1 0x40 MLOAD SWAP6 PUSH2 0x36F8 DUP8 PUSH2 0xB65 JUMP JUMPDEST PUSH1 0x0 DUP1 SWAP8 MSTORE PUSH2 0x3705 PUSH2 0x396B JUMP JUMPDEST PUSH1 0x0 SWAP6 JUMPDEST DUP2 MLOAD DUP8 LT ISZERO PUSH2 0x3889 JUMPI PUSH2 0x371C DUP8 DUP4 PUSH2 0x2995 JUMP JUMPDEST MLOAD SWAP2 PUSH2 0x3728 DUP9 DUP4 PUSH2 0x2995 JUMP JUMPDEST MLOAD SWAP5 DUP10 JUMPDEST PUSH1 0xFF DUP2 AND PUSH1 0x3 DUP2 GT ISZERO DUP1 PUSH2 0x3880 JUMPI JUMPDEST ISZERO PUSH2 0x3865 JUMPI DUP1 PUSH2 0x374B DUP11 SWAP3 PUSH2 0x72B JUMP JUMPDEST DUP11 DUP14 PUSH2 0x3769 DUP4 PUSH2 0x1B3A DUP7 PUSH2 0x1D40 DUP14 PUSH1 0x0 MSTORE PUSH1 0xF PUSH1 0x20 MSTORE PUSH1 0x40 PUSH1 0x0 KECCAK256 SWAP1 JUMP JUMPDEST SLOAD SWAP1 DUP2 PUSH2 0x3784 JUMPI JUMPDEST POP POP POP POP POP PUSH2 0x377F SWAP1 PUSH2 0x2C99 JUMP JUMPDEST PUSH2 0x372C JUMP JUMPDEST PUSH32 0x79FA03C4F76E383F2EB3D51F38E9DAA7AF8429E8573F8C1BB7D6103E878E3564 PUSH2 0x3843 PUSH2 0x384B SWAP7 SWAP6 PUSH2 0x377F SWAP9 SWAP15 SWAP6 DUP15 SWAP6 DUP15 SWAP6 POP DUP3 DUP9 DUP3 GT PUSH1 0x0 EQ PUSH2 0x3858 JUMPI PUSH2 0x37E2 SWAP2 POP PUSH2 0x1B3A DUP10 SWAP11 JUMPDEST PUSH2 0x1D40 DUP10 PUSH1 0x0 MSTORE PUSH1 0xF PUSH1 0x20 MSTORE PUSH1 0x40 PUSH1 0x0 KECCAK256 SWAP1 JUMP JUMPDEST PUSH2 0x37ED DUP10 DUP3 SLOAD PUSH2 0x2E44 JUMP JUMPDEST SWAP1 SSTORE PUSH1 0x4 PUSH2 0x3805 DUP7 PUSH1 0x0 MSTORE PUSH1 0x9 PUSH1 0x20 MSTORE PUSH1 0x40 PUSH1 0x0 KECCAK256 SWAP1 JUMP JUMPDEST ADD PUSH2 0x3811 DUP10 DUP3 SLOAD PUSH2 0x2E44 JUMP JUMPDEST SWAP1 SSTORE PUSH2 0x382B DUP3 PUSH2 0x1B3A DUP8 PUSH1 0x0 MSTORE PUSH1 0xC PUSH1 0x20 MSTORE PUSH1 0x40 PUSH1 0x0 KECCAK256 SWAP1 JUMP JUMPDEST PUSH2 0x3836 DUP10 DUP3 SLOAD PUSH2 0x2E44 JUMP JUMPDEST SWAP1 SSTORE MLOAD SWAP2 DUP3 SWAP2 DUP9 DUP4 PUSH2 0x2EB0 JUMP JUMPDEST SUB SWAP1 LOG3 PUSH2 0x2E44 JUMP JUMPDEST SWAP7 SWAP1 POP DUP8 CODESIZE DUP11 DUP2 DUP15 PUSH2 0x3771 JUMP JUMPDEST PUSH2 0x1B3A PUSH2 0x37E2 SWAP3 SWAP11 PUSH2 0x37CE JUMP JUMPDEST POP POP SWAP8 SWAP1 SWAP3 POP PUSH2 0x3878 PUSH1 0x1 SWAP3 SWAP6 ISZERO PUSH2 0x4049 JUMP JUMPDEST ADD SWAP6 SWAP3 PUSH2 0x3709 JUMP JUMPDEST POP DUP8 ISZERO ISZERO PUSH2 0x373B JUMP JUMPDEST SWAP5 POP SWAP3 SWAP2 SWAP6 POP POP PUSH2 0xBAE SWAP4 POP PUSH2 0x43C9 JUMP JUMPDEST PUSH1 0xFF PUSH1 0x1 SWAP2 AND ADD SWAP1 PUSH1 0xFF DUP3 GT PUSH2 0x2CAA JUMPI JUMP JUMPDEST DUP1 PUSH1 0x0 MSTORE PUSH1 0x9 PUSH1 0x20 MSTORE PUSH1 0x7 PUSH1 0x40 PUSH1 0x0 KECCAK256 ADD PUSH1 0xFF DUP2 SLOAD PUSH2 0x38CF DUP3 DUP3 PUSH1 0x8 SHR AND PUSH2 0x2A6D JUMP JUMPDEST AND SWAP1 PUSH1 0x4 DUP3 LT ISZERO PUSH2 0x735 JUMPI PUSH1 0x3 DUP3 LT ISZERO PUSH2 0x392D JUMPI PUSH2 0xAA6 PUSH2 0x3928 SWAP2 PUSH2 0x1BD4 PUSH2 0x32D7 PUSH2 0x3923 DUP7 PUSH2 0x391E PUSH32 0xA92C850BB09D5AFA4A6230F4866FAD10264C6FEA20047156B39E3E24C5763AD4 SWAP9 PUSH2 0x72B JUMP JUMPDEST PUSH2 0x389A JUMP JUMPDEST PUSH2 0x2CAF JUMP JUMPDEST SUB SWAP1 LOG2 JUMP JUMPDEST PUSH1 0x40 MLOAD PUSH3 0x461BCD PUSH1 0xE5 SHL DUP2 MSTORE PUSH1 0x20 PUSH1 0x4 DUP3 ADD MSTORE PUSH1 0x16 PUSH1 0x24 DUP3 ADD MSTORE PUSH22 0x416C72656164792061742066696E616C207068617365 PUSH1 0x50 SHL PUSH1 0x44 DUP3 ADD MSTORE PUSH1 0x64 SWAP1 REVERT JUMPDEST PUSH1 0xFF PUSH1 0x6 SLOAD AND PUSH2 0x3977 JUMPI JUMP JUMPDEST PUSH1 0x40 MLOAD PUSH4 0xD93C0665 PUSH1 0xE0 SHL DUP2 MSTORE PUSH1 0x4 SWAP1 REVERT JUMPDEST SWAP4 SWAP2 PUSH1 0x1 PUSH1 0x1 PUSH1 0xA0 SHL SUB DUP6 AND ISZERO PUSH2 0x246B JUMPI PUSH2 0x39C1 PUSH1 0x40 MLOAD SWAP3 PUSH1 0x1 DUP5 MSTORE PUSH1 0x20 DUP5 ADD MSTORE PUSH1 0x40 DUP4 ADD SWAP2 PUSH1 0x1 DUP4 MSTORE PUSH1 0x60 DUP5 ADD MSTORE PUSH1 0x80 DUP4 ADD PUSH1 0x40 MSTORE JUMP JUMPDEST SWAP1 SWAP2 PUSH2 0x39CB PUSH2 0x396B JUMP JUMPDEST PUSH2 0x39D6 DUP3 DUP5 DUP8 PUSH2 0x4553 JUMP JUMPDEST PUSH1 0x0 SWAP5 DUP6 JUMPDEST DUP5 MLOAD DUP8 LT ISZERO PUSH2 0x3A2E JUMPI PUSH2 0x3A26 PUSH1 0x1 SWAP2 PUSH2 0x39F4 DUP10 DUP8 PUSH2 0x2995 JUMP JUMPDEST MLOAD SWAP1 PUSH2 0x3A14 PUSH2 0x3A03 DUP12 DUP11 PUSH2 0x2995 JUMP JUMPDEST MLOAD PUSH1 0x0 MSTORE PUSH1 0x3 PUSH1 0x20 MSTORE PUSH1 0x40 PUSH1 0x0 KECCAK256 SWAP1 JUMP JUMPDEST PUSH2 0x3A1F DUP4 DUP3 SLOAD PUSH2 0x2D2D JUMP JUMPDEST SWAP1 SSTORE PUSH2 0x2D2D JUMP JUMPDEST SWAP7 ADD SWAP6 PUSH2 0x39DB JUMP JUMPDEST PUSH2 0x3A48 SWAP2 SWAP6 SWAP5 SWAP3 SWAP7 POP PUSH2 0x3A43 SWAP1 PUSH1 0x4 SLOAD PUSH2 0x2D2D JUMP JUMPDEST PUSH1 0x4 SSTORE JUMP JUMPDEST DUP1 MLOAD PUSH1 0x1 SUB PUSH2 0x3A66 JUMPI SWAP1 PUSH1 0x20 DUP1 PUSH2 0xBAE SWAP6 SWAP4 ADD MLOAD SWAP2 ADD MLOAD SWAP2 CALLER PUSH2 0x435D JUMP JUMPDEST PUSH2 0xBAE SWAP4 CALLER PUSH2 0x4163 JUMP JUMPDEST PUSH2 0x3A78 PUSH2 0x396B JUMP JUMPDEST PUSH1 0x1 PUSH1 0x1 PUSH1 0xA0 SHL SUB DUP2 AND DUP1 ISZERO ISZERO DUP1 DUP1 PUSH2 0x3CBA JUMPI JUMPDEST PUSH2 0x3C27 JUMPI JUMPDEST PUSH2 0x3AA2 JUMPI JUMPDEST POP SWAP1 PUSH2 0xBAE SWAP3 SWAP2 PUSH2 0x43C9 JUMP JUMPDEST PUSH1 0x0 SWAP5 SWAP3 SWAP4 SWAP5 SWAP3 JUMPDEST DUP5 MLOAD DUP5 LT ISZERO PUSH2 0x3C19 JUMPI PUSH2 0x3ABD DUP5 DUP7 PUSH2 0x2995 JUMP JUMPDEST MLOAD SWAP5 PUSH2 0x3AC9 DUP6 DUP9 PUSH2 0x2995 JUMP JUMPDEST MLOAD SWAP7 PUSH1 0x0 JUMPDEST PUSH1 0xFF DUP2 AND PUSH1 0x3 DUP2 GT ISZERO DUP1 PUSH2 0x3C10 JUMPI JUMPDEST ISZERO PUSH2 0x3BF1 JUMPI PUSH2 0x3AEB DUP2 PUSH2 0x72B JUMP JUMPDEST PUSH2 0x3B07 DUP2 PUSH2 0x1B3A DUP10 PUSH2 0x1D40 DUP14 PUSH1 0x0 MSTORE PUSH1 0xF PUSH1 0x20 MSTORE PUSH1 0x40 PUSH1 0x0 KECCAK256 SWAP1 JUMP JUMPDEST SLOAD DUP1 PUSH2 0x3B1E JUMPI JUMPDEST POP POP PUSH2 0x3B19 SWAP1 PUSH2 0x2C99 JUMP JUMPDEST PUSH2 0x3ACE JUMP JUMPDEST PUSH2 0x3B19 SWAP3 SWAP11 DUP8 DUP12 PUSH32 0x79FA03C4F76E383F2EB3D51F38E9DAA7AF8429E8573F8C1BB7D6103E878E3564 PUSH2 0x3843 PUSH2 0x3BDC SWAP7 DUP14 SWAP7 DUP2 DUP8 DUP3 GT PUSH1 0x0 EQ PUSH2 0x3BE4 JUMPI PUSH2 0x3B79 SWAP2 POP PUSH2 0x1B3A DUP9 SWAP10 JUMPDEST PUSH2 0x1D40 DUP9 PUSH1 0x0 MSTORE PUSH1 0xF PUSH1 0x20 MSTORE PUSH1 0x40 PUSH1 0x0 KECCAK256 SWAP1 JUMP JUMPDEST PUSH2 0x3B84 DUP9 DUP3 SLOAD PUSH2 0x2E44 JUMP JUMPDEST SWAP1 SSTORE PUSH1 0x4 PUSH2 0x3B9C DUP6 PUSH1 0x0 MSTORE PUSH1 0x9 PUSH1 0x20 MSTORE PUSH1 0x40 PUSH1 0x0 KECCAK256 SWAP1 JUMP JUMPDEST ADD PUSH2 0x3BA8 DUP9 DUP3 SLOAD PUSH2 0x2E44 JUMP JUMPDEST SWAP1 SSTORE PUSH2 0x3BC2 DUP2 PUSH2 0x1B3A DUP7 PUSH1 0x0 MSTORE PUSH1 0xC PUSH1 0x20 MSTORE PUSH1 0x40 PUSH1 0x0 KECCAK256 SWAP1 JUMP JUMPDEST PUSH2 0x3BCD DUP9 DUP3 SLOAD PUSH2 0x2E44 JUMP JUMPDEST SWAP1 SSTORE PUSH1 0x40 MLOAD SWAP2 DUP3 SWAP2 DUP9 DUP4 PUSH2 0x2EB0 JUMP JUMPDEST SWAP9 SWAP1 CODESIZE PUSH2 0x3B0E JUMP JUMPDEST PUSH2 0x1B3A PUSH2 0x3B79 SWAP3 SWAP10 PUSH2 0x3B65 JUMP JUMPDEST POP POP SWAP6 POP SWAP2 SWAP6 SWAP4 PUSH2 0x3C05 PUSH1 0x1 SWAP3 SWAP6 ISZERO PUSH2 0x4049 JUMP JUMPDEST ADD SWAP3 SWAP5 SWAP1 SWAP4 SWAP5 PUSH2 0x3AAA JUMP JUMPDEST POP DUP10 ISZERO ISZERO PUSH2 0x3ADD JUMP JUMPDEST SWAP5 SWAP4 SWAP3 POP PUSH2 0xBAE SWAP1 POP PUSH2 0x3A96 JUMP JUMPDEST SWAP4 SWAP2 SWAP1 PUSH1 0x0 JUMPDEST DUP5 MLOAD DUP2 LT ISZERO PUSH2 0x3C75 JUMPI DUP1 PUSH2 0x3C6F PUSH2 0x3C6A PUSH1 0x7 PUSH2 0x3C5F PUSH2 0x3C4E PUSH1 0x1 SWAP7 DUP12 PUSH2 0x2995 JUMP JUMPDEST MLOAD PUSH1 0x0 MSTORE PUSH1 0x9 PUSH1 0x20 MSTORE PUSH1 0x40 PUSH1 0x0 KECCAK256 SWAP1 JUMP JUMPDEST ADD SLOAD PUSH1 0x10 SHR PUSH1 0xFF AND SWAP1 JUMP JUMPDEST PUSH2 0x3FB1 JUMP JUMPDEST ADD PUSH2 0x3C2D JUMP JUMPDEST POP PUSH1 0x0 DUP1 MSTORE PUSH1 0xD PUSH1 0x20 MSTORE SWAP2 SWAP4 SWAP1 SWAP2 SWAP1 PUSH2 0x3CB5 PUSH2 0x3CB0 PUSH32 0x81955A0A11E65EAC625C29E8882660BAE4E165A75D72780094ACAE8ECE9A29EE PUSH2 0x1BD4 JUMP JUMPDEST PUSH2 0x3FFD JUMP JUMPDEST PUSH2 0x3A91 JUMP JUMPDEST POP PUSH1 0x0 PUSH2 0x3A8C JUMP JUMPDEST SWAP2 SWAP4 SWAP3 SWAP1 PUSH2 0x3CCE PUSH2 0x396B JUMP JUMPDEST PUSH1 0x1 PUSH1 0x1 PUSH1 0xA0 SHL SUB DUP4 DUP2 AND DUP1 ISZERO ISZERO DUP1 DUP1 PUSH2 0x3F2A JUMPI JUMPDEST PUSH2 0x3ECA JUMPI JUMPDEST PUSH2 0x3D3F JUMPI JUMPDEST POP PUSH2 0x3CFA DUP4 DUP8 DUP5 DUP8 PUSH2 0x447A JUMP JUMPDEST DUP2 AND PUSH2 0x3D08 JUMPI JUMPDEST POP POP POP POP POP JUMP JUMPDEST DUP5 MLOAD PUSH1 0x1 SUB PUSH2 0x3D2E JUMPI PUSH1 0x20 DUP1 PUSH2 0x3D24 SWAP7 ADD MLOAD SWAP3 ADD MLOAD SWAP3 CALLER PUSH2 0x4392 JUMP JUMPDEST CODESIZE DUP1 DUP1 DUP1 DUP1 PUSH2 0x3D01 JUMP JUMPDEST PUSH2 0x3D3A SWAP5 SWAP2 SWAP3 CALLER PUSH2 0x425E JUMP JUMPDEST PUSH2 0x3D24 JUMP JUMPDEST SWAP2 SWAP7 SWAP6 PUSH1 0x0 SWAP6 SWAP2 SWAP6 SWAP7 JUMPDEST DUP2 MLOAD DUP9 LT ISZERO PUSH2 0x3EBE JUMPI PUSH2 0x3D5C DUP9 DUP4 PUSH2 0x2995 JUMP JUMPDEST MLOAD SWAP3 PUSH2 0x3D68 DUP10 DUP8 PUSH2 0x2995 JUMP JUMPDEST MLOAD SWAP6 PUSH1 0x0 JUMPDEST PUSH1 0xFF DUP2 AND DUP13 PUSH1 0x3 DUP3 GT ISZERO DUP1 PUSH2 0x3EB5 JUMPI JUMPDEST ISZERO PUSH2 0x3E95 JUMPI SWAP1 DUP11 SWAP2 DUP13 PUSH2 0x3DAB DUP4 PUSH2 0x1B3A DUP7 PUSH2 0x1D40 DUP15 PUSH2 0x3D9B DUP6 PUSH2 0x72B JUMP JUMPDEST PUSH1 0x0 MSTORE PUSH1 0xF PUSH1 0x20 MSTORE PUSH1 0x40 PUSH1 0x0 KECCAK256 SWAP1 JUMP JUMPDEST SLOAD DUP1 PUSH2 0x3DC5 JUMPI JUMPDEST POP POP POP POP POP PUSH2 0x3DC0 SWAP1 PUSH2 0x2C99 JUMP JUMPDEST PUSH2 0x3D6D JUMP JUMPDEST PUSH2 0x3E4C SWAP5 SWAP4 PUSH2 0x3DC0 SWAP7 SWAP14 SWAP4 DUP14 SWAP4 DUP14 SWAP4 DUP4 DUP8 DUP3 GT PUSH1 0x0 EQ PUSH2 0x3E88 JUMPI PUSH2 0x3DFD SWAP2 POP PUSH2 0x1B3A DUP9 SWAP10 PUSH2 0x1D40 DUP9 PUSH1 0x0 MSTORE PUSH1 0xF PUSH1 0x20 MSTORE PUSH1 0x40 PUSH1 0x0 KECCAK256 SWAP1 JUMP JUMPDEST PUSH2 0x3E08 DUP9 DUP3 SLOAD PUSH2 0x2E44 JUMP JUMPDEST SWAP1 SSTORE DUP2 AND PUSH2 0x3E59 JUMPI POP PUSH2 0x3843 PUSH32 0x79FA03C4F76E383F2EB3D51F38E9DAA7AF8429E8573F8C1BB7D6103E878E3564 SWAP2 PUSH1 0x4 PUSH2 0x3B9C DUP6 PUSH1 0x0 MSTORE PUSH1 0x9 PUSH1 0x20 MSTORE PUSH1 0x40 PUSH1 0x0 KECCAK256 SWAP1 JUMP JUMPDEST SWAP8 SWAP1 POP DUP9 CODESIZE DUP14 DUP13 DUP3 PUSH2 0x3DB2 JUMP JUMPDEST PUSH2 0x3E76 SWAP4 POP PUSH2 0x1D40 PUSH2 0x1B3A SWAP3 SWAP4 PUSH1 0x0 MSTORE PUSH1 0xF PUSH1 0x20 MSTORE PUSH1 0x40 PUSH1 0x0 KECCAK256 SWAP1 JUMP JUMPDEST PUSH2 0x3E81 DUP4 DUP3 SLOAD PUSH2 0x2D2D JUMP JUMPDEST SWAP1 SSTORE PUSH2 0x2E44 JUMP JUMPDEST PUSH2 0x1B3A PUSH2 0x3DFD SWAP3 SWAP10 PUSH2 0x3B65 JUMP JUMPDEST POP POP POP SWAP6 PUSH1 0x1 SWAP3 SWAP4 SWAP5 POP PUSH2 0x3EAC SWAP1 SWAP10 SWAP2 SWAP10 ISZERO PUSH2 0x4049 JUMP JUMPDEST ADD SWAP7 SWAP2 SWAP1 PUSH2 0x3D49 JUMP JUMPDEST POP DUP10 ISZERO ISZERO PUSH2 0x3D7D JUMP JUMPDEST SWAP8 SWAP3 POP SWAP6 POP SWAP4 CODESIZE PUSH2 0x3CED JUMP JUMPDEST SWAP8 SWAP6 SWAP5 SWAP4 SWAP3 SWAP2 SWAP1 PUSH1 0x0 JUMPDEST DUP9 MLOAD DUP2 LT ISZERO PUSH2 0x3EFB JUMPI DUP1 PUSH2 0x3EF5 PUSH2 0x3C6A PUSH1 0x7 PUSH2 0x3C5F PUSH2 0x3C4E PUSH1 0x1 SWAP7 DUP16 PUSH2 0x2995 JUMP JUMPDEST ADD PUSH2 0x3ED4 JUMP JUMPDEST POP SWAP1 SWAP2 SWAP3 SWAP4 SWAP5 SWAP6 SWAP8 PUSH2 0x3F25 PUSH2 0x3CB0 PUSH2 0x1BD4 DUP7 PUSH1 0x1 DUP1 PUSH1 0xA0 SHL SUB AND PUSH1 0x0 MSTORE PUSH1 0xD PUSH1 0x20 MSTORE PUSH1 0x40 PUSH1 0x0 KECCAK256 SWAP1 JUMP JUMPDEST PUSH2 0x3CE8 JUMP JUMPDEST POP DUP3 DUP5 AND ISZERO ISZERO PUSH2 0x3CE3 JUMP JUMPDEST DUP1 PUSH1 0x0 MSTORE PUSH1 0x11 PUSH1 0x20 MSTORE PUSH1 0x40 PUSH1 0x0 KECCAK256 SLOAD ISZERO PUSH1 0x0 EQ PUSH2 0x3FAB JUMPI PUSH1 0x10 SLOAD PUSH9 0x10000000000000000 DUP2 LT ISZERO PUSH2 0xB60 JUMPI PUSH1 0x1 DUP2 ADD DUP1 PUSH1 0x10 SSTORE DUP2 LT ISZERO PUSH2 0x29A9 JUMPI DUP2 SWAP1 PUSH32 0x1B6847DC741A1B0CD08D278845F9D819D87B734759AFB55FE2DE5CB82A9AE672 ADD SSTORE PUSH1 0x10 SLOAD SWAP1 PUSH1 0x0 MSTORE PUSH1 0x11 PUSH1 0x20 MSTORE PUSH1 0x40 PUSH1 0x0 KECCAK256 SSTORE PUSH1 0x1 SWAP1 JUMP JUMPDEST POP PUSH1 0x0 SWAP1 JUMP JUMPDEST ISZERO PUSH2 0x3FB8 JUMPI JUMP JUMPDEST PUSH1 0x40 MLOAD PUSH3 0x461BCD PUSH1 0xE5 SHL DUP2 MSTORE PUSH1 0x20 PUSH1 0x4 DUP3 ADD MSTORE PUSH1 0x1F PUSH1 0x24 DUP3 ADD MSTORE PUSH32 0x5472616E7366657273206C6F636B656420647572696E672066756E64696E6700 PUSH1 0x44 DUP3 ADD MSTORE PUSH1 0x64 SWAP1 REVERT JUMPDEST ISZERO PUSH2 0x4004 JUMPI JUMP JUMPDEST PUSH1 0x40 MLOAD PUSH3 0x461BCD PUSH1 0xE5 SHL DUP2 MSTORE PUSH1 0x20 PUSH1 0x4 DUP3 ADD MSTORE PUSH1 0x19 PUSH1 0x24 DUP3 ADD MSTORE PUSH32 0x526563697069656E74206E6F742077686974656C697374656400000000000000 PUSH1 0x44 DUP3 ADD MSTORE PUSH1 0x64 SWAP1 REVERT JUMPDEST ISZERO PUSH2 0x4050 JUMPI JUMP JUMPDEST PUSH1 0x40 MLOAD PUSH3 0x461BCD PUSH1 0xE5 SHL DUP2 MSTORE PUSH1 0x20 PUSH1 0x4 DUP3 ADD MSTORE PUSH1 0x23 PUSH1 0x24 DUP3 ADD MSTORE PUSH32 0x496E73756666696369656E742070686173652D747261636B656420686F6C6469 PUSH1 0x44 DUP3 ADD MSTORE PUSH3 0x6E6773 PUSH1 0xE8 SHL PUSH1 0x64 DUP3 ADD MSTORE PUSH1 0x84 SWAP1 REVERT JUMPDEST SWAP1 DUP2 PUSH1 0x20 SWAP2 SUB SLT PUSH2 0x4D6 JUMPI MLOAD PUSH2 0xED2 DUP2 PUSH2 0x5F2 JUMP JUMPDEST SWAP3 PUSH2 0x40E5 PUSH2 0xED2 SWAP6 SWAP4 PUSH2 0x40F3 SWAP4 PUSH1 0x1 DUP1 PUSH1 0xA0 SHL SUB AND DUP7 MSTORE PUSH1 0x0 PUSH1 0x20 DUP8 ADD MSTORE PUSH1 0xA0 PUSH1 0x40 DUP8 ADD MSTORE PUSH1 0xA0 DUP7 ADD SWAP1 PUSH2 0x1254 JUMP JUMPDEST SWAP1 DUP5 DUP3 SUB PUSH1 0x60 DUP7 ADD MSTORE PUSH2 0x1254 JUMP JUMPDEST SWAP2 PUSH1 0x80 DUP2 DUP5 SUB SWAP2 ADD MSTORE PUSH2 0x795 JUMP JUMPDEST SWAP4 SWAP1 PUSH2 0xED2 SWAP6 SWAP4 PUSH2 0x40E5 SWAP2 PUSH2 0x40F3 SWAP5 PUSH1 0x1 DUP1 PUSH1 0xA0 SHL SUB DUP1 SWAP3 AND DUP9 MSTORE AND PUSH1 0x20 DUP8 ADD MSTORE PUSH1 0xA0 PUSH1 0x40 DUP8 ADD MSTORE PUSH1 0xA0 DUP7 ADD SWAP1 PUSH2 0x1254 JUMP JUMPDEST RETURNDATASIZE ISZERO PUSH2 0x415E JUMPI RETURNDATASIZE SWAP1 PUSH2 0x4144 DUP3 PUSH2 0xC27 JUMP JUMPDEST SWAP2 PUSH2 0x4152 PUSH1 0x40 MLOAD SWAP4 DUP5 PUSH2 0xB80 JUMP JUMPDEST DUP3 MSTORE RETURNDATASIZE PUSH1 0x0 PUSH1 0x20 DUP5 ADD RETURNDATACOPY JUMP JUMPDEST PUSH1 0x60 SWAP1 JUMP JUMPDEST SWAP3 SWAP4 SWAP2 SWAP1 SWAP4 DUP5 EXTCODESIZE PUSH2 0x4175 JUMPI POP POP POP POP POP JUMP JUMPDEST PUSH1 0x20 SWAP2 PUSH2 0x4198 PUSH1 0x40 MLOAD SWAP5 DUP6 SWAP4 DUP5 SWAP4 PUSH4 0xBC197C81 PUSH1 0xE0 SHL SWAP9 DUP10 DUP7 MSTORE PUSH1 0x4 DUP7 ADD PUSH2 0x40B6 JUMP JUMPDEST SUB DUP2 PUSH1 0x0 PUSH1 0x1 PUSH1 0x1 PUSH1 0xA0 SHL SUB DUP9 AND GAS CALL PUSH1 0x0 SWAP2 DUP2 PUSH2 0x422D JUMPI JUMPDEST POP PUSH2 0x41F0 JUMPI DUP3 PUSH2 0x41BF PUSH2 0x4133 JUMP JUMPDEST DUP1 MLOAD SWAP2 SWAP1 DUP3 PUSH2 0x41E9 JUMPI PUSH1 0x40 MLOAD PUSH4 0x2BFA23E7 PUSH1 0xE1 SHL DUP2 MSTORE PUSH1 0x1 PUSH1 0x1 PUSH1 0xA0 SHL SUB DUP4 AND PUSH1 0x4 DUP3 ADD MSTORE PUSH1 0x24 SWAP1 REVERT JUMPDEST SWAP1 POP PUSH1 0x20 ADD REVERT JUMPDEST PUSH1 0x1 PUSH1 0x1 PUSH1 0xE0 SHL SUB NOT AND SUB PUSH2 0x420A JUMPI POP CODESIZE DUP1 DUP1 DUP1 DUP1 PUSH2 0x3D01 JUMP JUMPDEST PUSH1 0x40 MLOAD PUSH4 0x2BFA23E7 PUSH1 0xE1 SHL DUP2 MSTORE PUSH1 0x1 PUSH1 0x1 PUSH1 0xA0 SHL SUB SWAP2 SWAP1 SWAP2 AND PUSH1 0x4 DUP3 ADD MSTORE PUSH1 0x24 SWAP1 REVERT JUMPDEST PUSH2 0x4250 SWAP2 SWAP3 POP PUSH1 0x20 RETURNDATASIZE PUSH1 0x20 GT PUSH2 0x4257 JUMPI JUMPDEST PUSH2 0x4248 DUP2 DUP4 PUSH2 0xB80 JUMP JUMPDEST DUP2 ADD SWAP1 PUSH2 0x40A1 JUMP JUMPDEST SWAP1 CODESIZE PUSH2 0x41B1 JUMP JUMPDEST POP RETURNDATASIZE PUSH2 0x423E JUMP JUMPDEST SWAP4 SWAP3 SWAP1 SWAP5 SWAP2 SWAP5 DUP6 EXTCODESIZE PUSH2 0x4273 JUMPI JUMPDEST POP POP POP POP POP POP JUMP JUMPDEST PUSH2 0x4296 PUSH1 0x20 SWAP4 PUSH1 0x40 MLOAD SWAP6 DUP7 SWAP5 DUP6 SWAP5 PUSH4 0xBC197C81 PUSH1 0xE0 SHL SWAP10 DUP11 DUP8 MSTORE PUSH1 0x4 DUP8 ADD PUSH2 0x4101 JUMP JUMPDEST SUB DUP2 PUSH1 0x0 PUSH1 0x1 PUSH1 0x1 PUSH1 0xA0 SHL SUB DUP9 AND GAS CALL PUSH1 0x0 SWAP2 DUP2 PUSH2 0x42D8 JUMPI JUMPDEST POP PUSH2 0x42BD JUMPI DUP3 PUSH2 0x41BF PUSH2 0x4133 JUMP JUMPDEST PUSH1 0x1 PUSH1 0x1 PUSH1 0xE0 SHL SUB NOT AND SUB PUSH2 0x420A JUMPI POP CODESIZE DUP1 DUP1 DUP1 DUP1 DUP1 PUSH2 0x426B JUMP JUMPDEST PUSH2 0x42F2 SWAP2 SWAP3 POP PUSH1 0x20 RETURNDATASIZE PUSH1 0x20 GT PUSH2 0x4257 JUMPI PUSH2 0x4248 DUP2 DUP4 PUSH2 0xB80 JUMP JUMPDEST SWAP1 CODESIZE PUSH2 0x42AF JUMP JUMPDEST SWAP1 SWAP3 PUSH1 0xA0 SWAP3 PUSH2 0xED2 SWAP6 SWAP5 PUSH1 0x1 DUP1 DUP7 SHL SUB AND DUP4 MSTORE PUSH1 0x0 PUSH1 0x20 DUP5 ADD MSTORE PUSH1 0x40 DUP4 ADD MSTORE PUSH1 0x60 DUP3 ADD MSTORE DUP2 PUSH1 0x80 DUP3 ADD MSTORE ADD SWAP1 PUSH2 0x795 JUMP JUMPDEST SWAP2 SWAP3 PUSH2 0xED2 SWAP6 SWAP5 SWAP2 PUSH1 0xA0 SWAP5 PUSH1 0x1 DUP1 DUP8 SHL SUB DUP1 SWAP3 AND DUP6 MSTORE AND PUSH1 0x20 DUP5 ADD MSTORE PUSH1 0x40 DUP4 ADD MSTORE PUSH1 0x60 DUP3 ADD MSTORE DUP2 PUSH1 0x80 DUP3 ADD MSTORE ADD SWAP1 PUSH2 0x795 JUMP JUMPDEST SWAP3 SWAP4 SWAP2 SWAP1 SWAP4 DUP5 EXTCODESIZE PUSH2 0x436F JUMPI POP POP POP POP POP JUMP JUMPDEST PUSH1 0x20 SWAP2 PUSH2 0x4198 PUSH1 0x40 MLOAD SWAP5 DUP6 SWAP4 DUP5 SWAP4 PUSH4 0xF23A6E61 PUSH1 0xE0 SHL SWAP9 DUP10 DUP7 MSTORE PUSH1 0x4 DUP7 ADD PUSH2 0x42F9 JUMP JUMPDEST SWAP4 SWAP3 SWAP1 SWAP5 SWAP2 SWAP5 DUP6 EXTCODESIZE PUSH2 0x43A6 JUMPI POP POP POP POP POP POP JUMP JUMPDEST PUSH2 0x4296 PUSH1 0x20 SWAP4 PUSH1 0x40 MLOAD SWAP6 DUP7 SWAP5 DUP6 SWAP5 PUSH4 0xF23A6E61 PUSH1 0xE0 SHL SWAP10 DUP11 DUP8 MSTORE PUSH1 0x4 DUP8 ADD PUSH2 0x432A JUMP JUMPDEST SWAP3 SWAP2 SWAP3 PUSH2 0x43D7 DUP5 DUP4 DUP4 PUSH2 0x466E JUMP JUMPDEST PUSH1 0x1 PUSH1 0x1 PUSH1 0xA0 SHL SUB AND ISZERO PUSH2 0x4430 JUMPI JUMPDEST PUSH1 0x0 DUP1 JUMPDEST DUP3 MLOAD DUP3 LT ISZERO PUSH2 0x441E JUMPI PUSH1 0x1 SWAP1 PUSH2 0x4400 DUP4 DUP8 PUSH2 0x2995 JUMP JUMPDEST MLOAD SWAP1 PUSH2 0x440F PUSH2 0x3A03 DUP6 DUP8 PUSH2 0x2995 JUMP JUMPDEST DUP3 DUP2 SLOAD SUB SWAP1 SSTORE ADD SWAP2 ADD SWAP1 PUSH2 0x43EA JUMP JUMPDEST SWAP2 POP POP PUSH2 0xBAE SWAP2 SWAP3 POP PUSH1 0x4 SLOAD SUB PUSH1 0x4 SSTORE JUMP JUMPDEST PUSH1 0x0 DUP1 JUMPDEST DUP3 MLOAD DUP3 LT ISZERO PUSH2 0x4464 JUMPI PUSH2 0x445C PUSH1 0x1 SWAP2 PUSH2 0x444D DUP5 DUP9 PUSH2 0x2995 JUMP JUMPDEST MLOAD SWAP1 PUSH2 0x3A14 PUSH2 0x3A03 DUP7 DUP9 PUSH2 0x2995 JUMP JUMPDEST SWAP2 ADD SWAP1 PUSH2 0x4434 JUMP JUMPDEST PUSH2 0x4475 SWAP2 POP PUSH2 0x3A43 SWAP1 PUSH1 0x4 SLOAD PUSH2 0x2D2D JUMP JUMPDEST PUSH2 0x43E6 JUMP JUMPDEST SWAP1 SWAP4 SWAP3 SWAP4 PUSH2 0x448A DUP6 DUP5 DUP4 DUP6 PUSH2 0x47D4 JUMP JUMPDEST PUSH1 0x1 PUSH1 0x1 PUSH1 0xA0 SHL SUB SWAP2 DUP3 AND ISZERO PUSH2 0x44DE JUMPI JUMPDEST AND ISZERO PUSH2 0x44A6 JUMPI POP SWAP1 POP JUMP JUMPDEST PUSH1 0x0 DUP1 JUMPDEST DUP3 MLOAD DUP3 LT ISZERO PUSH2 0x441E JUMPI PUSH1 0x1 SWAP1 PUSH2 0x44C0 DUP4 DUP8 PUSH2 0x2995 JUMP JUMPDEST MLOAD SWAP1 PUSH2 0x44CF PUSH2 0x3A03 DUP6 DUP8 PUSH2 0x2995 JUMP JUMPDEST DUP3 DUP2 SLOAD SUB SWAP1 SSTORE ADD SWAP2 ADD SWAP1 PUSH2 0x44AA JUMP JUMPDEST SWAP3 PUSH1 0x0 SWAP2 DUP3 JUMPDEST DUP5 MLOAD DUP5 LT ISZERO PUSH2 0x4514 JUMPI PUSH2 0x450C PUSH1 0x1 SWAP2 PUSH2 0x44FD DUP7 DUP11 PUSH2 0x2995 JUMP JUMPDEST MLOAD SWAP1 PUSH2 0x3A14 PUSH2 0x3A03 DUP9 DUP11 PUSH2 0x2995 JUMP JUMPDEST SWAP4 ADD SWAP3 PUSH2 0x44E4 JUMP JUMPDEST PUSH2 0x4529 SWAP2 SWAP4 POP PUSH2 0x3A43 SWAP1 SWAP6 SWAP3 SWAP6 PUSH1 0x4 SLOAD PUSH2 0x2D2D JUMP JUMPDEST PUSH2 0x449B JUMP JUMPDEST SWAP1 SWAP2 PUSH2 0x4545 PUSH2 0xED2 SWAP4 PUSH1 0x40 DUP5 MSTORE PUSH1 0x40 DUP5 ADD SWAP1 PUSH2 0x1254 JUMP JUMPDEST SWAP2 PUSH1 0x20 DUP2 DUP5 SUB SWAP2 ADD MSTORE PUSH2 0x1254 JUMP JUMPDEST SWAP2 SWAP1 SWAP2 DUP3 MLOAD DUP3 MLOAD SWAP1 DUP2 DUP2 SUB PUSH2 0x2A4B JUMPI POP POP PUSH1 0x0 JUMPDEST DUP4 MLOAD DUP2 LT ISZERO PUSH2 0x45CE JUMPI PUSH1 0x5 DUP2 SWAP1 SHL DUP5 DUP2 ADD PUSH1 0x20 SWAP1 DUP2 ADD MLOAD SWAP2 DUP6 ADD ADD MLOAD PUSH1 0x1 SWAP3 SWAP2 DUP5 SWAP1 PUSH1 0x1 PUSH1 0x1 PUSH1 0xA0 SHL SUB DUP3 AND PUSH2 0x45A1 JUMPI JUMPDEST POP POP POP ADD PUSH2 0x4567 JUMP JUMPDEST PUSH2 0x45C4 SWAP2 PUSH2 0x1D40 PUSH2 0x45BC SWAP3 PUSH1 0x0 MSTORE PUSH1 0x0 PUSH1 0x20 MSTORE PUSH1 0x40 PUSH1 0x0 KECCAK256 SWAP1 JUMP JUMPDEST SWAP2 DUP3 SLOAD PUSH2 0x2D2D JUMP JUMPDEST SWAP1 SSTORE CODESIZE DUP4 DUP2 PUSH2 0x4598 JUMP JUMPDEST POP SWAP2 PUSH1 0x1 DUP2 MLOAD EQ PUSH1 0x0 EQ PUSH2 0x462F JUMPI PUSH1 0x20 SWAP1 DUP2 ADD MLOAD SWAP2 DUP2 ADD MLOAD PUSH1 0x40 DUP1 MLOAD SWAP4 DUP5 MSTORE SWAP2 DUP4 ADD MSTORE PUSH1 0x1 PUSH1 0x1 PUSH1 0xA0 SHL SUB SWAP1 SWAP3 AND SWAP2 PUSH1 0x0 SWAP2 CALLER SWAP2 PUSH32 0xC3D58168C5AE7397731D063D5BBF3D657854427343F4C083240F7AACAA2D0F62 SWAP2 SWAP1 DUP2 SWAP1 DUP2 ADD JUMPDEST SUB SWAP1 LOG4 JUMP JUMPDEST PUSH32 0x4A39DC06D4C0DBC64B70AF90FD698A233A518AA5D07E595D983B8C0526C8F7FB PUSH2 0x462A PUSH1 0x0 SWAP4 SWAP5 PUSH1 0x40 MLOAD SWAP2 DUP3 SWAP2 PUSH1 0x1 DUP1 PUSH1 0xA0 SHL SUB AND SWAP7 CALLER SWAP6 DUP4 PUSH2 0x452E JUMP JUMPDEST SWAP3 SWAP2 SWAP1 DUP1 MLOAD DUP3 MLOAD SWAP1 DUP2 DUP2 SUB PUSH2 0x2A4B JUMPI POP POP PUSH1 0x0 JUMPDEST DUP2 MLOAD DUP2 LT ISZERO PUSH2 0x4735 JUMPI PUSH1 0x5 DUP2 SWAP1 SHL DUP3 DUP2 ADD PUSH1 0x20 SWAP1 DUP2 ADD MLOAD SWAP2 DUP6 ADD ADD MLOAD PUSH1 0x1 PUSH1 0x1 PUSH1 0xA0 SHL SUB DUP8 AND PUSH2 0x46B7 JUMPI JUMPDEST POP POP PUSH1 0x1 ADD PUSH2 0x4682 JUMP JUMPDEST PUSH2 0x46CF DUP8 PUSH2 0x1D40 DUP5 PUSH1 0x0 MSTORE PUSH1 0x0 PUSH1 0x20 MSTORE PUSH1 0x40 PUSH1 0x0 KECCAK256 SWAP1 JUMP JUMPDEST SLOAD DUP2 DUP2 LT PUSH2 0x46FE JUMPI DUP8 PUSH2 0x1D40 PUSH1 0x1 SWAP6 SWAP5 SWAP4 PUSH2 0x46F6 SWAP4 SUB SWAP4 PUSH1 0x0 MSTORE PUSH1 0x0 PUSH1 0x20 MSTORE PUSH1 0x40 PUSH1 0x0 KECCAK256 SWAP1 JUMP JUMPDEST SSTORE SWAP1 CODESIZE PUSH2 0x46AD JUMP JUMPDEST PUSH1 0x40 MLOAD PUSH4 0x3DEE4C5 PUSH1 0xE0 SHL DUP2 MSTORE PUSH1 0x1 PUSH1 0x1 PUSH1 0xA0 SHL SUB DUP10 AND PUSH1 0x4 DUP3 ADD MSTORE PUSH1 0x24 DUP2 ADD SWAP2 SWAP1 SWAP2 MSTORE PUSH1 0x44 DUP2 ADD DUP3 SWAP1 MSTORE PUSH1 0x64 DUP2 ADD DUP4 SWAP1 MSTORE PUSH1 0x84 SWAP1 REVERT JUMPDEST POP SWAP1 PUSH1 0x0 SWAP3 SWAP4 SWAP2 PUSH1 0x1 DUP2 MLOAD EQ DUP5 EQ PUSH2 0x4795 JUMPI PUSH1 0x20 SWAP1 DUP2 ADD MLOAD SWAP2 DUP2 ADD MLOAD PUSH1 0x40 DUP1 MLOAD SWAP4 DUP5 MSTORE SWAP2 DUP4 ADD MSTORE PUSH1 0x1 PUSH1 0x1 PUSH1 0xA0 SHL SUB SWAP1 SWAP3 AND SWAP2 CALLER SWAP2 PUSH32 0xC3D58168C5AE7397731D063D5BBF3D657854427343F4C083240F7AACAA2D0F62 SWAP2 DUP2 SWAP1 DUP2 ADD PUSH2 0x462A JUMP JUMPDEST PUSH1 0x40 MLOAD PUSH1 0x1 PUSH1 0x1 PUSH1 0xA0 SHL SUB SWAP1 SWAP4 AND SWAP3 CALLER SWAP3 PUSH32 0x4A39DC06D4C0DBC64B70AF90FD698A233A518AA5D07E595D983B8C0526C8F7FB SWAP3 DUP3 SWAP2 PUSH2 0x462A SWAP2 DUP4 PUSH2 0x452E JUMP JUMPDEST SWAP4 SWAP3 SWAP2 DUP1 MLOAD DUP4 MLOAD SWAP1 DUP2 DUP2 SUB PUSH2 0x2A4B JUMPI POP POP PUSH1 0x0 JUMPDEST DUP2 MLOAD DUP2 LT ISZERO PUSH2 0x48D6 JUMPI PUSH1 0x5 DUP2 SWAP1 SHL DUP3 DUP2 ADD PUSH1 0x20 SWAP1 DUP2 ADD MLOAD SWAP2 DUP7 ADD ADD MLOAD PUSH1 0x1 PUSH1 0x1 PUSH1 0xA0 SHL SUB SWAP3 SWAP2 DUP6 SWAP1 DUP10 DUP6 AND PUSH2 0x4850 JUMPI JUMPDEST PUSH1 0x1 SWAP5 DUP3 AND PUSH2 0x482B JUMPI JUMPDEST POP POP POP ADD PUSH2 0x47E8 JUMP JUMPDEST PUSH2 0x4846 SWAP2 PUSH2 0x1D40 PUSH2 0x45BC SWAP3 PUSH1 0x0 MSTORE PUSH1 0x0 PUSH1 0x20 MSTORE PUSH1 0x40 PUSH1 0x0 KECCAK256 SWAP1 JUMP JUMPDEST SWAP1 SSTORE CODESIZE DUP5 DUP2 PUSH2 0x4822 JUMP JUMPDEST SWAP2 SWAP3 SWAP4 SWAP1 POP PUSH2 0x486D DUP10 PUSH2 0x1D40 DUP5 PUSH1 0x0 MSTORE PUSH1 0x0 PUSH1 0x20 MSTORE PUSH1 0x40 PUSH1 0x0 KECCAK256 SWAP1 JUMP JUMPDEST SLOAD DUP4 DUP2 LT PUSH2 0x489F JUMPI SWAP2 DUP7 SWAP2 DUP5 PUSH1 0x1 SWAP7 SWAP6 SWAP5 SUB PUSH2 0x4897 DUP13 PUSH2 0x1D40 DUP6 PUSH1 0x0 MSTORE PUSH1 0x0 PUSH1 0x20 MSTORE PUSH1 0x40 PUSH1 0x0 KECCAK256 SWAP1 JUMP JUMPDEST SSTORE SWAP5 POP PUSH2 0x4818 JUMP JUMPDEST PUSH1 0x40 MLOAD PUSH4 0x3DEE4C5 PUSH1 0xE0 SHL DUP2 MSTORE PUSH1 0x1 PUSH1 0x1 PUSH1 0xA0 SHL SUB DUP12 AND PUSH1 0x4 DUP3 ADD MSTORE PUSH1 0x24 DUP2 ADD SWAP2 SWAP1 SWAP2 MSTORE PUSH1 0x44 DUP2 ADD DUP5 SWAP1 MSTORE PUSH1 0x64 DUP2 ADD DUP4 SWAP1 MSTORE PUSH1 0x84 SWAP1 REVERT JUMPDEST POP DUP1 MLOAD SWAP4 SWAP5 SWAP4 SWAP2 SWAP3 SWAP2 PUSH1 0x1 SUB PUSH2 0x4938 JUMPI PUSH1 0x20 SWAP1 DUP2 ADD MLOAD SWAP2 DUP2 ADD MLOAD PUSH1 0x40 DUP1 MLOAD SWAP4 DUP5 MSTORE SWAP2 DUP4 ADD MSTORE PUSH1 0x1 PUSH1 0x1 PUSH1 0xA0 SHL SUB SWAP3 DUP4 AND SWAP4 SWAP1 SWAP3 AND SWAP2 CALLER SWAP2 PUSH32 0xC3D58168C5AE7397731D063D5BBF3D657854427343F4C083240F7AACAA2D0F62 SWAP2 DUP2 SWAP1 DUP2 ADD PUSH2 0x462A JUMP JUMPDEST PUSH1 0x40 MLOAD PUSH1 0x1 PUSH1 0x1 PUSH1 0xA0 SHL SUB SWAP4 DUP5 AND SWAP5 SWAP1 SWAP4 AND SWAP3 CALLER SWAP3 PUSH32 0x4A39DC06D4C0DBC64B70AF90FD698A233A518AA5D07E595D983B8C0526C8F7FB SWAP3 DUP3 SWAP2 PUSH2 0x462A SWAP2 DUP4 PUSH2 0x452E JUMP INVALID LOG2 PUSH5 0x6970667358 0x22 SLT KECCAK256 0xC7 OR CALLER CALLER 0xC8 PUSH27 0xBCF90EF86B9C799A3292896CC62DC697B368788E64EAF47F2DCC64 PUSH20 0x6F6C634300081800332F8788117E7EFF1D82E926 0xEC PUSH26 0x4901D17C78024A50270940304540A733656F0D00000000000000 "},"methodIdentifiers":{"BURNER_ROLE()":"282c51f3","COUNTY_ALLOCATION()":"ceadd5b9","COUNTY_MULTIPLIER()":"11dd6cdc","COUNTY_VOTING_MULTIPLIER()":"c7527d08","DEFAULT_ADMIN_ROLE()":"a217fddf","INTERNATIONAL_ALLOCATION()":"a7907f74","INTERNATIONAL_MULTIPLIER()":"c65b6820","INTERNATIONAL_VOTING_MULTIPLIER()":"23067248","MINTER_ROLE()":"d5391393","NATIONAL_ALLOCATION()":"5561c5b3","NATIONAL_MULTIPLIER()":"7ca8c6f1","NATIONAL_VOTING_MULTIPLIER()":"500e9f73","PAUSER_ROLE()":"e63ab1e9","PHASE_ADVANCER_ROLE()":"35894afd","STATE_ALLOCATION()":"5fc68c46","STATE_MULTIPLIER()":"5bbe9f5e","STATE_VOTING_MULTIPLIER()":"f8147a8a","WHITELIST_ADMIN_ROLE()":"54202c4e","addToWhitelist(address,uint8)":"0263b858","addressPhaseEligibility(address)":"edff4969","advancePhase(uint256)":"81aaf4ce","amlCheckIds(address)":"19e76454","autoWhitelist(address,uint8,bytes)":"2632067a","balanceOf(address,uint256)":"00fdd58e","balanceOfBatch(address[],uint256[])":"4e1273f4","basePrice()":"c7876ea4","burn(address,uint256,uint256)":"f5298aca","burnBatch(address,uint256[],uint256[])":"6b20c454","burnFromOnFailure(uint256,address,uint256)":"3bb0b5b6","createComplianceCheckpoint(uint256)":"742c4f4c","createProperty(string,string,uint256,uint256,uint256,string,address)":"c611643c","exists(uint256)":"4f558e79","getAllPropertyIds()":"4ff69e83","getCurrentPrice(uint256)":"c55d0f56","getKYCStatus(address)":"000c8df0","getProperty(uint256)":"32665ffb","getPropertyCount()":"7326b901","getRoleAdmin(bytes32)":"248a9ca3","getTotalWeightedVotingPower(uint256)":"8cdc1e87","getVotingMultiplier(uint8)":"6ce2f91d","getVotingPower(uint256,address)":"dbdad432","grantRole(bytes32,address)":"2f2ff15d","hasRole(bytes32,address)":"91d14854","holdingsByPhase(uint256,address,uint8)":"9ca02763","isApprovedForAll(address,address)":"e985e9c5","kycVerificationIds(address)":"75cfcb3d","kycVerificationTimestamps(address)":"0fbe640f","markFunded(uint256)":"c5666eb2","mintTokens(uint256,address,uint256)":"8d6819be","pause()":"8456cb59","paused()":"5c975abb","phaseAllocations(uint256,uint8)":"6ea99677","phaseMinted(uint256,uint8)":"04fa6173","properties(uint256)":"f7b10808","propertyCount()":"c361a335","propertyExists(uint256)":"4a164732","recordAMLCheck(address,bytes32)":"6e1ffa9b","recordAMLFailure(address,string)":"43cb5413","recordKYCVerification(address,bytes32)":"f918ce1b","removeFromWhitelist(address)":"8ab1d681","renounceRole(bytes32,address)":"36568abe","requestRegulatorAudit(uint256)":"7b667e6f","revokeKYCVerification(address,string)":"847ede74","revokeRole(bytes32,address)":"d547741f","safeBatchTransferFrom(address,address,uint256[],uint256[],bytes)":"2eb2c2d6","safeTransferFrom(address,address,uint256,uint256,bytes)":"f242432a","setApprovalForAll(address,bool)":"a22cb465","supportsInterface(bytes4)":"01ffc9a7","totalSupply()":"18160ddd","totalSupply(uint256)":"bd85b039","unpause()":"3f4ba83a","updateBasePrice(uint256)":"fd5baa88","updateLLCBacking(uint256,string,address)":"65c4c7e2","uri(uint256)":"0e89341c","whitelist(address)":"9b19251a"}}}}}