{"contracts/PhaseManager.sol":{"PhaseManager":{"abi":[{"inputs":[{"internalType":"address","name":"_propertyToken","type":"address"},{"internalType":"address","name":"_governance","type":"address"}],"stateMutability":"nonpayable","type":"constructor"},{"inputs":[],"name":"AccessControlBadConfirmation","type":"error"},{"inputs":[{"internalType":"address","name":"account","type":"address"},{"internalType":"bytes32","name":"neededRole","type":"bytes32"}],"name":"AccessControlUnauthorizedAccount","type":"error"},{"anonymous":false,"inputs":[{"indexed":true,"internalType":"uint256","name":"propertyId","type":"uint256"},{"indexed":true,"internalType":"address","name":"claimer","type":"address"},{"indexed":false,"internalType":"uint256","name":"bonus","type":"uint256"}],"name":"BonusClaimed","type":"event"},{"anonymous":false,"inputs":[{"indexed":true,"internalType":"uint256","name":"propertyId","type":"uint256"},{"indexed":false,"internalType":"uint256","name":"demandBps","type":"uint256"}],"name":"DemandDrivenAdvancement","type":"event"},{"anonymous":false,"inputs":[{"indexed":true,"internalType":"uint256","name":"propertyId","type":"uint256"},{"indexed":false,"internalType":"uint8","name":"demandType","type":"uint8"},{"indexed":false,"internalType":"uint256","name":"demandBps","type":"uint256"}],"name":"DemandNudge","type":"event"},{"anonymous":false,"inputs":[{"indexed":true,"internalType":"uint256","name":"propertyId","type":"uint256"},{"indexed":false,"internalType":"uint256","name":"activeVoters","type":"uint256"},{"indexed":false,"internalType":"uint256","name":"totalEligible","type":"uint256"},{"indexed":false,"internalType":"uint256","name":"engagementPercent","type":"uint256"}],"name":"EngagementUpdated","type":"event"},{"anonymous":false,"inputs":[{"indexed":true,"internalType":"uint256","name":"propertyId","type":"uint256"},{"indexed":true,"internalType":"address","name":"user","type":"address"},{"indexed":false,"internalType":"uint8","name":"eligiblePhase","type":"uint8"}],"name":"GeoEligibilityChecked","type":"event"},{"anonymous":false,"inputs":[{"indexed":true,"internalType":"address","name":"newOracle","type":"address"}],"name":"GeoOracleUpdated","type":"event"},{"anonymous":false,"inputs":[{"indexed":true,"internalType":"uint256","name":"propertyId","type":"uint256"},{"indexed":false,"internalType":"string","name":"nudgeType","type":"string"},{"indexed":false,"internalType":"uint256","name":"engagementPercent","type":"uint256"}],"name":"NudgeTriggered","type":"event"},{"anonymous":false,"inputs":[{"indexed":true,"internalType":"uint256","name":"propertyId","type":"uint256"},{"indexed":false,"internalType":"uint8","name":"fromPhase","type":"uint8"},{"indexed":false,"internalType":"uint8","name":"toPhase","type":"uint8"},{"indexed":false,"internalType":"uint256","name":"engagementPercent","type":"uint256"}],"name":"PhaseAdvancedByEngagement","type":"event"},{"anonymous":false,"inputs":[{"indexed":true,"internalType":"uint256","name":"propertyId","type":"uint256"},{"indexed":false,"internalType":"uint8","name":"fromPhase","type":"uint8"},{"indexed":false,"internalType":"uint8","name":"toPhase","type":"uint8"}],"name":"PhaseAdvancedBySubscription","type":"event"},{"anonymous":false,"inputs":[{"indexed":true,"internalType":"uint256","name":"propertyId","type":"uint256"},{"indexed":false,"internalType":"uint256","name":"pollParticipants","type":"uint256"},{"indexed":false,"internalType":"uint256","name":"bonusEngagement","type":"uint256"}],"name":"PollBonusApplied","type":"event"},{"anonymous":false,"inputs":[{"indexed":true,"internalType":"uint256","name":"propertyId","type":"uint256"},{"indexed":true,"internalType":"address","name":"participant","type":"address"}],"name":"PollParticipationRecorded","type":"event"},{"anonymous":false,"inputs":[{"indexed":true,"internalType":"uint256","name":"propertyId","type":"uint256"}],"name":"PropertyTrackingStarted","type":"event"},{"anonymous":false,"inputs":[{"indexed":true,"internalType":"uint256","name":"propertyId","type":"uint256"}],"name":"PropertyTrackingStopped","type":"event"},{"anonymous":false,"inputs":[{"indexed":true,"internalType":"bytes32","name":"role","type":"bytes32"},{"indexed":true,"internalType":"bytes32","name":"previousAdminRole","type":"bytes32"},{"indexed":true,"internalType":"bytes32","name":"newAdminRole","type":"bytes32"}],"name":"RoleAdminChanged","type":"event"},{"anonymous":false,"inputs":[{"indexed":true,"internalType":"bytes32","name":"role","type":"bytes32"},{"indexed":true,"internalType":"address","name":"account","type":"address"},{"indexed":true,"internalType":"address","name":"sender","type":"address"}],"name":"RoleGranted","type":"event"},{"anonymous":false,"inputs":[{"indexed":true,"internalType":"bytes32","name":"role","type":"bytes32"},{"indexed":true,"internalType":"address","name":"account","type":"address"},{"indexed":true,"internalType":"address","name":"sender","type":"address"}],"name":"RoleRevoked","type":"event"},{"inputs":[],"name":"BONUS_TOKENS","outputs":[{"internalType":"uint256","name":"","type":"uint256"}],"stateMutability":"view","type":"function"},{"inputs":[],"name":"DEFAULT_ADMIN_ROLE","outputs":[{"internalType":"bytes32","name":"","type":"bytes32"}],"stateMutability":"view","type":"function"},{"inputs":[],"name":"ENGAGEMENT_THRESHOLD","outputs":[{"internalType":"uint256","name":"","type":"uint256"}],"stateMutability":"view","type":"function"},{"inputs":[],"name":"MIN_ENGAGEMENT_PERIOD","outputs":[{"internalType":"uint256","name":"","type":"uint256"}],"stateMutability":"view","type":"function"},{"inputs":[],"name":"OPERATOR_ROLE","outputs":[{"internalType":"bytes32","name":"","type":"bytes32"}],"stateMutability":"view","type":"function"},{"inputs":[],"name":"POLL_BONUS_MULTIPLIER","outputs":[{"internalType":"uint256","name":"","type":"uint256"}],"stateMutability":"view","type":"function"},{"inputs":[{"internalType":"uint256","name":"propertyId","type":"uint256"}],"name":"calculateEngagement","outputs":[{"internalType":"uint256","name":"","type":"uint256"}],"stateMutability":"view","type":"function"},{"inputs":[{"internalType":"uint256","name":"propertyId","type":"uint256"}],"name":"checkSubscriptionAdvancement","outputs":[],"stateMutability":"nonpayable","type":"function"},{"inputs":[{"internalType":"bytes","name":"","type":"bytes"}],"name":"checkUpkeep","outputs":[{"internalType":"bool","name":"upkeepNeeded","type":"bool"},{"internalType":"bytes","name":"performData","type":"bytes"}],"stateMutability":"view","type":"function"},{"inputs":[{"internalType":"uint256","name":"propertyId","type":"uint256"}],"name":"claimEngagementBonus","outputs":[],"stateMutability":"nonpayable","type":"function"},{"inputs":[{"internalType":"uint256","name":"propertyId","type":"uint256"}],"name":"claimPollBoostBonus","outputs":[],"stateMutability":"nonpayable","type":"function"},{"inputs":[],"name":"geoOracle","outputs":[{"internalType":"contract IGeoOracle","name":"","type":"address"}],"stateMutability":"view","type":"function"},{"inputs":[],"name":"getCommunityHealth","outputs":[{"internalType":"uint256","name":"","type":"uint256"}],"stateMutability":"view","type":"function"},{"inputs":[{"internalType":"uint256","name":"propertyId","type":"uint256"}],"name":"getDemandEngagementMetrics","outputs":[{"internalType":"uint256","name":"baseEngagement","type":"uint256"},{"internalType":"uint256[4]","name":"demandBars","type":"uint256[4]"},{"internalType":"uint256","name":"healthScore","type":"uint256"},{"internalType":"bool","name":"isReadyForAdvancement","type":"bool"}],"stateMutability":"view","type":"function"},{"inputs":[{"internalType":"uint256","name":"propertyId","type":"uint256"}],"name":"getEngagement","outputs":[{"internalType":"uint256","name":"phaseStartTime","type":"uint256"},{"internalType":"uint256","name":"totalEligible","type":"uint256"},{"internalType":"uint256","name":"activeVoters","type":"uint256"},{"internalType":"uint256","name":"engagementPercent","type":"uint256"},{"internalType":"bool","name":"isTracking","type":"bool"}],"stateMutability":"view","type":"function"},{"inputs":[{"internalType":"bytes32","name":"role","type":"bytes32"}],"name":"getRoleAdmin","outputs":[{"internalType":"bytes32","name":"","type":"bytes32"}],"stateMutability":"view","type":"function"},{"inputs":[],"name":"getTrackedProperties","outputs":[{"internalType":"uint256[]","name":"","type":"uint256[]"}],"stateMutability":"view","type":"function"},{"inputs":[],"name":"governance","outputs":[{"internalType":"contract IGovernance","name":"","type":"address"}],"stateMutability":"view","type":"function"},{"inputs":[{"internalType":"bytes32","name":"role","type":"bytes32"},{"internalType":"address","name":"account","type":"address"}],"name":"grantRole","outputs":[],"stateMutability":"nonpayable","type":"function"},{"inputs":[{"internalType":"uint256","name":"","type":"uint256"},{"internalType":"address","name":"","type":"address"}],"name":"hasClaimed","outputs":[{"internalType":"bool","name":"","type":"bool"}],"stateMutability":"view","type":"function"},{"inputs":[{"internalType":"uint256","name":"propertyId","type":"uint256"},{"internalType":"address","name":"participant","type":"address"}],"name":"hasParticipatedInPolls","outputs":[{"internalType":"bool","name":"","type":"bool"}],"stateMutability":"view","type":"function"},{"inputs":[{"internalType":"bytes32","name":"role","type":"bytes32"},{"internalType":"address","name":"account","type":"address"}],"name":"hasRole","outputs":[{"internalType":"bool","name":"","type":"bool"}],"stateMutability":"view","type":"function"},{"inputs":[{"internalType":"uint256","name":"","type":"uint256"}],"name":"isTracked","outputs":[{"internalType":"bool","name":"","type":"bool"}],"stateMutability":"view","type":"function"},{"inputs":[{"internalType":"uint256","name":"","type":"uint256"}],"name":"lastNudgeTime","outputs":[{"internalType":"uint256","name":"","type":"uint256"}],"stateMutability":"view","type":"function"},{"inputs":[],"name":"nudgeCooldown","outputs":[{"internalType":"uint256","name":"","type":"uint256"}],"stateMutability":"view","type":"function"},{"inputs":[{"internalType":"bytes","name":"performData","type":"bytes"}],"name":"performUpkeep","outputs":[],"stateMutability":"nonpayable","type":"function"},{"inputs":[{"internalType":"uint256","name":"","type":"uint256"},{"internalType":"address","name":"","type":"address"}],"name":"pollParticipated","outputs":[{"internalType":"bool","name":"","type":"bool"}],"stateMutability":"view","type":"function"},{"inputs":[{"internalType":"uint256","name":"","type":"uint256"}],"name":"propertyEngagement","outputs":[{"internalType":"uint256","name":"propertyId","type":"uint256"},{"internalType":"uint256","name":"phaseStartTime","type":"uint256"},{"internalType":"uint256","name":"totalEligibleVoters","type":"uint256"},{"internalType":"uint256","name":"activeVoters","type":"uint256"},{"internalType":"uint256","name":"totalProposals","type":"uint256"},{"internalType":"uint256","name":"votedProposals","type":"uint256"},{"internalType":"bool","name":"isTracking","type":"bool"}],"stateMutability":"view","type":"function"},{"inputs":[{"internalType":"uint256","name":"","type":"uint256"}],"name":"propertyPollCount","outputs":[{"internalType":"uint256","name":"","type":"uint256"}],"stateMutability":"view","type":"function"},{"inputs":[],"name":"propertyToken","outputs":[{"internalType":"contract IPropertyToken","name":"","type":"address"}],"stateMutability":"view","type":"function"},{"inputs":[{"internalType":"uint256","name":"propertyId","type":"uint256"},{"internalType":"address","name":"participant","type":"address"}],"name":"recordPollParticipation","outputs":[],"stateMutability":"nonpayable","type":"function"},{"inputs":[{"internalType":"bytes32","name":"role","type":"bytes32"},{"internalType":"address","name":"callerConfirmation","type":"address"}],"name":"renounceRole","outputs":[],"stateMutability":"nonpayable","type":"function"},{"inputs":[{"internalType":"bytes32","name":"role","type":"bytes32"},{"internalType":"address","name":"account","type":"address"}],"name":"revokeRole","outputs":[],"stateMutability":"nonpayable","type":"function"},{"inputs":[{"internalType":"address","name":"_oracle","type":"address"}],"name":"setGeoOracle","outputs":[],"stateMutability":"nonpayable","type":"function"},{"inputs":[{"internalType":"uint256","name":"newCooldown","type":"uint256"}],"name":"setNudgeCooldown","outputs":[],"stateMutability":"nonpayable","type":"function"},{"inputs":[{"internalType":"uint256","name":"propertyId","type":"uint256"},{"internalType":"uint256","name":"totalEligibleVoters","type":"uint256"}],"name":"startTracking","outputs":[],"stateMutability":"nonpayable","type":"function"},{"inputs":[{"internalType":"uint256","name":"propertyId","type":"uint256"}],"name":"stopTracking","outputs":[],"stateMutability":"nonpayable","type":"function"},{"inputs":[{"internalType":"bytes4","name":"interfaceId","type":"bytes4"}],"name":"supportsInterface","outputs":[{"internalType":"bool","name":"","type":"bool"}],"stateMutability":"view","type":"function"},{"inputs":[{"internalType":"uint256","name":"","type":"uint256"}],"name":"trackedProperties","outputs":[{"internalType":"uint256","name":"","type":"uint256"}],"stateMutability":"view","type":"function"},{"inputs":[{"internalType":"uint256","name":"propertyId","type":"uint256"}],"name":"updateDemandEngagement","outputs":[],"stateMutability":"nonpayable","type":"function"},{"inputs":[{"internalType":"uint256","name":"propertyId","type":"uint256"},{"internalType":"uint256","name":"activeVoters","type":"uint256"},{"internalType":"uint256","name":"totalProposals","type":"uint256"},{"internalType":"uint256","name":"votedProposals","type":"uint256"}],"name":"updateEngagement","outputs":[],"stateMutability":"nonpayable","type":"function"},{"inputs":[{"internalType":"uint256","name":"propertyId","type":"uint256"},{"internalType":"uint256","name":"activeVoters","type":"uint256"},{"internalType":"uint256","name":"totalProposals","type":"uint256"},{"internalType":"uint256","name":"votedProposals","type":"uint256"},{"internalType":"uint256","name":"pollParticipants","type":"uint256"}],"name":"updateEngagementWithPolls","outputs":[],"stateMutability":"nonpayable","type":"function"}],"evm":{"bytecode":{"linkReferences":{},"object":"608034620000b557601f6200264938819003918201601f19168301916001600160401b03831184841017620000ba578084926040948552833981010312620000b5576200005a60206200005283620000d0565b9201620000d0565b62015180600855600180546001600160a01b039384166001600160a01b031991821617909155600280549290931691161790556200009833620000e5565b50620000a43362000165565b506040516124219081620002088239f35b600080fd5b634e487b7160e01b600052604160045260246000fd5b51906001600160a01b0382168203620000b557565b6001600160a01b031660008181527fad3228b676f7d3cd4284a5443f17f1962b36e491b30a40b2405849e597ba5fb5602052604081205490919060ff166200016157818052816020526040822081835260205260408220600160ff198254161790553391600080516020620026298339815191528180a4600190565b5090565b6001600160a01b031660008181527fee57cd81e84075558e8fcc182a1f4393f91fc97f963a136e66b7f949a62f319f60205260408120549091907f97667070c54ef182b0f5858b034beac1b6f3089aa2d3188bb1e8929f4fa9b9299060ff166200020257808352826020526040832082845260205260408320600160ff1982541617905560008051602062002629833981519152339380a4600190565b50509056fe608060408181526004918236101561001657600080fd5b600092833560e01c91826301ffc9a71461192d5750816306785d8a146118ac5781630ad5f4211461181c5781631194f9e9146117ef57816311f0072f1461166f57816314585aeb14611433578163248a9ca3146114095781632e94dfda146113a95781632f2ff15d1461137f57816330ae780514611362578163313b79da146112af57816336568abe1461126957816336bfbfb8146112405781633a21ccc11461111957816340ab317114610e7f57816343ae269514610e565781634585e33b14610dca5781635513de4114610dac578163587bd4a7146107175781635aa6e67514610d835781635da6559e14610d5b57816363e86eb814610cf05781636675584f14610cd15781636e04ff0d14610c9557816373de7b4b14610c6d578163785b219014610ad95781638085b81314610aa0578163816aad3c146109be578163873f6f9e146109785781638e5359e0146108fe57816391d14854146108b957816394c9825d146107fb578163a217fddf146107e0578163a21e6f2f14610779578163a27f71b21461075d578163a9dc872614610717578163b415d279146106fb578163c82597761461058d578163d547741f1461054e578163d56124861461025a578163f333d6c214610230575063f5b541a6146101f357600080fd5b3461022c578160031936011261022c57602090517f97667070c54ef182b0f5858b034beac1b6f3089aa2d3188bb1e8929f4fa9b9298152f35b5080fd5b828434610257576020366003190112610257575061025060209235611ef5565b9051908152f35b80fd5b905034610511576020918260031936011261054a5760248235938560018060a01b038181600154168651958680926332665ffb60e01b82528b8b8301525afa9384156103e157829461051c575b508060035416838882610473575b505050600154168451636ea9967760e01b81528381806102e8888c8c840190929160ff6020916040840195845216910152565b0381855afa908115610469578391610438575b5085516304fa617360e01b815287810189815260ff871660208201528590829081906040010381865afa90811561042e5784916103f8575b501015806103eb575b610344575080f35b803b1561022c5781809160248751809481936340d57a6760e11b83528c8c8401525af180156103e1576103c9575b5093857f7214c5e85040cb3e35452fa6ff842070826b1d0bd195171e1c75e6d07bc1b96c95528152856003848220426001820155015560ff6103b383611ee3565b818551941684521690820152a238808080808580f35b6103d290611ab0565b6103dd578538610372565b8580fd5b85513d84823e3d90fd5b50600360ff85161061033c565b809450858092503d8311610427575b6104118183611b12565b810103126104225788925138610333565b600080fd5b503d610407565b87513d86823e3d90fd5b809350848092503d8311610462575b6104518183611b12565b8101031261042257879151386102fb565b503d610447565b86513d85823e3d90fd5b875163512ae2cb60e01b815233818b01908152602081019290925292839182908790829060400103925af19081156104695783916104e3575b5060ff865191168152877f3deb93045f72ce1d7fd6c683f79644b908c62d45d5615b482654972e36f77d6b853393a33883886102b5565b90508381813d8311610515575b6104fa8183611b12565b810103126105115761050b90611ca7565b386104ac565b8280fd5b503d6104f0565b6105399194503d8084833e6105318183611b12565b810190611e5b565b5050965050505050505092386102a7565b8380fd5b9190503461051157806003193601126105115761058991356105846001610573611980565b938387528660205286200154611fe5565b612089565b5080f35b905034610511576020366003190112610511578035916105ab611f31565b82845260066020526105c260ff8286205416611dc3565b828452816020528084206105dc60ff600683015416611a75565b6002548251630af4da4160e01b8152906080908290869082906001600160a01b03165afa9081156106f15786916106c2575b505192847fb3316e92a7702b6d2af84bce789e7e416e7c7d89dd355eb882cbf1bd1e443618848051898152876020820152a2611d4c8410159182610692575b5050610657578380f35b816020916106867f25f2b88b09799c057d36c9cc83fc1013f5534e15a4e9ae28471219e7ae85f79f94866122c0565b51908152a23880808380f35b6001015462093a808101925082106106af5750421015388061064d565b634e487b7160e01b865260119052602485fd5b6106e4915060803d6080116106ea575b6106dc8183611b12565b810190611b34565b3861060e565b503d6106d2565b83513d88823e3d90fd5b50503461022c578160031936011261022c576020905160018152f35b90503461051157816003193601126105115781602093610735611980565b92358152600a8552209060018060a01b0316600052825260ff81600020541690519015158152f35b50503461022c578160031936011261022c576020905160328152f35b83903461022c57602036600319011261022c57356001600160a01b03811690819003610422576107a7611fab565b600380546001600160a01b031916821790557f8f5df5b0b3afcb3d662deac3413c7e01ba3e60969e26401efbb3aa12e25b7cf98280a280f35b50503461022c578160031936011261022c5751908152602090f35b905034610511576080366003190112610511576108b691817f63bd409a0ca0450137d1b574e1e74a5a18cc8934d8f718c1603619b971ce6737600293359283926108a46024359161084a611f31565b858a5280602052838a209061086560ff600684015416611a75565b83600383015560443590820155606435600582015561088386611ef5565b97889101549351938493846040919493926060820195825260208201520152565b0390a26108b182826120fe565b61227d565b80f35b905034610511578160031936011261051157816020936108d7611980565b92358152808552209060018060a01b0316600052825260ff81600020541690519015158152f35b9050346105115760203660031901126105115780359161091c611fab565b610e108310158061096b575b1561093557505060085580f35b906020606492519162461bcd60e51b8352820152601060248201526f24b73b30b634b21031b7b7b63237bbb760811b6044820152fd5b5062093a80831115610928565b90503461051157816003193601126105115781602093610996611980565b9235815260098552209060018060a01b0316600052825260ff81600020541690519015158152f35b919050346105115780600319360112610511578135906109dc611980565b926109e5611f31565b828552602090600682526109fe60ff8488205416611dc3565b838652600a82528286206001600160a01b039095166000818152958352948390205460ff16610a6c5750828552600a81528185206000858152915220805460ff191660011790557f9c81720c57d474644d653192db4aee34eff3e6b5c6b80e4c283ab58871c9382e8380a380f35b915162461bcd60e51b815291820152601060248201526f105b1c9958591e481c9958dbdc99195960821b6044820152606490fd5b9050346105115760203660031901126105115735916005548310156102575750610acb602092611a28565b91905490519160031b1c8152f35b905034610511578160031936011261042257803591610af6611f31565b828452600660205260ff8185205416610c375780519160e0830183811067ffffffffffffffff821117610c2257825283835260066020840193428552838101602435815260608201888152608083019089825260a08401928a845260c085019860018a528a8c5287602052888c2095518655516001860155516002850155516003840155518483015551600582015501925115159260ff199360ff8583541691161790556005549068010000000000000000821015610c0f575090610bc2826001809401600555611a28565b81549060031b9086821b91600019901b191617905583855260066020528420918254161790557f3621586063592251acf2253a10fe8119554dbb0bf93d6e875b85a3a66a2166b98280a280f35b634e487b7160e01b865260419052602485fd5b604182634e487b7160e01b6000525260246000fd5b906020606492519162461bcd60e51b8352820152601060248201526f416c726561647920747261636b696e6760801b6044820152fd5b905034610511576020366003190112610511576020928291358152600b845220549051908152f35b8284346102575750610ca636611996565b5050610ccd610cb3611cb5565b839291925193849315158452806020850152830190611a03565b0390f35b50503461022c578160031936011261022c576020906008549051908152f35b905034610511576020366003190112610511578160e09382358152826020522080549260018201549260028301546003840154918401549260ff600660058701549601541695815197885260208801528601526060850152608084015260a0830152151560c0820152f35b9050346105115760203660031901126105115760209282913581526007845220549051908152f35b50503461022c578160031936011261022c5760025490516001600160a01b039091168152602090f35b50503461022c578160031936011261022c576020905162093a808152f35b83833461022c5780610ddb36611996565b9080929181010312610422576001903591828452846020528320610e0560ff600683015416611a75565b01549262093a808401809411610e435750610e266108b69293421015611c6f565b610e2f81611ef5565b90610e3e611d4c831015611c2f565b6122c0565b634e487b7160e01b835260119052602482fd5b50503461022c578160031936011261022c5760015490516001600160a01b039091168152602090f35b91905034610511576020908160031936011261054a5782359160018060a01b039360019460248382885416865192838092634d8c928d60e11b825233888301525afa801561110f5788906110d5575b610ed89150611bb3565b84875260098352838720336000528352610ef960ff85600020541615611bf1565b84875281835285848820610f1360ff600683015416611a75565b610f29611d4c610f2289611ef5565b1015611c2f565b015462093a8081018091116110c25790610f47889392421015611c6f565b85835260098452848320336000528452846000208760ff19825416179055868385836003541680611003575b505050541690813b1561051157856064849283885195869485936346b40cdf60e11b85528401523360248401528b60448401525af18015610ff957610fe1575b50507f89e1649e796bc46c9dcd5fd4505f79bfdd9197c8eccbdbaf05a6bfd1cb9ea09b91519384523393a380f35b610fea90611ab0565b610ff5578438610fb3565b8480fd5b84513d84823e3d90fd5b885163512ae2cb60e01b815233878201908152602081018c90529093849291839190829060400103925af19081156110b8578591611083575b5060ff8751911690818152887f3deb93045f72ce1d7fd6c683f79644b908c62d45d5615b482654972e36f77d6b883393a31561107b575b838538610f73565b965086611073565b90508581813d83116110b1575b61109a8183611b12565b81010312610ff5576110ab90611ca7565b3861103c565b503d611090565b87513d87823e3d90fd5b634e487b7160e01b885260118352602488fd5b508381813d8311611108575b6110eb8183611b12565b81010312611104576110ff610ed891611ba6565b610ece565b8780fd5b503d6110e1565b85513d8a823e3d90fd5b83833461022c5760a036600319011261022c5782356084359161113a611f31565b818452846020528084209261115560ff600686015416611a75565b603281028181046032148215171561122d579560646108b69697049061117d82602435611b83565b95600281015491828811611223575b7f63bd409a0ca0450137d1b574e1e74a5a18cc8934d8f718c1603619b971ce67377fa924d670d57ce0c4ef66945fcc39ba0d6082deb70a897faa080424140b0b1c7d95938389989694938b60038b9601556044359082015560056064359101556111f583611ef5565b86519a8b5260208b019190915260408a0181905298606090a282519182526020820152a26108b182826120fe565b919650869161118c565b634e487b7160e01b865260118752602486fd5b50503461022c578160031936011261022c5760035490516001600160a01b039091168152602090f35b83833461022c578060031936011261022c57611283611980565b90336001600160a01b038316036112a05750610589919235612089565b5163334bd91960e11b81528390fd5b8284346102575780600319360112610257579080519182906005549182855260208095018093600584527f036b6384b5eca791c62761152d0c79bb0604c104a5fb6f4eb0703f3154bb3db090845b81811061134e5750505081611313910382611b12565b83519485948186019282875251809352850193925b82811061133757505050500390f35b835185528695509381019392810192600101611328565b8254845292880192600192830192016112fd565b50503461022c578160031936011261022c5760209051611d4c8152f35b9190503461051157806003193601126105115761058991356113a46001610573611980565b61200b565b91905034610511576020366003190112610511578060a0938335938482526020522060018101549260028201549260ff60066113e9600386015494611ef5565b940154169381519586526020860152840152606083015215156080820152f35b90503461051157602036600319011261051157816020936001923581528085522001549051908152f35b905034610511576020918260031936011261054a576001548151634d8c928d60e11b81523381850152833593916001600160a01b03919086908290602490829086165afa801561166557879061162b575b61148e9150611bb3565b838652600a8552828620338752855260ff8387205416156115e9578386526009855282862033875285526114c860ff848820541615611bf1565b83865281855260018387206114e360ff600683015416611a75565b6114f2611d4c610f2288611ef5565b015462093a8081018091116115d6579061150f8792421015611c6f565b848252600986528382203383528652838220600160ff198254161790556001541691823b1561022c576064859183865195869485936346b40cdf60e11b8552840152336024840152600260448401525af180156115cc57611599575b50516002815233927f89e1649e796bc46c9dcd5fd4505f79bfdd9197c8eccbdbaf05a6bfd1cb9ea09b91a380f35b936115c57f89e1649e796bc46c9dcd5fd4505f79bfdd9197c8eccbdbaf05a6bfd1cb9ea09b9295611ab0565b939061156b565b82513d87823e3d90fd5b634e487b7160e01b875260118352602487fd5b5083606492519162461bcd60e51b8352820152601c60248201527f446964206e6f7420706172746963697061746520696e20706f6c6c73000000006044820152fd5b508581813d831161165e575b6116418183611b12565b8101031261165a5761165561148e91611ba6565b611484565b8680fd5b503d611637565b84513d89823e3d90fd5b91905034610511576020908160031936011261054a578235926080825161169581611ada565b3690376116a184611ef5565b9260018060a01b036002541695835195630af4da4160e01b875260808785818b5afa9687156103e15782976117c8575b5082859697988596519687809263049672b760e41b82525afa9485156117be57829561178f575b5081528282528481209460ff6006870154169586611780575b8661174f575b50519586528186015b83821061173a5760e087878760a0830152151560c0820152f35b82806001928a51815201980191019096611720565b6001919650015462093a80810180911161176d574210159438611717565b634e487b7160e01b825260118452602482fd5b9550611d4c8851101595611711565b9094508281813d83116117b7575b6117a78183611b12565b8101031261022c575193386116f8565b503d61179d565b86513d84823e3d90fd5b84959697506117e6849160803d6080116106ea576106dc8183611b12565b979695506116d1565b905034610511576020366003190112610511578160209360ff923581526006855220541690519015158152f35b91905034610511578260031936011261051157600254815163049672b760e41b81529260209184919082906001600160a01b03165afa9182156118a257839261186a575b6020838351908152f35b9091506020813d60201161189a575b8161188660209383611b12565b810103126105115760209250519038611860565b3d9150611879565b81513d85823e3d90fd5b91905034610511576020366003190112610511578135916118cb611f31565b82845260066020526118e260ff8386205416611a75565b8284526020526006818420019060ff1991828154169055600660205283209081541690557f96fbf803f14da8437e0cbe34df7152f998dbc3b7e2343c52fb4285e90387a9ca8280a280f35b849134610511576020366003190112610511573563ffffffff60e01b81168091036105115760209250637965db0b60e01b811490811561196f575b5015158152f35b6301ffc9a760e01b14905083611968565b602435906001600160a01b038216820361042257565b9060206003198301126104225760043567ffffffffffffffff9283821161042257806023830112156104225781600401359384116104225760248483010111610422576024019190565b60005b8381106119f35750506000910152565b81810151838201526020016119e3565b90602091611a1c815180928185528580860191016119e0565b601f01601f1916010190565b600554811015611a5f5760056000527f036b6384b5eca791c62761152d0c79bb0604c104a5fb6f4eb0703f3154bb3db00190600090565b634e487b7160e01b600052603260045260246000fd5b15611a7c57565b60405162461bcd60e51b815260206004820152600c60248201526b4e6f7420747261636b696e6760a01b6044820152606490fd5b67ffffffffffffffff8111611ac457604052565b634e487b7160e01b600052604160045260246000fd5b6080810190811067ffffffffffffffff821117611ac457604052565b6040810190811067ffffffffffffffff821117611ac457604052565b90601f8019910116810190811067ffffffffffffffff821117611ac457604052565b906080828203126104225780601f830112156104225760405191611b5783611ada565b82906080810192831161042257905b828210611b735750505090565b8151815260209182019101611b66565b91908201809211611b9057565b634e487b7160e01b600052601160045260246000fd5b5190811515820361042257565b15611bba57565b60405162461bcd60e51b815260206004820152600f60248201526e139bdd081dda1a5d195b1a5cdd1959608a1b6044820152606490fd5b15611bf857565b60405162461bcd60e51b815260206004820152600f60248201526e105b1c9958591e4818db185a5b5959608a1b6044820152606490fd5b15611c3657565b60405162461bcd60e51b8152602060048201526011602482015270151a1c995cda1bdb19081b9bdd081b595d607a1b6044820152606490fd5b15611c7657565b60405162461bcd60e51b8152602060048201526009602482015268546f6f206561726c7960b81b6044820152606490fd5b519060ff8216820361042257565b60055460005b818110611ceb5750506000906040516020810181811067ffffffffffffffff821117611ac4576040526000815290565b611cf481611a28565b90549060031b1c806000526004906020918083526040806000209260ff60068501541615611da15760018094015462093a808101809111611dae574210611da157611d3e81611ef5565b90611d4c821015611d59575050505050506001905b01611cbb565b825195860152848201528084529295945090925060608501919067ffffffffffffffff831186841017611d8c5750529190565b604190634e487b7160e01b6000525260246000fd5b5050505050600190611d53565b601184634e487b7160e01b6000525260246000fd5b15611dca57565b60405162461bcd60e51b8152602060048201526014602482015273141c9bdc195c9d1e481b9bdd081d1c9858dad95960621b6044820152606490fd5b81601f8201121561042257805167ffffffffffffffff8111611ac45760405192611e3a601f8301601f191660200185611b12565b8184526020828401011161042257611e5891602080850191016119e0565b90565b6101408183031261042257805192602082015167ffffffffffffffff908181116104225784611e8b918501611e06565b93604084015191821161042257611ea3918401611e06565b9160608101519160808201519160a08101519160c082015191611ec860e08201611ca7565b91611e58610120611edc6101008501611ba6565b9301611ba6565b60ff60019116019060ff8211611b9057565b600052600460205260406000206002810154908115611f2a576003015461271090818102918183041490151715611b90570490565b5050600090565b3360009081527fee57cd81e84075558e8fcc182a1f4393f91fc97f963a136e66b7f949a62f319f60205260409020547f97667070c54ef182b0f5858b034beac1b6f3089aa2d3188bb1e8929f4fa9b9299060ff1615611f8d5750565b6044906040519063e2517d3f60e01b82523360048301526024820152fd5b3360009081527fad3228b676f7d3cd4284a5443f17f1962b36e491b30a40b2405849e597ba5fb5602052604081205460ff1615611f8d5750565b80600052600060205260406000203360005260205260ff6040600020541615611f8d5750565b9060009180835282602052604083209160018060a01b03169182845260205260ff6040842054161560001461208457808352826020526040832082845260205260408320600160ff198254161790557f2f8788117e7eff1d82e926ec794901d17c78024a50270940304540a733656f0d339380a4600190565b505090565b9060009180835282602052604083209160018060a01b03169182845260205260ff6040842054166000146120845780835282602052604083208284526020526040832060ff1981541690557ff6391f5c32d9c69d2a47ea670b442974b53935d1edc7fd64eb21e047a839171b339380a4600190565b908160005260209060078252604061211d816000205460085490611b83565b4210612261576109c48210156121a6577f505a29c5397a0038bf34d9f7baf0047c3f5eae6323bf8450c1e34dacf7cc2a1792815161215a81611af6565b60148152733ab933b2b73a2fb830b93a34b1b4b830ba34b7b760611b82820152925b856000526007825242836000205561219d8351948486958652850190611a03565b918301520390a2565b61177082101580612272575b15612204577f505a29c5397a0038bf34d9f7baf0047c3f5eae6323bf8450c1e34dacf7cc2a179281516121e481611af6565b600e81526d36b4b632b9ba37b732afb732b0b960911b828201529261217c565b611b5882101580612267575b15612261577f505a29c5397a0038bf34d9f7baf0047c3f5eae6323bf8450c1e34dacf7cc2a1792815161224281611af6565b600d81526c70686173655f636c6f73696e6760981b828201529261217c565b50505050565b50611d4c8210612210565b50611d4c82106121b2565b9081600052600460205260016040600020015462093a808101809111611b905742106122bc57611d4c8110156122b1575050565b6122ba916122c0565b565b5050565b600154604080516332665ffb60e01b81526004810184905292936001600160a01b039092169260008082602481885afa9182156123df5781926123b9575b5060ff82169460038610612316575b50505050505050565b803b1561022c5781809160248651809481936340d57a6760e11b83528c60048401525af18015610ff957606095937fd786d06dd56df8b68a470fb87593bd3d76a14eeea5cf10760563177bd21496b097959360ff9361238f936123aa575b50898152600460205260038582204260018201550155611ee3565b8251948552166020840152820152a23880808080808061230d565b6123b390611ab0565b38612374565b6123ce9192503d8084833e6105318183611b12565b5050965050505050505090386122fe565b508251903d90823e3d90fdfea2646970667358221220bde560d664ab99dd02574bbb45638c59fe125448d9ba7e850b8197192e7aa44e64736f6c634300081800332f8788117e7eff1d82e926ec794901d17c78024a50270940304540a733656f0d","opcodes":"PUSH1 0x80 CALLVALUE PUSH3 0xB5 JUMPI PUSH1 0x1F PUSH3 0x2649 CODESIZE DUP2 SWAP1 SUB SWAP2 DUP3 ADD PUSH1 0x1F NOT AND DUP4 ADD SWAP2 PUSH1 0x1 PUSH1 0x1 PUSH1 0x40 SHL SUB DUP4 GT DUP5 DUP5 LT OR PUSH3 0xBA JUMPI DUP1 DUP5 SWAP3 PUSH1 0x40 SWAP5 DUP6 MSTORE DUP4 CODECOPY DUP2 ADD SUB SLT PUSH3 0xB5 JUMPI PUSH3 0x5A PUSH1 0x20 PUSH3 0x52 DUP4 PUSH3 0xD0 JUMP JUMPDEST SWAP3 ADD PUSH3 0xD0 JUMP JUMPDEST PUSH3 0x15180 PUSH1 0x8 SSTORE PUSH1 0x1 DUP1 SLOAD PUSH1 0x1 PUSH1 0x1 PUSH1 0xA0 SHL SUB SWAP4 DUP5 AND PUSH1 0x1 PUSH1 0x1 PUSH1 0xA0 SHL SUB NOT SWAP2 DUP3 AND OR SWAP1 SWAP2 SSTORE PUSH1 0x2 DUP1 SLOAD SWAP3 SWAP1 SWAP4 AND SWAP2 AND OR SWAP1 SSTORE PUSH3 0x98 CALLER PUSH3 0xE5 JUMP JUMPDEST POP PUSH3 0xA4 CALLER PUSH3 0x165 JUMP JUMPDEST POP PUSH1 0x40 MLOAD PUSH2 0x2421 SWAP1 DUP2 PUSH3 0x208 DUP3 CODECOPY RETURN JUMPDEST PUSH1 0x0 DUP1 REVERT JUMPDEST PUSH4 0x4E487B71 PUSH1 0xE0 SHL PUSH1 0x0 MSTORE PUSH1 0x41 PUSH1 0x4 MSTORE PUSH1 0x24 PUSH1 0x0 REVERT JUMPDEST MLOAD SWAP1 PUSH1 0x1 PUSH1 0x1 PUSH1 0xA0 SHL SUB DUP3 AND DUP3 SUB PUSH3 0xB5 JUMPI JUMP JUMPDEST PUSH1 0x1 PUSH1 0x1 PUSH1 0xA0 SHL SUB AND PUSH1 0x0 DUP2 DUP2 MSTORE PUSH32 0xAD3228B676F7D3CD4284A5443F17F1962B36E491B30A40B2405849E597BA5FB5 PUSH1 0x20 MSTORE PUSH1 0x40 DUP2 KECCAK256 SLOAD SWAP1 SWAP2 SWAP1 PUSH1 0xFF AND PUSH3 0x161 JUMPI DUP2 DUP1 MSTORE DUP2 PUSH1 0x20 MSTORE PUSH1 0x40 DUP3 KECCAK256 DUP2 DUP4 MSTORE PUSH1 0x20 MSTORE PUSH1 0x40 DUP3 KECCAK256 PUSH1 0x1 PUSH1 0xFF NOT DUP3 SLOAD AND OR SWAP1 SSTORE CALLER SWAP2 PUSH1 0x0 DUP1 MLOAD PUSH1 0x20 PUSH3 0x2629 DUP4 CODECOPY DUP2 MLOAD SWAP2 MSTORE DUP2 DUP1 LOG4 PUSH1 0x1 SWAP1 JUMP JUMPDEST POP SWAP1 JUMP JUMPDEST PUSH1 0x1 PUSH1 0x1 PUSH1 0xA0 SHL SUB AND PUSH1 0x0 DUP2 DUP2 MSTORE PUSH32 0xEE57CD81E84075558E8FCC182A1F4393F91FC97F963A136E66B7F949A62F319F PUSH1 0x20 MSTORE PUSH1 0x40 DUP2 KECCAK256 SLOAD SWAP1 SWAP2 SWAP1 PUSH32 0x97667070C54EF182B0F5858B034BEAC1B6F3089AA2D3188BB1E8929F4FA9B929 SWAP1 PUSH1 0xFF AND PUSH3 0x202 JUMPI DUP1 DUP4 MSTORE DUP3 PUSH1 0x20 MSTORE PUSH1 0x40 DUP4 KECCAK256 DUP3 DUP5 MSTORE PUSH1 0x20 MSTORE PUSH1 0x40 DUP4 KECCAK256 PUSH1 0x1 PUSH1 0xFF NOT DUP3 SLOAD AND OR SWAP1 SSTORE PUSH1 0x0 DUP1 MLOAD PUSH1 0x20 PUSH3 0x2629 DUP4 CODECOPY DUP2 MLOAD SWAP2 MSTORE CALLER SWAP4 DUP1 LOG4 PUSH1 0x1 SWAP1 JUMP JUMPDEST POP POP SWAP1 JUMP INVALID PUSH1 0x80 PUSH1 0x40 DUP2 DUP2 MSTORE PUSH1 0x4 SWAP2 DUP3 CALLDATASIZE LT ISZERO PUSH2 0x16 JUMPI PUSH1 0x0 DUP1 REVERT JUMPDEST PUSH1 0x0 SWAP3 DUP4 CALLDATALOAD PUSH1 0xE0 SHR SWAP2 DUP3 PUSH4 0x1FFC9A7 EQ PUSH2 0x192D JUMPI POP DUP2 PUSH4 0x6785D8A EQ PUSH2 0x18AC JUMPI DUP2 PUSH4 0xAD5F421 EQ PUSH2 0x181C JUMPI DUP2 PUSH4 0x1194F9E9 EQ PUSH2 0x17EF JUMPI DUP2 PUSH4 0x11F0072F EQ PUSH2 0x166F JUMPI DUP2 PUSH4 0x14585AEB EQ PUSH2 0x1433 JUMPI DUP2 PUSH4 0x248A9CA3 EQ PUSH2 0x1409 JUMPI DUP2 PUSH4 0x2E94DFDA EQ PUSH2 0x13A9 JUMPI DUP2 PUSH4 0x2F2FF15D EQ PUSH2 0x137F JUMPI DUP2 PUSH4 0x30AE7805 EQ PUSH2 0x1362 JUMPI DUP2 PUSH4 0x313B79DA EQ PUSH2 0x12AF JUMPI DUP2 PUSH4 0x36568ABE EQ PUSH2 0x1269 JUMPI DUP2 PUSH4 0x36BFBFB8 EQ PUSH2 0x1240 JUMPI DUP2 PUSH4 0x3A21CCC1 EQ PUSH2 0x1119 JUMPI DUP2 PUSH4 0x40AB3171 EQ PUSH2 0xE7F JUMPI DUP2 PUSH4 0x43AE2695 EQ PUSH2 0xE56 JUMPI DUP2 PUSH4 0x4585E33B EQ PUSH2 0xDCA JUMPI DUP2 PUSH4 0x5513DE41 EQ PUSH2 0xDAC JUMPI DUP2 PUSH4 0x587BD4A7 EQ PUSH2 0x717 JUMPI DUP2 PUSH4 0x5AA6E675 EQ PUSH2 0xD83 JUMPI DUP2 PUSH4 0x5DA6559E EQ PUSH2 0xD5B JUMPI DUP2 PUSH4 0x63E86EB8 EQ PUSH2 0xCF0 JUMPI DUP2 PUSH4 0x6675584F EQ PUSH2 0xCD1 JUMPI DUP2 PUSH4 0x6E04FF0D EQ PUSH2 0xC95 JUMPI DUP2 PUSH4 0x73DE7B4B EQ PUSH2 0xC6D JUMPI DUP2 PUSH4 0x785B2190 EQ PUSH2 0xAD9 JUMPI DUP2 PUSH4 0x8085B813 EQ PUSH2 0xAA0 JUMPI DUP2 PUSH4 0x816AAD3C EQ PUSH2 0x9BE JUMPI DUP2 PUSH4 0x873F6F9E EQ PUSH2 0x978 JUMPI DUP2 PUSH4 0x8E5359E0 EQ PUSH2 0x8FE JUMPI DUP2 PUSH4 0x91D14854 EQ PUSH2 0x8B9 JUMPI DUP2 PUSH4 0x94C9825D EQ PUSH2 0x7FB JUMPI DUP2 PUSH4 0xA217FDDF EQ PUSH2 0x7E0 JUMPI DUP2 PUSH4 0xA21E6F2F EQ PUSH2 0x779 JUMPI DUP2 PUSH4 0xA27F71B2 EQ PUSH2 0x75D JUMPI DUP2 PUSH4 0xA9DC8726 EQ PUSH2 0x717 JUMPI DUP2 PUSH4 0xB415D279 EQ PUSH2 0x6FB JUMPI DUP2 PUSH4 0xC8259776 EQ PUSH2 0x58D JUMPI DUP2 PUSH4 0xD547741F EQ PUSH2 0x54E JUMPI DUP2 PUSH4 0xD5612486 EQ PUSH2 0x25A JUMPI DUP2 PUSH4 0xF333D6C2 EQ PUSH2 0x230 JUMPI POP PUSH4 0xF5B541A6 EQ PUSH2 0x1F3 JUMPI PUSH1 0x0 DUP1 REVERT JUMPDEST CALLVALUE PUSH2 0x22C JUMPI DUP2 PUSH1 0x3 NOT CALLDATASIZE ADD SLT PUSH2 0x22C JUMPI PUSH1 0x20 SWAP1 MLOAD PUSH32 0x97667070C54EF182B0F5858B034BEAC1B6F3089AA2D3188BB1E8929F4FA9B929 DUP2 MSTORE RETURN JUMPDEST POP DUP1 REVERT JUMPDEST DUP3 DUP5 CALLVALUE PUSH2 0x257 JUMPI PUSH1 0x20 CALLDATASIZE PUSH1 0x3 NOT ADD SLT PUSH2 0x257 JUMPI POP PUSH2 0x250 PUSH1 0x20 SWAP3 CALLDATALOAD PUSH2 0x1EF5 JUMP JUMPDEST SWAP1 MLOAD SWAP1 DUP2 MSTORE RETURN JUMPDEST DUP1 REVERT JUMPDEST SWAP1 POP CALLVALUE PUSH2 0x511 JUMPI PUSH1 0x20 SWAP2 DUP3 PUSH1 0x3 NOT CALLDATASIZE ADD SLT PUSH2 0x54A JUMPI PUSH1 0x24 DUP3 CALLDATALOAD SWAP4 DUP6 PUSH1 0x1 DUP1 PUSH1 0xA0 SHL SUB DUP2 DUP2 PUSH1 0x1 SLOAD AND DUP7 MLOAD SWAP6 DUP7 DUP1 SWAP3 PUSH4 0x32665FFB PUSH1 0xE0 SHL DUP3 MSTORE DUP12 DUP12 DUP4 ADD MSTORE GAS STATICCALL SWAP4 DUP5 ISZERO PUSH2 0x3E1 JUMPI DUP3 SWAP5 PUSH2 0x51C JUMPI JUMPDEST POP DUP1 PUSH1 0x3 SLOAD AND DUP4 DUP9 DUP3 PUSH2 0x473 JUMPI JUMPDEST POP POP POP PUSH1 0x1 SLOAD AND DUP5 MLOAD PUSH4 0x6EA99677 PUSH1 0xE0 SHL DUP2 MSTORE DUP4 DUP2 DUP1 PUSH2 0x2E8 DUP9 DUP13 DUP13 DUP5 ADD SWAP1 SWAP3 SWAP2 PUSH1 0xFF PUSH1 0x20 SWAP2 PUSH1 0x40 DUP5 ADD SWAP6 DUP5 MSTORE AND SWAP2 ADD MSTORE JUMP JUMPDEST SUB DUP2 DUP6 GAS STATICCALL SWAP1 DUP2 ISZERO PUSH2 0x469 JUMPI DUP4 SWAP2 PUSH2 0x438 JUMPI JUMPDEST POP DUP6 MLOAD PUSH4 0x4FA6173 PUSH1 0xE0 SHL DUP2 MSTORE DUP8 DUP2 ADD DUP10 DUP2 MSTORE PUSH1 0xFF DUP8 AND PUSH1 0x20 DUP3 ADD MSTORE DUP6 SWAP1 DUP3 SWAP1 DUP2 SWAP1 PUSH1 0x40 ADD SUB DUP2 DUP7 GAS STATICCALL SWAP1 DUP2 ISZERO PUSH2 0x42E JUMPI DUP5 SWAP2 PUSH2 0x3F8 JUMPI JUMPDEST POP LT ISZERO DUP1 PUSH2 0x3EB JUMPI JUMPDEST PUSH2 0x344 JUMPI POP DUP1 RETURN JUMPDEST DUP1 EXTCODESIZE ISZERO PUSH2 0x22C JUMPI DUP2 DUP1 SWAP2 PUSH1 0x24 DUP8 MLOAD DUP1 SWAP5 DUP2 SWAP4 PUSH4 0x40D57A67 PUSH1 0xE1 SHL DUP4 MSTORE DUP13 DUP13 DUP5 ADD MSTORE GAS CALL DUP1 ISZERO PUSH2 0x3E1 JUMPI PUSH2 0x3C9 JUMPI JUMPDEST POP SWAP4 DUP6 PUSH32 0x7214C5E85040CB3E35452FA6FF842070826B1D0BD195171E1C75E6D07BC1B96C SWAP6 MSTORE DUP2 MSTORE DUP6 PUSH1 0x3 DUP5 DUP3 KECCAK256 TIMESTAMP PUSH1 0x1 DUP3 ADD SSTORE ADD SSTORE PUSH1 0xFF PUSH2 0x3B3 DUP4 PUSH2 0x1EE3 JUMP JUMPDEST DUP2 DUP6 MLOAD SWAP5 AND DUP5 MSTORE AND SWAP1 DUP3 ADD MSTORE LOG2 CODESIZE DUP1 DUP1 DUP1 DUP1 DUP6 DUP1 RETURN JUMPDEST PUSH2 0x3D2 SWAP1 PUSH2 0x1AB0 JUMP JUMPDEST PUSH2 0x3DD JUMPI DUP6 CODESIZE PUSH2 0x372 JUMP JUMPDEST DUP6 DUP1 REVERT JUMPDEST DUP6 MLOAD RETURNDATASIZE DUP5 DUP3 RETURNDATACOPY RETURNDATASIZE SWAP1 REVERT JUMPDEST POP PUSH1 0x3 PUSH1 0xFF DUP6 AND LT PUSH2 0x33C JUMP JUMPDEST DUP1 SWAP5 POP DUP6 DUP1 SWAP3 POP RETURNDATASIZE DUP4 GT PUSH2 0x427 JUMPI JUMPDEST PUSH2 0x411 DUP2 DUP4 PUSH2 0x1B12 JUMP JUMPDEST DUP2 ADD SUB SLT PUSH2 0x422 JUMPI DUP9 SWAP3 MLOAD CODESIZE PUSH2 0x333 JUMP JUMPDEST PUSH1 0x0 DUP1 REVERT JUMPDEST POP RETURNDATASIZE PUSH2 0x407 JUMP JUMPDEST DUP8 MLOAD RETURNDATASIZE DUP7 DUP3 RETURNDATACOPY RETURNDATASIZE SWAP1 REVERT JUMPDEST DUP1 SWAP4 POP DUP5 DUP1 SWAP3 POP RETURNDATASIZE DUP4 GT PUSH2 0x462 JUMPI JUMPDEST PUSH2 0x451 DUP2 DUP4 PUSH2 0x1B12 JUMP JUMPDEST DUP2 ADD SUB SLT PUSH2 0x422 JUMPI DUP8 SWAP2 MLOAD CODESIZE PUSH2 0x2FB JUMP JUMPDEST POP RETURNDATASIZE PUSH2 0x447 JUMP JUMPDEST DUP7 MLOAD RETURNDATASIZE DUP6 DUP3 RETURNDATACOPY RETURNDATASIZE SWAP1 REVERT JUMPDEST DUP8 MLOAD PUSH4 0x512AE2CB PUSH1 0xE0 SHL DUP2 MSTORE CALLER DUP2 DUP12 ADD SWAP1 DUP2 MSTORE PUSH1 0x20 DUP2 ADD SWAP3 SWAP1 SWAP3 MSTORE SWAP3 DUP4 SWAP2 DUP3 SWAP1 DUP8 SWAP1 DUP3 SWAP1 PUSH1 0x40 ADD SUB SWAP3 GAS CALL SWAP1 DUP2 ISZERO PUSH2 0x469 JUMPI DUP4 SWAP2 PUSH2 0x4E3 JUMPI JUMPDEST POP PUSH1 0xFF DUP7 MLOAD SWAP2 AND DUP2 MSTORE DUP8 PUSH32 0x3DEB93045F72CE1D7FD6C683F79644B908C62D45D5615B482654972E36F77D6B DUP6 CALLER SWAP4 LOG3 CODESIZE DUP4 DUP9 PUSH2 0x2B5 JUMP JUMPDEST SWAP1 POP DUP4 DUP2 DUP2 RETURNDATASIZE DUP4 GT PUSH2 0x515 JUMPI JUMPDEST PUSH2 0x4FA DUP2 DUP4 PUSH2 0x1B12 JUMP JUMPDEST DUP2 ADD SUB SLT PUSH2 0x511 JUMPI PUSH2 0x50B SWAP1 PUSH2 0x1CA7 JUMP JUMPDEST CODESIZE PUSH2 0x4AC JUMP JUMPDEST DUP3 DUP1 REVERT JUMPDEST POP RETURNDATASIZE PUSH2 0x4F0 JUMP JUMPDEST PUSH2 0x539 SWAP2 SWAP5 POP RETURNDATASIZE DUP1 DUP5 DUP4 RETURNDATACOPY PUSH2 0x531 DUP2 DUP4 PUSH2 0x1B12 JUMP JUMPDEST DUP2 ADD SWAP1 PUSH2 0x1E5B JUMP JUMPDEST POP POP SWAP7 POP POP POP POP POP POP POP SWAP3 CODESIZE PUSH2 0x2A7 JUMP JUMPDEST DUP4 DUP1 REVERT JUMPDEST SWAP2 SWAP1 POP CALLVALUE PUSH2 0x511 JUMPI DUP1 PUSH1 0x3 NOT CALLDATASIZE ADD SLT PUSH2 0x511 JUMPI PUSH2 0x589 SWAP2 CALLDATALOAD PUSH2 0x584 PUSH1 0x1 PUSH2 0x573 PUSH2 0x1980 JUMP JUMPDEST SWAP4 DUP4 DUP8 MSTORE DUP7 PUSH1 0x20 MSTORE DUP7 KECCAK256 ADD SLOAD PUSH2 0x1FE5 JUMP JUMPDEST PUSH2 0x2089 JUMP JUMPDEST POP DUP1 RETURN JUMPDEST SWAP1 POP CALLVALUE PUSH2 0x511 JUMPI PUSH1 0x20 CALLDATASIZE PUSH1 0x3 NOT ADD SLT PUSH2 0x511 JUMPI DUP1 CALLDATALOAD SWAP2 PUSH2 0x5AB PUSH2 0x1F31 JUMP JUMPDEST DUP3 DUP5 MSTORE PUSH1 0x6 PUSH1 0x20 MSTORE PUSH2 0x5C2 PUSH1 0xFF DUP3 DUP7 KECCAK256 SLOAD AND PUSH2 0x1DC3 JUMP JUMPDEST DUP3 DUP5 MSTORE DUP2 PUSH1 0x20 MSTORE DUP1 DUP5 KECCAK256 PUSH2 0x5DC PUSH1 0xFF PUSH1 0x6 DUP4 ADD SLOAD AND PUSH2 0x1A75 JUMP JUMPDEST PUSH1 0x2 SLOAD DUP3 MLOAD PUSH4 0xAF4DA41 PUSH1 0xE0 SHL DUP2 MSTORE SWAP1 PUSH1 0x80 SWAP1 DUP3 SWAP1 DUP7 SWAP1 DUP3 SWAP1 PUSH1 0x1 PUSH1 0x1 PUSH1 0xA0 SHL SUB AND GAS STATICCALL SWAP1 DUP2 ISZERO PUSH2 0x6F1 JUMPI DUP7 SWAP2 PUSH2 0x6C2 JUMPI JUMPDEST POP MLOAD SWAP3 DUP5 PUSH32 0xB3316E92A7702B6D2AF84BCE789E7E416E7C7D89DD355EB882CBF1BD1E443618 DUP5 DUP1 MLOAD DUP10 DUP2 MSTORE DUP8 PUSH1 0x20 DUP3 ADD MSTORE LOG2 PUSH2 0x1D4C DUP5 LT ISZERO SWAP2 DUP3 PUSH2 0x692 JUMPI JUMPDEST POP POP PUSH2 0x657 JUMPI DUP4 DUP1 RETURN JUMPDEST DUP2 PUSH1 0x20 SWAP2 PUSH2 0x686 PUSH32 0x25F2B88B09799C057D36C9CC83FC1013F5534E15A4E9AE28471219E7AE85F79F SWAP5 DUP7 PUSH2 0x22C0 JUMP JUMPDEST MLOAD SWAP1 DUP2 MSTORE LOG2 CODESIZE DUP1 DUP1 DUP4 DUP1 RETURN JUMPDEST PUSH1 0x1 ADD SLOAD PUSH3 0x93A80 DUP2 ADD SWAP3 POP DUP3 LT PUSH2 0x6AF JUMPI POP TIMESTAMP LT ISZERO CODESIZE DUP1 PUSH2 0x64D JUMP JUMPDEST PUSH4 0x4E487B71 PUSH1 0xE0 SHL DUP7 MSTORE PUSH1 0x11 SWAP1 MSTORE PUSH1 0x24 DUP6 REVERT JUMPDEST PUSH2 0x6E4 SWAP2 POP PUSH1 0x80 RETURNDATASIZE PUSH1 0x80 GT PUSH2 0x6EA JUMPI JUMPDEST PUSH2 0x6DC DUP2 DUP4 PUSH2 0x1B12 JUMP JUMPDEST DUP2 ADD SWAP1 PUSH2 0x1B34 JUMP JUMPDEST CODESIZE PUSH2 0x60E JUMP JUMPDEST POP RETURNDATASIZE PUSH2 0x6D2 JUMP JUMPDEST DUP4 MLOAD RETURNDATASIZE DUP9 DUP3 RETURNDATACOPY RETURNDATASIZE SWAP1 REVERT JUMPDEST POP POP CALLVALUE PUSH2 0x22C JUMPI DUP2 PUSH1 0x3 NOT CALLDATASIZE ADD SLT PUSH2 0x22C JUMPI PUSH1 0x20 SWAP1 MLOAD PUSH1 0x1 DUP2 MSTORE RETURN JUMPDEST SWAP1 POP CALLVALUE PUSH2 0x511 JUMPI DUP2 PUSH1 0x3 NOT CALLDATASIZE ADD SLT PUSH2 0x511 JUMPI DUP2 PUSH1 0x20 SWAP4 PUSH2 0x735 PUSH2 0x1980 JUMP JUMPDEST SWAP3 CALLDATALOAD DUP2 MSTORE PUSH1 0xA DUP6 MSTORE KECCAK256 SWAP1 PUSH1 0x1 DUP1 PUSH1 0xA0 SHL SUB AND PUSH1 0x0 MSTORE DUP3 MSTORE PUSH1 0xFF DUP2 PUSH1 0x0 KECCAK256 SLOAD AND SWAP1 MLOAD SWAP1 ISZERO ISZERO DUP2 MSTORE RETURN JUMPDEST POP POP CALLVALUE PUSH2 0x22C JUMPI DUP2 PUSH1 0x3 NOT CALLDATASIZE ADD SLT PUSH2 0x22C JUMPI PUSH1 0x20 SWAP1 MLOAD PUSH1 0x32 DUP2 MSTORE RETURN JUMPDEST DUP4 SWAP1 CALLVALUE PUSH2 0x22C JUMPI PUSH1 0x20 CALLDATASIZE PUSH1 0x3 NOT ADD SLT PUSH2 0x22C JUMPI CALLDATALOAD PUSH1 0x1 PUSH1 0x1 PUSH1 0xA0 SHL SUB DUP2 AND SWAP1 DUP2 SWAP1 SUB PUSH2 0x422 JUMPI PUSH2 0x7A7 PUSH2 0x1FAB JUMP JUMPDEST PUSH1 0x3 DUP1 SLOAD PUSH1 0x1 PUSH1 0x1 PUSH1 0xA0 SHL SUB NOT AND DUP3 OR SWAP1 SSTORE PUSH32 0x8F5DF5B0B3AFCB3D662DEAC3413C7E01BA3E60969E26401EFBB3AA12E25B7CF9 DUP3 DUP1 LOG2 DUP1 RETURN JUMPDEST POP POP CALLVALUE PUSH2 0x22C JUMPI DUP2 PUSH1 0x3 NOT CALLDATASIZE ADD SLT PUSH2 0x22C JUMPI MLOAD SWAP1 DUP2 MSTORE PUSH1 0x20 SWAP1 RETURN JUMPDEST SWAP1 POP CALLVALUE PUSH2 0x511 JUMPI PUSH1 0x80 CALLDATASIZE PUSH1 0x3 NOT ADD SLT PUSH2 0x511 JUMPI PUSH2 0x8B6 SWAP2 DUP2 PUSH32 0x63BD409A0CA0450137D1B574E1E74A5A18CC8934D8F718C1603619B971CE6737 PUSH1 0x2 SWAP4 CALLDATALOAD SWAP3 DUP4 SWAP3 PUSH2 0x8A4 PUSH1 0x24 CALLDATALOAD SWAP2 PUSH2 0x84A PUSH2 0x1F31 JUMP JUMPDEST DUP6 DUP11 MSTORE DUP1 PUSH1 0x20 MSTORE DUP4 DUP11 KECCAK256 SWAP1 PUSH2 0x865 PUSH1 0xFF PUSH1 0x6 DUP5 ADD SLOAD AND PUSH2 0x1A75 JUMP JUMPDEST DUP4 PUSH1 0x3 DUP4 ADD SSTORE PUSH1 0x44 CALLDATALOAD SWAP1 DUP3 ADD SSTORE PUSH1 0x64 CALLDATALOAD PUSH1 0x5 DUP3 ADD SSTORE PUSH2 0x883 DUP7 PUSH2 0x1EF5 JUMP JUMPDEST SWAP8 DUP9 SWAP2 ADD SLOAD SWAP4 MLOAD SWAP4 DUP5 SWAP4 DUP5 PUSH1 0x40 SWAP2 SWAP5 SWAP4 SWAP3 PUSH1 0x60 DUP3 ADD SWAP6 DUP3 MSTORE PUSH1 0x20 DUP3 ADD MSTORE ADD MSTORE JUMP JUMPDEST SUB SWAP1 LOG2 PUSH2 0x8B1 DUP3 DUP3 PUSH2 0x20FE JUMP JUMPDEST PUSH2 0x227D JUMP JUMPDEST DUP1 RETURN JUMPDEST SWAP1 POP CALLVALUE PUSH2 0x511 JUMPI DUP2 PUSH1 0x3 NOT CALLDATASIZE ADD SLT PUSH2 0x511 JUMPI DUP2 PUSH1 0x20 SWAP4 PUSH2 0x8D7 PUSH2 0x1980 JUMP JUMPDEST SWAP3 CALLDATALOAD DUP2 MSTORE DUP1 DUP6 MSTORE KECCAK256 SWAP1 PUSH1 0x1 DUP1 PUSH1 0xA0 SHL SUB AND PUSH1 0x0 MSTORE DUP3 MSTORE PUSH1 0xFF DUP2 PUSH1 0x0 KECCAK256 SLOAD AND SWAP1 MLOAD SWAP1 ISZERO ISZERO DUP2 MSTORE RETURN JUMPDEST SWAP1 POP CALLVALUE PUSH2 0x511 JUMPI PUSH1 0x20 CALLDATASIZE PUSH1 0x3 NOT ADD SLT PUSH2 0x511 JUMPI DUP1 CALLDATALOAD SWAP2 PUSH2 0x91C PUSH2 0x1FAB JUMP JUMPDEST PUSH2 0xE10 DUP4 LT ISZERO DUP1 PUSH2 0x96B JUMPI JUMPDEST ISZERO PUSH2 0x935 JUMPI POP POP PUSH1 0x8 SSTORE DUP1 RETURN JUMPDEST SWAP1 PUSH1 0x20 PUSH1 0x64 SWAP3 MLOAD SWAP2 PUSH3 0x461BCD PUSH1 0xE5 SHL DUP4 MSTORE DUP3 ADD MSTORE PUSH1 0x10 PUSH1 0x24 DUP3 ADD MSTORE PUSH16 0x24B73B30B634B21031B7B7B63237BBB7 PUSH1 0x81 SHL PUSH1 0x44 DUP3 ADD MSTORE REVERT JUMPDEST POP PUSH3 0x93A80 DUP4 GT ISZERO PUSH2 0x928 JUMP JUMPDEST SWAP1 POP CALLVALUE PUSH2 0x511 JUMPI DUP2 PUSH1 0x3 NOT CALLDATASIZE ADD SLT PUSH2 0x511 JUMPI DUP2 PUSH1 0x20 SWAP4 PUSH2 0x996 PUSH2 0x1980 JUMP JUMPDEST SWAP3 CALLDATALOAD DUP2 MSTORE PUSH1 0x9 DUP6 MSTORE KECCAK256 SWAP1 PUSH1 0x1 DUP1 PUSH1 0xA0 SHL SUB AND PUSH1 0x0 MSTORE DUP3 MSTORE PUSH1 0xFF DUP2 PUSH1 0x0 KECCAK256 SLOAD AND SWAP1 MLOAD SWAP1 ISZERO ISZERO DUP2 MSTORE RETURN JUMPDEST SWAP2 SWAP1 POP CALLVALUE PUSH2 0x511 JUMPI DUP1 PUSH1 0x3 NOT CALLDATASIZE ADD SLT PUSH2 0x511 JUMPI DUP2 CALLDATALOAD SWAP1 PUSH2 0x9DC PUSH2 0x1980 JUMP JUMPDEST SWAP3 PUSH2 0x9E5 PUSH2 0x1F31 JUMP JUMPDEST DUP3 DUP6 MSTORE PUSH1 0x20 SWAP1 PUSH1 0x6 DUP3 MSTORE PUSH2 0x9FE PUSH1 0xFF DUP5 DUP9 KECCAK256 SLOAD AND PUSH2 0x1DC3 JUMP JUMPDEST DUP4 DUP7 MSTORE PUSH1 0xA DUP3 MSTORE DUP3 DUP7 KECCAK256 PUSH1 0x1 PUSH1 0x1 PUSH1 0xA0 SHL SUB SWAP1 SWAP6 AND PUSH1 0x0 DUP2 DUP2 MSTORE SWAP6 DUP4 MSTORE SWAP5 DUP4 SWAP1 KECCAK256 SLOAD PUSH1 0xFF AND PUSH2 0xA6C JUMPI POP DUP3 DUP6 MSTORE PUSH1 0xA DUP2 MSTORE DUP2 DUP6 KECCAK256 PUSH1 0x0 DUP6 DUP2 MSTORE SWAP2 MSTORE KECCAK256 DUP1 SLOAD PUSH1 0xFF NOT AND PUSH1 0x1 OR SWAP1 SSTORE PUSH32 0x9C81720C57D474644D653192DB4AEE34EFF3E6B5C6B80E4C283AB58871C9382E DUP4 DUP1 LOG3 DUP1 RETURN JUMPDEST SWAP2 MLOAD PUSH3 0x461BCD PUSH1 0xE5 SHL DUP2 MSTORE SWAP2 DUP3 ADD MSTORE PUSH1 0x10 PUSH1 0x24 DUP3 ADD MSTORE PUSH16 0x105B1C9958591E481C9958DBDC991959 PUSH1 0x82 SHL PUSH1 0x44 DUP3 ADD MSTORE PUSH1 0x64 SWAP1 REVERT JUMPDEST SWAP1 POP CALLVALUE PUSH2 0x511 JUMPI PUSH1 0x20 CALLDATASIZE PUSH1 0x3 NOT ADD SLT PUSH2 0x511 JUMPI CALLDATALOAD SWAP2 PUSH1 0x5 SLOAD DUP4 LT ISZERO PUSH2 0x257 JUMPI POP PUSH2 0xACB PUSH1 0x20 SWAP3 PUSH2 0x1A28 JUMP JUMPDEST SWAP2 SWAP1 SLOAD SWAP1 MLOAD SWAP2 PUSH1 0x3 SHL SHR DUP2 MSTORE RETURN JUMPDEST SWAP1 POP CALLVALUE PUSH2 0x511 JUMPI DUP2 PUSH1 0x3 NOT CALLDATASIZE ADD SLT PUSH2 0x422 JUMPI DUP1 CALLDATALOAD SWAP2 PUSH2 0xAF6 PUSH2 0x1F31 JUMP JUMPDEST DUP3 DUP5 MSTORE PUSH1 0x6 PUSH1 0x20 MSTORE PUSH1 0xFF DUP2 DUP6 KECCAK256 SLOAD AND PUSH2 0xC37 JUMPI DUP1 MLOAD SWAP2 PUSH1 0xE0 DUP4 ADD DUP4 DUP2 LT PUSH8 0xFFFFFFFFFFFFFFFF DUP3 GT OR PUSH2 0xC22 JUMPI DUP3 MSTORE DUP4 DUP4 MSTORE PUSH1 0x6 PUSH1 0x20 DUP5 ADD SWAP4 TIMESTAMP DUP6 MSTORE DUP4 DUP2 ADD PUSH1 0x24 CALLDATALOAD DUP2 MSTORE PUSH1 0x60 DUP3 ADD DUP9 DUP2 MSTORE PUSH1 0x80 DUP4 ADD SWAP1 DUP10 DUP3 MSTORE PUSH1 0xA0 DUP5 ADD SWAP3 DUP11 DUP5 MSTORE PUSH1 0xC0 DUP6 ADD SWAP9 PUSH1 0x1 DUP11 MSTORE DUP11 DUP13 MSTORE DUP8 PUSH1 0x20 MSTORE DUP9 DUP13 KECCAK256 SWAP6 MLOAD DUP7 SSTORE MLOAD PUSH1 0x1 DUP7 ADD SSTORE MLOAD PUSH1 0x2 DUP6 ADD SSTORE MLOAD PUSH1 0x3 DUP5 ADD SSTORE MLOAD DUP5 DUP4 ADD SSTORE MLOAD PUSH1 0x5 DUP3 ADD SSTORE ADD SWAP3 MLOAD ISZERO ISZERO SWAP3 PUSH1 0xFF NOT SWAP4 PUSH1 0xFF DUP6 DUP4 SLOAD AND SWAP2 AND OR SWAP1 SSTORE PUSH1 0x5 SLOAD SWAP1 PUSH9 0x10000000000000000 DUP3 LT ISZERO PUSH2 0xC0F JUMPI POP SWAP1 PUSH2 0xBC2 DUP3 PUSH1 0x1 DUP1 SWAP5 ADD PUSH1 0x5 SSTORE PUSH2 0x1A28 JUMP JUMPDEST DUP2 SLOAD SWAP1 PUSH1 0x3 SHL SWAP1 DUP7 DUP3 SHL SWAP2 PUSH1 0x0 NOT SWAP1 SHL NOT AND OR SWAP1 SSTORE DUP4 DUP6 MSTORE PUSH1 0x6 PUSH1 0x20 MSTORE DUP5 KECCAK256 SWAP2 DUP3 SLOAD AND OR SWAP1 SSTORE PUSH32 0x3621586063592251ACF2253A10FE8119554DBB0BF93D6E875B85A3A66A2166B9 DUP3 DUP1 LOG2 DUP1 RETURN JUMPDEST PUSH4 0x4E487B71 PUSH1 0xE0 SHL DUP7 MSTORE PUSH1 0x41 SWAP1 MSTORE PUSH1 0x24 DUP6 REVERT JUMPDEST PUSH1 0x41 DUP3 PUSH4 0x4E487B71 PUSH1 0xE0 SHL PUSH1 0x0 MSTORE MSTORE PUSH1 0x24 PUSH1 0x0 REVERT JUMPDEST SWAP1 PUSH1 0x20 PUSH1 0x64 SWAP3 MLOAD SWAP2 PUSH3 0x461BCD PUSH1 0xE5 SHL DUP4 MSTORE DUP3 ADD MSTORE PUSH1 0x10 PUSH1 0x24 DUP3 ADD MSTORE PUSH16 0x416C726561647920747261636B696E67 PUSH1 0x80 SHL PUSH1 0x44 DUP3 ADD MSTORE REVERT JUMPDEST SWAP1 POP CALLVALUE PUSH2 0x511 JUMPI PUSH1 0x20 CALLDATASIZE PUSH1 0x3 NOT ADD SLT PUSH2 0x511 JUMPI PUSH1 0x20 SWAP3 DUP3 SWAP2 CALLDATALOAD DUP2 MSTORE PUSH1 0xB DUP5 MSTORE KECCAK256 SLOAD SWAP1 MLOAD SWAP1 DUP2 MSTORE RETURN JUMPDEST DUP3 DUP5 CALLVALUE PUSH2 0x257 JUMPI POP PUSH2 0xCA6 CALLDATASIZE PUSH2 0x1996 JUMP JUMPDEST POP POP PUSH2 0xCCD PUSH2 0xCB3 PUSH2 0x1CB5 JUMP JUMPDEST DUP4 SWAP3 SWAP2 SWAP3 MLOAD SWAP4 DUP5 SWAP4 ISZERO ISZERO DUP5 MSTORE DUP1 PUSH1 0x20 DUP6 ADD MSTORE DUP4 ADD SWAP1 PUSH2 0x1A03 JUMP JUMPDEST SUB SWAP1 RETURN JUMPDEST POP POP CALLVALUE PUSH2 0x22C JUMPI DUP2 PUSH1 0x3 NOT CALLDATASIZE ADD SLT PUSH2 0x22C JUMPI PUSH1 0x20 SWAP1 PUSH1 0x8 SLOAD SWAP1 MLOAD SWAP1 DUP2 MSTORE RETURN JUMPDEST SWAP1 POP CALLVALUE PUSH2 0x511 JUMPI PUSH1 0x20 CALLDATASIZE PUSH1 0x3 NOT ADD SLT PUSH2 0x511 JUMPI DUP2 PUSH1 0xE0 SWAP4 DUP3 CALLDATALOAD DUP2 MSTORE DUP3 PUSH1 0x20 MSTORE KECCAK256 DUP1 SLOAD SWAP3 PUSH1 0x1 DUP3 ADD SLOAD SWAP3 PUSH1 0x2 DUP4 ADD SLOAD PUSH1 0x3 DUP5 ADD SLOAD SWAP2 DUP5 ADD SLOAD SWAP3 PUSH1 0xFF PUSH1 0x6 PUSH1 0x5 DUP8 ADD SLOAD SWAP7 ADD SLOAD AND SWAP6 DUP2 MLOAD SWAP8 DUP9 MSTORE PUSH1 0x20 DUP9 ADD MSTORE DUP7 ADD MSTORE PUSH1 0x60 DUP6 ADD MSTORE PUSH1 0x80 DUP5 ADD MSTORE PUSH1 0xA0 DUP4 ADD MSTORE ISZERO ISZERO PUSH1 0xC0 DUP3 ADD MSTORE RETURN JUMPDEST SWAP1 POP CALLVALUE PUSH2 0x511 JUMPI PUSH1 0x20 CALLDATASIZE PUSH1 0x3 NOT ADD SLT PUSH2 0x511 JUMPI PUSH1 0x20 SWAP3 DUP3 SWAP2 CALLDATALOAD DUP2 MSTORE PUSH1 0x7 DUP5 MSTORE KECCAK256 SLOAD SWAP1 MLOAD SWAP1 DUP2 MSTORE RETURN JUMPDEST POP POP CALLVALUE PUSH2 0x22C JUMPI DUP2 PUSH1 0x3 NOT CALLDATASIZE ADD SLT PUSH2 0x22C JUMPI PUSH1 0x2 SLOAD SWAP1 MLOAD PUSH1 0x1 PUSH1 0x1 PUSH1 0xA0 SHL SUB SWAP1 SWAP2 AND DUP2 MSTORE PUSH1 0x20 SWAP1 RETURN JUMPDEST POP POP CALLVALUE PUSH2 0x22C JUMPI DUP2 PUSH1 0x3 NOT CALLDATASIZE ADD SLT PUSH2 0x22C JUMPI PUSH1 0x20 SWAP1 MLOAD PUSH3 0x93A80 DUP2 MSTORE RETURN JUMPDEST DUP4 DUP4 CALLVALUE PUSH2 0x22C JUMPI DUP1 PUSH2 0xDDB CALLDATASIZE PUSH2 0x1996 JUMP JUMPDEST SWAP1 DUP1 SWAP3 SWAP2 DUP2 ADD SUB SLT PUSH2 0x422 JUMPI PUSH1 0x1 SWAP1 CALLDATALOAD SWAP2 DUP3 DUP5 MSTORE DUP5 PUSH1 0x20 MSTORE DUP4 KECCAK256 PUSH2 0xE05 PUSH1 0xFF PUSH1 0x6 DUP4 ADD SLOAD AND PUSH2 0x1A75 JUMP JUMPDEST ADD SLOAD SWAP3 PUSH3 0x93A80 DUP5 ADD DUP1 SWAP5 GT PUSH2 0xE43 JUMPI POP PUSH2 0xE26 PUSH2 0x8B6 SWAP3 SWAP4 TIMESTAMP LT ISZERO PUSH2 0x1C6F JUMP JUMPDEST PUSH2 0xE2F DUP2 PUSH2 0x1EF5 JUMP JUMPDEST SWAP1 PUSH2 0xE3E PUSH2 0x1D4C DUP4 LT ISZERO PUSH2 0x1C2F JUMP JUMPDEST PUSH2 0x22C0 JUMP JUMPDEST PUSH4 0x4E487B71 PUSH1 0xE0 SHL DUP4 MSTORE PUSH1 0x11 SWAP1 MSTORE PUSH1 0x24 DUP3 REVERT JUMPDEST POP POP CALLVALUE PUSH2 0x22C JUMPI DUP2 PUSH1 0x3 NOT CALLDATASIZE ADD SLT PUSH2 0x22C JUMPI PUSH1 0x1 SLOAD SWAP1 MLOAD PUSH1 0x1 PUSH1 0x1 PUSH1 0xA0 SHL SUB SWAP1 SWAP2 AND DUP2 MSTORE PUSH1 0x20 SWAP1 RETURN JUMPDEST SWAP2 SWAP1 POP CALLVALUE PUSH2 0x511 JUMPI PUSH1 0x20 SWAP1 DUP2 PUSH1 0x3 NOT CALLDATASIZE ADD SLT PUSH2 0x54A JUMPI DUP3 CALLDATALOAD SWAP2 PUSH1 0x1 DUP1 PUSH1 0xA0 SHL SUB SWAP4 PUSH1 0x1 SWAP5 PUSH1 0x24 DUP4 DUP3 DUP9 SLOAD AND DUP7 MLOAD SWAP3 DUP4 DUP1 SWAP3 PUSH4 0x4D8C928D PUSH1 0xE1 SHL DUP3 MSTORE CALLER DUP9 DUP4 ADD MSTORE GAS STATICCALL DUP1 ISZERO PUSH2 0x110F JUMPI DUP9 SWAP1 PUSH2 0x10D5 JUMPI JUMPDEST PUSH2 0xED8 SWAP2 POP PUSH2 0x1BB3 JUMP JUMPDEST DUP5 DUP8 MSTORE PUSH1 0x9 DUP4 MSTORE DUP4 DUP8 KECCAK256 CALLER PUSH1 0x0 MSTORE DUP4 MSTORE PUSH2 0xEF9 PUSH1 0xFF DUP6 PUSH1 0x0 KECCAK256 SLOAD AND ISZERO PUSH2 0x1BF1 JUMP JUMPDEST DUP5 DUP8 MSTORE DUP2 DUP4 MSTORE DUP6 DUP5 DUP9 KECCAK256 PUSH2 0xF13 PUSH1 0xFF PUSH1 0x6 DUP4 ADD SLOAD AND PUSH2 0x1A75 JUMP JUMPDEST PUSH2 0xF29 PUSH2 0x1D4C PUSH2 0xF22 DUP10 PUSH2 0x1EF5 JUMP JUMPDEST LT ISZERO PUSH2 0x1C2F JUMP JUMPDEST ADD SLOAD PUSH3 0x93A80 DUP2 ADD DUP1 SWAP2 GT PUSH2 0x10C2 JUMPI SWAP1 PUSH2 0xF47 DUP9 SWAP4 SWAP3 TIMESTAMP LT ISZERO PUSH2 0x1C6F JUMP JUMPDEST DUP6 DUP4 MSTORE PUSH1 0x9 DUP5 MSTORE DUP5 DUP4 KECCAK256 CALLER PUSH1 0x0 MSTORE DUP5 MSTORE DUP5 PUSH1 0x0 KECCAK256 DUP8 PUSH1 0xFF NOT DUP3 SLOAD AND OR SWAP1 SSTORE DUP7 DUP4 DUP6 DUP4 PUSH1 0x3 SLOAD AND DUP1 PUSH2 0x1003 JUMPI JUMPDEST POP POP POP SLOAD AND SWAP1 DUP2 EXTCODESIZE ISZERO PUSH2 0x511 JUMPI DUP6 PUSH1 0x64 DUP5 SWAP3 DUP4 DUP9 MLOAD SWAP6 DUP7 SWAP5 DUP6 SWAP4 PUSH4 0x46B40CDF PUSH1 0xE1 SHL DUP6 MSTORE DUP5 ADD MSTORE CALLER PUSH1 0x24 DUP5 ADD MSTORE DUP12 PUSH1 0x44 DUP5 ADD MSTORE GAS CALL DUP1 ISZERO PUSH2 0xFF9 JUMPI PUSH2 0xFE1 JUMPI JUMPDEST POP POP PUSH32 0x89E1649E796BC46C9DCD5FD4505F79BFDD9197C8ECCBDBAF05A6BFD1CB9EA09B SWAP2 MLOAD SWAP4 DUP5 MSTORE CALLER SWAP4 LOG3 DUP1 RETURN JUMPDEST PUSH2 0xFEA SWAP1 PUSH2 0x1AB0 JUMP JUMPDEST PUSH2 0xFF5 JUMPI DUP5 CODESIZE PUSH2 0xFB3 JUMP JUMPDEST DUP5 DUP1 REVERT JUMPDEST DUP5 MLOAD RETURNDATASIZE DUP5 DUP3 RETURNDATACOPY RETURNDATASIZE SWAP1 REVERT JUMPDEST DUP9 MLOAD PUSH4 0x512AE2CB PUSH1 0xE0 SHL DUP2 MSTORE CALLER DUP8 DUP3 ADD SWAP1 DUP2 MSTORE PUSH1 0x20 DUP2 ADD DUP13 SWAP1 MSTORE SWAP1 SWAP4 DUP5 SWAP3 SWAP2 DUP4 SWAP2 SWAP1 DUP3 SWAP1 PUSH1 0x40 ADD SUB SWAP3 GAS CALL SWAP1 DUP2 ISZERO PUSH2 0x10B8 JUMPI DUP6 SWAP2 PUSH2 0x1083 JUMPI JUMPDEST POP PUSH1 0xFF DUP8 MLOAD SWAP2 AND SWAP1 DUP2 DUP2 MSTORE DUP9 PUSH32 0x3DEB93045F72CE1D7FD6C683F79644B908C62D45D5615B482654972E36F77D6B DUP9 CALLER SWAP4 LOG3 ISZERO PUSH2 0x107B JUMPI JUMPDEST DUP4 DUP6 CODESIZE PUSH2 0xF73 JUMP JUMPDEST SWAP7 POP DUP7 PUSH2 0x1073 JUMP JUMPDEST SWAP1 POP DUP6 DUP2 DUP2 RETURNDATASIZE DUP4 GT PUSH2 0x10B1 JUMPI JUMPDEST PUSH2 0x109A DUP2 DUP4 PUSH2 0x1B12 JUMP JUMPDEST DUP2 ADD SUB SLT PUSH2 0xFF5 JUMPI PUSH2 0x10AB SWAP1 PUSH2 0x1CA7 JUMP JUMPDEST CODESIZE PUSH2 0x103C JUMP JUMPDEST POP RETURNDATASIZE PUSH2 0x1090 JUMP JUMPDEST DUP8 MLOAD RETURNDATASIZE DUP8 DUP3 RETURNDATACOPY RETURNDATASIZE SWAP1 REVERT JUMPDEST PUSH4 0x4E487B71 PUSH1 0xE0 SHL DUP9 MSTORE PUSH1 0x11 DUP4 MSTORE PUSH1 0x24 DUP9 REVERT JUMPDEST POP DUP4 DUP2 DUP2 RETURNDATASIZE DUP4 GT PUSH2 0x1108 JUMPI JUMPDEST PUSH2 0x10EB DUP2 DUP4 PUSH2 0x1B12 JUMP JUMPDEST DUP2 ADD SUB SLT PUSH2 0x1104 JUMPI PUSH2 0x10FF PUSH2 0xED8 SWAP2 PUSH2 0x1BA6 JUMP JUMPDEST PUSH2 0xECE JUMP JUMPDEST DUP8 DUP1 REVERT JUMPDEST POP RETURNDATASIZE PUSH2 0x10E1 JUMP JUMPDEST DUP6 MLOAD RETURNDATASIZE DUP11 DUP3 RETURNDATACOPY RETURNDATASIZE SWAP1 REVERT JUMPDEST DUP4 DUP4 CALLVALUE PUSH2 0x22C JUMPI PUSH1 0xA0 CALLDATASIZE PUSH1 0x3 NOT ADD SLT PUSH2 0x22C JUMPI DUP3 CALLDATALOAD PUSH1 0x84 CALLDATALOAD SWAP2 PUSH2 0x113A PUSH2 0x1F31 JUMP JUMPDEST DUP2 DUP5 MSTORE DUP5 PUSH1 0x20 MSTORE DUP1 DUP5 KECCAK256 SWAP3 PUSH2 0x1155 PUSH1 0xFF PUSH1 0x6 DUP7 ADD SLOAD AND PUSH2 0x1A75 JUMP JUMPDEST PUSH1 0x32 DUP2 MUL DUP2 DUP2 DIV PUSH1 0x32 EQ DUP3 ISZERO OR ISZERO PUSH2 0x122D JUMPI SWAP6 PUSH1 0x64 PUSH2 0x8B6 SWAP7 SWAP8 DIV SWAP1 PUSH2 0x117D DUP3 PUSH1 0x24 CALLDATALOAD PUSH2 0x1B83 JUMP JUMPDEST SWAP6 PUSH1 0x2 DUP2 ADD SLOAD SWAP2 DUP3 DUP9 GT PUSH2 0x1223 JUMPI JUMPDEST PUSH32 0x63BD409A0CA0450137D1B574E1E74A5A18CC8934D8F718C1603619B971CE6737 PUSH32 0xA924D670D57CE0C4EF66945FCC39BA0D6082DEB70A897FAA080424140B0B1C7D SWAP6 SWAP4 DUP4 DUP10 SWAP9 SWAP7 SWAP5 SWAP4 DUP12 PUSH1 0x3 DUP12 SWAP7 ADD SSTORE PUSH1 0x44 CALLDATALOAD SWAP1 DUP3 ADD SSTORE PUSH1 0x5 PUSH1 0x64 CALLDATALOAD SWAP2 ADD SSTORE PUSH2 0x11F5 DUP4 PUSH2 0x1EF5 JUMP JUMPDEST DUP7 MLOAD SWAP11 DUP12 MSTORE PUSH1 0x20 DUP12 ADD SWAP2 SWAP1 SWAP2 MSTORE PUSH1 0x40 DUP11 ADD DUP2 SWAP1 MSTORE SWAP9 PUSH1 0x60 SWAP1 LOG2 DUP3 MLOAD SWAP2 DUP3 MSTORE PUSH1 0x20 DUP3 ADD MSTORE LOG2 PUSH2 0x8B1 DUP3 DUP3 PUSH2 0x20FE JUMP JUMPDEST SWAP2 SWAP7 POP DUP7 SWAP2 PUSH2 0x118C JUMP JUMPDEST PUSH4 0x4E487B71 PUSH1 0xE0 SHL DUP7 MSTORE PUSH1 0x11 DUP8 MSTORE PUSH1 0x24 DUP7 REVERT JUMPDEST POP POP CALLVALUE PUSH2 0x22C JUMPI DUP2 PUSH1 0x3 NOT CALLDATASIZE ADD SLT PUSH2 0x22C JUMPI PUSH1 0x3 SLOAD SWAP1 MLOAD PUSH1 0x1 PUSH1 0x1 PUSH1 0xA0 SHL SUB SWAP1 SWAP2 AND DUP2 MSTORE PUSH1 0x20 SWAP1 RETURN JUMPDEST DUP4 DUP4 CALLVALUE PUSH2 0x22C JUMPI DUP1 PUSH1 0x3 NOT CALLDATASIZE ADD SLT PUSH2 0x22C JUMPI PUSH2 0x1283 PUSH2 0x1980 JUMP JUMPDEST SWAP1 CALLER PUSH1 0x1 PUSH1 0x1 PUSH1 0xA0 SHL SUB DUP4 AND SUB PUSH2 0x12A0 JUMPI POP PUSH2 0x589 SWAP2 SWAP3 CALLDATALOAD PUSH2 0x2089 JUMP JUMPDEST MLOAD PUSH4 0x334BD919 PUSH1 0xE1 SHL DUP2 MSTORE DUP4 SWAP1 REVERT JUMPDEST DUP3 DUP5 CALLVALUE PUSH2 0x257 JUMPI DUP1 PUSH1 0x3 NOT CALLDATASIZE ADD SLT PUSH2 0x257 JUMPI SWAP1 DUP1 MLOAD SWAP2 DUP3 SWAP1 PUSH1 0x5 SLOAD SWAP2 DUP3 DUP6 MSTORE PUSH1 0x20 DUP1 SWAP6 ADD DUP1 SWAP4 PUSH1 0x5 DUP5 MSTORE PUSH32 0x36B6384B5ECA791C62761152D0C79BB0604C104A5FB6F4EB0703F3154BB3DB0 SWAP1 DUP5 JUMPDEST DUP2 DUP2 LT PUSH2 0x134E JUMPI POP POP POP DUP2 PUSH2 0x1313 SWAP2 SUB DUP3 PUSH2 0x1B12 JUMP JUMPDEST DUP4 MLOAD SWAP5 DUP6 SWAP5 DUP2 DUP7 ADD SWAP3 DUP3 DUP8 MSTORE MLOAD DUP1 SWAP4 MSTORE DUP6 ADD SWAP4 SWAP3 JUMPDEST DUP3 DUP2 LT PUSH2 0x1337 JUMPI POP POP POP POP SUB SWAP1 RETURN JUMPDEST DUP4 MLOAD DUP6 MSTORE DUP7 SWAP6 POP SWAP4 DUP2 ADD SWAP4 SWAP3 DUP2 ADD SWAP3 PUSH1 0x1 ADD PUSH2 0x1328 JUMP JUMPDEST DUP3 SLOAD DUP5 MSTORE SWAP3 DUP9 ADD SWAP3 PUSH1 0x1 SWAP3 DUP4 ADD SWAP3 ADD PUSH2 0x12FD JUMP JUMPDEST POP POP CALLVALUE PUSH2 0x22C JUMPI DUP2 PUSH1 0x3 NOT CALLDATASIZE ADD SLT PUSH2 0x22C JUMPI PUSH1 0x20 SWAP1 MLOAD PUSH2 0x1D4C DUP2 MSTORE RETURN JUMPDEST SWAP2 SWAP1 POP CALLVALUE PUSH2 0x511 JUMPI DUP1 PUSH1 0x3 NOT CALLDATASIZE ADD SLT PUSH2 0x511 JUMPI PUSH2 0x589 SWAP2 CALLDATALOAD PUSH2 0x13A4 PUSH1 0x1 PUSH2 0x573 PUSH2 0x1980 JUMP JUMPDEST PUSH2 0x200B JUMP JUMPDEST SWAP2 SWAP1 POP CALLVALUE PUSH2 0x511 JUMPI PUSH1 0x20 CALLDATASIZE PUSH1 0x3 NOT ADD SLT PUSH2 0x511 JUMPI DUP1 PUSH1 0xA0 SWAP4 DUP4 CALLDATALOAD SWAP4 DUP5 DUP3 MSTORE PUSH1 0x20 MSTORE KECCAK256 PUSH1 0x1 DUP2 ADD SLOAD SWAP3 PUSH1 0x2 DUP3 ADD SLOAD SWAP3 PUSH1 0xFF PUSH1 0x6 PUSH2 0x13E9 PUSH1 0x3 DUP7 ADD SLOAD SWAP5 PUSH2 0x1EF5 JUMP JUMPDEST SWAP5 ADD SLOAD AND SWAP4 DUP2 MLOAD SWAP6 DUP7 MSTORE PUSH1 0x20 DUP7 ADD MSTORE DUP5 ADD MSTORE PUSH1 0x60 DUP4 ADD MSTORE ISZERO ISZERO PUSH1 0x80 DUP3 ADD MSTORE RETURN JUMPDEST SWAP1 POP CALLVALUE PUSH2 0x511 JUMPI PUSH1 0x20 CALLDATASIZE PUSH1 0x3 NOT ADD SLT PUSH2 0x511 JUMPI DUP2 PUSH1 0x20 SWAP4 PUSH1 0x1 SWAP3 CALLDATALOAD DUP2 MSTORE DUP1 DUP6 MSTORE KECCAK256 ADD SLOAD SWAP1 MLOAD SWAP1 DUP2 MSTORE RETURN JUMPDEST SWAP1 POP CALLVALUE PUSH2 0x511 JUMPI PUSH1 0x20 SWAP2 DUP3 PUSH1 0x3 NOT CALLDATASIZE ADD SLT PUSH2 0x54A JUMPI PUSH1 0x1 SLOAD DUP2 MLOAD PUSH4 0x4D8C928D PUSH1 0xE1 SHL DUP2 MSTORE CALLER DUP2 DUP6 ADD MSTORE DUP4 CALLDATALOAD SWAP4 SWAP2 PUSH1 0x1 PUSH1 0x1 PUSH1 0xA0 SHL SUB SWAP2 SWAP1 DUP7 SWAP1 DUP3 SWAP1 PUSH1 0x24 SWAP1 DUP3 SWAP1 DUP7 AND GAS STATICCALL DUP1 ISZERO PUSH2 0x1665 JUMPI DUP8 SWAP1 PUSH2 0x162B JUMPI JUMPDEST PUSH2 0x148E SWAP2 POP PUSH2 0x1BB3 JUMP JUMPDEST DUP4 DUP7 MSTORE PUSH1 0xA DUP6 MSTORE DUP3 DUP7 KECCAK256 CALLER DUP8 MSTORE DUP6 MSTORE PUSH1 0xFF DUP4 DUP8 KECCAK256 SLOAD AND ISZERO PUSH2 0x15E9 JUMPI DUP4 DUP7 MSTORE PUSH1 0x9 DUP6 MSTORE DUP3 DUP7 KECCAK256 CALLER DUP8 MSTORE DUP6 MSTORE PUSH2 0x14C8 PUSH1 0xFF DUP5 DUP9 KECCAK256 SLOAD AND ISZERO PUSH2 0x1BF1 JUMP JUMPDEST DUP4 DUP7 MSTORE DUP2 DUP6 MSTORE PUSH1 0x1 DUP4 DUP8 KECCAK256 PUSH2 0x14E3 PUSH1 0xFF PUSH1 0x6 DUP4 ADD SLOAD AND PUSH2 0x1A75 JUMP JUMPDEST PUSH2 0x14F2 PUSH2 0x1D4C PUSH2 0xF22 DUP9 PUSH2 0x1EF5 JUMP JUMPDEST ADD SLOAD PUSH3 0x93A80 DUP2 ADD DUP1 SWAP2 GT PUSH2 0x15D6 JUMPI SWAP1 PUSH2 0x150F DUP8 SWAP3 TIMESTAMP LT ISZERO PUSH2 0x1C6F JUMP JUMPDEST DUP5 DUP3 MSTORE PUSH1 0x9 DUP7 MSTORE DUP4 DUP3 KECCAK256 CALLER DUP4 MSTORE DUP7 MSTORE DUP4 DUP3 KECCAK256 PUSH1 0x1 PUSH1 0xFF NOT DUP3 SLOAD AND OR SWAP1 SSTORE PUSH1 0x1 SLOAD AND SWAP2 DUP3 EXTCODESIZE ISZERO PUSH2 0x22C JUMPI PUSH1 0x64 DUP6 SWAP2 DUP4 DUP7 MLOAD SWAP6 DUP7 SWAP5 DUP6 SWAP4 PUSH4 0x46B40CDF PUSH1 0xE1 SHL DUP6 MSTORE DUP5 ADD MSTORE CALLER PUSH1 0x24 DUP5 ADD MSTORE PUSH1 0x2 PUSH1 0x44 DUP5 ADD MSTORE GAS CALL DUP1 ISZERO PUSH2 0x15CC JUMPI PUSH2 0x1599 JUMPI JUMPDEST POP MLOAD PUSH1 0x2 DUP2 MSTORE CALLER SWAP3 PUSH32 0x89E1649E796BC46C9DCD5FD4505F79BFDD9197C8ECCBDBAF05A6BFD1CB9EA09B SWAP2 LOG3 DUP1 RETURN JUMPDEST SWAP4 PUSH2 0x15C5 PUSH32 0x89E1649E796BC46C9DCD5FD4505F79BFDD9197C8ECCBDBAF05A6BFD1CB9EA09B SWAP3 SWAP6 PUSH2 0x1AB0 JUMP JUMPDEST SWAP4 SWAP1 PUSH2 0x156B JUMP JUMPDEST DUP3 MLOAD RETURNDATASIZE DUP8 DUP3 RETURNDATACOPY RETURNDATASIZE SWAP1 REVERT JUMPDEST PUSH4 0x4E487B71 PUSH1 0xE0 SHL DUP8 MSTORE PUSH1 0x11 DUP4 MSTORE PUSH1 0x24 DUP8 REVERT JUMPDEST POP DUP4 PUSH1 0x64 SWAP3 MLOAD SWAP2 PUSH3 0x461BCD PUSH1 0xE5 SHL DUP4 MSTORE DUP3 ADD MSTORE PUSH1 0x1C PUSH1 0x24 DUP3 ADD MSTORE PUSH32 0x446964206E6F7420706172746963697061746520696E20706F6C6C7300000000 PUSH1 0x44 DUP3 ADD MSTORE REVERT JUMPDEST POP DUP6 DUP2 DUP2 RETURNDATASIZE DUP4 GT PUSH2 0x165E JUMPI JUMPDEST PUSH2 0x1641 DUP2 DUP4 PUSH2 0x1B12 JUMP JUMPDEST DUP2 ADD SUB SLT PUSH2 0x165A JUMPI PUSH2 0x1655 PUSH2 0x148E SWAP2 PUSH2 0x1BA6 JUMP JUMPDEST PUSH2 0x1484 JUMP JUMPDEST DUP7 DUP1 REVERT JUMPDEST POP RETURNDATASIZE PUSH2 0x1637 JUMP JUMPDEST DUP5 MLOAD RETURNDATASIZE DUP10 DUP3 RETURNDATACOPY RETURNDATASIZE SWAP1 REVERT JUMPDEST SWAP2 SWAP1 POP CALLVALUE PUSH2 0x511 JUMPI PUSH1 0x20 SWAP1 DUP2 PUSH1 0x3 NOT CALLDATASIZE ADD SLT PUSH2 0x54A JUMPI DUP3 CALLDATALOAD SWAP3 PUSH1 0x80 DUP3 MLOAD PUSH2 0x1695 DUP2 PUSH2 0x1ADA JUMP JUMPDEST CALLDATASIZE SWAP1 CALLDATACOPY PUSH2 0x16A1 DUP5 PUSH2 0x1EF5 JUMP JUMPDEST SWAP3 PUSH1 0x1 DUP1 PUSH1 0xA0 SHL SUB PUSH1 0x2 SLOAD AND SWAP6 DUP4 MLOAD SWAP6 PUSH4 0xAF4DA41 PUSH1 0xE0 SHL DUP8 MSTORE PUSH1 0x80 DUP8 DUP6 DUP2 DUP12 GAS STATICCALL SWAP7 DUP8 ISZERO PUSH2 0x3E1 JUMPI DUP3 SWAP8 PUSH2 0x17C8 JUMPI JUMPDEST POP DUP3 DUP6 SWAP7 SWAP8 SWAP9 DUP6 SWAP7 MLOAD SWAP7 DUP8 DUP1 SWAP3 PUSH4 0x49672B7 PUSH1 0xE4 SHL DUP3 MSTORE GAS STATICCALL SWAP5 DUP6 ISZERO PUSH2 0x17BE JUMPI DUP3 SWAP6 PUSH2 0x178F JUMPI JUMPDEST POP DUP2 MSTORE DUP3 DUP3 MSTORE DUP5 DUP2 KECCAK256 SWAP5 PUSH1 0xFF PUSH1 0x6 DUP8 ADD SLOAD AND SWAP6 DUP7 PUSH2 0x1780 JUMPI JUMPDEST DUP7 PUSH2 0x174F JUMPI JUMPDEST POP MLOAD SWAP6 DUP7 MSTORE DUP2 DUP7 ADD JUMPDEST DUP4 DUP3 LT PUSH2 0x173A JUMPI PUSH1 0xE0 DUP8 DUP8 DUP8 PUSH1 0xA0 DUP4 ADD MSTORE ISZERO ISZERO PUSH1 0xC0 DUP3 ADD MSTORE RETURN JUMPDEST DUP3 DUP1 PUSH1 0x1 SWAP3 DUP11 MLOAD DUP2 MSTORE ADD SWAP9 ADD SWAP2 ADD SWAP1 SWAP7 PUSH2 0x1720 JUMP JUMPDEST PUSH1 0x1 SWAP2 SWAP7 POP ADD SLOAD PUSH3 0x93A80 DUP2 ADD DUP1 SWAP2 GT PUSH2 0x176D JUMPI TIMESTAMP LT ISZERO SWAP5 CODESIZE PUSH2 0x1717 JUMP JUMPDEST PUSH4 0x4E487B71 PUSH1 0xE0 SHL DUP3 MSTORE PUSH1 0x11 DUP5 MSTORE PUSH1 0x24 DUP3 REVERT JUMPDEST SWAP6 POP PUSH2 0x1D4C DUP9 MLOAD LT ISZERO SWAP6 PUSH2 0x1711 JUMP JUMPDEST SWAP1 SWAP5 POP DUP3 DUP2 DUP2 RETURNDATASIZE DUP4 GT PUSH2 0x17B7 JUMPI JUMPDEST PUSH2 0x17A7 DUP2 DUP4 PUSH2 0x1B12 JUMP JUMPDEST DUP2 ADD SUB SLT PUSH2 0x22C JUMPI MLOAD SWAP4 CODESIZE PUSH2 0x16F8 JUMP JUMPDEST POP RETURNDATASIZE PUSH2 0x179D JUMP JUMPDEST DUP7 MLOAD RETURNDATASIZE DUP5 DUP3 RETURNDATACOPY RETURNDATASIZE SWAP1 REVERT JUMPDEST DUP5 SWAP6 SWAP7 SWAP8 POP PUSH2 0x17E6 DUP5 SWAP2 PUSH1 0x80 RETURNDATASIZE PUSH1 0x80 GT PUSH2 0x6EA JUMPI PUSH2 0x6DC DUP2 DUP4 PUSH2 0x1B12 JUMP JUMPDEST SWAP8 SWAP7 SWAP6 POP PUSH2 0x16D1 JUMP JUMPDEST SWAP1 POP CALLVALUE PUSH2 0x511 JUMPI PUSH1 0x20 CALLDATASIZE PUSH1 0x3 NOT ADD SLT PUSH2 0x511 JUMPI DUP2 PUSH1 0x20 SWAP4 PUSH1 0xFF SWAP3 CALLDATALOAD DUP2 MSTORE PUSH1 0x6 DUP6 MSTORE KECCAK256 SLOAD AND SWAP1 MLOAD SWAP1 ISZERO ISZERO DUP2 MSTORE RETURN JUMPDEST SWAP2 SWAP1 POP CALLVALUE PUSH2 0x511 JUMPI DUP3 PUSH1 0x3 NOT CALLDATASIZE ADD SLT PUSH2 0x511 JUMPI PUSH1 0x2 SLOAD DUP2 MLOAD PUSH4 0x49672B7 PUSH1 0xE4 SHL DUP2 MSTORE SWAP3 PUSH1 0x20 SWAP2 DUP5 SWAP2 SWAP1 DUP3 SWAP1 PUSH1 0x1 PUSH1 0x1 PUSH1 0xA0 SHL SUB AND GAS STATICCALL SWAP2 DUP3 ISZERO PUSH2 0x18A2 JUMPI DUP4 SWAP3 PUSH2 0x186A JUMPI JUMPDEST PUSH1 0x20 DUP4 DUP4 MLOAD SWAP1 DUP2 MSTORE RETURN JUMPDEST SWAP1 SWAP2 POP PUSH1 0x20 DUP2 RETURNDATASIZE PUSH1 0x20 GT PUSH2 0x189A JUMPI JUMPDEST DUP2 PUSH2 0x1886 PUSH1 0x20 SWAP4 DUP4 PUSH2 0x1B12 JUMP JUMPDEST DUP2 ADD SUB SLT PUSH2 0x511 JUMPI PUSH1 0x20 SWAP3 POP MLOAD SWAP1 CODESIZE PUSH2 0x1860 JUMP JUMPDEST RETURNDATASIZE SWAP2 POP PUSH2 0x1879 JUMP JUMPDEST DUP2 MLOAD RETURNDATASIZE DUP6 DUP3 RETURNDATACOPY RETURNDATASIZE SWAP1 REVERT JUMPDEST SWAP2 SWAP1 POP CALLVALUE PUSH2 0x511 JUMPI PUSH1 0x20 CALLDATASIZE PUSH1 0x3 NOT ADD SLT PUSH2 0x511 JUMPI DUP2 CALLDATALOAD SWAP2 PUSH2 0x18CB PUSH2 0x1F31 JUMP JUMPDEST DUP3 DUP5 MSTORE PUSH1 0x6 PUSH1 0x20 MSTORE PUSH2 0x18E2 PUSH1 0xFF DUP4 DUP7 KECCAK256 SLOAD AND PUSH2 0x1A75 JUMP JUMPDEST DUP3 DUP5 MSTORE PUSH1 0x20 MSTORE PUSH1 0x6 DUP2 DUP5 KECCAK256 ADD SWAP1 PUSH1 0xFF NOT SWAP2 DUP3 DUP2 SLOAD AND SWAP1 SSTORE PUSH1 0x6 PUSH1 0x20 MSTORE DUP4 KECCAK256 SWAP1 DUP2 SLOAD AND SWAP1 SSTORE PUSH32 0x96FBF803F14DA8437E0CBE34DF7152F998DBC3B7E2343C52FB4285E90387A9CA DUP3 DUP1 LOG2 DUP1 RETURN JUMPDEST DUP5 SWAP2 CALLVALUE PUSH2 0x511 JUMPI PUSH1 0x20 CALLDATASIZE PUSH1 0x3 NOT ADD SLT PUSH2 0x511 JUMPI CALLDATALOAD PUSH4 0xFFFFFFFF PUSH1 0xE0 SHL DUP2 AND DUP1 SWAP2 SUB PUSH2 0x511 JUMPI PUSH1 0x20 SWAP3 POP PUSH4 0x7965DB0B PUSH1 0xE0 SHL DUP2 EQ SWAP1 DUP2 ISZERO PUSH2 0x196F JUMPI JUMPDEST POP ISZERO ISZERO DUP2 MSTORE RETURN JUMPDEST PUSH4 0x1FFC9A7 PUSH1 0xE0 SHL EQ SWAP1 POP DUP4 PUSH2 0x1968 JUMP JUMPDEST PUSH1 0x24 CALLDATALOAD SWAP1 PUSH1 0x1 PUSH1 0x1 PUSH1 0xA0 SHL SUB DUP3 AND DUP3 SUB PUSH2 0x422 JUMPI JUMP JUMPDEST SWAP1 PUSH1 0x20 PUSH1 0x3 NOT DUP4 ADD SLT PUSH2 0x422 JUMPI PUSH1 0x4 CALLDATALOAD PUSH8 0xFFFFFFFFFFFFFFFF SWAP3 DUP4 DUP3 GT PUSH2 0x422 JUMPI DUP1 PUSH1 0x23 DUP4 ADD SLT ISZERO PUSH2 0x422 JUMPI DUP2 PUSH1 0x4 ADD CALLDATALOAD SWAP4 DUP5 GT PUSH2 0x422 JUMPI PUSH1 0x24 DUP5 DUP4 ADD ADD GT PUSH2 0x422 JUMPI PUSH1 0x24 ADD SWAP2 SWAP1 JUMP JUMPDEST PUSH1 0x0 JUMPDEST DUP4 DUP2 LT PUSH2 0x19F3 JUMPI POP POP PUSH1 0x0 SWAP2 ADD MSTORE JUMP JUMPDEST DUP2 DUP2 ADD MLOAD DUP4 DUP3 ADD MSTORE PUSH1 0x20 ADD PUSH2 0x19E3 JUMP JUMPDEST SWAP1 PUSH1 0x20 SWAP2 PUSH2 0x1A1C DUP2 MLOAD DUP1 SWAP3 DUP2 DUP6 MSTORE DUP6 DUP1 DUP7 ADD SWAP2 ADD PUSH2 0x19E0 JUMP JUMPDEST PUSH1 0x1F ADD PUSH1 0x1F NOT AND ADD ADD SWAP1 JUMP JUMPDEST PUSH1 0x5 SLOAD DUP2 LT ISZERO PUSH2 0x1A5F JUMPI PUSH1 0x5 PUSH1 0x0 MSTORE PUSH32 0x36B6384B5ECA791C62761152D0C79BB0604C104A5FB6F4EB0703F3154BB3DB0 ADD SWAP1 PUSH1 0x0 SWAP1 JUMP JUMPDEST PUSH4 0x4E487B71 PUSH1 0xE0 SHL PUSH1 0x0 MSTORE PUSH1 0x32 PUSH1 0x4 MSTORE PUSH1 0x24 PUSH1 0x0 REVERT JUMPDEST ISZERO PUSH2 0x1A7C JUMPI JUMP JUMPDEST PUSH1 0x40 MLOAD PUSH3 0x461BCD PUSH1 0xE5 SHL DUP2 MSTORE PUSH1 0x20 PUSH1 0x4 DUP3 ADD MSTORE PUSH1 0xC PUSH1 0x24 DUP3 ADD MSTORE PUSH12 0x4E6F7420747261636B696E67 PUSH1 0xA0 SHL PUSH1 0x44 DUP3 ADD MSTORE PUSH1 0x64 SWAP1 REVERT JUMPDEST PUSH8 0xFFFFFFFFFFFFFFFF DUP2 GT PUSH2 0x1AC4 JUMPI PUSH1 0x40 MSTORE JUMP JUMPDEST PUSH4 0x4E487B71 PUSH1 0xE0 SHL PUSH1 0x0 MSTORE PUSH1 0x41 PUSH1 0x4 MSTORE PUSH1 0x24 PUSH1 0x0 REVERT JUMPDEST PUSH1 0x80 DUP2 ADD SWAP1 DUP2 LT PUSH8 0xFFFFFFFFFFFFFFFF DUP3 GT OR PUSH2 0x1AC4 JUMPI PUSH1 0x40 MSTORE JUMP JUMPDEST PUSH1 0x40 DUP2 ADD SWAP1 DUP2 LT PUSH8 0xFFFFFFFFFFFFFFFF DUP3 GT OR PUSH2 0x1AC4 JUMPI PUSH1 0x40 MSTORE JUMP JUMPDEST SWAP1 PUSH1 0x1F DUP1 NOT SWAP2 ADD AND DUP2 ADD SWAP1 DUP2 LT PUSH8 0xFFFFFFFFFFFFFFFF DUP3 GT OR PUSH2 0x1AC4 JUMPI PUSH1 0x40 MSTORE JUMP JUMPDEST SWAP1 PUSH1 0x80 DUP3 DUP3 SUB SLT PUSH2 0x422 JUMPI DUP1 PUSH1 0x1F DUP4 ADD SLT ISZERO PUSH2 0x422 JUMPI PUSH1 0x40 MLOAD SWAP2 PUSH2 0x1B57 DUP4 PUSH2 0x1ADA JUMP JUMPDEST DUP3 SWAP1 PUSH1 0x80 DUP2 ADD SWAP3 DUP4 GT PUSH2 0x422 JUMPI SWAP1 JUMPDEST DUP3 DUP3 LT PUSH2 0x1B73 JUMPI POP POP POP SWAP1 JUMP JUMPDEST DUP2 MLOAD DUP2 MSTORE PUSH1 0x20 SWAP2 DUP3 ADD SWAP2 ADD PUSH2 0x1B66 JUMP JUMPDEST SWAP2 SWAP1 DUP3 ADD DUP1 SWAP3 GT PUSH2 0x1B90 JUMPI JUMP JUMPDEST PUSH4 0x4E487B71 PUSH1 0xE0 SHL PUSH1 0x0 MSTORE PUSH1 0x11 PUSH1 0x4 MSTORE PUSH1 0x24 PUSH1 0x0 REVERT JUMPDEST MLOAD SWAP1 DUP2 ISZERO ISZERO DUP3 SUB PUSH2 0x422 JUMPI JUMP JUMPDEST ISZERO PUSH2 0x1BBA JUMPI JUMP JUMPDEST PUSH1 0x40 MLOAD PUSH3 0x461BCD PUSH1 0xE5 SHL DUP2 MSTORE PUSH1 0x20 PUSH1 0x4 DUP3 ADD MSTORE PUSH1 0xF PUSH1 0x24 DUP3 ADD MSTORE PUSH15 0x139BDD081DDA1A5D195B1A5CDD1959 PUSH1 0x8A SHL PUSH1 0x44 DUP3 ADD MSTORE PUSH1 0x64 SWAP1 REVERT JUMPDEST ISZERO PUSH2 0x1BF8 JUMPI JUMP JUMPDEST PUSH1 0x40 MLOAD PUSH3 0x461BCD PUSH1 0xE5 SHL DUP2 MSTORE PUSH1 0x20 PUSH1 0x4 DUP3 ADD MSTORE PUSH1 0xF PUSH1 0x24 DUP3 ADD MSTORE PUSH15 0x105B1C9958591E4818DB185A5B5959 PUSH1 0x8A SHL PUSH1 0x44 DUP3 ADD MSTORE PUSH1 0x64 SWAP1 REVERT JUMPDEST ISZERO PUSH2 0x1C36 JUMPI JUMP JUMPDEST PUSH1 0x40 MLOAD PUSH3 0x461BCD PUSH1 0xE5 SHL DUP2 MSTORE PUSH1 0x20 PUSH1 0x4 DUP3 ADD MSTORE PUSH1 0x11 PUSH1 0x24 DUP3 ADD MSTORE PUSH17 0x151A1C995CDA1BDB19081B9BDD081B595D PUSH1 0x7A SHL PUSH1 0x44 DUP3 ADD MSTORE PUSH1 0x64 SWAP1 REVERT JUMPDEST ISZERO PUSH2 0x1C76 JUMPI JUMP JUMPDEST PUSH1 0x40 MLOAD PUSH3 0x461BCD PUSH1 0xE5 SHL DUP2 MSTORE PUSH1 0x20 PUSH1 0x4 DUP3 ADD MSTORE PUSH1 0x9 PUSH1 0x24 DUP3 ADD MSTORE PUSH9 0x546F6F206561726C79 PUSH1 0xB8 SHL PUSH1 0x44 DUP3 ADD MSTORE PUSH1 0x64 SWAP1 REVERT JUMPDEST MLOAD SWAP1 PUSH1 0xFF DUP3 AND DUP3 SUB PUSH2 0x422 JUMPI JUMP JUMPDEST PUSH1 0x5 SLOAD PUSH1 0x0 JUMPDEST DUP2 DUP2 LT PUSH2 0x1CEB JUMPI POP POP PUSH1 0x0 SWAP1 PUSH1 0x40 MLOAD PUSH1 0x20 DUP2 ADD DUP2 DUP2 LT PUSH8 0xFFFFFFFFFFFFFFFF DUP3 GT OR PUSH2 0x1AC4 JUMPI PUSH1 0x40 MSTORE PUSH1 0x0 DUP2 MSTORE SWAP1 JUMP JUMPDEST PUSH2 0x1CF4 DUP2 PUSH2 0x1A28 JUMP JUMPDEST SWAP1 SLOAD SWAP1 PUSH1 0x3 SHL SHR DUP1 PUSH1 0x0 MSTORE PUSH1 0x4 SWAP1 PUSH1 0x20 SWAP2 DUP1 DUP4 MSTORE PUSH1 0x40 DUP1 PUSH1 0x0 KECCAK256 SWAP3 PUSH1 0xFF PUSH1 0x6 DUP6 ADD SLOAD AND ISZERO PUSH2 0x1DA1 JUMPI PUSH1 0x1 DUP1 SWAP5 ADD SLOAD PUSH3 0x93A80 DUP2 ADD DUP1 SWAP2 GT PUSH2 0x1DAE JUMPI TIMESTAMP LT PUSH2 0x1DA1 JUMPI PUSH2 0x1D3E DUP2 PUSH2 0x1EF5 JUMP JUMPDEST SWAP1 PUSH2 0x1D4C DUP3 LT ISZERO PUSH2 0x1D59 JUMPI POP POP POP POP POP POP PUSH1 0x1 SWAP1 JUMPDEST ADD PUSH2 0x1CBB JUMP JUMPDEST DUP3 MLOAD SWAP6 DUP7 ADD MSTORE DUP5 DUP3 ADD MSTORE DUP1 DUP5 MSTORE SWAP3 SWAP6 SWAP5 POP SWAP1 SWAP3 POP PUSH1 0x60 DUP6 ADD SWAP2 SWAP1 PUSH8 0xFFFFFFFFFFFFFFFF DUP4 GT DUP7 DUP5 LT OR PUSH2 0x1D8C JUMPI POP MSTORE SWAP2 SWAP1 JUMP JUMPDEST PUSH1 0x41 SWAP1 PUSH4 0x4E487B71 PUSH1 0xE0 SHL PUSH1 0x0 MSTORE MSTORE PUSH1 0x24 PUSH1 0x0 REVERT JUMPDEST POP POP POP POP POP PUSH1 0x1 SWAP1 PUSH2 0x1D53 JUMP JUMPDEST PUSH1 0x11 DUP5 PUSH4 0x4E487B71 PUSH1 0xE0 SHL PUSH1 0x0 MSTORE MSTORE PUSH1 0x24 PUSH1 0x0 REVERT JUMPDEST ISZERO PUSH2 0x1DCA JUMPI JUMP JUMPDEST PUSH1 0x40 MLOAD PUSH3 0x461BCD PUSH1 0xE5 SHL DUP2 MSTORE PUSH1 0x20 PUSH1 0x4 DUP3 ADD MSTORE PUSH1 0x14 PUSH1 0x24 DUP3 ADD MSTORE PUSH20 0x141C9BDC195C9D1E481B9BDD081D1C9858DAD959 PUSH1 0x62 SHL PUSH1 0x44 DUP3 ADD MSTORE PUSH1 0x64 SWAP1 REVERT JUMPDEST DUP2 PUSH1 0x1F DUP3 ADD SLT ISZERO PUSH2 0x422 JUMPI DUP1 MLOAD PUSH8 0xFFFFFFFFFFFFFFFF DUP2 GT PUSH2 0x1AC4 JUMPI PUSH1 0x40 MLOAD SWAP3 PUSH2 0x1E3A PUSH1 0x1F DUP4 ADD PUSH1 0x1F NOT AND PUSH1 0x20 ADD DUP6 PUSH2 0x1B12 JUMP JUMPDEST DUP2 DUP5 MSTORE PUSH1 0x20 DUP3 DUP5 ADD ADD GT PUSH2 0x422 JUMPI PUSH2 0x1E58 SWAP2 PUSH1 0x20 DUP1 DUP6 ADD SWAP2 ADD PUSH2 0x19E0 JUMP JUMPDEST SWAP1 JUMP JUMPDEST PUSH2 0x140 DUP2 DUP4 SUB SLT PUSH2 0x422 JUMPI DUP1 MLOAD SWAP3 PUSH1 0x20 DUP3 ADD MLOAD PUSH8 0xFFFFFFFFFFFFFFFF SWAP1 DUP2 DUP2 GT PUSH2 0x422 JUMPI DUP5 PUSH2 0x1E8B SWAP2 DUP6 ADD PUSH2 0x1E06 JUMP JUMPDEST SWAP4 PUSH1 0x40 DUP5 ADD MLOAD SWAP2 DUP3 GT PUSH2 0x422 JUMPI PUSH2 0x1EA3 SWAP2 DUP5 ADD PUSH2 0x1E06 JUMP JUMPDEST SWAP2 PUSH1 0x60 DUP2 ADD MLOAD SWAP2 PUSH1 0x80 DUP3 ADD MLOAD SWAP2 PUSH1 0xA0 DUP2 ADD MLOAD SWAP2 PUSH1 0xC0 DUP3 ADD MLOAD SWAP2 PUSH2 0x1EC8 PUSH1 0xE0 DUP3 ADD PUSH2 0x1CA7 JUMP JUMPDEST SWAP2 PUSH2 0x1E58 PUSH2 0x120 PUSH2 0x1EDC PUSH2 0x100 DUP6 ADD PUSH2 0x1BA6 JUMP JUMPDEST SWAP4 ADD PUSH2 0x1BA6 JUMP JUMPDEST PUSH1 0xFF PUSH1 0x1 SWAP2 AND ADD SWAP1 PUSH1 0xFF DUP3 GT PUSH2 0x1B90 JUMPI JUMP JUMPDEST PUSH1 0x0 MSTORE PUSH1 0x4 PUSH1 0x20 MSTORE PUSH1 0x40 PUSH1 0x0 KECCAK256 PUSH1 0x2 DUP2 ADD SLOAD SWAP1 DUP2 ISZERO PUSH2 0x1F2A JUMPI PUSH1 0x3 ADD SLOAD PUSH2 0x2710 SWAP1 DUP2 DUP2 MUL SWAP2 DUP2 DUP4 DIV EQ SWAP1 ISZERO OR ISZERO PUSH2 0x1B90 JUMPI DIV SWAP1 JUMP JUMPDEST POP POP PUSH1 0x0 SWAP1 JUMP JUMPDEST CALLER PUSH1 0x0 SWAP1 DUP2 MSTORE PUSH32 0xEE57CD81E84075558E8FCC182A1F4393F91FC97F963A136E66B7F949A62F319F PUSH1 0x20 MSTORE PUSH1 0x40 SWAP1 KECCAK256 SLOAD PUSH32 0x97667070C54EF182B0F5858B034BEAC1B6F3089AA2D3188BB1E8929F4FA9B929 SWAP1 PUSH1 0xFF AND ISZERO PUSH2 0x1F8D JUMPI POP JUMP JUMPDEST PUSH1 0x44 SWAP1 PUSH1 0x40 MLOAD SWAP1 PUSH4 0xE2517D3F PUSH1 0xE0 SHL DUP3 MSTORE CALLER PUSH1 0x4 DUP4 ADD MSTORE PUSH1 0x24 DUP3 ADD MSTORE REVERT JUMPDEST CALLER PUSH1 0x0 SWAP1 DUP2 MSTORE PUSH32 0xAD3228B676F7D3CD4284A5443F17F1962B36E491B30A40B2405849E597BA5FB5 PUSH1 0x20 MSTORE PUSH1 0x40 DUP2 KECCAK256 SLOAD PUSH1 0xFF AND ISZERO PUSH2 0x1F8D JUMPI POP JUMP JUMPDEST DUP1 PUSH1 0x0 MSTORE PUSH1 0x0 PUSH1 0x20 MSTORE PUSH1 0x40 PUSH1 0x0 KECCAK256 CALLER PUSH1 0x0 MSTORE PUSH1 0x20 MSTORE PUSH1 0xFF PUSH1 0x40 PUSH1 0x0 KECCAK256 SLOAD AND ISZERO PUSH2 0x1F8D JUMPI POP JUMP JUMPDEST SWAP1 PUSH1 0x0 SWAP2 DUP1 DUP4 MSTORE DUP3 PUSH1 0x20 MSTORE PUSH1 0x40 DUP4 KECCAK256 SWAP2 PUSH1 0x1 DUP1 PUSH1 0xA0 SHL SUB AND SWAP2 DUP3 DUP5 MSTORE PUSH1 0x20 MSTORE PUSH1 0xFF PUSH1 0x40 DUP5 KECCAK256 SLOAD AND ISZERO PUSH1 0x0 EQ PUSH2 0x2084 JUMPI DUP1 DUP4 MSTORE DUP3 PUSH1 0x20 MSTORE PUSH1 0x40 DUP4 KECCAK256 DUP3 DUP5 MSTORE PUSH1 0x20 MSTORE PUSH1 0x40 DUP4 KECCAK256 PUSH1 0x1 PUSH1 0xFF NOT DUP3 SLOAD AND OR SWAP1 SSTORE PUSH32 0x2F8788117E7EFF1D82E926EC794901D17C78024A50270940304540A733656F0D CALLER SWAP4 DUP1 LOG4 PUSH1 0x1 SWAP1 JUMP JUMPDEST POP POP SWAP1 JUMP JUMPDEST SWAP1 PUSH1 0x0 SWAP2 DUP1 DUP4 MSTORE DUP3 PUSH1 0x20 MSTORE PUSH1 0x40 DUP4 KECCAK256 SWAP2 PUSH1 0x1 DUP1 PUSH1 0xA0 SHL SUB AND SWAP2 DUP3 DUP5 MSTORE PUSH1 0x20 MSTORE PUSH1 0xFF PUSH1 0x40 DUP5 KECCAK256 SLOAD AND PUSH1 0x0 EQ PUSH2 0x2084 JUMPI DUP1 DUP4 MSTORE DUP3 PUSH1 0x20 MSTORE PUSH1 0x40 DUP4 KECCAK256 DUP3 DUP5 MSTORE PUSH1 0x20 MSTORE PUSH1 0x40 DUP4 KECCAK256 PUSH1 0xFF NOT DUP2 SLOAD AND SWAP1 SSTORE PUSH32 0xF6391F5C32D9C69D2A47EA670B442974B53935D1EDC7FD64EB21E047A839171B CALLER SWAP4 DUP1 LOG4 PUSH1 0x1 SWAP1 JUMP JUMPDEST SWAP1 DUP2 PUSH1 0x0 MSTORE PUSH1 0x20 SWAP1 PUSH1 0x7 DUP3 MSTORE PUSH1 0x40 PUSH2 0x211D DUP2 PUSH1 0x0 KECCAK256 SLOAD PUSH1 0x8 SLOAD SWAP1 PUSH2 0x1B83 JUMP JUMPDEST TIMESTAMP LT PUSH2 0x2261 JUMPI PUSH2 0x9C4 DUP3 LT ISZERO PUSH2 0x21A6 JUMPI PUSH32 0x505A29C5397A0038BF34D9F7BAF0047C3F5EAE6323BF8450C1E34DACF7CC2A17 SWAP3 DUP2 MLOAD PUSH2 0x215A DUP2 PUSH2 0x1AF6 JUMP JUMPDEST PUSH1 0x14 DUP2 MSTORE PUSH20 0x3AB933B2B73A2FB830B93A34B1B4B830BA34B7B7 PUSH1 0x61 SHL DUP3 DUP3 ADD MSTORE SWAP3 JUMPDEST DUP6 PUSH1 0x0 MSTORE PUSH1 0x7 DUP3 MSTORE TIMESTAMP DUP4 PUSH1 0x0 KECCAK256 SSTORE PUSH2 0x219D DUP4 MLOAD SWAP5 DUP5 DUP7 SWAP6 DUP7 MSTORE DUP6 ADD SWAP1 PUSH2 0x1A03 JUMP JUMPDEST SWAP2 DUP4 ADD MSTORE SUB SWAP1 LOG2 JUMP JUMPDEST PUSH2 0x1770 DUP3 LT ISZERO DUP1 PUSH2 0x2272 JUMPI JUMPDEST ISZERO PUSH2 0x2204 JUMPI PUSH32 0x505A29C5397A0038BF34D9F7BAF0047C3F5EAE6323BF8450C1E34DACF7CC2A17 SWAP3 DUP2 MLOAD PUSH2 0x21E4 DUP2 PUSH2 0x1AF6 JUMP JUMPDEST PUSH1 0xE DUP2 MSTORE PUSH14 0x36B4B632B9BA37B732AFB732B0B9 PUSH1 0x91 SHL DUP3 DUP3 ADD MSTORE SWAP3 PUSH2 0x217C JUMP JUMPDEST PUSH2 0x1B58 DUP3 LT ISZERO DUP1 PUSH2 0x2267 JUMPI JUMPDEST ISZERO PUSH2 0x2261 JUMPI PUSH32 0x505A29C5397A0038BF34D9F7BAF0047C3F5EAE6323BF8450C1E34DACF7CC2A17 SWAP3 DUP2 MLOAD PUSH2 0x2242 DUP2 PUSH2 0x1AF6 JUMP JUMPDEST PUSH1 0xD DUP2 MSTORE PUSH13 0x70686173655F636C6F73696E67 PUSH1 0x98 SHL DUP3 DUP3 ADD MSTORE SWAP3 PUSH2 0x217C JUMP JUMPDEST POP POP POP POP JUMP JUMPDEST POP PUSH2 0x1D4C DUP3 LT PUSH2 0x2210 JUMP JUMPDEST POP PUSH2 0x1D4C DUP3 LT PUSH2 0x21B2 JUMP JUMPDEST SWAP1 DUP2 PUSH1 0x0 MSTORE PUSH1 0x4 PUSH1 0x20 MSTORE PUSH1 0x1 PUSH1 0x40 PUSH1 0x0 KECCAK256 ADD SLOAD PUSH3 0x93A80 DUP2 ADD DUP1 SWAP2 GT PUSH2 0x1B90 JUMPI TIMESTAMP LT PUSH2 0x22BC JUMPI PUSH2 0x1D4C DUP2 LT ISZERO PUSH2 0x22B1 JUMPI POP POP JUMP JUMPDEST PUSH2 0x22BA SWAP2 PUSH2 0x22C0 JUMP JUMPDEST JUMP JUMPDEST POP POP JUMP JUMPDEST PUSH1 0x1 SLOAD PUSH1 0x40 DUP1 MLOAD PUSH4 0x32665FFB PUSH1 0xE0 SHL DUP2 MSTORE PUSH1 0x4 DUP2 ADD DUP5 SWAP1 MSTORE SWAP3 SWAP4 PUSH1 0x1 PUSH1 0x1 PUSH1 0xA0 SHL SUB SWAP1 SWAP3 AND SWAP3 PUSH1 0x0 DUP1 DUP3 PUSH1 0x24 DUP2 DUP9 GAS STATICCALL SWAP2 DUP3 ISZERO PUSH2 0x23DF JUMPI DUP2 SWAP3 PUSH2 0x23B9 JUMPI JUMPDEST POP PUSH1 0xFF DUP3 AND SWAP5 PUSH1 0x3 DUP7 LT PUSH2 0x2316 JUMPI JUMPDEST POP POP POP POP POP POP POP JUMP JUMPDEST DUP1 EXTCODESIZE ISZERO PUSH2 0x22C JUMPI DUP2 DUP1 SWAP2 PUSH1 0x24 DUP7 MLOAD DUP1 SWAP5 DUP2 SWAP4 PUSH4 0x40D57A67 PUSH1 0xE1 SHL DUP4 MSTORE DUP13 PUSH1 0x4 DUP5 ADD MSTORE GAS CALL DUP1 ISZERO PUSH2 0xFF9 JUMPI PUSH1 0x60 SWAP6 SWAP4 PUSH32 0xD786D06DD56DF8B68A470FB87593BD3D76A14EEEA5CF10760563177BD21496B0 SWAP8 SWAP6 SWAP4 PUSH1 0xFF SWAP4 PUSH2 0x238F SWAP4 PUSH2 0x23AA JUMPI JUMPDEST POP DUP10 DUP2 MSTORE PUSH1 0x4 PUSH1 0x20 MSTORE PUSH1 0x3 DUP6 DUP3 KECCAK256 TIMESTAMP PUSH1 0x1 DUP3 ADD SSTORE ADD SSTORE PUSH2 0x1EE3 JUMP JUMPDEST DUP3 MLOAD SWAP5 DUP6 MSTORE AND PUSH1 0x20 DUP5 ADD MSTORE DUP3 ADD MSTORE LOG2 CODESIZE DUP1 DUP1 DUP1 DUP1 DUP1 DUP1 PUSH2 0x230D JUMP JUMPDEST PUSH2 0x23B3 SWAP1 PUSH2 0x1AB0 JUMP JUMPDEST CODESIZE PUSH2 0x2374 JUMP JUMPDEST PUSH2 0x23CE SWAP2 SWAP3 POP RETURNDATASIZE DUP1 DUP5 DUP4 RETURNDATACOPY PUSH2 0x531 DUP2 DUP4 PUSH2 0x1B12 JUMP JUMPDEST POP POP SWAP7 POP POP POP POP POP POP POP SWAP1 CODESIZE PUSH2 0x22FE JUMP JUMPDEST POP DUP3 MLOAD SWAP1 RETURNDATASIZE SWAP1 DUP3 RETURNDATACOPY RETURNDATASIZE SWAP1 REVERT INVALID LOG2 PUSH5 0x6970667358 0x22 SLT KECCAK256 0xBD 0xE5 PUSH1 0xD6 PUSH5 0xAB99DD0257 0x4B 0xBB GASLIMIT PUSH4 0x8C59FE12 SLOAD BASEFEE 0xD9 0xBA PUSH31 0x850B8197192E7AA44E64736F6C634300081800332F8788117E7EFF1D82E926 0xEC PUSH26 0x4901D17C78024A50270940304540A733656F0D00000000000000 "},"methodIdentifiers":{"BONUS_TOKENS()":"b415d279","DEFAULT_ADMIN_ROLE()":"a217fddf","ENGAGEMENT_THRESHOLD()":"30ae7805","MIN_ENGAGEMENT_PERIOD()":"5513de41","OPERATOR_ROLE()":"f5b541a6","POLL_BONUS_MULTIPLIER()":"a27f71b2","calculateEngagement(uint256)":"f333d6c2","checkSubscriptionAdvancement(uint256)":"d5612486","checkUpkeep(bytes)":"6e04ff0d","claimEngagementBonus(uint256)":"40ab3171","claimPollBoostBonus(uint256)":"14585aeb","geoOracle()":"36bfbfb8","getCommunityHealth()":"0ad5f421","getDemandEngagementMetrics(uint256)":"11f0072f","getEngagement(uint256)":"2e94dfda","getRoleAdmin(bytes32)":"248a9ca3","getTrackedProperties()":"313b79da","governance()":"5aa6e675","grantRole(bytes32,address)":"2f2ff15d","hasClaimed(uint256,address)":"873f6f9e","hasParticipatedInPolls(uint256,address)":"a9dc8726","hasRole(bytes32,address)":"91d14854","isTracked(uint256)":"1194f9e9","lastNudgeTime(uint256)":"5da6559e","nudgeCooldown()":"6675584f","performUpkeep(bytes)":"4585e33b","pollParticipated(uint256,address)":"587bd4a7","propertyEngagement(uint256)":"63e86eb8","propertyPollCount(uint256)":"73de7b4b","propertyToken()":"43ae2695","recordPollParticipation(uint256,address)":"816aad3c","renounceRole(bytes32,address)":"36568abe","revokeRole(bytes32,address)":"d547741f","setGeoOracle(address)":"a21e6f2f","setNudgeCooldown(uint256)":"8e5359e0","startTracking(uint256,uint256)":"785b2190","stopTracking(uint256)":"06785d8a","supportsInterface(bytes4)":"01ffc9a7","trackedProperties(uint256)":"8085b813","updateDemandEngagement(uint256)":"c8259776","updateEngagement(uint256,uint256,uint256,uint256)":"94c9825d","updateEngagementWithPolls(uint256,uint256,uint256,uint256,uint256)":"3a21ccc1"}}}}}