{"contracts/PropertyToken.sol":{"PropertyToken":{"abi":[{"inputs":[{"internalType":"string","name":"uri_","type":"string"}],"stateMutability":"nonpayable","type":"constructor"},{"inputs":[],"name":"AccessControlBadConfirmation","type":"error"},{"inputs":[{"internalType":"address","name":"account","type":"address"},{"internalType":"bytes32","name":"neededRole","type":"bytes32"}],"name":"AccessControlUnauthorizedAccount","type":"error"},{"inputs":[{"internalType":"address","name":"sender","type":"address"},{"internalType":"uint256","name":"balance","type":"uint256"},{"internalType":"uint256","name":"needed","type":"uint256"},{"internalType":"uint256","name":"tokenId","type":"uint256"}],"name":"ERC1155InsufficientBalance","type":"error"},{"inputs":[{"internalType":"address","name":"approver","type":"address"}],"name":"ERC1155InvalidApprover","type":"error"},{"inputs":[{"internalType":"uint256","name":"idsLength","type":"uint256"},{"internalType":"uint256","name":"valuesLength","type":"uint256"}],"name":"ERC1155InvalidArrayLength","type":"error"},{"inputs":[{"internalType":"address","name":"operator","type":"address"}],"name":"ERC1155InvalidOperator","type":"error"},{"inputs":[{"internalType":"address","name":"receiver","type":"address"}],"name":"ERC1155InvalidReceiver","type":"error"},{"inputs":[{"internalType":"address","name":"sender","type":"address"}],"name":"ERC1155InvalidSender","type":"error"},{"inputs":[{"internalType":"address","name":"operator","type":"address"},{"internalType":"address","name":"owner","type":"address"}],"name":"ERC1155MissingApprovalForAll","type":"error"},{"inputs":[],"name":"EnforcedPause","type":"error"},{"inputs":[],"name":"ExpectedPause","type":"error"},{"inputs":[],"name":"ReentrancyGuardReentrantCall","type":"error"},{"anonymous":false,"inputs":[{"indexed":true,"internalType":"address","name":"account","type":"address"},{"indexed":false,"internalType":"uint256","name":"timestamp","type":"uint256"},{"indexed":false,"internalType":"string","name":"reason","type":"string"}],"name":"AMLCheckFailed","type":"event"},{"anonymous":false,"inputs":[{"indexed":true,"internalType":"address","name":"account","type":"address"},{"indexed":false,"internalType":"uint256","name":"timestamp","type":"uint256"},{"indexed":false,"internalType":"bytes32","name":"checkId","type":"bytes32"}],"name":"AMLCheckPassed","type":"event"},{"anonymous":false,"inputs":[{"indexed":true,"internalType":"address","name":"account","type":"address"}],"name":"AddressRemovedFromWhitelist","type":"event"},{"anonymous":false,"inputs":[{"indexed":true,"internalType":"address","name":"account","type":"address"},{"indexed":false,"internalType":"enum PropertyToken.Phase","name":"eligibility","type":"uint8"}],"name":"AddressWhitelisted","type":"event"},{"anonymous":false,"inputs":[{"indexed":true,"internalType":"address","name":"account","type":"address"},{"indexed":true,"internalType":"address","name":"operator","type":"address"},{"indexed":false,"internalType":"bool","name":"approved","type":"bool"}],"name":"ApprovalForAll","type":"event"},{"anonymous":false,"inputs":[{"indexed":false,"internalType":"uint256","name":"newPrice","type":"uint256"}],"name":"BasePriceUpdated","type":"event"},{"anonymous":false,"inputs":[{"indexed":true,"internalType":"uint256","name":"propertyId","type":"uint256"},{"indexed":false,"internalType":"uint256","name":"timestamp","type":"uint256"},{"indexed":false,"internalType":"uint256","name":"totalHolders","type":"uint256"},{"indexed":false,"internalType":"uint256","name":"totalSupplyMinted","type":"uint256"}],"name":"ComplianceCheckpoint","type":"event"},{"anonymous":false,"inputs":[{"indexed":true,"internalType":"address","name":"account","type":"address"},{"indexed":false,"internalType":"uint256","name":"timestamp","type":"uint256"},{"indexed":false,"internalType":"bytes32","name":"verificationId","type":"bytes32"}],"name":"KYCVerificationCompleted","type":"event"},{"anonymous":false,"inputs":[{"indexed":true,"internalType":"address","name":"account","type":"address"},{"indexed":false,"internalType":"uint256","name":"timestamp","type":"uint256"},{"indexed":false,"internalType":"string","name":"reason","type":"string"}],"name":"KYCVerificationRevoked","type":"event"},{"anonymous":false,"inputs":[{"indexed":false,"internalType":"address","name":"account","type":"address"}],"name":"Paused","type":"event"},{"anonymous":false,"inputs":[{"indexed":true,"internalType":"uint256","name":"propertyId","type":"uint256"},{"indexed":false,"internalType":"enum PropertyToken.Phase","name":"newPhase","type":"uint8"}],"name":"PhaseAdvanced","type":"event"},{"anonymous":false,"inputs":[{"indexed":true,"internalType":"uint256","name":"propertyId","type":"uint256"},{"indexed":false,"internalType":"string","name":"name","type":"string"},{"indexed":false,"internalType":"uint256","name":"totalSupply","type":"uint256"},{"indexed":false,"internalType":"uint256","name":"fundingTarget","type":"uint256"}],"name":"PropertyCreated","type":"event"},{"anonymous":false,"inputs":[{"indexed":true,"internalType":"uint256","name":"propertyId","type":"uint256"},{"indexed":false,"internalType":"uint256","name":"totalRaised","type":"uint256"}],"name":"PropertyFunded","type":"event"},{"anonymous":false,"inputs":[{"indexed":true,"internalType":"uint256","name":"propertyId","type":"uint256"},{"indexed":true,"internalType":"address","name":"requestor","type":"address"},{"indexed":false,"internalType":"uint256","name":"timestamp","type":"uint256"}],"name":"RegulatorAuditRequested","type":"event"},{"anonymous":false,"inputs":[{"indexed":true,"internalType":"bytes32","name":"role","type":"bytes32"},{"indexed":true,"internalType":"bytes32","name":"previousAdminRole","type":"bytes32"},{"indexed":true,"internalType":"bytes32","name":"newAdminRole","type":"bytes32"}],"name":"RoleAdminChanged","type":"event"},{"anonymous":false,"inputs":[{"indexed":true,"internalType":"bytes32","name":"role","type":"bytes32"},{"indexed":true,"internalType":"address","name":"account","type":"address"},{"indexed":true,"internalType":"address","name":"sender","type":"address"}],"name":"RoleGranted","type":"event"},{"anonymous":false,"inputs":[{"indexed":true,"internalType":"bytes32","name":"role","type":"bytes32"},{"indexed":true,"internalType":"address","name":"account","type":"address"},{"indexed":true,"internalType":"address","name":"sender","type":"address"}],"name":"RoleRevoked","type":"event"},{"anonymous":false,"inputs":[{"indexed":true,"internalType":"uint256","name":"propertyId","type":"uint256"},{"indexed":true,"internalType":"address","name":"from","type":"address"},{"indexed":false,"internalType":"uint256","name":"amount","type":"uint256"},{"indexed":false,"internalType":"enum PropertyToken.Phase","name":"phase","type":"uint8"}],"name":"TokensBurned","type":"event"},{"anonymous":false,"inputs":[{"indexed":true,"internalType":"uint256","name":"propertyId","type":"uint256"},{"indexed":true,"internalType":"address","name":"buyer","type":"address"},{"indexed":false,"internalType":"uint256","name":"amount","type":"uint256"},{"indexed":false,"internalType":"enum PropertyToken.Phase","name":"phase","type":"uint8"}],"name":"TokensMinted","type":"event"},{"anonymous":false,"inputs":[{"indexed":true,"internalType":"address","name":"operator","type":"address"},{"indexed":true,"internalType":"address","name":"from","type":"address"},{"indexed":true,"internalType":"address","name":"to","type":"address"},{"indexed":false,"internalType":"uint256[]","name":"ids","type":"uint256[]"},{"indexed":false,"internalType":"uint256[]","name":"values","type":"uint256[]"}],"name":"TransferBatch","type":"event"},{"anonymous":false,"inputs":[{"indexed":true,"internalType":"uint256","name":"propertyId","type":"uint256"},{"indexed":true,"internalType":"address","name":"from","type":"address"},{"indexed":true,"internalType":"address","name":"to","type":"address"},{"indexed":false,"internalType":"string","name":"reason","type":"string"}],"name":"TransferRestricted","type":"event"},{"anonymous":false,"inputs":[{"indexed":true,"internalType":"address","name":"operator","type":"address"},{"indexed":true,"internalType":"address","name":"from","type":"address"},{"indexed":true,"internalType":"address","name":"to","type":"address"},{"indexed":false,"internalType":"uint256","name":"id","type":"uint256"},{"indexed":false,"internalType":"uint256","name":"value","type":"uint256"}],"name":"TransferSingle","type":"event"},{"anonymous":false,"inputs":[{"indexed":false,"internalType":"string","name":"value","type":"string"},{"indexed":true,"internalType":"uint256","name":"id","type":"uint256"}],"name":"URI","type":"event"},{"anonymous":false,"inputs":[{"indexed":false,"internalType":"address","name":"account","type":"address"}],"name":"Unpaused","type":"event"},{"inputs":[],"name":"BURNER_ROLE","outputs":[{"internalType":"bytes32","name":"","type":"bytes32"}],"stateMutability":"view","type":"function"},{"inputs":[],"name":"COUNTY_ALLOCATION","outputs":[{"internalType":"uint256","name":"","type":"uint256"}],"stateMutability":"view","type":"function"},{"inputs":[],"name":"COUNTY_MULTIPLIER","outputs":[{"internalType":"uint256","name":"","type":"uint256"}],"stateMutability":"view","type":"function"},{"inputs":[],"name":"COUNTY_VOTING_MULTIPLIER","outputs":[{"internalType":"uint256","name":"","type":"uint256"}],"stateMutability":"view","type":"function"},{"inputs":[],"name":"DEFAULT_ADMIN_ROLE","outputs":[{"internalType":"bytes32","name":"","type":"bytes32"}],"stateMutability":"view","type":"function"},{"inputs":[],"name":"INTERNATIONAL_ALLOCATION","outputs":[{"internalType":"uint256","name":"","type":"uint256"}],"stateMutability":"view","type":"function"},{"inputs":[],"name":"INTERNATIONAL_MULTIPLIER","outputs":[{"internalType":"uint256","name":"","type":"uint256"}],"stateMutability":"view","type":"function"},{"inputs":[],"name":"INTERNATIONAL_VOTING_MULTIPLIER","outputs":[{"internalType":"uint256","name":"","type":"uint256"}],"stateMutability":"view","type":"function"},{"inputs":[],"name":"MINTER_ROLE","outputs":[{"internalType":"bytes32","name":"","type":"bytes32"}],"stateMutability":"view","type":"function"},{"inputs":[],"name":"NATIONAL_ALLOCATION","outputs":[{"internalType":"uint256","name":"","type":"uint256"}],"stateMutability":"view","type":"function"},{"inputs":[],"name":"NATIONAL_MULTIPLIER","outputs":[{"internalType":"uint256","name":"","type":"uint256"}],"stateMutability":"view","type":"function"},{"inputs":[],"name":"NATIONAL_VOTING_MULTIPLIER","outputs":[{"internalType":"uint256","name":"","type":"uint256"}],"stateMutability":"view","type":"function"},{"inputs":[],"name":"PAUSER_ROLE","outputs":[{"internalType":"bytes32","name":"","type":"bytes32"}],"stateMutability":"view","type":"function"},{"inputs":[],"name":"PHASE_ADVANCER_ROLE","outputs":[{"internalType":"bytes32","name":"","type":"bytes32"}],"stateMutability":"view","type":"function"},{"inputs":[],"name":"STATE_ALLOCATION","outputs":[{"internalType":"uint256","name":"","type":"uint256"}],"stateMutability":"view","type":"function"},{"inputs":[],"name":"STATE_MULTIPLIER","outputs":[{"internalType":"uint256","name":"","type":"uint256"}],"stateMutability":"view","type":"function"},{"inputs":[],"name":"STATE_VOTING_MULTIPLIER","outputs":[{"internalType":"uint256","name":"","type":"uint256"}],"stateMutability":"view","type":"function"},{"inputs":[],"name":"WHITELIST_ADMIN_ROLE","outputs":[{"internalType":"bytes32","name":"","type":"bytes32"}],"stateMutability":"view","type":"function"},{"inputs":[{"internalType":"address","name":"account","type":"address"},{"internalType":"enum PropertyToken.Phase","name":"eligibility","type":"uint8"}],"name":"addToWhitelist","outputs":[],"stateMutability":"nonpayable","type":"function"},{"inputs":[{"internalType":"address","name":"","type":"address"}],"name":"addressPhaseEligibility","outputs":[{"internalType":"enum PropertyToken.Phase","name":"","type":"uint8"}],"stateMutability":"view","type":"function"},{"inputs":[{"internalType":"uint256","name":"propertyId","type":"uint256"}],"name":"advancePhase","outputs":[],"stateMutability":"nonpayable","type":"function"},{"inputs":[{"internalType":"address","name":"","type":"address"}],"name":"amlCheckIds","outputs":[{"internalType":"bytes32","name":"","type":"bytes32"}],"stateMutability":"view","type":"function"},{"inputs":[{"internalType":"address","name":"account","type":"address"},{"internalType":"enum PropertyToken.Phase","name":"eligibility","type":"uint8"},{"internalType":"bytes","name":"verificationData","type":"bytes"}],"name":"autoWhitelist","outputs":[],"stateMutability":"nonpayable","type":"function"},{"inputs":[{"internalType":"address","name":"account","type":"address"},{"internalType":"uint256","name":"id","type":"uint256"}],"name":"balanceOf","outputs":[{"internalType":"uint256","name":"","type":"uint256"}],"stateMutability":"view","type":"function"},{"inputs":[{"internalType":"address[]","name":"accounts","type":"address[]"},{"internalType":"uint256[]","name":"ids","type":"uint256[]"}],"name":"balanceOfBatch","outputs":[{"internalType":"uint256[]","name":"","type":"uint256[]"}],"stateMutability":"view","type":"function"},{"inputs":[],"name":"basePrice","outputs":[{"internalType":"uint256","name":"","type":"uint256"}],"stateMutability":"view","type":"function"},{"inputs":[{"internalType":"address","name":"account","type":"address"},{"internalType":"uint256","name":"id","type":"uint256"},{"internalType":"uint256","name":"value","type":"uint256"}],"name":"burn","outputs":[],"stateMutability":"nonpayable","type":"function"},{"inputs":[{"internalType":"address","name":"account","type":"address"},{"internalType":"uint256[]","name":"ids","type":"uint256[]"},{"internalType":"uint256[]","name":"values","type":"uint256[]"}],"name":"burnBatch","outputs":[],"stateMutability":"nonpayable","type":"function"},{"inputs":[{"internalType":"uint256","name":"propertyId","type":"uint256"},{"internalType":"address","name":"holder","type":"address"},{"internalType":"uint256","name":"amount","type":"uint256"}],"name":"burnFromOnFailure","outputs":[],"stateMutability":"nonpayable","type":"function"},{"inputs":[{"internalType":"uint256","name":"propertyId","type":"uint256"}],"name":"createComplianceCheckpoint","outputs":[],"stateMutability":"nonpayable","type":"function"},{"inputs":[{"internalType":"string","name":"name","type":"string"},{"internalType":"string","name":"propertyUri","type":"string"},{"internalType":"uint256","name":"totalSupply","type":"uint256"},{"internalType":"uint256","name":"fundingTarget","type":"uint256"},{"internalType":"uint256","name":"fundingDuration","type":"uint256"}],"name":"createProperty","outputs":[{"internalType":"uint256","name":"","type":"uint256"}],"stateMutability":"nonpayable","type":"function"},{"inputs":[{"internalType":"uint256","name":"id","type":"uint256"}],"name":"exists","outputs":[{"internalType":"bool","name":"","type":"bool"}],"stateMutability":"view","type":"function"},{"inputs":[],"name":"getAllPropertyIds","outputs":[{"internalType":"uint256[]","name":"","type":"uint256[]"}],"stateMutability":"view","type":"function"},{"inputs":[{"internalType":"uint256","name":"propertyId","type":"uint256"}],"name":"getCurrentPrice","outputs":[{"internalType":"uint256","name":"","type":"uint256"}],"stateMutability":"view","type":"function"},{"inputs":[{"internalType":"address","name":"account","type":"address"}],"name":"getKYCStatus","outputs":[{"internalType":"bool","name":"isVerified","type":"bool"},{"internalType":"bytes32","name":"verificationId","type":"bytes32"},{"internalType":"uint256","name":"verificationTimestamp","type":"uint256"}],"stateMutability":"view","type":"function"},{"inputs":[{"internalType":"uint256","name":"propertyId","type":"uint256"}],"name":"getProperty","outputs":[{"components":[{"internalType":"uint256","name":"id","type":"uint256"},{"internalType":"string","name":"name","type":"string"},{"internalType":"string","name":"uri","type":"string"},{"internalType":"uint256","name":"totalSupply","type":"uint256"},{"internalType":"uint256","name":"mintedSupply","type":"uint256"},{"internalType":"uint256","name":"fundingTarget","type":"uint256"},{"internalType":"uint256","name":"fundingDeadline","type":"uint256"},{"internalType":"enum PropertyToken.Phase","name":"currentPhase","type":"uint8"},{"internalType":"bool","name":"isActive","type":"bool"},{"internalType":"bool","name":"isFunded","type":"bool"}],"internalType":"struct PropertyToken.Property","name":"","type":"tuple"}],"stateMutability":"view","type":"function"},{"inputs":[],"name":"getPropertyCount","outputs":[{"internalType":"uint256","name":"","type":"uint256"}],"stateMutability":"view","type":"function"},{"inputs":[{"internalType":"bytes32","name":"role","type":"bytes32"}],"name":"getRoleAdmin","outputs":[{"internalType":"bytes32","name":"","type":"bytes32"}],"stateMutability":"view","type":"function"},{"inputs":[{"internalType":"uint256","name":"propertyId","type":"uint256"}],"name":"getTotalWeightedVotingPower","outputs":[{"internalType":"uint256","name":"","type":"uint256"}],"stateMutability":"view","type":"function"},{"inputs":[{"internalType":"enum PropertyToken.Phase","name":"phase","type":"uint8"}],"name":"getVotingMultiplier","outputs":[{"internalType":"uint256","name":"","type":"uint256"}],"stateMutability":"pure","type":"function"},{"inputs":[{"internalType":"uint256","name":"propertyId","type":"uint256"},{"internalType":"address","name":"voter","type":"address"}],"name":"getVotingPower","outputs":[{"internalType":"uint256","name":"","type":"uint256"}],"stateMutability":"view","type":"function"},{"inputs":[{"internalType":"bytes32","name":"role","type":"bytes32"},{"internalType":"address","name":"account","type":"address"}],"name":"grantRole","outputs":[],"stateMutability":"nonpayable","type":"function"},{"inputs":[{"internalType":"bytes32","name":"role","type":"bytes32"},{"internalType":"address","name":"account","type":"address"}],"name":"hasRole","outputs":[{"internalType":"bool","name":"","type":"bool"}],"stateMutability":"view","type":"function"},{"inputs":[{"internalType":"uint256","name":"","type":"uint256"},{"internalType":"address","name":"","type":"address"},{"internalType":"enum PropertyToken.Phase","name":"","type":"uint8"}],"name":"holdingsByPhase","outputs":[{"internalType":"uint256","name":"","type":"uint256"}],"stateMutability":"view","type":"function"},{"inputs":[{"internalType":"address","name":"account","type":"address"},{"internalType":"address","name":"operator","type":"address"}],"name":"isApprovedForAll","outputs":[{"internalType":"bool","name":"","type":"bool"}],"stateMutability":"view","type":"function"},{"inputs":[{"internalType":"address","name":"","type":"address"}],"name":"kycVerificationIds","outputs":[{"internalType":"bytes32","name":"","type":"bytes32"}],"stateMutability":"view","type":"function"},{"inputs":[{"internalType":"address","name":"","type":"address"}],"name":"kycVerificationTimestamps","outputs":[{"internalType":"uint256","name":"","type":"uint256"}],"stateMutability":"view","type":"function"},{"inputs":[{"internalType":"uint256","name":"propertyId","type":"uint256"}],"name":"markFunded","outputs":[],"stateMutability":"nonpayable","type":"function"},{"inputs":[{"internalType":"uint256","name":"propertyId","type":"uint256"},{"internalType":"address","name":"buyer","type":"address"},{"internalType":"uint256","name":"amount","type":"uint256"}],"name":"mintTokens","outputs":[],"stateMutability":"nonpayable","type":"function"},{"inputs":[],"name":"pause","outputs":[],"stateMutability":"nonpayable","type":"function"},{"inputs":[],"name":"paused","outputs":[{"internalType":"bool","name":"","type":"bool"}],"stateMutability":"view","type":"function"},{"inputs":[{"internalType":"uint256","name":"","type":"uint256"},{"internalType":"enum PropertyToken.Phase","name":"","type":"uint8"}],"name":"phaseAllocations","outputs":[{"internalType":"uint256","name":"","type":"uint256"}],"stateMutability":"view","type":"function"},{"inputs":[{"internalType":"uint256","name":"","type":"uint256"},{"internalType":"enum PropertyToken.Phase","name":"","type":"uint8"}],"name":"phaseMinted","outputs":[{"internalType":"uint256","name":"","type":"uint256"}],"stateMutability":"view","type":"function"},{"inputs":[{"internalType":"uint256","name":"","type":"uint256"}],"name":"properties","outputs":[{"internalType":"uint256","name":"id","type":"uint256"},{"internalType":"string","name":"name","type":"string"},{"internalType":"string","name":"uri","type":"string"},{"internalType":"uint256","name":"totalSupply","type":"uint256"},{"internalType":"uint256","name":"mintedSupply","type":"uint256"},{"internalType":"uint256","name":"fundingTarget","type":"uint256"},{"internalType":"uint256","name":"fundingDeadline","type":"uint256"},{"internalType":"enum PropertyToken.Phase","name":"currentPhase","type":"uint8"},{"internalType":"bool","name":"isActive","type":"bool"},{"internalType":"bool","name":"isFunded","type":"bool"}],"stateMutability":"view","type":"function"},{"inputs":[],"name":"propertyCount","outputs":[{"internalType":"uint256","name":"","type":"uint256"}],"stateMutability":"view","type":"function"},{"inputs":[{"internalType":"uint256","name":"propertyId","type":"uint256"}],"name":"propertyExists","outputs":[{"internalType":"bool","name":"","type":"bool"}],"stateMutability":"view","type":"function"},{"inputs":[{"internalType":"address","name":"account","type":"address"},{"internalType":"bytes32","name":"checkId","type":"bytes32"}],"name":"recordAMLCheck","outputs":[],"stateMutability":"nonpayable","type":"function"},{"inputs":[{"internalType":"address","name":"account","type":"address"},{"internalType":"string","name":"reason","type":"string"}],"name":"recordAMLFailure","outputs":[],"stateMutability":"nonpayable","type":"function"},{"inputs":[{"internalType":"address","name":"account","type":"address"},{"internalType":"bytes32","name":"verificationId","type":"bytes32"}],"name":"recordKYCVerification","outputs":[],"stateMutability":"nonpayable","type":"function"},{"inputs":[{"internalType":"address","name":"account","type":"address"}],"name":"removeFromWhitelist","outputs":[],"stateMutability":"nonpayable","type":"function"},{"inputs":[{"internalType":"bytes32","name":"role","type":"bytes32"},{"internalType":"address","name":"callerConfirmation","type":"address"}],"name":"renounceRole","outputs":[],"stateMutability":"nonpayable","type":"function"},{"inputs":[{"internalType":"uint256","name":"propertyId","type":"uint256"}],"name":"requestRegulatorAudit","outputs":[],"stateMutability":"nonpayable","type":"function"},{"inputs":[{"internalType":"address","name":"account","type":"address"},{"internalType":"string","name":"reason","type":"string"}],"name":"revokeKYCVerification","outputs":[],"stateMutability":"nonpayable","type":"function"},{"inputs":[{"internalType":"bytes32","name":"role","type":"bytes32"},{"internalType":"address","name":"account","type":"address"}],"name":"revokeRole","outputs":[],"stateMutability":"nonpayable","type":"function"},{"inputs":[{"internalType":"address","name":"from","type":"address"},{"internalType":"address","name":"to","type":"address"},{"internalType":"uint256[]","name":"ids","type":"uint256[]"},{"internalType":"uint256[]","name":"values","type":"uint256[]"},{"internalType":"bytes","name":"data","type":"bytes"}],"name":"safeBatchTransferFrom","outputs":[],"stateMutability":"nonpayable","type":"function"},{"inputs":[{"internalType":"address","name":"from","type":"address"},{"internalType":"address","name":"to","type":"address"},{"internalType":"uint256","name":"id","type":"uint256"},{"internalType":"uint256","name":"value","type":"uint256"},{"internalType":"bytes","name":"data","type":"bytes"}],"name":"safeTransferFrom","outputs":[],"stateMutability":"nonpayable","type":"function"},{"inputs":[{"internalType":"address","name":"operator","type":"address"},{"internalType":"bool","name":"approved","type":"bool"}],"name":"setApprovalForAll","outputs":[],"stateMutability":"nonpayable","type":"function"},{"inputs":[{"internalType":"bytes4","name":"interfaceId","type":"bytes4"}],"name":"supportsInterface","outputs":[{"internalType":"bool","name":"","type":"bool"}],"stateMutability":"view","type":"function"},{"inputs":[],"name":"totalSupply","outputs":[{"internalType":"uint256","name":"","type":"uint256"}],"stateMutability":"view","type":"function"},{"inputs":[{"internalType":"uint256","name":"id","type":"uint256"}],"name":"totalSupply","outputs":[{"internalType":"uint256","name":"","type":"uint256"}],"stateMutability":"view","type":"function"},{"inputs":[],"name":"unpause","outputs":[],"stateMutability":"nonpayable","type":"function"},{"inputs":[{"internalType":"uint256","name":"newPrice","type":"uint256"}],"name":"updateBasePrice","outputs":[],"stateMutability":"nonpayable","type":"function"},{"inputs":[{"internalType":"uint256","name":"","type":"uint256"}],"name":"uri","outputs":[{"internalType":"string","name":"","type":"string"}],"stateMutability":"view","type":"function"},{"inputs":[{"internalType":"address","name":"","type":"address"}],"name":"whitelist","outputs":[{"internalType":"bool","name":"","type":"bool"}],"stateMutability":"view","type":"function"}],"evm":{"bytecode":{"linkReferences":{},"object":"608060405234620002755762004b42803803806200001d816200027a565b9283398101906020908181840312620002755780516001600160401b039182821162000275570191601f90848285011215620002755783518381116200024a57601f199462000072828501871684016200027a565b968288528383830101116200027557829060005b838110620002605750506000918701015284519283116200024a57600254936001948581811c911680156200023f575b838210146200022957838111620001dd575b50819284116001146200017457505081929360009262000168575b5050600019600383901b1c191690821b176002555b60ff1960065416600655600755662c68af0bb140006008556200011b33620002a0565b50620001273362000321565b506200013333620003c4565b506200013f3362000462565b506200014b3362000500565b5062000157336200059e565b506040516144e590816200063d8239f35b015190503880620000e3565b839291921694600260005282600020926000905b878210620001c557505083859610620001ab575b505050811b01600255620000f8565b015160001960f88460031b161c191690553880806200019c565b80878596829496860151815501950193019062000188565b6002600052826000208480870160051c8201928588106200021f575b0160051c019086905b82811062000212575050620000c8565b6000815501869062000202565b92508192620001f9565b634e487b7160e01b600052602260045260246000fd5b90607f1690620000b6565b634e487b7160e01b600052604160045260246000fd5b81810183015189820184015284920162000086565b600080fd5b6040519190601f01601f191682016001600160401b038111838210176200024a57604052565b6001600160a01b031660008181527f05b8ccbb9d4d8fb16ea74ce3c29a41f1b461fbdaff4714a0d9a8eb05499746bc602052604081205490919060ff166200031d5781805260056020526040822081835260205260408220600160ff19825416179055339160008051602062004b228339815191528180a4600190565b5090565b6001600160a01b031660008181527f15a28d26fa1bf736cf7edc9922607171ccb09c3c73b808e7772a3013e068a52260205260408120549091907f9f2df0fed2c77648de5860a4cc508cd0818c85b8b8a1ab4ceeef8d981c8956a69060ff16620003bf5780835260056020526040832082845260205260408320600160ff1982541617905560008051602062004b22833981519152339380a4600190565b505090565b6001600160a01b031660008181527f99f2891db7a8db76249871a02b43b68c0bb8f22ef8a3bc1034ae9375ef6b7c3c60205260408120549091907f65d7a28e3265b37a6474929f336521b332c1681b933f6cb9f3376673440d862a9060ff16620003bf5780835260056020526040832082845260205260408320600160ff1982541617905560008051602062004b22833981519152339380a4600190565b6001600160a01b031660008181527f294bb43e882f8724b7ae88344d047a41612b98ee139a78f923b3689f3cc274b160205260408120549091907f28f5a99355973cc89255b8c4ac88405f27c78ded7608b040ee77a8bdf44d15e29060ff16620003bf5780835260056020526040832082845260205260408320600160ff1982541617905560008051602062004b22833981519152339380a4600190565b6001600160a01b031660008181527fc54cc0cad80e711aff5b4fca3e13682b9a8fcd7ff4679fbc81d0391d16e477bd60205260408120549091907f62045f2f519251643cf4b5f0750d99bbda23ce869802ad9f6d52577cd08a645a9060ff16620003bf5780835260056020526040832082845260205260408320600160ff1982541617905560008051602062004b22833981519152339380a4600190565b6001600160a01b031660008181527f847f481f687befb06ed3511f1a8dcef57e83007c0147ae5047583d705617093760205260408120549091907f3c11d16cbaffd01df69ce1c404f6340ee057498f5f00246190ea54220576a8489060ff16620003bf5780835260056020526040832082845260205260408320600160ff1982541617905560008051602062004b22833981519152339380a460019056fe6080604052600436101561001257600080fd5b60003560e01c80620c8df0146104ab578062fdd58e146104a657806301ffc9a7146104a15780630263b8581461049c57806304fa6173146104975780630e89341c146104925780630fbe640f1461048d57806311dd6cdc1461042e57806318160ddd1461048857806319e7645414610483578063230672481461047e578063248a9ca3146104795780632632067a14610474578063282c51f31461046f5780632eb2c2d61461046a5780632f2ff15d1461046557806332665ffb1461046057806335894afd1461045b57806336568abe146104565780633bb0b5b6146104515780633f4ba83a1461044c57806343cb5413146104475780634a164732146104425780634e1273f41461043d5780634f558e79146104385780634ff69e8314610433578063500e9f731461042e57806354202c4e146104295780635561c5b31461042457806358567dd51461041f5780635bbe9f5e1461038e5780635c975abb1461041a5780635fc68c46146104155780636b20c454146104105780636ce2f91d1461040b5780636e1ffa9b146104065780636ea99677146104015780637326b901146103fc578063742c4f4c146103f757806375cfcb3d146103f25780637b667e6f146103ed5780637ca8c6f1146103e857806381aaf4ce146103e35780638456cb59146103de578063847ede74146103d95780638ab1d681146103d45780638cdc1e87146103cf5780638d6819be146103ca57806391d14854146103c55780639b19251a146103c05780639ca02763146103bb578063a217fddf146103b6578063a22cb465146103b1578063a7907f74146103ac578063bd85b039146103a7578063c361a335146103a2578063c55d0f561461039d578063c5666eb214610398578063c65b682014610393578063c7527d081461038e578063c7876ea414610389578063ceadd5b914610384578063d53913931461037f578063d547741f1461037a578063dbdad43214610375578063e63ab1e914610370578063e985e9c51461036b578063edff496914610366578063f242432a14610361578063f5298aca1461035c578063f7b1080814610357578063f8147a8a14610352578063f918ce1b1461034d5763fd5baa881461034857600080fd5b612801565b612779565b61275c565b6126e1565b612508565b612403565b6123bf565b61235e565b612323565b61229e565b61225f565b612224565b612207565b6121e9565b611682565b6121cc565b6120f4565b6120d6565b6120b8565b61208c565b61206f565b611fb3565b611f97565b611f41565b611f02565b611eb0565b611c54565b611bb9565b611b51565b611acf565b611a75565b6119e2565b6119c5565b61197a565b611940565b6118c6565b6118a8565b611876565b6117fa565b6117ca565b6116df565b6116c2565b61169f565b611475565b611458565b61141d565b6108ba565b61138e565b611360565b6112a6565b611233565b611199565b6110ec565b61101c565b610fab565b610f70565b610e65565b610d75565b610c4d565b610ab7565b6109a8565b61094c565b61092f565b6108f5565b6108d7565b610880565b610799565b610727565b61065f565b6105c8565b610569565b6104f5565b600435906001600160a01b03821682036104c657565b600080fd5b602435906001600160a01b03821682036104c657565b35906001600160a01b03821682036104c657565b346104c6576020806003193601126104c6576060906001600160a01b0361051a6104b0565b16600052600d815260409060ff8260002054169182610556575b6012825280600020546013835281600020549282519415158552840152820152f35b9150601281528160002054151591610534565b346104c65760403660031901126104c65760206105ad6105876104b0565b6024356000526000835260406000209060018060a01b0316600052602052604060002090565b54604051908152f35b6001600160e01b03198116036104c657565b346104c65760203660031901126104c65760206004356105e7816105b6565b63ffffffff60e01b16637965db0b60e01b811490811561060d575b506040519015158152f35b636cdb3d1360e11b81149150811561063f575b811561062e575b5038610602565b6301ffc9a760e01b14905038610627565b6303a24d0760e21b81149150610620565b6024359060048210156104c657565b346104c65760403660031901126104c6576106786104b0565b7f473a74f22f6ac6868d6c168fc84aef7f2172066bab41229b471d1c6b85434c8260206106a3610650565b926106ac612ec8565b60018060a01b03169283600052600d82526040600020600160ff19825416179055600e82526106df81604060002061284d565b6106ec6040518092610db4565ba2005b600411156106f957565b634e487b7160e01b600052602160045260246000fd5b9060048110156106f957600052602052604060002090565b346104c65760403660031901126104c65760206105ad610745610650565b600435600052600c8352604060002061070f565b919082519283825260005b848110610785575050826000602080949584010152601f8019910116010190565b602081830181015184830182015201610764565b346104c6576020806003193601126104c65760405190600082600254916107bf8361259b565b9283835260019085600182169182600014610860575050600114610803575b506107eb92500383610b44565b6107ff604051928284938452830190610759565b0390f35b84915060026000527f405787fa12a823e0f2b7631cc41b3ba8828b3321ca811111fa75cd3aa3bb5ace906000915b8583106108485750506107eb9350820101386107de565b80548389018501528794508693909201918101610831565b60ff1916858201526107eb95151560051b85010192503891506107de9050565b346104c65760203660031901126104c6576001600160a01b036108a16104b0565b1660005260136020526020604060002054604051908152f35b346104c65760003660031901126104c65760206040516127108152f35b346104c65760003660031901126104c6576020600454604051908152f35b346104c65760203660031901126104c6576001600160a01b036109166104b0565b1660005260146020526020604060002054604051908152f35b346104c65760003660031901126104c6576020604051611d4c8152f35b346104c65760203660031901126104c65760043560005260056020526020600160406000200154604051908152f35b9181601f840112156104c6578235916001600160401b0383116104c657602083818601950101116104c657565b346104c65760603660031901126104c6576109c16104b0565b6109c9610650565b6044356001600160401b0381116104c6576109e890369060040161097b565b90506109f2612ec8565b15610a7b57610a7681610a6a7f473a74f22f6ac6868d6c168fc84aef7f2172066bab41229b471d1c6b85434c8293610a6560018060a01b0387169687600052600d602052610a4b6040600020600160ff19825416179055565b6001600160a01b03166000908152600e6020526040902090565b61284d565b604051918291826123af565b0390a2005b60405162461bcd60e51b81526020600482015260146024820152734e6f20766572696669636174696f6e206461746160601b6044820152606490fd5b346104c65760003660031901126104c65760206040517f3c11d16cbaffd01df69ce1c404f6340ee057498f5f00246190ea54220576a8488152f35b634e487b7160e01b600052604160045260246000fd5b61014081019081106001600160401b03821117610b2457604052565b610af2565b602081019081106001600160401b03821117610b2457604052565b90601f801991011681019081106001600160401b03821117610b2457604052565b60405190610b7282610b08565b565b6001600160401b038111610b245760051b60200190565b9080601f830112156104c6576020908235610ba581610b74565b93610bb36040519586610b44565b81855260208086019260051b8201019283116104c657602001905b828210610bdc575050505090565b81358152908301908301610bce565b6001600160401b038111610b2457601f01601f191660200190565b81601f820112156104c657803590610c1d82610beb565b92610c2b6040519485610b44565b828452602083830101116104c657816000926020809301838601378301015290565b346104c65760a03660031901126104c657610c666104b0565b610c6e6104cb565b90604435916001600160401b03908184116104c657610c9260049436908601610b8b565b906064358381116104c657610caa9036908701610b8b565b926084359081116104c657610cc29036908701610c06565b936001600160a01b03808216903382141580610d51575b610d2457831615610d0c5715610cf557610cf395506137f6565b005b604051626a0d4560e21b8152600081880152602490fd5b604051632bfa23e760e11b8152600081890152602490fd5b6040805163711bec9160e11b815233818b019081526001600160a01b038616602082015290918291010390fd5b50600082815260016020908152604080832033845290915290205460ff1615610cd9565b346104c65760403660031901126104c657610cf3600435610d946104cb565b90806000526005602052610daf600160406000200154613086565b6130a7565b9060048210156106f95752565b610e629060208152825160208201526020830151610e06610df061014092836040860152610160850190610759565b6040860151848203601f19016060860152610759565b9360608101516080840152608081015160a084015260a081015160c084015260c081015160e084015260e0810151610e446101009182860190610db4565b81015190610e59610120928386019015159052565b01511515910152565b90565b346104c65760203660031901126104c6576107ff604051610e8581610b08565b610f6460009182815260606020820152606060408201528260608201528260808201528260a08201528260c08201528260e082015260ff60406101009480868501528061012080950152600435815260096020522093610f586007610ee8610b65565b9680548852610ef9600182016125d5565b6020890152610f0a600282016125d5565b60408901526003810154606089015260048101546080890152600581015460a0890152600681015460c0890152015491610f4984841660e08901612865565b600883901c8416151590870152565b60101c16151590830152565b60405191829182610dc1565b346104c65760003660031901126104c65760206040517f62045f2f519251643cf4b5f0750d99bbda23ce869802ad9f6d52577cd08a645a8152f35b346104c65760403660031901126104c657610fc46104cb565b336001600160a01b03821603610fe057610cf390600435613141565b60405163334bd91960e11b8152600490fd5b60609060031901126104c657600435906024356001600160a01b03811681036104c6579060443590565b346104c65761102a36610ff2565b9091611034612f26565b81156110a7576000818152602081815260408083206001600160a01b038716845290915290208290541061106b57610cf3926131d3565b60405162461bcd60e51b8152602060048201526014602482015273496e73756666696369656e742062616c616e636560601b6044820152606490fd5b60405162461bcd60e51b815260206004820152601760248201527f416d6f756e74206d75737420626520706f7369746976650000000000000000006044820152606490fd5b346104c65760003660031901126104c657611105612f7e565b60065460ff8116156111445760ff19166006557f5db9ee0a495bf2e6ff9c91a7834c1ba4fdd244a5e8aa4e537bd38aeae4b073aa6020604051338152a1005b604051638dfc202b60e01b8152600490fd5b9060406003198301126104c6576004356001600160a01b03811681036104c65791602435906001600160401b0382116104c6576111959160040161097b565b9091565b346104c6577fed82f44f688727207518136f7e93ae71dc311562b9f1841866814c6dbe3fc4876111c836611156565b9092916111d3612ec8565b6001600160a01b03166000818152600d6020526040808220805460ff191690555190949193849390928291611209914284612871565b0390a27f535611fb62fa2a833988f283b779e417e996813e44046f521d76c17b5943b08c8280a280f35b346104c65760203660031901126104c657600435600052601160205260206040600020541515604051908152f35b90815180825260208080930193019160005b828110611281575050505090565b835185529381019392810192600101611273565b906020610e62928181520190611261565b346104c65760403660031901126104c6576004356001600160401b038082116104c657366023830112156104c65781600401356112e281610b74565b926112f06040519485610b44565b8184526020916024602086019160051b830101913683116104c657602401905b82821061134957856024358681116104c6576107ff9161133761133d923690600401610b8b565b906128ce565b60405191829182611295565b838091611355846104e1565b815201910190611310565b346104c65760203660031901126104c657600435600052600360205260206040600020541515604051908152f35b346104c65760003660031901126104c657604051806010549182815260208091019260106000527f1b6847dc741a1b0cd08d278845f9d819d87b734759afb55fe2de5cb82a9ae672916000905b828210611406576107ff856113f281890382610b44565b604051918291602083526020830190611261565b8354865294850194600193840193909101906113db565b346104c65760003660031901126104c65760206040517f28f5a99355973cc89255b8c4ac88405f27c78ded7608b040ee77a8bdf44d15e28152f35b346104c65760003660031901126104c65760206040516107d08152f35b346104c65760a03660031901126104c6576001600160401b036004358181116104c6576114a6903690600401610c06565b906024359081116104c6576107ff917f1efdde4594ed8e2284022aa3bedd98d13b88c18f2bb33d90131dff8e95589ba36114e7611582933690600401610c06565b916044359061166f6064356114fa612fd6565b600a5496879661151161150c896129a3565b600a55565b61151d608435426129b7565b611525610b65565b918983528660208401526040830152866060830152600060808301528360a083015260c0820152600060e0820152611561610100820160019052565b600061012082015261157d886000526009602052604060002090565b612aef565b61159661158e85612ba9565b612710900490565b6115bc6115ad88600052600b602052604060002090565b60008052602052604060002090565b556115c961158e85612bc0565b6115f06115e088600052600b602052604060002090565b6001600052602052604060002090565b556115fd61158e85612bd7565b61162461161488600052600b602052604060002090565b6002600052602052604060002090565b5561163161158e85612bee565b61165861164888600052600b602052604060002090565b6003600052602052604060002090565b5561166286613a69565b5060405193849384612c18565b0390a26040519081529081906020820190565b346104c65760003660031901126104c6576020604051613a988152f35b346104c65760003660031901126104c657602060ff600654166040519015158152f35b346104c65760003660031901126104c6576020604051610bb88152f35b346104c65760603660031901126104c6576116f86104b0565b6001600160401b036024358181116104c657611718903690600401610b8b565b906044359081116104c657611731903690600401610b8b565b906001600160a01b03831633811415806117a6575b61177f571561176757610cf392600060405161176181610b29565b526135a4565b604051626a0d4560e21b815260006004820152602490fd5b60405163711bec9160e11b81523360048201526001600160a01b0385166024820152604490fd5b50600081815260016020908152604080832033845290915290205460ff1615611746565b346104c65760203660031901126104c65760043560048110156104c6576117f2602091612c3a565b604051908152f35b346104c65760403660031901126104c6576118136104b0565b7f73d81b71910f8bd08cf791875865c73764d8d891af9db3d5529a9c6574ef6dd1610a7660243592611843612ec8565b60018060a01b03169283600052601460205280604060002055604051918291428360209093929193604081019481520152565b346104c65760403660031901126104c65760206105ad611894610650565b600435600052600b8352604060002061070f565b346104c65760003660031901126104c6576020601054604051908152f35b346104c65760203660031901126104c6576004356118e2612fd6565b8060005260096020527f97997c603fecb6522ee76ac10b6a193d5ce1db7b82c8271b2a27a63f022e53b560606004604060002061192860ff600783015460081c16612c85565b015460405190428252600060208301526040820152a2005b346104c65760203660031901126104c6576001600160a01b036119616104b0565b1660005260126020526020604060002054604051908152f35b346104c65760203660031901126104c657611993612fd6565b60405142815233907fe6b09768ac52cdf77f7335552a3533efca4c4c467299850e0e7af38a1d8b52b1602060043592a3005b346104c65760003660031901126104c65760206040516157e48152f35b346104c65760203660031901126104c6573360009081527fc54cc0cad80e711aff5b4fca3e13682b9a8fcd7ff4679fbc81d0391d16e477bd60205260409020547f62045f2f519251643cf4b5f0750d99bbda23ce869802ad9f6d52577cd08a645a9060ff1615611a5757610cf36004356133da565b6044906040519063e2517d3f60e01b82523360048301526024820152fd5b346104c65760003660031901126104c657611a8e612f7e565b611a9661349f565b600160ff1960065416176006557f62e78cea01bee320cd4e420270b5ea74000d11b0c9f74754ebdbfc544b05a2586020604051338152a1005b346104c6577f71ff24386d252605e27e246db81bba937113d7887d04711cefa5fe7295437566611afe36611156565b909291611b09612ec8565b60018060a01b031691829160009483865260126020528560408120556013602052856040812055600d6020526040862060ff1981541690556112096040519283924284612871565b346104c65760203660031901126104c657611b6a6104b0565b611b72612ec8565b6001600160a01b03166000818152600d60205260408120805460ff19169055907f535611fb62fa2a833988f283b779e417e996813e44046f521d76c17b5943b08c8280a280f35b346104c65760203660031901126104c65760006004803590825b60ff841660038111611c495782811015611c3457611c2e91611c2261158e83611c1c611c15611c2896611c108b600052600c602052604060002090565b61070f565b5491612c3a565b90612c05565b906129b7565b93612cc7565b92611bd3565b602183634e487b7160e01b6000525260246000fd5b604051828152602090f35b346104c657611c6236610ff2565b611c6a61302e565b600260075414611e9e576002600755611c8161349f565b6001600160a01b0382166000908152600d60205260409020611cae90611ca9905b5460ff1690565b612ce7565b827f689e2353c59bcd8c1c4352ddd0f21299329ad92442d331648747e4e865acde74611e1e611ce7836000526009602052604060002090565b60046007820191611d88611d8060ff611d488b82611d29611ca28a5493611d12848660081c16612c85565b838560101c16158015611e90575b610a4b90612d2b565b91611d33836106ef565b16928391611d40836106ef565b161015612d68565b611d79611d6382611c108c600052600b602052604060002090565b5491611c108b600052600c602052604060002090565b5490612db4565b881115612dc1565b611d9b611d93612e0d565b88888b6134bd565b01611da78682546129b7565b9055611dcb611dc085600052600c602052604060002090565b825460ff169061070f565b611dd68682546129b7565b9055611e0a611dc087611df387600052600f602052604060002090565b9060018060a01b0316600052602052604060002090565b611e158682546129b7565b90555460ff1690565b60405190946001600160a01b0316938190611e3b90879083612e20565b0390a3611e6f611e5982611c1085600052600c602052604060002090565b5491611c1084600052600b602052604060002090565b541115611e81575b610cf36001600755565b611e8a906133da565b38611e77565b5060068a0154421115611d20565b604051633ee5aeb560e01b8152600490fd5b346104c65760403660031901126104c657602060ff611ef6611ed06104cb565b6004356000526005845260406000209060018060a01b0316600052602052604060002090565b54166040519015158152f35b346104c65760203660031901126104c6576001600160a01b03611f236104b0565b16600052600d602052602060ff604060002054166040519015158152f35b346104c65760603660031901126104c657611f5a6104cb565b6044359060048210156104c657602091611c106105ad92600435600052600f855260406000209060018060a01b0316600052602052604060002090565b346104c65760003660031901126104c657602060405160008152f35b346104c65760403660031901126104c657611fcc6104b0565b60243590811515908183036104c6576001600160a01b038116928315612057576120186120299233600052600160205260406000209060018060a01b0316600052602052604060002090565b9060ff801983541691151516179055565b6040519081527f17307eab39ab6107e8899845ad3d59bd9653f200f220920489ca2b5937696c3160203392a3005b60405162ced3e160e81b815260006004820152602490fd5b346104c65760003660031901126104c65760206040516103e88152f35b346104c65760203660031901126104c65760043560005260036020526020604060002054604051908152f35b346104c65760003660031901126104c6576020600a54604051908152f35b346104c65760203660031901126104c65760206117f2600435612e36565b346104c65760203660031901126104c65760043561211061302e565b80600052600960205260406000206007810160ff8154612134828260081c16612c85565b60101c166121965761218660047fb00cd7db2cf318388d4984a9842ff206b7cf7bc273a58f12701f29755b3ca9419361217b610a76946201000062ff000019825416179055565b0154611c1c85612e36565b6040519081529081906020820190565b60405162461bcd60e51b815260206004820152600e60248201526d105b1c9958591e48199d5b99195960921b6044820152606490fd5b346104c65760003660031901126104c65760206040516175308152f35b346104c65760003660031901126104c6576020600854604051908152f35b346104c65760003660031901126104c6576020604051610fa08152f35b346104c65760003660031901126104c65760206040517f9f2df0fed2c77648de5860a4cc508cd0818c85b8b8a1ab4ceeef8d981c8956a68152f35b346104c65760403660031901126104c657610cf360043561227e6104cb565b90806000526005602052612299600160406000200154613086565b613141565b346104c65760403660031901126104c657600480356122bb6104cb565b60009290835b60ff851660038111611c49578381101561230e5761230891611c2261158e83611c1c611c1561230296611c108a611df38e600052600f602052604060002090565b94612cc7565b936122c1565b602184634e487b7160e01b6000525260246000fd5b346104c65760003660031901126104c65760206040517f65d7a28e3265b37a6474929f336521b332c1681b933f6cb9f3376673440d862a8152f35b346104c65760403660031901126104c657602060ff611ef661237e6104b0565b6123866104cb565b6001600160a01b0391821660009081526001865260408082209290931681526020919091522090565b602081019291610b729190610db4565b346104c65760203660031901126104c6576001600160a01b036123e06104b0565b16600052600e602052602060ff604060002054166124016040518092610db4565bf35b346104c65760a03660031901126104c65761241c6104b0565b6124246104cb565b6084356001600160401b0381116104c657612443903690600401610c06565b906001600160a01b038381169033821415806124e4575b6124bd578216156124a4571561176757610cf39261249c6064356044359160405192600184526020840152604083019160018352606084015260808301604052565b9290916137f6565b604051632bfa23e760e11b815260006004820152602490fd5b60405163711bec9160e11b81523360048201526001600160a01b0386166024820152604490fd5b50600082815260016020908152604080832033845290915290205460ff161561245a565b346104c65760603660031901126104c6576125216104b0565b6001600160a01b038116338114159081612575575b5061254c57610cf39060443590602435906131d3565b60405163711bec9160e11b81523360048201526001600160a01b03919091166024820152604490fd5b6000908152600160209081526040808320338452909152902060ff915054161538612536565b90600182811c921680156125cb575b60208310146125b557565b634e487b7160e01b600052602260045260246000fd5b91607f16916125aa565b906040519182600082546125e88161259b565b908184526020946001916001811690816000146126565750600114612617575b505050610b7292500383610b44565b600090815285812095935091905b81831061263e575050610b729350820101388080612608565b85548884018501529485019487945091830191612625565b92505050610b7294925060ff191682840152151560051b820101388080612608565b98959161012098949b9a97936126a56126b3928c6126d299956020610140928392815201528d0190610759565b908b820360408d0152610759565b9a60608a0152608089015260a088015260c087015260e0860190610db4565b15156101008401521515910152565b346104c65760203660031901126104c657600435600052600960205260406000208054906107ff612714600183016125d5565b612720600284016125d5565b926003810154946004820154916005810154600760068301549201549360405198899860ff8760101c169760ff808960081c169816968b612678565b346104c65760003660031901126104c65760206040516130d48152f35b346104c65760403660031901126104c6576127926104b0565b7f101006801e3b4b14d09186f508bd7a78c4d24598dd6126863425d0350503fb02610a76602435926127c2612ec8565b60018060a01b03169283600052601260205280604060002055601360205242604060002055604051918291428360209093929193604081019481520152565b346104c65760203660031901126104c6577ffab5bcbec79a8b5888e114fd4b378427aa58d9b237d85056f0ee5b3ea57df8c56020600435612840612fd6565b80600855604051908152a1005b9060048110156106f95760ff80198354169116179055565b60048210156106f95752565b91926060938192845260406020850152816040850152848401376000828201840152601f01601f1916010190565b634e487b7160e01b600052603260045260246000fd5b80518210156128c95760209160051b010190565b61289f565b9190918051835180820361296b5750508051906129036128ed83610b74565b926128fb6040519485610b44565b808452610b74565b60209190601f1901368484013760005b815181101561296357600581901b8281018401519087018401516000908152602081815260408083206001600160a01b03909416835292905220546001919061295c82876128b5565b5201612913565b509193505050565b604051635b05999160e01b815260048101919091526024810191909152604490fd5b634e487b7160e01b600052601160045260246000fd5b60001981146129b25760010190565b61298d565b919082018092116129b257565b90601f81116129d257505050565b6000916000526020600020906020601f850160051c83019410612a10575b601f0160051c01915b828110612a0557505050565b8181556001016129f9565b90925082906129f0565b91909182516001600160401b038111610b2457612a4181612a3b845461259b565b846129c4565b602080601f8311600114612a8457508190612a75939495600092612a79575b50508160011b916000199060031b1c19161790565b9055565b015190503880612a60565b90601f19831695612a9a85600052602060002090565b926000905b888210612ad757505083600195969710612abe575b505050811b019055565b015160001960f88460031b161c19169055388080612ab4565b80600185968294968601518155019501930190612a9f565b90612b916101206007610b729484518155612b11602086015160018301612a1a565b612b22604086015160028301612a1a565b606085015160038201556080850151600482015560a0850151600582015560c085015160068201550192612b6360e0820151612b5d816106ef565b8561284d565b612b8a612b74610100830151151590565b855461ff00191690151560081b61ff0016178555565b0151151590565b815462ff0000191690151560101b62ff000016179055565b90610fa0918281029281840414901517156129b257565b90610bb8918281029281840414901517156129b257565b906107d0918281029281840414901517156129b257565b906103e8918281029281840414901517156129b257565b818102929181159184041417156129b257565b612c3060409295949395606083526060830190610759565b9460208201520152565b60048110156106f9578015612c7e57612c52816106ef565b60018114612c775780612c666002926106ef565b14612c7157611d4c90565b61271090565b506130d490565b50613a9890565b15612c8c57565b60405162461bcd60e51b815260206004820152601360248201527250726f7065727479206e6f742061637469766560681b6044820152606490fd5b60ff1660ff81146129b25760010190565b60ff1660048110156106f95790565b15612cee57565b60405162461bcd60e51b8152602060048201526015602482015274109d5e595c881b9bdd081dda1a5d195b1a5cdd1959605a1b6044820152606490fd5b15612d3257565b60405162461bcd60e51b815260206004820152600e60248201526d119d5b991a5b99c818db1bdcd95960921b6044820152606490fd5b15612d6f57565b60405162461bcd60e51b815260206004820152601e60248201527f4e6f7420656c696769626c6520666f722063757272656e7420706861736500006044820152606490fd5b919082039182116129b257565b15612dc857565b60405162461bcd60e51b815260206004820152601860248201527f4578636565647320706861736520616c6c6f636174696f6e00000000000000006044820152606490fd5b60405190612e1a82610b29565b60008252565b908152604081019291610b729160200190610db4565b600052600960205260ff600760406000200154612e57828260081c16612c85565b16612e61816106ef565b80612e7b5750612710612e77815b600854612c05565b0490565b612e84816106ef565b60018103612e9b5750612710612e77613a98612e6f565b80612ea76002926106ef565b03612eba57612710612e776157e4612e6f565b612710612e77617530612e6f565b3360009081527f294bb43e882f8724b7ae88344d047a41612b98ee139a78f923b3689f3cc274b1602052604090207f28f5a99355973cc89255b8c4ac88405f27c78ded7608b040ee77a8bdf44d15e29060ff905b541615611a575750565b3360009081527f847f481f687befb06ed3511f1a8dcef57e83007c0147ae5047583d7056170937602052604090207f3c11d16cbaffd01df69ce1c404f6340ee057498f5f00246190ea54220576a8489060ff90612f1c565b3360009081527f99f2891db7a8db76249871a02b43b68c0bb8f22ef8a3bc1034ae9375ef6b7c3c602052604090207f65d7a28e3265b37a6474929f336521b332c1681b933f6cb9f3376673440d862a9060ff90612f1c565b3360009081527f05b8ccbb9d4d8fb16ea74ce3c29a41f1b461fbdaff4714a0d9a8eb05499746bc602052604090205460ff161561300f57565b60405163e2517d3f60e01b815233600482015260006024820152604490fd5b3360009081527f15a28d26fa1bf736cf7edc9922607171ccb09c3c73b808e7772a3013e068a522602052604090207f9f2df0fed2c77648de5860a4cc508cd0818c85b8b8a1ab4ceeef8d981c8956a69060ff90612f1c565b6000818152600560209081526040808320338452909152902060ff90612f1c565b600090808252600560205260ff6130d384604085209060018060a01b0316600052602052604060002090565b541661313b578082526005602090815260408084206001600160a01b038616600090815292529020805460ff1916600117905533926001600160a01b0316917f2f8788117e7eff1d82e926ec794901d17c78024a50270940304540a733656f0d9080a4600190565b50905090565b600090808252600560205260ff61316d84604085209060018060a01b0316600052602052604060002090565b54161561313b578082526005602090815260408084206001600160a01b038616600090815292529020805460ff1916905533926001600160a01b0316917ff6391f5c32d9c69d2a47ea670b442974b53935d1edc7fd64eb21e047a839171b9080a4600190565b92916001600160a01b0384169190821561176757613213919493949160405192600184526020840152604083019160018352606084015260808301604052565b9290936040926040519561322687610b29565b600080975261323361349f565b6000955b81518710156133b75761324a87836128b5565b519161325688836128b5565b5194895b60ff81166003811115806133ae575b1561339357806132798a926106ef565b8a8d61329783611c1086611df38d600052600f602052604060002090565b5490816132b2575b50505050506132ad90612cc7565b61325a565b7f79fa03c4f76e383f2eb3d51f38e9daa7af8429e8573f8c1bb7d6103e878e356461337161337996956132ad989e958e958e955082888211600014613386576133109150611c10899a5b611df389600052600f602052604060002090565b61331b898254612db4565b90556004613333866000526009602052604060002090565b0161333f898254612db4565b905561335982611c1087600052600c602052604060002090565b613364898254612db4565b9055519182918883612e20565b0390a3612db4565b96905087388a818e61329f565b611c10613310929a6132fc565b5050979092506133a66001929515613b7d565b019592613237565b50871515613269565b94509291955050610b729350613efd565b60ff60019116019060ff82116129b257565b806000526009602052600760406000200160ff81546133fd828260081c16612c85565b169060048210156106f957600382101561346157610a6a61345c91611ca26134566134518661344c7fa92c850bb09d5afa4a6230f4866fad10264c6fea20047156b39e3e24c5763ad4986106ef565b6133c8565b612cd8565b8261284d565b0390a2565b60405162461bcd60e51b8152602060048201526016602482015275416c72656164792061742066696e616c20706861736560501b6044820152606490fd5b60ff600654166134ab57565b60405163d93c066560e01b8152600490fd5b93916001600160a01b038516156124a4576134f560405192600184526020840152604083019160018352606084015260808301604052565b90916134ff61349f565b61350a828487614087565b600094855b84518710156135625761355a60019161352889876128b5565b51906135486135378b8a6128b5565b516000526003602052604060002090565b6135538382546129b7565b90556129b7565b96019561350f565b61357c919594929650613577906004546129b7565b600455565b805160010361359a5790602080610b72959301519101519133613e91565b610b729333613c97565b6135ac61349f565b6001600160a01b03811680151580806137ee575b61375b575b6135d6575b5090610b729291613efd565b600094929394925b845184101561374d576135f184866128b5565b51946135fd85886128b5565b519660005b60ff8116600381111580613744575b156137255761361f816106ef565b61363b81611c1089611df38d600052600f602052604060002090565b5480613652575b505061364d90612cc7565b613602565b61364d929a878b7f79fa03c4f76e383f2eb3d51f38e9daa7af8429e8573f8c1bb7d6103e878e3564613371613710968d9681878211600014613718576136ad9150611c1088995b611df388600052600f602052604060002090565b6136b8888254612db4565b905560046136d0856000526009602052604060002090565b016136dc888254612db4565b90556136f681611c1086600052600c602052604060002090565b613701888254612db4565b90556040519182918883612e20565b989038613642565b611c106136ad9299613699565b505095509195936137396001929515613b7d565b0192949093946135de565b50891515613611565b94939250610b7290506135ca565b93919060005b84518110156137a957806137a361379e60076137936137826001968b6128b5565b516000526009602052604060002090565b015460101c60ff1690565b613ae5565b01613761565b5060008052600d60205291939091906137e96137e47f81955a0a11e65eac625c29e8882660bae4e165a75d72780094acae8ece9a29ee611ca2565b613b31565b6135c5565b5060006135c0565b9193929061380261349f565b6001600160a01b038381168015158080613a5e575b6139fe575b613873575b5061382e83878487613fae565b811661383c575b5050505050565b8451600103613862576020806138589601519201519233613ec6565b3880808080613835565b61386e94919233613d92565b613858565b9196956000959195965b81518810156139f25761389088836128b5565b519261389c89876128b5565b519560005b60ff81168c6003821115806139e9575b156139c957908a918c6138df83611c1086611df38e6138cf856106ef565b600052600f602052604060002090565b54806138f9575b50505050506138f490612cc7565b6138a1565b61398094936138f4969d938d938d93838782116000146139bc576139319150611c108899611df388600052600f602052604060002090565b61393c888254612db4565b9055811661398d57506133717f79fa03c4f76e383f2eb3d51f38e9daa7af8429e8573f8c1bb7d6103e878e35649160046136d0856000526009602052604060002090565b97905088388d8c826138e6565b6139aa9350611df3611c109293600052600f602052604060002090565b6139b58382546129b7565b9055612db4565b611c106139319299613699565b505050956001929394506139e09099919915613b7d565b0196919061387d565b508915156138b1565b97925095509338613821565b9795949392919060005b8851811015613a2f5780613a2961379e60076137936137826001968f6128b5565b01613a08565b5090919293949597613a596137e4611ca28660018060a01b0316600052600d602052604060002090565b61381c565b508284161515613817565b80600052601160205260406000205415600014613adf5760105468010000000000000000811015610b245760018101806010558110156128c95781907f1b6847dc741a1b0cd08d278845f9d819d87b734759afb55fe2de5cb82a9ae6720155601054906000526011602052604060002055600190565b50600090565b15613aec57565b60405162461bcd60e51b815260206004820152601f60248201527f5472616e7366657273206c6f636b656420647572696e672066756e64696e67006044820152606490fd5b15613b3857565b60405162461bcd60e51b815260206004820152601960248201527f526563697069656e74206e6f742077686974656c6973746564000000000000006044820152606490fd5b15613b8457565b60405162461bcd60e51b815260206004820152602360248201527f496e73756666696369656e742070686173652d747261636b656420686f6c64696044820152626e677360e81b6064820152608490fd5b908160209103126104c65751610e62816105b6565b92613c19610e629593613c279360018060a01b031686526000602087015260a0604087015260a0860190611261565b908482036060860152611261565b916080818403910152610759565b9390610e629593613c1991613c279460018060a01b03809216885216602087015260a0604087015260a0860190611261565b3d15613c92573d90613c7882610beb565b91613c866040519384610b44565b82523d6000602084013e565b606090565b9293919093843b613ca9575050505050565b602091613ccc604051948593849363bc197c8160e01b9889865260048601613bea565b038160006001600160a01b0388165af160009181613d61575b50613d245782613cf3613c67565b8051919082613d1d57604051632bfa23e760e11b81526001600160a01b0383166004820152602490fd5b9050602001fd5b6001600160e01b03191603613d3e57503880808080613835565b604051632bfa23e760e11b81526001600160a01b03919091166004820152602490fd5b613d8491925060203d602011613d8b575b613d7c8183610b44565b810190613bd5565b9038613ce5565b503d613d72565b939290949194853b613da7575b505050505050565b613dca602093604051958694859463bc197c8160e01b998a875260048701613c35565b038160006001600160a01b0388165af160009181613e0c575b50613df15782613cf3613c67565b6001600160e01b03191603613d3e5750388080808080613d9f565b613e2691925060203d602011613d8b57613d7c8183610b44565b9038613de3565b909260a092610e629594600180861b0316835260006020840152604083015260608201528160808201520190610759565b9192610e6295949160a094600180871b038092168552166020840152604083015260608201528160808201520190610759565b9293919093843b613ea3575050505050565b602091613ccc604051948593849363f23a6e6160e01b9889865260048601613e2d565b939290949194853b613eda57505050505050565b613dca602093604051958694859463f23a6e6160e01b998a875260048701613e5e565b929192613f0b8483836141a2565b6001600160a01b031615613f64575b6000805b8251821015613f5257600190613f3483876128b5565b5190613f4361353785876128b5565b82815403905501910190613f1e565b915050610b7291925060045403600455565b6000805b8251821015613f9857613f90600191613f8184886128b5565b519061354861353786886128b5565b910190613f68565b613fa99150613577906004546129b7565b613f1a565b90939293613fbe85848385614308565b6001600160a01b0391821615614012575b1615613fda57509050565b6000805b8251821015613f5257600190613ff483876128b5565b519061400361353785876128b5565b82815403905501910190613fde565b92600091825b845184101561404857614040600191614031868a6128b5565b5190613548613537888a6128b5565b930192614018565b61405d919350613577909592956004546129b7565b613fcf565b9091614079610e6293604084526040840190611261565b916020818403910152611261565b919091825182519081810361296b57505060005b835181101561410257600581901b84810160209081015191850101516001929184906001600160a01b0382166140d5575b5050500161409b565b6140f891611df36140f0926000526000602052604060002090565b9182546129b7565b90553883816140cc565b50916001815114600014614163576020908101519181015160408051938452918301526001600160a01b039092169160009133917fc3d58168c5ae7397731d063d5bbf3d657854427343f4c083240f7aacaa2d0f629190819081015b0390a4565b7f4a39dc06d4c0dbc64b70af90fd698a233a518aa5d07e595d983b8c0526c8f7fb61415e6000939460405191829160018060a01b031696339583614062565b929190805182519081810361296b57505060005b815181101561426957600581901b82810160209081015191850101516001600160a01b0387166141eb575b50506001016141b6565b61420387611df3846000526000602052604060002090565b548181106142325787611df3600195949361422a9303936000526000602052604060002090565b5590386141e1565b6040516303dee4c560e01b81526001600160a01b038916600482015260248101919091526044810182905260648101839052608490fd5b50906000929391600181511484146142c9576020908101519181015160408051938452918301526001600160a01b039092169133917fc3d58168c5ae7397731d063d5bbf3d657854427343f4c083240f7aacaa2d0f62918190810161415e565b6040516001600160a01b039093169233927f4a39dc06d4c0dbc64b70af90fd698a233a518aa5d07e595d983b8c0526c8f7fb92829161415e9183614062565b939291805183519081810361296b57505060005b815181101561440a57600581901b82810160209081015191860101516001600160a01b0392918590898516614384575b600194821661435f575b5050500161431c565b61437a91611df36140f0926000526000602052604060002090565b9055388481614356565b91929390506143a189611df3846000526000602052604060002090565b548381106143d357918691846001969594036143cb8c611df3856000526000602052604060002090565b55945061434c565b6040516303dee4c560e01b81526001600160a01b038b16600482015260248101919091526044810184905260648101839052608490fd5b50805193949391929160010361446c576020908101519181015160408051938452918301526001600160a01b03928316939092169133917fc3d58168c5ae7397731d063d5bbf3d657854427343f4c083240f7aacaa2d0f62918190810161415e565b6040516001600160a01b03938416949093169233927f4a39dc06d4c0dbc64b70af90fd698a233a518aa5d07e595d983b8c0526c8f7fb92829161415e918361406256fea264697066735822122050b0015d72a5f1a0fa244c6d94d68356145fe3b1c73dc0e21567d9b6f626f4ea64736f6c634300081800332f8788117e7eff1d82e926ec794901d17c78024a50270940304540a733656f0d","opcodes":"PUSH1 0x80 PUSH1 0x40 MSTORE CALLVALUE PUSH3 0x275 JUMPI PUSH3 0x4B42 DUP1 CODESIZE SUB DUP1 PUSH3 0x1D DUP2 PUSH3 0x27A JUMP JUMPDEST SWAP3 DUP4 CODECOPY DUP2 ADD SWAP1 PUSH1 0x20 SWAP1 DUP2 DUP2 DUP5 SUB SLT PUSH3 0x275 JUMPI DUP1 MLOAD PUSH1 0x1 PUSH1 0x1 PUSH1 0x40 SHL SUB SWAP2 DUP3 DUP3 GT PUSH3 0x275 JUMPI ADD SWAP2 PUSH1 0x1F SWAP1 DUP5 DUP3 DUP6 ADD SLT ISZERO PUSH3 0x275 JUMPI DUP4 MLOAD DUP4 DUP2 GT PUSH3 0x24A JUMPI PUSH1 0x1F NOT SWAP5 PUSH3 0x72 DUP3 DUP6 ADD DUP8 AND DUP5 ADD PUSH3 0x27A JUMP JUMPDEST SWAP7 DUP3 DUP9 MSTORE DUP4 DUP4 DUP4 ADD ADD GT PUSH3 0x275 JUMPI DUP3 SWAP1 PUSH1 0x0 JUMPDEST DUP4 DUP2 LT PUSH3 0x260 JUMPI POP POP PUSH1 0x0 SWAP2 DUP8 ADD ADD MSTORE DUP5 MLOAD SWAP3 DUP4 GT PUSH3 0x24A JUMPI PUSH1 0x2 SLOAD SWAP4 PUSH1 0x1 SWAP5 DUP6 DUP2 DUP2 SHR SWAP2 AND DUP1 ISZERO PUSH3 0x23F JUMPI JUMPDEST DUP4 DUP3 LT EQ PUSH3 0x229 JUMPI DUP4 DUP2 GT PUSH3 0x1DD JUMPI JUMPDEST POP DUP2 SWAP3 DUP5 GT PUSH1 0x1 EQ PUSH3 0x174 JUMPI POP POP DUP2 SWAP3 SWAP4 PUSH1 0x0 SWAP3 PUSH3 0x168 JUMPI JUMPDEST POP POP PUSH1 0x0 NOT PUSH1 0x3 DUP4 SWAP1 SHL SHR NOT AND SWAP1 DUP3 SHL OR PUSH1 0x2 SSTORE JUMPDEST PUSH1 0xFF NOT PUSH1 0x6 SLOAD AND PUSH1 0x6 SSTORE PUSH1 0x7 SSTORE PUSH7 0x2C68AF0BB14000 PUSH1 0x8 SSTORE PUSH3 0x11B CALLER PUSH3 0x2A0 JUMP JUMPDEST POP PUSH3 0x127 CALLER PUSH3 0x321 JUMP JUMPDEST POP PUSH3 0x133 CALLER PUSH3 0x3C4 JUMP JUMPDEST POP PUSH3 0x13F CALLER PUSH3 0x462 JUMP JUMPDEST POP PUSH3 0x14B CALLER PUSH3 0x500 JUMP JUMPDEST POP PUSH3 0x157 CALLER PUSH3 0x59E JUMP JUMPDEST POP PUSH1 0x40 MLOAD PUSH2 0x44E5 SWAP1 DUP2 PUSH3 0x63D DUP3 CODECOPY RETURN JUMPDEST ADD MLOAD SWAP1 POP CODESIZE DUP1 PUSH3 0xE3 JUMP JUMPDEST DUP4 SWAP3 SWAP2 SWAP3 AND SWAP5 PUSH1 0x2 PUSH1 0x0 MSTORE DUP3 PUSH1 0x0 KECCAK256 SWAP3 PUSH1 0x0 SWAP1 JUMPDEST DUP8 DUP3 LT PUSH3 0x1C5 JUMPI POP POP DUP4 DUP6 SWAP7 LT PUSH3 0x1AB JUMPI JUMPDEST POP POP POP DUP2 SHL ADD PUSH1 0x2 SSTORE PUSH3 0xF8 JUMP JUMPDEST ADD MLOAD PUSH1 0x0 NOT PUSH1 0xF8 DUP5 PUSH1 0x3 SHL AND SHR NOT AND SWAP1 SSTORE CODESIZE DUP1 DUP1 PUSH3 0x19C JUMP JUMPDEST DUP1 DUP8 DUP6 SWAP7 DUP3 SWAP5 SWAP7 DUP7 ADD MLOAD DUP2 SSTORE ADD SWAP6 ADD SWAP4 ADD SWAP1 PUSH3 0x188 JUMP JUMPDEST PUSH1 0x2 PUSH1 0x0 MSTORE DUP3 PUSH1 0x0 KECCAK256 DUP5 DUP1 DUP8 ADD PUSH1 0x5 SHR DUP3 ADD SWAP3 DUP6 DUP9 LT PUSH3 0x21F JUMPI JUMPDEST ADD PUSH1 0x5 SHR ADD SWAP1 DUP7 SWAP1 JUMPDEST DUP3 DUP2 LT PUSH3 0x212 JUMPI POP POP PUSH3 0xC8 JUMP JUMPDEST PUSH1 0x0 DUP2 SSTORE ADD DUP7 SWAP1 PUSH3 0x202 JUMP JUMPDEST SWAP3 POP DUP2 SWAP3 PUSH3 0x1F9 JUMP JUMPDEST PUSH4 0x4E487B71 PUSH1 0xE0 SHL PUSH1 0x0 MSTORE PUSH1 0x22 PUSH1 0x4 MSTORE PUSH1 0x24 PUSH1 0x0 REVERT JUMPDEST SWAP1 PUSH1 0x7F AND SWAP1 PUSH3 0xB6 JUMP JUMPDEST PUSH4 0x4E487B71 PUSH1 0xE0 SHL PUSH1 0x0 MSTORE PUSH1 0x41 PUSH1 0x4 MSTORE PUSH1 0x24 PUSH1 0x0 REVERT JUMPDEST DUP2 DUP2 ADD DUP4 ADD MLOAD DUP10 DUP3 ADD DUP5 ADD MSTORE DUP5 SWAP3 ADD PUSH3 0x86 JUMP JUMPDEST PUSH1 0x0 DUP1 REVERT JUMPDEST PUSH1 0x40 MLOAD SWAP2 SWAP1 PUSH1 0x1F ADD PUSH1 0x1F NOT AND DUP3 ADD PUSH1 0x1 PUSH1 0x1 PUSH1 0x40 SHL SUB DUP2 GT DUP4 DUP3 LT OR PUSH3 0x24A JUMPI PUSH1 0x40 MSTORE JUMP JUMPDEST PUSH1 0x1 PUSH1 0x1 PUSH1 0xA0 SHL SUB AND PUSH1 0x0 DUP2 DUP2 MSTORE PUSH32 0x5B8CCBB9D4D8FB16EA74CE3C29A41F1B461FBDAFF4714A0D9A8EB05499746BC PUSH1 0x20 MSTORE PUSH1 0x40 DUP2 KECCAK256 SLOAD SWAP1 SWAP2 SWAP1 PUSH1 0xFF AND PUSH3 0x31D JUMPI DUP2 DUP1 MSTORE PUSH1 0x5 PUSH1 0x20 MSTORE PUSH1 0x40 DUP3 KECCAK256 DUP2 DUP4 MSTORE PUSH1 0x20 MSTORE PUSH1 0x40 DUP3 KECCAK256 PUSH1 0x1 PUSH1 0xFF NOT DUP3 SLOAD AND OR SWAP1 SSTORE CALLER SWAP2 PUSH1 0x0 DUP1 MLOAD PUSH1 0x20 PUSH3 0x4B22 DUP4 CODECOPY DUP2 MLOAD SWAP2 MSTORE DUP2 DUP1 LOG4 PUSH1 0x1 SWAP1 JUMP JUMPDEST POP SWAP1 JUMP JUMPDEST PUSH1 0x1 PUSH1 0x1 PUSH1 0xA0 SHL SUB AND PUSH1 0x0 DUP2 DUP2 MSTORE PUSH32 0x15A28D26FA1BF736CF7EDC9922607171CCB09C3C73B808E7772A3013E068A522 PUSH1 0x20 MSTORE PUSH1 0x40 DUP2 KECCAK256 SLOAD SWAP1 SWAP2 SWAP1 PUSH32 0x9F2DF0FED2C77648DE5860A4CC508CD0818C85B8B8A1AB4CEEEF8D981C8956A6 SWAP1 PUSH1 0xFF AND PUSH3 0x3BF JUMPI DUP1 DUP4 MSTORE PUSH1 0x5 PUSH1 0x20 MSTORE PUSH1 0x40 DUP4 KECCAK256 DUP3 DUP5 MSTORE PUSH1 0x20 MSTORE PUSH1 0x40 DUP4 KECCAK256 PUSH1 0x1 PUSH1 0xFF NOT DUP3 SLOAD AND OR SWAP1 SSTORE PUSH1 0x0 DUP1 MLOAD PUSH1 0x20 PUSH3 0x4B22 DUP4 CODECOPY DUP2 MLOAD SWAP2 MSTORE CALLER SWAP4 DUP1 LOG4 PUSH1 0x1 SWAP1 JUMP JUMPDEST POP POP SWAP1 JUMP JUMPDEST PUSH1 0x1 PUSH1 0x1 PUSH1 0xA0 SHL SUB AND PUSH1 0x0 DUP2 DUP2 MSTORE PUSH32 0x99F2891DB7A8DB76249871A02B43B68C0BB8F22EF8A3BC1034AE9375EF6B7C3C PUSH1 0x20 MSTORE PUSH1 0x40 DUP2 KECCAK256 SLOAD SWAP1 SWAP2 SWAP1 PUSH32 0x65D7A28E3265B37A6474929F336521B332C1681B933F6CB9F3376673440D862A SWAP1 PUSH1 0xFF AND PUSH3 0x3BF JUMPI DUP1 DUP4 MSTORE PUSH1 0x5 PUSH1 0x20 MSTORE PUSH1 0x40 DUP4 KECCAK256 DUP3 DUP5 MSTORE PUSH1 0x20 MSTORE PUSH1 0x40 DUP4 KECCAK256 PUSH1 0x1 PUSH1 0xFF NOT DUP3 SLOAD AND OR SWAP1 SSTORE PUSH1 0x0 DUP1 MLOAD PUSH1 0x20 PUSH3 0x4B22 DUP4 CODECOPY DUP2 MLOAD SWAP2 MSTORE CALLER SWAP4 DUP1 LOG4 PUSH1 0x1 SWAP1 JUMP JUMPDEST PUSH1 0x1 PUSH1 0x1 PUSH1 0xA0 SHL SUB AND PUSH1 0x0 DUP2 DUP2 MSTORE PUSH32 0x294BB43E882F8724B7AE88344D047A41612B98EE139A78F923B3689F3CC274B1 PUSH1 0x20 MSTORE PUSH1 0x40 DUP2 KECCAK256 SLOAD SWAP1 SWAP2 SWAP1 PUSH32 0x28F5A99355973CC89255B8C4AC88405F27C78DED7608B040EE77A8BDF44D15E2 SWAP1 PUSH1 0xFF AND PUSH3 0x3BF JUMPI DUP1 DUP4 MSTORE PUSH1 0x5 PUSH1 0x20 MSTORE PUSH1 0x40 DUP4 KECCAK256 DUP3 DUP5 MSTORE PUSH1 0x20 MSTORE PUSH1 0x40 DUP4 KECCAK256 PUSH1 0x1 PUSH1 0xFF NOT DUP3 SLOAD AND OR SWAP1 SSTORE PUSH1 0x0 DUP1 MLOAD PUSH1 0x20 PUSH3 0x4B22 DUP4 CODECOPY DUP2 MLOAD SWAP2 MSTORE CALLER SWAP4 DUP1 LOG4 PUSH1 0x1 SWAP1 JUMP JUMPDEST PUSH1 0x1 PUSH1 0x1 PUSH1 0xA0 SHL SUB AND PUSH1 0x0 DUP2 DUP2 MSTORE PUSH32 0xC54CC0CAD80E711AFF5B4FCA3E13682B9A8FCD7FF4679FBC81D0391D16E477BD PUSH1 0x20 MSTORE PUSH1 0x40 DUP2 KECCAK256 SLOAD SWAP1 SWAP2 SWAP1 PUSH32 0x62045F2F519251643CF4B5F0750D99BBDA23CE869802AD9F6D52577CD08A645A SWAP1 PUSH1 0xFF AND PUSH3 0x3BF JUMPI DUP1 DUP4 MSTORE PUSH1 0x5 PUSH1 0x20 MSTORE PUSH1 0x40 DUP4 KECCAK256 DUP3 DUP5 MSTORE PUSH1 0x20 MSTORE PUSH1 0x40 DUP4 KECCAK256 PUSH1 0x1 PUSH1 0xFF NOT DUP3 SLOAD AND OR SWAP1 SSTORE PUSH1 0x0 DUP1 MLOAD PUSH1 0x20 PUSH3 0x4B22 DUP4 CODECOPY DUP2 MLOAD SWAP2 MSTORE CALLER SWAP4 DUP1 LOG4 PUSH1 0x1 SWAP1 JUMP JUMPDEST PUSH1 0x1 PUSH1 0x1 PUSH1 0xA0 SHL SUB AND PUSH1 0x0 DUP2 DUP2 MSTORE PUSH32 0x847F481F687BEFB06ED3511F1A8DCEF57E83007C0147AE5047583D7056170937 PUSH1 0x20 MSTORE PUSH1 0x40 DUP2 KECCAK256 SLOAD SWAP1 SWAP2 SWAP1 PUSH32 0x3C11D16CBAFFD01DF69CE1C404F6340EE057498F5F00246190EA54220576A848 SWAP1 PUSH1 0xFF AND PUSH3 0x3BF JUMPI DUP1 DUP4 MSTORE PUSH1 0x5 PUSH1 0x20 MSTORE PUSH1 0x40 DUP4 KECCAK256 DUP3 DUP5 MSTORE PUSH1 0x20 MSTORE PUSH1 0x40 DUP4 KECCAK256 PUSH1 0x1 PUSH1 0xFF NOT DUP3 SLOAD AND OR SWAP1 SSTORE PUSH1 0x0 DUP1 MLOAD PUSH1 0x20 PUSH3 0x4B22 DUP4 CODECOPY DUP2 MLOAD SWAP2 MSTORE CALLER SWAP4 DUP1 LOG4 PUSH1 0x1 SWAP1 JUMP INVALID PUSH1 0x80 PUSH1 0x40 MSTORE PUSH1 0x4 CALLDATASIZE LT ISZERO PUSH2 0x12 JUMPI PUSH1 0x0 DUP1 REVERT JUMPDEST PUSH1 0x0 CALLDATALOAD PUSH1 0xE0 SHR DUP1 PUSH3 0xC8DF0 EQ PUSH2 0x4AB JUMPI DUP1 PUSH3 0xFDD58E EQ PUSH2 0x4A6 JUMPI DUP1 PUSH4 0x1FFC9A7 EQ PUSH2 0x4A1 JUMPI DUP1 PUSH4 0x263B858 EQ PUSH2 0x49C JUMPI DUP1 PUSH4 0x4FA6173 EQ PUSH2 0x497 JUMPI DUP1 PUSH4 0xE89341C EQ PUSH2 0x492 JUMPI DUP1 PUSH4 0xFBE640F EQ PUSH2 0x48D JUMPI DUP1 PUSH4 0x11DD6CDC EQ PUSH2 0x42E JUMPI DUP1 PUSH4 0x18160DDD EQ PUSH2 0x488 JUMPI DUP1 PUSH4 0x19E76454 EQ PUSH2 0x483 JUMPI DUP1 PUSH4 0x23067248 EQ PUSH2 0x47E JUMPI DUP1 PUSH4 0x248A9CA3 EQ PUSH2 0x479 JUMPI DUP1 PUSH4 0x2632067A EQ PUSH2 0x474 JUMPI DUP1 PUSH4 0x282C51F3 EQ PUSH2 0x46F JUMPI DUP1 PUSH4 0x2EB2C2D6 EQ PUSH2 0x46A JUMPI DUP1 PUSH4 0x2F2FF15D EQ PUSH2 0x465 JUMPI DUP1 PUSH4 0x32665FFB EQ PUSH2 0x460 JUMPI DUP1 PUSH4 0x35894AFD EQ PUSH2 0x45B JUMPI DUP1 PUSH4 0x36568ABE EQ PUSH2 0x456 JUMPI DUP1 PUSH4 0x3BB0B5B6 EQ PUSH2 0x451 JUMPI DUP1 PUSH4 0x3F4BA83A EQ PUSH2 0x44C JUMPI DUP1 PUSH4 0x43CB5413 EQ PUSH2 0x447 JUMPI DUP1 PUSH4 0x4A164732 EQ PUSH2 0x442 JUMPI DUP1 PUSH4 0x4E1273F4 EQ PUSH2 0x43D JUMPI DUP1 PUSH4 0x4F558E79 EQ PUSH2 0x438 JUMPI DUP1 PUSH4 0x4FF69E83 EQ PUSH2 0x433 JUMPI DUP1 PUSH4 0x500E9F73 EQ PUSH2 0x42E JUMPI DUP1 PUSH4 0x54202C4E EQ PUSH2 0x429 JUMPI DUP1 PUSH4 0x5561C5B3 EQ PUSH2 0x424 JUMPI DUP1 PUSH4 0x58567DD5 EQ PUSH2 0x41F JUMPI DUP1 PUSH4 0x5BBE9F5E EQ PUSH2 0x38E JUMPI DUP1 PUSH4 0x5C975ABB EQ PUSH2 0x41A JUMPI DUP1 PUSH4 0x5FC68C46 EQ PUSH2 0x415 JUMPI DUP1 PUSH4 0x6B20C454 EQ PUSH2 0x410 JUMPI DUP1 PUSH4 0x6CE2F91D EQ PUSH2 0x40B JUMPI DUP1 PUSH4 0x6E1FFA9B EQ PUSH2 0x406 JUMPI DUP1 PUSH4 0x6EA99677 EQ PUSH2 0x401 JUMPI DUP1 PUSH4 0x7326B901 EQ PUSH2 0x3FC JUMPI DUP1 PUSH4 0x742C4F4C EQ PUSH2 0x3F7 JUMPI DUP1 PUSH4 0x75CFCB3D EQ PUSH2 0x3F2 JUMPI DUP1 PUSH4 0x7B667E6F EQ PUSH2 0x3ED JUMPI DUP1 PUSH4 0x7CA8C6F1 EQ PUSH2 0x3E8 JUMPI DUP1 PUSH4 0x81AAF4CE EQ PUSH2 0x3E3 JUMPI DUP1 PUSH4 0x8456CB59 EQ PUSH2 0x3DE JUMPI DUP1 PUSH4 0x847EDE74 EQ PUSH2 0x3D9 JUMPI DUP1 PUSH4 0x8AB1D681 EQ PUSH2 0x3D4 JUMPI DUP1 PUSH4 0x8CDC1E87 EQ PUSH2 0x3CF JUMPI DUP1 PUSH4 0x8D6819BE EQ PUSH2 0x3CA JUMPI DUP1 PUSH4 0x91D14854 EQ PUSH2 0x3C5 JUMPI DUP1 PUSH4 0x9B19251A EQ PUSH2 0x3C0 JUMPI DUP1 PUSH4 0x9CA02763 EQ PUSH2 0x3BB JUMPI DUP1 PUSH4 0xA217FDDF EQ PUSH2 0x3B6 JUMPI DUP1 PUSH4 0xA22CB465 EQ PUSH2 0x3B1 JUMPI DUP1 PUSH4 0xA7907F74 EQ PUSH2 0x3AC JUMPI DUP1 PUSH4 0xBD85B039 EQ PUSH2 0x3A7 JUMPI DUP1 PUSH4 0xC361A335 EQ PUSH2 0x3A2 JUMPI DUP1 PUSH4 0xC55D0F56 EQ PUSH2 0x39D JUMPI DUP1 PUSH4 0xC5666EB2 EQ PUSH2 0x398 JUMPI DUP1 PUSH4 0xC65B6820 EQ PUSH2 0x393 JUMPI DUP1 PUSH4 0xC7527D08 EQ PUSH2 0x38E JUMPI DUP1 PUSH4 0xC7876EA4 EQ PUSH2 0x389 JUMPI DUP1 PUSH4 0xCEADD5B9 EQ PUSH2 0x384 JUMPI DUP1 PUSH4 0xD5391393 EQ PUSH2 0x37F JUMPI DUP1 PUSH4 0xD547741F EQ PUSH2 0x37A JUMPI DUP1 PUSH4 0xDBDAD432 EQ PUSH2 0x375 JUMPI DUP1 PUSH4 0xE63AB1E9 EQ PUSH2 0x370 JUMPI DUP1 PUSH4 0xE985E9C5 EQ PUSH2 0x36B JUMPI DUP1 PUSH4 0xEDFF4969 EQ PUSH2 0x366 JUMPI DUP1 PUSH4 0xF242432A EQ PUSH2 0x361 JUMPI DUP1 PUSH4 0xF5298ACA EQ PUSH2 0x35C JUMPI DUP1 PUSH4 0xF7B10808 EQ PUSH2 0x357 JUMPI DUP1 PUSH4 0xF8147A8A EQ PUSH2 0x352 JUMPI DUP1 PUSH4 0xF918CE1B EQ PUSH2 0x34D JUMPI PUSH4 0xFD5BAA88 EQ PUSH2 0x348 JUMPI PUSH1 0x0 DUP1 REVERT JUMPDEST PUSH2 0x2801 JUMP JUMPDEST PUSH2 0x2779 JUMP JUMPDEST PUSH2 0x275C JUMP JUMPDEST PUSH2 0x26E1 JUMP JUMPDEST PUSH2 0x2508 JUMP JUMPDEST PUSH2 0x2403 JUMP JUMPDEST PUSH2 0x23BF JUMP JUMPDEST PUSH2 0x235E JUMP JUMPDEST PUSH2 0x2323 JUMP JUMPDEST PUSH2 0x229E JUMP JUMPDEST PUSH2 0x225F JUMP JUMPDEST PUSH2 0x2224 JUMP JUMPDEST PUSH2 0x2207 JUMP JUMPDEST PUSH2 0x21E9 JUMP JUMPDEST PUSH2 0x1682 JUMP JUMPDEST PUSH2 0x21CC JUMP JUMPDEST PUSH2 0x20F4 JUMP JUMPDEST PUSH2 0x20D6 JUMP JUMPDEST PUSH2 0x20B8 JUMP JUMPDEST PUSH2 0x208C JUMP JUMPDEST PUSH2 0x206F JUMP JUMPDEST PUSH2 0x1FB3 JUMP JUMPDEST PUSH2 0x1F97 JUMP JUMPDEST PUSH2 0x1F41 JUMP JUMPDEST PUSH2 0x1F02 JUMP JUMPDEST PUSH2 0x1EB0 JUMP JUMPDEST PUSH2 0x1C54 JUMP JUMPDEST PUSH2 0x1BB9 JUMP JUMPDEST PUSH2 0x1B51 JUMP JUMPDEST PUSH2 0x1ACF JUMP JUMPDEST PUSH2 0x1A75 JUMP JUMPDEST PUSH2 0x19E2 JUMP JUMPDEST PUSH2 0x19C5 JUMP JUMPDEST PUSH2 0x197A JUMP JUMPDEST PUSH2 0x1940 JUMP JUMPDEST PUSH2 0x18C6 JUMP JUMPDEST PUSH2 0x18A8 JUMP JUMPDEST PUSH2 0x1876 JUMP JUMPDEST PUSH2 0x17FA JUMP JUMPDEST PUSH2 0x17CA JUMP JUMPDEST PUSH2 0x16DF JUMP JUMPDEST PUSH2 0x16C2 JUMP JUMPDEST PUSH2 0x169F JUMP JUMPDEST PUSH2 0x1475 JUMP JUMPDEST PUSH2 0x1458 JUMP JUMPDEST PUSH2 0x141D JUMP JUMPDEST PUSH2 0x8BA JUMP JUMPDEST PUSH2 0x138E JUMP JUMPDEST PUSH2 0x1360 JUMP JUMPDEST PUSH2 0x12A6 JUMP JUMPDEST PUSH2 0x1233 JUMP JUMPDEST PUSH2 0x1199 JUMP JUMPDEST PUSH2 0x10EC JUMP JUMPDEST PUSH2 0x101C JUMP JUMPDEST PUSH2 0xFAB JUMP JUMPDEST PUSH2 0xF70 JUMP JUMPDEST PUSH2 0xE65 JUMP JUMPDEST PUSH2 0xD75 JUMP JUMPDEST PUSH2 0xC4D JUMP JUMPDEST PUSH2 0xAB7 JUMP JUMPDEST PUSH2 0x9A8 JUMP JUMPDEST PUSH2 0x94C JUMP JUMPDEST PUSH2 0x92F JUMP JUMPDEST PUSH2 0x8F5 JUMP JUMPDEST PUSH2 0x8D7 JUMP JUMPDEST PUSH2 0x880 JUMP JUMPDEST PUSH2 0x799 JUMP JUMPDEST PUSH2 0x727 JUMP JUMPDEST PUSH2 0x65F JUMP JUMPDEST PUSH2 0x5C8 JUMP JUMPDEST PUSH2 0x569 JUMP JUMPDEST PUSH2 0x4F5 JUMP JUMPDEST PUSH1 0x4 CALLDATALOAD SWAP1 PUSH1 0x1 PUSH1 0x1 PUSH1 0xA0 SHL SUB DUP3 AND DUP3 SUB PUSH2 0x4C6 JUMPI JUMP JUMPDEST PUSH1 0x0 DUP1 REVERT JUMPDEST PUSH1 0x24 CALLDATALOAD SWAP1 PUSH1 0x1 PUSH1 0x1 PUSH1 0xA0 SHL SUB DUP3 AND DUP3 SUB PUSH2 0x4C6 JUMPI JUMP JUMPDEST CALLDATALOAD SWAP1 PUSH1 0x1 PUSH1 0x1 PUSH1 0xA0 SHL SUB DUP3 AND DUP3 SUB PUSH2 0x4C6 JUMPI JUMP JUMPDEST CALLVALUE PUSH2 0x4C6 JUMPI PUSH1 0x20 DUP1 PUSH1 0x3 NOT CALLDATASIZE ADD SLT PUSH2 0x4C6 JUMPI PUSH1 0x60 SWAP1 PUSH1 0x1 PUSH1 0x1 PUSH1 0xA0 SHL SUB PUSH2 0x51A PUSH2 0x4B0 JUMP JUMPDEST AND PUSH1 0x0 MSTORE PUSH1 0xD DUP2 MSTORE PUSH1 0x40 SWAP1 PUSH1 0xFF DUP3 PUSH1 0x0 KECCAK256 SLOAD AND SWAP2 DUP3 PUSH2 0x556 JUMPI JUMPDEST PUSH1 0x12 DUP3 MSTORE DUP1 PUSH1 0x0 KECCAK256 SLOAD PUSH1 0x13 DUP4 MSTORE DUP2 PUSH1 0x0 KECCAK256 SLOAD SWAP3 DUP3 MLOAD SWAP5 ISZERO ISZERO DUP6 MSTORE DUP5 ADD MSTORE DUP3 ADD MSTORE RETURN JUMPDEST SWAP2 POP PUSH1 0x12 DUP2 MSTORE DUP2 PUSH1 0x0 KECCAK256 SLOAD ISZERO ISZERO SWAP2 PUSH2 0x534 JUMP JUMPDEST CALLVALUE PUSH2 0x4C6 JUMPI PUSH1 0x40 CALLDATASIZE PUSH1 0x3 NOT ADD SLT PUSH2 0x4C6 JUMPI PUSH1 0x20 PUSH2 0x5AD PUSH2 0x587 PUSH2 0x4B0 JUMP JUMPDEST PUSH1 0x24 CALLDATALOAD PUSH1 0x0 MSTORE PUSH1 0x0 DUP4 MSTORE PUSH1 0x40 PUSH1 0x0 KECCAK256 SWAP1 PUSH1 0x1 DUP1 PUSH1 0xA0 SHL SUB AND PUSH1 0x0 MSTORE PUSH1 0x20 MSTORE PUSH1 0x40 PUSH1 0x0 KECCAK256 SWAP1 JUMP JUMPDEST SLOAD PUSH1 0x40 MLOAD SWAP1 DUP2 MSTORE RETURN JUMPDEST PUSH1 0x1 PUSH1 0x1 PUSH1 0xE0 SHL SUB NOT DUP2 AND SUB PUSH2 0x4C6 JUMPI JUMP JUMPDEST CALLVALUE PUSH2 0x4C6 JUMPI PUSH1 0x20 CALLDATASIZE PUSH1 0x3 NOT ADD SLT PUSH2 0x4C6 JUMPI PUSH1 0x20 PUSH1 0x4 CALLDATALOAD PUSH2 0x5E7 DUP2 PUSH2 0x5B6 JUMP JUMPDEST PUSH4 0xFFFFFFFF PUSH1 0xE0 SHL AND PUSH4 0x7965DB0B PUSH1 0xE0 SHL DUP2 EQ SWAP1 DUP2 ISZERO PUSH2 0x60D JUMPI JUMPDEST POP PUSH1 0x40 MLOAD SWAP1 ISZERO ISZERO DUP2 MSTORE RETURN JUMPDEST PUSH4 0x6CDB3D13 PUSH1 0xE1 SHL DUP2 EQ SWAP2 POP DUP2 ISZERO PUSH2 0x63F JUMPI JUMPDEST DUP2 ISZERO PUSH2 0x62E JUMPI JUMPDEST POP CODESIZE PUSH2 0x602 JUMP JUMPDEST PUSH4 0x1FFC9A7 PUSH1 0xE0 SHL EQ SWAP1 POP CODESIZE PUSH2 0x627 JUMP JUMPDEST PUSH4 0x3A24D07 PUSH1 0xE2 SHL DUP2 EQ SWAP2 POP PUSH2 0x620 JUMP JUMPDEST PUSH1 0x24 CALLDATALOAD SWAP1 PUSH1 0x4 DUP3 LT ISZERO PUSH2 0x4C6 JUMPI JUMP JUMPDEST CALLVALUE PUSH2 0x4C6 JUMPI PUSH1 0x40 CALLDATASIZE PUSH1 0x3 NOT ADD SLT PUSH2 0x4C6 JUMPI PUSH2 0x678 PUSH2 0x4B0 JUMP JUMPDEST PUSH32 0x473A74F22F6AC6868D6C168FC84AEF7F2172066BAB41229B471D1C6B85434C82 PUSH1 0x20 PUSH2 0x6A3 PUSH2 0x650 JUMP JUMPDEST SWAP3 PUSH2 0x6AC PUSH2 0x2EC8 JUMP JUMPDEST PUSH1 0x1 DUP1 PUSH1 0xA0 SHL SUB AND SWAP3 DUP4 PUSH1 0x0 MSTORE PUSH1 0xD DUP3 MSTORE PUSH1 0x40 PUSH1 0x0 KECCAK256 PUSH1 0x1 PUSH1 0xFF NOT DUP3 SLOAD AND OR SWAP1 SSTORE PUSH1 0xE DUP3 MSTORE PUSH2 0x6DF DUP2 PUSH1 0x40 PUSH1 0x0 KECCAK256 PUSH2 0x284D JUMP JUMPDEST PUSH2 0x6EC PUSH1 0x40 MLOAD DUP1 SWAP3 PUSH2 0xDB4 JUMP JUMPDEST LOG2 STOP JUMPDEST PUSH1 0x4 GT ISZERO PUSH2 0x6F9 JUMPI JUMP JUMPDEST PUSH4 0x4E487B71 PUSH1 0xE0 SHL PUSH1 0x0 MSTORE PUSH1 0x21 PUSH1 0x4 MSTORE PUSH1 0x24 PUSH1 0x0 REVERT JUMPDEST SWAP1 PUSH1 0x4 DUP2 LT ISZERO PUSH2 0x6F9 JUMPI PUSH1 0x0 MSTORE PUSH1 0x20 MSTORE PUSH1 0x40 PUSH1 0x0 KECCAK256 SWAP1 JUMP JUMPDEST CALLVALUE PUSH2 0x4C6 JUMPI PUSH1 0x40 CALLDATASIZE PUSH1 0x3 NOT ADD SLT PUSH2 0x4C6 JUMPI PUSH1 0x20 PUSH2 0x5AD PUSH2 0x745 PUSH2 0x650 JUMP JUMPDEST PUSH1 0x4 CALLDATALOAD PUSH1 0x0 MSTORE PUSH1 0xC DUP4 MSTORE PUSH1 0x40 PUSH1 0x0 KECCAK256 PUSH2 0x70F JUMP JUMPDEST SWAP2 SWAP1 DUP3 MLOAD SWAP3 DUP4 DUP3 MSTORE PUSH1 0x0 JUMPDEST DUP5 DUP2 LT PUSH2 0x785 JUMPI POP POP DUP3 PUSH1 0x0 PUSH1 0x20 DUP1 SWAP5 SWAP6 DUP5 ADD ADD MSTORE PUSH1 0x1F DUP1 NOT SWAP2 ADD AND ADD ADD SWAP1 JUMP JUMPDEST PUSH1 0x20 DUP2 DUP4 ADD DUP2 ADD MLOAD DUP5 DUP4 ADD DUP3 ADD MSTORE ADD PUSH2 0x764 JUMP JUMPDEST CALLVALUE PUSH2 0x4C6 JUMPI PUSH1 0x20 DUP1 PUSH1 0x3 NOT CALLDATASIZE ADD SLT PUSH2 0x4C6 JUMPI PUSH1 0x40 MLOAD SWAP1 PUSH1 0x0 DUP3 PUSH1 0x2 SLOAD SWAP2 PUSH2 0x7BF DUP4 PUSH2 0x259B JUMP JUMPDEST SWAP3 DUP4 DUP4 MSTORE PUSH1 0x1 SWAP1 DUP6 PUSH1 0x1 DUP3 AND SWAP2 DUP3 PUSH1 0x0 EQ PUSH2 0x860 JUMPI POP POP PUSH1 0x1 EQ PUSH2 0x803 JUMPI JUMPDEST POP PUSH2 0x7EB SWAP3 POP SUB DUP4 PUSH2 0xB44 JUMP JUMPDEST PUSH2 0x7FF PUSH1 0x40 MLOAD SWAP3 DUP3 DUP5 SWAP4 DUP5 MSTORE DUP4 ADD SWAP1 PUSH2 0x759 JUMP JUMPDEST SUB SWAP1 RETURN JUMPDEST DUP5 SWAP2 POP PUSH1 0x2 PUSH1 0x0 MSTORE PUSH32 0x405787FA12A823E0F2B7631CC41B3BA8828B3321CA811111FA75CD3AA3BB5ACE SWAP1 PUSH1 0x0 SWAP2 JUMPDEST DUP6 DUP4 LT PUSH2 0x848 JUMPI POP POP PUSH2 0x7EB SWAP4 POP DUP3 ADD ADD CODESIZE PUSH2 0x7DE JUMP JUMPDEST DUP1 SLOAD DUP4 DUP10 ADD DUP6 ADD MSTORE DUP8 SWAP5 POP DUP7 SWAP4 SWAP1 SWAP3 ADD SWAP2 DUP2 ADD PUSH2 0x831 JUMP JUMPDEST PUSH1 0xFF NOT AND DUP6 DUP3 ADD MSTORE PUSH2 0x7EB SWAP6 ISZERO ISZERO PUSH1 0x5 SHL DUP6 ADD ADD SWAP3 POP CODESIZE SWAP2 POP PUSH2 0x7DE SWAP1 POP JUMP JUMPDEST CALLVALUE PUSH2 0x4C6 JUMPI PUSH1 0x20 CALLDATASIZE PUSH1 0x3 NOT ADD SLT PUSH2 0x4C6 JUMPI PUSH1 0x1 PUSH1 0x1 PUSH1 0xA0 SHL SUB PUSH2 0x8A1 PUSH2 0x4B0 JUMP JUMPDEST AND PUSH1 0x0 MSTORE PUSH1 0x13 PUSH1 0x20 MSTORE PUSH1 0x20 PUSH1 0x40 PUSH1 0x0 KECCAK256 SLOAD PUSH1 0x40 MLOAD SWAP1 DUP2 MSTORE RETURN JUMPDEST CALLVALUE PUSH2 0x4C6 JUMPI PUSH1 0x0 CALLDATASIZE PUSH1 0x3 NOT ADD SLT PUSH2 0x4C6 JUMPI PUSH1 0x20 PUSH1 0x40 MLOAD PUSH2 0x2710 DUP2 MSTORE RETURN JUMPDEST CALLVALUE PUSH2 0x4C6 JUMPI PUSH1 0x0 CALLDATASIZE PUSH1 0x3 NOT ADD SLT PUSH2 0x4C6 JUMPI PUSH1 0x20 PUSH1 0x4 SLOAD PUSH1 0x40 MLOAD SWAP1 DUP2 MSTORE RETURN JUMPDEST CALLVALUE PUSH2 0x4C6 JUMPI PUSH1 0x20 CALLDATASIZE PUSH1 0x3 NOT ADD SLT PUSH2 0x4C6 JUMPI PUSH1 0x1 PUSH1 0x1 PUSH1 0xA0 SHL SUB PUSH2 0x916 PUSH2 0x4B0 JUMP JUMPDEST AND PUSH1 0x0 MSTORE PUSH1 0x14 PUSH1 0x20 MSTORE PUSH1 0x20 PUSH1 0x40 PUSH1 0x0 KECCAK256 SLOAD PUSH1 0x40 MLOAD SWAP1 DUP2 MSTORE RETURN JUMPDEST CALLVALUE PUSH2 0x4C6 JUMPI PUSH1 0x0 CALLDATASIZE PUSH1 0x3 NOT ADD SLT PUSH2 0x4C6 JUMPI PUSH1 0x20 PUSH1 0x40 MLOAD PUSH2 0x1D4C DUP2 MSTORE RETURN JUMPDEST CALLVALUE PUSH2 0x4C6 JUMPI PUSH1 0x20 CALLDATASIZE PUSH1 0x3 NOT ADD SLT PUSH2 0x4C6 JUMPI PUSH1 0x4 CALLDATALOAD PUSH1 0x0 MSTORE PUSH1 0x5 PUSH1 0x20 MSTORE PUSH1 0x20 PUSH1 0x1 PUSH1 0x40 PUSH1 0x0 KECCAK256 ADD SLOAD PUSH1 0x40 MLOAD SWAP1 DUP2 MSTORE RETURN JUMPDEST SWAP2 DUP2 PUSH1 0x1F DUP5 ADD SLT ISZERO PUSH2 0x4C6 JUMPI DUP3 CALLDATALOAD SWAP2 PUSH1 0x1 PUSH1 0x1 PUSH1 0x40 SHL SUB DUP4 GT PUSH2 0x4C6 JUMPI PUSH1 0x20 DUP4 DUP2 DUP7 ADD SWAP6 ADD ADD GT PUSH2 0x4C6 JUMPI JUMP JUMPDEST CALLVALUE PUSH2 0x4C6 JUMPI PUSH1 0x60 CALLDATASIZE PUSH1 0x3 NOT ADD SLT PUSH2 0x4C6 JUMPI PUSH2 0x9C1 PUSH2 0x4B0 JUMP JUMPDEST PUSH2 0x9C9 PUSH2 0x650 JUMP JUMPDEST PUSH1 0x44 CALLDATALOAD PUSH1 0x1 PUSH1 0x1 PUSH1 0x40 SHL SUB DUP2 GT PUSH2 0x4C6 JUMPI PUSH2 0x9E8 SWAP1 CALLDATASIZE SWAP1 PUSH1 0x4 ADD PUSH2 0x97B JUMP JUMPDEST SWAP1 POP PUSH2 0x9F2 PUSH2 0x2EC8 JUMP JUMPDEST ISZERO PUSH2 0xA7B JUMPI PUSH2 0xA76 DUP2 PUSH2 0xA6A PUSH32 0x473A74F22F6AC6868D6C168FC84AEF7F2172066BAB41229B471D1C6B85434C82 SWAP4 PUSH2 0xA65 PUSH1 0x1 DUP1 PUSH1 0xA0 SHL SUB DUP8 AND SWAP7 DUP8 PUSH1 0x0 MSTORE PUSH1 0xD PUSH1 0x20 MSTORE PUSH2 0xA4B PUSH1 0x40 PUSH1 0x0 KECCAK256 PUSH1 0x1 PUSH1 0xFF NOT DUP3 SLOAD AND OR SWAP1 SSTORE JUMP JUMPDEST PUSH1 0x1 PUSH1 0x1 PUSH1 0xA0 SHL SUB AND PUSH1 0x0 SWAP1 DUP2 MSTORE PUSH1 0xE PUSH1 0x20 MSTORE PUSH1 0x40 SWAP1 KECCAK256 SWAP1 JUMP JUMPDEST PUSH2 0x284D JUMP JUMPDEST PUSH1 0x40 MLOAD SWAP2 DUP3 SWAP2 DUP3 PUSH2 0x23AF JUMP JUMPDEST SUB SWAP1 LOG2 STOP JUMPDEST PUSH1 0x40 MLOAD PUSH3 0x461BCD PUSH1 0xE5 SHL DUP2 MSTORE PUSH1 0x20 PUSH1 0x4 DUP3 ADD MSTORE PUSH1 0x14 PUSH1 0x24 DUP3 ADD MSTORE PUSH20 0x4E6F20766572696669636174696F6E2064617461 PUSH1 0x60 SHL PUSH1 0x44 DUP3 ADD MSTORE PUSH1 0x64 SWAP1 REVERT JUMPDEST CALLVALUE PUSH2 0x4C6 JUMPI PUSH1 0x0 CALLDATASIZE PUSH1 0x3 NOT ADD SLT PUSH2 0x4C6 JUMPI PUSH1 0x20 PUSH1 0x40 MLOAD PUSH32 0x3C11D16CBAFFD01DF69CE1C404F6340EE057498F5F00246190EA54220576A848 DUP2 MSTORE RETURN JUMPDEST PUSH4 0x4E487B71 PUSH1 0xE0 SHL PUSH1 0x0 MSTORE PUSH1 0x41 PUSH1 0x4 MSTORE PUSH1 0x24 PUSH1 0x0 REVERT JUMPDEST PUSH2 0x140 DUP2 ADD SWAP1 DUP2 LT PUSH1 0x1 PUSH1 0x1 PUSH1 0x40 SHL SUB DUP3 GT OR PUSH2 0xB24 JUMPI PUSH1 0x40 MSTORE JUMP JUMPDEST PUSH2 0xAF2 JUMP JUMPDEST PUSH1 0x20 DUP2 ADD SWAP1 DUP2 LT PUSH1 0x1 PUSH1 0x1 PUSH1 0x40 SHL SUB DUP3 GT OR PUSH2 0xB24 JUMPI PUSH1 0x40 MSTORE JUMP JUMPDEST SWAP1 PUSH1 0x1F DUP1 NOT SWAP2 ADD AND DUP2 ADD SWAP1 DUP2 LT PUSH1 0x1 PUSH1 0x1 PUSH1 0x40 SHL SUB DUP3 GT OR PUSH2 0xB24 JUMPI PUSH1 0x40 MSTORE JUMP JUMPDEST PUSH1 0x40 MLOAD SWAP1 PUSH2 0xB72 DUP3 PUSH2 0xB08 JUMP JUMPDEST JUMP JUMPDEST PUSH1 0x1 PUSH1 0x1 PUSH1 0x40 SHL SUB DUP2 GT PUSH2 0xB24 JUMPI PUSH1 0x5 SHL PUSH1 0x20 ADD SWAP1 JUMP JUMPDEST SWAP1 DUP1 PUSH1 0x1F DUP4 ADD SLT ISZERO PUSH2 0x4C6 JUMPI PUSH1 0x20 SWAP1 DUP3 CALLDATALOAD PUSH2 0xBA5 DUP2 PUSH2 0xB74 JUMP JUMPDEST SWAP4 PUSH2 0xBB3 PUSH1 0x40 MLOAD SWAP6 DUP7 PUSH2 0xB44 JUMP JUMPDEST DUP2 DUP6 MSTORE PUSH1 0x20 DUP1 DUP7 ADD SWAP3 PUSH1 0x5 SHL DUP3 ADD ADD SWAP3 DUP4 GT PUSH2 0x4C6 JUMPI PUSH1 0x20 ADD SWAP1 JUMPDEST DUP3 DUP3 LT PUSH2 0xBDC JUMPI POP POP POP POP SWAP1 JUMP JUMPDEST DUP2 CALLDATALOAD DUP2 MSTORE SWAP1 DUP4 ADD SWAP1 DUP4 ADD PUSH2 0xBCE JUMP JUMPDEST PUSH1 0x1 PUSH1 0x1 PUSH1 0x40 SHL SUB DUP2 GT PUSH2 0xB24 JUMPI PUSH1 0x1F ADD PUSH1 0x1F NOT AND PUSH1 0x20 ADD SWAP1 JUMP JUMPDEST DUP2 PUSH1 0x1F DUP3 ADD SLT ISZERO PUSH2 0x4C6 JUMPI DUP1 CALLDATALOAD SWAP1 PUSH2 0xC1D DUP3 PUSH2 0xBEB JUMP JUMPDEST SWAP3 PUSH2 0xC2B PUSH1 0x40 MLOAD SWAP5 DUP6 PUSH2 0xB44 JUMP JUMPDEST DUP3 DUP5 MSTORE PUSH1 0x20 DUP4 DUP4 ADD ADD GT PUSH2 0x4C6 JUMPI DUP2 PUSH1 0x0 SWAP3 PUSH1 0x20 DUP1 SWAP4 ADD DUP4 DUP7 ADD CALLDATACOPY DUP4 ADD ADD MSTORE SWAP1 JUMP JUMPDEST CALLVALUE PUSH2 0x4C6 JUMPI PUSH1 0xA0 CALLDATASIZE PUSH1 0x3 NOT ADD SLT PUSH2 0x4C6 JUMPI PUSH2 0xC66 PUSH2 0x4B0 JUMP JUMPDEST PUSH2 0xC6E PUSH2 0x4CB JUMP JUMPDEST SWAP1 PUSH1 0x44 CALLDATALOAD SWAP2 PUSH1 0x1 PUSH1 0x1 PUSH1 0x40 SHL SUB SWAP1 DUP2 DUP5 GT PUSH2 0x4C6 JUMPI PUSH2 0xC92 PUSH1 0x4 SWAP5 CALLDATASIZE SWAP1 DUP7 ADD PUSH2 0xB8B JUMP JUMPDEST SWAP1 PUSH1 0x64 CALLDATALOAD DUP4 DUP2 GT PUSH2 0x4C6 JUMPI PUSH2 0xCAA SWAP1 CALLDATASIZE SWAP1 DUP8 ADD PUSH2 0xB8B JUMP JUMPDEST SWAP3 PUSH1 0x84 CALLDATALOAD SWAP1 DUP2 GT PUSH2 0x4C6 JUMPI PUSH2 0xCC2 SWAP1 CALLDATASIZE SWAP1 DUP8 ADD PUSH2 0xC06 JUMP JUMPDEST SWAP4 PUSH1 0x1 PUSH1 0x1 PUSH1 0xA0 SHL SUB DUP1 DUP3 AND SWAP1 CALLER DUP3 EQ ISZERO DUP1 PUSH2 0xD51 JUMPI JUMPDEST PUSH2 0xD24 JUMPI DUP4 AND ISZERO PUSH2 0xD0C JUMPI ISZERO PUSH2 0xCF5 JUMPI PUSH2 0xCF3 SWAP6 POP PUSH2 0x37F6 JUMP JUMPDEST STOP JUMPDEST PUSH1 0x40 MLOAD PUSH3 0x6A0D45 PUSH1 0xE2 SHL DUP2 MSTORE PUSH1 0x0 DUP2 DUP9 ADD MSTORE PUSH1 0x24 SWAP1 REVERT JUMPDEST PUSH1 0x40 MLOAD PUSH4 0x2BFA23E7 PUSH1 0xE1 SHL DUP2 MSTORE PUSH1 0x0 DUP2 DUP10 ADD MSTORE PUSH1 0x24 SWAP1 REVERT JUMPDEST PUSH1 0x40 DUP1 MLOAD PUSH4 0x711BEC91 PUSH1 0xE1 SHL DUP2 MSTORE CALLER DUP2 DUP12 ADD SWAP1 DUP2 MSTORE PUSH1 0x1 PUSH1 0x1 PUSH1 0xA0 SHL SUB DUP7 AND PUSH1 0x20 DUP3 ADD MSTORE SWAP1 SWAP2 DUP3 SWAP2 ADD SUB SWAP1 REVERT JUMPDEST POP PUSH1 0x0 DUP3 DUP2 MSTORE PUSH1 0x1 PUSH1 0x20 SWAP1 DUP2 MSTORE PUSH1 0x40 DUP1 DUP4 KECCAK256 CALLER DUP5 MSTORE SWAP1 SWAP2 MSTORE SWAP1 KECCAK256 SLOAD PUSH1 0xFF AND ISZERO PUSH2 0xCD9 JUMP JUMPDEST CALLVALUE PUSH2 0x4C6 JUMPI PUSH1 0x40 CALLDATASIZE PUSH1 0x3 NOT ADD SLT PUSH2 0x4C6 JUMPI PUSH2 0xCF3 PUSH1 0x4 CALLDATALOAD PUSH2 0xD94 PUSH2 0x4CB JUMP JUMPDEST SWAP1 DUP1 PUSH1 0x0 MSTORE PUSH1 0x5 PUSH1 0x20 MSTORE PUSH2 0xDAF PUSH1 0x1 PUSH1 0x40 PUSH1 0x0 KECCAK256 ADD SLOAD PUSH2 0x3086 JUMP JUMPDEST PUSH2 0x30A7 JUMP JUMPDEST SWAP1 PUSH1 0x4 DUP3 LT ISZERO PUSH2 0x6F9 JUMPI MSTORE JUMP JUMPDEST PUSH2 0xE62 SWAP1 PUSH1 0x20 DUP2 MSTORE DUP3 MLOAD PUSH1 0x20 DUP3 ADD MSTORE PUSH1 0x20 DUP4 ADD MLOAD PUSH2 0xE06 PUSH2 0xDF0 PUSH2 0x140 SWAP3 DUP4 PUSH1 0x40 DUP7 ADD MSTORE PUSH2 0x160 DUP6 ADD SWAP1 PUSH2 0x759 JUMP JUMPDEST PUSH1 0x40 DUP7 ADD MLOAD DUP5 DUP3 SUB PUSH1 0x1F NOT ADD PUSH1 0x60 DUP7 ADD MSTORE PUSH2 0x759 JUMP JUMPDEST SWAP4 PUSH1 0x60 DUP2 ADD MLOAD PUSH1 0x80 DUP5 ADD MSTORE PUSH1 0x80 DUP2 ADD MLOAD PUSH1 0xA0 DUP5 ADD MSTORE PUSH1 0xA0 DUP2 ADD MLOAD PUSH1 0xC0 DUP5 ADD MSTORE PUSH1 0xC0 DUP2 ADD MLOAD PUSH1 0xE0 DUP5 ADD MSTORE PUSH1 0xE0 DUP2 ADD MLOAD PUSH2 0xE44 PUSH2 0x100 SWAP2 DUP3 DUP7 ADD SWAP1 PUSH2 0xDB4 JUMP JUMPDEST DUP2 ADD MLOAD SWAP1 PUSH2 0xE59 PUSH2 0x120 SWAP3 DUP4 DUP7 ADD SWAP1 ISZERO ISZERO SWAP1 MSTORE JUMP JUMPDEST ADD MLOAD ISZERO ISZERO SWAP2 ADD MSTORE JUMP JUMPDEST SWAP1 JUMP JUMPDEST CALLVALUE PUSH2 0x4C6 JUMPI PUSH1 0x20 CALLDATASIZE PUSH1 0x3 NOT ADD SLT PUSH2 0x4C6 JUMPI PUSH2 0x7FF PUSH1 0x40 MLOAD PUSH2 0xE85 DUP2 PUSH2 0xB08 JUMP JUMPDEST PUSH2 0xF64 PUSH1 0x0 SWAP2 DUP3 DUP2 MSTORE PUSH1 0x60 PUSH1 0x20 DUP3 ADD MSTORE PUSH1 0x60 PUSH1 0x40 DUP3 ADD MSTORE DUP3 PUSH1 0x60 DUP3 ADD MSTORE DUP3 PUSH1 0x80 DUP3 ADD MSTORE DUP3 PUSH1 0xA0 DUP3 ADD MSTORE DUP3 PUSH1 0xC0 DUP3 ADD MSTORE DUP3 PUSH1 0xE0 DUP3 ADD MSTORE PUSH1 0xFF PUSH1 0x40 PUSH2 0x100 SWAP5 DUP1 DUP7 DUP6 ADD MSTORE DUP1 PUSH2 0x120 DUP1 SWAP6 ADD MSTORE PUSH1 0x4 CALLDATALOAD DUP2 MSTORE PUSH1 0x9 PUSH1 0x20 MSTORE KECCAK256 SWAP4 PUSH2 0xF58 PUSH1 0x7 PUSH2 0xEE8 PUSH2 0xB65 JUMP JUMPDEST SWAP7 DUP1 SLOAD DUP9 MSTORE PUSH2 0xEF9 PUSH1 0x1 DUP3 ADD PUSH2 0x25D5 JUMP JUMPDEST PUSH1 0x20 DUP10 ADD MSTORE PUSH2 0xF0A PUSH1 0x2 DUP3 ADD PUSH2 0x25D5 JUMP JUMPDEST PUSH1 0x40 DUP10 ADD MSTORE PUSH1 0x3 DUP2 ADD SLOAD PUSH1 0x60 DUP10 ADD MSTORE PUSH1 0x4 DUP2 ADD SLOAD PUSH1 0x80 DUP10 ADD MSTORE PUSH1 0x5 DUP2 ADD SLOAD PUSH1 0xA0 DUP10 ADD MSTORE PUSH1 0x6 DUP2 ADD SLOAD PUSH1 0xC0 DUP10 ADD MSTORE ADD SLOAD SWAP2 PUSH2 0xF49 DUP5 DUP5 AND PUSH1 0xE0 DUP10 ADD PUSH2 0x2865 JUMP JUMPDEST PUSH1 0x8 DUP4 SWAP1 SHR DUP5 AND ISZERO ISZERO SWAP1 DUP8 ADD MSTORE JUMP JUMPDEST PUSH1 0x10 SHR AND ISZERO ISZERO SWAP1 DUP4 ADD MSTORE JUMP JUMPDEST PUSH1 0x40 MLOAD SWAP2 DUP3 SWAP2 DUP3 PUSH2 0xDC1 JUMP JUMPDEST CALLVALUE PUSH2 0x4C6 JUMPI PUSH1 0x0 CALLDATASIZE PUSH1 0x3 NOT ADD SLT PUSH2 0x4C6 JUMPI PUSH1 0x20 PUSH1 0x40 MLOAD PUSH32 0x62045F2F519251643CF4B5F0750D99BBDA23CE869802AD9F6D52577CD08A645A DUP2 MSTORE RETURN JUMPDEST CALLVALUE PUSH2 0x4C6 JUMPI PUSH1 0x40 CALLDATASIZE PUSH1 0x3 NOT ADD SLT PUSH2 0x4C6 JUMPI PUSH2 0xFC4 PUSH2 0x4CB JUMP JUMPDEST CALLER PUSH1 0x1 PUSH1 0x1 PUSH1 0xA0 SHL SUB DUP3 AND SUB PUSH2 0xFE0 JUMPI PUSH2 0xCF3 SWAP1 PUSH1 0x4 CALLDATALOAD PUSH2 0x3141 JUMP JUMPDEST PUSH1 0x40 MLOAD PUSH4 0x334BD919 PUSH1 0xE1 SHL DUP2 MSTORE PUSH1 0x4 SWAP1 REVERT JUMPDEST PUSH1 0x60 SWAP1 PUSH1 0x3 NOT ADD SLT PUSH2 0x4C6 JUMPI PUSH1 0x4 CALLDATALOAD SWAP1 PUSH1 0x24 CALLDATALOAD PUSH1 0x1 PUSH1 0x1 PUSH1 0xA0 SHL SUB DUP2 AND DUP2 SUB PUSH2 0x4C6 JUMPI SWAP1 PUSH1 0x44 CALLDATALOAD SWAP1 JUMP JUMPDEST CALLVALUE PUSH2 0x4C6 JUMPI PUSH2 0x102A CALLDATASIZE PUSH2 0xFF2 JUMP JUMPDEST SWAP1 SWAP2 PUSH2 0x1034 PUSH2 0x2F26 JUMP JUMPDEST DUP2 ISZERO PUSH2 0x10A7 JUMPI PUSH1 0x0 DUP2 DUP2 MSTORE PUSH1 0x20 DUP2 DUP2 MSTORE PUSH1 0x40 DUP1 DUP4 KECCAK256 PUSH1 0x1 PUSH1 0x1 PUSH1 0xA0 SHL SUB DUP8 AND DUP5 MSTORE SWAP1 SWAP2 MSTORE SWAP1 KECCAK256 DUP3 SWAP1 SLOAD LT PUSH2 0x106B JUMPI PUSH2 0xCF3 SWAP3 PUSH2 0x31D3 JUMP JUMPDEST PUSH1 0x40 MLOAD PUSH3 0x461BCD PUSH1 0xE5 SHL DUP2 MSTORE PUSH1 0x20 PUSH1 0x4 DUP3 ADD MSTORE PUSH1 0x14 PUSH1 0x24 DUP3 ADD MSTORE PUSH20 0x496E73756666696369656E742062616C616E6365 PUSH1 0x60 SHL PUSH1 0x44 DUP3 ADD MSTORE PUSH1 0x64 SWAP1 REVERT JUMPDEST PUSH1 0x40 MLOAD PUSH3 0x461BCD PUSH1 0xE5 SHL DUP2 MSTORE PUSH1 0x20 PUSH1 0x4 DUP3 ADD MSTORE PUSH1 0x17 PUSH1 0x24 DUP3 ADD MSTORE PUSH32 0x416D6F756E74206D75737420626520706F736974697665000000000000000000 PUSH1 0x44 DUP3 ADD MSTORE PUSH1 0x64 SWAP1 REVERT JUMPDEST CALLVALUE PUSH2 0x4C6 JUMPI PUSH1 0x0 CALLDATASIZE PUSH1 0x3 NOT ADD SLT PUSH2 0x4C6 JUMPI PUSH2 0x1105 PUSH2 0x2F7E JUMP JUMPDEST PUSH1 0x6 SLOAD PUSH1 0xFF DUP2 AND ISZERO PUSH2 0x1144 JUMPI PUSH1 0xFF NOT AND PUSH1 0x6 SSTORE PUSH32 0x5DB9EE0A495BF2E6FF9C91A7834C1BA4FDD244A5E8AA4E537BD38AEAE4B073AA PUSH1 0x20 PUSH1 0x40 MLOAD CALLER DUP2 MSTORE LOG1 STOP JUMPDEST PUSH1 0x40 MLOAD PUSH4 0x8DFC202B PUSH1 0xE0 SHL DUP2 MSTORE PUSH1 0x4 SWAP1 REVERT JUMPDEST SWAP1 PUSH1 0x40 PUSH1 0x3 NOT DUP4 ADD SLT PUSH2 0x4C6 JUMPI PUSH1 0x4 CALLDATALOAD PUSH1 0x1 PUSH1 0x1 PUSH1 0xA0 SHL SUB DUP2 AND DUP2 SUB PUSH2 0x4C6 JUMPI SWAP2 PUSH1 0x24 CALLDATALOAD SWAP1 PUSH1 0x1 PUSH1 0x1 PUSH1 0x40 SHL SUB DUP3 GT PUSH2 0x4C6 JUMPI PUSH2 0x1195 SWAP2 PUSH1 0x4 ADD PUSH2 0x97B JUMP JUMPDEST SWAP1 SWAP2 JUMP JUMPDEST CALLVALUE PUSH2 0x4C6 JUMPI PUSH32 0xED82F44F688727207518136F7E93AE71DC311562B9F1841866814C6DBE3FC487 PUSH2 0x11C8 CALLDATASIZE PUSH2 0x1156 JUMP JUMPDEST SWAP1 SWAP3 SWAP2 PUSH2 0x11D3 PUSH2 0x2EC8 JUMP JUMPDEST PUSH1 0x1 PUSH1 0x1 PUSH1 0xA0 SHL SUB AND PUSH1 0x0 DUP2 DUP2 MSTORE PUSH1 0xD PUSH1 0x20 MSTORE PUSH1 0x40 DUP1 DUP3 KECCAK256 DUP1 SLOAD PUSH1 0xFF NOT AND SWAP1 SSTORE MLOAD SWAP1 SWAP5 SWAP2 SWAP4 DUP5 SWAP4 SWAP1 SWAP3 DUP3 SWAP2 PUSH2 0x1209 SWAP2 TIMESTAMP DUP5 PUSH2 0x2871 JUMP JUMPDEST SUB SWAP1 LOG2 PUSH32 0x535611FB62FA2A833988F283B779E417E996813E44046F521D76C17B5943B08C DUP3 DUP1 LOG2 DUP1 RETURN JUMPDEST CALLVALUE PUSH2 0x4C6 JUMPI PUSH1 0x20 CALLDATASIZE PUSH1 0x3 NOT ADD SLT PUSH2 0x4C6 JUMPI PUSH1 0x4 CALLDATALOAD PUSH1 0x0 MSTORE PUSH1 0x11 PUSH1 0x20 MSTORE PUSH1 0x20 PUSH1 0x40 PUSH1 0x0 KECCAK256 SLOAD ISZERO ISZERO PUSH1 0x40 MLOAD SWAP1 DUP2 MSTORE RETURN JUMPDEST SWAP1 DUP2 MLOAD DUP1 DUP3 MSTORE PUSH1 0x20 DUP1 DUP1 SWAP4 ADD SWAP4 ADD SWAP2 PUSH1 0x0 JUMPDEST DUP3 DUP2 LT PUSH2 0x1281 JUMPI POP POP POP POP SWAP1 JUMP JUMPDEST DUP4 MLOAD DUP6 MSTORE SWAP4 DUP2 ADD SWAP4 SWAP3 DUP2 ADD SWAP3 PUSH1 0x1 ADD PUSH2 0x1273 JUMP JUMPDEST SWAP1 PUSH1 0x20 PUSH2 0xE62 SWAP3 DUP2 DUP2 MSTORE ADD SWAP1 PUSH2 0x1261 JUMP JUMPDEST CALLVALUE PUSH2 0x4C6 JUMPI PUSH1 0x40 CALLDATASIZE PUSH1 0x3 NOT ADD SLT PUSH2 0x4C6 JUMPI PUSH1 0x4 CALLDATALOAD PUSH1 0x1 PUSH1 0x1 PUSH1 0x40 SHL SUB DUP1 DUP3 GT PUSH2 0x4C6 JUMPI CALLDATASIZE PUSH1 0x23 DUP4 ADD SLT ISZERO PUSH2 0x4C6 JUMPI DUP2 PUSH1 0x4 ADD CALLDATALOAD PUSH2 0x12E2 DUP2 PUSH2 0xB74 JUMP JUMPDEST SWAP3 PUSH2 0x12F0 PUSH1 0x40 MLOAD SWAP5 DUP6 PUSH2 0xB44 JUMP JUMPDEST DUP2 DUP5 MSTORE PUSH1 0x20 SWAP2 PUSH1 0x24 PUSH1 0x20 DUP7 ADD SWAP2 PUSH1 0x5 SHL DUP4 ADD ADD SWAP2 CALLDATASIZE DUP4 GT PUSH2 0x4C6 JUMPI PUSH1 0x24 ADD SWAP1 JUMPDEST DUP3 DUP3 LT PUSH2 0x1349 JUMPI DUP6 PUSH1 0x24 CALLDATALOAD DUP7 DUP2 GT PUSH2 0x4C6 JUMPI PUSH2 0x7FF SWAP2 PUSH2 0x1337 PUSH2 0x133D SWAP3 CALLDATASIZE SWAP1 PUSH1 0x4 ADD PUSH2 0xB8B JUMP JUMPDEST SWAP1 PUSH2 0x28CE JUMP JUMPDEST PUSH1 0x40 MLOAD SWAP2 DUP3 SWAP2 DUP3 PUSH2 0x1295 JUMP JUMPDEST DUP4 DUP1 SWAP2 PUSH2 0x1355 DUP5 PUSH2 0x4E1 JUMP JUMPDEST DUP2 MSTORE ADD SWAP2 ADD SWAP1 PUSH2 0x1310 JUMP JUMPDEST CALLVALUE PUSH2 0x4C6 JUMPI PUSH1 0x20 CALLDATASIZE PUSH1 0x3 NOT ADD SLT PUSH2 0x4C6 JUMPI PUSH1 0x4 CALLDATALOAD PUSH1 0x0 MSTORE PUSH1 0x3 PUSH1 0x20 MSTORE PUSH1 0x20 PUSH1 0x40 PUSH1 0x0 KECCAK256 SLOAD ISZERO ISZERO PUSH1 0x40 MLOAD SWAP1 DUP2 MSTORE RETURN JUMPDEST CALLVALUE PUSH2 0x4C6 JUMPI PUSH1 0x0 CALLDATASIZE PUSH1 0x3 NOT ADD SLT PUSH2 0x4C6 JUMPI PUSH1 0x40 MLOAD DUP1 PUSH1 0x10 SLOAD SWAP2 DUP3 DUP2 MSTORE PUSH1 0x20 DUP1 SWAP2 ADD SWAP3 PUSH1 0x10 PUSH1 0x0 MSTORE PUSH32 0x1B6847DC741A1B0CD08D278845F9D819D87B734759AFB55FE2DE5CB82A9AE672 SWAP2 PUSH1 0x0 SWAP1 JUMPDEST DUP3 DUP3 LT PUSH2 0x1406 JUMPI PUSH2 0x7FF DUP6 PUSH2 0x13F2 DUP2 DUP10 SUB DUP3 PUSH2 0xB44 JUMP JUMPDEST PUSH1 0x40 MLOAD SWAP2 DUP3 SWAP2 PUSH1 0x20 DUP4 MSTORE PUSH1 0x20 DUP4 ADD SWAP1 PUSH2 0x1261 JUMP JUMPDEST DUP4 SLOAD DUP7 MSTORE SWAP5 DUP6 ADD SWAP5 PUSH1 0x1 SWAP4 DUP5 ADD SWAP4 SWAP1 SWAP2 ADD SWAP1 PUSH2 0x13DB JUMP JUMPDEST CALLVALUE PUSH2 0x4C6 JUMPI PUSH1 0x0 CALLDATASIZE PUSH1 0x3 NOT ADD SLT PUSH2 0x4C6 JUMPI PUSH1 0x20 PUSH1 0x40 MLOAD PUSH32 0x28F5A99355973CC89255B8C4AC88405F27C78DED7608B040EE77A8BDF44D15E2 DUP2 MSTORE RETURN JUMPDEST CALLVALUE PUSH2 0x4C6 JUMPI PUSH1 0x0 CALLDATASIZE PUSH1 0x3 NOT ADD SLT PUSH2 0x4C6 JUMPI PUSH1 0x20 PUSH1 0x40 MLOAD PUSH2 0x7D0 DUP2 MSTORE RETURN JUMPDEST CALLVALUE PUSH2 0x4C6 JUMPI PUSH1 0xA0 CALLDATASIZE PUSH1 0x3 NOT ADD SLT PUSH2 0x4C6 JUMPI PUSH1 0x1 PUSH1 0x1 PUSH1 0x40 SHL SUB PUSH1 0x4 CALLDATALOAD DUP2 DUP2 GT PUSH2 0x4C6 JUMPI PUSH2 0x14A6 SWAP1 CALLDATASIZE SWAP1 PUSH1 0x4 ADD PUSH2 0xC06 JUMP JUMPDEST SWAP1 PUSH1 0x24 CALLDATALOAD SWAP1 DUP2 GT PUSH2 0x4C6 JUMPI PUSH2 0x7FF SWAP2 PUSH32 0x1EFDDE4594ED8E2284022AA3BEDD98D13B88C18F2BB33D90131DFF8E95589BA3 PUSH2 0x14E7 PUSH2 0x1582 SWAP4 CALLDATASIZE SWAP1 PUSH1 0x4 ADD PUSH2 0xC06 JUMP JUMPDEST SWAP2 PUSH1 0x44 CALLDATALOAD SWAP1 PUSH2 0x166F PUSH1 0x64 CALLDATALOAD PUSH2 0x14FA PUSH2 0x2FD6 JUMP JUMPDEST PUSH1 0xA SLOAD SWAP7 DUP8 SWAP7 PUSH2 0x1511 PUSH2 0x150C DUP10 PUSH2 0x29A3 JUMP JUMPDEST PUSH1 0xA SSTORE JUMP JUMPDEST PUSH2 0x151D PUSH1 0x84 CALLDATALOAD TIMESTAMP PUSH2 0x29B7 JUMP JUMPDEST PUSH2 0x1525 PUSH2 0xB65 JUMP JUMPDEST SWAP2 DUP10 DUP4 MSTORE DUP7 PUSH1 0x20 DUP5 ADD MSTORE PUSH1 0x40 DUP4 ADD MSTORE DUP7 PUSH1 0x60 DUP4 ADD MSTORE PUSH1 0x0 PUSH1 0x80 DUP4 ADD MSTORE DUP4 PUSH1 0xA0 DUP4 ADD MSTORE PUSH1 0xC0 DUP3 ADD MSTORE PUSH1 0x0 PUSH1 0xE0 DUP3 ADD MSTORE PUSH2 0x1561 PUSH2 0x100 DUP3 ADD PUSH1 0x1 SWAP1 MSTORE JUMP JUMPDEST PUSH1 0x0 PUSH2 0x120 DUP3 ADD MSTORE PUSH2 0x157D DUP9 PUSH1 0x0 MSTORE PUSH1 0x9 PUSH1 0x20 MSTORE PUSH1 0x40 PUSH1 0x0 KECCAK256 SWAP1 JUMP JUMPDEST PUSH2 0x2AEF JUMP JUMPDEST PUSH2 0x1596 PUSH2 0x158E DUP6 PUSH2 0x2BA9 JUMP JUMPDEST PUSH2 0x2710 SWAP1 DIV SWAP1 JUMP JUMPDEST PUSH2 0x15BC PUSH2 0x15AD DUP9 PUSH1 0x0 MSTORE PUSH1 0xB PUSH1 0x20 MSTORE PUSH1 0x40 PUSH1 0x0 KECCAK256 SWAP1 JUMP JUMPDEST PUSH1 0x0 DUP1 MSTORE PUSH1 0x20 MSTORE PUSH1 0x40 PUSH1 0x0 KECCAK256 SWAP1 JUMP JUMPDEST SSTORE PUSH2 0x15C9 PUSH2 0x158E DUP6 PUSH2 0x2BC0 JUMP JUMPDEST PUSH2 0x15F0 PUSH2 0x15E0 DUP9 PUSH1 0x0 MSTORE PUSH1 0xB PUSH1 0x20 MSTORE PUSH1 0x40 PUSH1 0x0 KECCAK256 SWAP1 JUMP JUMPDEST PUSH1 0x1 PUSH1 0x0 MSTORE PUSH1 0x20 MSTORE PUSH1 0x40 PUSH1 0x0 KECCAK256 SWAP1 JUMP JUMPDEST SSTORE PUSH2 0x15FD PUSH2 0x158E DUP6 PUSH2 0x2BD7 JUMP JUMPDEST PUSH2 0x1624 PUSH2 0x1614 DUP9 PUSH1 0x0 MSTORE PUSH1 0xB PUSH1 0x20 MSTORE PUSH1 0x40 PUSH1 0x0 KECCAK256 SWAP1 JUMP JUMPDEST PUSH1 0x2 PUSH1 0x0 MSTORE PUSH1 0x20 MSTORE PUSH1 0x40 PUSH1 0x0 KECCAK256 SWAP1 JUMP JUMPDEST SSTORE PUSH2 0x1631 PUSH2 0x158E DUP6 PUSH2 0x2BEE JUMP JUMPDEST PUSH2 0x1658 PUSH2 0x1648 DUP9 PUSH1 0x0 MSTORE PUSH1 0xB PUSH1 0x20 MSTORE PUSH1 0x40 PUSH1 0x0 KECCAK256 SWAP1 JUMP JUMPDEST PUSH1 0x3 PUSH1 0x0 MSTORE PUSH1 0x20 MSTORE PUSH1 0x40 PUSH1 0x0 KECCAK256 SWAP1 JUMP JUMPDEST SSTORE PUSH2 0x1662 DUP7 PUSH2 0x3A69 JUMP JUMPDEST POP PUSH1 0x40 MLOAD SWAP4 DUP5 SWAP4 DUP5 PUSH2 0x2C18 JUMP JUMPDEST SUB SWAP1 LOG2 PUSH1 0x40 MLOAD SWAP1 DUP2 MSTORE SWAP1 DUP2 SWAP1 PUSH1 0x20 DUP3 ADD SWAP1 JUMP JUMPDEST CALLVALUE PUSH2 0x4C6 JUMPI PUSH1 0x0 CALLDATASIZE PUSH1 0x3 NOT ADD SLT PUSH2 0x4C6 JUMPI PUSH1 0x20 PUSH1 0x40 MLOAD PUSH2 0x3A98 DUP2 MSTORE RETURN JUMPDEST CALLVALUE PUSH2 0x4C6 JUMPI PUSH1 0x0 CALLDATASIZE PUSH1 0x3 NOT ADD SLT PUSH2 0x4C6 JUMPI PUSH1 0x20 PUSH1 0xFF PUSH1 0x6 SLOAD AND PUSH1 0x40 MLOAD SWAP1 ISZERO ISZERO DUP2 MSTORE RETURN JUMPDEST CALLVALUE PUSH2 0x4C6 JUMPI PUSH1 0x0 CALLDATASIZE PUSH1 0x3 NOT ADD SLT PUSH2 0x4C6 JUMPI PUSH1 0x20 PUSH1 0x40 MLOAD PUSH2 0xBB8 DUP2 MSTORE RETURN JUMPDEST CALLVALUE PUSH2 0x4C6 JUMPI PUSH1 0x60 CALLDATASIZE PUSH1 0x3 NOT ADD SLT PUSH2 0x4C6 JUMPI PUSH2 0x16F8 PUSH2 0x4B0 JUMP JUMPDEST PUSH1 0x1 PUSH1 0x1 PUSH1 0x40 SHL SUB PUSH1 0x24 CALLDATALOAD DUP2 DUP2 GT PUSH2 0x4C6 JUMPI PUSH2 0x1718 SWAP1 CALLDATASIZE SWAP1 PUSH1 0x4 ADD PUSH2 0xB8B JUMP JUMPDEST SWAP1 PUSH1 0x44 CALLDATALOAD SWAP1 DUP2 GT PUSH2 0x4C6 JUMPI PUSH2 0x1731 SWAP1 CALLDATASIZE SWAP1 PUSH1 0x4 ADD PUSH2 0xB8B JUMP JUMPDEST SWAP1 PUSH1 0x1 PUSH1 0x1 PUSH1 0xA0 SHL SUB DUP4 AND CALLER DUP2 EQ ISZERO DUP1 PUSH2 0x17A6 JUMPI JUMPDEST PUSH2 0x177F JUMPI ISZERO PUSH2 0x1767 JUMPI PUSH2 0xCF3 SWAP3 PUSH1 0x0 PUSH1 0x40 MLOAD PUSH2 0x1761 DUP2 PUSH2 0xB29 JUMP JUMPDEST MSTORE PUSH2 0x35A4 JUMP JUMPDEST PUSH1 0x40 MLOAD PUSH3 0x6A0D45 PUSH1 0xE2 SHL DUP2 MSTORE PUSH1 0x0 PUSH1 0x4 DUP3 ADD MSTORE PUSH1 0x24 SWAP1 REVERT JUMPDEST PUSH1 0x40 MLOAD PUSH4 0x711BEC91 PUSH1 0xE1 SHL DUP2 MSTORE CALLER PUSH1 0x4 DUP3 ADD MSTORE PUSH1 0x1 PUSH1 0x1 PUSH1 0xA0 SHL SUB DUP6 AND PUSH1 0x24 DUP3 ADD MSTORE PUSH1 0x44 SWAP1 REVERT JUMPDEST POP PUSH1 0x0 DUP2 DUP2 MSTORE PUSH1 0x1 PUSH1 0x20 SWAP1 DUP2 MSTORE PUSH1 0x40 DUP1 DUP4 KECCAK256 CALLER DUP5 MSTORE SWAP1 SWAP2 MSTORE SWAP1 KECCAK256 SLOAD PUSH1 0xFF AND ISZERO PUSH2 0x1746 JUMP JUMPDEST CALLVALUE PUSH2 0x4C6 JUMPI PUSH1 0x20 CALLDATASIZE PUSH1 0x3 NOT ADD SLT PUSH2 0x4C6 JUMPI PUSH1 0x4 CALLDATALOAD PUSH1 0x4 DUP2 LT ISZERO PUSH2 0x4C6 JUMPI PUSH2 0x17F2 PUSH1 0x20 SWAP2 PUSH2 0x2C3A JUMP JUMPDEST PUSH1 0x40 MLOAD SWAP1 DUP2 MSTORE RETURN JUMPDEST CALLVALUE PUSH2 0x4C6 JUMPI PUSH1 0x40 CALLDATASIZE PUSH1 0x3 NOT ADD SLT PUSH2 0x4C6 JUMPI PUSH2 0x1813 PUSH2 0x4B0 JUMP JUMPDEST PUSH32 0x73D81B71910F8BD08CF791875865C73764D8D891AF9DB3D5529A9C6574EF6DD1 PUSH2 0xA76 PUSH1 0x24 CALLDATALOAD SWAP3 PUSH2 0x1843 PUSH2 0x2EC8 JUMP JUMPDEST PUSH1 0x1 DUP1 PUSH1 0xA0 SHL SUB AND SWAP3 DUP4 PUSH1 0x0 MSTORE PUSH1 0x14 PUSH1 0x20 MSTORE DUP1 PUSH1 0x40 PUSH1 0x0 KECCAK256 SSTORE PUSH1 0x40 MLOAD SWAP2 DUP3 SWAP2 TIMESTAMP DUP4 PUSH1 0x20 SWAP1 SWAP4 SWAP3 SWAP2 SWAP4 PUSH1 0x40 DUP2 ADD SWAP5 DUP2 MSTORE ADD MSTORE JUMP JUMPDEST CALLVALUE PUSH2 0x4C6 JUMPI PUSH1 0x40 CALLDATASIZE PUSH1 0x3 NOT ADD SLT PUSH2 0x4C6 JUMPI PUSH1 0x20 PUSH2 0x5AD PUSH2 0x1894 PUSH2 0x650 JUMP JUMPDEST PUSH1 0x4 CALLDATALOAD PUSH1 0x0 MSTORE PUSH1 0xB DUP4 MSTORE PUSH1 0x40 PUSH1 0x0 KECCAK256 PUSH2 0x70F JUMP JUMPDEST CALLVALUE PUSH2 0x4C6 JUMPI PUSH1 0x0 CALLDATASIZE PUSH1 0x3 NOT ADD SLT PUSH2 0x4C6 JUMPI PUSH1 0x20 PUSH1 0x10 SLOAD PUSH1 0x40 MLOAD SWAP1 DUP2 MSTORE RETURN JUMPDEST CALLVALUE PUSH2 0x4C6 JUMPI PUSH1 0x20 CALLDATASIZE PUSH1 0x3 NOT ADD SLT PUSH2 0x4C6 JUMPI PUSH1 0x4 CALLDATALOAD PUSH2 0x18E2 PUSH2 0x2FD6 JUMP JUMPDEST DUP1 PUSH1 0x0 MSTORE PUSH1 0x9 PUSH1 0x20 MSTORE PUSH32 0x97997C603FECB6522EE76AC10B6A193D5CE1DB7B82C8271B2A27A63F022E53B5 PUSH1 0x60 PUSH1 0x4 PUSH1 0x40 PUSH1 0x0 KECCAK256 PUSH2 0x1928 PUSH1 0xFF PUSH1 0x7 DUP4 ADD SLOAD PUSH1 0x8 SHR AND PUSH2 0x2C85 JUMP JUMPDEST ADD SLOAD PUSH1 0x40 MLOAD SWAP1 TIMESTAMP DUP3 MSTORE PUSH1 0x0 PUSH1 0x20 DUP4 ADD MSTORE PUSH1 0x40 DUP3 ADD MSTORE LOG2 STOP JUMPDEST CALLVALUE PUSH2 0x4C6 JUMPI PUSH1 0x20 CALLDATASIZE PUSH1 0x3 NOT ADD SLT PUSH2 0x4C6 JUMPI PUSH1 0x1 PUSH1 0x1 PUSH1 0xA0 SHL SUB PUSH2 0x1961 PUSH2 0x4B0 JUMP JUMPDEST AND PUSH1 0x0 MSTORE PUSH1 0x12 PUSH1 0x20 MSTORE PUSH1 0x20 PUSH1 0x40 PUSH1 0x0 KECCAK256 SLOAD PUSH1 0x40 MLOAD SWAP1 DUP2 MSTORE RETURN JUMPDEST CALLVALUE PUSH2 0x4C6 JUMPI PUSH1 0x20 CALLDATASIZE PUSH1 0x3 NOT ADD SLT PUSH2 0x4C6 JUMPI PUSH2 0x1993 PUSH2 0x2FD6 JUMP JUMPDEST PUSH1 0x40 MLOAD TIMESTAMP DUP2 MSTORE CALLER SWAP1 PUSH32 0xE6B09768AC52CDF77F7335552A3533EFCA4C4C467299850E0E7AF38A1D8B52B1 PUSH1 0x20 PUSH1 0x4 CALLDATALOAD SWAP3 LOG3 STOP JUMPDEST CALLVALUE PUSH2 0x4C6 JUMPI PUSH1 0x0 CALLDATASIZE PUSH1 0x3 NOT ADD SLT PUSH2 0x4C6 JUMPI PUSH1 0x20 PUSH1 0x40 MLOAD PUSH2 0x57E4 DUP2 MSTORE RETURN JUMPDEST CALLVALUE PUSH2 0x4C6 JUMPI PUSH1 0x20 CALLDATASIZE PUSH1 0x3 NOT ADD SLT PUSH2 0x4C6 JUMPI CALLER PUSH1 0x0 SWAP1 DUP2 MSTORE PUSH32 0xC54CC0CAD80E711AFF5B4FCA3E13682B9A8FCD7FF4679FBC81D0391D16E477BD PUSH1 0x20 MSTORE PUSH1 0x40 SWAP1 KECCAK256 SLOAD PUSH32 0x62045F2F519251643CF4B5F0750D99BBDA23CE869802AD9F6D52577CD08A645A SWAP1 PUSH1 0xFF AND ISZERO PUSH2 0x1A57 JUMPI PUSH2 0xCF3 PUSH1 0x4 CALLDATALOAD PUSH2 0x33DA JUMP JUMPDEST PUSH1 0x44 SWAP1 PUSH1 0x40 MLOAD SWAP1 PUSH4 0xE2517D3F PUSH1 0xE0 SHL DUP3 MSTORE CALLER PUSH1 0x4 DUP4 ADD MSTORE PUSH1 0x24 DUP3 ADD MSTORE REVERT JUMPDEST CALLVALUE PUSH2 0x4C6 JUMPI PUSH1 0x0 CALLDATASIZE PUSH1 0x3 NOT ADD SLT PUSH2 0x4C6 JUMPI PUSH2 0x1A8E PUSH2 0x2F7E JUMP JUMPDEST PUSH2 0x1A96 PUSH2 0x349F JUMP JUMPDEST PUSH1 0x1 PUSH1 0xFF NOT PUSH1 0x6 SLOAD AND OR PUSH1 0x6 SSTORE PUSH32 0x62E78CEA01BEE320CD4E420270B5EA74000D11B0C9F74754EBDBFC544B05A258 PUSH1 0x20 PUSH1 0x40 MLOAD CALLER DUP2 MSTORE LOG1 STOP JUMPDEST CALLVALUE PUSH2 0x4C6 JUMPI PUSH32 0x71FF24386D252605E27E246DB81BBA937113D7887D04711CEFA5FE7295437566 PUSH2 0x1AFE CALLDATASIZE PUSH2 0x1156 JUMP JUMPDEST SWAP1 SWAP3 SWAP2 PUSH2 0x1B09 PUSH2 0x2EC8 JUMP JUMPDEST PUSH1 0x1 DUP1 PUSH1 0xA0 SHL SUB AND SWAP2 DUP3 SWAP2 PUSH1 0x0 SWAP5 DUP4 DUP7 MSTORE PUSH1 0x12 PUSH1 0x20 MSTORE DUP6 PUSH1 0x40 DUP2 KECCAK256 SSTORE PUSH1 0x13 PUSH1 0x20 MSTORE DUP6 PUSH1 0x40 DUP2 KECCAK256 SSTORE PUSH1 0xD PUSH1 0x20 MSTORE PUSH1 0x40 DUP7 KECCAK256 PUSH1 0xFF NOT DUP2 SLOAD AND SWAP1 SSTORE PUSH2 0x1209 PUSH1 0x40 MLOAD SWAP3 DUP4 SWAP3 TIMESTAMP DUP5 PUSH2 0x2871 JUMP JUMPDEST CALLVALUE PUSH2 0x4C6 JUMPI PUSH1 0x20 CALLDATASIZE PUSH1 0x3 NOT ADD SLT PUSH2 0x4C6 JUMPI PUSH2 0x1B6A PUSH2 0x4B0 JUMP JUMPDEST PUSH2 0x1B72 PUSH2 0x2EC8 JUMP JUMPDEST PUSH1 0x1 PUSH1 0x1 PUSH1 0xA0 SHL SUB AND PUSH1 0x0 DUP2 DUP2 MSTORE PUSH1 0xD PUSH1 0x20 MSTORE PUSH1 0x40 DUP2 KECCAK256 DUP1 SLOAD PUSH1 0xFF NOT AND SWAP1 SSTORE SWAP1 PUSH32 0x535611FB62FA2A833988F283B779E417E996813E44046F521D76C17B5943B08C DUP3 DUP1 LOG2 DUP1 RETURN JUMPDEST CALLVALUE PUSH2 0x4C6 JUMPI PUSH1 0x20 CALLDATASIZE PUSH1 0x3 NOT ADD SLT PUSH2 0x4C6 JUMPI PUSH1 0x0 PUSH1 0x4 DUP1 CALLDATALOAD SWAP1 DUP3 JUMPDEST PUSH1 0xFF DUP5 AND PUSH1 0x3 DUP2 GT PUSH2 0x1C49 JUMPI DUP3 DUP2 LT ISZERO PUSH2 0x1C34 JUMPI PUSH2 0x1C2E SWAP2 PUSH2 0x1C22 PUSH2 0x158E DUP4 PUSH2 0x1C1C PUSH2 0x1C15 PUSH2 0x1C28 SWAP7 PUSH2 0x1C10 DUP12 PUSH1 0x0 MSTORE PUSH1 0xC PUSH1 0x20 MSTORE PUSH1 0x40 PUSH1 0x0 KECCAK256 SWAP1 JUMP JUMPDEST PUSH2 0x70F JUMP JUMPDEST SLOAD SWAP2 PUSH2 0x2C3A JUMP JUMPDEST SWAP1 PUSH2 0x2C05 JUMP JUMPDEST SWAP1 PUSH2 0x29B7 JUMP JUMPDEST SWAP4 PUSH2 0x2CC7 JUMP JUMPDEST SWAP3 PUSH2 0x1BD3 JUMP JUMPDEST PUSH1 0x21 DUP4 PUSH4 0x4E487B71 PUSH1 0xE0 SHL PUSH1 0x0 MSTORE MSTORE PUSH1 0x24 PUSH1 0x0 REVERT JUMPDEST PUSH1 0x40 MLOAD DUP3 DUP2 MSTORE PUSH1 0x20 SWAP1 RETURN JUMPDEST CALLVALUE PUSH2 0x4C6 JUMPI PUSH2 0x1C62 CALLDATASIZE PUSH2 0xFF2 JUMP JUMPDEST PUSH2 0x1C6A PUSH2 0x302E JUMP JUMPDEST PUSH1 0x2 PUSH1 0x7 SLOAD EQ PUSH2 0x1E9E JUMPI PUSH1 0x2 PUSH1 0x7 SSTORE PUSH2 0x1C81 PUSH2 0x349F JUMP JUMPDEST PUSH1 0x1 PUSH1 0x1 PUSH1 0xA0 SHL SUB DUP3 AND PUSH1 0x0 SWAP1 DUP2 MSTORE PUSH1 0xD PUSH1 0x20 MSTORE PUSH1 0x40 SWAP1 KECCAK256 PUSH2 0x1CAE SWAP1 PUSH2 0x1CA9 SWAP1 JUMPDEST SLOAD PUSH1 0xFF AND SWAP1 JUMP JUMPDEST PUSH2 0x2CE7 JUMP JUMPDEST DUP3 PUSH32 0x689E2353C59BCD8C1C4352DDD0F21299329AD92442D331648747E4E865ACDE74 PUSH2 0x1E1E PUSH2 0x1CE7 DUP4 PUSH1 0x0 MSTORE PUSH1 0x9 PUSH1 0x20 MSTORE PUSH1 0x40 PUSH1 0x0 KECCAK256 SWAP1 JUMP JUMPDEST PUSH1 0x4 PUSH1 0x7 DUP3 ADD SWAP2 PUSH2 0x1D88 PUSH2 0x1D80 PUSH1 0xFF PUSH2 0x1D48 DUP12 DUP3 PUSH2 0x1D29 PUSH2 0x1CA2 DUP11 SLOAD SWAP4 PUSH2 0x1D12 DUP5 DUP7 PUSH1 0x8 SHR AND PUSH2 0x2C85 JUMP JUMPDEST DUP4 DUP6 PUSH1 0x10 SHR AND ISZERO DUP1 ISZERO PUSH2 0x1E90 JUMPI JUMPDEST PUSH2 0xA4B SWAP1 PUSH2 0x2D2B JUMP JUMPDEST SWAP2 PUSH2 0x1D33 DUP4 PUSH2 0x6EF JUMP JUMPDEST AND SWAP3 DUP4 SWAP2 PUSH2 0x1D40 DUP4 PUSH2 0x6EF JUMP JUMPDEST AND LT ISZERO PUSH2 0x2D68 JUMP JUMPDEST PUSH2 0x1D79 PUSH2 0x1D63 DUP3 PUSH2 0x1C10 DUP13 PUSH1 0x0 MSTORE PUSH1 0xB PUSH1 0x20 MSTORE PUSH1 0x40 PUSH1 0x0 KECCAK256 SWAP1 JUMP JUMPDEST SLOAD SWAP2 PUSH2 0x1C10 DUP12 PUSH1 0x0 MSTORE PUSH1 0xC PUSH1 0x20 MSTORE PUSH1 0x40 PUSH1 0x0 KECCAK256 SWAP1 JUMP JUMPDEST SLOAD SWAP1 PUSH2 0x2DB4 JUMP JUMPDEST DUP9 GT ISZERO PUSH2 0x2DC1 JUMP JUMPDEST PUSH2 0x1D9B PUSH2 0x1D93 PUSH2 0x2E0D JUMP JUMPDEST DUP9 DUP9 DUP12 PUSH2 0x34BD JUMP JUMPDEST ADD PUSH2 0x1DA7 DUP7 DUP3 SLOAD PUSH2 0x29B7 JUMP JUMPDEST SWAP1 SSTORE PUSH2 0x1DCB PUSH2 0x1DC0 DUP6 PUSH1 0x0 MSTORE PUSH1 0xC PUSH1 0x20 MSTORE PUSH1 0x40 PUSH1 0x0 KECCAK256 SWAP1 JUMP JUMPDEST DUP3 SLOAD PUSH1 0xFF AND SWAP1 PUSH2 0x70F JUMP JUMPDEST PUSH2 0x1DD6 DUP7 DUP3 SLOAD PUSH2 0x29B7 JUMP JUMPDEST SWAP1 SSTORE PUSH2 0x1E0A PUSH2 0x1DC0 DUP8 PUSH2 0x1DF3 DUP8 PUSH1 0x0 MSTORE PUSH1 0xF PUSH1 0x20 MSTORE PUSH1 0x40 PUSH1 0x0 KECCAK256 SWAP1 JUMP JUMPDEST SWAP1 PUSH1 0x1 DUP1 PUSH1 0xA0 SHL SUB AND PUSH1 0x0 MSTORE PUSH1 0x20 MSTORE PUSH1 0x40 PUSH1 0x0 KECCAK256 SWAP1 JUMP JUMPDEST PUSH2 0x1E15 DUP7 DUP3 SLOAD PUSH2 0x29B7 JUMP JUMPDEST SWAP1 SSTORE SLOAD PUSH1 0xFF AND SWAP1 JUMP JUMPDEST PUSH1 0x40 MLOAD SWAP1 SWAP5 PUSH1 0x1 PUSH1 0x1 PUSH1 0xA0 SHL SUB AND SWAP4 DUP2 SWAP1 PUSH2 0x1E3B SWAP1 DUP8 SWAP1 DUP4 PUSH2 0x2E20 JUMP JUMPDEST SUB SWAP1 LOG3 PUSH2 0x1E6F PUSH2 0x1E59 DUP3 PUSH2 0x1C10 DUP6 PUSH1 0x0 MSTORE PUSH1 0xC PUSH1 0x20 MSTORE PUSH1 0x40 PUSH1 0x0 KECCAK256 SWAP1 JUMP JUMPDEST SLOAD SWAP2 PUSH2 0x1C10 DUP5 PUSH1 0x0 MSTORE PUSH1 0xB PUSH1 0x20 MSTORE PUSH1 0x40 PUSH1 0x0 KECCAK256 SWAP1 JUMP JUMPDEST SLOAD GT ISZERO PUSH2 0x1E81 JUMPI JUMPDEST PUSH2 0xCF3 PUSH1 0x1 PUSH1 0x7 SSTORE JUMP JUMPDEST PUSH2 0x1E8A SWAP1 PUSH2 0x33DA JUMP JUMPDEST CODESIZE PUSH2 0x1E77 JUMP JUMPDEST POP PUSH1 0x6 DUP11 ADD SLOAD TIMESTAMP GT ISZERO PUSH2 0x1D20 JUMP JUMPDEST PUSH1 0x40 MLOAD PUSH4 0x3EE5AEB5 PUSH1 0xE0 SHL DUP2 MSTORE PUSH1 0x4 SWAP1 REVERT JUMPDEST CALLVALUE PUSH2 0x4C6 JUMPI PUSH1 0x40 CALLDATASIZE PUSH1 0x3 NOT ADD SLT PUSH2 0x4C6 JUMPI PUSH1 0x20 PUSH1 0xFF PUSH2 0x1EF6 PUSH2 0x1ED0 PUSH2 0x4CB JUMP JUMPDEST PUSH1 0x4 CALLDATALOAD PUSH1 0x0 MSTORE PUSH1 0x5 DUP5 MSTORE PUSH1 0x40 PUSH1 0x0 KECCAK256 SWAP1 PUSH1 0x1 DUP1 PUSH1 0xA0 SHL SUB AND PUSH1 0x0 MSTORE PUSH1 0x20 MSTORE PUSH1 0x40 PUSH1 0x0 KECCAK256 SWAP1 JUMP JUMPDEST SLOAD AND PUSH1 0x40 MLOAD SWAP1 ISZERO ISZERO DUP2 MSTORE RETURN JUMPDEST CALLVALUE PUSH2 0x4C6 JUMPI PUSH1 0x20 CALLDATASIZE PUSH1 0x3 NOT ADD SLT PUSH2 0x4C6 JUMPI PUSH1 0x1 PUSH1 0x1 PUSH1 0xA0 SHL SUB PUSH2 0x1F23 PUSH2 0x4B0 JUMP JUMPDEST AND PUSH1 0x0 MSTORE PUSH1 0xD PUSH1 0x20 MSTORE PUSH1 0x20 PUSH1 0xFF PUSH1 0x40 PUSH1 0x0 KECCAK256 SLOAD AND PUSH1 0x40 MLOAD SWAP1 ISZERO ISZERO DUP2 MSTORE RETURN JUMPDEST CALLVALUE PUSH2 0x4C6 JUMPI PUSH1 0x60 CALLDATASIZE PUSH1 0x3 NOT ADD SLT PUSH2 0x4C6 JUMPI PUSH2 0x1F5A PUSH2 0x4CB JUMP JUMPDEST PUSH1 0x44 CALLDATALOAD SWAP1 PUSH1 0x4 DUP3 LT ISZERO PUSH2 0x4C6 JUMPI PUSH1 0x20 SWAP2 PUSH2 0x1C10 PUSH2 0x5AD SWAP3 PUSH1 0x4 CALLDATALOAD PUSH1 0x0 MSTORE PUSH1 0xF DUP6 MSTORE PUSH1 0x40 PUSH1 0x0 KECCAK256 SWAP1 PUSH1 0x1 DUP1 PUSH1 0xA0 SHL SUB AND PUSH1 0x0 MSTORE PUSH1 0x20 MSTORE PUSH1 0x40 PUSH1 0x0 KECCAK256 SWAP1 JUMP JUMPDEST CALLVALUE PUSH2 0x4C6 JUMPI PUSH1 0x0 CALLDATASIZE PUSH1 0x3 NOT ADD SLT PUSH2 0x4C6 JUMPI PUSH1 0x20 PUSH1 0x40 MLOAD PUSH1 0x0 DUP2 MSTORE RETURN JUMPDEST CALLVALUE PUSH2 0x4C6 JUMPI PUSH1 0x40 CALLDATASIZE PUSH1 0x3 NOT ADD SLT PUSH2 0x4C6 JUMPI PUSH2 0x1FCC PUSH2 0x4B0 JUMP JUMPDEST PUSH1 0x24 CALLDATALOAD SWAP1 DUP2 ISZERO ISZERO SWAP1 DUP2 DUP4 SUB PUSH2 0x4C6 JUMPI PUSH1 0x1 PUSH1 0x1 PUSH1 0xA0 SHL SUB DUP2 AND SWAP3 DUP4 ISZERO PUSH2 0x2057 JUMPI PUSH2 0x2018 PUSH2 0x2029 SWAP3 CALLER PUSH1 0x0 MSTORE PUSH1 0x1 PUSH1 0x20 MSTORE PUSH1 0x40 PUSH1 0x0 KECCAK256 SWAP1 PUSH1 0x1 DUP1 PUSH1 0xA0 SHL SUB AND PUSH1 0x0 MSTORE PUSH1 0x20 MSTORE PUSH1 0x40 PUSH1 0x0 KECCAK256 SWAP1 JUMP JUMPDEST SWAP1 PUSH1 0xFF DUP1 NOT DUP4 SLOAD AND SWAP2 ISZERO ISZERO AND OR SWAP1 SSTORE JUMP JUMPDEST PUSH1 0x40 MLOAD SWAP1 DUP2 MSTORE PUSH32 0x17307EAB39AB6107E8899845AD3D59BD9653F200F220920489CA2B5937696C31 PUSH1 0x20 CALLER SWAP3 LOG3 STOP JUMPDEST PUSH1 0x40 MLOAD PUSH3 0xCED3E1 PUSH1 0xE8 SHL DUP2 MSTORE PUSH1 0x0 PUSH1 0x4 DUP3 ADD MSTORE PUSH1 0x24 SWAP1 REVERT JUMPDEST CALLVALUE PUSH2 0x4C6 JUMPI PUSH1 0x0 CALLDATASIZE PUSH1 0x3 NOT ADD SLT PUSH2 0x4C6 JUMPI PUSH1 0x20 PUSH1 0x40 MLOAD PUSH2 0x3E8 DUP2 MSTORE RETURN JUMPDEST CALLVALUE PUSH2 0x4C6 JUMPI PUSH1 0x20 CALLDATASIZE PUSH1 0x3 NOT ADD SLT PUSH2 0x4C6 JUMPI PUSH1 0x4 CALLDATALOAD PUSH1 0x0 MSTORE PUSH1 0x3 PUSH1 0x20 MSTORE PUSH1 0x20 PUSH1 0x40 PUSH1 0x0 KECCAK256 SLOAD PUSH1 0x40 MLOAD SWAP1 DUP2 MSTORE RETURN JUMPDEST CALLVALUE PUSH2 0x4C6 JUMPI PUSH1 0x0 CALLDATASIZE PUSH1 0x3 NOT ADD SLT PUSH2 0x4C6 JUMPI PUSH1 0x20 PUSH1 0xA SLOAD PUSH1 0x40 MLOAD SWAP1 DUP2 MSTORE RETURN JUMPDEST CALLVALUE PUSH2 0x4C6 JUMPI PUSH1 0x20 CALLDATASIZE PUSH1 0x3 NOT ADD SLT PUSH2 0x4C6 JUMPI PUSH1 0x20 PUSH2 0x17F2 PUSH1 0x4 CALLDATALOAD PUSH2 0x2E36 JUMP JUMPDEST CALLVALUE PUSH2 0x4C6 JUMPI PUSH1 0x20 CALLDATASIZE PUSH1 0x3 NOT ADD SLT PUSH2 0x4C6 JUMPI PUSH1 0x4 CALLDATALOAD PUSH2 0x2110 PUSH2 0x302E JUMP JUMPDEST DUP1 PUSH1 0x0 MSTORE PUSH1 0x9 PUSH1 0x20 MSTORE PUSH1 0x40 PUSH1 0x0 KECCAK256 PUSH1 0x7 DUP2 ADD PUSH1 0xFF DUP2 SLOAD PUSH2 0x2134 DUP3 DUP3 PUSH1 0x8 SHR AND PUSH2 0x2C85 JUMP JUMPDEST PUSH1 0x10 SHR AND PUSH2 0x2196 JUMPI PUSH2 0x2186 PUSH1 0x4 PUSH32 0xB00CD7DB2CF318388D4984A9842FF206B7CF7BC273A58F12701F29755B3CA941 SWAP4 PUSH2 0x217B PUSH2 0xA76 SWAP5 PUSH3 0x10000 PUSH3 0xFF0000 NOT DUP3 SLOAD AND OR SWAP1 SSTORE JUMP JUMPDEST ADD SLOAD PUSH2 0x1C1C DUP6 PUSH2 0x2E36 JUMP JUMPDEST PUSH1 0x40 MLOAD SWAP1 DUP2 MSTORE SWAP1 DUP2 SWAP1 PUSH1 0x20 DUP3 ADD SWAP1 JUMP JUMPDEST PUSH1 0x40 MLOAD PUSH3 0x461BCD PUSH1 0xE5 SHL DUP2 MSTORE PUSH1 0x20 PUSH1 0x4 DUP3 ADD MSTORE PUSH1 0xE PUSH1 0x24 DUP3 ADD MSTORE PUSH14 0x105B1C9958591E48199D5B991959 PUSH1 0x92 SHL PUSH1 0x44 DUP3 ADD MSTORE PUSH1 0x64 SWAP1 REVERT JUMPDEST CALLVALUE PUSH2 0x4C6 JUMPI PUSH1 0x0 CALLDATASIZE PUSH1 0x3 NOT ADD SLT PUSH2 0x4C6 JUMPI PUSH1 0x20 PUSH1 0x40 MLOAD PUSH2 0x7530 DUP2 MSTORE RETURN JUMPDEST CALLVALUE PUSH2 0x4C6 JUMPI PUSH1 0x0 CALLDATASIZE PUSH1 0x3 NOT ADD SLT PUSH2 0x4C6 JUMPI PUSH1 0x20 PUSH1 0x8 SLOAD PUSH1 0x40 MLOAD SWAP1 DUP2 MSTORE RETURN JUMPDEST CALLVALUE PUSH2 0x4C6 JUMPI PUSH1 0x0 CALLDATASIZE PUSH1 0x3 NOT ADD SLT PUSH2 0x4C6 JUMPI PUSH1 0x20 PUSH1 0x40 MLOAD PUSH2 0xFA0 DUP2 MSTORE RETURN JUMPDEST CALLVALUE PUSH2 0x4C6 JUMPI PUSH1 0x0 CALLDATASIZE PUSH1 0x3 NOT ADD SLT PUSH2 0x4C6 JUMPI PUSH1 0x20 PUSH1 0x40 MLOAD PUSH32 0x9F2DF0FED2C77648DE5860A4CC508CD0818C85B8B8A1AB4CEEEF8D981C8956A6 DUP2 MSTORE RETURN JUMPDEST CALLVALUE PUSH2 0x4C6 JUMPI PUSH1 0x40 CALLDATASIZE PUSH1 0x3 NOT ADD SLT PUSH2 0x4C6 JUMPI PUSH2 0xCF3 PUSH1 0x4 CALLDATALOAD PUSH2 0x227E PUSH2 0x4CB JUMP JUMPDEST SWAP1 DUP1 PUSH1 0x0 MSTORE PUSH1 0x5 PUSH1 0x20 MSTORE PUSH2 0x2299 PUSH1 0x1 PUSH1 0x40 PUSH1 0x0 KECCAK256 ADD SLOAD PUSH2 0x3086 JUMP JUMPDEST PUSH2 0x3141 JUMP JUMPDEST CALLVALUE PUSH2 0x4C6 JUMPI PUSH1 0x40 CALLDATASIZE PUSH1 0x3 NOT ADD SLT PUSH2 0x4C6 JUMPI PUSH1 0x4 DUP1 CALLDATALOAD PUSH2 0x22BB PUSH2 0x4CB JUMP JUMPDEST PUSH1 0x0 SWAP3 SWAP1 DUP4 JUMPDEST PUSH1 0xFF DUP6 AND PUSH1 0x3 DUP2 GT PUSH2 0x1C49 JUMPI DUP4 DUP2 LT ISZERO PUSH2 0x230E JUMPI PUSH2 0x2308 SWAP2 PUSH2 0x1C22 PUSH2 0x158E DUP4 PUSH2 0x1C1C PUSH2 0x1C15 PUSH2 0x2302 SWAP7 PUSH2 0x1C10 DUP11 PUSH2 0x1DF3 DUP15 PUSH1 0x0 MSTORE PUSH1 0xF PUSH1 0x20 MSTORE PUSH1 0x40 PUSH1 0x0 KECCAK256 SWAP1 JUMP JUMPDEST SWAP5 PUSH2 0x2CC7 JUMP JUMPDEST SWAP4 PUSH2 0x22C1 JUMP JUMPDEST PUSH1 0x21 DUP5 PUSH4 0x4E487B71 PUSH1 0xE0 SHL PUSH1 0x0 MSTORE MSTORE PUSH1 0x24 PUSH1 0x0 REVERT JUMPDEST CALLVALUE PUSH2 0x4C6 JUMPI PUSH1 0x0 CALLDATASIZE PUSH1 0x3 NOT ADD SLT PUSH2 0x4C6 JUMPI PUSH1 0x20 PUSH1 0x40 MLOAD PUSH32 0x65D7A28E3265B37A6474929F336521B332C1681B933F6CB9F3376673440D862A DUP2 MSTORE RETURN JUMPDEST CALLVALUE PUSH2 0x4C6 JUMPI PUSH1 0x40 CALLDATASIZE PUSH1 0x3 NOT ADD SLT PUSH2 0x4C6 JUMPI PUSH1 0x20 PUSH1 0xFF PUSH2 0x1EF6 PUSH2 0x237E PUSH2 0x4B0 JUMP JUMPDEST PUSH2 0x2386 PUSH2 0x4CB JUMP JUMPDEST PUSH1 0x1 PUSH1 0x1 PUSH1 0xA0 SHL SUB SWAP2 DUP3 AND PUSH1 0x0 SWAP1 DUP2 MSTORE PUSH1 0x1 DUP7 MSTORE PUSH1 0x40 DUP1 DUP3 KECCAK256 SWAP3 SWAP1 SWAP4 AND DUP2 MSTORE PUSH1 0x20 SWAP2 SWAP1 SWAP2 MSTORE KECCAK256 SWAP1 JUMP JUMPDEST PUSH1 0x20 DUP2 ADD SWAP3 SWAP2 PUSH2 0xB72 SWAP2 SWAP1 PUSH2 0xDB4 JUMP JUMPDEST CALLVALUE PUSH2 0x4C6 JUMPI PUSH1 0x20 CALLDATASIZE PUSH1 0x3 NOT ADD SLT PUSH2 0x4C6 JUMPI PUSH1 0x1 PUSH1 0x1 PUSH1 0xA0 SHL SUB PUSH2 0x23E0 PUSH2 0x4B0 JUMP JUMPDEST AND PUSH1 0x0 MSTORE PUSH1 0xE PUSH1 0x20 MSTORE PUSH1 0x20 PUSH1 0xFF PUSH1 0x40 PUSH1 0x0 KECCAK256 SLOAD AND PUSH2 0x2401 PUSH1 0x40 MLOAD DUP1 SWAP3 PUSH2 0xDB4 JUMP JUMPDEST RETURN JUMPDEST CALLVALUE PUSH2 0x4C6 JUMPI PUSH1 0xA0 CALLDATASIZE PUSH1 0x3 NOT ADD SLT PUSH2 0x4C6 JUMPI PUSH2 0x241C PUSH2 0x4B0 JUMP JUMPDEST PUSH2 0x2424 PUSH2 0x4CB JUMP JUMPDEST PUSH1 0x84 CALLDATALOAD PUSH1 0x1 PUSH1 0x1 PUSH1 0x40 SHL SUB DUP2 GT PUSH2 0x4C6 JUMPI PUSH2 0x2443 SWAP1 CALLDATASIZE SWAP1 PUSH1 0x4 ADD PUSH2 0xC06 JUMP JUMPDEST SWAP1 PUSH1 0x1 PUSH1 0x1 PUSH1 0xA0 SHL SUB DUP4 DUP2 AND SWAP1 CALLER DUP3 EQ ISZERO DUP1 PUSH2 0x24E4 JUMPI JUMPDEST PUSH2 0x24BD JUMPI DUP3 AND ISZERO PUSH2 0x24A4 JUMPI ISZERO PUSH2 0x1767 JUMPI PUSH2 0xCF3 SWAP3 PUSH2 0x249C PUSH1 0x64 CALLDATALOAD PUSH1 0x44 CALLDATALOAD SWAP2 PUSH1 0x40 MLOAD SWAP3 PUSH1 0x1 DUP5 MSTORE PUSH1 0x20 DUP5 ADD MSTORE PUSH1 0x40 DUP4 ADD SWAP2 PUSH1 0x1 DUP4 MSTORE PUSH1 0x60 DUP5 ADD MSTORE PUSH1 0x80 DUP4 ADD PUSH1 0x40 MSTORE JUMP JUMPDEST SWAP3 SWAP1 SWAP2 PUSH2 0x37F6 JUMP JUMPDEST PUSH1 0x40 MLOAD PUSH4 0x2BFA23E7 PUSH1 0xE1 SHL DUP2 MSTORE PUSH1 0x0 PUSH1 0x4 DUP3 ADD MSTORE PUSH1 0x24 SWAP1 REVERT JUMPDEST PUSH1 0x40 MLOAD PUSH4 0x711BEC91 PUSH1 0xE1 SHL DUP2 MSTORE CALLER PUSH1 0x4 DUP3 ADD MSTORE PUSH1 0x1 PUSH1 0x1 PUSH1 0xA0 SHL SUB DUP7 AND PUSH1 0x24 DUP3 ADD MSTORE PUSH1 0x44 SWAP1 REVERT JUMPDEST POP PUSH1 0x0 DUP3 DUP2 MSTORE PUSH1 0x1 PUSH1 0x20 SWAP1 DUP2 MSTORE PUSH1 0x40 DUP1 DUP4 KECCAK256 CALLER DUP5 MSTORE SWAP1 SWAP2 MSTORE SWAP1 KECCAK256 SLOAD PUSH1 0xFF AND ISZERO PUSH2 0x245A JUMP JUMPDEST CALLVALUE PUSH2 0x4C6 JUMPI PUSH1 0x60 CALLDATASIZE PUSH1 0x3 NOT ADD SLT PUSH2 0x4C6 JUMPI PUSH2 0x2521 PUSH2 0x4B0 JUMP JUMPDEST PUSH1 0x1 PUSH1 0x1 PUSH1 0xA0 SHL SUB DUP2 AND CALLER DUP2 EQ ISZERO SWAP1 DUP2 PUSH2 0x2575 JUMPI JUMPDEST POP PUSH2 0x254C JUMPI PUSH2 0xCF3 SWAP1 PUSH1 0x44 CALLDATALOAD SWAP1 PUSH1 0x24 CALLDATALOAD SWAP1 PUSH2 0x31D3 JUMP JUMPDEST PUSH1 0x40 MLOAD PUSH4 0x711BEC91 PUSH1 0xE1 SHL DUP2 MSTORE CALLER PUSH1 0x4 DUP3 ADD MSTORE PUSH1 0x1 PUSH1 0x1 PUSH1 0xA0 SHL SUB SWAP2 SWAP1 SWAP2 AND PUSH1 0x24 DUP3 ADD MSTORE PUSH1 0x44 SWAP1 REVERT JUMPDEST PUSH1 0x0 SWAP1 DUP2 MSTORE PUSH1 0x1 PUSH1 0x20 SWAP1 DUP2 MSTORE PUSH1 0x40 DUP1 DUP4 KECCAK256 CALLER DUP5 MSTORE SWAP1 SWAP2 MSTORE SWAP1 KECCAK256 PUSH1 0xFF SWAP2 POP SLOAD AND ISZERO CODESIZE PUSH2 0x2536 JUMP JUMPDEST SWAP1 PUSH1 0x1 DUP3 DUP2 SHR SWAP3 AND DUP1 ISZERO PUSH2 0x25CB JUMPI JUMPDEST PUSH1 0x20 DUP4 LT EQ PUSH2 0x25B5 JUMPI JUMP JUMPDEST PUSH4 0x4E487B71 PUSH1 0xE0 SHL PUSH1 0x0 MSTORE PUSH1 0x22 PUSH1 0x4 MSTORE PUSH1 0x24 PUSH1 0x0 REVERT JUMPDEST SWAP2 PUSH1 0x7F AND SWAP2 PUSH2 0x25AA JUMP JUMPDEST SWAP1 PUSH1 0x40 MLOAD SWAP2 DUP3 PUSH1 0x0 DUP3 SLOAD PUSH2 0x25E8 DUP2 PUSH2 0x259B JUMP JUMPDEST SWAP1 DUP2 DUP5 MSTORE PUSH1 0x20 SWAP5 PUSH1 0x1 SWAP2 PUSH1 0x1 DUP2 AND SWAP1 DUP2 PUSH1 0x0 EQ PUSH2 0x2656 JUMPI POP PUSH1 0x1 EQ PUSH2 0x2617 JUMPI JUMPDEST POP POP POP PUSH2 0xB72 SWAP3 POP SUB DUP4 PUSH2 0xB44 JUMP JUMPDEST PUSH1 0x0 SWAP1 DUP2 MSTORE DUP6 DUP2 KECCAK256 SWAP6 SWAP4 POP SWAP2 SWAP1 JUMPDEST DUP2 DUP4 LT PUSH2 0x263E JUMPI POP POP PUSH2 0xB72 SWAP4 POP DUP3 ADD ADD CODESIZE DUP1 DUP1 PUSH2 0x2608 JUMP JUMPDEST DUP6 SLOAD DUP9 DUP5 ADD DUP6 ADD MSTORE SWAP5 DUP6 ADD SWAP5 DUP8 SWAP5 POP SWAP2 DUP4 ADD SWAP2 PUSH2 0x2625 JUMP JUMPDEST SWAP3 POP POP POP PUSH2 0xB72 SWAP5 SWAP3 POP PUSH1 0xFF NOT AND DUP3 DUP5 ADD MSTORE ISZERO ISZERO PUSH1 0x5 SHL DUP3 ADD ADD CODESIZE DUP1 DUP1 PUSH2 0x2608 JUMP JUMPDEST SWAP9 SWAP6 SWAP2 PUSH2 0x120 SWAP9 SWAP5 SWAP12 SWAP11 SWAP8 SWAP4 PUSH2 0x26A5 PUSH2 0x26B3 SWAP3 DUP13 PUSH2 0x26D2 SWAP10 SWAP6 PUSH1 0x20 PUSH2 0x140 SWAP3 DUP4 SWAP3 DUP2 MSTORE ADD MSTORE DUP14 ADD SWAP1 PUSH2 0x759 JUMP JUMPDEST SWAP1 DUP12 DUP3 SUB PUSH1 0x40 DUP14 ADD MSTORE PUSH2 0x759 JUMP JUMPDEST SWAP11 PUSH1 0x60 DUP11 ADD MSTORE PUSH1 0x80 DUP10 ADD MSTORE PUSH1 0xA0 DUP9 ADD MSTORE PUSH1 0xC0 DUP8 ADD MSTORE PUSH1 0xE0 DUP7 ADD SWAP1 PUSH2 0xDB4 JUMP JUMPDEST ISZERO ISZERO PUSH2 0x100 DUP5 ADD MSTORE ISZERO ISZERO SWAP2 ADD MSTORE JUMP JUMPDEST CALLVALUE PUSH2 0x4C6 JUMPI PUSH1 0x20 CALLDATASIZE PUSH1 0x3 NOT ADD SLT PUSH2 0x4C6 JUMPI PUSH1 0x4 CALLDATALOAD PUSH1 0x0 MSTORE PUSH1 0x9 PUSH1 0x20 MSTORE PUSH1 0x40 PUSH1 0x0 KECCAK256 DUP1 SLOAD SWAP1 PUSH2 0x7FF PUSH2 0x2714 PUSH1 0x1 DUP4 ADD PUSH2 0x25D5 JUMP JUMPDEST PUSH2 0x2720 PUSH1 0x2 DUP5 ADD PUSH2 0x25D5 JUMP JUMPDEST SWAP3 PUSH1 0x3 DUP2 ADD SLOAD SWAP5 PUSH1 0x4 DUP3 ADD SLOAD SWAP2 PUSH1 0x5 DUP2 ADD SLOAD PUSH1 0x7 PUSH1 0x6 DUP4 ADD SLOAD SWAP3 ADD SLOAD SWAP4 PUSH1 0x40 MLOAD SWAP9 DUP10 SWAP9 PUSH1 0xFF DUP8 PUSH1 0x10 SHR AND SWAP8 PUSH1 0xFF DUP1 DUP10 PUSH1 0x8 SHR AND SWAP9 AND SWAP7 DUP12 PUSH2 0x2678 JUMP JUMPDEST CALLVALUE PUSH2 0x4C6 JUMPI PUSH1 0x0 CALLDATASIZE PUSH1 0x3 NOT ADD SLT PUSH2 0x4C6 JUMPI PUSH1 0x20 PUSH1 0x40 MLOAD PUSH2 0x30D4 DUP2 MSTORE RETURN JUMPDEST CALLVALUE PUSH2 0x4C6 JUMPI PUSH1 0x40 CALLDATASIZE PUSH1 0x3 NOT ADD SLT PUSH2 0x4C6 JUMPI PUSH2 0x2792 PUSH2 0x4B0 JUMP JUMPDEST PUSH32 0x101006801E3B4B14D09186F508BD7A78C4D24598DD6126863425D0350503FB02 PUSH2 0xA76 PUSH1 0x24 CALLDATALOAD SWAP3 PUSH2 0x27C2 PUSH2 0x2EC8 JUMP JUMPDEST PUSH1 0x1 DUP1 PUSH1 0xA0 SHL SUB AND SWAP3 DUP4 PUSH1 0x0 MSTORE PUSH1 0x12 PUSH1 0x20 MSTORE DUP1 PUSH1 0x40 PUSH1 0x0 KECCAK256 SSTORE PUSH1 0x13 PUSH1 0x20 MSTORE TIMESTAMP PUSH1 0x40 PUSH1 0x0 KECCAK256 SSTORE PUSH1 0x40 MLOAD SWAP2 DUP3 SWAP2 TIMESTAMP DUP4 PUSH1 0x20 SWAP1 SWAP4 SWAP3 SWAP2 SWAP4 PUSH1 0x40 DUP2 ADD SWAP5 DUP2 MSTORE ADD MSTORE JUMP JUMPDEST CALLVALUE PUSH2 0x4C6 JUMPI PUSH1 0x20 CALLDATASIZE PUSH1 0x3 NOT ADD SLT PUSH2 0x4C6 JUMPI PUSH32 0xFAB5BCBEC79A8B5888E114FD4B378427AA58D9B237D85056F0EE5B3EA57DF8C5 PUSH1 0x20 PUSH1 0x4 CALLDATALOAD PUSH2 0x2840 PUSH2 0x2FD6 JUMP JUMPDEST DUP1 PUSH1 0x8 SSTORE PUSH1 0x40 MLOAD SWAP1 DUP2 MSTORE LOG1 STOP JUMPDEST SWAP1 PUSH1 0x4 DUP2 LT ISZERO PUSH2 0x6F9 JUMPI PUSH1 0xFF DUP1 NOT DUP4 SLOAD AND SWAP2 AND OR SWAP1 SSTORE JUMP JUMPDEST PUSH1 0x4 DUP3 LT ISZERO PUSH2 0x6F9 JUMPI MSTORE JUMP JUMPDEST SWAP2 SWAP3 PUSH1 0x60 SWAP4 DUP2 SWAP3 DUP5 MSTORE PUSH1 0x40 PUSH1 0x20 DUP6 ADD MSTORE DUP2 PUSH1 0x40 DUP6 ADD MSTORE DUP5 DUP5 ADD CALLDATACOPY PUSH1 0x0 DUP3 DUP3 ADD DUP5 ADD MSTORE PUSH1 0x1F ADD PUSH1 0x1F NOT AND ADD ADD SWAP1 JUMP JUMPDEST PUSH4 0x4E487B71 PUSH1 0xE0 SHL PUSH1 0x0 MSTORE PUSH1 0x32 PUSH1 0x4 MSTORE PUSH1 0x24 PUSH1 0x0 REVERT JUMPDEST DUP1 MLOAD DUP3 LT ISZERO PUSH2 0x28C9 JUMPI PUSH1 0x20 SWAP2 PUSH1 0x5 SHL ADD ADD SWAP1 JUMP JUMPDEST PUSH2 0x289F JUMP JUMPDEST SWAP2 SWAP1 SWAP2 DUP1 MLOAD DUP4 MLOAD DUP1 DUP3 SUB PUSH2 0x296B JUMPI POP POP DUP1 MLOAD SWAP1 PUSH2 0x2903 PUSH2 0x28ED DUP4 PUSH2 0xB74 JUMP JUMPDEST SWAP3 PUSH2 0x28FB PUSH1 0x40 MLOAD SWAP5 DUP6 PUSH2 0xB44 JUMP JUMPDEST DUP1 DUP5 MSTORE PUSH2 0xB74 JUMP JUMPDEST PUSH1 0x20 SWAP2 SWAP1 PUSH1 0x1F NOT ADD CALLDATASIZE DUP5 DUP5 ADD CALLDATACOPY PUSH1 0x0 JUMPDEST DUP2 MLOAD DUP2 LT ISZERO PUSH2 0x2963 JUMPI PUSH1 0x5 DUP2 SWAP1 SHL DUP3 DUP2 ADD DUP5 ADD MLOAD SWAP1 DUP8 ADD DUP5 ADD MLOAD PUSH1 0x0 SWAP1 DUP2 MSTORE PUSH1 0x20 DUP2 DUP2 MSTORE PUSH1 0x40 DUP1 DUP4 KECCAK256 PUSH1 0x1 PUSH1 0x1 PUSH1 0xA0 SHL SUB SWAP1 SWAP5 AND DUP4 MSTORE SWAP3 SWAP1 MSTORE KECCAK256 SLOAD PUSH1 0x1 SWAP2 SWAP1 PUSH2 0x295C DUP3 DUP8 PUSH2 0x28B5 JUMP JUMPDEST MSTORE ADD PUSH2 0x2913 JUMP JUMPDEST POP SWAP2 SWAP4 POP POP POP JUMP JUMPDEST PUSH1 0x40 MLOAD PUSH4 0x5B059991 PUSH1 0xE0 SHL DUP2 MSTORE PUSH1 0x4 DUP2 ADD SWAP2 SWAP1 SWAP2 MSTORE PUSH1 0x24 DUP2 ADD SWAP2 SWAP1 SWAP2 MSTORE PUSH1 0x44 SWAP1 REVERT JUMPDEST PUSH4 0x4E487B71 PUSH1 0xE0 SHL PUSH1 0x0 MSTORE PUSH1 0x11 PUSH1 0x4 MSTORE PUSH1 0x24 PUSH1 0x0 REVERT JUMPDEST PUSH1 0x0 NOT DUP2 EQ PUSH2 0x29B2 JUMPI PUSH1 0x1 ADD SWAP1 JUMP JUMPDEST PUSH2 0x298D JUMP JUMPDEST SWAP2 SWAP1 DUP3 ADD DUP1 SWAP3 GT PUSH2 0x29B2 JUMPI JUMP JUMPDEST SWAP1 PUSH1 0x1F DUP2 GT PUSH2 0x29D2 JUMPI POP POP POP JUMP JUMPDEST PUSH1 0x0 SWAP2 PUSH1 0x0 MSTORE PUSH1 0x20 PUSH1 0x0 KECCAK256 SWAP1 PUSH1 0x20 PUSH1 0x1F DUP6 ADD PUSH1 0x5 SHR DUP4 ADD SWAP5 LT PUSH2 0x2A10 JUMPI JUMPDEST PUSH1 0x1F ADD PUSH1 0x5 SHR ADD SWAP2 JUMPDEST DUP3 DUP2 LT PUSH2 0x2A05 JUMPI POP POP POP JUMP JUMPDEST DUP2 DUP2 SSTORE PUSH1 0x1 ADD PUSH2 0x29F9 JUMP JUMPDEST SWAP1 SWAP3 POP DUP3 SWAP1 PUSH2 0x29F0 JUMP JUMPDEST SWAP2 SWAP1 SWAP2 DUP3 MLOAD PUSH1 0x1 PUSH1 0x1 PUSH1 0x40 SHL SUB DUP2 GT PUSH2 0xB24 JUMPI PUSH2 0x2A41 DUP2 PUSH2 0x2A3B DUP5 SLOAD PUSH2 0x259B JUMP JUMPDEST DUP5 PUSH2 0x29C4 JUMP JUMPDEST PUSH1 0x20 DUP1 PUSH1 0x1F DUP4 GT PUSH1 0x1 EQ PUSH2 0x2A84 JUMPI POP DUP2 SWAP1 PUSH2 0x2A75 SWAP4 SWAP5 SWAP6 PUSH1 0x0 SWAP3 PUSH2 0x2A79 JUMPI JUMPDEST POP POP DUP2 PUSH1 0x1 SHL SWAP2 PUSH1 0x0 NOT SWAP1 PUSH1 0x3 SHL SHR NOT AND OR SWAP1 JUMP JUMPDEST SWAP1 SSTORE JUMP JUMPDEST ADD MLOAD SWAP1 POP CODESIZE DUP1 PUSH2 0x2A60 JUMP JUMPDEST SWAP1 PUSH1 0x1F NOT DUP4 AND SWAP6 PUSH2 0x2A9A DUP6 PUSH1 0x0 MSTORE PUSH1 0x20 PUSH1 0x0 KECCAK256 SWAP1 JUMP JUMPDEST SWAP3 PUSH1 0x0 SWAP1 JUMPDEST DUP9 DUP3 LT PUSH2 0x2AD7 JUMPI POP POP DUP4 PUSH1 0x1 SWAP6 SWAP7 SWAP8 LT PUSH2 0x2ABE JUMPI JUMPDEST POP POP POP DUP2 SHL ADD SWAP1 SSTORE JUMP JUMPDEST ADD MLOAD PUSH1 0x0 NOT PUSH1 0xF8 DUP5 PUSH1 0x3 SHL AND SHR NOT AND SWAP1 SSTORE CODESIZE DUP1 DUP1 PUSH2 0x2AB4 JUMP JUMPDEST DUP1 PUSH1 0x1 DUP6 SWAP7 DUP3 SWAP5 SWAP7 DUP7 ADD MLOAD DUP2 SSTORE ADD SWAP6 ADD SWAP4 ADD SWAP1 PUSH2 0x2A9F JUMP JUMPDEST SWAP1 PUSH2 0x2B91 PUSH2 0x120 PUSH1 0x7 PUSH2 0xB72 SWAP5 DUP5 MLOAD DUP2 SSTORE PUSH2 0x2B11 PUSH1 0x20 DUP7 ADD MLOAD PUSH1 0x1 DUP4 ADD PUSH2 0x2A1A JUMP JUMPDEST PUSH2 0x2B22 PUSH1 0x40 DUP7 ADD MLOAD PUSH1 0x2 DUP4 ADD PUSH2 0x2A1A JUMP JUMPDEST PUSH1 0x60 DUP6 ADD MLOAD PUSH1 0x3 DUP3 ADD SSTORE PUSH1 0x80 DUP6 ADD MLOAD PUSH1 0x4 DUP3 ADD SSTORE PUSH1 0xA0 DUP6 ADD MLOAD PUSH1 0x5 DUP3 ADD SSTORE PUSH1 0xC0 DUP6 ADD MLOAD PUSH1 0x6 DUP3 ADD SSTORE ADD SWAP3 PUSH2 0x2B63 PUSH1 0xE0 DUP3 ADD MLOAD PUSH2 0x2B5D DUP2 PUSH2 0x6EF JUMP JUMPDEST DUP6 PUSH2 0x284D JUMP JUMPDEST PUSH2 0x2B8A PUSH2 0x2B74 PUSH2 0x100 DUP4 ADD MLOAD ISZERO ISZERO SWAP1 JUMP JUMPDEST DUP6 SLOAD PUSH2 0xFF00 NOT AND SWAP1 ISZERO ISZERO PUSH1 0x8 SHL PUSH2 0xFF00 AND OR DUP6 SSTORE JUMP JUMPDEST ADD MLOAD ISZERO ISZERO SWAP1 JUMP JUMPDEST DUP2 SLOAD PUSH3 0xFF0000 NOT AND SWAP1 ISZERO ISZERO PUSH1 0x10 SHL PUSH3 0xFF0000 AND OR SWAP1 SSTORE JUMP JUMPDEST SWAP1 PUSH2 0xFA0 SWAP2 DUP3 DUP2 MUL SWAP3 DUP2 DUP5 DIV EQ SWAP1 ISZERO OR ISZERO PUSH2 0x29B2 JUMPI JUMP JUMPDEST SWAP1 PUSH2 0xBB8 SWAP2 DUP3 DUP2 MUL SWAP3 DUP2 DUP5 DIV EQ SWAP1 ISZERO OR ISZERO PUSH2 0x29B2 JUMPI JUMP JUMPDEST SWAP1 PUSH2 0x7D0 SWAP2 DUP3 DUP2 MUL SWAP3 DUP2 DUP5 DIV EQ SWAP1 ISZERO OR ISZERO PUSH2 0x29B2 JUMPI JUMP JUMPDEST SWAP1 PUSH2 0x3E8 SWAP2 DUP3 DUP2 MUL SWAP3 DUP2 DUP5 DIV EQ SWAP1 ISZERO OR ISZERO PUSH2 0x29B2 JUMPI JUMP JUMPDEST DUP2 DUP2 MUL SWAP3 SWAP2 DUP2 ISZERO SWAP2 DUP5 DIV EQ OR ISZERO PUSH2 0x29B2 JUMPI JUMP JUMPDEST PUSH2 0x2C30 PUSH1 0x40 SWAP3 SWAP6 SWAP5 SWAP4 SWAP6 PUSH1 0x60 DUP4 MSTORE PUSH1 0x60 DUP4 ADD SWAP1 PUSH2 0x759 JUMP JUMPDEST SWAP5 PUSH1 0x20 DUP3 ADD MSTORE ADD MSTORE JUMP JUMPDEST PUSH1 0x4 DUP2 LT ISZERO PUSH2 0x6F9 JUMPI DUP1 ISZERO PUSH2 0x2C7E JUMPI PUSH2 0x2C52 DUP2 PUSH2 0x6EF JUMP JUMPDEST PUSH1 0x1 DUP2 EQ PUSH2 0x2C77 JUMPI DUP1 PUSH2 0x2C66 PUSH1 0x2 SWAP3 PUSH2 0x6EF JUMP JUMPDEST EQ PUSH2 0x2C71 JUMPI PUSH2 0x1D4C SWAP1 JUMP JUMPDEST PUSH2 0x2710 SWAP1 JUMP JUMPDEST POP PUSH2 0x30D4 SWAP1 JUMP JUMPDEST POP PUSH2 0x3A98 SWAP1 JUMP JUMPDEST ISZERO PUSH2 0x2C8C JUMPI JUMP JUMPDEST PUSH1 0x40 MLOAD PUSH3 0x461BCD PUSH1 0xE5 SHL DUP2 MSTORE PUSH1 0x20 PUSH1 0x4 DUP3 ADD MSTORE PUSH1 0x13 PUSH1 0x24 DUP3 ADD MSTORE PUSH19 0x50726F7065727479206E6F7420616374697665 PUSH1 0x68 SHL PUSH1 0x44 DUP3 ADD MSTORE PUSH1 0x64 SWAP1 REVERT JUMPDEST PUSH1 0xFF AND PUSH1 0xFF DUP2 EQ PUSH2 0x29B2 JUMPI PUSH1 0x1 ADD SWAP1 JUMP JUMPDEST PUSH1 0xFF AND PUSH1 0x4 DUP2 LT ISZERO PUSH2 0x6F9 JUMPI SWAP1 JUMP JUMPDEST ISZERO PUSH2 0x2CEE JUMPI JUMP JUMPDEST PUSH1 0x40 MLOAD PUSH3 0x461BCD PUSH1 0xE5 SHL DUP2 MSTORE PUSH1 0x20 PUSH1 0x4 DUP3 ADD MSTORE PUSH1 0x15 PUSH1 0x24 DUP3 ADD MSTORE PUSH21 0x109D5E595C881B9BDD081DDA1A5D195B1A5CDD1959 PUSH1 0x5A SHL PUSH1 0x44 DUP3 ADD MSTORE PUSH1 0x64 SWAP1 REVERT JUMPDEST ISZERO PUSH2 0x2D32 JUMPI JUMP JUMPDEST PUSH1 0x40 MLOAD PUSH3 0x461BCD PUSH1 0xE5 SHL DUP2 MSTORE PUSH1 0x20 PUSH1 0x4 DUP3 ADD MSTORE PUSH1 0xE PUSH1 0x24 DUP3 ADD MSTORE PUSH14 0x119D5B991A5B99C818DB1BDCD959 PUSH1 0x92 SHL PUSH1 0x44 DUP3 ADD MSTORE PUSH1 0x64 SWAP1 REVERT JUMPDEST ISZERO PUSH2 0x2D6F JUMPI JUMP JUMPDEST PUSH1 0x40 MLOAD PUSH3 0x461BCD PUSH1 0xE5 SHL DUP2 MSTORE PUSH1 0x20 PUSH1 0x4 DUP3 ADD MSTORE PUSH1 0x1E PUSH1 0x24 DUP3 ADD MSTORE PUSH32 0x4E6F7420656C696769626C6520666F722063757272656E742070686173650000 PUSH1 0x44 DUP3 ADD MSTORE PUSH1 0x64 SWAP1 REVERT JUMPDEST SWAP2 SWAP1 DUP3 SUB SWAP2 DUP3 GT PUSH2 0x29B2 JUMPI JUMP JUMPDEST ISZERO PUSH2 0x2DC8 JUMPI JUMP JUMPDEST PUSH1 0x40 MLOAD PUSH3 0x461BCD PUSH1 0xE5 SHL DUP2 MSTORE PUSH1 0x20 PUSH1 0x4 DUP3 ADD MSTORE PUSH1 0x18 PUSH1 0x24 DUP3 ADD MSTORE PUSH32 0x4578636565647320706861736520616C6C6F636174696F6E0000000000000000 PUSH1 0x44 DUP3 ADD MSTORE PUSH1 0x64 SWAP1 REVERT JUMPDEST PUSH1 0x40 MLOAD SWAP1 PUSH2 0x2E1A DUP3 PUSH2 0xB29 JUMP JUMPDEST PUSH1 0x0 DUP3 MSTORE JUMP JUMPDEST SWAP1 DUP2 MSTORE PUSH1 0x40 DUP2 ADD SWAP3 SWAP2 PUSH2 0xB72 SWAP2 PUSH1 0x20 ADD SWAP1 PUSH2 0xDB4 JUMP JUMPDEST PUSH1 0x0 MSTORE PUSH1 0x9 PUSH1 0x20 MSTORE PUSH1 0xFF PUSH1 0x7 PUSH1 0x40 PUSH1 0x0 KECCAK256 ADD SLOAD PUSH2 0x2E57 DUP3 DUP3 PUSH1 0x8 SHR AND PUSH2 0x2C85 JUMP JUMPDEST AND PUSH2 0x2E61 DUP2 PUSH2 0x6EF JUMP JUMPDEST DUP1 PUSH2 0x2E7B JUMPI POP PUSH2 0x2710 PUSH2 0x2E77 DUP2 JUMPDEST PUSH1 0x8 SLOAD PUSH2 0x2C05 JUMP JUMPDEST DIV SWAP1 JUMP JUMPDEST PUSH2 0x2E84 DUP2 PUSH2 0x6EF JUMP JUMPDEST PUSH1 0x1 DUP2 SUB PUSH2 0x2E9B JUMPI POP PUSH2 0x2710 PUSH2 0x2E77 PUSH2 0x3A98 PUSH2 0x2E6F JUMP JUMPDEST DUP1 PUSH2 0x2EA7 PUSH1 0x2 SWAP3 PUSH2 0x6EF JUMP JUMPDEST SUB PUSH2 0x2EBA JUMPI PUSH2 0x2710 PUSH2 0x2E77 PUSH2 0x57E4 PUSH2 0x2E6F JUMP JUMPDEST PUSH2 0x2710 PUSH2 0x2E77 PUSH2 0x7530 PUSH2 0x2E6F JUMP JUMPDEST CALLER PUSH1 0x0 SWAP1 DUP2 MSTORE PUSH32 0x294BB43E882F8724B7AE88344D047A41612B98EE139A78F923B3689F3CC274B1 PUSH1 0x20 MSTORE PUSH1 0x40 SWAP1 KECCAK256 PUSH32 0x28F5A99355973CC89255B8C4AC88405F27C78DED7608B040EE77A8BDF44D15E2 SWAP1 PUSH1 0xFF SWAP1 JUMPDEST SLOAD AND ISZERO PUSH2 0x1A57 JUMPI POP JUMP JUMPDEST CALLER PUSH1 0x0 SWAP1 DUP2 MSTORE PUSH32 0x847F481F687BEFB06ED3511F1A8DCEF57E83007C0147AE5047583D7056170937 PUSH1 0x20 MSTORE PUSH1 0x40 SWAP1 KECCAK256 PUSH32 0x3C11D16CBAFFD01DF69CE1C404F6340EE057498F5F00246190EA54220576A848 SWAP1 PUSH1 0xFF SWAP1 PUSH2 0x2F1C JUMP JUMPDEST CALLER PUSH1 0x0 SWAP1 DUP2 MSTORE PUSH32 0x99F2891DB7A8DB76249871A02B43B68C0BB8F22EF8A3BC1034AE9375EF6B7C3C PUSH1 0x20 MSTORE PUSH1 0x40 SWAP1 KECCAK256 PUSH32 0x65D7A28E3265B37A6474929F336521B332C1681B933F6CB9F3376673440D862A SWAP1 PUSH1 0xFF SWAP1 PUSH2 0x2F1C JUMP JUMPDEST CALLER PUSH1 0x0 SWAP1 DUP2 MSTORE PUSH32 0x5B8CCBB9D4D8FB16EA74CE3C29A41F1B461FBDAFF4714A0D9A8EB05499746BC PUSH1 0x20 MSTORE PUSH1 0x40 SWAP1 KECCAK256 SLOAD PUSH1 0xFF AND ISZERO PUSH2 0x300F JUMPI JUMP JUMPDEST PUSH1 0x40 MLOAD PUSH4 0xE2517D3F PUSH1 0xE0 SHL DUP2 MSTORE CALLER PUSH1 0x4 DUP3 ADD MSTORE PUSH1 0x0 PUSH1 0x24 DUP3 ADD MSTORE PUSH1 0x44 SWAP1 REVERT JUMPDEST CALLER PUSH1 0x0 SWAP1 DUP2 MSTORE PUSH32 0x15A28D26FA1BF736CF7EDC9922607171CCB09C3C73B808E7772A3013E068A522 PUSH1 0x20 MSTORE PUSH1 0x40 SWAP1 KECCAK256 PUSH32 0x9F2DF0FED2C77648DE5860A4CC508CD0818C85B8B8A1AB4CEEEF8D981C8956A6 SWAP1 PUSH1 0xFF SWAP1 PUSH2 0x2F1C JUMP JUMPDEST PUSH1 0x0 DUP2 DUP2 MSTORE PUSH1 0x5 PUSH1 0x20 SWAP1 DUP2 MSTORE PUSH1 0x40 DUP1 DUP4 KECCAK256 CALLER DUP5 MSTORE SWAP1 SWAP2 MSTORE SWAP1 KECCAK256 PUSH1 0xFF SWAP1 PUSH2 0x2F1C JUMP JUMPDEST PUSH1 0x0 SWAP1 DUP1 DUP3 MSTORE PUSH1 0x5 PUSH1 0x20 MSTORE PUSH1 0xFF PUSH2 0x30D3 DUP5 PUSH1 0x40 DUP6 KECCAK256 SWAP1 PUSH1 0x1 DUP1 PUSH1 0xA0 SHL SUB AND PUSH1 0x0 MSTORE PUSH1 0x20 MSTORE PUSH1 0x40 PUSH1 0x0 KECCAK256 SWAP1 JUMP JUMPDEST SLOAD AND PUSH2 0x313B JUMPI DUP1 DUP3 MSTORE PUSH1 0x5 PUSH1 0x20 SWAP1 DUP2 MSTORE PUSH1 0x40 DUP1 DUP5 KECCAK256 PUSH1 0x1 PUSH1 0x1 PUSH1 0xA0 SHL SUB DUP7 AND PUSH1 0x0 SWAP1 DUP2 MSTORE SWAP3 MSTORE SWAP1 KECCAK256 DUP1 SLOAD PUSH1 0xFF NOT AND PUSH1 0x1 OR SWAP1 SSTORE CALLER SWAP3 PUSH1 0x1 PUSH1 0x1 PUSH1 0xA0 SHL SUB AND SWAP2 PUSH32 0x2F8788117E7EFF1D82E926EC794901D17C78024A50270940304540A733656F0D SWAP1 DUP1 LOG4 PUSH1 0x1 SWAP1 JUMP JUMPDEST POP SWAP1 POP SWAP1 JUMP JUMPDEST PUSH1 0x0 SWAP1 DUP1 DUP3 MSTORE PUSH1 0x5 PUSH1 0x20 MSTORE PUSH1 0xFF PUSH2 0x316D DUP5 PUSH1 0x40 DUP6 KECCAK256 SWAP1 PUSH1 0x1 DUP1 PUSH1 0xA0 SHL SUB AND PUSH1 0x0 MSTORE PUSH1 0x20 MSTORE PUSH1 0x40 PUSH1 0x0 KECCAK256 SWAP1 JUMP JUMPDEST SLOAD AND ISZERO PUSH2 0x313B JUMPI DUP1 DUP3 MSTORE PUSH1 0x5 PUSH1 0x20 SWAP1 DUP2 MSTORE PUSH1 0x40 DUP1 DUP5 KECCAK256 PUSH1 0x1 PUSH1 0x1 PUSH1 0xA0 SHL SUB DUP7 AND PUSH1 0x0 SWAP1 DUP2 MSTORE SWAP3 MSTORE SWAP1 KECCAK256 DUP1 SLOAD PUSH1 0xFF NOT AND SWAP1 SSTORE CALLER SWAP3 PUSH1 0x1 PUSH1 0x1 PUSH1 0xA0 SHL SUB AND SWAP2 PUSH32 0xF6391F5C32D9C69D2A47EA670B442974B53935D1EDC7FD64EB21E047A839171B SWAP1 DUP1 LOG4 PUSH1 0x1 SWAP1 JUMP JUMPDEST SWAP3 SWAP2 PUSH1 0x1 PUSH1 0x1 PUSH1 0xA0 SHL SUB DUP5 AND SWAP2 SWAP1 DUP3 ISZERO PUSH2 0x1767 JUMPI PUSH2 0x3213 SWAP2 SWAP5 SWAP4 SWAP5 SWAP2 PUSH1 0x40 MLOAD SWAP3 PUSH1 0x1 DUP5 MSTORE PUSH1 0x20 DUP5 ADD MSTORE PUSH1 0x40 DUP4 ADD SWAP2 PUSH1 0x1 DUP4 MSTORE PUSH1 0x60 DUP5 ADD MSTORE PUSH1 0x80 DUP4 ADD PUSH1 0x40 MSTORE JUMP JUMPDEST SWAP3 SWAP1 SWAP4 PUSH1 0x40 SWAP3 PUSH1 0x40 MLOAD SWAP6 PUSH2 0x3226 DUP8 PUSH2 0xB29 JUMP JUMPDEST PUSH1 0x0 DUP1 SWAP8 MSTORE PUSH2 0x3233 PUSH2 0x349F JUMP JUMPDEST PUSH1 0x0 SWAP6 JUMPDEST DUP2 MLOAD DUP8 LT ISZERO PUSH2 0x33B7 JUMPI PUSH2 0x324A DUP8 DUP4 PUSH2 0x28B5 JUMP JUMPDEST MLOAD SWAP2 PUSH2 0x3256 DUP9 DUP4 PUSH2 0x28B5 JUMP JUMPDEST MLOAD SWAP5 DUP10 JUMPDEST PUSH1 0xFF DUP2 AND PUSH1 0x3 DUP2 GT ISZERO DUP1 PUSH2 0x33AE JUMPI JUMPDEST ISZERO PUSH2 0x3393 JUMPI DUP1 PUSH2 0x3279 DUP11 SWAP3 PUSH2 0x6EF JUMP JUMPDEST DUP11 DUP14 PUSH2 0x3297 DUP4 PUSH2 0x1C10 DUP7 PUSH2 0x1DF3 DUP14 PUSH1 0x0 MSTORE PUSH1 0xF PUSH1 0x20 MSTORE PUSH1 0x40 PUSH1 0x0 KECCAK256 SWAP1 JUMP JUMPDEST SLOAD SWAP1 DUP2 PUSH2 0x32B2 JUMPI JUMPDEST POP POP POP POP POP PUSH2 0x32AD SWAP1 PUSH2 0x2CC7 JUMP JUMPDEST PUSH2 0x325A JUMP JUMPDEST PUSH32 0x79FA03C4F76E383F2EB3D51F38E9DAA7AF8429E8573F8C1BB7D6103E878E3564 PUSH2 0x3371 PUSH2 0x3379 SWAP7 SWAP6 PUSH2 0x32AD SWAP9 SWAP15 SWAP6 DUP15 SWAP6 DUP15 SWAP6 POP DUP3 DUP9 DUP3 GT PUSH1 0x0 EQ PUSH2 0x3386 JUMPI PUSH2 0x3310 SWAP2 POP PUSH2 0x1C10 DUP10 SWAP11 JUMPDEST PUSH2 0x1DF3 DUP10 PUSH1 0x0 MSTORE PUSH1 0xF PUSH1 0x20 MSTORE PUSH1 0x40 PUSH1 0x0 KECCAK256 SWAP1 JUMP JUMPDEST PUSH2 0x331B DUP10 DUP3 SLOAD PUSH2 0x2DB4 JUMP JUMPDEST SWAP1 SSTORE PUSH1 0x4 PUSH2 0x3333 DUP7 PUSH1 0x0 MSTORE PUSH1 0x9 PUSH1 0x20 MSTORE PUSH1 0x40 PUSH1 0x0 KECCAK256 SWAP1 JUMP JUMPDEST ADD PUSH2 0x333F DUP10 DUP3 SLOAD PUSH2 0x2DB4 JUMP JUMPDEST SWAP1 SSTORE PUSH2 0x3359 DUP3 PUSH2 0x1C10 DUP8 PUSH1 0x0 MSTORE PUSH1 0xC PUSH1 0x20 MSTORE PUSH1 0x40 PUSH1 0x0 KECCAK256 SWAP1 JUMP JUMPDEST PUSH2 0x3364 DUP10 DUP3 SLOAD PUSH2 0x2DB4 JUMP JUMPDEST SWAP1 SSTORE MLOAD SWAP2 DUP3 SWAP2 DUP9 DUP4 PUSH2 0x2E20 JUMP JUMPDEST SUB SWAP1 LOG3 PUSH2 0x2DB4 JUMP JUMPDEST SWAP7 SWAP1 POP DUP8 CODESIZE DUP11 DUP2 DUP15 PUSH2 0x329F JUMP JUMPDEST PUSH2 0x1C10 PUSH2 0x3310 SWAP3 SWAP11 PUSH2 0x32FC JUMP JUMPDEST POP POP SWAP8 SWAP1 SWAP3 POP PUSH2 0x33A6 PUSH1 0x1 SWAP3 SWAP6 ISZERO PUSH2 0x3B7D JUMP JUMPDEST ADD SWAP6 SWAP3 PUSH2 0x3237 JUMP JUMPDEST POP DUP8 ISZERO ISZERO PUSH2 0x3269 JUMP JUMPDEST SWAP5 POP SWAP3 SWAP2 SWAP6 POP POP PUSH2 0xB72 SWAP4 POP PUSH2 0x3EFD JUMP JUMPDEST PUSH1 0xFF PUSH1 0x1 SWAP2 AND ADD SWAP1 PUSH1 0xFF DUP3 GT PUSH2 0x29B2 JUMPI JUMP JUMPDEST DUP1 PUSH1 0x0 MSTORE PUSH1 0x9 PUSH1 0x20 MSTORE PUSH1 0x7 PUSH1 0x40 PUSH1 0x0 KECCAK256 ADD PUSH1 0xFF DUP2 SLOAD PUSH2 0x33FD DUP3 DUP3 PUSH1 0x8 SHR AND PUSH2 0x2C85 JUMP JUMPDEST AND SWAP1 PUSH1 0x4 DUP3 LT ISZERO PUSH2 0x6F9 JUMPI PUSH1 0x3 DUP3 LT ISZERO PUSH2 0x3461 JUMPI PUSH2 0xA6A PUSH2 0x345C SWAP2 PUSH2 0x1CA2 PUSH2 0x3456 PUSH2 0x3451 DUP7 PUSH2 0x344C PUSH32 0xA92C850BB09D5AFA4A6230F4866FAD10264C6FEA20047156B39E3E24C5763AD4 SWAP9 PUSH2 0x6EF JUMP JUMPDEST PUSH2 0x33C8 JUMP JUMPDEST PUSH2 0x2CD8 JUMP JUMPDEST DUP3 PUSH2 0x284D JUMP JUMPDEST SUB SWAP1 LOG2 JUMP JUMPDEST PUSH1 0x40 MLOAD PUSH3 0x461BCD PUSH1 0xE5 SHL DUP2 MSTORE PUSH1 0x20 PUSH1 0x4 DUP3 ADD MSTORE PUSH1 0x16 PUSH1 0x24 DUP3 ADD MSTORE PUSH22 0x416C72656164792061742066696E616C207068617365 PUSH1 0x50 SHL PUSH1 0x44 DUP3 ADD MSTORE PUSH1 0x64 SWAP1 REVERT JUMPDEST PUSH1 0xFF PUSH1 0x6 SLOAD AND PUSH2 0x34AB JUMPI JUMP JUMPDEST PUSH1 0x40 MLOAD PUSH4 0xD93C0665 PUSH1 0xE0 SHL DUP2 MSTORE PUSH1 0x4 SWAP1 REVERT JUMPDEST SWAP4 SWAP2 PUSH1 0x1 PUSH1 0x1 PUSH1 0xA0 SHL SUB DUP6 AND ISZERO PUSH2 0x24A4 JUMPI PUSH2 0x34F5 PUSH1 0x40 MLOAD SWAP3 PUSH1 0x1 DUP5 MSTORE PUSH1 0x20 DUP5 ADD MSTORE PUSH1 0x40 DUP4 ADD SWAP2 PUSH1 0x1 DUP4 MSTORE PUSH1 0x60 DUP5 ADD MSTORE PUSH1 0x80 DUP4 ADD PUSH1 0x40 MSTORE JUMP JUMPDEST SWAP1 SWAP2 PUSH2 0x34FF PUSH2 0x349F JUMP JUMPDEST PUSH2 0x350A DUP3 DUP5 DUP8 PUSH2 0x4087 JUMP JUMPDEST PUSH1 0x0 SWAP5 DUP6 JUMPDEST DUP5 MLOAD DUP8 LT ISZERO PUSH2 0x3562 JUMPI PUSH2 0x355A PUSH1 0x1 SWAP2 PUSH2 0x3528 DUP10 DUP8 PUSH2 0x28B5 JUMP JUMPDEST MLOAD SWAP1 PUSH2 0x3548 PUSH2 0x3537 DUP12 DUP11 PUSH2 0x28B5 JUMP JUMPDEST MLOAD PUSH1 0x0 MSTORE PUSH1 0x3 PUSH1 0x20 MSTORE PUSH1 0x40 PUSH1 0x0 KECCAK256 SWAP1 JUMP JUMPDEST PUSH2 0x3553 DUP4 DUP3 SLOAD PUSH2 0x29B7 JUMP JUMPDEST SWAP1 SSTORE PUSH2 0x29B7 JUMP JUMPDEST SWAP7 ADD SWAP6 PUSH2 0x350F JUMP JUMPDEST PUSH2 0x357C SWAP2 SWAP6 SWAP5 SWAP3 SWAP7 POP PUSH2 0x3577 SWAP1 PUSH1 0x4 SLOAD PUSH2 0x29B7 JUMP JUMPDEST PUSH1 0x4 SSTORE JUMP JUMPDEST DUP1 MLOAD PUSH1 0x1 SUB PUSH2 0x359A JUMPI SWAP1 PUSH1 0x20 DUP1 PUSH2 0xB72 SWAP6 SWAP4 ADD MLOAD SWAP2 ADD MLOAD SWAP2 CALLER PUSH2 0x3E91 JUMP JUMPDEST PUSH2 0xB72 SWAP4 CALLER PUSH2 0x3C97 JUMP JUMPDEST PUSH2 0x35AC PUSH2 0x349F JUMP JUMPDEST PUSH1 0x1 PUSH1 0x1 PUSH1 0xA0 SHL SUB DUP2 AND DUP1 ISZERO ISZERO DUP1 DUP1 PUSH2 0x37EE JUMPI JUMPDEST PUSH2 0x375B JUMPI JUMPDEST PUSH2 0x35D6 JUMPI JUMPDEST POP SWAP1 PUSH2 0xB72 SWAP3 SWAP2 PUSH2 0x3EFD JUMP JUMPDEST PUSH1 0x0 SWAP5 SWAP3 SWAP4 SWAP5 SWAP3 JUMPDEST DUP5 MLOAD DUP5 LT ISZERO PUSH2 0x374D JUMPI PUSH2 0x35F1 DUP5 DUP7 PUSH2 0x28B5 JUMP JUMPDEST MLOAD SWAP5 PUSH2 0x35FD DUP6 DUP9 PUSH2 0x28B5 JUMP JUMPDEST MLOAD SWAP7 PUSH1 0x0 JUMPDEST PUSH1 0xFF DUP2 AND PUSH1 0x3 DUP2 GT ISZERO DUP1 PUSH2 0x3744 JUMPI JUMPDEST ISZERO PUSH2 0x3725 JUMPI PUSH2 0x361F DUP2 PUSH2 0x6EF JUMP JUMPDEST PUSH2 0x363B DUP2 PUSH2 0x1C10 DUP10 PUSH2 0x1DF3 DUP14 PUSH1 0x0 MSTORE PUSH1 0xF PUSH1 0x20 MSTORE PUSH1 0x40 PUSH1 0x0 KECCAK256 SWAP1 JUMP JUMPDEST SLOAD DUP1 PUSH2 0x3652 JUMPI JUMPDEST POP POP PUSH2 0x364D SWAP1 PUSH2 0x2CC7 JUMP JUMPDEST PUSH2 0x3602 JUMP JUMPDEST PUSH2 0x364D SWAP3 SWAP11 DUP8 DUP12 PUSH32 0x79FA03C4F76E383F2EB3D51F38E9DAA7AF8429E8573F8C1BB7D6103E878E3564 PUSH2 0x3371 PUSH2 0x3710 SWAP7 DUP14 SWAP7 DUP2 DUP8 DUP3 GT PUSH1 0x0 EQ PUSH2 0x3718 JUMPI PUSH2 0x36AD SWAP2 POP PUSH2 0x1C10 DUP9 SWAP10 JUMPDEST PUSH2 0x1DF3 DUP9 PUSH1 0x0 MSTORE PUSH1 0xF PUSH1 0x20 MSTORE PUSH1 0x40 PUSH1 0x0 KECCAK256 SWAP1 JUMP JUMPDEST PUSH2 0x36B8 DUP9 DUP3 SLOAD PUSH2 0x2DB4 JUMP JUMPDEST SWAP1 SSTORE PUSH1 0x4 PUSH2 0x36D0 DUP6 PUSH1 0x0 MSTORE PUSH1 0x9 PUSH1 0x20 MSTORE PUSH1 0x40 PUSH1 0x0 KECCAK256 SWAP1 JUMP JUMPDEST ADD PUSH2 0x36DC DUP9 DUP3 SLOAD PUSH2 0x2DB4 JUMP JUMPDEST SWAP1 SSTORE PUSH2 0x36F6 DUP2 PUSH2 0x1C10 DUP7 PUSH1 0x0 MSTORE PUSH1 0xC PUSH1 0x20 MSTORE PUSH1 0x40 PUSH1 0x0 KECCAK256 SWAP1 JUMP JUMPDEST PUSH2 0x3701 DUP9 DUP3 SLOAD PUSH2 0x2DB4 JUMP JUMPDEST SWAP1 SSTORE PUSH1 0x40 MLOAD SWAP2 DUP3 SWAP2 DUP9 DUP4 PUSH2 0x2E20 JUMP JUMPDEST SWAP9 SWAP1 CODESIZE PUSH2 0x3642 JUMP JUMPDEST PUSH2 0x1C10 PUSH2 0x36AD SWAP3 SWAP10 PUSH2 0x3699 JUMP JUMPDEST POP POP SWAP6 POP SWAP2 SWAP6 SWAP4 PUSH2 0x3739 PUSH1 0x1 SWAP3 SWAP6 ISZERO PUSH2 0x3B7D JUMP JUMPDEST ADD SWAP3 SWAP5 SWAP1 SWAP4 SWAP5 PUSH2 0x35DE JUMP JUMPDEST POP DUP10 ISZERO ISZERO PUSH2 0x3611 JUMP JUMPDEST SWAP5 SWAP4 SWAP3 POP PUSH2 0xB72 SWAP1 POP PUSH2 0x35CA JUMP JUMPDEST SWAP4 SWAP2 SWAP1 PUSH1 0x0 JUMPDEST DUP5 MLOAD DUP2 LT ISZERO PUSH2 0x37A9 JUMPI DUP1 PUSH2 0x37A3 PUSH2 0x379E PUSH1 0x7 PUSH2 0x3793 PUSH2 0x3782 PUSH1 0x1 SWAP7 DUP12 PUSH2 0x28B5 JUMP JUMPDEST MLOAD PUSH1 0x0 MSTORE PUSH1 0x9 PUSH1 0x20 MSTORE PUSH1 0x40 PUSH1 0x0 KECCAK256 SWAP1 JUMP JUMPDEST ADD SLOAD PUSH1 0x10 SHR PUSH1 0xFF AND SWAP1 JUMP JUMPDEST PUSH2 0x3AE5 JUMP JUMPDEST ADD PUSH2 0x3761 JUMP JUMPDEST POP PUSH1 0x0 DUP1 MSTORE PUSH1 0xD PUSH1 0x20 MSTORE SWAP2 SWAP4 SWAP1 SWAP2 SWAP1 PUSH2 0x37E9 PUSH2 0x37E4 PUSH32 0x81955A0A11E65EAC625C29E8882660BAE4E165A75D72780094ACAE8ECE9A29EE PUSH2 0x1CA2 JUMP JUMPDEST PUSH2 0x3B31 JUMP JUMPDEST PUSH2 0x35C5 JUMP JUMPDEST POP PUSH1 0x0 PUSH2 0x35C0 JUMP JUMPDEST SWAP2 SWAP4 SWAP3 SWAP1 PUSH2 0x3802 PUSH2 0x349F JUMP JUMPDEST PUSH1 0x1 PUSH1 0x1 PUSH1 0xA0 SHL SUB DUP4 DUP2 AND DUP1 ISZERO ISZERO DUP1 DUP1 PUSH2 0x3A5E JUMPI JUMPDEST PUSH2 0x39FE JUMPI JUMPDEST PUSH2 0x3873 JUMPI JUMPDEST POP PUSH2 0x382E DUP4 DUP8 DUP5 DUP8 PUSH2 0x3FAE JUMP JUMPDEST DUP2 AND PUSH2 0x383C JUMPI JUMPDEST POP POP POP POP POP JUMP JUMPDEST DUP5 MLOAD PUSH1 0x1 SUB PUSH2 0x3862 JUMPI PUSH1 0x20 DUP1 PUSH2 0x3858 SWAP7 ADD MLOAD SWAP3 ADD MLOAD SWAP3 CALLER PUSH2 0x3EC6 JUMP JUMPDEST CODESIZE DUP1 DUP1 DUP1 DUP1 PUSH2 0x3835 JUMP JUMPDEST PUSH2 0x386E SWAP5 SWAP2 SWAP3 CALLER PUSH2 0x3D92 JUMP JUMPDEST PUSH2 0x3858 JUMP JUMPDEST SWAP2 SWAP7 SWAP6 PUSH1 0x0 SWAP6 SWAP2 SWAP6 SWAP7 JUMPDEST DUP2 MLOAD DUP9 LT ISZERO PUSH2 0x39F2 JUMPI PUSH2 0x3890 DUP9 DUP4 PUSH2 0x28B5 JUMP JUMPDEST MLOAD SWAP3 PUSH2 0x389C DUP10 DUP8 PUSH2 0x28B5 JUMP JUMPDEST MLOAD SWAP6 PUSH1 0x0 JUMPDEST PUSH1 0xFF DUP2 AND DUP13 PUSH1 0x3 DUP3 GT ISZERO DUP1 PUSH2 0x39E9 JUMPI JUMPDEST ISZERO PUSH2 0x39C9 JUMPI SWAP1 DUP11 SWAP2 DUP13 PUSH2 0x38DF DUP4 PUSH2 0x1C10 DUP7 PUSH2 0x1DF3 DUP15 PUSH2 0x38CF DUP6 PUSH2 0x6EF JUMP JUMPDEST PUSH1 0x0 MSTORE PUSH1 0xF PUSH1 0x20 MSTORE PUSH1 0x40 PUSH1 0x0 KECCAK256 SWAP1 JUMP JUMPDEST SLOAD DUP1 PUSH2 0x38F9 JUMPI JUMPDEST POP POP POP POP POP PUSH2 0x38F4 SWAP1 PUSH2 0x2CC7 JUMP JUMPDEST PUSH2 0x38A1 JUMP JUMPDEST PUSH2 0x3980 SWAP5 SWAP4 PUSH2 0x38F4 SWAP7 SWAP14 SWAP4 DUP14 SWAP4 DUP14 SWAP4 DUP4 DUP8 DUP3 GT PUSH1 0x0 EQ PUSH2 0x39BC JUMPI PUSH2 0x3931 SWAP2 POP PUSH2 0x1C10 DUP9 SWAP10 PUSH2 0x1DF3 DUP9 PUSH1 0x0 MSTORE PUSH1 0xF PUSH1 0x20 MSTORE PUSH1 0x40 PUSH1 0x0 KECCAK256 SWAP1 JUMP JUMPDEST PUSH2 0x393C DUP9 DUP3 SLOAD PUSH2 0x2DB4 JUMP JUMPDEST SWAP1 SSTORE DUP2 AND PUSH2 0x398D JUMPI POP PUSH2 0x3371 PUSH32 0x79FA03C4F76E383F2EB3D51F38E9DAA7AF8429E8573F8C1BB7D6103E878E3564 SWAP2 PUSH1 0x4 PUSH2 0x36D0 DUP6 PUSH1 0x0 MSTORE PUSH1 0x9 PUSH1 0x20 MSTORE PUSH1 0x40 PUSH1 0x0 KECCAK256 SWAP1 JUMP JUMPDEST SWAP8 SWAP1 POP DUP9 CODESIZE DUP14 DUP13 DUP3 PUSH2 0x38E6 JUMP JUMPDEST PUSH2 0x39AA SWAP4 POP PUSH2 0x1DF3 PUSH2 0x1C10 SWAP3 SWAP4 PUSH1 0x0 MSTORE PUSH1 0xF PUSH1 0x20 MSTORE PUSH1 0x40 PUSH1 0x0 KECCAK256 SWAP1 JUMP JUMPDEST PUSH2 0x39B5 DUP4 DUP3 SLOAD PUSH2 0x29B7 JUMP JUMPDEST SWAP1 SSTORE PUSH2 0x2DB4 JUMP JUMPDEST PUSH2 0x1C10 PUSH2 0x3931 SWAP3 SWAP10 PUSH2 0x3699 JUMP JUMPDEST POP POP POP SWAP6 PUSH1 0x1 SWAP3 SWAP4 SWAP5 POP PUSH2 0x39E0 SWAP1 SWAP10 SWAP2 SWAP10 ISZERO PUSH2 0x3B7D JUMP JUMPDEST ADD SWAP7 SWAP2 SWAP1 PUSH2 0x387D JUMP JUMPDEST POP DUP10 ISZERO ISZERO PUSH2 0x38B1 JUMP JUMPDEST SWAP8 SWAP3 POP SWAP6 POP SWAP4 CODESIZE PUSH2 0x3821 JUMP JUMPDEST SWAP8 SWAP6 SWAP5 SWAP4 SWAP3 SWAP2 SWAP1 PUSH1 0x0 JUMPDEST DUP9 MLOAD DUP2 LT ISZERO PUSH2 0x3A2F JUMPI DUP1 PUSH2 0x3A29 PUSH2 0x379E PUSH1 0x7 PUSH2 0x3793 PUSH2 0x3782 PUSH1 0x1 SWAP7 DUP16 PUSH2 0x28B5 JUMP JUMPDEST ADD PUSH2 0x3A08 JUMP JUMPDEST POP SWAP1 SWAP2 SWAP3 SWAP4 SWAP5 SWAP6 SWAP8 PUSH2 0x3A59 PUSH2 0x37E4 PUSH2 0x1CA2 DUP7 PUSH1 0x1 DUP1 PUSH1 0xA0 SHL SUB AND PUSH1 0x0 MSTORE PUSH1 0xD PUSH1 0x20 MSTORE PUSH1 0x40 PUSH1 0x0 KECCAK256 SWAP1 JUMP JUMPDEST PUSH2 0x381C JUMP JUMPDEST POP DUP3 DUP5 AND ISZERO ISZERO PUSH2 0x3817 JUMP JUMPDEST DUP1 PUSH1 0x0 MSTORE PUSH1 0x11 PUSH1 0x20 MSTORE PUSH1 0x40 PUSH1 0x0 KECCAK256 SLOAD ISZERO PUSH1 0x0 EQ PUSH2 0x3ADF JUMPI PUSH1 0x10 SLOAD PUSH9 0x10000000000000000 DUP2 LT ISZERO PUSH2 0xB24 JUMPI PUSH1 0x1 DUP2 ADD DUP1 PUSH1 0x10 SSTORE DUP2 LT ISZERO PUSH2 0x28C9 JUMPI DUP2 SWAP1 PUSH32 0x1B6847DC741A1B0CD08D278845F9D819D87B734759AFB55FE2DE5CB82A9AE672 ADD SSTORE PUSH1 0x10 SLOAD SWAP1 PUSH1 0x0 MSTORE PUSH1 0x11 PUSH1 0x20 MSTORE PUSH1 0x40 PUSH1 0x0 KECCAK256 SSTORE PUSH1 0x1 SWAP1 JUMP JUMPDEST POP PUSH1 0x0 SWAP1 JUMP JUMPDEST ISZERO PUSH2 0x3AEC JUMPI JUMP JUMPDEST PUSH1 0x40 MLOAD PUSH3 0x461BCD PUSH1 0xE5 SHL DUP2 MSTORE PUSH1 0x20 PUSH1 0x4 DUP3 ADD MSTORE PUSH1 0x1F PUSH1 0x24 DUP3 ADD MSTORE PUSH32 0x5472616E7366657273206C6F636B656420647572696E672066756E64696E6700 PUSH1 0x44 DUP3 ADD MSTORE PUSH1 0x64 SWAP1 REVERT JUMPDEST ISZERO PUSH2 0x3B38 JUMPI JUMP JUMPDEST PUSH1 0x40 MLOAD PUSH3 0x461BCD PUSH1 0xE5 SHL DUP2 MSTORE PUSH1 0x20 PUSH1 0x4 DUP3 ADD MSTORE PUSH1 0x19 PUSH1 0x24 DUP3 ADD MSTORE PUSH32 0x526563697069656E74206E6F742077686974656C697374656400000000000000 PUSH1 0x44 DUP3 ADD MSTORE PUSH1 0x64 SWAP1 REVERT JUMPDEST ISZERO PUSH2 0x3B84 JUMPI JUMP JUMPDEST PUSH1 0x40 MLOAD PUSH3 0x461BCD PUSH1 0xE5 SHL DUP2 MSTORE PUSH1 0x20 PUSH1 0x4 DUP3 ADD MSTORE PUSH1 0x23 PUSH1 0x24 DUP3 ADD MSTORE PUSH32 0x496E73756666696369656E742070686173652D747261636B656420686F6C6469 PUSH1 0x44 DUP3 ADD MSTORE PUSH3 0x6E6773 PUSH1 0xE8 SHL PUSH1 0x64 DUP3 ADD MSTORE PUSH1 0x84 SWAP1 REVERT JUMPDEST SWAP1 DUP2 PUSH1 0x20 SWAP2 SUB SLT PUSH2 0x4C6 JUMPI MLOAD PUSH2 0xE62 DUP2 PUSH2 0x5B6 JUMP JUMPDEST SWAP3 PUSH2 0x3C19 PUSH2 0xE62 SWAP6 SWAP4 PUSH2 0x3C27 SWAP4 PUSH1 0x1 DUP1 PUSH1 0xA0 SHL SUB AND DUP7 MSTORE PUSH1 0x0 PUSH1 0x20 DUP8 ADD MSTORE PUSH1 0xA0 PUSH1 0x40 DUP8 ADD MSTORE PUSH1 0xA0 DUP7 ADD SWAP1 PUSH2 0x1261 JUMP JUMPDEST SWAP1 DUP5 DUP3 SUB PUSH1 0x60 DUP7 ADD MSTORE PUSH2 0x1261 JUMP JUMPDEST SWAP2 PUSH1 0x80 DUP2 DUP5 SUB SWAP2 ADD MSTORE PUSH2 0x759 JUMP JUMPDEST SWAP4 SWAP1 PUSH2 0xE62 SWAP6 SWAP4 PUSH2 0x3C19 SWAP2 PUSH2 0x3C27 SWAP5 PUSH1 0x1 DUP1 PUSH1 0xA0 SHL SUB DUP1 SWAP3 AND DUP9 MSTORE AND PUSH1 0x20 DUP8 ADD MSTORE PUSH1 0xA0 PUSH1 0x40 DUP8 ADD MSTORE PUSH1 0xA0 DUP7 ADD SWAP1 PUSH2 0x1261 JUMP JUMPDEST RETURNDATASIZE ISZERO PUSH2 0x3C92 JUMPI RETURNDATASIZE SWAP1 PUSH2 0x3C78 DUP3 PUSH2 0xBEB JUMP JUMPDEST SWAP2 PUSH2 0x3C86 PUSH1 0x40 MLOAD SWAP4 DUP5 PUSH2 0xB44 JUMP JUMPDEST DUP3 MSTORE RETURNDATASIZE PUSH1 0x0 PUSH1 0x20 DUP5 ADD RETURNDATACOPY JUMP JUMPDEST PUSH1 0x60 SWAP1 JUMP JUMPDEST SWAP3 SWAP4 SWAP2 SWAP1 SWAP4 DUP5 EXTCODESIZE PUSH2 0x3CA9 JUMPI POP POP POP POP POP JUMP JUMPDEST PUSH1 0x20 SWAP2 PUSH2 0x3CCC PUSH1 0x40 MLOAD SWAP5 DUP6 SWAP4 DUP5 SWAP4 PUSH4 0xBC197C81 PUSH1 0xE0 SHL SWAP9 DUP10 DUP7 MSTORE PUSH1 0x4 DUP7 ADD PUSH2 0x3BEA JUMP JUMPDEST SUB DUP2 PUSH1 0x0 PUSH1 0x1 PUSH1 0x1 PUSH1 0xA0 SHL SUB DUP9 AND GAS CALL PUSH1 0x0 SWAP2 DUP2 PUSH2 0x3D61 JUMPI JUMPDEST POP PUSH2 0x3D24 JUMPI DUP3 PUSH2 0x3CF3 PUSH2 0x3C67 JUMP JUMPDEST DUP1 MLOAD SWAP2 SWAP1 DUP3 PUSH2 0x3D1D JUMPI PUSH1 0x40 MLOAD PUSH4 0x2BFA23E7 PUSH1 0xE1 SHL DUP2 MSTORE PUSH1 0x1 PUSH1 0x1 PUSH1 0xA0 SHL SUB DUP4 AND PUSH1 0x4 DUP3 ADD MSTORE PUSH1 0x24 SWAP1 REVERT JUMPDEST SWAP1 POP PUSH1 0x20 ADD REVERT JUMPDEST PUSH1 0x1 PUSH1 0x1 PUSH1 0xE0 SHL SUB NOT AND SUB PUSH2 0x3D3E JUMPI POP CODESIZE DUP1 DUP1 DUP1 DUP1 PUSH2 0x3835 JUMP JUMPDEST PUSH1 0x40 MLOAD PUSH4 0x2BFA23E7 PUSH1 0xE1 SHL DUP2 MSTORE PUSH1 0x1 PUSH1 0x1 PUSH1 0xA0 SHL SUB SWAP2 SWAP1 SWAP2 AND PUSH1 0x4 DUP3 ADD MSTORE PUSH1 0x24 SWAP1 REVERT JUMPDEST PUSH2 0x3D84 SWAP2 SWAP3 POP PUSH1 0x20 RETURNDATASIZE PUSH1 0x20 GT PUSH2 0x3D8B JUMPI JUMPDEST PUSH2 0x3D7C DUP2 DUP4 PUSH2 0xB44 JUMP JUMPDEST DUP2 ADD SWAP1 PUSH2 0x3BD5 JUMP JUMPDEST SWAP1 CODESIZE PUSH2 0x3CE5 JUMP JUMPDEST POP RETURNDATASIZE PUSH2 0x3D72 JUMP JUMPDEST SWAP4 SWAP3 SWAP1 SWAP5 SWAP2 SWAP5 DUP6 EXTCODESIZE PUSH2 0x3DA7 JUMPI JUMPDEST POP POP POP POP POP POP JUMP JUMPDEST PUSH2 0x3DCA PUSH1 0x20 SWAP4 PUSH1 0x40 MLOAD SWAP6 DUP7 SWAP5 DUP6 SWAP5 PUSH4 0xBC197C81 PUSH1 0xE0 SHL SWAP10 DUP11 DUP8 MSTORE PUSH1 0x4 DUP8 ADD PUSH2 0x3C35 JUMP JUMPDEST SUB DUP2 PUSH1 0x0 PUSH1 0x1 PUSH1 0x1 PUSH1 0xA0 SHL SUB DUP9 AND GAS CALL PUSH1 0x0 SWAP2 DUP2 PUSH2 0x3E0C JUMPI JUMPDEST POP PUSH2 0x3DF1 JUMPI DUP3 PUSH2 0x3CF3 PUSH2 0x3C67 JUMP JUMPDEST PUSH1 0x1 PUSH1 0x1 PUSH1 0xE0 SHL SUB NOT AND SUB PUSH2 0x3D3E JUMPI POP CODESIZE DUP1 DUP1 DUP1 DUP1 DUP1 PUSH2 0x3D9F JUMP JUMPDEST PUSH2 0x3E26 SWAP2 SWAP3 POP PUSH1 0x20 RETURNDATASIZE PUSH1 0x20 GT PUSH2 0x3D8B JUMPI PUSH2 0x3D7C DUP2 DUP4 PUSH2 0xB44 JUMP JUMPDEST SWAP1 CODESIZE PUSH2 0x3DE3 JUMP JUMPDEST SWAP1 SWAP3 PUSH1 0xA0 SWAP3 PUSH2 0xE62 SWAP6 SWAP5 PUSH1 0x1 DUP1 DUP7 SHL SUB AND DUP4 MSTORE PUSH1 0x0 PUSH1 0x20 DUP5 ADD MSTORE PUSH1 0x40 DUP4 ADD MSTORE PUSH1 0x60 DUP3 ADD MSTORE DUP2 PUSH1 0x80 DUP3 ADD MSTORE ADD SWAP1 PUSH2 0x759 JUMP JUMPDEST SWAP2 SWAP3 PUSH2 0xE62 SWAP6 SWAP5 SWAP2 PUSH1 0xA0 SWAP5 PUSH1 0x1 DUP1 DUP8 SHL SUB DUP1 SWAP3 AND DUP6 MSTORE AND PUSH1 0x20 DUP5 ADD MSTORE PUSH1 0x40 DUP4 ADD MSTORE PUSH1 0x60 DUP3 ADD MSTORE DUP2 PUSH1 0x80 DUP3 ADD MSTORE ADD SWAP1 PUSH2 0x759 JUMP JUMPDEST SWAP3 SWAP4 SWAP2 SWAP1 SWAP4 DUP5 EXTCODESIZE PUSH2 0x3EA3 JUMPI POP POP POP POP POP JUMP JUMPDEST PUSH1 0x20 SWAP2 PUSH2 0x3CCC PUSH1 0x40 MLOAD SWAP5 DUP6 SWAP4 DUP5 SWAP4 PUSH4 0xF23A6E61 PUSH1 0xE0 SHL SWAP9 DUP10 DUP7 MSTORE PUSH1 0x4 DUP7 ADD PUSH2 0x3E2D JUMP JUMPDEST SWAP4 SWAP3 SWAP1 SWAP5 SWAP2 SWAP5 DUP6 EXTCODESIZE PUSH2 0x3EDA JUMPI POP POP POP POP POP POP JUMP JUMPDEST PUSH2 0x3DCA PUSH1 0x20 SWAP4 PUSH1 0x40 MLOAD SWAP6 DUP7 SWAP5 DUP6 SWAP5 PUSH4 0xF23A6E61 PUSH1 0xE0 SHL SWAP10 DUP11 DUP8 MSTORE PUSH1 0x4 DUP8 ADD PUSH2 0x3E5E JUMP JUMPDEST SWAP3 SWAP2 SWAP3 PUSH2 0x3F0B DUP5 DUP4 DUP4 PUSH2 0x41A2 JUMP JUMPDEST PUSH1 0x1 PUSH1 0x1 PUSH1 0xA0 SHL SUB AND ISZERO PUSH2 0x3F64 JUMPI JUMPDEST PUSH1 0x0 DUP1 JUMPDEST DUP3 MLOAD DUP3 LT ISZERO PUSH2 0x3F52 JUMPI PUSH1 0x1 SWAP1 PUSH2 0x3F34 DUP4 DUP8 PUSH2 0x28B5 JUMP JUMPDEST MLOAD SWAP1 PUSH2 0x3F43 PUSH2 0x3537 DUP6 DUP8 PUSH2 0x28B5 JUMP JUMPDEST DUP3 DUP2 SLOAD SUB SWAP1 SSTORE ADD SWAP2 ADD SWAP1 PUSH2 0x3F1E JUMP JUMPDEST SWAP2 POP POP PUSH2 0xB72 SWAP2 SWAP3 POP PUSH1 0x4 SLOAD SUB PUSH1 0x4 SSTORE JUMP JUMPDEST PUSH1 0x0 DUP1 JUMPDEST DUP3 MLOAD DUP3 LT ISZERO PUSH2 0x3F98 JUMPI PUSH2 0x3F90 PUSH1 0x1 SWAP2 PUSH2 0x3F81 DUP5 DUP9 PUSH2 0x28B5 JUMP JUMPDEST MLOAD SWAP1 PUSH2 0x3548 PUSH2 0x3537 DUP7 DUP9 PUSH2 0x28B5 JUMP JUMPDEST SWAP2 ADD SWAP1 PUSH2 0x3F68 JUMP JUMPDEST PUSH2 0x3FA9 SWAP2 POP PUSH2 0x3577 SWAP1 PUSH1 0x4 SLOAD PUSH2 0x29B7 JUMP JUMPDEST PUSH2 0x3F1A JUMP JUMPDEST SWAP1 SWAP4 SWAP3 SWAP4 PUSH2 0x3FBE DUP6 DUP5 DUP4 DUP6 PUSH2 0x4308 JUMP JUMPDEST PUSH1 0x1 PUSH1 0x1 PUSH1 0xA0 SHL SUB SWAP2 DUP3 AND ISZERO PUSH2 0x4012 JUMPI JUMPDEST AND ISZERO PUSH2 0x3FDA JUMPI POP SWAP1 POP JUMP JUMPDEST PUSH1 0x0 DUP1 JUMPDEST DUP3 MLOAD DUP3 LT ISZERO PUSH2 0x3F52 JUMPI PUSH1 0x1 SWAP1 PUSH2 0x3FF4 DUP4 DUP8 PUSH2 0x28B5 JUMP JUMPDEST MLOAD SWAP1 PUSH2 0x4003 PUSH2 0x3537 DUP6 DUP8 PUSH2 0x28B5 JUMP JUMPDEST DUP3 DUP2 SLOAD SUB SWAP1 SSTORE ADD SWAP2 ADD SWAP1 PUSH2 0x3FDE JUMP JUMPDEST SWAP3 PUSH1 0x0 SWAP2 DUP3 JUMPDEST DUP5 MLOAD DUP5 LT ISZERO PUSH2 0x4048 JUMPI PUSH2 0x4040 PUSH1 0x1 SWAP2 PUSH2 0x4031 DUP7 DUP11 PUSH2 0x28B5 JUMP JUMPDEST MLOAD SWAP1 PUSH2 0x3548 PUSH2 0x3537 DUP9 DUP11 PUSH2 0x28B5 JUMP JUMPDEST SWAP4 ADD SWAP3 PUSH2 0x4018 JUMP JUMPDEST PUSH2 0x405D SWAP2 SWAP4 POP PUSH2 0x3577 SWAP1 SWAP6 SWAP3 SWAP6 PUSH1 0x4 SLOAD PUSH2 0x29B7 JUMP JUMPDEST PUSH2 0x3FCF JUMP JUMPDEST SWAP1 SWAP2 PUSH2 0x4079 PUSH2 0xE62 SWAP4 PUSH1 0x40 DUP5 MSTORE PUSH1 0x40 DUP5 ADD SWAP1 PUSH2 0x1261 JUMP JUMPDEST SWAP2 PUSH1 0x20 DUP2 DUP5 SUB SWAP2 ADD MSTORE PUSH2 0x1261 JUMP JUMPDEST SWAP2 SWAP1 SWAP2 DUP3 MLOAD DUP3 MLOAD SWAP1 DUP2 DUP2 SUB PUSH2 0x296B JUMPI POP POP PUSH1 0x0 JUMPDEST DUP4 MLOAD DUP2 LT ISZERO PUSH2 0x4102 JUMPI PUSH1 0x5 DUP2 SWAP1 SHL DUP5 DUP2 ADD PUSH1 0x20 SWAP1 DUP2 ADD MLOAD SWAP2 DUP6 ADD ADD MLOAD PUSH1 0x1 SWAP3 SWAP2 DUP5 SWAP1 PUSH1 0x1 PUSH1 0x1 PUSH1 0xA0 SHL SUB DUP3 AND PUSH2 0x40D5 JUMPI JUMPDEST POP POP POP ADD PUSH2 0x409B JUMP JUMPDEST PUSH2 0x40F8 SWAP2 PUSH2 0x1DF3 PUSH2 0x40F0 SWAP3 PUSH1 0x0 MSTORE PUSH1 0x0 PUSH1 0x20 MSTORE PUSH1 0x40 PUSH1 0x0 KECCAK256 SWAP1 JUMP JUMPDEST SWAP2 DUP3 SLOAD PUSH2 0x29B7 JUMP JUMPDEST SWAP1 SSTORE CODESIZE DUP4 DUP2 PUSH2 0x40CC JUMP JUMPDEST POP SWAP2 PUSH1 0x1 DUP2 MLOAD EQ PUSH1 0x0 EQ PUSH2 0x4163 JUMPI PUSH1 0x20 SWAP1 DUP2 ADD MLOAD SWAP2 DUP2 ADD MLOAD PUSH1 0x40 DUP1 MLOAD SWAP4 DUP5 MSTORE SWAP2 DUP4 ADD MSTORE PUSH1 0x1 PUSH1 0x1 PUSH1 0xA0 SHL SUB SWAP1 SWAP3 AND SWAP2 PUSH1 0x0 SWAP2 CALLER SWAP2 PUSH32 0xC3D58168C5AE7397731D063D5BBF3D657854427343F4C083240F7AACAA2D0F62 SWAP2 SWAP1 DUP2 SWAP1 DUP2 ADD JUMPDEST SUB SWAP1 LOG4 JUMP JUMPDEST PUSH32 0x4A39DC06D4C0DBC64B70AF90FD698A233A518AA5D07E595D983B8C0526C8F7FB PUSH2 0x415E PUSH1 0x0 SWAP4 SWAP5 PUSH1 0x40 MLOAD SWAP2 DUP3 SWAP2 PUSH1 0x1 DUP1 PUSH1 0xA0 SHL SUB AND SWAP7 CALLER SWAP6 DUP4 PUSH2 0x4062 JUMP JUMPDEST SWAP3 SWAP2 SWAP1 DUP1 MLOAD DUP3 MLOAD SWAP1 DUP2 DUP2 SUB PUSH2 0x296B JUMPI POP POP PUSH1 0x0 JUMPDEST DUP2 MLOAD DUP2 LT ISZERO PUSH2 0x4269 JUMPI PUSH1 0x5 DUP2 SWAP1 SHL DUP3 DUP2 ADD PUSH1 0x20 SWAP1 DUP2 ADD MLOAD SWAP2 DUP6 ADD ADD MLOAD PUSH1 0x1 PUSH1 0x1 PUSH1 0xA0 SHL SUB DUP8 AND PUSH2 0x41EB JUMPI JUMPDEST POP POP PUSH1 0x1 ADD PUSH2 0x41B6 JUMP JUMPDEST PUSH2 0x4203 DUP8 PUSH2 0x1DF3 DUP5 PUSH1 0x0 MSTORE PUSH1 0x0 PUSH1 0x20 MSTORE PUSH1 0x40 PUSH1 0x0 KECCAK256 SWAP1 JUMP JUMPDEST SLOAD DUP2 DUP2 LT PUSH2 0x4232 JUMPI DUP8 PUSH2 0x1DF3 PUSH1 0x1 SWAP6 SWAP5 SWAP4 PUSH2 0x422A SWAP4 SUB SWAP4 PUSH1 0x0 MSTORE PUSH1 0x0 PUSH1 0x20 MSTORE PUSH1 0x40 PUSH1 0x0 KECCAK256 SWAP1 JUMP JUMPDEST SSTORE SWAP1 CODESIZE PUSH2 0x41E1 JUMP JUMPDEST PUSH1 0x40 MLOAD PUSH4 0x3DEE4C5 PUSH1 0xE0 SHL DUP2 MSTORE PUSH1 0x1 PUSH1 0x1 PUSH1 0xA0 SHL SUB DUP10 AND PUSH1 0x4 DUP3 ADD MSTORE PUSH1 0x24 DUP2 ADD SWAP2 SWAP1 SWAP2 MSTORE PUSH1 0x44 DUP2 ADD DUP3 SWAP1 MSTORE PUSH1 0x64 DUP2 ADD DUP4 SWAP1 MSTORE PUSH1 0x84 SWAP1 REVERT JUMPDEST POP SWAP1 PUSH1 0x0 SWAP3 SWAP4 SWAP2 PUSH1 0x1 DUP2 MLOAD EQ DUP5 EQ PUSH2 0x42C9 JUMPI PUSH1 0x20 SWAP1 DUP2 ADD MLOAD SWAP2 DUP2 ADD MLOAD PUSH1 0x40 DUP1 MLOAD SWAP4 DUP5 MSTORE SWAP2 DUP4 ADD MSTORE PUSH1 0x1 PUSH1 0x1 PUSH1 0xA0 SHL SUB SWAP1 SWAP3 AND SWAP2 CALLER SWAP2 PUSH32 0xC3D58168C5AE7397731D063D5BBF3D657854427343F4C083240F7AACAA2D0F62 SWAP2 DUP2 SWAP1 DUP2 ADD PUSH2 0x415E JUMP JUMPDEST PUSH1 0x40 MLOAD PUSH1 0x1 PUSH1 0x1 PUSH1 0xA0 SHL SUB SWAP1 SWAP4 AND SWAP3 CALLER SWAP3 PUSH32 0x4A39DC06D4C0DBC64B70AF90FD698A233A518AA5D07E595D983B8C0526C8F7FB SWAP3 DUP3 SWAP2 PUSH2 0x415E SWAP2 DUP4 PUSH2 0x4062 JUMP JUMPDEST SWAP4 SWAP3 SWAP2 DUP1 MLOAD DUP4 MLOAD SWAP1 DUP2 DUP2 SUB PUSH2 0x296B JUMPI POP POP PUSH1 0x0 JUMPDEST DUP2 MLOAD DUP2 LT ISZERO PUSH2 0x440A JUMPI PUSH1 0x5 DUP2 SWAP1 SHL DUP3 DUP2 ADD PUSH1 0x20 SWAP1 DUP2 ADD MLOAD SWAP2 DUP7 ADD ADD MLOAD PUSH1 0x1 PUSH1 0x1 PUSH1 0xA0 SHL SUB SWAP3 SWAP2 DUP6 SWAP1 DUP10 DUP6 AND PUSH2 0x4384 JUMPI JUMPDEST PUSH1 0x1 SWAP5 DUP3 AND PUSH2 0x435F JUMPI JUMPDEST POP POP POP ADD PUSH2 0x431C JUMP JUMPDEST PUSH2 0x437A SWAP2 PUSH2 0x1DF3 PUSH2 0x40F0 SWAP3 PUSH1 0x0 MSTORE PUSH1 0x0 PUSH1 0x20 MSTORE PUSH1 0x40 PUSH1 0x0 KECCAK256 SWAP1 JUMP JUMPDEST SWAP1 SSTORE CODESIZE DUP5 DUP2 PUSH2 0x4356 JUMP JUMPDEST SWAP2 SWAP3 SWAP4 SWAP1 POP PUSH2 0x43A1 DUP10 PUSH2 0x1DF3 DUP5 PUSH1 0x0 MSTORE PUSH1 0x0 PUSH1 0x20 MSTORE PUSH1 0x40 PUSH1 0x0 KECCAK256 SWAP1 JUMP JUMPDEST SLOAD DUP4 DUP2 LT PUSH2 0x43D3 JUMPI SWAP2 DUP7 SWAP2 DUP5 PUSH1 0x1 SWAP7 SWAP6 SWAP5 SUB PUSH2 0x43CB DUP13 PUSH2 0x1DF3 DUP6 PUSH1 0x0 MSTORE PUSH1 0x0 PUSH1 0x20 MSTORE PUSH1 0x40 PUSH1 0x0 KECCAK256 SWAP1 JUMP JUMPDEST SSTORE SWAP5 POP PUSH2 0x434C JUMP JUMPDEST PUSH1 0x40 MLOAD PUSH4 0x3DEE4C5 PUSH1 0xE0 SHL DUP2 MSTORE PUSH1 0x1 PUSH1 0x1 PUSH1 0xA0 SHL SUB DUP12 AND PUSH1 0x4 DUP3 ADD MSTORE PUSH1 0x24 DUP2 ADD SWAP2 SWAP1 SWAP2 MSTORE PUSH1 0x44 DUP2 ADD DUP5 SWAP1 MSTORE PUSH1 0x64 DUP2 ADD DUP4 SWAP1 MSTORE PUSH1 0x84 SWAP1 REVERT JUMPDEST POP DUP1 MLOAD SWAP4 SWAP5 SWAP4 SWAP2 SWAP3 SWAP2 PUSH1 0x1 SUB PUSH2 0x446C JUMPI PUSH1 0x20 SWAP1 DUP2 ADD MLOAD SWAP2 DUP2 ADD MLOAD PUSH1 0x40 DUP1 MLOAD SWAP4 DUP5 MSTORE SWAP2 DUP4 ADD MSTORE PUSH1 0x1 PUSH1 0x1 PUSH1 0xA0 SHL SUB SWAP3 DUP4 AND SWAP4 SWAP1 SWAP3 AND SWAP2 CALLER SWAP2 PUSH32 0xC3D58168C5AE7397731D063D5BBF3D657854427343F4C083240F7AACAA2D0F62 SWAP2 DUP2 SWAP1 DUP2 ADD PUSH2 0x415E JUMP JUMPDEST PUSH1 0x40 MLOAD PUSH1 0x1 PUSH1 0x1 PUSH1 0xA0 SHL SUB SWAP4 DUP5 AND SWAP5 SWAP1 SWAP4 AND SWAP3 CALLER SWAP3 PUSH32 0x4A39DC06D4C0DBC64B70AF90FD698A233A518AA5D07E595D983B8C0526C8F7FB SWAP3 DUP3 SWAP2 PUSH2 0x415E SWAP2 DUP4 PUSH2 0x4062 JUMP INVALID LOG2 PUSH5 0x6970667358 0x22 SLT KECCAK256 POP 0xB0 ADD TSTORE PUSH19 0xA5F1A0FA244C6D94D68356145FE3B1C73DC0E2 ISZERO PUSH8 0xD9B6F626F4EA6473 PUSH16 0x6C634300081800332F8788117E7EFF1D DUP3 0xE9 0x26 0xEC PUSH26 0x4901D17C78024A50270940304540A733656F0D00000000000000 "},"methodIdentifiers":{"BURNER_ROLE()":"282c51f3","COUNTY_ALLOCATION()":"ceadd5b9","COUNTY_MULTIPLIER()":"11dd6cdc","COUNTY_VOTING_MULTIPLIER()":"c7527d08","DEFAULT_ADMIN_ROLE()":"a217fddf","INTERNATIONAL_ALLOCATION()":"a7907f74","INTERNATIONAL_MULTIPLIER()":"c65b6820","INTERNATIONAL_VOTING_MULTIPLIER()":"23067248","MINTER_ROLE()":"d5391393","NATIONAL_ALLOCATION()":"5561c5b3","NATIONAL_MULTIPLIER()":"7ca8c6f1","NATIONAL_VOTING_MULTIPLIER()":"500e9f73","PAUSER_ROLE()":"e63ab1e9","PHASE_ADVANCER_ROLE()":"35894afd","STATE_ALLOCATION()":"5fc68c46","STATE_MULTIPLIER()":"5bbe9f5e","STATE_VOTING_MULTIPLIER()":"f8147a8a","WHITELIST_ADMIN_ROLE()":"54202c4e","addToWhitelist(address,uint8)":"0263b858","addressPhaseEligibility(address)":"edff4969","advancePhase(uint256)":"81aaf4ce","amlCheckIds(address)":"19e76454","autoWhitelist(address,uint8,bytes)":"2632067a","balanceOf(address,uint256)":"00fdd58e","balanceOfBatch(address[],uint256[])":"4e1273f4","basePrice()":"c7876ea4","burn(address,uint256,uint256)":"f5298aca","burnBatch(address,uint256[],uint256[])":"6b20c454","burnFromOnFailure(uint256,address,uint256)":"3bb0b5b6","createComplianceCheckpoint(uint256)":"742c4f4c","createProperty(string,string,uint256,uint256,uint256)":"58567dd5","exists(uint256)":"4f558e79","getAllPropertyIds()":"4ff69e83","getCurrentPrice(uint256)":"c55d0f56","getKYCStatus(address)":"000c8df0","getProperty(uint256)":"32665ffb","getPropertyCount()":"7326b901","getRoleAdmin(bytes32)":"248a9ca3","getTotalWeightedVotingPower(uint256)":"8cdc1e87","getVotingMultiplier(uint8)":"6ce2f91d","getVotingPower(uint256,address)":"dbdad432","grantRole(bytes32,address)":"2f2ff15d","hasRole(bytes32,address)":"91d14854","holdingsByPhase(uint256,address,uint8)":"9ca02763","isApprovedForAll(address,address)":"e985e9c5","kycVerificationIds(address)":"75cfcb3d","kycVerificationTimestamps(address)":"0fbe640f","markFunded(uint256)":"c5666eb2","mintTokens(uint256,address,uint256)":"8d6819be","pause()":"8456cb59","paused()":"5c975abb","phaseAllocations(uint256,uint8)":"6ea99677","phaseMinted(uint256,uint8)":"04fa6173","properties(uint256)":"f7b10808","propertyCount()":"c361a335","propertyExists(uint256)":"4a164732","recordAMLCheck(address,bytes32)":"6e1ffa9b","recordAMLFailure(address,string)":"43cb5413","recordKYCVerification(address,bytes32)":"f918ce1b","removeFromWhitelist(address)":"8ab1d681","renounceRole(bytes32,address)":"36568abe","requestRegulatorAudit(uint256)":"7b667e6f","revokeKYCVerification(address,string)":"847ede74","revokeRole(bytes32,address)":"d547741f","safeBatchTransferFrom(address,address,uint256[],uint256[],bytes)":"2eb2c2d6","safeTransferFrom(address,address,uint256,uint256,bytes)":"f242432a","setApprovalForAll(address,bool)":"a22cb465","supportsInterface(bytes4)":"01ffc9a7","totalSupply()":"18160ddd","totalSupply(uint256)":"bd85b039","unpause()":"3f4ba83a","updateBasePrice(uint256)":"fd5baa88","uri(uint256)":"0e89341c","whitelist(address)":"9b19251a"}}}}}