{"contracts/Escrow.sol":{"Escrow":{"abi":[{"inputs":[{"internalType":"address","name":"_propertyToken","type":"address"}],"stateMutability":"nonpayable","type":"constructor"},{"inputs":[],"name":"AccessControlBadConfirmation","type":"error"},{"inputs":[{"internalType":"address","name":"account","type":"address"},{"internalType":"bytes32","name":"neededRole","type":"bytes32"}],"name":"AccessControlUnauthorizedAccount","type":"error"},{"inputs":[],"name":"EnforcedPause","type":"error"},{"inputs":[],"name":"ExpectedPause","type":"error"},{"inputs":[],"name":"ReentrancyGuardReentrantCall","type":"error"},{"anonymous":false,"inputs":[{"indexed":true,"internalType":"uint256","name":"propertyId","type":"uint256"},{"indexed":true,"internalType":"address","name":"buyer","type":"address"},{"indexed":false,"internalType":"uint256","name":"amount","type":"uint256"},{"indexed":false,"internalType":"uint256","name":"totalPaid","type":"uint256"},{"indexed":false,"internalType":"bytes32","name":"transactionHash","type":"bytes32"}],"name":"CompliancePurchaseRecorded","type":"event"},{"anonymous":false,"inputs":[{"indexed":true,"internalType":"uint256","name":"propertyId","type":"uint256"},{"indexed":false,"internalType":"uint256","name":"totalRaised","type":"uint256"}],"name":"FundingComplete","type":"event"},{"anonymous":false,"inputs":[{"indexed":true,"internalType":"uint256","name":"propertyId","type":"uint256"},{"indexed":false,"internalType":"uint256","name":"totalRaised","type":"uint256"},{"indexed":false,"internalType":"uint256","name":"target","type":"uint256"}],"name":"FundingFailed","type":"event"},{"anonymous":false,"inputs":[{"indexed":true,"internalType":"uint256","name":"propertyId","type":"uint256"},{"indexed":true,"internalType":"address","name":"recipient","type":"address"},{"indexed":false,"internalType":"uint256","name":"amount","type":"uint256"}],"name":"FundsReleased","type":"event"},{"anonymous":false,"inputs":[{"indexed":true,"internalType":"uint256","name":"propertyId","type":"uint256"},{"indexed":true,"internalType":"address","name":"investor","type":"address"},{"indexed":false,"internalType":"uint256","name":"currentContribution","type":"uint256"},{"indexed":false,"internalType":"uint256","name":"newContribution","type":"uint256"},{"indexed":false,"internalType":"bool","name":"withinLimit","type":"bool"}],"name":"InvestorLimitChecked","type":"event"},{"anonymous":false,"inputs":[{"indexed":false,"internalType":"address","name":"account","type":"address"}],"name":"Paused","type":"event"},{"anonymous":false,"inputs":[{"indexed":true,"internalType":"uint256","name":"propertyId","type":"uint256"},{"indexed":true,"internalType":"address","name":"buyer","type":"address"},{"indexed":false,"internalType":"uint256","name":"amount","type":"uint256"},{"indexed":false,"internalType":"uint256","name":"totalPaid","type":"uint256"},{"indexed":false,"internalType":"uint256","name":"timestamp","type":"uint256"}],"name":"PurchaseReceived","type":"event"},{"anonymous":false,"inputs":[{"indexed":true,"internalType":"uint256","name":"propertyId","type":"uint256"},{"indexed":true,"internalType":"address","name":"recipient","type":"address"},{"indexed":false,"internalType":"uint256","name":"principal","type":"uint256"},{"indexed":false,"internalType":"uint256","name":"interest","type":"uint256"},{"indexed":false,"internalType":"uint256","name":"timestamp","type":"uint256"}],"name":"RefundComplianceRecorded","type":"event"},{"anonymous":false,"inputs":[{"indexed":true,"internalType":"uint256","name":"propertyId","type":"uint256"},{"indexed":true,"internalType":"address","name":"buyer","type":"address"},{"indexed":false,"internalType":"uint256","name":"principal","type":"uint256"},{"indexed":false,"internalType":"uint256","name":"interest","type":"uint256"},{"indexed":false,"internalType":"uint256","name":"total","type":"uint256"}],"name":"RefundProcessed","type":"event"},{"anonymous":false,"inputs":[{"indexed":true,"internalType":"bytes32","name":"role","type":"bytes32"},{"indexed":true,"internalType":"bytes32","name":"previousAdminRole","type":"bytes32"},{"indexed":true,"internalType":"bytes32","name":"newAdminRole","type":"bytes32"}],"name":"RoleAdminChanged","type":"event"},{"anonymous":false,"inputs":[{"indexed":true,"internalType":"bytes32","name":"role","type":"bytes32"},{"indexed":true,"internalType":"address","name":"account","type":"address"},{"indexed":true,"internalType":"address","name":"sender","type":"address"}],"name":"RoleGranted","type":"event"},{"anonymous":false,"inputs":[{"indexed":true,"internalType":"bytes32","name":"role","type":"bytes32"},{"indexed":true,"internalType":"address","name":"account","type":"address"},{"indexed":true,"internalType":"address","name":"sender","type":"address"}],"name":"RoleRevoked","type":"event"},{"anonymous":false,"inputs":[{"indexed":true,"internalType":"uint256","name":"propertyId","type":"uint256"},{"indexed":true,"internalType":"address","name":"account","type":"address"},{"indexed":false,"internalType":"string","name":"activityType","type":"string"},{"indexed":false,"internalType":"uint256","name":"timestamp","type":"uint256"}],"name":"SuspiciousActivityReported","type":"event"},{"anonymous":false,"inputs":[{"indexed":false,"internalType":"address","name":"account","type":"address"}],"name":"Unpaused","type":"event"},{"inputs":[],"name":"BASIS_POINTS","outputs":[{"internalType":"uint256","name":"","type":"uint256"}],"stateMutability":"view","type":"function"},{"inputs":[],"name":"DEFAULT_ADMIN_ROLE","outputs":[{"internalType":"bytes32","name":"","type":"bytes32"}],"stateMutability":"view","type":"function"},{"inputs":[],"name":"OPERATOR_ROLE","outputs":[{"internalType":"bytes32","name":"","type":"bytes32"}],"stateMutability":"view","type":"function"},{"inputs":[],"name":"REFUND_APR","outputs":[{"internalType":"uint256","name":"","type":"uint256"}],"stateMutability":"view","type":"function"},{"inputs":[],"name":"SECONDS_PER_YEAR","outputs":[{"internalType":"uint256","name":"","type":"uint256"}],"stateMutability":"view","type":"function"},{"inputs":[{"internalType":"uint256","name":"","type":"uint256"}],"name":"activeProperties","outputs":[{"internalType":"uint256","name":"","type":"uint256"}],"stateMutability":"view","type":"function"},{"inputs":[{"internalType":"uint256","name":"","type":"uint256"},{"internalType":"address","name":"","type":"address"}],"name":"buyerContributions","outputs":[{"internalType":"uint256","name":"","type":"uint256"}],"stateMutability":"view","type":"function"},{"inputs":[{"internalType":"uint256","name":"principal","type":"uint256"},{"internalType":"uint256","name":"investmentTimestamp","type":"uint256"}],"name":"calculateRefund","outputs":[{"internalType":"uint256","name":"","type":"uint256"}],"stateMutability":"view","type":"function"},{"inputs":[{"internalType":"bytes","name":"","type":"bytes"}],"name":"checkUpkeep","outputs":[{"internalType":"bool","name":"upkeepNeeded","type":"bool"},{"internalType":"bytes","name":"performData","type":"bytes"}],"stateMutability":"view","type":"function"},{"inputs":[{"internalType":"uint256","name":"propertyId","type":"uint256"}],"name":"getEscrowStatus","outputs":[{"internalType":"uint256","name":"totalRaised","type":"uint256"},{"internalType":"uint256","name":"fundingTarget","type":"uint256"},{"internalType":"uint256","name":"deadline","type":"uint256"},{"internalType":"bool","name":"isComplete","type":"bool"},{"internalType":"uint256","name":"percentFunded","type":"uint256"}],"stateMutability":"view","type":"function"},{"inputs":[{"internalType":"uint256","name":"propertyId","type":"uint256"},{"internalType":"address","name":"investor","type":"address"}],"name":"getInvestorContribution","outputs":[{"internalType":"uint256","name":"","type":"uint256"}],"stateMutability":"view","type":"function"},{"inputs":[{"internalType":"uint256","name":"propertyId","type":"uint256"}],"name":"getPurchaseCount","outputs":[{"internalType":"uint256","name":"","type":"uint256"}],"stateMutability":"view","type":"function"},{"inputs":[{"internalType":"uint256","name":"propertyId","type":"uint256"},{"internalType":"uint256","name":"index","type":"uint256"}],"name":"getPurchaseForAudit","outputs":[{"internalType":"address","name":"buyer","type":"address"},{"internalType":"uint256","name":"amount","type":"uint256"},{"internalType":"uint256","name":"price","type":"uint256"},{"internalType":"uint256","name":"totalPaid","type":"uint256"},{"internalType":"uint256","name":"timestamp","type":"uint256"},{"internalType":"bool","name":"refunded","type":"bool"}],"stateMutability":"view","type":"function"},{"inputs":[{"internalType":"uint256","name":"propertyId","type":"uint256"}],"name":"getPurchases","outputs":[{"components":[{"internalType":"address","name":"buyer","type":"address"},{"internalType":"uint256","name":"propertyId","type":"uint256"},{"internalType":"uint256","name":"amount","type":"uint256"},{"internalType":"uint256","name":"price","type":"uint256"},{"internalType":"uint256","name":"totalPaid","type":"uint256"},{"internalType":"uint256","name":"timestamp","type":"uint256"},{"internalType":"bool","name":"refunded","type":"bool"}],"internalType":"struct Escrow.Purchase[]","name":"","type":"tuple[]"}],"stateMutability":"view","type":"function"},{"inputs":[{"internalType":"bytes32","name":"role","type":"bytes32"}],"name":"getRoleAdmin","outputs":[{"internalType":"bytes32","name":"","type":"bytes32"}],"stateMutability":"view","type":"function"},{"inputs":[{"internalType":"bytes32","name":"role","type":"bytes32"},{"internalType":"address","name":"account","type":"address"}],"name":"grantRole","outputs":[],"stateMutability":"nonpayable","type":"function"},{"inputs":[{"internalType":"bytes32","name":"role","type":"bytes32"},{"internalType":"address","name":"account","type":"address"}],"name":"hasRole","outputs":[{"internalType":"bool","name":"","type":"bool"}],"stateMutability":"view","type":"function"},{"inputs":[{"internalType":"uint256","name":"propertyId","type":"uint256"},{"internalType":"uint256","name":"fundingTarget","type":"uint256"},{"internalType":"uint256","name":"deadline","type":"uint256"}],"name":"initializeEscrow","outputs":[],"stateMutability":"nonpayable","type":"function"},{"inputs":[{"internalType":"uint256","name":"","type":"uint256"}],"name":"isPropertyActive","outputs":[{"internalType":"bool","name":"","type":"bool"}],"stateMutability":"view","type":"function"},{"inputs":[],"name":"pause","outputs":[],"stateMutability":"nonpayable","type":"function"},{"inputs":[],"name":"paused","outputs":[{"internalType":"bool","name":"","type":"bool"}],"stateMutability":"view","type":"function"},{"inputs":[{"internalType":"bytes","name":"performData","type":"bytes"}],"name":"performUpkeep","outputs":[],"stateMutability":"nonpayable","type":"function"},{"inputs":[{"internalType":"uint256","name":"propertyId","type":"uint256"}],"name":"processRefunds","outputs":[],"stateMutability":"nonpayable","type":"function"},{"inputs":[{"internalType":"uint256","name":"","type":"uint256"}],"name":"propertyEscrows","outputs":[{"internalType":"uint256","name":"totalRaised","type":"uint256"},{"internalType":"uint256","name":"fundingTarget","type":"uint256"},{"internalType":"uint256","name":"deadline","type":"uint256"},{"internalType":"bool","name":"isComplete","type":"bool"},{"internalType":"bool","name":"refundsProcessed","type":"bool"}],"stateMutability":"view","type":"function"},{"inputs":[{"internalType":"uint256","name":"","type":"uint256"},{"internalType":"uint256","name":"","type":"uint256"}],"name":"propertyPurchases","outputs":[{"internalType":"address","name":"buyer","type":"address"},{"internalType":"uint256","name":"propertyId","type":"uint256"},{"internalType":"uint256","name":"amount","type":"uint256"},{"internalType":"uint256","name":"price","type":"uint256"},{"internalType":"uint256","name":"totalPaid","type":"uint256"},{"internalType":"uint256","name":"timestamp","type":"uint256"},{"internalType":"bool","name":"refunded","type":"bool"}],"stateMutability":"view","type":"function"},{"inputs":[],"name":"propertyToken","outputs":[{"internalType":"contract IPropertyToken","name":"","type":"address"}],"stateMutability":"view","type":"function"},{"inputs":[{"internalType":"uint256","name":"propertyId","type":"uint256"},{"internalType":"uint256","name":"amount","type":"uint256"}],"name":"purchase","outputs":[],"stateMutability":"payable","type":"function"},{"inputs":[{"internalType":"uint256","name":"propertyId","type":"uint256"},{"internalType":"address","name":"recipient","type":"address"}],"name":"releaseFunds","outputs":[],"stateMutability":"nonpayable","type":"function"},{"inputs":[{"internalType":"bytes32","name":"role","type":"bytes32"},{"internalType":"address","name":"callerConfirmation","type":"address"}],"name":"renounceRole","outputs":[],"stateMutability":"nonpayable","type":"function"},{"inputs":[{"internalType":"uint256","name":"propertyId","type":"uint256"},{"internalType":"address","name":"account","type":"address"},{"internalType":"string","name":"activityType","type":"string"}],"name":"reportSuspiciousActivity","outputs":[],"stateMutability":"nonpayable","type":"function"},{"inputs":[{"internalType":"bytes32","name":"role","type":"bytes32"},{"internalType":"address","name":"account","type":"address"}],"name":"revokeRole","outputs":[],"stateMutability":"nonpayable","type":"function"},{"inputs":[{"internalType":"bytes4","name":"interfaceId","type":"bytes4"}],"name":"supportsInterface","outputs":[{"internalType":"bool","name":"","type":"bool"}],"stateMutability":"view","type":"function"},{"inputs":[],"name":"unpause","outputs":[],"stateMutability":"nonpayable","type":"function"},{"stateMutability":"payable","type":"receive"}],"evm":{"bytecode":{"linkReferences":{},"object":"608034620000a457601f62001eea38819003918201601f19168301916001600160401b03831184841017620000a957808492602094604052833981010312620000a457516001600160a01b0381168103620000a45760018055600280546001600160a81b03191660089290921b610100600160a81b03169190911790556200008733620000bf565b5062000093336200013f565b50604051611ce89081620001e28239f35b600080fd5b634e487b7160e01b600052604160045260246000fd5b6001600160a01b031660008181527fad3228b676f7d3cd4284a5443f17f1962b36e491b30a40b2405849e597ba5fb5602052604081205490919060ff166200013b57818052816020526040822081835260205260408220600160ff19825416179055339160008051602062001eca8339815191528180a4600190565b5090565b6001600160a01b031660008181527fee57cd81e84075558e8fcc182a1f4393f91fc97f963a136e66b7f949a62f319f60205260408120549091907f97667070c54ef182b0f5858b034beac1b6f3089aa2d3188bb1e8929f4fa9b9299060ff16620001dc57808352826020526040832082845260205260408320600160ff1982541617905560008051602062001eca833981519152339380a4600190565b50509056fe608080604052600436101561001d575b50361561001b57600080fd5b005b60009060e0823560e01c91826301ffc9a7146116a057508163066d4d5e1461152d57816311e2e1751461110b57816314a2873a14611510578163154bb891146114e15781631af23a591461137a5781632430fc3d1461131b578163248a9ca3146112ef5781632f2ff15d146112b2578163345460cd1461120257816336568abe146111ba5781633f4ba83a1461114f57816340a0841b1461110b57816343ae2695146110de5781634585e33b14610fdb57816350e2f0f714610f175781635c975abb14610ef45781636e04ff0d14610e5f5781636f629ed514610ce05750806370876c98146108565780637f42ff64146107aa5780638456cb591461074f5780639093bb201461072557806391d14854146106da578063a217fddf146106be578063a8b268de14610685578063c6f56901146102fa578063d2e0f66e14610270578063d547741f1461022f578063e1f1c4a714610212578063e38abd0f146101f0578063e6a69ab8146101d15763f5b541a60361000f57346101ce57806003193601126101ce5760206040517f97667070c54ef182b0f5858b034beac1b6f3089aa2d3188bb1e8929f4fa9b9298152f35b80fd5b50346101ce57806003193601126101ce5760206040516301e133808152f35b50346101ce57602061020a61020436611739565b90611a67565b604051908152f35b50346101ce57806003193601126101ce5760206040516127108152f35b50346101ce5760403660031901126101ce5761026c60043561024f6116f5565b90808452836020526102676001604086200154611b58565b611c1f565b5080f35b50346101ce5761027f36611739565b919081526003602052604081209081548310156101ce5760e06102a2848461179c565b5060018060a01b03815416906001810154906002810154600382015460048301549160ff600660058601549501541694604051968752602087015260408601526060850152608084015260a0830152151560c0820152f35b50346101ce5760203660031901126101ce57610314611b7e565b6004358152600460205260408120600760205261033760ff604084205416611889565b60038101805460ff811661064757610355600284015442101561190a565b60ff8160081c16610602576101009061ff001916179055805460018092015460405191825260208201527fe530e08c8f5e186cb204c6c0e883b12ddbcd56a383e4113f06dbee1e09fde7c6604060043592a26004358252600360205280604083208184905b6103dd575b5050506004358252600760205260408220805460ff19169055805580f35b81548110156105fd576103f0818361179c565b506006810180549060ff82161561040d575b5050508201826103ba565b909291946104246004870154600588015490611a67565b60ff199094161790556002548454604051627eeac760e11b81526001600160a01b039182166004808301829052356024830152899360081c9092169190602081604481865afa9081156105f25784916105b8575b508061053f575b5050508080808560018060a01b038954165af161049a611820565b501561050157849384927f35b1f7e4c3146d284962cc37abf509799d0f4be30b6a19d025ba7309302c9487600460018060a01b03845416930154916104df8382611a5a565b60408051948552602085019190915283015260043591606090a3903880610402565b60405162461bcd60e51b81526020600482015260166024820152751499599d5b99081d1c985b9cd9995c8819985a5b195960521b6044820152606490fd5b823b156105b457604051631dd85adb60e11b815260048035908201526001600160a01b0392909216602483015260448201529082908290606490829084905af180156105a957610591575b808061047f565b61059a906117b8565b6105a557853861058a565b8580fd5b6040513d84823e3d90fd5b8380fd5b9350506020833d6020116105ea575b816105d4602093836117fe565b810103126105e55788925138610478565b600080fd5b3d91506105c7565b6040513d86823e3d90fd5b6103bf565b60405162461bcd60e51b815260206004820152601960248201527f526566756e647320616c72656164792070726f636573736564000000000000006044820152606490fd5b60405162461bcd60e51b8152602060048201526016602482015275119d5b991a5b99c81dd85cc81cdd58d8d95cdcd99d5b60521b6044820152606490fd5b50346101ce5760203660031901126101ce57600435906006548210156101ce5760206106b08361174f565b90546040519160031b1c8152f35b50346101ce57806003193601126101ce57602090604051908152f35b50346101ce5760403660031901126101ce5760406106f66116f5565b91600435815280602052209060018060a01b0316600052602052602060ff604060002054166040519015158152f35b50346101ce5760203660031901126101ce5760406020916004358152600383522054604051908152f35b50346101ce57806003193601126101ce57610768611b1e565b610770611c94565b600160ff1960025416176002557f62e78cea01bee320cd4e420270b5ea74000d11b0c9f74754ebdbfc544b05a2586020604051338152a180f35b50346101ce5760603660031901126101ce576107c46116f5565b60443567ffffffffffffffff8111610852576108057f3914d40c9fe0daebd442d05df43dd630d415a8ce81ce1695843ca510f4f1c4f591369060040161170b565b919092610810611aa4565b8260405194604086528160408701526060860137846060848601015242602085015260018060a01b03169260608160043594601f80199101168101030190a380f35b8280fd5b5061086036611739565b610868611b7e565b610870611c94565b81835260046020526040832090600760205261089260ff604086205416611889565b6108a360ff600384015416156118cb565b6002820154421015610c9b576002546040516362ae87ab60e11b81526004810185905291906020908390602490829060081c6001600160a01b03165afa918215610c90578592610c5c575b506108f98183611860565b91823410610c20578486526003602052604086206040519161091a836117e2565b33835286602084015283604084015260608301528360808301524260a08301528660c0830152805490600160401b821015610c0c579061095f9160018201815561179c565b919091610bf85790600660c06109d89360018060a01b038151166bffffffffffffffffffffffff60a01b8554161784556020810151600185015560408101516002850155606081015160038501556080810151600485015560a081015160058501550151151591019060ff801983541691151516179055565b6109e3828454611a4d565b8355838552600560205260408520336000526020526040600020610a08838254611a4d565b905560025460081c6001600160a01b031690813b156105a5576040516346b40cdf60e11b8152600481018690523360248201526044810182905291869081908490606490829084905af1928315610beb578693610bce575b5050823411610b71575b610ab07f076d4a8f0927f81646eba8e062c7769238e76316ca0f16820b27d377c2becc1e9160405191829133964291846040919493926060820195825260208201520152565b0390a3600181549101541115610ac9575b506001805580f35b80825260046020526040822060038101805460ff19166001179055600254839060081c6001600160a01b0316803b15610b6d578180916024604051809481936362b3375960e11b83528960048401525af180156105a957610b59575b505060207fa94752e9c9082234a8789d877418277dfc7f671e8c27e4a3c22928cae04473129154604051908152a238610ac1565b610b62906117b8565b610852578238610b25565b5080fd5b905084808080610b818634611a5a565b335af1610b8c611820565b5015610b99578390610a6a565b60405162461bcd60e51b815260206004820152600d60248201526c1499599d5b990819985a5b1959609a1b6044820152606490fd5b610bda919293506117b8565b610be75783908538610a60565b8480fd5b50604051903d90823e3d90fd5b634e487b7160e01b87526004879052602487fd5b634e487b7160e01b88526041600452602488fd5b60405162461bcd60e51b8152602060048201526014602482015273125b9cdd59999a58da595b9d081c185e5b595b9d60621b6044820152606490fd5b9091506020813d602011610c88575b81610c78602093836117fe565b810103126105e5575190386108ee565b3d9150610c6b565b6040513d87823e3d90fd5b60405162461bcd60e51b815260206004820152601760248201527f46756e64696e6720646561646c696e65207061737365640000000000000000006044820152606490fd5b82346101ce57602080600319360112610b6d576004358252600390600381526040832092835467ffffffffffffffff8111610e4b57859184869260059160405192610d30888460051b01856117fe565b82845287840191829686528886209186935b858510610dd7575050505050506040519485948186019282875251809352604086019493905b838210610d755786860387f35b845180516001600160a01b03168752808401518785015260408082015190880152606080820151908801526080808201519088015260a0808201519088015260c090810151151590870152879650948501949382019360019190910190610d68565b60078b60019260409d9a999b9c9d51610def816117e2565b848060a01b038854168152848801548382015260028801546040820152868801546060820152600488015460808201528588015460a082015260ff600689015416151560c0820152815201940194019392999897959699610d42565b634e487b7160e01b82526041600452602482fd5b82346101ce5760209060206003193601126101ce5760043567ffffffffffffffff8111610b6d57610e958391369060040161170b565b5050610e9f61194d565b916040519384921515835260406020840152835191826040850152815b838110610edd57505060608094508284010152601f80199101168101030190f35b808601820151878201606001528694508101610ebc565b82346101ce57806003193601126101ce57602060ff600254166040519015158152f35b82346101ce57610f2636611739565b818392935260036020526040822054811015610fa05760408260c094610f52945260036020522061179c565b5060018060a01b0381541690600281015490600381015460048201549060ff6006600585015494015416936040519586526020860152604085015260608401526080830152151560a0820152f35b60405162461bcd60e51b8152602060048201526013602482015272496e646578206f7574206f6620626f756e647360681b6044820152606490fd5b82346101ce5760203660031901126101ce5760043567ffffffffffffffff8111610b6d5761100f602091369060040161170b565b9080929181010312610b6d5735808252600460205260408220600760205261103d60ff604085205416611889565b60ff6003820154611050828216156118cb565b60081c166110a557600261106891015442101561190a565b303b15610b6d576040519063c6f5690160e01b82526004820152818160248183305af180156105a957611099575080f35b6110a2906117b8565b80f35b60405162461bcd60e51b81526020600482015260116024820152701499599d5b991cc81c1c9bd8d95cdcd959607a1b6044820152606490fd5b82346101ce57806003193601126101ce5760025460405160089190911c6001600160a01b03168152602090f35b82346101ce5760403660031901126101ce57604060209161112a6116f5565b6004358252600584528282206001600160a01b03909116825283522054604051908152f35b82346101ce57806003193601126101ce57611168611b1e565b60025460ff8116156111a85760ff19166002557f5db9ee0a495bf2e6ff9c91a7834c1ba4fdd244a5e8aa4e537bd38aeae4b073aa6020604051338152a180f35b604051638dfc202b60e01b8152600490fd5b82346101ce5760403660031901126101ce576111d46116f5565b336001600160a01b038216036111f05761026c90600435611c1f565b60405163334bd91960e11b8152600490fd5b82346101ce5760203660031901126101ce57600480358252602052604081206001810154801592836112a857825493612710948581029581870414901517156112945761128057508060a09304905b82549260ff60036002830154920154169160405194855260208501526040840152151560608301526080820152f35b634e487b7160e01b81526012600452602490fd5b634e487b7160e01b82526011600452602482fd5b60a0935090611251565b82346101ce5760403660031901126101ce5761026c6004356112d26116f5565b90808452836020526112ea6001604086200154611b58565b611ba1565b82346101ce5760203660031901126101ce57600160406020926004358152808452200154604051908152f35b82346101ce5760203660031901126101ce57604060a091600435815260046020522060ff8154916001810154906003600282015491015491604051948552602085015260408401528181161515606084015260081c1615156080820152f35b82346101ce5760403660031901126101ce576004356113976116f5565b906113a0611aa4565b6113a8611b7e565b808352602060048152604084209260ff600385015416156114a557835493841561146a578590558285526007825260408520805460ff191690556001600160a01b0316928480808084885af16113fc611820565b501561143357907f6e3c6096795c8298a218b2cfb8bde42726ff7c9a3d27b4d3ba41ab7f74feb5fb91604051908152a36001805580f35b60405162461bcd60e51b815260048101839052600f60248201526e151c985b9cd9995c8819985a5b1959608a1b6044820152606490fd5b60405162461bcd60e51b81526004810184905260136024820152724e6f2066756e647320746f2072656c6561736560681b6044820152606490fd5b60405162461bcd60e51b815260048101839052601460248201527346756e64696e67206e6f7420636f6d706c65746560601b6044820152606490fd5b82346101ce5760203660031901126101ce5760ff60406020926004358152600784522054166040519015158152f35b82346101ce57806003193601126101ce57602060405161012c8152f35b82346101ce5760603660031901126101ce5760043561154a611aa4565b808252600760205260ff6040832054166116635760405160a0810181811067ffffffffffffffff82111761164f576040528281526020810160243581526115d960036040840193604435855260608101948786526080820194888652878952600460205260408920925183555160018301555160028201550192511515839060ff801983541691151516179055565b51815461ff00191690151560081b61ff0016179055600654600160401b81101561163b5780600161160d920160065561174f565b81549060031b9083821b91600019901b19161790558152600760205260408120600160ff1982541617905580f35b634e487b7160e01b83526041600452602483fd5b634e487b7160e01b84526041600452602484fd5b60405162461bcd60e51b8152602060048201526015602482015274457363726f7720616c72656164792065786973747360581b6044820152606490fd5b839034610b6d576020366003190112610b6d5760043563ffffffff60e01b81168091036108525760209250637965db0b60e01b81149081156116e4575b5015158152f35b6301ffc9a760e01b149050836116dd565b602435906001600160a01b03821682036105e557565b9181601f840112156105e55782359167ffffffffffffffff83116105e557602083818601950101116105e557565b60409060031901126105e5576004359060243590565b6006548110156117865760066000527ff652222313e28459528d920b65115c16c04f3efc82aaedc97be59f3f377c0d3f0190600090565b634e487b7160e01b600052603260045260246000fd5b8054821015611786576000526007602060002091020190600090565b67ffffffffffffffff81116117cc57604052565b634e487b7160e01b600052604160045260246000fd5b60e0810190811067ffffffffffffffff8211176117cc57604052565b90601f8019910116810190811067ffffffffffffffff8211176117cc57604052565b3d1561185b573d9067ffffffffffffffff82116117cc576040519161184f601f8201601f1916602001846117fe565b82523d6000602084013e565b606090565b8181029291811591840414171561187357565b634e487b7160e01b600052601160045260246000fd5b1561189057565b60405162461bcd60e51b815260206004820152601360248201527250726f7065727479206e6f742061637469766560681b6044820152606490fd5b156118d257565b60405162461bcd60e51b815260206004820152601060248201526f46756e64696e6720636f6d706c65746560801b6044820152606490fd5b1561191157565b60405162461bcd60e51b8152602060048201526014602482015273111958591b1a5b99481b9bdd081c995858da195960621b6044820152606490fd5b60065460005b8181106119835750506000906040516020810181811067ffffffffffffffff8211176117cc576040526000815290565b61198c8161174f565b9054600391821b1c90816000526004906020828152604091826000206007835260ff808560002054169283611a3f575b83611a2e575b505081611a1f575b506119db5750505050600101611953565b919350809295945051948186015284528084019184831067ffffffffffffffff841117611a0a57505260019190565b604190634e487b7160e01b6000525260246000fd5b600291500154421015386119ca565b82015460081c1615915038806119c2565b8281015482161593506119bc565b9190820180921161187357565b9190820391821161187357565b90611a729042611a5a565b9061012c9182820292828404148215171561187357611a9a64496cebb80091611aa194611860565b0490611a4d565b90565b3360009081527fee57cd81e84075558e8fcc182a1f4393f91fc97f963a136e66b7f949a62f319f60205260409020547f97667070c54ef182b0f5858b034beac1b6f3089aa2d3188bb1e8929f4fa9b9299060ff1615611b005750565b6044906040519063e2517d3f60e01b82523360048301526024820152fd5b3360009081527fad3228b676f7d3cd4284a5443f17f1962b36e491b30a40b2405849e597ba5fb5602052604081205460ff1615611b005750565b80600052600060205260406000203360005260205260ff6040600020541615611b005750565b600260015414611b8f576002600155565b604051633ee5aeb560e01b8152600490fd5b9060009180835282602052604083209160018060a01b03169182845260205260ff60408420541615600014611c1a57808352826020526040832082845260205260408320600160ff198254161790557f2f8788117e7eff1d82e926ec794901d17c78024a50270940304540a733656f0d339380a4600190565b505090565b9060009180835282602052604083209160018060a01b03169182845260205260ff604084205416600014611c1a5780835282602052604083208284526020526040832060ff1981541690557ff6391f5c32d9c69d2a47ea670b442974b53935d1edc7fd64eb21e047a839171b339380a4600190565b60ff60025416611ca057565b60405163d93c066560e01b8152600490fdfea2646970667358221220a2cfe498a5942fed20b5e09ab86b22ab1d75895c7dd32e83ade4c3437b7e423564736f6c634300081800332f8788117e7eff1d82e926ec794901d17c78024a50270940304540a733656f0d","opcodes":"PUSH1 0x80 CALLVALUE PUSH3 0xA4 JUMPI PUSH1 0x1F PUSH3 0x1EEA CODESIZE DUP2 SWAP1 SUB SWAP2 DUP3 ADD PUSH1 0x1F NOT AND DUP4 ADD SWAP2 PUSH1 0x1 PUSH1 0x1 PUSH1 0x40 SHL SUB DUP4 GT DUP5 DUP5 LT OR PUSH3 0xA9 JUMPI DUP1 DUP5 SWAP3 PUSH1 0x20 SWAP5 PUSH1 0x40 MSTORE DUP4 CODECOPY DUP2 ADD SUB SLT PUSH3 0xA4 JUMPI MLOAD PUSH1 0x1 PUSH1 0x1 PUSH1 0xA0 SHL SUB DUP2 AND DUP2 SUB PUSH3 0xA4 JUMPI PUSH1 0x1 DUP1 SSTORE PUSH1 0x2 DUP1 SLOAD PUSH1 0x1 PUSH1 0x1 PUSH1 0xA8 SHL SUB NOT AND PUSH1 0x8 SWAP3 SWAP1 SWAP3 SHL PUSH2 0x100 PUSH1 0x1 PUSH1 0xA8 SHL SUB AND SWAP2 SWAP1 SWAP2 OR SWAP1 SSTORE PUSH3 0x87 CALLER PUSH3 0xBF JUMP JUMPDEST POP PUSH3 0x93 CALLER PUSH3 0x13F JUMP JUMPDEST POP PUSH1 0x40 MLOAD PUSH2 0x1CE8 SWAP1 DUP2 PUSH3 0x1E2 DUP3 CODECOPY RETURN JUMPDEST PUSH1 0x0 DUP1 REVERT JUMPDEST PUSH4 0x4E487B71 PUSH1 0xE0 SHL PUSH1 0x0 MSTORE PUSH1 0x41 PUSH1 0x4 MSTORE PUSH1 0x24 PUSH1 0x0 REVERT JUMPDEST PUSH1 0x1 PUSH1 0x1 PUSH1 0xA0 SHL SUB AND PUSH1 0x0 DUP2 DUP2 MSTORE PUSH32 0xAD3228B676F7D3CD4284A5443F17F1962B36E491B30A40B2405849E597BA5FB5 PUSH1 0x20 MSTORE PUSH1 0x40 DUP2 KECCAK256 SLOAD SWAP1 SWAP2 SWAP1 PUSH1 0xFF AND PUSH3 0x13B JUMPI DUP2 DUP1 MSTORE DUP2 PUSH1 0x20 MSTORE PUSH1 0x40 DUP3 KECCAK256 DUP2 DUP4 MSTORE PUSH1 0x20 MSTORE PUSH1 0x40 DUP3 KECCAK256 PUSH1 0x1 PUSH1 0xFF NOT DUP3 SLOAD AND OR SWAP1 SSTORE CALLER SWAP2 PUSH1 0x0 DUP1 MLOAD PUSH1 0x20 PUSH3 0x1ECA DUP4 CODECOPY DUP2 MLOAD SWAP2 MSTORE DUP2 DUP1 LOG4 PUSH1 0x1 SWAP1 JUMP JUMPDEST POP SWAP1 JUMP JUMPDEST PUSH1 0x1 PUSH1 0x1 PUSH1 0xA0 SHL SUB AND PUSH1 0x0 DUP2 DUP2 MSTORE PUSH32 0xEE57CD81E84075558E8FCC182A1F4393F91FC97F963A136E66B7F949A62F319F PUSH1 0x20 MSTORE PUSH1 0x40 DUP2 KECCAK256 SLOAD SWAP1 SWAP2 SWAP1 PUSH32 0x97667070C54EF182B0F5858B034BEAC1B6F3089AA2D3188BB1E8929F4FA9B929 SWAP1 PUSH1 0xFF AND PUSH3 0x1DC JUMPI DUP1 DUP4 MSTORE DUP3 PUSH1 0x20 MSTORE PUSH1 0x40 DUP4 KECCAK256 DUP3 DUP5 MSTORE PUSH1 0x20 MSTORE PUSH1 0x40 DUP4 KECCAK256 PUSH1 0x1 PUSH1 0xFF NOT DUP3 SLOAD AND OR SWAP1 SSTORE PUSH1 0x0 DUP1 MLOAD PUSH1 0x20 PUSH3 0x1ECA DUP4 CODECOPY DUP2 MLOAD SWAP2 MSTORE CALLER SWAP4 DUP1 LOG4 PUSH1 0x1 SWAP1 JUMP JUMPDEST POP POP SWAP1 JUMP INVALID PUSH1 0x80 DUP1 PUSH1 0x40 MSTORE PUSH1 0x4 CALLDATASIZE LT ISZERO PUSH2 0x1D JUMPI JUMPDEST POP CALLDATASIZE ISZERO PUSH2 0x1B JUMPI PUSH1 0x0 DUP1 REVERT JUMPDEST STOP JUMPDEST PUSH1 0x0 SWAP1 PUSH1 0xE0 DUP3 CALLDATALOAD PUSH1 0xE0 SHR SWAP2 DUP3 PUSH4 0x1FFC9A7 EQ PUSH2 0x16A0 JUMPI POP DUP2 PUSH4 0x66D4D5E EQ PUSH2 0x152D JUMPI DUP2 PUSH4 0x11E2E175 EQ PUSH2 0x110B JUMPI DUP2 PUSH4 0x14A2873A EQ PUSH2 0x1510 JUMPI DUP2 PUSH4 0x154BB891 EQ PUSH2 0x14E1 JUMPI DUP2 PUSH4 0x1AF23A59 EQ PUSH2 0x137A JUMPI DUP2 PUSH4 0x2430FC3D EQ PUSH2 0x131B JUMPI DUP2 PUSH4 0x248A9CA3 EQ PUSH2 0x12EF JUMPI DUP2 PUSH4 0x2F2FF15D EQ PUSH2 0x12B2 JUMPI DUP2 PUSH4 0x345460CD EQ PUSH2 0x1202 JUMPI DUP2 PUSH4 0x36568ABE EQ PUSH2 0x11BA JUMPI DUP2 PUSH4 0x3F4BA83A EQ PUSH2 0x114F JUMPI DUP2 PUSH4 0x40A0841B EQ PUSH2 0x110B JUMPI DUP2 PUSH4 0x43AE2695 EQ PUSH2 0x10DE JUMPI DUP2 PUSH4 0x4585E33B EQ PUSH2 0xFDB JUMPI DUP2 PUSH4 0x50E2F0F7 EQ PUSH2 0xF17 JUMPI DUP2 PUSH4 0x5C975ABB EQ PUSH2 0xEF4 JUMPI DUP2 PUSH4 0x6E04FF0D EQ PUSH2 0xE5F JUMPI DUP2 PUSH4 0x6F629ED5 EQ PUSH2 0xCE0 JUMPI POP DUP1 PUSH4 0x70876C98 EQ PUSH2 0x856 JUMPI DUP1 PUSH4 0x7F42FF64 EQ PUSH2 0x7AA JUMPI DUP1 PUSH4 0x8456CB59 EQ PUSH2 0x74F JUMPI DUP1 PUSH4 0x9093BB20 EQ PUSH2 0x725 JUMPI DUP1 PUSH4 0x91D14854 EQ PUSH2 0x6DA JUMPI DUP1 PUSH4 0xA217FDDF EQ PUSH2 0x6BE JUMPI DUP1 PUSH4 0xA8B268DE EQ PUSH2 0x685 JUMPI DUP1 PUSH4 0xC6F56901 EQ PUSH2 0x2FA JUMPI DUP1 PUSH4 0xD2E0F66E EQ PUSH2 0x270 JUMPI DUP1 PUSH4 0xD547741F EQ PUSH2 0x22F JUMPI DUP1 PUSH4 0xE1F1C4A7 EQ PUSH2 0x212 JUMPI DUP1 PUSH4 0xE38ABD0F EQ PUSH2 0x1F0 JUMPI DUP1 PUSH4 0xE6A69AB8 EQ PUSH2 0x1D1 JUMPI PUSH4 0xF5B541A6 SUB PUSH2 0xF JUMPI CALLVALUE PUSH2 0x1CE JUMPI DUP1 PUSH1 0x3 NOT CALLDATASIZE ADD SLT PUSH2 0x1CE JUMPI PUSH1 0x20 PUSH1 0x40 MLOAD PUSH32 0x97667070C54EF182B0F5858B034BEAC1B6F3089AA2D3188BB1E8929F4FA9B929 DUP2 MSTORE RETURN JUMPDEST DUP1 REVERT JUMPDEST POP CALLVALUE PUSH2 0x1CE JUMPI DUP1 PUSH1 0x3 NOT CALLDATASIZE ADD SLT PUSH2 0x1CE JUMPI PUSH1 0x20 PUSH1 0x40 MLOAD PUSH4 0x1E13380 DUP2 MSTORE RETURN JUMPDEST POP CALLVALUE PUSH2 0x1CE JUMPI PUSH1 0x20 PUSH2 0x20A PUSH2 0x204 CALLDATASIZE PUSH2 0x1739 JUMP JUMPDEST SWAP1 PUSH2 0x1A67 JUMP JUMPDEST PUSH1 0x40 MLOAD SWAP1 DUP2 MSTORE RETURN JUMPDEST POP CALLVALUE PUSH2 0x1CE JUMPI DUP1 PUSH1 0x3 NOT CALLDATASIZE ADD SLT PUSH2 0x1CE JUMPI PUSH1 0x20 PUSH1 0x40 MLOAD PUSH2 0x2710 DUP2 MSTORE RETURN JUMPDEST POP CALLVALUE PUSH2 0x1CE JUMPI PUSH1 0x40 CALLDATASIZE PUSH1 0x3 NOT ADD SLT PUSH2 0x1CE JUMPI PUSH2 0x26C PUSH1 0x4 CALLDATALOAD PUSH2 0x24F PUSH2 0x16F5 JUMP JUMPDEST SWAP1 DUP1 DUP5 MSTORE DUP4 PUSH1 0x20 MSTORE PUSH2 0x267 PUSH1 0x1 PUSH1 0x40 DUP7 KECCAK256 ADD SLOAD PUSH2 0x1B58 JUMP JUMPDEST PUSH2 0x1C1F JUMP JUMPDEST POP DUP1 RETURN JUMPDEST POP CALLVALUE PUSH2 0x1CE JUMPI PUSH2 0x27F CALLDATASIZE PUSH2 0x1739 JUMP JUMPDEST SWAP2 SWAP1 DUP2 MSTORE PUSH1 0x3 PUSH1 0x20 MSTORE PUSH1 0x40 DUP2 KECCAK256 SWAP1 DUP2 SLOAD DUP4 LT ISZERO PUSH2 0x1CE JUMPI PUSH1 0xE0 PUSH2 0x2A2 DUP5 DUP5 PUSH2 0x179C JUMP JUMPDEST POP PUSH1 0x1 DUP1 PUSH1 0xA0 SHL SUB DUP2 SLOAD AND SWAP1 PUSH1 0x1 DUP2 ADD SLOAD SWAP1 PUSH1 0x2 DUP2 ADD SLOAD PUSH1 0x3 DUP3 ADD SLOAD PUSH1 0x4 DUP4 ADD SLOAD SWAP2 PUSH1 0xFF PUSH1 0x6 PUSH1 0x5 DUP7 ADD SLOAD SWAP6 ADD SLOAD AND SWAP5 PUSH1 0x40 MLOAD SWAP7 DUP8 MSTORE PUSH1 0x20 DUP8 ADD MSTORE PUSH1 0x40 DUP7 ADD MSTORE PUSH1 0x60 DUP6 ADD MSTORE PUSH1 0x80 DUP5 ADD MSTORE PUSH1 0xA0 DUP4 ADD MSTORE ISZERO ISZERO PUSH1 0xC0 DUP3 ADD MSTORE RETURN JUMPDEST POP CALLVALUE PUSH2 0x1CE JUMPI PUSH1 0x20 CALLDATASIZE PUSH1 0x3 NOT ADD SLT PUSH2 0x1CE JUMPI PUSH2 0x314 PUSH2 0x1B7E JUMP JUMPDEST PUSH1 0x4 CALLDATALOAD DUP2 MSTORE PUSH1 0x4 PUSH1 0x20 MSTORE PUSH1 0x40 DUP2 KECCAK256 PUSH1 0x7 PUSH1 0x20 MSTORE PUSH2 0x337 PUSH1 0xFF PUSH1 0x40 DUP5 KECCAK256 SLOAD AND PUSH2 0x1889 JUMP JUMPDEST PUSH1 0x3 DUP2 ADD DUP1 SLOAD PUSH1 0xFF DUP2 AND PUSH2 0x647 JUMPI PUSH2 0x355 PUSH1 0x2 DUP5 ADD SLOAD TIMESTAMP LT ISZERO PUSH2 0x190A JUMP JUMPDEST PUSH1 0xFF DUP2 PUSH1 0x8 SHR AND PUSH2 0x602 JUMPI PUSH2 0x100 SWAP1 PUSH2 0xFF00 NOT AND OR SWAP1 SSTORE DUP1 SLOAD PUSH1 0x1 DUP1 SWAP3 ADD SLOAD PUSH1 0x40 MLOAD SWAP2 DUP3 MSTORE PUSH1 0x20 DUP3 ADD MSTORE PUSH32 0xE530E08C8F5E186CB204C6C0E883B12DDBCD56A383E4113F06DBEE1E09FDE7C6 PUSH1 0x40 PUSH1 0x4 CALLDATALOAD SWAP3 LOG2 PUSH1 0x4 CALLDATALOAD DUP3 MSTORE PUSH1 0x3 PUSH1 0x20 MSTORE DUP1 PUSH1 0x40 DUP4 KECCAK256 DUP2 DUP5 SWAP1 JUMPDEST PUSH2 0x3DD JUMPI JUMPDEST POP POP POP PUSH1 0x4 CALLDATALOAD DUP3 MSTORE PUSH1 0x7 PUSH1 0x20 MSTORE PUSH1 0x40 DUP3 KECCAK256 DUP1 SLOAD PUSH1 0xFF NOT AND SWAP1 SSTORE DUP1 SSTORE DUP1 RETURN JUMPDEST DUP2 SLOAD DUP2 LT ISZERO PUSH2 0x5FD JUMPI PUSH2 0x3F0 DUP2 DUP4 PUSH2 0x179C JUMP JUMPDEST POP PUSH1 0x6 DUP2 ADD DUP1 SLOAD SWAP1 PUSH1 0xFF DUP3 AND ISZERO PUSH2 0x40D JUMPI JUMPDEST POP POP POP DUP3 ADD DUP3 PUSH2 0x3BA JUMP JUMPDEST SWAP1 SWAP3 SWAP2 SWAP5 PUSH2 0x424 PUSH1 0x4 DUP8 ADD SLOAD PUSH1 0x5 DUP9 ADD SLOAD SWAP1 PUSH2 0x1A67 JUMP JUMPDEST PUSH1 0xFF NOT SWAP1 SWAP5 AND OR SWAP1 SSTORE PUSH1 0x2 SLOAD DUP5 SLOAD PUSH1 0x40 MLOAD PUSH3 0x7EEAC7 PUSH1 0xE1 SHL DUP2 MSTORE PUSH1 0x1 PUSH1 0x1 PUSH1 0xA0 SHL SUB SWAP2 DUP3 AND PUSH1 0x4 DUP1 DUP4 ADD DUP3 SWAP1 MSTORE CALLDATALOAD PUSH1 0x24 DUP4 ADD MSTORE DUP10 SWAP4 PUSH1 0x8 SHR SWAP1 SWAP3 AND SWAP2 SWAP1 PUSH1 0x20 DUP2 PUSH1 0x44 DUP2 DUP7 GAS STATICCALL SWAP1 DUP2 ISZERO PUSH2 0x5F2 JUMPI DUP5 SWAP2 PUSH2 0x5B8 JUMPI JUMPDEST POP DUP1 PUSH2 0x53F JUMPI JUMPDEST POP POP POP DUP1 DUP1 DUP1 DUP6 PUSH1 0x1 DUP1 PUSH1 0xA0 SHL SUB DUP10 SLOAD AND GAS CALL PUSH2 0x49A PUSH2 0x1820 JUMP JUMPDEST POP ISZERO PUSH2 0x501 JUMPI DUP5 SWAP4 DUP5 SWAP3 PUSH32 0x35B1F7E4C3146D284962CC37ABF509799D0F4BE30B6A19D025BA7309302C9487 PUSH1 0x4 PUSH1 0x1 DUP1 PUSH1 0xA0 SHL SUB DUP5 SLOAD AND SWAP4 ADD SLOAD SWAP2 PUSH2 0x4DF DUP4 DUP3 PUSH2 0x1A5A JUMP JUMPDEST PUSH1 0x40 DUP1 MLOAD SWAP5 DUP6 MSTORE PUSH1 0x20 DUP6 ADD SWAP2 SWAP1 SWAP2 MSTORE DUP4 ADD MSTORE PUSH1 0x4 CALLDATALOAD SWAP2 PUSH1 0x60 SWAP1 LOG3 SWAP1 CODESIZE DUP1 PUSH2 0x402 JUMP JUMPDEST PUSH1 0x40 MLOAD PUSH3 0x461BCD PUSH1 0xE5 SHL DUP2 MSTORE PUSH1 0x20 PUSH1 0x4 DUP3 ADD MSTORE PUSH1 0x16 PUSH1 0x24 DUP3 ADD MSTORE PUSH22 0x1499599D5B99081D1C985B9CD9995C8819985A5B1959 PUSH1 0x52 SHL PUSH1 0x44 DUP3 ADD MSTORE PUSH1 0x64 SWAP1 REVERT JUMPDEST DUP3 EXTCODESIZE ISZERO PUSH2 0x5B4 JUMPI PUSH1 0x40 MLOAD PUSH4 0x1DD85ADB PUSH1 0xE1 SHL DUP2 MSTORE PUSH1 0x4 DUP1 CALLDATALOAD SWAP1 DUP3 ADD MSTORE PUSH1 0x1 PUSH1 0x1 PUSH1 0xA0 SHL SUB SWAP3 SWAP1 SWAP3 AND PUSH1 0x24 DUP4 ADD MSTORE PUSH1 0x44 DUP3 ADD MSTORE SWAP1 DUP3 SWAP1 DUP3 SWAP1 PUSH1 0x64 SWAP1 DUP3 SWAP1 DUP5 SWAP1 GAS CALL DUP1 ISZERO PUSH2 0x5A9 JUMPI PUSH2 0x591 JUMPI JUMPDEST DUP1 DUP1 PUSH2 0x47F JUMP JUMPDEST PUSH2 0x59A SWAP1 PUSH2 0x17B8 JUMP JUMPDEST PUSH2 0x5A5 JUMPI DUP6 CODESIZE PUSH2 0x58A JUMP JUMPDEST DUP6 DUP1 REVERT JUMPDEST PUSH1 0x40 MLOAD RETURNDATASIZE DUP5 DUP3 RETURNDATACOPY RETURNDATASIZE SWAP1 REVERT JUMPDEST DUP4 DUP1 REVERT JUMPDEST SWAP4 POP POP PUSH1 0x20 DUP4 RETURNDATASIZE PUSH1 0x20 GT PUSH2 0x5EA JUMPI JUMPDEST DUP2 PUSH2 0x5D4 PUSH1 0x20 SWAP4 DUP4 PUSH2 0x17FE JUMP JUMPDEST DUP2 ADD SUB SLT PUSH2 0x5E5 JUMPI DUP9 SWAP3 MLOAD CODESIZE PUSH2 0x478 JUMP JUMPDEST PUSH1 0x0 DUP1 REVERT JUMPDEST RETURNDATASIZE SWAP2 POP PUSH2 0x5C7 JUMP JUMPDEST PUSH1 0x40 MLOAD RETURNDATASIZE DUP7 DUP3 RETURNDATACOPY RETURNDATASIZE SWAP1 REVERT JUMPDEST PUSH2 0x3BF JUMP JUMPDEST PUSH1 0x40 MLOAD PUSH3 0x461BCD PUSH1 0xE5 SHL DUP2 MSTORE PUSH1 0x20 PUSH1 0x4 DUP3 ADD MSTORE PUSH1 0x19 PUSH1 0x24 DUP3 ADD MSTORE PUSH32 0x526566756E647320616C72656164792070726F63657373656400000000000000 PUSH1 0x44 DUP3 ADD MSTORE PUSH1 0x64 SWAP1 REVERT JUMPDEST PUSH1 0x40 MLOAD PUSH3 0x461BCD PUSH1 0xE5 SHL DUP2 MSTORE PUSH1 0x20 PUSH1 0x4 DUP3 ADD MSTORE PUSH1 0x16 PUSH1 0x24 DUP3 ADD MSTORE PUSH22 0x119D5B991A5B99C81DD85CC81CDD58D8D95CDCD99D5B PUSH1 0x52 SHL PUSH1 0x44 DUP3 ADD MSTORE PUSH1 0x64 SWAP1 REVERT JUMPDEST POP CALLVALUE PUSH2 0x1CE JUMPI PUSH1 0x20 CALLDATASIZE PUSH1 0x3 NOT ADD SLT PUSH2 0x1CE JUMPI PUSH1 0x4 CALLDATALOAD SWAP1 PUSH1 0x6 SLOAD DUP3 LT ISZERO PUSH2 0x1CE JUMPI PUSH1 0x20 PUSH2 0x6B0 DUP4 PUSH2 0x174F JUMP JUMPDEST SWAP1 SLOAD PUSH1 0x40 MLOAD SWAP2 PUSH1 0x3 SHL SHR DUP2 MSTORE RETURN JUMPDEST POP CALLVALUE PUSH2 0x1CE JUMPI DUP1 PUSH1 0x3 NOT CALLDATASIZE ADD SLT PUSH2 0x1CE JUMPI PUSH1 0x20 SWAP1 PUSH1 0x40 MLOAD SWAP1 DUP2 MSTORE RETURN JUMPDEST POP CALLVALUE PUSH2 0x1CE JUMPI PUSH1 0x40 CALLDATASIZE PUSH1 0x3 NOT ADD SLT PUSH2 0x1CE JUMPI PUSH1 0x40 PUSH2 0x6F6 PUSH2 0x16F5 JUMP JUMPDEST SWAP2 PUSH1 0x4 CALLDATALOAD DUP2 MSTORE DUP1 PUSH1 0x20 MSTORE KECCAK256 SWAP1 PUSH1 0x1 DUP1 PUSH1 0xA0 SHL SUB AND PUSH1 0x0 MSTORE PUSH1 0x20 MSTORE PUSH1 0x20 PUSH1 0xFF PUSH1 0x40 PUSH1 0x0 KECCAK256 SLOAD AND PUSH1 0x40 MLOAD SWAP1 ISZERO ISZERO DUP2 MSTORE RETURN JUMPDEST POP CALLVALUE PUSH2 0x1CE JUMPI PUSH1 0x20 CALLDATASIZE PUSH1 0x3 NOT ADD SLT PUSH2 0x1CE JUMPI PUSH1 0x40 PUSH1 0x20 SWAP2 PUSH1 0x4 CALLDATALOAD DUP2 MSTORE PUSH1 0x3 DUP4 MSTORE KECCAK256 SLOAD PUSH1 0x40 MLOAD SWAP1 DUP2 MSTORE RETURN JUMPDEST POP CALLVALUE PUSH2 0x1CE JUMPI DUP1 PUSH1 0x3 NOT CALLDATASIZE ADD SLT PUSH2 0x1CE JUMPI PUSH2 0x768 PUSH2 0x1B1E JUMP JUMPDEST PUSH2 0x770 PUSH2 0x1C94 JUMP JUMPDEST PUSH1 0x1 PUSH1 0xFF NOT PUSH1 0x2 SLOAD AND OR PUSH1 0x2 SSTORE PUSH32 0x62E78CEA01BEE320CD4E420270B5EA74000D11B0C9F74754EBDBFC544B05A258 PUSH1 0x20 PUSH1 0x40 MLOAD CALLER DUP2 MSTORE LOG1 DUP1 RETURN JUMPDEST POP CALLVALUE PUSH2 0x1CE JUMPI PUSH1 0x60 CALLDATASIZE PUSH1 0x3 NOT ADD SLT PUSH2 0x1CE JUMPI PUSH2 0x7C4 PUSH2 0x16F5 JUMP JUMPDEST PUSH1 0x44 CALLDATALOAD PUSH8 0xFFFFFFFFFFFFFFFF DUP2 GT PUSH2 0x852 JUMPI PUSH2 0x805 PUSH32 0x3914D40C9FE0DAEBD442D05DF43DD630D415A8CE81CE1695843CA510F4F1C4F5 SWAP2 CALLDATASIZE SWAP1 PUSH1 0x4 ADD PUSH2 0x170B JUMP JUMPDEST SWAP2 SWAP1 SWAP3 PUSH2 0x810 PUSH2 0x1AA4 JUMP JUMPDEST DUP3 PUSH1 0x40 MLOAD SWAP5 PUSH1 0x40 DUP7 MSTORE DUP2 PUSH1 0x40 DUP8 ADD MSTORE PUSH1 0x60 DUP7 ADD CALLDATACOPY DUP5 PUSH1 0x60 DUP5 DUP7 ADD ADD MSTORE TIMESTAMP PUSH1 0x20 DUP6 ADD MSTORE PUSH1 0x1 DUP1 PUSH1 0xA0 SHL SUB AND SWAP3 PUSH1 0x60 DUP2 PUSH1 0x4 CALLDATALOAD SWAP5 PUSH1 0x1F DUP1 NOT SWAP2 ADD AND DUP2 ADD SUB ADD SWAP1 LOG3 DUP1 RETURN JUMPDEST DUP3 DUP1 REVERT JUMPDEST POP PUSH2 0x860 CALLDATASIZE PUSH2 0x1739 JUMP JUMPDEST PUSH2 0x868 PUSH2 0x1B7E JUMP JUMPDEST PUSH2 0x870 PUSH2 0x1C94 JUMP JUMPDEST DUP2 DUP4 MSTORE PUSH1 0x4 PUSH1 0x20 MSTORE PUSH1 0x40 DUP4 KECCAK256 SWAP1 PUSH1 0x7 PUSH1 0x20 MSTORE PUSH2 0x892 PUSH1 0xFF PUSH1 0x40 DUP7 KECCAK256 SLOAD AND PUSH2 0x1889 JUMP JUMPDEST PUSH2 0x8A3 PUSH1 0xFF PUSH1 0x3 DUP5 ADD SLOAD AND ISZERO PUSH2 0x18CB JUMP JUMPDEST PUSH1 0x2 DUP3 ADD SLOAD TIMESTAMP LT ISZERO PUSH2 0xC9B JUMPI PUSH1 0x2 SLOAD PUSH1 0x40 MLOAD PUSH4 0x62AE87AB PUSH1 0xE1 SHL DUP2 MSTORE PUSH1 0x4 DUP2 ADD DUP6 SWAP1 MSTORE SWAP2 SWAP1 PUSH1 0x20 SWAP1 DUP4 SWAP1 PUSH1 0x24 SWAP1 DUP3 SWAP1 PUSH1 0x8 SHR PUSH1 0x1 PUSH1 0x1 PUSH1 0xA0 SHL SUB AND GAS STATICCALL SWAP2 DUP3 ISZERO PUSH2 0xC90 JUMPI DUP6 SWAP3 PUSH2 0xC5C JUMPI JUMPDEST POP PUSH2 0x8F9 DUP2 DUP4 PUSH2 0x1860 JUMP JUMPDEST SWAP2 DUP3 CALLVALUE LT PUSH2 0xC20 JUMPI DUP5 DUP7 MSTORE PUSH1 0x3 PUSH1 0x20 MSTORE PUSH1 0x40 DUP7 KECCAK256 PUSH1 0x40 MLOAD SWAP2 PUSH2 0x91A DUP4 PUSH2 0x17E2 JUMP JUMPDEST CALLER DUP4 MSTORE DUP7 PUSH1 0x20 DUP5 ADD MSTORE DUP4 PUSH1 0x40 DUP5 ADD MSTORE PUSH1 0x60 DUP4 ADD MSTORE DUP4 PUSH1 0x80 DUP4 ADD MSTORE TIMESTAMP PUSH1 0xA0 DUP4 ADD MSTORE DUP7 PUSH1 0xC0 DUP4 ADD MSTORE DUP1 SLOAD SWAP1 PUSH1 0x1 PUSH1 0x40 SHL DUP3 LT ISZERO PUSH2 0xC0C JUMPI SWAP1 PUSH2 0x95F SWAP2 PUSH1 0x1 DUP3 ADD DUP2 SSTORE PUSH2 0x179C JUMP JUMPDEST SWAP2 SWAP1 SWAP2 PUSH2 0xBF8 JUMPI SWAP1 PUSH1 0x6 PUSH1 0xC0 PUSH2 0x9D8 SWAP4 PUSH1 0x1 DUP1 PUSH1 0xA0 SHL SUB DUP2 MLOAD AND PUSH12 0xFFFFFFFFFFFFFFFFFFFFFFFF PUSH1 0xA0 SHL DUP6 SLOAD AND OR DUP5 SSTORE PUSH1 0x20 DUP2 ADD MLOAD PUSH1 0x1 DUP6 ADD SSTORE PUSH1 0x40 DUP2 ADD MLOAD PUSH1 0x2 DUP6 ADD SSTORE PUSH1 0x60 DUP2 ADD MLOAD PUSH1 0x3 DUP6 ADD SSTORE PUSH1 0x80 DUP2 ADD MLOAD PUSH1 0x4 DUP6 ADD SSTORE PUSH1 0xA0 DUP2 ADD MLOAD PUSH1 0x5 DUP6 ADD SSTORE ADD MLOAD ISZERO ISZERO SWAP2 ADD SWAP1 PUSH1 0xFF DUP1 NOT DUP4 SLOAD AND SWAP2 ISZERO ISZERO AND OR SWAP1 SSTORE JUMP JUMPDEST PUSH2 0x9E3 DUP3 DUP5 SLOAD PUSH2 0x1A4D JUMP JUMPDEST DUP4 SSTORE DUP4 DUP6 MSTORE PUSH1 0x5 PUSH1 0x20 MSTORE PUSH1 0x40 DUP6 KECCAK256 CALLER PUSH1 0x0 MSTORE PUSH1 0x20 MSTORE PUSH1 0x40 PUSH1 0x0 KECCAK256 PUSH2 0xA08 DUP4 DUP3 SLOAD PUSH2 0x1A4D JUMP JUMPDEST SWAP1 SSTORE PUSH1 0x2 SLOAD PUSH1 0x8 SHR PUSH1 0x1 PUSH1 0x1 PUSH1 0xA0 SHL SUB AND SWAP1 DUP2 EXTCODESIZE ISZERO PUSH2 0x5A5 JUMPI PUSH1 0x40 MLOAD PUSH4 0x46B40CDF PUSH1 0xE1 SHL DUP2 MSTORE PUSH1 0x4 DUP2 ADD DUP7 SWAP1 MSTORE CALLER PUSH1 0x24 DUP3 ADD MSTORE PUSH1 0x44 DUP2 ADD DUP3 SWAP1 MSTORE SWAP2 DUP7 SWAP1 DUP2 SWAP1 DUP5 SWAP1 PUSH1 0x64 SWAP1 DUP3 SWAP1 DUP5 SWAP1 GAS CALL SWAP3 DUP4 ISZERO PUSH2 0xBEB JUMPI DUP7 SWAP4 PUSH2 0xBCE JUMPI JUMPDEST POP POP DUP3 CALLVALUE GT PUSH2 0xB71 JUMPI JUMPDEST PUSH2 0xAB0 PUSH32 0x76D4A8F0927F81646EBA8E062C7769238E76316CA0F16820B27D377C2BECC1E SWAP2 PUSH1 0x40 MLOAD SWAP2 DUP3 SWAP2 CALLER SWAP7 TIMESTAMP SWAP2 DUP5 PUSH1 0x40 SWAP2 SWAP5 SWAP4 SWAP3 PUSH1 0x60 DUP3 ADD SWAP6 DUP3 MSTORE PUSH1 0x20 DUP3 ADD MSTORE ADD MSTORE JUMP JUMPDEST SUB SWAP1 LOG3 PUSH1 0x1 DUP2 SLOAD SWAP2 ADD SLOAD GT ISZERO PUSH2 0xAC9 JUMPI JUMPDEST POP PUSH1 0x1 DUP1 SSTORE DUP1 RETURN JUMPDEST DUP1 DUP3 MSTORE PUSH1 0x4 PUSH1 0x20 MSTORE PUSH1 0x40 DUP3 KECCAK256 PUSH1 0x3 DUP2 ADD DUP1 SLOAD PUSH1 0xFF NOT AND PUSH1 0x1 OR SWAP1 SSTORE PUSH1 0x2 SLOAD DUP4 SWAP1 PUSH1 0x8 SHR PUSH1 0x1 PUSH1 0x1 PUSH1 0xA0 SHL SUB AND DUP1 EXTCODESIZE ISZERO PUSH2 0xB6D JUMPI DUP2 DUP1 SWAP2 PUSH1 0x24 PUSH1 0x40 MLOAD DUP1 SWAP5 DUP2 SWAP4 PUSH4 0x62B33759 PUSH1 0xE1 SHL DUP4 MSTORE DUP10 PUSH1 0x4 DUP5 ADD MSTORE GAS CALL DUP1 ISZERO PUSH2 0x5A9 JUMPI PUSH2 0xB59 JUMPI JUMPDEST POP POP PUSH1 0x20 PUSH32 0xA94752E9C9082234A8789D877418277DFC7F671E8C27E4A3C22928CAE0447312 SWAP2 SLOAD PUSH1 0x40 MLOAD SWAP1 DUP2 MSTORE LOG2 CODESIZE PUSH2 0xAC1 JUMP JUMPDEST PUSH2 0xB62 SWAP1 PUSH2 0x17B8 JUMP JUMPDEST PUSH2 0x852 JUMPI DUP3 CODESIZE PUSH2 0xB25 JUMP JUMPDEST POP DUP1 REVERT JUMPDEST SWAP1 POP DUP5 DUP1 DUP1 DUP1 PUSH2 0xB81 DUP7 CALLVALUE PUSH2 0x1A5A JUMP JUMPDEST CALLER GAS CALL PUSH2 0xB8C PUSH2 0x1820 JUMP JUMPDEST POP ISZERO PUSH2 0xB99 JUMPI DUP4 SWAP1 PUSH2 0xA6A JUMP JUMPDEST PUSH1 0x40 MLOAD PUSH3 0x461BCD PUSH1 0xE5 SHL DUP2 MSTORE PUSH1 0x20 PUSH1 0x4 DUP3 ADD MSTORE PUSH1 0xD PUSH1 0x24 DUP3 ADD MSTORE PUSH13 0x1499599D5B990819985A5B1959 PUSH1 0x9A SHL PUSH1 0x44 DUP3 ADD MSTORE PUSH1 0x64 SWAP1 REVERT JUMPDEST PUSH2 0xBDA SWAP2 SWAP3 SWAP4 POP PUSH2 0x17B8 JUMP JUMPDEST PUSH2 0xBE7 JUMPI DUP4 SWAP1 DUP6 CODESIZE PUSH2 0xA60 JUMP JUMPDEST DUP5 DUP1 REVERT JUMPDEST POP PUSH1 0x40 MLOAD SWAP1 RETURNDATASIZE SWAP1 DUP3 RETURNDATACOPY RETURNDATASIZE SWAP1 REVERT JUMPDEST PUSH4 0x4E487B71 PUSH1 0xE0 SHL DUP8 MSTORE PUSH1 0x4 DUP8 SWAP1 MSTORE PUSH1 0x24 DUP8 REVERT JUMPDEST PUSH4 0x4E487B71 PUSH1 0xE0 SHL DUP9 MSTORE PUSH1 0x41 PUSH1 0x4 MSTORE PUSH1 0x24 DUP9 REVERT JUMPDEST PUSH1 0x40 MLOAD PUSH3 0x461BCD PUSH1 0xE5 SHL DUP2 MSTORE PUSH1 0x20 PUSH1 0x4 DUP3 ADD MSTORE PUSH1 0x14 PUSH1 0x24 DUP3 ADD MSTORE PUSH20 0x125B9CDD59999A58DA595B9D081C185E5B595B9D PUSH1 0x62 SHL PUSH1 0x44 DUP3 ADD MSTORE PUSH1 0x64 SWAP1 REVERT JUMPDEST SWAP1 SWAP2 POP PUSH1 0x20 DUP2 RETURNDATASIZE PUSH1 0x20 GT PUSH2 0xC88 JUMPI JUMPDEST DUP2 PUSH2 0xC78 PUSH1 0x20 SWAP4 DUP4 PUSH2 0x17FE JUMP JUMPDEST DUP2 ADD SUB SLT PUSH2 0x5E5 JUMPI MLOAD SWAP1 CODESIZE PUSH2 0x8EE JUMP JUMPDEST RETURNDATASIZE SWAP2 POP PUSH2 0xC6B JUMP JUMPDEST PUSH1 0x40 MLOAD RETURNDATASIZE DUP8 DUP3 RETURNDATACOPY RETURNDATASIZE SWAP1 REVERT JUMPDEST PUSH1 0x40 MLOAD PUSH3 0x461BCD PUSH1 0xE5 SHL DUP2 MSTORE PUSH1 0x20 PUSH1 0x4 DUP3 ADD MSTORE PUSH1 0x17 PUSH1 0x24 DUP3 ADD MSTORE PUSH32 0x46756E64696E6720646561646C696E6520706173736564000000000000000000 PUSH1 0x44 DUP3 ADD MSTORE PUSH1 0x64 SWAP1 REVERT JUMPDEST DUP3 CALLVALUE PUSH2 0x1CE JUMPI PUSH1 0x20 DUP1 PUSH1 0x3 NOT CALLDATASIZE ADD SLT PUSH2 0xB6D JUMPI PUSH1 0x4 CALLDATALOAD DUP3 MSTORE PUSH1 0x3 SWAP1 PUSH1 0x3 DUP2 MSTORE PUSH1 0x40 DUP4 KECCAK256 SWAP3 DUP4 SLOAD PUSH8 0xFFFFFFFFFFFFFFFF DUP2 GT PUSH2 0xE4B JUMPI DUP6 SWAP2 DUP5 DUP7 SWAP3 PUSH1 0x5 SWAP2 PUSH1 0x40 MLOAD SWAP3 PUSH2 0xD30 DUP9 DUP5 PUSH1 0x5 SHL ADD DUP6 PUSH2 0x17FE JUMP JUMPDEST DUP3 DUP5 MSTORE DUP8 DUP5 ADD SWAP2 DUP3 SWAP7 DUP7 MSTORE DUP9 DUP7 KECCAK256 SWAP2 DUP7 SWAP4 JUMPDEST DUP6 DUP6 LT PUSH2 0xDD7 JUMPI POP POP POP POP POP POP PUSH1 0x40 MLOAD SWAP5 DUP6 SWAP5 DUP2 DUP7 ADD SWAP3 DUP3 DUP8 MSTORE MLOAD DUP1 SWAP4 MSTORE PUSH1 0x40 DUP7 ADD SWAP5 SWAP4 SWAP1 JUMPDEST DUP4 DUP3 LT PUSH2 0xD75 JUMPI DUP7 DUP7 SUB DUP8 RETURN JUMPDEST DUP5 MLOAD DUP1 MLOAD PUSH1 0x1 PUSH1 0x1 PUSH1 0xA0 SHL SUB AND DUP8 MSTORE DUP1 DUP5 ADD MLOAD DUP8 DUP6 ADD MSTORE PUSH1 0x40 DUP1 DUP3 ADD MLOAD SWAP1 DUP9 ADD MSTORE PUSH1 0x60 DUP1 DUP3 ADD MLOAD SWAP1 DUP9 ADD MSTORE PUSH1 0x80 DUP1 DUP3 ADD MLOAD SWAP1 DUP9 ADD MSTORE PUSH1 0xA0 DUP1 DUP3 ADD MLOAD SWAP1 DUP9 ADD MSTORE PUSH1 0xC0 SWAP1 DUP2 ADD MLOAD ISZERO ISZERO SWAP1 DUP8 ADD MSTORE DUP8 SWAP7 POP SWAP5 DUP6 ADD SWAP5 SWAP4 DUP3 ADD SWAP4 PUSH1 0x1 SWAP2 SWAP1 SWAP2 ADD SWAP1 PUSH2 0xD68 JUMP JUMPDEST PUSH1 0x7 DUP12 PUSH1 0x1 SWAP3 PUSH1 0x40 SWAP14 SWAP11 SWAP10 SWAP12 SWAP13 SWAP14 MLOAD PUSH2 0xDEF DUP2 PUSH2 0x17E2 JUMP JUMPDEST DUP5 DUP1 PUSH1 0xA0 SHL SUB DUP9 SLOAD AND DUP2 MSTORE DUP5 DUP9 ADD SLOAD DUP4 DUP3 ADD MSTORE PUSH1 0x2 DUP9 ADD SLOAD PUSH1 0x40 DUP3 ADD MSTORE DUP7 DUP9 ADD SLOAD PUSH1 0x60 DUP3 ADD MSTORE PUSH1 0x4 DUP9 ADD SLOAD PUSH1 0x80 DUP3 ADD MSTORE DUP6 DUP9 ADD SLOAD PUSH1 0xA0 DUP3 ADD MSTORE PUSH1 0xFF PUSH1 0x6 DUP10 ADD SLOAD AND ISZERO ISZERO PUSH1 0xC0 DUP3 ADD MSTORE DUP2 MSTORE ADD SWAP5 ADD SWAP5 ADD SWAP4 SWAP3 SWAP10 SWAP9 SWAP8 SWAP6 SWAP7 SWAP10 PUSH2 0xD42 JUMP JUMPDEST PUSH4 0x4E487B71 PUSH1 0xE0 SHL DUP3 MSTORE PUSH1 0x41 PUSH1 0x4 MSTORE PUSH1 0x24 DUP3 REVERT JUMPDEST DUP3 CALLVALUE PUSH2 0x1CE JUMPI PUSH1 0x20 SWAP1 PUSH1 0x20 PUSH1 0x3 NOT CALLDATASIZE ADD SLT PUSH2 0x1CE JUMPI PUSH1 0x4 CALLDATALOAD PUSH8 0xFFFFFFFFFFFFFFFF DUP2 GT PUSH2 0xB6D JUMPI PUSH2 0xE95 DUP4 SWAP2 CALLDATASIZE SWAP1 PUSH1 0x4 ADD PUSH2 0x170B JUMP JUMPDEST POP POP PUSH2 0xE9F PUSH2 0x194D JUMP JUMPDEST SWAP2 PUSH1 0x40 MLOAD SWAP4 DUP5 SWAP3 ISZERO ISZERO DUP4 MSTORE PUSH1 0x40 PUSH1 0x20 DUP5 ADD MSTORE DUP4 MLOAD SWAP2 DUP3 PUSH1 0x40 DUP6 ADD MSTORE DUP2 JUMPDEST DUP4 DUP2 LT PUSH2 0xEDD JUMPI POP POP PUSH1 0x60 DUP1 SWAP5 POP DUP3 DUP5 ADD ADD MSTORE PUSH1 0x1F DUP1 NOT SWAP2 ADD AND DUP2 ADD SUB ADD SWAP1 RETURN JUMPDEST DUP1 DUP7 ADD DUP3 ADD MLOAD DUP8 DUP3 ADD PUSH1 0x60 ADD MSTORE DUP7 SWAP5 POP DUP2 ADD PUSH2 0xEBC JUMP JUMPDEST DUP3 CALLVALUE PUSH2 0x1CE JUMPI DUP1 PUSH1 0x3 NOT CALLDATASIZE ADD SLT PUSH2 0x1CE JUMPI PUSH1 0x20 PUSH1 0xFF PUSH1 0x2 SLOAD AND PUSH1 0x40 MLOAD SWAP1 ISZERO ISZERO DUP2 MSTORE RETURN JUMPDEST DUP3 CALLVALUE PUSH2 0x1CE JUMPI PUSH2 0xF26 CALLDATASIZE PUSH2 0x1739 JUMP JUMPDEST DUP2 DUP4 SWAP3 SWAP4 MSTORE PUSH1 0x3 PUSH1 0x20 MSTORE PUSH1 0x40 DUP3 KECCAK256 SLOAD DUP2 LT ISZERO PUSH2 0xFA0 JUMPI PUSH1 0x40 DUP3 PUSH1 0xC0 SWAP5 PUSH2 0xF52 SWAP5 MSTORE PUSH1 0x3 PUSH1 0x20 MSTORE KECCAK256 PUSH2 0x179C JUMP JUMPDEST POP PUSH1 0x1 DUP1 PUSH1 0xA0 SHL SUB DUP2 SLOAD AND SWAP1 PUSH1 0x2 DUP2 ADD SLOAD SWAP1 PUSH1 0x3 DUP2 ADD SLOAD PUSH1 0x4 DUP3 ADD SLOAD SWAP1 PUSH1 0xFF PUSH1 0x6 PUSH1 0x5 DUP6 ADD SLOAD SWAP5 ADD SLOAD AND SWAP4 PUSH1 0x40 MLOAD SWAP6 DUP7 MSTORE PUSH1 0x20 DUP7 ADD MSTORE PUSH1 0x40 DUP6 ADD MSTORE PUSH1 0x60 DUP5 ADD MSTORE PUSH1 0x80 DUP4 ADD MSTORE ISZERO ISZERO PUSH1 0xA0 DUP3 ADD MSTORE RETURN JUMPDEST PUSH1 0x40 MLOAD PUSH3 0x461BCD PUSH1 0xE5 SHL DUP2 MSTORE PUSH1 0x20 PUSH1 0x4 DUP3 ADD MSTORE PUSH1 0x13 PUSH1 0x24 DUP3 ADD MSTORE PUSH19 0x496E646578206F7574206F6620626F756E6473 PUSH1 0x68 SHL PUSH1 0x44 DUP3 ADD MSTORE PUSH1 0x64 SWAP1 REVERT JUMPDEST DUP3 CALLVALUE PUSH2 0x1CE JUMPI PUSH1 0x20 CALLDATASIZE PUSH1 0x3 NOT ADD SLT PUSH2 0x1CE JUMPI PUSH1 0x4 CALLDATALOAD PUSH8 0xFFFFFFFFFFFFFFFF DUP2 GT PUSH2 0xB6D JUMPI PUSH2 0x100F PUSH1 0x20 SWAP2 CALLDATASIZE SWAP1 PUSH1 0x4 ADD PUSH2 0x170B JUMP JUMPDEST SWAP1 DUP1 SWAP3 SWAP2 DUP2 ADD SUB SLT PUSH2 0xB6D JUMPI CALLDATALOAD DUP1 DUP3 MSTORE PUSH1 0x4 PUSH1 0x20 MSTORE PUSH1 0x40 DUP3 KECCAK256 PUSH1 0x7 PUSH1 0x20 MSTORE PUSH2 0x103D PUSH1 0xFF PUSH1 0x40 DUP6 KECCAK256 SLOAD AND PUSH2 0x1889 JUMP JUMPDEST PUSH1 0xFF PUSH1 0x3 DUP3 ADD SLOAD PUSH2 0x1050 DUP3 DUP3 AND ISZERO PUSH2 0x18CB JUMP JUMPDEST PUSH1 0x8 SHR AND PUSH2 0x10A5 JUMPI PUSH1 0x2 PUSH2 0x1068 SWAP2 ADD SLOAD TIMESTAMP LT ISZERO PUSH2 0x190A JUMP JUMPDEST ADDRESS EXTCODESIZE ISZERO PUSH2 0xB6D JUMPI PUSH1 0x40 MLOAD SWAP1 PUSH4 0xC6F56901 PUSH1 0xE0 SHL DUP3 MSTORE PUSH1 0x4 DUP3 ADD MSTORE DUP2 DUP2 PUSH1 0x24 DUP2 DUP4 ADDRESS GAS CALL DUP1 ISZERO PUSH2 0x5A9 JUMPI PUSH2 0x1099 JUMPI POP DUP1 RETURN JUMPDEST PUSH2 0x10A2 SWAP1 PUSH2 0x17B8 JUMP JUMPDEST DUP1 RETURN JUMPDEST PUSH1 0x40 MLOAD PUSH3 0x461BCD PUSH1 0xE5 SHL DUP2 MSTORE PUSH1 0x20 PUSH1 0x4 DUP3 ADD MSTORE PUSH1 0x11 PUSH1 0x24 DUP3 ADD MSTORE PUSH17 0x1499599D5B991CC81C1C9BD8D95CDCD959 PUSH1 0x7A SHL PUSH1 0x44 DUP3 ADD MSTORE PUSH1 0x64 SWAP1 REVERT JUMPDEST DUP3 CALLVALUE PUSH2 0x1CE JUMPI DUP1 PUSH1 0x3 NOT CALLDATASIZE ADD SLT PUSH2 0x1CE JUMPI PUSH1 0x2 SLOAD PUSH1 0x40 MLOAD PUSH1 0x8 SWAP2 SWAP1 SWAP2 SHR PUSH1 0x1 PUSH1 0x1 PUSH1 0xA0 SHL SUB AND DUP2 MSTORE PUSH1 0x20 SWAP1 RETURN JUMPDEST DUP3 CALLVALUE PUSH2 0x1CE JUMPI PUSH1 0x40 CALLDATASIZE PUSH1 0x3 NOT ADD SLT PUSH2 0x1CE JUMPI PUSH1 0x40 PUSH1 0x20 SWAP2 PUSH2 0x112A PUSH2 0x16F5 JUMP JUMPDEST PUSH1 0x4 CALLDATALOAD DUP3 MSTORE PUSH1 0x5 DUP5 MSTORE DUP3 DUP3 KECCAK256 PUSH1 0x1 PUSH1 0x1 PUSH1 0xA0 SHL SUB SWAP1 SWAP2 AND DUP3 MSTORE DUP4 MSTORE KECCAK256 SLOAD PUSH1 0x40 MLOAD SWAP1 DUP2 MSTORE RETURN JUMPDEST DUP3 CALLVALUE PUSH2 0x1CE JUMPI DUP1 PUSH1 0x3 NOT CALLDATASIZE ADD SLT PUSH2 0x1CE JUMPI PUSH2 0x1168 PUSH2 0x1B1E JUMP JUMPDEST PUSH1 0x2 SLOAD PUSH1 0xFF DUP2 AND ISZERO PUSH2 0x11A8 JUMPI PUSH1 0xFF NOT AND PUSH1 0x2 SSTORE PUSH32 0x5DB9EE0A495BF2E6FF9C91A7834C1BA4FDD244A5E8AA4E537BD38AEAE4B073AA PUSH1 0x20 PUSH1 0x40 MLOAD CALLER DUP2 MSTORE LOG1 DUP1 RETURN JUMPDEST PUSH1 0x40 MLOAD PUSH4 0x8DFC202B PUSH1 0xE0 SHL DUP2 MSTORE PUSH1 0x4 SWAP1 REVERT JUMPDEST DUP3 CALLVALUE PUSH2 0x1CE JUMPI PUSH1 0x40 CALLDATASIZE PUSH1 0x3 NOT ADD SLT PUSH2 0x1CE JUMPI PUSH2 0x11D4 PUSH2 0x16F5 JUMP JUMPDEST CALLER PUSH1 0x1 PUSH1 0x1 PUSH1 0xA0 SHL SUB DUP3 AND SUB PUSH2 0x11F0 JUMPI PUSH2 0x26C SWAP1 PUSH1 0x4 CALLDATALOAD PUSH2 0x1C1F JUMP JUMPDEST PUSH1 0x40 MLOAD PUSH4 0x334BD919 PUSH1 0xE1 SHL DUP2 MSTORE PUSH1 0x4 SWAP1 REVERT JUMPDEST DUP3 CALLVALUE PUSH2 0x1CE JUMPI PUSH1 0x20 CALLDATASIZE PUSH1 0x3 NOT ADD SLT PUSH2 0x1CE JUMPI PUSH1 0x4 DUP1 CALLDATALOAD DUP3 MSTORE PUSH1 0x20 MSTORE PUSH1 0x40 DUP2 KECCAK256 PUSH1 0x1 DUP2 ADD SLOAD DUP1 ISZERO SWAP3 DUP4 PUSH2 0x12A8 JUMPI DUP3 SLOAD SWAP4 PUSH2 0x2710 SWAP5 DUP6 DUP2 MUL SWAP6 DUP2 DUP8 DIV EQ SWAP1 ISZERO OR ISZERO PUSH2 0x1294 JUMPI PUSH2 0x1280 JUMPI POP DUP1 PUSH1 0xA0 SWAP4 DIV SWAP1 JUMPDEST DUP3 SLOAD SWAP3 PUSH1 0xFF PUSH1 0x3 PUSH1 0x2 DUP4 ADD SLOAD SWAP3 ADD SLOAD AND SWAP2 PUSH1 0x40 MLOAD SWAP5 DUP6 MSTORE PUSH1 0x20 DUP6 ADD MSTORE PUSH1 0x40 DUP5 ADD MSTORE ISZERO ISZERO PUSH1 0x60 DUP4 ADD MSTORE PUSH1 0x80 DUP3 ADD MSTORE RETURN JUMPDEST PUSH4 0x4E487B71 PUSH1 0xE0 SHL DUP2 MSTORE PUSH1 0x12 PUSH1 0x4 MSTORE PUSH1 0x24 SWAP1 REVERT JUMPDEST PUSH4 0x4E487B71 PUSH1 0xE0 SHL DUP3 MSTORE PUSH1 0x11 PUSH1 0x4 MSTORE PUSH1 0x24 DUP3 REVERT JUMPDEST PUSH1 0xA0 SWAP4 POP SWAP1 PUSH2 0x1251 JUMP JUMPDEST DUP3 CALLVALUE PUSH2 0x1CE JUMPI PUSH1 0x40 CALLDATASIZE PUSH1 0x3 NOT ADD SLT PUSH2 0x1CE JUMPI PUSH2 0x26C PUSH1 0x4 CALLDATALOAD PUSH2 0x12D2 PUSH2 0x16F5 JUMP JUMPDEST SWAP1 DUP1 DUP5 MSTORE DUP4 PUSH1 0x20 MSTORE PUSH2 0x12EA PUSH1 0x1 PUSH1 0x40 DUP7 KECCAK256 ADD SLOAD PUSH2 0x1B58 JUMP JUMPDEST PUSH2 0x1BA1 JUMP JUMPDEST DUP3 CALLVALUE PUSH2 0x1CE JUMPI PUSH1 0x20 CALLDATASIZE PUSH1 0x3 NOT ADD SLT PUSH2 0x1CE JUMPI PUSH1 0x1 PUSH1 0x40 PUSH1 0x20 SWAP3 PUSH1 0x4 CALLDATALOAD DUP2 MSTORE DUP1 DUP5 MSTORE KECCAK256 ADD SLOAD PUSH1 0x40 MLOAD SWAP1 DUP2 MSTORE RETURN JUMPDEST DUP3 CALLVALUE PUSH2 0x1CE JUMPI PUSH1 0x20 CALLDATASIZE PUSH1 0x3 NOT ADD SLT PUSH2 0x1CE JUMPI PUSH1 0x40 PUSH1 0xA0 SWAP2 PUSH1 0x4 CALLDATALOAD DUP2 MSTORE PUSH1 0x4 PUSH1 0x20 MSTORE KECCAK256 PUSH1 0xFF DUP2 SLOAD SWAP2 PUSH1 0x1 DUP2 ADD SLOAD SWAP1 PUSH1 0x3 PUSH1 0x2 DUP3 ADD SLOAD SWAP2 ADD SLOAD SWAP2 PUSH1 0x40 MLOAD SWAP5 DUP6 MSTORE PUSH1 0x20 DUP6 ADD MSTORE PUSH1 0x40 DUP5 ADD MSTORE DUP2 DUP2 AND ISZERO ISZERO PUSH1 0x60 DUP5 ADD MSTORE PUSH1 0x8 SHR AND ISZERO ISZERO PUSH1 0x80 DUP3 ADD MSTORE RETURN JUMPDEST DUP3 CALLVALUE PUSH2 0x1CE JUMPI PUSH1 0x40 CALLDATASIZE PUSH1 0x3 NOT ADD SLT PUSH2 0x1CE JUMPI PUSH1 0x4 CALLDATALOAD PUSH2 0x1397 PUSH2 0x16F5 JUMP JUMPDEST SWAP1 PUSH2 0x13A0 PUSH2 0x1AA4 JUMP JUMPDEST PUSH2 0x13A8 PUSH2 0x1B7E JUMP JUMPDEST DUP1 DUP4 MSTORE PUSH1 0x20 PUSH1 0x4 DUP2 MSTORE PUSH1 0x40 DUP5 KECCAK256 SWAP3 PUSH1 0xFF PUSH1 0x3 DUP6 ADD SLOAD AND ISZERO PUSH2 0x14A5 JUMPI DUP4 SLOAD SWAP4 DUP5 ISZERO PUSH2 0x146A JUMPI DUP6 SWAP1 SSTORE DUP3 DUP6 MSTORE PUSH1 0x7 DUP3 MSTORE PUSH1 0x40 DUP6 KECCAK256 DUP1 SLOAD PUSH1 0xFF NOT AND SWAP1 SSTORE PUSH1 0x1 PUSH1 0x1 PUSH1 0xA0 SHL SUB AND SWAP3 DUP5 DUP1 DUP1 DUP1 DUP5 DUP9 GAS CALL PUSH2 0x13FC PUSH2 0x1820 JUMP JUMPDEST POP ISZERO PUSH2 0x1433 JUMPI SWAP1 PUSH32 0x6E3C6096795C8298A218B2CFB8BDE42726FF7C9A3D27B4D3BA41AB7F74FEB5FB SWAP2 PUSH1 0x40 MLOAD SWAP1 DUP2 MSTORE LOG3 PUSH1 0x1 DUP1 SSTORE DUP1 RETURN JUMPDEST PUSH1 0x40 MLOAD PUSH3 0x461BCD PUSH1 0xE5 SHL DUP2 MSTORE PUSH1 0x4 DUP2 ADD DUP4 SWAP1 MSTORE PUSH1 0xF PUSH1 0x24 DUP3 ADD MSTORE PUSH15 0x151C985B9CD9995C8819985A5B1959 PUSH1 0x8A SHL PUSH1 0x44 DUP3 ADD MSTORE PUSH1 0x64 SWAP1 REVERT JUMPDEST PUSH1 0x40 MLOAD PUSH3 0x461BCD PUSH1 0xE5 SHL DUP2 MSTORE PUSH1 0x4 DUP2 ADD DUP5 SWAP1 MSTORE PUSH1 0x13 PUSH1 0x24 DUP3 ADD MSTORE PUSH19 0x4E6F2066756E647320746F2072656C65617365 PUSH1 0x68 SHL PUSH1 0x44 DUP3 ADD MSTORE PUSH1 0x64 SWAP1 REVERT JUMPDEST PUSH1 0x40 MLOAD PUSH3 0x461BCD PUSH1 0xE5 SHL DUP2 MSTORE PUSH1 0x4 DUP2 ADD DUP4 SWAP1 MSTORE PUSH1 0x14 PUSH1 0x24 DUP3 ADD MSTORE PUSH20 0x46756E64696E67206E6F7420636F6D706C657465 PUSH1 0x60 SHL PUSH1 0x44 DUP3 ADD MSTORE PUSH1 0x64 SWAP1 REVERT JUMPDEST DUP3 CALLVALUE PUSH2 0x1CE JUMPI PUSH1 0x20 CALLDATASIZE PUSH1 0x3 NOT ADD SLT PUSH2 0x1CE JUMPI PUSH1 0xFF PUSH1 0x40 PUSH1 0x20 SWAP3 PUSH1 0x4 CALLDATALOAD DUP2 MSTORE PUSH1 0x7 DUP5 MSTORE KECCAK256 SLOAD AND PUSH1 0x40 MLOAD SWAP1 ISZERO ISZERO DUP2 MSTORE RETURN JUMPDEST DUP3 CALLVALUE PUSH2 0x1CE JUMPI DUP1 PUSH1 0x3 NOT CALLDATASIZE ADD SLT PUSH2 0x1CE JUMPI PUSH1 0x20 PUSH1 0x40 MLOAD PUSH2 0x12C DUP2 MSTORE RETURN JUMPDEST DUP3 CALLVALUE PUSH2 0x1CE JUMPI PUSH1 0x60 CALLDATASIZE PUSH1 0x3 NOT ADD SLT PUSH2 0x1CE JUMPI PUSH1 0x4 CALLDATALOAD PUSH2 0x154A PUSH2 0x1AA4 JUMP JUMPDEST DUP1 DUP3 MSTORE PUSH1 0x7 PUSH1 0x20 MSTORE PUSH1 0xFF PUSH1 0x40 DUP4 KECCAK256 SLOAD AND PUSH2 0x1663 JUMPI PUSH1 0x40 MLOAD PUSH1 0xA0 DUP2 ADD DUP2 DUP2 LT PUSH8 0xFFFFFFFFFFFFFFFF DUP3 GT OR PUSH2 0x164F JUMPI PUSH1 0x40 MSTORE DUP3 DUP2 MSTORE PUSH1 0x20 DUP2 ADD PUSH1 0x24 CALLDATALOAD DUP2 MSTORE PUSH2 0x15D9 PUSH1 0x3 PUSH1 0x40 DUP5 ADD SWAP4 PUSH1 0x44 CALLDATALOAD DUP6 MSTORE PUSH1 0x60 DUP2 ADD SWAP5 DUP8 DUP7 MSTORE PUSH1 0x80 DUP3 ADD SWAP5 DUP9 DUP7 MSTORE DUP8 DUP10 MSTORE PUSH1 0x4 PUSH1 0x20 MSTORE PUSH1 0x40 DUP10 KECCAK256 SWAP3 MLOAD DUP4 SSTORE MLOAD PUSH1 0x1 DUP4 ADD SSTORE MLOAD PUSH1 0x2 DUP3 ADD SSTORE ADD SWAP3 MLOAD ISZERO ISZERO DUP4 SWAP1 PUSH1 0xFF DUP1 NOT DUP4 SLOAD AND SWAP2 ISZERO ISZERO AND OR SWAP1 SSTORE JUMP JUMPDEST MLOAD DUP2 SLOAD PUSH2 0xFF00 NOT AND SWAP1 ISZERO ISZERO PUSH1 0x8 SHL PUSH2 0xFF00 AND OR SWAP1 SSTORE PUSH1 0x6 SLOAD PUSH1 0x1 PUSH1 0x40 SHL DUP2 LT ISZERO PUSH2 0x163B JUMPI DUP1 PUSH1 0x1 PUSH2 0x160D SWAP3 ADD PUSH1 0x6 SSTORE PUSH2 0x174F JUMP JUMPDEST DUP2 SLOAD SWAP1 PUSH1 0x3 SHL SWAP1 DUP4 DUP3 SHL SWAP2 PUSH1 0x0 NOT SWAP1 SHL NOT AND OR SWAP1 SSTORE DUP2 MSTORE PUSH1 0x7 PUSH1 0x20 MSTORE PUSH1 0x40 DUP2 KECCAK256 PUSH1 0x1 PUSH1 0xFF NOT DUP3 SLOAD AND OR SWAP1 SSTORE DUP1 RETURN JUMPDEST PUSH4 0x4E487B71 PUSH1 0xE0 SHL DUP4 MSTORE PUSH1 0x41 PUSH1 0x4 MSTORE PUSH1 0x24 DUP4 REVERT JUMPDEST PUSH4 0x4E487B71 PUSH1 0xE0 SHL DUP5 MSTORE PUSH1 0x41 PUSH1 0x4 MSTORE PUSH1 0x24 DUP5 REVERT JUMPDEST PUSH1 0x40 MLOAD PUSH3 0x461BCD PUSH1 0xE5 SHL DUP2 MSTORE PUSH1 0x20 PUSH1 0x4 DUP3 ADD MSTORE PUSH1 0x15 PUSH1 0x24 DUP3 ADD MSTORE PUSH21 0x457363726F7720616C726561647920657869737473 PUSH1 0x58 SHL PUSH1 0x44 DUP3 ADD MSTORE PUSH1 0x64 SWAP1 REVERT JUMPDEST DUP4 SWAP1 CALLVALUE PUSH2 0xB6D JUMPI PUSH1 0x20 CALLDATASIZE PUSH1 0x3 NOT ADD SLT PUSH2 0xB6D JUMPI PUSH1 0x4 CALLDATALOAD PUSH4 0xFFFFFFFF PUSH1 0xE0 SHL DUP2 AND DUP1 SWAP2 SUB PUSH2 0x852 JUMPI PUSH1 0x20 SWAP3 POP PUSH4 0x7965DB0B PUSH1 0xE0 SHL DUP2 EQ SWAP1 DUP2 ISZERO PUSH2 0x16E4 JUMPI JUMPDEST POP ISZERO ISZERO DUP2 MSTORE RETURN JUMPDEST PUSH4 0x1FFC9A7 PUSH1 0xE0 SHL EQ SWAP1 POP DUP4 PUSH2 0x16DD JUMP JUMPDEST PUSH1 0x24 CALLDATALOAD SWAP1 PUSH1 0x1 PUSH1 0x1 PUSH1 0xA0 SHL SUB DUP3 AND DUP3 SUB PUSH2 0x5E5 JUMPI JUMP JUMPDEST SWAP2 DUP2 PUSH1 0x1F DUP5 ADD SLT ISZERO PUSH2 0x5E5 JUMPI DUP3 CALLDATALOAD SWAP2 PUSH8 0xFFFFFFFFFFFFFFFF DUP4 GT PUSH2 0x5E5 JUMPI PUSH1 0x20 DUP4 DUP2 DUP7 ADD SWAP6 ADD ADD GT PUSH2 0x5E5 JUMPI JUMP JUMPDEST PUSH1 0x40 SWAP1 PUSH1 0x3 NOT ADD SLT PUSH2 0x5E5 JUMPI PUSH1 0x4 CALLDATALOAD SWAP1 PUSH1 0x24 CALLDATALOAD SWAP1 JUMP JUMPDEST PUSH1 0x6 SLOAD DUP2 LT ISZERO PUSH2 0x1786 JUMPI PUSH1 0x6 PUSH1 0x0 MSTORE PUSH32 0xF652222313E28459528D920B65115C16C04F3EFC82AAEDC97BE59F3F377C0D3F ADD SWAP1 PUSH1 0x0 SWAP1 JUMP JUMPDEST PUSH4 0x4E487B71 PUSH1 0xE0 SHL PUSH1 0x0 MSTORE PUSH1 0x32 PUSH1 0x4 MSTORE PUSH1 0x24 PUSH1 0x0 REVERT JUMPDEST DUP1 SLOAD DUP3 LT ISZERO PUSH2 0x1786 JUMPI PUSH1 0x0 MSTORE PUSH1 0x7 PUSH1 0x20 PUSH1 0x0 KECCAK256 SWAP2 MUL ADD SWAP1 PUSH1 0x0 SWAP1 JUMP JUMPDEST PUSH8 0xFFFFFFFFFFFFFFFF DUP2 GT PUSH2 0x17CC JUMPI PUSH1 0x40 MSTORE JUMP JUMPDEST PUSH4 0x4E487B71 PUSH1 0xE0 SHL PUSH1 0x0 MSTORE PUSH1 0x41 PUSH1 0x4 MSTORE PUSH1 0x24 PUSH1 0x0 REVERT JUMPDEST PUSH1 0xE0 DUP2 ADD SWAP1 DUP2 LT PUSH8 0xFFFFFFFFFFFFFFFF DUP3 GT OR PUSH2 0x17CC JUMPI PUSH1 0x40 MSTORE JUMP JUMPDEST SWAP1 PUSH1 0x1F DUP1 NOT SWAP2 ADD AND DUP2 ADD SWAP1 DUP2 LT PUSH8 0xFFFFFFFFFFFFFFFF DUP3 GT OR PUSH2 0x17CC JUMPI PUSH1 0x40 MSTORE JUMP JUMPDEST RETURNDATASIZE ISZERO PUSH2 0x185B JUMPI RETURNDATASIZE SWAP1 PUSH8 0xFFFFFFFFFFFFFFFF DUP3 GT PUSH2 0x17CC JUMPI PUSH1 0x40 MLOAD SWAP2 PUSH2 0x184F PUSH1 0x1F DUP3 ADD PUSH1 0x1F NOT AND PUSH1 0x20 ADD DUP5 PUSH2 0x17FE JUMP JUMPDEST DUP3 MSTORE RETURNDATASIZE PUSH1 0x0 PUSH1 0x20 DUP5 ADD RETURNDATACOPY JUMP JUMPDEST PUSH1 0x60 SWAP1 JUMP JUMPDEST DUP2 DUP2 MUL SWAP3 SWAP2 DUP2 ISZERO SWAP2 DUP5 DIV EQ OR ISZERO PUSH2 0x1873 JUMPI JUMP JUMPDEST PUSH4 0x4E487B71 PUSH1 0xE0 SHL PUSH1 0x0 MSTORE PUSH1 0x11 PUSH1 0x4 MSTORE PUSH1 0x24 PUSH1 0x0 REVERT JUMPDEST ISZERO PUSH2 0x1890 JUMPI JUMP JUMPDEST PUSH1 0x40 MLOAD PUSH3 0x461BCD PUSH1 0xE5 SHL DUP2 MSTORE PUSH1 0x20 PUSH1 0x4 DUP3 ADD MSTORE PUSH1 0x13 PUSH1 0x24 DUP3 ADD MSTORE PUSH19 0x50726F7065727479206E6F7420616374697665 PUSH1 0x68 SHL PUSH1 0x44 DUP3 ADD MSTORE PUSH1 0x64 SWAP1 REVERT JUMPDEST ISZERO PUSH2 0x18D2 JUMPI JUMP JUMPDEST PUSH1 0x40 MLOAD PUSH3 0x461BCD PUSH1 0xE5 SHL DUP2 MSTORE PUSH1 0x20 PUSH1 0x4 DUP3 ADD MSTORE PUSH1 0x10 PUSH1 0x24 DUP3 ADD MSTORE PUSH16 0x46756E64696E6720636F6D706C657465 PUSH1 0x80 SHL PUSH1 0x44 DUP3 ADD MSTORE PUSH1 0x64 SWAP1 REVERT JUMPDEST ISZERO PUSH2 0x1911 JUMPI JUMP JUMPDEST PUSH1 0x40 MLOAD PUSH3 0x461BCD PUSH1 0xE5 SHL DUP2 MSTORE PUSH1 0x20 PUSH1 0x4 DUP3 ADD MSTORE PUSH1 0x14 PUSH1 0x24 DUP3 ADD MSTORE PUSH20 0x111958591B1A5B99481B9BDD081C995858DA1959 PUSH1 0x62 SHL PUSH1 0x44 DUP3 ADD MSTORE PUSH1 0x64 SWAP1 REVERT JUMPDEST PUSH1 0x6 SLOAD PUSH1 0x0 JUMPDEST DUP2 DUP2 LT PUSH2 0x1983 JUMPI POP POP PUSH1 0x0 SWAP1 PUSH1 0x40 MLOAD PUSH1 0x20 DUP2 ADD DUP2 DUP2 LT PUSH8 0xFFFFFFFFFFFFFFFF DUP3 GT OR PUSH2 0x17CC JUMPI PUSH1 0x40 MSTORE PUSH1 0x0 DUP2 MSTORE SWAP1 JUMP JUMPDEST PUSH2 0x198C DUP2 PUSH2 0x174F JUMP JUMPDEST SWAP1 SLOAD PUSH1 0x3 SWAP2 DUP3 SHL SHR SWAP1 DUP2 PUSH1 0x0 MSTORE PUSH1 0x4 SWAP1 PUSH1 0x20 DUP3 DUP2 MSTORE PUSH1 0x40 SWAP2 DUP3 PUSH1 0x0 KECCAK256 PUSH1 0x7 DUP4 MSTORE PUSH1 0xFF DUP1 DUP6 PUSH1 0x0 KECCAK256 SLOAD AND SWAP3 DUP4 PUSH2 0x1A3F JUMPI JUMPDEST DUP4 PUSH2 0x1A2E JUMPI JUMPDEST POP POP DUP2 PUSH2 0x1A1F JUMPI JUMPDEST POP PUSH2 0x19DB JUMPI POP POP POP POP PUSH1 0x1 ADD PUSH2 0x1953 JUMP JUMPDEST SWAP2 SWAP4 POP DUP1 SWAP3 SWAP6 SWAP5 POP MLOAD SWAP5 DUP2 DUP7 ADD MSTORE DUP5 MSTORE DUP1 DUP5 ADD SWAP2 DUP5 DUP4 LT PUSH8 0xFFFFFFFFFFFFFFFF DUP5 GT OR PUSH2 0x1A0A JUMPI POP MSTORE PUSH1 0x1 SWAP2 SWAP1 JUMP JUMPDEST PUSH1 0x41 SWAP1 PUSH4 0x4E487B71 PUSH1 0xE0 SHL PUSH1 0x0 MSTORE MSTORE PUSH1 0x24 PUSH1 0x0 REVERT JUMPDEST PUSH1 0x2 SWAP2 POP ADD SLOAD TIMESTAMP LT ISZERO CODESIZE PUSH2 0x19CA JUMP JUMPDEST DUP3 ADD SLOAD PUSH1 0x8 SHR AND ISZERO SWAP2 POP CODESIZE DUP1 PUSH2 0x19C2 JUMP JUMPDEST DUP3 DUP2 ADD SLOAD DUP3 AND ISZERO SWAP4 POP PUSH2 0x19BC JUMP JUMPDEST SWAP2 SWAP1 DUP3 ADD DUP1 SWAP3 GT PUSH2 0x1873 JUMPI JUMP JUMPDEST SWAP2 SWAP1 DUP3 SUB SWAP2 DUP3 GT PUSH2 0x1873 JUMPI JUMP JUMPDEST SWAP1 PUSH2 0x1A72 SWAP1 TIMESTAMP PUSH2 0x1A5A JUMP JUMPDEST SWAP1 PUSH2 0x12C SWAP2 DUP3 DUP3 MUL SWAP3 DUP3 DUP5 DIV EQ DUP3 ISZERO OR ISZERO PUSH2 0x1873 JUMPI PUSH2 0x1A9A PUSH5 0x496CEBB800 SWAP2 PUSH2 0x1AA1 SWAP5 PUSH2 0x1860 JUMP JUMPDEST DIV SWAP1 PUSH2 0x1A4D JUMP JUMPDEST SWAP1 JUMP JUMPDEST CALLER PUSH1 0x0 SWAP1 DUP2 MSTORE PUSH32 0xEE57CD81E84075558E8FCC182A1F4393F91FC97F963A136E66B7F949A62F319F PUSH1 0x20 MSTORE PUSH1 0x40 SWAP1 KECCAK256 SLOAD PUSH32 0x97667070C54EF182B0F5858B034BEAC1B6F3089AA2D3188BB1E8929F4FA9B929 SWAP1 PUSH1 0xFF AND ISZERO PUSH2 0x1B00 JUMPI POP JUMP JUMPDEST PUSH1 0x44 SWAP1 PUSH1 0x40 MLOAD SWAP1 PUSH4 0xE2517D3F PUSH1 0xE0 SHL DUP3 MSTORE CALLER PUSH1 0x4 DUP4 ADD MSTORE PUSH1 0x24 DUP3 ADD MSTORE REVERT JUMPDEST CALLER PUSH1 0x0 SWAP1 DUP2 MSTORE PUSH32 0xAD3228B676F7D3CD4284A5443F17F1962B36E491B30A40B2405849E597BA5FB5 PUSH1 0x20 MSTORE PUSH1 0x40 DUP2 KECCAK256 SLOAD PUSH1 0xFF AND ISZERO PUSH2 0x1B00 JUMPI POP JUMP JUMPDEST DUP1 PUSH1 0x0 MSTORE PUSH1 0x0 PUSH1 0x20 MSTORE PUSH1 0x40 PUSH1 0x0 KECCAK256 CALLER PUSH1 0x0 MSTORE PUSH1 0x20 MSTORE PUSH1 0xFF PUSH1 0x40 PUSH1 0x0 KECCAK256 SLOAD AND ISZERO PUSH2 0x1B00 JUMPI POP JUMP JUMPDEST PUSH1 0x2 PUSH1 0x1 SLOAD EQ PUSH2 0x1B8F JUMPI PUSH1 0x2 PUSH1 0x1 SSTORE JUMP JUMPDEST PUSH1 0x40 MLOAD PUSH4 0x3EE5AEB5 PUSH1 0xE0 SHL DUP2 MSTORE PUSH1 0x4 SWAP1 REVERT JUMPDEST SWAP1 PUSH1 0x0 SWAP2 DUP1 DUP4 MSTORE DUP3 PUSH1 0x20 MSTORE PUSH1 0x40 DUP4 KECCAK256 SWAP2 PUSH1 0x1 DUP1 PUSH1 0xA0 SHL SUB AND SWAP2 DUP3 DUP5 MSTORE PUSH1 0x20 MSTORE PUSH1 0xFF PUSH1 0x40 DUP5 KECCAK256 SLOAD AND ISZERO PUSH1 0x0 EQ PUSH2 0x1C1A JUMPI DUP1 DUP4 MSTORE DUP3 PUSH1 0x20 MSTORE PUSH1 0x40 DUP4 KECCAK256 DUP3 DUP5 MSTORE PUSH1 0x20 MSTORE PUSH1 0x40 DUP4 KECCAK256 PUSH1 0x1 PUSH1 0xFF NOT DUP3 SLOAD AND OR SWAP1 SSTORE PUSH32 0x2F8788117E7EFF1D82E926EC794901D17C78024A50270940304540A733656F0D CALLER SWAP4 DUP1 LOG4 PUSH1 0x1 SWAP1 JUMP JUMPDEST POP POP SWAP1 JUMP JUMPDEST SWAP1 PUSH1 0x0 SWAP2 DUP1 DUP4 MSTORE DUP3 PUSH1 0x20 MSTORE PUSH1 0x40 DUP4 KECCAK256 SWAP2 PUSH1 0x1 DUP1 PUSH1 0xA0 SHL SUB AND SWAP2 DUP3 DUP5 MSTORE PUSH1 0x20 MSTORE PUSH1 0xFF PUSH1 0x40 DUP5 KECCAK256 SLOAD AND PUSH1 0x0 EQ PUSH2 0x1C1A JUMPI DUP1 DUP4 MSTORE DUP3 PUSH1 0x20 MSTORE PUSH1 0x40 DUP4 KECCAK256 DUP3 DUP5 MSTORE PUSH1 0x20 MSTORE PUSH1 0x40 DUP4 KECCAK256 PUSH1 0xFF NOT DUP2 SLOAD AND SWAP1 SSTORE PUSH32 0xF6391F5C32D9C69D2A47EA670B442974B53935D1EDC7FD64EB21E047A839171B CALLER SWAP4 DUP1 LOG4 PUSH1 0x1 SWAP1 JUMP JUMPDEST PUSH1 0xFF PUSH1 0x2 SLOAD AND PUSH2 0x1CA0 JUMPI JUMP JUMPDEST PUSH1 0x40 MLOAD PUSH4 0xD93C0665 PUSH1 0xE0 SHL DUP2 MSTORE PUSH1 0x4 SWAP1 REVERT INVALID LOG2 PUSH5 0x6970667358 0x22 SLT KECCAK256 LOG2 0xCF 0xE4 SWAP9 0xA5 SWAP5 0x2F 0xED KECCAK256 0xB5 0xE0 SWAP11 0xB8 PUSH12 0x22AB1D75895C7DD32E83ADE4 0xC3 NUMBER PUSH28 0x7E423564736F6C634300081800332F8788117E7EFF1D82E926EC7949 ADD 0xD1 PUSH29 0x78024A50270940304540A733656F0D0000000000000000000000000000 "},"methodIdentifiers":{"BASIS_POINTS()":"e1f1c4a7","DEFAULT_ADMIN_ROLE()":"a217fddf","OPERATOR_ROLE()":"f5b541a6","REFUND_APR()":"14a2873a","SECONDS_PER_YEAR()":"e6a69ab8","activeProperties(uint256)":"a8b268de","buyerContributions(uint256,address)":"11e2e175","calculateRefund(uint256,uint256)":"e38abd0f","checkUpkeep(bytes)":"6e04ff0d","getEscrowStatus(uint256)":"345460cd","getInvestorContribution(uint256,address)":"40a0841b","getPurchaseCount(uint256)":"9093bb20","getPurchaseForAudit(uint256,uint256)":"50e2f0f7","getPurchases(uint256)":"6f629ed5","getRoleAdmin(bytes32)":"248a9ca3","grantRole(bytes32,address)":"2f2ff15d","hasRole(bytes32,address)":"91d14854","initializeEscrow(uint256,uint256,uint256)":"066d4d5e","isPropertyActive(uint256)":"154bb891","pause()":"8456cb59","paused()":"5c975abb","performUpkeep(bytes)":"4585e33b","processRefunds(uint256)":"c6f56901","propertyEscrows(uint256)":"2430fc3d","propertyPurchases(uint256,uint256)":"d2e0f66e","propertyToken()":"43ae2695","purchase(uint256,uint256)":"70876c98","releaseFunds(uint256,address)":"1af23a59","renounceRole(bytes32,address)":"36568abe","reportSuspiciousActivity(uint256,address,string)":"7f42ff64","revokeRole(bytes32,address)":"d547741f","supportsInterface(bytes4)":"01ffc9a7","unpause()":"3f4ba83a"}}}}}