{"contracts/PropertyToken.sol":{"PropertyToken":{"abi":[{"inputs":[{"internalType":"string","name":"uri_","type":"string"}],"stateMutability":"nonpayable","type":"constructor"},{"inputs":[],"name":"AccessControlBadConfirmation","type":"error"},{"inputs":[{"internalType":"address","name":"account","type":"address"},{"internalType":"bytes32","name":"neededRole","type":"bytes32"}],"name":"AccessControlUnauthorizedAccount","type":"error"},{"inputs":[{"internalType":"address","name":"sender","type":"address"},{"internalType":"uint256","name":"balance","type":"uint256"},{"internalType":"uint256","name":"needed","type":"uint256"},{"internalType":"uint256","name":"tokenId","type":"uint256"}],"name":"ERC1155InsufficientBalance","type":"error"},{"inputs":[{"internalType":"address","name":"approver","type":"address"}],"name":"ERC1155InvalidApprover","type":"error"},{"inputs":[{"internalType":"uint256","name":"idsLength","type":"uint256"},{"internalType":"uint256","name":"valuesLength","type":"uint256"}],"name":"ERC1155InvalidArrayLength","type":"error"},{"inputs":[{"internalType":"address","name":"operator","type":"address"}],"name":"ERC1155InvalidOperator","type":"error"},{"inputs":[{"internalType":"address","name":"receiver","type":"address"}],"name":"ERC1155InvalidReceiver","type":"error"},{"inputs":[{"internalType":"address","name":"sender","type":"address"}],"name":"ERC1155InvalidSender","type":"error"},{"inputs":[{"internalType":"address","name":"operator","type":"address"},{"internalType":"address","name":"owner","type":"address"}],"name":"ERC1155MissingApprovalForAll","type":"error"},{"inputs":[],"name":"EnforcedPause","type":"error"},{"inputs":[],"name":"ExpectedPause","type":"error"},{"inputs":[],"name":"ReentrancyGuardReentrantCall","type":"error"},{"anonymous":false,"inputs":[{"indexed":true,"internalType":"address","name":"account","type":"address"}],"name":"AddressRemovedFromWhitelist","type":"event"},{"anonymous":false,"inputs":[{"indexed":true,"internalType":"address","name":"account","type":"address"},{"indexed":false,"internalType":"enum PropertyToken.Phase","name":"eligibility","type":"uint8"}],"name":"AddressWhitelisted","type":"event"},{"anonymous":false,"inputs":[{"indexed":true,"internalType":"address","name":"account","type":"address"},{"indexed":true,"internalType":"address","name":"operator","type":"address"},{"indexed":false,"internalType":"bool","name":"approved","type":"bool"}],"name":"ApprovalForAll","type":"event"},{"anonymous":false,"inputs":[{"indexed":false,"internalType":"uint256","name":"newPrice","type":"uint256"}],"name":"BasePriceUpdated","type":"event"},{"anonymous":false,"inputs":[{"indexed":false,"internalType":"address","name":"account","type":"address"}],"name":"Paused","type":"event"},{"anonymous":false,"inputs":[{"indexed":true,"internalType":"uint256","name":"propertyId","type":"uint256"},{"indexed":false,"internalType":"enum PropertyToken.Phase","name":"newPhase","type":"uint8"}],"name":"PhaseAdvanced","type":"event"},{"anonymous":false,"inputs":[{"indexed":true,"internalType":"uint256","name":"propertyId","type":"uint256"},{"indexed":false,"internalType":"string","name":"name","type":"string"},{"indexed":false,"internalType":"uint256","name":"totalSupply","type":"uint256"},{"indexed":false,"internalType":"uint256","name":"fundingTarget","type":"uint256"}],"name":"PropertyCreated","type":"event"},{"anonymous":false,"inputs":[{"indexed":true,"internalType":"uint256","name":"propertyId","type":"uint256"},{"indexed":false,"internalType":"uint256","name":"totalRaised","type":"uint256"}],"name":"PropertyFunded","type":"event"},{"anonymous":false,"inputs":[{"indexed":true,"internalType":"bytes32","name":"role","type":"bytes32"},{"indexed":true,"internalType":"bytes32","name":"previousAdminRole","type":"bytes32"},{"indexed":true,"internalType":"bytes32","name":"newAdminRole","type":"bytes32"}],"name":"RoleAdminChanged","type":"event"},{"anonymous":false,"inputs":[{"indexed":true,"internalType":"bytes32","name":"role","type":"bytes32"},{"indexed":true,"internalType":"address","name":"account","type":"address"},{"indexed":true,"internalType":"address","name":"sender","type":"address"}],"name":"RoleGranted","type":"event"},{"anonymous":false,"inputs":[{"indexed":true,"internalType":"bytes32","name":"role","type":"bytes32"},{"indexed":true,"internalType":"address","name":"account","type":"address"},{"indexed":true,"internalType":"address","name":"sender","type":"address"}],"name":"RoleRevoked","type":"event"},{"anonymous":false,"inputs":[{"indexed":true,"internalType":"uint256","name":"propertyId","type":"uint256"},{"indexed":true,"internalType":"address","name":"from","type":"address"},{"indexed":false,"internalType":"uint256","name":"amount","type":"uint256"},{"indexed":false,"internalType":"enum PropertyToken.Phase","name":"phase","type":"uint8"}],"name":"TokensBurned","type":"event"},{"anonymous":false,"inputs":[{"indexed":true,"internalType":"uint256","name":"propertyId","type":"uint256"},{"indexed":true,"internalType":"address","name":"buyer","type":"address"},{"indexed":false,"internalType":"uint256","name":"amount","type":"uint256"},{"indexed":false,"internalType":"enum PropertyToken.Phase","name":"phase","type":"uint8"}],"name":"TokensMinted","type":"event"},{"anonymous":false,"inputs":[{"indexed":true,"internalType":"address","name":"operator","type":"address"},{"indexed":true,"internalType":"address","name":"from","type":"address"},{"indexed":true,"internalType":"address","name":"to","type":"address"},{"indexed":false,"internalType":"uint256[]","name":"ids","type":"uint256[]"},{"indexed":false,"internalType":"uint256[]","name":"values","type":"uint256[]"}],"name":"TransferBatch","type":"event"},{"anonymous":false,"inputs":[{"indexed":true,"internalType":"address","name":"operator","type":"address"},{"indexed":true,"internalType":"address","name":"from","type":"address"},{"indexed":true,"internalType":"address","name":"to","type":"address"},{"indexed":false,"internalType":"uint256","name":"id","type":"uint256"},{"indexed":false,"internalType":"uint256","name":"value","type":"uint256"}],"name":"TransferSingle","type":"event"},{"anonymous":false,"inputs":[{"indexed":false,"internalType":"string","name":"value","type":"string"},{"indexed":true,"internalType":"uint256","name":"id","type":"uint256"}],"name":"URI","type":"event"},{"anonymous":false,"inputs":[{"indexed":false,"internalType":"address","name":"account","type":"address"}],"name":"Unpaused","type":"event"},{"inputs":[],"name":"BURNER_ROLE","outputs":[{"internalType":"bytes32","name":"","type":"bytes32"}],"stateMutability":"view","type":"function"},{"inputs":[],"name":"COUNTY_ALLOCATION","outputs":[{"internalType":"uint256","name":"","type":"uint256"}],"stateMutability":"view","type":"function"},{"inputs":[],"name":"COUNTY_MULTIPLIER","outputs":[{"internalType":"uint256","name":"","type":"uint256"}],"stateMutability":"view","type":"function"},{"inputs":[],"name":"COUNTY_VOTING_MULTIPLIER","outputs":[{"internalType":"uint256","name":"","type":"uint256"}],"stateMutability":"view","type":"function"},{"inputs":[],"name":"DEFAULT_ADMIN_ROLE","outputs":[{"internalType":"bytes32","name":"","type":"bytes32"}],"stateMutability":"view","type":"function"},{"inputs":[],"name":"INTERNATIONAL_ALLOCATION","outputs":[{"internalType":"uint256","name":"","type":"uint256"}],"stateMutability":"view","type":"function"},{"inputs":[],"name":"INTERNATIONAL_MULTIPLIER","outputs":[{"internalType":"uint256","name":"","type":"uint256"}],"stateMutability":"view","type":"function"},{"inputs":[],"name":"INTERNATIONAL_VOTING_MULTIPLIER","outputs":[{"internalType":"uint256","name":"","type":"uint256"}],"stateMutability":"view","type":"function"},{"inputs":[],"name":"MINTER_ROLE","outputs":[{"internalType":"bytes32","name":"","type":"bytes32"}],"stateMutability":"view","type":"function"},{"inputs":[],"name":"NATIONAL_ALLOCATION","outputs":[{"internalType":"uint256","name":"","type":"uint256"}],"stateMutability":"view","type":"function"},{"inputs":[],"name":"NATIONAL_MULTIPLIER","outputs":[{"internalType":"uint256","name":"","type":"uint256"}],"stateMutability":"view","type":"function"},{"inputs":[],"name":"NATIONAL_VOTING_MULTIPLIER","outputs":[{"internalType":"uint256","name":"","type":"uint256"}],"stateMutability":"view","type":"function"},{"inputs":[],"name":"PAUSER_ROLE","outputs":[{"internalType":"bytes32","name":"","type":"bytes32"}],"stateMutability":"view","type":"function"},{"inputs":[],"name":"PHASE_ADVANCER_ROLE","outputs":[{"internalType":"bytes32","name":"","type":"bytes32"}],"stateMutability":"view","type":"function"},{"inputs":[],"name":"STATE_ALLOCATION","outputs":[{"internalType":"uint256","name":"","type":"uint256"}],"stateMutability":"view","type":"function"},{"inputs":[],"name":"STATE_MULTIPLIER","outputs":[{"internalType":"uint256","name":"","type":"uint256"}],"stateMutability":"view","type":"function"},{"inputs":[],"name":"STATE_VOTING_MULTIPLIER","outputs":[{"internalType":"uint256","name":"","type":"uint256"}],"stateMutability":"view","type":"function"},{"inputs":[],"name":"WHITELIST_ADMIN_ROLE","outputs":[{"internalType":"bytes32","name":"","type":"bytes32"}],"stateMutability":"view","type":"function"},{"inputs":[{"internalType":"address","name":"account","type":"address"},{"internalType":"enum PropertyToken.Phase","name":"eligibility","type":"uint8"}],"name":"addToWhitelist","outputs":[],"stateMutability":"nonpayable","type":"function"},{"inputs":[{"internalType":"address","name":"","type":"address"}],"name":"addressPhaseEligibility","outputs":[{"internalType":"enum PropertyToken.Phase","name":"","type":"uint8"}],"stateMutability":"view","type":"function"},{"inputs":[{"internalType":"uint256","name":"propertyId","type":"uint256"}],"name":"advancePhase","outputs":[],"stateMutability":"nonpayable","type":"function"},{"inputs":[{"internalType":"address","name":"account","type":"address"},{"internalType":"enum PropertyToken.Phase","name":"eligibility","type":"uint8"},{"internalType":"bytes","name":"verificationData","type":"bytes"}],"name":"autoWhitelist","outputs":[],"stateMutability":"nonpayable","type":"function"},{"inputs":[{"internalType":"address","name":"account","type":"address"},{"internalType":"uint256","name":"id","type":"uint256"}],"name":"balanceOf","outputs":[{"internalType":"uint256","name":"","type":"uint256"}],"stateMutability":"view","type":"function"},{"inputs":[{"internalType":"address[]","name":"accounts","type":"address[]"},{"internalType":"uint256[]","name":"ids","type":"uint256[]"}],"name":"balanceOfBatch","outputs":[{"internalType":"uint256[]","name":"","type":"uint256[]"}],"stateMutability":"view","type":"function"},{"inputs":[],"name":"basePrice","outputs":[{"internalType":"uint256","name":"","type":"uint256"}],"stateMutability":"view","type":"function"},{"inputs":[{"internalType":"address","name":"account","type":"address"},{"internalType":"uint256","name":"id","type":"uint256"},{"internalType":"uint256","name":"value","type":"uint256"}],"name":"burn","outputs":[],"stateMutability":"nonpayable","type":"function"},{"inputs":[{"internalType":"address","name":"account","type":"address"},{"internalType":"uint256[]","name":"ids","type":"uint256[]"},{"internalType":"uint256[]","name":"values","type":"uint256[]"}],"name":"burnBatch","outputs":[],"stateMutability":"nonpayable","type":"function"},{"inputs":[{"internalType":"uint256","name":"propertyId","type":"uint256"},{"internalType":"address","name":"holder","type":"address"},{"internalType":"uint256","name":"amount","type":"uint256"}],"name":"burnFromOnFailure","outputs":[],"stateMutability":"nonpayable","type":"function"},{"inputs":[{"internalType":"string","name":"name","type":"string"},{"internalType":"string","name":"propertyUri","type":"string"},{"internalType":"uint256","name":"totalSupply","type":"uint256"},{"internalType":"uint256","name":"fundingTarget","type":"uint256"},{"internalType":"uint256","name":"fundingDuration","type":"uint256"}],"name":"createProperty","outputs":[{"internalType":"uint256","name":"","type":"uint256"}],"stateMutability":"nonpayable","type":"function"},{"inputs":[{"internalType":"uint256","name":"id","type":"uint256"}],"name":"exists","outputs":[{"internalType":"bool","name":"","type":"bool"}],"stateMutability":"view","type":"function"},{"inputs":[],"name":"getAllPropertyIds","outputs":[{"internalType":"uint256[]","name":"","type":"uint256[]"}],"stateMutability":"view","type":"function"},{"inputs":[{"internalType":"uint256","name":"propertyId","type":"uint256"}],"name":"getCurrentPrice","outputs":[{"internalType":"uint256","name":"","type":"uint256"}],"stateMutability":"view","type":"function"},{"inputs":[{"internalType":"uint256","name":"propertyId","type":"uint256"}],"name":"getProperty","outputs":[{"components":[{"internalType":"uint256","name":"id","type":"uint256"},{"internalType":"string","name":"name","type":"string"},{"internalType":"string","name":"uri","type":"string"},{"internalType":"uint256","name":"totalSupply","type":"uint256"},{"internalType":"uint256","name":"mintedSupply","type":"uint256"},{"internalType":"uint256","name":"fundingTarget","type":"uint256"},{"internalType":"uint256","name":"fundingDeadline","type":"uint256"},{"internalType":"enum PropertyToken.Phase","name":"currentPhase","type":"uint8"},{"internalType":"bool","name":"isActive","type":"bool"},{"internalType":"bool","name":"isFunded","type":"bool"}],"internalType":"struct PropertyToken.Property","name":"","type":"tuple"}],"stateMutability":"view","type":"function"},{"inputs":[],"name":"getPropertyCount","outputs":[{"internalType":"uint256","name":"","type":"uint256"}],"stateMutability":"view","type":"function"},{"inputs":[{"internalType":"bytes32","name":"role","type":"bytes32"}],"name":"getRoleAdmin","outputs":[{"internalType":"bytes32","name":"","type":"bytes32"}],"stateMutability":"view","type":"function"},{"inputs":[{"internalType":"uint256","name":"propertyId","type":"uint256"}],"name":"getTotalWeightedVotingPower","outputs":[{"internalType":"uint256","name":"","type":"uint256"}],"stateMutability":"view","type":"function"},{"inputs":[{"internalType":"enum PropertyToken.Phase","name":"phase","type":"uint8"}],"name":"getVotingMultiplier","outputs":[{"internalType":"uint256","name":"","type":"uint256"}],"stateMutability":"pure","type":"function"},{"inputs":[{"internalType":"uint256","name":"propertyId","type":"uint256"},{"internalType":"address","name":"voter","type":"address"}],"name":"getVotingPower","outputs":[{"internalType":"uint256","name":"","type":"uint256"}],"stateMutability":"view","type":"function"},{"inputs":[{"internalType":"bytes32","name":"role","type":"bytes32"},{"internalType":"address","name":"account","type":"address"}],"name":"grantRole","outputs":[],"stateMutability":"nonpayable","type":"function"},{"inputs":[{"internalType":"bytes32","name":"role","type":"bytes32"},{"internalType":"address","name":"account","type":"address"}],"name":"hasRole","outputs":[{"internalType":"bool","name":"","type":"bool"}],"stateMutability":"view","type":"function"},{"inputs":[{"internalType":"uint256","name":"","type":"uint256"},{"internalType":"address","name":"","type":"address"},{"internalType":"enum PropertyToken.Phase","name":"","type":"uint8"}],"name":"holdingsByPhase","outputs":[{"internalType":"uint256","name":"","type":"uint256"}],"stateMutability":"view","type":"function"},{"inputs":[{"internalType":"address","name":"account","type":"address"},{"internalType":"address","name":"operator","type":"address"}],"name":"isApprovedForAll","outputs":[{"internalType":"bool","name":"","type":"bool"}],"stateMutability":"view","type":"function"},{"inputs":[{"internalType":"uint256","name":"propertyId","type":"uint256"}],"name":"markFunded","outputs":[],"stateMutability":"nonpayable","type":"function"},{"inputs":[{"internalType":"uint256","name":"propertyId","type":"uint256"},{"internalType":"address","name":"buyer","type":"address"},{"internalType":"uint256","name":"amount","type":"uint256"}],"name":"mintTokens","outputs":[],"stateMutability":"nonpayable","type":"function"},{"inputs":[],"name":"pause","outputs":[],"stateMutability":"nonpayable","type":"function"},{"inputs":[],"name":"paused","outputs":[{"internalType":"bool","name":"","type":"bool"}],"stateMutability":"view","type":"function"},{"inputs":[{"internalType":"uint256","name":"","type":"uint256"},{"internalType":"enum PropertyToken.Phase","name":"","type":"uint8"}],"name":"phaseAllocations","outputs":[{"internalType":"uint256","name":"","type":"uint256"}],"stateMutability":"view","type":"function"},{"inputs":[{"internalType":"uint256","name":"","type":"uint256"},{"internalType":"enum PropertyToken.Phase","name":"","type":"uint8"}],"name":"phaseMinted","outputs":[{"internalType":"uint256","name":"","type":"uint256"}],"stateMutability":"view","type":"function"},{"inputs":[{"internalType":"uint256","name":"","type":"uint256"}],"name":"properties","outputs":[{"internalType":"uint256","name":"id","type":"uint256"},{"internalType":"string","name":"name","type":"string"},{"internalType":"string","name":"uri","type":"string"},{"internalType":"uint256","name":"totalSupply","type":"uint256"},{"internalType":"uint256","name":"mintedSupply","type":"uint256"},{"internalType":"uint256","name":"fundingTarget","type":"uint256"},{"internalType":"uint256","name":"fundingDeadline","type":"uint256"},{"internalType":"enum PropertyToken.Phase","name":"currentPhase","type":"uint8"},{"internalType":"bool","name":"isActive","type":"bool"},{"internalType":"bool","name":"isFunded","type":"bool"}],"stateMutability":"view","type":"function"},{"inputs":[],"name":"propertyCount","outputs":[{"internalType":"uint256","name":"","type":"uint256"}],"stateMutability":"view","type":"function"},{"inputs":[{"internalType":"uint256","name":"propertyId","type":"uint256"}],"name":"propertyExists","outputs":[{"internalType":"bool","name":"","type":"bool"}],"stateMutability":"view","type":"function"},{"inputs":[{"internalType":"address","name":"account","type":"address"}],"name":"removeFromWhitelist","outputs":[],"stateMutability":"nonpayable","type":"function"},{"inputs":[{"internalType":"bytes32","name":"role","type":"bytes32"},{"internalType":"address","name":"callerConfirmation","type":"address"}],"name":"renounceRole","outputs":[],"stateMutability":"nonpayable","type":"function"},{"inputs":[{"internalType":"bytes32","name":"role","type":"bytes32"},{"internalType":"address","name":"account","type":"address"}],"name":"revokeRole","outputs":[],"stateMutability":"nonpayable","type":"function"},{"inputs":[{"internalType":"address","name":"from","type":"address"},{"internalType":"address","name":"to","type":"address"},{"internalType":"uint256[]","name":"ids","type":"uint256[]"},{"internalType":"uint256[]","name":"values","type":"uint256[]"},{"internalType":"bytes","name":"data","type":"bytes"}],"name":"safeBatchTransferFrom","outputs":[],"stateMutability":"nonpayable","type":"function"},{"inputs":[{"internalType":"address","name":"from","type":"address"},{"internalType":"address","name":"to","type":"address"},{"internalType":"uint256","name":"id","type":"uint256"},{"internalType":"uint256","name":"value","type":"uint256"},{"internalType":"bytes","name":"data","type":"bytes"}],"name":"safeTransferFrom","outputs":[],"stateMutability":"nonpayable","type":"function"},{"inputs":[{"internalType":"address","name":"operator","type":"address"},{"internalType":"bool","name":"approved","type":"bool"}],"name":"setApprovalForAll","outputs":[],"stateMutability":"nonpayable","type":"function"},{"inputs":[{"internalType":"bytes4","name":"interfaceId","type":"bytes4"}],"name":"supportsInterface","outputs":[{"internalType":"bool","name":"","type":"bool"}],"stateMutability":"view","type":"function"},{"inputs":[],"name":"totalSupply","outputs":[{"internalType":"uint256","name":"","type":"uint256"}],"stateMutability":"view","type":"function"},{"inputs":[{"internalType":"uint256","name":"id","type":"uint256"}],"name":"totalSupply","outputs":[{"internalType":"uint256","name":"","type":"uint256"}],"stateMutability":"view","type":"function"},{"inputs":[],"name":"unpause","outputs":[],"stateMutability":"nonpayable","type":"function"},{"inputs":[{"internalType":"uint256","name":"newPrice","type":"uint256"}],"name":"updateBasePrice","outputs":[],"stateMutability":"nonpayable","type":"function"},{"inputs":[{"internalType":"uint256","name":"","type":"uint256"}],"name":"uri","outputs":[{"internalType":"string","name":"","type":"string"}],"stateMutability":"view","type":"function"},{"inputs":[{"internalType":"address","name":"","type":"address"}],"name":"whitelist","outputs":[{"internalType":"bool","name":"","type":"bool"}],"stateMutability":"view","type":"function"}],"evm":{"bytecode":{"linkReferences":{},"object":"608060405234620002755762004480803803806200001d816200027a565b9283398101906020908181840312620002755780516001600160401b039182821162000275570191601f90848285011215620002755783518381116200024a57601f199462000072828501871684016200027a565b968288528383830101116200027557829060005b838110620002605750506000918701015284519283116200024a57600254936001948581811c911680156200023f575b838210146200022957838111620001dd575b50819284116001146200017457505081929360009262000168575b5050600019600383901b1c191690821b176002555b60ff1960065416600655600755662c68af0bb140006008556200011b33620002a0565b50620001273362000321565b506200013333620003c4565b506200013f3362000462565b506200014b3362000500565b5062000157336200059e565b50604051613e2390816200063d8239f35b015190503880620000e3565b839291921694600260005282600020926000905b878210620001c557505083859610620001ab575b505050811b01600255620000f8565b015160001960f88460031b161c191690553880806200019c565b80878596829496860151815501950193019062000188565b6002600052826000208480870160051c8201928588106200021f575b0160051c019086905b82811062000212575050620000c8565b6000815501869062000202565b92508192620001f9565b634e487b7160e01b600052602260045260246000fd5b90607f1690620000b6565b634e487b7160e01b600052604160045260246000fd5b81810183015189820184015284920162000086565b600080fd5b6040519190601f01601f191682016001600160401b038111838210176200024a57604052565b6001600160a01b031660008181527f05b8ccbb9d4d8fb16ea74ce3c29a41f1b461fbdaff4714a0d9a8eb05499746bc602052604081205490919060ff166200031d5781805260056020526040822081835260205260408220600160ff198254161790553391600080516020620044608339815191528180a4600190565b5090565b6001600160a01b031660008181527f15a28d26fa1bf736cf7edc9922607171ccb09c3c73b808e7772a3013e068a52260205260408120549091907f9f2df0fed2c77648de5860a4cc508cd0818c85b8b8a1ab4ceeef8d981c8956a69060ff16620003bf5780835260056020526040832082845260205260408320600160ff1982541617905560008051602062004460833981519152339380a4600190565b505090565b6001600160a01b031660008181527f99f2891db7a8db76249871a02b43b68c0bb8f22ef8a3bc1034ae9375ef6b7c3c60205260408120549091907f65d7a28e3265b37a6474929f336521b332c1681b933f6cb9f3376673440d862a9060ff16620003bf5780835260056020526040832082845260205260408320600160ff1982541617905560008051602062004460833981519152339380a4600190565b6001600160a01b031660008181527f294bb43e882f8724b7ae88344d047a41612b98ee139a78f923b3689f3cc274b160205260408120549091907f28f5a99355973cc89255b8c4ac88405f27c78ded7608b040ee77a8bdf44d15e29060ff16620003bf5780835260056020526040832082845260205260408320600160ff1982541617905560008051602062004460833981519152339380a4600190565b6001600160a01b031660008181527fc54cc0cad80e711aff5b4fca3e13682b9a8fcd7ff4679fbc81d0391d16e477bd60205260408120549091907f62045f2f519251643cf4b5f0750d99bbda23ce869802ad9f6d52577cd08a645a9060ff16620003bf5780835260056020526040832082845260205260408320600160ff1982541617905560008051602062004460833981519152339380a4600190565b6001600160a01b031660008181527f847f481f687befb06ed3511f1a8dcef57e83007c0147ae5047583d705617093760205260408120549091907f3c11d16cbaffd01df69ce1c404f6340ee057498f5f00246190ea54220576a8489060ff16620003bf5780835260056020526040832082845260205260408320600160ff1982541617905560008051602062004460833981519152339380a460019056fe6080604052600436101561001257600080fd5b60003560e01c8062fdd58e1461040c57806301ffc9a7146104075780630263b8581461040257806304fa6173146103fd5780630e89341c146103f857806311dd6cdc146103a357806318160ddd146103f357806323067248146103ee578063248a9ca3146103e95780632632067a146103e4578063282c51f3146103df5780632eb2c2d6146103da5780632f2ff15d146103d557806332665ffb146103d057806335894afd146103cb57806336568abe146103c65780633bb0b5b6146103c15780633f4ba83a146103bc5780634a164732146103b75780634e1273f4146103b25780634f558e79146103ad5780634ff69e83146103a8578063500e9f73146103a357806354202c4e1461039e5780635561c5b31461039957806358567dd5146103945780635bbe9f5e1461031c5780635c975abb1461038f5780635fc68c461461038a5780636b20c454146103855780636ce2f91d146103805780636ea996771461037b5780637326b901146103765780637ca8c6f11461037157806381aaf4ce1461036c5780638456cb59146103675780638ab1d681146103625780638cdc1e871461035d5780638d6819be1461035857806391d14854146103535780639b19251a1461034e5780639ca0276314610349578063a217fddf14610344578063a22cb4651461033f578063a7907f741461033a578063bd85b03914610335578063c361a33514610330578063c55d0f561461032b578063c5666eb214610326578063c65b682014610321578063c7527d081461031c578063c7876ea414610317578063ceadd5b914610312578063d53913931461030d578063d547741f14610308578063dbdad43214610303578063e63ab1e9146102fe578063e985e9c5146102f9578063edff4969146102f4578063f242432a146102ef578063f5298aca146102ea578063f7b10808146102e5578063f8147a8a146102e05763fd5baa88146102db57600080fd5b612303565b6122e6565b61226b565b612092565b611f8c565b611f48565b611ee7565b611eac565b611e27565b611de8565b611dad565b611d90565b611d72565b6113e8565b611d55565b611c78565b611c5a565b611c3c565b611c10565b611bf3565b611b37565b611b1b565b611ac5565b611a86565b611a34565b6117be565b611723565b6116bb565b611661565b6115ce565b6115b1565b611593565b611561565b611531565b611445565b611428565b611405565b6111da565b6111bd565b611182565b61076d565b6110f3565b6110c5565b61100a565b610f97565b610f2d565b610e5d565b610dec565b610db1565b610ca6565b610bb6565b610a8d565b6108f2565b6107f4565b6107c5565b6107a8565b61078a565b610686565b610614565b61054c565b6104b5565b610456565b600435906001600160a01b038216820361042757565b600080fd5b602435906001600160a01b038216820361042757565b35906001600160a01b038216820361042757565b3461042757604036600319011261042757602061049a610474610411565b6024356000526000835260406000209060018060a01b0316600052602052604060002090565b54604051908152f35b6001600160e01b031981160361042757565b346104275760203660031901126104275760206004356104d4816104a3565b63ffffffff60e01b16637965db0b60e01b81149081156104fa575b506040519015158152f35b636cdb3d1360e11b81149150811561052c575b811561051b575b50386104ef565b6301ffc9a760e01b14905038610514565b6303a24d0760e21b8114915061050d565b60243590600482101561042757565b3461042757604036600319011261042757610565610411565b7f473a74f22f6ac6868d6c168fc84aef7f2172066bab41229b471d1c6b85434c82602061059061053d565b9261059961299d565b60018060a01b03169283600052600d82526040600020600160ff19825416179055600e82526105cc81604060002061234f565b6105d96040518092610bf5565ba2005b600411156105e657565b634e487b7160e01b600052602160045260246000fd5b9060048110156105e657600052602052604060002090565b3461042757604036600319011261042757602061049a61063261053d565b600435600052600c835260406000206105fc565b919082519283825260005b848110610672575050826000602080949584010152601f8019910116010190565b602081830181015184830182015201610651565b34610427576020806003193601126104275760405190600082600254916106ac83612125565b928383526001908560018216918260001461074d5750506001146106f0575b506106d892500383610981565b6106ec604051928284938452830190610646565b0390f35b84915060026000527f405787fa12a823e0f2b7631cc41b3ba8828b3321ca811111fa75cd3aa3bb5ace906000915b8583106107355750506106d89350820101386106cb565b8054838901850152879450869390920191810161071e565b60ff1916858201526106d895151560051b85010192503891506106cb9050565b346104275760003660031901126104275760206040516127108152f35b34610427576000366003190112610427576020600454604051908152f35b34610427576000366003190112610427576020604051611d4c8152f35b346104275760203660031901126104275760043560005260056020526020600160406000200154604051908152f35b346104275760603660031901126104275761080d610411565b61081561053d565b67ffffffffffffffff60443581811161042757366023820112156104275780600401359182116104275760248236920101116104275761085361299d565b156108b6576001600160a01b03919091166000818152600d60209081526040808320805460ff19166001179055600e825290912091927f473a74f22f6ac6868d6c168fc84aef7f2172066bab41229b471d1c6b85434c82926105cc90829061234f565b60405162461bcd60e51b81526020600482015260146024820152734e6f20766572696669636174696f6e206461746160601b6044820152606490fd5b346104275760003660031901126104275760206040517f3c11d16cbaffd01df69ce1c404f6340ee057498f5f00246190ea54220576a8488152f35b634e487b7160e01b600052604160045260246000fd5b610140810190811067ffffffffffffffff82111761096057604052565b61092d565b6020810190811067ffffffffffffffff82111761096057604052565b90601f8019910116810190811067ffffffffffffffff82111761096057604052565b604051906109b082610943565b565b67ffffffffffffffff81116109605760051b60200190565b9080601f830112156104275760209082356109e4816109b2565b936109f26040519586610981565b81855260208086019260051b82010192831161042757602001905b828210610a1b575050505090565b81358152908301908301610a0d565b67ffffffffffffffff811161096057601f01601f191660200190565b81601f8201121561042757803590610a5d82610a2a565b92610a6b6040519485610981565b8284526020838301011161042757816000926020809301838601378301015290565b346104275760a036600319011261042757610aa6610411565b610aae61042c565b906044359167ffffffffffffffff9081841161042757610ad3600494369086016109ca565b9060643583811161042757610aeb90369087016109ca565b9260843590811161042757610b039036908701610a46565b936001600160a01b03808216903382141580610b92575b610b6557831615610b4d5715610b3657610b349550613134565b005b604051626a0d4560e21b8152600081880152602490fd5b604051632bfa23e760e11b8152600081890152602490fd5b6040805163711bec9160e11b815233818b019081526001600160a01b038616602082015290918291010390fd5b50600082815260016020908152604080832033845290915290205460ff1615610b1a565b3461042757604036600319011261042757610b34600435610bd561042c565b90806000526005602052610bf0600160406000200154612b5b565b612b7c565b9060048210156105e65752565b610ca39060208152825160208201526020830151610c47610c3161014092836040860152610160850190610646565b6040860151848203601f19016060860152610646565b9360608101516080840152608081015160a084015260a081015160c084015260c081015160e084015260e0810151610c856101009182860190610bf5565b81015190610c9a610120928386019015159052565b01511515910152565b90565b34610427576020366003190112610427576106ec604051610cc681610943565b610da560009182815260606020820152606060408201528260608201528260808201528260a08201528260c08201528260e082015260ff60406101009480868501528061012080950152600435815260096020522093610d996007610d296109a3565b9680548852610d3a6001820161215f565b6020890152610d4b6002820161215f565b60408901526003810154606089015260048101546080890152600581015460a0890152600681015460c0890152015491610d8a84841660e08901612367565b600883901c8416151590870152565b60101c16151590830152565b60405191829182610c02565b346104275760003660031901126104275760206040517f62045f2f519251643cf4b5f0750d99bbda23ce869802ad9f6d52577cd08a645a8152f35b3461042757604036600319011261042757610e0561042c565b336001600160a01b03821603610e2157610b3490600435612c16565b60405163334bd91960e11b8152600490fd5b606090600319011261042757600435906024356001600160a01b0381168103610427579060443590565b3461042757610e6b36610e33565b9091610e756129fb565b8115610ee8576000818152602081815260408083206001600160a01b0387168452909152902082905410610eac57610b3492612ca8565b60405162461bcd60e51b8152602060048201526014602482015273496e73756666696369656e742062616c616e636560601b6044820152606490fd5b60405162461bcd60e51b815260206004820152601760248201527f416d6f756e74206d75737420626520706f7369746976650000000000000000006044820152606490fd5b3461042757600036600319011261042757610f46612a53565b60065460ff811615610f855760ff19166006557f5db9ee0a495bf2e6ff9c91a7834c1ba4fdd244a5e8aa4e537bd38aeae4b073aa6020604051338152a1005b604051638dfc202b60e01b8152600490fd5b3461042757602036600319011261042757600435600052601160205260206040600020541515604051908152f35b90815180825260208080930193019160005b828110610fe5575050505090565b835185529381019392810192600101610fd7565b906020610ca3928181520190610fc5565b346104275760403660031901126104275760043567ffffffffffffffff8082116104275736602383011215610427578160040135611047816109b2565b926110556040519485610981565b8184526020916024602086019160051b8301019136831161042757602401905b8282106110ae5785602435868111610427576106ec9161109c6110a29236906004016109ca565b906123a2565b60405191829182610ff9565b8380916110ba84610442565b815201910190611075565b3461042757602036600319011261042757600435600052600360205260206040600020541515604051908152f35b3461042757600036600319011261042757604051806010549182815260208091019260106000527f1b6847dc741a1b0cd08d278845f9d819d87b734759afb55fe2de5cb82a9ae672916000905b82821061116b576106ec8561115781890382610981565b604051918291602083526020830190610fc5565b835486529485019460019384019390910190611140565b346104275760003660031901126104275760206040517f28f5a99355973cc89255b8c4ac88405f27c78ded7608b040ee77a8bdf44d15e28152f35b346104275760003660031901126104275760206040516107d08152f35b346104275760a03660031901126104275767ffffffffffffffff6004358181116104275761120c903690600401610a46565b90602435908111610427576106ec917f1efdde4594ed8e2284022aa3bedd98d13b88c18f2bb33d90131dff8e95589ba361124d6112e8933690600401610a46565b91604435906113d5606435611260612aab565b600a5496879661127761127289612477565b600a55565b6112836084354261248b565b61128b6109a3565b918983528660208401526040830152866060830152600060808301528360a083015260c0820152600060e08201526112c7610100820160019052565b60006101208201526112e3886000526009602052604060002090565b6125c4565b6112fc6112f48561267e565b612710900490565b61132261131388600052600b602052604060002090565b60008052602052604060002090565b5561132f6112f485612695565b61135661134688600052600b602052604060002090565b6001600052602052604060002090565b556113636112f4856126ac565b61138a61137a88600052600b602052604060002090565b6002600052602052604060002090565b556113976112f4856126c3565b6113be6113ae88600052600b602052604060002090565b6003600052602052604060002090565b556113c8866133a7565b50604051938493846126ed565b0390a26040519081529081906020820190565b34610427576000366003190112610427576020604051613a988152f35b3461042757600036600319011261042757602060ff600654166040519015158152f35b34610427576000366003190112610427576020604051610bb88152f35b346104275760603660031901126104275761145e610411565b67ffffffffffffffff6024358181116104275761147f9036906004016109ca565b90604435908111610427576114989036906004016109ca565b906001600160a01b038316338114158061150d575b6114e657156114ce57610b349260006040516114c881610965565b52612eda565b604051626a0d4560e21b815260006004820152602490fd5b60405163711bec9160e11b81523360048201526001600160a01b0385166024820152604490fd5b50600081815260016020908152604080832033845290915290205460ff16156114ad565b346104275760203660031901126104275760043560048110156104275761155960209161270f565b604051908152f35b3461042757604036600319011261042757602061049a61157f61053d565b600435600052600b835260406000206105fc565b34610427576000366003190112610427576020601054604051908152f35b346104275760003660031901126104275760206040516157e48152f35b34610427576020366003190112610427573360009081527fc54cc0cad80e711aff5b4fca3e13682b9a8fcd7ff4679fbc81d0391d16e477bd60205260409020547f62045f2f519251643cf4b5f0750d99bbda23ce869802ad9f6d52577cd08a645a9060ff161561164357610b34600435612d04565b6044906040519063e2517d3f60e01b82523360048301526024820152fd5b346104275760003660031901126104275761167a612a53565b611682612dd5565b600160ff1960065416176006557f62e78cea01bee320cd4e420270b5ea74000d11b0c9f74754ebdbfc544b05a2586020604051338152a1005b34610427576020366003190112610427576116d4610411565b6116dc61299d565b6001600160a01b03166000818152600d60205260408120805460ff19169055907f535611fb62fa2a833988f283b779e417e996813e44046f521d76c17b5943b08c8280a280f35b346104275760203660031901126104275760006004803590825b60ff8416600381116117b3578281101561179e576117989161178c6112f48361178661177f6117929661177a8b600052600c602052604060002090565b6105fc565b549161270f565b906126da565b9061248b565b9361275a565b9261173d565b602183634e487b7160e01b6000525260246000fd5b604051828152602090f35b34610427576117cc36610e33565b6117d4612b03565b600260075414611a225760026007556117eb612dd5565b6001600160a01b0382166000908152600d6020526040902061181890611813905b5460ff1690565b61277a565b827f689e2353c59bcd8c1c4352ddd0f21299329ad92442d331648747e4e865acde746119a2611851836000526009602052604060002090565b6004600782019161190c61190460ff6118cc8b826118ad61180c8a549361187c848660081c166127be565b838560101c16158015611a14575b61189390612800565b6001600160a01b03166000908152600e6020526040902090565b916118b7836105dc565b169283916118c4836105dc565b16101561283d565b6118fd6118e78261177a8c600052600b602052604060002090565b549161177a8b600052600c602052604060002090565b5490612889565b881115612896565b61191f6119176128e2565b88888b612df3565b0161192b86825461248b565b905561194f61194485600052600c602052604060002090565b825460ff16906105fc565b61195a86825461248b565b905561198e6119448761197787600052600f602052604060002090565b9060018060a01b0316600052602052604060002090565b61199986825461248b565b90555460ff1690565b60405190946001600160a01b03169381906119bf908790836128f5565b0390a36119f36119dd8261177a85600052600c602052604060002090565b549161177a84600052600b602052604060002090565b541115611a05575b610b346001600755565b611a0e90612d04565b386119fb565b5060068a015442111561188a565b604051633ee5aeb560e01b8152600490fd5b3461042757604036600319011261042757602060ff611a7a611a5461042c565b6004356000526005845260406000209060018060a01b0316600052602052604060002090565b54166040519015158152f35b34610427576020366003190112610427576001600160a01b03611aa7610411565b16600052600d602052602060ff604060002054166040519015158152f35b3461042757606036600319011261042757611ade61042c565b6044359060048210156104275760209161177a61049a92600435600052600f855260406000209060018060a01b0316600052602052604060002090565b3461042757600036600319011261042757602060405160008152f35b3461042757604036600319011261042757611b50610411565b6024359081151590818303610427576001600160a01b038116928315611bdb57611b9c611bad9233600052600160205260406000209060018060a01b0316600052602052604060002090565b9060ff801983541691151516179055565b6040519081527f17307eab39ab6107e8899845ad3d59bd9653f200f220920489ca2b5937696c3160203392a3005b60405162ced3e160e81b815260006004820152602490fd5b346104275760003660031901126104275760206040516103e88152f35b346104275760203660031901126104275760043560005260036020526020604060002054604051908152f35b34610427576000366003190112610427576020600a54604051908152f35b3461042757602036600319011261042757602061155960043561290b565b3461042757602036600319011261042757600435611c94612b03565b80600052600960205260406000206007810160ff8154611cb8828260081c166127be565b60101c16611d1f57611d0a60047fb00cd7db2cf318388d4984a9842ff206b7cf7bc273a58f12701f29755b3ca94193611cff611d1a946201000062ff000019825416179055565b01546117868561290b565b6040519081529081906020820190565b0390a2005b60405162461bcd60e51b815260206004820152600e60248201526d105b1c9958591e48199d5b99195960921b6044820152606490fd5b346104275760003660031901126104275760206040516175308152f35b34610427576000366003190112610427576020600854604051908152f35b34610427576000366003190112610427576020604051610fa08152f35b346104275760003660031901126104275760206040517f9f2df0fed2c77648de5860a4cc508cd0818c85b8b8a1ab4ceeef8d981c8956a68152f35b3461042757604036600319011261042757610b34600435611e0761042c565b90806000526005602052611e22600160406000200154612b5b565b612c16565b346104275760403660031901126104275760048035611e4461042c565b60009290835b60ff8516600381116117b35783811015611e9757611e919161178c6112f48361178661177f611e8b9661177a8a6119778e600052600f602052604060002090565b9461275a565b93611e4a565b602184634e487b7160e01b6000525260246000fd5b346104275760003660031901126104275760206040517f65d7a28e3265b37a6474929f336521b332c1681b933f6cb9f3376673440d862a8152f35b3461042757604036600319011261042757602060ff611a7a611f07610411565b611f0f61042c565b6001600160a01b0391821660009081526001865260408082209290931681526020919091522090565b6020810192916109b09190610bf5565b34610427576020366003190112610427576001600160a01b03611f69610411565b16600052600e602052602060ff60406000205416611f8a6040518092610bf5565bf35b346104275760a036600319011261042757611fa5610411565b611fad61042c565b60843567ffffffffffffffff811161042757611fcd903690600401610a46565b906001600160a01b0383811690338214158061206e575b6120475782161561202e57156114ce57610b34926120266064356044359160405192600184526020840152604083019160018352606084015260808301604052565b929091613134565b604051632bfa23e760e11b815260006004820152602490fd5b60405163711bec9160e11b81523360048201526001600160a01b0386166024820152604490fd5b50600082815260016020908152604080832033845290915290205460ff1615611fe4565b34610427576060366003190112610427576120ab610411565b6001600160a01b0381163381141590816120ff575b506120d657610b34906044359060243590612ca8565b60405163711bec9160e11b81523360048201526001600160a01b03919091166024820152604490fd5b6000908152600160209081526040808320338452909152902060ff9150541615386120c0565b90600182811c92168015612155575b602083101461213f57565b634e487b7160e01b600052602260045260246000fd5b91607f1691612134565b9060405191826000825461217281612125565b908184526020946001916001811690816000146121e057506001146121a1575b5050506109b092500383610981565b600090815285812095935091905b8183106121c85750506109b09350820101388080612192565b855488840185015294850194879450918301916121af565b925050506109b094925060ff191682840152151560051b820101388080612192565b98959161012098949b9a979361222f61223d928c61225c99956020610140928392815201528d0190610646565b908b820360408d0152610646565b9a60608a0152608089015260a088015260c087015260e0860190610bf5565b15156101008401521515910152565b3461042757602036600319011261042757600435600052600960205260406000208054906106ec61229e6001830161215f565b6122aa6002840161215f565b926003810154946004820154916005810154600760068301549201549360405198899860ff8760101c169760ff808960081c169816968b612202565b346104275760003660031901126104275760206040516130d48152f35b34610427576020366003190112610427577ffab5bcbec79a8b5888e114fd4b378427aa58d9b237d85056f0ee5b3ea57df8c56020600435612342612aab565b80600855604051908152a1005b9060048110156105e65760ff80198354169116179055565b60048210156105e65752565b634e487b7160e01b600052603260045260246000fd5b805182101561239d5760209160051b010190565b612373565b9190918051835180820361243f5750508051906123d76123c1836109b2565b926123cf6040519485610981565b8084526109b2565b60209190601f1901368484013760005b815181101561243757600581901b8281018401519087018401516000908152602081815260408083206001600160a01b0390941683529290522054600191906124308287612389565b52016123e7565b509193505050565b604051635b05999160e01b815260048101919091526024810191909152604490fd5b634e487b7160e01b600052601160045260246000fd5b60001981146124865760010190565b612461565b9190820180921161248657565b90601f81116124a657505050565b6000916000526020600020906020601f850160051c830194106124e4575b601f0160051c01915b8281106124d957505050565b8181556001016124cd565b90925082906124c4565b919091825167ffffffffffffffff811161096057612516816125108454612125565b84612498565b602080601f83116001146125595750819061254a93949560009261254e575b50508160011b916000199060031b1c19161790565b9055565b015190503880612535565b90601f1983169561256f85600052602060002090565b926000905b8882106125ac57505083600195969710612593575b505050811b019055565b015160001960f88460031b161c19169055388080612589565b80600185968294968601518155019501930190612574565b9061266661012060076109b094845181556125e66020860151600183016124ee565b6125f76040860151600283016124ee565b606085015160038201556080850151600482015560a0850151600582015560c08501516006820155019261263860e0820151612632816105dc565b8561234f565b61265f612649610100830151151590565b855461ff00191690151560081b61ff0016178555565b0151151590565b815462ff0000191690151560101b62ff000016179055565b90610fa09182810292818404149015171561248657565b90610bb89182810292818404149015171561248657565b906107d09182810292818404149015171561248657565b906103e89182810292818404149015171561248657565b8181029291811591840414171561248657565b61270560409295949395606083526060830190610646565b9460208201520152565b60048110156105e657801561275357612727816105dc565b6001811461274c578061273b6002926105dc565b1461274657611d4c90565b61271090565b506130d490565b50613a9890565b60ff1660ff81146124865760010190565b60ff1660048110156105e65790565b1561278157565b60405162461bcd60e51b8152602060048201526015602482015274109d5e595c881b9bdd081dda1a5d195b1a5cdd1959605a1b6044820152606490fd5b156127c557565b60405162461bcd60e51b815260206004820152601360248201527250726f7065727479206e6f742061637469766560681b6044820152606490fd5b1561280757565b60405162461bcd60e51b815260206004820152600e60248201526d119d5b991a5b99c818db1bdcd95960921b6044820152606490fd5b1561284457565b60405162461bcd60e51b815260206004820152601e60248201527f4e6f7420656c696769626c6520666f722063757272656e7420706861736500006044820152606490fd5b9190820391821161248657565b1561289d57565b60405162461bcd60e51b815260206004820152601860248201527f4578636565647320706861736520616c6c6f636174696f6e00000000000000006044820152606490fd5b604051906128ef82610965565b60008252565b9081526040810192916109b09160200190610bf5565b600052600960205260ff60076040600020015461292c828260081c166127be565b16612936816105dc565b80612950575061271061294c815b6008546126da565b0490565b612959816105dc565b60018103612970575061271061294c613a98612944565b8061297c6002926105dc565b0361298f5761271061294c6157e4612944565b61271061294c617530612944565b3360009081527f294bb43e882f8724b7ae88344d047a41612b98ee139a78f923b3689f3cc274b1602052604090207f28f5a99355973cc89255b8c4ac88405f27c78ded7608b040ee77a8bdf44d15e29060ff905b5416156116435750565b3360009081527f847f481f687befb06ed3511f1a8dcef57e83007c0147ae5047583d7056170937602052604090207f3c11d16cbaffd01df69ce1c404f6340ee057498f5f00246190ea54220576a8489060ff906129f1565b3360009081527f99f2891db7a8db76249871a02b43b68c0bb8f22ef8a3bc1034ae9375ef6b7c3c602052604090207f65d7a28e3265b37a6474929f336521b332c1681b933f6cb9f3376673440d862a9060ff906129f1565b3360009081527f05b8ccbb9d4d8fb16ea74ce3c29a41f1b461fbdaff4714a0d9a8eb05499746bc602052604090205460ff1615612ae457565b60405163e2517d3f60e01b815233600482015260006024820152604490fd5b3360009081527f15a28d26fa1bf736cf7edc9922607171ccb09c3c73b808e7772a3013e068a522602052604090207f9f2df0fed2c77648de5860a4cc508cd0818c85b8b8a1ab4ceeef8d981c8956a69060ff906129f1565b6000818152600560209081526040808320338452909152902060ff906129f1565b600090808252600560205260ff612ba884604085209060018060a01b0316600052602052604060002090565b5416612c10578082526005602090815260408084206001600160a01b038616600090815292529020805460ff1916600117905533926001600160a01b0316917f2f8788117e7eff1d82e926ec794901d17c78024a50270940304540a733656f0d9080a4600190565b50905090565b600090808252600560205260ff612c4284604085209060018060a01b0316600052602052604060002090565b541615612c10578082526005602090815260408084206001600160a01b038616600090815292529020805460ff1916905533926001600160a01b0316917ff6391f5c32d9c69d2a47ea670b442974b53935d1edc7fd64eb21e047a839171b9080a4600190565b906001600160a01b038216156114ce576109b092612ce360405192600184526020840152604083019160018352606084015260808301604052565b9160006040516114c881610965565b60ff60019116019060ff821161248657565b806000526009602052600760406000200160ff8154612d27828260081c166127be565b169060048210156105e6576003821015612d9757612d86612d929161180c612d80612d7b86612d767fa92c850bb09d5afa4a6230f4866fad10264c6fea20047156b39e3e24c5763ad4986105dc565b612cf2565b61276b565b8261234f565b60405191829182611f38565b0390a2565b60405162461bcd60e51b8152602060048201526016602482015275416c72656164792061742066696e616c20706861736560501b6044820152606490fd5b60ff60065416612de157565b60405163d93c066560e01b8152600490fd5b93916001600160a01b0385161561202e57612e2b60405192600184526020840152604083019160018352606084015260808301604052565b9091612e35612dd5565b612e408284876139c5565b600094855b8451871015612e9857612e90600191612e5e8987612389565b5190612e7e612e6d8b8a612389565b516000526003602052604060002090565b612e8983825461248b565b905561248b565b960195612e45565b612eb2919594929650612ead9060045461248b565b600455565b8051600103612ed057906020806109b09593015191015191336137cf565b6109b093336135d5565b612ee2612dd5565b6001600160a01b038116801515808061312c575b613099575b612f0c575b50906109b0929161383b565b600094929394925b845184101561308b57612f278486612389565b5194612f338588612389565b519660005b60ff8116600381111580613082575b1561306357612f55816105dc565b612f718161177a896119778d600052600f602052604060002090565b5480612f88575b5050612f839061275a565b612f38565b612f83929a878b7f79fa03c4f76e383f2eb3d51f38e9daa7af8429e8573f8c1bb7d6103e878e356461304661304e968d968187821160001461305657612fe3915061177a88995b61197788600052600f602052604060002090565b612fee888254612889565b90556004613006856000526009602052604060002090565b01613012888254612889565b905561302c8161177a86600052600c602052604060002090565b613037888254612889565b905560405191829188836128f5565b0390a3612889565b989038612f78565b61177a612fe39299612fcf565b5050955091959361307760019295156134bb565b019294909394612f14565b50891515612f47565b949392506109b09050612f00565b93919060005b84518110156130e757806130e16130dc60076130d16130c06001968b612389565b516000526009602052604060002090565b015460101c60ff1690565b613423565b0161309f565b5060008052600d60205291939091906131276131227f81955a0a11e65eac625c29e8882660bae4e165a75d72780094acae8ece9a29ee61180c565b61346f565b612efb565b506000612ef6565b91939290613140612dd5565b6001600160a01b03838116801515808061339c575b61333c575b6131b1575b5061316c838784876138ec565b811661317a575b5050505050565b84516001036131a0576020806131969601519201519233613804565b3880808080613173565b6131ac949192336136d0565b613196565b9196956000959195965b8151881015613330576131ce8883612389565b51926131da8987612389565b519560005b60ff81168c600382111580613327575b1561330757908a918c61321d8361177a866119778e61320d856105dc565b600052600f602052604060002090565b5480613237575b50505050506132329061275a565b6131df565b6132be9493613232969d938d938d93838782116000146132fa5761326f915061177a889961197788600052600f602052604060002090565b61327a888254612889565b905581166132cb57506130467f79fa03c4f76e383f2eb3d51f38e9daa7af8429e8573f8c1bb7d6103e878e3564916004613006856000526009602052604060002090565b97905088388d8c82613224565b6132e8935061197761177a9293600052600f602052604060002090565b6132f383825461248b565b9055612889565b61177a61326f9299612fcf565b5050509560019293945061331e90999199156134bb565b019691906131bb565b508915156131ef565b9792509550933861315f565b9795949392919060005b885181101561336d57806133676130dc60076130d16130c06001968f612389565b01613346565b509091929394959761339761312261180c8660018060a01b0316600052600d602052604060002090565b61315a565b508284161515613155565b8060005260116020526040600020541560001461341d576010546801000000000000000081101561096057600181018060105581101561239d5781907f1b6847dc741a1b0cd08d278845f9d819d87b734759afb55fe2de5cb82a9ae6720155601054906000526011602052604060002055600190565b50600090565b1561342a57565b60405162461bcd60e51b815260206004820152601f60248201527f5472616e7366657273206c6f636b656420647572696e672066756e64696e67006044820152606490fd5b1561347657565b60405162461bcd60e51b815260206004820152601960248201527f526563697069656e74206e6f742077686974656c6973746564000000000000006044820152606490fd5b156134c257565b60405162461bcd60e51b815260206004820152602360248201527f496e73756666696369656e742070686173652d747261636b656420686f6c64696044820152626e677360e81b6064820152608490fd5b908160209103126104275751610ca3816104a3565b92613557610ca395936135659360018060a01b031686526000602087015260a0604087015260a0860190610fc5565b908482036060860152610fc5565b916080818403910152610646565b9390610ca39593613557916135659460018060a01b03809216885216602087015260a0604087015260a0860190610fc5565b3d156135d0573d906135b682610a2a565b916135c46040519384610981565b82523d6000602084013e565b606090565b9293919093843b6135e7575050505050565b60209161360a604051948593849363bc197c8160e01b9889865260048601613528565b038160006001600160a01b0388165af16000918161369f575b5061366257826136316135a5565b805191908261365b57604051632bfa23e760e11b81526001600160a01b0383166004820152602490fd5b9050602001fd5b6001600160e01b0319160361367c57503880808080613173565b604051632bfa23e760e11b81526001600160a01b03919091166004820152602490fd5b6136c291925060203d6020116136c9575b6136ba8183610981565b810190613513565b9038613623565b503d6136b0565b939290949194853b6136e5575b505050505050565b613708602093604051958694859463bc197c8160e01b998a875260048701613573565b038160006001600160a01b0388165af16000918161374a575b5061372f57826136316135a5565b6001600160e01b0319160361367c57503880808080806136dd565b61376491925060203d6020116136c9576136ba8183610981565b9038613721565b909260a092610ca39594600180861b0316835260006020840152604083015260608201528160808201520190610646565b9192610ca395949160a094600180871b038092168552166020840152604083015260608201528160808201520190610646565b9293919093843b6137e1575050505050565b60209161360a604051948593849363f23a6e6160e01b988986526004860161376b565b939290949194853b61381857505050505050565b613708602093604051958694859463f23a6e6160e01b998a87526004870161379c565b929192613849848383613ae0565b6001600160a01b0316156138a2575b6000805b8251821015613890576001906138728387612389565b5190613881612e6d8587612389565b8281540390550191019061385c565b9150506109b091925060045403600455565b6000805b82518210156138d6576138ce6001916138bf8488612389565b5190612e7e612e6d8688612389565b9101906138a6565b6138e79150612ead9060045461248b565b613858565b909392936138fc85848385613c46565b6001600160a01b0391821615613950575b161561391857509050565b6000805b8251821015613890576001906139328387612389565b5190613941612e6d8587612389565b8281540390550191019061391c565b92600091825b84518410156139865761397e60019161396f868a612389565b5190612e7e612e6d888a612389565b930192613956565b61399b919350612ead9095929560045461248b565b61390d565b90916139b7610ca393604084526040840190610fc5565b916020818403910152610fc5565b919091825182519081810361243f57505060005b8351811015613a4057600581901b84810160209081015191850101516001929184906001600160a01b038216613a13575b505050016139d9565b613a3691611977613a2e926000526000602052604060002090565b91825461248b565b9055388381613a0a565b50916001815114600014613aa1576020908101519181015160408051938452918301526001600160a01b039092169160009133917fc3d58168c5ae7397731d063d5bbf3d657854427343f4c083240f7aacaa2d0f629190819081015b0390a4565b7f4a39dc06d4c0dbc64b70af90fd698a233a518aa5d07e595d983b8c0526c8f7fb613a9c6000939460405191829160018060a01b0316963395836139a0565b929190805182519081810361243f57505060005b8151811015613ba757600581901b82810160209081015191850101516001600160a01b038716613b29575b5050600101613af4565b613b4187611977846000526000602052604060002090565b54818110613b7057876119776001959493613b689303936000526000602052604060002090565b559038613b1f565b6040516303dee4c560e01b81526001600160a01b038916600482015260248101919091526044810182905260648101839052608490fd5b5090600092939160018151148414613c07576020908101519181015160408051938452918301526001600160a01b039092169133917fc3d58168c5ae7397731d063d5bbf3d657854427343f4c083240f7aacaa2d0f629181908101613a9c565b6040516001600160a01b039093169233927f4a39dc06d4c0dbc64b70af90fd698a233a518aa5d07e595d983b8c0526c8f7fb928291613a9c91836139a0565b939291805183519081810361243f57505060005b8151811015613d4857600581901b82810160209081015191860101516001600160a01b0392918590898516613cc2575b6001948216613c9d575b50505001613c5a565b613cb891611977613a2e926000526000602052604060002090565b9055388481613c94565b9192939050613cdf89611977846000526000602052604060002090565b54838110613d115791869184600196959403613d098c611977856000526000602052604060002090565b559450613c8a565b6040516303dee4c560e01b81526001600160a01b038b16600482015260248101919091526044810184905260648101839052608490fd5b508051939493919291600103613daa576020908101519181015160408051938452918301526001600160a01b03928316939092169133917fc3d58168c5ae7397731d063d5bbf3d657854427343f4c083240f7aacaa2d0f629181908101613a9c565b6040516001600160a01b03938416949093169233927f4a39dc06d4c0dbc64b70af90fd698a233a518aa5d07e595d983b8c0526c8f7fb928291613a9c91836139a056fea2646970667358221220bb8f57e53033a593c48612edc2a3ca726123db9e0c7891da1f409a9ed7ffe24264736f6c634300081800332f8788117e7eff1d82e926ec794901d17c78024a50270940304540a733656f0d","opcodes":"PUSH1 0x80 PUSH1 0x40 MSTORE CALLVALUE PUSH3 0x275 JUMPI PUSH3 0x4480 DUP1 CODESIZE SUB DUP1 PUSH3 0x1D DUP2 PUSH3 0x27A JUMP JUMPDEST SWAP3 DUP4 CODECOPY DUP2 ADD SWAP1 PUSH1 0x20 SWAP1 DUP2 DUP2 DUP5 SUB SLT PUSH3 0x275 JUMPI DUP1 MLOAD PUSH1 0x1 PUSH1 0x1 PUSH1 0x40 SHL SUB SWAP2 DUP3 DUP3 GT PUSH3 0x275 JUMPI ADD SWAP2 PUSH1 0x1F SWAP1 DUP5 DUP3 DUP6 ADD SLT ISZERO PUSH3 0x275 JUMPI DUP4 MLOAD DUP4 DUP2 GT PUSH3 0x24A JUMPI PUSH1 0x1F NOT SWAP5 PUSH3 0x72 DUP3 DUP6 ADD DUP8 AND DUP5 ADD PUSH3 0x27A JUMP JUMPDEST SWAP7 DUP3 DUP9 MSTORE DUP4 DUP4 DUP4 ADD ADD GT PUSH3 0x275 JUMPI DUP3 SWAP1 PUSH1 0x0 JUMPDEST DUP4 DUP2 LT PUSH3 0x260 JUMPI POP POP PUSH1 0x0 SWAP2 DUP8 ADD ADD MSTORE DUP5 MLOAD SWAP3 DUP4 GT PUSH3 0x24A JUMPI PUSH1 0x2 SLOAD SWAP4 PUSH1 0x1 SWAP5 DUP6 DUP2 DUP2 SHR SWAP2 AND DUP1 ISZERO PUSH3 0x23F JUMPI JUMPDEST DUP4 DUP3 LT EQ PUSH3 0x229 JUMPI DUP4 DUP2 GT PUSH3 0x1DD JUMPI JUMPDEST POP DUP2 SWAP3 DUP5 GT PUSH1 0x1 EQ PUSH3 0x174 JUMPI POP POP DUP2 SWAP3 SWAP4 PUSH1 0x0 SWAP3 PUSH3 0x168 JUMPI JUMPDEST POP POP PUSH1 0x0 NOT PUSH1 0x3 DUP4 SWAP1 SHL SHR NOT AND SWAP1 DUP3 SHL OR PUSH1 0x2 SSTORE JUMPDEST PUSH1 0xFF NOT PUSH1 0x6 SLOAD AND PUSH1 0x6 SSTORE PUSH1 0x7 SSTORE PUSH7 0x2C68AF0BB14000 PUSH1 0x8 SSTORE PUSH3 0x11B CALLER PUSH3 0x2A0 JUMP JUMPDEST POP PUSH3 0x127 CALLER PUSH3 0x321 JUMP JUMPDEST POP PUSH3 0x133 CALLER PUSH3 0x3C4 JUMP JUMPDEST POP PUSH3 0x13F CALLER PUSH3 0x462 JUMP JUMPDEST POP PUSH3 0x14B CALLER PUSH3 0x500 JUMP JUMPDEST POP PUSH3 0x157 CALLER PUSH3 0x59E JUMP JUMPDEST POP PUSH1 0x40 MLOAD PUSH2 0x3E23 SWAP1 DUP2 PUSH3 0x63D DUP3 CODECOPY RETURN JUMPDEST ADD MLOAD SWAP1 POP CODESIZE DUP1 PUSH3 0xE3 JUMP JUMPDEST DUP4 SWAP3 SWAP2 SWAP3 AND SWAP5 PUSH1 0x2 PUSH1 0x0 MSTORE DUP3 PUSH1 0x0 KECCAK256 SWAP3 PUSH1 0x0 SWAP1 JUMPDEST DUP8 DUP3 LT PUSH3 0x1C5 JUMPI POP POP DUP4 DUP6 SWAP7 LT PUSH3 0x1AB JUMPI JUMPDEST POP POP POP DUP2 SHL ADD PUSH1 0x2 SSTORE PUSH3 0xF8 JUMP JUMPDEST ADD MLOAD PUSH1 0x0 NOT PUSH1 0xF8 DUP5 PUSH1 0x3 SHL AND SHR NOT AND SWAP1 SSTORE CODESIZE DUP1 DUP1 PUSH3 0x19C JUMP JUMPDEST DUP1 DUP8 DUP6 SWAP7 DUP3 SWAP5 SWAP7 DUP7 ADD MLOAD DUP2 SSTORE ADD SWAP6 ADD SWAP4 ADD SWAP1 PUSH3 0x188 JUMP JUMPDEST PUSH1 0x2 PUSH1 0x0 MSTORE DUP3 PUSH1 0x0 KECCAK256 DUP5 DUP1 DUP8 ADD PUSH1 0x5 SHR DUP3 ADD SWAP3 DUP6 DUP9 LT PUSH3 0x21F JUMPI JUMPDEST ADD PUSH1 0x5 SHR ADD SWAP1 DUP7 SWAP1 JUMPDEST DUP3 DUP2 LT PUSH3 0x212 JUMPI POP POP PUSH3 0xC8 JUMP JUMPDEST PUSH1 0x0 DUP2 SSTORE ADD DUP7 SWAP1 PUSH3 0x202 JUMP JUMPDEST SWAP3 POP DUP2 SWAP3 PUSH3 0x1F9 JUMP JUMPDEST PUSH4 0x4E487B71 PUSH1 0xE0 SHL PUSH1 0x0 MSTORE PUSH1 0x22 PUSH1 0x4 MSTORE PUSH1 0x24 PUSH1 0x0 REVERT JUMPDEST SWAP1 PUSH1 0x7F AND SWAP1 PUSH3 0xB6 JUMP JUMPDEST PUSH4 0x4E487B71 PUSH1 0xE0 SHL PUSH1 0x0 MSTORE PUSH1 0x41 PUSH1 0x4 MSTORE PUSH1 0x24 PUSH1 0x0 REVERT JUMPDEST DUP2 DUP2 ADD DUP4 ADD MLOAD DUP10 DUP3 ADD DUP5 ADD MSTORE DUP5 SWAP3 ADD PUSH3 0x86 JUMP JUMPDEST PUSH1 0x0 DUP1 REVERT JUMPDEST PUSH1 0x40 MLOAD SWAP2 SWAP1 PUSH1 0x1F ADD PUSH1 0x1F NOT AND DUP3 ADD PUSH1 0x1 PUSH1 0x1 PUSH1 0x40 SHL SUB DUP2 GT DUP4 DUP3 LT OR PUSH3 0x24A JUMPI PUSH1 0x40 MSTORE JUMP JUMPDEST PUSH1 0x1 PUSH1 0x1 PUSH1 0xA0 SHL SUB AND PUSH1 0x0 DUP2 DUP2 MSTORE PUSH32 0x5B8CCBB9D4D8FB16EA74CE3C29A41F1B461FBDAFF4714A0D9A8EB05499746BC PUSH1 0x20 MSTORE PUSH1 0x40 DUP2 KECCAK256 SLOAD SWAP1 SWAP2 SWAP1 PUSH1 0xFF AND PUSH3 0x31D JUMPI DUP2 DUP1 MSTORE PUSH1 0x5 PUSH1 0x20 MSTORE PUSH1 0x40 DUP3 KECCAK256 DUP2 DUP4 MSTORE PUSH1 0x20 MSTORE PUSH1 0x40 DUP3 KECCAK256 PUSH1 0x1 PUSH1 0xFF NOT DUP3 SLOAD AND OR SWAP1 SSTORE CALLER SWAP2 PUSH1 0x0 DUP1 MLOAD PUSH1 0x20 PUSH3 0x4460 DUP4 CODECOPY DUP2 MLOAD SWAP2 MSTORE DUP2 DUP1 LOG4 PUSH1 0x1 SWAP1 JUMP JUMPDEST POP SWAP1 JUMP JUMPDEST PUSH1 0x1 PUSH1 0x1 PUSH1 0xA0 SHL SUB AND PUSH1 0x0 DUP2 DUP2 MSTORE PUSH32 0x15A28D26FA1BF736CF7EDC9922607171CCB09C3C73B808E7772A3013E068A522 PUSH1 0x20 MSTORE PUSH1 0x40 DUP2 KECCAK256 SLOAD SWAP1 SWAP2 SWAP1 PUSH32 0x9F2DF0FED2C77648DE5860A4CC508CD0818C85B8B8A1AB4CEEEF8D981C8956A6 SWAP1 PUSH1 0xFF AND PUSH3 0x3BF JUMPI DUP1 DUP4 MSTORE PUSH1 0x5 PUSH1 0x20 MSTORE PUSH1 0x40 DUP4 KECCAK256 DUP3 DUP5 MSTORE PUSH1 0x20 MSTORE PUSH1 0x40 DUP4 KECCAK256 PUSH1 0x1 PUSH1 0xFF NOT DUP3 SLOAD AND OR SWAP1 SSTORE PUSH1 0x0 DUP1 MLOAD PUSH1 0x20 PUSH3 0x4460 DUP4 CODECOPY DUP2 MLOAD SWAP2 MSTORE CALLER SWAP4 DUP1 LOG4 PUSH1 0x1 SWAP1 JUMP JUMPDEST POP POP SWAP1 JUMP JUMPDEST PUSH1 0x1 PUSH1 0x1 PUSH1 0xA0 SHL SUB AND PUSH1 0x0 DUP2 DUP2 MSTORE PUSH32 0x99F2891DB7A8DB76249871A02B43B68C0BB8F22EF8A3BC1034AE9375EF6B7C3C PUSH1 0x20 MSTORE PUSH1 0x40 DUP2 KECCAK256 SLOAD SWAP1 SWAP2 SWAP1 PUSH32 0x65D7A28E3265B37A6474929F336521B332C1681B933F6CB9F3376673440D862A SWAP1 PUSH1 0xFF AND PUSH3 0x3BF JUMPI DUP1 DUP4 MSTORE PUSH1 0x5 PUSH1 0x20 MSTORE PUSH1 0x40 DUP4 KECCAK256 DUP3 DUP5 MSTORE PUSH1 0x20 MSTORE PUSH1 0x40 DUP4 KECCAK256 PUSH1 0x1 PUSH1 0xFF NOT DUP3 SLOAD AND OR SWAP1 SSTORE PUSH1 0x0 DUP1 MLOAD PUSH1 0x20 PUSH3 0x4460 DUP4 CODECOPY DUP2 MLOAD SWAP2 MSTORE CALLER SWAP4 DUP1 LOG4 PUSH1 0x1 SWAP1 JUMP JUMPDEST PUSH1 0x1 PUSH1 0x1 PUSH1 0xA0 SHL SUB AND PUSH1 0x0 DUP2 DUP2 MSTORE PUSH32 0x294BB43E882F8724B7AE88344D047A41612B98EE139A78F923B3689F3CC274B1 PUSH1 0x20 MSTORE PUSH1 0x40 DUP2 KECCAK256 SLOAD SWAP1 SWAP2 SWAP1 PUSH32 0x28F5A99355973CC89255B8C4AC88405F27C78DED7608B040EE77A8BDF44D15E2 SWAP1 PUSH1 0xFF AND PUSH3 0x3BF JUMPI DUP1 DUP4 MSTORE PUSH1 0x5 PUSH1 0x20 MSTORE PUSH1 0x40 DUP4 KECCAK256 DUP3 DUP5 MSTORE PUSH1 0x20 MSTORE PUSH1 0x40 DUP4 KECCAK256 PUSH1 0x1 PUSH1 0xFF NOT DUP3 SLOAD AND OR SWAP1 SSTORE PUSH1 0x0 DUP1 MLOAD PUSH1 0x20 PUSH3 0x4460 DUP4 CODECOPY DUP2 MLOAD SWAP2 MSTORE CALLER SWAP4 DUP1 LOG4 PUSH1 0x1 SWAP1 JUMP JUMPDEST PUSH1 0x1 PUSH1 0x1 PUSH1 0xA0 SHL SUB AND PUSH1 0x0 DUP2 DUP2 MSTORE PUSH32 0xC54CC0CAD80E711AFF5B4FCA3E13682B9A8FCD7FF4679FBC81D0391D16E477BD PUSH1 0x20 MSTORE PUSH1 0x40 DUP2 KECCAK256 SLOAD SWAP1 SWAP2 SWAP1 PUSH32 0x62045F2F519251643CF4B5F0750D99BBDA23CE869802AD9F6D52577CD08A645A SWAP1 PUSH1 0xFF AND PUSH3 0x3BF JUMPI DUP1 DUP4 MSTORE PUSH1 0x5 PUSH1 0x20 MSTORE PUSH1 0x40 DUP4 KECCAK256 DUP3 DUP5 MSTORE PUSH1 0x20 MSTORE PUSH1 0x40 DUP4 KECCAK256 PUSH1 0x1 PUSH1 0xFF NOT DUP3 SLOAD AND OR SWAP1 SSTORE PUSH1 0x0 DUP1 MLOAD PUSH1 0x20 PUSH3 0x4460 DUP4 CODECOPY DUP2 MLOAD SWAP2 MSTORE CALLER SWAP4 DUP1 LOG4 PUSH1 0x1 SWAP1 JUMP JUMPDEST PUSH1 0x1 PUSH1 0x1 PUSH1 0xA0 SHL SUB AND PUSH1 0x0 DUP2 DUP2 MSTORE PUSH32 0x847F481F687BEFB06ED3511F1A8DCEF57E83007C0147AE5047583D7056170937 PUSH1 0x20 MSTORE PUSH1 0x40 DUP2 KECCAK256 SLOAD SWAP1 SWAP2 SWAP1 PUSH32 0x3C11D16CBAFFD01DF69CE1C404F6340EE057498F5F00246190EA54220576A848 SWAP1 PUSH1 0xFF AND PUSH3 0x3BF JUMPI DUP1 DUP4 MSTORE PUSH1 0x5 PUSH1 0x20 MSTORE PUSH1 0x40 DUP4 KECCAK256 DUP3 DUP5 MSTORE PUSH1 0x20 MSTORE PUSH1 0x40 DUP4 KECCAK256 PUSH1 0x1 PUSH1 0xFF NOT DUP3 SLOAD AND OR SWAP1 SSTORE PUSH1 0x0 DUP1 MLOAD PUSH1 0x20 PUSH3 0x4460 DUP4 CODECOPY DUP2 MLOAD SWAP2 MSTORE CALLER SWAP4 DUP1 LOG4 PUSH1 0x1 SWAP1 JUMP INVALID PUSH1 0x80 PUSH1 0x40 MSTORE PUSH1 0x4 CALLDATASIZE LT ISZERO PUSH2 0x12 JUMPI PUSH1 0x0 DUP1 REVERT JUMPDEST PUSH1 0x0 CALLDATALOAD PUSH1 0xE0 SHR DUP1 PUSH3 0xFDD58E EQ PUSH2 0x40C JUMPI DUP1 PUSH4 0x1FFC9A7 EQ PUSH2 0x407 JUMPI DUP1 PUSH4 0x263B858 EQ PUSH2 0x402 JUMPI DUP1 PUSH4 0x4FA6173 EQ PUSH2 0x3FD JUMPI DUP1 PUSH4 0xE89341C EQ PUSH2 0x3F8 JUMPI DUP1 PUSH4 0x11DD6CDC EQ PUSH2 0x3A3 JUMPI DUP1 PUSH4 0x18160DDD EQ PUSH2 0x3F3 JUMPI DUP1 PUSH4 0x23067248 EQ PUSH2 0x3EE JUMPI DUP1 PUSH4 0x248A9CA3 EQ PUSH2 0x3E9 JUMPI DUP1 PUSH4 0x2632067A EQ PUSH2 0x3E4 JUMPI DUP1 PUSH4 0x282C51F3 EQ PUSH2 0x3DF JUMPI DUP1 PUSH4 0x2EB2C2D6 EQ PUSH2 0x3DA JUMPI DUP1 PUSH4 0x2F2FF15D EQ PUSH2 0x3D5 JUMPI DUP1 PUSH4 0x32665FFB EQ PUSH2 0x3D0 JUMPI DUP1 PUSH4 0x35894AFD EQ PUSH2 0x3CB JUMPI DUP1 PUSH4 0x36568ABE EQ PUSH2 0x3C6 JUMPI DUP1 PUSH4 0x3BB0B5B6 EQ PUSH2 0x3C1 JUMPI DUP1 PUSH4 0x3F4BA83A EQ PUSH2 0x3BC JUMPI DUP1 PUSH4 0x4A164732 EQ PUSH2 0x3B7 JUMPI DUP1 PUSH4 0x4E1273F4 EQ PUSH2 0x3B2 JUMPI DUP1 PUSH4 0x4F558E79 EQ PUSH2 0x3AD JUMPI DUP1 PUSH4 0x4FF69E83 EQ PUSH2 0x3A8 JUMPI DUP1 PUSH4 0x500E9F73 EQ PUSH2 0x3A3 JUMPI DUP1 PUSH4 0x54202C4E EQ PUSH2 0x39E JUMPI DUP1 PUSH4 0x5561C5B3 EQ PUSH2 0x399 JUMPI DUP1 PUSH4 0x58567DD5 EQ PUSH2 0x394 JUMPI DUP1 PUSH4 0x5BBE9F5E EQ PUSH2 0x31C JUMPI DUP1 PUSH4 0x5C975ABB EQ PUSH2 0x38F JUMPI DUP1 PUSH4 0x5FC68C46 EQ PUSH2 0x38A JUMPI DUP1 PUSH4 0x6B20C454 EQ PUSH2 0x385 JUMPI DUP1 PUSH4 0x6CE2F91D EQ PUSH2 0x380 JUMPI DUP1 PUSH4 0x6EA99677 EQ PUSH2 0x37B JUMPI DUP1 PUSH4 0x7326B901 EQ PUSH2 0x376 JUMPI DUP1 PUSH4 0x7CA8C6F1 EQ PUSH2 0x371 JUMPI DUP1 PUSH4 0x81AAF4CE EQ PUSH2 0x36C JUMPI DUP1 PUSH4 0x8456CB59 EQ PUSH2 0x367 JUMPI DUP1 PUSH4 0x8AB1D681 EQ PUSH2 0x362 JUMPI DUP1 PUSH4 0x8CDC1E87 EQ PUSH2 0x35D JUMPI DUP1 PUSH4 0x8D6819BE EQ PUSH2 0x358 JUMPI DUP1 PUSH4 0x91D14854 EQ PUSH2 0x353 JUMPI DUP1 PUSH4 0x9B19251A EQ PUSH2 0x34E JUMPI DUP1 PUSH4 0x9CA02763 EQ PUSH2 0x349 JUMPI DUP1 PUSH4 0xA217FDDF EQ PUSH2 0x344 JUMPI DUP1 PUSH4 0xA22CB465 EQ PUSH2 0x33F JUMPI DUP1 PUSH4 0xA7907F74 EQ PUSH2 0x33A JUMPI DUP1 PUSH4 0xBD85B039 EQ PUSH2 0x335 JUMPI DUP1 PUSH4 0xC361A335 EQ PUSH2 0x330 JUMPI DUP1 PUSH4 0xC55D0F56 EQ PUSH2 0x32B JUMPI DUP1 PUSH4 0xC5666EB2 EQ PUSH2 0x326 JUMPI DUP1 PUSH4 0xC65B6820 EQ PUSH2 0x321 JUMPI DUP1 PUSH4 0xC7527D08 EQ PUSH2 0x31C JUMPI DUP1 PUSH4 0xC7876EA4 EQ PUSH2 0x317 JUMPI DUP1 PUSH4 0xCEADD5B9 EQ PUSH2 0x312 JUMPI DUP1 PUSH4 0xD5391393 EQ PUSH2 0x30D JUMPI DUP1 PUSH4 0xD547741F EQ PUSH2 0x308 JUMPI DUP1 PUSH4 0xDBDAD432 EQ PUSH2 0x303 JUMPI DUP1 PUSH4 0xE63AB1E9 EQ PUSH2 0x2FE JUMPI DUP1 PUSH4 0xE985E9C5 EQ PUSH2 0x2F9 JUMPI DUP1 PUSH4 0xEDFF4969 EQ PUSH2 0x2F4 JUMPI DUP1 PUSH4 0xF242432A EQ PUSH2 0x2EF JUMPI DUP1 PUSH4 0xF5298ACA EQ PUSH2 0x2EA JUMPI DUP1 PUSH4 0xF7B10808 EQ PUSH2 0x2E5 JUMPI DUP1 PUSH4 0xF8147A8A EQ PUSH2 0x2E0 JUMPI PUSH4 0xFD5BAA88 EQ PUSH2 0x2DB JUMPI PUSH1 0x0 DUP1 REVERT JUMPDEST PUSH2 0x2303 JUMP JUMPDEST PUSH2 0x22E6 JUMP JUMPDEST PUSH2 0x226B JUMP JUMPDEST PUSH2 0x2092 JUMP JUMPDEST PUSH2 0x1F8C JUMP JUMPDEST PUSH2 0x1F48 JUMP JUMPDEST PUSH2 0x1EE7 JUMP JUMPDEST PUSH2 0x1EAC JUMP JUMPDEST PUSH2 0x1E27 JUMP JUMPDEST PUSH2 0x1DE8 JUMP JUMPDEST PUSH2 0x1DAD JUMP JUMPDEST PUSH2 0x1D90 JUMP JUMPDEST PUSH2 0x1D72 JUMP JUMPDEST PUSH2 0x13E8 JUMP JUMPDEST PUSH2 0x1D55 JUMP JUMPDEST PUSH2 0x1C78 JUMP JUMPDEST PUSH2 0x1C5A JUMP JUMPDEST PUSH2 0x1C3C JUMP JUMPDEST PUSH2 0x1C10 JUMP JUMPDEST PUSH2 0x1BF3 JUMP JUMPDEST PUSH2 0x1B37 JUMP JUMPDEST PUSH2 0x1B1B JUMP JUMPDEST PUSH2 0x1AC5 JUMP JUMPDEST PUSH2 0x1A86 JUMP JUMPDEST PUSH2 0x1A34 JUMP JUMPDEST PUSH2 0x17BE JUMP JUMPDEST PUSH2 0x1723 JUMP JUMPDEST PUSH2 0x16BB JUMP JUMPDEST PUSH2 0x1661 JUMP JUMPDEST PUSH2 0x15CE JUMP JUMPDEST PUSH2 0x15B1 JUMP JUMPDEST PUSH2 0x1593 JUMP JUMPDEST PUSH2 0x1561 JUMP JUMPDEST PUSH2 0x1531 JUMP JUMPDEST PUSH2 0x1445 JUMP JUMPDEST PUSH2 0x1428 JUMP JUMPDEST PUSH2 0x1405 JUMP JUMPDEST PUSH2 0x11DA JUMP JUMPDEST PUSH2 0x11BD JUMP JUMPDEST PUSH2 0x1182 JUMP JUMPDEST PUSH2 0x76D JUMP JUMPDEST PUSH2 0x10F3 JUMP JUMPDEST PUSH2 0x10C5 JUMP JUMPDEST PUSH2 0x100A JUMP JUMPDEST PUSH2 0xF97 JUMP JUMPDEST PUSH2 0xF2D JUMP JUMPDEST PUSH2 0xE5D JUMP JUMPDEST PUSH2 0xDEC JUMP JUMPDEST PUSH2 0xDB1 JUMP JUMPDEST PUSH2 0xCA6 JUMP JUMPDEST PUSH2 0xBB6 JUMP JUMPDEST PUSH2 0xA8D JUMP JUMPDEST PUSH2 0x8F2 JUMP JUMPDEST PUSH2 0x7F4 JUMP JUMPDEST PUSH2 0x7C5 JUMP JUMPDEST PUSH2 0x7A8 JUMP JUMPDEST PUSH2 0x78A JUMP JUMPDEST PUSH2 0x686 JUMP JUMPDEST PUSH2 0x614 JUMP JUMPDEST PUSH2 0x54C JUMP JUMPDEST PUSH2 0x4B5 JUMP JUMPDEST PUSH2 0x456 JUMP JUMPDEST PUSH1 0x4 CALLDATALOAD SWAP1 PUSH1 0x1 PUSH1 0x1 PUSH1 0xA0 SHL SUB DUP3 AND DUP3 SUB PUSH2 0x427 JUMPI JUMP JUMPDEST PUSH1 0x0 DUP1 REVERT JUMPDEST PUSH1 0x24 CALLDATALOAD SWAP1 PUSH1 0x1 PUSH1 0x1 PUSH1 0xA0 SHL SUB DUP3 AND DUP3 SUB PUSH2 0x427 JUMPI JUMP JUMPDEST CALLDATALOAD SWAP1 PUSH1 0x1 PUSH1 0x1 PUSH1 0xA0 SHL SUB DUP3 AND DUP3 SUB PUSH2 0x427 JUMPI JUMP JUMPDEST CALLVALUE PUSH2 0x427 JUMPI PUSH1 0x40 CALLDATASIZE PUSH1 0x3 NOT ADD SLT PUSH2 0x427 JUMPI PUSH1 0x20 PUSH2 0x49A PUSH2 0x474 PUSH2 0x411 JUMP JUMPDEST PUSH1 0x24 CALLDATALOAD PUSH1 0x0 MSTORE PUSH1 0x0 DUP4 MSTORE PUSH1 0x40 PUSH1 0x0 KECCAK256 SWAP1 PUSH1 0x1 DUP1 PUSH1 0xA0 SHL SUB AND PUSH1 0x0 MSTORE PUSH1 0x20 MSTORE PUSH1 0x40 PUSH1 0x0 KECCAK256 SWAP1 JUMP JUMPDEST SLOAD PUSH1 0x40 MLOAD SWAP1 DUP2 MSTORE RETURN JUMPDEST PUSH1 0x1 PUSH1 0x1 PUSH1 0xE0 SHL SUB NOT DUP2 AND SUB PUSH2 0x427 JUMPI JUMP JUMPDEST CALLVALUE PUSH2 0x427 JUMPI PUSH1 0x20 CALLDATASIZE PUSH1 0x3 NOT ADD SLT PUSH2 0x427 JUMPI PUSH1 0x20 PUSH1 0x4 CALLDATALOAD PUSH2 0x4D4 DUP2 PUSH2 0x4A3 JUMP JUMPDEST PUSH4 0xFFFFFFFF PUSH1 0xE0 SHL AND PUSH4 0x7965DB0B PUSH1 0xE0 SHL DUP2 EQ SWAP1 DUP2 ISZERO PUSH2 0x4FA JUMPI JUMPDEST POP PUSH1 0x40 MLOAD SWAP1 ISZERO ISZERO DUP2 MSTORE RETURN JUMPDEST PUSH4 0x6CDB3D13 PUSH1 0xE1 SHL DUP2 EQ SWAP2 POP DUP2 ISZERO PUSH2 0x52C JUMPI JUMPDEST DUP2 ISZERO PUSH2 0x51B JUMPI JUMPDEST POP CODESIZE PUSH2 0x4EF JUMP JUMPDEST PUSH4 0x1FFC9A7 PUSH1 0xE0 SHL EQ SWAP1 POP CODESIZE PUSH2 0x514 JUMP JUMPDEST PUSH4 0x3A24D07 PUSH1 0xE2 SHL DUP2 EQ SWAP2 POP PUSH2 0x50D JUMP JUMPDEST PUSH1 0x24 CALLDATALOAD SWAP1 PUSH1 0x4 DUP3 LT ISZERO PUSH2 0x427 JUMPI JUMP JUMPDEST CALLVALUE PUSH2 0x427 JUMPI PUSH1 0x40 CALLDATASIZE PUSH1 0x3 NOT ADD SLT PUSH2 0x427 JUMPI PUSH2 0x565 PUSH2 0x411 JUMP JUMPDEST PUSH32 0x473A74F22F6AC6868D6C168FC84AEF7F2172066BAB41229B471D1C6B85434C82 PUSH1 0x20 PUSH2 0x590 PUSH2 0x53D JUMP JUMPDEST SWAP3 PUSH2 0x599 PUSH2 0x299D JUMP JUMPDEST PUSH1 0x1 DUP1 PUSH1 0xA0 SHL SUB AND SWAP3 DUP4 PUSH1 0x0 MSTORE PUSH1 0xD DUP3 MSTORE PUSH1 0x40 PUSH1 0x0 KECCAK256 PUSH1 0x1 PUSH1 0xFF NOT DUP3 SLOAD AND OR SWAP1 SSTORE PUSH1 0xE DUP3 MSTORE PUSH2 0x5CC DUP2 PUSH1 0x40 PUSH1 0x0 KECCAK256 PUSH2 0x234F JUMP JUMPDEST PUSH2 0x5D9 PUSH1 0x40 MLOAD DUP1 SWAP3 PUSH2 0xBF5 JUMP JUMPDEST LOG2 STOP JUMPDEST PUSH1 0x4 GT ISZERO PUSH2 0x5E6 JUMPI JUMP JUMPDEST PUSH4 0x4E487B71 PUSH1 0xE0 SHL PUSH1 0x0 MSTORE PUSH1 0x21 PUSH1 0x4 MSTORE PUSH1 0x24 PUSH1 0x0 REVERT JUMPDEST SWAP1 PUSH1 0x4 DUP2 LT ISZERO PUSH2 0x5E6 JUMPI PUSH1 0x0 MSTORE PUSH1 0x20 MSTORE PUSH1 0x40 PUSH1 0x0 KECCAK256 SWAP1 JUMP JUMPDEST CALLVALUE PUSH2 0x427 JUMPI PUSH1 0x40 CALLDATASIZE PUSH1 0x3 NOT ADD SLT PUSH2 0x427 JUMPI PUSH1 0x20 PUSH2 0x49A PUSH2 0x632 PUSH2 0x53D JUMP JUMPDEST PUSH1 0x4 CALLDATALOAD PUSH1 0x0 MSTORE PUSH1 0xC DUP4 MSTORE PUSH1 0x40 PUSH1 0x0 KECCAK256 PUSH2 0x5FC JUMP JUMPDEST SWAP2 SWAP1 DUP3 MLOAD SWAP3 DUP4 DUP3 MSTORE PUSH1 0x0 JUMPDEST DUP5 DUP2 LT PUSH2 0x672 JUMPI POP POP DUP3 PUSH1 0x0 PUSH1 0x20 DUP1 SWAP5 SWAP6 DUP5 ADD ADD MSTORE PUSH1 0x1F DUP1 NOT SWAP2 ADD AND ADD ADD SWAP1 JUMP JUMPDEST PUSH1 0x20 DUP2 DUP4 ADD DUP2 ADD MLOAD DUP5 DUP4 ADD DUP3 ADD MSTORE ADD PUSH2 0x651 JUMP JUMPDEST CALLVALUE PUSH2 0x427 JUMPI PUSH1 0x20 DUP1 PUSH1 0x3 NOT CALLDATASIZE ADD SLT PUSH2 0x427 JUMPI PUSH1 0x40 MLOAD SWAP1 PUSH1 0x0 DUP3 PUSH1 0x2 SLOAD SWAP2 PUSH2 0x6AC DUP4 PUSH2 0x2125 JUMP JUMPDEST SWAP3 DUP4 DUP4 MSTORE PUSH1 0x1 SWAP1 DUP6 PUSH1 0x1 DUP3 AND SWAP2 DUP3 PUSH1 0x0 EQ PUSH2 0x74D JUMPI POP POP PUSH1 0x1 EQ PUSH2 0x6F0 JUMPI JUMPDEST POP PUSH2 0x6D8 SWAP3 POP SUB DUP4 PUSH2 0x981 JUMP JUMPDEST PUSH2 0x6EC PUSH1 0x40 MLOAD SWAP3 DUP3 DUP5 SWAP4 DUP5 MSTORE DUP4 ADD SWAP1 PUSH2 0x646 JUMP JUMPDEST SUB SWAP1 RETURN JUMPDEST DUP5 SWAP2 POP PUSH1 0x2 PUSH1 0x0 MSTORE PUSH32 0x405787FA12A823E0F2B7631CC41B3BA8828B3321CA811111FA75CD3AA3BB5ACE SWAP1 PUSH1 0x0 SWAP2 JUMPDEST DUP6 DUP4 LT PUSH2 0x735 JUMPI POP POP PUSH2 0x6D8 SWAP4 POP DUP3 ADD ADD CODESIZE PUSH2 0x6CB JUMP JUMPDEST DUP1 SLOAD DUP4 DUP10 ADD DUP6 ADD MSTORE DUP8 SWAP5 POP DUP7 SWAP4 SWAP1 SWAP3 ADD SWAP2 DUP2 ADD PUSH2 0x71E JUMP JUMPDEST PUSH1 0xFF NOT AND DUP6 DUP3 ADD MSTORE PUSH2 0x6D8 SWAP6 ISZERO ISZERO PUSH1 0x5 SHL DUP6 ADD ADD SWAP3 POP CODESIZE SWAP2 POP PUSH2 0x6CB SWAP1 POP JUMP JUMPDEST CALLVALUE PUSH2 0x427 JUMPI PUSH1 0x0 CALLDATASIZE PUSH1 0x3 NOT ADD SLT PUSH2 0x427 JUMPI PUSH1 0x20 PUSH1 0x40 MLOAD PUSH2 0x2710 DUP2 MSTORE RETURN JUMPDEST CALLVALUE PUSH2 0x427 JUMPI PUSH1 0x0 CALLDATASIZE PUSH1 0x3 NOT ADD SLT PUSH2 0x427 JUMPI PUSH1 0x20 PUSH1 0x4 SLOAD PUSH1 0x40 MLOAD SWAP1 DUP2 MSTORE RETURN JUMPDEST CALLVALUE PUSH2 0x427 JUMPI PUSH1 0x0 CALLDATASIZE PUSH1 0x3 NOT ADD SLT PUSH2 0x427 JUMPI PUSH1 0x20 PUSH1 0x40 MLOAD PUSH2 0x1D4C DUP2 MSTORE RETURN JUMPDEST CALLVALUE PUSH2 0x427 JUMPI PUSH1 0x20 CALLDATASIZE PUSH1 0x3 NOT ADD SLT PUSH2 0x427 JUMPI PUSH1 0x4 CALLDATALOAD PUSH1 0x0 MSTORE PUSH1 0x5 PUSH1 0x20 MSTORE PUSH1 0x20 PUSH1 0x1 PUSH1 0x40 PUSH1 0x0 KECCAK256 ADD SLOAD PUSH1 0x40 MLOAD SWAP1 DUP2 MSTORE RETURN JUMPDEST CALLVALUE PUSH2 0x427 JUMPI PUSH1 0x60 CALLDATASIZE PUSH1 0x3 NOT ADD SLT PUSH2 0x427 JUMPI PUSH2 0x80D PUSH2 0x411 JUMP JUMPDEST PUSH2 0x815 PUSH2 0x53D JUMP JUMPDEST PUSH8 0xFFFFFFFFFFFFFFFF PUSH1 0x44 CALLDATALOAD DUP2 DUP2 GT PUSH2 0x427 JUMPI CALLDATASIZE PUSH1 0x23 DUP3 ADD SLT ISZERO PUSH2 0x427 JUMPI DUP1 PUSH1 0x4 ADD CALLDATALOAD SWAP2 DUP3 GT PUSH2 0x427 JUMPI PUSH1 0x24 DUP3 CALLDATASIZE SWAP3 ADD ADD GT PUSH2 0x427 JUMPI PUSH2 0x853 PUSH2 0x299D JUMP JUMPDEST ISZERO PUSH2 0x8B6 JUMPI PUSH1 0x1 PUSH1 0x1 PUSH1 0xA0 SHL SUB SWAP2 SWAP1 SWAP2 AND PUSH1 0x0 DUP2 DUP2 MSTORE PUSH1 0xD PUSH1 0x20 SWAP1 DUP2 MSTORE PUSH1 0x40 DUP1 DUP4 KECCAK256 DUP1 SLOAD PUSH1 0xFF NOT AND PUSH1 0x1 OR SWAP1 SSTORE PUSH1 0xE DUP3 MSTORE SWAP1 SWAP2 KECCAK256 SWAP2 SWAP3 PUSH32 0x473A74F22F6AC6868D6C168FC84AEF7F2172066BAB41229B471D1C6B85434C82 SWAP3 PUSH2 0x5CC SWAP1 DUP3 SWAP1 PUSH2 0x234F JUMP JUMPDEST PUSH1 0x40 MLOAD PUSH3 0x461BCD PUSH1 0xE5 SHL DUP2 MSTORE PUSH1 0x20 PUSH1 0x4 DUP3 ADD MSTORE PUSH1 0x14 PUSH1 0x24 DUP3 ADD MSTORE PUSH20 0x4E6F20766572696669636174696F6E2064617461 PUSH1 0x60 SHL PUSH1 0x44 DUP3 ADD MSTORE PUSH1 0x64 SWAP1 REVERT JUMPDEST CALLVALUE PUSH2 0x427 JUMPI PUSH1 0x0 CALLDATASIZE PUSH1 0x3 NOT ADD SLT PUSH2 0x427 JUMPI PUSH1 0x20 PUSH1 0x40 MLOAD PUSH32 0x3C11D16CBAFFD01DF69CE1C404F6340EE057498F5F00246190EA54220576A848 DUP2 MSTORE RETURN JUMPDEST PUSH4 0x4E487B71 PUSH1 0xE0 SHL PUSH1 0x0 MSTORE PUSH1 0x41 PUSH1 0x4 MSTORE PUSH1 0x24 PUSH1 0x0 REVERT JUMPDEST PUSH2 0x140 DUP2 ADD SWAP1 DUP2 LT PUSH8 0xFFFFFFFFFFFFFFFF DUP3 GT OR PUSH2 0x960 JUMPI PUSH1 0x40 MSTORE JUMP JUMPDEST PUSH2 0x92D JUMP JUMPDEST PUSH1 0x20 DUP2 ADD SWAP1 DUP2 LT PUSH8 0xFFFFFFFFFFFFFFFF DUP3 GT OR PUSH2 0x960 JUMPI PUSH1 0x40 MSTORE JUMP JUMPDEST SWAP1 PUSH1 0x1F DUP1 NOT SWAP2 ADD AND DUP2 ADD SWAP1 DUP2 LT PUSH8 0xFFFFFFFFFFFFFFFF DUP3 GT OR PUSH2 0x960 JUMPI PUSH1 0x40 MSTORE JUMP JUMPDEST PUSH1 0x40 MLOAD SWAP1 PUSH2 0x9B0 DUP3 PUSH2 0x943 JUMP JUMPDEST JUMP JUMPDEST PUSH8 0xFFFFFFFFFFFFFFFF DUP2 GT PUSH2 0x960 JUMPI PUSH1 0x5 SHL PUSH1 0x20 ADD SWAP1 JUMP JUMPDEST SWAP1 DUP1 PUSH1 0x1F DUP4 ADD SLT ISZERO PUSH2 0x427 JUMPI PUSH1 0x20 SWAP1 DUP3 CALLDATALOAD PUSH2 0x9E4 DUP2 PUSH2 0x9B2 JUMP JUMPDEST SWAP4 PUSH2 0x9F2 PUSH1 0x40 MLOAD SWAP6 DUP7 PUSH2 0x981 JUMP JUMPDEST DUP2 DUP6 MSTORE PUSH1 0x20 DUP1 DUP7 ADD SWAP3 PUSH1 0x5 SHL DUP3 ADD ADD SWAP3 DUP4 GT PUSH2 0x427 JUMPI PUSH1 0x20 ADD SWAP1 JUMPDEST DUP3 DUP3 LT PUSH2 0xA1B JUMPI POP POP POP POP SWAP1 JUMP JUMPDEST DUP2 CALLDATALOAD DUP2 MSTORE SWAP1 DUP4 ADD SWAP1 DUP4 ADD PUSH2 0xA0D JUMP JUMPDEST PUSH8 0xFFFFFFFFFFFFFFFF DUP2 GT PUSH2 0x960 JUMPI PUSH1 0x1F ADD PUSH1 0x1F NOT AND PUSH1 0x20 ADD SWAP1 JUMP JUMPDEST DUP2 PUSH1 0x1F DUP3 ADD SLT ISZERO PUSH2 0x427 JUMPI DUP1 CALLDATALOAD SWAP1 PUSH2 0xA5D DUP3 PUSH2 0xA2A JUMP JUMPDEST SWAP3 PUSH2 0xA6B PUSH1 0x40 MLOAD SWAP5 DUP6 PUSH2 0x981 JUMP JUMPDEST DUP3 DUP5 MSTORE PUSH1 0x20 DUP4 DUP4 ADD ADD GT PUSH2 0x427 JUMPI DUP2 PUSH1 0x0 SWAP3 PUSH1 0x20 DUP1 SWAP4 ADD DUP4 DUP7 ADD CALLDATACOPY DUP4 ADD ADD MSTORE SWAP1 JUMP JUMPDEST CALLVALUE PUSH2 0x427 JUMPI PUSH1 0xA0 CALLDATASIZE PUSH1 0x3 NOT ADD SLT PUSH2 0x427 JUMPI PUSH2 0xAA6 PUSH2 0x411 JUMP JUMPDEST PUSH2 0xAAE PUSH2 0x42C JUMP JUMPDEST SWAP1 PUSH1 0x44 CALLDATALOAD SWAP2 PUSH8 0xFFFFFFFFFFFFFFFF SWAP1 DUP2 DUP5 GT PUSH2 0x427 JUMPI PUSH2 0xAD3 PUSH1 0x4 SWAP5 CALLDATASIZE SWAP1 DUP7 ADD PUSH2 0x9CA JUMP JUMPDEST SWAP1 PUSH1 0x64 CALLDATALOAD DUP4 DUP2 GT PUSH2 0x427 JUMPI PUSH2 0xAEB SWAP1 CALLDATASIZE SWAP1 DUP8 ADD PUSH2 0x9CA JUMP JUMPDEST SWAP3 PUSH1 0x84 CALLDATALOAD SWAP1 DUP2 GT PUSH2 0x427 JUMPI PUSH2 0xB03 SWAP1 CALLDATASIZE SWAP1 DUP8 ADD PUSH2 0xA46 JUMP JUMPDEST SWAP4 PUSH1 0x1 PUSH1 0x1 PUSH1 0xA0 SHL SUB DUP1 DUP3 AND SWAP1 CALLER DUP3 EQ ISZERO DUP1 PUSH2 0xB92 JUMPI JUMPDEST PUSH2 0xB65 JUMPI DUP4 AND ISZERO PUSH2 0xB4D JUMPI ISZERO PUSH2 0xB36 JUMPI PUSH2 0xB34 SWAP6 POP PUSH2 0x3134 JUMP JUMPDEST STOP JUMPDEST PUSH1 0x40 MLOAD PUSH3 0x6A0D45 PUSH1 0xE2 SHL DUP2 MSTORE PUSH1 0x0 DUP2 DUP9 ADD MSTORE PUSH1 0x24 SWAP1 REVERT JUMPDEST PUSH1 0x40 MLOAD PUSH4 0x2BFA23E7 PUSH1 0xE1 SHL DUP2 MSTORE PUSH1 0x0 DUP2 DUP10 ADD MSTORE PUSH1 0x24 SWAP1 REVERT JUMPDEST PUSH1 0x40 DUP1 MLOAD PUSH4 0x711BEC91 PUSH1 0xE1 SHL DUP2 MSTORE CALLER DUP2 DUP12 ADD SWAP1 DUP2 MSTORE PUSH1 0x1 PUSH1 0x1 PUSH1 0xA0 SHL SUB DUP7 AND PUSH1 0x20 DUP3 ADD MSTORE SWAP1 SWAP2 DUP3 SWAP2 ADD SUB SWAP1 REVERT JUMPDEST POP PUSH1 0x0 DUP3 DUP2 MSTORE PUSH1 0x1 PUSH1 0x20 SWAP1 DUP2 MSTORE PUSH1 0x40 DUP1 DUP4 KECCAK256 CALLER DUP5 MSTORE SWAP1 SWAP2 MSTORE SWAP1 KECCAK256 SLOAD PUSH1 0xFF AND ISZERO PUSH2 0xB1A JUMP JUMPDEST CALLVALUE PUSH2 0x427 JUMPI PUSH1 0x40 CALLDATASIZE PUSH1 0x3 NOT ADD SLT PUSH2 0x427 JUMPI PUSH2 0xB34 PUSH1 0x4 CALLDATALOAD PUSH2 0xBD5 PUSH2 0x42C JUMP JUMPDEST SWAP1 DUP1 PUSH1 0x0 MSTORE PUSH1 0x5 PUSH1 0x20 MSTORE PUSH2 0xBF0 PUSH1 0x1 PUSH1 0x40 PUSH1 0x0 KECCAK256 ADD SLOAD PUSH2 0x2B5B JUMP JUMPDEST PUSH2 0x2B7C JUMP JUMPDEST SWAP1 PUSH1 0x4 DUP3 LT ISZERO PUSH2 0x5E6 JUMPI MSTORE JUMP JUMPDEST PUSH2 0xCA3 SWAP1 PUSH1 0x20 DUP2 MSTORE DUP3 MLOAD PUSH1 0x20 DUP3 ADD MSTORE PUSH1 0x20 DUP4 ADD MLOAD PUSH2 0xC47 PUSH2 0xC31 PUSH2 0x140 SWAP3 DUP4 PUSH1 0x40 DUP7 ADD MSTORE PUSH2 0x160 DUP6 ADD SWAP1 PUSH2 0x646 JUMP JUMPDEST PUSH1 0x40 DUP7 ADD MLOAD DUP5 DUP3 SUB PUSH1 0x1F NOT ADD PUSH1 0x60 DUP7 ADD MSTORE PUSH2 0x646 JUMP JUMPDEST SWAP4 PUSH1 0x60 DUP2 ADD MLOAD PUSH1 0x80 DUP5 ADD MSTORE PUSH1 0x80 DUP2 ADD MLOAD PUSH1 0xA0 DUP5 ADD MSTORE PUSH1 0xA0 DUP2 ADD MLOAD PUSH1 0xC0 DUP5 ADD MSTORE PUSH1 0xC0 DUP2 ADD MLOAD PUSH1 0xE0 DUP5 ADD MSTORE PUSH1 0xE0 DUP2 ADD MLOAD PUSH2 0xC85 PUSH2 0x100 SWAP2 DUP3 DUP7 ADD SWAP1 PUSH2 0xBF5 JUMP JUMPDEST DUP2 ADD MLOAD SWAP1 PUSH2 0xC9A PUSH2 0x120 SWAP3 DUP4 DUP7 ADD SWAP1 ISZERO ISZERO SWAP1 MSTORE JUMP JUMPDEST ADD MLOAD ISZERO ISZERO SWAP2 ADD MSTORE JUMP JUMPDEST SWAP1 JUMP JUMPDEST CALLVALUE PUSH2 0x427 JUMPI PUSH1 0x20 CALLDATASIZE PUSH1 0x3 NOT ADD SLT PUSH2 0x427 JUMPI PUSH2 0x6EC PUSH1 0x40 MLOAD PUSH2 0xCC6 DUP2 PUSH2 0x943 JUMP JUMPDEST PUSH2 0xDA5 PUSH1 0x0 SWAP2 DUP3 DUP2 MSTORE PUSH1 0x60 PUSH1 0x20 DUP3 ADD MSTORE PUSH1 0x60 PUSH1 0x40 DUP3 ADD MSTORE DUP3 PUSH1 0x60 DUP3 ADD MSTORE DUP3 PUSH1 0x80 DUP3 ADD MSTORE DUP3 PUSH1 0xA0 DUP3 ADD MSTORE DUP3 PUSH1 0xC0 DUP3 ADD MSTORE DUP3 PUSH1 0xE0 DUP3 ADD MSTORE PUSH1 0xFF PUSH1 0x40 PUSH2 0x100 SWAP5 DUP1 DUP7 DUP6 ADD MSTORE DUP1 PUSH2 0x120 DUP1 SWAP6 ADD MSTORE PUSH1 0x4 CALLDATALOAD DUP2 MSTORE PUSH1 0x9 PUSH1 0x20 MSTORE KECCAK256 SWAP4 PUSH2 0xD99 PUSH1 0x7 PUSH2 0xD29 PUSH2 0x9A3 JUMP JUMPDEST SWAP7 DUP1 SLOAD DUP9 MSTORE PUSH2 0xD3A PUSH1 0x1 DUP3 ADD PUSH2 0x215F JUMP JUMPDEST PUSH1 0x20 DUP10 ADD MSTORE PUSH2 0xD4B PUSH1 0x2 DUP3 ADD PUSH2 0x215F JUMP JUMPDEST PUSH1 0x40 DUP10 ADD MSTORE PUSH1 0x3 DUP2 ADD SLOAD PUSH1 0x60 DUP10 ADD MSTORE PUSH1 0x4 DUP2 ADD SLOAD PUSH1 0x80 DUP10 ADD MSTORE PUSH1 0x5 DUP2 ADD SLOAD PUSH1 0xA0 DUP10 ADD MSTORE PUSH1 0x6 DUP2 ADD SLOAD PUSH1 0xC0 DUP10 ADD MSTORE ADD SLOAD SWAP2 PUSH2 0xD8A DUP5 DUP5 AND PUSH1 0xE0 DUP10 ADD PUSH2 0x2367 JUMP JUMPDEST PUSH1 0x8 DUP4 SWAP1 SHR DUP5 AND ISZERO ISZERO SWAP1 DUP8 ADD MSTORE JUMP JUMPDEST PUSH1 0x10 SHR AND ISZERO ISZERO SWAP1 DUP4 ADD MSTORE JUMP JUMPDEST PUSH1 0x40 MLOAD SWAP2 DUP3 SWAP2 DUP3 PUSH2 0xC02 JUMP JUMPDEST CALLVALUE PUSH2 0x427 JUMPI PUSH1 0x0 CALLDATASIZE PUSH1 0x3 NOT ADD SLT PUSH2 0x427 JUMPI PUSH1 0x20 PUSH1 0x40 MLOAD PUSH32 0x62045F2F519251643CF4B5F0750D99BBDA23CE869802AD9F6D52577CD08A645A DUP2 MSTORE RETURN JUMPDEST CALLVALUE PUSH2 0x427 JUMPI PUSH1 0x40 CALLDATASIZE PUSH1 0x3 NOT ADD SLT PUSH2 0x427 JUMPI PUSH2 0xE05 PUSH2 0x42C JUMP JUMPDEST CALLER PUSH1 0x1 PUSH1 0x1 PUSH1 0xA0 SHL SUB DUP3 AND SUB PUSH2 0xE21 JUMPI PUSH2 0xB34 SWAP1 PUSH1 0x4 CALLDATALOAD PUSH2 0x2C16 JUMP JUMPDEST PUSH1 0x40 MLOAD PUSH4 0x334BD919 PUSH1 0xE1 SHL DUP2 MSTORE PUSH1 0x4 SWAP1 REVERT JUMPDEST PUSH1 0x60 SWAP1 PUSH1 0x3 NOT ADD SLT PUSH2 0x427 JUMPI PUSH1 0x4 CALLDATALOAD SWAP1 PUSH1 0x24 CALLDATALOAD PUSH1 0x1 PUSH1 0x1 PUSH1 0xA0 SHL SUB DUP2 AND DUP2 SUB PUSH2 0x427 JUMPI SWAP1 PUSH1 0x44 CALLDATALOAD SWAP1 JUMP JUMPDEST CALLVALUE PUSH2 0x427 JUMPI PUSH2 0xE6B CALLDATASIZE PUSH2 0xE33 JUMP JUMPDEST SWAP1 SWAP2 PUSH2 0xE75 PUSH2 0x29FB JUMP JUMPDEST DUP2 ISZERO PUSH2 0xEE8 JUMPI PUSH1 0x0 DUP2 DUP2 MSTORE PUSH1 0x20 DUP2 DUP2 MSTORE PUSH1 0x40 DUP1 DUP4 KECCAK256 PUSH1 0x1 PUSH1 0x1 PUSH1 0xA0 SHL SUB DUP8 AND DUP5 MSTORE SWAP1 SWAP2 MSTORE SWAP1 KECCAK256 DUP3 SWAP1 SLOAD LT PUSH2 0xEAC JUMPI PUSH2 0xB34 SWAP3 PUSH2 0x2CA8 JUMP JUMPDEST PUSH1 0x40 MLOAD PUSH3 0x461BCD PUSH1 0xE5 SHL DUP2 MSTORE PUSH1 0x20 PUSH1 0x4 DUP3 ADD MSTORE PUSH1 0x14 PUSH1 0x24 DUP3 ADD MSTORE PUSH20 0x496E73756666696369656E742062616C616E6365 PUSH1 0x60 SHL PUSH1 0x44 DUP3 ADD MSTORE PUSH1 0x64 SWAP1 REVERT JUMPDEST PUSH1 0x40 MLOAD PUSH3 0x461BCD PUSH1 0xE5 SHL DUP2 MSTORE PUSH1 0x20 PUSH1 0x4 DUP3 ADD MSTORE PUSH1 0x17 PUSH1 0x24 DUP3 ADD MSTORE PUSH32 0x416D6F756E74206D75737420626520706F736974697665000000000000000000 PUSH1 0x44 DUP3 ADD MSTORE PUSH1 0x64 SWAP1 REVERT JUMPDEST CALLVALUE PUSH2 0x427 JUMPI PUSH1 0x0 CALLDATASIZE PUSH1 0x3 NOT ADD SLT PUSH2 0x427 JUMPI PUSH2 0xF46 PUSH2 0x2A53 JUMP JUMPDEST PUSH1 0x6 SLOAD PUSH1 0xFF DUP2 AND ISZERO PUSH2 0xF85 JUMPI PUSH1 0xFF NOT AND PUSH1 0x6 SSTORE PUSH32 0x5DB9EE0A495BF2E6FF9C91A7834C1BA4FDD244A5E8AA4E537BD38AEAE4B073AA PUSH1 0x20 PUSH1 0x40 MLOAD CALLER DUP2 MSTORE LOG1 STOP JUMPDEST PUSH1 0x40 MLOAD PUSH4 0x8DFC202B PUSH1 0xE0 SHL DUP2 MSTORE PUSH1 0x4 SWAP1 REVERT JUMPDEST CALLVALUE PUSH2 0x427 JUMPI PUSH1 0x20 CALLDATASIZE PUSH1 0x3 NOT ADD SLT PUSH2 0x427 JUMPI PUSH1 0x4 CALLDATALOAD PUSH1 0x0 MSTORE PUSH1 0x11 PUSH1 0x20 MSTORE PUSH1 0x20 PUSH1 0x40 PUSH1 0x0 KECCAK256 SLOAD ISZERO ISZERO PUSH1 0x40 MLOAD SWAP1 DUP2 MSTORE RETURN JUMPDEST SWAP1 DUP2 MLOAD DUP1 DUP3 MSTORE PUSH1 0x20 DUP1 DUP1 SWAP4 ADD SWAP4 ADD SWAP2 PUSH1 0x0 JUMPDEST DUP3 DUP2 LT PUSH2 0xFE5 JUMPI POP POP POP POP SWAP1 JUMP JUMPDEST DUP4 MLOAD DUP6 MSTORE SWAP4 DUP2 ADD SWAP4 SWAP3 DUP2 ADD SWAP3 PUSH1 0x1 ADD PUSH2 0xFD7 JUMP JUMPDEST SWAP1 PUSH1 0x20 PUSH2 0xCA3 SWAP3 DUP2 DUP2 MSTORE ADD SWAP1 PUSH2 0xFC5 JUMP JUMPDEST CALLVALUE PUSH2 0x427 JUMPI PUSH1 0x40 CALLDATASIZE PUSH1 0x3 NOT ADD SLT PUSH2 0x427 JUMPI PUSH1 0x4 CALLDATALOAD PUSH8 0xFFFFFFFFFFFFFFFF DUP1 DUP3 GT PUSH2 0x427 JUMPI CALLDATASIZE PUSH1 0x23 DUP4 ADD SLT ISZERO PUSH2 0x427 JUMPI DUP2 PUSH1 0x4 ADD CALLDATALOAD PUSH2 0x1047 DUP2 PUSH2 0x9B2 JUMP JUMPDEST SWAP3 PUSH2 0x1055 PUSH1 0x40 MLOAD SWAP5 DUP6 PUSH2 0x981 JUMP JUMPDEST DUP2 DUP5 MSTORE PUSH1 0x20 SWAP2 PUSH1 0x24 PUSH1 0x20 DUP7 ADD SWAP2 PUSH1 0x5 SHL DUP4 ADD ADD SWAP2 CALLDATASIZE DUP4 GT PUSH2 0x427 JUMPI PUSH1 0x24 ADD SWAP1 JUMPDEST DUP3 DUP3 LT PUSH2 0x10AE JUMPI DUP6 PUSH1 0x24 CALLDATALOAD DUP7 DUP2 GT PUSH2 0x427 JUMPI PUSH2 0x6EC SWAP2 PUSH2 0x109C PUSH2 0x10A2 SWAP3 CALLDATASIZE SWAP1 PUSH1 0x4 ADD PUSH2 0x9CA JUMP JUMPDEST SWAP1 PUSH2 0x23A2 JUMP JUMPDEST PUSH1 0x40 MLOAD SWAP2 DUP3 SWAP2 DUP3 PUSH2 0xFF9 JUMP JUMPDEST DUP4 DUP1 SWAP2 PUSH2 0x10BA DUP5 PUSH2 0x442 JUMP JUMPDEST DUP2 MSTORE ADD SWAP2 ADD SWAP1 PUSH2 0x1075 JUMP JUMPDEST CALLVALUE PUSH2 0x427 JUMPI PUSH1 0x20 CALLDATASIZE PUSH1 0x3 NOT ADD SLT PUSH2 0x427 JUMPI PUSH1 0x4 CALLDATALOAD PUSH1 0x0 MSTORE PUSH1 0x3 PUSH1 0x20 MSTORE PUSH1 0x20 PUSH1 0x40 PUSH1 0x0 KECCAK256 SLOAD ISZERO ISZERO PUSH1 0x40 MLOAD SWAP1 DUP2 MSTORE RETURN JUMPDEST CALLVALUE PUSH2 0x427 JUMPI PUSH1 0x0 CALLDATASIZE PUSH1 0x3 NOT ADD SLT PUSH2 0x427 JUMPI PUSH1 0x40 MLOAD DUP1 PUSH1 0x10 SLOAD SWAP2 DUP3 DUP2 MSTORE PUSH1 0x20 DUP1 SWAP2 ADD SWAP3 PUSH1 0x10 PUSH1 0x0 MSTORE PUSH32 0x1B6847DC741A1B0CD08D278845F9D819D87B734759AFB55FE2DE5CB82A9AE672 SWAP2 PUSH1 0x0 SWAP1 JUMPDEST DUP3 DUP3 LT PUSH2 0x116B JUMPI PUSH2 0x6EC DUP6 PUSH2 0x1157 DUP2 DUP10 SUB DUP3 PUSH2 0x981 JUMP JUMPDEST PUSH1 0x40 MLOAD SWAP2 DUP3 SWAP2 PUSH1 0x20 DUP4 MSTORE PUSH1 0x20 DUP4 ADD SWAP1 PUSH2 0xFC5 JUMP JUMPDEST DUP4 SLOAD DUP7 MSTORE SWAP5 DUP6 ADD SWAP5 PUSH1 0x1 SWAP4 DUP5 ADD SWAP4 SWAP1 SWAP2 ADD SWAP1 PUSH2 0x1140 JUMP JUMPDEST CALLVALUE PUSH2 0x427 JUMPI PUSH1 0x0 CALLDATASIZE PUSH1 0x3 NOT ADD SLT PUSH2 0x427 JUMPI PUSH1 0x20 PUSH1 0x40 MLOAD PUSH32 0x28F5A99355973CC89255B8C4AC88405F27C78DED7608B040EE77A8BDF44D15E2 DUP2 MSTORE RETURN JUMPDEST CALLVALUE PUSH2 0x427 JUMPI PUSH1 0x0 CALLDATASIZE PUSH1 0x3 NOT ADD SLT PUSH2 0x427 JUMPI PUSH1 0x20 PUSH1 0x40 MLOAD PUSH2 0x7D0 DUP2 MSTORE RETURN JUMPDEST CALLVALUE PUSH2 0x427 JUMPI PUSH1 0xA0 CALLDATASIZE PUSH1 0x3 NOT ADD SLT PUSH2 0x427 JUMPI PUSH8 0xFFFFFFFFFFFFFFFF PUSH1 0x4 CALLDATALOAD DUP2 DUP2 GT PUSH2 0x427 JUMPI PUSH2 0x120C SWAP1 CALLDATASIZE SWAP1 PUSH1 0x4 ADD PUSH2 0xA46 JUMP JUMPDEST SWAP1 PUSH1 0x24 CALLDATALOAD SWAP1 DUP2 GT PUSH2 0x427 JUMPI PUSH2 0x6EC SWAP2 PUSH32 0x1EFDDE4594ED8E2284022AA3BEDD98D13B88C18F2BB33D90131DFF8E95589BA3 PUSH2 0x124D PUSH2 0x12E8 SWAP4 CALLDATASIZE SWAP1 PUSH1 0x4 ADD PUSH2 0xA46 JUMP JUMPDEST SWAP2 PUSH1 0x44 CALLDATALOAD SWAP1 PUSH2 0x13D5 PUSH1 0x64 CALLDATALOAD PUSH2 0x1260 PUSH2 0x2AAB JUMP JUMPDEST PUSH1 0xA SLOAD SWAP7 DUP8 SWAP7 PUSH2 0x1277 PUSH2 0x1272 DUP10 PUSH2 0x2477 JUMP JUMPDEST PUSH1 0xA SSTORE JUMP JUMPDEST PUSH2 0x1283 PUSH1 0x84 CALLDATALOAD TIMESTAMP PUSH2 0x248B JUMP JUMPDEST PUSH2 0x128B PUSH2 0x9A3 JUMP JUMPDEST SWAP2 DUP10 DUP4 MSTORE DUP7 PUSH1 0x20 DUP5 ADD MSTORE PUSH1 0x40 DUP4 ADD MSTORE DUP7 PUSH1 0x60 DUP4 ADD MSTORE PUSH1 0x0 PUSH1 0x80 DUP4 ADD MSTORE DUP4 PUSH1 0xA0 DUP4 ADD MSTORE PUSH1 0xC0 DUP3 ADD MSTORE PUSH1 0x0 PUSH1 0xE0 DUP3 ADD MSTORE PUSH2 0x12C7 PUSH2 0x100 DUP3 ADD PUSH1 0x1 SWAP1 MSTORE JUMP JUMPDEST PUSH1 0x0 PUSH2 0x120 DUP3 ADD MSTORE PUSH2 0x12E3 DUP9 PUSH1 0x0 MSTORE PUSH1 0x9 PUSH1 0x20 MSTORE PUSH1 0x40 PUSH1 0x0 KECCAK256 SWAP1 JUMP JUMPDEST PUSH2 0x25C4 JUMP JUMPDEST PUSH2 0x12FC PUSH2 0x12F4 DUP6 PUSH2 0x267E JUMP JUMPDEST PUSH2 0x2710 SWAP1 DIV SWAP1 JUMP JUMPDEST PUSH2 0x1322 PUSH2 0x1313 DUP9 PUSH1 0x0 MSTORE PUSH1 0xB PUSH1 0x20 MSTORE PUSH1 0x40 PUSH1 0x0 KECCAK256 SWAP1 JUMP JUMPDEST PUSH1 0x0 DUP1 MSTORE PUSH1 0x20 MSTORE PUSH1 0x40 PUSH1 0x0 KECCAK256 SWAP1 JUMP JUMPDEST SSTORE PUSH2 0x132F PUSH2 0x12F4 DUP6 PUSH2 0x2695 JUMP JUMPDEST PUSH2 0x1356 PUSH2 0x1346 DUP9 PUSH1 0x0 MSTORE PUSH1 0xB PUSH1 0x20 MSTORE PUSH1 0x40 PUSH1 0x0 KECCAK256 SWAP1 JUMP JUMPDEST PUSH1 0x1 PUSH1 0x0 MSTORE PUSH1 0x20 MSTORE PUSH1 0x40 PUSH1 0x0 KECCAK256 SWAP1 JUMP JUMPDEST SSTORE PUSH2 0x1363 PUSH2 0x12F4 DUP6 PUSH2 0x26AC JUMP JUMPDEST PUSH2 0x138A PUSH2 0x137A DUP9 PUSH1 0x0 MSTORE PUSH1 0xB PUSH1 0x20 MSTORE PUSH1 0x40 PUSH1 0x0 KECCAK256 SWAP1 JUMP JUMPDEST PUSH1 0x2 PUSH1 0x0 MSTORE PUSH1 0x20 MSTORE PUSH1 0x40 PUSH1 0x0 KECCAK256 SWAP1 JUMP JUMPDEST SSTORE PUSH2 0x1397 PUSH2 0x12F4 DUP6 PUSH2 0x26C3 JUMP JUMPDEST PUSH2 0x13BE PUSH2 0x13AE DUP9 PUSH1 0x0 MSTORE PUSH1 0xB PUSH1 0x20 MSTORE PUSH1 0x40 PUSH1 0x0 KECCAK256 SWAP1 JUMP JUMPDEST PUSH1 0x3 PUSH1 0x0 MSTORE PUSH1 0x20 MSTORE PUSH1 0x40 PUSH1 0x0 KECCAK256 SWAP1 JUMP JUMPDEST SSTORE PUSH2 0x13C8 DUP7 PUSH2 0x33A7 JUMP JUMPDEST POP PUSH1 0x40 MLOAD SWAP4 DUP5 SWAP4 DUP5 PUSH2 0x26ED JUMP JUMPDEST SUB SWAP1 LOG2 PUSH1 0x40 MLOAD SWAP1 DUP2 MSTORE SWAP1 DUP2 SWAP1 PUSH1 0x20 DUP3 ADD SWAP1 JUMP JUMPDEST CALLVALUE PUSH2 0x427 JUMPI PUSH1 0x0 CALLDATASIZE PUSH1 0x3 NOT ADD SLT PUSH2 0x427 JUMPI PUSH1 0x20 PUSH1 0x40 MLOAD PUSH2 0x3A98 DUP2 MSTORE RETURN JUMPDEST CALLVALUE PUSH2 0x427 JUMPI PUSH1 0x0 CALLDATASIZE PUSH1 0x3 NOT ADD SLT PUSH2 0x427 JUMPI PUSH1 0x20 PUSH1 0xFF PUSH1 0x6 SLOAD AND PUSH1 0x40 MLOAD SWAP1 ISZERO ISZERO DUP2 MSTORE RETURN JUMPDEST CALLVALUE PUSH2 0x427 JUMPI PUSH1 0x0 CALLDATASIZE PUSH1 0x3 NOT ADD SLT PUSH2 0x427 JUMPI PUSH1 0x20 PUSH1 0x40 MLOAD PUSH2 0xBB8 DUP2 MSTORE RETURN JUMPDEST CALLVALUE PUSH2 0x427 JUMPI PUSH1 0x60 CALLDATASIZE PUSH1 0x3 NOT ADD SLT PUSH2 0x427 JUMPI PUSH2 0x145E PUSH2 0x411 JUMP JUMPDEST PUSH8 0xFFFFFFFFFFFFFFFF PUSH1 0x24 CALLDATALOAD DUP2 DUP2 GT PUSH2 0x427 JUMPI PUSH2 0x147F SWAP1 CALLDATASIZE SWAP1 PUSH1 0x4 ADD PUSH2 0x9CA JUMP JUMPDEST SWAP1 PUSH1 0x44 CALLDATALOAD SWAP1 DUP2 GT PUSH2 0x427 JUMPI PUSH2 0x1498 SWAP1 CALLDATASIZE SWAP1 PUSH1 0x4 ADD PUSH2 0x9CA JUMP JUMPDEST SWAP1 PUSH1 0x1 PUSH1 0x1 PUSH1 0xA0 SHL SUB DUP4 AND CALLER DUP2 EQ ISZERO DUP1 PUSH2 0x150D JUMPI JUMPDEST PUSH2 0x14E6 JUMPI ISZERO PUSH2 0x14CE JUMPI PUSH2 0xB34 SWAP3 PUSH1 0x0 PUSH1 0x40 MLOAD PUSH2 0x14C8 DUP2 PUSH2 0x965 JUMP JUMPDEST MSTORE PUSH2 0x2EDA JUMP JUMPDEST PUSH1 0x40 MLOAD PUSH3 0x6A0D45 PUSH1 0xE2 SHL DUP2 MSTORE PUSH1 0x0 PUSH1 0x4 DUP3 ADD MSTORE PUSH1 0x24 SWAP1 REVERT JUMPDEST PUSH1 0x40 MLOAD PUSH4 0x711BEC91 PUSH1 0xE1 SHL DUP2 MSTORE CALLER PUSH1 0x4 DUP3 ADD MSTORE PUSH1 0x1 PUSH1 0x1 PUSH1 0xA0 SHL SUB DUP6 AND PUSH1 0x24 DUP3 ADD MSTORE PUSH1 0x44 SWAP1 REVERT JUMPDEST POP PUSH1 0x0 DUP2 DUP2 MSTORE PUSH1 0x1 PUSH1 0x20 SWAP1 DUP2 MSTORE PUSH1 0x40 DUP1 DUP4 KECCAK256 CALLER DUP5 MSTORE SWAP1 SWAP2 MSTORE SWAP1 KECCAK256 SLOAD PUSH1 0xFF AND ISZERO PUSH2 0x14AD JUMP JUMPDEST CALLVALUE PUSH2 0x427 JUMPI PUSH1 0x20 CALLDATASIZE PUSH1 0x3 NOT ADD SLT PUSH2 0x427 JUMPI PUSH1 0x4 CALLDATALOAD PUSH1 0x4 DUP2 LT ISZERO PUSH2 0x427 JUMPI PUSH2 0x1559 PUSH1 0x20 SWAP2 PUSH2 0x270F JUMP JUMPDEST PUSH1 0x40 MLOAD SWAP1 DUP2 MSTORE RETURN JUMPDEST CALLVALUE PUSH2 0x427 JUMPI PUSH1 0x40 CALLDATASIZE PUSH1 0x3 NOT ADD SLT PUSH2 0x427 JUMPI PUSH1 0x20 PUSH2 0x49A PUSH2 0x157F PUSH2 0x53D JUMP JUMPDEST PUSH1 0x4 CALLDATALOAD PUSH1 0x0 MSTORE PUSH1 0xB DUP4 MSTORE PUSH1 0x40 PUSH1 0x0 KECCAK256 PUSH2 0x5FC JUMP JUMPDEST CALLVALUE PUSH2 0x427 JUMPI PUSH1 0x0 CALLDATASIZE PUSH1 0x3 NOT ADD SLT PUSH2 0x427 JUMPI PUSH1 0x20 PUSH1 0x10 SLOAD PUSH1 0x40 MLOAD SWAP1 DUP2 MSTORE RETURN JUMPDEST CALLVALUE PUSH2 0x427 JUMPI PUSH1 0x0 CALLDATASIZE PUSH1 0x3 NOT ADD SLT PUSH2 0x427 JUMPI PUSH1 0x20 PUSH1 0x40 MLOAD PUSH2 0x57E4 DUP2 MSTORE RETURN JUMPDEST CALLVALUE PUSH2 0x427 JUMPI PUSH1 0x20 CALLDATASIZE PUSH1 0x3 NOT ADD SLT PUSH2 0x427 JUMPI CALLER PUSH1 0x0 SWAP1 DUP2 MSTORE PUSH32 0xC54CC0CAD80E711AFF5B4FCA3E13682B9A8FCD7FF4679FBC81D0391D16E477BD PUSH1 0x20 MSTORE PUSH1 0x40 SWAP1 KECCAK256 SLOAD PUSH32 0x62045F2F519251643CF4B5F0750D99BBDA23CE869802AD9F6D52577CD08A645A SWAP1 PUSH1 0xFF AND ISZERO PUSH2 0x1643 JUMPI PUSH2 0xB34 PUSH1 0x4 CALLDATALOAD PUSH2 0x2D04 JUMP JUMPDEST PUSH1 0x44 SWAP1 PUSH1 0x40 MLOAD SWAP1 PUSH4 0xE2517D3F PUSH1 0xE0 SHL DUP3 MSTORE CALLER PUSH1 0x4 DUP4 ADD MSTORE PUSH1 0x24 DUP3 ADD MSTORE REVERT JUMPDEST CALLVALUE PUSH2 0x427 JUMPI PUSH1 0x0 CALLDATASIZE PUSH1 0x3 NOT ADD SLT PUSH2 0x427 JUMPI PUSH2 0x167A PUSH2 0x2A53 JUMP JUMPDEST PUSH2 0x1682 PUSH2 0x2DD5 JUMP JUMPDEST PUSH1 0x1 PUSH1 0xFF NOT PUSH1 0x6 SLOAD AND OR PUSH1 0x6 SSTORE PUSH32 0x62E78CEA01BEE320CD4E420270B5EA74000D11B0C9F74754EBDBFC544B05A258 PUSH1 0x20 PUSH1 0x40 MLOAD CALLER DUP2 MSTORE LOG1 STOP JUMPDEST CALLVALUE PUSH2 0x427 JUMPI PUSH1 0x20 CALLDATASIZE PUSH1 0x3 NOT ADD SLT PUSH2 0x427 JUMPI PUSH2 0x16D4 PUSH2 0x411 JUMP JUMPDEST PUSH2 0x16DC PUSH2 0x299D JUMP JUMPDEST PUSH1 0x1 PUSH1 0x1 PUSH1 0xA0 SHL SUB AND PUSH1 0x0 DUP2 DUP2 MSTORE PUSH1 0xD PUSH1 0x20 MSTORE PUSH1 0x40 DUP2 KECCAK256 DUP1 SLOAD PUSH1 0xFF NOT AND SWAP1 SSTORE SWAP1 PUSH32 0x535611FB62FA2A833988F283B779E417E996813E44046F521D76C17B5943B08C DUP3 DUP1 LOG2 DUP1 RETURN JUMPDEST CALLVALUE PUSH2 0x427 JUMPI PUSH1 0x20 CALLDATASIZE PUSH1 0x3 NOT ADD SLT PUSH2 0x427 JUMPI PUSH1 0x0 PUSH1 0x4 DUP1 CALLDATALOAD SWAP1 DUP3 JUMPDEST PUSH1 0xFF DUP5 AND PUSH1 0x3 DUP2 GT PUSH2 0x17B3 JUMPI DUP3 DUP2 LT ISZERO PUSH2 0x179E JUMPI PUSH2 0x1798 SWAP2 PUSH2 0x178C PUSH2 0x12F4 DUP4 PUSH2 0x1786 PUSH2 0x177F PUSH2 0x1792 SWAP7 PUSH2 0x177A DUP12 PUSH1 0x0 MSTORE PUSH1 0xC PUSH1 0x20 MSTORE PUSH1 0x40 PUSH1 0x0 KECCAK256 SWAP1 JUMP JUMPDEST PUSH2 0x5FC JUMP JUMPDEST SLOAD SWAP2 PUSH2 0x270F JUMP JUMPDEST SWAP1 PUSH2 0x26DA JUMP JUMPDEST SWAP1 PUSH2 0x248B JUMP JUMPDEST SWAP4 PUSH2 0x275A JUMP JUMPDEST SWAP3 PUSH2 0x173D JUMP JUMPDEST PUSH1 0x21 DUP4 PUSH4 0x4E487B71 PUSH1 0xE0 SHL PUSH1 0x0 MSTORE MSTORE PUSH1 0x24 PUSH1 0x0 REVERT JUMPDEST PUSH1 0x40 MLOAD DUP3 DUP2 MSTORE PUSH1 0x20 SWAP1 RETURN JUMPDEST CALLVALUE PUSH2 0x427 JUMPI PUSH2 0x17CC CALLDATASIZE PUSH2 0xE33 JUMP JUMPDEST PUSH2 0x17D4 PUSH2 0x2B03 JUMP JUMPDEST PUSH1 0x2 PUSH1 0x7 SLOAD EQ PUSH2 0x1A22 JUMPI PUSH1 0x2 PUSH1 0x7 SSTORE PUSH2 0x17EB PUSH2 0x2DD5 JUMP JUMPDEST PUSH1 0x1 PUSH1 0x1 PUSH1 0xA0 SHL SUB DUP3 AND PUSH1 0x0 SWAP1 DUP2 MSTORE PUSH1 0xD PUSH1 0x20 MSTORE PUSH1 0x40 SWAP1 KECCAK256 PUSH2 0x1818 SWAP1 PUSH2 0x1813 SWAP1 JUMPDEST SLOAD PUSH1 0xFF AND SWAP1 JUMP JUMPDEST PUSH2 0x277A JUMP JUMPDEST DUP3 PUSH32 0x689E2353C59BCD8C1C4352DDD0F21299329AD92442D331648747E4E865ACDE74 PUSH2 0x19A2 PUSH2 0x1851 DUP4 PUSH1 0x0 MSTORE PUSH1 0x9 PUSH1 0x20 MSTORE PUSH1 0x40 PUSH1 0x0 KECCAK256 SWAP1 JUMP JUMPDEST PUSH1 0x4 PUSH1 0x7 DUP3 ADD SWAP2 PUSH2 0x190C PUSH2 0x1904 PUSH1 0xFF PUSH2 0x18CC DUP12 DUP3 PUSH2 0x18AD PUSH2 0x180C DUP11 SLOAD SWAP4 PUSH2 0x187C DUP5 DUP7 PUSH1 0x8 SHR AND PUSH2 0x27BE JUMP JUMPDEST DUP4 DUP6 PUSH1 0x10 SHR AND ISZERO DUP1 ISZERO PUSH2 0x1A14 JUMPI JUMPDEST PUSH2 0x1893 SWAP1 PUSH2 0x2800 JUMP JUMPDEST PUSH1 0x1 PUSH1 0x1 PUSH1 0xA0 SHL SUB AND PUSH1 0x0 SWAP1 DUP2 MSTORE PUSH1 0xE PUSH1 0x20 MSTORE PUSH1 0x40 SWAP1 KECCAK256 SWAP1 JUMP JUMPDEST SWAP2 PUSH2 0x18B7 DUP4 PUSH2 0x5DC JUMP JUMPDEST AND SWAP3 DUP4 SWAP2 PUSH2 0x18C4 DUP4 PUSH2 0x5DC JUMP JUMPDEST AND LT ISZERO PUSH2 0x283D JUMP JUMPDEST PUSH2 0x18FD PUSH2 0x18E7 DUP3 PUSH2 0x177A DUP13 PUSH1 0x0 MSTORE PUSH1 0xB PUSH1 0x20 MSTORE PUSH1 0x40 PUSH1 0x0 KECCAK256 SWAP1 JUMP JUMPDEST SLOAD SWAP2 PUSH2 0x177A DUP12 PUSH1 0x0 MSTORE PUSH1 0xC PUSH1 0x20 MSTORE PUSH1 0x40 PUSH1 0x0 KECCAK256 SWAP1 JUMP JUMPDEST SLOAD SWAP1 PUSH2 0x2889 JUMP JUMPDEST DUP9 GT ISZERO PUSH2 0x2896 JUMP JUMPDEST PUSH2 0x191F PUSH2 0x1917 PUSH2 0x28E2 JUMP JUMPDEST DUP9 DUP9 DUP12 PUSH2 0x2DF3 JUMP JUMPDEST ADD PUSH2 0x192B DUP7 DUP3 SLOAD PUSH2 0x248B JUMP JUMPDEST SWAP1 SSTORE PUSH2 0x194F PUSH2 0x1944 DUP6 PUSH1 0x0 MSTORE PUSH1 0xC PUSH1 0x20 MSTORE PUSH1 0x40 PUSH1 0x0 KECCAK256 SWAP1 JUMP JUMPDEST DUP3 SLOAD PUSH1 0xFF AND SWAP1 PUSH2 0x5FC JUMP JUMPDEST PUSH2 0x195A DUP7 DUP3 SLOAD PUSH2 0x248B JUMP JUMPDEST SWAP1 SSTORE PUSH2 0x198E PUSH2 0x1944 DUP8 PUSH2 0x1977 DUP8 PUSH1 0x0 MSTORE PUSH1 0xF PUSH1 0x20 MSTORE PUSH1 0x40 PUSH1 0x0 KECCAK256 SWAP1 JUMP JUMPDEST SWAP1 PUSH1 0x1 DUP1 PUSH1 0xA0 SHL SUB AND PUSH1 0x0 MSTORE PUSH1 0x20 MSTORE PUSH1 0x40 PUSH1 0x0 KECCAK256 SWAP1 JUMP JUMPDEST PUSH2 0x1999 DUP7 DUP3 SLOAD PUSH2 0x248B JUMP JUMPDEST SWAP1 SSTORE SLOAD PUSH1 0xFF AND SWAP1 JUMP JUMPDEST PUSH1 0x40 MLOAD SWAP1 SWAP5 PUSH1 0x1 PUSH1 0x1 PUSH1 0xA0 SHL SUB AND SWAP4 DUP2 SWAP1 PUSH2 0x19BF SWAP1 DUP8 SWAP1 DUP4 PUSH2 0x28F5 JUMP JUMPDEST SUB SWAP1 LOG3 PUSH2 0x19F3 PUSH2 0x19DD DUP3 PUSH2 0x177A DUP6 PUSH1 0x0 MSTORE PUSH1 0xC PUSH1 0x20 MSTORE PUSH1 0x40 PUSH1 0x0 KECCAK256 SWAP1 JUMP JUMPDEST SLOAD SWAP2 PUSH2 0x177A DUP5 PUSH1 0x0 MSTORE PUSH1 0xB PUSH1 0x20 MSTORE PUSH1 0x40 PUSH1 0x0 KECCAK256 SWAP1 JUMP JUMPDEST SLOAD GT ISZERO PUSH2 0x1A05 JUMPI JUMPDEST PUSH2 0xB34 PUSH1 0x1 PUSH1 0x7 SSTORE JUMP JUMPDEST PUSH2 0x1A0E SWAP1 PUSH2 0x2D04 JUMP JUMPDEST CODESIZE PUSH2 0x19FB JUMP JUMPDEST POP PUSH1 0x6 DUP11 ADD SLOAD TIMESTAMP GT ISZERO PUSH2 0x188A JUMP JUMPDEST PUSH1 0x40 MLOAD PUSH4 0x3EE5AEB5 PUSH1 0xE0 SHL DUP2 MSTORE PUSH1 0x4 SWAP1 REVERT JUMPDEST CALLVALUE PUSH2 0x427 JUMPI PUSH1 0x40 CALLDATASIZE PUSH1 0x3 NOT ADD SLT PUSH2 0x427 JUMPI PUSH1 0x20 PUSH1 0xFF PUSH2 0x1A7A PUSH2 0x1A54 PUSH2 0x42C JUMP JUMPDEST PUSH1 0x4 CALLDATALOAD PUSH1 0x0 MSTORE PUSH1 0x5 DUP5 MSTORE PUSH1 0x40 PUSH1 0x0 KECCAK256 SWAP1 PUSH1 0x1 DUP1 PUSH1 0xA0 SHL SUB AND PUSH1 0x0 MSTORE PUSH1 0x20 MSTORE PUSH1 0x40 PUSH1 0x0 KECCAK256 SWAP1 JUMP JUMPDEST SLOAD AND PUSH1 0x40 MLOAD SWAP1 ISZERO ISZERO DUP2 MSTORE RETURN JUMPDEST CALLVALUE PUSH2 0x427 JUMPI PUSH1 0x20 CALLDATASIZE PUSH1 0x3 NOT ADD SLT PUSH2 0x427 JUMPI PUSH1 0x1 PUSH1 0x1 PUSH1 0xA0 SHL SUB PUSH2 0x1AA7 PUSH2 0x411 JUMP JUMPDEST AND PUSH1 0x0 MSTORE PUSH1 0xD PUSH1 0x20 MSTORE PUSH1 0x20 PUSH1 0xFF PUSH1 0x40 PUSH1 0x0 KECCAK256 SLOAD AND PUSH1 0x40 MLOAD SWAP1 ISZERO ISZERO DUP2 MSTORE RETURN JUMPDEST CALLVALUE PUSH2 0x427 JUMPI PUSH1 0x60 CALLDATASIZE PUSH1 0x3 NOT ADD SLT PUSH2 0x427 JUMPI PUSH2 0x1ADE PUSH2 0x42C JUMP JUMPDEST PUSH1 0x44 CALLDATALOAD SWAP1 PUSH1 0x4 DUP3 LT ISZERO PUSH2 0x427 JUMPI PUSH1 0x20 SWAP2 PUSH2 0x177A PUSH2 0x49A SWAP3 PUSH1 0x4 CALLDATALOAD PUSH1 0x0 MSTORE PUSH1 0xF DUP6 MSTORE PUSH1 0x40 PUSH1 0x0 KECCAK256 SWAP1 PUSH1 0x1 DUP1 PUSH1 0xA0 SHL SUB AND PUSH1 0x0 MSTORE PUSH1 0x20 MSTORE PUSH1 0x40 PUSH1 0x0 KECCAK256 SWAP1 JUMP JUMPDEST CALLVALUE PUSH2 0x427 JUMPI PUSH1 0x0 CALLDATASIZE PUSH1 0x3 NOT ADD SLT PUSH2 0x427 JUMPI PUSH1 0x20 PUSH1 0x40 MLOAD PUSH1 0x0 DUP2 MSTORE RETURN JUMPDEST CALLVALUE PUSH2 0x427 JUMPI PUSH1 0x40 CALLDATASIZE PUSH1 0x3 NOT ADD SLT PUSH2 0x427 JUMPI PUSH2 0x1B50 PUSH2 0x411 JUMP JUMPDEST PUSH1 0x24 CALLDATALOAD SWAP1 DUP2 ISZERO ISZERO SWAP1 DUP2 DUP4 SUB PUSH2 0x427 JUMPI PUSH1 0x1 PUSH1 0x1 PUSH1 0xA0 SHL SUB DUP2 AND SWAP3 DUP4 ISZERO PUSH2 0x1BDB JUMPI PUSH2 0x1B9C PUSH2 0x1BAD SWAP3 CALLER PUSH1 0x0 MSTORE PUSH1 0x1 PUSH1 0x20 MSTORE PUSH1 0x40 PUSH1 0x0 KECCAK256 SWAP1 PUSH1 0x1 DUP1 PUSH1 0xA0 SHL SUB AND PUSH1 0x0 MSTORE PUSH1 0x20 MSTORE PUSH1 0x40 PUSH1 0x0 KECCAK256 SWAP1 JUMP JUMPDEST SWAP1 PUSH1 0xFF DUP1 NOT DUP4 SLOAD AND SWAP2 ISZERO ISZERO AND OR SWAP1 SSTORE JUMP JUMPDEST PUSH1 0x40 MLOAD SWAP1 DUP2 MSTORE PUSH32 0x17307EAB39AB6107E8899845AD3D59BD9653F200F220920489CA2B5937696C31 PUSH1 0x20 CALLER SWAP3 LOG3 STOP JUMPDEST PUSH1 0x40 MLOAD PUSH3 0xCED3E1 PUSH1 0xE8 SHL DUP2 MSTORE PUSH1 0x0 PUSH1 0x4 DUP3 ADD MSTORE PUSH1 0x24 SWAP1 REVERT JUMPDEST CALLVALUE PUSH2 0x427 JUMPI PUSH1 0x0 CALLDATASIZE PUSH1 0x3 NOT ADD SLT PUSH2 0x427 JUMPI PUSH1 0x20 PUSH1 0x40 MLOAD PUSH2 0x3E8 DUP2 MSTORE RETURN JUMPDEST CALLVALUE PUSH2 0x427 JUMPI PUSH1 0x20 CALLDATASIZE PUSH1 0x3 NOT ADD SLT PUSH2 0x427 JUMPI PUSH1 0x4 CALLDATALOAD PUSH1 0x0 MSTORE PUSH1 0x3 PUSH1 0x20 MSTORE PUSH1 0x20 PUSH1 0x40 PUSH1 0x0 KECCAK256 SLOAD PUSH1 0x40 MLOAD SWAP1 DUP2 MSTORE RETURN JUMPDEST CALLVALUE PUSH2 0x427 JUMPI PUSH1 0x0 CALLDATASIZE PUSH1 0x3 NOT ADD SLT PUSH2 0x427 JUMPI PUSH1 0x20 PUSH1 0xA SLOAD PUSH1 0x40 MLOAD SWAP1 DUP2 MSTORE RETURN JUMPDEST CALLVALUE PUSH2 0x427 JUMPI PUSH1 0x20 CALLDATASIZE PUSH1 0x3 NOT ADD SLT PUSH2 0x427 JUMPI PUSH1 0x20 PUSH2 0x1559 PUSH1 0x4 CALLDATALOAD PUSH2 0x290B JUMP JUMPDEST CALLVALUE PUSH2 0x427 JUMPI PUSH1 0x20 CALLDATASIZE PUSH1 0x3 NOT ADD SLT PUSH2 0x427 JUMPI PUSH1 0x4 CALLDATALOAD PUSH2 0x1C94 PUSH2 0x2B03 JUMP JUMPDEST DUP1 PUSH1 0x0 MSTORE PUSH1 0x9 PUSH1 0x20 MSTORE PUSH1 0x40 PUSH1 0x0 KECCAK256 PUSH1 0x7 DUP2 ADD PUSH1 0xFF DUP2 SLOAD PUSH2 0x1CB8 DUP3 DUP3 PUSH1 0x8 SHR AND PUSH2 0x27BE JUMP JUMPDEST PUSH1 0x10 SHR AND PUSH2 0x1D1F JUMPI PUSH2 0x1D0A PUSH1 0x4 PUSH32 0xB00CD7DB2CF318388D4984A9842FF206B7CF7BC273A58F12701F29755B3CA941 SWAP4 PUSH2 0x1CFF PUSH2 0x1D1A SWAP5 PUSH3 0x10000 PUSH3 0xFF0000 NOT DUP3 SLOAD AND OR SWAP1 SSTORE JUMP JUMPDEST ADD SLOAD PUSH2 0x1786 DUP6 PUSH2 0x290B JUMP JUMPDEST PUSH1 0x40 MLOAD SWAP1 DUP2 MSTORE SWAP1 DUP2 SWAP1 PUSH1 0x20 DUP3 ADD SWAP1 JUMP JUMPDEST SUB SWAP1 LOG2 STOP JUMPDEST PUSH1 0x40 MLOAD PUSH3 0x461BCD PUSH1 0xE5 SHL DUP2 MSTORE PUSH1 0x20 PUSH1 0x4 DUP3 ADD MSTORE PUSH1 0xE PUSH1 0x24 DUP3 ADD MSTORE PUSH14 0x105B1C9958591E48199D5B991959 PUSH1 0x92 SHL PUSH1 0x44 DUP3 ADD MSTORE PUSH1 0x64 SWAP1 REVERT JUMPDEST CALLVALUE PUSH2 0x427 JUMPI PUSH1 0x0 CALLDATASIZE PUSH1 0x3 NOT ADD SLT PUSH2 0x427 JUMPI PUSH1 0x20 PUSH1 0x40 MLOAD PUSH2 0x7530 DUP2 MSTORE RETURN JUMPDEST CALLVALUE PUSH2 0x427 JUMPI PUSH1 0x0 CALLDATASIZE PUSH1 0x3 NOT ADD SLT PUSH2 0x427 JUMPI PUSH1 0x20 PUSH1 0x8 SLOAD PUSH1 0x40 MLOAD SWAP1 DUP2 MSTORE RETURN JUMPDEST CALLVALUE PUSH2 0x427 JUMPI PUSH1 0x0 CALLDATASIZE PUSH1 0x3 NOT ADD SLT PUSH2 0x427 JUMPI PUSH1 0x20 PUSH1 0x40 MLOAD PUSH2 0xFA0 DUP2 MSTORE RETURN JUMPDEST CALLVALUE PUSH2 0x427 JUMPI PUSH1 0x0 CALLDATASIZE PUSH1 0x3 NOT ADD SLT PUSH2 0x427 JUMPI PUSH1 0x20 PUSH1 0x40 MLOAD PUSH32 0x9F2DF0FED2C77648DE5860A4CC508CD0818C85B8B8A1AB4CEEEF8D981C8956A6 DUP2 MSTORE RETURN JUMPDEST CALLVALUE PUSH2 0x427 JUMPI PUSH1 0x40 CALLDATASIZE PUSH1 0x3 NOT ADD SLT PUSH2 0x427 JUMPI PUSH2 0xB34 PUSH1 0x4 CALLDATALOAD PUSH2 0x1E07 PUSH2 0x42C JUMP JUMPDEST SWAP1 DUP1 PUSH1 0x0 MSTORE PUSH1 0x5 PUSH1 0x20 MSTORE PUSH2 0x1E22 PUSH1 0x1 PUSH1 0x40 PUSH1 0x0 KECCAK256 ADD SLOAD PUSH2 0x2B5B JUMP JUMPDEST PUSH2 0x2C16 JUMP JUMPDEST CALLVALUE PUSH2 0x427 JUMPI PUSH1 0x40 CALLDATASIZE PUSH1 0x3 NOT ADD SLT PUSH2 0x427 JUMPI PUSH1 0x4 DUP1 CALLDATALOAD PUSH2 0x1E44 PUSH2 0x42C JUMP JUMPDEST PUSH1 0x0 SWAP3 SWAP1 DUP4 JUMPDEST PUSH1 0xFF DUP6 AND PUSH1 0x3 DUP2 GT PUSH2 0x17B3 JUMPI DUP4 DUP2 LT ISZERO PUSH2 0x1E97 JUMPI PUSH2 0x1E91 SWAP2 PUSH2 0x178C PUSH2 0x12F4 DUP4 PUSH2 0x1786 PUSH2 0x177F PUSH2 0x1E8B SWAP7 PUSH2 0x177A DUP11 PUSH2 0x1977 DUP15 PUSH1 0x0 MSTORE PUSH1 0xF PUSH1 0x20 MSTORE PUSH1 0x40 PUSH1 0x0 KECCAK256 SWAP1 JUMP JUMPDEST SWAP5 PUSH2 0x275A JUMP JUMPDEST SWAP4 PUSH2 0x1E4A JUMP JUMPDEST PUSH1 0x21 DUP5 PUSH4 0x4E487B71 PUSH1 0xE0 SHL PUSH1 0x0 MSTORE MSTORE PUSH1 0x24 PUSH1 0x0 REVERT JUMPDEST CALLVALUE PUSH2 0x427 JUMPI PUSH1 0x0 CALLDATASIZE PUSH1 0x3 NOT ADD SLT PUSH2 0x427 JUMPI PUSH1 0x20 PUSH1 0x40 MLOAD PUSH32 0x65D7A28E3265B37A6474929F336521B332C1681B933F6CB9F3376673440D862A DUP2 MSTORE RETURN JUMPDEST CALLVALUE PUSH2 0x427 JUMPI PUSH1 0x40 CALLDATASIZE PUSH1 0x3 NOT ADD SLT PUSH2 0x427 JUMPI PUSH1 0x20 PUSH1 0xFF PUSH2 0x1A7A PUSH2 0x1F07 PUSH2 0x411 JUMP JUMPDEST PUSH2 0x1F0F PUSH2 0x42C JUMP JUMPDEST PUSH1 0x1 PUSH1 0x1 PUSH1 0xA0 SHL SUB SWAP2 DUP3 AND PUSH1 0x0 SWAP1 DUP2 MSTORE PUSH1 0x1 DUP7 MSTORE PUSH1 0x40 DUP1 DUP3 KECCAK256 SWAP3 SWAP1 SWAP4 AND DUP2 MSTORE PUSH1 0x20 SWAP2 SWAP1 SWAP2 MSTORE KECCAK256 SWAP1 JUMP JUMPDEST PUSH1 0x20 DUP2 ADD SWAP3 SWAP2 PUSH2 0x9B0 SWAP2 SWAP1 PUSH2 0xBF5 JUMP JUMPDEST CALLVALUE PUSH2 0x427 JUMPI PUSH1 0x20 CALLDATASIZE PUSH1 0x3 NOT ADD SLT PUSH2 0x427 JUMPI PUSH1 0x1 PUSH1 0x1 PUSH1 0xA0 SHL SUB PUSH2 0x1F69 PUSH2 0x411 JUMP JUMPDEST AND PUSH1 0x0 MSTORE PUSH1 0xE PUSH1 0x20 MSTORE PUSH1 0x20 PUSH1 0xFF PUSH1 0x40 PUSH1 0x0 KECCAK256 SLOAD AND PUSH2 0x1F8A PUSH1 0x40 MLOAD DUP1 SWAP3 PUSH2 0xBF5 JUMP JUMPDEST RETURN JUMPDEST CALLVALUE PUSH2 0x427 JUMPI PUSH1 0xA0 CALLDATASIZE PUSH1 0x3 NOT ADD SLT PUSH2 0x427 JUMPI PUSH2 0x1FA5 PUSH2 0x411 JUMP JUMPDEST PUSH2 0x1FAD PUSH2 0x42C JUMP JUMPDEST PUSH1 0x84 CALLDATALOAD PUSH8 0xFFFFFFFFFFFFFFFF DUP2 GT PUSH2 0x427 JUMPI PUSH2 0x1FCD SWAP1 CALLDATASIZE SWAP1 PUSH1 0x4 ADD PUSH2 0xA46 JUMP JUMPDEST SWAP1 PUSH1 0x1 PUSH1 0x1 PUSH1 0xA0 SHL SUB DUP4 DUP2 AND SWAP1 CALLER DUP3 EQ ISZERO DUP1 PUSH2 0x206E JUMPI JUMPDEST PUSH2 0x2047 JUMPI DUP3 AND ISZERO PUSH2 0x202E JUMPI ISZERO PUSH2 0x14CE JUMPI PUSH2 0xB34 SWAP3 PUSH2 0x2026 PUSH1 0x64 CALLDATALOAD PUSH1 0x44 CALLDATALOAD SWAP2 PUSH1 0x40 MLOAD SWAP3 PUSH1 0x1 DUP5 MSTORE PUSH1 0x20 DUP5 ADD MSTORE PUSH1 0x40 DUP4 ADD SWAP2 PUSH1 0x1 DUP4 MSTORE PUSH1 0x60 DUP5 ADD MSTORE PUSH1 0x80 DUP4 ADD PUSH1 0x40 MSTORE JUMP JUMPDEST SWAP3 SWAP1 SWAP2 PUSH2 0x3134 JUMP JUMPDEST PUSH1 0x40 MLOAD PUSH4 0x2BFA23E7 PUSH1 0xE1 SHL DUP2 MSTORE PUSH1 0x0 PUSH1 0x4 DUP3 ADD MSTORE PUSH1 0x24 SWAP1 REVERT JUMPDEST PUSH1 0x40 MLOAD PUSH4 0x711BEC91 PUSH1 0xE1 SHL DUP2 MSTORE CALLER PUSH1 0x4 DUP3 ADD MSTORE PUSH1 0x1 PUSH1 0x1 PUSH1 0xA0 SHL SUB DUP7 AND PUSH1 0x24 DUP3 ADD MSTORE PUSH1 0x44 SWAP1 REVERT JUMPDEST POP PUSH1 0x0 DUP3 DUP2 MSTORE PUSH1 0x1 PUSH1 0x20 SWAP1 DUP2 MSTORE PUSH1 0x40 DUP1 DUP4 KECCAK256 CALLER DUP5 MSTORE SWAP1 SWAP2 MSTORE SWAP1 KECCAK256 SLOAD PUSH1 0xFF AND ISZERO PUSH2 0x1FE4 JUMP JUMPDEST CALLVALUE PUSH2 0x427 JUMPI PUSH1 0x60 CALLDATASIZE PUSH1 0x3 NOT ADD SLT PUSH2 0x427 JUMPI PUSH2 0x20AB PUSH2 0x411 JUMP JUMPDEST PUSH1 0x1 PUSH1 0x1 PUSH1 0xA0 SHL SUB DUP2 AND CALLER DUP2 EQ ISZERO SWAP1 DUP2 PUSH2 0x20FF JUMPI JUMPDEST POP PUSH2 0x20D6 JUMPI PUSH2 0xB34 SWAP1 PUSH1 0x44 CALLDATALOAD SWAP1 PUSH1 0x24 CALLDATALOAD SWAP1 PUSH2 0x2CA8 JUMP JUMPDEST PUSH1 0x40 MLOAD PUSH4 0x711BEC91 PUSH1 0xE1 SHL DUP2 MSTORE CALLER PUSH1 0x4 DUP3 ADD MSTORE PUSH1 0x1 PUSH1 0x1 PUSH1 0xA0 SHL SUB SWAP2 SWAP1 SWAP2 AND PUSH1 0x24 DUP3 ADD MSTORE PUSH1 0x44 SWAP1 REVERT JUMPDEST PUSH1 0x0 SWAP1 DUP2 MSTORE PUSH1 0x1 PUSH1 0x20 SWAP1 DUP2 MSTORE PUSH1 0x40 DUP1 DUP4 KECCAK256 CALLER DUP5 MSTORE SWAP1 SWAP2 MSTORE SWAP1 KECCAK256 PUSH1 0xFF SWAP2 POP SLOAD AND ISZERO CODESIZE PUSH2 0x20C0 JUMP JUMPDEST SWAP1 PUSH1 0x1 DUP3 DUP2 SHR SWAP3 AND DUP1 ISZERO PUSH2 0x2155 JUMPI JUMPDEST PUSH1 0x20 DUP4 LT EQ PUSH2 0x213F JUMPI JUMP JUMPDEST PUSH4 0x4E487B71 PUSH1 0xE0 SHL PUSH1 0x0 MSTORE PUSH1 0x22 PUSH1 0x4 MSTORE PUSH1 0x24 PUSH1 0x0 REVERT JUMPDEST SWAP2 PUSH1 0x7F AND SWAP2 PUSH2 0x2134 JUMP JUMPDEST SWAP1 PUSH1 0x40 MLOAD SWAP2 DUP3 PUSH1 0x0 DUP3 SLOAD PUSH2 0x2172 DUP2 PUSH2 0x2125 JUMP JUMPDEST SWAP1 DUP2 DUP5 MSTORE PUSH1 0x20 SWAP5 PUSH1 0x1 SWAP2 PUSH1 0x1 DUP2 AND SWAP1 DUP2 PUSH1 0x0 EQ PUSH2 0x21E0 JUMPI POP PUSH1 0x1 EQ PUSH2 0x21A1 JUMPI JUMPDEST POP POP POP PUSH2 0x9B0 SWAP3 POP SUB DUP4 PUSH2 0x981 JUMP JUMPDEST PUSH1 0x0 SWAP1 DUP2 MSTORE DUP6 DUP2 KECCAK256 SWAP6 SWAP4 POP SWAP2 SWAP1 JUMPDEST DUP2 DUP4 LT PUSH2 0x21C8 JUMPI POP POP PUSH2 0x9B0 SWAP4 POP DUP3 ADD ADD CODESIZE DUP1 DUP1 PUSH2 0x2192 JUMP JUMPDEST DUP6 SLOAD DUP9 DUP5 ADD DUP6 ADD MSTORE SWAP5 DUP6 ADD SWAP5 DUP8 SWAP5 POP SWAP2 DUP4 ADD SWAP2 PUSH2 0x21AF JUMP JUMPDEST SWAP3 POP POP POP PUSH2 0x9B0 SWAP5 SWAP3 POP PUSH1 0xFF NOT AND DUP3 DUP5 ADD MSTORE ISZERO ISZERO PUSH1 0x5 SHL DUP3 ADD ADD CODESIZE DUP1 DUP1 PUSH2 0x2192 JUMP JUMPDEST SWAP9 SWAP6 SWAP2 PUSH2 0x120 SWAP9 SWAP5 SWAP12 SWAP11 SWAP8 SWAP4 PUSH2 0x222F PUSH2 0x223D SWAP3 DUP13 PUSH2 0x225C SWAP10 SWAP6 PUSH1 0x20 PUSH2 0x140 SWAP3 DUP4 SWAP3 DUP2 MSTORE ADD MSTORE DUP14 ADD SWAP1 PUSH2 0x646 JUMP JUMPDEST SWAP1 DUP12 DUP3 SUB PUSH1 0x40 DUP14 ADD MSTORE PUSH2 0x646 JUMP JUMPDEST SWAP11 PUSH1 0x60 DUP11 ADD MSTORE PUSH1 0x80 DUP10 ADD MSTORE PUSH1 0xA0 DUP9 ADD MSTORE PUSH1 0xC0 DUP8 ADD MSTORE PUSH1 0xE0 DUP7 ADD SWAP1 PUSH2 0xBF5 JUMP JUMPDEST ISZERO ISZERO PUSH2 0x100 DUP5 ADD MSTORE ISZERO ISZERO SWAP2 ADD MSTORE JUMP JUMPDEST CALLVALUE PUSH2 0x427 JUMPI PUSH1 0x20 CALLDATASIZE PUSH1 0x3 NOT ADD SLT PUSH2 0x427 JUMPI PUSH1 0x4 CALLDATALOAD PUSH1 0x0 MSTORE PUSH1 0x9 PUSH1 0x20 MSTORE PUSH1 0x40 PUSH1 0x0 KECCAK256 DUP1 SLOAD SWAP1 PUSH2 0x6EC PUSH2 0x229E PUSH1 0x1 DUP4 ADD PUSH2 0x215F JUMP JUMPDEST PUSH2 0x22AA PUSH1 0x2 DUP5 ADD PUSH2 0x215F JUMP JUMPDEST SWAP3 PUSH1 0x3 DUP2 ADD SLOAD SWAP5 PUSH1 0x4 DUP3 ADD SLOAD SWAP2 PUSH1 0x5 DUP2 ADD SLOAD PUSH1 0x7 PUSH1 0x6 DUP4 ADD SLOAD SWAP3 ADD SLOAD SWAP4 PUSH1 0x40 MLOAD SWAP9 DUP10 SWAP9 PUSH1 0xFF DUP8 PUSH1 0x10 SHR AND SWAP8 PUSH1 0xFF DUP1 DUP10 PUSH1 0x8 SHR AND SWAP9 AND SWAP7 DUP12 PUSH2 0x2202 JUMP JUMPDEST CALLVALUE PUSH2 0x427 JUMPI PUSH1 0x0 CALLDATASIZE PUSH1 0x3 NOT ADD SLT PUSH2 0x427 JUMPI PUSH1 0x20 PUSH1 0x40 MLOAD PUSH2 0x30D4 DUP2 MSTORE RETURN JUMPDEST CALLVALUE PUSH2 0x427 JUMPI PUSH1 0x20 CALLDATASIZE PUSH1 0x3 NOT ADD SLT PUSH2 0x427 JUMPI PUSH32 0xFAB5BCBEC79A8B5888E114FD4B378427AA58D9B237D85056F0EE5B3EA57DF8C5 PUSH1 0x20 PUSH1 0x4 CALLDATALOAD PUSH2 0x2342 PUSH2 0x2AAB JUMP JUMPDEST DUP1 PUSH1 0x8 SSTORE PUSH1 0x40 MLOAD SWAP1 DUP2 MSTORE LOG1 STOP JUMPDEST SWAP1 PUSH1 0x4 DUP2 LT ISZERO PUSH2 0x5E6 JUMPI PUSH1 0xFF DUP1 NOT DUP4 SLOAD AND SWAP2 AND OR SWAP1 SSTORE JUMP JUMPDEST PUSH1 0x4 DUP3 LT ISZERO PUSH2 0x5E6 JUMPI MSTORE JUMP JUMPDEST PUSH4 0x4E487B71 PUSH1 0xE0 SHL PUSH1 0x0 MSTORE PUSH1 0x32 PUSH1 0x4 MSTORE PUSH1 0x24 PUSH1 0x0 REVERT JUMPDEST DUP1 MLOAD DUP3 LT ISZERO PUSH2 0x239D JUMPI PUSH1 0x20 SWAP2 PUSH1 0x5 SHL ADD ADD SWAP1 JUMP JUMPDEST PUSH2 0x2373 JUMP JUMPDEST SWAP2 SWAP1 SWAP2 DUP1 MLOAD DUP4 MLOAD DUP1 DUP3 SUB PUSH2 0x243F JUMPI POP POP DUP1 MLOAD SWAP1 PUSH2 0x23D7 PUSH2 0x23C1 DUP4 PUSH2 0x9B2 JUMP JUMPDEST SWAP3 PUSH2 0x23CF PUSH1 0x40 MLOAD SWAP5 DUP6 PUSH2 0x981 JUMP JUMPDEST DUP1 DUP5 MSTORE PUSH2 0x9B2 JUMP JUMPDEST PUSH1 0x20 SWAP2 SWAP1 PUSH1 0x1F NOT ADD CALLDATASIZE DUP5 DUP5 ADD CALLDATACOPY PUSH1 0x0 JUMPDEST DUP2 MLOAD DUP2 LT ISZERO PUSH2 0x2437 JUMPI PUSH1 0x5 DUP2 SWAP1 SHL DUP3 DUP2 ADD DUP5 ADD MLOAD SWAP1 DUP8 ADD DUP5 ADD MLOAD PUSH1 0x0 SWAP1 DUP2 MSTORE PUSH1 0x20 DUP2 DUP2 MSTORE PUSH1 0x40 DUP1 DUP4 KECCAK256 PUSH1 0x1 PUSH1 0x1 PUSH1 0xA0 SHL SUB SWAP1 SWAP5 AND DUP4 MSTORE SWAP3 SWAP1 MSTORE KECCAK256 SLOAD PUSH1 0x1 SWAP2 SWAP1 PUSH2 0x2430 DUP3 DUP8 PUSH2 0x2389 JUMP JUMPDEST MSTORE ADD PUSH2 0x23E7 JUMP JUMPDEST POP SWAP2 SWAP4 POP POP POP JUMP JUMPDEST PUSH1 0x40 MLOAD PUSH4 0x5B059991 PUSH1 0xE0 SHL DUP2 MSTORE PUSH1 0x4 DUP2 ADD SWAP2 SWAP1 SWAP2 MSTORE PUSH1 0x24 DUP2 ADD SWAP2 SWAP1 SWAP2 MSTORE PUSH1 0x44 SWAP1 REVERT JUMPDEST PUSH4 0x4E487B71 PUSH1 0xE0 SHL PUSH1 0x0 MSTORE PUSH1 0x11 PUSH1 0x4 MSTORE PUSH1 0x24 PUSH1 0x0 REVERT JUMPDEST PUSH1 0x0 NOT DUP2 EQ PUSH2 0x2486 JUMPI PUSH1 0x1 ADD SWAP1 JUMP JUMPDEST PUSH2 0x2461 JUMP JUMPDEST SWAP2 SWAP1 DUP3 ADD DUP1 SWAP3 GT PUSH2 0x2486 JUMPI JUMP JUMPDEST SWAP1 PUSH1 0x1F DUP2 GT PUSH2 0x24A6 JUMPI POP POP POP JUMP JUMPDEST PUSH1 0x0 SWAP2 PUSH1 0x0 MSTORE PUSH1 0x20 PUSH1 0x0 KECCAK256 SWAP1 PUSH1 0x20 PUSH1 0x1F DUP6 ADD PUSH1 0x5 SHR DUP4 ADD SWAP5 LT PUSH2 0x24E4 JUMPI JUMPDEST PUSH1 0x1F ADD PUSH1 0x5 SHR ADD SWAP2 JUMPDEST DUP3 DUP2 LT PUSH2 0x24D9 JUMPI POP POP POP JUMP JUMPDEST DUP2 DUP2 SSTORE PUSH1 0x1 ADD PUSH2 0x24CD JUMP JUMPDEST SWAP1 SWAP3 POP DUP3 SWAP1 PUSH2 0x24C4 JUMP JUMPDEST SWAP2 SWAP1 SWAP2 DUP3 MLOAD PUSH8 0xFFFFFFFFFFFFFFFF DUP2 GT PUSH2 0x960 JUMPI PUSH2 0x2516 DUP2 PUSH2 0x2510 DUP5 SLOAD PUSH2 0x2125 JUMP JUMPDEST DUP5 PUSH2 0x2498 JUMP JUMPDEST PUSH1 0x20 DUP1 PUSH1 0x1F DUP4 GT PUSH1 0x1 EQ PUSH2 0x2559 JUMPI POP DUP2 SWAP1 PUSH2 0x254A SWAP4 SWAP5 SWAP6 PUSH1 0x0 SWAP3 PUSH2 0x254E JUMPI JUMPDEST POP POP DUP2 PUSH1 0x1 SHL SWAP2 PUSH1 0x0 NOT SWAP1 PUSH1 0x3 SHL SHR NOT AND OR SWAP1 JUMP JUMPDEST SWAP1 SSTORE JUMP JUMPDEST ADD MLOAD SWAP1 POP CODESIZE DUP1 PUSH2 0x2535 JUMP JUMPDEST SWAP1 PUSH1 0x1F NOT DUP4 AND SWAP6 PUSH2 0x256F DUP6 PUSH1 0x0 MSTORE PUSH1 0x20 PUSH1 0x0 KECCAK256 SWAP1 JUMP JUMPDEST SWAP3 PUSH1 0x0 SWAP1 JUMPDEST DUP9 DUP3 LT PUSH2 0x25AC JUMPI POP POP DUP4 PUSH1 0x1 SWAP6 SWAP7 SWAP8 LT PUSH2 0x2593 JUMPI JUMPDEST POP POP POP DUP2 SHL ADD SWAP1 SSTORE JUMP JUMPDEST ADD MLOAD PUSH1 0x0 NOT PUSH1 0xF8 DUP5 PUSH1 0x3 SHL AND SHR NOT AND SWAP1 SSTORE CODESIZE DUP1 DUP1 PUSH2 0x2589 JUMP JUMPDEST DUP1 PUSH1 0x1 DUP6 SWAP7 DUP3 SWAP5 SWAP7 DUP7 ADD MLOAD DUP2 SSTORE ADD SWAP6 ADD SWAP4 ADD SWAP1 PUSH2 0x2574 JUMP JUMPDEST SWAP1 PUSH2 0x2666 PUSH2 0x120 PUSH1 0x7 PUSH2 0x9B0 SWAP5 DUP5 MLOAD DUP2 SSTORE PUSH2 0x25E6 PUSH1 0x20 DUP7 ADD MLOAD PUSH1 0x1 DUP4 ADD PUSH2 0x24EE JUMP JUMPDEST PUSH2 0x25F7 PUSH1 0x40 DUP7 ADD MLOAD PUSH1 0x2 DUP4 ADD PUSH2 0x24EE JUMP JUMPDEST PUSH1 0x60 DUP6 ADD MLOAD PUSH1 0x3 DUP3 ADD SSTORE PUSH1 0x80 DUP6 ADD MLOAD PUSH1 0x4 DUP3 ADD SSTORE PUSH1 0xA0 DUP6 ADD MLOAD PUSH1 0x5 DUP3 ADD SSTORE PUSH1 0xC0 DUP6 ADD MLOAD PUSH1 0x6 DUP3 ADD SSTORE ADD SWAP3 PUSH2 0x2638 PUSH1 0xE0 DUP3 ADD MLOAD PUSH2 0x2632 DUP2 PUSH2 0x5DC JUMP JUMPDEST DUP6 PUSH2 0x234F JUMP JUMPDEST PUSH2 0x265F PUSH2 0x2649 PUSH2 0x100 DUP4 ADD MLOAD ISZERO ISZERO SWAP1 JUMP JUMPDEST DUP6 SLOAD PUSH2 0xFF00 NOT AND SWAP1 ISZERO ISZERO PUSH1 0x8 SHL PUSH2 0xFF00 AND OR DUP6 SSTORE JUMP JUMPDEST ADD MLOAD ISZERO ISZERO SWAP1 JUMP JUMPDEST DUP2 SLOAD PUSH3 0xFF0000 NOT AND SWAP1 ISZERO ISZERO PUSH1 0x10 SHL PUSH3 0xFF0000 AND OR SWAP1 SSTORE JUMP JUMPDEST SWAP1 PUSH2 0xFA0 SWAP2 DUP3 DUP2 MUL SWAP3 DUP2 DUP5 DIV EQ SWAP1 ISZERO OR ISZERO PUSH2 0x2486 JUMPI JUMP JUMPDEST SWAP1 PUSH2 0xBB8 SWAP2 DUP3 DUP2 MUL SWAP3 DUP2 DUP5 DIV EQ SWAP1 ISZERO OR ISZERO PUSH2 0x2486 JUMPI JUMP JUMPDEST SWAP1 PUSH2 0x7D0 SWAP2 DUP3 DUP2 MUL SWAP3 DUP2 DUP5 DIV EQ SWAP1 ISZERO OR ISZERO PUSH2 0x2486 JUMPI JUMP JUMPDEST SWAP1 PUSH2 0x3E8 SWAP2 DUP3 DUP2 MUL SWAP3 DUP2 DUP5 DIV EQ SWAP1 ISZERO OR ISZERO PUSH2 0x2486 JUMPI JUMP JUMPDEST DUP2 DUP2 MUL SWAP3 SWAP2 DUP2 ISZERO SWAP2 DUP5 DIV EQ OR ISZERO PUSH2 0x2486 JUMPI JUMP JUMPDEST PUSH2 0x2705 PUSH1 0x40 SWAP3 SWAP6 SWAP5 SWAP4 SWAP6 PUSH1 0x60 DUP4 MSTORE PUSH1 0x60 DUP4 ADD SWAP1 PUSH2 0x646 JUMP JUMPDEST SWAP5 PUSH1 0x20 DUP3 ADD MSTORE ADD MSTORE JUMP JUMPDEST PUSH1 0x4 DUP2 LT ISZERO PUSH2 0x5E6 JUMPI DUP1 ISZERO PUSH2 0x2753 JUMPI PUSH2 0x2727 DUP2 PUSH2 0x5DC JUMP JUMPDEST PUSH1 0x1 DUP2 EQ PUSH2 0x274C JUMPI DUP1 PUSH2 0x273B PUSH1 0x2 SWAP3 PUSH2 0x5DC JUMP JUMPDEST EQ PUSH2 0x2746 JUMPI PUSH2 0x1D4C SWAP1 JUMP JUMPDEST PUSH2 0x2710 SWAP1 JUMP JUMPDEST POP PUSH2 0x30D4 SWAP1 JUMP JUMPDEST POP PUSH2 0x3A98 SWAP1 JUMP JUMPDEST PUSH1 0xFF AND PUSH1 0xFF DUP2 EQ PUSH2 0x2486 JUMPI PUSH1 0x1 ADD SWAP1 JUMP JUMPDEST PUSH1 0xFF AND PUSH1 0x4 DUP2 LT ISZERO PUSH2 0x5E6 JUMPI SWAP1 JUMP JUMPDEST ISZERO PUSH2 0x2781 JUMPI JUMP JUMPDEST PUSH1 0x40 MLOAD PUSH3 0x461BCD PUSH1 0xE5 SHL DUP2 MSTORE PUSH1 0x20 PUSH1 0x4 DUP3 ADD MSTORE PUSH1 0x15 PUSH1 0x24 DUP3 ADD MSTORE PUSH21 0x109D5E595C881B9BDD081DDA1A5D195B1A5CDD1959 PUSH1 0x5A SHL PUSH1 0x44 DUP3 ADD MSTORE PUSH1 0x64 SWAP1 REVERT JUMPDEST ISZERO PUSH2 0x27C5 JUMPI JUMP JUMPDEST PUSH1 0x40 MLOAD PUSH3 0x461BCD PUSH1 0xE5 SHL DUP2 MSTORE PUSH1 0x20 PUSH1 0x4 DUP3 ADD MSTORE PUSH1 0x13 PUSH1 0x24 DUP3 ADD MSTORE PUSH19 0x50726F7065727479206E6F7420616374697665 PUSH1 0x68 SHL PUSH1 0x44 DUP3 ADD MSTORE PUSH1 0x64 SWAP1 REVERT JUMPDEST ISZERO PUSH2 0x2807 JUMPI JUMP JUMPDEST PUSH1 0x40 MLOAD PUSH3 0x461BCD PUSH1 0xE5 SHL DUP2 MSTORE PUSH1 0x20 PUSH1 0x4 DUP3 ADD MSTORE PUSH1 0xE PUSH1 0x24 DUP3 ADD MSTORE PUSH14 0x119D5B991A5B99C818DB1BDCD959 PUSH1 0x92 SHL PUSH1 0x44 DUP3 ADD MSTORE PUSH1 0x64 SWAP1 REVERT JUMPDEST ISZERO PUSH2 0x2844 JUMPI JUMP JUMPDEST PUSH1 0x40 MLOAD PUSH3 0x461BCD PUSH1 0xE5 SHL DUP2 MSTORE PUSH1 0x20 PUSH1 0x4 DUP3 ADD MSTORE PUSH1 0x1E PUSH1 0x24 DUP3 ADD MSTORE PUSH32 0x4E6F7420656C696769626C6520666F722063757272656E742070686173650000 PUSH1 0x44 DUP3 ADD MSTORE PUSH1 0x64 SWAP1 REVERT JUMPDEST SWAP2 SWAP1 DUP3 SUB SWAP2 DUP3 GT PUSH2 0x2486 JUMPI JUMP JUMPDEST ISZERO PUSH2 0x289D JUMPI JUMP JUMPDEST PUSH1 0x40 MLOAD PUSH3 0x461BCD PUSH1 0xE5 SHL DUP2 MSTORE PUSH1 0x20 PUSH1 0x4 DUP3 ADD MSTORE PUSH1 0x18 PUSH1 0x24 DUP3 ADD MSTORE PUSH32 0x4578636565647320706861736520616C6C6F636174696F6E0000000000000000 PUSH1 0x44 DUP3 ADD MSTORE PUSH1 0x64 SWAP1 REVERT JUMPDEST PUSH1 0x40 MLOAD SWAP1 PUSH2 0x28EF DUP3 PUSH2 0x965 JUMP JUMPDEST PUSH1 0x0 DUP3 MSTORE JUMP JUMPDEST SWAP1 DUP2 MSTORE PUSH1 0x40 DUP2 ADD SWAP3 SWAP2 PUSH2 0x9B0 SWAP2 PUSH1 0x20 ADD SWAP1 PUSH2 0xBF5 JUMP JUMPDEST PUSH1 0x0 MSTORE PUSH1 0x9 PUSH1 0x20 MSTORE PUSH1 0xFF PUSH1 0x7 PUSH1 0x40 PUSH1 0x0 KECCAK256 ADD SLOAD PUSH2 0x292C DUP3 DUP3 PUSH1 0x8 SHR AND PUSH2 0x27BE JUMP JUMPDEST AND PUSH2 0x2936 DUP2 PUSH2 0x5DC JUMP JUMPDEST DUP1 PUSH2 0x2950 JUMPI POP PUSH2 0x2710 PUSH2 0x294C DUP2 JUMPDEST PUSH1 0x8 SLOAD PUSH2 0x26DA JUMP JUMPDEST DIV SWAP1 JUMP JUMPDEST PUSH2 0x2959 DUP2 PUSH2 0x5DC JUMP JUMPDEST PUSH1 0x1 DUP2 SUB PUSH2 0x2970 JUMPI POP PUSH2 0x2710 PUSH2 0x294C PUSH2 0x3A98 PUSH2 0x2944 JUMP JUMPDEST DUP1 PUSH2 0x297C PUSH1 0x2 SWAP3 PUSH2 0x5DC JUMP JUMPDEST SUB PUSH2 0x298F JUMPI PUSH2 0x2710 PUSH2 0x294C PUSH2 0x57E4 PUSH2 0x2944 JUMP JUMPDEST PUSH2 0x2710 PUSH2 0x294C PUSH2 0x7530 PUSH2 0x2944 JUMP JUMPDEST CALLER PUSH1 0x0 SWAP1 DUP2 MSTORE PUSH32 0x294BB43E882F8724B7AE88344D047A41612B98EE139A78F923B3689F3CC274B1 PUSH1 0x20 MSTORE PUSH1 0x40 SWAP1 KECCAK256 PUSH32 0x28F5A99355973CC89255B8C4AC88405F27C78DED7608B040EE77A8BDF44D15E2 SWAP1 PUSH1 0xFF SWAP1 JUMPDEST SLOAD AND ISZERO PUSH2 0x1643 JUMPI POP JUMP JUMPDEST CALLER PUSH1 0x0 SWAP1 DUP2 MSTORE PUSH32 0x847F481F687BEFB06ED3511F1A8DCEF57E83007C0147AE5047583D7056170937 PUSH1 0x20 MSTORE PUSH1 0x40 SWAP1 KECCAK256 PUSH32 0x3C11D16CBAFFD01DF69CE1C404F6340EE057498F5F00246190EA54220576A848 SWAP1 PUSH1 0xFF SWAP1 PUSH2 0x29F1 JUMP JUMPDEST CALLER PUSH1 0x0 SWAP1 DUP2 MSTORE PUSH32 0x99F2891DB7A8DB76249871A02B43B68C0BB8F22EF8A3BC1034AE9375EF6B7C3C PUSH1 0x20 MSTORE PUSH1 0x40 SWAP1 KECCAK256 PUSH32 0x65D7A28E3265B37A6474929F336521B332C1681B933F6CB9F3376673440D862A SWAP1 PUSH1 0xFF SWAP1 PUSH2 0x29F1 JUMP JUMPDEST CALLER PUSH1 0x0 SWAP1 DUP2 MSTORE PUSH32 0x5B8CCBB9D4D8FB16EA74CE3C29A41F1B461FBDAFF4714A0D9A8EB05499746BC PUSH1 0x20 MSTORE PUSH1 0x40 SWAP1 KECCAK256 SLOAD PUSH1 0xFF AND ISZERO PUSH2 0x2AE4 JUMPI JUMP JUMPDEST PUSH1 0x40 MLOAD PUSH4 0xE2517D3F PUSH1 0xE0 SHL DUP2 MSTORE CALLER PUSH1 0x4 DUP3 ADD MSTORE PUSH1 0x0 PUSH1 0x24 DUP3 ADD MSTORE PUSH1 0x44 SWAP1 REVERT JUMPDEST CALLER PUSH1 0x0 SWAP1 DUP2 MSTORE PUSH32 0x15A28D26FA1BF736CF7EDC9922607171CCB09C3C73B808E7772A3013E068A522 PUSH1 0x20 MSTORE PUSH1 0x40 SWAP1 KECCAK256 PUSH32 0x9F2DF0FED2C77648DE5860A4CC508CD0818C85B8B8A1AB4CEEEF8D981C8956A6 SWAP1 PUSH1 0xFF SWAP1 PUSH2 0x29F1 JUMP JUMPDEST PUSH1 0x0 DUP2 DUP2 MSTORE PUSH1 0x5 PUSH1 0x20 SWAP1 DUP2 MSTORE PUSH1 0x40 DUP1 DUP4 KECCAK256 CALLER DUP5 MSTORE SWAP1 SWAP2 MSTORE SWAP1 KECCAK256 PUSH1 0xFF SWAP1 PUSH2 0x29F1 JUMP JUMPDEST PUSH1 0x0 SWAP1 DUP1 DUP3 MSTORE PUSH1 0x5 PUSH1 0x20 MSTORE PUSH1 0xFF PUSH2 0x2BA8 DUP5 PUSH1 0x40 DUP6 KECCAK256 SWAP1 PUSH1 0x1 DUP1 PUSH1 0xA0 SHL SUB AND PUSH1 0x0 MSTORE PUSH1 0x20 MSTORE PUSH1 0x40 PUSH1 0x0 KECCAK256 SWAP1 JUMP JUMPDEST SLOAD AND PUSH2 0x2C10 JUMPI DUP1 DUP3 MSTORE PUSH1 0x5 PUSH1 0x20 SWAP1 DUP2 MSTORE PUSH1 0x40 DUP1 DUP5 KECCAK256 PUSH1 0x1 PUSH1 0x1 PUSH1 0xA0 SHL SUB DUP7 AND PUSH1 0x0 SWAP1 DUP2 MSTORE SWAP3 MSTORE SWAP1 KECCAK256 DUP1 SLOAD PUSH1 0xFF NOT AND PUSH1 0x1 OR SWAP1 SSTORE CALLER SWAP3 PUSH1 0x1 PUSH1 0x1 PUSH1 0xA0 SHL SUB AND SWAP2 PUSH32 0x2F8788117E7EFF1D82E926EC794901D17C78024A50270940304540A733656F0D SWAP1 DUP1 LOG4 PUSH1 0x1 SWAP1 JUMP JUMPDEST POP SWAP1 POP SWAP1 JUMP JUMPDEST PUSH1 0x0 SWAP1 DUP1 DUP3 MSTORE PUSH1 0x5 PUSH1 0x20 MSTORE PUSH1 0xFF PUSH2 0x2C42 DUP5 PUSH1 0x40 DUP6 KECCAK256 SWAP1 PUSH1 0x1 DUP1 PUSH1 0xA0 SHL SUB AND PUSH1 0x0 MSTORE PUSH1 0x20 MSTORE PUSH1 0x40 PUSH1 0x0 KECCAK256 SWAP1 JUMP JUMPDEST SLOAD AND ISZERO PUSH2 0x2C10 JUMPI DUP1 DUP3 MSTORE PUSH1 0x5 PUSH1 0x20 SWAP1 DUP2 MSTORE PUSH1 0x40 DUP1 DUP5 KECCAK256 PUSH1 0x1 PUSH1 0x1 PUSH1 0xA0 SHL SUB DUP7 AND PUSH1 0x0 SWAP1 DUP2 MSTORE SWAP3 MSTORE SWAP1 KECCAK256 DUP1 SLOAD PUSH1 0xFF NOT AND SWAP1 SSTORE CALLER SWAP3 PUSH1 0x1 PUSH1 0x1 PUSH1 0xA0 SHL SUB AND SWAP2 PUSH32 0xF6391F5C32D9C69D2A47EA670B442974B53935D1EDC7FD64EB21E047A839171B SWAP1 DUP1 LOG4 PUSH1 0x1 SWAP1 JUMP JUMPDEST SWAP1 PUSH1 0x1 PUSH1 0x1 PUSH1 0xA0 SHL SUB DUP3 AND ISZERO PUSH2 0x14CE JUMPI PUSH2 0x9B0 SWAP3 PUSH2 0x2CE3 PUSH1 0x40 MLOAD SWAP3 PUSH1 0x1 DUP5 MSTORE PUSH1 0x20 DUP5 ADD MSTORE PUSH1 0x40 DUP4 ADD SWAP2 PUSH1 0x1 DUP4 MSTORE PUSH1 0x60 DUP5 ADD MSTORE PUSH1 0x80 DUP4 ADD PUSH1 0x40 MSTORE JUMP JUMPDEST SWAP2 PUSH1 0x0 PUSH1 0x40 MLOAD PUSH2 0x14C8 DUP2 PUSH2 0x965 JUMP JUMPDEST PUSH1 0xFF PUSH1 0x1 SWAP2 AND ADD SWAP1 PUSH1 0xFF DUP3 GT PUSH2 0x2486 JUMPI JUMP JUMPDEST DUP1 PUSH1 0x0 MSTORE PUSH1 0x9 PUSH1 0x20 MSTORE PUSH1 0x7 PUSH1 0x40 PUSH1 0x0 KECCAK256 ADD PUSH1 0xFF DUP2 SLOAD PUSH2 0x2D27 DUP3 DUP3 PUSH1 0x8 SHR AND PUSH2 0x27BE JUMP JUMPDEST AND SWAP1 PUSH1 0x4 DUP3 LT ISZERO PUSH2 0x5E6 JUMPI PUSH1 0x3 DUP3 LT ISZERO PUSH2 0x2D97 JUMPI PUSH2 0x2D86 PUSH2 0x2D92 SWAP2 PUSH2 0x180C PUSH2 0x2D80 PUSH2 0x2D7B DUP7 PUSH2 0x2D76 PUSH32 0xA92C850BB09D5AFA4A6230F4866FAD10264C6FEA20047156B39E3E24C5763AD4 SWAP9 PUSH2 0x5DC JUMP JUMPDEST PUSH2 0x2CF2 JUMP JUMPDEST PUSH2 0x276B JUMP JUMPDEST DUP3 PUSH2 0x234F JUMP JUMPDEST PUSH1 0x40 MLOAD SWAP2 DUP3 SWAP2 DUP3 PUSH2 0x1F38 JUMP JUMPDEST SUB SWAP1 LOG2 JUMP JUMPDEST PUSH1 0x40 MLOAD PUSH3 0x461BCD PUSH1 0xE5 SHL DUP2 MSTORE PUSH1 0x20 PUSH1 0x4 DUP3 ADD MSTORE PUSH1 0x16 PUSH1 0x24 DUP3 ADD MSTORE PUSH22 0x416C72656164792061742066696E616C207068617365 PUSH1 0x50 SHL PUSH1 0x44 DUP3 ADD MSTORE PUSH1 0x64 SWAP1 REVERT JUMPDEST PUSH1 0xFF PUSH1 0x6 SLOAD AND PUSH2 0x2DE1 JUMPI JUMP JUMPDEST PUSH1 0x40 MLOAD PUSH4 0xD93C0665 PUSH1 0xE0 SHL DUP2 MSTORE PUSH1 0x4 SWAP1 REVERT JUMPDEST SWAP4 SWAP2 PUSH1 0x1 PUSH1 0x1 PUSH1 0xA0 SHL SUB DUP6 AND ISZERO PUSH2 0x202E JUMPI PUSH2 0x2E2B PUSH1 0x40 MLOAD SWAP3 PUSH1 0x1 DUP5 MSTORE PUSH1 0x20 DUP5 ADD MSTORE PUSH1 0x40 DUP4 ADD SWAP2 PUSH1 0x1 DUP4 MSTORE PUSH1 0x60 DUP5 ADD MSTORE PUSH1 0x80 DUP4 ADD PUSH1 0x40 MSTORE JUMP JUMPDEST SWAP1 SWAP2 PUSH2 0x2E35 PUSH2 0x2DD5 JUMP JUMPDEST PUSH2 0x2E40 DUP3 DUP5 DUP8 PUSH2 0x39C5 JUMP JUMPDEST PUSH1 0x0 SWAP5 DUP6 JUMPDEST DUP5 MLOAD DUP8 LT ISZERO PUSH2 0x2E98 JUMPI PUSH2 0x2E90 PUSH1 0x1 SWAP2 PUSH2 0x2E5E DUP10 DUP8 PUSH2 0x2389 JUMP JUMPDEST MLOAD SWAP1 PUSH2 0x2E7E PUSH2 0x2E6D DUP12 DUP11 PUSH2 0x2389 JUMP JUMPDEST MLOAD PUSH1 0x0 MSTORE PUSH1 0x3 PUSH1 0x20 MSTORE PUSH1 0x40 PUSH1 0x0 KECCAK256 SWAP1 JUMP JUMPDEST PUSH2 0x2E89 DUP4 DUP3 SLOAD PUSH2 0x248B JUMP JUMPDEST SWAP1 SSTORE PUSH2 0x248B JUMP JUMPDEST SWAP7 ADD SWAP6 PUSH2 0x2E45 JUMP JUMPDEST PUSH2 0x2EB2 SWAP2 SWAP6 SWAP5 SWAP3 SWAP7 POP PUSH2 0x2EAD SWAP1 PUSH1 0x4 SLOAD PUSH2 0x248B JUMP JUMPDEST PUSH1 0x4 SSTORE JUMP JUMPDEST DUP1 MLOAD PUSH1 0x1 SUB PUSH2 0x2ED0 JUMPI SWAP1 PUSH1 0x20 DUP1 PUSH2 0x9B0 SWAP6 SWAP4 ADD MLOAD SWAP2 ADD MLOAD SWAP2 CALLER PUSH2 0x37CF JUMP JUMPDEST PUSH2 0x9B0 SWAP4 CALLER PUSH2 0x35D5 JUMP JUMPDEST PUSH2 0x2EE2 PUSH2 0x2DD5 JUMP JUMPDEST PUSH1 0x1 PUSH1 0x1 PUSH1 0xA0 SHL SUB DUP2 AND DUP1 ISZERO ISZERO DUP1 DUP1 PUSH2 0x312C JUMPI JUMPDEST PUSH2 0x3099 JUMPI JUMPDEST PUSH2 0x2F0C JUMPI JUMPDEST POP SWAP1 PUSH2 0x9B0 SWAP3 SWAP2 PUSH2 0x383B JUMP JUMPDEST PUSH1 0x0 SWAP5 SWAP3 SWAP4 SWAP5 SWAP3 JUMPDEST DUP5 MLOAD DUP5 LT ISZERO PUSH2 0x308B JUMPI PUSH2 0x2F27 DUP5 DUP7 PUSH2 0x2389 JUMP JUMPDEST MLOAD SWAP5 PUSH2 0x2F33 DUP6 DUP9 PUSH2 0x2389 JUMP JUMPDEST MLOAD SWAP7 PUSH1 0x0 JUMPDEST PUSH1 0xFF DUP2 AND PUSH1 0x3 DUP2 GT ISZERO DUP1 PUSH2 0x3082 JUMPI JUMPDEST ISZERO PUSH2 0x3063 JUMPI PUSH2 0x2F55 DUP2 PUSH2 0x5DC JUMP JUMPDEST PUSH2 0x2F71 DUP2 PUSH2 0x177A DUP10 PUSH2 0x1977 DUP14 PUSH1 0x0 MSTORE PUSH1 0xF PUSH1 0x20 MSTORE PUSH1 0x40 PUSH1 0x0 KECCAK256 SWAP1 JUMP JUMPDEST SLOAD DUP1 PUSH2 0x2F88 JUMPI JUMPDEST POP POP PUSH2 0x2F83 SWAP1 PUSH2 0x275A JUMP JUMPDEST PUSH2 0x2F38 JUMP JUMPDEST PUSH2 0x2F83 SWAP3 SWAP11 DUP8 DUP12 PUSH32 0x79FA03C4F76E383F2EB3D51F38E9DAA7AF8429E8573F8C1BB7D6103E878E3564 PUSH2 0x3046 PUSH2 0x304E SWAP7 DUP14 SWAP7 DUP2 DUP8 DUP3 GT PUSH1 0x0 EQ PUSH2 0x3056 JUMPI PUSH2 0x2FE3 SWAP2 POP PUSH2 0x177A DUP9 SWAP10 JUMPDEST PUSH2 0x1977 DUP9 PUSH1 0x0 MSTORE PUSH1 0xF PUSH1 0x20 MSTORE PUSH1 0x40 PUSH1 0x0 KECCAK256 SWAP1 JUMP JUMPDEST PUSH2 0x2FEE DUP9 DUP3 SLOAD PUSH2 0x2889 JUMP JUMPDEST SWAP1 SSTORE PUSH1 0x4 PUSH2 0x3006 DUP6 PUSH1 0x0 MSTORE PUSH1 0x9 PUSH1 0x20 MSTORE PUSH1 0x40 PUSH1 0x0 KECCAK256 SWAP1 JUMP JUMPDEST ADD PUSH2 0x3012 DUP9 DUP3 SLOAD PUSH2 0x2889 JUMP JUMPDEST SWAP1 SSTORE PUSH2 0x302C DUP2 PUSH2 0x177A DUP7 PUSH1 0x0 MSTORE PUSH1 0xC PUSH1 0x20 MSTORE PUSH1 0x40 PUSH1 0x0 KECCAK256 SWAP1 JUMP JUMPDEST PUSH2 0x3037 DUP9 DUP3 SLOAD PUSH2 0x2889 JUMP JUMPDEST SWAP1 SSTORE PUSH1 0x40 MLOAD SWAP2 DUP3 SWAP2 DUP9 DUP4 PUSH2 0x28F5 JUMP JUMPDEST SUB SWAP1 LOG3 PUSH2 0x2889 JUMP JUMPDEST SWAP9 SWAP1 CODESIZE PUSH2 0x2F78 JUMP JUMPDEST PUSH2 0x177A PUSH2 0x2FE3 SWAP3 SWAP10 PUSH2 0x2FCF JUMP JUMPDEST POP POP SWAP6 POP SWAP2 SWAP6 SWAP4 PUSH2 0x3077 PUSH1 0x1 SWAP3 SWAP6 ISZERO PUSH2 0x34BB JUMP JUMPDEST ADD SWAP3 SWAP5 SWAP1 SWAP4 SWAP5 PUSH2 0x2F14 JUMP JUMPDEST POP DUP10 ISZERO ISZERO PUSH2 0x2F47 JUMP JUMPDEST SWAP5 SWAP4 SWAP3 POP PUSH2 0x9B0 SWAP1 POP PUSH2 0x2F00 JUMP JUMPDEST SWAP4 SWAP2 SWAP1 PUSH1 0x0 JUMPDEST DUP5 MLOAD DUP2 LT ISZERO PUSH2 0x30E7 JUMPI DUP1 PUSH2 0x30E1 PUSH2 0x30DC PUSH1 0x7 PUSH2 0x30D1 PUSH2 0x30C0 PUSH1 0x1 SWAP7 DUP12 PUSH2 0x2389 JUMP JUMPDEST MLOAD PUSH1 0x0 MSTORE PUSH1 0x9 PUSH1 0x20 MSTORE PUSH1 0x40 PUSH1 0x0 KECCAK256 SWAP1 JUMP JUMPDEST ADD SLOAD PUSH1 0x10 SHR PUSH1 0xFF AND SWAP1 JUMP JUMPDEST PUSH2 0x3423 JUMP JUMPDEST ADD PUSH2 0x309F JUMP JUMPDEST POP PUSH1 0x0 DUP1 MSTORE PUSH1 0xD PUSH1 0x20 MSTORE SWAP2 SWAP4 SWAP1 SWAP2 SWAP1 PUSH2 0x3127 PUSH2 0x3122 PUSH32 0x81955A0A11E65EAC625C29E8882660BAE4E165A75D72780094ACAE8ECE9A29EE PUSH2 0x180C JUMP JUMPDEST PUSH2 0x346F JUMP JUMPDEST PUSH2 0x2EFB JUMP JUMPDEST POP PUSH1 0x0 PUSH2 0x2EF6 JUMP JUMPDEST SWAP2 SWAP4 SWAP3 SWAP1 PUSH2 0x3140 PUSH2 0x2DD5 JUMP JUMPDEST PUSH1 0x1 PUSH1 0x1 PUSH1 0xA0 SHL SUB DUP4 DUP2 AND DUP1 ISZERO ISZERO DUP1 DUP1 PUSH2 0x339C JUMPI JUMPDEST PUSH2 0x333C JUMPI JUMPDEST PUSH2 0x31B1 JUMPI JUMPDEST POP PUSH2 0x316C DUP4 DUP8 DUP5 DUP8 PUSH2 0x38EC JUMP JUMPDEST DUP2 AND PUSH2 0x317A JUMPI JUMPDEST POP POP POP POP POP JUMP JUMPDEST DUP5 MLOAD PUSH1 0x1 SUB PUSH2 0x31A0 JUMPI PUSH1 0x20 DUP1 PUSH2 0x3196 SWAP7 ADD MLOAD SWAP3 ADD MLOAD SWAP3 CALLER PUSH2 0x3804 JUMP JUMPDEST CODESIZE DUP1 DUP1 DUP1 DUP1 PUSH2 0x3173 JUMP JUMPDEST PUSH2 0x31AC SWAP5 SWAP2 SWAP3 CALLER PUSH2 0x36D0 JUMP JUMPDEST PUSH2 0x3196 JUMP JUMPDEST SWAP2 SWAP7 SWAP6 PUSH1 0x0 SWAP6 SWAP2 SWAP6 SWAP7 JUMPDEST DUP2 MLOAD DUP9 LT ISZERO PUSH2 0x3330 JUMPI PUSH2 0x31CE DUP9 DUP4 PUSH2 0x2389 JUMP JUMPDEST MLOAD SWAP3 PUSH2 0x31DA DUP10 DUP8 PUSH2 0x2389 JUMP JUMPDEST MLOAD SWAP6 PUSH1 0x0 JUMPDEST PUSH1 0xFF DUP2 AND DUP13 PUSH1 0x3 DUP3 GT ISZERO DUP1 PUSH2 0x3327 JUMPI JUMPDEST ISZERO PUSH2 0x3307 JUMPI SWAP1 DUP11 SWAP2 DUP13 PUSH2 0x321D DUP4 PUSH2 0x177A DUP7 PUSH2 0x1977 DUP15 PUSH2 0x320D DUP6 PUSH2 0x5DC JUMP JUMPDEST PUSH1 0x0 MSTORE PUSH1 0xF PUSH1 0x20 MSTORE PUSH1 0x40 PUSH1 0x0 KECCAK256 SWAP1 JUMP JUMPDEST SLOAD DUP1 PUSH2 0x3237 JUMPI JUMPDEST POP POP POP POP POP PUSH2 0x3232 SWAP1 PUSH2 0x275A JUMP JUMPDEST PUSH2 0x31DF JUMP JUMPDEST PUSH2 0x32BE SWAP5 SWAP4 PUSH2 0x3232 SWAP7 SWAP14 SWAP4 DUP14 SWAP4 DUP14 SWAP4 DUP4 DUP8 DUP3 GT PUSH1 0x0 EQ PUSH2 0x32FA JUMPI PUSH2 0x326F SWAP2 POP PUSH2 0x177A DUP9 SWAP10 PUSH2 0x1977 DUP9 PUSH1 0x0 MSTORE PUSH1 0xF PUSH1 0x20 MSTORE PUSH1 0x40 PUSH1 0x0 KECCAK256 SWAP1 JUMP JUMPDEST PUSH2 0x327A DUP9 DUP3 SLOAD PUSH2 0x2889 JUMP JUMPDEST SWAP1 SSTORE DUP2 AND PUSH2 0x32CB JUMPI POP PUSH2 0x3046 PUSH32 0x79FA03C4F76E383F2EB3D51F38E9DAA7AF8429E8573F8C1BB7D6103E878E3564 SWAP2 PUSH1 0x4 PUSH2 0x3006 DUP6 PUSH1 0x0 MSTORE PUSH1 0x9 PUSH1 0x20 MSTORE PUSH1 0x40 PUSH1 0x0 KECCAK256 SWAP1 JUMP JUMPDEST SWAP8 SWAP1 POP DUP9 CODESIZE DUP14 DUP13 DUP3 PUSH2 0x3224 JUMP JUMPDEST PUSH2 0x32E8 SWAP4 POP PUSH2 0x1977 PUSH2 0x177A SWAP3 SWAP4 PUSH1 0x0 MSTORE PUSH1 0xF PUSH1 0x20 MSTORE PUSH1 0x40 PUSH1 0x0 KECCAK256 SWAP1 JUMP JUMPDEST PUSH2 0x32F3 DUP4 DUP3 SLOAD PUSH2 0x248B JUMP JUMPDEST SWAP1 SSTORE PUSH2 0x2889 JUMP JUMPDEST PUSH2 0x177A PUSH2 0x326F SWAP3 SWAP10 PUSH2 0x2FCF JUMP JUMPDEST POP POP POP SWAP6 PUSH1 0x1 SWAP3 SWAP4 SWAP5 POP PUSH2 0x331E SWAP1 SWAP10 SWAP2 SWAP10 ISZERO PUSH2 0x34BB JUMP JUMPDEST ADD SWAP7 SWAP2 SWAP1 PUSH2 0x31BB JUMP JUMPDEST POP DUP10 ISZERO ISZERO PUSH2 0x31EF JUMP JUMPDEST SWAP8 SWAP3 POP SWAP6 POP SWAP4 CODESIZE PUSH2 0x315F JUMP JUMPDEST SWAP8 SWAP6 SWAP5 SWAP4 SWAP3 SWAP2 SWAP1 PUSH1 0x0 JUMPDEST DUP9 MLOAD DUP2 LT ISZERO PUSH2 0x336D JUMPI DUP1 PUSH2 0x3367 PUSH2 0x30DC PUSH1 0x7 PUSH2 0x30D1 PUSH2 0x30C0 PUSH1 0x1 SWAP7 DUP16 PUSH2 0x2389 JUMP JUMPDEST ADD PUSH2 0x3346 JUMP JUMPDEST POP SWAP1 SWAP2 SWAP3 SWAP4 SWAP5 SWAP6 SWAP8 PUSH2 0x3397 PUSH2 0x3122 PUSH2 0x180C DUP7 PUSH1 0x1 DUP1 PUSH1 0xA0 SHL SUB AND PUSH1 0x0 MSTORE PUSH1 0xD PUSH1 0x20 MSTORE PUSH1 0x40 PUSH1 0x0 KECCAK256 SWAP1 JUMP JUMPDEST PUSH2 0x315A JUMP JUMPDEST POP DUP3 DUP5 AND ISZERO ISZERO PUSH2 0x3155 JUMP JUMPDEST DUP1 PUSH1 0x0 MSTORE PUSH1 0x11 PUSH1 0x20 MSTORE PUSH1 0x40 PUSH1 0x0 KECCAK256 SLOAD ISZERO PUSH1 0x0 EQ PUSH2 0x341D JUMPI PUSH1 0x10 SLOAD PUSH9 0x10000000000000000 DUP2 LT ISZERO PUSH2 0x960 JUMPI PUSH1 0x1 DUP2 ADD DUP1 PUSH1 0x10 SSTORE DUP2 LT ISZERO PUSH2 0x239D JUMPI DUP2 SWAP1 PUSH32 0x1B6847DC741A1B0CD08D278845F9D819D87B734759AFB55FE2DE5CB82A9AE672 ADD SSTORE PUSH1 0x10 SLOAD SWAP1 PUSH1 0x0 MSTORE PUSH1 0x11 PUSH1 0x20 MSTORE PUSH1 0x40 PUSH1 0x0 KECCAK256 SSTORE PUSH1 0x1 SWAP1 JUMP JUMPDEST POP PUSH1 0x0 SWAP1 JUMP JUMPDEST ISZERO PUSH2 0x342A JUMPI JUMP JUMPDEST PUSH1 0x40 MLOAD PUSH3 0x461BCD PUSH1 0xE5 SHL DUP2 MSTORE PUSH1 0x20 PUSH1 0x4 DUP3 ADD MSTORE PUSH1 0x1F PUSH1 0x24 DUP3 ADD MSTORE PUSH32 0x5472616E7366657273206C6F636B656420647572696E672066756E64696E6700 PUSH1 0x44 DUP3 ADD MSTORE PUSH1 0x64 SWAP1 REVERT JUMPDEST ISZERO PUSH2 0x3476 JUMPI JUMP JUMPDEST PUSH1 0x40 MLOAD PUSH3 0x461BCD PUSH1 0xE5 SHL DUP2 MSTORE PUSH1 0x20 PUSH1 0x4 DUP3 ADD MSTORE PUSH1 0x19 PUSH1 0x24 DUP3 ADD MSTORE PUSH32 0x526563697069656E74206E6F742077686974656C697374656400000000000000 PUSH1 0x44 DUP3 ADD MSTORE PUSH1 0x64 SWAP1 REVERT JUMPDEST ISZERO PUSH2 0x34C2 JUMPI JUMP JUMPDEST PUSH1 0x40 MLOAD PUSH3 0x461BCD PUSH1 0xE5 SHL DUP2 MSTORE PUSH1 0x20 PUSH1 0x4 DUP3 ADD MSTORE PUSH1 0x23 PUSH1 0x24 DUP3 ADD MSTORE PUSH32 0x496E73756666696369656E742070686173652D747261636B656420686F6C6469 PUSH1 0x44 DUP3 ADD MSTORE PUSH3 0x6E6773 PUSH1 0xE8 SHL PUSH1 0x64 DUP3 ADD MSTORE PUSH1 0x84 SWAP1 REVERT JUMPDEST SWAP1 DUP2 PUSH1 0x20 SWAP2 SUB SLT PUSH2 0x427 JUMPI MLOAD PUSH2 0xCA3 DUP2 PUSH2 0x4A3 JUMP JUMPDEST SWAP3 PUSH2 0x3557 PUSH2 0xCA3 SWAP6 SWAP4 PUSH2 0x3565 SWAP4 PUSH1 0x1 DUP1 PUSH1 0xA0 SHL SUB AND DUP7 MSTORE PUSH1 0x0 PUSH1 0x20 DUP8 ADD MSTORE PUSH1 0xA0 PUSH1 0x40 DUP8 ADD MSTORE PUSH1 0xA0 DUP7 ADD SWAP1 PUSH2 0xFC5 JUMP JUMPDEST SWAP1 DUP5 DUP3 SUB PUSH1 0x60 DUP7 ADD MSTORE PUSH2 0xFC5 JUMP JUMPDEST SWAP2 PUSH1 0x80 DUP2 DUP5 SUB SWAP2 ADD MSTORE PUSH2 0x646 JUMP JUMPDEST SWAP4 SWAP1 PUSH2 0xCA3 SWAP6 SWAP4 PUSH2 0x3557 SWAP2 PUSH2 0x3565 SWAP5 PUSH1 0x1 DUP1 PUSH1 0xA0 SHL SUB DUP1 SWAP3 AND DUP9 MSTORE AND PUSH1 0x20 DUP8 ADD MSTORE PUSH1 0xA0 PUSH1 0x40 DUP8 ADD MSTORE PUSH1 0xA0 DUP7 ADD SWAP1 PUSH2 0xFC5 JUMP JUMPDEST RETURNDATASIZE ISZERO PUSH2 0x35D0 JUMPI RETURNDATASIZE SWAP1 PUSH2 0x35B6 DUP3 PUSH2 0xA2A JUMP JUMPDEST SWAP2 PUSH2 0x35C4 PUSH1 0x40 MLOAD SWAP4 DUP5 PUSH2 0x981 JUMP JUMPDEST DUP3 MSTORE RETURNDATASIZE PUSH1 0x0 PUSH1 0x20 DUP5 ADD RETURNDATACOPY JUMP JUMPDEST PUSH1 0x60 SWAP1 JUMP JUMPDEST SWAP3 SWAP4 SWAP2 SWAP1 SWAP4 DUP5 EXTCODESIZE PUSH2 0x35E7 JUMPI POP POP POP POP POP JUMP JUMPDEST PUSH1 0x20 SWAP2 PUSH2 0x360A PUSH1 0x40 MLOAD SWAP5 DUP6 SWAP4 DUP5 SWAP4 PUSH4 0xBC197C81 PUSH1 0xE0 SHL SWAP9 DUP10 DUP7 MSTORE PUSH1 0x4 DUP7 ADD PUSH2 0x3528 JUMP JUMPDEST SUB DUP2 PUSH1 0x0 PUSH1 0x1 PUSH1 0x1 PUSH1 0xA0 SHL SUB DUP9 AND GAS CALL PUSH1 0x0 SWAP2 DUP2 PUSH2 0x369F JUMPI JUMPDEST POP PUSH2 0x3662 JUMPI DUP3 PUSH2 0x3631 PUSH2 0x35A5 JUMP JUMPDEST DUP1 MLOAD SWAP2 SWAP1 DUP3 PUSH2 0x365B JUMPI PUSH1 0x40 MLOAD PUSH4 0x2BFA23E7 PUSH1 0xE1 SHL DUP2 MSTORE PUSH1 0x1 PUSH1 0x1 PUSH1 0xA0 SHL SUB DUP4 AND PUSH1 0x4 DUP3 ADD MSTORE PUSH1 0x24 SWAP1 REVERT JUMPDEST SWAP1 POP PUSH1 0x20 ADD REVERT JUMPDEST PUSH1 0x1 PUSH1 0x1 PUSH1 0xE0 SHL SUB NOT AND SUB PUSH2 0x367C JUMPI POP CODESIZE DUP1 DUP1 DUP1 DUP1 PUSH2 0x3173 JUMP JUMPDEST PUSH1 0x40 MLOAD PUSH4 0x2BFA23E7 PUSH1 0xE1 SHL DUP2 MSTORE PUSH1 0x1 PUSH1 0x1 PUSH1 0xA0 SHL SUB SWAP2 SWAP1 SWAP2 AND PUSH1 0x4 DUP3 ADD MSTORE PUSH1 0x24 SWAP1 REVERT JUMPDEST PUSH2 0x36C2 SWAP2 SWAP3 POP PUSH1 0x20 RETURNDATASIZE PUSH1 0x20 GT PUSH2 0x36C9 JUMPI JUMPDEST PUSH2 0x36BA DUP2 DUP4 PUSH2 0x981 JUMP JUMPDEST DUP2 ADD SWAP1 PUSH2 0x3513 JUMP JUMPDEST SWAP1 CODESIZE PUSH2 0x3623 JUMP JUMPDEST POP RETURNDATASIZE PUSH2 0x36B0 JUMP JUMPDEST SWAP4 SWAP3 SWAP1 SWAP5 SWAP2 SWAP5 DUP6 EXTCODESIZE PUSH2 0x36E5 JUMPI JUMPDEST POP POP POP POP POP POP JUMP JUMPDEST PUSH2 0x3708 PUSH1 0x20 SWAP4 PUSH1 0x40 MLOAD SWAP6 DUP7 SWAP5 DUP6 SWAP5 PUSH4 0xBC197C81 PUSH1 0xE0 SHL SWAP10 DUP11 DUP8 MSTORE PUSH1 0x4 DUP8 ADD PUSH2 0x3573 JUMP JUMPDEST SUB DUP2 PUSH1 0x0 PUSH1 0x1 PUSH1 0x1 PUSH1 0xA0 SHL SUB DUP9 AND GAS CALL PUSH1 0x0 SWAP2 DUP2 PUSH2 0x374A JUMPI JUMPDEST POP PUSH2 0x372F JUMPI DUP3 PUSH2 0x3631 PUSH2 0x35A5 JUMP JUMPDEST PUSH1 0x1 PUSH1 0x1 PUSH1 0xE0 SHL SUB NOT AND SUB PUSH2 0x367C JUMPI POP CODESIZE DUP1 DUP1 DUP1 DUP1 DUP1 PUSH2 0x36DD JUMP JUMPDEST PUSH2 0x3764 SWAP2 SWAP3 POP PUSH1 0x20 RETURNDATASIZE PUSH1 0x20 GT PUSH2 0x36C9 JUMPI PUSH2 0x36BA DUP2 DUP4 PUSH2 0x981 JUMP JUMPDEST SWAP1 CODESIZE PUSH2 0x3721 JUMP JUMPDEST SWAP1 SWAP3 PUSH1 0xA0 SWAP3 PUSH2 0xCA3 SWAP6 SWAP5 PUSH1 0x1 DUP1 DUP7 SHL SUB AND DUP4 MSTORE PUSH1 0x0 PUSH1 0x20 DUP5 ADD MSTORE PUSH1 0x40 DUP4 ADD MSTORE PUSH1 0x60 DUP3 ADD MSTORE DUP2 PUSH1 0x80 DUP3 ADD MSTORE ADD SWAP1 PUSH2 0x646 JUMP JUMPDEST SWAP2 SWAP3 PUSH2 0xCA3 SWAP6 SWAP5 SWAP2 PUSH1 0xA0 SWAP5 PUSH1 0x1 DUP1 DUP8 SHL SUB DUP1 SWAP3 AND DUP6 MSTORE AND PUSH1 0x20 DUP5 ADD MSTORE PUSH1 0x40 DUP4 ADD MSTORE PUSH1 0x60 DUP3 ADD MSTORE DUP2 PUSH1 0x80 DUP3 ADD MSTORE ADD SWAP1 PUSH2 0x646 JUMP JUMPDEST SWAP3 SWAP4 SWAP2 SWAP1 SWAP4 DUP5 EXTCODESIZE PUSH2 0x37E1 JUMPI POP POP POP POP POP JUMP JUMPDEST PUSH1 0x20 SWAP2 PUSH2 0x360A PUSH1 0x40 MLOAD SWAP5 DUP6 SWAP4 DUP5 SWAP4 PUSH4 0xF23A6E61 PUSH1 0xE0 SHL SWAP9 DUP10 DUP7 MSTORE PUSH1 0x4 DUP7 ADD PUSH2 0x376B JUMP JUMPDEST SWAP4 SWAP3 SWAP1 SWAP5 SWAP2 SWAP5 DUP6 EXTCODESIZE PUSH2 0x3818 JUMPI POP POP POP POP POP POP JUMP JUMPDEST PUSH2 0x3708 PUSH1 0x20 SWAP4 PUSH1 0x40 MLOAD SWAP6 DUP7 SWAP5 DUP6 SWAP5 PUSH4 0xF23A6E61 PUSH1 0xE0 SHL SWAP10 DUP11 DUP8 MSTORE PUSH1 0x4 DUP8 ADD PUSH2 0x379C JUMP JUMPDEST SWAP3 SWAP2 SWAP3 PUSH2 0x3849 DUP5 DUP4 DUP4 PUSH2 0x3AE0 JUMP JUMPDEST PUSH1 0x1 PUSH1 0x1 PUSH1 0xA0 SHL SUB AND ISZERO PUSH2 0x38A2 JUMPI JUMPDEST PUSH1 0x0 DUP1 JUMPDEST DUP3 MLOAD DUP3 LT ISZERO PUSH2 0x3890 JUMPI PUSH1 0x1 SWAP1 PUSH2 0x3872 DUP4 DUP8 PUSH2 0x2389 JUMP JUMPDEST MLOAD SWAP1 PUSH2 0x3881 PUSH2 0x2E6D DUP6 DUP8 PUSH2 0x2389 JUMP JUMPDEST DUP3 DUP2 SLOAD SUB SWAP1 SSTORE ADD SWAP2 ADD SWAP1 PUSH2 0x385C JUMP JUMPDEST SWAP2 POP POP PUSH2 0x9B0 SWAP2 SWAP3 POP PUSH1 0x4 SLOAD SUB PUSH1 0x4 SSTORE JUMP JUMPDEST PUSH1 0x0 DUP1 JUMPDEST DUP3 MLOAD DUP3 LT ISZERO PUSH2 0x38D6 JUMPI PUSH2 0x38CE PUSH1 0x1 SWAP2 PUSH2 0x38BF DUP5 DUP9 PUSH2 0x2389 JUMP JUMPDEST MLOAD SWAP1 PUSH2 0x2E7E PUSH2 0x2E6D DUP7 DUP9 PUSH2 0x2389 JUMP JUMPDEST SWAP2 ADD SWAP1 PUSH2 0x38A6 JUMP JUMPDEST PUSH2 0x38E7 SWAP2 POP PUSH2 0x2EAD SWAP1 PUSH1 0x4 SLOAD PUSH2 0x248B JUMP JUMPDEST PUSH2 0x3858 JUMP JUMPDEST SWAP1 SWAP4 SWAP3 SWAP4 PUSH2 0x38FC DUP6 DUP5 DUP4 DUP6 PUSH2 0x3C46 JUMP JUMPDEST PUSH1 0x1 PUSH1 0x1 PUSH1 0xA0 SHL SUB SWAP2 DUP3 AND ISZERO PUSH2 0x3950 JUMPI JUMPDEST AND ISZERO PUSH2 0x3918 JUMPI POP SWAP1 POP JUMP JUMPDEST PUSH1 0x0 DUP1 JUMPDEST DUP3 MLOAD DUP3 LT ISZERO PUSH2 0x3890 JUMPI PUSH1 0x1 SWAP1 PUSH2 0x3932 DUP4 DUP8 PUSH2 0x2389 JUMP JUMPDEST MLOAD SWAP1 PUSH2 0x3941 PUSH2 0x2E6D DUP6 DUP8 PUSH2 0x2389 JUMP JUMPDEST DUP3 DUP2 SLOAD SUB SWAP1 SSTORE ADD SWAP2 ADD SWAP1 PUSH2 0x391C JUMP JUMPDEST SWAP3 PUSH1 0x0 SWAP2 DUP3 JUMPDEST DUP5 MLOAD DUP5 LT ISZERO PUSH2 0x3986 JUMPI PUSH2 0x397E PUSH1 0x1 SWAP2 PUSH2 0x396F DUP7 DUP11 PUSH2 0x2389 JUMP JUMPDEST MLOAD SWAP1 PUSH2 0x2E7E PUSH2 0x2E6D DUP9 DUP11 PUSH2 0x2389 JUMP JUMPDEST SWAP4 ADD SWAP3 PUSH2 0x3956 JUMP JUMPDEST PUSH2 0x399B SWAP2 SWAP4 POP PUSH2 0x2EAD SWAP1 SWAP6 SWAP3 SWAP6 PUSH1 0x4 SLOAD PUSH2 0x248B JUMP JUMPDEST PUSH2 0x390D JUMP JUMPDEST SWAP1 SWAP2 PUSH2 0x39B7 PUSH2 0xCA3 SWAP4 PUSH1 0x40 DUP5 MSTORE PUSH1 0x40 DUP5 ADD SWAP1 PUSH2 0xFC5 JUMP JUMPDEST SWAP2 PUSH1 0x20 DUP2 DUP5 SUB SWAP2 ADD MSTORE PUSH2 0xFC5 JUMP JUMPDEST SWAP2 SWAP1 SWAP2 DUP3 MLOAD DUP3 MLOAD SWAP1 DUP2 DUP2 SUB PUSH2 0x243F JUMPI POP POP PUSH1 0x0 JUMPDEST DUP4 MLOAD DUP2 LT ISZERO PUSH2 0x3A40 JUMPI PUSH1 0x5 DUP2 SWAP1 SHL DUP5 DUP2 ADD PUSH1 0x20 SWAP1 DUP2 ADD MLOAD SWAP2 DUP6 ADD ADD MLOAD PUSH1 0x1 SWAP3 SWAP2 DUP5 SWAP1 PUSH1 0x1 PUSH1 0x1 PUSH1 0xA0 SHL SUB DUP3 AND PUSH2 0x3A13 JUMPI JUMPDEST POP POP POP ADD PUSH2 0x39D9 JUMP JUMPDEST PUSH2 0x3A36 SWAP2 PUSH2 0x1977 PUSH2 0x3A2E SWAP3 PUSH1 0x0 MSTORE PUSH1 0x0 PUSH1 0x20 MSTORE PUSH1 0x40 PUSH1 0x0 KECCAK256 SWAP1 JUMP JUMPDEST SWAP2 DUP3 SLOAD PUSH2 0x248B JUMP JUMPDEST SWAP1 SSTORE CODESIZE DUP4 DUP2 PUSH2 0x3A0A JUMP JUMPDEST POP SWAP2 PUSH1 0x1 DUP2 MLOAD EQ PUSH1 0x0 EQ PUSH2 0x3AA1 JUMPI PUSH1 0x20 SWAP1 DUP2 ADD MLOAD SWAP2 DUP2 ADD MLOAD PUSH1 0x40 DUP1 MLOAD SWAP4 DUP5 MSTORE SWAP2 DUP4 ADD MSTORE PUSH1 0x1 PUSH1 0x1 PUSH1 0xA0 SHL SUB SWAP1 SWAP3 AND SWAP2 PUSH1 0x0 SWAP2 CALLER SWAP2 PUSH32 0xC3D58168C5AE7397731D063D5BBF3D657854427343F4C083240F7AACAA2D0F62 SWAP2 SWAP1 DUP2 SWAP1 DUP2 ADD JUMPDEST SUB SWAP1 LOG4 JUMP JUMPDEST PUSH32 0x4A39DC06D4C0DBC64B70AF90FD698A233A518AA5D07E595D983B8C0526C8F7FB PUSH2 0x3A9C PUSH1 0x0 SWAP4 SWAP5 PUSH1 0x40 MLOAD SWAP2 DUP3 SWAP2 PUSH1 0x1 DUP1 PUSH1 0xA0 SHL SUB AND SWAP7 CALLER SWAP6 DUP4 PUSH2 0x39A0 JUMP JUMPDEST SWAP3 SWAP2 SWAP1 DUP1 MLOAD DUP3 MLOAD SWAP1 DUP2 DUP2 SUB PUSH2 0x243F JUMPI POP POP PUSH1 0x0 JUMPDEST DUP2 MLOAD DUP2 LT ISZERO PUSH2 0x3BA7 JUMPI PUSH1 0x5 DUP2 SWAP1 SHL DUP3 DUP2 ADD PUSH1 0x20 SWAP1 DUP2 ADD MLOAD SWAP2 DUP6 ADD ADD MLOAD PUSH1 0x1 PUSH1 0x1 PUSH1 0xA0 SHL SUB DUP8 AND PUSH2 0x3B29 JUMPI JUMPDEST POP POP PUSH1 0x1 ADD PUSH2 0x3AF4 JUMP JUMPDEST PUSH2 0x3B41 DUP8 PUSH2 0x1977 DUP5 PUSH1 0x0 MSTORE PUSH1 0x0 PUSH1 0x20 MSTORE PUSH1 0x40 PUSH1 0x0 KECCAK256 SWAP1 JUMP JUMPDEST SLOAD DUP2 DUP2 LT PUSH2 0x3B70 JUMPI DUP8 PUSH2 0x1977 PUSH1 0x1 SWAP6 SWAP5 SWAP4 PUSH2 0x3B68 SWAP4 SUB SWAP4 PUSH1 0x0 MSTORE PUSH1 0x0 PUSH1 0x20 MSTORE PUSH1 0x40 PUSH1 0x0 KECCAK256 SWAP1 JUMP JUMPDEST SSTORE SWAP1 CODESIZE PUSH2 0x3B1F JUMP JUMPDEST PUSH1 0x40 MLOAD PUSH4 0x3DEE4C5 PUSH1 0xE0 SHL DUP2 MSTORE PUSH1 0x1 PUSH1 0x1 PUSH1 0xA0 SHL SUB DUP10 AND PUSH1 0x4 DUP3 ADD MSTORE PUSH1 0x24 DUP2 ADD SWAP2 SWAP1 SWAP2 MSTORE PUSH1 0x44 DUP2 ADD DUP3 SWAP1 MSTORE PUSH1 0x64 DUP2 ADD DUP4 SWAP1 MSTORE PUSH1 0x84 SWAP1 REVERT JUMPDEST POP SWAP1 PUSH1 0x0 SWAP3 SWAP4 SWAP2 PUSH1 0x1 DUP2 MLOAD EQ DUP5 EQ PUSH2 0x3C07 JUMPI PUSH1 0x20 SWAP1 DUP2 ADD MLOAD SWAP2 DUP2 ADD MLOAD PUSH1 0x40 DUP1 MLOAD SWAP4 DUP5 MSTORE SWAP2 DUP4 ADD MSTORE PUSH1 0x1 PUSH1 0x1 PUSH1 0xA0 SHL SUB SWAP1 SWAP3 AND SWAP2 CALLER SWAP2 PUSH32 0xC3D58168C5AE7397731D063D5BBF3D657854427343F4C083240F7AACAA2D0F62 SWAP2 DUP2 SWAP1 DUP2 ADD PUSH2 0x3A9C JUMP JUMPDEST PUSH1 0x40 MLOAD PUSH1 0x1 PUSH1 0x1 PUSH1 0xA0 SHL SUB SWAP1 SWAP4 AND SWAP3 CALLER SWAP3 PUSH32 0x4A39DC06D4C0DBC64B70AF90FD698A233A518AA5D07E595D983B8C0526C8F7FB SWAP3 DUP3 SWAP2 PUSH2 0x3A9C SWAP2 DUP4 PUSH2 0x39A0 JUMP JUMPDEST SWAP4 SWAP3 SWAP2 DUP1 MLOAD DUP4 MLOAD SWAP1 DUP2 DUP2 SUB PUSH2 0x243F JUMPI POP POP PUSH1 0x0 JUMPDEST DUP2 MLOAD DUP2 LT ISZERO PUSH2 0x3D48 JUMPI PUSH1 0x5 DUP2 SWAP1 SHL DUP3 DUP2 ADD PUSH1 0x20 SWAP1 DUP2 ADD MLOAD SWAP2 DUP7 ADD ADD MLOAD PUSH1 0x1 PUSH1 0x1 PUSH1 0xA0 SHL SUB SWAP3 SWAP2 DUP6 SWAP1 DUP10 DUP6 AND PUSH2 0x3CC2 JUMPI JUMPDEST PUSH1 0x1 SWAP5 DUP3 AND PUSH2 0x3C9D JUMPI JUMPDEST POP POP POP ADD PUSH2 0x3C5A JUMP JUMPDEST PUSH2 0x3CB8 SWAP2 PUSH2 0x1977 PUSH2 0x3A2E SWAP3 PUSH1 0x0 MSTORE PUSH1 0x0 PUSH1 0x20 MSTORE PUSH1 0x40 PUSH1 0x0 KECCAK256 SWAP1 JUMP JUMPDEST SWAP1 SSTORE CODESIZE DUP5 DUP2 PUSH2 0x3C94 JUMP JUMPDEST SWAP2 SWAP3 SWAP4 SWAP1 POP PUSH2 0x3CDF DUP10 PUSH2 0x1977 DUP5 PUSH1 0x0 MSTORE PUSH1 0x0 PUSH1 0x20 MSTORE PUSH1 0x40 PUSH1 0x0 KECCAK256 SWAP1 JUMP JUMPDEST SLOAD DUP4 DUP2 LT PUSH2 0x3D11 JUMPI SWAP2 DUP7 SWAP2 DUP5 PUSH1 0x1 SWAP7 SWAP6 SWAP5 SUB PUSH2 0x3D09 DUP13 PUSH2 0x1977 DUP6 PUSH1 0x0 MSTORE PUSH1 0x0 PUSH1 0x20 MSTORE PUSH1 0x40 PUSH1 0x0 KECCAK256 SWAP1 JUMP JUMPDEST SSTORE SWAP5 POP PUSH2 0x3C8A JUMP JUMPDEST PUSH1 0x40 MLOAD PUSH4 0x3DEE4C5 PUSH1 0xE0 SHL DUP2 MSTORE PUSH1 0x1 PUSH1 0x1 PUSH1 0xA0 SHL SUB DUP12 AND PUSH1 0x4 DUP3 ADD MSTORE PUSH1 0x24 DUP2 ADD SWAP2 SWAP1 SWAP2 MSTORE PUSH1 0x44 DUP2 ADD DUP5 SWAP1 MSTORE PUSH1 0x64 DUP2 ADD DUP4 SWAP1 MSTORE PUSH1 0x84 SWAP1 REVERT JUMPDEST POP DUP1 MLOAD SWAP4 SWAP5 SWAP4 SWAP2 SWAP3 SWAP2 PUSH1 0x1 SUB PUSH2 0x3DAA JUMPI PUSH1 0x20 SWAP1 DUP2 ADD MLOAD SWAP2 DUP2 ADD MLOAD PUSH1 0x40 DUP1 MLOAD SWAP4 DUP5 MSTORE SWAP2 DUP4 ADD MSTORE PUSH1 0x1 PUSH1 0x1 PUSH1 0xA0 SHL SUB SWAP3 DUP4 AND SWAP4 SWAP1 SWAP3 AND SWAP2 CALLER SWAP2 PUSH32 0xC3D58168C5AE7397731D063D5BBF3D657854427343F4C083240F7AACAA2D0F62 SWAP2 DUP2 SWAP1 DUP2 ADD PUSH2 0x3A9C JUMP JUMPDEST PUSH1 0x40 MLOAD PUSH1 0x1 PUSH1 0x1 PUSH1 0xA0 SHL SUB SWAP4 DUP5 AND SWAP5 SWAP1 SWAP4 AND SWAP3 CALLER SWAP3 PUSH32 0x4A39DC06D4C0DBC64B70AF90FD698A233A518AA5D07E595D983B8C0526C8F7FB SWAP3 DUP3 SWAP2 PUSH2 0x3A9C SWAP2 DUP4 PUSH2 0x39A0 JUMP INVALID LOG2 PUSH5 0x6970667358 0x22 SLT KECCAK256 0xBB DUP16 JUMPI 0xE5 ADDRESS CALLER 0xA5 SWAP4 0xC4 DUP7 SLT 0xED 0xC2 LOG3 0xCA PUSH19 0x6123DB9E0C7891DA1F409A9ED7FFE24264736F PUSH13 0x634300081800332F8788117E7E SELFDESTRUCT SAR DUP3 0xE9 0x26 0xEC PUSH26 0x4901D17C78024A50270940304540A733656F0D00000000000000 "},"methodIdentifiers":{"BURNER_ROLE()":"282c51f3","COUNTY_ALLOCATION()":"ceadd5b9","COUNTY_MULTIPLIER()":"11dd6cdc","COUNTY_VOTING_MULTIPLIER()":"c7527d08","DEFAULT_ADMIN_ROLE()":"a217fddf","INTERNATIONAL_ALLOCATION()":"a7907f74","INTERNATIONAL_MULTIPLIER()":"c65b6820","INTERNATIONAL_VOTING_MULTIPLIER()":"23067248","MINTER_ROLE()":"d5391393","NATIONAL_ALLOCATION()":"5561c5b3","NATIONAL_MULTIPLIER()":"7ca8c6f1","NATIONAL_VOTING_MULTIPLIER()":"500e9f73","PAUSER_ROLE()":"e63ab1e9","PHASE_ADVANCER_ROLE()":"35894afd","STATE_ALLOCATION()":"5fc68c46","STATE_MULTIPLIER()":"5bbe9f5e","STATE_VOTING_MULTIPLIER()":"f8147a8a","WHITELIST_ADMIN_ROLE()":"54202c4e","addToWhitelist(address,uint8)":"0263b858","addressPhaseEligibility(address)":"edff4969","advancePhase(uint256)":"81aaf4ce","autoWhitelist(address,uint8,bytes)":"2632067a","balanceOf(address,uint256)":"00fdd58e","balanceOfBatch(address[],uint256[])":"4e1273f4","basePrice()":"c7876ea4","burn(address,uint256,uint256)":"f5298aca","burnBatch(address,uint256[],uint256[])":"6b20c454","burnFromOnFailure(uint256,address,uint256)":"3bb0b5b6","createProperty(string,string,uint256,uint256,uint256)":"58567dd5","exists(uint256)":"4f558e79","getAllPropertyIds()":"4ff69e83","getCurrentPrice(uint256)":"c55d0f56","getProperty(uint256)":"32665ffb","getPropertyCount()":"7326b901","getRoleAdmin(bytes32)":"248a9ca3","getTotalWeightedVotingPower(uint256)":"8cdc1e87","getVotingMultiplier(uint8)":"6ce2f91d","getVotingPower(uint256,address)":"dbdad432","grantRole(bytes32,address)":"2f2ff15d","hasRole(bytes32,address)":"91d14854","holdingsByPhase(uint256,address,uint8)":"9ca02763","isApprovedForAll(address,address)":"e985e9c5","markFunded(uint256)":"c5666eb2","mintTokens(uint256,address,uint256)":"8d6819be","pause()":"8456cb59","paused()":"5c975abb","phaseAllocations(uint256,uint8)":"6ea99677","phaseMinted(uint256,uint8)":"04fa6173","properties(uint256)":"f7b10808","propertyCount()":"c361a335","propertyExists(uint256)":"4a164732","removeFromWhitelist(address)":"8ab1d681","renounceRole(bytes32,address)":"36568abe","revokeRole(bytes32,address)":"d547741f","safeBatchTransferFrom(address,address,uint256[],uint256[],bytes)":"2eb2c2d6","safeTransferFrom(address,address,uint256,uint256,bytes)":"f242432a","setApprovalForAll(address,bool)":"a22cb465","supportsInterface(bytes4)":"01ffc9a7","totalSupply()":"18160ddd","totalSupply(uint256)":"bd85b039","unpause()":"3f4ba83a","updateBasePrice(uint256)":"fd5baa88","uri(uint256)":"0e89341c","whitelist(address)":"9b19251a"}}}}}