{"contracts/PhaseManager.sol":{"PhaseManager":{"abi":[{"inputs":[{"internalType":"address","name":"_propertyToken","type":"address"},{"internalType":"address","name":"_governance","type":"address"}],"stateMutability":"nonpayable","type":"constructor"},{"inputs":[],"name":"AccessControlBadConfirmation","type":"error"},{"inputs":[{"internalType":"address","name":"account","type":"address"},{"internalType":"bytes32","name":"neededRole","type":"bytes32"}],"name":"AccessControlUnauthorizedAccount","type":"error"},{"anonymous":false,"inputs":[{"indexed":true,"internalType":"uint256","name":"propertyId","type":"uint256"},{"indexed":true,"internalType":"address","name":"claimer","type":"address"},{"indexed":false,"internalType":"uint256","name":"bonus","type":"uint256"}],"name":"BonusClaimed","type":"event"},{"anonymous":false,"inputs":[{"indexed":true,"internalType":"uint256","name":"propertyId","type":"uint256"},{"indexed":false,"internalType":"uint256","name":"activeVoters","type":"uint256"},{"indexed":false,"internalType":"uint256","name":"totalEligible","type":"uint256"},{"indexed":false,"internalType":"uint256","name":"engagementPercent","type":"uint256"}],"name":"EngagementUpdated","type":"event"},{"anonymous":false,"inputs":[{"indexed":true,"internalType":"uint256","name":"propertyId","type":"uint256"},{"indexed":false,"internalType":"string","name":"nudgeType","type":"string"},{"indexed":false,"internalType":"uint256","name":"engagementPercent","type":"uint256"}],"name":"NudgeTriggered","type":"event"},{"anonymous":false,"inputs":[{"indexed":true,"internalType":"uint256","name":"propertyId","type":"uint256"},{"indexed":false,"internalType":"uint8","name":"fromPhase","type":"uint8"},{"indexed":false,"internalType":"uint8","name":"toPhase","type":"uint8"},{"indexed":false,"internalType":"uint256","name":"engagementPercent","type":"uint256"}],"name":"PhaseAdvancedByEngagement","type":"event"},{"anonymous":false,"inputs":[{"indexed":true,"internalType":"uint256","name":"propertyId","type":"uint256"},{"indexed":false,"internalType":"uint8","name":"fromPhase","type":"uint8"},{"indexed":false,"internalType":"uint8","name":"toPhase","type":"uint8"}],"name":"PhaseAdvancedBySubscription","type":"event"},{"anonymous":false,"inputs":[{"indexed":true,"internalType":"uint256","name":"propertyId","type":"uint256"}],"name":"PropertyTrackingStarted","type":"event"},{"anonymous":false,"inputs":[{"indexed":true,"internalType":"uint256","name":"propertyId","type":"uint256"}],"name":"PropertyTrackingStopped","type":"event"},{"anonymous":false,"inputs":[{"indexed":true,"internalType":"bytes32","name":"role","type":"bytes32"},{"indexed":true,"internalType":"bytes32","name":"previousAdminRole","type":"bytes32"},{"indexed":true,"internalType":"bytes32","name":"newAdminRole","type":"bytes32"}],"name":"RoleAdminChanged","type":"event"},{"anonymous":false,"inputs":[{"indexed":true,"internalType":"bytes32","name":"role","type":"bytes32"},{"indexed":true,"internalType":"address","name":"account","type":"address"},{"indexed":true,"internalType":"address","name":"sender","type":"address"}],"name":"RoleGranted","type":"event"},{"anonymous":false,"inputs":[{"indexed":true,"internalType":"bytes32","name":"role","type":"bytes32"},{"indexed":true,"internalType":"address","name":"account","type":"address"},{"indexed":true,"internalType":"address","name":"sender","type":"address"}],"name":"RoleRevoked","type":"event"},{"inputs":[],"name":"BONUS_TOKENS","outputs":[{"internalType":"uint256","name":"","type":"uint256"}],"stateMutability":"view","type":"function"},{"inputs":[],"name":"DEFAULT_ADMIN_ROLE","outputs":[{"internalType":"bytes32","name":"","type":"bytes32"}],"stateMutability":"view","type":"function"},{"inputs":[],"name":"ENGAGEMENT_THRESHOLD","outputs":[{"internalType":"uint256","name":"","type":"uint256"}],"stateMutability":"view","type":"function"},{"inputs":[],"name":"MIN_ENGAGEMENT_PERIOD","outputs":[{"internalType":"uint256","name":"","type":"uint256"}],"stateMutability":"view","type":"function"},{"inputs":[],"name":"OPERATOR_ROLE","outputs":[{"internalType":"bytes32","name":"","type":"bytes32"}],"stateMutability":"view","type":"function"},{"inputs":[{"internalType":"uint256","name":"propertyId","type":"uint256"}],"name":"calculateEngagement","outputs":[{"internalType":"uint256","name":"","type":"uint256"}],"stateMutability":"view","type":"function"},{"inputs":[{"internalType":"uint256","name":"propertyId","type":"uint256"}],"name":"checkSubscriptionAdvancement","outputs":[],"stateMutability":"nonpayable","type":"function"},{"inputs":[{"internalType":"bytes","name":"","type":"bytes"}],"name":"checkUpkeep","outputs":[{"internalType":"bool","name":"upkeepNeeded","type":"bool"},{"internalType":"bytes","name":"performData","type":"bytes"}],"stateMutability":"view","type":"function"},{"inputs":[{"internalType":"uint256","name":"propertyId","type":"uint256"}],"name":"claimEngagementBonus","outputs":[],"stateMutability":"nonpayable","type":"function"},{"inputs":[{"internalType":"uint256","name":"propertyId","type":"uint256"}],"name":"getEngagement","outputs":[{"internalType":"uint256","name":"phaseStartTime","type":"uint256"},{"internalType":"uint256","name":"totalEligible","type":"uint256"},{"internalType":"uint256","name":"activeVoters","type":"uint256"},{"internalType":"uint256","name":"engagementPercent","type":"uint256"},{"internalType":"bool","name":"isTracking","type":"bool"}],"stateMutability":"view","type":"function"},{"inputs":[{"internalType":"bytes32","name":"role","type":"bytes32"}],"name":"getRoleAdmin","outputs":[{"internalType":"bytes32","name":"","type":"bytes32"}],"stateMutability":"view","type":"function"},{"inputs":[],"name":"getTrackedProperties","outputs":[{"internalType":"uint256[]","name":"","type":"uint256[]"}],"stateMutability":"view","type":"function"},{"inputs":[],"name":"governance","outputs":[{"internalType":"contract IGovernance","name":"","type":"address"}],"stateMutability":"view","type":"function"},{"inputs":[{"internalType":"bytes32","name":"role","type":"bytes32"},{"internalType":"address","name":"account","type":"address"}],"name":"grantRole","outputs":[],"stateMutability":"nonpayable","type":"function"},{"inputs":[{"internalType":"uint256","name":"","type":"uint256"},{"internalType":"address","name":"","type":"address"}],"name":"hasClaimed","outputs":[{"internalType":"bool","name":"","type":"bool"}],"stateMutability":"view","type":"function"},{"inputs":[{"internalType":"bytes32","name":"role","type":"bytes32"},{"internalType":"address","name":"account","type":"address"}],"name":"hasRole","outputs":[{"internalType":"bool","name":"","type":"bool"}],"stateMutability":"view","type":"function"},{"inputs":[{"internalType":"uint256","name":"","type":"uint256"}],"name":"isTracked","outputs":[{"internalType":"bool","name":"","type":"bool"}],"stateMutability":"view","type":"function"},{"inputs":[{"internalType":"uint256","name":"","type":"uint256"}],"name":"lastNudgeTime","outputs":[{"internalType":"uint256","name":"","type":"uint256"}],"stateMutability":"view","type":"function"},{"inputs":[],"name":"nudgeCooldown","outputs":[{"internalType":"uint256","name":"","type":"uint256"}],"stateMutability":"view","type":"function"},{"inputs":[{"internalType":"bytes","name":"performData","type":"bytes"}],"name":"performUpkeep","outputs":[],"stateMutability":"nonpayable","type":"function"},{"inputs":[{"internalType":"uint256","name":"","type":"uint256"}],"name":"propertyEngagement","outputs":[{"internalType":"uint256","name":"propertyId","type":"uint256"},{"internalType":"uint256","name":"phaseStartTime","type":"uint256"},{"internalType":"uint256","name":"totalEligibleVoters","type":"uint256"},{"internalType":"uint256","name":"activeVoters","type":"uint256"},{"internalType":"uint256","name":"totalProposals","type":"uint256"},{"internalType":"uint256","name":"votedProposals","type":"uint256"},{"internalType":"bool","name":"isTracking","type":"bool"}],"stateMutability":"view","type":"function"},{"inputs":[],"name":"propertyToken","outputs":[{"internalType":"contract IPropertyToken","name":"","type":"address"}],"stateMutability":"view","type":"function"},{"inputs":[{"internalType":"bytes32","name":"role","type":"bytes32"},{"internalType":"address","name":"callerConfirmation","type":"address"}],"name":"renounceRole","outputs":[],"stateMutability":"nonpayable","type":"function"},{"inputs":[{"internalType":"bytes32","name":"role","type":"bytes32"},{"internalType":"address","name":"account","type":"address"}],"name":"revokeRole","outputs":[],"stateMutability":"nonpayable","type":"function"},{"inputs":[{"internalType":"uint256","name":"newCooldown","type":"uint256"}],"name":"setNudgeCooldown","outputs":[],"stateMutability":"nonpayable","type":"function"},{"inputs":[{"internalType":"uint256","name":"propertyId","type":"uint256"},{"internalType":"uint256","name":"totalEligibleVoters","type":"uint256"}],"name":"startTracking","outputs":[],"stateMutability":"nonpayable","type":"function"},{"inputs":[{"internalType":"uint256","name":"propertyId","type":"uint256"}],"name":"stopTracking","outputs":[],"stateMutability":"nonpayable","type":"function"},{"inputs":[{"internalType":"bytes4","name":"interfaceId","type":"bytes4"}],"name":"supportsInterface","outputs":[{"internalType":"bool","name":"","type":"bool"}],"stateMutability":"view","type":"function"},{"inputs":[{"internalType":"uint256","name":"","type":"uint256"}],"name":"trackedProperties","outputs":[{"internalType":"uint256","name":"","type":"uint256"}],"stateMutability":"view","type":"function"},{"inputs":[{"internalType":"uint256","name":"propertyId","type":"uint256"},{"internalType":"uint256","name":"activeVoters","type":"uint256"},{"internalType":"uint256","name":"totalProposals","type":"uint256"},{"internalType":"uint256","name":"votedProposals","type":"uint256"}],"name":"updateEngagement","outputs":[],"stateMutability":"nonpayable","type":"function"}],"evm":{"bytecode":{"linkReferences":{},"object":"608034620000b557601f62001a9138819003918201601f19168301916001600160401b03831184841017620000ba578084926040948552833981010312620000b5576200005a60206200005283620000d0565b9201620000d0565b62015180600755600180546001600160a01b039384166001600160a01b031991821617909155600280549290931691161790556200009833620000e5565b50620000a43362000165565b506040516118699081620002088239f35b600080fd5b634e487b7160e01b600052604160045260246000fd5b51906001600160a01b0382168203620000b557565b6001600160a01b031660008181527fad3228b676f7d3cd4284a5443f17f1962b36e491b30a40b2405849e597ba5fb5602052604081205490919060ff166200016157818052816020526040822081835260205260408220600160ff19825416179055339160008051602062001a718339815191528180a4600190565b5090565b6001600160a01b031660008181527fee57cd81e84075558e8fcc182a1f4393f91fc97f963a136e66b7f949a62f319f60205260408120549091907f97667070c54ef182b0f5858b034beac1b6f3089aa2d3188bb1e8929f4fa9b9299060ff166200020257808352826020526040832082845260205260408320600160ff1982541617905560008051602062001a71833981519152339380a4600190565b50509056fe608060408181526004918236101561001657600080fd5b600092833560e01c91826301ffc9a714610ee25750816306785d8a14610e615781631194f9e914610e34578163248a9ca314610e0a5781632e94dfda14610daa5781632f2ff15d14610d8057816330ae780514610d63578163313b79da14610cb257816336568abe14610c6c57816340ab317114610a2b57816343ae269514610a025781634585e33b146109755781635513de41146109575781635aa6e6751461092e5781635da6559e1461090657816363e86eb81461089a5781636675584f1461087b5781636e04ff0d1461083f578163785b2190146106ae5781638085b81314610676578163873f6f9e146106305781638e5359e01461057f57816391d148541461053a57816394c9825d1461048d578163a217fddf14610472578163b415d27914610456578163d547741f14610417578163d5612486146101d6578163f333d6c2146101ac575063f5b541a61461016f57600080fd5b346101a857816003193601126101a857602090517f97667070c54ef182b0f5858b034beac1b6f3089aa2d3188bb1e8929f4fa9b9298152f35b5080fd5b8284346101d35760203660031901126101d357506101cc60209235611364565b9051908152f35b80fd5b9190503461034f5760209081600319360112610413578235928460018060a01b03600154168351926332665ffb60e01b845286818501528284602481855afa9384156104095783946103db575b508451636ea9967760e01b815281810188815260ff861660208201528790829081906040010381865afa9081156103d15784916103a0575b5085516304fa617360e01b815282810189815260ff871660208201528890829081906040010381875afa908115610396578591610360575b50101580610353575b6102a4578280f35b813b1561034f57866024849283885195869485936340d57a6760e11b85528401525af180156103455761032d575b5092847f7214c5e85040cb3e35452fa6ff842070826b1d0bd195171e1c75e6d07bc1b96c945260038152856003848220426001820155015560ff6103158361133c565b818551941684521690820152a2388080808481808280f35b61033690611065565b6103415784386102d2565b8480fd5b84513d84823e3d90fd5b8280fd5b50600360ff85161061029c565b809550888092503d831161038f575b61037981836110ab565b8101031261038a5788935138610293565b600080fd5b503d61036f565b87513d87823e3d90fd5b809450878092503d83116103ca575b6103b981836110ab565b8101031261038a578792513861025b565b503d6103af565b86513d86823e3d90fd5b6103f89194503d8085833e6103f081836110ab565b8101906112b1565b505096505050505050509238610223565b85513d85823e3d90fd5b8380fd5b9190503461034f578060031936011261034f57610452913561044d600161043c610f35565b93838752866020528620015461141a565b6114be565b5080f35b5050346101a857816003193601126101a8576020905160018152f35b5050346101a857816003193601126101a85751908152602090f35b90503461034f57608036600319011261034f5761053791817f63bd409a0ca0450137d1b574e1e74a5a18cc8934d8f718c1603619b971ce6737606060029435938493602435916104db6113a0565b858a526003602052808a20916104f760ff60068501541661102a565b83600384015560443590830155606435600583015561051586611364565b978892015481519384526020840152820152a2610532828261165e565b6117f0565b80f35b90503461034f578160031936011261034f5781602093610558610f35565b92358152808552209060018060a01b0316600052825260ff81600020541690519015158152f35b90503461034f57602036600319011261034f57803591600080526000602052806000203360005260205260ff8160002054161561061257610e1083101580610605575b156105cf57505060075580f35b906020606492519162461bcd60e51b8352820152601060248201526f24b73b30b634b21031b7b7b63237bbb760811b6044820152fd5b5062093a808311156105c2565b60449250519063e2517d3f60e01b8252339082015260006024820152fd5b90503461034f578160031936011261034f578160209361064e610f35565b9235815260088552209060018060a01b0316600052825260ff81600020541690519015158152f35b8284346101d35760203660031901126101d357823592548310156101d357506106a0602092610fdd565b91905490519160031b1c8152f35b8383346101a8578060031936011261038a578235906106cb6113a0565b818352600560205260ff818420541661080a5780519060e0820182811067ffffffffffffffff8211176107f557815282825260066020830192428452828101602435815260608201878152608083019088825260a084019289845260c085019760018952898b526003602052878b2095518655516001860155516002850155516003840155518883015551600582015501915115159160ff199260ff8483541691161790558454680100000000000000008110156107e25790610795828760018095019055610fdd565b81549060031b9086821b91600019901b191617905583855260056020528420918254161790557f3621586063592251acf2253a10fe8119554dbb0bf93d6e875b85a3a66a2166b98280a280f35b634e487b7160e01b855260418652602485fd5b604186634e487b7160e01b6000525260246000fd5b5162461bcd60e51b8152602081850152601060248201526f416c726561647920747261636b696e6760801b6044820152606490fd5b8284346101d3575061085036610f4b565b505061087761085d611152565b839291925193849315158452806020850152830190610fb8565b0390f35b5050346101a857816003193601126101a8576020906007549051908152f35b90503461034f57602036600319011261034f578160e0938235815260036020522080549260018201549260028301546003840154918401549260ff600660058701549601541695815197885260208801528601526060850152608084015260a0830152151560c0820152f35b90503461034f57602036600319011261034f5760209282913581526006845220549051908152f35b5050346101a857816003193601126101a85760025490516001600160a01b039091168152602090f35b5050346101a857816003193601126101a8576020905162093a808152f35b8383346101a8578061098636610f4b565b908092918101031261038a576001903591828452600360205283206109b160ff60068301541661102a565b01549262093a8084018094116109ef57506109d2610537929342101561111a565b6109db81611364565b906109ea611d4c8310156110da565b611533565b634e487b7160e01b835260119052602482fd5b5050346101a857816003193601126101a85760015490516001600160a01b039091168152602090f35b9190503461034f576020806003193601126104135782359160018060a01b039360019460248482885416855192838092634d8c928d60e11b825233888301525afa908115610c62578891610c29575b5015610bf55784875260088452828720338852845260ff8388205416610bc1578487526003845285838820610ab560ff60068301541661102a565b610acb611d4c610ac489611364565b10156110da565b015462093a808101809111610bae5790610ae8889242101561111a565b858252600885528382203383528552838220805460ff19168817905586541691823b156101a8576064869183865195869485936346b40cdf60e11b85528401523360248401528a60448401525af18015610ba457610b6f575b50907f89e1649e796bc46c9dcd5fd4505f79bfdd9197c8eccbdbaf05a6bfd1cb9ea09b91519384523393a380f35b94610b9c7f89e1649e796bc46c9dcd5fd4505f79bfdd9197c8eccbdbaf05a6bfd1cb9ea09b939296611065565b949091610b41565b82513d88823e3d90fd5b634e487b7160e01b885260118352602488fd5b5082606492519162461bcd60e51b8352820152600f60248201526e105b1c9958591e4818db185a5b5959608a1b6044820152fd5b5082606492519162461bcd60e51b8352820152600f60248201526e139bdd081dda1a5d195b1a5cdd1959608a1b6044820152fd5b90508481813d8311610c5b575b610c4081836110ab565b81010312610c5757610c51906110cd565b38610a7a565b8780fd5b503d610c36565b84513d8a823e3d90fd5b8383346101a857806003193601126101a857610c86610f35565b90336001600160a01b03831603610ca357506104529192356114be565b5163334bd91960e11b81528390fd5b905082346101d357806003193601126101d3579190815192838254808652602080960190819484527f8a35acfbc15ff81a39ae7d344fd709f28e8600b4aa8c65c6b64bfe7fe36bd19b90845b818110610d4f5750505081610d149103826110ab565b83519485948186019282875251809352850193925b828110610d3857505050500390f35b835185528695509381019392810192600101610d29565b825484529288019260019283019201610cfe565b5050346101a857816003193601126101a85760209051611d4c8152f35b9190503461034f578060031936011261034f576104529135610da5600161043c610f35565b611440565b8383346101a85760203660031901126101a8578060a093359283815260036020522060018101549260028201549260ff6006610dea600386015494611364565b940154169381519586526020860152840152606083015215156080820152f35b90503461034f57602036600319011261034f57816020936001923581528085522001549051908152f35b90503461034f57602036600319011261034f578160209360ff923581526005855220541690519015158152f35b90503461034f57602036600319011261034f573590610e7e6113a0565b8183526005602052610e9560ff828520541661102a565b81835260036020526006818420019060ff1991828154169055600560205283209081541690557f96fbf803f14da8437e0cbe34df7152f998dbc3b7e2343c52fb4285e90387a9ca8280a280f35b84913461034f57602036600319011261034f573563ffffffff60e01b811680910361034f5760209250637965db0b60e01b8114908115610f24575b5015158152f35b6301ffc9a760e01b14905083610f1d565b602435906001600160a01b038216820361038a57565b90602060031983011261038a5760043567ffffffffffffffff9283821161038a578060238301121561038a57816004013593841161038a576024848301011161038a576024019190565b60005b838110610fa85750506000910152565b8181015183820152602001610f98565b90602091610fd181518092818552858086019101610f95565b601f01601f1916010190565b6004548110156110145760046000527f8a35acfbc15ff81a39ae7d344fd709f28e8600b4aa8c65c6b64bfe7fe36bd19b0190600090565b634e487b7160e01b600052603260045260246000fd5b1561103157565b60405162461bcd60e51b815260206004820152600c60248201526b4e6f7420747261636b696e6760a01b6044820152606490fd5b67ffffffffffffffff811161107957604052565b634e487b7160e01b600052604160045260246000fd5b6040810190811067ffffffffffffffff82111761107957604052565b90601f8019910116810190811067ffffffffffffffff82111761107957604052565b5190811515820361038a57565b156110e157565b60405162461bcd60e51b8152602060048201526011602482015270151a1c995cda1bdb19081b9bdd081b595d607a1b6044820152606490fd5b1561112157565b60405162461bcd60e51b8152602060048201526009602482015268546f6f206561726c7960b81b6044820152606490fd5b6004805460005b81811061118a575050506000906040516020810181811067ffffffffffffffff821117611079576040526000815290565b61119381610fdd565b9054600391821b1c8060005260209182526040806000209160ff6006840154161561123b5760018093015462093a80810180911161124757421061123b576111da81611364565b90611d4c8210156111f45750505050506001905b01611159565b8251948501528382015280835291959490935060608601925067ffffffffffffffff8311868410176112265750529190565b604190634e487b7160e01b6000525260246000fd5b505050506001906111ee565b601188634e487b7160e01b6000525260246000fd5b81601f8201121561038a57805167ffffffffffffffff81116110795760405192611290601f8301601f1916602001856110ab565b8184526020828401011161038a576112ae9160208085019101610f95565b90565b6101408183031261038a57805192602082015167ffffffffffffffff9081811161038a57846112e191850161125c565b93604084015191821161038a576112f991840161125c565b9160608101519160808201519160a08101519160c08201519160e081015160ff8116810361038a57916112ae61012061133561010085016110cd565b93016110cd565b60ff60019116019060ff821161134e57565b634e487b7160e01b600052601160045260246000fd5b60005260036020526040600020600281015490811561139957600301546127109081810291818304149015171561134e570490565b5050600090565b3360009081527fee57cd81e84075558e8fcc182a1f4393f91fc97f963a136e66b7f949a62f319f60205260409020547f97667070c54ef182b0f5858b034beac1b6f3089aa2d3188bb1e8929f4fa9b9299060ff16156113fc5750565b6044906040519063e2517d3f60e01b82523360048301526024820152fd5b80600052600060205260406000203360005260205260ff60406000205416156113fc5750565b9060009180835282602052604083209160018060a01b03169182845260205260ff604084205416156000146114b957808352826020526040832082845260205260408320600160ff198254161790557f2f8788117e7eff1d82e926ec794901d17c78024a50270940304540a733656f0d339380a4600190565b505090565b9060009180835282602052604083209160018060a01b03169182845260205260ff6040842054166000146114b95780835282602052604083208284526020526040832060ff1981541690557ff6391f5c32d9c69d2a47ea670b442974b53935d1edc7fd64eb21e047a839171b339380a4600190565b600154604080516332665ffb60e01b81526004810184905292936001600160a01b039092169260008082602481885afa91821561165257819261162c575b5060ff82169460038610611589575b50505050505050565b803b156101a85781809160248651809481936340d57a6760e11b83528c60048401525af1801561034557606095937fd786d06dd56df8b68a470fb87593bd3d76a14eeea5cf10760563177bd21496b097959360ff936116029361161d575b5089815260036020526003858220426001820155015561133c565b8251948552166020840152820152a238808080808080611580565b61162690611065565b386115e7565b6116419192503d8084833e6103f081836110ab565b505096505050505050509038611571565b508251903d90823e3d90fd5b9060008281526020600681526040908183205460075481018091116117dc5742106117bf576109c4841015611704577f505a29c5397a0038bf34d9f7baf0047c3f5eae6323bf8450c1e34dacf7cc2a179382516116ba8161108f565b60148152733ab933b2b73a2fb830b93a34b1b4b830ba34b7b760611b83820152935b8681526006835283429120556116fb8351948486958652850190610fb8565b918301520390a2565b611770841015806117d1575b15611762577f505a29c5397a0038bf34d9f7baf0047c3f5eae6323bf8450c1e34dacf7cc2a179382516117428161108f565b600e81526d36b4b632b9ba37b732afb732b0b960911b83820152936116dc565b611b58841015806117c6575b156117bf577f505a29c5397a0038bf34d9f7baf0047c3f5eae6323bf8450c1e34dacf7cc2a179382516117a08161108f565b600d81526c70686173655f636c6f73696e6760981b83820152936116dc565b5050505050565b50611d4c841061176e565b50611d4c8410611710565b634e487b7160e01b84526011600452602484fd5b9081600052600360205260016040600020015462093a80810180911161134e57421061182f57611d4c811015611824575050565b61182d91611533565b565b505056fea2646970667358221220b269d61e42c6a295ceca99e0222b17b616499a63e8eb1a1e3a23fd193f03bc9964736f6c634300081800332f8788117e7eff1d82e926ec794901d17c78024a50270940304540a733656f0d","opcodes":"PUSH1 0x80 CALLVALUE PUSH3 0xB5 JUMPI PUSH1 0x1F PUSH3 0x1A91 CODESIZE DUP2 SWAP1 SUB SWAP2 DUP3 ADD PUSH1 0x1F NOT AND DUP4 ADD SWAP2 PUSH1 0x1 PUSH1 0x1 PUSH1 0x40 SHL SUB DUP4 GT DUP5 DUP5 LT OR PUSH3 0xBA JUMPI DUP1 DUP5 SWAP3 PUSH1 0x40 SWAP5 DUP6 MSTORE DUP4 CODECOPY DUP2 ADD SUB SLT PUSH3 0xB5 JUMPI PUSH3 0x5A PUSH1 0x20 PUSH3 0x52 DUP4 PUSH3 0xD0 JUMP JUMPDEST SWAP3 ADD PUSH3 0xD0 JUMP JUMPDEST PUSH3 0x15180 PUSH1 0x7 SSTORE PUSH1 0x1 DUP1 SLOAD PUSH1 0x1 PUSH1 0x1 PUSH1 0xA0 SHL SUB SWAP4 DUP5 AND PUSH1 0x1 PUSH1 0x1 PUSH1 0xA0 SHL SUB NOT SWAP2 DUP3 AND OR SWAP1 SWAP2 SSTORE PUSH1 0x2 DUP1 SLOAD SWAP3 SWAP1 SWAP4 AND SWAP2 AND OR SWAP1 SSTORE PUSH3 0x98 CALLER PUSH3 0xE5 JUMP JUMPDEST POP PUSH3 0xA4 CALLER PUSH3 0x165 JUMP JUMPDEST POP PUSH1 0x40 MLOAD PUSH2 0x1869 SWAP1 DUP2 PUSH3 0x208 DUP3 CODECOPY RETURN JUMPDEST PUSH1 0x0 DUP1 REVERT JUMPDEST PUSH4 0x4E487B71 PUSH1 0xE0 SHL PUSH1 0x0 MSTORE PUSH1 0x41 PUSH1 0x4 MSTORE PUSH1 0x24 PUSH1 0x0 REVERT JUMPDEST MLOAD SWAP1 PUSH1 0x1 PUSH1 0x1 PUSH1 0xA0 SHL SUB DUP3 AND DUP3 SUB PUSH3 0xB5 JUMPI JUMP JUMPDEST PUSH1 0x1 PUSH1 0x1 PUSH1 0xA0 SHL SUB AND PUSH1 0x0 DUP2 DUP2 MSTORE PUSH32 0xAD3228B676F7D3CD4284A5443F17F1962B36E491B30A40B2405849E597BA5FB5 PUSH1 0x20 MSTORE PUSH1 0x40 DUP2 KECCAK256 SLOAD SWAP1 SWAP2 SWAP1 PUSH1 0xFF AND PUSH3 0x161 JUMPI DUP2 DUP1 MSTORE DUP2 PUSH1 0x20 MSTORE PUSH1 0x40 DUP3 KECCAK256 DUP2 DUP4 MSTORE PUSH1 0x20 MSTORE PUSH1 0x40 DUP3 KECCAK256 PUSH1 0x1 PUSH1 0xFF NOT DUP3 SLOAD AND OR SWAP1 SSTORE CALLER SWAP2 PUSH1 0x0 DUP1 MLOAD PUSH1 0x20 PUSH3 0x1A71 DUP4 CODECOPY DUP2 MLOAD SWAP2 MSTORE DUP2 DUP1 LOG4 PUSH1 0x1 SWAP1 JUMP JUMPDEST POP SWAP1 JUMP JUMPDEST PUSH1 0x1 PUSH1 0x1 PUSH1 0xA0 SHL SUB AND PUSH1 0x0 DUP2 DUP2 MSTORE PUSH32 0xEE57CD81E84075558E8FCC182A1F4393F91FC97F963A136E66B7F949A62F319F PUSH1 0x20 MSTORE PUSH1 0x40 DUP2 KECCAK256 SLOAD SWAP1 SWAP2 SWAP1 PUSH32 0x97667070C54EF182B0F5858B034BEAC1B6F3089AA2D3188BB1E8929F4FA9B929 SWAP1 PUSH1 0xFF AND PUSH3 0x202 JUMPI DUP1 DUP4 MSTORE DUP3 PUSH1 0x20 MSTORE PUSH1 0x40 DUP4 KECCAK256 DUP3 DUP5 MSTORE PUSH1 0x20 MSTORE PUSH1 0x40 DUP4 KECCAK256 PUSH1 0x1 PUSH1 0xFF NOT DUP3 SLOAD AND OR SWAP1 SSTORE PUSH1 0x0 DUP1 MLOAD PUSH1 0x20 PUSH3 0x1A71 DUP4 CODECOPY DUP2 MLOAD SWAP2 MSTORE CALLER SWAP4 DUP1 LOG4 PUSH1 0x1 SWAP1 JUMP JUMPDEST POP POP SWAP1 JUMP INVALID PUSH1 0x80 PUSH1 0x40 DUP2 DUP2 MSTORE PUSH1 0x4 SWAP2 DUP3 CALLDATASIZE LT ISZERO PUSH2 0x16 JUMPI PUSH1 0x0 DUP1 REVERT JUMPDEST PUSH1 0x0 SWAP3 DUP4 CALLDATALOAD PUSH1 0xE0 SHR SWAP2 DUP3 PUSH4 0x1FFC9A7 EQ PUSH2 0xEE2 JUMPI POP DUP2 PUSH4 0x6785D8A EQ PUSH2 0xE61 JUMPI DUP2 PUSH4 0x1194F9E9 EQ PUSH2 0xE34 JUMPI DUP2 PUSH4 0x248A9CA3 EQ PUSH2 0xE0A JUMPI DUP2 PUSH4 0x2E94DFDA EQ PUSH2 0xDAA JUMPI DUP2 PUSH4 0x2F2FF15D EQ PUSH2 0xD80 JUMPI DUP2 PUSH4 0x30AE7805 EQ PUSH2 0xD63 JUMPI DUP2 PUSH4 0x313B79DA EQ PUSH2 0xCB2 JUMPI DUP2 PUSH4 0x36568ABE EQ PUSH2 0xC6C JUMPI DUP2 PUSH4 0x40AB3171 EQ PUSH2 0xA2B JUMPI DUP2 PUSH4 0x43AE2695 EQ PUSH2 0xA02 JUMPI DUP2 PUSH4 0x4585E33B EQ PUSH2 0x975 JUMPI DUP2 PUSH4 0x5513DE41 EQ PUSH2 0x957 JUMPI DUP2 PUSH4 0x5AA6E675 EQ PUSH2 0x92E JUMPI DUP2 PUSH4 0x5DA6559E EQ PUSH2 0x906 JUMPI DUP2 PUSH4 0x63E86EB8 EQ PUSH2 0x89A JUMPI DUP2 PUSH4 0x6675584F EQ PUSH2 0x87B JUMPI DUP2 PUSH4 0x6E04FF0D EQ PUSH2 0x83F JUMPI DUP2 PUSH4 0x785B2190 EQ PUSH2 0x6AE JUMPI DUP2 PUSH4 0x8085B813 EQ PUSH2 0x676 JUMPI DUP2 PUSH4 0x873F6F9E EQ PUSH2 0x630 JUMPI DUP2 PUSH4 0x8E5359E0 EQ PUSH2 0x57F JUMPI DUP2 PUSH4 0x91D14854 EQ PUSH2 0x53A JUMPI DUP2 PUSH4 0x94C9825D EQ PUSH2 0x48D JUMPI DUP2 PUSH4 0xA217FDDF EQ PUSH2 0x472 JUMPI DUP2 PUSH4 0xB415D279 EQ PUSH2 0x456 JUMPI DUP2 PUSH4 0xD547741F EQ PUSH2 0x417 JUMPI DUP2 PUSH4 0xD5612486 EQ PUSH2 0x1D6 JUMPI DUP2 PUSH4 0xF333D6C2 EQ PUSH2 0x1AC JUMPI POP PUSH4 0xF5B541A6 EQ PUSH2 0x16F JUMPI PUSH1 0x0 DUP1 REVERT JUMPDEST CALLVALUE PUSH2 0x1A8 JUMPI DUP2 PUSH1 0x3 NOT CALLDATASIZE ADD SLT PUSH2 0x1A8 JUMPI PUSH1 0x20 SWAP1 MLOAD PUSH32 0x97667070C54EF182B0F5858B034BEAC1B6F3089AA2D3188BB1E8929F4FA9B929 DUP2 MSTORE RETURN JUMPDEST POP DUP1 REVERT JUMPDEST DUP3 DUP5 CALLVALUE PUSH2 0x1D3 JUMPI PUSH1 0x20 CALLDATASIZE PUSH1 0x3 NOT ADD SLT PUSH2 0x1D3 JUMPI POP PUSH2 0x1CC PUSH1 0x20 SWAP3 CALLDATALOAD PUSH2 0x1364 JUMP JUMPDEST SWAP1 MLOAD SWAP1 DUP2 MSTORE RETURN JUMPDEST DUP1 REVERT JUMPDEST SWAP2 SWAP1 POP CALLVALUE PUSH2 0x34F JUMPI PUSH1 0x20 SWAP1 DUP2 PUSH1 0x3 NOT CALLDATASIZE ADD SLT PUSH2 0x413 JUMPI DUP3 CALLDATALOAD SWAP3 DUP5 PUSH1 0x1 DUP1 PUSH1 0xA0 SHL SUB PUSH1 0x1 SLOAD AND DUP4 MLOAD SWAP3 PUSH4 0x32665FFB PUSH1 0xE0 SHL DUP5 MSTORE DUP7 DUP2 DUP6 ADD MSTORE DUP3 DUP5 PUSH1 0x24 DUP2 DUP6 GAS STATICCALL SWAP4 DUP5 ISZERO PUSH2 0x409 JUMPI DUP4 SWAP5 PUSH2 0x3DB JUMPI JUMPDEST POP DUP5 MLOAD PUSH4 0x6EA99677 PUSH1 0xE0 SHL DUP2 MSTORE DUP2 DUP2 ADD DUP9 DUP2 MSTORE PUSH1 0xFF DUP7 AND PUSH1 0x20 DUP3 ADD MSTORE DUP8 SWAP1 DUP3 SWAP1 DUP2 SWAP1 PUSH1 0x40 ADD SUB DUP2 DUP7 GAS STATICCALL SWAP1 DUP2 ISZERO PUSH2 0x3D1 JUMPI DUP5 SWAP2 PUSH2 0x3A0 JUMPI JUMPDEST POP DUP6 MLOAD PUSH4 0x4FA6173 PUSH1 0xE0 SHL DUP2 MSTORE DUP3 DUP2 ADD DUP10 DUP2 MSTORE PUSH1 0xFF DUP8 AND PUSH1 0x20 DUP3 ADD MSTORE DUP9 SWAP1 DUP3 SWAP1 DUP2 SWAP1 PUSH1 0x40 ADD SUB DUP2 DUP8 GAS STATICCALL SWAP1 DUP2 ISZERO PUSH2 0x396 JUMPI DUP6 SWAP2 PUSH2 0x360 JUMPI JUMPDEST POP LT ISZERO DUP1 PUSH2 0x353 JUMPI JUMPDEST PUSH2 0x2A4 JUMPI DUP3 DUP1 RETURN JUMPDEST DUP2 EXTCODESIZE ISZERO PUSH2 0x34F JUMPI DUP7 PUSH1 0x24 DUP5 SWAP3 DUP4 DUP9 MLOAD SWAP6 DUP7 SWAP5 DUP6 SWAP4 PUSH4 0x40D57A67 PUSH1 0xE1 SHL DUP6 MSTORE DUP5 ADD MSTORE GAS CALL DUP1 ISZERO PUSH2 0x345 JUMPI PUSH2 0x32D JUMPI JUMPDEST POP SWAP3 DUP5 PUSH32 0x7214C5E85040CB3E35452FA6FF842070826B1D0BD195171E1C75E6D07BC1B96C SWAP5 MSTORE PUSH1 0x3 DUP2 MSTORE DUP6 PUSH1 0x3 DUP5 DUP3 KECCAK256 TIMESTAMP PUSH1 0x1 DUP3 ADD SSTORE ADD SSTORE PUSH1 0xFF PUSH2 0x315 DUP4 PUSH2 0x133C JUMP JUMPDEST DUP2 DUP6 MLOAD SWAP5 AND DUP5 MSTORE AND SWAP1 DUP3 ADD MSTORE LOG2 CODESIZE DUP1 DUP1 DUP1 DUP5 DUP2 DUP1 DUP3 DUP1 RETURN JUMPDEST PUSH2 0x336 SWAP1 PUSH2 0x1065 JUMP JUMPDEST PUSH2 0x341 JUMPI DUP5 CODESIZE PUSH2 0x2D2 JUMP JUMPDEST DUP5 DUP1 REVERT JUMPDEST DUP5 MLOAD RETURNDATASIZE DUP5 DUP3 RETURNDATACOPY RETURNDATASIZE SWAP1 REVERT JUMPDEST DUP3 DUP1 REVERT JUMPDEST POP PUSH1 0x3 PUSH1 0xFF DUP6 AND LT PUSH2 0x29C JUMP JUMPDEST DUP1 SWAP6 POP DUP9 DUP1 SWAP3 POP RETURNDATASIZE DUP4 GT PUSH2 0x38F JUMPI JUMPDEST PUSH2 0x379 DUP2 DUP4 PUSH2 0x10AB JUMP JUMPDEST DUP2 ADD SUB SLT PUSH2 0x38A JUMPI DUP9 SWAP4 MLOAD CODESIZE PUSH2 0x293 JUMP JUMPDEST PUSH1 0x0 DUP1 REVERT JUMPDEST POP RETURNDATASIZE PUSH2 0x36F JUMP JUMPDEST DUP8 MLOAD RETURNDATASIZE DUP8 DUP3 RETURNDATACOPY RETURNDATASIZE SWAP1 REVERT JUMPDEST DUP1 SWAP5 POP DUP8 DUP1 SWAP3 POP RETURNDATASIZE DUP4 GT PUSH2 0x3CA JUMPI JUMPDEST PUSH2 0x3B9 DUP2 DUP4 PUSH2 0x10AB JUMP JUMPDEST DUP2 ADD SUB SLT PUSH2 0x38A JUMPI DUP8 SWAP3 MLOAD CODESIZE PUSH2 0x25B JUMP JUMPDEST POP RETURNDATASIZE PUSH2 0x3AF JUMP JUMPDEST DUP7 MLOAD RETURNDATASIZE DUP7 DUP3 RETURNDATACOPY RETURNDATASIZE SWAP1 REVERT JUMPDEST PUSH2 0x3F8 SWAP2 SWAP5 POP RETURNDATASIZE DUP1 DUP6 DUP4 RETURNDATACOPY PUSH2 0x3F0 DUP2 DUP4 PUSH2 0x10AB JUMP JUMPDEST DUP2 ADD SWAP1 PUSH2 0x12B1 JUMP JUMPDEST POP POP SWAP7 POP POP POP POP POP POP POP SWAP3 CODESIZE PUSH2 0x223 JUMP JUMPDEST DUP6 MLOAD RETURNDATASIZE DUP6 DUP3 RETURNDATACOPY RETURNDATASIZE SWAP1 REVERT JUMPDEST DUP4 DUP1 REVERT JUMPDEST SWAP2 SWAP1 POP CALLVALUE PUSH2 0x34F JUMPI DUP1 PUSH1 0x3 NOT CALLDATASIZE ADD SLT PUSH2 0x34F JUMPI PUSH2 0x452 SWAP2 CALLDATALOAD PUSH2 0x44D PUSH1 0x1 PUSH2 0x43C PUSH2 0xF35 JUMP JUMPDEST SWAP4 DUP4 DUP8 MSTORE DUP7 PUSH1 0x20 MSTORE DUP7 KECCAK256 ADD SLOAD PUSH2 0x141A JUMP JUMPDEST PUSH2 0x14BE JUMP JUMPDEST POP DUP1 RETURN JUMPDEST POP POP CALLVALUE PUSH2 0x1A8 JUMPI DUP2 PUSH1 0x3 NOT CALLDATASIZE ADD SLT PUSH2 0x1A8 JUMPI PUSH1 0x20 SWAP1 MLOAD PUSH1 0x1 DUP2 MSTORE RETURN JUMPDEST POP POP CALLVALUE PUSH2 0x1A8 JUMPI DUP2 PUSH1 0x3 NOT CALLDATASIZE ADD SLT PUSH2 0x1A8 JUMPI MLOAD SWAP1 DUP2 MSTORE PUSH1 0x20 SWAP1 RETURN JUMPDEST SWAP1 POP CALLVALUE PUSH2 0x34F JUMPI PUSH1 0x80 CALLDATASIZE PUSH1 0x3 NOT ADD SLT PUSH2 0x34F JUMPI PUSH2 0x537 SWAP2 DUP2 PUSH32 0x63BD409A0CA0450137D1B574E1E74A5A18CC8934D8F718C1603619B971CE6737 PUSH1 0x60 PUSH1 0x2 SWAP5 CALLDATALOAD SWAP4 DUP5 SWAP4 PUSH1 0x24 CALLDATALOAD SWAP2 PUSH2 0x4DB PUSH2 0x13A0 JUMP JUMPDEST DUP6 DUP11 MSTORE PUSH1 0x3 PUSH1 0x20 MSTORE DUP1 DUP11 KECCAK256 SWAP2 PUSH2 0x4F7 PUSH1 0xFF PUSH1 0x6 DUP6 ADD SLOAD AND PUSH2 0x102A JUMP JUMPDEST DUP4 PUSH1 0x3 DUP5 ADD SSTORE PUSH1 0x44 CALLDATALOAD SWAP1 DUP4 ADD SSTORE PUSH1 0x64 CALLDATALOAD PUSH1 0x5 DUP4 ADD SSTORE PUSH2 0x515 DUP7 PUSH2 0x1364 JUMP JUMPDEST SWAP8 DUP9 SWAP3 ADD SLOAD DUP2 MLOAD SWAP4 DUP5 MSTORE PUSH1 0x20 DUP5 ADD MSTORE DUP3 ADD MSTORE LOG2 PUSH2 0x532 DUP3 DUP3 PUSH2 0x165E JUMP JUMPDEST PUSH2 0x17F0 JUMP JUMPDEST DUP1 RETURN JUMPDEST SWAP1 POP CALLVALUE PUSH2 0x34F JUMPI DUP2 PUSH1 0x3 NOT CALLDATASIZE ADD SLT PUSH2 0x34F JUMPI DUP2 PUSH1 0x20 SWAP4 PUSH2 0x558 PUSH2 0xF35 JUMP JUMPDEST SWAP3 CALLDATALOAD DUP2 MSTORE DUP1 DUP6 MSTORE KECCAK256 SWAP1 PUSH1 0x1 DUP1 PUSH1 0xA0 SHL SUB AND PUSH1 0x0 MSTORE DUP3 MSTORE PUSH1 0xFF DUP2 PUSH1 0x0 KECCAK256 SLOAD AND SWAP1 MLOAD SWAP1 ISZERO ISZERO DUP2 MSTORE RETURN JUMPDEST SWAP1 POP CALLVALUE PUSH2 0x34F JUMPI PUSH1 0x20 CALLDATASIZE PUSH1 0x3 NOT ADD SLT PUSH2 0x34F JUMPI DUP1 CALLDATALOAD SWAP2 PUSH1 0x0 DUP1 MSTORE PUSH1 0x0 PUSH1 0x20 MSTORE DUP1 PUSH1 0x0 KECCAK256 CALLER PUSH1 0x0 MSTORE PUSH1 0x20 MSTORE PUSH1 0xFF DUP2 PUSH1 0x0 KECCAK256 SLOAD AND ISZERO PUSH2 0x612 JUMPI PUSH2 0xE10 DUP4 LT ISZERO DUP1 PUSH2 0x605 JUMPI JUMPDEST ISZERO PUSH2 0x5CF JUMPI POP POP PUSH1 0x7 SSTORE DUP1 RETURN JUMPDEST SWAP1 PUSH1 0x20 PUSH1 0x64 SWAP3 MLOAD SWAP2 PUSH3 0x461BCD PUSH1 0xE5 SHL DUP4 MSTORE DUP3 ADD MSTORE PUSH1 0x10 PUSH1 0x24 DUP3 ADD MSTORE PUSH16 0x24B73B30B634B21031B7B7B63237BBB7 PUSH1 0x81 SHL PUSH1 0x44 DUP3 ADD MSTORE REVERT JUMPDEST POP PUSH3 0x93A80 DUP4 GT ISZERO PUSH2 0x5C2 JUMP JUMPDEST PUSH1 0x44 SWAP3 POP MLOAD SWAP1 PUSH4 0xE2517D3F PUSH1 0xE0 SHL DUP3 MSTORE CALLER SWAP1 DUP3 ADD MSTORE PUSH1 0x0 PUSH1 0x24 DUP3 ADD MSTORE REVERT JUMPDEST SWAP1 POP CALLVALUE PUSH2 0x34F JUMPI DUP2 PUSH1 0x3 NOT CALLDATASIZE ADD SLT PUSH2 0x34F JUMPI DUP2 PUSH1 0x20 SWAP4 PUSH2 0x64E PUSH2 0xF35 JUMP JUMPDEST SWAP3 CALLDATALOAD DUP2 MSTORE PUSH1 0x8 DUP6 MSTORE KECCAK256 SWAP1 PUSH1 0x1 DUP1 PUSH1 0xA0 SHL SUB AND PUSH1 0x0 MSTORE DUP3 MSTORE PUSH1 0xFF DUP2 PUSH1 0x0 KECCAK256 SLOAD AND SWAP1 MLOAD SWAP1 ISZERO ISZERO DUP2 MSTORE RETURN JUMPDEST DUP3 DUP5 CALLVALUE PUSH2 0x1D3 JUMPI PUSH1 0x20 CALLDATASIZE PUSH1 0x3 NOT ADD SLT PUSH2 0x1D3 JUMPI DUP3 CALLDATALOAD SWAP3 SLOAD DUP4 LT ISZERO PUSH2 0x1D3 JUMPI POP PUSH2 0x6A0 PUSH1 0x20 SWAP3 PUSH2 0xFDD JUMP JUMPDEST SWAP2 SWAP1 SLOAD SWAP1 MLOAD SWAP2 PUSH1 0x3 SHL SHR DUP2 MSTORE RETURN JUMPDEST DUP4 DUP4 CALLVALUE PUSH2 0x1A8 JUMPI DUP1 PUSH1 0x3 NOT CALLDATASIZE ADD SLT PUSH2 0x38A JUMPI DUP3 CALLDATALOAD SWAP1 PUSH2 0x6CB PUSH2 0x13A0 JUMP JUMPDEST DUP2 DUP4 MSTORE PUSH1 0x5 PUSH1 0x20 MSTORE PUSH1 0xFF DUP2 DUP5 KECCAK256 SLOAD AND PUSH2 0x80A JUMPI DUP1 MLOAD SWAP1 PUSH1 0xE0 DUP3 ADD DUP3 DUP2 LT PUSH8 0xFFFFFFFFFFFFFFFF DUP3 GT OR PUSH2 0x7F5 JUMPI DUP2 MSTORE DUP3 DUP3 MSTORE PUSH1 0x6 PUSH1 0x20 DUP4 ADD SWAP3 TIMESTAMP DUP5 MSTORE DUP3 DUP2 ADD PUSH1 0x24 CALLDATALOAD DUP2 MSTORE PUSH1 0x60 DUP3 ADD DUP8 DUP2 MSTORE PUSH1 0x80 DUP4 ADD SWAP1 DUP9 DUP3 MSTORE PUSH1 0xA0 DUP5 ADD SWAP3 DUP10 DUP5 MSTORE PUSH1 0xC0 DUP6 ADD SWAP8 PUSH1 0x1 DUP10 MSTORE DUP10 DUP12 MSTORE PUSH1 0x3 PUSH1 0x20 MSTORE DUP8 DUP12 KECCAK256 SWAP6 MLOAD DUP7 SSTORE MLOAD PUSH1 0x1 DUP7 ADD SSTORE MLOAD PUSH1 0x2 DUP6 ADD SSTORE MLOAD PUSH1 0x3 DUP5 ADD SSTORE MLOAD DUP9 DUP4 ADD SSTORE MLOAD PUSH1 0x5 DUP3 ADD SSTORE ADD SWAP2 MLOAD ISZERO ISZERO SWAP2 PUSH1 0xFF NOT SWAP3 PUSH1 0xFF DUP5 DUP4 SLOAD AND SWAP2 AND OR SWAP1 SSTORE DUP5 SLOAD PUSH9 0x10000000000000000 DUP2 LT ISZERO PUSH2 0x7E2 JUMPI SWAP1 PUSH2 0x795 DUP3 DUP8 PUSH1 0x1 DUP1 SWAP6 ADD SWAP1 SSTORE PUSH2 0xFDD JUMP JUMPDEST DUP2 SLOAD SWAP1 PUSH1 0x3 SHL SWAP1 DUP7 DUP3 SHL SWAP2 PUSH1 0x0 NOT SWAP1 SHL NOT AND OR SWAP1 SSTORE DUP4 DUP6 MSTORE PUSH1 0x5 PUSH1 0x20 MSTORE DUP5 KECCAK256 SWAP2 DUP3 SLOAD AND OR SWAP1 SSTORE PUSH32 0x3621586063592251ACF2253A10FE8119554DBB0BF93D6E875B85A3A66A2166B9 DUP3 DUP1 LOG2 DUP1 RETURN JUMPDEST PUSH4 0x4E487B71 PUSH1 0xE0 SHL DUP6 MSTORE PUSH1 0x41 DUP7 MSTORE PUSH1 0x24 DUP6 REVERT JUMPDEST PUSH1 0x41 DUP7 PUSH4 0x4E487B71 PUSH1 0xE0 SHL PUSH1 0x0 MSTORE MSTORE PUSH1 0x24 PUSH1 0x0 REVERT JUMPDEST MLOAD PUSH3 0x461BCD PUSH1 0xE5 SHL DUP2 MSTORE PUSH1 0x20 DUP2 DUP6 ADD MSTORE PUSH1 0x10 PUSH1 0x24 DUP3 ADD MSTORE PUSH16 0x416C726561647920747261636B696E67 PUSH1 0x80 SHL PUSH1 0x44 DUP3 ADD MSTORE PUSH1 0x64 SWAP1 REVERT JUMPDEST DUP3 DUP5 CALLVALUE PUSH2 0x1D3 JUMPI POP PUSH2 0x850 CALLDATASIZE PUSH2 0xF4B JUMP JUMPDEST POP POP PUSH2 0x877 PUSH2 0x85D PUSH2 0x1152 JUMP JUMPDEST DUP4 SWAP3 SWAP2 SWAP3 MLOAD SWAP4 DUP5 SWAP4 ISZERO ISZERO DUP5 MSTORE DUP1 PUSH1 0x20 DUP6 ADD MSTORE DUP4 ADD SWAP1 PUSH2 0xFB8 JUMP JUMPDEST SUB SWAP1 RETURN JUMPDEST POP POP CALLVALUE PUSH2 0x1A8 JUMPI DUP2 PUSH1 0x3 NOT CALLDATASIZE ADD SLT PUSH2 0x1A8 JUMPI PUSH1 0x20 SWAP1 PUSH1 0x7 SLOAD SWAP1 MLOAD SWAP1 DUP2 MSTORE RETURN JUMPDEST SWAP1 POP CALLVALUE PUSH2 0x34F JUMPI PUSH1 0x20 CALLDATASIZE PUSH1 0x3 NOT ADD SLT PUSH2 0x34F JUMPI DUP2 PUSH1 0xE0 SWAP4 DUP3 CALLDATALOAD DUP2 MSTORE PUSH1 0x3 PUSH1 0x20 MSTORE KECCAK256 DUP1 SLOAD SWAP3 PUSH1 0x1 DUP3 ADD SLOAD SWAP3 PUSH1 0x2 DUP4 ADD SLOAD PUSH1 0x3 DUP5 ADD SLOAD SWAP2 DUP5 ADD SLOAD SWAP3 PUSH1 0xFF PUSH1 0x6 PUSH1 0x5 DUP8 ADD SLOAD SWAP7 ADD SLOAD AND SWAP6 DUP2 MLOAD SWAP8 DUP9 MSTORE PUSH1 0x20 DUP9 ADD MSTORE DUP7 ADD MSTORE PUSH1 0x60 DUP6 ADD MSTORE PUSH1 0x80 DUP5 ADD MSTORE PUSH1 0xA0 DUP4 ADD MSTORE ISZERO ISZERO PUSH1 0xC0 DUP3 ADD MSTORE RETURN JUMPDEST SWAP1 POP CALLVALUE PUSH2 0x34F JUMPI PUSH1 0x20 CALLDATASIZE PUSH1 0x3 NOT ADD SLT PUSH2 0x34F JUMPI PUSH1 0x20 SWAP3 DUP3 SWAP2 CALLDATALOAD DUP2 MSTORE PUSH1 0x6 DUP5 MSTORE KECCAK256 SLOAD SWAP1 MLOAD SWAP1 DUP2 MSTORE RETURN JUMPDEST POP POP CALLVALUE PUSH2 0x1A8 JUMPI DUP2 PUSH1 0x3 NOT CALLDATASIZE ADD SLT PUSH2 0x1A8 JUMPI PUSH1 0x2 SLOAD SWAP1 MLOAD PUSH1 0x1 PUSH1 0x1 PUSH1 0xA0 SHL SUB SWAP1 SWAP2 AND DUP2 MSTORE PUSH1 0x20 SWAP1 RETURN JUMPDEST POP POP CALLVALUE PUSH2 0x1A8 JUMPI DUP2 PUSH1 0x3 NOT CALLDATASIZE ADD SLT PUSH2 0x1A8 JUMPI PUSH1 0x20 SWAP1 MLOAD PUSH3 0x93A80 DUP2 MSTORE RETURN JUMPDEST DUP4 DUP4 CALLVALUE PUSH2 0x1A8 JUMPI DUP1 PUSH2 0x986 CALLDATASIZE PUSH2 0xF4B JUMP JUMPDEST SWAP1 DUP1 SWAP3 SWAP2 DUP2 ADD SUB SLT PUSH2 0x38A JUMPI PUSH1 0x1 SWAP1 CALLDATALOAD SWAP2 DUP3 DUP5 MSTORE PUSH1 0x3 PUSH1 0x20 MSTORE DUP4 KECCAK256 PUSH2 0x9B1 PUSH1 0xFF PUSH1 0x6 DUP4 ADD SLOAD AND PUSH2 0x102A JUMP JUMPDEST ADD SLOAD SWAP3 PUSH3 0x93A80 DUP5 ADD DUP1 SWAP5 GT PUSH2 0x9EF JUMPI POP PUSH2 0x9D2 PUSH2 0x537 SWAP3 SWAP4 TIMESTAMP LT ISZERO PUSH2 0x111A JUMP JUMPDEST PUSH2 0x9DB DUP2 PUSH2 0x1364 JUMP JUMPDEST SWAP1 PUSH2 0x9EA PUSH2 0x1D4C DUP4 LT ISZERO PUSH2 0x10DA JUMP JUMPDEST PUSH2 0x1533 JUMP JUMPDEST PUSH4 0x4E487B71 PUSH1 0xE0 SHL DUP4 MSTORE PUSH1 0x11 SWAP1 MSTORE PUSH1 0x24 DUP3 REVERT JUMPDEST POP POP CALLVALUE PUSH2 0x1A8 JUMPI DUP2 PUSH1 0x3 NOT CALLDATASIZE ADD SLT PUSH2 0x1A8 JUMPI PUSH1 0x1 SLOAD SWAP1 MLOAD PUSH1 0x1 PUSH1 0x1 PUSH1 0xA0 SHL SUB SWAP1 SWAP2 AND DUP2 MSTORE PUSH1 0x20 SWAP1 RETURN JUMPDEST SWAP2 SWAP1 POP CALLVALUE PUSH2 0x34F JUMPI PUSH1 0x20 DUP1 PUSH1 0x3 NOT CALLDATASIZE ADD SLT PUSH2 0x413 JUMPI DUP3 CALLDATALOAD SWAP2 PUSH1 0x1 DUP1 PUSH1 0xA0 SHL SUB SWAP4 PUSH1 0x1 SWAP5 PUSH1 0x24 DUP5 DUP3 DUP9 SLOAD AND DUP6 MLOAD SWAP3 DUP4 DUP1 SWAP3 PUSH4 0x4D8C928D PUSH1 0xE1 SHL DUP3 MSTORE CALLER DUP9 DUP4 ADD MSTORE GAS STATICCALL SWAP1 DUP2 ISZERO PUSH2 0xC62 JUMPI DUP9 SWAP2 PUSH2 0xC29 JUMPI JUMPDEST POP ISZERO PUSH2 0xBF5 JUMPI DUP5 DUP8 MSTORE PUSH1 0x8 DUP5 MSTORE DUP3 DUP8 KECCAK256 CALLER DUP9 MSTORE DUP5 MSTORE PUSH1 0xFF DUP4 DUP9 KECCAK256 SLOAD AND PUSH2 0xBC1 JUMPI DUP5 DUP8 MSTORE PUSH1 0x3 DUP5 MSTORE DUP6 DUP4 DUP9 KECCAK256 PUSH2 0xAB5 PUSH1 0xFF PUSH1 0x6 DUP4 ADD SLOAD AND PUSH2 0x102A JUMP JUMPDEST PUSH2 0xACB PUSH2 0x1D4C PUSH2 0xAC4 DUP10 PUSH2 0x1364 JUMP JUMPDEST LT ISZERO PUSH2 0x10DA JUMP JUMPDEST ADD SLOAD PUSH3 0x93A80 DUP2 ADD DUP1 SWAP2 GT PUSH2 0xBAE JUMPI SWAP1 PUSH2 0xAE8 DUP9 SWAP3 TIMESTAMP LT ISZERO PUSH2 0x111A JUMP JUMPDEST DUP6 DUP3 MSTORE PUSH1 0x8 DUP6 MSTORE DUP4 DUP3 KECCAK256 CALLER DUP4 MSTORE DUP6 MSTORE DUP4 DUP3 KECCAK256 DUP1 SLOAD PUSH1 0xFF NOT AND DUP9 OR SWAP1 SSTORE DUP7 SLOAD AND SWAP2 DUP3 EXTCODESIZE ISZERO PUSH2 0x1A8 JUMPI PUSH1 0x64 DUP7 SWAP2 DUP4 DUP7 MLOAD SWAP6 DUP7 SWAP5 DUP6 SWAP4 PUSH4 0x46B40CDF PUSH1 0xE1 SHL DUP6 MSTORE DUP5 ADD MSTORE CALLER PUSH1 0x24 DUP5 ADD MSTORE DUP11 PUSH1 0x44 DUP5 ADD MSTORE GAS CALL DUP1 ISZERO PUSH2 0xBA4 JUMPI PUSH2 0xB6F JUMPI JUMPDEST POP SWAP1 PUSH32 0x89E1649E796BC46C9DCD5FD4505F79BFDD9197C8ECCBDBAF05A6BFD1CB9EA09B SWAP2 MLOAD SWAP4 DUP5 MSTORE CALLER SWAP4 LOG3 DUP1 RETURN JUMPDEST SWAP5 PUSH2 0xB9C PUSH32 0x89E1649E796BC46C9DCD5FD4505F79BFDD9197C8ECCBDBAF05A6BFD1CB9EA09B SWAP4 SWAP3 SWAP7 PUSH2 0x1065 JUMP JUMPDEST SWAP5 SWAP1 SWAP2 PUSH2 0xB41 JUMP JUMPDEST DUP3 MLOAD RETURNDATASIZE DUP9 DUP3 RETURNDATACOPY RETURNDATASIZE SWAP1 REVERT JUMPDEST PUSH4 0x4E487B71 PUSH1 0xE0 SHL DUP9 MSTORE PUSH1 0x11 DUP4 MSTORE PUSH1 0x24 DUP9 REVERT JUMPDEST POP DUP3 PUSH1 0x64 SWAP3 MLOAD SWAP2 PUSH3 0x461BCD PUSH1 0xE5 SHL DUP4 MSTORE DUP3 ADD MSTORE PUSH1 0xF PUSH1 0x24 DUP3 ADD MSTORE PUSH15 0x105B1C9958591E4818DB185A5B5959 PUSH1 0x8A SHL PUSH1 0x44 DUP3 ADD MSTORE REVERT JUMPDEST POP DUP3 PUSH1 0x64 SWAP3 MLOAD SWAP2 PUSH3 0x461BCD PUSH1 0xE5 SHL DUP4 MSTORE DUP3 ADD MSTORE PUSH1 0xF PUSH1 0x24 DUP3 ADD MSTORE PUSH15 0x139BDD081DDA1A5D195B1A5CDD1959 PUSH1 0x8A SHL PUSH1 0x44 DUP3 ADD MSTORE REVERT JUMPDEST SWAP1 POP DUP5 DUP2 DUP2 RETURNDATASIZE DUP4 GT PUSH2 0xC5B JUMPI JUMPDEST PUSH2 0xC40 DUP2 DUP4 PUSH2 0x10AB JUMP JUMPDEST DUP2 ADD SUB SLT PUSH2 0xC57 JUMPI PUSH2 0xC51 SWAP1 PUSH2 0x10CD JUMP JUMPDEST CODESIZE PUSH2 0xA7A JUMP JUMPDEST DUP8 DUP1 REVERT JUMPDEST POP RETURNDATASIZE PUSH2 0xC36 JUMP JUMPDEST DUP5 MLOAD RETURNDATASIZE DUP11 DUP3 RETURNDATACOPY RETURNDATASIZE SWAP1 REVERT JUMPDEST DUP4 DUP4 CALLVALUE PUSH2 0x1A8 JUMPI DUP1 PUSH1 0x3 NOT CALLDATASIZE ADD SLT PUSH2 0x1A8 JUMPI PUSH2 0xC86 PUSH2 0xF35 JUMP JUMPDEST SWAP1 CALLER PUSH1 0x1 PUSH1 0x1 PUSH1 0xA0 SHL SUB DUP4 AND SUB PUSH2 0xCA3 JUMPI POP PUSH2 0x452 SWAP2 SWAP3 CALLDATALOAD PUSH2 0x14BE JUMP JUMPDEST MLOAD PUSH4 0x334BD919 PUSH1 0xE1 SHL DUP2 MSTORE DUP4 SWAP1 REVERT JUMPDEST SWAP1 POP DUP3 CALLVALUE PUSH2 0x1D3 JUMPI DUP1 PUSH1 0x3 NOT CALLDATASIZE ADD SLT PUSH2 0x1D3 JUMPI SWAP2 SWAP1 DUP2 MLOAD SWAP3 DUP4 DUP3 SLOAD DUP1 DUP7 MSTORE PUSH1 0x20 DUP1 SWAP7 ADD SWAP1 DUP2 SWAP5 DUP5 MSTORE PUSH32 0x8A35ACFBC15FF81A39AE7D344FD709F28E8600B4AA8C65C6B64BFE7FE36BD19B SWAP1 DUP5 JUMPDEST DUP2 DUP2 LT PUSH2 0xD4F JUMPI POP POP POP DUP2 PUSH2 0xD14 SWAP2 SUB DUP3 PUSH2 0x10AB JUMP JUMPDEST DUP4 MLOAD SWAP5 DUP6 SWAP5 DUP2 DUP7 ADD SWAP3 DUP3 DUP8 MSTORE MLOAD DUP1 SWAP4 MSTORE DUP6 ADD SWAP4 SWAP3 JUMPDEST DUP3 DUP2 LT PUSH2 0xD38 JUMPI POP POP POP POP SUB SWAP1 RETURN JUMPDEST DUP4 MLOAD DUP6 MSTORE DUP7 SWAP6 POP SWAP4 DUP2 ADD SWAP4 SWAP3 DUP2 ADD SWAP3 PUSH1 0x1 ADD PUSH2 0xD29 JUMP JUMPDEST DUP3 SLOAD DUP5 MSTORE SWAP3 DUP9 ADD SWAP3 PUSH1 0x1 SWAP3 DUP4 ADD SWAP3 ADD PUSH2 0xCFE JUMP JUMPDEST POP POP CALLVALUE PUSH2 0x1A8 JUMPI DUP2 PUSH1 0x3 NOT CALLDATASIZE ADD SLT PUSH2 0x1A8 JUMPI PUSH1 0x20 SWAP1 MLOAD PUSH2 0x1D4C DUP2 MSTORE RETURN JUMPDEST SWAP2 SWAP1 POP CALLVALUE PUSH2 0x34F JUMPI DUP1 PUSH1 0x3 NOT CALLDATASIZE ADD SLT PUSH2 0x34F JUMPI PUSH2 0x452 SWAP2 CALLDATALOAD PUSH2 0xDA5 PUSH1 0x1 PUSH2 0x43C PUSH2 0xF35 JUMP JUMPDEST PUSH2 0x1440 JUMP JUMPDEST DUP4 DUP4 CALLVALUE PUSH2 0x1A8 JUMPI PUSH1 0x20 CALLDATASIZE PUSH1 0x3 NOT ADD SLT PUSH2 0x1A8 JUMPI DUP1 PUSH1 0xA0 SWAP4 CALLDATALOAD SWAP3 DUP4 DUP2 MSTORE PUSH1 0x3 PUSH1 0x20 MSTORE KECCAK256 PUSH1 0x1 DUP2 ADD SLOAD SWAP3 PUSH1 0x2 DUP3 ADD SLOAD SWAP3 PUSH1 0xFF PUSH1 0x6 PUSH2 0xDEA PUSH1 0x3 DUP7 ADD SLOAD SWAP5 PUSH2 0x1364 JUMP JUMPDEST SWAP5 ADD SLOAD AND SWAP4 DUP2 MLOAD SWAP6 DUP7 MSTORE PUSH1 0x20 DUP7 ADD MSTORE DUP5 ADD MSTORE PUSH1 0x60 DUP4 ADD MSTORE ISZERO ISZERO PUSH1 0x80 DUP3 ADD MSTORE RETURN JUMPDEST SWAP1 POP CALLVALUE PUSH2 0x34F JUMPI PUSH1 0x20 CALLDATASIZE PUSH1 0x3 NOT ADD SLT PUSH2 0x34F JUMPI DUP2 PUSH1 0x20 SWAP4 PUSH1 0x1 SWAP3 CALLDATALOAD DUP2 MSTORE DUP1 DUP6 MSTORE KECCAK256 ADD SLOAD SWAP1 MLOAD SWAP1 DUP2 MSTORE RETURN JUMPDEST SWAP1 POP CALLVALUE PUSH2 0x34F JUMPI PUSH1 0x20 CALLDATASIZE PUSH1 0x3 NOT ADD SLT PUSH2 0x34F JUMPI DUP2 PUSH1 0x20 SWAP4 PUSH1 0xFF SWAP3 CALLDATALOAD DUP2 MSTORE PUSH1 0x5 DUP6 MSTORE KECCAK256 SLOAD AND SWAP1 MLOAD SWAP1 ISZERO ISZERO DUP2 MSTORE RETURN JUMPDEST SWAP1 POP CALLVALUE PUSH2 0x34F JUMPI PUSH1 0x20 CALLDATASIZE PUSH1 0x3 NOT ADD SLT PUSH2 0x34F JUMPI CALLDATALOAD SWAP1 PUSH2 0xE7E PUSH2 0x13A0 JUMP JUMPDEST DUP2 DUP4 MSTORE PUSH1 0x5 PUSH1 0x20 MSTORE PUSH2 0xE95 PUSH1 0xFF DUP3 DUP6 KECCAK256 SLOAD AND PUSH2 0x102A JUMP JUMPDEST DUP2 DUP4 MSTORE PUSH1 0x3 PUSH1 0x20 MSTORE PUSH1 0x6 DUP2 DUP5 KECCAK256 ADD SWAP1 PUSH1 0xFF NOT SWAP2 DUP3 DUP2 SLOAD AND SWAP1 SSTORE PUSH1 0x5 PUSH1 0x20 MSTORE DUP4 KECCAK256 SWAP1 DUP2 SLOAD AND SWAP1 SSTORE PUSH32 0x96FBF803F14DA8437E0CBE34DF7152F998DBC3B7E2343C52FB4285E90387A9CA DUP3 DUP1 LOG2 DUP1 RETURN JUMPDEST DUP5 SWAP2 CALLVALUE PUSH2 0x34F JUMPI PUSH1 0x20 CALLDATASIZE PUSH1 0x3 NOT ADD SLT PUSH2 0x34F JUMPI CALLDATALOAD PUSH4 0xFFFFFFFF PUSH1 0xE0 SHL DUP2 AND DUP1 SWAP2 SUB PUSH2 0x34F JUMPI PUSH1 0x20 SWAP3 POP PUSH4 0x7965DB0B PUSH1 0xE0 SHL DUP2 EQ SWAP1 DUP2 ISZERO PUSH2 0xF24 JUMPI JUMPDEST POP ISZERO ISZERO DUP2 MSTORE RETURN JUMPDEST PUSH4 0x1FFC9A7 PUSH1 0xE0 SHL EQ SWAP1 POP DUP4 PUSH2 0xF1D JUMP JUMPDEST PUSH1 0x24 CALLDATALOAD SWAP1 PUSH1 0x1 PUSH1 0x1 PUSH1 0xA0 SHL SUB DUP3 AND DUP3 SUB PUSH2 0x38A JUMPI JUMP JUMPDEST SWAP1 PUSH1 0x20 PUSH1 0x3 NOT DUP4 ADD SLT PUSH2 0x38A JUMPI PUSH1 0x4 CALLDATALOAD PUSH8 0xFFFFFFFFFFFFFFFF SWAP3 DUP4 DUP3 GT PUSH2 0x38A JUMPI DUP1 PUSH1 0x23 DUP4 ADD SLT ISZERO PUSH2 0x38A JUMPI DUP2 PUSH1 0x4 ADD CALLDATALOAD SWAP4 DUP5 GT PUSH2 0x38A JUMPI PUSH1 0x24 DUP5 DUP4 ADD ADD GT PUSH2 0x38A JUMPI PUSH1 0x24 ADD SWAP2 SWAP1 JUMP JUMPDEST PUSH1 0x0 JUMPDEST DUP4 DUP2 LT PUSH2 0xFA8 JUMPI POP POP PUSH1 0x0 SWAP2 ADD MSTORE JUMP JUMPDEST DUP2 DUP2 ADD MLOAD DUP4 DUP3 ADD MSTORE PUSH1 0x20 ADD PUSH2 0xF98 JUMP JUMPDEST SWAP1 PUSH1 0x20 SWAP2 PUSH2 0xFD1 DUP2 MLOAD DUP1 SWAP3 DUP2 DUP6 MSTORE DUP6 DUP1 DUP7 ADD SWAP2 ADD PUSH2 0xF95 JUMP JUMPDEST PUSH1 0x1F ADD PUSH1 0x1F NOT AND ADD ADD SWAP1 JUMP JUMPDEST PUSH1 0x4 SLOAD DUP2 LT ISZERO PUSH2 0x1014 JUMPI PUSH1 0x4 PUSH1 0x0 MSTORE PUSH32 0x8A35ACFBC15FF81A39AE7D344FD709F28E8600B4AA8C65C6B64BFE7FE36BD19B ADD SWAP1 PUSH1 0x0 SWAP1 JUMP JUMPDEST PUSH4 0x4E487B71 PUSH1 0xE0 SHL PUSH1 0x0 MSTORE PUSH1 0x32 PUSH1 0x4 MSTORE PUSH1 0x24 PUSH1 0x0 REVERT JUMPDEST ISZERO PUSH2 0x1031 JUMPI JUMP JUMPDEST PUSH1 0x40 MLOAD PUSH3 0x461BCD PUSH1 0xE5 SHL DUP2 MSTORE PUSH1 0x20 PUSH1 0x4 DUP3 ADD MSTORE PUSH1 0xC PUSH1 0x24 DUP3 ADD MSTORE PUSH12 0x4E6F7420747261636B696E67 PUSH1 0xA0 SHL PUSH1 0x44 DUP3 ADD MSTORE PUSH1 0x64 SWAP1 REVERT JUMPDEST PUSH8 0xFFFFFFFFFFFFFFFF DUP2 GT PUSH2 0x1079 JUMPI PUSH1 0x40 MSTORE JUMP JUMPDEST PUSH4 0x4E487B71 PUSH1 0xE0 SHL PUSH1 0x0 MSTORE PUSH1 0x41 PUSH1 0x4 MSTORE PUSH1 0x24 PUSH1 0x0 REVERT JUMPDEST PUSH1 0x40 DUP2 ADD SWAP1 DUP2 LT PUSH8 0xFFFFFFFFFFFFFFFF DUP3 GT OR PUSH2 0x1079 JUMPI PUSH1 0x40 MSTORE JUMP JUMPDEST SWAP1 PUSH1 0x1F DUP1 NOT SWAP2 ADD AND DUP2 ADD SWAP1 DUP2 LT PUSH8 0xFFFFFFFFFFFFFFFF DUP3 GT OR PUSH2 0x1079 JUMPI PUSH1 0x40 MSTORE JUMP JUMPDEST MLOAD SWAP1 DUP2 ISZERO ISZERO DUP3 SUB PUSH2 0x38A JUMPI JUMP JUMPDEST ISZERO PUSH2 0x10E1 JUMPI JUMP JUMPDEST PUSH1 0x40 MLOAD PUSH3 0x461BCD PUSH1 0xE5 SHL DUP2 MSTORE PUSH1 0x20 PUSH1 0x4 DUP3 ADD MSTORE PUSH1 0x11 PUSH1 0x24 DUP3 ADD MSTORE PUSH17 0x151A1C995CDA1BDB19081B9BDD081B595D PUSH1 0x7A SHL PUSH1 0x44 DUP3 ADD MSTORE PUSH1 0x64 SWAP1 REVERT JUMPDEST ISZERO PUSH2 0x1121 JUMPI JUMP JUMPDEST PUSH1 0x40 MLOAD PUSH3 0x461BCD PUSH1 0xE5 SHL DUP2 MSTORE PUSH1 0x20 PUSH1 0x4 DUP3 ADD MSTORE PUSH1 0x9 PUSH1 0x24 DUP3 ADD MSTORE PUSH9 0x546F6F206561726C79 PUSH1 0xB8 SHL PUSH1 0x44 DUP3 ADD MSTORE PUSH1 0x64 SWAP1 REVERT JUMPDEST PUSH1 0x4 DUP1 SLOAD PUSH1 0x0 JUMPDEST DUP2 DUP2 LT PUSH2 0x118A JUMPI POP POP POP PUSH1 0x0 SWAP1 PUSH1 0x40 MLOAD PUSH1 0x20 DUP2 ADD DUP2 DUP2 LT PUSH8 0xFFFFFFFFFFFFFFFF DUP3 GT OR PUSH2 0x1079 JUMPI PUSH1 0x40 MSTORE PUSH1 0x0 DUP2 MSTORE SWAP1 JUMP JUMPDEST PUSH2 0x1193 DUP2 PUSH2 0xFDD JUMP JUMPDEST SWAP1 SLOAD PUSH1 0x3 SWAP2 DUP3 SHL SHR DUP1 PUSH1 0x0 MSTORE PUSH1 0x20 SWAP2 DUP3 MSTORE PUSH1 0x40 DUP1 PUSH1 0x0 KECCAK256 SWAP2 PUSH1 0xFF PUSH1 0x6 DUP5 ADD SLOAD AND ISZERO PUSH2 0x123B JUMPI PUSH1 0x1 DUP1 SWAP4 ADD SLOAD PUSH3 0x93A80 DUP2 ADD DUP1 SWAP2 GT PUSH2 0x1247 JUMPI TIMESTAMP LT PUSH2 0x123B JUMPI PUSH2 0x11DA DUP2 PUSH2 0x1364 JUMP JUMPDEST SWAP1 PUSH2 0x1D4C DUP3 LT ISZERO PUSH2 0x11F4 JUMPI POP POP POP POP POP PUSH1 0x1 SWAP1 JUMPDEST ADD PUSH2 0x1159 JUMP JUMPDEST DUP3 MLOAD SWAP5 DUP6 ADD MSTORE DUP4 DUP3 ADD MSTORE DUP1 DUP4 MSTORE SWAP2 SWAP6 SWAP5 SWAP1 SWAP4 POP PUSH1 0x60 DUP7 ADD SWAP3 POP PUSH8 0xFFFFFFFFFFFFFFFF DUP4 GT DUP7 DUP5 LT OR PUSH2 0x1226 JUMPI POP MSTORE SWAP2 SWAP1 JUMP JUMPDEST PUSH1 0x41 SWAP1 PUSH4 0x4E487B71 PUSH1 0xE0 SHL PUSH1 0x0 MSTORE MSTORE PUSH1 0x24 PUSH1 0x0 REVERT JUMPDEST POP POP POP POP PUSH1 0x1 SWAP1 PUSH2 0x11EE JUMP JUMPDEST PUSH1 0x11 DUP9 PUSH4 0x4E487B71 PUSH1 0xE0 SHL PUSH1 0x0 MSTORE MSTORE PUSH1 0x24 PUSH1 0x0 REVERT JUMPDEST DUP2 PUSH1 0x1F DUP3 ADD SLT ISZERO PUSH2 0x38A JUMPI DUP1 MLOAD PUSH8 0xFFFFFFFFFFFFFFFF DUP2 GT PUSH2 0x1079 JUMPI PUSH1 0x40 MLOAD SWAP3 PUSH2 0x1290 PUSH1 0x1F DUP4 ADD PUSH1 0x1F NOT AND PUSH1 0x20 ADD DUP6 PUSH2 0x10AB JUMP JUMPDEST DUP2 DUP5 MSTORE PUSH1 0x20 DUP3 DUP5 ADD ADD GT PUSH2 0x38A JUMPI PUSH2 0x12AE SWAP2 PUSH1 0x20 DUP1 DUP6 ADD SWAP2 ADD PUSH2 0xF95 JUMP JUMPDEST SWAP1 JUMP JUMPDEST PUSH2 0x140 DUP2 DUP4 SUB SLT PUSH2 0x38A JUMPI DUP1 MLOAD SWAP3 PUSH1 0x20 DUP3 ADD MLOAD PUSH8 0xFFFFFFFFFFFFFFFF SWAP1 DUP2 DUP2 GT PUSH2 0x38A JUMPI DUP5 PUSH2 0x12E1 SWAP2 DUP6 ADD PUSH2 0x125C JUMP JUMPDEST SWAP4 PUSH1 0x40 DUP5 ADD MLOAD SWAP2 DUP3 GT PUSH2 0x38A JUMPI PUSH2 0x12F9 SWAP2 DUP5 ADD PUSH2 0x125C JUMP JUMPDEST SWAP2 PUSH1 0x60 DUP2 ADD MLOAD SWAP2 PUSH1 0x80 DUP3 ADD MLOAD SWAP2 PUSH1 0xA0 DUP2 ADD MLOAD SWAP2 PUSH1 0xC0 DUP3 ADD MLOAD SWAP2 PUSH1 0xE0 DUP2 ADD MLOAD PUSH1 0xFF DUP2 AND DUP2 SUB PUSH2 0x38A JUMPI SWAP2 PUSH2 0x12AE PUSH2 0x120 PUSH2 0x1335 PUSH2 0x100 DUP6 ADD PUSH2 0x10CD JUMP JUMPDEST SWAP4 ADD PUSH2 0x10CD JUMP JUMPDEST PUSH1 0xFF PUSH1 0x1 SWAP2 AND ADD SWAP1 PUSH1 0xFF DUP3 GT PUSH2 0x134E JUMPI JUMP JUMPDEST PUSH4 0x4E487B71 PUSH1 0xE0 SHL PUSH1 0x0 MSTORE PUSH1 0x11 PUSH1 0x4 MSTORE PUSH1 0x24 PUSH1 0x0 REVERT JUMPDEST PUSH1 0x0 MSTORE PUSH1 0x3 PUSH1 0x20 MSTORE PUSH1 0x40 PUSH1 0x0 KECCAK256 PUSH1 0x2 DUP2 ADD SLOAD SWAP1 DUP2 ISZERO PUSH2 0x1399 JUMPI PUSH1 0x3 ADD SLOAD PUSH2 0x2710 SWAP1 DUP2 DUP2 MUL SWAP2 DUP2 DUP4 DIV EQ SWAP1 ISZERO OR ISZERO PUSH2 0x134E JUMPI DIV SWAP1 JUMP JUMPDEST POP POP PUSH1 0x0 SWAP1 JUMP JUMPDEST CALLER PUSH1 0x0 SWAP1 DUP2 MSTORE PUSH32 0xEE57CD81E84075558E8FCC182A1F4393F91FC97F963A136E66B7F949A62F319F PUSH1 0x20 MSTORE PUSH1 0x40 SWAP1 KECCAK256 SLOAD PUSH32 0x97667070C54EF182B0F5858B034BEAC1B6F3089AA2D3188BB1E8929F4FA9B929 SWAP1 PUSH1 0xFF AND ISZERO PUSH2 0x13FC JUMPI POP JUMP JUMPDEST PUSH1 0x44 SWAP1 PUSH1 0x40 MLOAD SWAP1 PUSH4 0xE2517D3F PUSH1 0xE0 SHL DUP3 MSTORE CALLER PUSH1 0x4 DUP4 ADD MSTORE PUSH1 0x24 DUP3 ADD MSTORE REVERT JUMPDEST DUP1 PUSH1 0x0 MSTORE PUSH1 0x0 PUSH1 0x20 MSTORE PUSH1 0x40 PUSH1 0x0 KECCAK256 CALLER PUSH1 0x0 MSTORE PUSH1 0x20 MSTORE PUSH1 0xFF PUSH1 0x40 PUSH1 0x0 KECCAK256 SLOAD AND ISZERO PUSH2 0x13FC JUMPI POP JUMP JUMPDEST SWAP1 PUSH1 0x0 SWAP2 DUP1 DUP4 MSTORE DUP3 PUSH1 0x20 MSTORE PUSH1 0x40 DUP4 KECCAK256 SWAP2 PUSH1 0x1 DUP1 PUSH1 0xA0 SHL SUB AND SWAP2 DUP3 DUP5 MSTORE PUSH1 0x20 MSTORE PUSH1 0xFF PUSH1 0x40 DUP5 KECCAK256 SLOAD AND ISZERO PUSH1 0x0 EQ PUSH2 0x14B9 JUMPI DUP1 DUP4 MSTORE DUP3 PUSH1 0x20 MSTORE PUSH1 0x40 DUP4 KECCAK256 DUP3 DUP5 MSTORE PUSH1 0x20 MSTORE PUSH1 0x40 DUP4 KECCAK256 PUSH1 0x1 PUSH1 0xFF NOT DUP3 SLOAD AND OR SWAP1 SSTORE PUSH32 0x2F8788117E7EFF1D82E926EC794901D17C78024A50270940304540A733656F0D CALLER SWAP4 DUP1 LOG4 PUSH1 0x1 SWAP1 JUMP JUMPDEST POP POP SWAP1 JUMP JUMPDEST SWAP1 PUSH1 0x0 SWAP2 DUP1 DUP4 MSTORE DUP3 PUSH1 0x20 MSTORE PUSH1 0x40 DUP4 KECCAK256 SWAP2 PUSH1 0x1 DUP1 PUSH1 0xA0 SHL SUB AND SWAP2 DUP3 DUP5 MSTORE PUSH1 0x20 MSTORE PUSH1 0xFF PUSH1 0x40 DUP5 KECCAK256 SLOAD AND PUSH1 0x0 EQ PUSH2 0x14B9 JUMPI DUP1 DUP4 MSTORE DUP3 PUSH1 0x20 MSTORE PUSH1 0x40 DUP4 KECCAK256 DUP3 DUP5 MSTORE PUSH1 0x20 MSTORE PUSH1 0x40 DUP4 KECCAK256 PUSH1 0xFF NOT DUP2 SLOAD AND SWAP1 SSTORE PUSH32 0xF6391F5C32D9C69D2A47EA670B442974B53935D1EDC7FD64EB21E047A839171B CALLER SWAP4 DUP1 LOG4 PUSH1 0x1 SWAP1 JUMP JUMPDEST PUSH1 0x1 SLOAD PUSH1 0x40 DUP1 MLOAD PUSH4 0x32665FFB PUSH1 0xE0 SHL DUP2 MSTORE PUSH1 0x4 DUP2 ADD DUP5 SWAP1 MSTORE SWAP3 SWAP4 PUSH1 0x1 PUSH1 0x1 PUSH1 0xA0 SHL SUB SWAP1 SWAP3 AND SWAP3 PUSH1 0x0 DUP1 DUP3 PUSH1 0x24 DUP2 DUP9 GAS STATICCALL SWAP2 DUP3 ISZERO PUSH2 0x1652 JUMPI DUP2 SWAP3 PUSH2 0x162C JUMPI JUMPDEST POP PUSH1 0xFF DUP3 AND SWAP5 PUSH1 0x3 DUP7 LT PUSH2 0x1589 JUMPI JUMPDEST POP POP POP POP POP POP POP JUMP JUMPDEST DUP1 EXTCODESIZE ISZERO PUSH2 0x1A8 JUMPI DUP2 DUP1 SWAP2 PUSH1 0x24 DUP7 MLOAD DUP1 SWAP5 DUP2 SWAP4 PUSH4 0x40D57A67 PUSH1 0xE1 SHL DUP4 MSTORE DUP13 PUSH1 0x4 DUP5 ADD MSTORE GAS CALL DUP1 ISZERO PUSH2 0x345 JUMPI PUSH1 0x60 SWAP6 SWAP4 PUSH32 0xD786D06DD56DF8B68A470FB87593BD3D76A14EEEA5CF10760563177BD21496B0 SWAP8 SWAP6 SWAP4 PUSH1 0xFF SWAP4 PUSH2 0x1602 SWAP4 PUSH2 0x161D JUMPI JUMPDEST POP DUP10 DUP2 MSTORE PUSH1 0x3 PUSH1 0x20 MSTORE PUSH1 0x3 DUP6 DUP3 KECCAK256 TIMESTAMP PUSH1 0x1 DUP3 ADD SSTORE ADD SSTORE PUSH2 0x133C JUMP JUMPDEST DUP3 MLOAD SWAP5 DUP6 MSTORE AND PUSH1 0x20 DUP5 ADD MSTORE DUP3 ADD MSTORE LOG2 CODESIZE DUP1 DUP1 DUP1 DUP1 DUP1 DUP1 PUSH2 0x1580 JUMP JUMPDEST PUSH2 0x1626 SWAP1 PUSH2 0x1065 JUMP JUMPDEST CODESIZE PUSH2 0x15E7 JUMP JUMPDEST PUSH2 0x1641 SWAP2 SWAP3 POP RETURNDATASIZE DUP1 DUP5 DUP4 RETURNDATACOPY PUSH2 0x3F0 DUP2 DUP4 PUSH2 0x10AB JUMP JUMPDEST POP POP SWAP7 POP POP POP POP POP POP POP SWAP1 CODESIZE PUSH2 0x1571 JUMP JUMPDEST POP DUP3 MLOAD SWAP1 RETURNDATASIZE SWAP1 DUP3 RETURNDATACOPY RETURNDATASIZE SWAP1 REVERT JUMPDEST SWAP1 PUSH1 0x0 DUP3 DUP2 MSTORE PUSH1 0x20 PUSH1 0x6 DUP2 MSTORE PUSH1 0x40 SWAP1 DUP2 DUP4 KECCAK256 SLOAD PUSH1 0x7 SLOAD DUP2 ADD DUP1 SWAP2 GT PUSH2 0x17DC JUMPI TIMESTAMP LT PUSH2 0x17BF JUMPI PUSH2 0x9C4 DUP5 LT ISZERO PUSH2 0x1704 JUMPI PUSH32 0x505A29C5397A0038BF34D9F7BAF0047C3F5EAE6323BF8450C1E34DACF7CC2A17 SWAP4 DUP3 MLOAD PUSH2 0x16BA DUP2 PUSH2 0x108F JUMP JUMPDEST PUSH1 0x14 DUP2 MSTORE PUSH20 0x3AB933B2B73A2FB830B93A34B1B4B830BA34B7B7 PUSH1 0x61 SHL DUP4 DUP3 ADD MSTORE SWAP4 JUMPDEST DUP7 DUP2 MSTORE PUSH1 0x6 DUP4 MSTORE DUP4 TIMESTAMP SWAP2 KECCAK256 SSTORE PUSH2 0x16FB DUP4 MLOAD SWAP5 DUP5 DUP7 SWAP6 DUP7 MSTORE DUP6 ADD SWAP1 PUSH2 0xFB8 JUMP JUMPDEST SWAP2 DUP4 ADD MSTORE SUB SWAP1 LOG2 JUMP JUMPDEST PUSH2 0x1770 DUP5 LT ISZERO DUP1 PUSH2 0x17D1 JUMPI JUMPDEST ISZERO PUSH2 0x1762 JUMPI PUSH32 0x505A29C5397A0038BF34D9F7BAF0047C3F5EAE6323BF8450C1E34DACF7CC2A17 SWAP4 DUP3 MLOAD PUSH2 0x1742 DUP2 PUSH2 0x108F JUMP JUMPDEST PUSH1 0xE DUP2 MSTORE PUSH14 0x36B4B632B9BA37B732AFB732B0B9 PUSH1 0x91 SHL DUP4 DUP3 ADD MSTORE SWAP4 PUSH2 0x16DC JUMP JUMPDEST PUSH2 0x1B58 DUP5 LT ISZERO DUP1 PUSH2 0x17C6 JUMPI JUMPDEST ISZERO PUSH2 0x17BF JUMPI PUSH32 0x505A29C5397A0038BF34D9F7BAF0047C3F5EAE6323BF8450C1E34DACF7CC2A17 SWAP4 DUP3 MLOAD PUSH2 0x17A0 DUP2 PUSH2 0x108F JUMP JUMPDEST PUSH1 0xD DUP2 MSTORE PUSH13 0x70686173655F636C6F73696E67 PUSH1 0x98 SHL DUP4 DUP3 ADD MSTORE SWAP4 PUSH2 0x16DC JUMP JUMPDEST POP POP POP POP POP JUMP JUMPDEST POP PUSH2 0x1D4C DUP5 LT PUSH2 0x176E JUMP JUMPDEST POP PUSH2 0x1D4C DUP5 LT PUSH2 0x1710 JUMP JUMPDEST PUSH4 0x4E487B71 PUSH1 0xE0 SHL DUP5 MSTORE PUSH1 0x11 PUSH1 0x4 MSTORE PUSH1 0x24 DUP5 REVERT JUMPDEST SWAP1 DUP2 PUSH1 0x0 MSTORE PUSH1 0x3 PUSH1 0x20 MSTORE PUSH1 0x1 PUSH1 0x40 PUSH1 0x0 KECCAK256 ADD SLOAD PUSH3 0x93A80 DUP2 ADD DUP1 SWAP2 GT PUSH2 0x134E JUMPI TIMESTAMP LT PUSH2 0x182F JUMPI PUSH2 0x1D4C DUP2 LT ISZERO PUSH2 0x1824 JUMPI POP POP JUMP JUMPDEST PUSH2 0x182D SWAP2 PUSH2 0x1533 JUMP JUMPDEST JUMP JUMPDEST POP POP JUMP INVALID LOG2 PUSH5 0x6970667358 0x22 SLT KECCAK256 0xB2 PUSH10 0xD61E42C6A295CECA99E0 0x22 0x2B OR 0xB6 AND BLOBHASH SWAP11 PUSH4 0xE8EB1A1E GASPRICE 0x23 REVERT NOT EXTCODEHASH SUB 0xBC SWAP10 PUSH5 0x736F6C6343 STOP ADDMOD XOR STOP CALLER 0x2F DUP8 DUP9 GT PUSH31 0x7EFF1D82E926EC794901D17C78024A50270940304540A733656F0D00000000 "},"methodIdentifiers":{"BONUS_TOKENS()":"b415d279","DEFAULT_ADMIN_ROLE()":"a217fddf","ENGAGEMENT_THRESHOLD()":"30ae7805","MIN_ENGAGEMENT_PERIOD()":"5513de41","OPERATOR_ROLE()":"f5b541a6","calculateEngagement(uint256)":"f333d6c2","checkSubscriptionAdvancement(uint256)":"d5612486","checkUpkeep(bytes)":"6e04ff0d","claimEngagementBonus(uint256)":"40ab3171","getEngagement(uint256)":"2e94dfda","getRoleAdmin(bytes32)":"248a9ca3","getTrackedProperties()":"313b79da","governance()":"5aa6e675","grantRole(bytes32,address)":"2f2ff15d","hasClaimed(uint256,address)":"873f6f9e","hasRole(bytes32,address)":"91d14854","isTracked(uint256)":"1194f9e9","lastNudgeTime(uint256)":"5da6559e","nudgeCooldown()":"6675584f","performUpkeep(bytes)":"4585e33b","propertyEngagement(uint256)":"63e86eb8","propertyToken()":"43ae2695","renounceRole(bytes32,address)":"36568abe","revokeRole(bytes32,address)":"d547741f","setNudgeCooldown(uint256)":"8e5359e0","startTracking(uint256,uint256)":"785b2190","stopTracking(uint256)":"06785d8a","supportsInterface(bytes4)":"01ffc9a7","trackedProperties(uint256)":"8085b813","updateEngagement(uint256,uint256,uint256,uint256)":"94c9825d"}}}}}