{"contracts/Governance.sol":{"Governance":{"abi":[{"inputs":[{"internalType":"address","name":"_propertyToken","type":"address"}],"stateMutability":"nonpayable","type":"constructor"},{"inputs":[],"name":"AccessControlBadConfirmation","type":"error"},{"inputs":[{"internalType":"address","name":"account","type":"address"},{"internalType":"bytes32","name":"neededRole","type":"bytes32"}],"name":"AccessControlUnauthorizedAccount","type":"error"},{"inputs":[],"name":"ECDSAInvalidSignature","type":"error"},{"inputs":[{"internalType":"uint256","name":"length","type":"uint256"}],"name":"ECDSAInvalidSignatureLength","type":"error"},{"inputs":[{"internalType":"bytes32","name":"s","type":"bytes32"}],"name":"ECDSAInvalidSignatureS","type":"error"},{"inputs":[],"name":"ReentrancyGuardReentrantCall","type":"error"},{"anonymous":false,"inputs":[{"indexed":false,"internalType":"uint256[4]","name":"demandBars","type":"uint256[4]"}],"name":"DemandSnapshotTaken","type":"event"},{"anonymous":false,"inputs":[{"indexed":true,"internalType":"enum Governance.ProposalType","name":"proposalType","type":"uint8"},{"indexed":false,"internalType":"uint256","name":"demandWeight","type":"uint256"},{"indexed":false,"internalType":"uint256","name":"demandBps","type":"uint256"}],"name":"DemandUpdated","type":"event"},{"anonymous":false,"inputs":[{"indexed":true,"internalType":"uint256","name":"proposalId","type":"uint256"},{"indexed":true,"internalType":"address","name":"voter","type":"address"},{"indexed":false,"internalType":"uint8","name":"support","type":"uint8"},{"indexed":false,"internalType":"uint256","name":"weight","type":"uint256"},{"indexed":false,"internalType":"address","name":"relayer","type":"address"}],"name":"OffChainVoteCast","type":"event"},{"anonymous":false,"inputs":[{"indexed":true,"internalType":"uint256","name":"pollId","type":"uint256"},{"indexed":true,"internalType":"uint256","name":"proposalId","type":"uint256"}],"name":"PollConvertedToProposal","type":"event"},{"anonymous":false,"inputs":[{"indexed":true,"internalType":"uint256","name":"pollId","type":"uint256"},{"indexed":true,"internalType":"uint256","name":"propertyId","type":"uint256"},{"indexed":false,"internalType":"address","name":"creator","type":"address"},{"indexed":false,"internalType":"string","name":"question","type":"string"}],"name":"PollCreated","type":"event"},{"anonymous":false,"inputs":[{"indexed":true,"internalType":"uint256","name":"pollId","type":"uint256"},{"indexed":false,"internalType":"uint256","name":"votesFor","type":"uint256"},{"indexed":false,"internalType":"uint256","name":"votesAgainst","type":"uint256"}],"name":"PollEnded","type":"event"},{"anonymous":false,"inputs":[{"indexed":true,"internalType":"uint256","name":"pollId","type":"uint256"},{"indexed":true,"internalType":"address","name":"voter","type":"address"},{"indexed":false,"internalType":"bool","name":"support","type":"bool"}],"name":"PollVoteCast","type":"event"},{"anonymous":false,"inputs":[{"indexed":true,"internalType":"uint256","name":"proposalId","type":"uint256"}],"name":"ProposalCancelled","type":"event"},{"anonymous":false,"inputs":[{"indexed":true,"internalType":"uint256","name":"proposalId","type":"uint256"},{"indexed":true,"internalType":"uint256","name":"propertyId","type":"uint256"},{"indexed":false,"internalType":"address","name":"proposer","type":"address"},{"indexed":false,"internalType":"enum Governance.ProposalType","name":"proposalType","type":"uint8"},{"indexed":false,"internalType":"string","name":"title","type":"string"}],"name":"ProposalCreated","type":"event"},{"anonymous":false,"inputs":[{"indexed":true,"internalType":"uint256","name":"proposalId","type":"uint256"}],"name":"ProposalExecuted","type":"event"},{"anonymous":false,"inputs":[{"indexed":true,"internalType":"bytes32","name":"role","type":"bytes32"},{"indexed":true,"internalType":"bytes32","name":"previousAdminRole","type":"bytes32"},{"indexed":true,"internalType":"bytes32","name":"newAdminRole","type":"bytes32"}],"name":"RoleAdminChanged","type":"event"},{"anonymous":false,"inputs":[{"indexed":true,"internalType":"bytes32","name":"role","type":"bytes32"},{"indexed":true,"internalType":"address","name":"account","type":"address"},{"indexed":true,"internalType":"address","name":"sender","type":"address"}],"name":"RoleGranted","type":"event"},{"anonymous":false,"inputs":[{"indexed":true,"internalType":"bytes32","name":"role","type":"bytes32"},{"indexed":true,"internalType":"address","name":"account","type":"address"},{"indexed":true,"internalType":"address","name":"sender","type":"address"}],"name":"RoleRevoked","type":"event"},{"anonymous":false,"inputs":[{"indexed":true,"internalType":"uint256","name":"proposalId","type":"uint256"},{"indexed":true,"internalType":"address","name":"voter","type":"address"},{"indexed":false,"internalType":"uint8","name":"support","type":"uint8"},{"indexed":false,"internalType":"uint256","name":"weight","type":"uint256"}],"name":"VoteCast","type":"event"},{"anonymous":false,"inputs":[{"indexed":false,"internalType":"uint256","name":"newBonus","type":"uint256"}],"name":"VoteToEarnBonusUpdated","type":"event"},{"anonymous":false,"inputs":[{"indexed":false,"internalType":"uint256","name":"newPeriod","type":"uint256"}],"name":"VotingPeriodUpdated","type":"event"},{"inputs":[],"name":"DEFAULT_ADMIN_ROLE","outputs":[{"internalType":"bytes32","name":"","type":"bytes32"}],"stateMutability":"view","type":"function"},{"inputs":[],"name":"DEMAND_QUORUM_BOOST","outputs":[{"internalType":"uint256","name":"","type":"uint256"}],"stateMutability":"view","type":"function"},{"inputs":[],"name":"DEMAND_QUORUM_BOOST_THRESHOLD","outputs":[{"internalType":"uint256","name":"","type":"uint256"}],"stateMutability":"view","type":"function"},{"inputs":[],"name":"DOMAIN_SEPARATOR","outputs":[{"internalType":"bytes32","name":"","type":"bytes32"}],"stateMutability":"view","type":"function"},{"inputs":[],"name":"EXECUTOR_ROLE","outputs":[{"internalType":"bytes32","name":"","type":"bytes32"}],"stateMutability":"view","type":"function"},{"inputs":[],"name":"POLL_PROPOSAL_THRESHOLD","outputs":[{"internalType":"uint256","name":"","type":"uint256"}],"stateMutability":"view","type":"function"},{"inputs":[],"name":"POLL_QUORUM_BONUS","outputs":[{"internalType":"uint256","name":"","type":"uint256"}],"stateMutability":"view","type":"function"},{"inputs":[],"name":"PROPOSER_ROLE","outputs":[{"internalType":"bytes32","name":"","type":"bytes32"}],"stateMutability":"view","type":"function"},{"inputs":[],"name":"QUORUM_EMERGENCY","outputs":[{"internalType":"uint256","name":"","type":"uint256"}],"stateMutability":"view","type":"function"},{"inputs":[],"name":"QUORUM_PARAMETER","outputs":[{"internalType":"uint256","name":"","type":"uint256"}],"stateMutability":"view","type":"function"},{"inputs":[],"name":"QUORUM_PROPERTY","outputs":[{"internalType":"uint256","name":"","type":"uint256"}],"stateMutability":"view","type":"function"},{"inputs":[],"name":"QUORUM_TREASURY","outputs":[{"internalType":"uint256","name":"","type":"uint256"}],"stateMutability":"view","type":"function"},{"inputs":[],"name":"RELAYER_ROLE","outputs":[{"internalType":"bytes32","name":"","type":"bytes32"}],"stateMutability":"view","type":"function"},{"inputs":[],"name":"VOTE_TYPEHASH","outputs":[{"internalType":"bytes32","name":"","type":"bytes32"}],"stateMutability":"view","type":"function"},{"inputs":[{"internalType":"uint256","name":"proposalId","type":"uint256"}],"name":"cancelProposal","outputs":[],"stateMutability":"nonpayable","type":"function"},{"inputs":[{"internalType":"uint256","name":"proposalId","type":"uint256"},{"internalType":"uint8","name":"support","type":"uint8"}],"name":"castVote","outputs":[],"stateMutability":"nonpayable","type":"function"},{"inputs":[{"internalType":"uint256","name":"proposalId","type":"uint256"},{"internalType":"uint8","name":"support","type":"uint8"},{"internalType":"address","name":"voter","type":"address"},{"internalType":"uint256","name":"deadline","type":"uint256"},{"internalType":"uint8","name":"v","type":"uint8"},{"internalType":"bytes32","name":"r","type":"bytes32"},{"internalType":"bytes32","name":"s","type":"bytes32"}],"name":"castVoteBySignature","outputs":[],"stateMutability":"nonpayable","type":"function"},{"inputs":[{"internalType":"uint256","name":"propertyId","type":"uint256"},{"internalType":"string","name":"question","type":"string"},{"internalType":"string","name":"description","type":"string"},{"internalType":"string","name":"ipfsHash","type":"string"},{"internalType":"uint256","name":"duration","type":"uint256"}],"name":"createPoll","outputs":[{"internalType":"uint256","name":"","type":"uint256"}],"stateMutability":"nonpayable","type":"function"},{"inputs":[{"internalType":"uint256","name":"propertyId","type":"uint256"},{"internalType":"enum Governance.ProposalType","name":"proposalType","type":"uint8"},{"internalType":"string","name":"title","type":"string"},{"internalType":"string","name":"description","type":"string"},{"internalType":"string","name":"ipfsHash","type":"string"},{"internalType":"bytes","name":"executionData","type":"bytes"},{"internalType":"string","name":"impactReportIPFS","type":"string"},{"internalType":"uint256","name":"impactScore","type":"uint256"}],"name":"createProposal","outputs":[{"internalType":"uint256","name":"","type":"uint256"}],"stateMutability":"nonpayable","type":"function"},{"inputs":[{"internalType":"uint256","name":"pollId","type":"uint256"},{"internalType":"enum Governance.ProposalType","name":"proposalType","type":"uint8"},{"internalType":"bytes","name":"executionData","type":"bytes"},{"internalType":"string","name":"impactReportIPFS","type":"string"},{"internalType":"uint256","name":"impactScore","type":"uint256"}],"name":"createProposalFromPoll","outputs":[{"internalType":"uint256","name":"","type":"uint256"}],"stateMutability":"nonpayable","type":"function"},{"inputs":[{"internalType":"enum Governance.ProposalType","name":"","type":"uint8"}],"name":"demandSnapshots","outputs":[{"internalType":"uint256","name":"","type":"uint256"}],"stateMutability":"view","type":"function"},{"inputs":[{"internalType":"uint256","name":"pollId","type":"uint256"}],"name":"endPoll","outputs":[],"stateMutability":"nonpayable","type":"function"},{"inputs":[{"internalType":"uint256","name":"proposalId","type":"uint256"}],"name":"executeProposal","outputs":[],"stateMutability":"nonpayable","type":"function"},{"inputs":[{"internalType":"uint256","name":"proposalId","type":"uint256"}],"name":"finalizeProposal","outputs":[],"stateMutability":"nonpayable","type":"function"},{"inputs":[{"internalType":"uint256","name":"propertyId","type":"uint256"}],"name":"getActivePolls","outputs":[{"components":[{"internalType":"uint256","name":"id","type":"uint256"},{"internalType":"uint256","name":"propertyId","type":"uint256"},{"internalType":"address","name":"creator","type":"address"},{"internalType":"string","name":"question","type":"string"},{"internalType":"string","name":"description","type":"string"},{"internalType":"string","name":"ipfsHash","type":"string"},{"internalType":"uint256","name":"votesFor","type":"uint256"},{"internalType":"uint256","name":"votesAgainst","type":"uint256"},{"internalType":"uint256","name":"startTime","type":"uint256"},{"internalType":"uint256","name":"endTime","type":"uint256"},{"internalType":"enum Governance.PollStatus","name":"status","type":"uint8"},{"internalType":"uint256","name":"linkedProposalId","type":"uint256"}],"internalType":"struct Governance.Poll[]","name":"","type":"tuple[]"}],"stateMutability":"view","type":"function"},{"inputs":[{"internalType":"uint256","name":"propertyId","type":"uint256"}],"name":"getActiveProposals","outputs":[{"components":[{"internalType":"uint256","name":"id","type":"uint256"},{"internalType":"uint256","name":"propertyId","type":"uint256"},{"internalType":"address","name":"proposer","type":"address"},{"internalType":"enum Governance.ProposalType","name":"proposalType","type":"uint8"},{"internalType":"string","name":"title","type":"string"},{"internalType":"string","name":"description","type":"string"},{"internalType":"string","name":"ipfsHash","type":"string"},{"internalType":"uint256","name":"votesFor","type":"uint256"},{"internalType":"uint256","name":"votesAgainst","type":"uint256"},{"internalType":"uint256","name":"votesAbstain","type":"uint256"},{"internalType":"uint256","name":"startTime","type":"uint256"},{"internalType":"uint256","name":"endTime","type":"uint256"},{"internalType":"uint256","name":"quorumRequired","type":"uint256"},{"internalType":"enum Governance.ProposalStatus","name":"status","type":"uint8"},{"internalType":"bytes","name":"executionData","type":"bytes"},{"internalType":"string","name":"impactReportIPFS","type":"string"},{"internalType":"uint256","name":"impactScore","type":"uint256"}],"internalType":"struct Governance.Proposal[]","name":"","type":"tuple[]"}],"stateMutability":"view","type":"function"},{"inputs":[],"name":"getCommunityHealthScore","outputs":[{"internalType":"uint256","name":"healthScore","type":"uint256"}],"stateMutability":"view","type":"function"},{"inputs":[],"name":"getDemandBars","outputs":[{"internalType":"uint256[4]","name":"bars","type":"uint256[4]"}],"stateMutability":"view","type":"function"},{"inputs":[{"internalType":"enum Governance.ProposalType","name":"proposalType","type":"uint8"}],"name":"getDemandForType","outputs":[{"internalType":"uint256","name":"weight","type":"uint256"},{"internalType":"uint256","name":"bps","type":"uint256"}],"stateMutability":"view","type":"function"},{"inputs":[{"internalType":"enum Governance.ProposalType","name":"proposalType","type":"uint8"}],"name":"getEffectiveQuorum","outputs":[{"internalType":"uint256","name":"","type":"uint256"}],"stateMutability":"view","type":"function"},{"inputs":[{"internalType":"uint256","name":"proposalId","type":"uint256"}],"name":"getImpactReport","outputs":[{"internalType":"string","name":"ipfsHash","type":"string"},{"internalType":"uint256","name":"impactScore","type":"uint256"}],"stateMutability":"view","type":"function"},{"inputs":[{"internalType":"address","name":"voter","type":"address"}],"name":"getNonce","outputs":[{"internalType":"uint256","name":"","type":"uint256"}],"stateMutability":"view","type":"function"},{"inputs":[{"internalType":"uint256","name":"pollId","type":"uint256"}],"name":"getPoll","outputs":[{"components":[{"internalType":"uint256","name":"id","type":"uint256"},{"internalType":"uint256","name":"propertyId","type":"uint256"},{"internalType":"address","name":"creator","type":"address"},{"internalType":"string","name":"question","type":"string"},{"internalType":"string","name":"description","type":"string"},{"internalType":"string","name":"ipfsHash","type":"string"},{"internalType":"uint256","name":"votesFor","type":"uint256"},{"internalType":"uint256","name":"votesAgainst","type":"uint256"},{"internalType":"uint256","name":"startTime","type":"uint256"},{"internalType":"uint256","name":"endTime","type":"uint256"},{"internalType":"enum Governance.PollStatus","name":"status","type":"uint8"},{"internalType":"uint256","name":"linkedProposalId","type":"uint256"}],"internalType":"struct Governance.Poll","name":"","type":"tuple"}],"stateMutability":"view","type":"function"},{"inputs":[{"internalType":"uint256","name":"pollId","type":"uint256"}],"name":"getPollSupport","outputs":[{"internalType":"uint256","name":"","type":"uint256"}],"stateMutability":"view","type":"function"},{"inputs":[{"internalType":"uint256","name":"proposalId","type":"uint256"}],"name":"getProposal","outputs":[{"components":[{"internalType":"uint256","name":"id","type":"uint256"},{"internalType":"uint256","name":"propertyId","type":"uint256"},{"internalType":"address","name":"proposer","type":"address"},{"internalType":"enum Governance.ProposalType","name":"proposalType","type":"uint8"},{"internalType":"string","name":"title","type":"string"},{"internalType":"string","name":"description","type":"string"},{"internalType":"string","name":"ipfsHash","type":"string"},{"internalType":"uint256","name":"votesFor","type":"uint256"},{"internalType":"uint256","name":"votesAgainst","type":"uint256"},{"internalType":"uint256","name":"votesAbstain","type":"uint256"},{"internalType":"uint256","name":"startTime","type":"uint256"},{"internalType":"uint256","name":"endTime","type":"uint256"},{"internalType":"uint256","name":"quorumRequired","type":"uint256"},{"internalType":"enum Governance.ProposalStatus","name":"status","type":"uint8"},{"internalType":"bytes","name":"executionData","type":"bytes"},{"internalType":"string","name":"impactReportIPFS","type":"string"},{"internalType":"uint256","name":"impactScore","type":"uint256"}],"internalType":"struct Governance.Proposal","name":"","type":"tuple"}],"stateMutability":"view","type":"function"},{"inputs":[{"internalType":"bytes32","name":"role","type":"bytes32"}],"name":"getRoleAdmin","outputs":[{"internalType":"bytes32","name":"","type":"bytes32"}],"stateMutability":"view","type":"function"},{"inputs":[{"internalType":"uint256","name":"proposalId","type":"uint256"},{"internalType":"address","name":"voter","type":"address"}],"name":"getVote","outputs":[{"components":[{"internalType":"bool","name":"hasVoted","type":"bool"},{"internalType":"uint8","name":"support","type":"uint8"},{"internalType":"uint256","name":"weight","type":"uint256"}],"internalType":"struct Governance.Vote","name":"","type":"tuple"}],"stateMutability":"view","type":"function"},{"inputs":[{"internalType":"address","name":"voter","type":"address"}],"name":"getVoteToEarnBonus","outputs":[{"internalType":"uint256","name":"","type":"uint256"}],"stateMutability":"view","type":"function"},{"inputs":[{"internalType":"bytes32","name":"role","type":"bytes32"},{"internalType":"address","name":"account","type":"address"}],"name":"grantRole","outputs":[],"stateMutability":"nonpayable","type":"function"},{"inputs":[{"internalType":"bytes32","name":"role","type":"bytes32"},{"internalType":"address","name":"account","type":"address"}],"name":"hasRole","outputs":[{"internalType":"bool","name":"","type":"bool"}],"stateMutability":"view","type":"function"},{"inputs":[{"internalType":"address","name":"","type":"address"}],"name":"lastVoteTimestamp","outputs":[{"internalType":"uint256","name":"","type":"uint256"}],"stateMutability":"view","type":"function"},{"inputs":[{"internalType":"address","name":"","type":"address"}],"name":"nonces","outputs":[{"internalType":"uint256","name":"","type":"uint256"}],"stateMutability":"view","type":"function"},{"inputs":[],"name":"pollCount","outputs":[{"internalType":"uint256","name":"","type":"uint256"}],"stateMutability":"view","type":"function"},{"inputs":[{"internalType":"uint256","name":"","type":"uint256"}],"name":"pollParticipants","outputs":[{"internalType":"uint256","name":"","type":"uint256"}],"stateMutability":"view","type":"function"},{"inputs":[{"internalType":"uint256","name":"","type":"uint256"},{"internalType":"address","name":"","type":"address"}],"name":"pollVotes","outputs":[{"internalType":"bool","name":"hasVoted","type":"bool"},{"internalType":"bool","name":"support","type":"bool"}],"stateMutability":"view","type":"function"},{"inputs":[{"internalType":"uint256","name":"","type":"uint256"}],"name":"polls","outputs":[{"internalType":"uint256","name":"id","type":"uint256"},{"internalType":"uint256","name":"propertyId","type":"uint256"},{"internalType":"address","name":"creator","type":"address"},{"internalType":"string","name":"question","type":"string"},{"internalType":"string","name":"description","type":"string"},{"internalType":"string","name":"ipfsHash","type":"string"},{"internalType":"uint256","name":"votesFor","type":"uint256"},{"internalType":"uint256","name":"votesAgainst","type":"uint256"},{"internalType":"uint256","name":"startTime","type":"uint256"},{"internalType":"uint256","name":"endTime","type":"uint256"},{"internalType":"enum Governance.PollStatus","name":"status","type":"uint8"},{"internalType":"uint256","name":"linkedProposalId","type":"uint256"}],"stateMutability":"view","type":"function"},{"inputs":[],"name":"propertyToken","outputs":[{"internalType":"contract IPropertyToken","name":"","type":"address"}],"stateMutability":"view","type":"function"},{"inputs":[],"name":"proposalCount","outputs":[{"internalType":"uint256","name":"","type":"uint256"}],"stateMutability":"view","type":"function"},{"inputs":[{"internalType":"uint256","name":"","type":"uint256"}],"name":"proposals","outputs":[{"internalType":"uint256","name":"id","type":"uint256"},{"internalType":"uint256","name":"propertyId","type":"uint256"},{"internalType":"address","name":"proposer","type":"address"},{"internalType":"enum Governance.ProposalType","name":"proposalType","type":"uint8"},{"internalType":"string","name":"title","type":"string"},{"internalType":"string","name":"description","type":"string"},{"internalType":"string","name":"ipfsHash","type":"string"},{"internalType":"uint256","name":"votesFor","type":"uint256"},{"internalType":"uint256","name":"votesAgainst","type":"uint256"},{"internalType":"uint256","name":"votesAbstain","type":"uint256"},{"internalType":"uint256","name":"startTime","type":"uint256"},{"internalType":"uint256","name":"endTime","type":"uint256"},{"internalType":"uint256","name":"quorumRequired","type":"uint256"},{"internalType":"enum Governance.ProposalStatus","name":"status","type":"uint8"},{"internalType":"bytes","name":"executionData","type":"bytes"},{"internalType":"string","name":"impactReportIPFS","type":"string"},{"internalType":"uint256","name":"impactScore","type":"uint256"}],"stateMutability":"view","type":"function"},{"inputs":[{"internalType":"bytes32","name":"role","type":"bytes32"},{"internalType":"address","name":"callerConfirmation","type":"address"}],"name":"renounceRole","outputs":[],"stateMutability":"nonpayable","type":"function"},{"inputs":[{"internalType":"bytes32","name":"role","type":"bytes32"},{"internalType":"address","name":"account","type":"address"}],"name":"revokeRole","outputs":[],"stateMutability":"nonpayable","type":"function"},{"inputs":[{"internalType":"uint256","name":"newBonus","type":"uint256"}],"name":"setVoteToEarnBonus","outputs":[],"stateMutability":"nonpayable","type":"function"},{"inputs":[{"internalType":"uint256","name":"newPeriod","type":"uint256"}],"name":"setVotingPeriod","outputs":[],"stateMutability":"nonpayable","type":"function"},{"inputs":[{"internalType":"bytes4","name":"interfaceId","type":"bytes4"}],"name":"supportsInterface","outputs":[{"internalType":"bool","name":"","type":"bool"}],"stateMutability":"view","type":"function"},{"inputs":[],"name":"takeDemandSnapshot","outputs":[],"stateMutability":"nonpayable","type":"function"},{"inputs":[],"name":"totalDemandWeight","outputs":[{"internalType":"uint256","name":"","type":"uint256"}],"stateMutability":"view","type":"function"},{"inputs":[{"internalType":"uint256","name":"","type":"uint256"}],"name":"totalVotingPower","outputs":[{"internalType":"uint256","name":"","type":"uint256"}],"stateMutability":"view","type":"function"},{"inputs":[{"internalType":"enum Governance.ProposalType","name":"","type":"uint8"}],"name":"typeDemandWeights","outputs":[{"internalType":"uint256","name":"","type":"uint256"}],"stateMutability":"view","type":"function"},{"inputs":[{"internalType":"uint256","name":"pollId","type":"uint256"},{"internalType":"bool","name":"support","type":"bool"}],"name":"votePoll","outputs":[],"stateMutability":"nonpayable","type":"function"},{"inputs":[],"name":"voteToEarnBonus","outputs":[{"internalType":"uint256","name":"","type":"uint256"}],"stateMutability":"view","type":"function"},{"inputs":[{"internalType":"address","name":"","type":"address"}],"name":"voterParticipationCount","outputs":[{"internalType":"uint256","name":"","type":"uint256"}],"stateMutability":"view","type":"function"},{"inputs":[{"internalType":"uint256","name":"","type":"uint256"},{"internalType":"address","name":"","type":"address"}],"name":"votes","outputs":[{"internalType":"bool","name":"hasVoted","type":"bool"},{"internalType":"uint8","name":"support","type":"uint8"},{"internalType":"uint256","name":"weight","type":"uint256"}],"stateMutability":"view","type":"function"},{"inputs":[],"name":"votingPeriod","outputs":[{"internalType":"uint256","name":"","type":"uint256"}],"stateMutability":"view","type":"function"}],"evm":{"bytecode":{"linkReferences":{},"object":"60a03462000199576001600160401b0390601f62004f0138819003918201601f1916830192919084841183851017620001835781602092849260409687528339810103126200019957516001600160a01b0381169081900362000199576001805562093a806004556032600555600280546001600160a01b0319169190911790556200008b33620001ba565b5062000097336200023a565b50620000a333620002dc565b50620000af3362000379565b50601460208251620000c1816200019e565b828152017f52657669746148756220476f7665726e616e636500000000000000000000000081522090600160208251620000fb816200019e565b82815201603160f81b8152209080519160208301937f8b73c3c69bb8fe3d512ecc4cf759cc79239f7b179b0ffacaa9a75d522b39400f85528284015260608301524660808301523060a083015260a0825260c0820193828510908511176200018357839052519020608052614aca90816200041782396080518181816128fb01526130c50152f35b634e487b7160e01b600052604160045260246000fd5b600080fd5b604081019081106001600160401b038211176200018357604052565b6001600160a01b031660008181527fad3228b676f7d3cd4284a5443f17f1962b36e491b30a40b2405849e597ba5fb5602052604081205490919060ff166200023657818052816020526040822081835260205260408220600160ff19825416179055339160008051602062004ee18339815191528180a4600190565b5090565b6001600160a01b031660008181527f3412d5605ac6cd444957cedb533e5dacad6378b4bc819ebe3652188a665066d560205260408120549091907fb09aa5aeb3702cfd50b6b62bc4532604938f21248a27a1d5ca736082b6819cc19060ff16620002d757808352826020526040832082845260205260408320600160ff1982541617905560008051602062004ee1833981519152339380a4600190565b505090565b6001600160a01b031660008181527fdae2aa361dfd1ca020a396615627d436107c35eff9fe7738a3512819782d706960205260408120549091907fd8aa0f3194971a2a116679f7c2090f6939c8d4e01a2a8d7e41d55e5351469e639060ff16620002d757808352826020526040832082845260205260408320600160ff1982541617905560008051602062004ee1833981519152339380a4600190565b6001600160a01b031660008181527ffaf93c3d007e112089dc8351e013e6685ef67703975d0224b26fc45941d4f1f560205260408120549091907fe2b7fb3b832174769106daebcfd6d1970523240dda11281102db9363b83b0dc49060ff16620002d757808352826020526040832082845260205260408320600160ff1982541617905560008051602062004ee1833981519152339380a460019056fe6080604052600436101561001257600080fd5b60003560e01c8063013cf08b1461365157806301ffc9a7146135fb57806302a251a3146135dd57806307bd0265146135a25780630af4da411461357a5780630d61b5191461346a5780630e6c151c1461342c57806319546f1a146133ee5780631a8cbcaa146133a5578063248a9ca314613376578063248bd47114613359578063252f57d714611fe35780632d0335ab146118875780632dcf0d7314612ed05780632f2ff15d14612e9157806333b5e38e14612d9f578063364478e21461291e5780633644e515146128e357806336568abe1461289c5780633d8803e2146103e257806342a7c6141461188257806343ae26951461287357806349672b70146128585780635100084c14612032578063514c3d5614612014578063536f9f4214611fe85780635394c87914611fe35780635652077c14611ebe5780635678138814611c9e5780635c7b264d14611c645780636213e5ea14611acc578063637e54ac14611a7457806363f0c7ff146118c15780637ecebe0014611887578063808c4479146118825780638652297314611847578063872d1544146117bb5780638f61f4f51461178057806391d14854146117335780639207891d14611715578063926d7d7f146116da57806395094544146116275780639c4e99ca146116095780639d79a9eb146114d0578063a217fddf146114b4578063ac2f007414611383578063b277d02a14611366578063bc3f931f146112c8578063bcd77a24146112a0578063c3b028e214611274578063c6366adf146107a5578063c7f758a814610758578063cae35ba0146106cd578063d23254b41461066a578063d547741f14610629578063da35c6641461060b578063dd9deb1b146105ed578063de1cf4ad146105b3578063e0a8f6f514610489578063ea0217cf146103e7578063eac3a6bd146103e2578063ecc52c04146103b75763f43b8778146102d157600080fd5b346103b25760203660031901126103b25760043580600052600c6020526040600020600a81019081549060ff8216600381101561039c576103129015614542565b60098101544210610362577f76254391687772340030bc79660c2d1e15dad744f94894a52e52863b5fca111592600160409360ff19161790556007600682015491015482519182526020820152a2005b60405162461bcd60e51b8152602060048201526012602482015271141bdb1b081b9bdd08195b991959081e595d60721b6044820152606490fd5b634e487b7160e01b600052602160045260246000fd5b600080fd5b346103b25760203660031901126103b25760206103da6103d5613ad4565b614580565b604051908152f35b613b66565b346103b25760203660031901126103b2576004356104036145b4565b620151808110158061047c575b15610446576020817f651c77f42613a075437aa794c44471e3abc3a661956a67aaee165bb7396974aa92600455604051908152a1005b60405162461bcd60e51b815260206004820152600e60248201526d125b9d985b1a59081c195c9a5bd960921b6044820152606490fd5b5062278d00811115610410565b346103b2576020806003193601126103b257600435908160005260068152604060002060018060a01b0360028201541633148015610591575b1561055b57600c019081549060ff8216600681101561039c5760018114908115610552575b501561051e575060ff191660051790557f416e669c63d9a3a5e36ee7cc7e2104b8db28ccd286aa18966e98fa230c73b08c600080a2005b6064906040519062461bcd60e51b82526004820152600d60248201526c10d85b9b9bdd0818d85b98d95b609a1b6044820152fd5b905015856104e7565b60405162461bcd60e51b815260048101839052600e60248201526d139bdd08185d5d1a1bdc9a5e995960921b6044820152606490fd5b506000805260008252604060002033600052825260ff604060002054166104c2565b346103b25760203660031901126103b2576001600160a01b036105d4613ad4565b16600052600b6020526020604060002054604051908152f35b346103b25760003660031901126103b2576020600554604051908152f35b346103b25760003660031901126103b2576020600754604051908152f35b346103b25760403660031901126103b257610668600435610648613aea565b9080600052600060205261066360016040600020015461464a565b61483b565b005b346103b25760403660031901126103b257610683613aea565b600435600052600860205260406000209060018060a01b0316600052602052606060406000206001815491015460ff604051928181161515845260081c1660208301526040820152f35b346103b25760203660031901126103b25760043560048110156103b2576106f381613975565b60009081526010602052604090205460125490811561074d576127108082029082820414821517156107375760409261072b91613ca8565b82519182526020820152f35b634e487b7160e01b600052601160045260246000fd5b60409150600061072b565b346103b25760203660031901126103b25761077161433c565b5060043560005260066020526107a161078d60406000206143cd565b604051918291602083526020830190613ba0565b0390f35b346103b25760a03660031901126103b257600460243510156103b2576044356001600160401b0381116103b2576107e0903690600401613b10565b60649081356001600160401b0381116103b257610801903690600401613b10565b6108096145ee565b610814602435613975565b60243515611256575b61082b83608435111561428d565b600435600052600c60205260406000209060ff600a83015416600381101561039c5760010361121257600b8201546111da576006820154610870600784015482614059565b9081156111a6576127109081810291818304149015171561073757610bb89161089891613ca8565b10611162576002546001830154604051636ded6a1960e11b815260048101919091523360248201526001600160a01b039091169390602081604481885afa801561111c5760009061112e575b6108f0915015156142d9565b600754936108fd8561400c565b60075561090b6024356148b0565b6101f481111561112857806101f319810111610737576101f31901955b60206001860154602460405180958193638cdc1e8760e01b835260048301525afa91821561111c576000926110e8575b5081156110ad575084600052600960205260406000205560018301549461098160045442614059565b6040519661098e88613902565b86885260208801523360408801526109a7602435613975565b60243560608801526040516109ca816109c38160038a01613850565b0382613954565b60808801526040516109e3816109c38160048a01613850565b60a08801526040516109fc816109c38160058a01613850565b60c0880152600060e0880152600061010088015260006101208801524261014088015261016087015261018086015260016101a08601526101c08501526101e0840152608435610200840152816000526006602052604060002083518155602084015160018201556002810160018060a01b036040860151168154906060870151610a8681613975565b610a8f81613975565b6001600160a81b03199092161760a09190911b60ff60a01b1617905560808401518051906001600160401b038211610ec457610adb82610ad26003860154613816565b60038601614066565b602090601f831160011461103b57610b0c929160009183610eda575b50508160011b916000199060031b1c19161790565b60038201555b60a08401518051906001600160401b038211610ec457610b4282610b396004860154613816565b60048601614066565b602090601f8311600114610fc957610b72929160009183610eda5750508160011b916000199060031b1c19161790565b60048201555b60c08401518051906001600160401b038211610ec457610ba882610b9f6005860154613816565b60058601614066565b602090601f8311600114610f5757610bd8929160009183610eda5750508160011b916000199060031b1c19161790565b60058201555b60e08401516006820155610100840151600782015561012084015160088201556101408401516009820155610160840151600a820155610180840151600b8201556101a0840151600681101561039c57610c3b90600c8301613d95565b6101c08401518051906001600160401b038211610ec457610c6c82610c63600d860154613816565b600d8601614066565b602090601f8311600114610ee557610c9c929160009183610eda5750508160011b916000199060031b1c19161790565b600d8201555b6101e08401519384516001600160401b038111610ec457602095610cd682610ccd600e870154613816565b600e8701614066565b8690601f8311600114610e50578261020093600f9593610d0c93600092610e455750508160011b916000199060031b1c19161790565b600e8501555b01519101558160ff19600281600a8501541617600a84015581600b84015560018301549260405191338352610d48602435613975565b60243587840152606060408401526000916003810154610d6781613816565b92836060870152600182169182600014610e17575050600114610dcd575b50509080600080516020614a75833981519152920390a360405190806004357ff57507588a3f55547e832ad7906fc1c90a328d2c78895bc24abf93c41e8568a0600080a38152f35b60030160009081528781209092505b818310610dff575050810160800181600080516020614a75833981519152610d85565b80548385016080015286945091870191600101610ddc565b86955060809350600080516020614a75833981519152969492501682840152151560051b8201019192610d85565b015190508a80610af7565b90600e8501600052876000209160005b601f1985168110610ead575092600f94926001926102009583601f19811610610e94575b505050811b01600e850155610d12565b015160001960f88460031b161c19169055898080610e84565b919289600181928685015181550194019201610e60565b634e487b7160e01b600052604160045260246000fd5b015190508780610af7565b9190600d84016000526020600020906000935b601f1984168510610f3c576001945083601f19811610610f23575b505050811b01600d820155610ca2565b015160001960f88460031b161c19169055868080610f13565b81810151835560209485019460019093019290910190610ef8565b9190600584016000526020600020906000935b601f1984168510610fae576001945083601f19811610610f95575b505050811b016005820155610bde565b015160001960f88460031b161c19169055868080610f85565b81810151835560209485019460019093019290910190610f6a565b9190600484016000526020600020906000935b601f1984168510611020576001945083601f19811610611007575b505050811b016004820155610b78565b015160001960f88460031b161c19169055868080610ff7565b81810151835560209485019460019093019290910190610fdc565b9190600384016000526020600020906000935b601f1984168510611092576001945083601f19811610611079575b505050811b016003820155610b12565b015160001960f88460031b161c19169055868080611069565b8181015183556020948501946001909301929091019061104e565b60405162461bcd60e51b81526020600482015260166024820152754e6f20766f74696e6720706f7765722065786973747360501b6044820152fd5b9091506020813d602011611114575b8161110460209383613954565b810103126103b257519087610958565b3d91506110f7565b6040513d6000823e3d90fd5b95610928565b506020813d60201161115a575b8161114860209383613954565b810103126103b2576108f090516108e4565b3d915061113b565b60405162461bcd60e51b815260206004820152601960248201527f496e73756666696369656e7420706f6c6c20737570706f72740000000000000060448201528490fd5b60405162461bcd60e51b815260206004820152600d60248201526c139bc81d9bdd195cc818d85cdd609a1b60448201528690fd5b60405162461bcd60e51b8152602060048201526011602482015270105b1c9958591e4818dbdb9d995c9d1959607a1b60448201528490fd5b60405162461bcd60e51b815260206004820152601860248201527f506f6c6c206d75737420626520656e646564206669727374000000000000000060448201528490fd5b611262815115156141c8565b61126f608435151561422b565b61081d565b346103b25760203660031901126103b257600435600052600f6020526020604060002054604051908152f35b346103b25760203660031901126103b25760043560048110156103b2576103da6020916148b0565b346103b25760403660031901126103b2576112e1613aea565b6000604080516112f08161391e565b8281528260208201520152600435600052600860205260406000209060018060a01b03166000526020526060604060002060405161132d8161391e565b60ff82546040600183831615159586865284602087019460081c1684520154930192835260405193845251166020830152516040820152f35b346103b25760003660031901126103b25760206040516107d08152f35b346103b25760203660031901126103b257600435600052600c6020526040600020805490600181015490600160a01b600190036002820154169260405191828060038301906113d191613850565b036113dc9084613954565b60405192836113ee8160048501613850565b036113f99085613954565b604051938461140b8160058601613850565b036114169086613954565b600683015494600784015490600885015492600986015494600a87015460ff1696600b0154976040519b8c9b610180928d5260208d015260408c01528060608c01528a016114639161397f565b89810360808b01526114749161397f565b88810360a08a01526114859161397f565b9560c088015260e087015261010086015261012085015261014084016114aa916139fa565b6101608301520390f35b346103b25760003660031901126103b257602060405160008152f35b346103b25760403660031901126103b25760043560243590811515918281036103b25781600052602090600c825260406000209060ff600a83015416600381101561039c5761151f9015614542565b60098201544210156115d757907fdf13ce4fcc43c19a08df4ffa6d471ae7bb1d6ffc3beb528ad821c873f798ce2f929184600052600e8352604060002033600052835260406000206001815461157860ff821615613fd0565b61ff008960081b169061ffff19161717905584600052600f835260406000206115a1815461400c565b9055156115c3576006016115b5815461400c565b90555b6040519384523393a3005b6007016115d0815461400c565b90556115b8565b60405162461bcd60e51b815260048101849052600a602482015269141bdb1b08195b99195960b21b6044820152606490fd5b346103b25760203660031901126103b25760206103da6004356144f5565b346103b25760203660031901126103b25760043560075481101561169557600052600660205261168b600e6040600020611677600f820154916116706040518095819301613850565b0383613954565b60405192839260408452604084019061397f565b9060208301520390f35b60405162461bcd60e51b815260206004820152601760248201527f50726f706f73616c20646f6573206e6f742065786973740000000000000000006044820152606490fd5b346103b25760003660031901126103b25760206040517fe2b7fb3b832174769106daebcfd6d1970523240dda11281102db9363b83b0dc48152f35b346103b25760003660031901126103b2576020600d54604051908152f35b346103b25760403660031901126103b25761174c613aea565b600435600052600060205260406000209060018060a01b0316600052602052602060ff604060002054166040519015158152f35b346103b25760003660031901126103b25760206040517fb09aa5aeb3702cfd50b6b62bc4532604938f21248a27a1d5ca736082b6819cc18152f35b346103b25760203660031901126103b2576004356117d76145b4565b6101f48111611811576020817f4ade7322d9a0c41dc254574f72d3d442f06addcc77917dcb9cb1ac4441d1b20f92600555604051908152a1005b60405162461bcd60e51b815260206004820152600e60248201526d084dedceae640e8dede40d0d2ced60931b6044820152606490fd5b346103b25760003660031901126103b25760206040517fa122aedc7c2408a97bcfe5d8ff1f6a6d7bf779a8b6dd3d72ff503e8fcf9d2eb98152f35b613b83565b346103b25760203660031901126103b2576001600160a01b036118a8613ad4565b1660005260036020526020604060002054604051908152f35b346103b2576020806003193601126103b2576004356000906000600d54905b818110611a1e575061190a6118f484614325565b936119026040519586613954565b808552614325565b601f19018460005b828110611a08575050506000805b82811061198557604080518781528651818901819052600092600582901b8301810191898b01918b9085015b8287106119595785850386f35b909192938280611975600193603f198a82030186528851613a07565b960192019601959291909261194c565b80600052600c9081875260406000209185600184015414806119eb575b600193506119b2575b5001611920565b8160005287526119e46040600020936119d36119cd8261400c565b95613e09565b6119dd828a6143b9565b52876143b9565b50876119ab565b5091600a60ff9101541691600383101561039c57600192156119a2565b611a10613dad565b828288010152018590611912565b80600052600c85526040600020836001820154149081611a5b575b50611a47575b6001016118e0565b92611a5360019161400c565b939050611a3f565b60ff9150600a015416600381101561039c571586611a39565b346103b25760403660031901126103b257611a8d613aea565b600435600052600e60205260406000209060018060a01b03166000526020526040806000205460ff8251918181161515835260081c1615156020820152f35b346103b2576020806003193601126103b2576004356000906000600754905b818110611c055750611aff6118f484614325565b601f19018460005b828110611bef575050506000805b828110611b7a57604080518781528651818901819052600092600582901b8301810191898b01918b9085015b828710611b4e5785850386f35b909192938280611b6a600193603f198a82030186528851613ba0565b9601920196019592919092611b41565b806000526006908187526040600020916001928684820154149081611bd3575b5060019350611bab575b5001611b15565b816000528752611bcc6040600020936119d3611bc68261400c565b956143cd565b5087611ba4565b60ff9150600c015416928184101561039c576001931489611b9a565b611bf761433c565b828288010152018590611b07565b8060005260068086526040600020906001908582840154149283611c48575b505050611c34575b600101611aeb565b92611c4060019161400c565b939050611c2c565b60ff91929350600c0154169081101561039c5714868080611c24565b346103b25760203660031901126103b2576001600160a01b03611c85613ad4565b16600052600a6020526020604060002054604051908152f35b346103b25760403660031901126103b257600435611cba613b00565b611cc2614670565b816000526020916006835260406000209160ff600c8401541693600685101561039c57611cf26001809614613ed2565b611d026009850154421015613f14565b611d11600a8501544210613f55565b60ff821693611d236002861115613f90565b83600052600882526040600020336000528252611d8c6040600020805494611d4e60ff871615613fd0565b60025489850154604051636ded6a1960e11b8152600481019190915233602482015293869185916001600160a01b0390911690829081906044820190565b03915afa95861561111c578993600097611e87575b5093868460ff94611ddc6002958498611e289a611dbf87151561401b565b891916178355829061ff0082549160081b169061ff001916179055565b015588611e5b5760078101611df2858254614059565b90555b33600052600a86526040600020611e0c815461400c565b905533600052600b865242604060002055015460a01c16614693565b6040519384528301527fb83d25c6a5d258561330739951487acb4bd09ba5190b5d32c4f261817d90679260403393a38055005b888a03611e785760068101611e71858254614059565b9055611df5565b60088101611e71858254614059565b9196509250908482813d8111611eb7575b611ea28183613954565b810103126103b2579051948892611e28611da1565b503d611e98565b346103b25760203660031901126103b257600435806000526006602052604060002090600c82019182549160ff8316600681101561039c576001611f029114613ed2565b600a8201544210611fab57600682015491600781015491611f31611f268486614059565b600884015490614059565b60009182526009602052604090912054908115611f9f576127109081810291818304149015171561073757600b91611f6891613ca8565b915b015411159182611f95575b505015611f8a5750805460ff19166002179055005b60ff19166003179055005b1190508380611f75565b5050600b600091611f6a565b60405162461bcd60e51b815260206004820152601060248201526f159bdd1a5b99c81b9bdd08195b99195960821b6044820152606490fd5b613ab7565b346103b25760203660031901126103b25760043560005260096020526020604060002054604051908152f35b346103b25760003660031901126103b2576020601254604051908152f35b346103b2576101003660031901126103b257600460243510156103b2576044356001600160401b0381116103b25761206e903690600401613b10565b6064356001600160401b0381116103b25761208d903690600401613b10565b906084356001600160401b0381116103b2576120ad903690600401613b10565b9060a4356001600160401b0381116103b2576120cd903690600401613b10565b60c4356001600160401b0381116103b2576120ec903690600401613b10565b906120f56145ee565b612100602435613975565b6024351561283a575b612118606460e435111561428d565b600254604051636ded6a1960e11b815260048035908201523360248201526001600160a01b0390911690602081604481855afa801561111c57600090612806575b612165915015156142d9565b600754946121728661400c565b6007556024602061218382356148b0565b9360405192838092638cdc1e8760e01b825260043560048301525afa90811561111c576000916127d4575b50801561277e578660005260096020526040600020556121d060045442614059565b90604051976121de89613902565b87895260043560208a01523360408a01526121fa602435613975565b60243560608a01528660808a015260a089015260c0880152600060e0880152600061010088015260006101208801524261014088015261016087015261018086015260016101a08601526101c08501526101e084015260e435610200840152816000526006602052604060002083518155602084015160018201556002810160018060a01b03604086015116815490606087015161229781613975565b6122a081613975565b6001600160a81b03199092161760a09190911b60ff60a01b1617905560808401518051906001600160401b038211610ec4576122e382610ad26003860154613816565b602090601f831160011461270c57612313929160009183610eda5750508160011b916000199060031b1c19161790565b60038201555b60a08401518051906001600160401b038211610ec45761234082610b396004860154613816565b602090601f831160011461269a57612370929160009183610eda5750508160011b916000199060031b1c19161790565b60048201555b60c08401518051906001600160401b038211610ec45761239d82610b9f6005860154613816565b602090601f8311600114612628576123cd929160009183610eda5750508160011b916000199060031b1c19161790565b60058201555b60e08401516006820155610100840151600782015561012084015160088201556101408401516009820155610160840151600a820155610180840151600b8201556101a0840151600681101561039c5761243090600c8301613d95565b6101c08401518051906001600160401b038211610ec45761245882610c63600d860154613816565b602090601f83116001146125ba57612488929160009183610eda5750508160011b916000199060031b1c19161790565b600d8201555b6101e08401519384516001600160401b038111610ec4576020956124b982610ccd600e870154613816565b8690601f8311600114612546578261020093600f95936124ef93600092610e455750508160011b916000199060031b1c19161790565b600e8501555b015191015581600080516020614a7583398151915260405133815261251b602435613975565b60243586820152606060408201528061253b60043595606083019061397f565b0390a3604051908152f35b90600e8501600052876000209160005b601f19851681106125a3575092600f94926001926102009583601f1981161061258a575b505050811b01600e8501556124f5565b015160001960f88460031b161c1916905589808061257a565b919289600181928685015181550194019201612556565b90601f19831691600d850160005260206000209260005b81811061261057509084600195949392106125f7575b505050811b01600d82015561248e565b015160001960f88460031b161c191690558680806125e7565b929360206001819287860151815501950193016125d1565b9190600584016000526020600020906000935b601f198416851061267f576001945083601f19811610612666575b505050811b0160058201556123d3565b015160001960f88460031b161c19169055868080612656565b8181015183556020948501946001909301929091019061263b565b9190600484016000526020600020906000935b601f19841685106126f1576001945083601f198116106126d8575b505050811b016004820155612376565b015160001960f88460031b161c191690558680806126c8565b818101518355602094850194600190930192909101906126ad565b9190600384016000526020600020906000935b601f1984168510612763576001945083601f1981161061274a575b505050811b016003820155612319565b015160001960f88460031b161c1916905586808061273a565b8181015183556020948501946001909301929091019061271f565b60405162461bcd60e51b815260206004820152602860248201527f4e6f20766f74696e6720706f7765722065786973747320666f7220746869732060448201526770726f706572747960c01b6064820152608490fd5b90506020813d6020116127fe575b816127ef60209383613954565b810103126103b25751886121ae565b3d91506127e2565b506020813d602011612832575b8161282060209383613954565b810103126103b2576121659051612159565b3d9150612813565b612846825115156141c8565b61285360e435151561422b565b612109565b346103b25760003660031901126103b25760206103da6140bc565b346103b25760003660031901126103b2576002546040516001600160a01b039091168152602090f35b346103b25760403660031901126103b2576128b5613aea565b336001600160a01b038216036128d1576106689060043561483b565b60405163334bd91960e11b8152600490fd5b346103b25760003660031901126103b25760206040517f00000000000000000000000000000000000000000000000000000000000000008152f35b346103b25760a03660031901126103b2576024356001600160401b0381116103b25761294e903690600401613b10565b6044356001600160401b0381116103b25761296d903690600401613b10565b906064356001600160401b0381116103b25761298d903690600401613b10565b9062015180608435101580612d90575b15612d5857600d54916129af8361400c565b600d556129be60843542614059565b90604051946129cc866138e6565b8486526004356020870152336040870152836060870152608086015260a0850152600060c0850152600060e0850152426101008501526101208401526000610140840152600061016084015281600052600c602052604060002083518155602084015160018201556002810160018060a01b036040860151166bffffffffffffffffffffffff60a01b82541617905560608401518051906001600160401b038211610ec457612a8282610ad26003860154613816565b602090601f8311600114612ce657612ab2929160009183610eda5750508160011b916000199060031b1c19161790565b60038201555b60808401518051906001600160401b038211610ec457612adf82610b396004860154613816565b602090601f8311600114612c7857612b0f929160009183610eda5750508160011b916000199060031b1c19161790565b60048201555b60a08401518051906001600160401b038211610ec457612b3c82610b9f6005860154613816565b602090601f8311600114612c0a57612b6c929160009183610eda5750508160011b916000199060031b1c19161790565b60058201555b60c0840151600682015560e0840151600782015561010084015160088201556101208401516009820155600a8101610140850151600381101561039c57602095600b926101609260ff801983541691161790550151910155817f658fccfc8de51891b480d49e504fbb0f8f9b43f13522a475d1729a74531a9e226040513381526040868201528061253b60043595604083019061397f565b90601f198316916005850160005260206000209260005b818110612c605750908460019594939210612c47575b505050811b016005820155612b72565b015160001960f88460031b161c19169055868080612c37565b92936020600181928786015181550195019301612c21565b90601f198316916004850160005260206000209260005b818110612cce5750908460019594939210612cb5575b505050811b016004820155612b15565b015160001960f88460031b161c19169055868080612ca5565b92936020600181928786015181550195019301612c8f565b9190600384016000526020600020906000935b601f1984168510612d3d576001945083601f19811610612d24575b505050811b016003820155612ab8565b015160001960f88460031b161c19169055868080612d14565b81810151835560209485019460019093019290910190612cf9565b60405162461bcd60e51b815260206004820152601060248201526f24b73b30b634b210323ab930ba34b7b760811b6044820152606490fd5b5062278d00608435111561299d565b346103b25760003660031901126103b257612db86145b4565b604051612dc481613939565b608036823760128054612e07575b6040517f229301218ef01ca6b8da4d31650c5fdf0265077519dfbbfaf6f3254aa666450b9080612e0285826139cc565b0390a1005b60005b60048110612e185750612dd2565b612e2181613975565b612e2a81613975565b8060005260209060108252604060002054916127109283810293818504149015171561073757612e5e600193855490613ca8565b612e688387613cc8565b526011612e758387613cc8565b5191612e8084613975565b836000525260406000205501612e0a565b346103b25760403660031901126103b257610668600435612eb0613aea565b90806000526000602052612ecb60016040600020015461464a565b6147bd565b346103b25760e03660031901126103b257612ee9613b00565b6044356001600160a01b03811690036103b25760ff60843516608435036103b2573360009081527ffaf93c3d007e112089dc8351e013e6685ef67703975d0224b26fc45941d4f1f560205260409020547fe2b7fb3b832174769106daebcfd6d1970523240dda11281102db9363b83b0dc49060ff161561333b5750612f6c614670565b6064354211613302576004356000526006602052604060002060ff600c82015416600681101561039c576001612fa29114613ed2565b612fb26009820154421015613f14565b612fc1600a8201544210613f55565b612fd1600260ff84161115613f90565b6004356000526008602052604060002060018060a01b036044351660005260205260406000209061300660ff83541615613fd0565b6044356001600160a01b0316600090815260036020526040902080549061302c8261400c565b90556040519060208201907fa122aedc7c2408a97bcfe5d8ff1f6a6d7bf779a8b6dd3d72ff503e8fcf9d2eb98252600435604084015260ff8616606084015260018060a01b0360443516608084015260a083015260643560c083015260c0825260e082018281106001600160401b03821117610ec4576131169261310d92826040528151902061012261010083019261190160f01b84527f00000000000000000000000000000000000000000000000000000000000000006101028201520152604282526130f982613939565b60c4359160a4359160843591519020614959565b909291926149e9565b6001600160a01b0360443581169116036132c9576002546001820154604051636ded6a1960e11b815260048101919091526001600160a01b036044803582166024840152919492602092869290918391165afa92831561111c57600093613292575b5060ff600261321593856001819561319183151561401b565b805461ff0060088c901b168719909116831761ff001916178155015586831661326357600781016131c3858254614059565b90555b6044356001600160a01b03166000908152600a6020526040902080546131eb9061400c565b90556044356001600160a01b03166000908152600b60205260409020429055015460a01c16614693565b60ff60405192168252602082015233604082015260018060a01b0360443516907fb7a759f14619c0391b65e3f8ceb8fd342a3e24929e81d83493445a4a1c87d0fc606060043592a360018055005b868316600103613283576006810161327c858254614059565b90556131c6565b6008810161327c858254614059565b9192506020823d6020116132c1575b816132ae60209383613954565b810103126103b2579051919060ff613178565b3d91506132a1565b60405162461bcd60e51b8152602060048201526011602482015270496e76616c6964207369676e617475726560781b6044820152606490fd5b60405162461bcd60e51b815260206004820152601160248201527014da59db985d1d5c9948195e1c1a5c9959607a1b6044820152606490fd5b6044906040519063e2517d3f60e01b82523360048301526024820152fd5b346103b25760003660031901126103b25760206040516109c48152f35b346103b25760203660031901126103b25760043560005260006020526020600160406000200154604051908152f35b346103b25760203660031901126103b2576133be613dad565b50600435600052600c6020526107a16133da6040600020613e09565b604051918291602083526020830190613a07565b346103b25760203660031901126103b25760043560048110156103b25761341481613975565b60005260116020526020604060002054604051908152f35b346103b25760203660031901126103b25760043560048110156103b25761345281613975565b60005260106020526020604060002054604051908152f35b346103b25760203660031901126103b2573360009081527fdae2aa361dfd1ca020a396615627d436107c35eff9fe7738a3512819782d70696020526040902054600435907fd8aa0f3194971a2a116679f7c2090f6939c8d4e01a2a8d7e41d55e5351469e639060ff161561333b57506134e1614670565b806000526006602052600c604060002001805460ff8116600681101561039c5760020361353c5760ff191660041790557f712ae1383f79ac853f8d882153778e0260ef8f03b504e2866e0593e04d2b291f600080a260018055005b60405162461bcd60e51b8152602060048201526016602482015275141c9bdc1bdcd85b081b9bdd081cdd58d8d95959195960521b6044820152606490fd5b346103b25760003660031901126103b2576107a1613596613cef565b604051918291826139cc565b346103b25760003660031901126103b25760206040517fd8aa0f3194971a2a116679f7c2090f6939c8d4e01a2a8d7e41d55e5351469e638152f35b346103b25760003660031901126103b2576020600454604051908152f35b346103b25760203660031901126103b25760043563ffffffff60e01b81168091036103b257602090637965db0b60e01b8114908115613640575b506040519015158152f35b6301ffc9a760e01b14905082613635565b346103b25760203660031901126103b257600435600052600660205260406000208054906001810154600282015491608080600383019061369191613850565b0360809061369e91613954565b604051806136af8160048501613850565b036136ba9082613954565b604051806136cb8160058601613850565b036136d69082613954565b600683015490600784015460088501546009860154600a87015491600b88015493600c89015460ff1695604051988980600d8d019061371491613850565b0361371f908b613954565b6040519a8b61373181600e8401613850565b0361373c908d613954565b600f01549b6040519e8f9e8f9061022093849383526020830152600160a01b60019003811660408301528060a01c60ff1661377690613975565b60a01c60ff166060820152608001528d016080906137939161397f565b8d810360a08f01526137a49161397f565b8c810360c08e01526137b59161397f565b9660e08c01526101008b01526101208a01526101408901526101608801526101808701526101a086016137e7916139bf565b8481036101c08601526137f99161397f565b8381036101e085015261380b9161397f565b906102008301520390f35b90600182811c92168015613846575b602083101461383057565b634e487b7160e01b600052602260045260246000fd5b91607f1691613825565b80546000939261385f82613816565b918282526020936001916001811690816000146138c75750600114613886575b5050505050565b90939495506000929192528360002092846000945b8386106138b35750505050010190388080808061387f565b80548587018301529401938590820161389b565b60ff19168685015250505090151560051b01019150388080808061387f565b61018081019081106001600160401b03821117610ec457604052565b61022081019081106001600160401b03821117610ec457604052565b606081019081106001600160401b03821117610ec457604052565b608081019081106001600160401b03821117610ec457604052565b90601f801991011681019081106001600160401b03821117610ec457604052565b6004111561039c57565b919082519283825260005b8481106139ab575050826000602080949584010152601f8019910116010190565b60208183018101518483018201520161398a565b90600682101561039c5752565b6080810192916000915b600483106139e357505050565b6001908251815260208091019201920191906139d6565b90600382101561039c5752565b90613a6c613a5a613a48610180855185526020860151602086015260018060a01b03604087015116604086015260608601519080606087015285019061397f565b6080850151848203608086015261397f565b60a084015183820360a085015261397f565b9160c081015160c083015260e081015160e083015261010080820151908301526101208082015190830152613aaa61014080830151908401906139fa565b6101608091015191015290565b346103b25760003660031901126103b25760206040516113888152f35b600435906001600160a01b03821682036103b257565b602435906001600160a01b03821682036103b257565b6024359060ff821682036103b257565b81601f820112156103b2578035906001600160401b038211610ec45760405192613b44601f8401601f191660200185613954565b828452602083830101116103b257816000926020809301838601378301015290565b346103b25760003660031901126103b25760206040516101f48152f35b346103b25760003660031901126103b2576020604051610bb88152f35b90613c9a613c86613c1e613c0c613bfa610220875187526020880151602088015260018060a01b0360408901511660408801526060880151613be181613975565b606088015260808801519080608089015287019061397f565b60a087015186820360a088015261397f565b60c086015185820360c087015261397f565b60e085015160e085015261010080860151908501526101208086015190850152610140808601519085015261016080860151908501526101808086015190850152613c726101a080870151908601906139bf565b6101c080860151908583039086015261397f565b6101e080850151908483039085015261397f565b916102008091015191015290565b8115613cb2570490565b634e487b7160e01b600052601260045260246000fd5b906004811015613cd95760051b0190565b634e487b7160e01b600052603260045260246000fd5b6040805191613cfd83613939565b60803684378290601254938415613d8e575060005b600480821015613d8557613d2582613975565b613d2e82613975565b81600052601060205284600020549061271091828102928184041490151715613d70575090613d5f86600193613ca8565b613d698286613cc8565b5201613d12565b601190634e487b7160e01b6000525260246000fd5b50509250905090565b9350915050565b90600681101561039c5760ff80198354169116179055565b60405190613dba826138e6565b8161016060009182815282602082015282604082015260608082015260606080820152606060a08201528260c08201528260e08201528261010082015282610120820152826101408201520152565b90604051613e16816138e6565b8092805482526001810154602083015260018060a01b036002820154166040830152604051613e4c816109c38160038601613850565b6060830152604051613e65816109c38160048601613850565b6080830152604051613e7e816109c38160058601613850565b60a0830152600681015460c0830152600781015460e08301526008810154610100830152600981015461012083015260ff600a82015416600381101561039c5761016091600b916101408501520154910152565b15613ed957565b60405162461bcd60e51b815260206004820152601360248201527250726f706f73616c206e6f742061637469766560681b6044820152606490fd5b15613f1b57565b60405162461bcd60e51b8152602060048201526012602482015271159bdd1a5b99c81b9bdd081cdd185c9d195960721b6044820152606490fd5b15613f5c57565b60405162461bcd60e51b815260206004820152600c60248201526b159bdd1a5b99c8195b99195960a21b6044820152606490fd5b15613f9757565b60405162461bcd60e51b8152602060048201526011602482015270496e76616c696420766f7465207479706560781b6044820152606490fd5b15613fd757565b60405162461bcd60e51b815260206004820152600d60248201526c105b1c9958591e481d9bdd1959609a1b6044820152606490fd5b60001981146107375760010190565b1561402257565b60405162461bcd60e51b815260206004820152600f60248201526e2737903b37ba34b733903837bbb2b960891b6044820152606490fd5b9190820180921161073757565b90601f811161407457505050565b6000916000526020600020906020601f850160051c830194106140b2575b601f0160051c01915b8281106140a757505050565b81815560010161409b565b9092508290614092565b60125480156141c2576000805b6004908183101561419d576140dd83613975565b6140e683613975565b82600052601060205260406000205461271090818102918183041490151715614188578461411391613ca8565b6109c4929060008482111561416457506109c319810190811161414f575b8303928311613d70575060019161414791614059565b9101906140c9565b601182634e487b7160e01b6000525260246000fd5b908403908482116141755750614131565b634e487b7160e01b815260118352602490fd5b601183634e487b7160e01b6000525260246000fd5b9250505060011c906113888201809211610737576127108083116141be5750565b9150565b50600090565b156141cf57565b60405162461bcd60e51b815260206004820152602e60248201527f496d70616374207265706f727420726571756972656420666f722050726f706560448201526d1c9d1e51195d995b1bdc1b595b9d60921b6064820152608490fd5b1561423257565b60405162461bcd60e51b815260206004820152602d60248201527f496d706163742073636f726520726571756972656420666f722050726f70657260448201526c1d1e51195d995b1bdc1b595b9d609a1b6064820152608490fd5b1561429457565b60405162461bcd60e51b815260206004820152601a60248201527f496d706163742073636f7265206d75737420626520302d3130300000000000006044820152606490fd5b156142e057565b60405162461bcd60e51b815260206004820152601b60248201527f4d75737420686f6c6420746f6b656e7320746f2070726f706f736500000000006044820152606490fd5b6001600160401b038111610ec45760051b60200190565b6040519061434982613902565b81610200600091828152826020820152826040820152606083818301528060808301528060a08301528060c08301528360e08301528361010083015283610120830152836101408301528361016083015283610180830152836101a0830152806101c08301526101e08201520152565b8051821015613cd95760209160051b010190565b9060408051906143dc82613902565b835482526001840154602083015260028401546001600160a01b038116828401529193849260a01c60ff1661441081613975565b60608401528151614428816109c38160038601613850565b60808401528151614440816109c38160048601613850565b60a08401528151614458816109c38160058601613850565b60c0840152600681015460e0840152600781015461010084015260088101546101208401526009810154610140840152600a810154610160840152600b81015461018084015260ff600c8201541690600682101561039c5761020092600f926101a086015280516144d0816109c381600d8701613850565b6101c0860152516144e8816109c381600e8601613850565b6101e08501520154910152565b600052600c60205260406000206145156007600683015492015482614059565b801561453b57612710918281029281840414901517156107375761453891613ca8565b90565b5050600090565b1561454957565b60405162461bcd60e51b815260206004820152600f60248201526e506f6c6c206e6f742061637469766560881b6044820152606490fd5b60018060a01b0316600052600b60205260406000205442034281116107375762278d0010156145ae57600090565b60055490565b3360009081527fad3228b676f7d3cd4284a5443f17f1962b36e491b30a40b2405849e597ba5fb5602052604081205460ff161561333b5750565b3360009081527f3412d5605ac6cd444957cedb533e5dacad6378b4bc819ebe3652188a665066d560205260409020547fb09aa5aeb3702cfd50b6b62bc4532604938f21248a27a1d5ca736082b6819cc19060ff161561333b5750565b80600052600060205260406000203360005260205260ff604060002054161561333b5750565b600260015414614681576002600155565b604051633ee5aeb560e01b8152600490fd5b91909161469f81613975565b600092818452602093601085526146ca6040928383206146c0828254614059565b9055601254614059565b948560125585614737575b839495506147037f0f5c781c3e6e5f46e3229c8b1e6e98f96d8a2fe20aa04baf40e0fba44a06d5f194613975565b8482526010815282808320549261471987613975565b8681526011835220549061472c86613975565b8351928352820152a2565b61474084613975565b8382526010815282822054612710908181029181830414901517156147a9577f0f5c781c3e6e5f46e3229c8b1e6e98f96d8a2fe20aa04baf40e0fba44a06d5f194959661478c91613ca8565b61479586613975565b8583526011825283832055859493506146d5565b634e487b7160e01b83526011600452602483fd5b9060009180835282602052604083209160018060a01b03169182845260205260ff6040842054161560001461483657808352826020526040832082845260205260408320600160ff198254161790557f2f8788117e7eff1d82e926ec794901d17c78024a50270940304540a733656f0d339380a4600190565b505090565b9060009180835282602052604083209160018060a01b03169182845260205260ff6040842054166000146148365780835282602052604083208284526020526040832060ff1981541690557ff6391f5c32d9c69d2a47ea670b442974b53935d1edc7fd64eb21e047a839171b339380a4600190565b6148b981613975565b8061491c576107d0905b6148cc81613975565b600052601160205261138860406000205410156148e65790565b6101f4811115614913576101f3198101908111610737575b6103e8908181101561490e575090565b905090565b506103e86148fe565b61492581613975565b6001810361493657610bb8906148c3565b61493f81613975565b60028103614950576109c4906148c3565b611388906148c3565b91907f7fffffffffffffffffffffffffffffff5d576e7357a4501ddfe92f46681b20a084116149dd57926020929160ff608095604051948552168484015260408301526060820152600092839182805260015afa156149d15780516001600160a01b038116156149c857918190565b50809160019190565b604051903d90823e3d90fd5b50505060009160039190565b6149f281613975565b806149fb575050565b614a0481613975565b60018103614a1e5760405163f645eedf60e01b8152600490fd5b614a2781613975565b60028103614a485760405163fce698f760e01b815260048101839052602490fd5b80614a54600392613975565b14614a5c5750565b602490604051906335e2f38360e21b82526004820152fdfeb1d569dc5621a0a51229b7ac0eff81f3e6df70a3f72fe608aa58f74bb69d7bb6a26469706673582212208a4db973eb5836bc2a134b6ea0b165e7d981bc63a2ab2561d9faf7004b08864564736f6c634300081800332f8788117e7eff1d82e926ec794901d17c78024a50270940304540a733656f0d","opcodes":"PUSH1 0xA0 CALLVALUE PUSH3 0x199 JUMPI PUSH1 0x1 PUSH1 0x1 PUSH1 0x40 SHL SUB SWAP1 PUSH1 0x1F PUSH3 0x4F01 CODESIZE DUP2 SWAP1 SUB SWAP2 DUP3 ADD PUSH1 0x1F NOT AND DUP4 ADD SWAP3 SWAP2 SWAP1 DUP5 DUP5 GT DUP4 DUP6 LT OR PUSH3 0x183 JUMPI DUP2 PUSH1 0x20 SWAP3 DUP5 SWAP3 PUSH1 0x40 SWAP7 DUP8 MSTORE DUP4 CODECOPY DUP2 ADD SUB SLT PUSH3 0x199 JUMPI MLOAD PUSH1 0x1 PUSH1 0x1 PUSH1 0xA0 SHL SUB DUP2 AND SWAP1 DUP2 SWAP1 SUB PUSH3 0x199 JUMPI PUSH1 0x1 DUP1 SSTORE PUSH3 0x93A80 PUSH1 0x4 SSTORE PUSH1 0x32 PUSH1 0x5 SSTORE PUSH1 0x2 DUP1 SLOAD PUSH1 0x1 PUSH1 0x1 PUSH1 0xA0 SHL SUB NOT AND SWAP2 SWAP1 SWAP2 OR SWAP1 SSTORE PUSH3 0x8B CALLER PUSH3 0x1BA JUMP JUMPDEST POP PUSH3 0x97 CALLER PUSH3 0x23A JUMP JUMPDEST POP PUSH3 0xA3 CALLER PUSH3 0x2DC JUMP JUMPDEST POP PUSH3 0xAF CALLER PUSH3 0x379 JUMP JUMPDEST POP PUSH1 0x14 PUSH1 0x20 DUP3 MLOAD PUSH3 0xC1 DUP2 PUSH3 0x19E JUMP JUMPDEST DUP3 DUP2 MSTORE ADD PUSH32 0x52657669746148756220476F7665726E616E6365000000000000000000000000 DUP2 MSTORE KECCAK256 SWAP1 PUSH1 0x1 PUSH1 0x20 DUP3 MLOAD PUSH3 0xFB DUP2 PUSH3 0x19E JUMP JUMPDEST DUP3 DUP2 MSTORE ADD PUSH1 0x31 PUSH1 0xF8 SHL DUP2 MSTORE KECCAK256 SWAP1 DUP1 MLOAD SWAP2 PUSH1 0x20 DUP4 ADD SWAP4 PUSH32 0x8B73C3C69BB8FE3D512ECC4CF759CC79239F7B179B0FFACAA9A75D522B39400F DUP6 MSTORE DUP3 DUP5 ADD MSTORE PUSH1 0x60 DUP4 ADD MSTORE CHAINID PUSH1 0x80 DUP4 ADD MSTORE ADDRESS PUSH1 0xA0 DUP4 ADD MSTORE PUSH1 0xA0 DUP3 MSTORE PUSH1 0xC0 DUP3 ADD SWAP4 DUP3 DUP6 LT SWAP1 DUP6 GT OR PUSH3 0x183 JUMPI DUP4 SWAP1 MSTORE MLOAD SWAP1 KECCAK256 PUSH1 0x80 MSTORE PUSH2 0x4ACA SWAP1 DUP2 PUSH3 0x417 DUP3 CODECOPY PUSH1 0x80 MLOAD DUP2 DUP2 DUP2 PUSH2 0x28FB ADD MSTORE PUSH2 0x30C5 ADD MSTORE RETURN JUMPDEST PUSH4 0x4E487B71 PUSH1 0xE0 SHL PUSH1 0x0 MSTORE PUSH1 0x41 PUSH1 0x4 MSTORE PUSH1 0x24 PUSH1 0x0 REVERT JUMPDEST PUSH1 0x0 DUP1 REVERT JUMPDEST PUSH1 0x40 DUP2 ADD SWAP1 DUP2 LT PUSH1 0x1 PUSH1 0x1 PUSH1 0x40 SHL SUB DUP3 GT OR PUSH3 0x183 JUMPI PUSH1 0x40 MSTORE JUMP JUMPDEST PUSH1 0x1 PUSH1 0x1 PUSH1 0xA0 SHL SUB AND PUSH1 0x0 DUP2 DUP2 MSTORE PUSH32 0xAD3228B676F7D3CD4284A5443F17F1962B36E491B30A40B2405849E597BA5FB5 PUSH1 0x20 MSTORE PUSH1 0x40 DUP2 KECCAK256 SLOAD SWAP1 SWAP2 SWAP1 PUSH1 0xFF AND PUSH3 0x236 JUMPI DUP2 DUP1 MSTORE DUP2 PUSH1 0x20 MSTORE PUSH1 0x40 DUP3 KECCAK256 DUP2 DUP4 MSTORE PUSH1 0x20 MSTORE PUSH1 0x40 DUP3 KECCAK256 PUSH1 0x1 PUSH1 0xFF NOT DUP3 SLOAD AND OR SWAP1 SSTORE CALLER SWAP2 PUSH1 0x0 DUP1 MLOAD PUSH1 0x20 PUSH3 0x4EE1 DUP4 CODECOPY DUP2 MLOAD SWAP2 MSTORE DUP2 DUP1 LOG4 PUSH1 0x1 SWAP1 JUMP JUMPDEST POP SWAP1 JUMP JUMPDEST PUSH1 0x1 PUSH1 0x1 PUSH1 0xA0 SHL SUB AND PUSH1 0x0 DUP2 DUP2 MSTORE PUSH32 0x3412D5605AC6CD444957CEDB533E5DACAD6378B4BC819EBE3652188A665066D5 PUSH1 0x20 MSTORE PUSH1 0x40 DUP2 KECCAK256 SLOAD SWAP1 SWAP2 SWAP1 PUSH32 0xB09AA5AEB3702CFD50B6B62BC4532604938F21248A27A1D5CA736082B6819CC1 SWAP1 PUSH1 0xFF AND PUSH3 0x2D7 JUMPI DUP1 DUP4 MSTORE DUP3 PUSH1 0x20 MSTORE PUSH1 0x40 DUP4 KECCAK256 DUP3 DUP5 MSTORE PUSH1 0x20 MSTORE PUSH1 0x40 DUP4 KECCAK256 PUSH1 0x1 PUSH1 0xFF NOT DUP3 SLOAD AND OR SWAP1 SSTORE PUSH1 0x0 DUP1 MLOAD PUSH1 0x20 PUSH3 0x4EE1 DUP4 CODECOPY DUP2 MLOAD SWAP2 MSTORE CALLER SWAP4 DUP1 LOG4 PUSH1 0x1 SWAP1 JUMP JUMPDEST POP POP SWAP1 JUMP JUMPDEST PUSH1 0x1 PUSH1 0x1 PUSH1 0xA0 SHL SUB AND PUSH1 0x0 DUP2 DUP2 MSTORE PUSH32 0xDAE2AA361DFD1CA020A396615627D436107C35EFF9FE7738A3512819782D7069 PUSH1 0x20 MSTORE PUSH1 0x40 DUP2 KECCAK256 SLOAD SWAP1 SWAP2 SWAP1 PUSH32 0xD8AA0F3194971A2A116679F7C2090F6939C8D4E01A2A8D7E41D55E5351469E63 SWAP1 PUSH1 0xFF AND PUSH3 0x2D7 JUMPI DUP1 DUP4 MSTORE DUP3 PUSH1 0x20 MSTORE PUSH1 0x40 DUP4 KECCAK256 DUP3 DUP5 MSTORE PUSH1 0x20 MSTORE PUSH1 0x40 DUP4 KECCAK256 PUSH1 0x1 PUSH1 0xFF NOT DUP3 SLOAD AND OR SWAP1 SSTORE PUSH1 0x0 DUP1 MLOAD PUSH1 0x20 PUSH3 0x4EE1 DUP4 CODECOPY DUP2 MLOAD SWAP2 MSTORE CALLER SWAP4 DUP1 LOG4 PUSH1 0x1 SWAP1 JUMP JUMPDEST PUSH1 0x1 PUSH1 0x1 PUSH1 0xA0 SHL SUB AND PUSH1 0x0 DUP2 DUP2 MSTORE PUSH32 0xFAF93C3D007E112089DC8351E013E6685EF67703975D0224B26FC45941D4F1F5 PUSH1 0x20 MSTORE PUSH1 0x40 DUP2 KECCAK256 SLOAD SWAP1 SWAP2 SWAP1 PUSH32 0xE2B7FB3B832174769106DAEBCFD6D1970523240DDA11281102DB9363B83B0DC4 SWAP1 PUSH1 0xFF AND PUSH3 0x2D7 JUMPI DUP1 DUP4 MSTORE DUP3 PUSH1 0x20 MSTORE PUSH1 0x40 DUP4 KECCAK256 DUP3 DUP5 MSTORE PUSH1 0x20 MSTORE PUSH1 0x40 DUP4 KECCAK256 PUSH1 0x1 PUSH1 0xFF NOT DUP3 SLOAD AND OR SWAP1 SSTORE PUSH1 0x0 DUP1 MLOAD PUSH1 0x20 PUSH3 0x4EE1 DUP4 CODECOPY DUP2 MLOAD SWAP2 MSTORE CALLER SWAP4 DUP1 LOG4 PUSH1 0x1 SWAP1 JUMP INVALID PUSH1 0x80 PUSH1 0x40 MSTORE PUSH1 0x4 CALLDATASIZE LT ISZERO PUSH2 0x12 JUMPI PUSH1 0x0 DUP1 REVERT JUMPDEST PUSH1 0x0 CALLDATALOAD PUSH1 0xE0 SHR DUP1 PUSH4 0x13CF08B EQ PUSH2 0x3651 JUMPI DUP1 PUSH4 0x1FFC9A7 EQ PUSH2 0x35FB JUMPI DUP1 PUSH4 0x2A251A3 EQ PUSH2 0x35DD JUMPI DUP1 PUSH4 0x7BD0265 EQ PUSH2 0x35A2 JUMPI DUP1 PUSH4 0xAF4DA41 EQ PUSH2 0x357A JUMPI DUP1 PUSH4 0xD61B519 EQ PUSH2 0x346A JUMPI DUP1 PUSH4 0xE6C151C EQ PUSH2 0x342C JUMPI DUP1 PUSH4 0x19546F1A EQ PUSH2 0x33EE JUMPI DUP1 PUSH4 0x1A8CBCAA EQ PUSH2 0x33A5 JUMPI DUP1 PUSH4 0x248A9CA3 EQ PUSH2 0x3376 JUMPI DUP1 PUSH4 0x248BD471 EQ PUSH2 0x3359 JUMPI DUP1 PUSH4 0x252F57D7 EQ PUSH2 0x1FE3 JUMPI DUP1 PUSH4 0x2D0335AB EQ PUSH2 0x1887 JUMPI DUP1 PUSH4 0x2DCF0D73 EQ PUSH2 0x2ED0 JUMPI DUP1 PUSH4 0x2F2FF15D EQ PUSH2 0x2E91 JUMPI DUP1 PUSH4 0x33B5E38E EQ PUSH2 0x2D9F JUMPI DUP1 PUSH4 0x364478E2 EQ PUSH2 0x291E JUMPI DUP1 PUSH4 0x3644E515 EQ PUSH2 0x28E3 JUMPI DUP1 PUSH4 0x36568ABE EQ PUSH2 0x289C JUMPI DUP1 PUSH4 0x3D8803E2 EQ PUSH2 0x3E2 JUMPI DUP1 PUSH4 0x42A7C614 EQ PUSH2 0x1882 JUMPI DUP1 PUSH4 0x43AE2695 EQ PUSH2 0x2873 JUMPI DUP1 PUSH4 0x49672B70 EQ PUSH2 0x2858 JUMPI DUP1 PUSH4 0x5100084C EQ PUSH2 0x2032 JUMPI DUP1 PUSH4 0x514C3D56 EQ PUSH2 0x2014 JUMPI DUP1 PUSH4 0x536F9F42 EQ PUSH2 0x1FE8 JUMPI DUP1 PUSH4 0x5394C879 EQ PUSH2 0x1FE3 JUMPI DUP1 PUSH4 0x5652077C EQ PUSH2 0x1EBE JUMPI DUP1 PUSH4 0x56781388 EQ PUSH2 0x1C9E JUMPI DUP1 PUSH4 0x5C7B264D EQ PUSH2 0x1C64 JUMPI DUP1 PUSH4 0x6213E5EA EQ PUSH2 0x1ACC JUMPI DUP1 PUSH4 0x637E54AC EQ PUSH2 0x1A74 JUMPI DUP1 PUSH4 0x63F0C7FF EQ PUSH2 0x18C1 JUMPI DUP1 PUSH4 0x7ECEBE00 EQ PUSH2 0x1887 JUMPI DUP1 PUSH4 0x808C4479 EQ PUSH2 0x1882 JUMPI DUP1 PUSH4 0x86522973 EQ PUSH2 0x1847 JUMPI DUP1 PUSH4 0x872D1544 EQ PUSH2 0x17BB JUMPI DUP1 PUSH4 0x8F61F4F5 EQ PUSH2 0x1780 JUMPI DUP1 PUSH4 0x91D14854 EQ PUSH2 0x1733 JUMPI DUP1 PUSH4 0x9207891D EQ PUSH2 0x1715 JUMPI DUP1 PUSH4 0x926D7D7F EQ PUSH2 0x16DA JUMPI DUP1 PUSH4 0x95094544 EQ PUSH2 0x1627 JUMPI DUP1 PUSH4 0x9C4E99CA EQ PUSH2 0x1609 JUMPI DUP1 PUSH4 0x9D79A9EB EQ PUSH2 0x14D0 JUMPI DUP1 PUSH4 0xA217FDDF EQ PUSH2 0x14B4 JUMPI DUP1 PUSH4 0xAC2F0074 EQ PUSH2 0x1383 JUMPI DUP1 PUSH4 0xB277D02A EQ PUSH2 0x1366 JUMPI DUP1 PUSH4 0xBC3F931F EQ PUSH2 0x12C8 JUMPI DUP1 PUSH4 0xBCD77A24 EQ PUSH2 0x12A0 JUMPI DUP1 PUSH4 0xC3B028E2 EQ PUSH2 0x1274 JUMPI DUP1 PUSH4 0xC6366ADF EQ PUSH2 0x7A5 JUMPI DUP1 PUSH4 0xC7F758A8 EQ PUSH2 0x758 JUMPI DUP1 PUSH4 0xCAE35BA0 EQ PUSH2 0x6CD JUMPI DUP1 PUSH4 0xD23254B4 EQ PUSH2 0x66A JUMPI DUP1 PUSH4 0xD547741F EQ PUSH2 0x629 JUMPI DUP1 PUSH4 0xDA35C664 EQ PUSH2 0x60B JUMPI DUP1 PUSH4 0xDD9DEB1B EQ PUSH2 0x5ED JUMPI DUP1 PUSH4 0xDE1CF4AD EQ PUSH2 0x5B3 JUMPI DUP1 PUSH4 0xE0A8F6F5 EQ PUSH2 0x489 JUMPI DUP1 PUSH4 0xEA0217CF EQ PUSH2 0x3E7 JUMPI DUP1 PUSH4 0xEAC3A6BD EQ PUSH2 0x3E2 JUMPI DUP1 PUSH4 0xECC52C04 EQ PUSH2 0x3B7 JUMPI PUSH4 0xF43B8778 EQ PUSH2 0x2D1 JUMPI PUSH1 0x0 DUP1 REVERT JUMPDEST CALLVALUE PUSH2 0x3B2 JUMPI PUSH1 0x20 CALLDATASIZE PUSH1 0x3 NOT ADD SLT PUSH2 0x3B2 JUMPI PUSH1 0x4 CALLDATALOAD DUP1 PUSH1 0x0 MSTORE PUSH1 0xC PUSH1 0x20 MSTORE PUSH1 0x40 PUSH1 0x0 KECCAK256 PUSH1 0xA DUP2 ADD SWAP1 DUP2 SLOAD SWAP1 PUSH1 0xFF DUP3 AND PUSH1 0x3 DUP2 LT ISZERO PUSH2 0x39C JUMPI PUSH2 0x312 SWAP1 ISZERO PUSH2 0x4542 JUMP JUMPDEST PUSH1 0x9 DUP2 ADD SLOAD TIMESTAMP LT PUSH2 0x362 JUMPI PUSH32 0x76254391687772340030BC79660C2D1E15DAD744F94894A52E52863B5FCA1115 SWAP3 PUSH1 0x1 PUSH1 0x40 SWAP4 PUSH1 0xFF NOT AND OR SWAP1 SSTORE PUSH1 0x7 PUSH1 0x6 DUP3 ADD SLOAD SWAP2 ADD SLOAD DUP3 MLOAD SWAP2 DUP3 MSTORE PUSH1 0x20 DUP3 ADD MSTORE LOG2 STOP JUMPDEST PUSH1 0x40 MLOAD PUSH3 0x461BCD PUSH1 0xE5 SHL DUP2 MSTORE PUSH1 0x20 PUSH1 0x4 DUP3 ADD MSTORE PUSH1 0x12 PUSH1 0x24 DUP3 ADD MSTORE PUSH18 0x141BDB1B081B9BDD08195B991959081E595D PUSH1 0x72 SHL PUSH1 0x44 DUP3 ADD MSTORE PUSH1 0x64 SWAP1 REVERT JUMPDEST PUSH4 0x4E487B71 PUSH1 0xE0 SHL PUSH1 0x0 MSTORE PUSH1 0x21 PUSH1 0x4 MSTORE PUSH1 0x24 PUSH1 0x0 REVERT JUMPDEST PUSH1 0x0 DUP1 REVERT JUMPDEST CALLVALUE PUSH2 0x3B2 JUMPI PUSH1 0x20 CALLDATASIZE PUSH1 0x3 NOT ADD SLT PUSH2 0x3B2 JUMPI PUSH1 0x20 PUSH2 0x3DA PUSH2 0x3D5 PUSH2 0x3AD4 JUMP JUMPDEST PUSH2 0x4580 JUMP JUMPDEST PUSH1 0x40 MLOAD SWAP1 DUP2 MSTORE RETURN JUMPDEST PUSH2 0x3B66 JUMP JUMPDEST CALLVALUE PUSH2 0x3B2 JUMPI PUSH1 0x20 CALLDATASIZE PUSH1 0x3 NOT ADD SLT PUSH2 0x3B2 JUMPI PUSH1 0x4 CALLDATALOAD PUSH2 0x403 PUSH2 0x45B4 JUMP JUMPDEST PUSH3 0x15180 DUP2 LT ISZERO DUP1 PUSH2 0x47C JUMPI JUMPDEST ISZERO PUSH2 0x446 JUMPI PUSH1 0x20 DUP2 PUSH32 0x651C77F42613A075437AA794C44471E3ABC3A661956A67AAEE165BB7396974AA SWAP3 PUSH1 0x4 SSTORE PUSH1 0x40 MLOAD SWAP1 DUP2 MSTORE LOG1 STOP JUMPDEST PUSH1 0x40 MLOAD PUSH3 0x461BCD PUSH1 0xE5 SHL DUP2 MSTORE PUSH1 0x20 PUSH1 0x4 DUP3 ADD MSTORE PUSH1 0xE PUSH1 0x24 DUP3 ADD MSTORE PUSH14 0x125B9D985B1A59081C195C9A5BD9 PUSH1 0x92 SHL PUSH1 0x44 DUP3 ADD MSTORE PUSH1 0x64 SWAP1 REVERT JUMPDEST POP PUSH3 0x278D00 DUP2 GT ISZERO PUSH2 0x410 JUMP JUMPDEST CALLVALUE PUSH2 0x3B2 JUMPI PUSH1 0x20 DUP1 PUSH1 0x3 NOT CALLDATASIZE ADD SLT PUSH2 0x3B2 JUMPI PUSH1 0x4 CALLDATALOAD SWAP1 DUP2 PUSH1 0x0 MSTORE PUSH1 0x6 DUP2 MSTORE PUSH1 0x40 PUSH1 0x0 KECCAK256 PUSH1 0x1 DUP1 PUSH1 0xA0 SHL SUB PUSH1 0x2 DUP3 ADD SLOAD AND CALLER EQ DUP1 ISZERO PUSH2 0x591 JUMPI JUMPDEST ISZERO PUSH2 0x55B JUMPI PUSH1 0xC ADD SWAP1 DUP2 SLOAD SWAP1 PUSH1 0xFF DUP3 AND PUSH1 0x6 DUP2 LT ISZERO PUSH2 0x39C JUMPI PUSH1 0x1 DUP2 EQ SWAP1 DUP2 ISZERO PUSH2 0x552 JUMPI JUMPDEST POP ISZERO PUSH2 0x51E JUMPI POP PUSH1 0xFF NOT AND PUSH1 0x5 OR SWAP1 SSTORE PUSH32 0x416E669C63D9A3A5E36EE7CC7E2104B8DB28CCD286AA18966E98FA230C73B08C PUSH1 0x0 DUP1 LOG2 STOP JUMPDEST PUSH1 0x64 SWAP1 PUSH1 0x40 MLOAD SWAP1 PUSH3 0x461BCD PUSH1 0xE5 SHL DUP3 MSTORE PUSH1 0x4 DUP3 ADD MSTORE PUSH1 0xD PUSH1 0x24 DUP3 ADD MSTORE PUSH13 0x10D85B9B9BDD0818D85B98D95B PUSH1 0x9A SHL PUSH1 0x44 DUP3 ADD MSTORE REVERT JUMPDEST SWAP1 POP ISZERO DUP6 PUSH2 0x4E7 JUMP JUMPDEST PUSH1 0x40 MLOAD PUSH3 0x461BCD PUSH1 0xE5 SHL DUP2 MSTORE PUSH1 0x4 DUP2 ADD DUP4 SWAP1 MSTORE PUSH1 0xE PUSH1 0x24 DUP3 ADD MSTORE PUSH14 0x139BDD08185D5D1A1BDC9A5E9959 PUSH1 0x92 SHL PUSH1 0x44 DUP3 ADD MSTORE PUSH1 0x64 SWAP1 REVERT JUMPDEST POP PUSH1 0x0 DUP1 MSTORE PUSH1 0x0 DUP3 MSTORE PUSH1 0x40 PUSH1 0x0 KECCAK256 CALLER PUSH1 0x0 MSTORE DUP3 MSTORE PUSH1 0xFF PUSH1 0x40 PUSH1 0x0 KECCAK256 SLOAD AND PUSH2 0x4C2 JUMP JUMPDEST CALLVALUE PUSH2 0x3B2 JUMPI PUSH1 0x20 CALLDATASIZE PUSH1 0x3 NOT ADD SLT PUSH2 0x3B2 JUMPI PUSH1 0x1 PUSH1 0x1 PUSH1 0xA0 SHL SUB PUSH2 0x5D4 PUSH2 0x3AD4 JUMP JUMPDEST AND PUSH1 0x0 MSTORE PUSH1 0xB PUSH1 0x20 MSTORE PUSH1 0x20 PUSH1 0x40 PUSH1 0x0 KECCAK256 SLOAD PUSH1 0x40 MLOAD SWAP1 DUP2 MSTORE RETURN JUMPDEST CALLVALUE PUSH2 0x3B2 JUMPI PUSH1 0x0 CALLDATASIZE PUSH1 0x3 NOT ADD SLT PUSH2 0x3B2 JUMPI PUSH1 0x20 PUSH1 0x5 SLOAD PUSH1 0x40 MLOAD SWAP1 DUP2 MSTORE RETURN JUMPDEST CALLVALUE PUSH2 0x3B2 JUMPI PUSH1 0x0 CALLDATASIZE PUSH1 0x3 NOT ADD SLT PUSH2 0x3B2 JUMPI PUSH1 0x20 PUSH1 0x7 SLOAD PUSH1 0x40 MLOAD SWAP1 DUP2 MSTORE RETURN JUMPDEST CALLVALUE PUSH2 0x3B2 JUMPI PUSH1 0x40 CALLDATASIZE PUSH1 0x3 NOT ADD SLT PUSH2 0x3B2 JUMPI PUSH2 0x668 PUSH1 0x4 CALLDATALOAD PUSH2 0x648 PUSH2 0x3AEA JUMP JUMPDEST SWAP1 DUP1 PUSH1 0x0 MSTORE PUSH1 0x0 PUSH1 0x20 MSTORE PUSH2 0x663 PUSH1 0x1 PUSH1 0x40 PUSH1 0x0 KECCAK256 ADD SLOAD PUSH2 0x464A JUMP JUMPDEST PUSH2 0x483B JUMP JUMPDEST STOP JUMPDEST CALLVALUE PUSH2 0x3B2 JUMPI PUSH1 0x40 CALLDATASIZE PUSH1 0x3 NOT ADD SLT PUSH2 0x3B2 JUMPI PUSH2 0x683 PUSH2 0x3AEA JUMP JUMPDEST PUSH1 0x4 CALLDATALOAD PUSH1 0x0 MSTORE PUSH1 0x8 PUSH1 0x20 MSTORE PUSH1 0x40 PUSH1 0x0 KECCAK256 SWAP1 PUSH1 0x1 DUP1 PUSH1 0xA0 SHL SUB AND PUSH1 0x0 MSTORE PUSH1 0x20 MSTORE PUSH1 0x60 PUSH1 0x40 PUSH1 0x0 KECCAK256 PUSH1 0x1 DUP2 SLOAD SWAP2 ADD SLOAD PUSH1 0xFF PUSH1 0x40 MLOAD SWAP3 DUP2 DUP2 AND ISZERO ISZERO DUP5 MSTORE PUSH1 0x8 SHR AND PUSH1 0x20 DUP4 ADD MSTORE PUSH1 0x40 DUP3 ADD MSTORE RETURN JUMPDEST CALLVALUE PUSH2 0x3B2 JUMPI PUSH1 0x20 CALLDATASIZE PUSH1 0x3 NOT ADD SLT PUSH2 0x3B2 JUMPI PUSH1 0x4 CALLDATALOAD PUSH1 0x4 DUP2 LT ISZERO PUSH2 0x3B2 JUMPI PUSH2 0x6F3 DUP2 PUSH2 0x3975 JUMP JUMPDEST PUSH1 0x0 SWAP1 DUP2 MSTORE PUSH1 0x10 PUSH1 0x20 MSTORE PUSH1 0x40 SWAP1 KECCAK256 SLOAD PUSH1 0x12 SLOAD SWAP1 DUP2 ISZERO PUSH2 0x74D JUMPI PUSH2 0x2710 DUP1 DUP3 MUL SWAP1 DUP3 DUP3 DIV EQ DUP3 ISZERO OR ISZERO PUSH2 0x737 JUMPI PUSH1 0x40 SWAP3 PUSH2 0x72B SWAP2 PUSH2 0x3CA8 JUMP JUMPDEST DUP3 MLOAD SWAP2 DUP3 MSTORE PUSH1 0x20 DUP3 ADD MSTORE RETURN JUMPDEST PUSH4 0x4E487B71 PUSH1 0xE0 SHL PUSH1 0x0 MSTORE PUSH1 0x11 PUSH1 0x4 MSTORE PUSH1 0x24 PUSH1 0x0 REVERT JUMPDEST PUSH1 0x40 SWAP2 POP PUSH1 0x0 PUSH2 0x72B JUMP JUMPDEST CALLVALUE PUSH2 0x3B2 JUMPI PUSH1 0x20 CALLDATASIZE PUSH1 0x3 NOT ADD SLT PUSH2 0x3B2 JUMPI PUSH2 0x771 PUSH2 0x433C JUMP JUMPDEST POP PUSH1 0x4 CALLDATALOAD PUSH1 0x0 MSTORE PUSH1 0x6 PUSH1 0x20 MSTORE PUSH2 0x7A1 PUSH2 0x78D PUSH1 0x40 PUSH1 0x0 KECCAK256 PUSH2 0x43CD JUMP JUMPDEST PUSH1 0x40 MLOAD SWAP2 DUP3 SWAP2 PUSH1 0x20 DUP4 MSTORE PUSH1 0x20 DUP4 ADD SWAP1 PUSH2 0x3BA0 JUMP JUMPDEST SUB SWAP1 RETURN JUMPDEST CALLVALUE PUSH2 0x3B2 JUMPI PUSH1 0xA0 CALLDATASIZE PUSH1 0x3 NOT ADD SLT PUSH2 0x3B2 JUMPI PUSH1 0x4 PUSH1 0x24 CALLDATALOAD LT ISZERO PUSH2 0x3B2 JUMPI PUSH1 0x44 CALLDATALOAD PUSH1 0x1 PUSH1 0x1 PUSH1 0x40 SHL SUB DUP2 GT PUSH2 0x3B2 JUMPI PUSH2 0x7E0 SWAP1 CALLDATASIZE SWAP1 PUSH1 0x4 ADD PUSH2 0x3B10 JUMP JUMPDEST PUSH1 0x64 SWAP1 DUP2 CALLDATALOAD PUSH1 0x1 PUSH1 0x1 PUSH1 0x40 SHL SUB DUP2 GT PUSH2 0x3B2 JUMPI PUSH2 0x801 SWAP1 CALLDATASIZE SWAP1 PUSH1 0x4 ADD PUSH2 0x3B10 JUMP JUMPDEST PUSH2 0x809 PUSH2 0x45EE JUMP JUMPDEST PUSH2 0x814 PUSH1 0x24 CALLDATALOAD PUSH2 0x3975 JUMP JUMPDEST PUSH1 0x24 CALLDATALOAD ISZERO PUSH2 0x1256 JUMPI JUMPDEST PUSH2 0x82B DUP4 PUSH1 0x84 CALLDATALOAD GT ISZERO PUSH2 0x428D JUMP JUMPDEST PUSH1 0x4 CALLDATALOAD PUSH1 0x0 MSTORE PUSH1 0xC PUSH1 0x20 MSTORE PUSH1 0x40 PUSH1 0x0 KECCAK256 SWAP1 PUSH1 0xFF PUSH1 0xA DUP4 ADD SLOAD AND PUSH1 0x3 DUP2 LT ISZERO PUSH2 0x39C JUMPI PUSH1 0x1 SUB PUSH2 0x1212 JUMPI PUSH1 0xB DUP3 ADD SLOAD PUSH2 0x11DA JUMPI PUSH1 0x6 DUP3 ADD SLOAD PUSH2 0x870 PUSH1 0x7 DUP5 ADD SLOAD DUP3 PUSH2 0x4059 JUMP JUMPDEST SWAP1 DUP2 ISZERO PUSH2 0x11A6 JUMPI PUSH2 0x2710 SWAP1 DUP2 DUP2 MUL SWAP2 DUP2 DUP4 DIV EQ SWAP1 ISZERO OR ISZERO PUSH2 0x737 JUMPI PUSH2 0xBB8 SWAP2 PUSH2 0x898 SWAP2 PUSH2 0x3CA8 JUMP JUMPDEST LT PUSH2 0x1162 JUMPI PUSH1 0x2 SLOAD PUSH1 0x1 DUP4 ADD SLOAD PUSH1 0x40 MLOAD PUSH4 0x6DED6A19 PUSH1 0xE1 SHL DUP2 MSTORE PUSH1 0x4 DUP2 ADD SWAP2 SWAP1 SWAP2 MSTORE CALLER PUSH1 0x24 DUP3 ADD MSTORE PUSH1 0x1 PUSH1 0x1 PUSH1 0xA0 SHL SUB SWAP1 SWAP2 AND SWAP4 SWAP1 PUSH1 0x20 DUP2 PUSH1 0x44 DUP2 DUP9 GAS STATICCALL DUP1 ISZERO PUSH2 0x111C JUMPI PUSH1 0x0 SWAP1 PUSH2 0x112E JUMPI JUMPDEST PUSH2 0x8F0 SWAP2 POP ISZERO ISZERO PUSH2 0x42D9 JUMP JUMPDEST PUSH1 0x7 SLOAD SWAP4 PUSH2 0x8FD DUP6 PUSH2 0x400C JUMP JUMPDEST PUSH1 0x7 SSTORE PUSH2 0x90B PUSH1 0x24 CALLDATALOAD PUSH2 0x48B0 JUMP JUMPDEST PUSH2 0x1F4 DUP2 GT ISZERO PUSH2 0x1128 JUMPI DUP1 PUSH2 0x1F3 NOT DUP2 ADD GT PUSH2 0x737 JUMPI PUSH2 0x1F3 NOT ADD SWAP6 JUMPDEST PUSH1 0x20 PUSH1 0x1 DUP7 ADD SLOAD PUSH1 0x24 PUSH1 0x40 MLOAD DUP1 SWAP6 DUP2 SWAP4 PUSH4 0x8CDC1E87 PUSH1 0xE0 SHL DUP4 MSTORE PUSH1 0x4 DUP4 ADD MSTORE GAS STATICCALL SWAP2 DUP3 ISZERO PUSH2 0x111C JUMPI PUSH1 0x0 SWAP3 PUSH2 0x10E8 JUMPI JUMPDEST POP DUP2 ISZERO PUSH2 0x10AD JUMPI POP DUP5 PUSH1 0x0 MSTORE PUSH1 0x9 PUSH1 0x20 MSTORE PUSH1 0x40 PUSH1 0x0 KECCAK256 SSTORE PUSH1 0x1 DUP4 ADD SLOAD SWAP5 PUSH2 0x981 PUSH1 0x4 SLOAD TIMESTAMP PUSH2 0x4059 JUMP JUMPDEST PUSH1 0x40 MLOAD SWAP7 PUSH2 0x98E DUP9 PUSH2 0x3902 JUMP JUMPDEST DUP7 DUP9 MSTORE PUSH1 0x20 DUP9 ADD MSTORE CALLER PUSH1 0x40 DUP9 ADD MSTORE PUSH2 0x9A7 PUSH1 0x24 CALLDATALOAD PUSH2 0x3975 JUMP JUMPDEST PUSH1 0x24 CALLDATALOAD PUSH1 0x60 DUP9 ADD MSTORE PUSH1 0x40 MLOAD PUSH2 0x9CA DUP2 PUSH2 0x9C3 DUP2 PUSH1 0x3 DUP11 ADD PUSH2 0x3850 JUMP JUMPDEST SUB DUP3 PUSH2 0x3954 JUMP JUMPDEST PUSH1 0x80 DUP9 ADD MSTORE PUSH1 0x40 MLOAD PUSH2 0x9E3 DUP2 PUSH2 0x9C3 DUP2 PUSH1 0x4 DUP11 ADD PUSH2 0x3850 JUMP JUMPDEST PUSH1 0xA0 DUP9 ADD MSTORE PUSH1 0x40 MLOAD PUSH2 0x9FC DUP2 PUSH2 0x9C3 DUP2 PUSH1 0x5 DUP11 ADD PUSH2 0x3850 JUMP JUMPDEST PUSH1 0xC0 DUP9 ADD MSTORE PUSH1 0x0 PUSH1 0xE0 DUP9 ADD MSTORE PUSH1 0x0 PUSH2 0x100 DUP9 ADD MSTORE PUSH1 0x0 PUSH2 0x120 DUP9 ADD MSTORE TIMESTAMP PUSH2 0x140 DUP9 ADD MSTORE PUSH2 0x160 DUP8 ADD MSTORE PUSH2 0x180 DUP7 ADD MSTORE PUSH1 0x1 PUSH2 0x1A0 DUP7 ADD MSTORE PUSH2 0x1C0 DUP6 ADD MSTORE PUSH2 0x1E0 DUP5 ADD MSTORE PUSH1 0x84 CALLDATALOAD PUSH2 0x200 DUP5 ADD MSTORE DUP2 PUSH1 0x0 MSTORE PUSH1 0x6 PUSH1 0x20 MSTORE PUSH1 0x40 PUSH1 0x0 KECCAK256 DUP4 MLOAD DUP2 SSTORE PUSH1 0x20 DUP5 ADD MLOAD PUSH1 0x1 DUP3 ADD SSTORE PUSH1 0x2 DUP2 ADD PUSH1 0x1 DUP1 PUSH1 0xA0 SHL SUB PUSH1 0x40 DUP7 ADD MLOAD AND DUP2 SLOAD SWAP1 PUSH1 0x60 DUP8 ADD MLOAD PUSH2 0xA86 DUP2 PUSH2 0x3975 JUMP JUMPDEST PUSH2 0xA8F DUP2 PUSH2 0x3975 JUMP JUMPDEST PUSH1 0x1 PUSH1 0x1 PUSH1 0xA8 SHL SUB NOT SWAP1 SWAP3 AND OR PUSH1 0xA0 SWAP2 SWAP1 SWAP2 SHL PUSH1 0xFF PUSH1 0xA0 SHL AND OR SWAP1 SSTORE PUSH1 0x80 DUP5 ADD MLOAD DUP1 MLOAD SWAP1 PUSH1 0x1 PUSH1 0x1 PUSH1 0x40 SHL SUB DUP3 GT PUSH2 0xEC4 JUMPI PUSH2 0xADB DUP3 PUSH2 0xAD2 PUSH1 0x3 DUP7 ADD SLOAD PUSH2 0x3816 JUMP JUMPDEST PUSH1 0x3 DUP7 ADD PUSH2 0x4066 JUMP JUMPDEST PUSH1 0x20 SWAP1 PUSH1 0x1F DUP4 GT PUSH1 0x1 EQ PUSH2 0x103B JUMPI PUSH2 0xB0C SWAP3 SWAP2 PUSH1 0x0 SWAP2 DUP4 PUSH2 0xEDA JUMPI JUMPDEST POP POP DUP2 PUSH1 0x1 SHL SWAP2 PUSH1 0x0 NOT SWAP1 PUSH1 0x3 SHL SHR NOT AND OR SWAP1 JUMP JUMPDEST PUSH1 0x3 DUP3 ADD SSTORE JUMPDEST PUSH1 0xA0 DUP5 ADD MLOAD DUP1 MLOAD SWAP1 PUSH1 0x1 PUSH1 0x1 PUSH1 0x40 SHL SUB DUP3 GT PUSH2 0xEC4 JUMPI PUSH2 0xB42 DUP3 PUSH2 0xB39 PUSH1 0x4 DUP7 ADD SLOAD PUSH2 0x3816 JUMP JUMPDEST PUSH1 0x4 DUP7 ADD PUSH2 0x4066 JUMP JUMPDEST PUSH1 0x20 SWAP1 PUSH1 0x1F DUP4 GT PUSH1 0x1 EQ PUSH2 0xFC9 JUMPI PUSH2 0xB72 SWAP3 SWAP2 PUSH1 0x0 SWAP2 DUP4 PUSH2 0xEDA JUMPI POP POP DUP2 PUSH1 0x1 SHL SWAP2 PUSH1 0x0 NOT SWAP1 PUSH1 0x3 SHL SHR NOT AND OR SWAP1 JUMP JUMPDEST PUSH1 0x4 DUP3 ADD SSTORE JUMPDEST PUSH1 0xC0 DUP5 ADD MLOAD DUP1 MLOAD SWAP1 PUSH1 0x1 PUSH1 0x1 PUSH1 0x40 SHL SUB DUP3 GT PUSH2 0xEC4 JUMPI PUSH2 0xBA8 DUP3 PUSH2 0xB9F PUSH1 0x5 DUP7 ADD SLOAD PUSH2 0x3816 JUMP JUMPDEST PUSH1 0x5 DUP7 ADD PUSH2 0x4066 JUMP JUMPDEST PUSH1 0x20 SWAP1 PUSH1 0x1F DUP4 GT PUSH1 0x1 EQ PUSH2 0xF57 JUMPI PUSH2 0xBD8 SWAP3 SWAP2 PUSH1 0x0 SWAP2 DUP4 PUSH2 0xEDA JUMPI POP POP DUP2 PUSH1 0x1 SHL SWAP2 PUSH1 0x0 NOT SWAP1 PUSH1 0x3 SHL SHR NOT AND OR SWAP1 JUMP JUMPDEST PUSH1 0x5 DUP3 ADD SSTORE JUMPDEST PUSH1 0xE0 DUP5 ADD MLOAD PUSH1 0x6 DUP3 ADD SSTORE PUSH2 0x100 DUP5 ADD MLOAD PUSH1 0x7 DUP3 ADD SSTORE PUSH2 0x120 DUP5 ADD MLOAD PUSH1 0x8 DUP3 ADD SSTORE PUSH2 0x140 DUP5 ADD MLOAD PUSH1 0x9 DUP3 ADD SSTORE PUSH2 0x160 DUP5 ADD MLOAD PUSH1 0xA DUP3 ADD SSTORE PUSH2 0x180 DUP5 ADD MLOAD PUSH1 0xB DUP3 ADD SSTORE PUSH2 0x1A0 DUP5 ADD MLOAD PUSH1 0x6 DUP2 LT ISZERO PUSH2 0x39C JUMPI PUSH2 0xC3B SWAP1 PUSH1 0xC DUP4 ADD PUSH2 0x3D95 JUMP JUMPDEST PUSH2 0x1C0 DUP5 ADD MLOAD DUP1 MLOAD SWAP1 PUSH1 0x1 PUSH1 0x1 PUSH1 0x40 SHL SUB DUP3 GT PUSH2 0xEC4 JUMPI PUSH2 0xC6C DUP3 PUSH2 0xC63 PUSH1 0xD DUP7 ADD SLOAD PUSH2 0x3816 JUMP JUMPDEST PUSH1 0xD DUP7 ADD PUSH2 0x4066 JUMP JUMPDEST PUSH1 0x20 SWAP1 PUSH1 0x1F DUP4 GT PUSH1 0x1 EQ PUSH2 0xEE5 JUMPI PUSH2 0xC9C SWAP3 SWAP2 PUSH1 0x0 SWAP2 DUP4 PUSH2 0xEDA JUMPI POP POP DUP2 PUSH1 0x1 SHL SWAP2 PUSH1 0x0 NOT SWAP1 PUSH1 0x3 SHL SHR NOT AND OR SWAP1 JUMP JUMPDEST PUSH1 0xD DUP3 ADD SSTORE JUMPDEST PUSH2 0x1E0 DUP5 ADD MLOAD SWAP4 DUP5 MLOAD PUSH1 0x1 PUSH1 0x1 PUSH1 0x40 SHL SUB DUP2 GT PUSH2 0xEC4 JUMPI PUSH1 0x20 SWAP6 PUSH2 0xCD6 DUP3 PUSH2 0xCCD PUSH1 0xE DUP8 ADD SLOAD PUSH2 0x3816 JUMP JUMPDEST PUSH1 0xE DUP8 ADD PUSH2 0x4066 JUMP JUMPDEST DUP7 SWAP1 PUSH1 0x1F DUP4 GT PUSH1 0x1 EQ PUSH2 0xE50 JUMPI DUP3 PUSH2 0x200 SWAP4 PUSH1 0xF SWAP6 SWAP4 PUSH2 0xD0C SWAP4 PUSH1 0x0 SWAP3 PUSH2 0xE45 JUMPI POP POP DUP2 PUSH1 0x1 SHL SWAP2 PUSH1 0x0 NOT SWAP1 PUSH1 0x3 SHL SHR NOT AND OR SWAP1 JUMP JUMPDEST PUSH1 0xE DUP6 ADD SSTORE JUMPDEST ADD MLOAD SWAP2 ADD SSTORE DUP2 PUSH1 0xFF NOT PUSH1 0x2 DUP2 PUSH1 0xA DUP6 ADD SLOAD AND OR PUSH1 0xA DUP5 ADD SSTORE DUP2 PUSH1 0xB DUP5 ADD SSTORE PUSH1 0x1 DUP4 ADD SLOAD SWAP3 PUSH1 0x40 MLOAD SWAP2 CALLER DUP4 MSTORE PUSH2 0xD48 PUSH1 0x24 CALLDATALOAD PUSH2 0x3975 JUMP JUMPDEST PUSH1 0x24 CALLDATALOAD DUP8 DUP5 ADD MSTORE PUSH1 0x60 PUSH1 0x40 DUP5 ADD MSTORE PUSH1 0x0 SWAP2 PUSH1 0x3 DUP2 ADD SLOAD PUSH2 0xD67 DUP2 PUSH2 0x3816 JUMP JUMPDEST SWAP3 DUP4 PUSH1 0x60 DUP8 ADD MSTORE PUSH1 0x1 DUP3 AND SWAP2 DUP3 PUSH1 0x0 EQ PUSH2 0xE17 JUMPI POP POP PUSH1 0x1 EQ PUSH2 0xDCD JUMPI JUMPDEST POP POP SWAP1 DUP1 PUSH1 0x0 DUP1 MLOAD PUSH1 0x20 PUSH2 0x4A75 DUP4 CODECOPY DUP2 MLOAD SWAP2 MSTORE SWAP3 SUB SWAP1 LOG3 PUSH1 0x40 MLOAD SWAP1 DUP1 PUSH1 0x4 CALLDATALOAD PUSH32 0xF57507588A3F55547E832AD7906FC1C90A328D2C78895BC24ABF93C41E8568A0 PUSH1 0x0 DUP1 LOG3 DUP2 MSTORE RETURN JUMPDEST PUSH1 0x3 ADD PUSH1 0x0 SWAP1 DUP2 MSTORE DUP8 DUP2 KECCAK256 SWAP1 SWAP3 POP JUMPDEST DUP2 DUP4 LT PUSH2 0xDFF JUMPI POP POP DUP2 ADD PUSH1 0x80 ADD DUP2 PUSH1 0x0 DUP1 MLOAD PUSH1 0x20 PUSH2 0x4A75 DUP4 CODECOPY DUP2 MLOAD SWAP2 MSTORE PUSH2 0xD85 JUMP JUMPDEST DUP1 SLOAD DUP4 DUP6 ADD PUSH1 0x80 ADD MSTORE DUP7 SWAP5 POP SWAP2 DUP8 ADD SWAP2 PUSH1 0x1 ADD PUSH2 0xDDC JUMP JUMPDEST DUP7 SWAP6 POP PUSH1 0x80 SWAP4 POP PUSH1 0x0 DUP1 MLOAD PUSH1 0x20 PUSH2 0x4A75 DUP4 CODECOPY DUP2 MLOAD SWAP2 MSTORE SWAP7 SWAP5 SWAP3 POP AND DUP3 DUP5 ADD MSTORE ISZERO ISZERO PUSH1 0x5 SHL DUP3 ADD ADD SWAP2 SWAP3 PUSH2 0xD85 JUMP JUMPDEST ADD MLOAD SWAP1 POP DUP11 DUP1 PUSH2 0xAF7 JUMP JUMPDEST SWAP1 PUSH1 0xE DUP6 ADD PUSH1 0x0 MSTORE DUP8 PUSH1 0x0 KECCAK256 SWAP2 PUSH1 0x0 JUMPDEST PUSH1 0x1F NOT DUP6 AND DUP2 LT PUSH2 0xEAD JUMPI POP SWAP3 PUSH1 0xF SWAP5 SWAP3 PUSH1 0x1 SWAP3 PUSH2 0x200 SWAP6 DUP4 PUSH1 0x1F NOT DUP2 AND LT PUSH2 0xE94 JUMPI JUMPDEST POP POP POP DUP2 SHL ADD PUSH1 0xE DUP6 ADD SSTORE PUSH2 0xD12 JUMP JUMPDEST ADD MLOAD PUSH1 0x0 NOT PUSH1 0xF8 DUP5 PUSH1 0x3 SHL AND SHR NOT AND SWAP1 SSTORE DUP10 DUP1 DUP1 PUSH2 0xE84 JUMP JUMPDEST SWAP2 SWAP3 DUP10 PUSH1 0x1 DUP2 SWAP3 DUP7 DUP6 ADD MLOAD DUP2 SSTORE ADD SWAP5 ADD SWAP3 ADD PUSH2 0xE60 JUMP JUMPDEST PUSH4 0x4E487B71 PUSH1 0xE0 SHL PUSH1 0x0 MSTORE PUSH1 0x41 PUSH1 0x4 MSTORE PUSH1 0x24 PUSH1 0x0 REVERT JUMPDEST ADD MLOAD SWAP1 POP DUP8 DUP1 PUSH2 0xAF7 JUMP JUMPDEST SWAP2 SWAP1 PUSH1 0xD DUP5 ADD PUSH1 0x0 MSTORE PUSH1 0x20 PUSH1 0x0 KECCAK256 SWAP1 PUSH1 0x0 SWAP4 JUMPDEST PUSH1 0x1F NOT DUP5 AND DUP6 LT PUSH2 0xF3C JUMPI PUSH1 0x1 SWAP5 POP DUP4 PUSH1 0x1F NOT DUP2 AND LT PUSH2 0xF23 JUMPI JUMPDEST POP POP POP DUP2 SHL ADD PUSH1 0xD DUP3 ADD SSTORE PUSH2 0xCA2 JUMP JUMPDEST ADD MLOAD PUSH1 0x0 NOT PUSH1 0xF8 DUP5 PUSH1 0x3 SHL AND SHR NOT AND SWAP1 SSTORE DUP7 DUP1 DUP1 PUSH2 0xF13 JUMP JUMPDEST DUP2 DUP2 ADD MLOAD DUP4 SSTORE PUSH1 0x20 SWAP5 DUP6 ADD SWAP5 PUSH1 0x1 SWAP1 SWAP4 ADD SWAP3 SWAP1 SWAP2 ADD SWAP1 PUSH2 0xEF8 JUMP JUMPDEST SWAP2 SWAP1 PUSH1 0x5 DUP5 ADD PUSH1 0x0 MSTORE PUSH1 0x20 PUSH1 0x0 KECCAK256 SWAP1 PUSH1 0x0 SWAP4 JUMPDEST PUSH1 0x1F NOT DUP5 AND DUP6 LT PUSH2 0xFAE JUMPI PUSH1 0x1 SWAP5 POP DUP4 PUSH1 0x1F NOT DUP2 AND LT PUSH2 0xF95 JUMPI JUMPDEST POP POP POP DUP2 SHL ADD PUSH1 0x5 DUP3 ADD SSTORE PUSH2 0xBDE JUMP JUMPDEST ADD MLOAD PUSH1 0x0 NOT PUSH1 0xF8 DUP5 PUSH1 0x3 SHL AND SHR NOT AND SWAP1 SSTORE DUP7 DUP1 DUP1 PUSH2 0xF85 JUMP JUMPDEST DUP2 DUP2 ADD MLOAD DUP4 SSTORE PUSH1 0x20 SWAP5 DUP6 ADD SWAP5 PUSH1 0x1 SWAP1 SWAP4 ADD SWAP3 SWAP1 SWAP2 ADD SWAP1 PUSH2 0xF6A JUMP JUMPDEST SWAP2 SWAP1 PUSH1 0x4 DUP5 ADD PUSH1 0x0 MSTORE PUSH1 0x20 PUSH1 0x0 KECCAK256 SWAP1 PUSH1 0x0 SWAP4 JUMPDEST PUSH1 0x1F NOT DUP5 AND DUP6 LT PUSH2 0x1020 JUMPI PUSH1 0x1 SWAP5 POP DUP4 PUSH1 0x1F NOT DUP2 AND LT PUSH2 0x1007 JUMPI JUMPDEST POP POP POP DUP2 SHL ADD PUSH1 0x4 DUP3 ADD SSTORE PUSH2 0xB78 JUMP JUMPDEST ADD MLOAD PUSH1 0x0 NOT PUSH1 0xF8 DUP5 PUSH1 0x3 SHL AND SHR NOT AND SWAP1 SSTORE DUP7 DUP1 DUP1 PUSH2 0xFF7 JUMP JUMPDEST DUP2 DUP2 ADD MLOAD DUP4 SSTORE PUSH1 0x20 SWAP5 DUP6 ADD SWAP5 PUSH1 0x1 SWAP1 SWAP4 ADD SWAP3 SWAP1 SWAP2 ADD SWAP1 PUSH2 0xFDC JUMP JUMPDEST SWAP2 SWAP1 PUSH1 0x3 DUP5 ADD PUSH1 0x0 MSTORE PUSH1 0x20 PUSH1 0x0 KECCAK256 SWAP1 PUSH1 0x0 SWAP4 JUMPDEST PUSH1 0x1F NOT DUP5 AND DUP6 LT PUSH2 0x1092 JUMPI PUSH1 0x1 SWAP5 POP DUP4 PUSH1 0x1F NOT DUP2 AND LT PUSH2 0x1079 JUMPI JUMPDEST POP POP POP DUP2 SHL ADD PUSH1 0x3 DUP3 ADD SSTORE PUSH2 0xB12 JUMP JUMPDEST ADD MLOAD PUSH1 0x0 NOT PUSH1 0xF8 DUP5 PUSH1 0x3 SHL AND SHR NOT AND SWAP1 SSTORE DUP7 DUP1 DUP1 PUSH2 0x1069 JUMP JUMPDEST DUP2 DUP2 ADD MLOAD DUP4 SSTORE PUSH1 0x20 SWAP5 DUP6 ADD SWAP5 PUSH1 0x1 SWAP1 SWAP4 ADD SWAP3 SWAP1 SWAP2 ADD SWAP1 PUSH2 0x104E JUMP JUMPDEST PUSH1 0x40 MLOAD PUSH3 0x461BCD PUSH1 0xE5 SHL DUP2 MSTORE PUSH1 0x20 PUSH1 0x4 DUP3 ADD MSTORE PUSH1 0x16 PUSH1 0x24 DUP3 ADD MSTORE PUSH22 0x4E6F20766F74696E6720706F77657220657869737473 PUSH1 0x50 SHL PUSH1 0x44 DUP3 ADD MSTORE REVERT JUMPDEST SWAP1 SWAP2 POP PUSH1 0x20 DUP2 RETURNDATASIZE PUSH1 0x20 GT PUSH2 0x1114 JUMPI JUMPDEST DUP2 PUSH2 0x1104 PUSH1 0x20 SWAP4 DUP4 PUSH2 0x3954 JUMP JUMPDEST DUP2 ADD SUB SLT PUSH2 0x3B2 JUMPI MLOAD SWAP1 DUP8 PUSH2 0x958 JUMP JUMPDEST RETURNDATASIZE SWAP2 POP PUSH2 0x10F7 JUMP JUMPDEST PUSH1 0x40 MLOAD RETURNDATASIZE PUSH1 0x0 DUP3 RETURNDATACOPY RETURNDATASIZE SWAP1 REVERT JUMPDEST SWAP6 PUSH2 0x928 JUMP JUMPDEST POP PUSH1 0x20 DUP2 RETURNDATASIZE PUSH1 0x20 GT PUSH2 0x115A JUMPI JUMPDEST DUP2 PUSH2 0x1148 PUSH1 0x20 SWAP4 DUP4 PUSH2 0x3954 JUMP JUMPDEST DUP2 ADD SUB SLT PUSH2 0x3B2 JUMPI PUSH2 0x8F0 SWAP1 MLOAD PUSH2 0x8E4 JUMP JUMPDEST RETURNDATASIZE SWAP2 POP PUSH2 0x113B JUMP JUMPDEST PUSH1 0x40 MLOAD PUSH3 0x461BCD PUSH1 0xE5 SHL DUP2 MSTORE PUSH1 0x20 PUSH1 0x4 DUP3 ADD MSTORE PUSH1 0x19 PUSH1 0x24 DUP3 ADD MSTORE PUSH32 0x496E73756666696369656E7420706F6C6C20737570706F727400000000000000 PUSH1 0x44 DUP3 ADD MSTORE DUP5 SWAP1 REVERT JUMPDEST PUSH1 0x40 MLOAD PUSH3 0x461BCD PUSH1 0xE5 SHL DUP2 MSTORE PUSH1 0x20 PUSH1 0x4 DUP3 ADD MSTORE PUSH1 0xD PUSH1 0x24 DUP3 ADD MSTORE PUSH13 0x139BC81D9BDD195CC818D85CDD PUSH1 0x9A SHL PUSH1 0x44 DUP3 ADD MSTORE DUP7 SWAP1 REVERT JUMPDEST PUSH1 0x40 MLOAD PUSH3 0x461BCD PUSH1 0xE5 SHL DUP2 MSTORE PUSH1 0x20 PUSH1 0x4 DUP3 ADD MSTORE PUSH1 0x11 PUSH1 0x24 DUP3 ADD MSTORE PUSH17 0x105B1C9958591E4818DBDB9D995C9D1959 PUSH1 0x7A SHL PUSH1 0x44 DUP3 ADD MSTORE DUP5 SWAP1 REVERT JUMPDEST PUSH1 0x40 MLOAD PUSH3 0x461BCD PUSH1 0xE5 SHL DUP2 MSTORE PUSH1 0x20 PUSH1 0x4 DUP3 ADD MSTORE PUSH1 0x18 PUSH1 0x24 DUP3 ADD MSTORE PUSH32 0x506F6C6C206D75737420626520656E6465642066697273740000000000000000 PUSH1 0x44 DUP3 ADD MSTORE DUP5 SWAP1 REVERT JUMPDEST PUSH2 0x1262 DUP2 MLOAD ISZERO ISZERO PUSH2 0x41C8 JUMP JUMPDEST PUSH2 0x126F PUSH1 0x84 CALLDATALOAD ISZERO ISZERO PUSH2 0x422B JUMP JUMPDEST PUSH2 0x81D JUMP JUMPDEST CALLVALUE PUSH2 0x3B2 JUMPI PUSH1 0x20 CALLDATASIZE PUSH1 0x3 NOT ADD SLT PUSH2 0x3B2 JUMPI PUSH1 0x4 CALLDATALOAD PUSH1 0x0 MSTORE PUSH1 0xF PUSH1 0x20 MSTORE PUSH1 0x20 PUSH1 0x40 PUSH1 0x0 KECCAK256 SLOAD PUSH1 0x40 MLOAD SWAP1 DUP2 MSTORE RETURN JUMPDEST CALLVALUE PUSH2 0x3B2 JUMPI PUSH1 0x20 CALLDATASIZE PUSH1 0x3 NOT ADD SLT PUSH2 0x3B2 JUMPI PUSH1 0x4 CALLDATALOAD PUSH1 0x4 DUP2 LT ISZERO PUSH2 0x3B2 JUMPI PUSH2 0x3DA PUSH1 0x20 SWAP2 PUSH2 0x48B0 JUMP JUMPDEST CALLVALUE PUSH2 0x3B2 JUMPI PUSH1 0x40 CALLDATASIZE PUSH1 0x3 NOT ADD SLT PUSH2 0x3B2 JUMPI PUSH2 0x12E1 PUSH2 0x3AEA JUMP JUMPDEST PUSH1 0x0 PUSH1 0x40 DUP1 MLOAD PUSH2 0x12F0 DUP2 PUSH2 0x391E JUMP JUMPDEST DUP3 DUP2 MSTORE DUP3 PUSH1 0x20 DUP3 ADD MSTORE ADD MSTORE PUSH1 0x4 CALLDATALOAD PUSH1 0x0 MSTORE PUSH1 0x8 PUSH1 0x20 MSTORE PUSH1 0x40 PUSH1 0x0 KECCAK256 SWAP1 PUSH1 0x1 DUP1 PUSH1 0xA0 SHL SUB AND PUSH1 0x0 MSTORE PUSH1 0x20 MSTORE PUSH1 0x60 PUSH1 0x40 PUSH1 0x0 KECCAK256 PUSH1 0x40 MLOAD PUSH2 0x132D DUP2 PUSH2 0x391E JUMP JUMPDEST PUSH1 0xFF DUP3 SLOAD PUSH1 0x40 PUSH1 0x1 DUP4 DUP4 AND ISZERO ISZERO SWAP6 DUP7 DUP7 MSTORE DUP5 PUSH1 0x20 DUP8 ADD SWAP5 PUSH1 0x8 SHR AND DUP5 MSTORE ADD SLOAD SWAP4 ADD SWAP3 DUP4 MSTORE PUSH1 0x40 MLOAD SWAP4 DUP5 MSTORE MLOAD AND PUSH1 0x20 DUP4 ADD MSTORE MLOAD PUSH1 0x40 DUP3 ADD MSTORE RETURN JUMPDEST CALLVALUE PUSH2 0x3B2 JUMPI PUSH1 0x0 CALLDATASIZE PUSH1 0x3 NOT ADD SLT PUSH2 0x3B2 JUMPI PUSH1 0x20 PUSH1 0x40 MLOAD PUSH2 0x7D0 DUP2 MSTORE RETURN JUMPDEST CALLVALUE PUSH2 0x3B2 JUMPI PUSH1 0x20 CALLDATASIZE PUSH1 0x3 NOT ADD SLT PUSH2 0x3B2 JUMPI PUSH1 0x4 CALLDATALOAD PUSH1 0x0 MSTORE PUSH1 0xC PUSH1 0x20 MSTORE PUSH1 0x40 PUSH1 0x0 KECCAK256 DUP1 SLOAD SWAP1 PUSH1 0x1 DUP2 ADD SLOAD SWAP1 PUSH1 0x1 PUSH1 0xA0 SHL PUSH1 0x1 SWAP1 SUB PUSH1 0x2 DUP3 ADD SLOAD AND SWAP3 PUSH1 0x40 MLOAD SWAP2 DUP3 DUP1 PUSH1 0x3 DUP4 ADD SWAP1 PUSH2 0x13D1 SWAP2 PUSH2 0x3850 JUMP JUMPDEST SUB PUSH2 0x13DC SWAP1 DUP5 PUSH2 0x3954 JUMP JUMPDEST PUSH1 0x40 MLOAD SWAP3 DUP4 PUSH2 0x13EE DUP2 PUSH1 0x4 DUP6 ADD PUSH2 0x3850 JUMP JUMPDEST SUB PUSH2 0x13F9 SWAP1 DUP6 PUSH2 0x3954 JUMP JUMPDEST PUSH1 0x40 MLOAD SWAP4 DUP5 PUSH2 0x140B DUP2 PUSH1 0x5 DUP7 ADD PUSH2 0x3850 JUMP JUMPDEST SUB PUSH2 0x1416 SWAP1 DUP7 PUSH2 0x3954 JUMP JUMPDEST PUSH1 0x6 DUP4 ADD SLOAD SWAP5 PUSH1 0x7 DUP5 ADD SLOAD SWAP1 PUSH1 0x8 DUP6 ADD SLOAD SWAP3 PUSH1 0x9 DUP7 ADD SLOAD SWAP5 PUSH1 0xA DUP8 ADD SLOAD PUSH1 0xFF AND SWAP7 PUSH1 0xB ADD SLOAD SWAP8 PUSH1 0x40 MLOAD SWAP12 DUP13 SWAP12 PUSH2 0x180 SWAP3 DUP14 MSTORE PUSH1 0x20 DUP14 ADD MSTORE PUSH1 0x40 DUP13 ADD MSTORE DUP1 PUSH1 0x60 DUP13 ADD MSTORE DUP11 ADD PUSH2 0x1463 SWAP2 PUSH2 0x397F JUMP JUMPDEST DUP10 DUP2 SUB PUSH1 0x80 DUP12 ADD MSTORE PUSH2 0x1474 SWAP2 PUSH2 0x397F JUMP JUMPDEST DUP9 DUP2 SUB PUSH1 0xA0 DUP11 ADD MSTORE PUSH2 0x1485 SWAP2 PUSH2 0x397F JUMP JUMPDEST SWAP6 PUSH1 0xC0 DUP9 ADD MSTORE PUSH1 0xE0 DUP8 ADD MSTORE PUSH2 0x100 DUP7 ADD MSTORE PUSH2 0x120 DUP6 ADD MSTORE PUSH2 0x140 DUP5 ADD PUSH2 0x14AA SWAP2 PUSH2 0x39FA JUMP JUMPDEST PUSH2 0x160 DUP4 ADD MSTORE SUB SWAP1 RETURN JUMPDEST CALLVALUE PUSH2 0x3B2 JUMPI PUSH1 0x0 CALLDATASIZE PUSH1 0x3 NOT ADD SLT PUSH2 0x3B2 JUMPI PUSH1 0x20 PUSH1 0x40 MLOAD PUSH1 0x0 DUP2 MSTORE RETURN JUMPDEST CALLVALUE PUSH2 0x3B2 JUMPI PUSH1 0x40 CALLDATASIZE PUSH1 0x3 NOT ADD SLT PUSH2 0x3B2 JUMPI PUSH1 0x4 CALLDATALOAD PUSH1 0x24 CALLDATALOAD SWAP1 DUP2 ISZERO ISZERO SWAP2 DUP3 DUP2 SUB PUSH2 0x3B2 JUMPI DUP2 PUSH1 0x0 MSTORE PUSH1 0x20 SWAP1 PUSH1 0xC DUP3 MSTORE PUSH1 0x40 PUSH1 0x0 KECCAK256 SWAP1 PUSH1 0xFF PUSH1 0xA DUP4 ADD SLOAD AND PUSH1 0x3 DUP2 LT ISZERO PUSH2 0x39C JUMPI PUSH2 0x151F SWAP1 ISZERO PUSH2 0x4542 JUMP JUMPDEST PUSH1 0x9 DUP3 ADD SLOAD TIMESTAMP LT ISZERO PUSH2 0x15D7 JUMPI SWAP1 PUSH32 0xDF13CE4FCC43C19A08DF4FFA6D471AE7BB1D6FFC3BEB528AD821C873F798CE2F SWAP3 SWAP2 DUP5 PUSH1 0x0 MSTORE PUSH1 0xE DUP4 MSTORE PUSH1 0x40 PUSH1 0x0 KECCAK256 CALLER PUSH1 0x0 MSTORE DUP4 MSTORE PUSH1 0x40 PUSH1 0x0 KECCAK256 PUSH1 0x1 DUP2 SLOAD PUSH2 0x1578 PUSH1 0xFF DUP3 AND ISZERO PUSH2 0x3FD0 JUMP JUMPDEST PUSH2 0xFF00 DUP10 PUSH1 0x8 SHL AND SWAP1 PUSH2 0xFFFF NOT AND OR OR SWAP1 SSTORE DUP5 PUSH1 0x0 MSTORE PUSH1 0xF DUP4 MSTORE PUSH1 0x40 PUSH1 0x0 KECCAK256 PUSH2 0x15A1 DUP2 SLOAD PUSH2 0x400C JUMP JUMPDEST SWAP1 SSTORE ISZERO PUSH2 0x15C3 JUMPI PUSH1 0x6 ADD PUSH2 0x15B5 DUP2 SLOAD PUSH2 0x400C JUMP JUMPDEST SWAP1 SSTORE JUMPDEST PUSH1 0x40 MLOAD SWAP4 DUP5 MSTORE CALLER SWAP4 LOG3 STOP JUMPDEST PUSH1 0x7 ADD PUSH2 0x15D0 DUP2 SLOAD PUSH2 0x400C JUMP JUMPDEST SWAP1 SSTORE PUSH2 0x15B8 JUMP JUMPDEST PUSH1 0x40 MLOAD PUSH3 0x461BCD PUSH1 0xE5 SHL DUP2 MSTORE PUSH1 0x4 DUP2 ADD DUP5 SWAP1 MSTORE PUSH1 0xA PUSH1 0x24 DUP3 ADD MSTORE PUSH10 0x141BDB1B08195B991959 PUSH1 0xB2 SHL PUSH1 0x44 DUP3 ADD MSTORE PUSH1 0x64 SWAP1 REVERT JUMPDEST CALLVALUE PUSH2 0x3B2 JUMPI PUSH1 0x20 CALLDATASIZE PUSH1 0x3 NOT ADD SLT PUSH2 0x3B2 JUMPI PUSH1 0x20 PUSH2 0x3DA PUSH1 0x4 CALLDATALOAD PUSH2 0x44F5 JUMP JUMPDEST CALLVALUE PUSH2 0x3B2 JUMPI PUSH1 0x20 CALLDATASIZE PUSH1 0x3 NOT ADD SLT PUSH2 0x3B2 JUMPI PUSH1 0x4 CALLDATALOAD PUSH1 0x7 SLOAD DUP2 LT ISZERO PUSH2 0x1695 JUMPI PUSH1 0x0 MSTORE PUSH1 0x6 PUSH1 0x20 MSTORE PUSH2 0x168B PUSH1 0xE PUSH1 0x40 PUSH1 0x0 KECCAK256 PUSH2 0x1677 PUSH1 0xF DUP3 ADD SLOAD SWAP2 PUSH2 0x1670 PUSH1 0x40 MLOAD DUP1 SWAP6 DUP2 SWAP4 ADD PUSH2 0x3850 JUMP JUMPDEST SUB DUP4 PUSH2 0x3954 JUMP JUMPDEST PUSH1 0x40 MLOAD SWAP3 DUP4 SWAP3 PUSH1 0x40 DUP5 MSTORE PUSH1 0x40 DUP5 ADD SWAP1 PUSH2 0x397F JUMP JUMPDEST SWAP1 PUSH1 0x20 DUP4 ADD MSTORE SUB SWAP1 RETURN JUMPDEST PUSH1 0x40 MLOAD PUSH3 0x461BCD PUSH1 0xE5 SHL DUP2 MSTORE PUSH1 0x20 PUSH1 0x4 DUP3 ADD MSTORE PUSH1 0x17 PUSH1 0x24 DUP3 ADD MSTORE PUSH32 0x50726F706F73616C20646F6573206E6F74206578697374000000000000000000 PUSH1 0x44 DUP3 ADD MSTORE PUSH1 0x64 SWAP1 REVERT JUMPDEST CALLVALUE PUSH2 0x3B2 JUMPI PUSH1 0x0 CALLDATASIZE PUSH1 0x3 NOT ADD SLT PUSH2 0x3B2 JUMPI PUSH1 0x20 PUSH1 0x40 MLOAD PUSH32 0xE2B7FB3B832174769106DAEBCFD6D1970523240DDA11281102DB9363B83B0DC4 DUP2 MSTORE RETURN JUMPDEST CALLVALUE PUSH2 0x3B2 JUMPI PUSH1 0x0 CALLDATASIZE PUSH1 0x3 NOT ADD SLT PUSH2 0x3B2 JUMPI PUSH1 0x20 PUSH1 0xD SLOAD PUSH1 0x40 MLOAD SWAP1 DUP2 MSTORE RETURN JUMPDEST CALLVALUE PUSH2 0x3B2 JUMPI PUSH1 0x40 CALLDATASIZE PUSH1 0x3 NOT ADD SLT PUSH2 0x3B2 JUMPI PUSH2 0x174C PUSH2 0x3AEA JUMP JUMPDEST PUSH1 0x4 CALLDATALOAD PUSH1 0x0 MSTORE PUSH1 0x0 PUSH1 0x20 MSTORE PUSH1 0x40 PUSH1 0x0 KECCAK256 SWAP1 PUSH1 0x1 DUP1 PUSH1 0xA0 SHL SUB AND PUSH1 0x0 MSTORE PUSH1 0x20 MSTORE PUSH1 0x20 PUSH1 0xFF PUSH1 0x40 PUSH1 0x0 KECCAK256 SLOAD AND PUSH1 0x40 MLOAD SWAP1 ISZERO ISZERO DUP2 MSTORE RETURN JUMPDEST CALLVALUE PUSH2 0x3B2 JUMPI PUSH1 0x0 CALLDATASIZE PUSH1 0x3 NOT ADD SLT PUSH2 0x3B2 JUMPI PUSH1 0x20 PUSH1 0x40 MLOAD PUSH32 0xB09AA5AEB3702CFD50B6B62BC4532604938F21248A27A1D5CA736082B6819CC1 DUP2 MSTORE RETURN JUMPDEST CALLVALUE PUSH2 0x3B2 JUMPI PUSH1 0x20 CALLDATASIZE PUSH1 0x3 NOT ADD SLT PUSH2 0x3B2 JUMPI PUSH1 0x4 CALLDATALOAD PUSH2 0x17D7 PUSH2 0x45B4 JUMP JUMPDEST PUSH2 0x1F4 DUP2 GT PUSH2 0x1811 JUMPI PUSH1 0x20 DUP2 PUSH32 0x4ADE7322D9A0C41DC254574F72D3D442F06ADDCC77917DCB9CB1AC4441D1B20F SWAP3 PUSH1 0x5 SSTORE PUSH1 0x40 MLOAD SWAP1 DUP2 MSTORE LOG1 STOP JUMPDEST PUSH1 0x40 MLOAD PUSH3 0x461BCD PUSH1 0xE5 SHL DUP2 MSTORE PUSH1 0x20 PUSH1 0x4 DUP3 ADD MSTORE PUSH1 0xE PUSH1 0x24 DUP3 ADD MSTORE PUSH14 0x84DEDCEAE640E8DEDE40D0D2CED PUSH1 0x93 SHL PUSH1 0x44 DUP3 ADD MSTORE PUSH1 0x64 SWAP1 REVERT JUMPDEST CALLVALUE PUSH2 0x3B2 JUMPI PUSH1 0x0 CALLDATASIZE PUSH1 0x3 NOT ADD SLT PUSH2 0x3B2 JUMPI PUSH1 0x20 PUSH1 0x40 MLOAD PUSH32 0xA122AEDC7C2408A97BCFE5D8FF1F6A6D7BF779A8B6DD3D72FF503E8FCF9D2EB9 DUP2 MSTORE RETURN JUMPDEST PUSH2 0x3B83 JUMP JUMPDEST CALLVALUE PUSH2 0x3B2 JUMPI PUSH1 0x20 CALLDATASIZE PUSH1 0x3 NOT ADD SLT PUSH2 0x3B2 JUMPI PUSH1 0x1 PUSH1 0x1 PUSH1 0xA0 SHL SUB PUSH2 0x18A8 PUSH2 0x3AD4 JUMP JUMPDEST AND PUSH1 0x0 MSTORE PUSH1 0x3 PUSH1 0x20 MSTORE PUSH1 0x20 PUSH1 0x40 PUSH1 0x0 KECCAK256 SLOAD PUSH1 0x40 MLOAD SWAP1 DUP2 MSTORE RETURN JUMPDEST CALLVALUE PUSH2 0x3B2 JUMPI PUSH1 0x20 DUP1 PUSH1 0x3 NOT CALLDATASIZE ADD SLT PUSH2 0x3B2 JUMPI PUSH1 0x4 CALLDATALOAD PUSH1 0x0 SWAP1 PUSH1 0x0 PUSH1 0xD SLOAD SWAP1 JUMPDEST DUP2 DUP2 LT PUSH2 0x1A1E JUMPI POP PUSH2 0x190A PUSH2 0x18F4 DUP5 PUSH2 0x4325 JUMP JUMPDEST SWAP4 PUSH2 0x1902 PUSH1 0x40 MLOAD SWAP6 DUP7 PUSH2 0x3954 JUMP JUMPDEST DUP1 DUP6 MSTORE PUSH2 0x4325 JUMP JUMPDEST PUSH1 0x1F NOT ADD DUP5 PUSH1 0x0 JUMPDEST DUP3 DUP2 LT PUSH2 0x1A08 JUMPI POP POP POP PUSH1 0x0 DUP1 JUMPDEST DUP3 DUP2 LT PUSH2 0x1985 JUMPI PUSH1 0x40 DUP1 MLOAD DUP8 DUP2 MSTORE DUP7 MLOAD DUP2 DUP10 ADD DUP2 SWAP1 MSTORE PUSH1 0x0 SWAP3 PUSH1 0x5 DUP3 SWAP1 SHL DUP4 ADD DUP2 ADD SWAP2 DUP10 DUP12 ADD SWAP2 DUP12 SWAP1 DUP6 ADD JUMPDEST DUP3 DUP8 LT PUSH2 0x1959 JUMPI DUP6 DUP6 SUB DUP7 RETURN JUMPDEST SWAP1 SWAP2 SWAP3 SWAP4 DUP3 DUP1 PUSH2 0x1975 PUSH1 0x1 SWAP4 PUSH1 0x3F NOT DUP11 DUP3 SUB ADD DUP7 MSTORE DUP9 MLOAD PUSH2 0x3A07 JUMP JUMPDEST SWAP7 ADD SWAP3 ADD SWAP7 ADD SWAP6 SWAP3 SWAP2 SWAP1 SWAP3 PUSH2 0x194C JUMP JUMPDEST DUP1 PUSH1 0x0 MSTORE PUSH1 0xC SWAP1 DUP2 DUP8 MSTORE PUSH1 0x40 PUSH1 0x0 KECCAK256 SWAP2 DUP6 PUSH1 0x1 DUP5 ADD SLOAD EQ DUP1 PUSH2 0x19EB JUMPI JUMPDEST PUSH1 0x1 SWAP4 POP PUSH2 0x19B2 JUMPI JUMPDEST POP ADD PUSH2 0x1920 JUMP JUMPDEST DUP2 PUSH1 0x0 MSTORE DUP8 MSTORE PUSH2 0x19E4 PUSH1 0x40 PUSH1 0x0 KECCAK256 SWAP4 PUSH2 0x19D3 PUSH2 0x19CD DUP3 PUSH2 0x400C JUMP JUMPDEST SWAP6 PUSH2 0x3E09 JUMP JUMPDEST PUSH2 0x19DD DUP3 DUP11 PUSH2 0x43B9 JUMP JUMPDEST MSTORE DUP8 PUSH2 0x43B9 JUMP JUMPDEST POP DUP8 PUSH2 0x19AB JUMP JUMPDEST POP SWAP2 PUSH1 0xA PUSH1 0xFF SWAP2 ADD SLOAD AND SWAP2 PUSH1 0x3 DUP4 LT ISZERO PUSH2 0x39C JUMPI PUSH1 0x1 SWAP3 ISZERO PUSH2 0x19A2 JUMP JUMPDEST PUSH2 0x1A10 PUSH2 0x3DAD JUMP JUMPDEST DUP3 DUP3 DUP9 ADD ADD MSTORE ADD DUP6 SWAP1 PUSH2 0x1912 JUMP JUMPDEST DUP1 PUSH1 0x0 MSTORE PUSH1 0xC DUP6 MSTORE PUSH1 0x40 PUSH1 0x0 KECCAK256 DUP4 PUSH1 0x1 DUP3 ADD SLOAD EQ SWAP1 DUP2 PUSH2 0x1A5B JUMPI JUMPDEST POP PUSH2 0x1A47 JUMPI JUMPDEST PUSH1 0x1 ADD PUSH2 0x18E0 JUMP JUMPDEST SWAP3 PUSH2 0x1A53 PUSH1 0x1 SWAP2 PUSH2 0x400C JUMP JUMPDEST SWAP4 SWAP1 POP PUSH2 0x1A3F JUMP JUMPDEST PUSH1 0xFF SWAP2 POP PUSH1 0xA ADD SLOAD AND PUSH1 0x3 DUP2 LT ISZERO PUSH2 0x39C JUMPI ISZERO DUP7 PUSH2 0x1A39 JUMP JUMPDEST CALLVALUE PUSH2 0x3B2 JUMPI PUSH1 0x40 CALLDATASIZE PUSH1 0x3 NOT ADD SLT PUSH2 0x3B2 JUMPI PUSH2 0x1A8D PUSH2 0x3AEA JUMP JUMPDEST PUSH1 0x4 CALLDATALOAD PUSH1 0x0 MSTORE PUSH1 0xE PUSH1 0x20 MSTORE PUSH1 0x40 PUSH1 0x0 KECCAK256 SWAP1 PUSH1 0x1 DUP1 PUSH1 0xA0 SHL SUB AND PUSH1 0x0 MSTORE PUSH1 0x20 MSTORE PUSH1 0x40 DUP1 PUSH1 0x0 KECCAK256 SLOAD PUSH1 0xFF DUP3 MLOAD SWAP2 DUP2 DUP2 AND ISZERO ISZERO DUP4 MSTORE PUSH1 0x8 SHR AND ISZERO ISZERO PUSH1 0x20 DUP3 ADD MSTORE RETURN JUMPDEST CALLVALUE PUSH2 0x3B2 JUMPI PUSH1 0x20 DUP1 PUSH1 0x3 NOT CALLDATASIZE ADD SLT PUSH2 0x3B2 JUMPI PUSH1 0x4 CALLDATALOAD PUSH1 0x0 SWAP1 PUSH1 0x0 PUSH1 0x7 SLOAD SWAP1 JUMPDEST DUP2 DUP2 LT PUSH2 0x1C05 JUMPI POP PUSH2 0x1AFF PUSH2 0x18F4 DUP5 PUSH2 0x4325 JUMP JUMPDEST PUSH1 0x1F NOT ADD DUP5 PUSH1 0x0 JUMPDEST DUP3 DUP2 LT PUSH2 0x1BEF JUMPI POP POP POP PUSH1 0x0 DUP1 JUMPDEST DUP3 DUP2 LT PUSH2 0x1B7A JUMPI PUSH1 0x40 DUP1 MLOAD DUP8 DUP2 MSTORE DUP7 MLOAD DUP2 DUP10 ADD DUP2 SWAP1 MSTORE PUSH1 0x0 SWAP3 PUSH1 0x5 DUP3 SWAP1 SHL DUP4 ADD DUP2 ADD SWAP2 DUP10 DUP12 ADD SWAP2 DUP12 SWAP1 DUP6 ADD JUMPDEST DUP3 DUP8 LT PUSH2 0x1B4E JUMPI DUP6 DUP6 SUB DUP7 RETURN JUMPDEST SWAP1 SWAP2 SWAP3 SWAP4 DUP3 DUP1 PUSH2 0x1B6A PUSH1 0x1 SWAP4 PUSH1 0x3F NOT DUP11 DUP3 SUB ADD DUP7 MSTORE DUP9 MLOAD PUSH2 0x3BA0 JUMP JUMPDEST SWAP7 ADD SWAP3 ADD SWAP7 ADD SWAP6 SWAP3 SWAP2 SWAP1 SWAP3 PUSH2 0x1B41 JUMP JUMPDEST DUP1 PUSH1 0x0 MSTORE PUSH1 0x6 SWAP1 DUP2 DUP8 MSTORE PUSH1 0x40 PUSH1 0x0 KECCAK256 SWAP2 PUSH1 0x1 SWAP3 DUP7 DUP5 DUP3 ADD SLOAD EQ SWAP1 DUP2 PUSH2 0x1BD3 JUMPI JUMPDEST POP PUSH1 0x1 SWAP4 POP PUSH2 0x1BAB JUMPI JUMPDEST POP ADD PUSH2 0x1B15 JUMP JUMPDEST DUP2 PUSH1 0x0 MSTORE DUP8 MSTORE PUSH2 0x1BCC PUSH1 0x40 PUSH1 0x0 KECCAK256 SWAP4 PUSH2 0x19D3 PUSH2 0x1BC6 DUP3 PUSH2 0x400C JUMP JUMPDEST SWAP6 PUSH2 0x43CD JUMP JUMPDEST POP DUP8 PUSH2 0x1BA4 JUMP JUMPDEST PUSH1 0xFF SWAP2 POP PUSH1 0xC ADD SLOAD AND SWAP3 DUP2 DUP5 LT ISZERO PUSH2 0x39C JUMPI PUSH1 0x1 SWAP4 EQ DUP10 PUSH2 0x1B9A JUMP JUMPDEST PUSH2 0x1BF7 PUSH2 0x433C JUMP JUMPDEST DUP3 DUP3 DUP9 ADD ADD MSTORE ADD DUP6 SWAP1 PUSH2 0x1B07 JUMP JUMPDEST DUP1 PUSH1 0x0 MSTORE PUSH1 0x6 DUP1 DUP7 MSTORE PUSH1 0x40 PUSH1 0x0 KECCAK256 SWAP1 PUSH1 0x1 SWAP1 DUP6 DUP3 DUP5 ADD SLOAD EQ SWAP3 DUP4 PUSH2 0x1C48 JUMPI JUMPDEST POP POP POP PUSH2 0x1C34 JUMPI JUMPDEST PUSH1 0x1 ADD PUSH2 0x1AEB JUMP JUMPDEST SWAP3 PUSH2 0x1C40 PUSH1 0x1 SWAP2 PUSH2 0x400C JUMP JUMPDEST SWAP4 SWAP1 POP PUSH2 0x1C2C JUMP JUMPDEST PUSH1 0xFF SWAP2 SWAP3 SWAP4 POP PUSH1 0xC ADD SLOAD AND SWAP1 DUP2 LT ISZERO PUSH2 0x39C JUMPI EQ DUP7 DUP1 DUP1 PUSH2 0x1C24 JUMP JUMPDEST CALLVALUE PUSH2 0x3B2 JUMPI PUSH1 0x20 CALLDATASIZE PUSH1 0x3 NOT ADD SLT PUSH2 0x3B2 JUMPI PUSH1 0x1 PUSH1 0x1 PUSH1 0xA0 SHL SUB PUSH2 0x1C85 PUSH2 0x3AD4 JUMP JUMPDEST AND PUSH1 0x0 MSTORE PUSH1 0xA PUSH1 0x20 MSTORE PUSH1 0x20 PUSH1 0x40 PUSH1 0x0 KECCAK256 SLOAD PUSH1 0x40 MLOAD SWAP1 DUP2 MSTORE RETURN JUMPDEST CALLVALUE PUSH2 0x3B2 JUMPI PUSH1 0x40 CALLDATASIZE PUSH1 0x3 NOT ADD SLT PUSH2 0x3B2 JUMPI PUSH1 0x4 CALLDATALOAD PUSH2 0x1CBA PUSH2 0x3B00 JUMP JUMPDEST PUSH2 0x1CC2 PUSH2 0x4670 JUMP JUMPDEST DUP2 PUSH1 0x0 MSTORE PUSH1 0x20 SWAP2 PUSH1 0x6 DUP4 MSTORE PUSH1 0x40 PUSH1 0x0 KECCAK256 SWAP2 PUSH1 0xFF PUSH1 0xC DUP5 ADD SLOAD AND SWAP4 PUSH1 0x6 DUP6 LT ISZERO PUSH2 0x39C JUMPI PUSH2 0x1CF2 PUSH1 0x1 DUP1 SWAP7 EQ PUSH2 0x3ED2 JUMP JUMPDEST PUSH2 0x1D02 PUSH1 0x9 DUP6 ADD SLOAD TIMESTAMP LT ISZERO PUSH2 0x3F14 JUMP JUMPDEST PUSH2 0x1D11 PUSH1 0xA DUP6 ADD SLOAD TIMESTAMP LT PUSH2 0x3F55 JUMP JUMPDEST PUSH1 0xFF DUP3 AND SWAP4 PUSH2 0x1D23 PUSH1 0x2 DUP7 GT ISZERO PUSH2 0x3F90 JUMP JUMPDEST DUP4 PUSH1 0x0 MSTORE PUSH1 0x8 DUP3 MSTORE PUSH1 0x40 PUSH1 0x0 KECCAK256 CALLER PUSH1 0x0 MSTORE DUP3 MSTORE PUSH2 0x1D8C PUSH1 0x40 PUSH1 0x0 KECCAK256 DUP1 SLOAD SWAP5 PUSH2 0x1D4E PUSH1 0xFF DUP8 AND ISZERO PUSH2 0x3FD0 JUMP JUMPDEST PUSH1 0x2 SLOAD DUP10 DUP6 ADD SLOAD PUSH1 0x40 MLOAD PUSH4 0x6DED6A19 PUSH1 0xE1 SHL DUP2 MSTORE PUSH1 0x4 DUP2 ADD SWAP2 SWAP1 SWAP2 MSTORE CALLER PUSH1 0x24 DUP3 ADD MSTORE SWAP4 DUP7 SWAP2 DUP6 SWAP2 PUSH1 0x1 PUSH1 0x1 PUSH1 0xA0 SHL SUB SWAP1 SWAP2 AND SWAP1 DUP3 SWAP1 DUP2 SWAP1 PUSH1 0x44 DUP3 ADD SWAP1 JUMP JUMPDEST SUB SWAP2 GAS STATICCALL SWAP6 DUP7 ISZERO PUSH2 0x111C JUMPI DUP10 SWAP4 PUSH1 0x0 SWAP8 PUSH2 0x1E87 JUMPI JUMPDEST POP SWAP4 DUP7 DUP5 PUSH1 0xFF SWAP5 PUSH2 0x1DDC PUSH1 0x2 SWAP6 DUP5 SWAP9 PUSH2 0x1E28 SWAP11 PUSH2 0x1DBF DUP8 ISZERO ISZERO PUSH2 0x401B JUMP JUMPDEST DUP10 NOT AND OR DUP4 SSTORE DUP3 SWAP1 PUSH2 0xFF00 DUP3 SLOAD SWAP2 PUSH1 0x8 SHL AND SWAP1 PUSH2 0xFF00 NOT AND OR SWAP1 SSTORE JUMP JUMPDEST ADD SSTORE DUP9 PUSH2 0x1E5B JUMPI PUSH1 0x7 DUP2 ADD PUSH2 0x1DF2 DUP6 DUP3 SLOAD PUSH2 0x4059 JUMP JUMPDEST SWAP1 SSTORE JUMPDEST CALLER PUSH1 0x0 MSTORE PUSH1 0xA DUP7 MSTORE PUSH1 0x40 PUSH1 0x0 KECCAK256 PUSH2 0x1E0C DUP2 SLOAD PUSH2 0x400C JUMP JUMPDEST SWAP1 SSTORE CALLER PUSH1 0x0 MSTORE PUSH1 0xB DUP7 MSTORE TIMESTAMP PUSH1 0x40 PUSH1 0x0 KECCAK256 SSTORE ADD SLOAD PUSH1 0xA0 SHR AND PUSH2 0x4693 JUMP JUMPDEST PUSH1 0x40 MLOAD SWAP4 DUP5 MSTORE DUP4 ADD MSTORE PUSH32 0xB83D25C6A5D258561330739951487ACB4BD09BA5190B5D32C4F261817D906792 PUSH1 0x40 CALLER SWAP4 LOG3 DUP1 SSTORE STOP JUMPDEST DUP9 DUP11 SUB PUSH2 0x1E78 JUMPI PUSH1 0x6 DUP2 ADD PUSH2 0x1E71 DUP6 DUP3 SLOAD PUSH2 0x4059 JUMP JUMPDEST SWAP1 SSTORE PUSH2 0x1DF5 JUMP JUMPDEST PUSH1 0x8 DUP2 ADD PUSH2 0x1E71 DUP6 DUP3 SLOAD PUSH2 0x4059 JUMP JUMPDEST SWAP2 SWAP7 POP SWAP3 POP SWAP1 DUP5 DUP3 DUP2 RETURNDATASIZE DUP2 GT PUSH2 0x1EB7 JUMPI JUMPDEST PUSH2 0x1EA2 DUP2 DUP4 PUSH2 0x3954 JUMP JUMPDEST DUP2 ADD SUB SLT PUSH2 0x3B2 JUMPI SWAP1 MLOAD SWAP5 DUP9 SWAP3 PUSH2 0x1E28 PUSH2 0x1DA1 JUMP JUMPDEST POP RETURNDATASIZE PUSH2 0x1E98 JUMP JUMPDEST CALLVALUE PUSH2 0x3B2 JUMPI PUSH1 0x20 CALLDATASIZE PUSH1 0x3 NOT ADD SLT PUSH2 0x3B2 JUMPI PUSH1 0x4 CALLDATALOAD DUP1 PUSH1 0x0 MSTORE PUSH1 0x6 PUSH1 0x20 MSTORE PUSH1 0x40 PUSH1 0x0 KECCAK256 SWAP1 PUSH1 0xC DUP3 ADD SWAP2 DUP3 SLOAD SWAP2 PUSH1 0xFF DUP4 AND PUSH1 0x6 DUP2 LT ISZERO PUSH2 0x39C JUMPI PUSH1 0x1 PUSH2 0x1F02 SWAP2 EQ PUSH2 0x3ED2 JUMP JUMPDEST PUSH1 0xA DUP3 ADD SLOAD TIMESTAMP LT PUSH2 0x1FAB JUMPI PUSH1 0x6 DUP3 ADD SLOAD SWAP2 PUSH1 0x7 DUP2 ADD SLOAD SWAP2 PUSH2 0x1F31 PUSH2 0x1F26 DUP5 DUP7 PUSH2 0x4059 JUMP JUMPDEST PUSH1 0x8 DUP5 ADD SLOAD SWAP1 PUSH2 0x4059 JUMP JUMPDEST PUSH1 0x0 SWAP2 DUP3 MSTORE PUSH1 0x9 PUSH1 0x20 MSTORE PUSH1 0x40 SWAP1 SWAP2 KECCAK256 SLOAD SWAP1 DUP2 ISZERO PUSH2 0x1F9F JUMPI PUSH2 0x2710 SWAP1 DUP2 DUP2 MUL SWAP2 DUP2 DUP4 DIV EQ SWAP1 ISZERO OR ISZERO PUSH2 0x737 JUMPI PUSH1 0xB SWAP2 PUSH2 0x1F68 SWAP2 PUSH2 0x3CA8 JUMP JUMPDEST SWAP2 JUMPDEST ADD SLOAD GT ISZERO SWAP2 DUP3 PUSH2 0x1F95 JUMPI JUMPDEST POP POP ISZERO PUSH2 0x1F8A JUMPI POP DUP1 SLOAD PUSH1 0xFF NOT AND PUSH1 0x2 OR SWAP1 SSTORE STOP JUMPDEST PUSH1 0xFF NOT AND PUSH1 0x3 OR SWAP1 SSTORE STOP JUMPDEST GT SWAP1 POP DUP4 DUP1 PUSH2 0x1F75 JUMP JUMPDEST POP POP PUSH1 0xB PUSH1 0x0 SWAP2 PUSH2 0x1F6A JUMP JUMPDEST PUSH1 0x40 MLOAD PUSH3 0x461BCD PUSH1 0xE5 SHL DUP2 MSTORE PUSH1 0x20 PUSH1 0x4 DUP3 ADD MSTORE PUSH1 0x10 PUSH1 0x24 DUP3 ADD MSTORE PUSH16 0x159BDD1A5B99C81B9BDD08195B991959 PUSH1 0x82 SHL PUSH1 0x44 DUP3 ADD MSTORE PUSH1 0x64 SWAP1 REVERT JUMPDEST PUSH2 0x3AB7 JUMP JUMPDEST CALLVALUE PUSH2 0x3B2 JUMPI PUSH1 0x20 CALLDATASIZE PUSH1 0x3 NOT ADD SLT PUSH2 0x3B2 JUMPI PUSH1 0x4 CALLDATALOAD PUSH1 0x0 MSTORE PUSH1 0x9 PUSH1 0x20 MSTORE PUSH1 0x20 PUSH1 0x40 PUSH1 0x0 KECCAK256 SLOAD PUSH1 0x40 MLOAD SWAP1 DUP2 MSTORE RETURN JUMPDEST CALLVALUE PUSH2 0x3B2 JUMPI PUSH1 0x0 CALLDATASIZE PUSH1 0x3 NOT ADD SLT PUSH2 0x3B2 JUMPI PUSH1 0x20 PUSH1 0x12 SLOAD PUSH1 0x40 MLOAD SWAP1 DUP2 MSTORE RETURN JUMPDEST CALLVALUE PUSH2 0x3B2 JUMPI PUSH2 0x100 CALLDATASIZE PUSH1 0x3 NOT ADD SLT PUSH2 0x3B2 JUMPI PUSH1 0x4 PUSH1 0x24 CALLDATALOAD LT ISZERO PUSH2 0x3B2 JUMPI PUSH1 0x44 CALLDATALOAD PUSH1 0x1 PUSH1 0x1 PUSH1 0x40 SHL SUB DUP2 GT PUSH2 0x3B2 JUMPI PUSH2 0x206E SWAP1 CALLDATASIZE SWAP1 PUSH1 0x4 ADD PUSH2 0x3B10 JUMP JUMPDEST PUSH1 0x64 CALLDATALOAD PUSH1 0x1 PUSH1 0x1 PUSH1 0x40 SHL SUB DUP2 GT PUSH2 0x3B2 JUMPI PUSH2 0x208D SWAP1 CALLDATASIZE SWAP1 PUSH1 0x4 ADD PUSH2 0x3B10 JUMP JUMPDEST SWAP1 PUSH1 0x84 CALLDATALOAD PUSH1 0x1 PUSH1 0x1 PUSH1 0x40 SHL SUB DUP2 GT PUSH2 0x3B2 JUMPI PUSH2 0x20AD SWAP1 CALLDATASIZE SWAP1 PUSH1 0x4 ADD PUSH2 0x3B10 JUMP JUMPDEST SWAP1 PUSH1 0xA4 CALLDATALOAD PUSH1 0x1 PUSH1 0x1 PUSH1 0x40 SHL SUB DUP2 GT PUSH2 0x3B2 JUMPI PUSH2 0x20CD SWAP1 CALLDATASIZE SWAP1 PUSH1 0x4 ADD PUSH2 0x3B10 JUMP JUMPDEST PUSH1 0xC4 CALLDATALOAD PUSH1 0x1 PUSH1 0x1 PUSH1 0x40 SHL SUB DUP2 GT PUSH2 0x3B2 JUMPI PUSH2 0x20EC SWAP1 CALLDATASIZE SWAP1 PUSH1 0x4 ADD PUSH2 0x3B10 JUMP JUMPDEST SWAP1 PUSH2 0x20F5 PUSH2 0x45EE JUMP JUMPDEST PUSH2 0x2100 PUSH1 0x24 CALLDATALOAD PUSH2 0x3975 JUMP JUMPDEST PUSH1 0x24 CALLDATALOAD ISZERO PUSH2 0x283A JUMPI JUMPDEST PUSH2 0x2118 PUSH1 0x64 PUSH1 0xE4 CALLDATALOAD GT ISZERO PUSH2 0x428D JUMP JUMPDEST PUSH1 0x2 SLOAD PUSH1 0x40 MLOAD PUSH4 0x6DED6A19 PUSH1 0xE1 SHL DUP2 MSTORE PUSH1 0x4 DUP1 CALLDATALOAD SWAP1 DUP3 ADD MSTORE CALLER PUSH1 0x24 DUP3 ADD MSTORE PUSH1 0x1 PUSH1 0x1 PUSH1 0xA0 SHL SUB SWAP1 SWAP2 AND SWAP1 PUSH1 0x20 DUP2 PUSH1 0x44 DUP2 DUP6 GAS STATICCALL DUP1 ISZERO PUSH2 0x111C JUMPI PUSH1 0x0 SWAP1 PUSH2 0x2806 JUMPI JUMPDEST PUSH2 0x2165 SWAP2 POP ISZERO ISZERO PUSH2 0x42D9 JUMP JUMPDEST PUSH1 0x7 SLOAD SWAP5 PUSH2 0x2172 DUP7 PUSH2 0x400C JUMP JUMPDEST PUSH1 0x7 SSTORE PUSH1 0x24 PUSH1 0x20 PUSH2 0x2183 DUP3 CALLDATALOAD PUSH2 0x48B0 JUMP JUMPDEST SWAP4 PUSH1 0x40 MLOAD SWAP3 DUP4 DUP1 SWAP3 PUSH4 0x8CDC1E87 PUSH1 0xE0 SHL DUP3 MSTORE PUSH1 0x4 CALLDATALOAD PUSH1 0x4 DUP4 ADD MSTORE GAS STATICCALL SWAP1 DUP2 ISZERO PUSH2 0x111C JUMPI PUSH1 0x0 SWAP2 PUSH2 0x27D4 JUMPI JUMPDEST POP DUP1 ISZERO PUSH2 0x277E JUMPI DUP7 PUSH1 0x0 MSTORE PUSH1 0x9 PUSH1 0x20 MSTORE PUSH1 0x40 PUSH1 0x0 KECCAK256 SSTORE PUSH2 0x21D0 PUSH1 0x4 SLOAD TIMESTAMP PUSH2 0x4059 JUMP JUMPDEST SWAP1 PUSH1 0x40 MLOAD SWAP8 PUSH2 0x21DE DUP10 PUSH2 0x3902 JUMP JUMPDEST DUP8 DUP10 MSTORE PUSH1 0x4 CALLDATALOAD PUSH1 0x20 DUP11 ADD MSTORE CALLER PUSH1 0x40 DUP11 ADD MSTORE PUSH2 0x21FA PUSH1 0x24 CALLDATALOAD PUSH2 0x3975 JUMP JUMPDEST PUSH1 0x24 CALLDATALOAD PUSH1 0x60 DUP11 ADD MSTORE DUP7 PUSH1 0x80 DUP11 ADD MSTORE PUSH1 0xA0 DUP10 ADD MSTORE PUSH1 0xC0 DUP9 ADD MSTORE PUSH1 0x0 PUSH1 0xE0 DUP9 ADD MSTORE PUSH1 0x0 PUSH2 0x100 DUP9 ADD MSTORE PUSH1 0x0 PUSH2 0x120 DUP9 ADD MSTORE TIMESTAMP PUSH2 0x140 DUP9 ADD MSTORE PUSH2 0x160 DUP8 ADD MSTORE PUSH2 0x180 DUP7 ADD MSTORE PUSH1 0x1 PUSH2 0x1A0 DUP7 ADD MSTORE PUSH2 0x1C0 DUP6 ADD MSTORE PUSH2 0x1E0 DUP5 ADD MSTORE PUSH1 0xE4 CALLDATALOAD PUSH2 0x200 DUP5 ADD MSTORE DUP2 PUSH1 0x0 MSTORE PUSH1 0x6 PUSH1 0x20 MSTORE PUSH1 0x40 PUSH1 0x0 KECCAK256 DUP4 MLOAD DUP2 SSTORE PUSH1 0x20 DUP5 ADD MLOAD PUSH1 0x1 DUP3 ADD SSTORE PUSH1 0x2 DUP2 ADD PUSH1 0x1 DUP1 PUSH1 0xA0 SHL SUB PUSH1 0x40 DUP7 ADD MLOAD AND DUP2 SLOAD SWAP1 PUSH1 0x60 DUP8 ADD MLOAD PUSH2 0x2297 DUP2 PUSH2 0x3975 JUMP JUMPDEST PUSH2 0x22A0 DUP2 PUSH2 0x3975 JUMP JUMPDEST PUSH1 0x1 PUSH1 0x1 PUSH1 0xA8 SHL SUB NOT SWAP1 SWAP3 AND OR PUSH1 0xA0 SWAP2 SWAP1 SWAP2 SHL PUSH1 0xFF PUSH1 0xA0 SHL AND OR SWAP1 SSTORE PUSH1 0x80 DUP5 ADD MLOAD DUP1 MLOAD SWAP1 PUSH1 0x1 PUSH1 0x1 PUSH1 0x40 SHL SUB DUP3 GT PUSH2 0xEC4 JUMPI PUSH2 0x22E3 DUP3 PUSH2 0xAD2 PUSH1 0x3 DUP7 ADD SLOAD PUSH2 0x3816 JUMP JUMPDEST PUSH1 0x20 SWAP1 PUSH1 0x1F DUP4 GT PUSH1 0x1 EQ PUSH2 0x270C JUMPI PUSH2 0x2313 SWAP3 SWAP2 PUSH1 0x0 SWAP2 DUP4 PUSH2 0xEDA JUMPI POP POP DUP2 PUSH1 0x1 SHL SWAP2 PUSH1 0x0 NOT SWAP1 PUSH1 0x3 SHL SHR NOT AND OR SWAP1 JUMP JUMPDEST PUSH1 0x3 DUP3 ADD SSTORE JUMPDEST PUSH1 0xA0 DUP5 ADD MLOAD DUP1 MLOAD SWAP1 PUSH1 0x1 PUSH1 0x1 PUSH1 0x40 SHL SUB DUP3 GT PUSH2 0xEC4 JUMPI PUSH2 0x2340 DUP3 PUSH2 0xB39 PUSH1 0x4 DUP7 ADD SLOAD PUSH2 0x3816 JUMP JUMPDEST PUSH1 0x20 SWAP1 PUSH1 0x1F DUP4 GT PUSH1 0x1 EQ PUSH2 0x269A JUMPI PUSH2 0x2370 SWAP3 SWAP2 PUSH1 0x0 SWAP2 DUP4 PUSH2 0xEDA JUMPI POP POP DUP2 PUSH1 0x1 SHL SWAP2 PUSH1 0x0 NOT SWAP1 PUSH1 0x3 SHL SHR NOT AND OR SWAP1 JUMP JUMPDEST PUSH1 0x4 DUP3 ADD SSTORE JUMPDEST PUSH1 0xC0 DUP5 ADD MLOAD DUP1 MLOAD SWAP1 PUSH1 0x1 PUSH1 0x1 PUSH1 0x40 SHL SUB DUP3 GT PUSH2 0xEC4 JUMPI PUSH2 0x239D DUP3 PUSH2 0xB9F PUSH1 0x5 DUP7 ADD SLOAD PUSH2 0x3816 JUMP JUMPDEST PUSH1 0x20 SWAP1 PUSH1 0x1F DUP4 GT PUSH1 0x1 EQ PUSH2 0x2628 JUMPI PUSH2 0x23CD SWAP3 SWAP2 PUSH1 0x0 SWAP2 DUP4 PUSH2 0xEDA JUMPI POP POP DUP2 PUSH1 0x1 SHL SWAP2 PUSH1 0x0 NOT SWAP1 PUSH1 0x3 SHL SHR NOT AND OR SWAP1 JUMP JUMPDEST PUSH1 0x5 DUP3 ADD SSTORE JUMPDEST PUSH1 0xE0 DUP5 ADD MLOAD PUSH1 0x6 DUP3 ADD SSTORE PUSH2 0x100 DUP5 ADD MLOAD PUSH1 0x7 DUP3 ADD SSTORE PUSH2 0x120 DUP5 ADD MLOAD PUSH1 0x8 DUP3 ADD SSTORE PUSH2 0x140 DUP5 ADD MLOAD PUSH1 0x9 DUP3 ADD SSTORE PUSH2 0x160 DUP5 ADD MLOAD PUSH1 0xA DUP3 ADD SSTORE PUSH2 0x180 DUP5 ADD MLOAD PUSH1 0xB DUP3 ADD SSTORE PUSH2 0x1A0 DUP5 ADD MLOAD PUSH1 0x6 DUP2 LT ISZERO PUSH2 0x39C JUMPI PUSH2 0x2430 SWAP1 PUSH1 0xC DUP4 ADD PUSH2 0x3D95 JUMP JUMPDEST PUSH2 0x1C0 DUP5 ADD MLOAD DUP1 MLOAD SWAP1 PUSH1 0x1 PUSH1 0x1 PUSH1 0x40 SHL SUB DUP3 GT PUSH2 0xEC4 JUMPI PUSH2 0x2458 DUP3 PUSH2 0xC63 PUSH1 0xD DUP7 ADD SLOAD PUSH2 0x3816 JUMP JUMPDEST PUSH1 0x20 SWAP1 PUSH1 0x1F DUP4 GT PUSH1 0x1 EQ PUSH2 0x25BA JUMPI PUSH2 0x2488 SWAP3 SWAP2 PUSH1 0x0 SWAP2 DUP4 PUSH2 0xEDA JUMPI POP POP DUP2 PUSH1 0x1 SHL SWAP2 PUSH1 0x0 NOT SWAP1 PUSH1 0x3 SHL SHR NOT AND OR SWAP1 JUMP JUMPDEST PUSH1 0xD DUP3 ADD SSTORE JUMPDEST PUSH2 0x1E0 DUP5 ADD MLOAD SWAP4 DUP5 MLOAD PUSH1 0x1 PUSH1 0x1 PUSH1 0x40 SHL SUB DUP2 GT PUSH2 0xEC4 JUMPI PUSH1 0x20 SWAP6 PUSH2 0x24B9 DUP3 PUSH2 0xCCD PUSH1 0xE DUP8 ADD SLOAD PUSH2 0x3816 JUMP JUMPDEST DUP7 SWAP1 PUSH1 0x1F DUP4 GT PUSH1 0x1 EQ PUSH2 0x2546 JUMPI DUP3 PUSH2 0x200 SWAP4 PUSH1 0xF SWAP6 SWAP4 PUSH2 0x24EF SWAP4 PUSH1 0x0 SWAP3 PUSH2 0xE45 JUMPI POP POP DUP2 PUSH1 0x1 SHL SWAP2 PUSH1 0x0 NOT SWAP1 PUSH1 0x3 SHL SHR NOT AND OR SWAP1 JUMP JUMPDEST PUSH1 0xE DUP6 ADD SSTORE JUMPDEST ADD MLOAD SWAP2 ADD SSTORE DUP2 PUSH1 0x0 DUP1 MLOAD PUSH1 0x20 PUSH2 0x4A75 DUP4 CODECOPY DUP2 MLOAD SWAP2 MSTORE PUSH1 0x40 MLOAD CALLER DUP2 MSTORE PUSH2 0x251B PUSH1 0x24 CALLDATALOAD PUSH2 0x3975 JUMP JUMPDEST PUSH1 0x24 CALLDATALOAD DUP7 DUP3 ADD MSTORE PUSH1 0x60 PUSH1 0x40 DUP3 ADD MSTORE DUP1 PUSH2 0x253B PUSH1 0x4 CALLDATALOAD SWAP6 PUSH1 0x60 DUP4 ADD SWAP1 PUSH2 0x397F JUMP JUMPDEST SUB SWAP1 LOG3 PUSH1 0x40 MLOAD SWAP1 DUP2 MSTORE RETURN JUMPDEST SWAP1 PUSH1 0xE DUP6 ADD PUSH1 0x0 MSTORE DUP8 PUSH1 0x0 KECCAK256 SWAP2 PUSH1 0x0 JUMPDEST PUSH1 0x1F NOT DUP6 AND DUP2 LT PUSH2 0x25A3 JUMPI POP SWAP3 PUSH1 0xF SWAP5 SWAP3 PUSH1 0x1 SWAP3 PUSH2 0x200 SWAP6 DUP4 PUSH1 0x1F NOT DUP2 AND LT PUSH2 0x258A JUMPI JUMPDEST POP POP POP DUP2 SHL ADD PUSH1 0xE DUP6 ADD SSTORE PUSH2 0x24F5 JUMP JUMPDEST ADD MLOAD PUSH1 0x0 NOT PUSH1 0xF8 DUP5 PUSH1 0x3 SHL AND SHR NOT AND SWAP1 SSTORE DUP10 DUP1 DUP1 PUSH2 0x257A JUMP JUMPDEST SWAP2 SWAP3 DUP10 PUSH1 0x1 DUP2 SWAP3 DUP7 DUP6 ADD MLOAD DUP2 SSTORE ADD SWAP5 ADD SWAP3 ADD PUSH2 0x2556 JUMP JUMPDEST SWAP1 PUSH1 0x1F NOT DUP4 AND SWAP2 PUSH1 0xD DUP6 ADD PUSH1 0x0 MSTORE PUSH1 0x20 PUSH1 0x0 KECCAK256 SWAP3 PUSH1 0x0 JUMPDEST DUP2 DUP2 LT PUSH2 0x2610 JUMPI POP SWAP1 DUP5 PUSH1 0x1 SWAP6 SWAP5 SWAP4 SWAP3 LT PUSH2 0x25F7 JUMPI JUMPDEST POP POP POP DUP2 SHL ADD PUSH1 0xD DUP3 ADD SSTORE PUSH2 0x248E JUMP JUMPDEST ADD MLOAD PUSH1 0x0 NOT PUSH1 0xF8 DUP5 PUSH1 0x3 SHL AND SHR NOT AND SWAP1 SSTORE DUP7 DUP1 DUP1 PUSH2 0x25E7 JUMP JUMPDEST SWAP3 SWAP4 PUSH1 0x20 PUSH1 0x1 DUP2 SWAP3 DUP8 DUP7 ADD MLOAD DUP2 SSTORE ADD SWAP6 ADD SWAP4 ADD PUSH2 0x25D1 JUMP JUMPDEST SWAP2 SWAP1 PUSH1 0x5 DUP5 ADD PUSH1 0x0 MSTORE PUSH1 0x20 PUSH1 0x0 KECCAK256 SWAP1 PUSH1 0x0 SWAP4 JUMPDEST PUSH1 0x1F NOT DUP5 AND DUP6 LT PUSH2 0x267F JUMPI PUSH1 0x1 SWAP5 POP DUP4 PUSH1 0x1F NOT DUP2 AND LT PUSH2 0x2666 JUMPI JUMPDEST POP POP POP DUP2 SHL ADD PUSH1 0x5 DUP3 ADD SSTORE PUSH2 0x23D3 JUMP JUMPDEST ADD MLOAD PUSH1 0x0 NOT PUSH1 0xF8 DUP5 PUSH1 0x3 SHL AND SHR NOT AND SWAP1 SSTORE DUP7 DUP1 DUP1 PUSH2 0x2656 JUMP JUMPDEST DUP2 DUP2 ADD MLOAD DUP4 SSTORE PUSH1 0x20 SWAP5 DUP6 ADD SWAP5 PUSH1 0x1 SWAP1 SWAP4 ADD SWAP3 SWAP1 SWAP2 ADD SWAP1 PUSH2 0x263B JUMP JUMPDEST SWAP2 SWAP1 PUSH1 0x4 DUP5 ADD PUSH1 0x0 MSTORE PUSH1 0x20 PUSH1 0x0 KECCAK256 SWAP1 PUSH1 0x0 SWAP4 JUMPDEST PUSH1 0x1F NOT DUP5 AND DUP6 LT PUSH2 0x26F1 JUMPI PUSH1 0x1 SWAP5 POP DUP4 PUSH1 0x1F NOT DUP2 AND LT PUSH2 0x26D8 JUMPI JUMPDEST POP POP POP DUP2 SHL ADD PUSH1 0x4 DUP3 ADD SSTORE PUSH2 0x2376 JUMP JUMPDEST ADD MLOAD PUSH1 0x0 NOT PUSH1 0xF8 DUP5 PUSH1 0x3 SHL AND SHR NOT AND SWAP1 SSTORE DUP7 DUP1 DUP1 PUSH2 0x26C8 JUMP JUMPDEST DUP2 DUP2 ADD MLOAD DUP4 SSTORE PUSH1 0x20 SWAP5 DUP6 ADD SWAP5 PUSH1 0x1 SWAP1 SWAP4 ADD SWAP3 SWAP1 SWAP2 ADD SWAP1 PUSH2 0x26AD JUMP JUMPDEST SWAP2 SWAP1 PUSH1 0x3 DUP5 ADD PUSH1 0x0 MSTORE PUSH1 0x20 PUSH1 0x0 KECCAK256 SWAP1 PUSH1 0x0 SWAP4 JUMPDEST PUSH1 0x1F NOT DUP5 AND DUP6 LT PUSH2 0x2763 JUMPI PUSH1 0x1 SWAP5 POP DUP4 PUSH1 0x1F NOT DUP2 AND LT PUSH2 0x274A JUMPI JUMPDEST POP POP POP DUP2 SHL ADD PUSH1 0x3 DUP3 ADD SSTORE PUSH2 0x2319 JUMP JUMPDEST ADD MLOAD PUSH1 0x0 NOT PUSH1 0xF8 DUP5 PUSH1 0x3 SHL AND SHR NOT AND SWAP1 SSTORE DUP7 DUP1 DUP1 PUSH2 0x273A JUMP JUMPDEST DUP2 DUP2 ADD MLOAD DUP4 SSTORE PUSH1 0x20 SWAP5 DUP6 ADD SWAP5 PUSH1 0x1 SWAP1 SWAP4 ADD SWAP3 SWAP1 SWAP2 ADD SWAP1 PUSH2 0x271F JUMP JUMPDEST PUSH1 0x40 MLOAD PUSH3 0x461BCD PUSH1 0xE5 SHL DUP2 MSTORE PUSH1 0x20 PUSH1 0x4 DUP3 ADD MSTORE PUSH1 0x28 PUSH1 0x24 DUP3 ADD MSTORE PUSH32 0x4E6F20766F74696E6720706F7765722065786973747320666F72207468697320 PUSH1 0x44 DUP3 ADD MSTORE PUSH8 0x70726F7065727479 PUSH1 0xC0 SHL PUSH1 0x64 DUP3 ADD MSTORE PUSH1 0x84 SWAP1 REVERT JUMPDEST SWAP1 POP PUSH1 0x20 DUP2 RETURNDATASIZE PUSH1 0x20 GT PUSH2 0x27FE JUMPI JUMPDEST DUP2 PUSH2 0x27EF PUSH1 0x20 SWAP4 DUP4 PUSH2 0x3954 JUMP JUMPDEST DUP2 ADD SUB SLT PUSH2 0x3B2 JUMPI MLOAD DUP9 PUSH2 0x21AE JUMP JUMPDEST RETURNDATASIZE SWAP2 POP PUSH2 0x27E2 JUMP JUMPDEST POP PUSH1 0x20 DUP2 RETURNDATASIZE PUSH1 0x20 GT PUSH2 0x2832 JUMPI JUMPDEST DUP2 PUSH2 0x2820 PUSH1 0x20 SWAP4 DUP4 PUSH2 0x3954 JUMP JUMPDEST DUP2 ADD SUB SLT PUSH2 0x3B2 JUMPI PUSH2 0x2165 SWAP1 MLOAD PUSH2 0x2159 JUMP JUMPDEST RETURNDATASIZE SWAP2 POP PUSH2 0x2813 JUMP JUMPDEST PUSH2 0x2846 DUP3 MLOAD ISZERO ISZERO PUSH2 0x41C8 JUMP JUMPDEST PUSH2 0x2853 PUSH1 0xE4 CALLDATALOAD ISZERO ISZERO PUSH2 0x422B JUMP JUMPDEST PUSH2 0x2109 JUMP JUMPDEST CALLVALUE PUSH2 0x3B2 JUMPI PUSH1 0x0 CALLDATASIZE PUSH1 0x3 NOT ADD SLT PUSH2 0x3B2 JUMPI PUSH1 0x20 PUSH2 0x3DA PUSH2 0x40BC JUMP JUMPDEST CALLVALUE PUSH2 0x3B2 JUMPI PUSH1 0x0 CALLDATASIZE PUSH1 0x3 NOT ADD SLT PUSH2 0x3B2 JUMPI PUSH1 0x2 SLOAD PUSH1 0x40 MLOAD PUSH1 0x1 PUSH1 0x1 PUSH1 0xA0 SHL SUB SWAP1 SWAP2 AND DUP2 MSTORE PUSH1 0x20 SWAP1 RETURN JUMPDEST CALLVALUE PUSH2 0x3B2 JUMPI PUSH1 0x40 CALLDATASIZE PUSH1 0x3 NOT ADD SLT PUSH2 0x3B2 JUMPI PUSH2 0x28B5 PUSH2 0x3AEA JUMP JUMPDEST CALLER PUSH1 0x1 PUSH1 0x1 PUSH1 0xA0 SHL SUB DUP3 AND SUB PUSH2 0x28D1 JUMPI PUSH2 0x668 SWAP1 PUSH1 0x4 CALLDATALOAD PUSH2 0x483B JUMP JUMPDEST PUSH1 0x40 MLOAD PUSH4 0x334BD919 PUSH1 0xE1 SHL DUP2 MSTORE PUSH1 0x4 SWAP1 REVERT JUMPDEST CALLVALUE PUSH2 0x3B2 JUMPI PUSH1 0x0 CALLDATASIZE PUSH1 0x3 NOT ADD SLT PUSH2 0x3B2 JUMPI PUSH1 0x20 PUSH1 0x40 MLOAD PUSH32 0x0 DUP2 MSTORE RETURN JUMPDEST CALLVALUE PUSH2 0x3B2 JUMPI PUSH1 0xA0 CALLDATASIZE PUSH1 0x3 NOT ADD SLT PUSH2 0x3B2 JUMPI PUSH1 0x24 CALLDATALOAD PUSH1 0x1 PUSH1 0x1 PUSH1 0x40 SHL SUB DUP2 GT PUSH2 0x3B2 JUMPI PUSH2 0x294E SWAP1 CALLDATASIZE SWAP1 PUSH1 0x4 ADD PUSH2 0x3B10 JUMP JUMPDEST PUSH1 0x44 CALLDATALOAD PUSH1 0x1 PUSH1 0x1 PUSH1 0x40 SHL SUB DUP2 GT PUSH2 0x3B2 JUMPI PUSH2 0x296D SWAP1 CALLDATASIZE SWAP1 PUSH1 0x4 ADD PUSH2 0x3B10 JUMP JUMPDEST SWAP1 PUSH1 0x64 CALLDATALOAD PUSH1 0x1 PUSH1 0x1 PUSH1 0x40 SHL SUB DUP2 GT PUSH2 0x3B2 JUMPI PUSH2 0x298D SWAP1 CALLDATASIZE SWAP1 PUSH1 0x4 ADD PUSH2 0x3B10 JUMP JUMPDEST SWAP1 PUSH3 0x15180 PUSH1 0x84 CALLDATALOAD LT ISZERO DUP1 PUSH2 0x2D90 JUMPI JUMPDEST ISZERO PUSH2 0x2D58 JUMPI PUSH1 0xD SLOAD SWAP2 PUSH2 0x29AF DUP4 PUSH2 0x400C JUMP JUMPDEST PUSH1 0xD SSTORE PUSH2 0x29BE PUSH1 0x84 CALLDATALOAD TIMESTAMP PUSH2 0x4059 JUMP JUMPDEST SWAP1 PUSH1 0x40 MLOAD SWAP5 PUSH2 0x29CC DUP7 PUSH2 0x38E6 JUMP JUMPDEST DUP5 DUP7 MSTORE PUSH1 0x4 CALLDATALOAD PUSH1 0x20 DUP8 ADD MSTORE CALLER PUSH1 0x40 DUP8 ADD MSTORE DUP4 PUSH1 0x60 DUP8 ADD MSTORE PUSH1 0x80 DUP7 ADD MSTORE PUSH1 0xA0 DUP6 ADD MSTORE PUSH1 0x0 PUSH1 0xC0 DUP6 ADD MSTORE PUSH1 0x0 PUSH1 0xE0 DUP6 ADD MSTORE TIMESTAMP PUSH2 0x100 DUP6 ADD MSTORE PUSH2 0x120 DUP5 ADD MSTORE PUSH1 0x0 PUSH2 0x140 DUP5 ADD MSTORE PUSH1 0x0 PUSH2 0x160 DUP5 ADD MSTORE DUP2 PUSH1 0x0 MSTORE PUSH1 0xC PUSH1 0x20 MSTORE PUSH1 0x40 PUSH1 0x0 KECCAK256 DUP4 MLOAD DUP2 SSTORE PUSH1 0x20 DUP5 ADD MLOAD PUSH1 0x1 DUP3 ADD SSTORE PUSH1 0x2 DUP2 ADD PUSH1 0x1 DUP1 PUSH1 0xA0 SHL SUB PUSH1 0x40 DUP7 ADD MLOAD AND PUSH12 0xFFFFFFFFFFFFFFFFFFFFFFFF PUSH1 0xA0 SHL DUP3 SLOAD AND OR SWAP1 SSTORE PUSH1 0x60 DUP5 ADD MLOAD DUP1 MLOAD SWAP1 PUSH1 0x1 PUSH1 0x1 PUSH1 0x40 SHL SUB DUP3 GT PUSH2 0xEC4 JUMPI PUSH2 0x2A82 DUP3 PUSH2 0xAD2 PUSH1 0x3 DUP7 ADD SLOAD PUSH2 0x3816 JUMP JUMPDEST PUSH1 0x20 SWAP1 PUSH1 0x1F DUP4 GT PUSH1 0x1 EQ PUSH2 0x2CE6 JUMPI PUSH2 0x2AB2 SWAP3 SWAP2 PUSH1 0x0 SWAP2 DUP4 PUSH2 0xEDA JUMPI POP POP DUP2 PUSH1 0x1 SHL SWAP2 PUSH1 0x0 NOT SWAP1 PUSH1 0x3 SHL SHR NOT AND OR SWAP1 JUMP JUMPDEST PUSH1 0x3 DUP3 ADD SSTORE JUMPDEST PUSH1 0x80 DUP5 ADD MLOAD DUP1 MLOAD SWAP1 PUSH1 0x1 PUSH1 0x1 PUSH1 0x40 SHL SUB DUP3 GT PUSH2 0xEC4 JUMPI PUSH2 0x2ADF DUP3 PUSH2 0xB39 PUSH1 0x4 DUP7 ADD SLOAD PUSH2 0x3816 JUMP JUMPDEST PUSH1 0x20 SWAP1 PUSH1 0x1F DUP4 GT PUSH1 0x1 EQ PUSH2 0x2C78 JUMPI PUSH2 0x2B0F SWAP3 SWAP2 PUSH1 0x0 SWAP2 DUP4 PUSH2 0xEDA JUMPI POP POP DUP2 PUSH1 0x1 SHL SWAP2 PUSH1 0x0 NOT SWAP1 PUSH1 0x3 SHL SHR NOT AND OR SWAP1 JUMP JUMPDEST PUSH1 0x4 DUP3 ADD SSTORE JUMPDEST PUSH1 0xA0 DUP5 ADD MLOAD DUP1 MLOAD SWAP1 PUSH1 0x1 PUSH1 0x1 PUSH1 0x40 SHL SUB DUP3 GT PUSH2 0xEC4 JUMPI PUSH2 0x2B3C DUP3 PUSH2 0xB9F PUSH1 0x5 DUP7 ADD SLOAD PUSH2 0x3816 JUMP JUMPDEST PUSH1 0x20 SWAP1 PUSH1 0x1F DUP4 GT PUSH1 0x1 EQ PUSH2 0x2C0A JUMPI PUSH2 0x2B6C SWAP3 SWAP2 PUSH1 0x0 SWAP2 DUP4 PUSH2 0xEDA JUMPI POP POP DUP2 PUSH1 0x1 SHL SWAP2 PUSH1 0x0 NOT SWAP1 PUSH1 0x3 SHL SHR NOT AND OR SWAP1 JUMP JUMPDEST PUSH1 0x5 DUP3 ADD SSTORE JUMPDEST PUSH1 0xC0 DUP5 ADD MLOAD PUSH1 0x6 DUP3 ADD SSTORE PUSH1 0xE0 DUP5 ADD MLOAD PUSH1 0x7 DUP3 ADD SSTORE PUSH2 0x100 DUP5 ADD MLOAD PUSH1 0x8 DUP3 ADD SSTORE PUSH2 0x120 DUP5 ADD MLOAD PUSH1 0x9 DUP3 ADD SSTORE PUSH1 0xA DUP2 ADD PUSH2 0x140 DUP6 ADD MLOAD PUSH1 0x3 DUP2 LT ISZERO PUSH2 0x39C JUMPI PUSH1 0x20 SWAP6 PUSH1 0xB SWAP3 PUSH2 0x160 SWAP3 PUSH1 0xFF DUP1 NOT DUP4 SLOAD AND SWAP2 AND OR SWAP1 SSTORE ADD MLOAD SWAP2 ADD SSTORE DUP2 PUSH32 0x658FCCFC8DE51891B480D49E504FBB0F8F9B43F13522A475D1729A74531A9E22 PUSH1 0x40 MLOAD CALLER DUP2 MSTORE PUSH1 0x40 DUP7 DUP3 ADD MSTORE DUP1 PUSH2 0x253B PUSH1 0x4 CALLDATALOAD SWAP6 PUSH1 0x40 DUP4 ADD SWAP1 PUSH2 0x397F JUMP JUMPDEST SWAP1 PUSH1 0x1F NOT DUP4 AND SWAP2 PUSH1 0x5 DUP6 ADD PUSH1 0x0 MSTORE PUSH1 0x20 PUSH1 0x0 KECCAK256 SWAP3 PUSH1 0x0 JUMPDEST DUP2 DUP2 LT PUSH2 0x2C60 JUMPI POP SWAP1 DUP5 PUSH1 0x1 SWAP6 SWAP5 SWAP4 SWAP3 LT PUSH2 0x2C47 JUMPI JUMPDEST POP POP POP DUP2 SHL ADD PUSH1 0x5 DUP3 ADD SSTORE PUSH2 0x2B72 JUMP JUMPDEST ADD MLOAD PUSH1 0x0 NOT PUSH1 0xF8 DUP5 PUSH1 0x3 SHL AND SHR NOT AND SWAP1 SSTORE DUP7 DUP1 DUP1 PUSH2 0x2C37 JUMP JUMPDEST SWAP3 SWAP4 PUSH1 0x20 PUSH1 0x1 DUP2 SWAP3 DUP8 DUP7 ADD MLOAD DUP2 SSTORE ADD SWAP6 ADD SWAP4 ADD PUSH2 0x2C21 JUMP JUMPDEST SWAP1 PUSH1 0x1F NOT DUP4 AND SWAP2 PUSH1 0x4 DUP6 ADD PUSH1 0x0 MSTORE PUSH1 0x20 PUSH1 0x0 KECCAK256 SWAP3 PUSH1 0x0 JUMPDEST DUP2 DUP2 LT PUSH2 0x2CCE JUMPI POP SWAP1 DUP5 PUSH1 0x1 SWAP6 SWAP5 SWAP4 SWAP3 LT PUSH2 0x2CB5 JUMPI JUMPDEST POP POP POP DUP2 SHL ADD PUSH1 0x4 DUP3 ADD SSTORE PUSH2 0x2B15 JUMP JUMPDEST ADD MLOAD PUSH1 0x0 NOT PUSH1 0xF8 DUP5 PUSH1 0x3 SHL AND SHR NOT AND SWAP1 SSTORE DUP7 DUP1 DUP1 PUSH2 0x2CA5 JUMP JUMPDEST SWAP3 SWAP4 PUSH1 0x20 PUSH1 0x1 DUP2 SWAP3 DUP8 DUP7 ADD MLOAD DUP2 SSTORE ADD SWAP6 ADD SWAP4 ADD PUSH2 0x2C8F JUMP JUMPDEST SWAP2 SWAP1 PUSH1 0x3 DUP5 ADD PUSH1 0x0 MSTORE PUSH1 0x20 PUSH1 0x0 KECCAK256 SWAP1 PUSH1 0x0 SWAP4 JUMPDEST PUSH1 0x1F NOT DUP5 AND DUP6 LT PUSH2 0x2D3D JUMPI PUSH1 0x1 SWAP5 POP DUP4 PUSH1 0x1F NOT DUP2 AND LT PUSH2 0x2D24 JUMPI JUMPDEST POP POP POP DUP2 SHL ADD PUSH1 0x3 DUP3 ADD SSTORE PUSH2 0x2AB8 JUMP JUMPDEST ADD MLOAD PUSH1 0x0 NOT PUSH1 0xF8 DUP5 PUSH1 0x3 SHL AND SHR NOT AND SWAP1 SSTORE DUP7 DUP1 DUP1 PUSH2 0x2D14 JUMP JUMPDEST DUP2 DUP2 ADD MLOAD DUP4 SSTORE PUSH1 0x20 SWAP5 DUP6 ADD SWAP5 PUSH1 0x1 SWAP1 SWAP4 ADD SWAP3 SWAP1 SWAP2 ADD SWAP1 PUSH2 0x2CF9 JUMP JUMPDEST PUSH1 0x40 MLOAD PUSH3 0x461BCD PUSH1 0xE5 SHL DUP2 MSTORE PUSH1 0x20 PUSH1 0x4 DUP3 ADD MSTORE PUSH1 0x10 PUSH1 0x24 DUP3 ADD MSTORE PUSH16 0x24B73B30B634B210323AB930BA34B7B7 PUSH1 0x81 SHL PUSH1 0x44 DUP3 ADD MSTORE PUSH1 0x64 SWAP1 REVERT JUMPDEST POP PUSH3 0x278D00 PUSH1 0x84 CALLDATALOAD GT ISZERO PUSH2 0x299D JUMP JUMPDEST CALLVALUE PUSH2 0x3B2 JUMPI PUSH1 0x0 CALLDATASIZE PUSH1 0x3 NOT ADD SLT PUSH2 0x3B2 JUMPI PUSH2 0x2DB8 PUSH2 0x45B4 JUMP JUMPDEST PUSH1 0x40 MLOAD PUSH2 0x2DC4 DUP2 PUSH2 0x3939 JUMP JUMPDEST PUSH1 0x80 CALLDATASIZE DUP3 CALLDATACOPY PUSH1 0x12 DUP1 SLOAD PUSH2 0x2E07 JUMPI JUMPDEST PUSH1 0x40 MLOAD PUSH32 0x229301218EF01CA6B8DA4D31650C5FDF0265077519DFBBFAF6F3254AA666450B SWAP1 DUP1 PUSH2 0x2E02 DUP6 DUP3 PUSH2 0x39CC JUMP JUMPDEST SUB SWAP1 LOG1 STOP JUMPDEST PUSH1 0x0 JUMPDEST PUSH1 0x4 DUP2 LT PUSH2 0x2E18 JUMPI POP PUSH2 0x2DD2 JUMP JUMPDEST PUSH2 0x2E21 DUP2 PUSH2 0x3975 JUMP JUMPDEST PUSH2 0x2E2A DUP2 PUSH2 0x3975 JUMP JUMPDEST DUP1 PUSH1 0x0 MSTORE PUSH1 0x20 SWAP1 PUSH1 0x10 DUP3 MSTORE PUSH1 0x40 PUSH1 0x0 KECCAK256 SLOAD SWAP2 PUSH2 0x2710 SWAP3 DUP4 DUP2 MUL SWAP4 DUP2 DUP6 DIV EQ SWAP1 ISZERO OR ISZERO PUSH2 0x737 JUMPI PUSH2 0x2E5E PUSH1 0x1 SWAP4 DUP6 SLOAD SWAP1 PUSH2 0x3CA8 JUMP JUMPDEST PUSH2 0x2E68 DUP4 DUP8 PUSH2 0x3CC8 JUMP JUMPDEST MSTORE PUSH1 0x11 PUSH2 0x2E75 DUP4 DUP8 PUSH2 0x3CC8 JUMP JUMPDEST MLOAD SWAP2 PUSH2 0x2E80 DUP5 PUSH2 0x3975 JUMP JUMPDEST DUP4 PUSH1 0x0 MSTORE MSTORE PUSH1 0x40 PUSH1 0x0 KECCAK256 SSTORE ADD PUSH2 0x2E0A JUMP JUMPDEST CALLVALUE PUSH2 0x3B2 JUMPI PUSH1 0x40 CALLDATASIZE PUSH1 0x3 NOT ADD SLT PUSH2 0x3B2 JUMPI PUSH2 0x668 PUSH1 0x4 CALLDATALOAD PUSH2 0x2EB0 PUSH2 0x3AEA JUMP JUMPDEST SWAP1 DUP1 PUSH1 0x0 MSTORE PUSH1 0x0 PUSH1 0x20 MSTORE PUSH2 0x2ECB PUSH1 0x1 PUSH1 0x40 PUSH1 0x0 KECCAK256 ADD SLOAD PUSH2 0x464A JUMP JUMPDEST PUSH2 0x47BD JUMP JUMPDEST CALLVALUE PUSH2 0x3B2 JUMPI PUSH1 0xE0 CALLDATASIZE PUSH1 0x3 NOT ADD SLT PUSH2 0x3B2 JUMPI PUSH2 0x2EE9 PUSH2 0x3B00 JUMP JUMPDEST PUSH1 0x44 CALLDATALOAD PUSH1 0x1 PUSH1 0x1 PUSH1 0xA0 SHL SUB DUP2 AND SWAP1 SUB PUSH2 0x3B2 JUMPI PUSH1 0xFF PUSH1 0x84 CALLDATALOAD AND PUSH1 0x84 CALLDATALOAD SUB PUSH2 0x3B2 JUMPI CALLER PUSH1 0x0 SWAP1 DUP2 MSTORE PUSH32 0xFAF93C3D007E112089DC8351E013E6685EF67703975D0224B26FC45941D4F1F5 PUSH1 0x20 MSTORE PUSH1 0x40 SWAP1 KECCAK256 SLOAD PUSH32 0xE2B7FB3B832174769106DAEBCFD6D1970523240DDA11281102DB9363B83B0DC4 SWAP1 PUSH1 0xFF AND ISZERO PUSH2 0x333B JUMPI POP PUSH2 0x2F6C PUSH2 0x4670 JUMP JUMPDEST PUSH1 0x64 CALLDATALOAD TIMESTAMP GT PUSH2 0x3302 JUMPI PUSH1 0x4 CALLDATALOAD PUSH1 0x0 MSTORE PUSH1 0x6 PUSH1 0x20 MSTORE PUSH1 0x40 PUSH1 0x0 KECCAK256 PUSH1 0xFF PUSH1 0xC DUP3 ADD SLOAD AND PUSH1 0x6 DUP2 LT ISZERO PUSH2 0x39C JUMPI PUSH1 0x1 PUSH2 0x2FA2 SWAP2 EQ PUSH2 0x3ED2 JUMP JUMPDEST PUSH2 0x2FB2 PUSH1 0x9 DUP3 ADD SLOAD TIMESTAMP LT ISZERO PUSH2 0x3F14 JUMP JUMPDEST PUSH2 0x2FC1 PUSH1 0xA DUP3 ADD SLOAD TIMESTAMP LT PUSH2 0x3F55 JUMP JUMPDEST PUSH2 0x2FD1 PUSH1 0x2 PUSH1 0xFF DUP5 AND GT ISZERO PUSH2 0x3F90 JUMP JUMPDEST PUSH1 0x4 CALLDATALOAD PUSH1 0x0 MSTORE PUSH1 0x8 PUSH1 0x20 MSTORE PUSH1 0x40 PUSH1 0x0 KECCAK256 PUSH1 0x1 DUP1 PUSH1 0xA0 SHL SUB PUSH1 0x44 CALLDATALOAD AND PUSH1 0x0 MSTORE PUSH1 0x20 MSTORE PUSH1 0x40 PUSH1 0x0 KECCAK256 SWAP1 PUSH2 0x3006 PUSH1 0xFF DUP4 SLOAD AND ISZERO PUSH2 0x3FD0 JUMP JUMPDEST PUSH1 0x44 CALLDATALOAD PUSH1 0x1 PUSH1 0x1 PUSH1 0xA0 SHL SUB AND PUSH1 0x0 SWAP1 DUP2 MSTORE PUSH1 0x3 PUSH1 0x20 MSTORE PUSH1 0x40 SWAP1 KECCAK256 DUP1 SLOAD SWAP1 PUSH2 0x302C DUP3 PUSH2 0x400C JUMP JUMPDEST SWAP1 SSTORE PUSH1 0x40 MLOAD SWAP1 PUSH1 0x20 DUP3 ADD SWAP1 PUSH32 0xA122AEDC7C2408A97BCFE5D8FF1F6A6D7BF779A8B6DD3D72FF503E8FCF9D2EB9 DUP3 MSTORE PUSH1 0x4 CALLDATALOAD PUSH1 0x40 DUP5 ADD MSTORE PUSH1 0xFF DUP7 AND PUSH1 0x60 DUP5 ADD MSTORE PUSH1 0x1 DUP1 PUSH1 0xA0 SHL SUB PUSH1 0x44 CALLDATALOAD AND PUSH1 0x80 DUP5 ADD MSTORE PUSH1 0xA0 DUP4 ADD MSTORE PUSH1 0x64 CALLDATALOAD PUSH1 0xC0 DUP4 ADD MSTORE PUSH1 0xC0 DUP3 MSTORE PUSH1 0xE0 DUP3 ADD DUP3 DUP2 LT PUSH1 0x1 PUSH1 0x1 PUSH1 0x40 SHL SUB DUP3 GT OR PUSH2 0xEC4 JUMPI PUSH2 0x3116 SWAP3 PUSH2 0x310D SWAP3 DUP3 PUSH1 0x40 MSTORE DUP2 MLOAD SWAP1 KECCAK256 PUSH2 0x122 PUSH2 0x100 DUP4 ADD SWAP3 PUSH2 0x1901 PUSH1 0xF0 SHL DUP5 MSTORE PUSH32 0x0 PUSH2 0x102 DUP3 ADD MSTORE ADD MSTORE PUSH1 0x42 DUP3 MSTORE PUSH2 0x30F9 DUP3 PUSH2 0x3939 JUMP JUMPDEST PUSH1 0xC4 CALLDATALOAD SWAP2 PUSH1 0xA4 CALLDATALOAD SWAP2 PUSH1 0x84 CALLDATALOAD SWAP2 MLOAD SWAP1 KECCAK256 PUSH2 0x4959 JUMP JUMPDEST SWAP1 SWAP3 SWAP2 SWAP3 PUSH2 0x49E9 JUMP JUMPDEST PUSH1 0x1 PUSH1 0x1 PUSH1 0xA0 SHL SUB PUSH1 0x44 CALLDATALOAD DUP2 AND SWAP2 AND SUB PUSH2 0x32C9 JUMPI PUSH1 0x2 SLOAD PUSH1 0x1 DUP3 ADD SLOAD PUSH1 0x40 MLOAD PUSH4 0x6DED6A19 PUSH1 0xE1 SHL DUP2 MSTORE PUSH1 0x4 DUP2 ADD SWAP2 SWAP1 SWAP2 MSTORE PUSH1 0x1 PUSH1 0x1 PUSH1 0xA0 SHL SUB PUSH1 0x44 DUP1 CALLDATALOAD DUP3 AND PUSH1 0x24 DUP5 ADD MSTORE SWAP2 SWAP5 SWAP3 PUSH1 0x20 SWAP3 DUP7 SWAP3 SWAP1 SWAP2 DUP4 SWAP2 AND GAS STATICCALL SWAP3 DUP4 ISZERO PUSH2 0x111C JUMPI PUSH1 0x0 SWAP4 PUSH2 0x3292 JUMPI JUMPDEST POP PUSH1 0xFF PUSH1 0x2 PUSH2 0x3215 SWAP4 DUP6 PUSH1 0x1 DUP2 SWAP6 PUSH2 0x3191 DUP4 ISZERO ISZERO PUSH2 0x401B JUMP JUMPDEST DUP1 SLOAD PUSH2 0xFF00 PUSH1 0x8 DUP13 SWAP1 SHL AND DUP8 NOT SWAP1 SWAP2 AND DUP4 OR PUSH2 0xFF00 NOT AND OR DUP2 SSTORE ADD SSTORE DUP7 DUP4 AND PUSH2 0x3263 JUMPI PUSH1 0x7 DUP2 ADD PUSH2 0x31C3 DUP6 DUP3 SLOAD PUSH2 0x4059 JUMP JUMPDEST SWAP1 SSTORE JUMPDEST PUSH1 0x44 CALLDATALOAD PUSH1 0x1 PUSH1 0x1 PUSH1 0xA0 SHL SUB AND PUSH1 0x0 SWAP1 DUP2 MSTORE PUSH1 0xA PUSH1 0x20 MSTORE PUSH1 0x40 SWAP1 KECCAK256 DUP1 SLOAD PUSH2 0x31EB SWAP1 PUSH2 0x400C JUMP JUMPDEST SWAP1 SSTORE PUSH1 0x44 CALLDATALOAD PUSH1 0x1 PUSH1 0x1 PUSH1 0xA0 SHL SUB AND PUSH1 0x0 SWAP1 DUP2 MSTORE PUSH1 0xB PUSH1 0x20 MSTORE PUSH1 0x40 SWAP1 KECCAK256 TIMESTAMP SWAP1 SSTORE ADD SLOAD PUSH1 0xA0 SHR AND PUSH2 0x4693 JUMP JUMPDEST PUSH1 0xFF PUSH1 0x40 MLOAD SWAP3 AND DUP3 MSTORE PUSH1 0x20 DUP3 ADD MSTORE CALLER PUSH1 0x40 DUP3 ADD MSTORE PUSH1 0x1 DUP1 PUSH1 0xA0 SHL SUB PUSH1 0x44 CALLDATALOAD AND SWAP1 PUSH32 0xB7A759F14619C0391B65E3F8CEB8FD342A3E24929E81D83493445A4A1C87D0FC PUSH1 0x60 PUSH1 0x4 CALLDATALOAD SWAP3 LOG3 PUSH1 0x1 DUP1 SSTORE STOP JUMPDEST DUP7 DUP4 AND PUSH1 0x1 SUB PUSH2 0x3283 JUMPI PUSH1 0x6 DUP2 ADD PUSH2 0x327C DUP6 DUP3 SLOAD PUSH2 0x4059 JUMP JUMPDEST SWAP1 SSTORE PUSH2 0x31C6 JUMP JUMPDEST PUSH1 0x8 DUP2 ADD PUSH2 0x327C DUP6 DUP3 SLOAD PUSH2 0x4059 JUMP JUMPDEST SWAP2 SWAP3 POP PUSH1 0x20 DUP3 RETURNDATASIZE PUSH1 0x20 GT PUSH2 0x32C1 JUMPI JUMPDEST DUP2 PUSH2 0x32AE PUSH1 0x20 SWAP4 DUP4 PUSH2 0x3954 JUMP JUMPDEST DUP2 ADD SUB SLT PUSH2 0x3B2 JUMPI SWAP1 MLOAD SWAP2 SWAP1 PUSH1 0xFF PUSH2 0x3178 JUMP JUMPDEST RETURNDATASIZE SWAP2 POP PUSH2 0x32A1 JUMP JUMPDEST PUSH1 0x40 MLOAD PUSH3 0x461BCD PUSH1 0xE5 SHL DUP2 MSTORE PUSH1 0x20 PUSH1 0x4 DUP3 ADD MSTORE PUSH1 0x11 PUSH1 0x24 DUP3 ADD MSTORE PUSH17 0x496E76616C6964207369676E6174757265 PUSH1 0x78 SHL PUSH1 0x44 DUP3 ADD MSTORE PUSH1 0x64 SWAP1 REVERT JUMPDEST PUSH1 0x40 MLOAD PUSH3 0x461BCD PUSH1 0xE5 SHL DUP2 MSTORE PUSH1 0x20 PUSH1 0x4 DUP3 ADD MSTORE PUSH1 0x11 PUSH1 0x24 DUP3 ADD MSTORE PUSH17 0x14DA59DB985D1D5C9948195E1C1A5C9959 PUSH1 0x7A SHL PUSH1 0x44 DUP3 ADD MSTORE PUSH1 0x64 SWAP1 REVERT JUMPDEST PUSH1 0x44 SWAP1 PUSH1 0x40 MLOAD SWAP1 PUSH4 0xE2517D3F PUSH1 0xE0 SHL DUP3 MSTORE CALLER PUSH1 0x4 DUP4 ADD MSTORE PUSH1 0x24 DUP3 ADD MSTORE REVERT JUMPDEST CALLVALUE PUSH2 0x3B2 JUMPI PUSH1 0x0 CALLDATASIZE PUSH1 0x3 NOT ADD SLT PUSH2 0x3B2 JUMPI PUSH1 0x20 PUSH1 0x40 MLOAD PUSH2 0x9C4 DUP2 MSTORE RETURN JUMPDEST CALLVALUE PUSH2 0x3B2 JUMPI PUSH1 0x20 CALLDATASIZE PUSH1 0x3 NOT ADD SLT PUSH2 0x3B2 JUMPI PUSH1 0x4 CALLDATALOAD PUSH1 0x0 MSTORE PUSH1 0x0 PUSH1 0x20 MSTORE PUSH1 0x20 PUSH1 0x1 PUSH1 0x40 PUSH1 0x0 KECCAK256 ADD SLOAD PUSH1 0x40 MLOAD SWAP1 DUP2 MSTORE RETURN JUMPDEST CALLVALUE PUSH2 0x3B2 JUMPI PUSH1 0x20 CALLDATASIZE PUSH1 0x3 NOT ADD SLT PUSH2 0x3B2 JUMPI PUSH2 0x33BE PUSH2 0x3DAD JUMP JUMPDEST POP PUSH1 0x4 CALLDATALOAD PUSH1 0x0 MSTORE PUSH1 0xC PUSH1 0x20 MSTORE PUSH2 0x7A1 PUSH2 0x33DA PUSH1 0x40 PUSH1 0x0 KECCAK256 PUSH2 0x3E09 JUMP JUMPDEST PUSH1 0x40 MLOAD SWAP2 DUP3 SWAP2 PUSH1 0x20 DUP4 MSTORE PUSH1 0x20 DUP4 ADD SWAP1 PUSH2 0x3A07 JUMP JUMPDEST CALLVALUE PUSH2 0x3B2 JUMPI PUSH1 0x20 CALLDATASIZE PUSH1 0x3 NOT ADD SLT PUSH2 0x3B2 JUMPI PUSH1 0x4 CALLDATALOAD PUSH1 0x4 DUP2 LT ISZERO PUSH2 0x3B2 JUMPI PUSH2 0x3414 DUP2 PUSH2 0x3975 JUMP JUMPDEST PUSH1 0x0 MSTORE PUSH1 0x11 PUSH1 0x20 MSTORE PUSH1 0x20 PUSH1 0x40 PUSH1 0x0 KECCAK256 SLOAD PUSH1 0x40 MLOAD SWAP1 DUP2 MSTORE RETURN JUMPDEST CALLVALUE PUSH2 0x3B2 JUMPI PUSH1 0x20 CALLDATASIZE PUSH1 0x3 NOT ADD SLT PUSH2 0x3B2 JUMPI PUSH1 0x4 CALLDATALOAD PUSH1 0x4 DUP2 LT ISZERO PUSH2 0x3B2 JUMPI PUSH2 0x3452 DUP2 PUSH2 0x3975 JUMP JUMPDEST PUSH1 0x0 MSTORE PUSH1 0x10 PUSH1 0x20 MSTORE PUSH1 0x20 PUSH1 0x40 PUSH1 0x0 KECCAK256 SLOAD PUSH1 0x40 MLOAD SWAP1 DUP2 MSTORE RETURN JUMPDEST CALLVALUE PUSH2 0x3B2 JUMPI PUSH1 0x20 CALLDATASIZE PUSH1 0x3 NOT ADD SLT PUSH2 0x3B2 JUMPI CALLER PUSH1 0x0 SWAP1 DUP2 MSTORE PUSH32 0xDAE2AA361DFD1CA020A396615627D436107C35EFF9FE7738A3512819782D7069 PUSH1 0x20 MSTORE PUSH1 0x40 SWAP1 KECCAK256 SLOAD PUSH1 0x4 CALLDATALOAD SWAP1 PUSH32 0xD8AA0F3194971A2A116679F7C2090F6939C8D4E01A2A8D7E41D55E5351469E63 SWAP1 PUSH1 0xFF AND ISZERO PUSH2 0x333B JUMPI POP PUSH2 0x34E1 PUSH2 0x4670 JUMP JUMPDEST DUP1 PUSH1 0x0 MSTORE PUSH1 0x6 PUSH1 0x20 MSTORE PUSH1 0xC PUSH1 0x40 PUSH1 0x0 KECCAK256 ADD DUP1 SLOAD PUSH1 0xFF DUP2 AND PUSH1 0x6 DUP2 LT ISZERO PUSH2 0x39C JUMPI PUSH1 0x2 SUB PUSH2 0x353C JUMPI PUSH1 0xFF NOT AND PUSH1 0x4 OR SWAP1 SSTORE PUSH32 0x712AE1383F79AC853F8D882153778E0260EF8F03B504E2866E0593E04D2B291F PUSH1 0x0 DUP1 LOG2 PUSH1 0x1 DUP1 SSTORE STOP JUMPDEST PUSH1 0x40 MLOAD PUSH3 0x461BCD PUSH1 0xE5 SHL DUP2 MSTORE PUSH1 0x20 PUSH1 0x4 DUP3 ADD MSTORE PUSH1 0x16 PUSH1 0x24 DUP3 ADD MSTORE PUSH22 0x141C9BDC1BDCD85B081B9BDD081CDD58D8D959591959 PUSH1 0x52 SHL PUSH1 0x44 DUP3 ADD MSTORE PUSH1 0x64 SWAP1 REVERT JUMPDEST CALLVALUE PUSH2 0x3B2 JUMPI PUSH1 0x0 CALLDATASIZE PUSH1 0x3 NOT ADD SLT PUSH2 0x3B2 JUMPI PUSH2 0x7A1 PUSH2 0x3596 PUSH2 0x3CEF JUMP JUMPDEST PUSH1 0x40 MLOAD SWAP2 DUP3 SWAP2 DUP3 PUSH2 0x39CC JUMP JUMPDEST CALLVALUE PUSH2 0x3B2 JUMPI PUSH1 0x0 CALLDATASIZE PUSH1 0x3 NOT ADD SLT PUSH2 0x3B2 JUMPI PUSH1 0x20 PUSH1 0x40 MLOAD PUSH32 0xD8AA0F3194971A2A116679F7C2090F6939C8D4E01A2A8D7E41D55E5351469E63 DUP2 MSTORE RETURN JUMPDEST CALLVALUE PUSH2 0x3B2 JUMPI PUSH1 0x0 CALLDATASIZE PUSH1 0x3 NOT ADD SLT PUSH2 0x3B2 JUMPI PUSH1 0x20 PUSH1 0x4 SLOAD PUSH1 0x40 MLOAD SWAP1 DUP2 MSTORE RETURN JUMPDEST CALLVALUE PUSH2 0x3B2 JUMPI PUSH1 0x20 CALLDATASIZE PUSH1 0x3 NOT ADD SLT PUSH2 0x3B2 JUMPI PUSH1 0x4 CALLDATALOAD PUSH4 0xFFFFFFFF PUSH1 0xE0 SHL DUP2 AND DUP1 SWAP2 SUB PUSH2 0x3B2 JUMPI PUSH1 0x20 SWAP1 PUSH4 0x7965DB0B PUSH1 0xE0 SHL DUP2 EQ SWAP1 DUP2 ISZERO PUSH2 0x3640 JUMPI JUMPDEST POP PUSH1 0x40 MLOAD SWAP1 ISZERO ISZERO DUP2 MSTORE RETURN JUMPDEST PUSH4 0x1FFC9A7 PUSH1 0xE0 SHL EQ SWAP1 POP DUP3 PUSH2 0x3635 JUMP JUMPDEST CALLVALUE PUSH2 0x3B2 JUMPI PUSH1 0x20 CALLDATASIZE PUSH1 0x3 NOT ADD SLT PUSH2 0x3B2 JUMPI PUSH1 0x4 CALLDATALOAD PUSH1 0x0 MSTORE PUSH1 0x6 PUSH1 0x20 MSTORE PUSH1 0x40 PUSH1 0x0 KECCAK256 DUP1 SLOAD SWAP1 PUSH1 0x1 DUP2 ADD SLOAD PUSH1 0x2 DUP3 ADD SLOAD SWAP2 PUSH1 0x80 DUP1 PUSH1 0x3 DUP4 ADD SWAP1 PUSH2 0x3691 SWAP2 PUSH2 0x3850 JUMP JUMPDEST SUB PUSH1 0x80 SWAP1 PUSH2 0x369E SWAP2 PUSH2 0x3954 JUMP JUMPDEST PUSH1 0x40 MLOAD DUP1 PUSH2 0x36AF DUP2 PUSH1 0x4 DUP6 ADD PUSH2 0x3850 JUMP JUMPDEST SUB PUSH2 0x36BA SWAP1 DUP3 PUSH2 0x3954 JUMP JUMPDEST PUSH1 0x40 MLOAD DUP1 PUSH2 0x36CB DUP2 PUSH1 0x5 DUP7 ADD PUSH2 0x3850 JUMP JUMPDEST SUB PUSH2 0x36D6 SWAP1 DUP3 PUSH2 0x3954 JUMP JUMPDEST PUSH1 0x6 DUP4 ADD SLOAD SWAP1 PUSH1 0x7 DUP5 ADD SLOAD PUSH1 0x8 DUP6 ADD SLOAD PUSH1 0x9 DUP7 ADD SLOAD PUSH1 0xA DUP8 ADD SLOAD SWAP2 PUSH1 0xB DUP9 ADD SLOAD SWAP4 PUSH1 0xC DUP10 ADD SLOAD PUSH1 0xFF AND SWAP6 PUSH1 0x40 MLOAD SWAP9 DUP10 DUP1 PUSH1 0xD DUP14 ADD SWAP1 PUSH2 0x3714 SWAP2 PUSH2 0x3850 JUMP JUMPDEST SUB PUSH2 0x371F SWAP1 DUP12 PUSH2 0x3954 JUMP JUMPDEST PUSH1 0x40 MLOAD SWAP11 DUP12 PUSH2 0x3731 DUP2 PUSH1 0xE DUP5 ADD PUSH2 0x3850 JUMP JUMPDEST SUB PUSH2 0x373C SWAP1 DUP14 PUSH2 0x3954 JUMP JUMPDEST PUSH1 0xF ADD SLOAD SWAP12 PUSH1 0x40 MLOAD SWAP15 DUP16 SWAP15 DUP16 SWAP1 PUSH2 0x220 SWAP4 DUP5 SWAP4 DUP4 MSTORE PUSH1 0x20 DUP4 ADD MSTORE PUSH1 0x1 PUSH1 0xA0 SHL PUSH1 0x1 SWAP1 SUB DUP2 AND PUSH1 0x40 DUP4 ADD MSTORE DUP1 PUSH1 0xA0 SHR PUSH1 0xFF AND PUSH2 0x3776 SWAP1 PUSH2 0x3975 JUMP JUMPDEST PUSH1 0xA0 SHR PUSH1 0xFF AND PUSH1 0x60 DUP3 ADD MSTORE PUSH1 0x80 ADD MSTORE DUP14 ADD PUSH1 0x80 SWAP1 PUSH2 0x3793 SWAP2 PUSH2 0x397F JUMP JUMPDEST DUP14 DUP2 SUB PUSH1 0xA0 DUP16 ADD MSTORE PUSH2 0x37A4 SWAP2 PUSH2 0x397F JUMP JUMPDEST DUP13 DUP2 SUB PUSH1 0xC0 DUP15 ADD MSTORE PUSH2 0x37B5 SWAP2 PUSH2 0x397F JUMP JUMPDEST SWAP7 PUSH1 0xE0 DUP13 ADD MSTORE PUSH2 0x100 DUP12 ADD MSTORE PUSH2 0x120 DUP11 ADD MSTORE PUSH2 0x140 DUP10 ADD MSTORE PUSH2 0x160 DUP9 ADD MSTORE PUSH2 0x180 DUP8 ADD MSTORE PUSH2 0x1A0 DUP7 ADD PUSH2 0x37E7 SWAP2 PUSH2 0x39BF JUMP JUMPDEST DUP5 DUP2 SUB PUSH2 0x1C0 DUP7 ADD MSTORE PUSH2 0x37F9 SWAP2 PUSH2 0x397F JUMP JUMPDEST DUP4 DUP2 SUB PUSH2 0x1E0 DUP6 ADD MSTORE PUSH2 0x380B SWAP2 PUSH2 0x397F JUMP JUMPDEST SWAP1 PUSH2 0x200 DUP4 ADD MSTORE SUB SWAP1 RETURN JUMPDEST SWAP1 PUSH1 0x1 DUP3 DUP2 SHR SWAP3 AND DUP1 ISZERO PUSH2 0x3846 JUMPI JUMPDEST PUSH1 0x20 DUP4 LT EQ PUSH2 0x3830 JUMPI JUMP JUMPDEST PUSH4 0x4E487B71 PUSH1 0xE0 SHL PUSH1 0x0 MSTORE PUSH1 0x22 PUSH1 0x4 MSTORE PUSH1 0x24 PUSH1 0x0 REVERT JUMPDEST SWAP2 PUSH1 0x7F AND SWAP2 PUSH2 0x3825 JUMP JUMPDEST DUP1 SLOAD PUSH1 0x0 SWAP4 SWAP3 PUSH2 0x385F DUP3 PUSH2 0x3816 JUMP JUMPDEST SWAP2 DUP3 DUP3 MSTORE PUSH1 0x20 SWAP4 PUSH1 0x1 SWAP2 PUSH1 0x1 DUP2 AND SWAP1 DUP2 PUSH1 0x0 EQ PUSH2 0x38C7 JUMPI POP PUSH1 0x1 EQ PUSH2 0x3886 JUMPI JUMPDEST POP POP POP POP POP JUMP JUMPDEST SWAP1 SWAP4 SWAP5 SWAP6 POP PUSH1 0x0 SWAP3 SWAP2 SWAP3 MSTORE DUP4 PUSH1 0x0 KECCAK256 SWAP3 DUP5 PUSH1 0x0 SWAP5 JUMPDEST DUP4 DUP7 LT PUSH2 0x38B3 JUMPI POP POP POP POP ADD ADD SWAP1 CODESIZE DUP1 DUP1 DUP1 DUP1 PUSH2 0x387F JUMP JUMPDEST DUP1 SLOAD DUP6 DUP8 ADD DUP4 ADD MSTORE SWAP5 ADD SWAP4 DUP6 SWAP1 DUP3 ADD PUSH2 0x389B JUMP JUMPDEST PUSH1 0xFF NOT AND DUP7 DUP6 ADD MSTORE POP POP POP SWAP1 ISZERO ISZERO PUSH1 0x5 SHL ADD ADD SWAP2 POP CODESIZE DUP1 DUP1 DUP1 DUP1 PUSH2 0x387F JUMP JUMPDEST PUSH2 0x180 DUP2 ADD SWAP1 DUP2 LT PUSH1 0x1 PUSH1 0x1 PUSH1 0x40 SHL SUB DUP3 GT OR PUSH2 0xEC4 JUMPI PUSH1 0x40 MSTORE JUMP JUMPDEST PUSH2 0x220 DUP2 ADD SWAP1 DUP2 LT PUSH1 0x1 PUSH1 0x1 PUSH1 0x40 SHL SUB DUP3 GT OR PUSH2 0xEC4 JUMPI PUSH1 0x40 MSTORE JUMP JUMPDEST PUSH1 0x60 DUP2 ADD SWAP1 DUP2 LT PUSH1 0x1 PUSH1 0x1 PUSH1 0x40 SHL SUB DUP3 GT OR PUSH2 0xEC4 JUMPI PUSH1 0x40 MSTORE JUMP JUMPDEST PUSH1 0x80 DUP2 ADD SWAP1 DUP2 LT PUSH1 0x1 PUSH1 0x1 PUSH1 0x40 SHL SUB DUP3 GT OR PUSH2 0xEC4 JUMPI PUSH1 0x40 MSTORE JUMP JUMPDEST SWAP1 PUSH1 0x1F DUP1 NOT SWAP2 ADD AND DUP2 ADD SWAP1 DUP2 LT PUSH1 0x1 PUSH1 0x1 PUSH1 0x40 SHL SUB DUP3 GT OR PUSH2 0xEC4 JUMPI PUSH1 0x40 MSTORE JUMP JUMPDEST PUSH1 0x4 GT ISZERO PUSH2 0x39C JUMPI JUMP JUMPDEST SWAP2 SWAP1 DUP3 MLOAD SWAP3 DUP4 DUP3 MSTORE PUSH1 0x0 JUMPDEST DUP5 DUP2 LT PUSH2 0x39AB JUMPI POP POP DUP3 PUSH1 0x0 PUSH1 0x20 DUP1 SWAP5 SWAP6 DUP5 ADD ADD MSTORE PUSH1 0x1F DUP1 NOT SWAP2 ADD AND ADD ADD SWAP1 JUMP JUMPDEST PUSH1 0x20 DUP2 DUP4 ADD DUP2 ADD MLOAD DUP5 DUP4 ADD DUP3 ADD MSTORE ADD PUSH2 0x398A JUMP JUMPDEST SWAP1 PUSH1 0x6 DUP3 LT ISZERO PUSH2 0x39C JUMPI MSTORE JUMP JUMPDEST PUSH1 0x80 DUP2 ADD SWAP3 SWAP2 PUSH1 0x0 SWAP2 JUMPDEST PUSH1 0x4 DUP4 LT PUSH2 0x39E3 JUMPI POP POP POP JUMP JUMPDEST PUSH1 0x1 SWAP1 DUP3 MLOAD DUP2 MSTORE PUSH1 0x20 DUP1 SWAP2 ADD SWAP3 ADD SWAP3 ADD SWAP2 SWAP1 PUSH2 0x39D6 JUMP JUMPDEST SWAP1 PUSH1 0x3 DUP3 LT ISZERO PUSH2 0x39C JUMPI MSTORE JUMP JUMPDEST SWAP1 PUSH2 0x3A6C PUSH2 0x3A5A PUSH2 0x3A48 PUSH2 0x180 DUP6 MLOAD DUP6 MSTORE PUSH1 0x20 DUP7 ADD MLOAD PUSH1 0x20 DUP7 ADD MSTORE PUSH1 0x1 DUP1 PUSH1 0xA0 SHL SUB PUSH1 0x40 DUP8 ADD MLOAD AND PUSH1 0x40 DUP7 ADD MSTORE PUSH1 0x60 DUP7 ADD MLOAD SWAP1 DUP1 PUSH1 0x60 DUP8 ADD MSTORE DUP6 ADD SWAP1 PUSH2 0x397F JUMP JUMPDEST PUSH1 0x80 DUP6 ADD MLOAD DUP5 DUP3 SUB PUSH1 0x80 DUP7 ADD MSTORE PUSH2 0x397F JUMP JUMPDEST PUSH1 0xA0 DUP5 ADD MLOAD DUP4 DUP3 SUB PUSH1 0xA0 DUP6 ADD MSTORE PUSH2 0x397F JUMP JUMPDEST SWAP2 PUSH1 0xC0 DUP2 ADD MLOAD PUSH1 0xC0 DUP4 ADD MSTORE PUSH1 0xE0 DUP2 ADD MLOAD PUSH1 0xE0 DUP4 ADD MSTORE PUSH2 0x100 DUP1 DUP3 ADD MLOAD SWAP1 DUP4 ADD MSTORE PUSH2 0x120 DUP1 DUP3 ADD MLOAD SWAP1 DUP4 ADD MSTORE PUSH2 0x3AAA PUSH2 0x140 DUP1 DUP4 ADD MLOAD SWAP1 DUP5 ADD SWAP1 PUSH2 0x39FA JUMP JUMPDEST PUSH2 0x160 DUP1 SWAP2 ADD MLOAD SWAP2 ADD MSTORE SWAP1 JUMP JUMPDEST CALLVALUE PUSH2 0x3B2 JUMPI PUSH1 0x0 CALLDATASIZE PUSH1 0x3 NOT ADD SLT PUSH2 0x3B2 JUMPI PUSH1 0x20 PUSH1 0x40 MLOAD PUSH2 0x1388 DUP2 MSTORE RETURN JUMPDEST PUSH1 0x4 CALLDATALOAD SWAP1 PUSH1 0x1 PUSH1 0x1 PUSH1 0xA0 SHL SUB DUP3 AND DUP3 SUB PUSH2 0x3B2 JUMPI JUMP JUMPDEST PUSH1 0x24 CALLDATALOAD SWAP1 PUSH1 0x1 PUSH1 0x1 PUSH1 0xA0 SHL SUB DUP3 AND DUP3 SUB PUSH2 0x3B2 JUMPI JUMP JUMPDEST PUSH1 0x24 CALLDATALOAD SWAP1 PUSH1 0xFF DUP3 AND DUP3 SUB PUSH2 0x3B2 JUMPI JUMP JUMPDEST DUP2 PUSH1 0x1F DUP3 ADD SLT ISZERO PUSH2 0x3B2 JUMPI DUP1 CALLDATALOAD SWAP1 PUSH1 0x1 PUSH1 0x1 PUSH1 0x40 SHL SUB DUP3 GT PUSH2 0xEC4 JUMPI PUSH1 0x40 MLOAD SWAP3 PUSH2 0x3B44 PUSH1 0x1F DUP5 ADD PUSH1 0x1F NOT AND PUSH1 0x20 ADD DUP6 PUSH2 0x3954 JUMP JUMPDEST DUP3 DUP5 MSTORE PUSH1 0x20 DUP4 DUP4 ADD ADD GT PUSH2 0x3B2 JUMPI DUP2 PUSH1 0x0 SWAP3 PUSH1 0x20 DUP1 SWAP4 ADD DUP4 DUP7 ADD CALLDATACOPY DUP4 ADD ADD MSTORE SWAP1 JUMP JUMPDEST CALLVALUE PUSH2 0x3B2 JUMPI PUSH1 0x0 CALLDATASIZE PUSH1 0x3 NOT ADD SLT PUSH2 0x3B2 JUMPI PUSH1 0x20 PUSH1 0x40 MLOAD PUSH2 0x1F4 DUP2 MSTORE RETURN JUMPDEST CALLVALUE PUSH2 0x3B2 JUMPI PUSH1 0x0 CALLDATASIZE PUSH1 0x3 NOT ADD SLT PUSH2 0x3B2 JUMPI PUSH1 0x20 PUSH1 0x40 MLOAD PUSH2 0xBB8 DUP2 MSTORE RETURN JUMPDEST SWAP1 PUSH2 0x3C9A PUSH2 0x3C86 PUSH2 0x3C1E PUSH2 0x3C0C PUSH2 0x3BFA PUSH2 0x220 DUP8 MLOAD DUP8 MSTORE PUSH1 0x20 DUP9 ADD MLOAD PUSH1 0x20 DUP9 ADD MSTORE PUSH1 0x1 DUP1 PUSH1 0xA0 SHL SUB PUSH1 0x40 DUP10 ADD MLOAD AND PUSH1 0x40 DUP9 ADD MSTORE PUSH1 0x60 DUP9 ADD MLOAD PUSH2 0x3BE1 DUP2 PUSH2 0x3975 JUMP JUMPDEST PUSH1 0x60 DUP9 ADD MSTORE PUSH1 0x80 DUP9 ADD MLOAD SWAP1 DUP1 PUSH1 0x80 DUP10 ADD MSTORE DUP8 ADD SWAP1 PUSH2 0x397F JUMP JUMPDEST PUSH1 0xA0 DUP8 ADD MLOAD DUP7 DUP3 SUB PUSH1 0xA0 DUP9 ADD MSTORE PUSH2 0x397F JUMP JUMPDEST PUSH1 0xC0 DUP7 ADD MLOAD DUP6 DUP3 SUB PUSH1 0xC0 DUP8 ADD MSTORE PUSH2 0x397F JUMP JUMPDEST PUSH1 0xE0 DUP6 ADD MLOAD PUSH1 0xE0 DUP6 ADD MSTORE PUSH2 0x100 DUP1 DUP7 ADD MLOAD SWAP1 DUP6 ADD MSTORE PUSH2 0x120 DUP1 DUP7 ADD MLOAD SWAP1 DUP6 ADD MSTORE PUSH2 0x140 DUP1 DUP7 ADD MLOAD SWAP1 DUP6 ADD MSTORE PUSH2 0x160 DUP1 DUP7 ADD MLOAD SWAP1 DUP6 ADD MSTORE PUSH2 0x180 DUP1 DUP7 ADD MLOAD SWAP1 DUP6 ADD MSTORE PUSH2 0x3C72 PUSH2 0x1A0 DUP1 DUP8 ADD MLOAD SWAP1 DUP7 ADD SWAP1 PUSH2 0x39BF JUMP JUMPDEST PUSH2 0x1C0 DUP1 DUP7 ADD MLOAD SWAP1 DUP6 DUP4 SUB SWAP1 DUP7 ADD MSTORE PUSH2 0x397F JUMP JUMPDEST PUSH2 0x1E0 DUP1 DUP6 ADD MLOAD SWAP1 DUP5 DUP4 SUB SWAP1 DUP6 ADD MSTORE PUSH2 0x397F JUMP JUMPDEST SWAP2 PUSH2 0x200 DUP1 SWAP2 ADD MLOAD SWAP2 ADD MSTORE SWAP1 JUMP JUMPDEST DUP2 ISZERO PUSH2 0x3CB2 JUMPI DIV SWAP1 JUMP JUMPDEST PUSH4 0x4E487B71 PUSH1 0xE0 SHL PUSH1 0x0 MSTORE PUSH1 0x12 PUSH1 0x4 MSTORE PUSH1 0x24 PUSH1 0x0 REVERT JUMPDEST SWAP1 PUSH1 0x4 DUP2 LT ISZERO PUSH2 0x3CD9 JUMPI PUSH1 0x5 SHL ADD SWAP1 JUMP JUMPDEST PUSH4 0x4E487B71 PUSH1 0xE0 SHL PUSH1 0x0 MSTORE PUSH1 0x32 PUSH1 0x4 MSTORE PUSH1 0x24 PUSH1 0x0 REVERT JUMPDEST PUSH1 0x40 DUP1 MLOAD SWAP2 PUSH2 0x3CFD DUP4 PUSH2 0x3939 JUMP JUMPDEST PUSH1 0x80 CALLDATASIZE DUP5 CALLDATACOPY DUP3 SWAP1 PUSH1 0x12 SLOAD SWAP4 DUP5 ISZERO PUSH2 0x3D8E JUMPI POP PUSH1 0x0 JUMPDEST PUSH1 0x4 DUP1 DUP3 LT ISZERO PUSH2 0x3D85 JUMPI PUSH2 0x3D25 DUP3 PUSH2 0x3975 JUMP JUMPDEST PUSH2 0x3D2E DUP3 PUSH2 0x3975 JUMP JUMPDEST DUP2 PUSH1 0x0 MSTORE PUSH1 0x10 PUSH1 0x20 MSTORE DUP5 PUSH1 0x0 KECCAK256 SLOAD SWAP1 PUSH2 0x2710 SWAP2 DUP3 DUP2 MUL SWAP3 DUP2 DUP5 DIV EQ SWAP1 ISZERO OR ISZERO PUSH2 0x3D70 JUMPI POP SWAP1 PUSH2 0x3D5F DUP7 PUSH1 0x1 SWAP4 PUSH2 0x3CA8 JUMP JUMPDEST PUSH2 0x3D69 DUP3 DUP7 PUSH2 0x3CC8 JUMP JUMPDEST MSTORE ADD PUSH2 0x3D12 JUMP JUMPDEST PUSH1 0x11 SWAP1 PUSH4 0x4E487B71 PUSH1 0xE0 SHL PUSH1 0x0 MSTORE MSTORE PUSH1 0x24 PUSH1 0x0 REVERT JUMPDEST POP POP SWAP3 POP SWAP1 POP SWAP1 JUMP JUMPDEST SWAP4 POP SWAP2 POP POP JUMP JUMPDEST SWAP1 PUSH1 0x6 DUP2 LT ISZERO PUSH2 0x39C JUMPI PUSH1 0xFF DUP1 NOT DUP4 SLOAD AND SWAP2 AND OR SWAP1 SSTORE JUMP JUMPDEST PUSH1 0x40 MLOAD SWAP1 PUSH2 0x3DBA DUP3 PUSH2 0x38E6 JUMP JUMPDEST DUP2 PUSH2 0x160 PUSH1 0x0 SWAP2 DUP3 DUP2 MSTORE DUP3 PUSH1 0x20 DUP3 ADD MSTORE DUP3 PUSH1 0x40 DUP3 ADD MSTORE PUSH1 0x60 DUP1 DUP3 ADD MSTORE PUSH1 0x60 PUSH1 0x80 DUP3 ADD MSTORE PUSH1 0x60 PUSH1 0xA0 DUP3 ADD MSTORE DUP3 PUSH1 0xC0 DUP3 ADD MSTORE DUP3 PUSH1 0xE0 DUP3 ADD MSTORE DUP3 PUSH2 0x100 DUP3 ADD MSTORE DUP3 PUSH2 0x120 DUP3 ADD MSTORE DUP3 PUSH2 0x140 DUP3 ADD MSTORE ADD MSTORE JUMP JUMPDEST SWAP1 PUSH1 0x40 MLOAD PUSH2 0x3E16 DUP2 PUSH2 0x38E6 JUMP JUMPDEST DUP1 SWAP3 DUP1 SLOAD DUP3 MSTORE PUSH1 0x1 DUP2 ADD SLOAD PUSH1 0x20 DUP4 ADD MSTORE PUSH1 0x1 DUP1 PUSH1 0xA0 SHL SUB PUSH1 0x2 DUP3 ADD SLOAD AND PUSH1 0x40 DUP4 ADD MSTORE PUSH1 0x40 MLOAD PUSH2 0x3E4C DUP2 PUSH2 0x9C3 DUP2 PUSH1 0x3 DUP7 ADD PUSH2 0x3850 JUMP JUMPDEST PUSH1 0x60 DUP4 ADD MSTORE PUSH1 0x40 MLOAD PUSH2 0x3E65 DUP2 PUSH2 0x9C3 DUP2 PUSH1 0x4 DUP7 ADD PUSH2 0x3850 JUMP JUMPDEST PUSH1 0x80 DUP4 ADD MSTORE PUSH1 0x40 MLOAD PUSH2 0x3E7E DUP2 PUSH2 0x9C3 DUP2 PUSH1 0x5 DUP7 ADD PUSH2 0x3850 JUMP JUMPDEST PUSH1 0xA0 DUP4 ADD MSTORE PUSH1 0x6 DUP2 ADD SLOAD PUSH1 0xC0 DUP4 ADD MSTORE PUSH1 0x7 DUP2 ADD SLOAD PUSH1 0xE0 DUP4 ADD MSTORE PUSH1 0x8 DUP2 ADD SLOAD PUSH2 0x100 DUP4 ADD MSTORE PUSH1 0x9 DUP2 ADD SLOAD PUSH2 0x120 DUP4 ADD MSTORE PUSH1 0xFF PUSH1 0xA DUP3 ADD SLOAD AND PUSH1 0x3 DUP2 LT ISZERO PUSH2 0x39C JUMPI PUSH2 0x160 SWAP2 PUSH1 0xB SWAP2 PUSH2 0x140 DUP6 ADD MSTORE ADD SLOAD SWAP2 ADD MSTORE JUMP JUMPDEST ISZERO PUSH2 0x3ED9 JUMPI JUMP JUMPDEST PUSH1 0x40 MLOAD PUSH3 0x461BCD PUSH1 0xE5 SHL DUP2 MSTORE PUSH1 0x20 PUSH1 0x4 DUP3 ADD MSTORE PUSH1 0x13 PUSH1 0x24 DUP3 ADD MSTORE PUSH19 0x50726F706F73616C206E6F7420616374697665 PUSH1 0x68 SHL PUSH1 0x44 DUP3 ADD MSTORE PUSH1 0x64 SWAP1 REVERT JUMPDEST ISZERO PUSH2 0x3F1B JUMPI JUMP JUMPDEST PUSH1 0x40 MLOAD PUSH3 0x461BCD PUSH1 0xE5 SHL DUP2 MSTORE PUSH1 0x20 PUSH1 0x4 DUP3 ADD MSTORE PUSH1 0x12 PUSH1 0x24 DUP3 ADD MSTORE PUSH18 0x159BDD1A5B99C81B9BDD081CDD185C9D1959 PUSH1 0x72 SHL PUSH1 0x44 DUP3 ADD MSTORE PUSH1 0x64 SWAP1 REVERT JUMPDEST ISZERO PUSH2 0x3F5C JUMPI JUMP JUMPDEST PUSH1 0x40 MLOAD PUSH3 0x461BCD PUSH1 0xE5 SHL DUP2 MSTORE PUSH1 0x20 PUSH1 0x4 DUP3 ADD MSTORE PUSH1 0xC PUSH1 0x24 DUP3 ADD MSTORE PUSH12 0x159BDD1A5B99C8195B991959 PUSH1 0xA2 SHL PUSH1 0x44 DUP3 ADD MSTORE PUSH1 0x64 SWAP1 REVERT JUMPDEST ISZERO PUSH2 0x3F97 JUMPI JUMP JUMPDEST PUSH1 0x40 MLOAD PUSH3 0x461BCD PUSH1 0xE5 SHL DUP2 MSTORE PUSH1 0x20 PUSH1 0x4 DUP3 ADD MSTORE PUSH1 0x11 PUSH1 0x24 DUP3 ADD MSTORE PUSH17 0x496E76616C696420766F74652074797065 PUSH1 0x78 SHL PUSH1 0x44 DUP3 ADD MSTORE PUSH1 0x64 SWAP1 REVERT JUMPDEST ISZERO PUSH2 0x3FD7 JUMPI JUMP JUMPDEST PUSH1 0x40 MLOAD PUSH3 0x461BCD PUSH1 0xE5 SHL DUP2 MSTORE PUSH1 0x20 PUSH1 0x4 DUP3 ADD MSTORE PUSH1 0xD PUSH1 0x24 DUP3 ADD MSTORE PUSH13 0x105B1C9958591E481D9BDD1959 PUSH1 0x9A SHL PUSH1 0x44 DUP3 ADD MSTORE PUSH1 0x64 SWAP1 REVERT JUMPDEST PUSH1 0x0 NOT DUP2 EQ PUSH2 0x737 JUMPI PUSH1 0x1 ADD SWAP1 JUMP JUMPDEST ISZERO PUSH2 0x4022 JUMPI JUMP JUMPDEST PUSH1 0x40 MLOAD PUSH3 0x461BCD PUSH1 0xE5 SHL DUP2 MSTORE PUSH1 0x20 PUSH1 0x4 DUP3 ADD MSTORE PUSH1 0xF PUSH1 0x24 DUP3 ADD MSTORE PUSH15 0x2737903B37BA34B733903837BBB2B9 PUSH1 0x89 SHL PUSH1 0x44 DUP3 ADD MSTORE PUSH1 0x64 SWAP1 REVERT JUMPDEST SWAP2 SWAP1 DUP3 ADD DUP1 SWAP3 GT PUSH2 0x737 JUMPI JUMP JUMPDEST SWAP1 PUSH1 0x1F DUP2 GT PUSH2 0x4074 JUMPI POP POP POP JUMP JUMPDEST PUSH1 0x0 SWAP2 PUSH1 0x0 MSTORE PUSH1 0x20 PUSH1 0x0 KECCAK256 SWAP1 PUSH1 0x20 PUSH1 0x1F DUP6 ADD PUSH1 0x5 SHR DUP4 ADD SWAP5 LT PUSH2 0x40B2 JUMPI JUMPDEST PUSH1 0x1F ADD PUSH1 0x5 SHR ADD SWAP2 JUMPDEST DUP3 DUP2 LT PUSH2 0x40A7 JUMPI POP POP POP JUMP JUMPDEST DUP2 DUP2 SSTORE PUSH1 0x1 ADD PUSH2 0x409B JUMP JUMPDEST SWAP1 SWAP3 POP DUP3 SWAP1 PUSH2 0x4092 JUMP JUMPDEST PUSH1 0x12 SLOAD DUP1 ISZERO PUSH2 0x41C2 JUMPI PUSH1 0x0 DUP1 JUMPDEST PUSH1 0x4 SWAP1 DUP2 DUP4 LT ISZERO PUSH2 0x419D JUMPI PUSH2 0x40DD DUP4 PUSH2 0x3975 JUMP JUMPDEST PUSH2 0x40E6 DUP4 PUSH2 0x3975 JUMP JUMPDEST DUP3 PUSH1 0x0 MSTORE PUSH1 0x10 PUSH1 0x20 MSTORE PUSH1 0x40 PUSH1 0x0 KECCAK256 SLOAD PUSH2 0x2710 SWAP1 DUP2 DUP2 MUL SWAP2 DUP2 DUP4 DIV EQ SWAP1 ISZERO OR ISZERO PUSH2 0x4188 JUMPI DUP5 PUSH2 0x4113 SWAP2 PUSH2 0x3CA8 JUMP JUMPDEST PUSH2 0x9C4 SWAP3 SWAP1 PUSH1 0x0 DUP5 DUP3 GT ISZERO PUSH2 0x4164 JUMPI POP PUSH2 0x9C3 NOT DUP2 ADD SWAP1 DUP2 GT PUSH2 0x414F JUMPI JUMPDEST DUP4 SUB SWAP3 DUP4 GT PUSH2 0x3D70 JUMPI POP PUSH1 0x1 SWAP2 PUSH2 0x4147 SWAP2 PUSH2 0x4059 JUMP JUMPDEST SWAP2 ADD SWAP1 PUSH2 0x40C9 JUMP JUMPDEST PUSH1 0x11 DUP3 PUSH4 0x4E487B71 PUSH1 0xE0 SHL PUSH1 0x0 MSTORE MSTORE PUSH1 0x24 PUSH1 0x0 REVERT JUMPDEST SWAP1 DUP5 SUB SWAP1 DUP5 DUP3 GT PUSH2 0x4175 JUMPI POP PUSH2 0x4131 JUMP JUMPDEST PUSH4 0x4E487B71 PUSH1 0xE0 SHL DUP2 MSTORE PUSH1 0x11 DUP4 MSTORE PUSH1 0x24 SWAP1 REVERT JUMPDEST PUSH1 0x11 DUP4 PUSH4 0x4E487B71 PUSH1 0xE0 SHL PUSH1 0x0 MSTORE MSTORE PUSH1 0x24 PUSH1 0x0 REVERT JUMPDEST SWAP3 POP POP POP PUSH1 0x1 SHR SWAP1 PUSH2 0x1388 DUP3 ADD DUP1 SWAP3 GT PUSH2 0x737 JUMPI PUSH2 0x2710 DUP1 DUP4 GT PUSH2 0x41BE JUMPI POP JUMP JUMPDEST SWAP2 POP JUMP JUMPDEST POP PUSH1 0x0 SWAP1 JUMP JUMPDEST ISZERO PUSH2 0x41CF JUMPI JUMP JUMPDEST PUSH1 0x40 MLOAD PUSH3 0x461BCD PUSH1 0xE5 SHL DUP2 MSTORE PUSH1 0x20 PUSH1 0x4 DUP3 ADD MSTORE PUSH1 0x2E PUSH1 0x24 DUP3 ADD MSTORE PUSH32 0x496D70616374207265706F727420726571756972656420666F722050726F7065 PUSH1 0x44 DUP3 ADD MSTORE PUSH14 0x1C9D1E51195D995B1BDC1B595B9D PUSH1 0x92 SHL PUSH1 0x64 DUP3 ADD MSTORE PUSH1 0x84 SWAP1 REVERT JUMPDEST ISZERO PUSH2 0x4232 JUMPI JUMP JUMPDEST PUSH1 0x40 MLOAD PUSH3 0x461BCD PUSH1 0xE5 SHL DUP2 MSTORE PUSH1 0x20 PUSH1 0x4 DUP3 ADD MSTORE PUSH1 0x2D PUSH1 0x24 DUP3 ADD MSTORE PUSH32 0x496D706163742073636F726520726571756972656420666F722050726F706572 PUSH1 0x44 DUP3 ADD MSTORE PUSH13 0x1D1E51195D995B1BDC1B595B9D PUSH1 0x9A SHL PUSH1 0x64 DUP3 ADD MSTORE PUSH1 0x84 SWAP1 REVERT JUMPDEST ISZERO PUSH2 0x4294 JUMPI JUMP JUMPDEST PUSH1 0x40 MLOAD PUSH3 0x461BCD PUSH1 0xE5 SHL DUP2 MSTORE PUSH1 0x20 PUSH1 0x4 DUP3 ADD MSTORE PUSH1 0x1A PUSH1 0x24 DUP3 ADD MSTORE PUSH32 0x496D706163742073636F7265206D75737420626520302D313030000000000000 PUSH1 0x44 DUP3 ADD MSTORE PUSH1 0x64 SWAP1 REVERT JUMPDEST ISZERO PUSH2 0x42E0 JUMPI JUMP JUMPDEST PUSH1 0x40 MLOAD PUSH3 0x461BCD PUSH1 0xE5 SHL DUP2 MSTORE PUSH1 0x20 PUSH1 0x4 DUP3 ADD MSTORE PUSH1 0x1B PUSH1 0x24 DUP3 ADD MSTORE PUSH32 0x4D75737420686F6C6420746F6B656E7320746F2070726F706F73650000000000 PUSH1 0x44 DUP3 ADD MSTORE PUSH1 0x64 SWAP1 REVERT JUMPDEST PUSH1 0x1 PUSH1 0x1 PUSH1 0x40 SHL SUB DUP2 GT PUSH2 0xEC4 JUMPI PUSH1 0x5 SHL PUSH1 0x20 ADD SWAP1 JUMP JUMPDEST PUSH1 0x40 MLOAD SWAP1 PUSH2 0x4349 DUP3 PUSH2 0x3902 JUMP JUMPDEST DUP2 PUSH2 0x200 PUSH1 0x0 SWAP2 DUP3 DUP2 MSTORE DUP3 PUSH1 0x20 DUP3 ADD MSTORE DUP3 PUSH1 0x40 DUP3 ADD MSTORE PUSH1 0x60 DUP4 DUP2 DUP4 ADD MSTORE DUP1 PUSH1 0x80 DUP4 ADD MSTORE DUP1 PUSH1 0xA0 DUP4 ADD MSTORE DUP1 PUSH1 0xC0 DUP4 ADD MSTORE DUP4 PUSH1 0xE0 DUP4 ADD MSTORE DUP4 PUSH2 0x100 DUP4 ADD MSTORE DUP4 PUSH2 0x120 DUP4 ADD MSTORE DUP4 PUSH2 0x140 DUP4 ADD MSTORE DUP4 PUSH2 0x160 DUP4 ADD MSTORE DUP4 PUSH2 0x180 DUP4 ADD MSTORE DUP4 PUSH2 0x1A0 DUP4 ADD MSTORE DUP1 PUSH2 0x1C0 DUP4 ADD MSTORE PUSH2 0x1E0 DUP3 ADD MSTORE ADD MSTORE JUMP JUMPDEST DUP1 MLOAD DUP3 LT ISZERO PUSH2 0x3CD9 JUMPI PUSH1 0x20 SWAP2 PUSH1 0x5 SHL ADD ADD SWAP1 JUMP JUMPDEST SWAP1 PUSH1 0x40 DUP1 MLOAD SWAP1 PUSH2 0x43DC DUP3 PUSH2 0x3902 JUMP JUMPDEST DUP4 SLOAD DUP3 MSTORE PUSH1 0x1 DUP5 ADD SLOAD PUSH1 0x20 DUP4 ADD MSTORE PUSH1 0x2 DUP5 ADD SLOAD PUSH1 0x1 PUSH1 0x1 PUSH1 0xA0 SHL SUB DUP2 AND DUP3 DUP5 ADD MSTORE SWAP2 SWAP4 DUP5 SWAP3 PUSH1 0xA0 SHR PUSH1 0xFF AND PUSH2 0x4410 DUP2 PUSH2 0x3975 JUMP JUMPDEST PUSH1 0x60 DUP5 ADD MSTORE DUP2 MLOAD PUSH2 0x4428 DUP2 PUSH2 0x9C3 DUP2 PUSH1 0x3 DUP7 ADD PUSH2 0x3850 JUMP JUMPDEST PUSH1 0x80 DUP5 ADD MSTORE DUP2 MLOAD PUSH2 0x4440 DUP2 PUSH2 0x9C3 DUP2 PUSH1 0x4 DUP7 ADD PUSH2 0x3850 JUMP JUMPDEST PUSH1 0xA0 DUP5 ADD MSTORE DUP2 MLOAD PUSH2 0x4458 DUP2 PUSH2 0x9C3 DUP2 PUSH1 0x5 DUP7 ADD PUSH2 0x3850 JUMP JUMPDEST PUSH1 0xC0 DUP5 ADD MSTORE PUSH1 0x6 DUP2 ADD SLOAD PUSH1 0xE0 DUP5 ADD MSTORE PUSH1 0x7 DUP2 ADD SLOAD PUSH2 0x100 DUP5 ADD MSTORE PUSH1 0x8 DUP2 ADD SLOAD PUSH2 0x120 DUP5 ADD MSTORE PUSH1 0x9 DUP2 ADD SLOAD PUSH2 0x140 DUP5 ADD MSTORE PUSH1 0xA DUP2 ADD SLOAD PUSH2 0x160 DUP5 ADD MSTORE PUSH1 0xB DUP2 ADD SLOAD PUSH2 0x180 DUP5 ADD MSTORE PUSH1 0xFF PUSH1 0xC DUP3 ADD SLOAD AND SWAP1 PUSH1 0x6 DUP3 LT ISZERO PUSH2 0x39C JUMPI PUSH2 0x200 SWAP3 PUSH1 0xF SWAP3 PUSH2 0x1A0 DUP7 ADD MSTORE DUP1 MLOAD PUSH2 0x44D0 DUP2 PUSH2 0x9C3 DUP2 PUSH1 0xD DUP8 ADD PUSH2 0x3850 JUMP JUMPDEST PUSH2 0x1C0 DUP7 ADD MSTORE MLOAD PUSH2 0x44E8 DUP2 PUSH2 0x9C3 DUP2 PUSH1 0xE DUP7 ADD PUSH2 0x3850 JUMP JUMPDEST PUSH2 0x1E0 DUP6 ADD MSTORE ADD SLOAD SWAP2 ADD MSTORE JUMP JUMPDEST PUSH1 0x0 MSTORE PUSH1 0xC PUSH1 0x20 MSTORE PUSH1 0x40 PUSH1 0x0 KECCAK256 PUSH2 0x4515 PUSH1 0x7 PUSH1 0x6 DUP4 ADD SLOAD SWAP3 ADD SLOAD DUP3 PUSH2 0x4059 JUMP JUMPDEST DUP1 ISZERO PUSH2 0x453B JUMPI PUSH2 0x2710 SWAP2 DUP3 DUP2 MUL SWAP3 DUP2 DUP5 DIV EQ SWAP1 ISZERO OR ISZERO PUSH2 0x737 JUMPI PUSH2 0x4538 SWAP2 PUSH2 0x3CA8 JUMP JUMPDEST SWAP1 JUMP JUMPDEST POP POP PUSH1 0x0 SWAP1 JUMP JUMPDEST ISZERO PUSH2 0x4549 JUMPI JUMP JUMPDEST PUSH1 0x40 MLOAD PUSH3 0x461BCD PUSH1 0xE5 SHL DUP2 MSTORE PUSH1 0x20 PUSH1 0x4 DUP3 ADD MSTORE PUSH1 0xF PUSH1 0x24 DUP3 ADD MSTORE PUSH15 0x506F6C6C206E6F7420616374697665 PUSH1 0x88 SHL PUSH1 0x44 DUP3 ADD MSTORE PUSH1 0x64 SWAP1 REVERT JUMPDEST PUSH1 0x1 DUP1 PUSH1 0xA0 SHL SUB AND PUSH1 0x0 MSTORE PUSH1 0xB PUSH1 0x20 MSTORE PUSH1 0x40 PUSH1 0x0 KECCAK256 SLOAD TIMESTAMP SUB TIMESTAMP DUP2 GT PUSH2 0x737 JUMPI PUSH3 0x278D00 LT ISZERO PUSH2 0x45AE JUMPI PUSH1 0x0 SWAP1 JUMP JUMPDEST PUSH1 0x5 SLOAD SWAP1 JUMP JUMPDEST CALLER PUSH1 0x0 SWAP1 DUP2 MSTORE PUSH32 0xAD3228B676F7D3CD4284A5443F17F1962B36E491B30A40B2405849E597BA5FB5 PUSH1 0x20 MSTORE PUSH1 0x40 DUP2 KECCAK256 SLOAD PUSH1 0xFF AND ISZERO PUSH2 0x333B JUMPI POP JUMP JUMPDEST CALLER PUSH1 0x0 SWAP1 DUP2 MSTORE PUSH32 0x3412D5605AC6CD444957CEDB533E5DACAD6378B4BC819EBE3652188A665066D5 PUSH1 0x20 MSTORE PUSH1 0x40 SWAP1 KECCAK256 SLOAD PUSH32 0xB09AA5AEB3702CFD50B6B62BC4532604938F21248A27A1D5CA736082B6819CC1 SWAP1 PUSH1 0xFF AND ISZERO PUSH2 0x333B JUMPI POP JUMP JUMPDEST DUP1 PUSH1 0x0 MSTORE PUSH1 0x0 PUSH1 0x20 MSTORE PUSH1 0x40 PUSH1 0x0 KECCAK256 CALLER PUSH1 0x0 MSTORE PUSH1 0x20 MSTORE PUSH1 0xFF PUSH1 0x40 PUSH1 0x0 KECCAK256 SLOAD AND ISZERO PUSH2 0x333B JUMPI POP JUMP JUMPDEST PUSH1 0x2 PUSH1 0x1 SLOAD EQ PUSH2 0x4681 JUMPI PUSH1 0x2 PUSH1 0x1 SSTORE JUMP JUMPDEST PUSH1 0x40 MLOAD PUSH4 0x3EE5AEB5 PUSH1 0xE0 SHL DUP2 MSTORE PUSH1 0x4 SWAP1 REVERT JUMPDEST SWAP2 SWAP1 SWAP2 PUSH2 0x469F DUP2 PUSH2 0x3975 JUMP JUMPDEST PUSH1 0x0 SWAP3 DUP2 DUP5 MSTORE PUSH1 0x20 SWAP4 PUSH1 0x10 DUP6 MSTORE PUSH2 0x46CA PUSH1 0x40 SWAP3 DUP4 DUP4 KECCAK256 PUSH2 0x46C0 DUP3 DUP3 SLOAD PUSH2 0x4059 JUMP JUMPDEST SWAP1 SSTORE PUSH1 0x12 SLOAD PUSH2 0x4059 JUMP JUMPDEST SWAP5 DUP6 PUSH1 0x12 SSTORE DUP6 PUSH2 0x4737 JUMPI JUMPDEST DUP4 SWAP5 SWAP6 POP PUSH2 0x4703 PUSH32 0xF5C781C3E6E5F46E3229C8B1E6E98F96D8A2FE20AA04BAF40E0FBA44A06D5F1 SWAP5 PUSH2 0x3975 JUMP JUMPDEST DUP5 DUP3 MSTORE PUSH1 0x10 DUP2 MSTORE DUP3 DUP1 DUP4 KECCAK256 SLOAD SWAP3 PUSH2 0x4719 DUP8 PUSH2 0x3975 JUMP JUMPDEST DUP7 DUP2 MSTORE PUSH1 0x11 DUP4 MSTORE KECCAK256 SLOAD SWAP1 PUSH2 0x472C DUP7 PUSH2 0x3975 JUMP JUMPDEST DUP4 MLOAD SWAP3 DUP4 MSTORE DUP3 ADD MSTORE LOG2 JUMP JUMPDEST PUSH2 0x4740 DUP5 PUSH2 0x3975 JUMP JUMPDEST DUP4 DUP3 MSTORE PUSH1 0x10 DUP2 MSTORE DUP3 DUP3 KECCAK256 SLOAD PUSH2 0x2710 SWAP1 DUP2 DUP2 MUL SWAP2 DUP2 DUP4 DIV EQ SWAP1 ISZERO OR ISZERO PUSH2 0x47A9 JUMPI PUSH32 0xF5C781C3E6E5F46E3229C8B1E6E98F96D8A2FE20AA04BAF40E0FBA44A06D5F1 SWAP5 SWAP6 SWAP7 PUSH2 0x478C SWAP2 PUSH2 0x3CA8 JUMP JUMPDEST PUSH2 0x4795 DUP7 PUSH2 0x3975 JUMP JUMPDEST DUP6 DUP4 MSTORE PUSH1 0x11 DUP3 MSTORE DUP4 DUP4 KECCAK256 SSTORE DUP6 SWAP5 SWAP4 POP PUSH2 0x46D5 JUMP JUMPDEST PUSH4 0x4E487B71 PUSH1 0xE0 SHL DUP4 MSTORE PUSH1 0x11 PUSH1 0x4 MSTORE PUSH1 0x24 DUP4 REVERT JUMPDEST SWAP1 PUSH1 0x0 SWAP2 DUP1 DUP4 MSTORE DUP3 PUSH1 0x20 MSTORE PUSH1 0x40 DUP4 KECCAK256 SWAP2 PUSH1 0x1 DUP1 PUSH1 0xA0 SHL SUB AND SWAP2 DUP3 DUP5 MSTORE PUSH1 0x20 MSTORE PUSH1 0xFF PUSH1 0x40 DUP5 KECCAK256 SLOAD AND ISZERO PUSH1 0x0 EQ PUSH2 0x4836 JUMPI DUP1 DUP4 MSTORE DUP3 PUSH1 0x20 MSTORE PUSH1 0x40 DUP4 KECCAK256 DUP3 DUP5 MSTORE PUSH1 0x20 MSTORE PUSH1 0x40 DUP4 KECCAK256 PUSH1 0x1 PUSH1 0xFF NOT DUP3 SLOAD AND OR SWAP1 SSTORE PUSH32 0x2F8788117E7EFF1D82E926EC794901D17C78024A50270940304540A733656F0D CALLER SWAP4 DUP1 LOG4 PUSH1 0x1 SWAP1 JUMP JUMPDEST POP POP SWAP1 JUMP JUMPDEST SWAP1 PUSH1 0x0 SWAP2 DUP1 DUP4 MSTORE DUP3 PUSH1 0x20 MSTORE PUSH1 0x40 DUP4 KECCAK256 SWAP2 PUSH1 0x1 DUP1 PUSH1 0xA0 SHL SUB AND SWAP2 DUP3 DUP5 MSTORE PUSH1 0x20 MSTORE PUSH1 0xFF PUSH1 0x40 DUP5 KECCAK256 SLOAD AND PUSH1 0x0 EQ PUSH2 0x4836 JUMPI DUP1 DUP4 MSTORE DUP3 PUSH1 0x20 MSTORE PUSH1 0x40 DUP4 KECCAK256 DUP3 DUP5 MSTORE PUSH1 0x20 MSTORE PUSH1 0x40 DUP4 KECCAK256 PUSH1 0xFF NOT DUP2 SLOAD AND SWAP1 SSTORE PUSH32 0xF6391F5C32D9C69D2A47EA670B442974B53935D1EDC7FD64EB21E047A839171B CALLER SWAP4 DUP1 LOG4 PUSH1 0x1 SWAP1 JUMP JUMPDEST PUSH2 0x48B9 DUP2 PUSH2 0x3975 JUMP JUMPDEST DUP1 PUSH2 0x491C JUMPI PUSH2 0x7D0 SWAP1 JUMPDEST PUSH2 0x48CC DUP2 PUSH2 0x3975 JUMP JUMPDEST PUSH1 0x0 MSTORE PUSH1 0x11 PUSH1 0x20 MSTORE PUSH2 0x1388 PUSH1 0x40 PUSH1 0x0 KECCAK256 SLOAD LT ISZERO PUSH2 0x48E6 JUMPI SWAP1 JUMP JUMPDEST PUSH2 0x1F4 DUP2 GT ISZERO PUSH2 0x4913 JUMPI PUSH2 0x1F3 NOT DUP2 ADD SWAP1 DUP2 GT PUSH2 0x737 JUMPI JUMPDEST PUSH2 0x3E8 SWAP1 DUP2 DUP2 LT ISZERO PUSH2 0x490E JUMPI POP SWAP1 JUMP JUMPDEST SWAP1 POP SWAP1 JUMP JUMPDEST POP PUSH2 0x3E8 PUSH2 0x48FE JUMP JUMPDEST PUSH2 0x4925 DUP2 PUSH2 0x3975 JUMP JUMPDEST PUSH1 0x1 DUP2 SUB PUSH2 0x4936 JUMPI PUSH2 0xBB8 SWAP1 PUSH2 0x48C3 JUMP JUMPDEST PUSH2 0x493F DUP2 PUSH2 0x3975 JUMP JUMPDEST PUSH1 0x2 DUP2 SUB PUSH2 0x4950 JUMPI PUSH2 0x9C4 SWAP1 PUSH2 0x48C3 JUMP JUMPDEST PUSH2 0x1388 SWAP1 PUSH2 0x48C3 JUMP JUMPDEST SWAP2 SWAP1 PUSH32 0x7FFFFFFFFFFFFFFFFFFFFFFFFFFFFFFF5D576E7357A4501DDFE92F46681B20A0 DUP5 GT PUSH2 0x49DD JUMPI SWAP3 PUSH1 0x20 SWAP3 SWAP2 PUSH1 0xFF PUSH1 0x80 SWAP6 PUSH1 0x40 MLOAD SWAP5 DUP6 MSTORE AND DUP5 DUP5 ADD MSTORE PUSH1 0x40 DUP4 ADD MSTORE PUSH1 0x60 DUP3 ADD MSTORE PUSH1 0x0 SWAP3 DUP4 SWAP2 DUP3 DUP1 MSTORE PUSH1 0x1 GAS STATICCALL ISZERO PUSH2 0x49D1 JUMPI DUP1 MLOAD PUSH1 0x1 PUSH1 0x1 PUSH1 0xA0 SHL SUB DUP2 AND ISZERO PUSH2 0x49C8 JUMPI SWAP2 DUP2 SWAP1 JUMP JUMPDEST POP DUP1 SWAP2 PUSH1 0x1 SWAP2 SWAP1 JUMP JUMPDEST PUSH1 0x40 MLOAD SWAP1 RETURNDATASIZE SWAP1 DUP3 RETURNDATACOPY RETURNDATASIZE SWAP1 REVERT JUMPDEST POP POP POP PUSH1 0x0 SWAP2 PUSH1 0x3 SWAP2 SWAP1 JUMP JUMPDEST PUSH2 0x49F2 DUP2 PUSH2 0x3975 JUMP JUMPDEST DUP1 PUSH2 0x49FB JUMPI POP POP JUMP JUMPDEST PUSH2 0x4A04 DUP2 PUSH2 0x3975 JUMP JUMPDEST PUSH1 0x1 DUP2 SUB PUSH2 0x4A1E JUMPI PUSH1 0x40 MLOAD PUSH4 0xF645EEDF PUSH1 0xE0 SHL DUP2 MSTORE PUSH1 0x4 SWAP1 REVERT JUMPDEST PUSH2 0x4A27 DUP2 PUSH2 0x3975 JUMP JUMPDEST PUSH1 0x2 DUP2 SUB PUSH2 0x4A48 JUMPI PUSH1 0x40 MLOAD PUSH4 0xFCE698F7 PUSH1 0xE0 SHL DUP2 MSTORE PUSH1 0x4 DUP2 ADD DUP4 SWAP1 MSTORE PUSH1 0x24 SWAP1 REVERT JUMPDEST DUP1 PUSH2 0x4A54 PUSH1 0x3 SWAP3 PUSH2 0x3975 JUMP JUMPDEST EQ PUSH2 0x4A5C JUMPI POP JUMP JUMPDEST PUSH1 0x24 SWAP1 PUSH1 0x40 MLOAD SWAP1 PUSH4 0x35E2F383 PUSH1 0xE2 SHL DUP3 MSTORE PUSH1 0x4 DUP3 ADD MSTORE REVERT INVALID 0xB1 0xD5 PUSH10 0xDC5621A0A51229B7AC0E SELFDESTRUCT DUP2 RETURN 0xE6 0xDF PUSH17 0xA3F72FE608AA58F74BB69D7BB6A2646970 PUSH7 0x73582212208A4D 0xB9 PUSH20 0xEB5836BC2A134B6EA0B165E7D981BC63A2AB2561 0xD9 STATICCALL 0xF7 STOP 0x4B ADDMOD DUP7 GASLIMIT PUSH5 0x736F6C6343 STOP ADDMOD XOR STOP CALLER 0x2F DUP8 DUP9 GT PUSH31 0x7EFF1D82E926EC794901D17C78024A50270940304540A733656F0D00000000 "},"methodIdentifiers":{"DEFAULT_ADMIN_ROLE()":"a217fddf","DEMAND_QUORUM_BOOST()":"eac3a6bd","DEMAND_QUORUM_BOOST_THRESHOLD()":"252f57d7","DOMAIN_SEPARATOR()":"3644e515","EXECUTOR_ROLE()":"07bd0265","POLL_PROPOSAL_THRESHOLD()":"808c4479","POLL_QUORUM_BONUS()":"3d8803e2","PROPOSER_ROLE()":"8f61f4f5","QUORUM_EMERGENCY()":"5394c879","QUORUM_PARAMETER()":"248bd471","QUORUM_PROPERTY()":"b277d02a","QUORUM_TREASURY()":"42a7c614","RELAYER_ROLE()":"926d7d7f","VOTE_TYPEHASH()":"86522973","cancelProposal(uint256)":"e0a8f6f5","castVote(uint256,uint8)":"56781388","castVoteBySignature(uint256,uint8,address,uint256,uint8,bytes32,bytes32)":"2dcf0d73","createPoll(uint256,string,string,string,uint256)":"364478e2","createProposal(uint256,uint8,string,string,string,bytes,string,uint256)":"5100084c","createProposalFromPoll(uint256,uint8,bytes,string,uint256)":"c6366adf","demandSnapshots(uint8)":"19546f1a","endPoll(uint256)":"f43b8778","executeProposal(uint256)":"0d61b519","finalizeProposal(uint256)":"5652077c","getActivePolls(uint256)":"63f0c7ff","getActiveProposals(uint256)":"6213e5ea","getCommunityHealthScore()":"49672b70","getDemandBars()":"0af4da41","getDemandForType(uint8)":"cae35ba0","getEffectiveQuorum(uint8)":"bcd77a24","getImpactReport(uint256)":"95094544","getNonce(address)":"2d0335ab","getPoll(uint256)":"1a8cbcaa","getPollSupport(uint256)":"9c4e99ca","getProposal(uint256)":"c7f758a8","getRoleAdmin(bytes32)":"248a9ca3","getVote(uint256,address)":"bc3f931f","getVoteToEarnBonus(address)":"ecc52c04","grantRole(bytes32,address)":"2f2ff15d","hasRole(bytes32,address)":"91d14854","lastVoteTimestamp(address)":"de1cf4ad","nonces(address)":"7ecebe00","pollCount()":"9207891d","pollParticipants(uint256)":"c3b028e2","pollVotes(uint256,address)":"637e54ac","polls(uint256)":"ac2f0074","propertyToken()":"43ae2695","proposalCount()":"da35c664","proposals(uint256)":"013cf08b","renounceRole(bytes32,address)":"36568abe","revokeRole(bytes32,address)":"d547741f","setVoteToEarnBonus(uint256)":"872d1544","setVotingPeriod(uint256)":"ea0217cf","supportsInterface(bytes4)":"01ffc9a7","takeDemandSnapshot()":"33b5e38e","totalDemandWeight()":"514c3d56","totalVotingPower(uint256)":"536f9f42","typeDemandWeights(uint8)":"0e6c151c","votePoll(uint256,bool)":"9d79a9eb","voteToEarnBonus()":"dd9deb1b","voterParticipationCount(address)":"5c7b264d","votes(uint256,address)":"d23254b4","votingPeriod()":"02a251a3"}}}}}