{"contracts/Treasury.sol":{"Treasury":{"abi":[{"inputs":[{"internalType":"address","name":"_founderWallet","type":"address"}],"stateMutability":"nonpayable","type":"constructor"},{"inputs":[],"name":"AccessControlBadConfirmation","type":"error"},{"inputs":[{"internalType":"address","name":"account","type":"address"},{"internalType":"bytes32","name":"neededRole","type":"bytes32"}],"name":"AccessControlUnauthorizedAccount","type":"error"},{"inputs":[],"name":"ReentrancyGuardReentrantCall","type":"error"},{"anonymous":false,"inputs":[{"indexed":true,"internalType":"address","name":"oldOracle","type":"address"},{"indexed":true,"internalType":"address","name":"newOracle","type":"address"}],"name":"ChainlinkOracleUpdated","type":"event"},{"anonymous":false,"inputs":[{"indexed":true,"internalType":"address","name":"target","type":"address"},{"indexed":false,"internalType":"uint256","name":"value","type":"uint256"},{"indexed":false,"internalType":"bytes","name":"data","type":"bytes"}],"name":"Executed","type":"event"},{"anonymous":false,"inputs":[{"indexed":true,"internalType":"address","name":"founder","type":"address"},{"indexed":false,"internalType":"uint256","name":"amount","type":"uint256"}],"name":"FounderCutSent","type":"event"},{"anonymous":false,"inputs":[{"indexed":true,"internalType":"uint256","name":"proposalId","type":"uint256"},{"indexed":false,"internalType":"uint256","name":"impactScore","type":"uint256"}],"name":"FounderCutZeroedByImpact","type":"event"},{"anonymous":false,"inputs":[{"indexed":true,"internalType":"address","name":"oldWallet","type":"address"},{"indexed":true,"internalType":"address","name":"newWallet","type":"address"}],"name":"FounderWalletUpdated","type":"event"},{"anonymous":false,"inputs":[{"indexed":true,"internalType":"address","name":"oldGovernance","type":"address"},{"indexed":true,"internalType":"address","name":"newGovernance","type":"address"}],"name":"GovernanceContractUpdated","type":"event"},{"anonymous":false,"inputs":[{"indexed":false,"internalType":"uint256","name":"oldMax","type":"uint256"},{"indexed":false,"internalType":"uint256","name":"newMax","type":"uint256"}],"name":"MaxReimbursementUpdated","type":"event"},{"anonymous":false,"inputs":[{"indexed":false,"internalType":"uint256","name":"amount","type":"uint256"},{"indexed":false,"internalType":"uint256","name":"newTotal","type":"uint256"}],"name":"ReimbursementPoolFunded","type":"event"},{"anonymous":false,"inputs":[{"indexed":true,"internalType":"address","name":"relayer","type":"address"},{"indexed":false,"internalType":"uint256","name":"amount","type":"uint256"},{"indexed":false,"internalType":"uint256","name":"poolRemaining","type":"uint256"}],"name":"RelayerReimbursed","type":"event"},{"anonymous":false,"inputs":[{"indexed":false,"internalType":"uint256","name":"oldRequired","type":"uint256"},{"indexed":false,"internalType":"uint256","name":"newRequired","type":"uint256"}],"name":"RequiredConfirmationsUpdated","type":"event"},{"anonymous":false,"inputs":[{"indexed":true,"internalType":"uint256","name":"propertyId","type":"uint256"},{"indexed":false,"internalType":"uint256","name":"reserves","type":"uint256"}],"name":"ReservesVerified","type":"event"},{"anonymous":false,"inputs":[{"indexed":true,"internalType":"bytes32","name":"role","type":"bytes32"},{"indexed":true,"internalType":"bytes32","name":"previousAdminRole","type":"bytes32"},{"indexed":true,"internalType":"bytes32","name":"newAdminRole","type":"bytes32"}],"name":"RoleAdminChanged","type":"event"},{"anonymous":false,"inputs":[{"indexed":true,"internalType":"bytes32","name":"role","type":"bytes32"},{"indexed":true,"internalType":"address","name":"account","type":"address"},{"indexed":true,"internalType":"address","name":"sender","type":"address"}],"name":"RoleGranted","type":"event"},{"anonymous":false,"inputs":[{"indexed":true,"internalType":"bytes32","name":"role","type":"bytes32"},{"indexed":true,"internalType":"address","name":"account","type":"address"},{"indexed":true,"internalType":"address","name":"sender","type":"address"}],"name":"RoleRevoked","type":"event"},{"anonymous":false,"inputs":[{"indexed":true,"internalType":"address","name":"signer","type":"address"}],"name":"SignerAdded","type":"event"},{"anonymous":false,"inputs":[{"indexed":true,"internalType":"address","name":"signer","type":"address"}],"name":"SignerRemoved","type":"event"},{"anonymous":false,"inputs":[{"indexed":true,"internalType":"uint256","name":"txId","type":"uint256"},{"indexed":true,"internalType":"address","name":"signer","type":"address"}],"name":"TransactionConfirmed","type":"event"},{"anonymous":false,"inputs":[{"indexed":true,"internalType":"uint256","name":"txId","type":"uint256"}],"name":"TransactionExecuted","type":"event"},{"anonymous":false,"inputs":[{"indexed":true,"internalType":"uint256","name":"txId","type":"uint256"},{"indexed":true,"internalType":"address","name":"signer","type":"address"}],"name":"TransactionRevoked","type":"event"},{"anonymous":false,"inputs":[{"indexed":true,"internalType":"uint256","name":"txId","type":"uint256"},{"indexed":true,"internalType":"address","name":"submitter","type":"address"},{"indexed":false,"internalType":"address","name":"target","type":"address"},{"indexed":false,"internalType":"uint256","name":"value","type":"uint256"}],"name":"TransactionSubmitted","type":"event"},{"anonymous":false,"inputs":[{"indexed":true,"internalType":"address","name":"founder","type":"address"},{"indexed":false,"internalType":"uint256","name":"amount","type":"uint256"},{"indexed":false,"internalType":"uint256","name":"totalVested","type":"uint256"}],"name":"VestedCutAccrued","type":"event"},{"anonymous":false,"inputs":[{"indexed":true,"internalType":"address","name":"founder","type":"address"},{"indexed":false,"internalType":"uint256","name":"amount","type":"uint256"},{"indexed":false,"internalType":"uint256","name":"remaining","type":"uint256"}],"name":"VestedCutClaimed","type":"event"},{"inputs":[],"name":"DEFAULT_ADMIN_ROLE","outputs":[{"internalType":"bytes32","name":"","type":"bytes32"}],"stateMutability":"view","type":"function"},{"inputs":[],"name":"EXECUTOR_ROLE","outputs":[{"internalType":"bytes32","name":"","type":"bytes32"}],"stateMutability":"view","type":"function"},{"inputs":[],"name":"FOUNDER_CUT_BPS","outputs":[{"internalType":"uint256","name":"","type":"uint256"}],"stateMutability":"view","type":"function"},{"inputs":[],"name":"SIGNER_ROLE","outputs":[{"internalType":"bytes32","name":"","type":"bytes32"}],"stateMutability":"view","type":"function"},{"inputs":[],"name":"VESTING_CLIFF","outputs":[{"internalType":"uint256","name":"","type":"uint256"}],"stateMutability":"view","type":"function"},{"inputs":[],"name":"VESTING_PERIOD","outputs":[{"internalType":"uint256","name":"","type":"uint256"}],"stateMutability":"view","type":"function"},{"inputs":[{"internalType":"address","name":"signer","type":"address"}],"name":"addSigner","outputs":[],"stateMutability":"nonpayable","type":"function"},{"inputs":[],"name":"chainlinkOracle","outputs":[{"internalType":"address","name":"","type":"address"}],"stateMutability":"view","type":"function"},{"inputs":[],"name":"claimVestedCuts","outputs":[],"stateMutability":"nonpayable","type":"function"},{"inputs":[{"internalType":"address","name":"","type":"address"}],"name":"claimedCuts","outputs":[{"internalType":"uint256","name":"","type":"uint256"}],"stateMutability":"view","type":"function"},{"inputs":[{"internalType":"uint256","name":"txId","type":"uint256"}],"name":"confirmTransaction","outputs":[],"stateMutability":"nonpayable","type":"function"},{"inputs":[{"internalType":"uint256","name":"","type":"uint256"},{"internalType":"address","name":"","type":"address"}],"name":"confirmations","outputs":[{"internalType":"bool","name":"","type":"bool"}],"stateMutability":"view","type":"function"},{"inputs":[{"internalType":"address","name":"target","type":"address"},{"internalType":"uint256","name":"value","type":"uint256"},{"internalType":"bytes","name":"data","type":"bytes"},{"internalType":"uint256","name":"proposalId","type":"uint256"}],"name":"execute","outputs":[{"internalType":"bytes","name":"","type":"bytes"}],"stateMutability":"nonpayable","type":"function"},{"inputs":[{"internalType":"uint256","name":"txId","type":"uint256"}],"name":"executeTransaction","outputs":[{"internalType":"bytes","name":"","type":"bytes"}],"stateMutability":"nonpayable","type":"function"},{"inputs":[],"name":"founderWallet","outputs":[{"internalType":"address","name":"","type":"address"}],"stateMutability":"view","type":"function"},{"inputs":[],"name":"fundReimbursementPool","outputs":[],"stateMutability":"payable","type":"function"},{"inputs":[],"name":"getBalance","outputs":[{"internalType":"uint256","name":"","type":"uint256"}],"stateMutability":"view","type":"function"},{"inputs":[{"internalType":"address","name":"founder","type":"address"}],"name":"getClaimableVested","outputs":[{"internalType":"uint256","name":"","type":"uint256"}],"stateMutability":"view","type":"function"},{"inputs":[],"name":"getReimbursementPoolInfo","outputs":[{"internalType":"uint256","name":"poolBalance","type":"uint256"},{"internalType":"uint256","name":"maxPerTx","type":"uint256"}],"stateMutability":"view","type":"function"},{"inputs":[{"internalType":"bytes32","name":"role","type":"bytes32"}],"name":"getRoleAdmin","outputs":[{"internalType":"bytes32","name":"","type":"bytes32"}],"stateMutability":"view","type":"function"},{"inputs":[{"internalType":"uint256","name":"txId","type":"uint256"}],"name":"getTransaction","outputs":[{"internalType":"address","name":"target","type":"address"},{"internalType":"uint256","name":"value","type":"uint256"},{"internalType":"bytes","name":"data","type":"bytes"},{"internalType":"bool","name":"executed","type":"bool"},{"internalType":"uint256","name":"confirmationCount","type":"uint256"}],"stateMutability":"view","type":"function"},{"inputs":[{"internalType":"address","name":"founder","type":"address"}],"name":"getVestingInfo","outputs":[{"internalType":"uint256","name":"totalVested","type":"uint256"},{"internalType":"uint256","name":"claimed","type":"uint256"},{"internalType":"uint256","name":"claimable","type":"uint256"},{"internalType":"uint256","name":"vestingStartTime","type":"uint256"},{"internalType":"uint256","name":"vestingEndTime","type":"uint256"}],"stateMutability":"view","type":"function"},{"inputs":[],"name":"governanceContract","outputs":[{"internalType":"address","name":"","type":"address"}],"stateMutability":"view","type":"function"},{"inputs":[{"internalType":"bytes32","name":"role","type":"bytes32"},{"internalType":"address","name":"account","type":"address"}],"name":"grantRole","outputs":[],"stateMutability":"nonpayable","type":"function"},{"inputs":[{"internalType":"bytes32","name":"role","type":"bytes32"},{"internalType":"address","name":"account","type":"address"}],"name":"hasRole","outputs":[{"internalType":"bool","name":"","type":"bool"}],"stateMutability":"view","type":"function"},{"inputs":[{"internalType":"uint256","name":"txId","type":"uint256"},{"internalType":"address","name":"signer","type":"address"}],"name":"isConfirmed","outputs":[{"internalType":"bool","name":"","type":"bool"}],"stateMutability":"view","type":"function"},{"inputs":[],"name":"maxReimbursementPerTx","outputs":[{"internalType":"uint256","name":"","type":"uint256"}],"stateMutability":"view","type":"function"},{"inputs":[{"internalType":"address","name":"relayer","type":"address"},{"internalType":"uint256","name":"gasUsed","type":"uint256"}],"name":"reimburseRelayer","outputs":[],"stateMutability":"nonpayable","type":"function"},{"inputs":[],"name":"relayerReimbursementPool","outputs":[{"internalType":"uint256","name":"","type":"uint256"}],"stateMutability":"view","type":"function"},{"inputs":[{"internalType":"address","name":"","type":"address"}],"name":"relayerReimbursements","outputs":[{"internalType":"uint256","name":"","type":"uint256"}],"stateMutability":"view","type":"function"},{"inputs":[{"internalType":"address","name":"signer","type":"address"}],"name":"removeSigner","outputs":[],"stateMutability":"nonpayable","type":"function"},{"inputs":[{"internalType":"bytes32","name":"role","type":"bytes32"},{"internalType":"address","name":"callerConfirmation","type":"address"}],"name":"renounceRole","outputs":[],"stateMutability":"nonpayable","type":"function"},{"inputs":[],"name":"requiredConfirmations","outputs":[{"internalType":"uint256","name":"","type":"uint256"}],"stateMutability":"view","type":"function"},{"inputs":[{"internalType":"uint256","name":"txId","type":"uint256"}],"name":"revokeConfirmation","outputs":[],"stateMutability":"nonpayable","type":"function"},{"inputs":[{"internalType":"bytes32","name":"role","type":"bytes32"},{"internalType":"address","name":"account","type":"address"}],"name":"revokeRole","outputs":[],"stateMutability":"nonpayable","type":"function"},{"inputs":[{"internalType":"address","name":"_chainlinkOracle","type":"address"}],"name":"setChainlinkOracle","outputs":[],"stateMutability":"nonpayable","type":"function"},{"inputs":[{"internalType":"address","name":"_governance","type":"address"}],"name":"setGovernance","outputs":[],"stateMutability":"nonpayable","type":"function"},{"inputs":[{"internalType":"uint256","name":"newMax","type":"uint256"}],"name":"setMaxReimbursement","outputs":[],"stateMutability":"nonpayable","type":"function"},{"inputs":[{"internalType":"uint256","name":"_requiredConfirmations","type":"uint256"}],"name":"setRequiredConfirmations","outputs":[],"stateMutability":"nonpayable","type":"function"},{"inputs":[{"internalType":"address","name":"target","type":"address"},{"internalType":"uint256","name":"value","type":"uint256"},{"internalType":"bytes","name":"data","type":"bytes"}],"name":"submitTransaction","outputs":[{"internalType":"uint256","name":"","type":"uint256"}],"stateMutability":"nonpayable","type":"function"},{"inputs":[{"internalType":"bytes4","name":"interfaceId","type":"bytes4"}],"name":"supportsInterface","outputs":[{"internalType":"bool","name":"","type":"bool"}],"stateMutability":"view","type":"function"},{"inputs":[],"name":"transactionCount","outputs":[{"internalType":"uint256","name":"","type":"uint256"}],"stateMutability":"view","type":"function"},{"inputs":[{"internalType":"uint256","name":"","type":"uint256"}],"name":"transactions","outputs":[{"internalType":"address","name":"target","type":"address"},{"internalType":"uint256","name":"value","type":"uint256"},{"internalType":"bytes","name":"data","type":"bytes"},{"internalType":"bool","name":"executed","type":"bool"},{"internalType":"uint256","name":"confirmationCount","type":"uint256"}],"stateMutability":"view","type":"function"},{"inputs":[{"internalType":"address","name":"_newFounderWallet","type":"address"}],"name":"updateFounderWallet","outputs":[],"stateMutability":"nonpayable","type":"function"},{"inputs":[{"internalType":"uint256","name":"propertyId","type":"uint256"}],"name":"verifyAndRecordReserves","outputs":[{"internalType":"uint256","name":"","type":"uint256"}],"stateMutability":"nonpayable","type":"function"},{"inputs":[{"internalType":"uint256","name":"propertyId","type":"uint256"}],"name":"verifyReserves","outputs":[{"internalType":"uint256","name":"","type":"uint256"}],"stateMutability":"view","type":"function"},{"inputs":[{"internalType":"address","name":"","type":"address"}],"name":"vestedCuts","outputs":[{"internalType":"uint256","name":"","type":"uint256"}],"stateMutability":"view","type":"function"},{"inputs":[{"internalType":"address","name":"","type":"address"}],"name":"vestingStart","outputs":[{"internalType":"uint256","name":"","type":"uint256"}],"stateMutability":"view","type":"function"},{"inputs":[{"internalType":"uint256","name":"amount","type":"uint256"}],"name":"withdraw","outputs":[],"stateMutability":"nonpayable","type":"function"},{"stateMutability":"payable","type":"receive"}],"evm":{"bytecode":{"linkReferences":{},"object":"608034620000f257601f620027ac38819003918201601f19168301916001600160401b03831184841017620000f757808492602094604052833981010312620000f257516001600160a01b03811690819003620000f257600180556002600555662386f26fc10000600b558015620000ad576200007c336200010d565b5062000088336200018d565b50600280546001600160a01b03191691909117905560405161255c9081620002308239f35b60405162461bcd60e51b815260206004820152601660248201527f496e76616c696420666f756e6465722077616c6c6574000000000000000000006044820152606490fd5b600080fd5b634e487b7160e01b600052604160045260246000fd5b6001600160a01b031660008181527fad3228b676f7d3cd4284a5443f17f1962b36e491b30a40b2405849e597ba5fb5602052604081205490919060ff166200018957818052816020526040822081835260205260408220600160ff1982541617905533916000805160206200278c8339815191528180a4600190565b5090565b6001600160a01b031660008181527f059f08e7d7ba1c82eddc57afae67f80df851baf38a099607a779825038c3ce5b60205260408120549091907fe2f4eaae4a9751e85a3e4a7b9587827a877f29914755229b07a7b2da98285f709060ff166200022a57808352826020526040832082845260205260408320600160ff198254161790556000805160206200278c833981519152339380a4600190565b50509056fe608080604052600436101561001d575b50361561001b57600080fd5b005b60003560e01c9081630197d97214611d355750806301ffc9a714611cdf578063032bbf4f14611ca55780630363c8fb14611b2657806307bd026514611aeb5780630e316ab714611a9057806312065fe014611a7457806320ea8d8614611970578063248a9ca3146119415780632e1a7d4d146118865780632f2ff15d1461184757806333ea3dc8146117dd5780633411c81c1461114057806336568abe146117965780634d2478891461177857806363f3dbe51461175a5780636ab3818e1461170d57806373522681146116e257806374420f4c1461142e5780637a9b0412146113805780637aab1381146113465780637b7c343d1461123b5780637f307ff71461118d57806380f59a651461114057806382e717f7146111225780638f28544c1461110657806391d14854146110b95780639ace38c21461104f578063a1ebf35d14611026578063a217fddf1461100a578063a23d3c3514610fe1578063a5574d5214610f49578063a64c113814610f0f578063ab033ea914610e5a578063af522b1c14610dcc578063b172b22214610da3578063b77bf60014610d85578063bf7cd80414610d4b578063c01a8c8414610c43578063c56c9ff414610b2f578063c6427474146107af578063c96f85cf1461078a578063d547741f1461074b578063d988233414610684578063eb12d61e146105e3578063ee22610b1461032a578063ef06e72c14610301578063ef66d684146102e35763fb897ce414610245573861000f565b346102de5760203660031901126102de5761025e611d52565b60018060a01b03811680600052600760205260406000205490600960205261028b6040600020549361207c565b9060005260086020526040600020546303c267008101918282116102c85760a0946040519485526020850152604084015260608301526080820152f35b634e487b7160e01b600052601160045260246000fd5b600080fd5b346102de5760003660031901126102de576020600a54604051908152f35b346102de5760003660031901126102de576003546040516001600160a01b039091168152602090f35b346102de576020806003193601126102de5760043590610348612218565b61035061219d565b61035d6006548310611fd1565b81600052600d8152604060002091600383019081549361038060ff86161561201d565b60048101546005541161059e5747916001936103a28584015480951015611f1f565b8460ff1980981617905560648302838104606414841517156102c8576127106103cd91048094611fc4565b9280610545575b5060018060a01b0395868354166002840191856040519160009085546103f981611e2d565b91818c169182156105325750506001146104f4575b50916000939181859403925af196610424611f94565b97156104af577fcaf938de11c367272220bfd1d2baa99ca46665e7bc4d85f00adb51b90fe1fa9f939291610492916040519485947f15ed165a284872ea7017f03df402a0cadfbfab588320ffaf83f160c2f82781c7600080a254169583526040888401526040830190611e67565b0390a280556104ab604051928284938452830190611da1565b0390f35b60405162461bcd60e51b815260048101889052601c60248201527f5472616e73616374696f6e20657865637574696f6e206661696c6564000000006044820152606490fd5b905084600052896000208a8a6000925b84841061051a575050509083019050600061040e565b8054878501528b955092909101918c918c9101610504565b168552508015150283019050600061040e565b7fb45df24de5d27f6414d5fb15009502c7f77909dc68ce75448b60a4a71640e2708660018060a01b0361058c60008080808886600254165af1610586611f94565b506120fe565b6002541692604051908152a2866103d4565b60405162461bcd60e51b815260048101859052601860248201527f4e6f7420656e6f75676820636f6e6669726d6174696f6e7300000000000000006044820152606490fd5b346102de5760203660031901126102de576105fc611d52565b6106046121c0565b6001600160a01b0381169081156106465761061e906123f2565b507f47d1c22a25bb3a5d4e481b9b1e6944c2eade3181a0a20b495ed61d35b5323f24600080a2005b60405162461bcd60e51b8152602060048201526016602482015275496e76616c6964207369676e6572206164647265737360501b6044820152606490fd5b346102de576020806003193601126102de576003546024906004359083906001600160a01b03166106b681151561214a565b604051938480926323a9d25760e21b82528560048301525afa91821561073f57600092610710575b507fb96772fa5329ea20c203d97d9b39acce1faec46fdb3bd87a329ebf77fd7410ce83604051848152a2604051908152f35b9091508281813d8311610738575b6107288183611efd565b810103126102de575190836106de565b503d61071e565b6040513d6000823e3d90fd5b346102de5760403660031901126102de5761001b60043561076a611d68565b908060005260006020526107856001604060002001546122be565b61237d565b346102de5760003660031901126102de576040600a54600b5482519182526020820152f35b346102de5760603660031901126102de576107c8611d52565b67ffffffffffffffff6044358181116102de576107e9903690600401611dff565b926107f2612218565b600654926107ff8461218e565b6006556040519260a0840184811083821117610b19576040526001600160a01b038381168552602435602086019081529690929061083c81611f78565b9261084a6040519485611efd565b81845236828201116102de5781600092602092838701378401015260408501918252600060608601526000608086015285600052600d602052604060002091838651166001600160601b0360a01b8454161783556001975188840155518051918211610b195781906108bf6002850154611e2d565b601f8111610ac1575b50602090601f8311600114610a5757600092610a4c575b5050600019600383901b1c191690871b1760028201555b600460806003830195606081015115159660ff199760ff8983541691161790550151910155604051911681526024356020820152827f753dcda37efe0bc3675e04e24d1fb08b70681f14675eed4b6e7978495caf2ca060403393a3610959612218565b6109666006548310611fd1565b81600052600d60205261098460ff600360406000200154161561201d565b81600052600e60205260406000203360005260205260ff60406000205416610a135760209282600052600e8452604060002033600052845260406000209182541617905580600052600d825260046040600020016109e2815461218e565b90556040519033817f15c2f311c9e0f53b50388279894aeff029a3457884a6601e924fca879e12adcc600080a38152f35b60405162461bcd60e51b8152602060048201526011602482015270105b1c9958591e4818dbdb999a5c9b5959607a1b6044820152606490fd5b0151905088806108df565b90899350601f198316916002860160005260206000209260005b818110610aa957508411610a90575b505050811b0160028201556108f6565b015160001960f88460031b161c19169055888080610a80565b8284015185558c969094019360209384019301610a71565b909150600284016000526020600020601f840160051c81019160208510610b0f575b84939291601f8c920160051c01915b828110610b005750506108c8565b600081558594508b9101610af2565b9091508190610ae3565b634e487b7160e01b600052604160045260246000fd5b346102de5760403660031901126102de57610b48611d52565b610b50612262565b610b5c3a602435612069565b90600b54808311610c3b575b50600a54808311610c33575b82610b7b57005b82610b8591611fc4565b600a5560018060a01b03169081600052600c6020526040600020610baa828254611f6b565b9055600080808084865af1610bbd611f94565b5015610bf75760407f5fc1e14c18e85d0603c37d2759f24a4f00fe4454e0a0b2566df29785f4810d2991600a5482519182526020820152a2005b60405162461bcd60e51b815260206004820152601460248201527314995a5b589d5c9cd95b595b9d0819985a5b195960621b6044820152606490fd5b915081610b74565b915082610b68565b346102de576020806003193601126102de5760043590610c61612218565b610c6e6006548310611fd1565b81600052600d8152610c8b60ff600360406000200154161561201d565b81600052600e8152604060002033600052815260ff60406000205416610d1357600d9082600052600e815260406000203360005281526040600020600160ff1982541617905582600052526004604060002001610ce8815461218e565b905533907f15c2f311c9e0f53b50388279894aeff029a3457884a6601e924fca879e12adcc600080a3005b6064906040519062461bcd60e51b825260048201526011602482015270105b1c9958591e4818dbdb999a5c9b5959607a1b6044820152fd5b346102de5760203660031901126102de576001600160a01b03610d6c611d52565b1660005260096020526020604060002054604051908152f35b346102de5760003660031901126102de576020600654604051908152f35b346102de5760003660031901126102de576004546040516001600160a01b039091168152602090f35b346102de576020806003193601126102de5760035460249082906001600160a01b0316610dfa81151561214a565b604051928380926323a9d25760e21b825260043560048301525afa90811561073f57600091610e2d575b50604051908152f35b90508181813d8311610e53575b610e448183611efd565b810103126102de575182610e24565b503d610e3a565b346102de5760203660031901126102de57610e73611d52565b610e7b6121c0565b6001600160a01b03908116908115610eca57600454826001600160601b0360a01b821617600455167f2bb6fa423908148a692d1326edeb12cf0436abf468ce271a4be85c722b327748600080a3005b60405162461bcd60e51b815260206004820152601a60248201527f496e76616c696420676f7665726e616e636520616464726573730000000000006044820152606490fd5b346102de5760203660031901126102de576001600160a01b03610f30611d52565b1660005260076020526020604060002054604051908152f35b346102de5760203660031901126102de57600435610f656121c0565b67016345785d8a00008111610fad5760407f6ff3ba4223f4d694ced77174a208557c49fd86ead36368eb2871ceb7eb4d1eeb91600b549080600b5582519182526020820152a1005b60405162461bcd60e51b815260206004820152600c60248201526b09ac2f040e8dede40d0d2ced60a31b6044820152606490fd5b346102de5760003660031901126102de576002546040516001600160a01b039091168152602090f35b346102de5760003660031901126102de57602060405160008152f35b346102de5760003660031901126102de5760206040516000805160206125078339815191528152f35b346102de5760203660031901126102de57600435600052600d602052604060002060018060a01b038154166104ab6001830154926040519061109f826110988160028501611e67565b0383611efd565b600460ff6003830154169101549160405195869586611dc6565b346102de5760403660031901126102de576110d2611d68565b600435600052600060205260406000209060018060a01b0316600052602052602060ff604060002054166040519015158152f35b346102de5760003660031901126102de57602060405160648152f35b346102de5760003660031901126102de576020600554604051908152f35b346102de5760403660031901126102de57611159611d68565b600435600052600e60205260406000209060018060a01b0316600052602052602060ff604060002054166040519015158152f35b346102de5760203660031901126102de576111a6611d52565b6111ae6121c0565b6001600160a01b039081169081156111fd57600254826001600160601b0360a01b821617600255167f8fde258c62bae775e2f2a12f222aa115ecd71ca13947381ec3122d23dca37d6d600080a3005b60405162461bcd60e51b8152602060048201526016602482015275125b9d985b1a5908199bdd5b99195c881dd85b1b195d60521b6044820152606490fd5b346102de5760203660031901126102de576004356112576121c0565b80156112f557600a811161129e5760407f9a71f52a6cf1d6a0a676a538d4131e624fbe0f9146d1ca1c7a31fda3db8c37f791600554908060055582519182526020820152a1005b60405162461bcd60e51b815260206004820152602960248201527f43616e6e6f742072657175697265206d6f7265207468616e20313020636f6e6660448201526869726d6174696f6e7360b81b6064820152608490fd5b60405162461bcd60e51b8152602060048201526024808201527f4d7573742072657175697265206174206c65617374203120636f6e6669726d616044820152633a34b7b760e11b6064820152608490fd5b346102de5760203660031901126102de576001600160a01b03611367611d52565b16600052600c6020526020604060002054604051908152f35b346102de5760203660031901126102de57611399611d52565b6113a16121c0565b6001600160a01b039081169081156113f057600354826001600160601b0360a01b821617600355167fe108cf8f8b301f7954568e77ebd0b1215523268a978e34bc9cc1a60b6abf78e6600080a3005b60405162461bcd60e51b8152602060048201526016602482015275496e76616c6964206f7261636c65206164647265737360501b6044820152606490fd5b346102de5760803660031901126102de57611447611d52565b6024359067ffffffffffffffff6044358181116102de5761146c903690600401611dff565b91906064359461147a612262565b61148261219d565b61148e81471015611f1f565b60648102818104606414821517156102c857600454612710909104966001600160a01b039488928616806115ea575b5050506114c991611fc4565b948061159c575b506000806040518584823780868101838152039088885af1936114f1611f94565b9415611569576104ab957fcaf938de11c367272220bfd1d2baa99ca46665e7bc4d85f00adb51b90fe1fa9f93606092866040519586948552604060208601528160408601528585013760008388018501521694601f01601f19168101030190a260018055604051918291602083526020830190611da1565b60405162461bcd60e51b815260206004820152600b60248201526a10d85b1b0819985a5b195960aa1b6044820152606490fd5b6115b460008080808588600254165af1610586611f94565b7fb45df24de5d27f6414d5fb15009502c7f77909dc68ce75448b60a4a71640e2706020846002541692604051908152a2856114d0565b6024935060009060405194858092632542515160e21b82528660048301525afa92831561073f57600093611668575b50506046821061162c575b8088926114bd565b60209750916114c9927f602c0e3af2af2bb1df1d57f7bb78b2cbc3d25d83fa10ad81a84d5c0519af51bf6000998a94604051908152a291611624565b909192503d806000833e61167c8183611efd565b8101916040828403126102de5781519081116102de5781019180601f840112156102de5782516116ab81611f78565b916116b96040519384611efd565b818352602082860101116102de5760209384806116d894019101611d7e565b0151908880611619565b346102de5760203660031901126102de576020611705611700611d52565b61207c565b604051908152f35b60003660031901126102de577f19a5c5590f6a234a92047e9b565ee9a2e8d9d83db89b9ac1622a6d6e170470ee604061174834600a54611f6b565b80600a558151903482526020820152a1005b346102de5760003660031901126102de5760206040516276a7008152f35b346102de5760003660031901126102de576020600b54604051908152f35b346102de5760403660031901126102de576117af611d68565b336001600160a01b038216036117cb5761001b9060043561237d565b60405163334bd91960e11b8152600490fd5b346102de5760203660031901126102de57600435600052600d602052604060002060018060a01b038154166104ab60018301549260ff600382015416600261183b6004840154936118346040518094819301611e67565b0382611efd565b60405195869586611dc6565b346102de5760403660031901126102de5761001b600435611866611d68565b908060005260006020526118816001604060002001546122be565b61248d565b346102de5760203660031901126102de576004356118a26121c0565b6118aa61219d565b80471061190557600080808093335af16118c2611f94565b50156118ce5760018055005b60405162461bcd60e51b815260206004820152600f60248201526e15da5d1a191c985dc819985a5b1959608a1b6044820152606490fd5b60405162461bcd60e51b8152602060048201526014602482015273496e73756666696369656e742062616c616e636560601b6044820152606490fd5b346102de5760203660031901126102de5760043560005260006020526020600160406000200154604051908152f35b346102de576020806003193601126102de576004359061198e612218565b61199b6006548310611fd1565b81600052600d81526119b860ff600360406000200154161561201d565b81600052600e8152604060002033600052815260ff6040600020541615611a4057600d9082600052600e81526040600020336000528152604060002060ff19815416905582600052526004604060002001805480156102c85760001901905533907f4cd471041f6b9ff47536a54a3d3ab62d0fa9dd5e36c0418b294b1673acb31881600080a3005b6064906040519062461bcd60e51b82526004820152600d60248201526c139bdd0818dbdb999a5c9b5959609a1b6044820152fd5b346102de5760003660031901126102de57602047604051908152f35b346102de5760203660031901126102de57611aa9611d52565b611ab16121c0565b611aba816122e4565b506001600160a01b03167f3525e22824a8a7df2c9a6029941c824cf95b6447f1e13d5128fd3826d35afe8b600080a2005b346102de5760003660031901126102de5760206040517fd8aa0f3194971a2a116679f7c2090f6939c8d4e01a2a8d7e41d55e5351469e638152f35b346102de5760003660031901126102de57611b3f61219d565b6002546001600160a01b03163303611c6757611b5a3361207c565b8015611c2f57611b6c81471015611f1f565b3360005260096020526040600020611b85828254611f6b565b9055600080808084335af1611b98611f94565b5015611bf857336000526007602052611bc1604060002054600960205260406000205490611fc4565b60405191825260208201527f2a802e837fc4c908f2771b54afa67bb6b29094584706495b8dd12e8db55fc88760403392a260018055005b60405162461bcd60e51b815260206004820152600f60248201526e151c985b9cd9995c8819985a5b1959608a1b6044820152606490fd5b60405162461bcd60e51b815260206004820152601060248201526f4e6f7468696e6720746f20636c61696d60801b6044820152606490fd5b60405162461bcd60e51b81526020600482015260166024820152754f6e6c7920666f756e6465722063616e20636c61696d60501b6044820152606490fd5b346102de5760203660031901126102de576001600160a01b03611cc6611d52565b1660005260086020526020604060002054604051908152f35b346102de5760203660031901126102de5760043563ffffffff60e01b81168091036102de57602090637965db0b60e01b8114908115611d24575b506040519015158152f35b6301ffc9a760e01b14905082611d19565b346102de5760003660031901126102de57806303c2670060209252f35b600435906001600160a01b03821682036102de57565b602435906001600160a01b03821682036102de57565b60005b838110611d915750506000910152565b8181015183820152602001611d81565b90602091611dba81518092818552858086019101611d7e565b601f01601f1916010190565b9192608093611df3929796959760018060a01b03168452602084015260a0604084015260a0830190611da1565b94151560608201520152565b9181601f840112156102de5782359167ffffffffffffffff83116102de57602083818601950101116102de57565b90600182811c92168015611e5d575b6020831014611e4757565b634e487b7160e01b600052602260045260246000fd5b91607f1691611e3c565b805460009392611e7682611e2d565b91828252602093600191600181169081600014611ede5750600114611e9d575b5050505050565b90939495506000929192528360002092846000945b838610611eca57505050500101903880808080611e96565b805485870183015294019385908201611eb2565b60ff19168685015250505090151560051b010191503880808080611e96565b90601f8019910116810190811067ffffffffffffffff821117610b1957604052565b15611f2657565b60405162461bcd60e51b815260206004820152601d60248201527f496e73756666696369656e742074726561737572792062616c616e63650000006044820152606490fd5b919082018092116102c857565b67ffffffffffffffff8111610b1957601f01601f191660200190565b3d15611fbf573d90611fa582611f78565b91611fb36040519384611efd565b82523d6000602084013e565b606090565b919082039182116102c857565b15611fd857565b60405162461bcd60e51b815260206004820152601a60248201527f5472616e73616374696f6e20646f6573206e6f742065786973740000000000006044820152606490fd5b1561202457565b60405162461bcd60e51b815260206004820152601c60248201527f5472616e73616374696f6e20616c7265616479206578656375746564000000006044820152606490fd5b818102929181159184041417156102c857565b6001600160a01b031660008181526008602052604081205490919080156120f9576120a79042611fc4565b6276a70081106120f95781835260076020526040808420546120e59491926303c26700908181106120e8575050925b81526009602052205490611fc4565b90565b6120f29192612069565b04926120d6565b505090565b1561210557565b60405162461bcd60e51b815260206004820152601b60248201527f466f756e64657220637574207472616e73666572206661696c656400000000006044820152606490fd5b1561215157565b60405162461bcd60e51b815260206004820152601560248201527413dc9858db19481b9bdd0818dbdb999a59dd5c9959605a1b6044820152606490fd5b60001981146102c85760010190565b6002600154146121ae576002600155565b604051633ee5aeb560e01b8152600490fd5b3360009081527fad3228b676f7d3cd4284a5443f17f1962b36e491b30a40b2405849e597ba5fb5602052604081205460ff16156121fa5750565b6044906040519063e2517d3f60e01b82523360048301526024820152fd5b3360009081527f059f08e7d7ba1c82eddc57afae67f80df851baf38a099607a779825038c3ce5b60205260409020546000805160206125078339815191529060ff16156121fa5750565b3360009081527fdae2aa361dfd1ca020a396615627d436107c35eff9fe7738a3512819782d706960205260409020547fd8aa0f3194971a2a116679f7c2090f6939c8d4e01a2a8d7e41d55e5351469e639060ff16156121fa5750565b80600052600060205260406000203360005260205260ff60406000205416156121fa5750565b6001600160a01b031660008181527f059f08e7d7ba1c82eddc57afae67f80df851baf38a099607a779825038c3ce5b60205260408120549091906000805160206125078339815191529060ff16156120f95780835282602052604083208284526020526040832060ff1981541690557ff6391f5c32d9c69d2a47ea670b442974b53935d1edc7fd64eb21e047a839171b339380a4600190565b9060009180835282602052604083209160018060a01b03169182845260205260ff6040842054166000146120f95780835282602052604083208284526020526040832060ff1981541690557ff6391f5c32d9c69d2a47ea670b442974b53935d1edc7fd64eb21e047a839171b339380a4600190565b6001600160a01b031660008181527f059f08e7d7ba1c82eddc57afae67f80df851baf38a099607a779825038c3ce5b60205260408120549091906000805160206125078339815191529060ff166120f957808352826020526040832082845260205260408320600160ff198254161790557f2f8788117e7eff1d82e926ec794901d17c78024a50270940304540a733656f0d339380a4600190565b9060009180835282602052604083209160018060a01b03169182845260205260ff604084205416156000146120f957808352826020526040832082845260205260408320600160ff198254161790557f2f8788117e7eff1d82e926ec794901d17c78024a50270940304540a733656f0d339380a460019056fee2f4eaae4a9751e85a3e4a7b9587827a877f29914755229b07a7b2da98285f70a26469706673582212201cd237d2950c4a24b1e5efbf94fe90ea34333347a98e89c42bae9fa3ccbf116764736f6c634300081800332f8788117e7eff1d82e926ec794901d17c78024a50270940304540a733656f0d","opcodes":"PUSH1 0x80 CALLVALUE PUSH3 0xF2 JUMPI PUSH1 0x1F PUSH3 0x27AC CODESIZE DUP2 SWAP1 SUB SWAP2 DUP3 ADD PUSH1 0x1F NOT AND DUP4 ADD SWAP2 PUSH1 0x1 PUSH1 0x1 PUSH1 0x40 SHL SUB DUP4 GT DUP5 DUP5 LT OR PUSH3 0xF7 JUMPI DUP1 DUP5 SWAP3 PUSH1 0x20 SWAP5 PUSH1 0x40 MSTORE DUP4 CODECOPY DUP2 ADD SUB SLT PUSH3 0xF2 JUMPI MLOAD PUSH1 0x1 PUSH1 0x1 PUSH1 0xA0 SHL SUB DUP2 AND SWAP1 DUP2 SWAP1 SUB PUSH3 0xF2 JUMPI PUSH1 0x1 DUP1 SSTORE PUSH1 0x2 PUSH1 0x5 SSTORE PUSH7 0x2386F26FC10000 PUSH1 0xB SSTORE DUP1 ISZERO PUSH3 0xAD JUMPI PUSH3 0x7C CALLER PUSH3 0x10D JUMP JUMPDEST POP PUSH3 0x88 CALLER PUSH3 0x18D JUMP JUMPDEST POP PUSH1 0x2 DUP1 SLOAD PUSH1 0x1 PUSH1 0x1 PUSH1 0xA0 SHL SUB NOT AND SWAP2 SWAP1 SWAP2 OR SWAP1 SSTORE PUSH1 0x40 MLOAD PUSH2 0x255C SWAP1 DUP2 PUSH3 0x230 DUP3 CODECOPY RETURN JUMPDEST PUSH1 0x40 MLOAD PUSH3 0x461BCD PUSH1 0xE5 SHL DUP2 MSTORE PUSH1 0x20 PUSH1 0x4 DUP3 ADD MSTORE PUSH1 0x16 PUSH1 0x24 DUP3 ADD MSTORE PUSH32 0x496E76616C696420666F756E6465722077616C6C657400000000000000000000 PUSH1 0x44 DUP3 ADD MSTORE PUSH1 0x64 SWAP1 REVERT JUMPDEST PUSH1 0x0 DUP1 REVERT JUMPDEST PUSH4 0x4E487B71 PUSH1 0xE0 SHL PUSH1 0x0 MSTORE PUSH1 0x41 PUSH1 0x4 MSTORE PUSH1 0x24 PUSH1 0x0 REVERT JUMPDEST PUSH1 0x1 PUSH1 0x1 PUSH1 0xA0 SHL SUB AND PUSH1 0x0 DUP2 DUP2 MSTORE PUSH32 0xAD3228B676F7D3CD4284A5443F17F1962B36E491B30A40B2405849E597BA5FB5 PUSH1 0x20 MSTORE PUSH1 0x40 DUP2 KECCAK256 SLOAD SWAP1 SWAP2 SWAP1 PUSH1 0xFF AND PUSH3 0x189 JUMPI DUP2 DUP1 MSTORE DUP2 PUSH1 0x20 MSTORE PUSH1 0x40 DUP3 KECCAK256 DUP2 DUP4 MSTORE PUSH1 0x20 MSTORE PUSH1 0x40 DUP3 KECCAK256 PUSH1 0x1 PUSH1 0xFF NOT DUP3 SLOAD AND OR SWAP1 SSTORE CALLER SWAP2 PUSH1 0x0 DUP1 MLOAD PUSH1 0x20 PUSH3 0x278C DUP4 CODECOPY DUP2 MLOAD SWAP2 MSTORE DUP2 DUP1 LOG4 PUSH1 0x1 SWAP1 JUMP JUMPDEST POP SWAP1 JUMP JUMPDEST PUSH1 0x1 PUSH1 0x1 PUSH1 0xA0 SHL SUB AND PUSH1 0x0 DUP2 DUP2 MSTORE PUSH32 0x59F08E7D7BA1C82EDDC57AFAE67F80DF851BAF38A099607A779825038C3CE5B PUSH1 0x20 MSTORE PUSH1 0x40 DUP2 KECCAK256 SLOAD SWAP1 SWAP2 SWAP1 PUSH32 0xE2F4EAAE4A9751E85A3E4A7B9587827A877F29914755229B07A7B2DA98285F70 SWAP1 PUSH1 0xFF AND PUSH3 0x22A JUMPI DUP1 DUP4 MSTORE DUP3 PUSH1 0x20 MSTORE PUSH1 0x40 DUP4 KECCAK256 DUP3 DUP5 MSTORE PUSH1 0x20 MSTORE PUSH1 0x40 DUP4 KECCAK256 PUSH1 0x1 PUSH1 0xFF NOT DUP3 SLOAD AND OR SWAP1 SSTORE PUSH1 0x0 DUP1 MLOAD PUSH1 0x20 PUSH3 0x278C DUP4 CODECOPY DUP2 MLOAD SWAP2 MSTORE CALLER SWAP4 DUP1 LOG4 PUSH1 0x1 SWAP1 JUMP JUMPDEST POP POP SWAP1 JUMP INVALID PUSH1 0x80 DUP1 PUSH1 0x40 MSTORE PUSH1 0x4 CALLDATASIZE LT ISZERO PUSH2 0x1D JUMPI JUMPDEST POP CALLDATASIZE ISZERO PUSH2 0x1B JUMPI PUSH1 0x0 DUP1 REVERT JUMPDEST STOP JUMPDEST PUSH1 0x0 CALLDATALOAD PUSH1 0xE0 SHR SWAP1 DUP2 PUSH4 0x197D972 EQ PUSH2 0x1D35 JUMPI POP DUP1 PUSH4 0x1FFC9A7 EQ PUSH2 0x1CDF JUMPI DUP1 PUSH4 0x32BBF4F EQ PUSH2 0x1CA5 JUMPI DUP1 PUSH4 0x363C8FB EQ PUSH2 0x1B26 JUMPI DUP1 PUSH4 0x7BD0265 EQ PUSH2 0x1AEB JUMPI DUP1 PUSH4 0xE316AB7 EQ PUSH2 0x1A90 JUMPI DUP1 PUSH4 0x12065FE0 EQ PUSH2 0x1A74 JUMPI DUP1 PUSH4 0x20EA8D86 EQ PUSH2 0x1970 JUMPI DUP1 PUSH4 0x248A9CA3 EQ PUSH2 0x1941 JUMPI DUP1 PUSH4 0x2E1A7D4D EQ PUSH2 0x1886 JUMPI DUP1 PUSH4 0x2F2FF15D EQ PUSH2 0x1847 JUMPI DUP1 PUSH4 0x33EA3DC8 EQ PUSH2 0x17DD JUMPI DUP1 PUSH4 0x3411C81C EQ PUSH2 0x1140 JUMPI DUP1 PUSH4 0x36568ABE EQ PUSH2 0x1796 JUMPI DUP1 PUSH4 0x4D247889 EQ PUSH2 0x1778 JUMPI DUP1 PUSH4 0x63F3DBE5 EQ PUSH2 0x175A JUMPI DUP1 PUSH4 0x6AB3818E EQ PUSH2 0x170D JUMPI DUP1 PUSH4 0x73522681 EQ PUSH2 0x16E2 JUMPI DUP1 PUSH4 0x74420F4C EQ PUSH2 0x142E JUMPI DUP1 PUSH4 0x7A9B0412 EQ PUSH2 0x1380 JUMPI DUP1 PUSH4 0x7AAB1381 EQ PUSH2 0x1346 JUMPI DUP1 PUSH4 0x7B7C343D EQ PUSH2 0x123B JUMPI DUP1 PUSH4 0x7F307FF7 EQ PUSH2 0x118D JUMPI DUP1 PUSH4 0x80F59A65 EQ PUSH2 0x1140 JUMPI DUP1 PUSH4 0x82E717F7 EQ PUSH2 0x1122 JUMPI DUP1 PUSH4 0x8F28544C EQ PUSH2 0x1106 JUMPI DUP1 PUSH4 0x91D14854 EQ PUSH2 0x10B9 JUMPI DUP1 PUSH4 0x9ACE38C2 EQ PUSH2 0x104F JUMPI DUP1 PUSH4 0xA1EBF35D EQ PUSH2 0x1026 JUMPI DUP1 PUSH4 0xA217FDDF EQ PUSH2 0x100A JUMPI DUP1 PUSH4 0xA23D3C35 EQ PUSH2 0xFE1 JUMPI DUP1 PUSH4 0xA5574D52 EQ PUSH2 0xF49 JUMPI DUP1 PUSH4 0xA64C1138 EQ PUSH2 0xF0F JUMPI DUP1 PUSH4 0xAB033EA9 EQ PUSH2 0xE5A JUMPI DUP1 PUSH4 0xAF522B1C EQ PUSH2 0xDCC JUMPI DUP1 PUSH4 0xB172B222 EQ PUSH2 0xDA3 JUMPI DUP1 PUSH4 0xB77BF600 EQ PUSH2 0xD85 JUMPI DUP1 PUSH4 0xBF7CD804 EQ PUSH2 0xD4B JUMPI DUP1 PUSH4 0xC01A8C84 EQ PUSH2 0xC43 JUMPI DUP1 PUSH4 0xC56C9FF4 EQ PUSH2 0xB2F JUMPI DUP1 PUSH4 0xC6427474 EQ PUSH2 0x7AF JUMPI DUP1 PUSH4 0xC96F85CF EQ PUSH2 0x78A JUMPI DUP1 PUSH4 0xD547741F EQ PUSH2 0x74B JUMPI DUP1 PUSH4 0xD9882334 EQ PUSH2 0x684 JUMPI DUP1 PUSH4 0xEB12D61E EQ PUSH2 0x5E3 JUMPI DUP1 PUSH4 0xEE22610B EQ PUSH2 0x32A JUMPI DUP1 PUSH4 0xEF06E72C EQ PUSH2 0x301 JUMPI DUP1 PUSH4 0xEF66D684 EQ PUSH2 0x2E3 JUMPI PUSH4 0xFB897CE4 EQ PUSH2 0x245 JUMPI CODESIZE PUSH2 0xF JUMP JUMPDEST CALLVALUE PUSH2 0x2DE JUMPI PUSH1 0x20 CALLDATASIZE PUSH1 0x3 NOT ADD SLT PUSH2 0x2DE JUMPI PUSH2 0x25E PUSH2 0x1D52 JUMP JUMPDEST PUSH1 0x1 DUP1 PUSH1 0xA0 SHL SUB DUP2 AND DUP1 PUSH1 0x0 MSTORE PUSH1 0x7 PUSH1 0x20 MSTORE PUSH1 0x40 PUSH1 0x0 KECCAK256 SLOAD SWAP1 PUSH1 0x9 PUSH1 0x20 MSTORE PUSH2 0x28B PUSH1 0x40 PUSH1 0x0 KECCAK256 SLOAD SWAP4 PUSH2 0x207C JUMP JUMPDEST SWAP1 PUSH1 0x0 MSTORE PUSH1 0x8 PUSH1 0x20 MSTORE PUSH1 0x40 PUSH1 0x0 KECCAK256 SLOAD PUSH4 0x3C26700 DUP2 ADD SWAP2 DUP3 DUP3 GT PUSH2 0x2C8 JUMPI PUSH1 0xA0 SWAP5 PUSH1 0x40 MLOAD SWAP5 DUP6 MSTORE PUSH1 0x20 DUP6 ADD MSTORE PUSH1 0x40 DUP5 ADD MSTORE PUSH1 0x60 DUP4 ADD MSTORE PUSH1 0x80 DUP3 ADD MSTORE RETURN JUMPDEST PUSH4 0x4E487B71 PUSH1 0xE0 SHL PUSH1 0x0 MSTORE PUSH1 0x11 PUSH1 0x4 MSTORE PUSH1 0x24 PUSH1 0x0 REVERT JUMPDEST PUSH1 0x0 DUP1 REVERT JUMPDEST CALLVALUE PUSH2 0x2DE JUMPI PUSH1 0x0 CALLDATASIZE PUSH1 0x3 NOT ADD SLT PUSH2 0x2DE JUMPI PUSH1 0x20 PUSH1 0xA SLOAD PUSH1 0x40 MLOAD SWAP1 DUP2 MSTORE RETURN JUMPDEST CALLVALUE PUSH2 0x2DE JUMPI PUSH1 0x0 CALLDATASIZE PUSH1 0x3 NOT ADD SLT PUSH2 0x2DE JUMPI PUSH1 0x3 SLOAD PUSH1 0x40 MLOAD PUSH1 0x1 PUSH1 0x1 PUSH1 0xA0 SHL SUB SWAP1 SWAP2 AND DUP2 MSTORE PUSH1 0x20 SWAP1 RETURN JUMPDEST CALLVALUE PUSH2 0x2DE JUMPI PUSH1 0x20 DUP1 PUSH1 0x3 NOT CALLDATASIZE ADD SLT PUSH2 0x2DE JUMPI PUSH1 0x4 CALLDATALOAD SWAP1 PUSH2 0x348 PUSH2 0x2218 JUMP JUMPDEST PUSH2 0x350 PUSH2 0x219D JUMP JUMPDEST PUSH2 0x35D PUSH1 0x6 SLOAD DUP4 LT PUSH2 0x1FD1 JUMP JUMPDEST DUP2 PUSH1 0x0 MSTORE PUSH1 0xD DUP2 MSTORE PUSH1 0x40 PUSH1 0x0 KECCAK256 SWAP2 PUSH1 0x3 DUP4 ADD SWAP1 DUP2 SLOAD SWAP4 PUSH2 0x380 PUSH1 0xFF DUP7 AND ISZERO PUSH2 0x201D JUMP JUMPDEST PUSH1 0x4 DUP2 ADD SLOAD PUSH1 0x5 SLOAD GT PUSH2 0x59E JUMPI SELFBALANCE SWAP2 PUSH1 0x1 SWAP4 PUSH2 0x3A2 DUP6 DUP5 ADD SLOAD DUP1 SWAP6 LT ISZERO PUSH2 0x1F1F JUMP JUMPDEST DUP5 PUSH1 0xFF NOT DUP1 SWAP9 AND OR SWAP1 SSTORE PUSH1 0x64 DUP4 MUL DUP4 DUP2 DIV PUSH1 0x64 EQ DUP5 ISZERO OR ISZERO PUSH2 0x2C8 JUMPI PUSH2 0x2710 PUSH2 0x3CD SWAP2 DIV DUP1 SWAP5 PUSH2 0x1FC4 JUMP JUMPDEST SWAP3 DUP1 PUSH2 0x545 JUMPI JUMPDEST POP PUSH1 0x1 DUP1 PUSH1 0xA0 SHL SUB SWAP6 DUP7 DUP4 SLOAD AND PUSH1 0x2 DUP5 ADD SWAP2 DUP6 PUSH1 0x40 MLOAD SWAP2 PUSH1 0x0 SWAP1 DUP6 SLOAD PUSH2 0x3F9 DUP2 PUSH2 0x1E2D JUMP JUMPDEST SWAP2 DUP2 DUP13 AND SWAP2 DUP3 ISZERO PUSH2 0x532 JUMPI POP POP PUSH1 0x1 EQ PUSH2 0x4F4 JUMPI JUMPDEST POP SWAP2 PUSH1 0x0 SWAP4 SWAP2 DUP2 DUP6 SWAP5 SUB SWAP3 GAS CALL SWAP7 PUSH2 0x424 PUSH2 0x1F94 JUMP JUMPDEST SWAP8 ISZERO PUSH2 0x4AF JUMPI PUSH32 0xCAF938DE11C367272220BFD1D2BAA99CA46665E7BC4D85F00ADB51B90FE1FA9F SWAP4 SWAP3 SWAP2 PUSH2 0x492 SWAP2 PUSH1 0x40 MLOAD SWAP5 DUP6 SWAP5 PUSH32 0x15ED165A284872EA7017F03DF402A0CADFBFAB588320FFAF83F160C2F82781C7 PUSH1 0x0 DUP1 LOG2 SLOAD AND SWAP6 DUP4 MSTORE PUSH1 0x40 DUP9 DUP5 ADD MSTORE PUSH1 0x40 DUP4 ADD SWAP1 PUSH2 0x1E67 JUMP JUMPDEST SUB SWAP1 LOG2 DUP1 SSTORE PUSH2 0x4AB PUSH1 0x40 MLOAD SWAP3 DUP3 DUP5 SWAP4 DUP5 MSTORE DUP4 ADD SWAP1 PUSH2 0x1DA1 JUMP JUMPDEST SUB SWAP1 RETURN JUMPDEST PUSH1 0x40 MLOAD PUSH3 0x461BCD PUSH1 0xE5 SHL DUP2 MSTORE PUSH1 0x4 DUP2 ADD DUP9 SWAP1 MSTORE PUSH1 0x1C PUSH1 0x24 DUP3 ADD MSTORE PUSH32 0x5472616E73616374696F6E20657865637574696F6E206661696C656400000000 PUSH1 0x44 DUP3 ADD MSTORE PUSH1 0x64 SWAP1 REVERT JUMPDEST SWAP1 POP DUP5 PUSH1 0x0 MSTORE DUP10 PUSH1 0x0 KECCAK256 DUP11 DUP11 PUSH1 0x0 SWAP3 JUMPDEST DUP5 DUP5 LT PUSH2 0x51A JUMPI POP POP POP SWAP1 DUP4 ADD SWAP1 POP PUSH1 0x0 PUSH2 0x40E JUMP JUMPDEST DUP1 SLOAD DUP8 DUP6 ADD MSTORE DUP12 SWAP6 POP SWAP3 SWAP1 SWAP2 ADD SWAP2 DUP13 SWAP2 DUP13 SWAP2 ADD PUSH2 0x504 JUMP JUMPDEST AND DUP6 MSTORE POP DUP1 ISZERO ISZERO MUL DUP4 ADD SWAP1 POP PUSH1 0x0 PUSH2 0x40E JUMP JUMPDEST PUSH32 0xB45DF24DE5D27F6414D5FB15009502C7F77909DC68CE75448B60A4A71640E270 DUP7 PUSH1 0x1 DUP1 PUSH1 0xA0 SHL SUB PUSH2 0x58C PUSH1 0x0 DUP1 DUP1 DUP1 DUP9 DUP7 PUSH1 0x2 SLOAD AND GAS CALL PUSH2 0x586 PUSH2 0x1F94 JUMP JUMPDEST POP PUSH2 0x20FE JUMP JUMPDEST PUSH1 0x2 SLOAD AND SWAP3 PUSH1 0x40 MLOAD SWAP1 DUP2 MSTORE LOG2 DUP7 PUSH2 0x3D4 JUMP JUMPDEST PUSH1 0x40 MLOAD PUSH3 0x461BCD PUSH1 0xE5 SHL DUP2 MSTORE PUSH1 0x4 DUP2 ADD DUP6 SWAP1 MSTORE PUSH1 0x18 PUSH1 0x24 DUP3 ADD MSTORE PUSH32 0x4E6F7420656E6F75676820636F6E6669726D6174696F6E730000000000000000 PUSH1 0x44 DUP3 ADD MSTORE PUSH1 0x64 SWAP1 REVERT JUMPDEST CALLVALUE PUSH2 0x2DE JUMPI PUSH1 0x20 CALLDATASIZE PUSH1 0x3 NOT ADD SLT PUSH2 0x2DE JUMPI PUSH2 0x5FC PUSH2 0x1D52 JUMP JUMPDEST PUSH2 0x604 PUSH2 0x21C0 JUMP JUMPDEST PUSH1 0x1 PUSH1 0x1 PUSH1 0xA0 SHL SUB DUP2 AND SWAP1 DUP2 ISZERO PUSH2 0x646 JUMPI PUSH2 0x61E SWAP1 PUSH2 0x23F2 JUMP JUMPDEST POP PUSH32 0x47D1C22A25BB3A5D4E481B9B1E6944C2EADE3181A0A20B495ED61D35B5323F24 PUSH1 0x0 DUP1 LOG2 STOP JUMPDEST PUSH1 0x40 MLOAD PUSH3 0x461BCD PUSH1 0xE5 SHL DUP2 MSTORE PUSH1 0x20 PUSH1 0x4 DUP3 ADD MSTORE PUSH1 0x16 PUSH1 0x24 DUP3 ADD MSTORE PUSH22 0x496E76616C6964207369676E65722061646472657373 PUSH1 0x50 SHL PUSH1 0x44 DUP3 ADD MSTORE PUSH1 0x64 SWAP1 REVERT JUMPDEST CALLVALUE PUSH2 0x2DE JUMPI PUSH1 0x20 DUP1 PUSH1 0x3 NOT CALLDATASIZE ADD SLT PUSH2 0x2DE JUMPI PUSH1 0x3 SLOAD PUSH1 0x24 SWAP1 PUSH1 0x4 CALLDATALOAD SWAP1 DUP4 SWAP1 PUSH1 0x1 PUSH1 0x1 PUSH1 0xA0 SHL SUB AND PUSH2 0x6B6 DUP2 ISZERO ISZERO PUSH2 0x214A JUMP JUMPDEST PUSH1 0x40 MLOAD SWAP4 DUP5 DUP1 SWAP3 PUSH4 0x23A9D257 PUSH1 0xE2 SHL DUP3 MSTORE DUP6 PUSH1 0x4 DUP4 ADD MSTORE GAS STATICCALL SWAP2 DUP3 ISZERO PUSH2 0x73F JUMPI PUSH1 0x0 SWAP3 PUSH2 0x710 JUMPI JUMPDEST POP PUSH32 0xB96772FA5329EA20C203D97D9B39ACCE1FAEC46FDB3BD87A329EBF77FD7410CE DUP4 PUSH1 0x40 MLOAD DUP5 DUP2 MSTORE LOG2 PUSH1 0x40 MLOAD SWAP1 DUP2 MSTORE RETURN JUMPDEST SWAP1 SWAP2 POP DUP3 DUP2 DUP2 RETURNDATASIZE DUP4 GT PUSH2 0x738 JUMPI JUMPDEST PUSH2 0x728 DUP2 DUP4 PUSH2 0x1EFD JUMP JUMPDEST DUP2 ADD SUB SLT PUSH2 0x2DE JUMPI MLOAD SWAP1 DUP4 PUSH2 0x6DE JUMP JUMPDEST POP RETURNDATASIZE PUSH2 0x71E JUMP JUMPDEST PUSH1 0x40 MLOAD RETURNDATASIZE PUSH1 0x0 DUP3 RETURNDATACOPY RETURNDATASIZE SWAP1 REVERT JUMPDEST CALLVALUE PUSH2 0x2DE JUMPI PUSH1 0x40 CALLDATASIZE PUSH1 0x3 NOT ADD SLT PUSH2 0x2DE JUMPI PUSH2 0x1B PUSH1 0x4 CALLDATALOAD PUSH2 0x76A PUSH2 0x1D68 JUMP JUMPDEST SWAP1 DUP1 PUSH1 0x0 MSTORE PUSH1 0x0 PUSH1 0x20 MSTORE PUSH2 0x785 PUSH1 0x1 PUSH1 0x40 PUSH1 0x0 KECCAK256 ADD SLOAD PUSH2 0x22BE JUMP JUMPDEST PUSH2 0x237D JUMP JUMPDEST CALLVALUE PUSH2 0x2DE JUMPI PUSH1 0x0 CALLDATASIZE PUSH1 0x3 NOT ADD SLT PUSH2 0x2DE JUMPI PUSH1 0x40 PUSH1 0xA SLOAD PUSH1 0xB SLOAD DUP3 MLOAD SWAP2 DUP3 MSTORE PUSH1 0x20 DUP3 ADD MSTORE RETURN JUMPDEST CALLVALUE PUSH2 0x2DE JUMPI PUSH1 0x60 CALLDATASIZE PUSH1 0x3 NOT ADD SLT PUSH2 0x2DE JUMPI PUSH2 0x7C8 PUSH2 0x1D52 JUMP JUMPDEST PUSH8 0xFFFFFFFFFFFFFFFF PUSH1 0x44 CALLDATALOAD DUP2 DUP2 GT PUSH2 0x2DE JUMPI PUSH2 0x7E9 SWAP1 CALLDATASIZE SWAP1 PUSH1 0x4 ADD PUSH2 0x1DFF JUMP JUMPDEST SWAP3 PUSH2 0x7F2 PUSH2 0x2218 JUMP JUMPDEST PUSH1 0x6 SLOAD SWAP3 PUSH2 0x7FF DUP5 PUSH2 0x218E JUMP JUMPDEST PUSH1 0x6 SSTORE PUSH1 0x40 MLOAD SWAP3 PUSH1 0xA0 DUP5 ADD DUP5 DUP2 LT DUP4 DUP3 GT OR PUSH2 0xB19 JUMPI PUSH1 0x40 MSTORE PUSH1 0x1 PUSH1 0x1 PUSH1 0xA0 SHL SUB DUP4 DUP2 AND DUP6 MSTORE PUSH1 0x24 CALLDATALOAD PUSH1 0x20 DUP7 ADD SWAP1 DUP2 MSTORE SWAP7 SWAP1 SWAP3 SWAP1 PUSH2 0x83C DUP2 PUSH2 0x1F78 JUMP JUMPDEST SWAP3 PUSH2 0x84A PUSH1 0x40 MLOAD SWAP5 DUP6 PUSH2 0x1EFD JUMP JUMPDEST DUP2 DUP5 MSTORE CALLDATASIZE DUP3 DUP3 ADD GT PUSH2 0x2DE JUMPI DUP2 PUSH1 0x0 SWAP3 PUSH1 0x20 SWAP3 DUP4 DUP8 ADD CALLDATACOPY DUP5 ADD ADD MSTORE PUSH1 0x40 DUP6 ADD SWAP2 DUP3 MSTORE PUSH1 0x0 PUSH1 0x60 DUP7 ADD MSTORE PUSH1 0x0 PUSH1 0x80 DUP7 ADD MSTORE DUP6 PUSH1 0x0 MSTORE PUSH1 0xD PUSH1 0x20 MSTORE PUSH1 0x40 PUSH1 0x0 KECCAK256 SWAP2 DUP4 DUP7 MLOAD AND PUSH1 0x1 PUSH1 0x1 PUSH1 0x60 SHL SUB PUSH1 0xA0 SHL DUP5 SLOAD AND OR DUP4 SSTORE PUSH1 0x1 SWAP8 MLOAD DUP9 DUP5 ADD SSTORE MLOAD DUP1 MLOAD SWAP2 DUP3 GT PUSH2 0xB19 JUMPI DUP2 SWAP1 PUSH2 0x8BF PUSH1 0x2 DUP6 ADD SLOAD PUSH2 0x1E2D JUMP JUMPDEST PUSH1 0x1F DUP2 GT PUSH2 0xAC1 JUMPI JUMPDEST POP PUSH1 0x20 SWAP1 PUSH1 0x1F DUP4 GT PUSH1 0x1 EQ PUSH2 0xA57 JUMPI PUSH1 0x0 SWAP3 PUSH2 0xA4C JUMPI JUMPDEST POP POP PUSH1 0x0 NOT PUSH1 0x3 DUP4 SWAP1 SHL SHR NOT AND SWAP1 DUP8 SHL OR PUSH1 0x2 DUP3 ADD SSTORE JUMPDEST PUSH1 0x4 PUSH1 0x80 PUSH1 0x3 DUP4 ADD SWAP6 PUSH1 0x60 DUP2 ADD MLOAD ISZERO ISZERO SWAP7 PUSH1 0xFF NOT SWAP8 PUSH1 0xFF DUP10 DUP4 SLOAD AND SWAP2 AND OR SWAP1 SSTORE ADD MLOAD SWAP2 ADD SSTORE PUSH1 0x40 MLOAD SWAP2 AND DUP2 MSTORE PUSH1 0x24 CALLDATALOAD PUSH1 0x20 DUP3 ADD MSTORE DUP3 PUSH32 0x753DCDA37EFE0BC3675E04E24D1FB08B70681F14675EED4B6E7978495CAF2CA0 PUSH1 0x40 CALLER SWAP4 LOG3 PUSH2 0x959 PUSH2 0x2218 JUMP JUMPDEST PUSH2 0x966 PUSH1 0x6 SLOAD DUP4 LT PUSH2 0x1FD1 JUMP JUMPDEST DUP2 PUSH1 0x0 MSTORE PUSH1 0xD PUSH1 0x20 MSTORE PUSH2 0x984 PUSH1 0xFF PUSH1 0x3 PUSH1 0x40 PUSH1 0x0 KECCAK256 ADD SLOAD AND ISZERO PUSH2 0x201D JUMP JUMPDEST DUP2 PUSH1 0x0 MSTORE PUSH1 0xE PUSH1 0x20 MSTORE PUSH1 0x40 PUSH1 0x0 KECCAK256 CALLER PUSH1 0x0 MSTORE PUSH1 0x20 MSTORE PUSH1 0xFF PUSH1 0x40 PUSH1 0x0 KECCAK256 SLOAD AND PUSH2 0xA13 JUMPI PUSH1 0x20 SWAP3 DUP3 PUSH1 0x0 MSTORE PUSH1 0xE DUP5 MSTORE PUSH1 0x40 PUSH1 0x0 KECCAK256 CALLER PUSH1 0x0 MSTORE DUP5 MSTORE PUSH1 0x40 PUSH1 0x0 KECCAK256 SWAP2 DUP3 SLOAD AND OR SWAP1 SSTORE DUP1 PUSH1 0x0 MSTORE PUSH1 0xD DUP3 MSTORE PUSH1 0x4 PUSH1 0x40 PUSH1 0x0 KECCAK256 ADD PUSH2 0x9E2 DUP2 SLOAD PUSH2 0x218E JUMP JUMPDEST SWAP1 SSTORE PUSH1 0x40 MLOAD SWAP1 CALLER DUP2 PUSH32 0x15C2F311C9E0F53B50388279894AEFF029A3457884A6601E924FCA879E12ADCC PUSH1 0x0 DUP1 LOG3 DUP2 MSTORE RETURN JUMPDEST PUSH1 0x40 MLOAD PUSH3 0x461BCD PUSH1 0xE5 SHL DUP2 MSTORE PUSH1 0x20 PUSH1 0x4 DUP3 ADD MSTORE PUSH1 0x11 PUSH1 0x24 DUP3 ADD MSTORE PUSH17 0x105B1C9958591E4818DBDB999A5C9B5959 PUSH1 0x7A SHL PUSH1 0x44 DUP3 ADD MSTORE PUSH1 0x64 SWAP1 REVERT JUMPDEST ADD MLOAD SWAP1 POP DUP9 DUP1 PUSH2 0x8DF JUMP JUMPDEST SWAP1 DUP10 SWAP4 POP PUSH1 0x1F NOT DUP4 AND SWAP2 PUSH1 0x2 DUP7 ADD PUSH1 0x0 MSTORE PUSH1 0x20 PUSH1 0x0 KECCAK256 SWAP3 PUSH1 0x0 JUMPDEST DUP2 DUP2 LT PUSH2 0xAA9 JUMPI POP DUP5 GT PUSH2 0xA90 JUMPI JUMPDEST POP POP POP DUP2 SHL ADD PUSH1 0x2 DUP3 ADD SSTORE PUSH2 0x8F6 JUMP JUMPDEST ADD MLOAD PUSH1 0x0 NOT PUSH1 0xF8 DUP5 PUSH1 0x3 SHL AND SHR NOT AND SWAP1 SSTORE DUP9 DUP1 DUP1 PUSH2 0xA80 JUMP JUMPDEST DUP3 DUP5 ADD MLOAD DUP6 SSTORE DUP13 SWAP7 SWAP1 SWAP5 ADD SWAP4 PUSH1 0x20 SWAP4 DUP5 ADD SWAP4 ADD PUSH2 0xA71 JUMP JUMPDEST SWAP1 SWAP2 POP PUSH1 0x2 DUP5 ADD PUSH1 0x0 MSTORE PUSH1 0x20 PUSH1 0x0 KECCAK256 PUSH1 0x1F DUP5 ADD PUSH1 0x5 SHR DUP2 ADD SWAP2 PUSH1 0x20 DUP6 LT PUSH2 0xB0F JUMPI JUMPDEST DUP5 SWAP4 SWAP3 SWAP2 PUSH1 0x1F DUP13 SWAP3 ADD PUSH1 0x5 SHR ADD SWAP2 JUMPDEST DUP3 DUP2 LT PUSH2 0xB00 JUMPI POP POP PUSH2 0x8C8 JUMP JUMPDEST PUSH1 0x0 DUP2 SSTORE DUP6 SWAP5 POP DUP12 SWAP2 ADD PUSH2 0xAF2 JUMP JUMPDEST SWAP1 SWAP2 POP DUP2 SWAP1 PUSH2 0xAE3 JUMP JUMPDEST PUSH4 0x4E487B71 PUSH1 0xE0 SHL PUSH1 0x0 MSTORE PUSH1 0x41 PUSH1 0x4 MSTORE PUSH1 0x24 PUSH1 0x0 REVERT JUMPDEST CALLVALUE PUSH2 0x2DE JUMPI PUSH1 0x40 CALLDATASIZE PUSH1 0x3 NOT ADD SLT PUSH2 0x2DE JUMPI PUSH2 0xB48 PUSH2 0x1D52 JUMP JUMPDEST PUSH2 0xB50 PUSH2 0x2262 JUMP JUMPDEST PUSH2 0xB5C GASPRICE PUSH1 0x24 CALLDATALOAD PUSH2 0x2069 JUMP JUMPDEST SWAP1 PUSH1 0xB SLOAD DUP1 DUP4 GT PUSH2 0xC3B JUMPI JUMPDEST POP PUSH1 0xA SLOAD DUP1 DUP4 GT PUSH2 0xC33 JUMPI JUMPDEST DUP3 PUSH2 0xB7B JUMPI STOP JUMPDEST DUP3 PUSH2 0xB85 SWAP2 PUSH2 0x1FC4 JUMP JUMPDEST PUSH1 0xA SSTORE PUSH1 0x1 DUP1 PUSH1 0xA0 SHL SUB AND SWAP1 DUP2 PUSH1 0x0 MSTORE PUSH1 0xC PUSH1 0x20 MSTORE PUSH1 0x40 PUSH1 0x0 KECCAK256 PUSH2 0xBAA DUP3 DUP3 SLOAD PUSH2 0x1F6B JUMP JUMPDEST SWAP1 SSTORE PUSH1 0x0 DUP1 DUP1 DUP1 DUP5 DUP7 GAS CALL PUSH2 0xBBD PUSH2 0x1F94 JUMP JUMPDEST POP ISZERO PUSH2 0xBF7 JUMPI PUSH1 0x40 PUSH32 0x5FC1E14C18E85D0603C37D2759F24A4F00FE4454E0A0B2566DF29785F4810D29 SWAP2 PUSH1 0xA SLOAD DUP3 MLOAD SWAP2 DUP3 MSTORE PUSH1 0x20 DUP3 ADD MSTORE LOG2 STOP JUMPDEST PUSH1 0x40 MLOAD PUSH3 0x461BCD PUSH1 0xE5 SHL DUP2 MSTORE PUSH1 0x20 PUSH1 0x4 DUP3 ADD MSTORE PUSH1 0x14 PUSH1 0x24 DUP3 ADD MSTORE PUSH20 0x14995A5B589D5C9CD95B595B9D0819985A5B1959 PUSH1 0x62 SHL PUSH1 0x44 DUP3 ADD MSTORE PUSH1 0x64 SWAP1 REVERT JUMPDEST SWAP2 POP DUP2 PUSH2 0xB74 JUMP JUMPDEST SWAP2 POP DUP3 PUSH2 0xB68 JUMP JUMPDEST CALLVALUE PUSH2 0x2DE JUMPI PUSH1 0x20 DUP1 PUSH1 0x3 NOT CALLDATASIZE ADD SLT PUSH2 0x2DE JUMPI PUSH1 0x4 CALLDATALOAD SWAP1 PUSH2 0xC61 PUSH2 0x2218 JUMP JUMPDEST PUSH2 0xC6E PUSH1 0x6 SLOAD DUP4 LT PUSH2 0x1FD1 JUMP JUMPDEST DUP2 PUSH1 0x0 MSTORE PUSH1 0xD DUP2 MSTORE PUSH2 0xC8B PUSH1 0xFF PUSH1 0x3 PUSH1 0x40 PUSH1 0x0 KECCAK256 ADD SLOAD AND ISZERO PUSH2 0x201D JUMP JUMPDEST DUP2 PUSH1 0x0 MSTORE PUSH1 0xE DUP2 MSTORE PUSH1 0x40 PUSH1 0x0 KECCAK256 CALLER PUSH1 0x0 MSTORE DUP2 MSTORE PUSH1 0xFF PUSH1 0x40 PUSH1 0x0 KECCAK256 SLOAD AND PUSH2 0xD13 JUMPI PUSH1 0xD SWAP1 DUP3 PUSH1 0x0 MSTORE PUSH1 0xE DUP2 MSTORE PUSH1 0x40 PUSH1 0x0 KECCAK256 CALLER PUSH1 0x0 MSTORE DUP2 MSTORE PUSH1 0x40 PUSH1 0x0 KECCAK256 PUSH1 0x1 PUSH1 0xFF NOT DUP3 SLOAD AND OR SWAP1 SSTORE DUP3 PUSH1 0x0 MSTORE MSTORE PUSH1 0x4 PUSH1 0x40 PUSH1 0x0 KECCAK256 ADD PUSH2 0xCE8 DUP2 SLOAD PUSH2 0x218E JUMP JUMPDEST SWAP1 SSTORE CALLER SWAP1 PUSH32 0x15C2F311C9E0F53B50388279894AEFF029A3457884A6601E924FCA879E12ADCC PUSH1 0x0 DUP1 LOG3 STOP JUMPDEST PUSH1 0x64 SWAP1 PUSH1 0x40 MLOAD SWAP1 PUSH3 0x461BCD PUSH1 0xE5 SHL DUP3 MSTORE PUSH1 0x4 DUP3 ADD MSTORE PUSH1 0x11 PUSH1 0x24 DUP3 ADD MSTORE PUSH17 0x105B1C9958591E4818DBDB999A5C9B5959 PUSH1 0x7A SHL PUSH1 0x44 DUP3 ADD MSTORE REVERT JUMPDEST CALLVALUE PUSH2 0x2DE JUMPI PUSH1 0x20 CALLDATASIZE PUSH1 0x3 NOT ADD SLT PUSH2 0x2DE JUMPI PUSH1 0x1 PUSH1 0x1 PUSH1 0xA0 SHL SUB PUSH2 0xD6C PUSH2 0x1D52 JUMP JUMPDEST AND PUSH1 0x0 MSTORE PUSH1 0x9 PUSH1 0x20 MSTORE PUSH1 0x20 PUSH1 0x40 PUSH1 0x0 KECCAK256 SLOAD PUSH1 0x40 MLOAD SWAP1 DUP2 MSTORE RETURN JUMPDEST CALLVALUE PUSH2 0x2DE JUMPI PUSH1 0x0 CALLDATASIZE PUSH1 0x3 NOT ADD SLT PUSH2 0x2DE JUMPI PUSH1 0x20 PUSH1 0x6 SLOAD PUSH1 0x40 MLOAD SWAP1 DUP2 MSTORE RETURN JUMPDEST CALLVALUE PUSH2 0x2DE JUMPI PUSH1 0x0 CALLDATASIZE PUSH1 0x3 NOT ADD SLT PUSH2 0x2DE JUMPI PUSH1 0x4 SLOAD PUSH1 0x40 MLOAD PUSH1 0x1 PUSH1 0x1 PUSH1 0xA0 SHL SUB SWAP1 SWAP2 AND DUP2 MSTORE PUSH1 0x20 SWAP1 RETURN JUMPDEST CALLVALUE PUSH2 0x2DE JUMPI PUSH1 0x20 DUP1 PUSH1 0x3 NOT CALLDATASIZE ADD SLT PUSH2 0x2DE JUMPI PUSH1 0x3 SLOAD PUSH1 0x24 SWAP1 DUP3 SWAP1 PUSH1 0x1 PUSH1 0x1 PUSH1 0xA0 SHL SUB AND PUSH2 0xDFA DUP2 ISZERO ISZERO PUSH2 0x214A JUMP JUMPDEST PUSH1 0x40 MLOAD SWAP3 DUP4 DUP1 SWAP3 PUSH4 0x23A9D257 PUSH1 0xE2 SHL DUP3 MSTORE PUSH1 0x4 CALLDATALOAD PUSH1 0x4 DUP4 ADD MSTORE GAS STATICCALL SWAP1 DUP2 ISZERO PUSH2 0x73F JUMPI PUSH1 0x0 SWAP2 PUSH2 0xE2D JUMPI JUMPDEST POP PUSH1 0x40 MLOAD SWAP1 DUP2 MSTORE RETURN JUMPDEST SWAP1 POP DUP2 DUP2 DUP2 RETURNDATASIZE DUP4 GT PUSH2 0xE53 JUMPI JUMPDEST PUSH2 0xE44 DUP2 DUP4 PUSH2 0x1EFD JUMP JUMPDEST DUP2 ADD SUB SLT PUSH2 0x2DE JUMPI MLOAD DUP3 PUSH2 0xE24 JUMP JUMPDEST POP RETURNDATASIZE PUSH2 0xE3A JUMP JUMPDEST CALLVALUE PUSH2 0x2DE JUMPI PUSH1 0x20 CALLDATASIZE PUSH1 0x3 NOT ADD SLT PUSH2 0x2DE JUMPI PUSH2 0xE73 PUSH2 0x1D52 JUMP JUMPDEST PUSH2 0xE7B PUSH2 0x21C0 JUMP JUMPDEST PUSH1 0x1 PUSH1 0x1 PUSH1 0xA0 SHL SUB SWAP1 DUP2 AND SWAP1 DUP2 ISZERO PUSH2 0xECA JUMPI PUSH1 0x4 SLOAD DUP3 PUSH1 0x1 PUSH1 0x1 PUSH1 0x60 SHL SUB PUSH1 0xA0 SHL DUP3 AND OR PUSH1 0x4 SSTORE AND PUSH32 0x2BB6FA423908148A692D1326EDEB12CF0436ABF468CE271A4BE85C722B327748 PUSH1 0x0 DUP1 LOG3 STOP JUMPDEST PUSH1 0x40 MLOAD PUSH3 0x461BCD PUSH1 0xE5 SHL DUP2 MSTORE PUSH1 0x20 PUSH1 0x4 DUP3 ADD MSTORE PUSH1 0x1A PUSH1 0x24 DUP3 ADD MSTORE PUSH32 0x496E76616C696420676F7665726E616E63652061646472657373000000000000 PUSH1 0x44 DUP3 ADD MSTORE PUSH1 0x64 SWAP1 REVERT JUMPDEST CALLVALUE PUSH2 0x2DE JUMPI PUSH1 0x20 CALLDATASIZE PUSH1 0x3 NOT ADD SLT PUSH2 0x2DE JUMPI PUSH1 0x1 PUSH1 0x1 PUSH1 0xA0 SHL SUB PUSH2 0xF30 PUSH2 0x1D52 JUMP JUMPDEST AND PUSH1 0x0 MSTORE PUSH1 0x7 PUSH1 0x20 MSTORE PUSH1 0x20 PUSH1 0x40 PUSH1 0x0 KECCAK256 SLOAD PUSH1 0x40 MLOAD SWAP1 DUP2 MSTORE RETURN JUMPDEST CALLVALUE PUSH2 0x2DE JUMPI PUSH1 0x20 CALLDATASIZE PUSH1 0x3 NOT ADD SLT PUSH2 0x2DE JUMPI PUSH1 0x4 CALLDATALOAD PUSH2 0xF65 PUSH2 0x21C0 JUMP JUMPDEST PUSH8 0x16345785D8A0000 DUP2 GT PUSH2 0xFAD JUMPI PUSH1 0x40 PUSH32 0x6FF3BA4223F4D694CED77174A208557C49FD86EAD36368EB2871CEB7EB4D1EEB SWAP2 PUSH1 0xB SLOAD SWAP1 DUP1 PUSH1 0xB SSTORE DUP3 MLOAD SWAP2 DUP3 MSTORE PUSH1 0x20 DUP3 ADD MSTORE LOG1 STOP JUMPDEST PUSH1 0x40 MLOAD PUSH3 0x461BCD PUSH1 0xE5 SHL DUP2 MSTORE PUSH1 0x20 PUSH1 0x4 DUP3 ADD MSTORE PUSH1 0xC PUSH1 0x24 DUP3 ADD MSTORE PUSH12 0x9AC2F040E8DEDE40D0D2CED PUSH1 0xA3 SHL PUSH1 0x44 DUP3 ADD MSTORE PUSH1 0x64 SWAP1 REVERT JUMPDEST CALLVALUE PUSH2 0x2DE JUMPI PUSH1 0x0 CALLDATASIZE PUSH1 0x3 NOT ADD SLT PUSH2 0x2DE JUMPI PUSH1 0x2 SLOAD PUSH1 0x40 MLOAD PUSH1 0x1 PUSH1 0x1 PUSH1 0xA0 SHL SUB SWAP1 SWAP2 AND DUP2 MSTORE PUSH1 0x20 SWAP1 RETURN JUMPDEST CALLVALUE PUSH2 0x2DE JUMPI PUSH1 0x0 CALLDATASIZE PUSH1 0x3 NOT ADD SLT PUSH2 0x2DE JUMPI PUSH1 0x20 PUSH1 0x40 MLOAD PUSH1 0x0 DUP2 MSTORE RETURN JUMPDEST CALLVALUE PUSH2 0x2DE JUMPI PUSH1 0x0 CALLDATASIZE PUSH1 0x3 NOT ADD SLT PUSH2 0x2DE JUMPI PUSH1 0x20 PUSH1 0x40 MLOAD PUSH1 0x0 DUP1 MLOAD PUSH1 0x20 PUSH2 0x2507 DUP4 CODECOPY DUP2 MLOAD SWAP2 MSTORE DUP2 MSTORE RETURN JUMPDEST CALLVALUE PUSH2 0x2DE JUMPI PUSH1 0x20 CALLDATASIZE PUSH1 0x3 NOT ADD SLT PUSH2 0x2DE JUMPI PUSH1 0x4 CALLDATALOAD PUSH1 0x0 MSTORE PUSH1 0xD PUSH1 0x20 MSTORE PUSH1 0x40 PUSH1 0x0 KECCAK256 PUSH1 0x1 DUP1 PUSH1 0xA0 SHL SUB DUP2 SLOAD AND PUSH2 0x4AB PUSH1 0x1 DUP4 ADD SLOAD SWAP3 PUSH1 0x40 MLOAD SWAP1 PUSH2 0x109F DUP3 PUSH2 0x1098 DUP2 PUSH1 0x2 DUP6 ADD PUSH2 0x1E67 JUMP JUMPDEST SUB DUP4 PUSH2 0x1EFD JUMP JUMPDEST PUSH1 0x4 PUSH1 0xFF PUSH1 0x3 DUP4 ADD SLOAD AND SWAP2 ADD SLOAD SWAP2 PUSH1 0x40 MLOAD SWAP6 DUP7 SWAP6 DUP7 PUSH2 0x1DC6 JUMP JUMPDEST CALLVALUE PUSH2 0x2DE JUMPI PUSH1 0x40 CALLDATASIZE PUSH1 0x3 NOT ADD SLT PUSH2 0x2DE JUMPI PUSH2 0x10D2 PUSH2 0x1D68 JUMP JUMPDEST PUSH1 0x4 CALLDATALOAD PUSH1 0x0 MSTORE PUSH1 0x0 PUSH1 0x20 MSTORE PUSH1 0x40 PUSH1 0x0 KECCAK256 SWAP1 PUSH1 0x1 DUP1 PUSH1 0xA0 SHL SUB AND PUSH1 0x0 MSTORE PUSH1 0x20 MSTORE PUSH1 0x20 PUSH1 0xFF PUSH1 0x40 PUSH1 0x0 KECCAK256 SLOAD AND PUSH1 0x40 MLOAD SWAP1 ISZERO ISZERO DUP2 MSTORE RETURN JUMPDEST CALLVALUE PUSH2 0x2DE JUMPI PUSH1 0x0 CALLDATASIZE PUSH1 0x3 NOT ADD SLT PUSH2 0x2DE JUMPI PUSH1 0x20 PUSH1 0x40 MLOAD PUSH1 0x64 DUP2 MSTORE RETURN JUMPDEST CALLVALUE PUSH2 0x2DE JUMPI PUSH1 0x0 CALLDATASIZE PUSH1 0x3 NOT ADD SLT PUSH2 0x2DE JUMPI PUSH1 0x20 PUSH1 0x5 SLOAD PUSH1 0x40 MLOAD SWAP1 DUP2 MSTORE RETURN JUMPDEST CALLVALUE PUSH2 0x2DE JUMPI PUSH1 0x40 CALLDATASIZE PUSH1 0x3 NOT ADD SLT PUSH2 0x2DE JUMPI PUSH2 0x1159 PUSH2 0x1D68 JUMP JUMPDEST PUSH1 0x4 CALLDATALOAD PUSH1 0x0 MSTORE PUSH1 0xE PUSH1 0x20 MSTORE PUSH1 0x40 PUSH1 0x0 KECCAK256 SWAP1 PUSH1 0x1 DUP1 PUSH1 0xA0 SHL SUB AND PUSH1 0x0 MSTORE PUSH1 0x20 MSTORE PUSH1 0x20 PUSH1 0xFF PUSH1 0x40 PUSH1 0x0 KECCAK256 SLOAD AND PUSH1 0x40 MLOAD SWAP1 ISZERO ISZERO DUP2 MSTORE RETURN JUMPDEST CALLVALUE PUSH2 0x2DE JUMPI PUSH1 0x20 CALLDATASIZE PUSH1 0x3 NOT ADD SLT PUSH2 0x2DE JUMPI PUSH2 0x11A6 PUSH2 0x1D52 JUMP JUMPDEST PUSH2 0x11AE PUSH2 0x21C0 JUMP JUMPDEST PUSH1 0x1 PUSH1 0x1 PUSH1 0xA0 SHL SUB SWAP1 DUP2 AND SWAP1 DUP2 ISZERO PUSH2 0x11FD JUMPI PUSH1 0x2 SLOAD DUP3 PUSH1 0x1 PUSH1 0x1 PUSH1 0x60 SHL SUB PUSH1 0xA0 SHL DUP3 AND OR PUSH1 0x2 SSTORE AND PUSH32 0x8FDE258C62BAE775E2F2A12F222AA115ECD71CA13947381EC3122D23DCA37D6D PUSH1 0x0 DUP1 LOG3 STOP JUMPDEST PUSH1 0x40 MLOAD PUSH3 0x461BCD PUSH1 0xE5 SHL DUP2 MSTORE PUSH1 0x20 PUSH1 0x4 DUP3 ADD MSTORE PUSH1 0x16 PUSH1 0x24 DUP3 ADD MSTORE PUSH22 0x125B9D985B1A5908199BDD5B99195C881DD85B1B195D PUSH1 0x52 SHL PUSH1 0x44 DUP3 ADD MSTORE PUSH1 0x64 SWAP1 REVERT JUMPDEST CALLVALUE PUSH2 0x2DE JUMPI PUSH1 0x20 CALLDATASIZE PUSH1 0x3 NOT ADD SLT PUSH2 0x2DE JUMPI PUSH1 0x4 CALLDATALOAD PUSH2 0x1257 PUSH2 0x21C0 JUMP JUMPDEST DUP1 ISZERO PUSH2 0x12F5 JUMPI PUSH1 0xA DUP2 GT PUSH2 0x129E JUMPI PUSH1 0x40 PUSH32 0x9A71F52A6CF1D6A0A676A538D4131E624FBE0F9146D1CA1C7A31FDA3DB8C37F7 SWAP2 PUSH1 0x5 SLOAD SWAP1 DUP1 PUSH1 0x5 SSTORE DUP3 MLOAD SWAP2 DUP3 MSTORE PUSH1 0x20 DUP3 ADD MSTORE LOG1 STOP JUMPDEST PUSH1 0x40 MLOAD PUSH3 0x461BCD PUSH1 0xE5 SHL DUP2 MSTORE PUSH1 0x20 PUSH1 0x4 DUP3 ADD MSTORE PUSH1 0x29 PUSH1 0x24 DUP3 ADD MSTORE PUSH32 0x43616E6E6F742072657175697265206D6F7265207468616E20313020636F6E66 PUSH1 0x44 DUP3 ADD MSTORE PUSH9 0x69726D6174696F6E73 PUSH1 0xB8 SHL PUSH1 0x64 DUP3 ADD MSTORE PUSH1 0x84 SWAP1 REVERT JUMPDEST PUSH1 0x40 MLOAD PUSH3 0x461BCD PUSH1 0xE5 SHL DUP2 MSTORE PUSH1 0x20 PUSH1 0x4 DUP3 ADD MSTORE PUSH1 0x24 DUP1 DUP3 ADD MSTORE PUSH32 0x4D7573742072657175697265206174206C65617374203120636F6E6669726D61 PUSH1 0x44 DUP3 ADD MSTORE PUSH4 0x3A34B7B7 PUSH1 0xE1 SHL PUSH1 0x64 DUP3 ADD MSTORE PUSH1 0x84 SWAP1 REVERT JUMPDEST CALLVALUE PUSH2 0x2DE JUMPI PUSH1 0x20 CALLDATASIZE PUSH1 0x3 NOT ADD SLT PUSH2 0x2DE JUMPI PUSH1 0x1 PUSH1 0x1 PUSH1 0xA0 SHL SUB PUSH2 0x1367 PUSH2 0x1D52 JUMP JUMPDEST AND PUSH1 0x0 MSTORE PUSH1 0xC PUSH1 0x20 MSTORE PUSH1 0x20 PUSH1 0x40 PUSH1 0x0 KECCAK256 SLOAD PUSH1 0x40 MLOAD SWAP1 DUP2 MSTORE RETURN JUMPDEST CALLVALUE PUSH2 0x2DE JUMPI PUSH1 0x20 CALLDATASIZE PUSH1 0x3 NOT ADD SLT PUSH2 0x2DE JUMPI PUSH2 0x1399 PUSH2 0x1D52 JUMP JUMPDEST PUSH2 0x13A1 PUSH2 0x21C0 JUMP JUMPDEST PUSH1 0x1 PUSH1 0x1 PUSH1 0xA0 SHL SUB SWAP1 DUP2 AND SWAP1 DUP2 ISZERO PUSH2 0x13F0 JUMPI PUSH1 0x3 SLOAD DUP3 PUSH1 0x1 PUSH1 0x1 PUSH1 0x60 SHL SUB PUSH1 0xA0 SHL DUP3 AND OR PUSH1 0x3 SSTORE AND PUSH32 0xE108CF8F8B301F7954568E77EBD0B1215523268A978E34BC9CC1A60B6ABF78E6 PUSH1 0x0 DUP1 LOG3 STOP JUMPDEST PUSH1 0x40 MLOAD PUSH3 0x461BCD PUSH1 0xE5 SHL DUP2 MSTORE PUSH1 0x20 PUSH1 0x4 DUP3 ADD MSTORE PUSH1 0x16 PUSH1 0x24 DUP3 ADD MSTORE PUSH22 0x496E76616C6964206F7261636C652061646472657373 PUSH1 0x50 SHL PUSH1 0x44 DUP3 ADD MSTORE PUSH1 0x64 SWAP1 REVERT JUMPDEST CALLVALUE PUSH2 0x2DE JUMPI PUSH1 0x80 CALLDATASIZE PUSH1 0x3 NOT ADD SLT PUSH2 0x2DE JUMPI PUSH2 0x1447 PUSH2 0x1D52 JUMP JUMPDEST PUSH1 0x24 CALLDATALOAD SWAP1 PUSH8 0xFFFFFFFFFFFFFFFF PUSH1 0x44 CALLDATALOAD DUP2 DUP2 GT PUSH2 0x2DE JUMPI PUSH2 0x146C SWAP1 CALLDATASIZE SWAP1 PUSH1 0x4 ADD PUSH2 0x1DFF JUMP JUMPDEST SWAP2 SWAP1 PUSH1 0x64 CALLDATALOAD SWAP5 PUSH2 0x147A PUSH2 0x2262 JUMP JUMPDEST PUSH2 0x1482 PUSH2 0x219D JUMP JUMPDEST PUSH2 0x148E DUP2 SELFBALANCE LT ISZERO PUSH2 0x1F1F JUMP JUMPDEST PUSH1 0x64 DUP2 MUL DUP2 DUP2 DIV PUSH1 0x64 EQ DUP3 ISZERO OR ISZERO PUSH2 0x2C8 JUMPI PUSH1 0x4 SLOAD PUSH2 0x2710 SWAP1 SWAP2 DIV SWAP7 PUSH1 0x1 PUSH1 0x1 PUSH1 0xA0 SHL SUB SWAP5 DUP9 SWAP3 DUP7 AND DUP1 PUSH2 0x15EA JUMPI JUMPDEST POP POP POP PUSH2 0x14C9 SWAP2 PUSH2 0x1FC4 JUMP JUMPDEST SWAP5 DUP1 PUSH2 0x159C JUMPI JUMPDEST POP PUSH1 0x0 DUP1 PUSH1 0x40 MLOAD DUP6 DUP5 DUP3 CALLDATACOPY DUP1 DUP7 DUP2 ADD DUP4 DUP2 MSTORE SUB SWAP1 DUP9 DUP9 GAS CALL SWAP4 PUSH2 0x14F1 PUSH2 0x1F94 JUMP JUMPDEST SWAP5 ISZERO PUSH2 0x1569 JUMPI PUSH2 0x4AB SWAP6 PUSH32 0xCAF938DE11C367272220BFD1D2BAA99CA46665E7BC4D85F00ADB51B90FE1FA9F SWAP4 PUSH1 0x60 SWAP3 DUP7 PUSH1 0x40 MLOAD SWAP6 DUP7 SWAP5 DUP6 MSTORE PUSH1 0x40 PUSH1 0x20 DUP7 ADD MSTORE DUP2 PUSH1 0x40 DUP7 ADD MSTORE DUP6 DUP6 ADD CALLDATACOPY PUSH1 0x0 DUP4 DUP9 ADD DUP6 ADD MSTORE AND SWAP5 PUSH1 0x1F ADD PUSH1 0x1F NOT AND DUP2 ADD SUB ADD SWAP1 LOG2 PUSH1 0x1 DUP1 SSTORE PUSH1 0x40 MLOAD SWAP2 DUP3 SWAP2 PUSH1 0x20 DUP4 MSTORE PUSH1 0x20 DUP4 ADD SWAP1 PUSH2 0x1DA1 JUMP JUMPDEST PUSH1 0x40 MLOAD PUSH3 0x461BCD PUSH1 0xE5 SHL DUP2 MSTORE PUSH1 0x20 PUSH1 0x4 DUP3 ADD MSTORE PUSH1 0xB PUSH1 0x24 DUP3 ADD MSTORE PUSH11 0x10D85B1B0819985A5B1959 PUSH1 0xAA SHL PUSH1 0x44 DUP3 ADD MSTORE PUSH1 0x64 SWAP1 REVERT JUMPDEST PUSH2 0x15B4 PUSH1 0x0 DUP1 DUP1 DUP1 DUP6 DUP9 PUSH1 0x2 SLOAD AND GAS CALL PUSH2 0x586 PUSH2 0x1F94 JUMP JUMPDEST PUSH32 0xB45DF24DE5D27F6414D5FB15009502C7F77909DC68CE75448B60A4A71640E270 PUSH1 0x20 DUP5 PUSH1 0x2 SLOAD AND SWAP3 PUSH1 0x40 MLOAD SWAP1 DUP2 MSTORE LOG2 DUP6 PUSH2 0x14D0 JUMP JUMPDEST PUSH1 0x24 SWAP4 POP PUSH1 0x0 SWAP1 PUSH1 0x40 MLOAD SWAP5 DUP6 DUP1 SWAP3 PUSH4 0x25425151 PUSH1 0xE2 SHL DUP3 MSTORE DUP7 PUSH1 0x4 DUP4 ADD MSTORE GAS STATICCALL SWAP3 DUP4 ISZERO PUSH2 0x73F JUMPI PUSH1 0x0 SWAP4 PUSH2 0x1668 JUMPI JUMPDEST POP POP PUSH1 0x46 DUP3 LT PUSH2 0x162C JUMPI JUMPDEST DUP1 DUP9 SWAP3 PUSH2 0x14BD JUMP JUMPDEST PUSH1 0x20 SWAP8 POP SWAP2 PUSH2 0x14C9 SWAP3 PUSH32 0x602C0E3AF2AF2BB1DF1D57F7BB78B2CBC3D25D83FA10AD81A84D5C0519AF51BF PUSH1 0x0 SWAP10 DUP11 SWAP5 PUSH1 0x40 MLOAD SWAP1 DUP2 MSTORE LOG2 SWAP2 PUSH2 0x1624 JUMP JUMPDEST SWAP1 SWAP2 SWAP3 POP RETURNDATASIZE DUP1 PUSH1 0x0 DUP4 RETURNDATACOPY PUSH2 0x167C DUP2 DUP4 PUSH2 0x1EFD JUMP JUMPDEST DUP2 ADD SWAP2 PUSH1 0x40 DUP3 DUP5 SUB SLT PUSH2 0x2DE JUMPI DUP2 MLOAD SWAP1 DUP2 GT PUSH2 0x2DE JUMPI DUP2 ADD SWAP2 DUP1 PUSH1 0x1F DUP5 ADD SLT ISZERO PUSH2 0x2DE JUMPI DUP3 MLOAD PUSH2 0x16AB DUP2 PUSH2 0x1F78 JUMP JUMPDEST SWAP2 PUSH2 0x16B9 PUSH1 0x40 MLOAD SWAP4 DUP5 PUSH2 0x1EFD JUMP JUMPDEST DUP2 DUP4 MSTORE PUSH1 0x20 DUP3 DUP7 ADD ADD GT PUSH2 0x2DE JUMPI PUSH1 0x20 SWAP4 DUP5 DUP1 PUSH2 0x16D8 SWAP5 ADD SWAP2 ADD PUSH2 0x1D7E JUMP JUMPDEST ADD MLOAD SWAP1 DUP9 DUP1 PUSH2 0x1619 JUMP JUMPDEST CALLVALUE PUSH2 0x2DE JUMPI PUSH1 0x20 CALLDATASIZE PUSH1 0x3 NOT ADD SLT PUSH2 0x2DE JUMPI PUSH1 0x20 PUSH2 0x1705 PUSH2 0x1700 PUSH2 0x1D52 JUMP JUMPDEST PUSH2 0x207C JUMP JUMPDEST PUSH1 0x40 MLOAD SWAP1 DUP2 MSTORE RETURN JUMPDEST PUSH1 0x0 CALLDATASIZE PUSH1 0x3 NOT ADD SLT PUSH2 0x2DE JUMPI PUSH32 0x19A5C5590F6A234A92047E9B565EE9A2E8D9D83DB89B9AC1622A6D6E170470EE PUSH1 0x40 PUSH2 0x1748 CALLVALUE PUSH1 0xA SLOAD PUSH2 0x1F6B JUMP JUMPDEST DUP1 PUSH1 0xA SSTORE DUP2 MLOAD SWAP1 CALLVALUE DUP3 MSTORE PUSH1 0x20 DUP3 ADD MSTORE LOG1 STOP JUMPDEST CALLVALUE PUSH2 0x2DE JUMPI PUSH1 0x0 CALLDATASIZE PUSH1 0x3 NOT ADD SLT PUSH2 0x2DE JUMPI PUSH1 0x20 PUSH1 0x40 MLOAD PUSH3 0x76A700 DUP2 MSTORE RETURN JUMPDEST CALLVALUE PUSH2 0x2DE JUMPI PUSH1 0x0 CALLDATASIZE PUSH1 0x3 NOT ADD SLT PUSH2 0x2DE JUMPI PUSH1 0x20 PUSH1 0xB SLOAD PUSH1 0x40 MLOAD SWAP1 DUP2 MSTORE RETURN JUMPDEST CALLVALUE PUSH2 0x2DE JUMPI PUSH1 0x40 CALLDATASIZE PUSH1 0x3 NOT ADD SLT PUSH2 0x2DE JUMPI PUSH2 0x17AF PUSH2 0x1D68 JUMP JUMPDEST CALLER PUSH1 0x1 PUSH1 0x1 PUSH1 0xA0 SHL SUB DUP3 AND SUB PUSH2 0x17CB JUMPI PUSH2 0x1B SWAP1 PUSH1 0x4 CALLDATALOAD PUSH2 0x237D JUMP JUMPDEST PUSH1 0x40 MLOAD PUSH4 0x334BD919 PUSH1 0xE1 SHL DUP2 MSTORE PUSH1 0x4 SWAP1 REVERT JUMPDEST CALLVALUE PUSH2 0x2DE JUMPI PUSH1 0x20 CALLDATASIZE PUSH1 0x3 NOT ADD SLT PUSH2 0x2DE JUMPI PUSH1 0x4 CALLDATALOAD PUSH1 0x0 MSTORE PUSH1 0xD PUSH1 0x20 MSTORE PUSH1 0x40 PUSH1 0x0 KECCAK256 PUSH1 0x1 DUP1 PUSH1 0xA0 SHL SUB DUP2 SLOAD AND PUSH2 0x4AB PUSH1 0x1 DUP4 ADD SLOAD SWAP3 PUSH1 0xFF PUSH1 0x3 DUP3 ADD SLOAD AND PUSH1 0x2 PUSH2 0x183B PUSH1 0x4 DUP5 ADD SLOAD SWAP4 PUSH2 0x1834 PUSH1 0x40 MLOAD DUP1 SWAP5 DUP2 SWAP4 ADD PUSH2 0x1E67 JUMP JUMPDEST SUB DUP3 PUSH2 0x1EFD JUMP JUMPDEST PUSH1 0x40 MLOAD SWAP6 DUP7 SWAP6 DUP7 PUSH2 0x1DC6 JUMP JUMPDEST CALLVALUE PUSH2 0x2DE JUMPI PUSH1 0x40 CALLDATASIZE PUSH1 0x3 NOT ADD SLT PUSH2 0x2DE JUMPI PUSH2 0x1B PUSH1 0x4 CALLDATALOAD PUSH2 0x1866 PUSH2 0x1D68 JUMP JUMPDEST SWAP1 DUP1 PUSH1 0x0 MSTORE PUSH1 0x0 PUSH1 0x20 MSTORE PUSH2 0x1881 PUSH1 0x1 PUSH1 0x40 PUSH1 0x0 KECCAK256 ADD SLOAD PUSH2 0x22BE JUMP JUMPDEST PUSH2 0x248D JUMP JUMPDEST CALLVALUE PUSH2 0x2DE JUMPI PUSH1 0x20 CALLDATASIZE PUSH1 0x3 NOT ADD SLT PUSH2 0x2DE JUMPI PUSH1 0x4 CALLDATALOAD PUSH2 0x18A2 PUSH2 0x21C0 JUMP JUMPDEST PUSH2 0x18AA PUSH2 0x219D JUMP JUMPDEST DUP1 SELFBALANCE LT PUSH2 0x1905 JUMPI PUSH1 0x0 DUP1 DUP1 DUP1 SWAP4 CALLER GAS CALL PUSH2 0x18C2 PUSH2 0x1F94 JUMP JUMPDEST POP ISZERO PUSH2 0x18CE JUMPI PUSH1 0x1 DUP1 SSTORE STOP JUMPDEST PUSH1 0x40 MLOAD PUSH3 0x461BCD PUSH1 0xE5 SHL DUP2 MSTORE PUSH1 0x20 PUSH1 0x4 DUP3 ADD MSTORE PUSH1 0xF PUSH1 0x24 DUP3 ADD MSTORE PUSH15 0x15DA5D1A191C985DC819985A5B1959 PUSH1 0x8A SHL PUSH1 0x44 DUP3 ADD MSTORE PUSH1 0x64 SWAP1 REVERT JUMPDEST PUSH1 0x40 MLOAD PUSH3 0x461BCD PUSH1 0xE5 SHL DUP2 MSTORE PUSH1 0x20 PUSH1 0x4 DUP3 ADD MSTORE PUSH1 0x14 PUSH1 0x24 DUP3 ADD MSTORE PUSH20 0x496E73756666696369656E742062616C616E6365 PUSH1 0x60 SHL PUSH1 0x44 DUP3 ADD MSTORE PUSH1 0x64 SWAP1 REVERT JUMPDEST CALLVALUE PUSH2 0x2DE JUMPI PUSH1 0x20 CALLDATASIZE PUSH1 0x3 NOT ADD SLT PUSH2 0x2DE JUMPI PUSH1 0x4 CALLDATALOAD PUSH1 0x0 MSTORE PUSH1 0x0 PUSH1 0x20 MSTORE PUSH1 0x20 PUSH1 0x1 PUSH1 0x40 PUSH1 0x0 KECCAK256 ADD SLOAD PUSH1 0x40 MLOAD SWAP1 DUP2 MSTORE RETURN JUMPDEST CALLVALUE PUSH2 0x2DE JUMPI PUSH1 0x20 DUP1 PUSH1 0x3 NOT CALLDATASIZE ADD SLT PUSH2 0x2DE JUMPI PUSH1 0x4 CALLDATALOAD SWAP1 PUSH2 0x198E PUSH2 0x2218 JUMP JUMPDEST PUSH2 0x199B PUSH1 0x6 SLOAD DUP4 LT PUSH2 0x1FD1 JUMP JUMPDEST DUP2 PUSH1 0x0 MSTORE PUSH1 0xD DUP2 MSTORE PUSH2 0x19B8 PUSH1 0xFF PUSH1 0x3 PUSH1 0x40 PUSH1 0x0 KECCAK256 ADD SLOAD AND ISZERO PUSH2 0x201D JUMP JUMPDEST DUP2 PUSH1 0x0 MSTORE PUSH1 0xE DUP2 MSTORE PUSH1 0x40 PUSH1 0x0 KECCAK256 CALLER PUSH1 0x0 MSTORE DUP2 MSTORE PUSH1 0xFF PUSH1 0x40 PUSH1 0x0 KECCAK256 SLOAD AND ISZERO PUSH2 0x1A40 JUMPI PUSH1 0xD SWAP1 DUP3 PUSH1 0x0 MSTORE PUSH1 0xE DUP2 MSTORE PUSH1 0x40 PUSH1 0x0 KECCAK256 CALLER PUSH1 0x0 MSTORE DUP2 MSTORE PUSH1 0x40 PUSH1 0x0 KECCAK256 PUSH1 0xFF NOT DUP2 SLOAD AND SWAP1 SSTORE DUP3 PUSH1 0x0 MSTORE MSTORE PUSH1 0x4 PUSH1 0x40 PUSH1 0x0 KECCAK256 ADD DUP1 SLOAD DUP1 ISZERO PUSH2 0x2C8 JUMPI PUSH1 0x0 NOT ADD SWAP1 SSTORE CALLER SWAP1 PUSH32 0x4CD471041F6B9FF47536A54A3D3AB62D0FA9DD5E36C0418B294B1673ACB31881 PUSH1 0x0 DUP1 LOG3 STOP JUMPDEST PUSH1 0x64 SWAP1 PUSH1 0x40 MLOAD SWAP1 PUSH3 0x461BCD PUSH1 0xE5 SHL DUP3 MSTORE PUSH1 0x4 DUP3 ADD MSTORE PUSH1 0xD PUSH1 0x24 DUP3 ADD MSTORE PUSH13 0x139BDD0818DBDB999A5C9B5959 PUSH1 0x9A SHL PUSH1 0x44 DUP3 ADD MSTORE REVERT JUMPDEST CALLVALUE PUSH2 0x2DE JUMPI PUSH1 0x0 CALLDATASIZE PUSH1 0x3 NOT ADD SLT PUSH2 0x2DE JUMPI PUSH1 0x20 SELFBALANCE PUSH1 0x40 MLOAD SWAP1 DUP2 MSTORE RETURN JUMPDEST CALLVALUE PUSH2 0x2DE JUMPI PUSH1 0x20 CALLDATASIZE PUSH1 0x3 NOT ADD SLT PUSH2 0x2DE JUMPI PUSH2 0x1AA9 PUSH2 0x1D52 JUMP JUMPDEST PUSH2 0x1AB1 PUSH2 0x21C0 JUMP JUMPDEST PUSH2 0x1ABA DUP2 PUSH2 0x22E4 JUMP JUMPDEST POP PUSH1 0x1 PUSH1 0x1 PUSH1 0xA0 SHL SUB AND PUSH32 0x3525E22824A8A7DF2C9A6029941C824CF95B6447F1E13D5128FD3826D35AFE8B PUSH1 0x0 DUP1 LOG2 STOP JUMPDEST CALLVALUE PUSH2 0x2DE JUMPI PUSH1 0x0 CALLDATASIZE PUSH1 0x3 NOT ADD SLT PUSH2 0x2DE JUMPI PUSH1 0x20 PUSH1 0x40 MLOAD PUSH32 0xD8AA0F3194971A2A116679F7C2090F6939C8D4E01A2A8D7E41D55E5351469E63 DUP2 MSTORE RETURN JUMPDEST CALLVALUE PUSH2 0x2DE JUMPI PUSH1 0x0 CALLDATASIZE PUSH1 0x3 NOT ADD SLT PUSH2 0x2DE JUMPI PUSH2 0x1B3F PUSH2 0x219D JUMP JUMPDEST PUSH1 0x2 SLOAD PUSH1 0x1 PUSH1 0x1 PUSH1 0xA0 SHL SUB AND CALLER SUB PUSH2 0x1C67 JUMPI PUSH2 0x1B5A CALLER PUSH2 0x207C JUMP JUMPDEST DUP1 ISZERO PUSH2 0x1C2F JUMPI PUSH2 0x1B6C DUP2 SELFBALANCE LT ISZERO PUSH2 0x1F1F JUMP JUMPDEST CALLER PUSH1 0x0 MSTORE PUSH1 0x9 PUSH1 0x20 MSTORE PUSH1 0x40 PUSH1 0x0 KECCAK256 PUSH2 0x1B85 DUP3 DUP3 SLOAD PUSH2 0x1F6B JUMP JUMPDEST SWAP1 SSTORE PUSH1 0x0 DUP1 DUP1 DUP1 DUP5 CALLER GAS CALL PUSH2 0x1B98 PUSH2 0x1F94 JUMP JUMPDEST POP ISZERO PUSH2 0x1BF8 JUMPI CALLER PUSH1 0x0 MSTORE PUSH1 0x7 PUSH1 0x20 MSTORE PUSH2 0x1BC1 PUSH1 0x40 PUSH1 0x0 KECCAK256 SLOAD PUSH1 0x9 PUSH1 0x20 MSTORE PUSH1 0x40 PUSH1 0x0 KECCAK256 SLOAD SWAP1 PUSH2 0x1FC4 JUMP JUMPDEST PUSH1 0x40 MLOAD SWAP2 DUP3 MSTORE PUSH1 0x20 DUP3 ADD MSTORE PUSH32 0x2A802E837FC4C908F2771B54AFA67BB6B29094584706495B8DD12E8DB55FC887 PUSH1 0x40 CALLER SWAP3 LOG2 PUSH1 0x1 DUP1 SSTORE STOP JUMPDEST PUSH1 0x40 MLOAD PUSH3 0x461BCD PUSH1 0xE5 SHL DUP2 MSTORE PUSH1 0x20 PUSH1 0x4 DUP3 ADD MSTORE PUSH1 0xF PUSH1 0x24 DUP3 ADD MSTORE PUSH15 0x151C985B9CD9995C8819985A5B1959 PUSH1 0x8A SHL PUSH1 0x44 DUP3 ADD MSTORE PUSH1 0x64 SWAP1 REVERT JUMPDEST PUSH1 0x40 MLOAD PUSH3 0x461BCD PUSH1 0xE5 SHL DUP2 MSTORE PUSH1 0x20 PUSH1 0x4 DUP3 ADD MSTORE PUSH1 0x10 PUSH1 0x24 DUP3 ADD MSTORE PUSH16 0x4E6F7468696E6720746F20636C61696D PUSH1 0x80 SHL PUSH1 0x44 DUP3 ADD MSTORE PUSH1 0x64 SWAP1 REVERT JUMPDEST PUSH1 0x40 MLOAD PUSH3 0x461BCD PUSH1 0xE5 SHL DUP2 MSTORE PUSH1 0x20 PUSH1 0x4 DUP3 ADD MSTORE PUSH1 0x16 PUSH1 0x24 DUP3 ADD MSTORE PUSH22 0x4F6E6C7920666F756E6465722063616E20636C61696D PUSH1 0x50 SHL PUSH1 0x44 DUP3 ADD MSTORE PUSH1 0x64 SWAP1 REVERT JUMPDEST CALLVALUE PUSH2 0x2DE JUMPI PUSH1 0x20 CALLDATASIZE PUSH1 0x3 NOT ADD SLT PUSH2 0x2DE JUMPI PUSH1 0x1 PUSH1 0x1 PUSH1 0xA0 SHL SUB PUSH2 0x1CC6 PUSH2 0x1D52 JUMP JUMPDEST AND PUSH1 0x0 MSTORE PUSH1 0x8 PUSH1 0x20 MSTORE PUSH1 0x20 PUSH1 0x40 PUSH1 0x0 KECCAK256 SLOAD PUSH1 0x40 MLOAD SWAP1 DUP2 MSTORE RETURN JUMPDEST CALLVALUE PUSH2 0x2DE JUMPI PUSH1 0x20 CALLDATASIZE PUSH1 0x3 NOT ADD SLT PUSH2 0x2DE JUMPI PUSH1 0x4 CALLDATALOAD PUSH4 0xFFFFFFFF PUSH1 0xE0 SHL DUP2 AND DUP1 SWAP2 SUB PUSH2 0x2DE JUMPI PUSH1 0x20 SWAP1 PUSH4 0x7965DB0B PUSH1 0xE0 SHL DUP2 EQ SWAP1 DUP2 ISZERO PUSH2 0x1D24 JUMPI JUMPDEST POP PUSH1 0x40 MLOAD SWAP1 ISZERO ISZERO DUP2 MSTORE RETURN JUMPDEST PUSH4 0x1FFC9A7 PUSH1 0xE0 SHL EQ SWAP1 POP DUP3 PUSH2 0x1D19 JUMP JUMPDEST CALLVALUE PUSH2 0x2DE JUMPI PUSH1 0x0 CALLDATASIZE PUSH1 0x3 NOT ADD SLT PUSH2 0x2DE JUMPI DUP1 PUSH4 0x3C26700 PUSH1 0x20 SWAP3 MSTORE RETURN JUMPDEST PUSH1 0x4 CALLDATALOAD SWAP1 PUSH1 0x1 PUSH1 0x1 PUSH1 0xA0 SHL SUB DUP3 AND DUP3 SUB PUSH2 0x2DE JUMPI JUMP JUMPDEST PUSH1 0x24 CALLDATALOAD SWAP1 PUSH1 0x1 PUSH1 0x1 PUSH1 0xA0 SHL SUB DUP3 AND DUP3 SUB PUSH2 0x2DE JUMPI JUMP JUMPDEST PUSH1 0x0 JUMPDEST DUP4 DUP2 LT PUSH2 0x1D91 JUMPI POP POP PUSH1 0x0 SWAP2 ADD MSTORE JUMP JUMPDEST DUP2 DUP2 ADD MLOAD DUP4 DUP3 ADD MSTORE PUSH1 0x20 ADD PUSH2 0x1D81 JUMP JUMPDEST SWAP1 PUSH1 0x20 SWAP2 PUSH2 0x1DBA DUP2 MLOAD DUP1 SWAP3 DUP2 DUP6 MSTORE DUP6 DUP1 DUP7 ADD SWAP2 ADD PUSH2 0x1D7E JUMP JUMPDEST PUSH1 0x1F ADD PUSH1 0x1F NOT AND ADD ADD SWAP1 JUMP JUMPDEST SWAP2 SWAP3 PUSH1 0x80 SWAP4 PUSH2 0x1DF3 SWAP3 SWAP8 SWAP7 SWAP6 SWAP8 PUSH1 0x1 DUP1 PUSH1 0xA0 SHL SUB AND DUP5 MSTORE PUSH1 0x20 DUP5 ADD MSTORE PUSH1 0xA0 PUSH1 0x40 DUP5 ADD MSTORE PUSH1 0xA0 DUP4 ADD SWAP1 PUSH2 0x1DA1 JUMP JUMPDEST SWAP5 ISZERO ISZERO PUSH1 0x60 DUP3 ADD MSTORE ADD MSTORE JUMP JUMPDEST SWAP2 DUP2 PUSH1 0x1F DUP5 ADD SLT ISZERO PUSH2 0x2DE JUMPI DUP3 CALLDATALOAD SWAP2 PUSH8 0xFFFFFFFFFFFFFFFF DUP4 GT PUSH2 0x2DE JUMPI PUSH1 0x20 DUP4 DUP2 DUP7 ADD SWAP6 ADD ADD GT PUSH2 0x2DE JUMPI JUMP JUMPDEST SWAP1 PUSH1 0x1 DUP3 DUP2 SHR SWAP3 AND DUP1 ISZERO PUSH2 0x1E5D JUMPI JUMPDEST PUSH1 0x20 DUP4 LT EQ PUSH2 0x1E47 JUMPI JUMP JUMPDEST PUSH4 0x4E487B71 PUSH1 0xE0 SHL PUSH1 0x0 MSTORE PUSH1 0x22 PUSH1 0x4 MSTORE PUSH1 0x24 PUSH1 0x0 REVERT JUMPDEST SWAP2 PUSH1 0x7F AND SWAP2 PUSH2 0x1E3C JUMP JUMPDEST DUP1 SLOAD PUSH1 0x0 SWAP4 SWAP3 PUSH2 0x1E76 DUP3 PUSH2 0x1E2D JUMP JUMPDEST SWAP2 DUP3 DUP3 MSTORE PUSH1 0x20 SWAP4 PUSH1 0x1 SWAP2 PUSH1 0x1 DUP2 AND SWAP1 DUP2 PUSH1 0x0 EQ PUSH2 0x1EDE JUMPI POP PUSH1 0x1 EQ PUSH2 0x1E9D JUMPI JUMPDEST POP POP POP POP POP JUMP JUMPDEST SWAP1 SWAP4 SWAP5 SWAP6 POP PUSH1 0x0 SWAP3 SWAP2 SWAP3 MSTORE DUP4 PUSH1 0x0 KECCAK256 SWAP3 DUP5 PUSH1 0x0 SWAP5 JUMPDEST DUP4 DUP7 LT PUSH2 0x1ECA JUMPI POP POP POP POP ADD ADD SWAP1 CODESIZE DUP1 DUP1 DUP1 DUP1 PUSH2 0x1E96 JUMP JUMPDEST DUP1 SLOAD DUP6 DUP8 ADD DUP4 ADD MSTORE SWAP5 ADD SWAP4 DUP6 SWAP1 DUP3 ADD PUSH2 0x1EB2 JUMP JUMPDEST PUSH1 0xFF NOT AND DUP7 DUP6 ADD MSTORE POP POP POP SWAP1 ISZERO ISZERO PUSH1 0x5 SHL ADD ADD SWAP2 POP CODESIZE DUP1 DUP1 DUP1 DUP1 PUSH2 0x1E96 JUMP JUMPDEST SWAP1 PUSH1 0x1F DUP1 NOT SWAP2 ADD AND DUP2 ADD SWAP1 DUP2 LT PUSH8 0xFFFFFFFFFFFFFFFF DUP3 GT OR PUSH2 0xB19 JUMPI PUSH1 0x40 MSTORE JUMP JUMPDEST ISZERO PUSH2 0x1F26 JUMPI JUMP JUMPDEST PUSH1 0x40 MLOAD PUSH3 0x461BCD PUSH1 0xE5 SHL DUP2 MSTORE PUSH1 0x20 PUSH1 0x4 DUP3 ADD MSTORE PUSH1 0x1D PUSH1 0x24 DUP3 ADD MSTORE PUSH32 0x496E73756666696369656E742074726561737572792062616C616E6365000000 PUSH1 0x44 DUP3 ADD MSTORE PUSH1 0x64 SWAP1 REVERT JUMPDEST SWAP2 SWAP1 DUP3 ADD DUP1 SWAP3 GT PUSH2 0x2C8 JUMPI JUMP JUMPDEST PUSH8 0xFFFFFFFFFFFFFFFF DUP2 GT PUSH2 0xB19 JUMPI PUSH1 0x1F ADD PUSH1 0x1F NOT AND PUSH1 0x20 ADD SWAP1 JUMP JUMPDEST RETURNDATASIZE ISZERO PUSH2 0x1FBF JUMPI RETURNDATASIZE SWAP1 PUSH2 0x1FA5 DUP3 PUSH2 0x1F78 JUMP JUMPDEST SWAP2 PUSH2 0x1FB3 PUSH1 0x40 MLOAD SWAP4 DUP5 PUSH2 0x1EFD JUMP JUMPDEST DUP3 MSTORE RETURNDATASIZE PUSH1 0x0 PUSH1 0x20 DUP5 ADD RETURNDATACOPY JUMP JUMPDEST PUSH1 0x60 SWAP1 JUMP JUMPDEST SWAP2 SWAP1 DUP3 SUB SWAP2 DUP3 GT PUSH2 0x2C8 JUMPI JUMP JUMPDEST ISZERO PUSH2 0x1FD8 JUMPI JUMP JUMPDEST PUSH1 0x40 MLOAD PUSH3 0x461BCD PUSH1 0xE5 SHL DUP2 MSTORE PUSH1 0x20 PUSH1 0x4 DUP3 ADD MSTORE PUSH1 0x1A PUSH1 0x24 DUP3 ADD MSTORE PUSH32 0x5472616E73616374696F6E20646F6573206E6F74206578697374000000000000 PUSH1 0x44 DUP3 ADD MSTORE PUSH1 0x64 SWAP1 REVERT JUMPDEST ISZERO PUSH2 0x2024 JUMPI JUMP JUMPDEST PUSH1 0x40 MLOAD PUSH3 0x461BCD PUSH1 0xE5 SHL DUP2 MSTORE PUSH1 0x20 PUSH1 0x4 DUP3 ADD MSTORE PUSH1 0x1C PUSH1 0x24 DUP3 ADD MSTORE PUSH32 0x5472616E73616374696F6E20616C726561647920657865637574656400000000 PUSH1 0x44 DUP3 ADD MSTORE PUSH1 0x64 SWAP1 REVERT JUMPDEST DUP2 DUP2 MUL SWAP3 SWAP2 DUP2 ISZERO SWAP2 DUP5 DIV EQ OR ISZERO PUSH2 0x2C8 JUMPI JUMP JUMPDEST PUSH1 0x1 PUSH1 0x1 PUSH1 0xA0 SHL SUB AND PUSH1 0x0 DUP2 DUP2 MSTORE PUSH1 0x8 PUSH1 0x20 MSTORE PUSH1 0x40 DUP2 KECCAK256 SLOAD SWAP1 SWAP2 SWAP1 DUP1 ISZERO PUSH2 0x20F9 JUMPI PUSH2 0x20A7 SWAP1 TIMESTAMP PUSH2 0x1FC4 JUMP JUMPDEST PUSH3 0x76A700 DUP2 LT PUSH2 0x20F9 JUMPI DUP2 DUP4 MSTORE PUSH1 0x7 PUSH1 0x20 MSTORE PUSH1 0x40 DUP1 DUP5 KECCAK256 SLOAD PUSH2 0x20E5 SWAP5 SWAP2 SWAP3 PUSH4 0x3C26700 SWAP1 DUP2 DUP2 LT PUSH2 0x20E8 JUMPI POP POP SWAP3 JUMPDEST DUP2 MSTORE PUSH1 0x9 PUSH1 0x20 MSTORE KECCAK256 SLOAD SWAP1 PUSH2 0x1FC4 JUMP JUMPDEST SWAP1 JUMP JUMPDEST PUSH2 0x20F2 SWAP2 SWAP3 PUSH2 0x2069 JUMP JUMPDEST DIV SWAP3 PUSH2 0x20D6 JUMP JUMPDEST POP POP SWAP1 JUMP JUMPDEST ISZERO PUSH2 0x2105 JUMPI JUMP JUMPDEST PUSH1 0x40 MLOAD PUSH3 0x461BCD PUSH1 0xE5 SHL DUP2 MSTORE PUSH1 0x20 PUSH1 0x4 DUP3 ADD MSTORE PUSH1 0x1B PUSH1 0x24 DUP3 ADD MSTORE PUSH32 0x466F756E64657220637574207472616E73666572206661696C65640000000000 PUSH1 0x44 DUP3 ADD MSTORE PUSH1 0x64 SWAP1 REVERT JUMPDEST ISZERO PUSH2 0x2151 JUMPI JUMP JUMPDEST PUSH1 0x40 MLOAD PUSH3 0x461BCD PUSH1 0xE5 SHL DUP2 MSTORE PUSH1 0x20 PUSH1 0x4 DUP3 ADD MSTORE PUSH1 0x15 PUSH1 0x24 DUP3 ADD MSTORE PUSH21 0x13DC9858DB19481B9BDD0818DBDB999A59DD5C9959 PUSH1 0x5A SHL PUSH1 0x44 DUP3 ADD MSTORE PUSH1 0x64 SWAP1 REVERT JUMPDEST PUSH1 0x0 NOT DUP2 EQ PUSH2 0x2C8 JUMPI PUSH1 0x1 ADD SWAP1 JUMP JUMPDEST PUSH1 0x2 PUSH1 0x1 SLOAD EQ PUSH2 0x21AE JUMPI PUSH1 0x2 PUSH1 0x1 SSTORE JUMP JUMPDEST PUSH1 0x40 MLOAD PUSH4 0x3EE5AEB5 PUSH1 0xE0 SHL DUP2 MSTORE PUSH1 0x4 SWAP1 REVERT JUMPDEST CALLER PUSH1 0x0 SWAP1 DUP2 MSTORE PUSH32 0xAD3228B676F7D3CD4284A5443F17F1962B36E491B30A40B2405849E597BA5FB5 PUSH1 0x20 MSTORE PUSH1 0x40 DUP2 KECCAK256 SLOAD PUSH1 0xFF AND ISZERO PUSH2 0x21FA JUMPI POP JUMP JUMPDEST PUSH1 0x44 SWAP1 PUSH1 0x40 MLOAD SWAP1 PUSH4 0xE2517D3F PUSH1 0xE0 SHL DUP3 MSTORE CALLER PUSH1 0x4 DUP4 ADD MSTORE PUSH1 0x24 DUP3 ADD MSTORE REVERT JUMPDEST CALLER PUSH1 0x0 SWAP1 DUP2 MSTORE PUSH32 0x59F08E7D7BA1C82EDDC57AFAE67F80DF851BAF38A099607A779825038C3CE5B PUSH1 0x20 MSTORE PUSH1 0x40 SWAP1 KECCAK256 SLOAD PUSH1 0x0 DUP1 MLOAD PUSH1 0x20 PUSH2 0x2507 DUP4 CODECOPY DUP2 MLOAD SWAP2 MSTORE SWAP1 PUSH1 0xFF AND ISZERO PUSH2 0x21FA JUMPI POP JUMP JUMPDEST CALLER PUSH1 0x0 SWAP1 DUP2 MSTORE PUSH32 0xDAE2AA361DFD1CA020A396615627D436107C35EFF9FE7738A3512819782D7069 PUSH1 0x20 MSTORE PUSH1 0x40 SWAP1 KECCAK256 SLOAD PUSH32 0xD8AA0F3194971A2A116679F7C2090F6939C8D4E01A2A8D7E41D55E5351469E63 SWAP1 PUSH1 0xFF AND ISZERO PUSH2 0x21FA JUMPI POP JUMP JUMPDEST DUP1 PUSH1 0x0 MSTORE PUSH1 0x0 PUSH1 0x20 MSTORE PUSH1 0x40 PUSH1 0x0 KECCAK256 CALLER PUSH1 0x0 MSTORE PUSH1 0x20 MSTORE PUSH1 0xFF PUSH1 0x40 PUSH1 0x0 KECCAK256 SLOAD AND ISZERO PUSH2 0x21FA JUMPI POP JUMP JUMPDEST PUSH1 0x1 PUSH1 0x1 PUSH1 0xA0 SHL SUB AND PUSH1 0x0 DUP2 DUP2 MSTORE PUSH32 0x59F08E7D7BA1C82EDDC57AFAE67F80DF851BAF38A099607A779825038C3CE5B PUSH1 0x20 MSTORE PUSH1 0x40 DUP2 KECCAK256 SLOAD SWAP1 SWAP2 SWAP1 PUSH1 0x0 DUP1 MLOAD PUSH1 0x20 PUSH2 0x2507 DUP4 CODECOPY DUP2 MLOAD SWAP2 MSTORE SWAP1 PUSH1 0xFF AND ISZERO PUSH2 0x20F9 JUMPI DUP1 DUP4 MSTORE DUP3 PUSH1 0x20 MSTORE PUSH1 0x40 DUP4 KECCAK256 DUP3 DUP5 MSTORE PUSH1 0x20 MSTORE PUSH1 0x40 DUP4 KECCAK256 PUSH1 0xFF NOT DUP2 SLOAD AND SWAP1 SSTORE PUSH32 0xF6391F5C32D9C69D2A47EA670B442974B53935D1EDC7FD64EB21E047A839171B CALLER SWAP4 DUP1 LOG4 PUSH1 0x1 SWAP1 JUMP JUMPDEST SWAP1 PUSH1 0x0 SWAP2 DUP1 DUP4 MSTORE DUP3 PUSH1 0x20 MSTORE PUSH1 0x40 DUP4 KECCAK256 SWAP2 PUSH1 0x1 DUP1 PUSH1 0xA0 SHL SUB AND SWAP2 DUP3 DUP5 MSTORE PUSH1 0x20 MSTORE PUSH1 0xFF PUSH1 0x40 DUP5 KECCAK256 SLOAD AND PUSH1 0x0 EQ PUSH2 0x20F9 JUMPI DUP1 DUP4 MSTORE DUP3 PUSH1 0x20 MSTORE PUSH1 0x40 DUP4 KECCAK256 DUP3 DUP5 MSTORE PUSH1 0x20 MSTORE PUSH1 0x40 DUP4 KECCAK256 PUSH1 0xFF NOT DUP2 SLOAD AND SWAP1 SSTORE PUSH32 0xF6391F5C32D9C69D2A47EA670B442974B53935D1EDC7FD64EB21E047A839171B CALLER SWAP4 DUP1 LOG4 PUSH1 0x1 SWAP1 JUMP JUMPDEST PUSH1 0x1 PUSH1 0x1 PUSH1 0xA0 SHL SUB AND PUSH1 0x0 DUP2 DUP2 MSTORE PUSH32 0x59F08E7D7BA1C82EDDC57AFAE67F80DF851BAF38A099607A779825038C3CE5B PUSH1 0x20 MSTORE PUSH1 0x40 DUP2 KECCAK256 SLOAD SWAP1 SWAP2 SWAP1 PUSH1 0x0 DUP1 MLOAD PUSH1 0x20 PUSH2 0x2507 DUP4 CODECOPY DUP2 MLOAD SWAP2 MSTORE SWAP1 PUSH1 0xFF AND PUSH2 0x20F9 JUMPI DUP1 DUP4 MSTORE DUP3 PUSH1 0x20 MSTORE PUSH1 0x40 DUP4 KECCAK256 DUP3 DUP5 MSTORE PUSH1 0x20 MSTORE PUSH1 0x40 DUP4 KECCAK256 PUSH1 0x1 PUSH1 0xFF NOT DUP3 SLOAD AND OR SWAP1 SSTORE PUSH32 0x2F8788117E7EFF1D82E926EC794901D17C78024A50270940304540A733656F0D CALLER SWAP4 DUP1 LOG4 PUSH1 0x1 SWAP1 JUMP JUMPDEST SWAP1 PUSH1 0x0 SWAP2 DUP1 DUP4 MSTORE DUP3 PUSH1 0x20 MSTORE PUSH1 0x40 DUP4 KECCAK256 SWAP2 PUSH1 0x1 DUP1 PUSH1 0xA0 SHL SUB AND SWAP2 DUP3 DUP5 MSTORE PUSH1 0x20 MSTORE PUSH1 0xFF PUSH1 0x40 DUP5 KECCAK256 SLOAD AND ISZERO PUSH1 0x0 EQ PUSH2 0x20F9 JUMPI DUP1 DUP4 MSTORE DUP3 PUSH1 0x20 MSTORE PUSH1 0x40 DUP4 KECCAK256 DUP3 DUP5 MSTORE PUSH1 0x20 MSTORE PUSH1 0x40 DUP4 KECCAK256 PUSH1 0x1 PUSH1 0xFF NOT DUP3 SLOAD AND OR SWAP1 SSTORE PUSH32 0x2F8788117E7EFF1D82E926EC794901D17C78024A50270940304540A733656F0D CALLER SWAP4 DUP1 LOG4 PUSH1 0x1 SWAP1 JUMP INVALID 0xE2 DELEGATECALL 0xEA 0xAE BLOBBASEFEE SWAP8 MLOAD 0xE8 GAS RETURNDATACOPY BLOBBASEFEE PUSH28 0x9587827A877F29914755229B07A7B2DA98285F70A264697066735822 SLT KECCAK256 SHR 0xD2 CALLDATACOPY 0xD2 SWAP6 0xC BLOBBASEFEE 0x24 0xB1 0xE5 0xEF 0xBF SWAP5 INVALID SWAP1 0xEA CALLVALUE CALLER CALLER SELFBALANCE 0xA9 DUP15 DUP10 0xC4 0x2B 0xAE SWAP16 LOG3 0xCC 0xBF GT PUSH8 0x64736F6C63430008 XOR STOP CALLER 0x2F DUP8 DUP9 GT PUSH31 0x7EFF1D82E926EC794901D17C78024A50270940304540A733656F0D00000000 "},"methodIdentifiers":{"DEFAULT_ADMIN_ROLE()":"a217fddf","EXECUTOR_ROLE()":"07bd0265","FOUNDER_CUT_BPS()":"8f28544c","SIGNER_ROLE()":"a1ebf35d","VESTING_CLIFF()":"63f3dbe5","VESTING_PERIOD()":"0197d972","addSigner(address)":"eb12d61e","chainlinkOracle()":"ef06e72c","claimVestedCuts()":"0363c8fb","claimedCuts(address)":"bf7cd804","confirmTransaction(uint256)":"c01a8c84","confirmations(uint256,address)":"3411c81c","execute(address,uint256,bytes,uint256)":"74420f4c","executeTransaction(uint256)":"ee22610b","founderWallet()":"a23d3c35","fundReimbursementPool()":"6ab3818e","getBalance()":"12065fe0","getClaimableVested(address)":"73522681","getReimbursementPoolInfo()":"c96f85cf","getRoleAdmin(bytes32)":"248a9ca3","getTransaction(uint256)":"33ea3dc8","getVestingInfo(address)":"fb897ce4","governanceContract()":"b172b222","grantRole(bytes32,address)":"2f2ff15d","hasRole(bytes32,address)":"91d14854","isConfirmed(uint256,address)":"80f59a65","maxReimbursementPerTx()":"4d247889","reimburseRelayer(address,uint256)":"c56c9ff4","relayerReimbursementPool()":"ef66d684","relayerReimbursements(address)":"7aab1381","removeSigner(address)":"0e316ab7","renounceRole(bytes32,address)":"36568abe","requiredConfirmations()":"82e717f7","revokeConfirmation(uint256)":"20ea8d86","revokeRole(bytes32,address)":"d547741f","setChainlinkOracle(address)":"7a9b0412","setGovernance(address)":"ab033ea9","setMaxReimbursement(uint256)":"a5574d52","setRequiredConfirmations(uint256)":"7b7c343d","submitTransaction(address,uint256,bytes)":"c6427474","supportsInterface(bytes4)":"01ffc9a7","transactionCount()":"b77bf600","transactions(uint256)":"9ace38c2","updateFounderWallet(address)":"7f307ff7","verifyAndRecordReserves(uint256)":"d9882334","verifyReserves(uint256)":"af522b1c","vestedCuts(address)":"a64c1138","vestingStart(address)":"032bbf4f","withdraw(uint256)":"2e1a7d4d"}}}}}