{"contracts/PhaseManager.sol":{"PhaseManager":{"abi":[{"inputs":[{"internalType":"address","name":"_propertyToken","type":"address"},{"internalType":"address","name":"_governance","type":"address"}],"stateMutability":"nonpayable","type":"constructor"},{"inputs":[],"name":"AccessControlBadConfirmation","type":"error"},{"inputs":[{"internalType":"address","name":"account","type":"address"},{"internalType":"bytes32","name":"neededRole","type":"bytes32"}],"name":"AccessControlUnauthorizedAccount","type":"error"},{"anonymous":false,"inputs":[{"indexed":true,"internalType":"uint256","name":"propertyId","type":"uint256"},{"indexed":true,"internalType":"address","name":"claimer","type":"address"},{"indexed":false,"internalType":"uint256","name":"bonus","type":"uint256"}],"name":"BonusClaimed","type":"event"},{"anonymous":false,"inputs":[{"indexed":true,"internalType":"uint256","name":"propertyId","type":"uint256"},{"indexed":false,"internalType":"uint256","name":"demandBps","type":"uint256"}],"name":"DemandDrivenAdvancement","type":"event"},{"anonymous":false,"inputs":[{"indexed":true,"internalType":"uint256","name":"propertyId","type":"uint256"},{"indexed":false,"internalType":"uint8","name":"demandType","type":"uint8"},{"indexed":false,"internalType":"uint256","name":"demandBps","type":"uint256"}],"name":"DemandNudge","type":"event"},{"anonymous":false,"inputs":[{"indexed":true,"internalType":"uint256","name":"propertyId","type":"uint256"},{"indexed":false,"internalType":"uint256","name":"activeVoters","type":"uint256"},{"indexed":false,"internalType":"uint256","name":"totalEligible","type":"uint256"},{"indexed":false,"internalType":"uint256","name":"engagementPercent","type":"uint256"}],"name":"EngagementUpdated","type":"event"},{"anonymous":false,"inputs":[{"indexed":true,"internalType":"uint256","name":"propertyId","type":"uint256"},{"indexed":true,"internalType":"address","name":"user","type":"address"},{"indexed":false,"internalType":"uint8","name":"eligiblePhase","type":"uint8"}],"name":"GeoEligibilityChecked","type":"event"},{"anonymous":false,"inputs":[{"indexed":true,"internalType":"address","name":"newOracle","type":"address"}],"name":"GeoOracleUpdated","type":"event"},{"anonymous":false,"inputs":[{"indexed":true,"internalType":"uint256","name":"propertyId","type":"uint256"},{"indexed":false,"internalType":"string","name":"category","type":"string"},{"indexed":false,"internalType":"int256","name":"delta","type":"int256"},{"indexed":false,"internalType":"uint256","name":"newScore","type":"uint256"}],"name":"ImpactRecorded","type":"event"},{"anonymous":false,"inputs":[{"indexed":true,"internalType":"uint256","name":"propertyId","type":"uint256"},{"indexed":false,"internalType":"string","name":"nudgeType","type":"string"},{"indexed":false,"internalType":"uint256","name":"engagementPercent","type":"uint256"}],"name":"NudgeTriggered","type":"event"},{"anonymous":false,"inputs":[{"indexed":true,"internalType":"uint256","name":"propertyId","type":"uint256"},{"indexed":false,"internalType":"uint8","name":"fromPhase","type":"uint8"},{"indexed":false,"internalType":"uint8","name":"toPhase","type":"uint8"},{"indexed":false,"internalType":"uint256","name":"engagementPercent","type":"uint256"}],"name":"PhaseAdvancedByEngagement","type":"event"},{"anonymous":false,"inputs":[{"indexed":true,"internalType":"uint256","name":"propertyId","type":"uint256"},{"indexed":false,"internalType":"uint8","name":"fromPhase","type":"uint8"},{"indexed":false,"internalType":"uint8","name":"toPhase","type":"uint8"}],"name":"PhaseAdvancedBySubscription","type":"event"},{"anonymous":false,"inputs":[{"indexed":true,"internalType":"uint256","name":"propertyId","type":"uint256"},{"indexed":false,"internalType":"uint256","name":"pollParticipants","type":"uint256"},{"indexed":false,"internalType":"uint256","name":"bonusEngagement","type":"uint256"}],"name":"PollBonusApplied","type":"event"},{"anonymous":false,"inputs":[{"indexed":true,"internalType":"uint256","name":"propertyId","type":"uint256"},{"indexed":true,"internalType":"address","name":"participant","type":"address"}],"name":"PollParticipationRecorded","type":"event"},{"anonymous":false,"inputs":[{"indexed":true,"internalType":"uint256","name":"propertyId","type":"uint256"}],"name":"PropertyTrackingStarted","type":"event"},{"anonymous":false,"inputs":[{"indexed":true,"internalType":"uint256","name":"propertyId","type":"uint256"}],"name":"PropertyTrackingStopped","type":"event"},{"anonymous":false,"inputs":[{"indexed":true,"internalType":"bytes32","name":"role","type":"bytes32"},{"indexed":true,"internalType":"bytes32","name":"previousAdminRole","type":"bytes32"},{"indexed":true,"internalType":"bytes32","name":"newAdminRole","type":"bytes32"}],"name":"RoleAdminChanged","type":"event"},{"anonymous":false,"inputs":[{"indexed":true,"internalType":"bytes32","name":"role","type":"bytes32"},{"indexed":true,"internalType":"address","name":"account","type":"address"},{"indexed":true,"internalType":"address","name":"sender","type":"address"}],"name":"RoleGranted","type":"event"},{"anonymous":false,"inputs":[{"indexed":true,"internalType":"bytes32","name":"role","type":"bytes32"},{"indexed":true,"internalType":"address","name":"account","type":"address"},{"indexed":true,"internalType":"address","name":"sender","type":"address"}],"name":"RoleRevoked","type":"event"},{"inputs":[],"name":"BONUS_TOKENS","outputs":[{"internalType":"uint256","name":"","type":"uint256"}],"stateMutability":"view","type":"function"},{"inputs":[],"name":"DEFAULT_ADMIN_ROLE","outputs":[{"internalType":"bytes32","name":"","type":"bytes32"}],"stateMutability":"view","type":"function"},{"inputs":[],"name":"ENGAGEMENT_THRESHOLD","outputs":[{"internalType":"uint256","name":"","type":"uint256"}],"stateMutability":"view","type":"function"},{"inputs":[],"name":"MIN_ENGAGEMENT_PERIOD","outputs":[{"internalType":"uint256","name":"","type":"uint256"}],"stateMutability":"view","type":"function"},{"inputs":[],"name":"OPERATOR_ROLE","outputs":[{"internalType":"bytes32","name":"","type":"bytes32"}],"stateMutability":"view","type":"function"},{"inputs":[],"name":"POLL_BONUS_MULTIPLIER","outputs":[{"internalType":"uint256","name":"","type":"uint256"}],"stateMutability":"view","type":"function"},{"inputs":[{"internalType":"uint256","name":"propertyId","type":"uint256"}],"name":"calculateEngagement","outputs":[{"internalType":"uint256","name":"","type":"uint256"}],"stateMutability":"view","type":"function"},{"inputs":[{"internalType":"uint256","name":"propertyId","type":"uint256"}],"name":"checkSubscriptionAdvancement","outputs":[],"stateMutability":"nonpayable","type":"function"},{"inputs":[{"internalType":"bytes","name":"","type":"bytes"}],"name":"checkUpkeep","outputs":[{"internalType":"bool","name":"upkeepNeeded","type":"bool"},{"internalType":"bytes","name":"performData","type":"bytes"}],"stateMutability":"view","type":"function"},{"inputs":[{"internalType":"uint256","name":"propertyId","type":"uint256"}],"name":"claimEngagementBonus","outputs":[],"stateMutability":"nonpayable","type":"function"},{"inputs":[{"internalType":"uint256","name":"propertyId","type":"uint256"}],"name":"claimPollBoostBonus","outputs":[],"stateMutability":"nonpayable","type":"function"},{"inputs":[],"name":"geoOracle","outputs":[{"internalType":"contract IGeoOracle","name":"","type":"address"}],"stateMutability":"view","type":"function"},{"inputs":[],"name":"getCommunityHealth","outputs":[{"internalType":"uint256","name":"","type":"uint256"}],"stateMutability":"view","type":"function"},{"inputs":[{"internalType":"uint256","name":"propertyId","type":"uint256"}],"name":"getDemandEngagementMetrics","outputs":[{"internalType":"uint256","name":"baseEngagement","type":"uint256"},{"internalType":"uint256[4]","name":"demandBars","type":"uint256[4]"},{"internalType":"uint256","name":"healthScore","type":"uint256"},{"internalType":"bool","name":"isReadyForAdvancement","type":"bool"}],"stateMutability":"view","type":"function"},{"inputs":[{"internalType":"uint256","name":"propertyId","type":"uint256"}],"name":"getEngagement","outputs":[{"internalType":"uint256","name":"phaseStartTime","type":"uint256"},{"internalType":"uint256","name":"totalEligible","type":"uint256"},{"internalType":"uint256","name":"activeVoters","type":"uint256"},{"internalType":"uint256","name":"engagementPercent","type":"uint256"},{"internalType":"bool","name":"isTracking","type":"bool"}],"stateMutability":"view","type":"function"},{"inputs":[{"internalType":"uint256","name":"propertyId","type":"uint256"}],"name":"getPropertyHealthHistory","outputs":[{"components":[{"internalType":"string","name":"category","type":"string"},{"internalType":"int256","name":"delta","type":"int256"},{"internalType":"uint256","name":"timestamp","type":"uint256"}],"internalType":"struct PhaseManager.HealthDelta[]","name":"history","type":"tuple[]"}],"stateMutability":"view","type":"function"},{"inputs":[{"internalType":"uint256","name":"propertyId","type":"uint256"}],"name":"getPropertyHealthScore","outputs":[{"internalType":"uint256","name":"score","type":"uint256"}],"stateMutability":"view","type":"function"},{"inputs":[{"internalType":"bytes32","name":"role","type":"bytes32"}],"name":"getRoleAdmin","outputs":[{"internalType":"bytes32","name":"","type":"bytes32"}],"stateMutability":"view","type":"function"},{"inputs":[],"name":"getTrackedProperties","outputs":[{"internalType":"uint256[]","name":"","type":"uint256[]"}],"stateMutability":"view","type":"function"},{"inputs":[],"name":"governance","outputs":[{"internalType":"contract IGovernance","name":"","type":"address"}],"stateMutability":"view","type":"function"},{"inputs":[{"internalType":"bytes32","name":"role","type":"bytes32"},{"internalType":"address","name":"account","type":"address"}],"name":"grantRole","outputs":[],"stateMutability":"nonpayable","type":"function"},{"inputs":[{"internalType":"uint256","name":"","type":"uint256"},{"internalType":"address","name":"","type":"address"}],"name":"hasClaimed","outputs":[{"internalType":"bool","name":"","type":"bool"}],"stateMutability":"view","type":"function"},{"inputs":[{"internalType":"uint256","name":"propertyId","type":"uint256"},{"internalType":"address","name":"participant","type":"address"}],"name":"hasParticipatedInPolls","outputs":[{"internalType":"bool","name":"","type":"bool"}],"stateMutability":"view","type":"function"},{"inputs":[{"internalType":"bytes32","name":"role","type":"bytes32"},{"internalType":"address","name":"account","type":"address"}],"name":"hasRole","outputs":[{"internalType":"bool","name":"","type":"bool"}],"stateMutability":"view","type":"function"},{"inputs":[{"internalType":"uint256","name":"","type":"uint256"}],"name":"isTracked","outputs":[{"internalType":"bool","name":"","type":"bool"}],"stateMutability":"view","type":"function"},{"inputs":[{"internalType":"uint256","name":"","type":"uint256"}],"name":"lastNudgeTime","outputs":[{"internalType":"uint256","name":"","type":"uint256"}],"stateMutability":"view","type":"function"},{"inputs":[],"name":"nudgeCooldown","outputs":[{"internalType":"uint256","name":"","type":"uint256"}],"stateMutability":"view","type":"function"},{"inputs":[{"internalType":"bytes","name":"performData","type":"bytes"}],"name":"performUpkeep","outputs":[],"stateMutability":"nonpayable","type":"function"},{"inputs":[{"internalType":"uint256","name":"","type":"uint256"},{"internalType":"address","name":"","type":"address"}],"name":"pollParticipated","outputs":[{"internalType":"bool","name":"","type":"bool"}],"stateMutability":"view","type":"function"},{"inputs":[{"internalType":"uint256","name":"","type":"uint256"}],"name":"propertyEngagement","outputs":[{"internalType":"uint256","name":"propertyId","type":"uint256"},{"internalType":"uint256","name":"phaseStartTime","type":"uint256"},{"internalType":"uint256","name":"totalEligibleVoters","type":"uint256"},{"internalType":"uint256","name":"activeVoters","type":"uint256"},{"internalType":"uint256","name":"totalProposals","type":"uint256"},{"internalType":"uint256","name":"votedProposals","type":"uint256"},{"internalType":"bool","name":"isTracking","type":"bool"}],"stateMutability":"view","type":"function"},{"inputs":[{"internalType":"uint256","name":"","type":"uint256"},{"internalType":"uint256","name":"","type":"uint256"}],"name":"propertyHealthHistory","outputs":[{"internalType":"string","name":"category","type":"string"},{"internalType":"int256","name":"delta","type":"int256"},{"internalType":"uint256","name":"timestamp","type":"uint256"}],"stateMutability":"view","type":"function"},{"inputs":[{"internalType":"uint256","name":"","type":"uint256"}],"name":"propertyHealthScores","outputs":[{"internalType":"uint256","name":"","type":"uint256"}],"stateMutability":"view","type":"function"},{"inputs":[{"internalType":"uint256","name":"","type":"uint256"}],"name":"propertyPollCount","outputs":[{"internalType":"uint256","name":"","type":"uint256"}],"stateMutability":"view","type":"function"},{"inputs":[],"name":"propertyToken","outputs":[{"internalType":"contract IPropertyToken","name":"","type":"address"}],"stateMutability":"view","type":"function"},{"inputs":[{"internalType":"uint256","name":"propertyId","type":"uint256"},{"internalType":"string","name":"category","type":"string"},{"internalType":"int256","name":"delta","type":"int256"}],"name":"recordImpactAfterExecution","outputs":[],"stateMutability":"nonpayable","type":"function"},{"inputs":[{"internalType":"uint256","name":"propertyId","type":"uint256"},{"internalType":"address","name":"participant","type":"address"}],"name":"recordPollParticipation","outputs":[],"stateMutability":"nonpayable","type":"function"},{"inputs":[{"internalType":"bytes32","name":"role","type":"bytes32"},{"internalType":"address","name":"callerConfirmation","type":"address"}],"name":"renounceRole","outputs":[],"stateMutability":"nonpayable","type":"function"},{"inputs":[{"internalType":"bytes32","name":"role","type":"bytes32"},{"internalType":"address","name":"account","type":"address"}],"name":"revokeRole","outputs":[],"stateMutability":"nonpayable","type":"function"},{"inputs":[{"internalType":"address","name":"_oracle","type":"address"}],"name":"setGeoOracle","outputs":[],"stateMutability":"nonpayable","type":"function"},{"inputs":[{"internalType":"uint256","name":"newCooldown","type":"uint256"}],"name":"setNudgeCooldown","outputs":[],"stateMutability":"nonpayable","type":"function"},{"inputs":[{"internalType":"uint256","name":"propertyId","type":"uint256"},{"internalType":"uint256","name":"totalEligibleVoters","type":"uint256"}],"name":"startTracking","outputs":[],"stateMutability":"nonpayable","type":"function"},{"inputs":[{"internalType":"uint256","name":"propertyId","type":"uint256"}],"name":"stopTracking","outputs":[],"stateMutability":"nonpayable","type":"function"},{"inputs":[{"internalType":"bytes4","name":"interfaceId","type":"bytes4"}],"name":"supportsInterface","outputs":[{"internalType":"bool","name":"","type":"bool"}],"stateMutability":"view","type":"function"},{"inputs":[{"internalType":"uint256","name":"","type":"uint256"}],"name":"trackedProperties","outputs":[{"internalType":"uint256","name":"","type":"uint256"}],"stateMutability":"view","type":"function"},{"inputs":[{"internalType":"uint256","name":"propertyId","type":"uint256"}],"name":"updateDemandEngagement","outputs":[],"stateMutability":"nonpayable","type":"function"},{"inputs":[{"internalType":"uint256","name":"propertyId","type":"uint256"},{"internalType":"uint256","name":"activeVoters","type":"uint256"},{"internalType":"uint256","name":"totalProposals","type":"uint256"},{"internalType":"uint256","name":"votedProposals","type":"uint256"}],"name":"updateEngagement","outputs":[],"stateMutability":"nonpayable","type":"function"},{"inputs":[{"internalType":"uint256","name":"propertyId","type":"uint256"},{"internalType":"uint256","name":"activeVoters","type":"uint256"},{"internalType":"uint256","name":"totalProposals","type":"uint256"},{"internalType":"uint256","name":"votedProposals","type":"uint256"},{"internalType":"uint256","name":"pollParticipants","type":"uint256"}],"name":"updateEngagementWithPolls","outputs":[],"stateMutability":"nonpayable","type":"function"}],"evm":{"bytecode":{"linkReferences":{},"object":"608034620000b557601f62002c9338819003918201601f19168301916001600160401b03831184841017620000ba578084926040948552833981010312620000b5576200005a60206200005283620000d0565b9201620000d0565b62015180600855600180546001600160a01b039384166001600160a01b031991821617909155600280549290931691161790556200009833620000e5565b50620000a43362000165565b50604051612a6b9081620002088239f35b600080fd5b634e487b7160e01b600052604160045260246000fd5b51906001600160a01b0382168203620000b557565b6001600160a01b031660008181527fad3228b676f7d3cd4284a5443f17f1962b36e491b30a40b2405849e597ba5fb5602052604081205490919060ff166200016157818052816020526040822081835260205260408220600160ff19825416179055339160008051602062002c738339815191528180a4600190565b5090565b6001600160a01b031660008181527fee57cd81e84075558e8fcc182a1f4393f91fc97f963a136e66b7f949a62f319f60205260408120549091907f97667070c54ef182b0f5858b034beac1b6f3089aa2d3188bb1e8929f4fa9b9299060ff166200020257808352826020526040832082845260205260408320600160ff1982541617905560008051602062002c73833981519152339380a4600190565b50509056fe608080604052600436101561001357600080fd5b600090813560e01c90816301ffc9a714611e8b5750806306785d8a14611e075780630ad5f42114611d815780631194f9e914611d5257806311f0072f14611bcd57806314585aeb146119b1578063248a9ca3146119855780632e94dfda1461191f5780632f2ff15d146118e257806330ae7805146118c5578063313b79da1461181157806332850c56146116f557806336568abe146116ad57806336bfbfb8146116845780633a21ccc11461156f57806340ab3171146112ec57806343ae2695146112c35780634585e33b146112155780635513de41146111f7578063587bd4a7146107605780635aa6e675146111ce5780635da6559e146111a457806363e86eb8146111335780636675584f146111155780636e04ff0d146110b757806373de7b4b1461108d578063785b219014610efb578063792c971814610e905780638085b81314610e57578063816aad3c14610d70578063873f6f9e14610d245780638947d84e146109c05780638e5359e01461094757806391d14854146108fc57806394c9825d1461084c578063a217fddf14610830578063a21e6f2f146107c8578063a27f71b2146107ac578063a9dc872614610760578063b415d27914610744578063c769368b14610263578063c8259776146105dc578063d547741f1461059b578063d5612486146102b4578063f333d6c21461028d578063f38cf589146102635763f5b541a61461022657600080fd5b3461026057806003193601126102605760206040517f97667070c54ef182b0f5858b034beac1b6f3089aa2d3188bb1e8929f4fa9b9298152f35b80fd5b50346102605760203660031901126102605760406020916004358152600c83522054604051908152f35b50346102605760203660031901126102605760206102ac600435612537565b604051908152f35b50346102605760208060031936011261043a576024600435918360018060a01b03818160015416604051958680926332665ffb60e01b82528960048301525afa93841561042f57829461056d575b508060035416806104c8575b50600154604051636ea9967760e01b81526004810187905260ff861660248201529116908381604481855afa9081156104bd57839161048c575b506040516304fa617360e01b81526004810187905260ff861660248201528481604481865afa90811561048157849161044b575b5010158061043e575b61038d575080f35b803b1561043a578180916024604051809481936340d57a6760e11b83528a60048401525af1801561042f57610417575b5091604091847f7214c5e85040cb3e35452fa6ff842070826b1d0bd195171e1c75e6d07bc1b96c945260048152856003848220426001820155015560ff61040383612525565b818551941684521690820152a23880808380f35b61042090611fed565b61042b5783386103bd565b8380fd5b6040513d84823e3d90fd5b5080fd5b50600360ff851610610385565b809450858092503d831161047a575b6104648183612051565b81010312610475578692513861037c565b600080fd5b503d61045a565b6040513d86823e3d90fd5b809350848092503d83116104b6575b6104a58183612051565b810103126104755785915138610348565b503d61049b565b6040513d85823e3d90fd5b60405163512ae2cb60e01b8152336004820152602481018790529084908290604490829087905af19081156104bd578391610534575b5060ff60405191168152857f3deb93045f72ce1d7fd6c683f79644b908c62d45d5615b482654972e36f77d6b853393a33861030e565b90508381813d8311610566575b61054b8183612051565b810103126105625761055c906122fc565b386104fe565b8280fd5b503d610541565b61058a9194503d8084833e6105828183612051565b81019061249e565b505096505050505050509238610302565b5034610260576040366003190112610260576105d86004356105bb611ee0565b90808452836020526105d36001604086200154612627565b6126cb565b5080f35b5034610260576020366003190112610260576004356105f9612573565b808252600660205261061160ff604084205416612416565b80825260046020526040822061062d60ff60068301541661214e565b600254604051630af4da4160e01b815290608090829060049082906001600160a01b03165afa908115610481578491610715575b505190827fb3316e92a7702b6d2af84bce789e7e416e7c7d89dd355eb882cbf1bd1e44361860408051878152856020820152a2611d4c82101590816106e5575b506106aa578280f35b6020816106d87f25f2b88b09799c057d36c9cc83fc1013f5534e15a4e9ae28471219e7ae85f79f9385612900565b604051908152a238808280f35b60019150015462093a80810180911161070157421015386106a1565b634e487b7160e01b84526011600452602484fd5b610737915060803d60801161073d575b61072f8183612051565b810190612189565b38610661565b503d610725565b5034610260578060031936011261026057602060405160018152f35b503461026057604036600319011261026057604061077c611ee0565b916004358152600a602052209060018060a01b0316600052602052602060ff604060002054166040519015158152f35b5034610260578060031936011261026057602060405160328152f35b5034610260576020366003190112610260576004356001600160a01b03811690819003610475576107f76125ed565b600380546001600160a01b031916821790557f8f5df5b0b3afcb3d662deac3413c7e01ba3e60969e26401efbb3aa12e25b7cf98280a280f35b5034610260578060031936011261026057602090604051908152f35b5034610260576080366003190112610260576108f960243560043561086f612573565b8084526004602052807f63bd409a0ca0450137d1b574e1e74a5a18cc8934d8f718c1603619b971ce673760408620936108ae60ff60068701541661214e565b8060038601556044356004860155606435600586015560026108cf84612537565b9501546040805192835260208301919091528101859052606090a26108f48282612740565b6128bf565b80f35b5034610260576040366003190112610260576040610918611ee0565b91600435815280602052209060018060a01b0316600052602052602060ff604060002054166040519015158152f35b5034610260576020366003190112610260576004356109646125ed565b610e10811015806109b3575b1561097b5760085580f35b60405162461bcd60e51b815260206004820152601060248201526f24b73b30b634b21031b7b7b63237bbb760811b6044820152606490fd5b5062093a80811115610970565b5034610260576060366003190112610260576001600160401b03602435818111610562576109f2903690600401611f3e565b916109fb612573565b8215610ceb576004358452600d6020526040842060405190610a1c82612000565b610a258561230a565b610a326040519182612051565b8581523686860111610ce75785856020830137866020878301015282526044356020830152426040830152805490600160401b821015610cbf5790610a7c91600182018155611f81565b929092610cd35781518051918211610cbf57610a988454611fb3565b601f8111610c7d575b50602090601f8311600114610c14579180600294926040948a92610c09575b50508160011b916000199060031b1c19161784555b6020810151600185015501519101556004358352600c6020526040832054836044351215600014610b945790610b2f7fe6ec1e353840918148bc901761cc2c4da16a904a87ed4eb9f95a05ede957363692604435906121d8565b612710808211610b8c575b505b6004358552600c602052806040862055836040519260608452816060850152608084013784608085840101526044356020830152604082015260808160043594601f80199101168101030190a280f35b905038610b3a565b604435600160ff1b146107015760443584038111610bd557507fe6ec1e353840918148bc901761cc2c4da16a904a87ed4eb9f95a05ede95736369083610b3c565b604435810190811161070157907fe6ec1e353840918148bc901761cc2c4da16a904a87ed4eb9f95a05ede957363691610b3c565b015190503880610ac0565b848852602088209190601f198416895b818110610c6557509260019285926040966002989610610c4c575b505050811b018455610ad5565b015160001960f88460031b161c19169055388080610c3f565b92936020600181928786015181550195019301610c24565b84885260208820601f840160051c810160208510610cb8575b601f830160051c82018110610cac575050610aa1565b60008155600101610c96565b5080610c96565b634e487b7160e01b87526041600452602487fd5b634e487b7160e01b86526004869052602486fd5b8680fd5b60405162461bcd60e51b815260206004820152601160248201527010d85d1959dbdc9e481c995c5d5a5c9959607a1b6044820152606490fd5b5034610260576040366003190112610260576040610d40611ee0565b9160043581526009602052209060018060a01b0316600052602052602060ff604060002054166040519015158152f35b503461026057604036600319011261026057600435610d8d611ee0565b90610d96612573565b808352602060068152610daf60ff604086205416612416565b818452600a815260408085206001600160a01b03909416600081815294835293205460ff16610e2057818452600a8152604084209083600052526040600020600160ff198254161790557f9c81720c57d474644d653192db4aee34eff3e6b5c6b80e4c283ab58871c9382e8380a380f35b6064906040519062461bcd60e51b82526004820152601060248201526f105b1c9958591e481c9958dbdc99195960821b6044820152fd5b50346102605760203660031901126102605760043590600554821015610260576020610e8283612117565b90546040519160031b1c8152f35b503461026057610e9f36611f6b565b91908152600d6020526040812090815483101561026057610eec610ec38484611f81565b50610ecd81612072565b9060026001820154910154604051938493606085526060850190611f19565b91602084015260408301520390f35b503461026057610f0a36611f6b565b610f12612573565b818352600660205260ff6040842054166110555760405160e08101908082106001600160401b0383111761103f5760069160405283815260208101924284526040820190815260608201868152608083019087825260a084019288845260c085019660018852888a52600460205260408a209551865551600186015551600285015551600384015551600483015551600582015501905115159060ff199160ff838354169116179055600554600160401b81101561102b57806001610fda9201600555612117565b81549060031b9084821b91600019901b19161790558183526006602052600160408420918254161790557f3621586063592251acf2253a10fe8119554dbb0bf93d6e875b85a3a66a2166b98280a280f35b634e487b7160e01b84526041600452602484fd5b634e487b7160e01b600052604160045260246000fd5b60405162461bcd60e51b815260206004820152601060248201526f416c726561647920747261636b696e6760801b6044820152606490fd5b50346102605760203660031901126102605760406020916004358152600b83522054604051908152f35b5034610260576020366003190112610260576004356001600160401b03811161043a576110e8903690600401611f3e565b50506110f2612325565b9061111160405192839215158352604060208401526040830190611f19565b0390f35b50346102605780600319360112610260576020600854604051908152f35b503461026057602036600319011261026057604060e09160043581526004602052208054906001810154906002810154600382015460048301549160ff600660058601549501541694604051968752602087015260408601526060850152608084015260a0830152151560c0820152f35b50346102605760203660031901126102605760406020916004358152600783522054604051908152f35b50346102605780600319360112610260576002546040516001600160a01b039091168152602090f35b5034610260578060031936011261026057602060405162093a808152f35b5034610260576020366003190112610260576004356001600160401b03811161043a576112486040913690600401611f3e565b90809291810103126104755735808252600460205260016040832061127360ff60068301541661214e565b015462093a8081018091116112af57906112926108f9924210156122c4565b61129b81612537565b906112aa611d4c831015612284565b612900565b634e487b7160e01b83526011600452602483fd5b50346102605780600319360112610260576001546040516001600160a01b039091168152602090f35b50346102605760208060031936011261043a5760043560018060a01b03916001926024828286541660405192838092634d8c928d60e11b82523360048301525afa801561156457869061152a575b6113449150612208565b828552600982526040852033600052825261136760ff6040600020541615612246565b82855260048252836040862061138360ff60068301541661214e565b611399611d4c61139287612537565b1015612284565b015462093a80810180911161151657906113b686924210156122c4565b838252600983526040822033600052835260406000208560ff1982541617905584816003541680611465575b505416803b1561043a578180916064604051809481936346b40cdf60e11b83528960048401523360248401528a60448401525af1801561042f57611451575b50507f89e1649e796bc46c9dcd5fd4505f79bfdd9197c8eccbdbaf05a6bfd1cb9ea09b906040519384523393a380f35b61145a90611fed565b61042b578338611421565b60405163512ae2cb60e01b8152336004820152602481018790529085908290604490829088905af19081156104815784916114e1575b5060ff604051911690818152867f3deb93045f72ce1d7fd6c683f79644b908c62d45d5615b482654972e36f77d6b873393a3156114d9575b386113e2565b9450846114d3565b90508481813d831161150f575b6114f88183612051565b8101031261042b57611509906122fc565b3861149b565b503d6114ee565b634e487b7160e01b86526011600452602486fd5b508281813d831161155d575b6115408183612051565b8101031261155957611554611344916121fb565b61133a565b8580fd5b503d611536565b6040513d88823e3d90fd5b50346102605760a03660031901126102605760843590600435611590612573565b808252600460205260408220906115ad60ff60068401541661214e565b6032840293808504603214811517156107015760646108f99495046115d4816024356121d8565b9360028101549081861161167a575b927fa924d670d57ce0c4ef66945fcc39ba0d6082deb70a897faa080424140b0b1c7d92857f63bd409a0ca0450137d1b574e1e74a5a18cc8934d8f718c1603619b971ce6737604094878a6003859a01556044356004820155600560643591015561164c83612537565b86519a8b5260208b019190915260408a0181905298606090a282519182526020820152a26108f48282612740565b90945084906115e3565b50346102605780600319360112610260576003546040516001600160a01b039091168152602090f35b5034610260576040366003190112610260576116c7611ee0565b336001600160a01b038216036116e3576105d8906004356126cb565b60405163334bd91960e11b8152600490fd5b50346102605760208060031936011261043a576004358252600d81526040822080546001600160401b03811161102b5791926040519261173a858260051b0185612051565b8084528484018093835285832083915b8383106117cc5750505050604051928484019085855251809152604084019460408260051b8601019392955b8287106117835785850386f35b909192938280600192603f198982030185528751906040806117ae6060855190808652850190611f19565b93858101518685015201519101529601920196019592919092611776565b60038860019260409a99979a516117e281612000565b6117eb86612072565b81528486015483820152600286015460408201528152019201920191909693959661174a565b503461026057806003193601126102605760405180916005549081835260208093018092600583527f036b6384b5eca791c62761152d0c79bb0604c104a5fb6f4eb0703f3154bb3db090835b8181106118b15750505084611873910385612051565b60405193838594850191818652518092526040850193925b82811061189a57505050500390f35b83518552869550938101939281019260010161188b565b82548452928601926001928301920161185d565b50346102605780600319360112610260576020604051611d4c8152f35b5034610260576040366003190112610260576105d8600435611902611ee0565b908084528360205261191a6001604086200154612627565b61264d565b50346102605760203660031901126102605760a0906040600435918281526004602052209060018201549160028101549160ff6006611962600385015493612537565b930154169260405194855260208501526040840152606083015215156080820152f35b503461026057602036600319011261026057600160406020926004358152808452200154604051908152f35b50346102605760208060031936011261043a5760043560018060a01b03602483826001541660405192838092634d8c928d60e11b82523360048301525afa8015611bc2578590611b88575b611a069150612208565b818452600a835260408420338552835260ff60408520541615611b435781845260098352604084203385528352611a4460ff60408620541615612246565b81845260048352600160408520611a6160ff60068301541661214e565b611a70611d4c61139286612537565b015462093a808101809111611b2f5790611a8d85924210156122c4565b8282526009845260408220338352845260408220600160ff1982541617905560015416803b1561043a5781906064604051809481936346b40cdf60e11b8352876004840152336024840152600260448401525af1801561048157611b1c575b507f89e1649e796bc46c9dcd5fd4505f79bfdd9197c8eccbdbaf05a6bfd1cb9ea09b60405192600284523393a380f35b611b2890939193611fed565b9138611aec565b634e487b7160e01b85526011600452602485fd5b60405162461bcd60e51b815260048101849052601c60248201527f446964206e6f7420706172746963697061746520696e20706f6c6c73000000006044820152606490fd5b508381813d8311611bbb575b611b9e8183612051565b81010312611bb757611bb2611a06916121fb565b6119fc565b8480fd5b503d611b94565b6040513d87823e3d90fd5b5034610260576020908160031936011261026057600435916080604051611bf38161201b565b369037611bff83612537565b600254604051630af4da4160e01b815294919391906001600160a01b0316608086600481845afa9586156104bd578396611d28575b509083600493926040519485809263049672b760e41b82525afa92831561042f578293611cf9575b50815260048352604081209260ff6006850154169384611cea575b84611cb8575b506040519485528085015b60048310611ca35760e086868660a0830152151560c0820152f35b81806001928951815201970192019195611c88565b6001919450015462093a808101809111611cd6574210159238611c7d565b634e487b7160e01b82526011600452602482fd5b9350611d4c8651101593611c77565b9092508381813d8311611d21575b611d118183612051565b8101031261043a57519138611c5c565b503d611d07565b60049392919650611d48859160803d60801161073d5761072f8183612051565b9691929350611c34565b50346102605760203660031901126102605760ff60406020926004358152600684522054166040519015158152f35b503461026057806003193601126102605760025460405163049672b760e41b815290602090829060049082906001600160a01b03165afa90811561042f578291611dd1575b602082604051908152f35b90506020813d602011611dff575b81611dec60209383612051565b8101031261043a57602091505138611dc6565b3d9150611ddf565b503461026057602036600319011261026057600435611e24612573565b8082526006602052611e3c60ff60408420541661214e565b80825260046020526006604083200160ff19908181541690556006602052604083209081541690557f96fbf803f14da8437e0cbe34df7152f998dbc3b7e2343c52fb4285e90387a9ca8280a280f35b90503461043a57602036600319011261043a5760043563ffffffff60e01b81168091036105625760209250637965db0b60e01b8114908115611ecf575b5015158152f35b6301ffc9a760e01b14905038611ec8565b602435906001600160a01b038216820361047557565b60005b838110611f095750506000910152565b8181015183820152602001611ef9565b90602091611f3281518092818552858086019101611ef6565b601f01601f1916010190565b9181601f84011215610475578235916001600160401b038311610475576020838186019501011161047557565b6040906003190112610475576004359060243590565b8054821015611f9d576000526003602060002091020190600090565b634e487b7160e01b600052603260045260246000fd5b90600182811c92168015611fe3575b6020831014611fcd57565b634e487b7160e01b600052602260045260246000fd5b91607f1691611fc2565b6001600160401b03811161103f57604052565b606081019081106001600160401b0382111761103f57604052565b608081019081106001600160401b0382111761103f57604052565b604081019081106001600160401b0382111761103f57604052565b90601f801991011681019081106001600160401b0382111761103f57604052565b9060405191826000825461208581611fb3565b908184526020946001916001811690816000146120f557506001146120b6575b5050506120b492500383612051565b565b600090815285812095935091905b8183106120dd5750506120b493508201013880806120a5565b855488840185015294850194879450918301916120c4565b925050506120b494925060ff191682840152151560051b8201013880806120a5565b600554811015611f9d5760056000527f036b6384b5eca791c62761152d0c79bb0604c104a5fb6f4eb0703f3154bb3db00190600090565b1561215557565b60405162461bcd60e51b815260206004820152600c60248201526b4e6f7420747261636b696e6760a01b6044820152606490fd5b906080828203126104755780601f8301121561047557604051916121ac8361201b565b82906080810192831161047557905b8282106121c85750505090565b81518152602091820191016121bb565b919082018092116121e557565b634e487b7160e01b600052601160045260246000fd5b5190811515820361047557565b1561220f57565b60405162461bcd60e51b815260206004820152600f60248201526e139bdd081dda1a5d195b1a5cdd1959608a1b6044820152606490fd5b1561224d57565b60405162461bcd60e51b815260206004820152600f60248201526e105b1c9958591e4818db185a5b5959608a1b6044820152606490fd5b1561228b57565b60405162461bcd60e51b8152602060048201526011602482015270151a1c995cda1bdb19081b9bdd081b595d607a1b6044820152606490fd5b156122cb57565b60405162461bcd60e51b8152602060048201526009602482015268546f6f206561726c7960b81b6044820152606490fd5b519060ff8216820361047557565b6001600160401b03811161103f57601f01601f191660200190565b60055460005b81811061235a575050600090604051602081018181106001600160401b0382111761103f576040526000815290565b61236381612117565b90549060031b1c806000526004602091818352604090816000209260ff60068501541615612409576001809401549062093a8082018092116123f4575042106123e8576123af81612537565b90611d4c8210156123c95750505050506001905b0161232b565b8251948501528382015282529093925090506123e483612000565b9190565b505050506001906123c3565b601190634e487b7160e01b6000525260246000fd5b50505050506001906123c3565b1561241d57565b60405162461bcd60e51b8152602060048201526014602482015273141c9bdc195c9d1e481b9bdd081d1c9858dad95960621b6044820152606490fd5b81601f8201121561047557805161246f8161230a565b9261247d6040519485612051565b818452602082840101116104755761249b9160208085019101611ef6565b90565b610140818303126104755780519260208201516001600160401b039081811161047557846124cd918501612459565b936040840151918211610475576124e5918401612459565b9160608101519160808201519160a08101519160c08201519161250a60e082016122fc565b9161249b61012061251e61010085016121fb565b93016121fb565b60ff60019116019060ff82116121e557565b60005260046020526040600020600281015490811561256c5760030154612710908181029181830414901517156121e5570490565b5050600090565b3360009081527fee57cd81e84075558e8fcc182a1f4393f91fc97f963a136e66b7f949a62f319f60205260409020547f97667070c54ef182b0f5858b034beac1b6f3089aa2d3188bb1e8929f4fa9b9299060ff16156125cf5750565b6044906040519063e2517d3f60e01b82523360048301526024820152fd5b3360009081527fad3228b676f7d3cd4284a5443f17f1962b36e491b30a40b2405849e597ba5fb5602052604081205460ff16156125cf5750565b80600052600060205260406000203360005260205260ff60406000205416156125cf5750565b9060009180835282602052604083209160018060a01b03169182845260205260ff604084205416156000146126c657808352826020526040832082845260205260408320600160ff198254161790557f2f8788117e7eff1d82e926ec794901d17c78024a50270940304540a733656f0d339380a4600190565b505090565b9060009180835282602052604083209160018060a01b03169182845260205260ff6040842054166000146126c65780835282602052604083208284526020526040832060ff1981541690557ff6391f5c32d9c69d2a47ea670b442974b53935d1edc7fd64eb21e047a839171b339380a4600190565b908160005260209060078252604061275f8160002054600854906121d8565b42106128a3576109c48210156127e8577f505a29c5397a0038bf34d9f7baf0047c3f5eae6323bf8450c1e34dacf7cc2a1792815161279c81612036565b60148152733ab933b2b73a2fb830b93a34b1b4b830ba34b7b760611b82820152925b85600052600782524283600020556127df8351948486958652850190611f19565b918301520390a2565b611770821015806128b4575b15612846577f505a29c5397a0038bf34d9f7baf0047c3f5eae6323bf8450c1e34dacf7cc2a1792815161282681612036565b600e81526d36b4b632b9ba37b732afb732b0b960911b82820152926127be565b611b58821015806128a9575b156128a3577f505a29c5397a0038bf34d9f7baf0047c3f5eae6323bf8450c1e34dacf7cc2a1792815161288481612036565b600d81526c70686173655f636c6f73696e6760981b82820152926127be565b50505050565b50611d4c8210612852565b50611d4c82106127f4565b9081600052600460205260016040600020015462093a8081018091116121e55742106128fc57611d4c8110156128f3575050565b6120b491612900565b5050565b600154604080516332665ffb60e01b81526004810184905292936001600160a01b039092169260008082602481885afa918215612a29578192612a03575b5060ff82169460038610612956575b50505050505050565b803b1561043a5781809160248651809481936340d57a6760e11b83528c60048401525af180156129f957606095937fd786d06dd56df8b68a470fb87593bd3d76a14eeea5cf10760563177bd21496b097959360ff936129cf936129ea575b50898152600460205260038582204260018201550155612525565b8251948552166020840152820152a23880808080808061294d565b6129f390611fed565b386129b4565b84513d84823e3d90fd5b612a189192503d8084833e6105828183612051565b50509650505050505050903861293e565b508251903d90823e3d90fdfea2646970667358221220020ee4ccab98b959721970464d6d4893fc0e782e3fc3690a380d2921920af01564736f6c634300081800332f8788117e7eff1d82e926ec794901d17c78024a50270940304540a733656f0d","opcodes":"PUSH1 0x80 CALLVALUE PUSH3 0xB5 JUMPI PUSH1 0x1F PUSH3 0x2C93 CODESIZE DUP2 SWAP1 SUB SWAP2 DUP3 ADD PUSH1 0x1F NOT AND DUP4 ADD SWAP2 PUSH1 0x1 PUSH1 0x1 PUSH1 0x40 SHL SUB DUP4 GT DUP5 DUP5 LT OR PUSH3 0xBA JUMPI DUP1 DUP5 SWAP3 PUSH1 0x40 SWAP5 DUP6 MSTORE DUP4 CODECOPY DUP2 ADD SUB SLT PUSH3 0xB5 JUMPI PUSH3 0x5A PUSH1 0x20 PUSH3 0x52 DUP4 PUSH3 0xD0 JUMP JUMPDEST SWAP3 ADD PUSH3 0xD0 JUMP JUMPDEST PUSH3 0x15180 PUSH1 0x8 SSTORE PUSH1 0x1 DUP1 SLOAD PUSH1 0x1 PUSH1 0x1 PUSH1 0xA0 SHL SUB SWAP4 DUP5 AND PUSH1 0x1 PUSH1 0x1 PUSH1 0xA0 SHL SUB NOT SWAP2 DUP3 AND OR SWAP1 SWAP2 SSTORE PUSH1 0x2 DUP1 SLOAD SWAP3 SWAP1 SWAP4 AND SWAP2 AND OR SWAP1 SSTORE PUSH3 0x98 CALLER PUSH3 0xE5 JUMP JUMPDEST POP PUSH3 0xA4 CALLER PUSH3 0x165 JUMP JUMPDEST POP PUSH1 0x40 MLOAD PUSH2 0x2A6B SWAP1 DUP2 PUSH3 0x208 DUP3 CODECOPY RETURN JUMPDEST PUSH1 0x0 DUP1 REVERT JUMPDEST PUSH4 0x4E487B71 PUSH1 0xE0 SHL PUSH1 0x0 MSTORE PUSH1 0x41 PUSH1 0x4 MSTORE PUSH1 0x24 PUSH1 0x0 REVERT JUMPDEST MLOAD SWAP1 PUSH1 0x1 PUSH1 0x1 PUSH1 0xA0 SHL SUB DUP3 AND DUP3 SUB PUSH3 0xB5 JUMPI JUMP JUMPDEST PUSH1 0x1 PUSH1 0x1 PUSH1 0xA0 SHL SUB AND PUSH1 0x0 DUP2 DUP2 MSTORE PUSH32 0xAD3228B676F7D3CD4284A5443F17F1962B36E491B30A40B2405849E597BA5FB5 PUSH1 0x20 MSTORE PUSH1 0x40 DUP2 KECCAK256 SLOAD SWAP1 SWAP2 SWAP1 PUSH1 0xFF AND PUSH3 0x161 JUMPI DUP2 DUP1 MSTORE DUP2 PUSH1 0x20 MSTORE PUSH1 0x40 DUP3 KECCAK256 DUP2 DUP4 MSTORE PUSH1 0x20 MSTORE PUSH1 0x40 DUP3 KECCAK256 PUSH1 0x1 PUSH1 0xFF NOT DUP3 SLOAD AND OR SWAP1 SSTORE CALLER SWAP2 PUSH1 0x0 DUP1 MLOAD PUSH1 0x20 PUSH3 0x2C73 DUP4 CODECOPY DUP2 MLOAD SWAP2 MSTORE DUP2 DUP1 LOG4 PUSH1 0x1 SWAP1 JUMP JUMPDEST POP SWAP1 JUMP JUMPDEST PUSH1 0x1 PUSH1 0x1 PUSH1 0xA0 SHL SUB AND PUSH1 0x0 DUP2 DUP2 MSTORE PUSH32 0xEE57CD81E84075558E8FCC182A1F4393F91FC97F963A136E66B7F949A62F319F PUSH1 0x20 MSTORE PUSH1 0x40 DUP2 KECCAK256 SLOAD SWAP1 SWAP2 SWAP1 PUSH32 0x97667070C54EF182B0F5858B034BEAC1B6F3089AA2D3188BB1E8929F4FA9B929 SWAP1 PUSH1 0xFF AND PUSH3 0x202 JUMPI DUP1 DUP4 MSTORE DUP3 PUSH1 0x20 MSTORE PUSH1 0x40 DUP4 KECCAK256 DUP3 DUP5 MSTORE PUSH1 0x20 MSTORE PUSH1 0x40 DUP4 KECCAK256 PUSH1 0x1 PUSH1 0xFF NOT DUP3 SLOAD AND OR SWAP1 SSTORE PUSH1 0x0 DUP1 MLOAD PUSH1 0x20 PUSH3 0x2C73 DUP4 CODECOPY DUP2 MLOAD SWAP2 MSTORE CALLER SWAP4 DUP1 LOG4 PUSH1 0x1 SWAP1 JUMP JUMPDEST POP POP SWAP1 JUMP INVALID PUSH1 0x80 DUP1 PUSH1 0x40 MSTORE PUSH1 0x4 CALLDATASIZE LT ISZERO PUSH2 0x13 JUMPI PUSH1 0x0 DUP1 REVERT JUMPDEST PUSH1 0x0 SWAP1 DUP2 CALLDATALOAD PUSH1 0xE0 SHR SWAP1 DUP2 PUSH4 0x1FFC9A7 EQ PUSH2 0x1E8B JUMPI POP DUP1 PUSH4 0x6785D8A EQ PUSH2 0x1E07 JUMPI DUP1 PUSH4 0xAD5F421 EQ PUSH2 0x1D81 JUMPI DUP1 PUSH4 0x1194F9E9 EQ PUSH2 0x1D52 JUMPI DUP1 PUSH4 0x11F0072F EQ PUSH2 0x1BCD JUMPI DUP1 PUSH4 0x14585AEB EQ PUSH2 0x19B1 JUMPI DUP1 PUSH4 0x248A9CA3 EQ PUSH2 0x1985 JUMPI DUP1 PUSH4 0x2E94DFDA EQ PUSH2 0x191F JUMPI DUP1 PUSH4 0x2F2FF15D EQ PUSH2 0x18E2 JUMPI DUP1 PUSH4 0x30AE7805 EQ PUSH2 0x18C5 JUMPI DUP1 PUSH4 0x313B79DA EQ PUSH2 0x1811 JUMPI DUP1 PUSH4 0x32850C56 EQ PUSH2 0x16F5 JUMPI DUP1 PUSH4 0x36568ABE EQ PUSH2 0x16AD JUMPI DUP1 PUSH4 0x36BFBFB8 EQ PUSH2 0x1684 JUMPI DUP1 PUSH4 0x3A21CCC1 EQ PUSH2 0x156F JUMPI DUP1 PUSH4 0x40AB3171 EQ PUSH2 0x12EC JUMPI DUP1 PUSH4 0x43AE2695 EQ PUSH2 0x12C3 JUMPI DUP1 PUSH4 0x4585E33B EQ PUSH2 0x1215 JUMPI DUP1 PUSH4 0x5513DE41 EQ PUSH2 0x11F7 JUMPI DUP1 PUSH4 0x587BD4A7 EQ PUSH2 0x760 JUMPI DUP1 PUSH4 0x5AA6E675 EQ PUSH2 0x11CE JUMPI DUP1 PUSH4 0x5DA6559E EQ PUSH2 0x11A4 JUMPI DUP1 PUSH4 0x63E86EB8 EQ PUSH2 0x1133 JUMPI DUP1 PUSH4 0x6675584F EQ PUSH2 0x1115 JUMPI DUP1 PUSH4 0x6E04FF0D EQ PUSH2 0x10B7 JUMPI DUP1 PUSH4 0x73DE7B4B EQ PUSH2 0x108D JUMPI DUP1 PUSH4 0x785B2190 EQ PUSH2 0xEFB JUMPI DUP1 PUSH4 0x792C9718 EQ PUSH2 0xE90 JUMPI DUP1 PUSH4 0x8085B813 EQ PUSH2 0xE57 JUMPI DUP1 PUSH4 0x816AAD3C EQ PUSH2 0xD70 JUMPI DUP1 PUSH4 0x873F6F9E EQ PUSH2 0xD24 JUMPI DUP1 PUSH4 0x8947D84E EQ PUSH2 0x9C0 JUMPI DUP1 PUSH4 0x8E5359E0 EQ PUSH2 0x947 JUMPI DUP1 PUSH4 0x91D14854 EQ PUSH2 0x8FC JUMPI DUP1 PUSH4 0x94C9825D EQ PUSH2 0x84C JUMPI DUP1 PUSH4 0xA217FDDF EQ PUSH2 0x830 JUMPI DUP1 PUSH4 0xA21E6F2F EQ PUSH2 0x7C8 JUMPI DUP1 PUSH4 0xA27F71B2 EQ PUSH2 0x7AC JUMPI DUP1 PUSH4 0xA9DC8726 EQ PUSH2 0x760 JUMPI DUP1 PUSH4 0xB415D279 EQ PUSH2 0x744 JUMPI DUP1 PUSH4 0xC769368B EQ PUSH2 0x263 JUMPI DUP1 PUSH4 0xC8259776 EQ PUSH2 0x5DC JUMPI DUP1 PUSH4 0xD547741F EQ PUSH2 0x59B JUMPI DUP1 PUSH4 0xD5612486 EQ PUSH2 0x2B4 JUMPI DUP1 PUSH4 0xF333D6C2 EQ PUSH2 0x28D JUMPI DUP1 PUSH4 0xF38CF589 EQ PUSH2 0x263 JUMPI PUSH4 0xF5B541A6 EQ PUSH2 0x226 JUMPI PUSH1 0x0 DUP1 REVERT JUMPDEST CALLVALUE PUSH2 0x260 JUMPI DUP1 PUSH1 0x3 NOT CALLDATASIZE ADD SLT PUSH2 0x260 JUMPI PUSH1 0x20 PUSH1 0x40 MLOAD PUSH32 0x97667070C54EF182B0F5858B034BEAC1B6F3089AA2D3188BB1E8929F4FA9B929 DUP2 MSTORE RETURN JUMPDEST DUP1 REVERT JUMPDEST POP CALLVALUE PUSH2 0x260 JUMPI PUSH1 0x20 CALLDATASIZE PUSH1 0x3 NOT ADD SLT PUSH2 0x260 JUMPI PUSH1 0x40 PUSH1 0x20 SWAP2 PUSH1 0x4 CALLDATALOAD DUP2 MSTORE PUSH1 0xC DUP4 MSTORE KECCAK256 SLOAD PUSH1 0x40 MLOAD SWAP1 DUP2 MSTORE RETURN JUMPDEST POP CALLVALUE PUSH2 0x260 JUMPI PUSH1 0x20 CALLDATASIZE PUSH1 0x3 NOT ADD SLT PUSH2 0x260 JUMPI PUSH1 0x20 PUSH2 0x2AC PUSH1 0x4 CALLDATALOAD PUSH2 0x2537 JUMP JUMPDEST PUSH1 0x40 MLOAD SWAP1 DUP2 MSTORE RETURN JUMPDEST POP CALLVALUE PUSH2 0x260 JUMPI PUSH1 0x20 DUP1 PUSH1 0x3 NOT CALLDATASIZE ADD SLT PUSH2 0x43A JUMPI PUSH1 0x24 PUSH1 0x4 CALLDATALOAD SWAP2 DUP4 PUSH1 0x1 DUP1 PUSH1 0xA0 SHL SUB DUP2 DUP2 PUSH1 0x1 SLOAD AND PUSH1 0x40 MLOAD SWAP6 DUP7 DUP1 SWAP3 PUSH4 0x32665FFB PUSH1 0xE0 SHL DUP3 MSTORE DUP10 PUSH1 0x4 DUP4 ADD MSTORE GAS STATICCALL SWAP4 DUP5 ISZERO PUSH2 0x42F JUMPI DUP3 SWAP5 PUSH2 0x56D JUMPI JUMPDEST POP DUP1 PUSH1 0x3 SLOAD AND DUP1 PUSH2 0x4C8 JUMPI JUMPDEST POP PUSH1 0x1 SLOAD PUSH1 0x40 MLOAD PUSH4 0x6EA99677 PUSH1 0xE0 SHL DUP2 MSTORE PUSH1 0x4 DUP2 ADD DUP8 SWAP1 MSTORE PUSH1 0xFF DUP7 AND PUSH1 0x24 DUP3 ADD MSTORE SWAP2 AND SWAP1 DUP4 DUP2 PUSH1 0x44 DUP2 DUP6 GAS STATICCALL SWAP1 DUP2 ISZERO PUSH2 0x4BD JUMPI DUP4 SWAP2 PUSH2 0x48C JUMPI JUMPDEST POP PUSH1 0x40 MLOAD PUSH4 0x4FA6173 PUSH1 0xE0 SHL DUP2 MSTORE PUSH1 0x4 DUP2 ADD DUP8 SWAP1 MSTORE PUSH1 0xFF DUP7 AND PUSH1 0x24 DUP3 ADD MSTORE DUP5 DUP2 PUSH1 0x44 DUP2 DUP7 GAS STATICCALL SWAP1 DUP2 ISZERO PUSH2 0x481 JUMPI DUP5 SWAP2 PUSH2 0x44B JUMPI JUMPDEST POP LT ISZERO DUP1 PUSH2 0x43E JUMPI JUMPDEST PUSH2 0x38D JUMPI POP DUP1 RETURN JUMPDEST DUP1 EXTCODESIZE ISZERO PUSH2 0x43A JUMPI DUP2 DUP1 SWAP2 PUSH1 0x24 PUSH1 0x40 MLOAD DUP1 SWAP5 DUP2 SWAP4 PUSH4 0x40D57A67 PUSH1 0xE1 SHL DUP4 MSTORE DUP11 PUSH1 0x4 DUP5 ADD MSTORE GAS CALL DUP1 ISZERO PUSH2 0x42F JUMPI PUSH2 0x417 JUMPI JUMPDEST POP SWAP2 PUSH1 0x40 SWAP2 DUP5 PUSH32 0x7214C5E85040CB3E35452FA6FF842070826B1D0BD195171E1C75E6D07BC1B96C SWAP5 MSTORE PUSH1 0x4 DUP2 MSTORE DUP6 PUSH1 0x3 DUP5 DUP3 KECCAK256 TIMESTAMP PUSH1 0x1 DUP3 ADD SSTORE ADD SSTORE PUSH1 0xFF PUSH2 0x403 DUP4 PUSH2 0x2525 JUMP JUMPDEST DUP2 DUP6 MLOAD SWAP5 AND DUP5 MSTORE AND SWAP1 DUP3 ADD MSTORE LOG2 CODESIZE DUP1 DUP1 DUP4 DUP1 RETURN JUMPDEST PUSH2 0x420 SWAP1 PUSH2 0x1FED JUMP JUMPDEST PUSH2 0x42B JUMPI DUP4 CODESIZE PUSH2 0x3BD JUMP JUMPDEST DUP4 DUP1 REVERT JUMPDEST PUSH1 0x40 MLOAD RETURNDATASIZE DUP5 DUP3 RETURNDATACOPY RETURNDATASIZE SWAP1 REVERT JUMPDEST POP DUP1 REVERT JUMPDEST POP PUSH1 0x3 PUSH1 0xFF DUP6 AND LT PUSH2 0x385 JUMP JUMPDEST DUP1 SWAP5 POP DUP6 DUP1 SWAP3 POP RETURNDATASIZE DUP4 GT PUSH2 0x47A JUMPI JUMPDEST PUSH2 0x464 DUP2 DUP4 PUSH2 0x2051 JUMP JUMPDEST DUP2 ADD SUB SLT PUSH2 0x475 JUMPI DUP7 SWAP3 MLOAD CODESIZE PUSH2 0x37C JUMP JUMPDEST PUSH1 0x0 DUP1 REVERT JUMPDEST POP RETURNDATASIZE PUSH2 0x45A JUMP JUMPDEST PUSH1 0x40 MLOAD RETURNDATASIZE DUP7 DUP3 RETURNDATACOPY RETURNDATASIZE SWAP1 REVERT JUMPDEST DUP1 SWAP4 POP DUP5 DUP1 SWAP3 POP RETURNDATASIZE DUP4 GT PUSH2 0x4B6 JUMPI JUMPDEST PUSH2 0x4A5 DUP2 DUP4 PUSH2 0x2051 JUMP JUMPDEST DUP2 ADD SUB SLT PUSH2 0x475 JUMPI DUP6 SWAP2 MLOAD CODESIZE PUSH2 0x348 JUMP JUMPDEST POP RETURNDATASIZE PUSH2 0x49B JUMP JUMPDEST PUSH1 0x40 MLOAD RETURNDATASIZE DUP6 DUP3 RETURNDATACOPY RETURNDATASIZE SWAP1 REVERT JUMPDEST PUSH1 0x40 MLOAD PUSH4 0x512AE2CB PUSH1 0xE0 SHL DUP2 MSTORE CALLER PUSH1 0x4 DUP3 ADD MSTORE PUSH1 0x24 DUP2 ADD DUP8 SWAP1 MSTORE SWAP1 DUP5 SWAP1 DUP3 SWAP1 PUSH1 0x44 SWAP1 DUP3 SWAP1 DUP8 SWAP1 GAS CALL SWAP1 DUP2 ISZERO PUSH2 0x4BD JUMPI DUP4 SWAP2 PUSH2 0x534 JUMPI JUMPDEST POP PUSH1 0xFF PUSH1 0x40 MLOAD SWAP2 AND DUP2 MSTORE DUP6 PUSH32 0x3DEB93045F72CE1D7FD6C683F79644B908C62D45D5615B482654972E36F77D6B DUP6 CALLER SWAP4 LOG3 CODESIZE PUSH2 0x30E JUMP JUMPDEST SWAP1 POP DUP4 DUP2 DUP2 RETURNDATASIZE DUP4 GT PUSH2 0x566 JUMPI JUMPDEST PUSH2 0x54B DUP2 DUP4 PUSH2 0x2051 JUMP JUMPDEST DUP2 ADD SUB SLT PUSH2 0x562 JUMPI PUSH2 0x55C SWAP1 PUSH2 0x22FC JUMP JUMPDEST CODESIZE PUSH2 0x4FE JUMP JUMPDEST DUP3 DUP1 REVERT JUMPDEST POP RETURNDATASIZE PUSH2 0x541 JUMP JUMPDEST PUSH2 0x58A SWAP2 SWAP5 POP RETURNDATASIZE DUP1 DUP5 DUP4 RETURNDATACOPY PUSH2 0x582 DUP2 DUP4 PUSH2 0x2051 JUMP JUMPDEST DUP2 ADD SWAP1 PUSH2 0x249E JUMP JUMPDEST POP POP SWAP7 POP POP POP POP POP POP POP SWAP3 CODESIZE PUSH2 0x302 JUMP JUMPDEST POP CALLVALUE PUSH2 0x260 JUMPI PUSH1 0x40 CALLDATASIZE PUSH1 0x3 NOT ADD SLT PUSH2 0x260 JUMPI PUSH2 0x5D8 PUSH1 0x4 CALLDATALOAD PUSH2 0x5BB PUSH2 0x1EE0 JUMP JUMPDEST SWAP1 DUP1 DUP5 MSTORE DUP4 PUSH1 0x20 MSTORE PUSH2 0x5D3 PUSH1 0x1 PUSH1 0x40 DUP7 KECCAK256 ADD SLOAD PUSH2 0x2627 JUMP JUMPDEST PUSH2 0x26CB JUMP JUMPDEST POP DUP1 RETURN JUMPDEST POP CALLVALUE PUSH2 0x260 JUMPI PUSH1 0x20 CALLDATASIZE PUSH1 0x3 NOT ADD SLT PUSH2 0x260 JUMPI PUSH1 0x4 CALLDATALOAD PUSH2 0x5F9 PUSH2 0x2573 JUMP JUMPDEST DUP1 DUP3 MSTORE PUSH1 0x6 PUSH1 0x20 MSTORE PUSH2 0x611 PUSH1 0xFF PUSH1 0x40 DUP5 KECCAK256 SLOAD AND PUSH2 0x2416 JUMP JUMPDEST DUP1 DUP3 MSTORE PUSH1 0x4 PUSH1 0x20 MSTORE PUSH1 0x40 DUP3 KECCAK256 PUSH2 0x62D PUSH1 0xFF PUSH1 0x6 DUP4 ADD SLOAD AND PUSH2 0x214E JUMP JUMPDEST PUSH1 0x2 SLOAD PUSH1 0x40 MLOAD PUSH4 0xAF4DA41 PUSH1 0xE0 SHL DUP2 MSTORE SWAP1 PUSH1 0x80 SWAP1 DUP3 SWAP1 PUSH1 0x4 SWAP1 DUP3 SWAP1 PUSH1 0x1 PUSH1 0x1 PUSH1 0xA0 SHL SUB AND GAS STATICCALL SWAP1 DUP2 ISZERO PUSH2 0x481 JUMPI DUP5 SWAP2 PUSH2 0x715 JUMPI JUMPDEST POP MLOAD SWAP1 DUP3 PUSH32 0xB3316E92A7702B6D2AF84BCE789E7E416E7C7D89DD355EB882CBF1BD1E443618 PUSH1 0x40 DUP1 MLOAD DUP8 DUP2 MSTORE DUP6 PUSH1 0x20 DUP3 ADD MSTORE LOG2 PUSH2 0x1D4C DUP3 LT ISZERO SWAP1 DUP2 PUSH2 0x6E5 JUMPI JUMPDEST POP PUSH2 0x6AA JUMPI DUP3 DUP1 RETURN JUMPDEST PUSH1 0x20 DUP2 PUSH2 0x6D8 PUSH32 0x25F2B88B09799C057D36C9CC83FC1013F5534E15A4E9AE28471219E7AE85F79F SWAP4 DUP6 PUSH2 0x2900 JUMP JUMPDEST PUSH1 0x40 MLOAD SWAP1 DUP2 MSTORE LOG2 CODESIZE DUP1 DUP3 DUP1 RETURN JUMPDEST PUSH1 0x1 SWAP2 POP ADD SLOAD PUSH3 0x93A80 DUP2 ADD DUP1 SWAP2 GT PUSH2 0x701 JUMPI TIMESTAMP LT ISZERO CODESIZE PUSH2 0x6A1 JUMP JUMPDEST PUSH4 0x4E487B71 PUSH1 0xE0 SHL DUP5 MSTORE PUSH1 0x11 PUSH1 0x4 MSTORE PUSH1 0x24 DUP5 REVERT JUMPDEST PUSH2 0x737 SWAP2 POP PUSH1 0x80 RETURNDATASIZE PUSH1 0x80 GT PUSH2 0x73D JUMPI JUMPDEST PUSH2 0x72F DUP2 DUP4 PUSH2 0x2051 JUMP JUMPDEST DUP2 ADD SWAP1 PUSH2 0x2189 JUMP JUMPDEST CODESIZE PUSH2 0x661 JUMP JUMPDEST POP RETURNDATASIZE PUSH2 0x725 JUMP JUMPDEST POP CALLVALUE PUSH2 0x260 JUMPI DUP1 PUSH1 0x3 NOT CALLDATASIZE ADD SLT PUSH2 0x260 JUMPI PUSH1 0x20 PUSH1 0x40 MLOAD PUSH1 0x1 DUP2 MSTORE RETURN JUMPDEST POP CALLVALUE PUSH2 0x260 JUMPI PUSH1 0x40 CALLDATASIZE PUSH1 0x3 NOT ADD SLT PUSH2 0x260 JUMPI PUSH1 0x40 PUSH2 0x77C PUSH2 0x1EE0 JUMP JUMPDEST SWAP2 PUSH1 0x4 CALLDATALOAD DUP2 MSTORE PUSH1 0xA PUSH1 0x20 MSTORE KECCAK256 SWAP1 PUSH1 0x1 DUP1 PUSH1 0xA0 SHL SUB AND PUSH1 0x0 MSTORE PUSH1 0x20 MSTORE PUSH1 0x20 PUSH1 0xFF PUSH1 0x40 PUSH1 0x0 KECCAK256 SLOAD AND PUSH1 0x40 MLOAD SWAP1 ISZERO ISZERO DUP2 MSTORE RETURN JUMPDEST POP CALLVALUE PUSH2 0x260 JUMPI DUP1 PUSH1 0x3 NOT CALLDATASIZE ADD SLT PUSH2 0x260 JUMPI PUSH1 0x20 PUSH1 0x40 MLOAD PUSH1 0x32 DUP2 MSTORE RETURN JUMPDEST POP CALLVALUE PUSH2 0x260 JUMPI PUSH1 0x20 CALLDATASIZE PUSH1 0x3 NOT ADD SLT PUSH2 0x260 JUMPI PUSH1 0x4 CALLDATALOAD PUSH1 0x1 PUSH1 0x1 PUSH1 0xA0 SHL SUB DUP2 AND SWAP1 DUP2 SWAP1 SUB PUSH2 0x475 JUMPI PUSH2 0x7F7 PUSH2 0x25ED JUMP JUMPDEST PUSH1 0x3 DUP1 SLOAD PUSH1 0x1 PUSH1 0x1 PUSH1 0xA0 SHL SUB NOT AND DUP3 OR SWAP1 SSTORE PUSH32 0x8F5DF5B0B3AFCB3D662DEAC3413C7E01BA3E60969E26401EFBB3AA12E25B7CF9 DUP3 DUP1 LOG2 DUP1 RETURN JUMPDEST POP CALLVALUE PUSH2 0x260 JUMPI DUP1 PUSH1 0x3 NOT CALLDATASIZE ADD SLT PUSH2 0x260 JUMPI PUSH1 0x20 SWAP1 PUSH1 0x40 MLOAD SWAP1 DUP2 MSTORE RETURN JUMPDEST POP CALLVALUE PUSH2 0x260 JUMPI PUSH1 0x80 CALLDATASIZE PUSH1 0x3 NOT ADD SLT PUSH2 0x260 JUMPI PUSH2 0x8F9 PUSH1 0x24 CALLDATALOAD PUSH1 0x4 CALLDATALOAD PUSH2 0x86F PUSH2 0x2573 JUMP JUMPDEST DUP1 DUP5 MSTORE PUSH1 0x4 PUSH1 0x20 MSTORE DUP1 PUSH32 0x63BD409A0CA0450137D1B574E1E74A5A18CC8934D8F718C1603619B971CE6737 PUSH1 0x40 DUP7 KECCAK256 SWAP4 PUSH2 0x8AE PUSH1 0xFF PUSH1 0x6 DUP8 ADD SLOAD AND PUSH2 0x214E JUMP JUMPDEST DUP1 PUSH1 0x3 DUP7 ADD SSTORE PUSH1 0x44 CALLDATALOAD PUSH1 0x4 DUP7 ADD SSTORE PUSH1 0x64 CALLDATALOAD PUSH1 0x5 DUP7 ADD SSTORE PUSH1 0x2 PUSH2 0x8CF DUP5 PUSH2 0x2537 JUMP JUMPDEST SWAP6 ADD SLOAD PUSH1 0x40 DUP1 MLOAD SWAP3 DUP4 MSTORE PUSH1 0x20 DUP4 ADD SWAP2 SWAP1 SWAP2 MSTORE DUP2 ADD DUP6 SWAP1 MSTORE PUSH1 0x60 SWAP1 LOG2 PUSH2 0x8F4 DUP3 DUP3 PUSH2 0x2740 JUMP JUMPDEST PUSH2 0x28BF JUMP JUMPDEST DUP1 RETURN JUMPDEST POP CALLVALUE PUSH2 0x260 JUMPI PUSH1 0x40 CALLDATASIZE PUSH1 0x3 NOT ADD SLT PUSH2 0x260 JUMPI PUSH1 0x40 PUSH2 0x918 PUSH2 0x1EE0 JUMP JUMPDEST SWAP2 PUSH1 0x4 CALLDATALOAD DUP2 MSTORE DUP1 PUSH1 0x20 MSTORE KECCAK256 SWAP1 PUSH1 0x1 DUP1 PUSH1 0xA0 SHL SUB AND PUSH1 0x0 MSTORE PUSH1 0x20 MSTORE PUSH1 0x20 PUSH1 0xFF PUSH1 0x40 PUSH1 0x0 KECCAK256 SLOAD AND PUSH1 0x40 MLOAD SWAP1 ISZERO ISZERO DUP2 MSTORE RETURN JUMPDEST POP CALLVALUE PUSH2 0x260 JUMPI PUSH1 0x20 CALLDATASIZE PUSH1 0x3 NOT ADD SLT PUSH2 0x260 JUMPI PUSH1 0x4 CALLDATALOAD PUSH2 0x964 PUSH2 0x25ED JUMP JUMPDEST PUSH2 0xE10 DUP2 LT ISZERO DUP1 PUSH2 0x9B3 JUMPI JUMPDEST ISZERO PUSH2 0x97B JUMPI PUSH1 0x8 SSTORE DUP1 RETURN JUMPDEST PUSH1 0x40 MLOAD PUSH3 0x461BCD PUSH1 0xE5 SHL DUP2 MSTORE PUSH1 0x20 PUSH1 0x4 DUP3 ADD MSTORE PUSH1 0x10 PUSH1 0x24 DUP3 ADD MSTORE PUSH16 0x24B73B30B634B21031B7B7B63237BBB7 PUSH1 0x81 SHL PUSH1 0x44 DUP3 ADD MSTORE PUSH1 0x64 SWAP1 REVERT JUMPDEST POP PUSH3 0x93A80 DUP2 GT ISZERO PUSH2 0x970 JUMP JUMPDEST POP CALLVALUE PUSH2 0x260 JUMPI PUSH1 0x60 CALLDATASIZE PUSH1 0x3 NOT ADD SLT PUSH2 0x260 JUMPI PUSH1 0x1 PUSH1 0x1 PUSH1 0x40 SHL SUB PUSH1 0x24 CALLDATALOAD DUP2 DUP2 GT PUSH2 0x562 JUMPI PUSH2 0x9F2 SWAP1 CALLDATASIZE SWAP1 PUSH1 0x4 ADD PUSH2 0x1F3E JUMP JUMPDEST SWAP2 PUSH2 0x9FB PUSH2 0x2573 JUMP JUMPDEST DUP3 ISZERO PUSH2 0xCEB JUMPI PUSH1 0x4 CALLDATALOAD DUP5 MSTORE PUSH1 0xD PUSH1 0x20 MSTORE PUSH1 0x40 DUP5 KECCAK256 PUSH1 0x40 MLOAD SWAP1 PUSH2 0xA1C DUP3 PUSH2 0x2000 JUMP JUMPDEST PUSH2 0xA25 DUP6 PUSH2 0x230A JUMP JUMPDEST PUSH2 0xA32 PUSH1 0x40 MLOAD SWAP2 DUP3 PUSH2 0x2051 JUMP JUMPDEST DUP6 DUP2 MSTORE CALLDATASIZE DUP7 DUP7 ADD GT PUSH2 0xCE7 JUMPI DUP6 DUP6 PUSH1 0x20 DUP4 ADD CALLDATACOPY DUP7 PUSH1 0x20 DUP8 DUP4 ADD ADD MSTORE DUP3 MSTORE PUSH1 0x44 CALLDATALOAD PUSH1 0x20 DUP4 ADD MSTORE TIMESTAMP PUSH1 0x40 DUP4 ADD MSTORE DUP1 SLOAD SWAP1 PUSH1 0x1 PUSH1 0x40 SHL DUP3 LT ISZERO PUSH2 0xCBF JUMPI SWAP1 PUSH2 0xA7C SWAP2 PUSH1 0x1 DUP3 ADD DUP2 SSTORE PUSH2 0x1F81 JUMP JUMPDEST SWAP3 SWAP1 SWAP3 PUSH2 0xCD3 JUMPI DUP2 MLOAD DUP1 MLOAD SWAP2 DUP3 GT PUSH2 0xCBF JUMPI PUSH2 0xA98 DUP5 SLOAD PUSH2 0x1FB3 JUMP JUMPDEST PUSH1 0x1F DUP2 GT PUSH2 0xC7D JUMPI JUMPDEST POP PUSH1 0x20 SWAP1 PUSH1 0x1F DUP4 GT PUSH1 0x1 EQ PUSH2 0xC14 JUMPI SWAP2 DUP1 PUSH1 0x2 SWAP5 SWAP3 PUSH1 0x40 SWAP5 DUP11 SWAP3 PUSH2 0xC09 JUMPI JUMPDEST POP POP DUP2 PUSH1 0x1 SHL SWAP2 PUSH1 0x0 NOT SWAP1 PUSH1 0x3 SHL SHR NOT AND OR DUP5 SSTORE JUMPDEST PUSH1 0x20 DUP2 ADD MLOAD PUSH1 0x1 DUP6 ADD SSTORE ADD MLOAD SWAP2 ADD SSTORE PUSH1 0x4 CALLDATALOAD DUP4 MSTORE PUSH1 0xC PUSH1 0x20 MSTORE PUSH1 0x40 DUP4 KECCAK256 SLOAD DUP4 PUSH1 0x44 CALLDATALOAD SLT ISZERO PUSH1 0x0 EQ PUSH2 0xB94 JUMPI SWAP1 PUSH2 0xB2F PUSH32 0xE6EC1E353840918148BC901761CC2C4DA16A904A87ED4EB9F95A05EDE9573636 SWAP3 PUSH1 0x44 CALLDATALOAD SWAP1 PUSH2 0x21D8 JUMP JUMPDEST PUSH2 0x2710 DUP1 DUP3 GT PUSH2 0xB8C JUMPI JUMPDEST POP JUMPDEST PUSH1 0x4 CALLDATALOAD DUP6 MSTORE PUSH1 0xC PUSH1 0x20 MSTORE DUP1 PUSH1 0x40 DUP7 KECCAK256 SSTORE DUP4 PUSH1 0x40 MLOAD SWAP3 PUSH1 0x60 DUP5 MSTORE DUP2 PUSH1 0x60 DUP6 ADD MSTORE PUSH1 0x80 DUP5 ADD CALLDATACOPY DUP5 PUSH1 0x80 DUP6 DUP5 ADD ADD MSTORE PUSH1 0x44 CALLDATALOAD PUSH1 0x20 DUP4 ADD MSTORE PUSH1 0x40 DUP3 ADD MSTORE PUSH1 0x80 DUP2 PUSH1 0x4 CALLDATALOAD SWAP5 PUSH1 0x1F DUP1 NOT SWAP2 ADD AND DUP2 ADD SUB ADD SWAP1 LOG2 DUP1 RETURN JUMPDEST SWAP1 POP CODESIZE PUSH2 0xB3A JUMP JUMPDEST PUSH1 0x44 CALLDATALOAD PUSH1 0x1 PUSH1 0xFF SHL EQ PUSH2 0x701 JUMPI PUSH1 0x44 CALLDATALOAD DUP5 SUB DUP2 GT PUSH2 0xBD5 JUMPI POP PUSH32 0xE6EC1E353840918148BC901761CC2C4DA16A904A87ED4EB9F95A05EDE9573636 SWAP1 DUP4 PUSH2 0xB3C JUMP JUMPDEST PUSH1 0x44 CALLDATALOAD DUP2 ADD SWAP1 DUP2 GT PUSH2 0x701 JUMPI SWAP1 PUSH32 0xE6EC1E353840918148BC901761CC2C4DA16A904A87ED4EB9F95A05EDE9573636 SWAP2 PUSH2 0xB3C JUMP JUMPDEST ADD MLOAD SWAP1 POP CODESIZE DUP1 PUSH2 0xAC0 JUMP JUMPDEST DUP5 DUP9 MSTORE PUSH1 0x20 DUP9 KECCAK256 SWAP2 SWAP1 PUSH1 0x1F NOT DUP5 AND DUP10 JUMPDEST DUP2 DUP2 LT PUSH2 0xC65 JUMPI POP SWAP3 PUSH1 0x1 SWAP3 DUP6 SWAP3 PUSH1 0x40 SWAP7 PUSH1 0x2 SWAP9 SWAP7 LT PUSH2 0xC4C JUMPI JUMPDEST POP POP POP DUP2 SHL ADD DUP5 SSTORE PUSH2 0xAD5 JUMP JUMPDEST ADD MLOAD PUSH1 0x0 NOT PUSH1 0xF8 DUP5 PUSH1 0x3 SHL AND SHR NOT AND SWAP1 SSTORE CODESIZE DUP1 DUP1 PUSH2 0xC3F JUMP JUMPDEST SWAP3 SWAP4 PUSH1 0x20 PUSH1 0x1 DUP2 SWAP3 DUP8 DUP7 ADD MLOAD DUP2 SSTORE ADD SWAP6 ADD SWAP4 ADD PUSH2 0xC24 JUMP JUMPDEST DUP5 DUP9 MSTORE PUSH1 0x20 DUP9 KECCAK256 PUSH1 0x1F DUP5 ADD PUSH1 0x5 SHR DUP2 ADD PUSH1 0x20 DUP6 LT PUSH2 0xCB8 JUMPI JUMPDEST PUSH1 0x1F DUP4 ADD PUSH1 0x5 SHR DUP3 ADD DUP2 LT PUSH2 0xCAC JUMPI POP POP PUSH2 0xAA1 JUMP JUMPDEST PUSH1 0x0 DUP2 SSTORE PUSH1 0x1 ADD PUSH2 0xC96 JUMP JUMPDEST POP DUP1 PUSH2 0xC96 JUMP JUMPDEST PUSH4 0x4E487B71 PUSH1 0xE0 SHL DUP8 MSTORE PUSH1 0x41 PUSH1 0x4 MSTORE PUSH1 0x24 DUP8 REVERT JUMPDEST PUSH4 0x4E487B71 PUSH1 0xE0 SHL DUP7 MSTORE PUSH1 0x4 DUP7 SWAP1 MSTORE PUSH1 0x24 DUP7 REVERT JUMPDEST DUP7 DUP1 REVERT JUMPDEST PUSH1 0x40 MLOAD PUSH3 0x461BCD PUSH1 0xE5 SHL DUP2 MSTORE PUSH1 0x20 PUSH1 0x4 DUP3 ADD MSTORE PUSH1 0x11 PUSH1 0x24 DUP3 ADD MSTORE PUSH17 0x10D85D1959DBDC9E481C995C5D5A5C9959 PUSH1 0x7A SHL PUSH1 0x44 DUP3 ADD MSTORE PUSH1 0x64 SWAP1 REVERT JUMPDEST POP CALLVALUE PUSH2 0x260 JUMPI PUSH1 0x40 CALLDATASIZE PUSH1 0x3 NOT ADD SLT PUSH2 0x260 JUMPI PUSH1 0x40 PUSH2 0xD40 PUSH2 0x1EE0 JUMP JUMPDEST SWAP2 PUSH1 0x4 CALLDATALOAD DUP2 MSTORE PUSH1 0x9 PUSH1 0x20 MSTORE KECCAK256 SWAP1 PUSH1 0x1 DUP1 PUSH1 0xA0 SHL SUB AND PUSH1 0x0 MSTORE PUSH1 0x20 MSTORE PUSH1 0x20 PUSH1 0xFF PUSH1 0x40 PUSH1 0x0 KECCAK256 SLOAD AND PUSH1 0x40 MLOAD SWAP1 ISZERO ISZERO DUP2 MSTORE RETURN JUMPDEST POP CALLVALUE PUSH2 0x260 JUMPI PUSH1 0x40 CALLDATASIZE PUSH1 0x3 NOT ADD SLT PUSH2 0x260 JUMPI PUSH1 0x4 CALLDATALOAD PUSH2 0xD8D PUSH2 0x1EE0 JUMP JUMPDEST SWAP1 PUSH2 0xD96 PUSH2 0x2573 JUMP JUMPDEST DUP1 DUP4 MSTORE PUSH1 0x20 PUSH1 0x6 DUP2 MSTORE PUSH2 0xDAF PUSH1 0xFF PUSH1 0x40 DUP7 KECCAK256 SLOAD AND PUSH2 0x2416 JUMP JUMPDEST DUP2 DUP5 MSTORE PUSH1 0xA DUP2 MSTORE PUSH1 0x40 DUP1 DUP6 KECCAK256 PUSH1 0x1 PUSH1 0x1 PUSH1 0xA0 SHL SUB SWAP1 SWAP5 AND PUSH1 0x0 DUP2 DUP2 MSTORE SWAP5 DUP4 MSTORE SWAP4 KECCAK256 SLOAD PUSH1 0xFF AND PUSH2 0xE20 JUMPI DUP2 DUP5 MSTORE PUSH1 0xA DUP2 MSTORE PUSH1 0x40 DUP5 KECCAK256 SWAP1 DUP4 PUSH1 0x0 MSTORE MSTORE PUSH1 0x40 PUSH1 0x0 KECCAK256 PUSH1 0x1 PUSH1 0xFF NOT DUP3 SLOAD AND OR SWAP1 SSTORE PUSH32 0x9C81720C57D474644D653192DB4AEE34EFF3E6B5C6B80E4C283AB58871C9382E DUP4 DUP1 LOG3 DUP1 RETURN JUMPDEST PUSH1 0x64 SWAP1 PUSH1 0x40 MLOAD SWAP1 PUSH3 0x461BCD PUSH1 0xE5 SHL DUP3 MSTORE PUSH1 0x4 DUP3 ADD MSTORE PUSH1 0x10 PUSH1 0x24 DUP3 ADD MSTORE PUSH16 0x105B1C9958591E481C9958DBDC991959 PUSH1 0x82 SHL PUSH1 0x44 DUP3 ADD MSTORE REVERT JUMPDEST POP CALLVALUE PUSH2 0x260 JUMPI PUSH1 0x20 CALLDATASIZE PUSH1 0x3 NOT ADD SLT PUSH2 0x260 JUMPI PUSH1 0x4 CALLDATALOAD SWAP1 PUSH1 0x5 SLOAD DUP3 LT ISZERO PUSH2 0x260 JUMPI PUSH1 0x20 PUSH2 0xE82 DUP4 PUSH2 0x2117 JUMP JUMPDEST SWAP1 SLOAD PUSH1 0x40 MLOAD SWAP2 PUSH1 0x3 SHL SHR DUP2 MSTORE RETURN JUMPDEST POP CALLVALUE PUSH2 0x260 JUMPI PUSH2 0xE9F CALLDATASIZE PUSH2 0x1F6B JUMP JUMPDEST SWAP2 SWAP1 DUP2 MSTORE PUSH1 0xD PUSH1 0x20 MSTORE PUSH1 0x40 DUP2 KECCAK256 SWAP1 DUP2 SLOAD DUP4 LT ISZERO PUSH2 0x260 JUMPI PUSH2 0xEEC PUSH2 0xEC3 DUP5 DUP5 PUSH2 0x1F81 JUMP JUMPDEST POP PUSH2 0xECD DUP2 PUSH2 0x2072 JUMP JUMPDEST SWAP1 PUSH1 0x2 PUSH1 0x1 DUP3 ADD SLOAD SWAP2 ADD SLOAD PUSH1 0x40 MLOAD SWAP4 DUP5 SWAP4 PUSH1 0x60 DUP6 MSTORE PUSH1 0x60 DUP6 ADD SWAP1 PUSH2 0x1F19 JUMP JUMPDEST SWAP2 PUSH1 0x20 DUP5 ADD MSTORE PUSH1 0x40 DUP4 ADD MSTORE SUB SWAP1 RETURN JUMPDEST POP CALLVALUE PUSH2 0x260 JUMPI PUSH2 0xF0A CALLDATASIZE PUSH2 0x1F6B JUMP JUMPDEST PUSH2 0xF12 PUSH2 0x2573 JUMP JUMPDEST DUP2 DUP4 MSTORE PUSH1 0x6 PUSH1 0x20 MSTORE PUSH1 0xFF PUSH1 0x40 DUP5 KECCAK256 SLOAD AND PUSH2 0x1055 JUMPI PUSH1 0x40 MLOAD PUSH1 0xE0 DUP2 ADD SWAP1 DUP1 DUP3 LT PUSH1 0x1 PUSH1 0x1 PUSH1 0x40 SHL SUB DUP4 GT OR PUSH2 0x103F JUMPI PUSH1 0x6 SWAP2 PUSH1 0x40 MSTORE DUP4 DUP2 MSTORE PUSH1 0x20 DUP2 ADD SWAP3 TIMESTAMP DUP5 MSTORE PUSH1 0x40 DUP3 ADD SWAP1 DUP2 MSTORE PUSH1 0x60 DUP3 ADD DUP7 DUP2 MSTORE PUSH1 0x80 DUP4 ADD SWAP1 DUP8 DUP3 MSTORE PUSH1 0xA0 DUP5 ADD SWAP3 DUP9 DUP5 MSTORE PUSH1 0xC0 DUP6 ADD SWAP7 PUSH1 0x1 DUP9 MSTORE DUP9 DUP11 MSTORE PUSH1 0x4 PUSH1 0x20 MSTORE PUSH1 0x40 DUP11 KECCAK256 SWAP6 MLOAD DUP7 SSTORE MLOAD PUSH1 0x1 DUP7 ADD SSTORE MLOAD PUSH1 0x2 DUP6 ADD SSTORE MLOAD PUSH1 0x3 DUP5 ADD SSTORE MLOAD PUSH1 0x4 DUP4 ADD SSTORE MLOAD PUSH1 0x5 DUP3 ADD SSTORE ADD SWAP1 MLOAD ISZERO ISZERO SWAP1 PUSH1 0xFF NOT SWAP2 PUSH1 0xFF DUP4 DUP4 SLOAD AND SWAP2 AND OR SWAP1 SSTORE PUSH1 0x5 SLOAD PUSH1 0x1 PUSH1 0x40 SHL DUP2 LT ISZERO PUSH2 0x102B JUMPI DUP1 PUSH1 0x1 PUSH2 0xFDA SWAP3 ADD PUSH1 0x5 SSTORE PUSH2 0x2117 JUMP JUMPDEST DUP2 SLOAD SWAP1 PUSH1 0x3 SHL SWAP1 DUP5 DUP3 SHL SWAP2 PUSH1 0x0 NOT SWAP1 SHL NOT AND OR SWAP1 SSTORE DUP2 DUP4 MSTORE PUSH1 0x6 PUSH1 0x20 MSTORE PUSH1 0x1 PUSH1 0x40 DUP5 KECCAK256 SWAP2 DUP3 SLOAD AND OR SWAP1 SSTORE PUSH32 0x3621586063592251ACF2253A10FE8119554DBB0BF93D6E875B85A3A66A2166B9 DUP3 DUP1 LOG2 DUP1 RETURN JUMPDEST PUSH4 0x4E487B71 PUSH1 0xE0 SHL DUP5 MSTORE PUSH1 0x41 PUSH1 0x4 MSTORE PUSH1 0x24 DUP5 REVERT JUMPDEST PUSH4 0x4E487B71 PUSH1 0xE0 SHL PUSH1 0x0 MSTORE PUSH1 0x41 PUSH1 0x4 MSTORE PUSH1 0x24 PUSH1 0x0 REVERT JUMPDEST PUSH1 0x40 MLOAD PUSH3 0x461BCD PUSH1 0xE5 SHL DUP2 MSTORE PUSH1 0x20 PUSH1 0x4 DUP3 ADD MSTORE PUSH1 0x10 PUSH1 0x24 DUP3 ADD MSTORE PUSH16 0x416C726561647920747261636B696E67 PUSH1 0x80 SHL PUSH1 0x44 DUP3 ADD MSTORE PUSH1 0x64 SWAP1 REVERT JUMPDEST POP CALLVALUE PUSH2 0x260 JUMPI PUSH1 0x20 CALLDATASIZE PUSH1 0x3 NOT ADD SLT PUSH2 0x260 JUMPI PUSH1 0x40 PUSH1 0x20 SWAP2 PUSH1 0x4 CALLDATALOAD DUP2 MSTORE PUSH1 0xB DUP4 MSTORE KECCAK256 SLOAD PUSH1 0x40 MLOAD SWAP1 DUP2 MSTORE RETURN JUMPDEST POP CALLVALUE PUSH2 0x260 JUMPI PUSH1 0x20 CALLDATASIZE PUSH1 0x3 NOT ADD SLT PUSH2 0x260 JUMPI PUSH1 0x4 CALLDATALOAD PUSH1 0x1 PUSH1 0x1 PUSH1 0x40 SHL SUB DUP2 GT PUSH2 0x43A JUMPI PUSH2 0x10E8 SWAP1 CALLDATASIZE SWAP1 PUSH1 0x4 ADD PUSH2 0x1F3E JUMP JUMPDEST POP POP PUSH2 0x10F2 PUSH2 0x2325 JUMP JUMPDEST SWAP1 PUSH2 0x1111 PUSH1 0x40 MLOAD SWAP3 DUP4 SWAP3 ISZERO ISZERO DUP4 MSTORE PUSH1 0x40 PUSH1 0x20 DUP5 ADD MSTORE PUSH1 0x40 DUP4 ADD SWAP1 PUSH2 0x1F19 JUMP JUMPDEST SUB SWAP1 RETURN JUMPDEST POP CALLVALUE PUSH2 0x260 JUMPI DUP1 PUSH1 0x3 NOT CALLDATASIZE ADD SLT PUSH2 0x260 JUMPI PUSH1 0x20 PUSH1 0x8 SLOAD PUSH1 0x40 MLOAD SWAP1 DUP2 MSTORE RETURN JUMPDEST POP CALLVALUE PUSH2 0x260 JUMPI PUSH1 0x20 CALLDATASIZE PUSH1 0x3 NOT ADD SLT PUSH2 0x260 JUMPI PUSH1 0x40 PUSH1 0xE0 SWAP2 PUSH1 0x4 CALLDATALOAD DUP2 MSTORE PUSH1 0x4 PUSH1 0x20 MSTORE KECCAK256 DUP1 SLOAD SWAP1 PUSH1 0x1 DUP2 ADD SLOAD SWAP1 PUSH1 0x2 DUP2 ADD SLOAD PUSH1 0x3 DUP3 ADD SLOAD PUSH1 0x4 DUP4 ADD SLOAD SWAP2 PUSH1 0xFF PUSH1 0x6 PUSH1 0x5 DUP7 ADD SLOAD SWAP6 ADD SLOAD AND SWAP5 PUSH1 0x40 MLOAD SWAP7 DUP8 MSTORE PUSH1 0x20 DUP8 ADD MSTORE PUSH1 0x40 DUP7 ADD MSTORE PUSH1 0x60 DUP6 ADD MSTORE PUSH1 0x80 DUP5 ADD MSTORE PUSH1 0xA0 DUP4 ADD MSTORE ISZERO ISZERO PUSH1 0xC0 DUP3 ADD MSTORE RETURN JUMPDEST POP CALLVALUE PUSH2 0x260 JUMPI PUSH1 0x20 CALLDATASIZE PUSH1 0x3 NOT ADD SLT PUSH2 0x260 JUMPI PUSH1 0x40 PUSH1 0x20 SWAP2 PUSH1 0x4 CALLDATALOAD DUP2 MSTORE PUSH1 0x7 DUP4 MSTORE KECCAK256 SLOAD PUSH1 0x40 MLOAD SWAP1 DUP2 MSTORE RETURN JUMPDEST POP CALLVALUE PUSH2 0x260 JUMPI DUP1 PUSH1 0x3 NOT CALLDATASIZE ADD SLT PUSH2 0x260 JUMPI PUSH1 0x2 SLOAD PUSH1 0x40 MLOAD PUSH1 0x1 PUSH1 0x1 PUSH1 0xA0 SHL SUB SWAP1 SWAP2 AND DUP2 MSTORE PUSH1 0x20 SWAP1 RETURN JUMPDEST POP CALLVALUE PUSH2 0x260 JUMPI DUP1 PUSH1 0x3 NOT CALLDATASIZE ADD SLT PUSH2 0x260 JUMPI PUSH1 0x20 PUSH1 0x40 MLOAD PUSH3 0x93A80 DUP2 MSTORE RETURN JUMPDEST POP CALLVALUE PUSH2 0x260 JUMPI PUSH1 0x20 CALLDATASIZE PUSH1 0x3 NOT ADD SLT PUSH2 0x260 JUMPI PUSH1 0x4 CALLDATALOAD PUSH1 0x1 PUSH1 0x1 PUSH1 0x40 SHL SUB DUP2 GT PUSH2 0x43A JUMPI PUSH2 0x1248 PUSH1 0x40 SWAP2 CALLDATASIZE SWAP1 PUSH1 0x4 ADD PUSH2 0x1F3E JUMP JUMPDEST SWAP1 DUP1 SWAP3 SWAP2 DUP2 ADD SUB SLT PUSH2 0x475 JUMPI CALLDATALOAD DUP1 DUP3 MSTORE PUSH1 0x4 PUSH1 0x20 MSTORE PUSH1 0x1 PUSH1 0x40 DUP4 KECCAK256 PUSH2 0x1273 PUSH1 0xFF PUSH1 0x6 DUP4 ADD SLOAD AND PUSH2 0x214E JUMP JUMPDEST ADD SLOAD PUSH3 0x93A80 DUP2 ADD DUP1 SWAP2 GT PUSH2 0x12AF JUMPI SWAP1 PUSH2 0x1292 PUSH2 0x8F9 SWAP3 TIMESTAMP LT ISZERO PUSH2 0x22C4 JUMP JUMPDEST PUSH2 0x129B DUP2 PUSH2 0x2537 JUMP JUMPDEST SWAP1 PUSH2 0x12AA PUSH2 0x1D4C DUP4 LT ISZERO PUSH2 0x2284 JUMP JUMPDEST PUSH2 0x2900 JUMP JUMPDEST PUSH4 0x4E487B71 PUSH1 0xE0 SHL DUP4 MSTORE PUSH1 0x11 PUSH1 0x4 MSTORE PUSH1 0x24 DUP4 REVERT JUMPDEST POP CALLVALUE PUSH2 0x260 JUMPI DUP1 PUSH1 0x3 NOT CALLDATASIZE ADD SLT PUSH2 0x260 JUMPI PUSH1 0x1 SLOAD PUSH1 0x40 MLOAD PUSH1 0x1 PUSH1 0x1 PUSH1 0xA0 SHL SUB SWAP1 SWAP2 AND DUP2 MSTORE PUSH1 0x20 SWAP1 RETURN JUMPDEST POP CALLVALUE PUSH2 0x260 JUMPI PUSH1 0x20 DUP1 PUSH1 0x3 NOT CALLDATASIZE ADD SLT PUSH2 0x43A JUMPI PUSH1 0x4 CALLDATALOAD PUSH1 0x1 DUP1 PUSH1 0xA0 SHL SUB SWAP2 PUSH1 0x1 SWAP3 PUSH1 0x24 DUP3 DUP3 DUP7 SLOAD AND PUSH1 0x40 MLOAD SWAP3 DUP4 DUP1 SWAP3 PUSH4 0x4D8C928D PUSH1 0xE1 SHL DUP3 MSTORE CALLER PUSH1 0x4 DUP4 ADD MSTORE GAS STATICCALL DUP1 ISZERO PUSH2 0x1564 JUMPI DUP7 SWAP1 PUSH2 0x152A JUMPI JUMPDEST PUSH2 0x1344 SWAP2 POP PUSH2 0x2208 JUMP JUMPDEST DUP3 DUP6 MSTORE PUSH1 0x9 DUP3 MSTORE PUSH1 0x40 DUP6 KECCAK256 CALLER PUSH1 0x0 MSTORE DUP3 MSTORE PUSH2 0x1367 PUSH1 0xFF PUSH1 0x40 PUSH1 0x0 KECCAK256 SLOAD AND ISZERO PUSH2 0x2246 JUMP JUMPDEST DUP3 DUP6 MSTORE PUSH1 0x4 DUP3 MSTORE DUP4 PUSH1 0x40 DUP7 KECCAK256 PUSH2 0x1383 PUSH1 0xFF PUSH1 0x6 DUP4 ADD SLOAD AND PUSH2 0x214E JUMP JUMPDEST PUSH2 0x1399 PUSH2 0x1D4C PUSH2 0x1392 DUP8 PUSH2 0x2537 JUMP JUMPDEST LT ISZERO PUSH2 0x2284 JUMP JUMPDEST ADD SLOAD PUSH3 0x93A80 DUP2 ADD DUP1 SWAP2 GT PUSH2 0x1516 JUMPI SWAP1 PUSH2 0x13B6 DUP7 SWAP3 TIMESTAMP LT ISZERO PUSH2 0x22C4 JUMP JUMPDEST DUP4 DUP3 MSTORE PUSH1 0x9 DUP4 MSTORE PUSH1 0x40 DUP3 KECCAK256 CALLER PUSH1 0x0 MSTORE DUP4 MSTORE PUSH1 0x40 PUSH1 0x0 KECCAK256 DUP6 PUSH1 0xFF NOT DUP3 SLOAD AND OR SWAP1 SSTORE DUP5 DUP2 PUSH1 0x3 SLOAD AND DUP1 PUSH2 0x1465 JUMPI JUMPDEST POP SLOAD AND DUP1 EXTCODESIZE ISZERO PUSH2 0x43A JUMPI DUP2 DUP1 SWAP2 PUSH1 0x64 PUSH1 0x40 MLOAD DUP1 SWAP5 DUP2 SWAP4 PUSH4 0x46B40CDF PUSH1 0xE1 SHL DUP4 MSTORE DUP10 PUSH1 0x4 DUP5 ADD MSTORE CALLER PUSH1 0x24 DUP5 ADD MSTORE DUP11 PUSH1 0x44 DUP5 ADD MSTORE GAS CALL DUP1 ISZERO PUSH2 0x42F JUMPI PUSH2 0x1451 JUMPI JUMPDEST POP POP PUSH32 0x89E1649E796BC46C9DCD5FD4505F79BFDD9197C8ECCBDBAF05A6BFD1CB9EA09B SWAP1 PUSH1 0x40 MLOAD SWAP4 DUP5 MSTORE CALLER SWAP4 LOG3 DUP1 RETURN JUMPDEST PUSH2 0x145A SWAP1 PUSH2 0x1FED JUMP JUMPDEST PUSH2 0x42B JUMPI DUP4 CODESIZE PUSH2 0x1421 JUMP JUMPDEST PUSH1 0x40 MLOAD PUSH4 0x512AE2CB PUSH1 0xE0 SHL DUP2 MSTORE CALLER PUSH1 0x4 DUP3 ADD MSTORE PUSH1 0x24 DUP2 ADD DUP8 SWAP1 MSTORE SWAP1 DUP6 SWAP1 DUP3 SWAP1 PUSH1 0x44 SWAP1 DUP3 SWAP1 DUP9 SWAP1 GAS CALL SWAP1 DUP2 ISZERO PUSH2 0x481 JUMPI DUP5 SWAP2 PUSH2 0x14E1 JUMPI JUMPDEST POP PUSH1 0xFF PUSH1 0x40 MLOAD SWAP2 AND SWAP1 DUP2 DUP2 MSTORE DUP7 PUSH32 0x3DEB93045F72CE1D7FD6C683F79644B908C62D45D5615B482654972E36F77D6B DUP8 CALLER SWAP4 LOG3 ISZERO PUSH2 0x14D9 JUMPI JUMPDEST CODESIZE PUSH2 0x13E2 JUMP JUMPDEST SWAP5 POP DUP5 PUSH2 0x14D3 JUMP JUMPDEST SWAP1 POP DUP5 DUP2 DUP2 RETURNDATASIZE DUP4 GT PUSH2 0x150F JUMPI JUMPDEST PUSH2 0x14F8 DUP2 DUP4 PUSH2 0x2051 JUMP JUMPDEST DUP2 ADD SUB SLT PUSH2 0x42B JUMPI PUSH2 0x1509 SWAP1 PUSH2 0x22FC JUMP JUMPDEST CODESIZE PUSH2 0x149B JUMP JUMPDEST POP RETURNDATASIZE PUSH2 0x14EE JUMP JUMPDEST PUSH4 0x4E487B71 PUSH1 0xE0 SHL DUP7 MSTORE PUSH1 0x11 PUSH1 0x4 MSTORE PUSH1 0x24 DUP7 REVERT JUMPDEST POP DUP3 DUP2 DUP2 RETURNDATASIZE DUP4 GT PUSH2 0x155D JUMPI JUMPDEST PUSH2 0x1540 DUP2 DUP4 PUSH2 0x2051 JUMP JUMPDEST DUP2 ADD SUB SLT PUSH2 0x1559 JUMPI PUSH2 0x1554 PUSH2 0x1344 SWAP2 PUSH2 0x21FB JUMP JUMPDEST PUSH2 0x133A JUMP JUMPDEST DUP6 DUP1 REVERT JUMPDEST POP RETURNDATASIZE PUSH2 0x1536 JUMP JUMPDEST PUSH1 0x40 MLOAD RETURNDATASIZE DUP9 DUP3 RETURNDATACOPY RETURNDATASIZE SWAP1 REVERT JUMPDEST POP CALLVALUE PUSH2 0x260 JUMPI PUSH1 0xA0 CALLDATASIZE PUSH1 0x3 NOT ADD SLT PUSH2 0x260 JUMPI PUSH1 0x84 CALLDATALOAD SWAP1 PUSH1 0x4 CALLDATALOAD PUSH2 0x1590 PUSH2 0x2573 JUMP JUMPDEST DUP1 DUP3 MSTORE PUSH1 0x4 PUSH1 0x20 MSTORE PUSH1 0x40 DUP3 KECCAK256 SWAP1 PUSH2 0x15AD PUSH1 0xFF PUSH1 0x6 DUP5 ADD SLOAD AND PUSH2 0x214E JUMP JUMPDEST PUSH1 0x32 DUP5 MUL SWAP4 DUP1 DUP6 DIV PUSH1 0x32 EQ DUP2 ISZERO OR ISZERO PUSH2 0x701 JUMPI PUSH1 0x64 PUSH2 0x8F9 SWAP5 SWAP6 DIV PUSH2 0x15D4 DUP2 PUSH1 0x24 CALLDATALOAD PUSH2 0x21D8 JUMP JUMPDEST SWAP4 PUSH1 0x2 DUP2 ADD SLOAD SWAP1 DUP2 DUP7 GT PUSH2 0x167A JUMPI JUMPDEST SWAP3 PUSH32 0xA924D670D57CE0C4EF66945FCC39BA0D6082DEB70A897FAA080424140B0B1C7D SWAP3 DUP6 PUSH32 0x63BD409A0CA0450137D1B574E1E74A5A18CC8934D8F718C1603619B971CE6737 PUSH1 0x40 SWAP5 DUP8 DUP11 PUSH1 0x3 DUP6 SWAP11 ADD SSTORE PUSH1 0x44 CALLDATALOAD PUSH1 0x4 DUP3 ADD SSTORE PUSH1 0x5 PUSH1 0x64 CALLDATALOAD SWAP2 ADD SSTORE PUSH2 0x164C DUP4 PUSH2 0x2537 JUMP JUMPDEST DUP7 MLOAD SWAP11 DUP12 MSTORE PUSH1 0x20 DUP12 ADD SWAP2 SWAP1 SWAP2 MSTORE PUSH1 0x40 DUP11 ADD DUP2 SWAP1 MSTORE SWAP9 PUSH1 0x60 SWAP1 LOG2 DUP3 MLOAD SWAP2 DUP3 MSTORE PUSH1 0x20 DUP3 ADD MSTORE LOG2 PUSH2 0x8F4 DUP3 DUP3 PUSH2 0x2740 JUMP JUMPDEST SWAP1 SWAP5 POP DUP5 SWAP1 PUSH2 0x15E3 JUMP JUMPDEST POP CALLVALUE PUSH2 0x260 JUMPI DUP1 PUSH1 0x3 NOT CALLDATASIZE ADD SLT PUSH2 0x260 JUMPI PUSH1 0x3 SLOAD PUSH1 0x40 MLOAD PUSH1 0x1 PUSH1 0x1 PUSH1 0xA0 SHL SUB SWAP1 SWAP2 AND DUP2 MSTORE PUSH1 0x20 SWAP1 RETURN JUMPDEST POP CALLVALUE PUSH2 0x260 JUMPI PUSH1 0x40 CALLDATASIZE PUSH1 0x3 NOT ADD SLT PUSH2 0x260 JUMPI PUSH2 0x16C7 PUSH2 0x1EE0 JUMP JUMPDEST CALLER PUSH1 0x1 PUSH1 0x1 PUSH1 0xA0 SHL SUB DUP3 AND SUB PUSH2 0x16E3 JUMPI PUSH2 0x5D8 SWAP1 PUSH1 0x4 CALLDATALOAD PUSH2 0x26CB JUMP JUMPDEST PUSH1 0x40 MLOAD PUSH4 0x334BD919 PUSH1 0xE1 SHL DUP2 MSTORE PUSH1 0x4 SWAP1 REVERT JUMPDEST POP CALLVALUE PUSH2 0x260 JUMPI PUSH1 0x20 DUP1 PUSH1 0x3 NOT CALLDATASIZE ADD SLT PUSH2 0x43A JUMPI PUSH1 0x4 CALLDATALOAD DUP3 MSTORE PUSH1 0xD DUP2 MSTORE PUSH1 0x40 DUP3 KECCAK256 DUP1 SLOAD PUSH1 0x1 PUSH1 0x1 PUSH1 0x40 SHL SUB DUP2 GT PUSH2 0x102B JUMPI SWAP2 SWAP3 PUSH1 0x40 MLOAD SWAP3 PUSH2 0x173A DUP6 DUP3 PUSH1 0x5 SHL ADD DUP6 PUSH2 0x2051 JUMP JUMPDEST DUP1 DUP5 MSTORE DUP5 DUP5 ADD DUP1 SWAP4 DUP4 MSTORE DUP6 DUP4 KECCAK256 DUP4 SWAP2 JUMPDEST DUP4 DUP4 LT PUSH2 0x17CC JUMPI POP POP POP POP PUSH1 0x40 MLOAD SWAP3 DUP5 DUP5 ADD SWAP1 DUP6 DUP6 MSTORE MLOAD DUP1 SWAP2 MSTORE PUSH1 0x40 DUP5 ADD SWAP5 PUSH1 0x40 DUP3 PUSH1 0x5 SHL DUP7 ADD ADD SWAP4 SWAP3 SWAP6 JUMPDEST DUP3 DUP8 LT PUSH2 0x1783 JUMPI DUP6 DUP6 SUB DUP7 RETURN JUMPDEST SWAP1 SWAP2 SWAP3 SWAP4 DUP3 DUP1 PUSH1 0x1 SWAP3 PUSH1 0x3F NOT DUP10 DUP3 SUB ADD DUP6 MSTORE DUP8 MLOAD SWAP1 PUSH1 0x40 DUP1 PUSH2 0x17AE PUSH1 0x60 DUP6 MLOAD SWAP1 DUP1 DUP7 MSTORE DUP6 ADD SWAP1 PUSH2 0x1F19 JUMP JUMPDEST SWAP4 DUP6 DUP2 ADD MLOAD DUP7 DUP6 ADD MSTORE ADD MLOAD SWAP2 ADD MSTORE SWAP7 ADD SWAP3 ADD SWAP7 ADD SWAP6 SWAP3 SWAP2 SWAP1 SWAP3 PUSH2 0x1776 JUMP JUMPDEST PUSH1 0x3 DUP9 PUSH1 0x1 SWAP3 PUSH1 0x40 SWAP11 SWAP10 SWAP8 SWAP11 MLOAD PUSH2 0x17E2 DUP2 PUSH2 0x2000 JUMP JUMPDEST PUSH2 0x17EB DUP7 PUSH2 0x2072 JUMP JUMPDEST DUP2 MSTORE DUP5 DUP7 ADD SLOAD DUP4 DUP3 ADD MSTORE PUSH1 0x2 DUP7 ADD SLOAD PUSH1 0x40 DUP3 ADD MSTORE DUP2 MSTORE ADD SWAP3 ADD SWAP3 ADD SWAP2 SWAP1 SWAP7 SWAP4 SWAP6 SWAP7 PUSH2 0x174A JUMP JUMPDEST POP CALLVALUE PUSH2 0x260 JUMPI DUP1 PUSH1 0x3 NOT CALLDATASIZE ADD SLT PUSH2 0x260 JUMPI PUSH1 0x40 MLOAD DUP1 SWAP2 PUSH1 0x5 SLOAD SWAP1 DUP2 DUP4 MSTORE PUSH1 0x20 DUP1 SWAP4 ADD DUP1 SWAP3 PUSH1 0x5 DUP4 MSTORE PUSH32 0x36B6384B5ECA791C62761152D0C79BB0604C104A5FB6F4EB0703F3154BB3DB0 SWAP1 DUP4 JUMPDEST DUP2 DUP2 LT PUSH2 0x18B1 JUMPI POP POP POP DUP5 PUSH2 0x1873 SWAP2 SUB DUP6 PUSH2 0x2051 JUMP JUMPDEST PUSH1 0x40 MLOAD SWAP4 DUP4 DUP6 SWAP5 DUP6 ADD SWAP2 DUP2 DUP7 MSTORE MLOAD DUP1 SWAP3 MSTORE PUSH1 0x40 DUP6 ADD SWAP4 SWAP3 JUMPDEST DUP3 DUP2 LT PUSH2 0x189A JUMPI POP POP POP POP SUB SWAP1 RETURN JUMPDEST DUP4 MLOAD DUP6 MSTORE DUP7 SWAP6 POP SWAP4 DUP2 ADD SWAP4 SWAP3 DUP2 ADD SWAP3 PUSH1 0x1 ADD PUSH2 0x188B JUMP JUMPDEST DUP3 SLOAD DUP5 MSTORE SWAP3 DUP7 ADD SWAP3 PUSH1 0x1 SWAP3 DUP4 ADD SWAP3 ADD PUSH2 0x185D JUMP JUMPDEST POP CALLVALUE PUSH2 0x260 JUMPI DUP1 PUSH1 0x3 NOT CALLDATASIZE ADD SLT PUSH2 0x260 JUMPI PUSH1 0x20 PUSH1 0x40 MLOAD PUSH2 0x1D4C DUP2 MSTORE RETURN JUMPDEST POP CALLVALUE PUSH2 0x260 JUMPI PUSH1 0x40 CALLDATASIZE PUSH1 0x3 NOT ADD SLT PUSH2 0x260 JUMPI PUSH2 0x5D8 PUSH1 0x4 CALLDATALOAD PUSH2 0x1902 PUSH2 0x1EE0 JUMP JUMPDEST SWAP1 DUP1 DUP5 MSTORE DUP4 PUSH1 0x20 MSTORE PUSH2 0x191A PUSH1 0x1 PUSH1 0x40 DUP7 KECCAK256 ADD SLOAD PUSH2 0x2627 JUMP JUMPDEST PUSH2 0x264D JUMP JUMPDEST POP CALLVALUE PUSH2 0x260 JUMPI PUSH1 0x20 CALLDATASIZE PUSH1 0x3 NOT ADD SLT PUSH2 0x260 JUMPI PUSH1 0xA0 SWAP1 PUSH1 0x40 PUSH1 0x4 CALLDATALOAD SWAP2 DUP3 DUP2 MSTORE PUSH1 0x4 PUSH1 0x20 MSTORE KECCAK256 SWAP1 PUSH1 0x1 DUP3 ADD SLOAD SWAP2 PUSH1 0x2 DUP2 ADD SLOAD SWAP2 PUSH1 0xFF PUSH1 0x6 PUSH2 0x1962 PUSH1 0x3 DUP6 ADD SLOAD SWAP4 PUSH2 0x2537 JUMP JUMPDEST SWAP4 ADD SLOAD AND SWAP3 PUSH1 0x40 MLOAD SWAP5 DUP6 MSTORE PUSH1 0x20 DUP6 ADD MSTORE PUSH1 0x40 DUP5 ADD MSTORE PUSH1 0x60 DUP4 ADD MSTORE ISZERO ISZERO PUSH1 0x80 DUP3 ADD MSTORE RETURN JUMPDEST POP CALLVALUE PUSH2 0x260 JUMPI PUSH1 0x20 CALLDATASIZE PUSH1 0x3 NOT ADD SLT PUSH2 0x260 JUMPI PUSH1 0x1 PUSH1 0x40 PUSH1 0x20 SWAP3 PUSH1 0x4 CALLDATALOAD DUP2 MSTORE DUP1 DUP5 MSTORE KECCAK256 ADD SLOAD PUSH1 0x40 MLOAD SWAP1 DUP2 MSTORE RETURN JUMPDEST POP CALLVALUE PUSH2 0x260 JUMPI PUSH1 0x20 DUP1 PUSH1 0x3 NOT CALLDATASIZE ADD SLT PUSH2 0x43A JUMPI PUSH1 0x4 CALLDATALOAD PUSH1 0x1 DUP1 PUSH1 0xA0 SHL SUB PUSH1 0x24 DUP4 DUP3 PUSH1 0x1 SLOAD AND PUSH1 0x40 MLOAD SWAP3 DUP4 DUP1 SWAP3 PUSH4 0x4D8C928D PUSH1 0xE1 SHL DUP3 MSTORE CALLER PUSH1 0x4 DUP4 ADD MSTORE GAS STATICCALL DUP1 ISZERO PUSH2 0x1BC2 JUMPI DUP6 SWAP1 PUSH2 0x1B88 JUMPI JUMPDEST PUSH2 0x1A06 SWAP2 POP PUSH2 0x2208 JUMP JUMPDEST DUP2 DUP5 MSTORE PUSH1 0xA DUP4 MSTORE PUSH1 0x40 DUP5 KECCAK256 CALLER DUP6 MSTORE DUP4 MSTORE PUSH1 0xFF PUSH1 0x40 DUP6 KECCAK256 SLOAD AND ISZERO PUSH2 0x1B43 JUMPI DUP2 DUP5 MSTORE PUSH1 0x9 DUP4 MSTORE PUSH1 0x40 DUP5 KECCAK256 CALLER DUP6 MSTORE DUP4 MSTORE PUSH2 0x1A44 PUSH1 0xFF PUSH1 0x40 DUP7 KECCAK256 SLOAD AND ISZERO PUSH2 0x2246 JUMP JUMPDEST DUP2 DUP5 MSTORE PUSH1 0x4 DUP4 MSTORE PUSH1 0x1 PUSH1 0x40 DUP6 KECCAK256 PUSH2 0x1A61 PUSH1 0xFF PUSH1 0x6 DUP4 ADD SLOAD AND PUSH2 0x214E JUMP JUMPDEST PUSH2 0x1A70 PUSH2 0x1D4C PUSH2 0x1392 DUP7 PUSH2 0x2537 JUMP JUMPDEST ADD SLOAD PUSH3 0x93A80 DUP2 ADD DUP1 SWAP2 GT PUSH2 0x1B2F JUMPI SWAP1 PUSH2 0x1A8D DUP6 SWAP3 TIMESTAMP LT ISZERO PUSH2 0x22C4 JUMP JUMPDEST DUP3 DUP3 MSTORE PUSH1 0x9 DUP5 MSTORE PUSH1 0x40 DUP3 KECCAK256 CALLER DUP4 MSTORE DUP5 MSTORE PUSH1 0x40 DUP3 KECCAK256 PUSH1 0x1 PUSH1 0xFF NOT DUP3 SLOAD AND OR SWAP1 SSTORE PUSH1 0x1 SLOAD AND DUP1 EXTCODESIZE ISZERO PUSH2 0x43A JUMPI DUP2 SWAP1 PUSH1 0x64 PUSH1 0x40 MLOAD DUP1 SWAP5 DUP2 SWAP4 PUSH4 0x46B40CDF PUSH1 0xE1 SHL DUP4 MSTORE DUP8 PUSH1 0x4 DUP5 ADD MSTORE CALLER PUSH1 0x24 DUP5 ADD MSTORE PUSH1 0x2 PUSH1 0x44 DUP5 ADD MSTORE GAS CALL DUP1 ISZERO PUSH2 0x481 JUMPI PUSH2 0x1B1C JUMPI JUMPDEST POP PUSH32 0x89E1649E796BC46C9DCD5FD4505F79BFDD9197C8ECCBDBAF05A6BFD1CB9EA09B PUSH1 0x40 MLOAD SWAP3 PUSH1 0x2 DUP5 MSTORE CALLER SWAP4 LOG3 DUP1 RETURN JUMPDEST PUSH2 0x1B28 SWAP1 SWAP4 SWAP2 SWAP4 PUSH2 0x1FED JUMP JUMPDEST SWAP2 CODESIZE PUSH2 0x1AEC JUMP JUMPDEST PUSH4 0x4E487B71 PUSH1 0xE0 SHL DUP6 MSTORE PUSH1 0x11 PUSH1 0x4 MSTORE PUSH1 0x24 DUP6 REVERT JUMPDEST PUSH1 0x40 MLOAD PUSH3 0x461BCD PUSH1 0xE5 SHL DUP2 MSTORE PUSH1 0x4 DUP2 ADD DUP5 SWAP1 MSTORE PUSH1 0x1C PUSH1 0x24 DUP3 ADD MSTORE PUSH32 0x446964206E6F7420706172746963697061746520696E20706F6C6C7300000000 PUSH1 0x44 DUP3 ADD MSTORE PUSH1 0x64 SWAP1 REVERT JUMPDEST POP DUP4 DUP2 DUP2 RETURNDATASIZE DUP4 GT PUSH2 0x1BBB JUMPI JUMPDEST PUSH2 0x1B9E DUP2 DUP4 PUSH2 0x2051 JUMP JUMPDEST DUP2 ADD SUB SLT PUSH2 0x1BB7 JUMPI PUSH2 0x1BB2 PUSH2 0x1A06 SWAP2 PUSH2 0x21FB JUMP JUMPDEST PUSH2 0x19FC JUMP JUMPDEST DUP5 DUP1 REVERT JUMPDEST POP RETURNDATASIZE PUSH2 0x1B94 JUMP JUMPDEST PUSH1 0x40 MLOAD RETURNDATASIZE DUP8 DUP3 RETURNDATACOPY RETURNDATASIZE SWAP1 REVERT JUMPDEST POP CALLVALUE PUSH2 0x260 JUMPI PUSH1 0x20 SWAP1 DUP2 PUSH1 0x3 NOT CALLDATASIZE ADD SLT PUSH2 0x260 JUMPI PUSH1 0x4 CALLDATALOAD SWAP2 PUSH1 0x80 PUSH1 0x40 MLOAD PUSH2 0x1BF3 DUP2 PUSH2 0x201B JUMP JUMPDEST CALLDATASIZE SWAP1 CALLDATACOPY PUSH2 0x1BFF DUP4 PUSH2 0x2537 JUMP JUMPDEST PUSH1 0x2 SLOAD PUSH1 0x40 MLOAD PUSH4 0xAF4DA41 PUSH1 0xE0 SHL DUP2 MSTORE SWAP5 SWAP2 SWAP4 SWAP2 SWAP1 PUSH1 0x1 PUSH1 0x1 PUSH1 0xA0 SHL SUB AND PUSH1 0x80 DUP7 PUSH1 0x4 DUP2 DUP5 GAS STATICCALL SWAP6 DUP7 ISZERO PUSH2 0x4BD JUMPI DUP4 SWAP7 PUSH2 0x1D28 JUMPI JUMPDEST POP SWAP1 DUP4 PUSH1 0x4 SWAP4 SWAP3 PUSH1 0x40 MLOAD SWAP5 DUP6 DUP1 SWAP3 PUSH4 0x49672B7 PUSH1 0xE4 SHL DUP3 MSTORE GAS STATICCALL SWAP3 DUP4 ISZERO PUSH2 0x42F JUMPI DUP3 SWAP4 PUSH2 0x1CF9 JUMPI JUMPDEST POP DUP2 MSTORE PUSH1 0x4 DUP4 MSTORE PUSH1 0x40 DUP2 KECCAK256 SWAP3 PUSH1 0xFF PUSH1 0x6 DUP6 ADD SLOAD AND SWAP4 DUP5 PUSH2 0x1CEA JUMPI JUMPDEST DUP5 PUSH2 0x1CB8 JUMPI JUMPDEST POP PUSH1 0x40 MLOAD SWAP5 DUP6 MSTORE DUP1 DUP6 ADD JUMPDEST PUSH1 0x4 DUP4 LT PUSH2 0x1CA3 JUMPI PUSH1 0xE0 DUP7 DUP7 DUP7 PUSH1 0xA0 DUP4 ADD MSTORE ISZERO ISZERO PUSH1 0xC0 DUP3 ADD MSTORE RETURN JUMPDEST DUP2 DUP1 PUSH1 0x1 SWAP3 DUP10 MLOAD DUP2 MSTORE ADD SWAP8 ADD SWAP3 ADD SWAP2 SWAP6 PUSH2 0x1C88 JUMP JUMPDEST PUSH1 0x1 SWAP2 SWAP5 POP ADD SLOAD PUSH3 0x93A80 DUP2 ADD DUP1 SWAP2 GT PUSH2 0x1CD6 JUMPI TIMESTAMP LT ISZERO SWAP3 CODESIZE PUSH2 0x1C7D JUMP JUMPDEST PUSH4 0x4E487B71 PUSH1 0xE0 SHL DUP3 MSTORE PUSH1 0x11 PUSH1 0x4 MSTORE PUSH1 0x24 DUP3 REVERT JUMPDEST SWAP4 POP PUSH2 0x1D4C DUP7 MLOAD LT ISZERO SWAP4 PUSH2 0x1C77 JUMP JUMPDEST SWAP1 SWAP3 POP DUP4 DUP2 DUP2 RETURNDATASIZE DUP4 GT PUSH2 0x1D21 JUMPI JUMPDEST PUSH2 0x1D11 DUP2 DUP4 PUSH2 0x2051 JUMP JUMPDEST DUP2 ADD SUB SLT PUSH2 0x43A JUMPI MLOAD SWAP2 CODESIZE PUSH2 0x1C5C JUMP JUMPDEST POP RETURNDATASIZE PUSH2 0x1D07 JUMP JUMPDEST PUSH1 0x4 SWAP4 SWAP3 SWAP2 SWAP7 POP PUSH2 0x1D48 DUP6 SWAP2 PUSH1 0x80 RETURNDATASIZE PUSH1 0x80 GT PUSH2 0x73D JUMPI PUSH2 0x72F DUP2 DUP4 PUSH2 0x2051 JUMP JUMPDEST SWAP7 SWAP2 SWAP3 SWAP4 POP PUSH2 0x1C34 JUMP JUMPDEST POP CALLVALUE PUSH2 0x260 JUMPI PUSH1 0x20 CALLDATASIZE PUSH1 0x3 NOT ADD SLT PUSH2 0x260 JUMPI PUSH1 0xFF PUSH1 0x40 PUSH1 0x20 SWAP3 PUSH1 0x4 CALLDATALOAD DUP2 MSTORE PUSH1 0x6 DUP5 MSTORE KECCAK256 SLOAD AND PUSH1 0x40 MLOAD SWAP1 ISZERO ISZERO DUP2 MSTORE RETURN JUMPDEST POP CALLVALUE PUSH2 0x260 JUMPI DUP1 PUSH1 0x3 NOT CALLDATASIZE ADD SLT PUSH2 0x260 JUMPI PUSH1 0x2 SLOAD PUSH1 0x40 MLOAD PUSH4 0x49672B7 PUSH1 0xE4 SHL DUP2 MSTORE SWAP1 PUSH1 0x20 SWAP1 DUP3 SWAP1 PUSH1 0x4 SWAP1 DUP3 SWAP1 PUSH1 0x1 PUSH1 0x1 PUSH1 0xA0 SHL SUB AND GAS STATICCALL SWAP1 DUP2 ISZERO PUSH2 0x42F JUMPI DUP3 SWAP2 PUSH2 0x1DD1 JUMPI JUMPDEST PUSH1 0x20 DUP3 PUSH1 0x40 MLOAD SWAP1 DUP2 MSTORE RETURN JUMPDEST SWAP1 POP PUSH1 0x20 DUP2 RETURNDATASIZE PUSH1 0x20 GT PUSH2 0x1DFF JUMPI JUMPDEST DUP2 PUSH2 0x1DEC PUSH1 0x20 SWAP4 DUP4 PUSH2 0x2051 JUMP JUMPDEST DUP2 ADD SUB SLT PUSH2 0x43A JUMPI PUSH1 0x20 SWAP2 POP MLOAD CODESIZE PUSH2 0x1DC6 JUMP JUMPDEST RETURNDATASIZE SWAP2 POP PUSH2 0x1DDF JUMP JUMPDEST POP CALLVALUE PUSH2 0x260 JUMPI PUSH1 0x20 CALLDATASIZE PUSH1 0x3 NOT ADD SLT PUSH2 0x260 JUMPI PUSH1 0x4 CALLDATALOAD PUSH2 0x1E24 PUSH2 0x2573 JUMP JUMPDEST DUP1 DUP3 MSTORE PUSH1 0x6 PUSH1 0x20 MSTORE PUSH2 0x1E3C PUSH1 0xFF PUSH1 0x40 DUP5 KECCAK256 SLOAD AND PUSH2 0x214E JUMP JUMPDEST DUP1 DUP3 MSTORE PUSH1 0x4 PUSH1 0x20 MSTORE PUSH1 0x6 PUSH1 0x40 DUP4 KECCAK256 ADD PUSH1 0xFF NOT SWAP1 DUP2 DUP2 SLOAD AND SWAP1 SSTORE PUSH1 0x6 PUSH1 0x20 MSTORE PUSH1 0x40 DUP4 KECCAK256 SWAP1 DUP2 SLOAD AND SWAP1 SSTORE PUSH32 0x96FBF803F14DA8437E0CBE34DF7152F998DBC3B7E2343C52FB4285E90387A9CA DUP3 DUP1 LOG2 DUP1 RETURN JUMPDEST SWAP1 POP CALLVALUE PUSH2 0x43A JUMPI PUSH1 0x20 CALLDATASIZE PUSH1 0x3 NOT ADD SLT PUSH2 0x43A JUMPI PUSH1 0x4 CALLDATALOAD PUSH4 0xFFFFFFFF PUSH1 0xE0 SHL DUP2 AND DUP1 SWAP2 SUB PUSH2 0x562 JUMPI PUSH1 0x20 SWAP3 POP PUSH4 0x7965DB0B PUSH1 0xE0 SHL DUP2 EQ SWAP1 DUP2 ISZERO PUSH2 0x1ECF JUMPI JUMPDEST POP ISZERO ISZERO DUP2 MSTORE RETURN JUMPDEST PUSH4 0x1FFC9A7 PUSH1 0xE0 SHL EQ SWAP1 POP CODESIZE PUSH2 0x1EC8 JUMP JUMPDEST PUSH1 0x24 CALLDATALOAD SWAP1 PUSH1 0x1 PUSH1 0x1 PUSH1 0xA0 SHL SUB DUP3 AND DUP3 SUB PUSH2 0x475 JUMPI JUMP JUMPDEST PUSH1 0x0 JUMPDEST DUP4 DUP2 LT PUSH2 0x1F09 JUMPI POP POP PUSH1 0x0 SWAP2 ADD MSTORE JUMP JUMPDEST DUP2 DUP2 ADD MLOAD DUP4 DUP3 ADD MSTORE PUSH1 0x20 ADD PUSH2 0x1EF9 JUMP JUMPDEST SWAP1 PUSH1 0x20 SWAP2 PUSH2 0x1F32 DUP2 MLOAD DUP1 SWAP3 DUP2 DUP6 MSTORE DUP6 DUP1 DUP7 ADD SWAP2 ADD PUSH2 0x1EF6 JUMP JUMPDEST PUSH1 0x1F ADD PUSH1 0x1F NOT AND ADD ADD SWAP1 JUMP JUMPDEST SWAP2 DUP2 PUSH1 0x1F DUP5 ADD SLT ISZERO PUSH2 0x475 JUMPI DUP3 CALLDATALOAD SWAP2 PUSH1 0x1 PUSH1 0x1 PUSH1 0x40 SHL SUB DUP4 GT PUSH2 0x475 JUMPI PUSH1 0x20 DUP4 DUP2 DUP7 ADD SWAP6 ADD ADD GT PUSH2 0x475 JUMPI JUMP JUMPDEST PUSH1 0x40 SWAP1 PUSH1 0x3 NOT ADD SLT PUSH2 0x475 JUMPI PUSH1 0x4 CALLDATALOAD SWAP1 PUSH1 0x24 CALLDATALOAD SWAP1 JUMP JUMPDEST DUP1 SLOAD DUP3 LT ISZERO PUSH2 0x1F9D JUMPI PUSH1 0x0 MSTORE PUSH1 0x3 PUSH1 0x20 PUSH1 0x0 KECCAK256 SWAP2 MUL ADD SWAP1 PUSH1 0x0 SWAP1 JUMP JUMPDEST PUSH4 0x4E487B71 PUSH1 0xE0 SHL PUSH1 0x0 MSTORE PUSH1 0x32 PUSH1 0x4 MSTORE PUSH1 0x24 PUSH1 0x0 REVERT JUMPDEST SWAP1 PUSH1 0x1 DUP3 DUP2 SHR SWAP3 AND DUP1 ISZERO PUSH2 0x1FE3 JUMPI JUMPDEST PUSH1 0x20 DUP4 LT EQ PUSH2 0x1FCD JUMPI JUMP JUMPDEST PUSH4 0x4E487B71 PUSH1 0xE0 SHL PUSH1 0x0 MSTORE PUSH1 0x22 PUSH1 0x4 MSTORE PUSH1 0x24 PUSH1 0x0 REVERT JUMPDEST SWAP2 PUSH1 0x7F AND SWAP2 PUSH2 0x1FC2 JUMP JUMPDEST PUSH1 0x1 PUSH1 0x1 PUSH1 0x40 SHL SUB DUP2 GT PUSH2 0x103F JUMPI PUSH1 0x40 MSTORE JUMP JUMPDEST PUSH1 0x60 DUP2 ADD SWAP1 DUP2 LT PUSH1 0x1 PUSH1 0x1 PUSH1 0x40 SHL SUB DUP3 GT OR PUSH2 0x103F JUMPI PUSH1 0x40 MSTORE JUMP JUMPDEST PUSH1 0x80 DUP2 ADD SWAP1 DUP2 LT PUSH1 0x1 PUSH1 0x1 PUSH1 0x40 SHL SUB DUP3 GT OR PUSH2 0x103F JUMPI PUSH1 0x40 MSTORE JUMP JUMPDEST PUSH1 0x40 DUP2 ADD SWAP1 DUP2 LT PUSH1 0x1 PUSH1 0x1 PUSH1 0x40 SHL SUB DUP3 GT OR PUSH2 0x103F JUMPI PUSH1 0x40 MSTORE JUMP JUMPDEST SWAP1 PUSH1 0x1F DUP1 NOT SWAP2 ADD AND DUP2 ADD SWAP1 DUP2 LT PUSH1 0x1 PUSH1 0x1 PUSH1 0x40 SHL SUB DUP3 GT OR PUSH2 0x103F JUMPI PUSH1 0x40 MSTORE JUMP JUMPDEST SWAP1 PUSH1 0x40 MLOAD SWAP2 DUP3 PUSH1 0x0 DUP3 SLOAD PUSH2 0x2085 DUP2 PUSH2 0x1FB3 JUMP JUMPDEST SWAP1 DUP2 DUP5 MSTORE PUSH1 0x20 SWAP5 PUSH1 0x1 SWAP2 PUSH1 0x1 DUP2 AND SWAP1 DUP2 PUSH1 0x0 EQ PUSH2 0x20F5 JUMPI POP PUSH1 0x1 EQ PUSH2 0x20B6 JUMPI JUMPDEST POP POP POP PUSH2 0x20B4 SWAP3 POP SUB DUP4 PUSH2 0x2051 JUMP JUMPDEST JUMP JUMPDEST PUSH1 0x0 SWAP1 DUP2 MSTORE DUP6 DUP2 KECCAK256 SWAP6 SWAP4 POP SWAP2 SWAP1 JUMPDEST DUP2 DUP4 LT PUSH2 0x20DD JUMPI POP POP PUSH2 0x20B4 SWAP4 POP DUP3 ADD ADD CODESIZE DUP1 DUP1 PUSH2 0x20A5 JUMP JUMPDEST DUP6 SLOAD DUP9 DUP5 ADD DUP6 ADD MSTORE SWAP5 DUP6 ADD SWAP5 DUP8 SWAP5 POP SWAP2 DUP4 ADD SWAP2 PUSH2 0x20C4 JUMP JUMPDEST SWAP3 POP POP POP PUSH2 0x20B4 SWAP5 SWAP3 POP PUSH1 0xFF NOT AND DUP3 DUP5 ADD MSTORE ISZERO ISZERO PUSH1 0x5 SHL DUP3 ADD ADD CODESIZE DUP1 DUP1 PUSH2 0x20A5 JUMP JUMPDEST PUSH1 0x5 SLOAD DUP2 LT ISZERO PUSH2 0x1F9D JUMPI PUSH1 0x5 PUSH1 0x0 MSTORE PUSH32 0x36B6384B5ECA791C62761152D0C79BB0604C104A5FB6F4EB0703F3154BB3DB0 ADD SWAP1 PUSH1 0x0 SWAP1 JUMP JUMPDEST ISZERO PUSH2 0x2155 JUMPI JUMP JUMPDEST PUSH1 0x40 MLOAD PUSH3 0x461BCD PUSH1 0xE5 SHL DUP2 MSTORE PUSH1 0x20 PUSH1 0x4 DUP3 ADD MSTORE PUSH1 0xC PUSH1 0x24 DUP3 ADD MSTORE PUSH12 0x4E6F7420747261636B696E67 PUSH1 0xA0 SHL PUSH1 0x44 DUP3 ADD MSTORE PUSH1 0x64 SWAP1 REVERT JUMPDEST SWAP1 PUSH1 0x80 DUP3 DUP3 SUB SLT PUSH2 0x475 JUMPI DUP1 PUSH1 0x1F DUP4 ADD SLT ISZERO PUSH2 0x475 JUMPI PUSH1 0x40 MLOAD SWAP2 PUSH2 0x21AC DUP4 PUSH2 0x201B JUMP JUMPDEST DUP3 SWAP1 PUSH1 0x80 DUP2 ADD SWAP3 DUP4 GT PUSH2 0x475 JUMPI SWAP1 JUMPDEST DUP3 DUP3 LT PUSH2 0x21C8 JUMPI POP POP POP SWAP1 JUMP JUMPDEST DUP2 MLOAD DUP2 MSTORE PUSH1 0x20 SWAP2 DUP3 ADD SWAP2 ADD PUSH2 0x21BB JUMP JUMPDEST SWAP2 SWAP1 DUP3 ADD DUP1 SWAP3 GT PUSH2 0x21E5 JUMPI JUMP JUMPDEST PUSH4 0x4E487B71 PUSH1 0xE0 SHL PUSH1 0x0 MSTORE PUSH1 0x11 PUSH1 0x4 MSTORE PUSH1 0x24 PUSH1 0x0 REVERT JUMPDEST MLOAD SWAP1 DUP2 ISZERO ISZERO DUP3 SUB PUSH2 0x475 JUMPI JUMP JUMPDEST ISZERO PUSH2 0x220F JUMPI JUMP JUMPDEST PUSH1 0x40 MLOAD PUSH3 0x461BCD PUSH1 0xE5 SHL DUP2 MSTORE PUSH1 0x20 PUSH1 0x4 DUP3 ADD MSTORE PUSH1 0xF PUSH1 0x24 DUP3 ADD MSTORE PUSH15 0x139BDD081DDA1A5D195B1A5CDD1959 PUSH1 0x8A SHL PUSH1 0x44 DUP3 ADD MSTORE PUSH1 0x64 SWAP1 REVERT JUMPDEST ISZERO PUSH2 0x224D JUMPI JUMP JUMPDEST PUSH1 0x40 MLOAD PUSH3 0x461BCD PUSH1 0xE5 SHL DUP2 MSTORE PUSH1 0x20 PUSH1 0x4 DUP3 ADD MSTORE PUSH1 0xF PUSH1 0x24 DUP3 ADD MSTORE PUSH15 0x105B1C9958591E4818DB185A5B5959 PUSH1 0x8A SHL PUSH1 0x44 DUP3 ADD MSTORE PUSH1 0x64 SWAP1 REVERT JUMPDEST ISZERO PUSH2 0x228B JUMPI JUMP JUMPDEST PUSH1 0x40 MLOAD PUSH3 0x461BCD PUSH1 0xE5 SHL DUP2 MSTORE PUSH1 0x20 PUSH1 0x4 DUP3 ADD MSTORE PUSH1 0x11 PUSH1 0x24 DUP3 ADD MSTORE PUSH17 0x151A1C995CDA1BDB19081B9BDD081B595D PUSH1 0x7A SHL PUSH1 0x44 DUP3 ADD MSTORE PUSH1 0x64 SWAP1 REVERT JUMPDEST ISZERO PUSH2 0x22CB JUMPI JUMP JUMPDEST PUSH1 0x40 MLOAD PUSH3 0x461BCD PUSH1 0xE5 SHL DUP2 MSTORE PUSH1 0x20 PUSH1 0x4 DUP3 ADD MSTORE PUSH1 0x9 PUSH1 0x24 DUP3 ADD MSTORE PUSH9 0x546F6F206561726C79 PUSH1 0xB8 SHL PUSH1 0x44 DUP3 ADD MSTORE PUSH1 0x64 SWAP1 REVERT JUMPDEST MLOAD SWAP1 PUSH1 0xFF DUP3 AND DUP3 SUB PUSH2 0x475 JUMPI JUMP JUMPDEST PUSH1 0x1 PUSH1 0x1 PUSH1 0x40 SHL SUB DUP2 GT PUSH2 0x103F JUMPI PUSH1 0x1F ADD PUSH1 0x1F NOT AND PUSH1 0x20 ADD SWAP1 JUMP JUMPDEST PUSH1 0x5 SLOAD PUSH1 0x0 JUMPDEST DUP2 DUP2 LT PUSH2 0x235A JUMPI POP POP PUSH1 0x0 SWAP1 PUSH1 0x40 MLOAD PUSH1 0x20 DUP2 ADD DUP2 DUP2 LT PUSH1 0x1 PUSH1 0x1 PUSH1 0x40 SHL SUB DUP3 GT OR PUSH2 0x103F JUMPI PUSH1 0x40 MSTORE PUSH1 0x0 DUP2 MSTORE SWAP1 JUMP JUMPDEST PUSH2 0x2363 DUP2 PUSH2 0x2117 JUMP JUMPDEST SWAP1 SLOAD SWAP1 PUSH1 0x3 SHL SHR DUP1 PUSH1 0x0 MSTORE PUSH1 0x4 PUSH1 0x20 SWAP2 DUP2 DUP4 MSTORE PUSH1 0x40 SWAP1 DUP2 PUSH1 0x0 KECCAK256 SWAP3 PUSH1 0xFF PUSH1 0x6 DUP6 ADD SLOAD AND ISZERO PUSH2 0x2409 JUMPI PUSH1 0x1 DUP1 SWAP5 ADD SLOAD SWAP1 PUSH3 0x93A80 DUP3 ADD DUP1 SWAP3 GT PUSH2 0x23F4 JUMPI POP TIMESTAMP LT PUSH2 0x23E8 JUMPI PUSH2 0x23AF DUP2 PUSH2 0x2537 JUMP JUMPDEST SWAP1 PUSH2 0x1D4C DUP3 LT ISZERO PUSH2 0x23C9 JUMPI POP POP POP POP POP PUSH1 0x1 SWAP1 JUMPDEST ADD PUSH2 0x232B JUMP JUMPDEST DUP3 MLOAD SWAP5 DUP6 ADD MSTORE DUP4 DUP3 ADD MSTORE DUP3 MSTORE SWAP1 SWAP4 SWAP3 POP SWAP1 POP PUSH2 0x23E4 DUP4 PUSH2 0x2000 JUMP JUMPDEST SWAP2 SWAP1 JUMP JUMPDEST POP POP POP POP PUSH1 0x1 SWAP1 PUSH2 0x23C3 JUMP JUMPDEST PUSH1 0x11 SWAP1 PUSH4 0x4E487B71 PUSH1 0xE0 SHL PUSH1 0x0 MSTORE MSTORE PUSH1 0x24 PUSH1 0x0 REVERT JUMPDEST POP POP POP POP POP PUSH1 0x1 SWAP1 PUSH2 0x23C3 JUMP JUMPDEST ISZERO PUSH2 0x241D JUMPI JUMP JUMPDEST PUSH1 0x40 MLOAD PUSH3 0x461BCD PUSH1 0xE5 SHL DUP2 MSTORE PUSH1 0x20 PUSH1 0x4 DUP3 ADD MSTORE PUSH1 0x14 PUSH1 0x24 DUP3 ADD MSTORE PUSH20 0x141C9BDC195C9D1E481B9BDD081D1C9858DAD959 PUSH1 0x62 SHL PUSH1 0x44 DUP3 ADD MSTORE PUSH1 0x64 SWAP1 REVERT JUMPDEST DUP2 PUSH1 0x1F DUP3 ADD SLT ISZERO PUSH2 0x475 JUMPI DUP1 MLOAD PUSH2 0x246F DUP2 PUSH2 0x230A JUMP JUMPDEST SWAP3 PUSH2 0x247D PUSH1 0x40 MLOAD SWAP5 DUP6 PUSH2 0x2051 JUMP JUMPDEST DUP2 DUP5 MSTORE PUSH1 0x20 DUP3 DUP5 ADD ADD GT PUSH2 0x475 JUMPI PUSH2 0x249B SWAP2 PUSH1 0x20 DUP1 DUP6 ADD SWAP2 ADD PUSH2 0x1EF6 JUMP JUMPDEST SWAP1 JUMP JUMPDEST PUSH2 0x140 DUP2 DUP4 SUB SLT PUSH2 0x475 JUMPI DUP1 MLOAD SWAP3 PUSH1 0x20 DUP3 ADD MLOAD PUSH1 0x1 PUSH1 0x1 PUSH1 0x40 SHL SUB SWAP1 DUP2 DUP2 GT PUSH2 0x475 JUMPI DUP5 PUSH2 0x24CD SWAP2 DUP6 ADD PUSH2 0x2459 JUMP JUMPDEST SWAP4 PUSH1 0x40 DUP5 ADD MLOAD SWAP2 DUP3 GT PUSH2 0x475 JUMPI PUSH2 0x24E5 SWAP2 DUP5 ADD PUSH2 0x2459 JUMP JUMPDEST SWAP2 PUSH1 0x60 DUP2 ADD MLOAD SWAP2 PUSH1 0x80 DUP3 ADD MLOAD SWAP2 PUSH1 0xA0 DUP2 ADD MLOAD SWAP2 PUSH1 0xC0 DUP3 ADD MLOAD SWAP2 PUSH2 0x250A PUSH1 0xE0 DUP3 ADD PUSH2 0x22FC JUMP JUMPDEST SWAP2 PUSH2 0x249B PUSH2 0x120 PUSH2 0x251E PUSH2 0x100 DUP6 ADD PUSH2 0x21FB JUMP JUMPDEST SWAP4 ADD PUSH2 0x21FB JUMP JUMPDEST PUSH1 0xFF PUSH1 0x1 SWAP2 AND ADD SWAP1 PUSH1 0xFF DUP3 GT PUSH2 0x21E5 JUMPI JUMP JUMPDEST PUSH1 0x0 MSTORE PUSH1 0x4 PUSH1 0x20 MSTORE PUSH1 0x40 PUSH1 0x0 KECCAK256 PUSH1 0x2 DUP2 ADD SLOAD SWAP1 DUP2 ISZERO PUSH2 0x256C JUMPI PUSH1 0x3 ADD SLOAD PUSH2 0x2710 SWAP1 DUP2 DUP2 MUL SWAP2 DUP2 DUP4 DIV EQ SWAP1 ISZERO OR ISZERO PUSH2 0x21E5 JUMPI DIV SWAP1 JUMP JUMPDEST POP POP PUSH1 0x0 SWAP1 JUMP JUMPDEST CALLER PUSH1 0x0 SWAP1 DUP2 MSTORE PUSH32 0xEE57CD81E84075558E8FCC182A1F4393F91FC97F963A136E66B7F949A62F319F PUSH1 0x20 MSTORE PUSH1 0x40 SWAP1 KECCAK256 SLOAD PUSH32 0x97667070C54EF182B0F5858B034BEAC1B6F3089AA2D3188BB1E8929F4FA9B929 SWAP1 PUSH1 0xFF AND ISZERO PUSH2 0x25CF JUMPI POP JUMP JUMPDEST PUSH1 0x44 SWAP1 PUSH1 0x40 MLOAD SWAP1 PUSH4 0xE2517D3F PUSH1 0xE0 SHL DUP3 MSTORE CALLER PUSH1 0x4 DUP4 ADD MSTORE PUSH1 0x24 DUP3 ADD MSTORE REVERT JUMPDEST CALLER PUSH1 0x0 SWAP1 DUP2 MSTORE PUSH32 0xAD3228B676F7D3CD4284A5443F17F1962B36E491B30A40B2405849E597BA5FB5 PUSH1 0x20 MSTORE PUSH1 0x40 DUP2 KECCAK256 SLOAD PUSH1 0xFF AND ISZERO PUSH2 0x25CF JUMPI POP JUMP JUMPDEST DUP1 PUSH1 0x0 MSTORE PUSH1 0x0 PUSH1 0x20 MSTORE PUSH1 0x40 PUSH1 0x0 KECCAK256 CALLER PUSH1 0x0 MSTORE PUSH1 0x20 MSTORE PUSH1 0xFF PUSH1 0x40 PUSH1 0x0 KECCAK256 SLOAD AND ISZERO PUSH2 0x25CF JUMPI POP JUMP JUMPDEST SWAP1 PUSH1 0x0 SWAP2 DUP1 DUP4 MSTORE DUP3 PUSH1 0x20 MSTORE PUSH1 0x40 DUP4 KECCAK256 SWAP2 PUSH1 0x1 DUP1 PUSH1 0xA0 SHL SUB AND SWAP2 DUP3 DUP5 MSTORE PUSH1 0x20 MSTORE PUSH1 0xFF PUSH1 0x40 DUP5 KECCAK256 SLOAD AND ISZERO PUSH1 0x0 EQ PUSH2 0x26C6 JUMPI DUP1 DUP4 MSTORE DUP3 PUSH1 0x20 MSTORE PUSH1 0x40 DUP4 KECCAK256 DUP3 DUP5 MSTORE PUSH1 0x20 MSTORE PUSH1 0x40 DUP4 KECCAK256 PUSH1 0x1 PUSH1 0xFF NOT DUP3 SLOAD AND OR SWAP1 SSTORE PUSH32 0x2F8788117E7EFF1D82E926EC794901D17C78024A50270940304540A733656F0D CALLER SWAP4 DUP1 LOG4 PUSH1 0x1 SWAP1 JUMP JUMPDEST POP POP SWAP1 JUMP JUMPDEST SWAP1 PUSH1 0x0 SWAP2 DUP1 DUP4 MSTORE DUP3 PUSH1 0x20 MSTORE PUSH1 0x40 DUP4 KECCAK256 SWAP2 PUSH1 0x1 DUP1 PUSH1 0xA0 SHL SUB AND SWAP2 DUP3 DUP5 MSTORE PUSH1 0x20 MSTORE PUSH1 0xFF PUSH1 0x40 DUP5 KECCAK256 SLOAD AND PUSH1 0x0 EQ PUSH2 0x26C6 JUMPI DUP1 DUP4 MSTORE DUP3 PUSH1 0x20 MSTORE PUSH1 0x40 DUP4 KECCAK256 DUP3 DUP5 MSTORE PUSH1 0x20 MSTORE PUSH1 0x40 DUP4 KECCAK256 PUSH1 0xFF NOT DUP2 SLOAD AND SWAP1 SSTORE PUSH32 0xF6391F5C32D9C69D2A47EA670B442974B53935D1EDC7FD64EB21E047A839171B CALLER SWAP4 DUP1 LOG4 PUSH1 0x1 SWAP1 JUMP JUMPDEST SWAP1 DUP2 PUSH1 0x0 MSTORE PUSH1 0x20 SWAP1 PUSH1 0x7 DUP3 MSTORE PUSH1 0x40 PUSH2 0x275F DUP2 PUSH1 0x0 KECCAK256 SLOAD PUSH1 0x8 SLOAD SWAP1 PUSH2 0x21D8 JUMP JUMPDEST TIMESTAMP LT PUSH2 0x28A3 JUMPI PUSH2 0x9C4 DUP3 LT ISZERO PUSH2 0x27E8 JUMPI PUSH32 0x505A29C5397A0038BF34D9F7BAF0047C3F5EAE6323BF8450C1E34DACF7CC2A17 SWAP3 DUP2 MLOAD PUSH2 0x279C DUP2 PUSH2 0x2036 JUMP JUMPDEST PUSH1 0x14 DUP2 MSTORE PUSH20 0x3AB933B2B73A2FB830B93A34B1B4B830BA34B7B7 PUSH1 0x61 SHL DUP3 DUP3 ADD MSTORE SWAP3 JUMPDEST DUP6 PUSH1 0x0 MSTORE PUSH1 0x7 DUP3 MSTORE TIMESTAMP DUP4 PUSH1 0x0 KECCAK256 SSTORE PUSH2 0x27DF DUP4 MLOAD SWAP5 DUP5 DUP7 SWAP6 DUP7 MSTORE DUP6 ADD SWAP1 PUSH2 0x1F19 JUMP JUMPDEST SWAP2 DUP4 ADD MSTORE SUB SWAP1 LOG2 JUMP JUMPDEST PUSH2 0x1770 DUP3 LT ISZERO DUP1 PUSH2 0x28B4 JUMPI JUMPDEST ISZERO PUSH2 0x2846 JUMPI PUSH32 0x505A29C5397A0038BF34D9F7BAF0047C3F5EAE6323BF8450C1E34DACF7CC2A17 SWAP3 DUP2 MLOAD PUSH2 0x2826 DUP2 PUSH2 0x2036 JUMP JUMPDEST PUSH1 0xE DUP2 MSTORE PUSH14 0x36B4B632B9BA37B732AFB732B0B9 PUSH1 0x91 SHL DUP3 DUP3 ADD MSTORE SWAP3 PUSH2 0x27BE JUMP JUMPDEST PUSH2 0x1B58 DUP3 LT ISZERO DUP1 PUSH2 0x28A9 JUMPI JUMPDEST ISZERO PUSH2 0x28A3 JUMPI PUSH32 0x505A29C5397A0038BF34D9F7BAF0047C3F5EAE6323BF8450C1E34DACF7CC2A17 SWAP3 DUP2 MLOAD PUSH2 0x2884 DUP2 PUSH2 0x2036 JUMP JUMPDEST PUSH1 0xD DUP2 MSTORE PUSH13 0x70686173655F636C6F73696E67 PUSH1 0x98 SHL DUP3 DUP3 ADD MSTORE SWAP3 PUSH2 0x27BE JUMP JUMPDEST POP POP POP POP JUMP JUMPDEST POP PUSH2 0x1D4C DUP3 LT PUSH2 0x2852 JUMP JUMPDEST POP PUSH2 0x1D4C DUP3 LT PUSH2 0x27F4 JUMP JUMPDEST SWAP1 DUP2 PUSH1 0x0 MSTORE PUSH1 0x4 PUSH1 0x20 MSTORE PUSH1 0x1 PUSH1 0x40 PUSH1 0x0 KECCAK256 ADD SLOAD PUSH3 0x93A80 DUP2 ADD DUP1 SWAP2 GT PUSH2 0x21E5 JUMPI TIMESTAMP LT PUSH2 0x28FC JUMPI PUSH2 0x1D4C DUP2 LT ISZERO PUSH2 0x28F3 JUMPI POP POP JUMP JUMPDEST PUSH2 0x20B4 SWAP2 PUSH2 0x2900 JUMP JUMPDEST POP POP JUMP JUMPDEST PUSH1 0x1 SLOAD PUSH1 0x40 DUP1 MLOAD PUSH4 0x32665FFB PUSH1 0xE0 SHL DUP2 MSTORE PUSH1 0x4 DUP2 ADD DUP5 SWAP1 MSTORE SWAP3 SWAP4 PUSH1 0x1 PUSH1 0x1 PUSH1 0xA0 SHL SUB SWAP1 SWAP3 AND SWAP3 PUSH1 0x0 DUP1 DUP3 PUSH1 0x24 DUP2 DUP9 GAS STATICCALL SWAP2 DUP3 ISZERO PUSH2 0x2A29 JUMPI DUP2 SWAP3 PUSH2 0x2A03 JUMPI JUMPDEST POP PUSH1 0xFF DUP3 AND SWAP5 PUSH1 0x3 DUP7 LT PUSH2 0x2956 JUMPI JUMPDEST POP POP POP POP POP POP POP JUMP JUMPDEST DUP1 EXTCODESIZE ISZERO PUSH2 0x43A JUMPI DUP2 DUP1 SWAP2 PUSH1 0x24 DUP7 MLOAD DUP1 SWAP5 DUP2 SWAP4 PUSH4 0x40D57A67 PUSH1 0xE1 SHL DUP4 MSTORE DUP13 PUSH1 0x4 DUP5 ADD MSTORE GAS CALL DUP1 ISZERO PUSH2 0x29F9 JUMPI PUSH1 0x60 SWAP6 SWAP4 PUSH32 0xD786D06DD56DF8B68A470FB87593BD3D76A14EEEA5CF10760563177BD21496B0 SWAP8 SWAP6 SWAP4 PUSH1 0xFF SWAP4 PUSH2 0x29CF SWAP4 PUSH2 0x29EA JUMPI JUMPDEST POP DUP10 DUP2 MSTORE PUSH1 0x4 PUSH1 0x20 MSTORE PUSH1 0x3 DUP6 DUP3 KECCAK256 TIMESTAMP PUSH1 0x1 DUP3 ADD SSTORE ADD SSTORE PUSH2 0x2525 JUMP JUMPDEST DUP3 MLOAD SWAP5 DUP6 MSTORE AND PUSH1 0x20 DUP5 ADD MSTORE DUP3 ADD MSTORE LOG2 CODESIZE DUP1 DUP1 DUP1 DUP1 DUP1 DUP1 PUSH2 0x294D JUMP JUMPDEST PUSH2 0x29F3 SWAP1 PUSH2 0x1FED JUMP JUMPDEST CODESIZE PUSH2 0x29B4 JUMP JUMPDEST DUP5 MLOAD RETURNDATASIZE DUP5 DUP3 RETURNDATACOPY RETURNDATASIZE SWAP1 REVERT JUMPDEST PUSH2 0x2A18 SWAP2 SWAP3 POP RETURNDATASIZE DUP1 DUP5 DUP4 RETURNDATACOPY PUSH2 0x582 DUP2 DUP4 PUSH2 0x2051 JUMP JUMPDEST POP POP SWAP7 POP POP POP POP POP POP POP SWAP1 CODESIZE PUSH2 0x293E JUMP JUMPDEST POP DUP3 MLOAD SWAP1 RETURNDATASIZE SWAP1 DUP3 RETURNDATACOPY RETURNDATASIZE SWAP1 REVERT INVALID LOG2 PUSH5 0x6970667358 0x22 SLT KECCAK256 MUL 0xE 0xE4 0xCC 0xAB SWAP9 0xB9 MSIZE PUSH19 0x1970464D6D4893FC0E782E3FC3690A380D2921 SWAP3 EXP CREATE ISZERO PUSH5 0x736F6C6343 STOP ADDMOD XOR STOP CALLER 0x2F DUP8 DUP9 GT PUSH31 0x7EFF1D82E926EC794901D17C78024A50270940304540A733656F0D00000000 "},"methodIdentifiers":{"BONUS_TOKENS()":"b415d279","DEFAULT_ADMIN_ROLE()":"a217fddf","ENGAGEMENT_THRESHOLD()":"30ae7805","MIN_ENGAGEMENT_PERIOD()":"5513de41","OPERATOR_ROLE()":"f5b541a6","POLL_BONUS_MULTIPLIER()":"a27f71b2","calculateEngagement(uint256)":"f333d6c2","checkSubscriptionAdvancement(uint256)":"d5612486","checkUpkeep(bytes)":"6e04ff0d","claimEngagementBonus(uint256)":"40ab3171","claimPollBoostBonus(uint256)":"14585aeb","geoOracle()":"36bfbfb8","getCommunityHealth()":"0ad5f421","getDemandEngagementMetrics(uint256)":"11f0072f","getEngagement(uint256)":"2e94dfda","getPropertyHealthHistory(uint256)":"32850c56","getPropertyHealthScore(uint256)":"f38cf589","getRoleAdmin(bytes32)":"248a9ca3","getTrackedProperties()":"313b79da","governance()":"5aa6e675","grantRole(bytes32,address)":"2f2ff15d","hasClaimed(uint256,address)":"873f6f9e","hasParticipatedInPolls(uint256,address)":"a9dc8726","hasRole(bytes32,address)":"91d14854","isTracked(uint256)":"1194f9e9","lastNudgeTime(uint256)":"5da6559e","nudgeCooldown()":"6675584f","performUpkeep(bytes)":"4585e33b","pollParticipated(uint256,address)":"587bd4a7","propertyEngagement(uint256)":"63e86eb8","propertyHealthHistory(uint256,uint256)":"792c9718","propertyHealthScores(uint256)":"c769368b","propertyPollCount(uint256)":"73de7b4b","propertyToken()":"43ae2695","recordImpactAfterExecution(uint256,string,int256)":"8947d84e","recordPollParticipation(uint256,address)":"816aad3c","renounceRole(bytes32,address)":"36568abe","revokeRole(bytes32,address)":"d547741f","setGeoOracle(address)":"a21e6f2f","setNudgeCooldown(uint256)":"8e5359e0","startTracking(uint256,uint256)":"785b2190","stopTracking(uint256)":"06785d8a","supportsInterface(bytes4)":"01ffc9a7","trackedProperties(uint256)":"8085b813","updateDemandEngagement(uint256)":"c8259776","updateEngagement(uint256,uint256,uint256,uint256)":"94c9825d","updateEngagementWithPolls(uint256,uint256,uint256,uint256,uint256)":"3a21ccc1"}}}}}