{"contracts/Governance.sol":{"Governance":{"abi":[{"inputs":[{"internalType":"address","name":"_propertyToken","type":"address"}],"stateMutability":"nonpayable","type":"constructor"},{"inputs":[],"name":"AccessControlBadConfirmation","type":"error"},{"inputs":[{"internalType":"address","name":"account","type":"address"},{"internalType":"bytes32","name":"neededRole","type":"bytes32"}],"name":"AccessControlUnauthorizedAccount","type":"error"},{"inputs":[],"name":"ECDSAInvalidSignature","type":"error"},{"inputs":[{"internalType":"uint256","name":"length","type":"uint256"}],"name":"ECDSAInvalidSignatureLength","type":"error"},{"inputs":[{"internalType":"bytes32","name":"s","type":"bytes32"}],"name":"ECDSAInvalidSignatureS","type":"error"},{"inputs":[],"name":"ReentrancyGuardReentrantCall","type":"error"},{"anonymous":false,"inputs":[{"indexed":false,"internalType":"uint256[4]","name":"demandBars","type":"uint256[4]"}],"name":"DemandSnapshotTaken","type":"event"},{"anonymous":false,"inputs":[{"indexed":true,"internalType":"enum Governance.ProposalType","name":"proposalType","type":"uint8"},{"indexed":false,"internalType":"uint256","name":"demandWeight","type":"uint256"},{"indexed":false,"internalType":"uint256","name":"demandBps","type":"uint256"}],"name":"DemandUpdated","type":"event"},{"anonymous":false,"inputs":[{"indexed":true,"internalType":"uint256","name":"proposalId","type":"uint256"},{"indexed":true,"internalType":"address","name":"voter","type":"address"},{"indexed":false,"internalType":"uint8","name":"support","type":"uint8"},{"indexed":false,"internalType":"uint256","name":"weight","type":"uint256"},{"indexed":false,"internalType":"address","name":"relayer","type":"address"}],"name":"OffChainVoteCast","type":"event"},{"anonymous":false,"inputs":[{"indexed":true,"internalType":"uint256","name":"pollId","type":"uint256"},{"indexed":true,"internalType":"uint256","name":"proposalId","type":"uint256"}],"name":"PollConvertedToProposal","type":"event"},{"anonymous":false,"inputs":[{"indexed":true,"internalType":"uint256","name":"pollId","type":"uint256"},{"indexed":true,"internalType":"uint256","name":"propertyId","type":"uint256"},{"indexed":false,"internalType":"address","name":"creator","type":"address"},{"indexed":false,"internalType":"string","name":"question","type":"string"}],"name":"PollCreated","type":"event"},{"anonymous":false,"inputs":[{"indexed":true,"internalType":"uint256","name":"pollId","type":"uint256"},{"indexed":false,"internalType":"uint256","name":"votesFor","type":"uint256"},{"indexed":false,"internalType":"uint256","name":"votesAgainst","type":"uint256"}],"name":"PollEnded","type":"event"},{"anonymous":false,"inputs":[{"indexed":true,"internalType":"uint256","name":"pollId","type":"uint256"},{"indexed":true,"internalType":"address","name":"voter","type":"address"},{"indexed":false,"internalType":"bool","name":"support","type":"bool"}],"name":"PollVoteCast","type":"event"},{"anonymous":false,"inputs":[{"indexed":true,"internalType":"uint256","name":"proposalId","type":"uint256"}],"name":"ProposalCancelled","type":"event"},{"anonymous":false,"inputs":[{"indexed":true,"internalType":"uint256","name":"proposalId","type":"uint256"},{"indexed":true,"internalType":"uint256","name":"propertyId","type":"uint256"},{"indexed":false,"internalType":"address","name":"proposer","type":"address"},{"indexed":false,"internalType":"enum Governance.ProposalType","name":"proposalType","type":"uint8"},{"indexed":false,"internalType":"string","name":"title","type":"string"}],"name":"ProposalCreated","type":"event"},{"anonymous":false,"inputs":[{"indexed":true,"internalType":"uint256","name":"proposalId","type":"uint256"}],"name":"ProposalExecuted","type":"event"},{"anonymous":false,"inputs":[{"indexed":true,"internalType":"bytes32","name":"role","type":"bytes32"},{"indexed":true,"internalType":"bytes32","name":"previousAdminRole","type":"bytes32"},{"indexed":true,"internalType":"bytes32","name":"newAdminRole","type":"bytes32"}],"name":"RoleAdminChanged","type":"event"},{"anonymous":false,"inputs":[{"indexed":true,"internalType":"bytes32","name":"role","type":"bytes32"},{"indexed":true,"internalType":"address","name":"account","type":"address"},{"indexed":true,"internalType":"address","name":"sender","type":"address"}],"name":"RoleGranted","type":"event"},{"anonymous":false,"inputs":[{"indexed":true,"internalType":"bytes32","name":"role","type":"bytes32"},{"indexed":true,"internalType":"address","name":"account","type":"address"},{"indexed":true,"internalType":"address","name":"sender","type":"address"}],"name":"RoleRevoked","type":"event"},{"anonymous":false,"inputs":[{"indexed":true,"internalType":"uint256","name":"proposalId","type":"uint256"},{"indexed":true,"internalType":"address","name":"voter","type":"address"},{"indexed":false,"internalType":"uint8","name":"support","type":"uint8"},{"indexed":false,"internalType":"uint256","name":"weight","type":"uint256"}],"name":"VoteCast","type":"event"},{"anonymous":false,"inputs":[{"indexed":false,"internalType":"uint256","name":"newBonus","type":"uint256"}],"name":"VoteToEarnBonusUpdated","type":"event"},{"anonymous":false,"inputs":[{"indexed":false,"internalType":"uint256","name":"newPeriod","type":"uint256"}],"name":"VotingPeriodUpdated","type":"event"},{"inputs":[],"name":"DEFAULT_ADMIN_ROLE","outputs":[{"internalType":"bytes32","name":"","type":"bytes32"}],"stateMutability":"view","type":"function"},{"inputs":[],"name":"DEMAND_QUORUM_BOOST","outputs":[{"internalType":"uint256","name":"","type":"uint256"}],"stateMutability":"view","type":"function"},{"inputs":[],"name":"DEMAND_QUORUM_BOOST_THRESHOLD","outputs":[{"internalType":"uint256","name":"","type":"uint256"}],"stateMutability":"view","type":"function"},{"inputs":[],"name":"DOMAIN_SEPARATOR","outputs":[{"internalType":"bytes32","name":"","type":"bytes32"}],"stateMutability":"view","type":"function"},{"inputs":[],"name":"EXECUTOR_ROLE","outputs":[{"internalType":"bytes32","name":"","type":"bytes32"}],"stateMutability":"view","type":"function"},{"inputs":[],"name":"POLL_PROPOSAL_THRESHOLD","outputs":[{"internalType":"uint256","name":"","type":"uint256"}],"stateMutability":"view","type":"function"},{"inputs":[],"name":"POLL_QUORUM_BONUS","outputs":[{"internalType":"uint256","name":"","type":"uint256"}],"stateMutability":"view","type":"function"},{"inputs":[],"name":"PROPOSER_ROLE","outputs":[{"internalType":"bytes32","name":"","type":"bytes32"}],"stateMutability":"view","type":"function"},{"inputs":[],"name":"QUORUM_EMERGENCY","outputs":[{"internalType":"uint256","name":"","type":"uint256"}],"stateMutability":"view","type":"function"},{"inputs":[],"name":"QUORUM_PARAMETER","outputs":[{"internalType":"uint256","name":"","type":"uint256"}],"stateMutability":"view","type":"function"},{"inputs":[],"name":"QUORUM_PROPERTY","outputs":[{"internalType":"uint256","name":"","type":"uint256"}],"stateMutability":"view","type":"function"},{"inputs":[],"name":"QUORUM_TREASURY","outputs":[{"internalType":"uint256","name":"","type":"uint256"}],"stateMutability":"view","type":"function"},{"inputs":[],"name":"RELAYER_ROLE","outputs":[{"internalType":"bytes32","name":"","type":"bytes32"}],"stateMutability":"view","type":"function"},{"inputs":[],"name":"VOTE_TYPEHASH","outputs":[{"internalType":"bytes32","name":"","type":"bytes32"}],"stateMutability":"view","type":"function"},{"inputs":[{"internalType":"uint256","name":"proposalId","type":"uint256"}],"name":"cancelProposal","outputs":[],"stateMutability":"nonpayable","type":"function"},{"inputs":[{"internalType":"uint256","name":"proposalId","type":"uint256"},{"internalType":"uint8","name":"support","type":"uint8"}],"name":"castVote","outputs":[],"stateMutability":"nonpayable","type":"function"},{"inputs":[{"internalType":"uint256","name":"proposalId","type":"uint256"},{"internalType":"uint8","name":"support","type":"uint8"},{"internalType":"address","name":"voter","type":"address"},{"internalType":"uint256","name":"deadline","type":"uint256"},{"internalType":"uint8","name":"v","type":"uint8"},{"internalType":"bytes32","name":"r","type":"bytes32"},{"internalType":"bytes32","name":"s","type":"bytes32"}],"name":"castVoteBySignature","outputs":[],"stateMutability":"nonpayable","type":"function"},{"inputs":[{"internalType":"uint256","name":"propertyId","type":"uint256"},{"internalType":"string","name":"question","type":"string"},{"internalType":"string","name":"description","type":"string"},{"internalType":"string","name":"ipfsHash","type":"string"},{"internalType":"uint256","name":"duration","type":"uint256"}],"name":"createPoll","outputs":[{"internalType":"uint256","name":"","type":"uint256"}],"stateMutability":"nonpayable","type":"function"},{"inputs":[{"internalType":"uint256","name":"propertyId","type":"uint256"},{"internalType":"enum Governance.ProposalType","name":"proposalType","type":"uint8"},{"internalType":"string","name":"title","type":"string"},{"internalType":"string","name":"description","type":"string"},{"internalType":"string","name":"ipfsHash","type":"string"},{"internalType":"bytes","name":"executionData","type":"bytes"},{"internalType":"string","name":"impactReportIPFS","type":"string"},{"internalType":"uint256","name":"impactScore","type":"uint256"}],"name":"createProposal","outputs":[{"internalType":"uint256","name":"","type":"uint256"}],"stateMutability":"nonpayable","type":"function"},{"inputs":[{"internalType":"uint256","name":"pollId","type":"uint256"},{"internalType":"enum Governance.ProposalType","name":"proposalType","type":"uint8"},{"internalType":"bytes","name":"executionData","type":"bytes"}],"name":"createProposalFromPoll","outputs":[{"internalType":"uint256","name":"","type":"uint256"}],"stateMutability":"nonpayable","type":"function"},{"inputs":[{"internalType":"enum Governance.ProposalType","name":"","type":"uint8"}],"name":"demandSnapshots","outputs":[{"internalType":"uint256","name":"","type":"uint256"}],"stateMutability":"view","type":"function"},{"inputs":[{"internalType":"uint256","name":"pollId","type":"uint256"}],"name":"endPoll","outputs":[],"stateMutability":"nonpayable","type":"function"},{"inputs":[{"internalType":"uint256","name":"proposalId","type":"uint256"}],"name":"executeProposal","outputs":[],"stateMutability":"nonpayable","type":"function"},{"inputs":[{"internalType":"uint256","name":"proposalId","type":"uint256"}],"name":"finalizeProposal","outputs":[],"stateMutability":"nonpayable","type":"function"},{"inputs":[{"internalType":"uint256","name":"propertyId","type":"uint256"}],"name":"getActivePolls","outputs":[{"components":[{"internalType":"uint256","name":"id","type":"uint256"},{"internalType":"uint256","name":"propertyId","type":"uint256"},{"internalType":"address","name":"creator","type":"address"},{"internalType":"string","name":"question","type":"string"},{"internalType":"string","name":"description","type":"string"},{"internalType":"string","name":"ipfsHash","type":"string"},{"internalType":"uint256","name":"votesFor","type":"uint256"},{"internalType":"uint256","name":"votesAgainst","type":"uint256"},{"internalType":"uint256","name":"startTime","type":"uint256"},{"internalType":"uint256","name":"endTime","type":"uint256"},{"internalType":"enum Governance.PollStatus","name":"status","type":"uint8"},{"internalType":"uint256","name":"linkedProposalId","type":"uint256"}],"internalType":"struct Governance.Poll[]","name":"","type":"tuple[]"}],"stateMutability":"view","type":"function"},{"inputs":[{"internalType":"uint256","name":"propertyId","type":"uint256"}],"name":"getActiveProposals","outputs":[{"components":[{"internalType":"uint256","name":"id","type":"uint256"},{"internalType":"uint256","name":"propertyId","type":"uint256"},{"internalType":"address","name":"proposer","type":"address"},{"internalType":"enum Governance.ProposalType","name":"proposalType","type":"uint8"},{"internalType":"string","name":"title","type":"string"},{"internalType":"string","name":"description","type":"string"},{"internalType":"string","name":"ipfsHash","type":"string"},{"internalType":"uint256","name":"votesFor","type":"uint256"},{"internalType":"uint256","name":"votesAgainst","type":"uint256"},{"internalType":"uint256","name":"votesAbstain","type":"uint256"},{"internalType":"uint256","name":"startTime","type":"uint256"},{"internalType":"uint256","name":"endTime","type":"uint256"},{"internalType":"uint256","name":"quorumRequired","type":"uint256"},{"internalType":"enum Governance.ProposalStatus","name":"status","type":"uint8"},{"internalType":"bytes","name":"executionData","type":"bytes"},{"internalType":"string","name":"impactReportIPFS","type":"string"},{"internalType":"uint256","name":"impactScore","type":"uint256"}],"internalType":"struct Governance.Proposal[]","name":"","type":"tuple[]"}],"stateMutability":"view","type":"function"},{"inputs":[],"name":"getCommunityHealthScore","outputs":[{"internalType":"uint256","name":"healthScore","type":"uint256"}],"stateMutability":"view","type":"function"},{"inputs":[],"name":"getDemandBars","outputs":[{"internalType":"uint256[4]","name":"bars","type":"uint256[4]"}],"stateMutability":"view","type":"function"},{"inputs":[{"internalType":"enum Governance.ProposalType","name":"proposalType","type":"uint8"}],"name":"getDemandForType","outputs":[{"internalType":"uint256","name":"weight","type":"uint256"},{"internalType":"uint256","name":"bps","type":"uint256"}],"stateMutability":"view","type":"function"},{"inputs":[{"internalType":"enum Governance.ProposalType","name":"proposalType","type":"uint8"}],"name":"getEffectiveQuorum","outputs":[{"internalType":"uint256","name":"","type":"uint256"}],"stateMutability":"view","type":"function"},{"inputs":[{"internalType":"uint256","name":"proposalId","type":"uint256"}],"name":"getImpactReport","outputs":[{"internalType":"string","name":"ipfsHash","type":"string"},{"internalType":"uint256","name":"impactScore","type":"uint256"}],"stateMutability":"view","type":"function"},{"inputs":[{"internalType":"address","name":"voter","type":"address"}],"name":"getNonce","outputs":[{"internalType":"uint256","name":"","type":"uint256"}],"stateMutability":"view","type":"function"},{"inputs":[{"internalType":"uint256","name":"pollId","type":"uint256"}],"name":"getPoll","outputs":[{"components":[{"internalType":"uint256","name":"id","type":"uint256"},{"internalType":"uint256","name":"propertyId","type":"uint256"},{"internalType":"address","name":"creator","type":"address"},{"internalType":"string","name":"question","type":"string"},{"internalType":"string","name":"description","type":"string"},{"internalType":"string","name":"ipfsHash","type":"string"},{"internalType":"uint256","name":"votesFor","type":"uint256"},{"internalType":"uint256","name":"votesAgainst","type":"uint256"},{"internalType":"uint256","name":"startTime","type":"uint256"},{"internalType":"uint256","name":"endTime","type":"uint256"},{"internalType":"enum Governance.PollStatus","name":"status","type":"uint8"},{"internalType":"uint256","name":"linkedProposalId","type":"uint256"}],"internalType":"struct Governance.Poll","name":"","type":"tuple"}],"stateMutability":"view","type":"function"},{"inputs":[{"internalType":"uint256","name":"pollId","type":"uint256"}],"name":"getPollSupport","outputs":[{"internalType":"uint256","name":"","type":"uint256"}],"stateMutability":"view","type":"function"},{"inputs":[{"internalType":"uint256","name":"proposalId","type":"uint256"}],"name":"getProposal","outputs":[{"components":[{"internalType":"uint256","name":"id","type":"uint256"},{"internalType":"uint256","name":"propertyId","type":"uint256"},{"internalType":"address","name":"proposer","type":"address"},{"internalType":"enum Governance.ProposalType","name":"proposalType","type":"uint8"},{"internalType":"string","name":"title","type":"string"},{"internalType":"string","name":"description","type":"string"},{"internalType":"string","name":"ipfsHash","type":"string"},{"internalType":"uint256","name":"votesFor","type":"uint256"},{"internalType":"uint256","name":"votesAgainst","type":"uint256"},{"internalType":"uint256","name":"votesAbstain","type":"uint256"},{"internalType":"uint256","name":"startTime","type":"uint256"},{"internalType":"uint256","name":"endTime","type":"uint256"},{"internalType":"uint256","name":"quorumRequired","type":"uint256"},{"internalType":"enum Governance.ProposalStatus","name":"status","type":"uint8"},{"internalType":"bytes","name":"executionData","type":"bytes"},{"internalType":"string","name":"impactReportIPFS","type":"string"},{"internalType":"uint256","name":"impactScore","type":"uint256"}],"internalType":"struct Governance.Proposal","name":"","type":"tuple"}],"stateMutability":"view","type":"function"},{"inputs":[{"internalType":"bytes32","name":"role","type":"bytes32"}],"name":"getRoleAdmin","outputs":[{"internalType":"bytes32","name":"","type":"bytes32"}],"stateMutability":"view","type":"function"},{"inputs":[{"internalType":"uint256","name":"proposalId","type":"uint256"},{"internalType":"address","name":"voter","type":"address"}],"name":"getVote","outputs":[{"components":[{"internalType":"bool","name":"hasVoted","type":"bool"},{"internalType":"uint8","name":"support","type":"uint8"},{"internalType":"uint256","name":"weight","type":"uint256"}],"internalType":"struct Governance.Vote","name":"","type":"tuple"}],"stateMutability":"view","type":"function"},{"inputs":[{"internalType":"address","name":"voter","type":"address"}],"name":"getVoteToEarnBonus","outputs":[{"internalType":"uint256","name":"","type":"uint256"}],"stateMutability":"view","type":"function"},{"inputs":[{"internalType":"bytes32","name":"role","type":"bytes32"},{"internalType":"address","name":"account","type":"address"}],"name":"grantRole","outputs":[],"stateMutability":"nonpayable","type":"function"},{"inputs":[{"internalType":"bytes32","name":"role","type":"bytes32"},{"internalType":"address","name":"account","type":"address"}],"name":"hasRole","outputs":[{"internalType":"bool","name":"","type":"bool"}],"stateMutability":"view","type":"function"},{"inputs":[{"internalType":"address","name":"","type":"address"}],"name":"lastVoteTimestamp","outputs":[{"internalType":"uint256","name":"","type":"uint256"}],"stateMutability":"view","type":"function"},{"inputs":[{"internalType":"address","name":"","type":"address"}],"name":"nonces","outputs":[{"internalType":"uint256","name":"","type":"uint256"}],"stateMutability":"view","type":"function"},{"inputs":[],"name":"pollCount","outputs":[{"internalType":"uint256","name":"","type":"uint256"}],"stateMutability":"view","type":"function"},{"inputs":[{"internalType":"uint256","name":"","type":"uint256"}],"name":"pollParticipants","outputs":[{"internalType":"uint256","name":"","type":"uint256"}],"stateMutability":"view","type":"function"},{"inputs":[{"internalType":"uint256","name":"","type":"uint256"},{"internalType":"address","name":"","type":"address"}],"name":"pollVotes","outputs":[{"internalType":"bool","name":"hasVoted","type":"bool"},{"internalType":"bool","name":"support","type":"bool"}],"stateMutability":"view","type":"function"},{"inputs":[{"internalType":"uint256","name":"","type":"uint256"}],"name":"polls","outputs":[{"internalType":"uint256","name":"id","type":"uint256"},{"internalType":"uint256","name":"propertyId","type":"uint256"},{"internalType":"address","name":"creator","type":"address"},{"internalType":"string","name":"question","type":"string"},{"internalType":"string","name":"description","type":"string"},{"internalType":"string","name":"ipfsHash","type":"string"},{"internalType":"uint256","name":"votesFor","type":"uint256"},{"internalType":"uint256","name":"votesAgainst","type":"uint256"},{"internalType":"uint256","name":"startTime","type":"uint256"},{"internalType":"uint256","name":"endTime","type":"uint256"},{"internalType":"enum Governance.PollStatus","name":"status","type":"uint8"},{"internalType":"uint256","name":"linkedProposalId","type":"uint256"}],"stateMutability":"view","type":"function"},{"inputs":[],"name":"propertyToken","outputs":[{"internalType":"contract IPropertyToken","name":"","type":"address"}],"stateMutability":"view","type":"function"},{"inputs":[],"name":"proposalCount","outputs":[{"internalType":"uint256","name":"","type":"uint256"}],"stateMutability":"view","type":"function"},{"inputs":[{"internalType":"uint256","name":"","type":"uint256"}],"name":"proposals","outputs":[{"internalType":"uint256","name":"id","type":"uint256"},{"internalType":"uint256","name":"propertyId","type":"uint256"},{"internalType":"address","name":"proposer","type":"address"},{"internalType":"enum Governance.ProposalType","name":"proposalType","type":"uint8"},{"internalType":"string","name":"title","type":"string"},{"internalType":"string","name":"description","type":"string"},{"internalType":"string","name":"ipfsHash","type":"string"},{"internalType":"uint256","name":"votesFor","type":"uint256"},{"internalType":"uint256","name":"votesAgainst","type":"uint256"},{"internalType":"uint256","name":"votesAbstain","type":"uint256"},{"internalType":"uint256","name":"startTime","type":"uint256"},{"internalType":"uint256","name":"endTime","type":"uint256"},{"internalType":"uint256","name":"quorumRequired","type":"uint256"},{"internalType":"enum Governance.ProposalStatus","name":"status","type":"uint8"},{"internalType":"bytes","name":"executionData","type":"bytes"},{"internalType":"string","name":"impactReportIPFS","type":"string"},{"internalType":"uint256","name":"impactScore","type":"uint256"}],"stateMutability":"view","type":"function"},{"inputs":[{"internalType":"bytes32","name":"role","type":"bytes32"},{"internalType":"address","name":"callerConfirmation","type":"address"}],"name":"renounceRole","outputs":[],"stateMutability":"nonpayable","type":"function"},{"inputs":[{"internalType":"bytes32","name":"role","type":"bytes32"},{"internalType":"address","name":"account","type":"address"}],"name":"revokeRole","outputs":[],"stateMutability":"nonpayable","type":"function"},{"inputs":[{"internalType":"uint256","name":"newBonus","type":"uint256"}],"name":"setVoteToEarnBonus","outputs":[],"stateMutability":"nonpayable","type":"function"},{"inputs":[{"internalType":"uint256","name":"newPeriod","type":"uint256"}],"name":"setVotingPeriod","outputs":[],"stateMutability":"nonpayable","type":"function"},{"inputs":[{"internalType":"bytes4","name":"interfaceId","type":"bytes4"}],"name":"supportsInterface","outputs":[{"internalType":"bool","name":"","type":"bool"}],"stateMutability":"view","type":"function"},{"inputs":[],"name":"takeDemandSnapshot","outputs":[],"stateMutability":"nonpayable","type":"function"},{"inputs":[],"name":"totalDemandWeight","outputs":[{"internalType":"uint256","name":"","type":"uint256"}],"stateMutability":"view","type":"function"},{"inputs":[{"internalType":"uint256","name":"","type":"uint256"}],"name":"totalVotingPower","outputs":[{"internalType":"uint256","name":"","type":"uint256"}],"stateMutability":"view","type":"function"},{"inputs":[{"internalType":"enum Governance.ProposalType","name":"","type":"uint8"}],"name":"typeDemandWeights","outputs":[{"internalType":"uint256","name":"","type":"uint256"}],"stateMutability":"view","type":"function"},{"inputs":[{"internalType":"uint256","name":"pollId","type":"uint256"},{"internalType":"bool","name":"support","type":"bool"}],"name":"votePoll","outputs":[],"stateMutability":"nonpayable","type":"function"},{"inputs":[],"name":"voteToEarnBonus","outputs":[{"internalType":"uint256","name":"","type":"uint256"}],"stateMutability":"view","type":"function"},{"inputs":[{"internalType":"address","name":"","type":"address"}],"name":"voterParticipationCount","outputs":[{"internalType":"uint256","name":"","type":"uint256"}],"stateMutability":"view","type":"function"},{"inputs":[{"internalType":"uint256","name":"","type":"uint256"},{"internalType":"address","name":"","type":"address"}],"name":"votes","outputs":[{"internalType":"bool","name":"hasVoted","type":"bool"},{"internalType":"uint8","name":"support","type":"uint8"},{"internalType":"uint256","name":"weight","type":"uint256"}],"stateMutability":"view","type":"function"},{"inputs":[],"name":"votingPeriod","outputs":[{"internalType":"uint256","name":"","type":"uint256"}],"stateMutability":"view","type":"function"}],"evm":{"bytecode":{"linkReferences":{},"object":"60a03462000199576001600160401b0390601f62004e9f38819003918201601f1916830192919084841183851017620001835781602092849260409687528339810103126200019957516001600160a01b0381169081900362000199576001805562093a806004556032600555600280546001600160a01b0319169190911790556200008b33620001ba565b5062000097336200023a565b50620000a333620002dc565b50620000af3362000379565b50601460208251620000c1816200019e565b828152017f52657669746148756220476f7665726e616e636500000000000000000000000081522090600160208251620000fb816200019e565b82815201603160f81b8152209080519160208301937f8b73c3c69bb8fe3d512ecc4cf759cc79239f7b179b0ffacaa9a75d522b39400f85528284015260608301524660808301523060a083015260a0825260c0820193828510908511176200018357839052519020608052614a6890816200041782396080518181816129aa01526131740152f35b634e487b7160e01b600052604160045260246000fd5b600080fd5b604081019081106001600160401b038211176200018357604052565b6001600160a01b031660008181527fad3228b676f7d3cd4284a5443f17f1962b36e491b30a40b2405849e597ba5fb5602052604081205490919060ff166200023657818052816020526040822081835260205260408220600160ff19825416179055339160008051602062004e7f8339815191528180a4600190565b5090565b6001600160a01b031660008181527f3412d5605ac6cd444957cedb533e5dacad6378b4bc819ebe3652188a665066d560205260408120549091907fb09aa5aeb3702cfd50b6b62bc4532604938f21248a27a1d5ca736082b6819cc19060ff16620002d757808352826020526040832082845260205260408320600160ff1982541617905560008051602062004e7f833981519152339380a4600190565b505090565b6001600160a01b031660008181527fdae2aa361dfd1ca020a396615627d436107c35eff9fe7738a3512819782d706960205260408120549091907fd8aa0f3194971a2a116679f7c2090f6939c8d4e01a2a8d7e41d55e5351469e639060ff16620002d757808352826020526040832082845260205260408320600160ff1982541617905560008051602062004e7f833981519152339380a4600190565b6001600160a01b031660008181527ffaf93c3d007e112089dc8351e013e6685ef67703975d0224b26fc45941d4f1f560205260408120549091907fe2b7fb3b832174769106daebcfd6d1970523240dda11281102db9363b83b0dc49060ff16620002d757808352826020526040832082845260205260408320600160ff1982541617905560008051602062004e7f833981519152339380a460019056fe6080604052600436101561001257600080fd5b60003560e01c8063013cf08b1461370057806301ffc9a7146136aa57806302a251a31461368c57806307bd0265146136515780630af4da41146136295780630d61b519146135195780630e6c151c146134db57806319546f1a1461349d5780631a8cbcaa14613454578063248a9ca314613425578063248bd47114613408578063252f57d7146115205780632d0335ab14610db85780632dcf0d7314612f7f5780632f2ff15d14612f4057806333b5e38e14612e4e578063364478e2146129cd5780633644e5151461299257806336568abe1461294b5780633d8803e2146103e257806342a7c61414610db357806343ae26951461292257806349672b70146129075780634ce83cdb14611ed65780635100084c1461156f578063514c3d5614611551578063536f9f42146115255780635394c879146115205780635652077c146113fb57806356781388146111cf5780635c7b264d146111955780636213e5ea14610ffd578063637e54ac14610fa557806363f0c7ff14610df25780637ecebe0014610db8578063808c447914610db35780638652297314610d78578063872d154414610cec5780638f61f4f514610cb157806391d1485414610c645780639207891d14610c46578063926d7d7f14610c0b5780639509454414610b585780639c4e99ca14610b3a5780639d79a9eb14610a01578063a217fddf146109e5578063ac2f0074146108b4578063b277d02a14610897578063bc3f931f146107f9578063bcd77a24146107d1578063c3b028e2146107a5578063c7f758a814610758578063cae35ba0146106cd578063d23254b41461066a578063d547741f14610629578063da35c6641461060b578063dd9deb1b146105ed578063de1cf4ad146105b3578063e0a8f6f514610489578063ea0217cf146103e7578063eac3a6bd146103e2578063ecc52c04146103b75763f43b8778146102d157600080fd5b346103b25760203660031901126103b25760043580600052600c6020526040600020600a81019081549060ff8216600381101561039c5761031290156144e0565b60098101544210610362577f76254391687772340030bc79660c2d1e15dad744f94894a52e52863b5fca111592600160409360ff19161790556007600682015491015482519182526020820152a2005b60405162461bcd60e51b8152602060048201526012602482015271141bdb1b081b9bdd08195b991959081e595d60721b6044820152606490fd5b634e487b7160e01b600052602160045260246000fd5b600080fd5b346103b25760203660031901126103b25760206103da6103d5613b83565b61451e565b604051908152f35b613c15565b346103b25760203660031901126103b257600435610403614552565b620151808110158061047c575b15610446576020817f651c77f42613a075437aa794c44471e3abc3a661956a67aaee165bb7396974aa92600455604051908152a1005b60405162461bcd60e51b815260206004820152600e60248201526d125b9d985b1a59081c195c9a5bd960921b6044820152606490fd5b5062278d00811115610410565b346103b2576020806003193601126103b257600435908160005260068152604060002060018060a01b0360028201541633148015610591575b1561055b57600c019081549060ff8216600681101561039c5760018114908115610552575b501561051e575060ff191660051790557f416e669c63d9a3a5e36ee7cc7e2104b8db28ccd286aa18966e98fa230c73b08c600080a2005b6064906040519062461bcd60e51b82526004820152600d60248201526c10d85b9b9bdd0818d85b98d95b609a1b6044820152fd5b905015856104e7565b60405162461bcd60e51b815260048101839052600e60248201526d139bdd08185d5d1a1bdc9a5e995960921b6044820152606490fd5b506000805260008252604060002033600052825260ff604060002054166104c2565b346103b25760203660031901126103b2576001600160a01b036105d4613b83565b16600052600b6020526020604060002054604051908152f35b346103b25760003660031901126103b2576020600554604051908152f35b346103b25760003660031901126103b2576020600754604051908152f35b346103b25760403660031901126103b257610668600435610648613b99565b908060005260006020526106636001604060002001546145e8565b6147d9565b005b346103b25760403660031901126103b257610683613b99565b600435600052600860205260406000209060018060a01b0316600052602052606060406000206001815491015460ff604051928181161515845260081c1660208301526040820152f35b346103b25760203660031901126103b25760043560048110156103b2576106f381613a24565b60009081526010602052604090205460125490811561074d576127108082029082820414821517156107375760409261072b91613d57565b82519182526020820152f35b634e487b7160e01b600052601160045260246000fd5b60409150600061072b565b346103b25760203660031901126103b2576107716142da565b5060043560005260066020526107a161078d604060002061436b565b604051918291602083526020830190613c4f565b0390f35b346103b25760203660031901126103b257600435600052600f6020526020604060002054604051908152f35b346103b25760203660031901126103b25760043560048110156103b2576103da60209161484e565b346103b25760403660031901126103b257610812613b99565b600060408051610821816139cd565b8281528260208201520152600435600052600860205260406000209060018060a01b03166000526020526060604060002060405161085e816139cd565b60ff82546040600183831615159586865284602087019460081c1684520154930192835260405193845251166020830152516040820152f35b346103b25760003660031901126103b25760206040516107d08152f35b346103b25760203660031901126103b257600435600052600c6020526040600020805490600181015490600160a01b60019003600282015416926040519182806003830190610902916138ff565b0361090d9084613a03565b604051928361091f81600485016138ff565b0361092a9085613a03565b604051938461093c81600586016138ff565b036109479086613a03565b600683015494600784015490600885015492600986015494600a87015460ff1696600b0154976040519b8c9b610180928d5260208d015260408c01528060608c01528a0161099491613a2e565b89810360808b01526109a591613a2e565b88810360a08a01526109b691613a2e565b9560c088015260e087015261010086015261012085015261014084016109db91613aa9565b6101608301520390f35b346103b25760003660031901126103b257602060405160008152f35b346103b25760403660031901126103b25760043560243590811515918281036103b25781600052602090600c825260406000209060ff600a83015416600381101561039c57610a5090156144e0565b6009820154421015610b0857907fdf13ce4fcc43c19a08df4ffa6d471ae7bb1d6ffc3beb528ad821c873f798ce2f929184600052600e83526040600020336000528352604060002060018154610aa960ff82161561407f565b61ff008960081b169061ffff19161717905584600052600f83526040600020610ad281546140bb565b905515610af457600601610ae681546140bb565b90555b6040519384523393a3005b600701610b0181546140bb565b9055610ae9565b60405162461bcd60e51b815260048101849052600a602482015269141bdb1b08195b99195960b21b6044820152606490fd5b346103b25760203660031901126103b25760206103da600435614493565b346103b25760203660031901126103b257600435600754811015610bc6576000526006602052610bbc600e6040600020610ba8600f82015491610ba160405180958193016138ff565b0383613a03565b604051928392604084526040840190613a2e565b9060208301520390f35b60405162461bcd60e51b815260206004820152601760248201527f50726f706f73616c20646f6573206e6f742065786973740000000000000000006044820152606490fd5b346103b25760003660031901126103b25760206040517fe2b7fb3b832174769106daebcfd6d1970523240dda11281102db9363b83b0dc48152f35b346103b25760003660031901126103b2576020600d54604051908152f35b346103b25760403660031901126103b257610c7d613b99565b600435600052600060205260406000209060018060a01b0316600052602052602060ff604060002054166040519015158152f35b346103b25760003660031901126103b25760206040517fb09aa5aeb3702cfd50b6b62bc4532604938f21248a27a1d5ca736082b6819cc18152f35b346103b25760203660031901126103b257600435610d08614552565b6101f48111610d42576020817f4ade7322d9a0c41dc254574f72d3d442f06addcc77917dcb9cb1ac4441d1b20f92600555604051908152a1005b60405162461bcd60e51b815260206004820152600e60248201526d084dedceae640e8dede40d0d2ced60931b6044820152606490fd5b346103b25760003660031901126103b25760206040517fa122aedc7c2408a97bcfe5d8ff1f6a6d7bf779a8b6dd3d72ff503e8fcf9d2eb98152f35b613c32565b346103b25760203660031901126103b2576001600160a01b03610dd9613b83565b1660005260036020526020604060002054604051908152f35b346103b2576020806003193601126103b2576004356000906000600d54905b818110610f4f5750610e3b610e25846142c3565b93610e336040519586613a03565b8085526142c3565b601f19018460005b828110610f39575050506000805b828110610eb657604080518781528651818901819052600092600582901b8301810191898b01918b9085015b828710610e8a5785850386f35b909192938280610ea6600193603f198a82030186528851613ab6565b9601920196019592919092610e7d565b80600052600c908187526040600020918560018401541480610f1c575b60019350610ee3575b5001610e51565b816000528752610f15604060002093610f04610efe826140bb565b95613eb8565b610f0e828a614357565b5287614357565b5087610edc565b5091600a60ff9101541691600383101561039c5760019215610ed3565b610f41613e5c565b828288010152018590610e43565b80600052600c85526040600020836001820154149081610f8c575b50610f78575b600101610e11565b92610f846001916140bb565b939050610f70565b60ff9150600a015416600381101561039c571586610f6a565b346103b25760403660031901126103b257610fbe613b99565b600435600052600e60205260406000209060018060a01b03166000526020526040806000205460ff8251918181161515835260081c1615156020820152f35b346103b2576020806003193601126103b2576004356000906000600754905b8181106111365750611030610e25846142c3565b601f19018460005b828110611120575050506000805b8281106110ab57604080518781528651818901819052600092600582901b8301810191898b01918b9085015b82871061107f5785850386f35b90919293828061109b600193603f198a82030186528851613c4f565b9601920196019592919092611072565b806000526006908187526040600020916001928684820154149081611104575b50600193506110dc575b5001611046565b8160005287526110fd604060002093610f046110f7826140bb565b9561436b565b50876110d5565b60ff9150600c015416928184101561039c5760019314896110cb565b6111286142da565b828288010152018590611038565b8060005260068086526040600020906001908582840154149283611179575b505050611165575b60010161101c565b926111716001916140bb565b93905061115d565b60ff91929350600c0154169081101561039c5714868080611155565b346103b25760203660031901126103b2576001600160a01b036111b6613b83565b16600052600a6020526020604060002054604051908152f35b346103b25760403660031901126103b2576004356111eb613baf565b6111f361460e565b816000526020916006835260406000209160ff600c8401541693600685101561039c576112236001809614613f81565b6112336009850154421015613fc3565b611242600a8501544210614004565b60ff821693611254600286111561403f565b836000526008825260406000203360005282526112bd604060002080549461127f60ff87161561407f565b60025489850154604051636ded6a1960e11b8152600481019190915233602482015293869185916001600160a01b0390911690829081906044820190565b03915afa9586156113ef5789936000976113b8575b5093868460ff9461130d60029584986113599a6112f08715156140ca565b891916178355829061ff0082549160081b169061ff001916179055565b01558861138c5760078101611323858254614108565b90555b33600052600a8652604060002061133d81546140bb565b905533600052600b865242604060002055015460a01c16614631565b6040519384528301527fb83d25c6a5d258561330739951487acb4bd09ba5190b5d32c4f261817d90679260403393a38055005b888a036113a957600681016113a2858254614108565b9055611326565b600881016113a2858254614108565b9196509250908482813d81116113e8575b6113d38183613a03565b810103126103b25790519488926113596112d2565b503d6113c9565b6040513d6000823e3d90fd5b346103b25760203660031901126103b257600435806000526006602052604060002090600c82019182549160ff8316600681101561039c57600161143f9114613f81565b600a82015442106114e85760068201549160078101549161146e6114638486614108565b600884015490614108565b600091825260096020526040909120549081156114dc576127109081810291818304149015171561073757600b916114a591613d57565b915b0154111591826114d2575b5050156114c75750805460ff19166002179055005b60ff19166003179055005b11905083806114b2565b5050600b6000916114a7565b60405162461bcd60e51b815260206004820152601060248201526f159bdd1a5b99c81b9bdd08195b99195960821b6044820152606490fd5b613b66565b346103b25760203660031901126103b25760043560005260096020526020604060002054604051908152f35b346103b25760003660031901126103b2576020601254604051908152f35b346103b2576101003660031901126103b257600460243510156103b2576044356001600160401b0381116103b2576115ab903690600401613bbf565b6064356001600160401b0381116103b2576115ca903690600401613bbf565b906084356001600160401b0381116103b2576115ea903690600401613bbf565b9060a4356001600160401b0381116103b25761160a903690600401613bbf565b60c4356001600160401b0381116103b257611629903690600401613bbf565b9061163261458c565b61163d602435613a24565b60243515611e11575b606460e43511611dcc57600254604051636ded6a1960e11b815260048035908201523360248201526001600160a01b0390911690602081604481855afa80156113ef57600090611d98575b61169d91501515614277565b600754946116aa866140bb565b600755602460206116bb823561484e565b9360405192838092638cdc1e8760e01b825260043560048301525afa9081156113ef57600091611d66575b508015611d105786600052600960205260406000205561170860045442614108565b9060405197611716896139b1565b87895260043560208a01523360408a0152611732602435613a24565b60243560608a01528660808a015260a089015260c0880152600060e0880152600061010088015260006101208801524261014088015261016087015261018086015260016101a08601526101c08501526101e084015260e435610200840152816000526006602052604060002083518155602084015160018201556002810160018060a01b0360408601511681549060608701516117cf81613a24565b6117d881613a24565b6001600160a81b03199092161760a09190911b60ff60a01b1617905560808401518051906001600160401b038211611b2b576118248261181b60038601546138c5565b60038601614115565b602090601f8311600114611c9e57611855929160009183611b41575b50508160011b916000199060031b1c19161790565b60038201555b60a08401518051906001600160401b038211611b2b5761188b8261188260048601546138c5565b60048601614115565b602090601f8311600114611c2c576118bb929160009183611b415750508160011b916000199060031b1c19161790565b60048201555b60c08401518051906001600160401b038211611b2b576118f1826118e860058601546138c5565b60058601614115565b602090601f8311600114611bba57611921929160009183611b415750508160011b916000199060031b1c19161790565b60058201555b60e08401516006820155610100840151600782015561012084015160088201556101408401516009820155610160840151600a820155610180840151600b8201556101a0840151600681101561039c5761198490600c8301613e44565b6101c08401518051906001600160401b038211611b2b576119b5826119ac600d8601546138c5565b600d8601614115565b602090601f8311600114611b4c576119e5929160009183611b415750508160011b916000199060031b1c19161790565b600d8201555b6101e08401519384516001600160401b038111611b2b57602095611a1f82611a16600e8701546138c5565b600e8701614115565b8690601f8311600114611ab7578261020093600f9593611a5593600092611aac5750508160011b916000199060031b1c19161790565b600e8501555b015191015581600080516020614a13833981519152604051338152611a81602435613a24565b602435868201526060604082015280611aa1600435956060830190613a2e565b0390a3604051908152f35b015190508a80611840565b90600e8501600052876000209160005b601f1985168110611b14575092600f94926001926102009583601f19811610611afb575b505050811b01600e850155611a5b565b015160001960f88460031b161c19169055898080611aeb565b919289600181928685015181550194019201611ac7565b634e487b7160e01b600052604160045260246000fd5b015190508780611840565b90601f19831691600d850160005260206000209260005b818110611ba25750908460019594939210611b89575b505050811b01600d8201556119eb565b015160001960f88460031b161c19169055868080611b79565b92936020600181928786015181550195019301611b63565b9190600584016000526020600020906000935b601f1984168510611c11576001945083601f19811610611bf8575b505050811b016005820155611927565b015160001960f88460031b161c19169055868080611be8565b81810151835560209485019460019093019290910190611bcd565b9190600484016000526020600020906000935b601f1984168510611c83576001945083601f19811610611c6a575b505050811b0160048201556118c1565b015160001960f88460031b161c19169055868080611c5a565b81810151835560209485019460019093019290910190611c3f565b9190600384016000526020600020906000935b601f1984168510611cf5576001945083601f19811610611cdc575b505050811b01600382015561185b565b015160001960f88460031b161c19169055868080611ccc565b81810151835560209485019460019093019290910190611cb1565b60405162461bcd60e51b815260206004820152602860248201527f4e6f20766f74696e6720706f7765722065786973747320666f7220746869732060448201526770726f706572747960c01b6064820152608490fd5b90506020813d602011611d90575b81611d8160209383613a03565b810103126103b25751886116e6565b3d9150611d74565b506020813d602011611dc4575b81611db260209383613a03565b810103126103b25761169d9051611691565b3d9150611da5565b60405162461bcd60e51b815260206004820152601a60248201527f496d706163742073636f7265206d75737420626520302d3130300000000000006044820152606490fd5b815115611e7a5760e4356116465760405162461bcd60e51b815260206004820152602d60248201527f496d706163742073636f726520726571756972656420666f722050726f70657260448201526c1d1e51195d995b1bdc1b595b9d609a1b6064820152608490fd5b60405162461bcd60e51b815260206004820152602e60248201527f496d70616374207265706f727420726571756972656420666f722050726f706560448201526d1c9d1e51195d995b1bdc1b595b9d60921b6064820152608490fd5b346103b25760603660031901126103b257600460243510156103b2576044356001600160401b0381116103b257611f11903690600401613bbf565b611f1961458c565b600435600052600c60205260406000209060ff600a83015416600381101561039c576001036128c257600b820154612889576006820154611f5e600784015482614108565b908115612854576127109081810291818304149015171561073757610bb891611f8691613d57565b1061280f576002546001830154604051636ded6a1960e11b815260048101919091523360248201526001600160a01b039091169290602081604481875afa80156113ef576000906127db575b611fde91501515614277565b60075491611feb836140bb565b600755611ff960243561484e565b6101f48111156127d557806101f319810111610737576101f31901935b60206001840154602460405180948193638cdc1e8760e01b835260048301525afa9081156113ef576000916127a3575b5080156127655783600052600960205260406000205560018201549361206e60045442614108565b6040519561207b876139b1565b8587526020870152336040870152612094602435613a24565b60243560608701526040516120b7816120b081600389016138ff565b0382613a03565b60808701526040516120d0816120b081600489016138ff565b60a08701526040516120e9816120b081600589016138ff565b60c0870152600060e0870152600061010087015260006101208701524261014087015261016086015261018085015260016101a08501526101c08401526040518060208101106001600160401b03602083011117611b2b5760208101604052600081526101e08401526000610200840152816000526006602052604060002083518155602084015160018201556002810160018060a01b03604086015116815490606087015161219881613a24565b6121a181613a24565b6001600160a81b03199092161760a09190911b60ff60a01b1617905560808401518051906001600160401b038211611b2b576121e48261181b60038601546138c5565b602090601f83116001146126f357612214929160009183611b415750508160011b916000199060031b1c19161790565b60038201555b60a08401518051906001600160401b038211611b2b576122418261188260048601546138c5565b602090601f831160011461268157612271929160009183611b415750508160011b916000199060031b1c19161790565b60048201555b60c08401518051906001600160401b038211611b2b5761229e826118e860058601546138c5565b602090601f831160011461260f576122ce929160009183611b415750508160011b916000199060031b1c19161790565b60058201555b60e08401516006820155610100840151600782015561012084015160088201556101408401516009820155610160840151600a820155610180840151600b8201556101a0840151600681101561039c5761233190600c8301613e44565b6101c08401518051906001600160401b038211611b2b57612359826119ac600d8601546138c5565b602090601f831160011461259d57612389929160009183611b415750508160011b916000199060031b1c19161790565b600d8201555b6101e08401519384516001600160401b038111611b2b576020956123ba82611a16600e8701546138c5565b8690601f8311600114612529578261020093600f95936123f093600092611aac5750508160011b916000199060031b1c19161790565b600e8501555b01519101558160ff19600281600a8501541617600a84015581600b8401556001830154926040519133835261242c602435613a24565b6024358784015260606040840152600091600381015461244b816138c5565b928360608701526001821691826000146124fb5750506001146124b1575b50509080600080516020614a13833981519152920390a360405190806004357ff57507588a3f55547e832ad7906fc1c90a328d2c78895bc24abf93c41e8568a0600080a38152f35b60030160009081528781209092505b8183106124e3575050810160800181600080516020614a13833981519152612469565b805483850160800152869450918701916001016124c0565b86955060809350600080516020614a13833981519152969492501682840152151560051b8201019192612469565b90600e8501600052876000209160005b601f1985168110612586575092600f94926001926102009583601f1981161061256d575b505050811b01600e8501556123f6565b015160001960f88460031b161c1916905589808061255d565b919289600181928685015181550194019201612539565b9190600d84016000526020600020906000935b601f19841685106125f4576001945083601f198116106125db575b505050811b01600d82015561238f565b015160001960f88460031b161c191690558680806125cb565b818101518355602094850194600190930192909101906125b0565b9190600584016000526020600020906000935b601f1984168510612666576001945083601f1981161061264d575b505050811b0160058201556122d4565b015160001960f88460031b161c1916905586808061263d565b81810151835560209485019460019093019290910190612622565b9190600484016000526020600020906000935b601f19841685106126d8576001945083601f198116106126bf575b505050811b016004820155612277565b015160001960f88460031b161c191690558680806126af565b81810151835560209485019460019093019290910190612694565b9190600384016000526020600020906000935b601f198416851061274a576001945083601f19811610612731575b505050811b01600382015561221a565b015160001960f88460031b161c19169055868080612721565b81810151835560209485019460019093019290910190612706565b60405162461bcd60e51b81526020600482015260166024820152754e6f20766f74696e6720706f7765722065786973747360501b6044820152606490fd5b90506020813d6020116127cd575b816127be60209383613a03565b810103126103b2575185612046565b3d91506127b1565b93612016565b506020813d602011612807575b816127f560209383613a03565b810103126103b257611fde9051611fd2565b3d91506127e8565b60405162461bcd60e51b815260206004820152601960248201527f496e73756666696369656e7420706f6c6c20737570706f7274000000000000006044820152606490fd5b60405162461bcd60e51b815260206004820152600d60248201526c139bc81d9bdd195cc818d85cdd609a1b6044820152606490fd5b60405162461bcd60e51b8152602060048201526011602482015270105b1c9958591e4818dbdb9d995c9d1959607a1b6044820152606490fd5b60405162461bcd60e51b815260206004820152601860248201527f506f6c6c206d75737420626520656e64656420666972737400000000000000006044820152606490fd5b346103b25760003660031901126103b25760206103da61416b565b346103b25760003660031901126103b2576002546040516001600160a01b039091168152602090f35b346103b25760403660031901126103b257612964613b99565b336001600160a01b0382160361298057610668906004356147d9565b60405163334bd91960e11b8152600490fd5b346103b25760003660031901126103b25760206040517f00000000000000000000000000000000000000000000000000000000000000008152f35b346103b25760a03660031901126103b2576024356001600160401b0381116103b2576129fd903690600401613bbf565b6044356001600160401b0381116103b257612a1c903690600401613bbf565b906064356001600160401b0381116103b257612a3c903690600401613bbf565b9062015180608435101580612e3f575b15612e0757600d5491612a5e836140bb565b600d55612a6d60843542614108565b9060405194612a7b86613995565b8486526004356020870152336040870152836060870152608086015260a0850152600060c0850152600060e0850152426101008501526101208401526000610140840152600061016084015281600052600c602052604060002083518155602084015160018201556002810160018060a01b036040860151166bffffffffffffffffffffffff60a01b82541617905560608401518051906001600160401b038211611b2b57612b318261181b60038601546138c5565b602090601f8311600114612d9557612b61929160009183611b415750508160011b916000199060031b1c19161790565b60038201555b60808401518051906001600160401b038211611b2b57612b8e8261188260048601546138c5565b602090601f8311600114612d2757612bbe929160009183611b415750508160011b916000199060031b1c19161790565b60048201555b60a08401518051906001600160401b038211611b2b57612beb826118e860058601546138c5565b602090601f8311600114612cb957612c1b929160009183611b415750508160011b916000199060031b1c19161790565b60058201555b60c0840151600682015560e0840151600782015561010084015160088201556101208401516009820155600a8101610140850151600381101561039c57602095600b926101609260ff801983541691161790550151910155817f658fccfc8de51891b480d49e504fbb0f8f9b43f13522a475d1729a74531a9e2260405133815260408682015280611aa1600435956040830190613a2e565b90601f198316916005850160005260206000209260005b818110612d0f5750908460019594939210612cf6575b505050811b016005820155612c21565b015160001960f88460031b161c19169055868080612ce6565b92936020600181928786015181550195019301612cd0565b90601f198316916004850160005260206000209260005b818110612d7d5750908460019594939210612d64575b505050811b016004820155612bc4565b015160001960f88460031b161c19169055868080612d54565b92936020600181928786015181550195019301612d3e565b9190600384016000526020600020906000935b601f1984168510612dec576001945083601f19811610612dd3575b505050811b016003820155612b67565b015160001960f88460031b161c19169055868080612dc3565b81810151835560209485019460019093019290910190612da8565b60405162461bcd60e51b815260206004820152601060248201526f24b73b30b634b210323ab930ba34b7b760811b6044820152606490fd5b5062278d006084351115612a4c565b346103b25760003660031901126103b257612e67614552565b604051612e73816139e8565b608036823760128054612eb6575b6040517f229301218ef01ca6b8da4d31650c5fdf0265077519dfbbfaf6f3254aa666450b9080612eb18582613a7b565b0390a1005b60005b60048110612ec75750612e81565b612ed081613a24565b612ed981613a24565b8060005260209060108252604060002054916127109283810293818504149015171561073757612f0d600193855490613d57565b612f178387613d77565b526011612f248387613d77565b5191612f2f84613a24565b836000525260406000205501612eb9565b346103b25760403660031901126103b257610668600435612f5f613b99565b90806000526000602052612f7a6001604060002001546145e8565b61475b565b346103b25760e03660031901126103b257612f98613baf565b6044356001600160a01b03811690036103b25760ff60843516608435036103b2573360009081527ffaf93c3d007e112089dc8351e013e6685ef67703975d0224b26fc45941d4f1f560205260409020547fe2b7fb3b832174769106daebcfd6d1970523240dda11281102db9363b83b0dc49060ff16156133ea575061301b61460e565b60643542116133b1576004356000526006602052604060002060ff600c82015416600681101561039c5760016130519114613f81565b6130616009820154421015613fc3565b613070600a8201544210614004565b613080600260ff8416111561403f565b6004356000526008602052604060002060018060a01b03604435166000526020526040600020906130b560ff8354161561407f565b6044356001600160a01b031660009081526003602052604090208054906130db826140bb565b90556040519060208201907fa122aedc7c2408a97bcfe5d8ff1f6a6d7bf779a8b6dd3d72ff503e8fcf9d2eb98252600435604084015260ff8616606084015260018060a01b0360443516608084015260a083015260643560c083015260c0825260e082018281106001600160401b03821117611b2b576131c5926131bc92826040528151902061012261010083019261190160f01b84527f00000000000000000000000000000000000000000000000000000000000000006101028201520152604282526131a8826139e8565b60c4359160a43591608435915190206148f7565b90929192614987565b6001600160a01b036044358116911603613378576002546001820154604051636ded6a1960e11b815260048101919091526001600160a01b036044803582166024840152919492602092869290918391165afa9283156113ef57600093613341575b5060ff60026132c49385600181956132408315156140ca565b805461ff0060088c901b168719909116831761ff00191617815501558683166133125760078101613272858254614108565b90555b6044356001600160a01b03166000908152600a60205260409020805461329a906140bb565b90556044356001600160a01b03166000908152600b60205260409020429055015460a01c16614631565b60ff60405192168252602082015233604082015260018060a01b0360443516907fb7a759f14619c0391b65e3f8ceb8fd342a3e24929e81d83493445a4a1c87d0fc606060043592a360018055005b868316600103613332576006810161332b858254614108565b9055613275565b6008810161332b858254614108565b9192506020823d602011613370575b8161335d60209383613a03565b810103126103b2579051919060ff613227565b3d9150613350565b60405162461bcd60e51b8152602060048201526011602482015270496e76616c6964207369676e617475726560781b6044820152606490fd5b60405162461bcd60e51b815260206004820152601160248201527014da59db985d1d5c9948195e1c1a5c9959607a1b6044820152606490fd5b6044906040519063e2517d3f60e01b82523360048301526024820152fd5b346103b25760003660031901126103b25760206040516109c48152f35b346103b25760203660031901126103b25760043560005260006020526020600160406000200154604051908152f35b346103b25760203660031901126103b25761346d613e5c565b50600435600052600c6020526107a16134896040600020613eb8565b604051918291602083526020830190613ab6565b346103b25760203660031901126103b25760043560048110156103b2576134c381613a24565b60005260116020526020604060002054604051908152f35b346103b25760203660031901126103b25760043560048110156103b25761350181613a24565b60005260106020526020604060002054604051908152f35b346103b25760203660031901126103b2573360009081527fdae2aa361dfd1ca020a396615627d436107c35eff9fe7738a3512819782d70696020526040902054600435907fd8aa0f3194971a2a116679f7c2090f6939c8d4e01a2a8d7e41d55e5351469e639060ff16156133ea575061359061460e565b806000526006602052600c604060002001805460ff8116600681101561039c576002036135eb5760ff191660041790557f712ae1383f79ac853f8d882153778e0260ef8f03b504e2866e0593e04d2b291f600080a260018055005b60405162461bcd60e51b8152602060048201526016602482015275141c9bdc1bdcd85b081b9bdd081cdd58d8d95959195960521b6044820152606490fd5b346103b25760003660031901126103b2576107a1613645613d9e565b60405191829182613a7b565b346103b25760003660031901126103b25760206040517fd8aa0f3194971a2a116679f7c2090f6939c8d4e01a2a8d7e41d55e5351469e638152f35b346103b25760003660031901126103b2576020600454604051908152f35b346103b25760203660031901126103b25760043563ffffffff60e01b81168091036103b257602090637965db0b60e01b81149081156136ef575b506040519015158152f35b6301ffc9a760e01b149050826136e4565b346103b25760203660031901126103b2576004356000526006602052604060002080549060018101546002820154916080806003830190613740916138ff565b0360809061374d91613a03565b6040518061375e81600485016138ff565b036137699082613a03565b6040518061377a81600586016138ff565b036137859082613a03565b600683015490600784015460088501546009860154600a87015491600b88015493600c89015460ff1695604051988980600d8d01906137c3916138ff565b036137ce908b613a03565b6040519a8b6137e081600e84016138ff565b036137eb908d613a03565b600f01549b6040519e8f9e8f9061022093849383526020830152600160a01b60019003811660408301528060a01c60ff1661382590613a24565b60a01c60ff166060820152608001528d0160809061384291613a2e565b8d810360a08f015261385391613a2e565b8c810360c08e015261386491613a2e565b9660e08c01526101008b01526101208a01526101408901526101608801526101808701526101a0860161389691613a6e565b8481036101c08601526138a891613a2e565b8381036101e08501526138ba91613a2e565b906102008301520390f35b90600182811c921680156138f5575b60208310146138df57565b634e487b7160e01b600052602260045260246000fd5b91607f16916138d4565b80546000939261390e826138c5565b918282526020936001916001811690816000146139765750600114613935575b5050505050565b90939495506000929192528360002092846000945b8386106139625750505050010190388080808061392e565b80548587018301529401938590820161394a565b60ff19168685015250505090151560051b01019150388080808061392e565b61018081019081106001600160401b03821117611b2b57604052565b61022081019081106001600160401b03821117611b2b57604052565b606081019081106001600160401b03821117611b2b57604052565b608081019081106001600160401b03821117611b2b57604052565b90601f801991011681019081106001600160401b03821117611b2b57604052565b6004111561039c57565b919082519283825260005b848110613a5a575050826000602080949584010152601f8019910116010190565b602081830181015184830182015201613a39565b90600682101561039c5752565b6080810192916000915b60048310613a9257505050565b600190825181526020809101920192019190613a85565b90600382101561039c5752565b90613b1b613b09613af7610180855185526020860151602086015260018060a01b036040870151166040860152606086015190806060870152850190613a2e565b60808501518482036080860152613a2e565b60a084015183820360a0850152613a2e565b9160c081015160c083015260e081015160e083015261010080820151908301526101208082015190830152613b596101408083015190840190613aa9565b6101608091015191015290565b346103b25760003660031901126103b25760206040516113888152f35b600435906001600160a01b03821682036103b257565b602435906001600160a01b03821682036103b257565b6024359060ff821682036103b257565b81601f820112156103b2578035906001600160401b038211611b2b5760405192613bf3601f8401601f191660200185613a03565b828452602083830101116103b257816000926020809301838601378301015290565b346103b25760003660031901126103b25760206040516101f48152f35b346103b25760003660031901126103b2576020604051610bb88152f35b90613d49613d35613ccd613cbb613ca9610220875187526020880151602088015260018060a01b0360408901511660408801526060880151613c9081613a24565b6060880152608088015190806080890152870190613a2e565b60a087015186820360a0880152613a2e565b60c086015185820360c0870152613a2e565b60e085015160e085015261010080860151908501526101208086015190850152610140808601519085015261016080860151908501526101808086015190850152613d216101a08087015190860190613a6e565b6101c0808601519085830390860152613a2e565b6101e0808501519084830390850152613a2e565b916102008091015191015290565b8115613d61570490565b634e487b7160e01b600052601260045260246000fd5b906004811015613d885760051b0190565b634e487b7160e01b600052603260045260246000fd5b6040805191613dac836139e8565b60803684378290601254938415613e3d575060005b600480821015613e3457613dd482613a24565b613ddd82613a24565b81600052601060205284600020549061271091828102928184041490151715613e1f575090613e0e86600193613d57565b613e188286613d77565b5201613dc1565b601190634e487b7160e01b6000525260246000fd5b50509250905090565b9350915050565b90600681101561039c5760ff80198354169116179055565b60405190613e6982613995565b8161016060009182815282602082015282604082015260608082015260606080820152606060a08201528260c08201528260e08201528261010082015282610120820152826101408201520152565b90604051613ec581613995565b8092805482526001810154602083015260018060a01b036002820154166040830152604051613efb816120b081600386016138ff565b6060830152604051613f14816120b081600486016138ff565b6080830152604051613f2d816120b081600586016138ff565b60a0830152600681015460c0830152600781015460e08301526008810154610100830152600981015461012083015260ff600a82015416600381101561039c5761016091600b916101408501520154910152565b15613f8857565b60405162461bcd60e51b815260206004820152601360248201527250726f706f73616c206e6f742061637469766560681b6044820152606490fd5b15613fca57565b60405162461bcd60e51b8152602060048201526012602482015271159bdd1a5b99c81b9bdd081cdd185c9d195960721b6044820152606490fd5b1561400b57565b60405162461bcd60e51b815260206004820152600c60248201526b159bdd1a5b99c8195b99195960a21b6044820152606490fd5b1561404657565b60405162461bcd60e51b8152602060048201526011602482015270496e76616c696420766f7465207479706560781b6044820152606490fd5b1561408657565b60405162461bcd60e51b815260206004820152600d60248201526c105b1c9958591e481d9bdd1959609a1b6044820152606490fd5b60001981146107375760010190565b156140d157565b60405162461bcd60e51b815260206004820152600f60248201526e2737903b37ba34b733903837bbb2b960891b6044820152606490fd5b9190820180921161073757565b90601f811161412357505050565b6000916000526020600020906020601f850160051c83019410614161575b601f0160051c01915b82811061415657505050565b81815560010161414a565b9092508290614141565b6012548015614271576000805b6004908183101561424c5761418c83613a24565b61419583613a24565b8260005260106020526040600020546127109081810291818304149015171561423757846141c291613d57565b6109c4929060008482111561421357506109c31981019081116141fe575b8303928311613e1f57506001916141f691614108565b910190614178565b601182634e487b7160e01b6000525260246000fd5b9084039084821161422457506141e0565b634e487b7160e01b815260118352602490fd5b601183634e487b7160e01b6000525260246000fd5b9250505060011c9061138882018092116107375761271080831161426d5750565b9150565b50600090565b1561427e57565b60405162461bcd60e51b815260206004820152601b60248201527f4d75737420686f6c6420746f6b656e7320746f2070726f706f736500000000006044820152606490fd5b6001600160401b038111611b2b5760051b60200190565b604051906142e7826139b1565b81610200600091828152826020820152826040820152606083818301528060808301528060a08301528060c08301528360e08301528361010083015283610120830152836101408301528361016083015283610180830152836101a0830152806101c08301526101e08201520152565b8051821015613d885760209160051b010190565b90604080519061437a826139b1565b835482526001840154602083015260028401546001600160a01b038116828401529193849260a01c60ff166143ae81613a24565b606084015281516143c6816120b081600386016138ff565b608084015281516143de816120b081600486016138ff565b60a084015281516143f6816120b081600586016138ff565b60c0840152600681015460e0840152600781015461010084015260088101546101208401526009810154610140840152600a810154610160840152600b81015461018084015260ff600c8201541690600682101561039c5761020092600f926101a0860152805161446e816120b081600d87016138ff565b6101c086015251614486816120b081600e86016138ff565b6101e08501520154910152565b600052600c60205260406000206144b36007600683015492015482614108565b80156144d95761271091828102928184041490151715610737576144d691613d57565b90565b5050600090565b156144e757565b60405162461bcd60e51b815260206004820152600f60248201526e506f6c6c206e6f742061637469766560881b6044820152606490fd5b60018060a01b0316600052600b60205260406000205442034281116107375762278d00101561454c57600090565b60055490565b3360009081527fad3228b676f7d3cd4284a5443f17f1962b36e491b30a40b2405849e597ba5fb5602052604081205460ff16156133ea5750565b3360009081527f3412d5605ac6cd444957cedb533e5dacad6378b4bc819ebe3652188a665066d560205260409020547fb09aa5aeb3702cfd50b6b62bc4532604938f21248a27a1d5ca736082b6819cc19060ff16156133ea5750565b80600052600060205260406000203360005260205260ff60406000205416156133ea5750565b60026001541461461f576002600155565b604051633ee5aeb560e01b8152600490fd5b91909161463d81613a24565b6000928184526020936010855261466860409283832061465e828254614108565b9055601254614108565b9485601255856146d5575b839495506146a17f0f5c781c3e6e5f46e3229c8b1e6e98f96d8a2fe20aa04baf40e0fba44a06d5f194613a24565b848252601081528280832054926146b787613a24565b868152601183522054906146ca86613a24565b8351928352820152a2565b6146de84613a24565b838252601081528282205461271090818102918183041490151715614747577f0f5c781c3e6e5f46e3229c8b1e6e98f96d8a2fe20aa04baf40e0fba44a06d5f194959661472a91613d57565b61473386613a24565b858352601182528383205585949350614673565b634e487b7160e01b83526011600452602483fd5b9060009180835282602052604083209160018060a01b03169182845260205260ff604084205416156000146147d457808352826020526040832082845260205260408320600160ff198254161790557f2f8788117e7eff1d82e926ec794901d17c78024a50270940304540a733656f0d339380a4600190565b505090565b9060009180835282602052604083209160018060a01b03169182845260205260ff6040842054166000146147d45780835282602052604083208284526020526040832060ff1981541690557ff6391f5c32d9c69d2a47ea670b442974b53935d1edc7fd64eb21e047a839171b339380a4600190565b61485781613a24565b806148ba576107d0905b61486a81613a24565b600052601160205261138860406000205410156148845790565b6101f48111156148b1576101f3198101908111610737575b6103e890818110156148ac575090565b905090565b506103e861489c565b6148c381613a24565b600181036148d457610bb890614861565b6148dd81613a24565b600281036148ee576109c490614861565b61138890614861565b91907f7fffffffffffffffffffffffffffffff5d576e7357a4501ddfe92f46681b20a0841161497b57926020929160ff608095604051948552168484015260408301526060820152600092839182805260015afa1561496f5780516001600160a01b0381161561496657918190565b50809160019190565b604051903d90823e3d90fd5b50505060009160039190565b61499081613a24565b80614999575050565b6149a281613a24565b600181036149bc5760405163f645eedf60e01b8152600490fd5b6149c581613a24565b600281036149e65760405163fce698f760e01b815260048101839052602490fd5b806149f2600392613a24565b146149fa5750565b602490604051906335e2f38360e21b82526004820152fdfeb1d569dc5621a0a51229b7ac0eff81f3e6df70a3f72fe608aa58f74bb69d7bb6a2646970667358221220bae722a64241e51573d4e62bd9154245150bf5471f55ab415919cf0a3976fd7a64736f6c634300081800332f8788117e7eff1d82e926ec794901d17c78024a50270940304540a733656f0d","opcodes":"PUSH1 0xA0 CALLVALUE PUSH3 0x199 JUMPI PUSH1 0x1 PUSH1 0x1 PUSH1 0x40 SHL SUB SWAP1 PUSH1 0x1F PUSH3 0x4E9F CODESIZE DUP2 SWAP1 SUB SWAP2 DUP3 ADD PUSH1 0x1F NOT AND DUP4 ADD SWAP3 SWAP2 SWAP1 DUP5 DUP5 GT DUP4 DUP6 LT OR PUSH3 0x183 JUMPI DUP2 PUSH1 0x20 SWAP3 DUP5 SWAP3 PUSH1 0x40 SWAP7 DUP8 MSTORE DUP4 CODECOPY DUP2 ADD SUB SLT PUSH3 0x199 JUMPI MLOAD PUSH1 0x1 PUSH1 0x1 PUSH1 0xA0 SHL SUB DUP2 AND SWAP1 DUP2 SWAP1 SUB PUSH3 0x199 JUMPI PUSH1 0x1 DUP1 SSTORE PUSH3 0x93A80 PUSH1 0x4 SSTORE PUSH1 0x32 PUSH1 0x5 SSTORE PUSH1 0x2 DUP1 SLOAD PUSH1 0x1 PUSH1 0x1 PUSH1 0xA0 SHL SUB NOT AND SWAP2 SWAP1 SWAP2 OR SWAP1 SSTORE PUSH3 0x8B CALLER PUSH3 0x1BA JUMP JUMPDEST POP PUSH3 0x97 CALLER PUSH3 0x23A JUMP JUMPDEST POP PUSH3 0xA3 CALLER PUSH3 0x2DC JUMP JUMPDEST POP PUSH3 0xAF CALLER PUSH3 0x379 JUMP JUMPDEST POP PUSH1 0x14 PUSH1 0x20 DUP3 MLOAD PUSH3 0xC1 DUP2 PUSH3 0x19E JUMP JUMPDEST DUP3 DUP2 MSTORE ADD PUSH32 0x52657669746148756220476F7665726E616E6365000000000000000000000000 DUP2 MSTORE KECCAK256 SWAP1 PUSH1 0x1 PUSH1 0x20 DUP3 MLOAD PUSH3 0xFB DUP2 PUSH3 0x19E JUMP JUMPDEST DUP3 DUP2 MSTORE ADD PUSH1 0x31 PUSH1 0xF8 SHL DUP2 MSTORE KECCAK256 SWAP1 DUP1 MLOAD SWAP2 PUSH1 0x20 DUP4 ADD SWAP4 PUSH32 0x8B73C3C69BB8FE3D512ECC4CF759CC79239F7B179B0FFACAA9A75D522B39400F DUP6 MSTORE DUP3 DUP5 ADD MSTORE PUSH1 0x60 DUP4 ADD MSTORE CHAINID PUSH1 0x80 DUP4 ADD MSTORE ADDRESS PUSH1 0xA0 DUP4 ADD MSTORE PUSH1 0xA0 DUP3 MSTORE PUSH1 0xC0 DUP3 ADD SWAP4 DUP3 DUP6 LT SWAP1 DUP6 GT OR PUSH3 0x183 JUMPI DUP4 SWAP1 MSTORE MLOAD SWAP1 KECCAK256 PUSH1 0x80 MSTORE PUSH2 0x4A68 SWAP1 DUP2 PUSH3 0x417 DUP3 CODECOPY PUSH1 0x80 MLOAD DUP2 DUP2 DUP2 PUSH2 0x29AA ADD MSTORE PUSH2 0x3174 ADD MSTORE RETURN JUMPDEST PUSH4 0x4E487B71 PUSH1 0xE0 SHL PUSH1 0x0 MSTORE PUSH1 0x41 PUSH1 0x4 MSTORE PUSH1 0x24 PUSH1 0x0 REVERT JUMPDEST PUSH1 0x0 DUP1 REVERT JUMPDEST PUSH1 0x40 DUP2 ADD SWAP1 DUP2 LT PUSH1 0x1 PUSH1 0x1 PUSH1 0x40 SHL SUB DUP3 GT OR PUSH3 0x183 JUMPI PUSH1 0x40 MSTORE JUMP JUMPDEST PUSH1 0x1 PUSH1 0x1 PUSH1 0xA0 SHL SUB AND PUSH1 0x0 DUP2 DUP2 MSTORE PUSH32 0xAD3228B676F7D3CD4284A5443F17F1962B36E491B30A40B2405849E597BA5FB5 PUSH1 0x20 MSTORE PUSH1 0x40 DUP2 KECCAK256 SLOAD SWAP1 SWAP2 SWAP1 PUSH1 0xFF AND PUSH3 0x236 JUMPI DUP2 DUP1 MSTORE DUP2 PUSH1 0x20 MSTORE PUSH1 0x40 DUP3 KECCAK256 DUP2 DUP4 MSTORE PUSH1 0x20 MSTORE PUSH1 0x40 DUP3 KECCAK256 PUSH1 0x1 PUSH1 0xFF NOT DUP3 SLOAD AND OR SWAP1 SSTORE CALLER SWAP2 PUSH1 0x0 DUP1 MLOAD PUSH1 0x20 PUSH3 0x4E7F DUP4 CODECOPY DUP2 MLOAD SWAP2 MSTORE DUP2 DUP1 LOG4 PUSH1 0x1 SWAP1 JUMP JUMPDEST POP SWAP1 JUMP JUMPDEST PUSH1 0x1 PUSH1 0x1 PUSH1 0xA0 SHL SUB AND PUSH1 0x0 DUP2 DUP2 MSTORE PUSH32 0x3412D5605AC6CD444957CEDB533E5DACAD6378B4BC819EBE3652188A665066D5 PUSH1 0x20 MSTORE PUSH1 0x40 DUP2 KECCAK256 SLOAD SWAP1 SWAP2 SWAP1 PUSH32 0xB09AA5AEB3702CFD50B6B62BC4532604938F21248A27A1D5CA736082B6819CC1 SWAP1 PUSH1 0xFF AND PUSH3 0x2D7 JUMPI DUP1 DUP4 MSTORE DUP3 PUSH1 0x20 MSTORE PUSH1 0x40 DUP4 KECCAK256 DUP3 DUP5 MSTORE PUSH1 0x20 MSTORE PUSH1 0x40 DUP4 KECCAK256 PUSH1 0x1 PUSH1 0xFF NOT DUP3 SLOAD AND OR SWAP1 SSTORE PUSH1 0x0 DUP1 MLOAD PUSH1 0x20 PUSH3 0x4E7F DUP4 CODECOPY DUP2 MLOAD SWAP2 MSTORE CALLER SWAP4 DUP1 LOG4 PUSH1 0x1 SWAP1 JUMP JUMPDEST POP POP SWAP1 JUMP JUMPDEST PUSH1 0x1 PUSH1 0x1 PUSH1 0xA0 SHL SUB AND PUSH1 0x0 DUP2 DUP2 MSTORE PUSH32 0xDAE2AA361DFD1CA020A396615627D436107C35EFF9FE7738A3512819782D7069 PUSH1 0x20 MSTORE PUSH1 0x40 DUP2 KECCAK256 SLOAD SWAP1 SWAP2 SWAP1 PUSH32 0xD8AA0F3194971A2A116679F7C2090F6939C8D4E01A2A8D7E41D55E5351469E63 SWAP1 PUSH1 0xFF AND PUSH3 0x2D7 JUMPI DUP1 DUP4 MSTORE DUP3 PUSH1 0x20 MSTORE PUSH1 0x40 DUP4 KECCAK256 DUP3 DUP5 MSTORE PUSH1 0x20 MSTORE PUSH1 0x40 DUP4 KECCAK256 PUSH1 0x1 PUSH1 0xFF NOT DUP3 SLOAD AND OR SWAP1 SSTORE PUSH1 0x0 DUP1 MLOAD PUSH1 0x20 PUSH3 0x4E7F DUP4 CODECOPY DUP2 MLOAD SWAP2 MSTORE CALLER SWAP4 DUP1 LOG4 PUSH1 0x1 SWAP1 JUMP JUMPDEST PUSH1 0x1 PUSH1 0x1 PUSH1 0xA0 SHL SUB AND PUSH1 0x0 DUP2 DUP2 MSTORE PUSH32 0xFAF93C3D007E112089DC8351E013E6685EF67703975D0224B26FC45941D4F1F5 PUSH1 0x20 MSTORE PUSH1 0x40 DUP2 KECCAK256 SLOAD SWAP1 SWAP2 SWAP1 PUSH32 0xE2B7FB3B832174769106DAEBCFD6D1970523240DDA11281102DB9363B83B0DC4 SWAP1 PUSH1 0xFF AND PUSH3 0x2D7 JUMPI DUP1 DUP4 MSTORE DUP3 PUSH1 0x20 MSTORE PUSH1 0x40 DUP4 KECCAK256 DUP3 DUP5 MSTORE PUSH1 0x20 MSTORE PUSH1 0x40 DUP4 KECCAK256 PUSH1 0x1 PUSH1 0xFF NOT DUP3 SLOAD AND OR SWAP1 SSTORE PUSH1 0x0 DUP1 MLOAD PUSH1 0x20 PUSH3 0x4E7F DUP4 CODECOPY DUP2 MLOAD SWAP2 MSTORE CALLER SWAP4 DUP1 LOG4 PUSH1 0x1 SWAP1 JUMP INVALID PUSH1 0x80 PUSH1 0x40 MSTORE PUSH1 0x4 CALLDATASIZE LT ISZERO PUSH2 0x12 JUMPI PUSH1 0x0 DUP1 REVERT JUMPDEST PUSH1 0x0 CALLDATALOAD PUSH1 0xE0 SHR DUP1 PUSH4 0x13CF08B EQ PUSH2 0x3700 JUMPI DUP1 PUSH4 0x1FFC9A7 EQ PUSH2 0x36AA JUMPI DUP1 PUSH4 0x2A251A3 EQ PUSH2 0x368C JUMPI DUP1 PUSH4 0x7BD0265 EQ PUSH2 0x3651 JUMPI DUP1 PUSH4 0xAF4DA41 EQ PUSH2 0x3629 JUMPI DUP1 PUSH4 0xD61B519 EQ PUSH2 0x3519 JUMPI DUP1 PUSH4 0xE6C151C EQ PUSH2 0x34DB JUMPI DUP1 PUSH4 0x19546F1A EQ PUSH2 0x349D JUMPI DUP1 PUSH4 0x1A8CBCAA EQ PUSH2 0x3454 JUMPI DUP1 PUSH4 0x248A9CA3 EQ PUSH2 0x3425 JUMPI DUP1 PUSH4 0x248BD471 EQ PUSH2 0x3408 JUMPI DUP1 PUSH4 0x252F57D7 EQ PUSH2 0x1520 JUMPI DUP1 PUSH4 0x2D0335AB EQ PUSH2 0xDB8 JUMPI DUP1 PUSH4 0x2DCF0D73 EQ PUSH2 0x2F7F JUMPI DUP1 PUSH4 0x2F2FF15D EQ PUSH2 0x2F40 JUMPI DUP1 PUSH4 0x33B5E38E EQ PUSH2 0x2E4E JUMPI DUP1 PUSH4 0x364478E2 EQ PUSH2 0x29CD JUMPI DUP1 PUSH4 0x3644E515 EQ PUSH2 0x2992 JUMPI DUP1 PUSH4 0x36568ABE EQ PUSH2 0x294B JUMPI DUP1 PUSH4 0x3D8803E2 EQ PUSH2 0x3E2 JUMPI DUP1 PUSH4 0x42A7C614 EQ PUSH2 0xDB3 JUMPI DUP1 PUSH4 0x43AE2695 EQ PUSH2 0x2922 JUMPI DUP1 PUSH4 0x49672B70 EQ PUSH2 0x2907 JUMPI DUP1 PUSH4 0x4CE83CDB EQ PUSH2 0x1ED6 JUMPI DUP1 PUSH4 0x5100084C EQ PUSH2 0x156F JUMPI DUP1 PUSH4 0x514C3D56 EQ PUSH2 0x1551 JUMPI DUP1 PUSH4 0x536F9F42 EQ PUSH2 0x1525 JUMPI DUP1 PUSH4 0x5394C879 EQ PUSH2 0x1520 JUMPI DUP1 PUSH4 0x5652077C EQ PUSH2 0x13FB JUMPI DUP1 PUSH4 0x56781388 EQ PUSH2 0x11CF JUMPI DUP1 PUSH4 0x5C7B264D EQ PUSH2 0x1195 JUMPI DUP1 PUSH4 0x6213E5EA EQ PUSH2 0xFFD JUMPI DUP1 PUSH4 0x637E54AC EQ PUSH2 0xFA5 JUMPI DUP1 PUSH4 0x63F0C7FF EQ PUSH2 0xDF2 JUMPI DUP1 PUSH4 0x7ECEBE00 EQ PUSH2 0xDB8 JUMPI DUP1 PUSH4 0x808C4479 EQ PUSH2 0xDB3 JUMPI DUP1 PUSH4 0x86522973 EQ PUSH2 0xD78 JUMPI DUP1 PUSH4 0x872D1544 EQ PUSH2 0xCEC JUMPI DUP1 PUSH4 0x8F61F4F5 EQ PUSH2 0xCB1 JUMPI DUP1 PUSH4 0x91D14854 EQ PUSH2 0xC64 JUMPI DUP1 PUSH4 0x9207891D EQ PUSH2 0xC46 JUMPI DUP1 PUSH4 0x926D7D7F EQ PUSH2 0xC0B JUMPI DUP1 PUSH4 0x95094544 EQ PUSH2 0xB58 JUMPI DUP1 PUSH4 0x9C4E99CA EQ PUSH2 0xB3A JUMPI DUP1 PUSH4 0x9D79A9EB EQ PUSH2 0xA01 JUMPI DUP1 PUSH4 0xA217FDDF EQ PUSH2 0x9E5 JUMPI DUP1 PUSH4 0xAC2F0074 EQ PUSH2 0x8B4 JUMPI DUP1 PUSH4 0xB277D02A EQ PUSH2 0x897 JUMPI DUP1 PUSH4 0xBC3F931F EQ PUSH2 0x7F9 JUMPI DUP1 PUSH4 0xBCD77A24 EQ PUSH2 0x7D1 JUMPI DUP1 PUSH4 0xC3B028E2 EQ PUSH2 0x7A5 JUMPI DUP1 PUSH4 0xC7F758A8 EQ PUSH2 0x758 JUMPI DUP1 PUSH4 0xCAE35BA0 EQ PUSH2 0x6CD JUMPI DUP1 PUSH4 0xD23254B4 EQ PUSH2 0x66A JUMPI DUP1 PUSH4 0xD547741F EQ PUSH2 0x629 JUMPI DUP1 PUSH4 0xDA35C664 EQ PUSH2 0x60B JUMPI DUP1 PUSH4 0xDD9DEB1B EQ PUSH2 0x5ED JUMPI DUP1 PUSH4 0xDE1CF4AD EQ PUSH2 0x5B3 JUMPI DUP1 PUSH4 0xE0A8F6F5 EQ PUSH2 0x489 JUMPI DUP1 PUSH4 0xEA0217CF EQ PUSH2 0x3E7 JUMPI DUP1 PUSH4 0xEAC3A6BD EQ PUSH2 0x3E2 JUMPI DUP1 PUSH4 0xECC52C04 EQ PUSH2 0x3B7 JUMPI PUSH4 0xF43B8778 EQ PUSH2 0x2D1 JUMPI PUSH1 0x0 DUP1 REVERT JUMPDEST CALLVALUE PUSH2 0x3B2 JUMPI PUSH1 0x20 CALLDATASIZE PUSH1 0x3 NOT ADD SLT PUSH2 0x3B2 JUMPI PUSH1 0x4 CALLDATALOAD DUP1 PUSH1 0x0 MSTORE PUSH1 0xC PUSH1 0x20 MSTORE PUSH1 0x40 PUSH1 0x0 KECCAK256 PUSH1 0xA DUP2 ADD SWAP1 DUP2 SLOAD SWAP1 PUSH1 0xFF DUP3 AND PUSH1 0x3 DUP2 LT ISZERO PUSH2 0x39C JUMPI PUSH2 0x312 SWAP1 ISZERO PUSH2 0x44E0 JUMP JUMPDEST PUSH1 0x9 DUP2 ADD SLOAD TIMESTAMP LT PUSH2 0x362 JUMPI PUSH32 0x76254391687772340030BC79660C2D1E15DAD744F94894A52E52863B5FCA1115 SWAP3 PUSH1 0x1 PUSH1 0x40 SWAP4 PUSH1 0xFF NOT AND OR SWAP1 SSTORE PUSH1 0x7 PUSH1 0x6 DUP3 ADD SLOAD SWAP2 ADD SLOAD DUP3 MLOAD SWAP2 DUP3 MSTORE PUSH1 0x20 DUP3 ADD MSTORE LOG2 STOP JUMPDEST PUSH1 0x40 MLOAD PUSH3 0x461BCD PUSH1 0xE5 SHL DUP2 MSTORE PUSH1 0x20 PUSH1 0x4 DUP3 ADD MSTORE PUSH1 0x12 PUSH1 0x24 DUP3 ADD MSTORE PUSH18 0x141BDB1B081B9BDD08195B991959081E595D PUSH1 0x72 SHL PUSH1 0x44 DUP3 ADD MSTORE PUSH1 0x64 SWAP1 REVERT JUMPDEST PUSH4 0x4E487B71 PUSH1 0xE0 SHL PUSH1 0x0 MSTORE PUSH1 0x21 PUSH1 0x4 MSTORE PUSH1 0x24 PUSH1 0x0 REVERT JUMPDEST PUSH1 0x0 DUP1 REVERT JUMPDEST CALLVALUE PUSH2 0x3B2 JUMPI PUSH1 0x20 CALLDATASIZE PUSH1 0x3 NOT ADD SLT PUSH2 0x3B2 JUMPI PUSH1 0x20 PUSH2 0x3DA PUSH2 0x3D5 PUSH2 0x3B83 JUMP JUMPDEST PUSH2 0x451E JUMP JUMPDEST PUSH1 0x40 MLOAD SWAP1 DUP2 MSTORE RETURN JUMPDEST PUSH2 0x3C15 JUMP JUMPDEST CALLVALUE PUSH2 0x3B2 JUMPI PUSH1 0x20 CALLDATASIZE PUSH1 0x3 NOT ADD SLT PUSH2 0x3B2 JUMPI PUSH1 0x4 CALLDATALOAD PUSH2 0x403 PUSH2 0x4552 JUMP JUMPDEST PUSH3 0x15180 DUP2 LT ISZERO DUP1 PUSH2 0x47C JUMPI JUMPDEST ISZERO PUSH2 0x446 JUMPI PUSH1 0x20 DUP2 PUSH32 0x651C77F42613A075437AA794C44471E3ABC3A661956A67AAEE165BB7396974AA SWAP3 PUSH1 0x4 SSTORE PUSH1 0x40 MLOAD SWAP1 DUP2 MSTORE LOG1 STOP JUMPDEST PUSH1 0x40 MLOAD PUSH3 0x461BCD PUSH1 0xE5 SHL DUP2 MSTORE PUSH1 0x20 PUSH1 0x4 DUP3 ADD MSTORE PUSH1 0xE PUSH1 0x24 DUP3 ADD MSTORE PUSH14 0x125B9D985B1A59081C195C9A5BD9 PUSH1 0x92 SHL PUSH1 0x44 DUP3 ADD MSTORE PUSH1 0x64 SWAP1 REVERT JUMPDEST POP PUSH3 0x278D00 DUP2 GT ISZERO PUSH2 0x410 JUMP JUMPDEST CALLVALUE PUSH2 0x3B2 JUMPI PUSH1 0x20 DUP1 PUSH1 0x3 NOT CALLDATASIZE ADD SLT PUSH2 0x3B2 JUMPI PUSH1 0x4 CALLDATALOAD SWAP1 DUP2 PUSH1 0x0 MSTORE PUSH1 0x6 DUP2 MSTORE PUSH1 0x40 PUSH1 0x0 KECCAK256 PUSH1 0x1 DUP1 PUSH1 0xA0 SHL SUB PUSH1 0x2 DUP3 ADD SLOAD AND CALLER EQ DUP1 ISZERO PUSH2 0x591 JUMPI JUMPDEST ISZERO PUSH2 0x55B JUMPI PUSH1 0xC ADD SWAP1 DUP2 SLOAD SWAP1 PUSH1 0xFF DUP3 AND PUSH1 0x6 DUP2 LT ISZERO PUSH2 0x39C JUMPI PUSH1 0x1 DUP2 EQ SWAP1 DUP2 ISZERO PUSH2 0x552 JUMPI JUMPDEST POP ISZERO PUSH2 0x51E JUMPI POP PUSH1 0xFF NOT AND PUSH1 0x5 OR SWAP1 SSTORE PUSH32 0x416E669C63D9A3A5E36EE7CC7E2104B8DB28CCD286AA18966E98FA230C73B08C PUSH1 0x0 DUP1 LOG2 STOP JUMPDEST PUSH1 0x64 SWAP1 PUSH1 0x40 MLOAD SWAP1 PUSH3 0x461BCD PUSH1 0xE5 SHL DUP3 MSTORE PUSH1 0x4 DUP3 ADD MSTORE PUSH1 0xD PUSH1 0x24 DUP3 ADD MSTORE PUSH13 0x10D85B9B9BDD0818D85B98D95B PUSH1 0x9A SHL PUSH1 0x44 DUP3 ADD MSTORE REVERT JUMPDEST SWAP1 POP ISZERO DUP6 PUSH2 0x4E7 JUMP JUMPDEST PUSH1 0x40 MLOAD PUSH3 0x461BCD PUSH1 0xE5 SHL DUP2 MSTORE PUSH1 0x4 DUP2 ADD DUP4 SWAP1 MSTORE PUSH1 0xE PUSH1 0x24 DUP3 ADD MSTORE PUSH14 0x139BDD08185D5D1A1BDC9A5E9959 PUSH1 0x92 SHL PUSH1 0x44 DUP3 ADD MSTORE PUSH1 0x64 SWAP1 REVERT JUMPDEST POP PUSH1 0x0 DUP1 MSTORE PUSH1 0x0 DUP3 MSTORE PUSH1 0x40 PUSH1 0x0 KECCAK256 CALLER PUSH1 0x0 MSTORE DUP3 MSTORE PUSH1 0xFF PUSH1 0x40 PUSH1 0x0 KECCAK256 SLOAD AND PUSH2 0x4C2 JUMP JUMPDEST CALLVALUE PUSH2 0x3B2 JUMPI PUSH1 0x20 CALLDATASIZE PUSH1 0x3 NOT ADD SLT PUSH2 0x3B2 JUMPI PUSH1 0x1 PUSH1 0x1 PUSH1 0xA0 SHL SUB PUSH2 0x5D4 PUSH2 0x3B83 JUMP JUMPDEST AND PUSH1 0x0 MSTORE PUSH1 0xB PUSH1 0x20 MSTORE PUSH1 0x20 PUSH1 0x40 PUSH1 0x0 KECCAK256 SLOAD PUSH1 0x40 MLOAD SWAP1 DUP2 MSTORE RETURN JUMPDEST CALLVALUE PUSH2 0x3B2 JUMPI PUSH1 0x0 CALLDATASIZE PUSH1 0x3 NOT ADD SLT PUSH2 0x3B2 JUMPI PUSH1 0x20 PUSH1 0x5 SLOAD PUSH1 0x40 MLOAD SWAP1 DUP2 MSTORE RETURN JUMPDEST CALLVALUE PUSH2 0x3B2 JUMPI PUSH1 0x0 CALLDATASIZE PUSH1 0x3 NOT ADD SLT PUSH2 0x3B2 JUMPI PUSH1 0x20 PUSH1 0x7 SLOAD PUSH1 0x40 MLOAD SWAP1 DUP2 MSTORE RETURN JUMPDEST CALLVALUE PUSH2 0x3B2 JUMPI PUSH1 0x40 CALLDATASIZE PUSH1 0x3 NOT ADD SLT PUSH2 0x3B2 JUMPI PUSH2 0x668 PUSH1 0x4 CALLDATALOAD PUSH2 0x648 PUSH2 0x3B99 JUMP JUMPDEST SWAP1 DUP1 PUSH1 0x0 MSTORE PUSH1 0x0 PUSH1 0x20 MSTORE PUSH2 0x663 PUSH1 0x1 PUSH1 0x40 PUSH1 0x0 KECCAK256 ADD SLOAD PUSH2 0x45E8 JUMP JUMPDEST PUSH2 0x47D9 JUMP JUMPDEST STOP JUMPDEST CALLVALUE PUSH2 0x3B2 JUMPI PUSH1 0x40 CALLDATASIZE PUSH1 0x3 NOT ADD SLT PUSH2 0x3B2 JUMPI PUSH2 0x683 PUSH2 0x3B99 JUMP JUMPDEST PUSH1 0x4 CALLDATALOAD PUSH1 0x0 MSTORE PUSH1 0x8 PUSH1 0x20 MSTORE PUSH1 0x40 PUSH1 0x0 KECCAK256 SWAP1 PUSH1 0x1 DUP1 PUSH1 0xA0 SHL SUB AND PUSH1 0x0 MSTORE PUSH1 0x20 MSTORE PUSH1 0x60 PUSH1 0x40 PUSH1 0x0 KECCAK256 PUSH1 0x1 DUP2 SLOAD SWAP2 ADD SLOAD PUSH1 0xFF PUSH1 0x40 MLOAD SWAP3 DUP2 DUP2 AND ISZERO ISZERO DUP5 MSTORE PUSH1 0x8 SHR AND PUSH1 0x20 DUP4 ADD MSTORE PUSH1 0x40 DUP3 ADD MSTORE RETURN JUMPDEST CALLVALUE PUSH2 0x3B2 JUMPI PUSH1 0x20 CALLDATASIZE PUSH1 0x3 NOT ADD SLT PUSH2 0x3B2 JUMPI PUSH1 0x4 CALLDATALOAD PUSH1 0x4 DUP2 LT ISZERO PUSH2 0x3B2 JUMPI PUSH2 0x6F3 DUP2 PUSH2 0x3A24 JUMP JUMPDEST PUSH1 0x0 SWAP1 DUP2 MSTORE PUSH1 0x10 PUSH1 0x20 MSTORE PUSH1 0x40 SWAP1 KECCAK256 SLOAD PUSH1 0x12 SLOAD SWAP1 DUP2 ISZERO PUSH2 0x74D JUMPI PUSH2 0x2710 DUP1 DUP3 MUL SWAP1 DUP3 DUP3 DIV EQ DUP3 ISZERO OR ISZERO PUSH2 0x737 JUMPI PUSH1 0x40 SWAP3 PUSH2 0x72B SWAP2 PUSH2 0x3D57 JUMP JUMPDEST DUP3 MLOAD SWAP2 DUP3 MSTORE PUSH1 0x20 DUP3 ADD MSTORE RETURN JUMPDEST PUSH4 0x4E487B71 PUSH1 0xE0 SHL PUSH1 0x0 MSTORE PUSH1 0x11 PUSH1 0x4 MSTORE PUSH1 0x24 PUSH1 0x0 REVERT JUMPDEST PUSH1 0x40 SWAP2 POP PUSH1 0x0 PUSH2 0x72B JUMP JUMPDEST CALLVALUE PUSH2 0x3B2 JUMPI PUSH1 0x20 CALLDATASIZE PUSH1 0x3 NOT ADD SLT PUSH2 0x3B2 JUMPI PUSH2 0x771 PUSH2 0x42DA JUMP JUMPDEST POP PUSH1 0x4 CALLDATALOAD PUSH1 0x0 MSTORE PUSH1 0x6 PUSH1 0x20 MSTORE PUSH2 0x7A1 PUSH2 0x78D PUSH1 0x40 PUSH1 0x0 KECCAK256 PUSH2 0x436B JUMP JUMPDEST PUSH1 0x40 MLOAD SWAP2 DUP3 SWAP2 PUSH1 0x20 DUP4 MSTORE PUSH1 0x20 DUP4 ADD SWAP1 PUSH2 0x3C4F JUMP JUMPDEST SUB SWAP1 RETURN JUMPDEST CALLVALUE PUSH2 0x3B2 JUMPI PUSH1 0x20 CALLDATASIZE PUSH1 0x3 NOT ADD SLT PUSH2 0x3B2 JUMPI PUSH1 0x4 CALLDATALOAD PUSH1 0x0 MSTORE PUSH1 0xF PUSH1 0x20 MSTORE PUSH1 0x20 PUSH1 0x40 PUSH1 0x0 KECCAK256 SLOAD PUSH1 0x40 MLOAD SWAP1 DUP2 MSTORE RETURN JUMPDEST CALLVALUE PUSH2 0x3B2 JUMPI PUSH1 0x20 CALLDATASIZE PUSH1 0x3 NOT ADD SLT PUSH2 0x3B2 JUMPI PUSH1 0x4 CALLDATALOAD PUSH1 0x4 DUP2 LT ISZERO PUSH2 0x3B2 JUMPI PUSH2 0x3DA PUSH1 0x20 SWAP2 PUSH2 0x484E JUMP JUMPDEST CALLVALUE PUSH2 0x3B2 JUMPI PUSH1 0x40 CALLDATASIZE PUSH1 0x3 NOT ADD SLT PUSH2 0x3B2 JUMPI PUSH2 0x812 PUSH2 0x3B99 JUMP JUMPDEST PUSH1 0x0 PUSH1 0x40 DUP1 MLOAD PUSH2 0x821 DUP2 PUSH2 0x39CD JUMP JUMPDEST DUP3 DUP2 MSTORE DUP3 PUSH1 0x20 DUP3 ADD MSTORE ADD MSTORE PUSH1 0x4 CALLDATALOAD PUSH1 0x0 MSTORE PUSH1 0x8 PUSH1 0x20 MSTORE PUSH1 0x40 PUSH1 0x0 KECCAK256 SWAP1 PUSH1 0x1 DUP1 PUSH1 0xA0 SHL SUB AND PUSH1 0x0 MSTORE PUSH1 0x20 MSTORE PUSH1 0x60 PUSH1 0x40 PUSH1 0x0 KECCAK256 PUSH1 0x40 MLOAD PUSH2 0x85E DUP2 PUSH2 0x39CD JUMP JUMPDEST PUSH1 0xFF DUP3 SLOAD PUSH1 0x40 PUSH1 0x1 DUP4 DUP4 AND ISZERO ISZERO SWAP6 DUP7 DUP7 MSTORE DUP5 PUSH1 0x20 DUP8 ADD SWAP5 PUSH1 0x8 SHR AND DUP5 MSTORE ADD SLOAD SWAP4 ADD SWAP3 DUP4 MSTORE PUSH1 0x40 MLOAD SWAP4 DUP5 MSTORE MLOAD AND PUSH1 0x20 DUP4 ADD MSTORE MLOAD PUSH1 0x40 DUP3 ADD MSTORE RETURN JUMPDEST CALLVALUE PUSH2 0x3B2 JUMPI PUSH1 0x0 CALLDATASIZE PUSH1 0x3 NOT ADD SLT PUSH2 0x3B2 JUMPI PUSH1 0x20 PUSH1 0x40 MLOAD PUSH2 0x7D0 DUP2 MSTORE RETURN JUMPDEST CALLVALUE PUSH2 0x3B2 JUMPI PUSH1 0x20 CALLDATASIZE PUSH1 0x3 NOT ADD SLT PUSH2 0x3B2 JUMPI PUSH1 0x4 CALLDATALOAD PUSH1 0x0 MSTORE PUSH1 0xC PUSH1 0x20 MSTORE PUSH1 0x40 PUSH1 0x0 KECCAK256 DUP1 SLOAD SWAP1 PUSH1 0x1 DUP2 ADD SLOAD SWAP1 PUSH1 0x1 PUSH1 0xA0 SHL PUSH1 0x1 SWAP1 SUB PUSH1 0x2 DUP3 ADD SLOAD AND SWAP3 PUSH1 0x40 MLOAD SWAP2 DUP3 DUP1 PUSH1 0x3 DUP4 ADD SWAP1 PUSH2 0x902 SWAP2 PUSH2 0x38FF JUMP JUMPDEST SUB PUSH2 0x90D SWAP1 DUP5 PUSH2 0x3A03 JUMP JUMPDEST PUSH1 0x40 MLOAD SWAP3 DUP4 PUSH2 0x91F DUP2 PUSH1 0x4 DUP6 ADD PUSH2 0x38FF JUMP JUMPDEST SUB PUSH2 0x92A SWAP1 DUP6 PUSH2 0x3A03 JUMP JUMPDEST PUSH1 0x40 MLOAD SWAP4 DUP5 PUSH2 0x93C DUP2 PUSH1 0x5 DUP7 ADD PUSH2 0x38FF JUMP JUMPDEST SUB PUSH2 0x947 SWAP1 DUP7 PUSH2 0x3A03 JUMP JUMPDEST PUSH1 0x6 DUP4 ADD SLOAD SWAP5 PUSH1 0x7 DUP5 ADD SLOAD SWAP1 PUSH1 0x8 DUP6 ADD SLOAD SWAP3 PUSH1 0x9 DUP7 ADD SLOAD SWAP5 PUSH1 0xA DUP8 ADD SLOAD PUSH1 0xFF AND SWAP7 PUSH1 0xB ADD SLOAD SWAP8 PUSH1 0x40 MLOAD SWAP12 DUP13 SWAP12 PUSH2 0x180 SWAP3 DUP14 MSTORE PUSH1 0x20 DUP14 ADD MSTORE PUSH1 0x40 DUP13 ADD MSTORE DUP1 PUSH1 0x60 DUP13 ADD MSTORE DUP11 ADD PUSH2 0x994 SWAP2 PUSH2 0x3A2E JUMP JUMPDEST DUP10 DUP2 SUB PUSH1 0x80 DUP12 ADD MSTORE PUSH2 0x9A5 SWAP2 PUSH2 0x3A2E JUMP JUMPDEST DUP9 DUP2 SUB PUSH1 0xA0 DUP11 ADD MSTORE PUSH2 0x9B6 SWAP2 PUSH2 0x3A2E JUMP JUMPDEST SWAP6 PUSH1 0xC0 DUP9 ADD MSTORE PUSH1 0xE0 DUP8 ADD MSTORE PUSH2 0x100 DUP7 ADD MSTORE PUSH2 0x120 DUP6 ADD MSTORE PUSH2 0x140 DUP5 ADD PUSH2 0x9DB SWAP2 PUSH2 0x3AA9 JUMP JUMPDEST PUSH2 0x160 DUP4 ADD MSTORE SUB SWAP1 RETURN JUMPDEST CALLVALUE PUSH2 0x3B2 JUMPI PUSH1 0x0 CALLDATASIZE PUSH1 0x3 NOT ADD SLT PUSH2 0x3B2 JUMPI PUSH1 0x20 PUSH1 0x40 MLOAD PUSH1 0x0 DUP2 MSTORE RETURN JUMPDEST CALLVALUE PUSH2 0x3B2 JUMPI PUSH1 0x40 CALLDATASIZE PUSH1 0x3 NOT ADD SLT PUSH2 0x3B2 JUMPI PUSH1 0x4 CALLDATALOAD PUSH1 0x24 CALLDATALOAD SWAP1 DUP2 ISZERO ISZERO SWAP2 DUP3 DUP2 SUB PUSH2 0x3B2 JUMPI DUP2 PUSH1 0x0 MSTORE PUSH1 0x20 SWAP1 PUSH1 0xC DUP3 MSTORE PUSH1 0x40 PUSH1 0x0 KECCAK256 SWAP1 PUSH1 0xFF PUSH1 0xA DUP4 ADD SLOAD AND PUSH1 0x3 DUP2 LT ISZERO PUSH2 0x39C JUMPI PUSH2 0xA50 SWAP1 ISZERO PUSH2 0x44E0 JUMP JUMPDEST PUSH1 0x9 DUP3 ADD SLOAD TIMESTAMP LT ISZERO PUSH2 0xB08 JUMPI SWAP1 PUSH32 0xDF13CE4FCC43C19A08DF4FFA6D471AE7BB1D6FFC3BEB528AD821C873F798CE2F SWAP3 SWAP2 DUP5 PUSH1 0x0 MSTORE PUSH1 0xE DUP4 MSTORE PUSH1 0x40 PUSH1 0x0 KECCAK256 CALLER PUSH1 0x0 MSTORE DUP4 MSTORE PUSH1 0x40 PUSH1 0x0 KECCAK256 PUSH1 0x1 DUP2 SLOAD PUSH2 0xAA9 PUSH1 0xFF DUP3 AND ISZERO PUSH2 0x407F JUMP JUMPDEST PUSH2 0xFF00 DUP10 PUSH1 0x8 SHL AND SWAP1 PUSH2 0xFFFF NOT AND OR OR SWAP1 SSTORE DUP5 PUSH1 0x0 MSTORE PUSH1 0xF DUP4 MSTORE PUSH1 0x40 PUSH1 0x0 KECCAK256 PUSH2 0xAD2 DUP2 SLOAD PUSH2 0x40BB JUMP JUMPDEST SWAP1 SSTORE ISZERO PUSH2 0xAF4 JUMPI PUSH1 0x6 ADD PUSH2 0xAE6 DUP2 SLOAD PUSH2 0x40BB JUMP JUMPDEST SWAP1 SSTORE JUMPDEST PUSH1 0x40 MLOAD SWAP4 DUP5 MSTORE CALLER SWAP4 LOG3 STOP JUMPDEST PUSH1 0x7 ADD PUSH2 0xB01 DUP2 SLOAD PUSH2 0x40BB JUMP JUMPDEST SWAP1 SSTORE PUSH2 0xAE9 JUMP JUMPDEST PUSH1 0x40 MLOAD PUSH3 0x461BCD PUSH1 0xE5 SHL DUP2 MSTORE PUSH1 0x4 DUP2 ADD DUP5 SWAP1 MSTORE PUSH1 0xA PUSH1 0x24 DUP3 ADD MSTORE PUSH10 0x141BDB1B08195B991959 PUSH1 0xB2 SHL PUSH1 0x44 DUP3 ADD MSTORE PUSH1 0x64 SWAP1 REVERT JUMPDEST CALLVALUE PUSH2 0x3B2 JUMPI PUSH1 0x20 CALLDATASIZE PUSH1 0x3 NOT ADD SLT PUSH2 0x3B2 JUMPI PUSH1 0x20 PUSH2 0x3DA PUSH1 0x4 CALLDATALOAD PUSH2 0x4493 JUMP JUMPDEST CALLVALUE PUSH2 0x3B2 JUMPI PUSH1 0x20 CALLDATASIZE PUSH1 0x3 NOT ADD SLT PUSH2 0x3B2 JUMPI PUSH1 0x4 CALLDATALOAD PUSH1 0x7 SLOAD DUP2 LT ISZERO PUSH2 0xBC6 JUMPI PUSH1 0x0 MSTORE PUSH1 0x6 PUSH1 0x20 MSTORE PUSH2 0xBBC PUSH1 0xE PUSH1 0x40 PUSH1 0x0 KECCAK256 PUSH2 0xBA8 PUSH1 0xF DUP3 ADD SLOAD SWAP2 PUSH2 0xBA1 PUSH1 0x40 MLOAD DUP1 SWAP6 DUP2 SWAP4 ADD PUSH2 0x38FF JUMP JUMPDEST SUB DUP4 PUSH2 0x3A03 JUMP JUMPDEST PUSH1 0x40 MLOAD SWAP3 DUP4 SWAP3 PUSH1 0x40 DUP5 MSTORE PUSH1 0x40 DUP5 ADD SWAP1 PUSH2 0x3A2E JUMP JUMPDEST SWAP1 PUSH1 0x20 DUP4 ADD MSTORE SUB SWAP1 RETURN JUMPDEST PUSH1 0x40 MLOAD PUSH3 0x461BCD PUSH1 0xE5 SHL DUP2 MSTORE PUSH1 0x20 PUSH1 0x4 DUP3 ADD MSTORE PUSH1 0x17 PUSH1 0x24 DUP3 ADD MSTORE PUSH32 0x50726F706F73616C20646F6573206E6F74206578697374000000000000000000 PUSH1 0x44 DUP3 ADD MSTORE PUSH1 0x64 SWAP1 REVERT JUMPDEST CALLVALUE PUSH2 0x3B2 JUMPI PUSH1 0x0 CALLDATASIZE PUSH1 0x3 NOT ADD SLT PUSH2 0x3B2 JUMPI PUSH1 0x20 PUSH1 0x40 MLOAD PUSH32 0xE2B7FB3B832174769106DAEBCFD6D1970523240DDA11281102DB9363B83B0DC4 DUP2 MSTORE RETURN JUMPDEST CALLVALUE PUSH2 0x3B2 JUMPI PUSH1 0x0 CALLDATASIZE PUSH1 0x3 NOT ADD SLT PUSH2 0x3B2 JUMPI PUSH1 0x20 PUSH1 0xD SLOAD PUSH1 0x40 MLOAD SWAP1 DUP2 MSTORE RETURN JUMPDEST CALLVALUE PUSH2 0x3B2 JUMPI PUSH1 0x40 CALLDATASIZE PUSH1 0x3 NOT ADD SLT PUSH2 0x3B2 JUMPI PUSH2 0xC7D PUSH2 0x3B99 JUMP JUMPDEST PUSH1 0x4 CALLDATALOAD PUSH1 0x0 MSTORE PUSH1 0x0 PUSH1 0x20 MSTORE PUSH1 0x40 PUSH1 0x0 KECCAK256 SWAP1 PUSH1 0x1 DUP1 PUSH1 0xA0 SHL SUB AND PUSH1 0x0 MSTORE PUSH1 0x20 MSTORE PUSH1 0x20 PUSH1 0xFF PUSH1 0x40 PUSH1 0x0 KECCAK256 SLOAD AND PUSH1 0x40 MLOAD SWAP1 ISZERO ISZERO DUP2 MSTORE RETURN JUMPDEST CALLVALUE PUSH2 0x3B2 JUMPI PUSH1 0x0 CALLDATASIZE PUSH1 0x3 NOT ADD SLT PUSH2 0x3B2 JUMPI PUSH1 0x20 PUSH1 0x40 MLOAD PUSH32 0xB09AA5AEB3702CFD50B6B62BC4532604938F21248A27A1D5CA736082B6819CC1 DUP2 MSTORE RETURN JUMPDEST CALLVALUE PUSH2 0x3B2 JUMPI PUSH1 0x20 CALLDATASIZE PUSH1 0x3 NOT ADD SLT PUSH2 0x3B2 JUMPI PUSH1 0x4 CALLDATALOAD PUSH2 0xD08 PUSH2 0x4552 JUMP JUMPDEST PUSH2 0x1F4 DUP2 GT PUSH2 0xD42 JUMPI PUSH1 0x20 DUP2 PUSH32 0x4ADE7322D9A0C41DC254574F72D3D442F06ADDCC77917DCB9CB1AC4441D1B20F SWAP3 PUSH1 0x5 SSTORE PUSH1 0x40 MLOAD SWAP1 DUP2 MSTORE LOG1 STOP JUMPDEST PUSH1 0x40 MLOAD PUSH3 0x461BCD PUSH1 0xE5 SHL DUP2 MSTORE PUSH1 0x20 PUSH1 0x4 DUP3 ADD MSTORE PUSH1 0xE PUSH1 0x24 DUP3 ADD MSTORE PUSH14 0x84DEDCEAE640E8DEDE40D0D2CED PUSH1 0x93 SHL PUSH1 0x44 DUP3 ADD MSTORE PUSH1 0x64 SWAP1 REVERT JUMPDEST CALLVALUE PUSH2 0x3B2 JUMPI PUSH1 0x0 CALLDATASIZE PUSH1 0x3 NOT ADD SLT PUSH2 0x3B2 JUMPI PUSH1 0x20 PUSH1 0x40 MLOAD PUSH32 0xA122AEDC7C2408A97BCFE5D8FF1F6A6D7BF779A8B6DD3D72FF503E8FCF9D2EB9 DUP2 MSTORE RETURN JUMPDEST PUSH2 0x3C32 JUMP JUMPDEST CALLVALUE PUSH2 0x3B2 JUMPI PUSH1 0x20 CALLDATASIZE PUSH1 0x3 NOT ADD SLT PUSH2 0x3B2 JUMPI PUSH1 0x1 PUSH1 0x1 PUSH1 0xA0 SHL SUB PUSH2 0xDD9 PUSH2 0x3B83 JUMP JUMPDEST AND PUSH1 0x0 MSTORE PUSH1 0x3 PUSH1 0x20 MSTORE PUSH1 0x20 PUSH1 0x40 PUSH1 0x0 KECCAK256 SLOAD PUSH1 0x40 MLOAD SWAP1 DUP2 MSTORE RETURN JUMPDEST CALLVALUE PUSH2 0x3B2 JUMPI PUSH1 0x20 DUP1 PUSH1 0x3 NOT CALLDATASIZE ADD SLT PUSH2 0x3B2 JUMPI PUSH1 0x4 CALLDATALOAD PUSH1 0x0 SWAP1 PUSH1 0x0 PUSH1 0xD SLOAD SWAP1 JUMPDEST DUP2 DUP2 LT PUSH2 0xF4F JUMPI POP PUSH2 0xE3B PUSH2 0xE25 DUP5 PUSH2 0x42C3 JUMP JUMPDEST SWAP4 PUSH2 0xE33 PUSH1 0x40 MLOAD SWAP6 DUP7 PUSH2 0x3A03 JUMP JUMPDEST DUP1 DUP6 MSTORE PUSH2 0x42C3 JUMP JUMPDEST PUSH1 0x1F NOT ADD DUP5 PUSH1 0x0 JUMPDEST DUP3 DUP2 LT PUSH2 0xF39 JUMPI POP POP POP PUSH1 0x0 DUP1 JUMPDEST DUP3 DUP2 LT PUSH2 0xEB6 JUMPI PUSH1 0x40 DUP1 MLOAD DUP8 DUP2 MSTORE DUP7 MLOAD DUP2 DUP10 ADD DUP2 SWAP1 MSTORE PUSH1 0x0 SWAP3 PUSH1 0x5 DUP3 SWAP1 SHL DUP4 ADD DUP2 ADD SWAP2 DUP10 DUP12 ADD SWAP2 DUP12 SWAP1 DUP6 ADD JUMPDEST DUP3 DUP8 LT PUSH2 0xE8A JUMPI DUP6 DUP6 SUB DUP7 RETURN JUMPDEST SWAP1 SWAP2 SWAP3 SWAP4 DUP3 DUP1 PUSH2 0xEA6 PUSH1 0x1 SWAP4 PUSH1 0x3F NOT DUP11 DUP3 SUB ADD DUP7 MSTORE DUP9 MLOAD PUSH2 0x3AB6 JUMP JUMPDEST SWAP7 ADD SWAP3 ADD SWAP7 ADD SWAP6 SWAP3 SWAP2 SWAP1 SWAP3 PUSH2 0xE7D JUMP JUMPDEST DUP1 PUSH1 0x0 MSTORE PUSH1 0xC SWAP1 DUP2 DUP8 MSTORE PUSH1 0x40 PUSH1 0x0 KECCAK256 SWAP2 DUP6 PUSH1 0x1 DUP5 ADD SLOAD EQ DUP1 PUSH2 0xF1C JUMPI JUMPDEST PUSH1 0x1 SWAP4 POP PUSH2 0xEE3 JUMPI JUMPDEST POP ADD PUSH2 0xE51 JUMP JUMPDEST DUP2 PUSH1 0x0 MSTORE DUP8 MSTORE PUSH2 0xF15 PUSH1 0x40 PUSH1 0x0 KECCAK256 SWAP4 PUSH2 0xF04 PUSH2 0xEFE DUP3 PUSH2 0x40BB JUMP JUMPDEST SWAP6 PUSH2 0x3EB8 JUMP JUMPDEST PUSH2 0xF0E DUP3 DUP11 PUSH2 0x4357 JUMP JUMPDEST MSTORE DUP8 PUSH2 0x4357 JUMP JUMPDEST POP DUP8 PUSH2 0xEDC JUMP JUMPDEST POP SWAP2 PUSH1 0xA PUSH1 0xFF SWAP2 ADD SLOAD AND SWAP2 PUSH1 0x3 DUP4 LT ISZERO PUSH2 0x39C JUMPI PUSH1 0x1 SWAP3 ISZERO PUSH2 0xED3 JUMP JUMPDEST PUSH2 0xF41 PUSH2 0x3E5C JUMP JUMPDEST DUP3 DUP3 DUP9 ADD ADD MSTORE ADD DUP6 SWAP1 PUSH2 0xE43 JUMP JUMPDEST DUP1 PUSH1 0x0 MSTORE PUSH1 0xC DUP6 MSTORE PUSH1 0x40 PUSH1 0x0 KECCAK256 DUP4 PUSH1 0x1 DUP3 ADD SLOAD EQ SWAP1 DUP2 PUSH2 0xF8C JUMPI JUMPDEST POP PUSH2 0xF78 JUMPI JUMPDEST PUSH1 0x1 ADD PUSH2 0xE11 JUMP JUMPDEST SWAP3 PUSH2 0xF84 PUSH1 0x1 SWAP2 PUSH2 0x40BB JUMP JUMPDEST SWAP4 SWAP1 POP PUSH2 0xF70 JUMP JUMPDEST PUSH1 0xFF SWAP2 POP PUSH1 0xA ADD SLOAD AND PUSH1 0x3 DUP2 LT ISZERO PUSH2 0x39C JUMPI ISZERO DUP7 PUSH2 0xF6A JUMP JUMPDEST CALLVALUE PUSH2 0x3B2 JUMPI PUSH1 0x40 CALLDATASIZE PUSH1 0x3 NOT ADD SLT PUSH2 0x3B2 JUMPI PUSH2 0xFBE PUSH2 0x3B99 JUMP JUMPDEST PUSH1 0x4 CALLDATALOAD PUSH1 0x0 MSTORE PUSH1 0xE PUSH1 0x20 MSTORE PUSH1 0x40 PUSH1 0x0 KECCAK256 SWAP1 PUSH1 0x1 DUP1 PUSH1 0xA0 SHL SUB AND PUSH1 0x0 MSTORE PUSH1 0x20 MSTORE PUSH1 0x40 DUP1 PUSH1 0x0 KECCAK256 SLOAD PUSH1 0xFF DUP3 MLOAD SWAP2 DUP2 DUP2 AND ISZERO ISZERO DUP4 MSTORE PUSH1 0x8 SHR AND ISZERO ISZERO PUSH1 0x20 DUP3 ADD MSTORE RETURN JUMPDEST CALLVALUE PUSH2 0x3B2 JUMPI PUSH1 0x20 DUP1 PUSH1 0x3 NOT CALLDATASIZE ADD SLT PUSH2 0x3B2 JUMPI PUSH1 0x4 CALLDATALOAD PUSH1 0x0 SWAP1 PUSH1 0x0 PUSH1 0x7 SLOAD SWAP1 JUMPDEST DUP2 DUP2 LT PUSH2 0x1136 JUMPI POP PUSH2 0x1030 PUSH2 0xE25 DUP5 PUSH2 0x42C3 JUMP JUMPDEST PUSH1 0x1F NOT ADD DUP5 PUSH1 0x0 JUMPDEST DUP3 DUP2 LT PUSH2 0x1120 JUMPI POP POP POP PUSH1 0x0 DUP1 JUMPDEST DUP3 DUP2 LT PUSH2 0x10AB JUMPI PUSH1 0x40 DUP1 MLOAD DUP8 DUP2 MSTORE DUP7 MLOAD DUP2 DUP10 ADD DUP2 SWAP1 MSTORE PUSH1 0x0 SWAP3 PUSH1 0x5 DUP3 SWAP1 SHL DUP4 ADD DUP2 ADD SWAP2 DUP10 DUP12 ADD SWAP2 DUP12 SWAP1 DUP6 ADD JUMPDEST DUP3 DUP8 LT PUSH2 0x107F JUMPI DUP6 DUP6 SUB DUP7 RETURN JUMPDEST SWAP1 SWAP2 SWAP3 SWAP4 DUP3 DUP1 PUSH2 0x109B PUSH1 0x1 SWAP4 PUSH1 0x3F NOT DUP11 DUP3 SUB ADD DUP7 MSTORE DUP9 MLOAD PUSH2 0x3C4F JUMP JUMPDEST SWAP7 ADD SWAP3 ADD SWAP7 ADD SWAP6 SWAP3 SWAP2 SWAP1 SWAP3 PUSH2 0x1072 JUMP JUMPDEST DUP1 PUSH1 0x0 MSTORE PUSH1 0x6 SWAP1 DUP2 DUP8 MSTORE PUSH1 0x40 PUSH1 0x0 KECCAK256 SWAP2 PUSH1 0x1 SWAP3 DUP7 DUP5 DUP3 ADD SLOAD EQ SWAP1 DUP2 PUSH2 0x1104 JUMPI JUMPDEST POP PUSH1 0x1 SWAP4 POP PUSH2 0x10DC JUMPI JUMPDEST POP ADD PUSH2 0x1046 JUMP JUMPDEST DUP2 PUSH1 0x0 MSTORE DUP8 MSTORE PUSH2 0x10FD PUSH1 0x40 PUSH1 0x0 KECCAK256 SWAP4 PUSH2 0xF04 PUSH2 0x10F7 DUP3 PUSH2 0x40BB JUMP JUMPDEST SWAP6 PUSH2 0x436B JUMP JUMPDEST POP DUP8 PUSH2 0x10D5 JUMP JUMPDEST PUSH1 0xFF SWAP2 POP PUSH1 0xC ADD SLOAD AND SWAP3 DUP2 DUP5 LT ISZERO PUSH2 0x39C JUMPI PUSH1 0x1 SWAP4 EQ DUP10 PUSH2 0x10CB JUMP JUMPDEST PUSH2 0x1128 PUSH2 0x42DA JUMP JUMPDEST DUP3 DUP3 DUP9 ADD ADD MSTORE ADD DUP6 SWAP1 PUSH2 0x1038 JUMP JUMPDEST DUP1 PUSH1 0x0 MSTORE PUSH1 0x6 DUP1 DUP7 MSTORE PUSH1 0x40 PUSH1 0x0 KECCAK256 SWAP1 PUSH1 0x1 SWAP1 DUP6 DUP3 DUP5 ADD SLOAD EQ SWAP3 DUP4 PUSH2 0x1179 JUMPI JUMPDEST POP POP POP PUSH2 0x1165 JUMPI JUMPDEST PUSH1 0x1 ADD PUSH2 0x101C JUMP JUMPDEST SWAP3 PUSH2 0x1171 PUSH1 0x1 SWAP2 PUSH2 0x40BB JUMP JUMPDEST SWAP4 SWAP1 POP PUSH2 0x115D JUMP JUMPDEST PUSH1 0xFF SWAP2 SWAP3 SWAP4 POP PUSH1 0xC ADD SLOAD AND SWAP1 DUP2 LT ISZERO PUSH2 0x39C JUMPI EQ DUP7 DUP1 DUP1 PUSH2 0x1155 JUMP JUMPDEST CALLVALUE PUSH2 0x3B2 JUMPI PUSH1 0x20 CALLDATASIZE PUSH1 0x3 NOT ADD SLT PUSH2 0x3B2 JUMPI PUSH1 0x1 PUSH1 0x1 PUSH1 0xA0 SHL SUB PUSH2 0x11B6 PUSH2 0x3B83 JUMP JUMPDEST AND PUSH1 0x0 MSTORE PUSH1 0xA PUSH1 0x20 MSTORE PUSH1 0x20 PUSH1 0x40 PUSH1 0x0 KECCAK256 SLOAD PUSH1 0x40 MLOAD SWAP1 DUP2 MSTORE RETURN JUMPDEST CALLVALUE PUSH2 0x3B2 JUMPI PUSH1 0x40 CALLDATASIZE PUSH1 0x3 NOT ADD SLT PUSH2 0x3B2 JUMPI PUSH1 0x4 CALLDATALOAD PUSH2 0x11EB PUSH2 0x3BAF JUMP JUMPDEST PUSH2 0x11F3 PUSH2 0x460E JUMP JUMPDEST DUP2 PUSH1 0x0 MSTORE PUSH1 0x20 SWAP2 PUSH1 0x6 DUP4 MSTORE PUSH1 0x40 PUSH1 0x0 KECCAK256 SWAP2 PUSH1 0xFF PUSH1 0xC DUP5 ADD SLOAD AND SWAP4 PUSH1 0x6 DUP6 LT ISZERO PUSH2 0x39C JUMPI PUSH2 0x1223 PUSH1 0x1 DUP1 SWAP7 EQ PUSH2 0x3F81 JUMP JUMPDEST PUSH2 0x1233 PUSH1 0x9 DUP6 ADD SLOAD TIMESTAMP LT ISZERO PUSH2 0x3FC3 JUMP JUMPDEST PUSH2 0x1242 PUSH1 0xA DUP6 ADD SLOAD TIMESTAMP LT PUSH2 0x4004 JUMP JUMPDEST PUSH1 0xFF DUP3 AND SWAP4 PUSH2 0x1254 PUSH1 0x2 DUP7 GT ISZERO PUSH2 0x403F JUMP JUMPDEST DUP4 PUSH1 0x0 MSTORE PUSH1 0x8 DUP3 MSTORE PUSH1 0x40 PUSH1 0x0 KECCAK256 CALLER PUSH1 0x0 MSTORE DUP3 MSTORE PUSH2 0x12BD PUSH1 0x40 PUSH1 0x0 KECCAK256 DUP1 SLOAD SWAP5 PUSH2 0x127F PUSH1 0xFF DUP8 AND ISZERO PUSH2 0x407F JUMP JUMPDEST PUSH1 0x2 SLOAD DUP10 DUP6 ADD SLOAD PUSH1 0x40 MLOAD PUSH4 0x6DED6A19 PUSH1 0xE1 SHL DUP2 MSTORE PUSH1 0x4 DUP2 ADD SWAP2 SWAP1 SWAP2 MSTORE CALLER PUSH1 0x24 DUP3 ADD MSTORE SWAP4 DUP7 SWAP2 DUP6 SWAP2 PUSH1 0x1 PUSH1 0x1 PUSH1 0xA0 SHL SUB SWAP1 SWAP2 AND SWAP1 DUP3 SWAP1 DUP2 SWAP1 PUSH1 0x44 DUP3 ADD SWAP1 JUMP JUMPDEST SUB SWAP2 GAS STATICCALL SWAP6 DUP7 ISZERO PUSH2 0x13EF JUMPI DUP10 SWAP4 PUSH1 0x0 SWAP8 PUSH2 0x13B8 JUMPI JUMPDEST POP SWAP4 DUP7 DUP5 PUSH1 0xFF SWAP5 PUSH2 0x130D PUSH1 0x2 SWAP6 DUP5 SWAP9 PUSH2 0x1359 SWAP11 PUSH2 0x12F0 DUP8 ISZERO ISZERO PUSH2 0x40CA JUMP JUMPDEST DUP10 NOT AND OR DUP4 SSTORE DUP3 SWAP1 PUSH2 0xFF00 DUP3 SLOAD SWAP2 PUSH1 0x8 SHL AND SWAP1 PUSH2 0xFF00 NOT AND OR SWAP1 SSTORE JUMP JUMPDEST ADD SSTORE DUP9 PUSH2 0x138C JUMPI PUSH1 0x7 DUP2 ADD PUSH2 0x1323 DUP6 DUP3 SLOAD PUSH2 0x4108 JUMP JUMPDEST SWAP1 SSTORE JUMPDEST CALLER PUSH1 0x0 MSTORE PUSH1 0xA DUP7 MSTORE PUSH1 0x40 PUSH1 0x0 KECCAK256 PUSH2 0x133D DUP2 SLOAD PUSH2 0x40BB JUMP JUMPDEST SWAP1 SSTORE CALLER PUSH1 0x0 MSTORE PUSH1 0xB DUP7 MSTORE TIMESTAMP PUSH1 0x40 PUSH1 0x0 KECCAK256 SSTORE ADD SLOAD PUSH1 0xA0 SHR AND PUSH2 0x4631 JUMP JUMPDEST PUSH1 0x40 MLOAD SWAP4 DUP5 MSTORE DUP4 ADD MSTORE PUSH32 0xB83D25C6A5D258561330739951487ACB4BD09BA5190B5D32C4F261817D906792 PUSH1 0x40 CALLER SWAP4 LOG3 DUP1 SSTORE STOP JUMPDEST DUP9 DUP11 SUB PUSH2 0x13A9 JUMPI PUSH1 0x6 DUP2 ADD PUSH2 0x13A2 DUP6 DUP3 SLOAD PUSH2 0x4108 JUMP JUMPDEST SWAP1 SSTORE PUSH2 0x1326 JUMP JUMPDEST PUSH1 0x8 DUP2 ADD PUSH2 0x13A2 DUP6 DUP3 SLOAD PUSH2 0x4108 JUMP JUMPDEST SWAP2 SWAP7 POP SWAP3 POP SWAP1 DUP5 DUP3 DUP2 RETURNDATASIZE DUP2 GT PUSH2 0x13E8 JUMPI JUMPDEST PUSH2 0x13D3 DUP2 DUP4 PUSH2 0x3A03 JUMP JUMPDEST DUP2 ADD SUB SLT PUSH2 0x3B2 JUMPI SWAP1 MLOAD SWAP5 DUP9 SWAP3 PUSH2 0x1359 PUSH2 0x12D2 JUMP JUMPDEST POP RETURNDATASIZE PUSH2 0x13C9 JUMP JUMPDEST PUSH1 0x40 MLOAD RETURNDATASIZE PUSH1 0x0 DUP3 RETURNDATACOPY RETURNDATASIZE SWAP1 REVERT JUMPDEST CALLVALUE PUSH2 0x3B2 JUMPI PUSH1 0x20 CALLDATASIZE PUSH1 0x3 NOT ADD SLT PUSH2 0x3B2 JUMPI PUSH1 0x4 CALLDATALOAD DUP1 PUSH1 0x0 MSTORE PUSH1 0x6 PUSH1 0x20 MSTORE PUSH1 0x40 PUSH1 0x0 KECCAK256 SWAP1 PUSH1 0xC DUP3 ADD SWAP2 DUP3 SLOAD SWAP2 PUSH1 0xFF DUP4 AND PUSH1 0x6 DUP2 LT ISZERO PUSH2 0x39C JUMPI PUSH1 0x1 PUSH2 0x143F SWAP2 EQ PUSH2 0x3F81 JUMP JUMPDEST PUSH1 0xA DUP3 ADD SLOAD TIMESTAMP LT PUSH2 0x14E8 JUMPI PUSH1 0x6 DUP3 ADD SLOAD SWAP2 PUSH1 0x7 DUP2 ADD SLOAD SWAP2 PUSH2 0x146E PUSH2 0x1463 DUP5 DUP7 PUSH2 0x4108 JUMP JUMPDEST PUSH1 0x8 DUP5 ADD SLOAD SWAP1 PUSH2 0x4108 JUMP JUMPDEST PUSH1 0x0 SWAP2 DUP3 MSTORE PUSH1 0x9 PUSH1 0x20 MSTORE PUSH1 0x40 SWAP1 SWAP2 KECCAK256 SLOAD SWAP1 DUP2 ISZERO PUSH2 0x14DC JUMPI PUSH2 0x2710 SWAP1 DUP2 DUP2 MUL SWAP2 DUP2 DUP4 DIV EQ SWAP1 ISZERO OR ISZERO PUSH2 0x737 JUMPI PUSH1 0xB SWAP2 PUSH2 0x14A5 SWAP2 PUSH2 0x3D57 JUMP JUMPDEST SWAP2 JUMPDEST ADD SLOAD GT ISZERO SWAP2 DUP3 PUSH2 0x14D2 JUMPI JUMPDEST POP POP ISZERO PUSH2 0x14C7 JUMPI POP DUP1 SLOAD PUSH1 0xFF NOT AND PUSH1 0x2 OR SWAP1 SSTORE STOP JUMPDEST PUSH1 0xFF NOT AND PUSH1 0x3 OR SWAP1 SSTORE STOP JUMPDEST GT SWAP1 POP DUP4 DUP1 PUSH2 0x14B2 JUMP JUMPDEST POP POP PUSH1 0xB PUSH1 0x0 SWAP2 PUSH2 0x14A7 JUMP JUMPDEST PUSH1 0x40 MLOAD PUSH3 0x461BCD PUSH1 0xE5 SHL DUP2 MSTORE PUSH1 0x20 PUSH1 0x4 DUP3 ADD MSTORE PUSH1 0x10 PUSH1 0x24 DUP3 ADD MSTORE PUSH16 0x159BDD1A5B99C81B9BDD08195B991959 PUSH1 0x82 SHL PUSH1 0x44 DUP3 ADD MSTORE PUSH1 0x64 SWAP1 REVERT JUMPDEST PUSH2 0x3B66 JUMP JUMPDEST CALLVALUE PUSH2 0x3B2 JUMPI PUSH1 0x20 CALLDATASIZE PUSH1 0x3 NOT ADD SLT PUSH2 0x3B2 JUMPI PUSH1 0x4 CALLDATALOAD PUSH1 0x0 MSTORE PUSH1 0x9 PUSH1 0x20 MSTORE PUSH1 0x20 PUSH1 0x40 PUSH1 0x0 KECCAK256 SLOAD PUSH1 0x40 MLOAD SWAP1 DUP2 MSTORE RETURN JUMPDEST CALLVALUE PUSH2 0x3B2 JUMPI PUSH1 0x0 CALLDATASIZE PUSH1 0x3 NOT ADD SLT PUSH2 0x3B2 JUMPI PUSH1 0x20 PUSH1 0x12 SLOAD PUSH1 0x40 MLOAD SWAP1 DUP2 MSTORE RETURN JUMPDEST CALLVALUE PUSH2 0x3B2 JUMPI PUSH2 0x100 CALLDATASIZE PUSH1 0x3 NOT ADD SLT PUSH2 0x3B2 JUMPI PUSH1 0x4 PUSH1 0x24 CALLDATALOAD LT ISZERO PUSH2 0x3B2 JUMPI PUSH1 0x44 CALLDATALOAD PUSH1 0x1 PUSH1 0x1 PUSH1 0x40 SHL SUB DUP2 GT PUSH2 0x3B2 JUMPI PUSH2 0x15AB SWAP1 CALLDATASIZE SWAP1 PUSH1 0x4 ADD PUSH2 0x3BBF JUMP JUMPDEST PUSH1 0x64 CALLDATALOAD PUSH1 0x1 PUSH1 0x1 PUSH1 0x40 SHL SUB DUP2 GT PUSH2 0x3B2 JUMPI PUSH2 0x15CA SWAP1 CALLDATASIZE SWAP1 PUSH1 0x4 ADD PUSH2 0x3BBF JUMP JUMPDEST SWAP1 PUSH1 0x84 CALLDATALOAD PUSH1 0x1 PUSH1 0x1 PUSH1 0x40 SHL SUB DUP2 GT PUSH2 0x3B2 JUMPI PUSH2 0x15EA SWAP1 CALLDATASIZE SWAP1 PUSH1 0x4 ADD PUSH2 0x3BBF JUMP JUMPDEST SWAP1 PUSH1 0xA4 CALLDATALOAD PUSH1 0x1 PUSH1 0x1 PUSH1 0x40 SHL SUB DUP2 GT PUSH2 0x3B2 JUMPI PUSH2 0x160A SWAP1 CALLDATASIZE SWAP1 PUSH1 0x4 ADD PUSH2 0x3BBF JUMP JUMPDEST PUSH1 0xC4 CALLDATALOAD PUSH1 0x1 PUSH1 0x1 PUSH1 0x40 SHL SUB DUP2 GT PUSH2 0x3B2 JUMPI PUSH2 0x1629 SWAP1 CALLDATASIZE SWAP1 PUSH1 0x4 ADD PUSH2 0x3BBF JUMP JUMPDEST SWAP1 PUSH2 0x1632 PUSH2 0x458C JUMP JUMPDEST PUSH2 0x163D PUSH1 0x24 CALLDATALOAD PUSH2 0x3A24 JUMP JUMPDEST PUSH1 0x24 CALLDATALOAD ISZERO PUSH2 0x1E11 JUMPI JUMPDEST PUSH1 0x64 PUSH1 0xE4 CALLDATALOAD GT PUSH2 0x1DCC JUMPI PUSH1 0x2 SLOAD PUSH1 0x40 MLOAD PUSH4 0x6DED6A19 PUSH1 0xE1 SHL DUP2 MSTORE PUSH1 0x4 DUP1 CALLDATALOAD SWAP1 DUP3 ADD MSTORE CALLER PUSH1 0x24 DUP3 ADD MSTORE PUSH1 0x1 PUSH1 0x1 PUSH1 0xA0 SHL SUB SWAP1 SWAP2 AND SWAP1 PUSH1 0x20 DUP2 PUSH1 0x44 DUP2 DUP6 GAS STATICCALL DUP1 ISZERO PUSH2 0x13EF JUMPI PUSH1 0x0 SWAP1 PUSH2 0x1D98 JUMPI JUMPDEST PUSH2 0x169D SWAP2 POP ISZERO ISZERO PUSH2 0x4277 JUMP JUMPDEST PUSH1 0x7 SLOAD SWAP5 PUSH2 0x16AA DUP7 PUSH2 0x40BB JUMP JUMPDEST PUSH1 0x7 SSTORE PUSH1 0x24 PUSH1 0x20 PUSH2 0x16BB DUP3 CALLDATALOAD PUSH2 0x484E JUMP JUMPDEST SWAP4 PUSH1 0x40 MLOAD SWAP3 DUP4 DUP1 SWAP3 PUSH4 0x8CDC1E87 PUSH1 0xE0 SHL DUP3 MSTORE PUSH1 0x4 CALLDATALOAD PUSH1 0x4 DUP4 ADD MSTORE GAS STATICCALL SWAP1 DUP2 ISZERO PUSH2 0x13EF JUMPI PUSH1 0x0 SWAP2 PUSH2 0x1D66 JUMPI JUMPDEST POP DUP1 ISZERO PUSH2 0x1D10 JUMPI DUP7 PUSH1 0x0 MSTORE PUSH1 0x9 PUSH1 0x20 MSTORE PUSH1 0x40 PUSH1 0x0 KECCAK256 SSTORE PUSH2 0x1708 PUSH1 0x4 SLOAD TIMESTAMP PUSH2 0x4108 JUMP JUMPDEST SWAP1 PUSH1 0x40 MLOAD SWAP8 PUSH2 0x1716 DUP10 PUSH2 0x39B1 JUMP JUMPDEST DUP8 DUP10 MSTORE PUSH1 0x4 CALLDATALOAD PUSH1 0x20 DUP11 ADD MSTORE CALLER PUSH1 0x40 DUP11 ADD MSTORE PUSH2 0x1732 PUSH1 0x24 CALLDATALOAD PUSH2 0x3A24 JUMP JUMPDEST PUSH1 0x24 CALLDATALOAD PUSH1 0x60 DUP11 ADD MSTORE DUP7 PUSH1 0x80 DUP11 ADD MSTORE PUSH1 0xA0 DUP10 ADD MSTORE PUSH1 0xC0 DUP9 ADD MSTORE PUSH1 0x0 PUSH1 0xE0 DUP9 ADD MSTORE PUSH1 0x0 PUSH2 0x100 DUP9 ADD MSTORE PUSH1 0x0 PUSH2 0x120 DUP9 ADD MSTORE TIMESTAMP PUSH2 0x140 DUP9 ADD MSTORE PUSH2 0x160 DUP8 ADD MSTORE PUSH2 0x180 DUP7 ADD MSTORE PUSH1 0x1 PUSH2 0x1A0 DUP7 ADD MSTORE PUSH2 0x1C0 DUP6 ADD MSTORE PUSH2 0x1E0 DUP5 ADD MSTORE PUSH1 0xE4 CALLDATALOAD PUSH2 0x200 DUP5 ADD MSTORE DUP2 PUSH1 0x0 MSTORE PUSH1 0x6 PUSH1 0x20 MSTORE PUSH1 0x40 PUSH1 0x0 KECCAK256 DUP4 MLOAD DUP2 SSTORE PUSH1 0x20 DUP5 ADD MLOAD PUSH1 0x1 DUP3 ADD SSTORE PUSH1 0x2 DUP2 ADD PUSH1 0x1 DUP1 PUSH1 0xA0 SHL SUB PUSH1 0x40 DUP7 ADD MLOAD AND DUP2 SLOAD SWAP1 PUSH1 0x60 DUP8 ADD MLOAD PUSH2 0x17CF DUP2 PUSH2 0x3A24 JUMP JUMPDEST PUSH2 0x17D8 DUP2 PUSH2 0x3A24 JUMP JUMPDEST PUSH1 0x1 PUSH1 0x1 PUSH1 0xA8 SHL SUB NOT SWAP1 SWAP3 AND OR PUSH1 0xA0 SWAP2 SWAP1 SWAP2 SHL PUSH1 0xFF PUSH1 0xA0 SHL AND OR SWAP1 SSTORE PUSH1 0x80 DUP5 ADD MLOAD DUP1 MLOAD SWAP1 PUSH1 0x1 PUSH1 0x1 PUSH1 0x40 SHL SUB DUP3 GT PUSH2 0x1B2B JUMPI PUSH2 0x1824 DUP3 PUSH2 0x181B PUSH1 0x3 DUP7 ADD SLOAD PUSH2 0x38C5 JUMP JUMPDEST PUSH1 0x3 DUP7 ADD PUSH2 0x4115 JUMP JUMPDEST PUSH1 0x20 SWAP1 PUSH1 0x1F DUP4 GT PUSH1 0x1 EQ PUSH2 0x1C9E JUMPI PUSH2 0x1855 SWAP3 SWAP2 PUSH1 0x0 SWAP2 DUP4 PUSH2 0x1B41 JUMPI JUMPDEST POP POP DUP2 PUSH1 0x1 SHL SWAP2 PUSH1 0x0 NOT SWAP1 PUSH1 0x3 SHL SHR NOT AND OR SWAP1 JUMP JUMPDEST PUSH1 0x3 DUP3 ADD SSTORE JUMPDEST PUSH1 0xA0 DUP5 ADD MLOAD DUP1 MLOAD SWAP1 PUSH1 0x1 PUSH1 0x1 PUSH1 0x40 SHL SUB DUP3 GT PUSH2 0x1B2B JUMPI PUSH2 0x188B DUP3 PUSH2 0x1882 PUSH1 0x4 DUP7 ADD SLOAD PUSH2 0x38C5 JUMP JUMPDEST PUSH1 0x4 DUP7 ADD PUSH2 0x4115 JUMP JUMPDEST PUSH1 0x20 SWAP1 PUSH1 0x1F DUP4 GT PUSH1 0x1 EQ PUSH2 0x1C2C JUMPI PUSH2 0x18BB SWAP3 SWAP2 PUSH1 0x0 SWAP2 DUP4 PUSH2 0x1B41 JUMPI POP POP DUP2 PUSH1 0x1 SHL SWAP2 PUSH1 0x0 NOT SWAP1 PUSH1 0x3 SHL SHR NOT AND OR SWAP1 JUMP JUMPDEST PUSH1 0x4 DUP3 ADD SSTORE JUMPDEST PUSH1 0xC0 DUP5 ADD MLOAD DUP1 MLOAD SWAP1 PUSH1 0x1 PUSH1 0x1 PUSH1 0x40 SHL SUB DUP3 GT PUSH2 0x1B2B JUMPI PUSH2 0x18F1 DUP3 PUSH2 0x18E8 PUSH1 0x5 DUP7 ADD SLOAD PUSH2 0x38C5 JUMP JUMPDEST PUSH1 0x5 DUP7 ADD PUSH2 0x4115 JUMP JUMPDEST PUSH1 0x20 SWAP1 PUSH1 0x1F DUP4 GT PUSH1 0x1 EQ PUSH2 0x1BBA JUMPI PUSH2 0x1921 SWAP3 SWAP2 PUSH1 0x0 SWAP2 DUP4 PUSH2 0x1B41 JUMPI POP POP DUP2 PUSH1 0x1 SHL SWAP2 PUSH1 0x0 NOT SWAP1 PUSH1 0x3 SHL SHR NOT AND OR SWAP1 JUMP JUMPDEST PUSH1 0x5 DUP3 ADD SSTORE JUMPDEST PUSH1 0xE0 DUP5 ADD MLOAD PUSH1 0x6 DUP3 ADD SSTORE PUSH2 0x100 DUP5 ADD MLOAD PUSH1 0x7 DUP3 ADD SSTORE PUSH2 0x120 DUP5 ADD MLOAD PUSH1 0x8 DUP3 ADD SSTORE PUSH2 0x140 DUP5 ADD MLOAD PUSH1 0x9 DUP3 ADD SSTORE PUSH2 0x160 DUP5 ADD MLOAD PUSH1 0xA DUP3 ADD SSTORE PUSH2 0x180 DUP5 ADD MLOAD PUSH1 0xB DUP3 ADD SSTORE PUSH2 0x1A0 DUP5 ADD MLOAD PUSH1 0x6 DUP2 LT ISZERO PUSH2 0x39C JUMPI PUSH2 0x1984 SWAP1 PUSH1 0xC DUP4 ADD PUSH2 0x3E44 JUMP JUMPDEST PUSH2 0x1C0 DUP5 ADD MLOAD DUP1 MLOAD SWAP1 PUSH1 0x1 PUSH1 0x1 PUSH1 0x40 SHL SUB DUP3 GT PUSH2 0x1B2B JUMPI PUSH2 0x19B5 DUP3 PUSH2 0x19AC PUSH1 0xD DUP7 ADD SLOAD PUSH2 0x38C5 JUMP JUMPDEST PUSH1 0xD DUP7 ADD PUSH2 0x4115 JUMP JUMPDEST PUSH1 0x20 SWAP1 PUSH1 0x1F DUP4 GT PUSH1 0x1 EQ PUSH2 0x1B4C JUMPI PUSH2 0x19E5 SWAP3 SWAP2 PUSH1 0x0 SWAP2 DUP4 PUSH2 0x1B41 JUMPI POP POP DUP2 PUSH1 0x1 SHL SWAP2 PUSH1 0x0 NOT SWAP1 PUSH1 0x3 SHL SHR NOT AND OR SWAP1 JUMP JUMPDEST PUSH1 0xD DUP3 ADD SSTORE JUMPDEST PUSH2 0x1E0 DUP5 ADD MLOAD SWAP4 DUP5 MLOAD PUSH1 0x1 PUSH1 0x1 PUSH1 0x40 SHL SUB DUP2 GT PUSH2 0x1B2B JUMPI PUSH1 0x20 SWAP6 PUSH2 0x1A1F DUP3 PUSH2 0x1A16 PUSH1 0xE DUP8 ADD SLOAD PUSH2 0x38C5 JUMP JUMPDEST PUSH1 0xE DUP8 ADD PUSH2 0x4115 JUMP JUMPDEST DUP7 SWAP1 PUSH1 0x1F DUP4 GT PUSH1 0x1 EQ PUSH2 0x1AB7 JUMPI DUP3 PUSH2 0x200 SWAP4 PUSH1 0xF SWAP6 SWAP4 PUSH2 0x1A55 SWAP4 PUSH1 0x0 SWAP3 PUSH2 0x1AAC JUMPI POP POP DUP2 PUSH1 0x1 SHL SWAP2 PUSH1 0x0 NOT SWAP1 PUSH1 0x3 SHL SHR NOT AND OR SWAP1 JUMP JUMPDEST PUSH1 0xE DUP6 ADD SSTORE JUMPDEST ADD MLOAD SWAP2 ADD SSTORE DUP2 PUSH1 0x0 DUP1 MLOAD PUSH1 0x20 PUSH2 0x4A13 DUP4 CODECOPY DUP2 MLOAD SWAP2 MSTORE PUSH1 0x40 MLOAD CALLER DUP2 MSTORE PUSH2 0x1A81 PUSH1 0x24 CALLDATALOAD PUSH2 0x3A24 JUMP JUMPDEST PUSH1 0x24 CALLDATALOAD DUP7 DUP3 ADD MSTORE PUSH1 0x60 PUSH1 0x40 DUP3 ADD MSTORE DUP1 PUSH2 0x1AA1 PUSH1 0x4 CALLDATALOAD SWAP6 PUSH1 0x60 DUP4 ADD SWAP1 PUSH2 0x3A2E JUMP JUMPDEST SUB SWAP1 LOG3 PUSH1 0x40 MLOAD SWAP1 DUP2 MSTORE RETURN JUMPDEST ADD MLOAD SWAP1 POP DUP11 DUP1 PUSH2 0x1840 JUMP JUMPDEST SWAP1 PUSH1 0xE DUP6 ADD PUSH1 0x0 MSTORE DUP8 PUSH1 0x0 KECCAK256 SWAP2 PUSH1 0x0 JUMPDEST PUSH1 0x1F NOT DUP6 AND DUP2 LT PUSH2 0x1B14 JUMPI POP SWAP3 PUSH1 0xF SWAP5 SWAP3 PUSH1 0x1 SWAP3 PUSH2 0x200 SWAP6 DUP4 PUSH1 0x1F NOT DUP2 AND LT PUSH2 0x1AFB JUMPI JUMPDEST POP POP POP DUP2 SHL ADD PUSH1 0xE DUP6 ADD SSTORE PUSH2 0x1A5B JUMP JUMPDEST ADD MLOAD PUSH1 0x0 NOT PUSH1 0xF8 DUP5 PUSH1 0x3 SHL AND SHR NOT AND SWAP1 SSTORE DUP10 DUP1 DUP1 PUSH2 0x1AEB JUMP JUMPDEST SWAP2 SWAP3 DUP10 PUSH1 0x1 DUP2 SWAP3 DUP7 DUP6 ADD MLOAD DUP2 SSTORE ADD SWAP5 ADD SWAP3 ADD PUSH2 0x1AC7 JUMP JUMPDEST PUSH4 0x4E487B71 PUSH1 0xE0 SHL PUSH1 0x0 MSTORE PUSH1 0x41 PUSH1 0x4 MSTORE PUSH1 0x24 PUSH1 0x0 REVERT JUMPDEST ADD MLOAD SWAP1 POP DUP8 DUP1 PUSH2 0x1840 JUMP JUMPDEST SWAP1 PUSH1 0x1F NOT DUP4 AND SWAP2 PUSH1 0xD DUP6 ADD PUSH1 0x0 MSTORE PUSH1 0x20 PUSH1 0x0 KECCAK256 SWAP3 PUSH1 0x0 JUMPDEST DUP2 DUP2 LT PUSH2 0x1BA2 JUMPI POP SWAP1 DUP5 PUSH1 0x1 SWAP6 SWAP5 SWAP4 SWAP3 LT PUSH2 0x1B89 JUMPI JUMPDEST POP POP POP DUP2 SHL ADD PUSH1 0xD DUP3 ADD SSTORE PUSH2 0x19EB JUMP JUMPDEST ADD MLOAD PUSH1 0x0 NOT PUSH1 0xF8 DUP5 PUSH1 0x3 SHL AND SHR NOT AND SWAP1 SSTORE DUP7 DUP1 DUP1 PUSH2 0x1B79 JUMP JUMPDEST SWAP3 SWAP4 PUSH1 0x20 PUSH1 0x1 DUP2 SWAP3 DUP8 DUP7 ADD MLOAD DUP2 SSTORE ADD SWAP6 ADD SWAP4 ADD PUSH2 0x1B63 JUMP JUMPDEST SWAP2 SWAP1 PUSH1 0x5 DUP5 ADD PUSH1 0x0 MSTORE PUSH1 0x20 PUSH1 0x0 KECCAK256 SWAP1 PUSH1 0x0 SWAP4 JUMPDEST PUSH1 0x1F NOT DUP5 AND DUP6 LT PUSH2 0x1C11 JUMPI PUSH1 0x1 SWAP5 POP DUP4 PUSH1 0x1F NOT DUP2 AND LT PUSH2 0x1BF8 JUMPI JUMPDEST POP POP POP DUP2 SHL ADD PUSH1 0x5 DUP3 ADD SSTORE PUSH2 0x1927 JUMP JUMPDEST ADD MLOAD PUSH1 0x0 NOT PUSH1 0xF8 DUP5 PUSH1 0x3 SHL AND SHR NOT AND SWAP1 SSTORE DUP7 DUP1 DUP1 PUSH2 0x1BE8 JUMP JUMPDEST DUP2 DUP2 ADD MLOAD DUP4 SSTORE PUSH1 0x20 SWAP5 DUP6 ADD SWAP5 PUSH1 0x1 SWAP1 SWAP4 ADD SWAP3 SWAP1 SWAP2 ADD SWAP1 PUSH2 0x1BCD JUMP JUMPDEST SWAP2 SWAP1 PUSH1 0x4 DUP5 ADD PUSH1 0x0 MSTORE PUSH1 0x20 PUSH1 0x0 KECCAK256 SWAP1 PUSH1 0x0 SWAP4 JUMPDEST PUSH1 0x1F NOT DUP5 AND DUP6 LT PUSH2 0x1C83 JUMPI PUSH1 0x1 SWAP5 POP DUP4 PUSH1 0x1F NOT DUP2 AND LT PUSH2 0x1C6A JUMPI JUMPDEST POP POP POP DUP2 SHL ADD PUSH1 0x4 DUP3 ADD SSTORE PUSH2 0x18C1 JUMP JUMPDEST ADD MLOAD PUSH1 0x0 NOT PUSH1 0xF8 DUP5 PUSH1 0x3 SHL AND SHR NOT AND SWAP1 SSTORE DUP7 DUP1 DUP1 PUSH2 0x1C5A JUMP JUMPDEST DUP2 DUP2 ADD MLOAD DUP4 SSTORE PUSH1 0x20 SWAP5 DUP6 ADD SWAP5 PUSH1 0x1 SWAP1 SWAP4 ADD SWAP3 SWAP1 SWAP2 ADD SWAP1 PUSH2 0x1C3F JUMP JUMPDEST SWAP2 SWAP1 PUSH1 0x3 DUP5 ADD PUSH1 0x0 MSTORE PUSH1 0x20 PUSH1 0x0 KECCAK256 SWAP1 PUSH1 0x0 SWAP4 JUMPDEST PUSH1 0x1F NOT DUP5 AND DUP6 LT PUSH2 0x1CF5 JUMPI PUSH1 0x1 SWAP5 POP DUP4 PUSH1 0x1F NOT DUP2 AND LT PUSH2 0x1CDC JUMPI JUMPDEST POP POP POP DUP2 SHL ADD PUSH1 0x3 DUP3 ADD SSTORE PUSH2 0x185B JUMP JUMPDEST ADD MLOAD PUSH1 0x0 NOT PUSH1 0xF8 DUP5 PUSH1 0x3 SHL AND SHR NOT AND SWAP1 SSTORE DUP7 DUP1 DUP1 PUSH2 0x1CCC JUMP JUMPDEST DUP2 DUP2 ADD MLOAD DUP4 SSTORE PUSH1 0x20 SWAP5 DUP6 ADD SWAP5 PUSH1 0x1 SWAP1 SWAP4 ADD SWAP3 SWAP1 SWAP2 ADD SWAP1 PUSH2 0x1CB1 JUMP JUMPDEST PUSH1 0x40 MLOAD PUSH3 0x461BCD PUSH1 0xE5 SHL DUP2 MSTORE PUSH1 0x20 PUSH1 0x4 DUP3 ADD MSTORE PUSH1 0x28 PUSH1 0x24 DUP3 ADD MSTORE PUSH32 0x4E6F20766F74696E6720706F7765722065786973747320666F72207468697320 PUSH1 0x44 DUP3 ADD MSTORE PUSH8 0x70726F7065727479 PUSH1 0xC0 SHL PUSH1 0x64 DUP3 ADD MSTORE PUSH1 0x84 SWAP1 REVERT JUMPDEST SWAP1 POP PUSH1 0x20 DUP2 RETURNDATASIZE PUSH1 0x20 GT PUSH2 0x1D90 JUMPI JUMPDEST DUP2 PUSH2 0x1D81 PUSH1 0x20 SWAP4 DUP4 PUSH2 0x3A03 JUMP JUMPDEST DUP2 ADD SUB SLT PUSH2 0x3B2 JUMPI MLOAD DUP9 PUSH2 0x16E6 JUMP JUMPDEST RETURNDATASIZE SWAP2 POP PUSH2 0x1D74 JUMP JUMPDEST POP PUSH1 0x20 DUP2 RETURNDATASIZE PUSH1 0x20 GT PUSH2 0x1DC4 JUMPI JUMPDEST DUP2 PUSH2 0x1DB2 PUSH1 0x20 SWAP4 DUP4 PUSH2 0x3A03 JUMP JUMPDEST DUP2 ADD SUB SLT PUSH2 0x3B2 JUMPI PUSH2 0x169D SWAP1 MLOAD PUSH2 0x1691 JUMP JUMPDEST RETURNDATASIZE SWAP2 POP PUSH2 0x1DA5 JUMP JUMPDEST PUSH1 0x40 MLOAD PUSH3 0x461BCD PUSH1 0xE5 SHL DUP2 MSTORE PUSH1 0x20 PUSH1 0x4 DUP3 ADD MSTORE PUSH1 0x1A PUSH1 0x24 DUP3 ADD MSTORE PUSH32 0x496D706163742073636F7265206D75737420626520302D313030000000000000 PUSH1 0x44 DUP3 ADD MSTORE PUSH1 0x64 SWAP1 REVERT JUMPDEST DUP2 MLOAD ISZERO PUSH2 0x1E7A JUMPI PUSH1 0xE4 CALLDATALOAD PUSH2 0x1646 JUMPI PUSH1 0x40 MLOAD PUSH3 0x461BCD PUSH1 0xE5 SHL DUP2 MSTORE PUSH1 0x20 PUSH1 0x4 DUP3 ADD MSTORE PUSH1 0x2D PUSH1 0x24 DUP3 ADD MSTORE PUSH32 0x496D706163742073636F726520726571756972656420666F722050726F706572 PUSH1 0x44 DUP3 ADD MSTORE PUSH13 0x1D1E51195D995B1BDC1B595B9D PUSH1 0x9A SHL PUSH1 0x64 DUP3 ADD MSTORE PUSH1 0x84 SWAP1 REVERT JUMPDEST PUSH1 0x40 MLOAD PUSH3 0x461BCD PUSH1 0xE5 SHL DUP2 MSTORE PUSH1 0x20 PUSH1 0x4 DUP3 ADD MSTORE PUSH1 0x2E PUSH1 0x24 DUP3 ADD MSTORE PUSH32 0x496D70616374207265706F727420726571756972656420666F722050726F7065 PUSH1 0x44 DUP3 ADD MSTORE PUSH14 0x1C9D1E51195D995B1BDC1B595B9D PUSH1 0x92 SHL PUSH1 0x64 DUP3 ADD MSTORE PUSH1 0x84 SWAP1 REVERT JUMPDEST CALLVALUE PUSH2 0x3B2 JUMPI PUSH1 0x60 CALLDATASIZE PUSH1 0x3 NOT ADD SLT PUSH2 0x3B2 JUMPI PUSH1 0x4 PUSH1 0x24 CALLDATALOAD LT ISZERO PUSH2 0x3B2 JUMPI PUSH1 0x44 CALLDATALOAD PUSH1 0x1 PUSH1 0x1 PUSH1 0x40 SHL SUB DUP2 GT PUSH2 0x3B2 JUMPI PUSH2 0x1F11 SWAP1 CALLDATASIZE SWAP1 PUSH1 0x4 ADD PUSH2 0x3BBF JUMP JUMPDEST PUSH2 0x1F19 PUSH2 0x458C JUMP JUMPDEST PUSH1 0x4 CALLDATALOAD PUSH1 0x0 MSTORE PUSH1 0xC PUSH1 0x20 MSTORE PUSH1 0x40 PUSH1 0x0 KECCAK256 SWAP1 PUSH1 0xFF PUSH1 0xA DUP4 ADD SLOAD AND PUSH1 0x3 DUP2 LT ISZERO PUSH2 0x39C JUMPI PUSH1 0x1 SUB PUSH2 0x28C2 JUMPI PUSH1 0xB DUP3 ADD SLOAD PUSH2 0x2889 JUMPI PUSH1 0x6 DUP3 ADD SLOAD PUSH2 0x1F5E PUSH1 0x7 DUP5 ADD SLOAD DUP3 PUSH2 0x4108 JUMP JUMPDEST SWAP1 DUP2 ISZERO PUSH2 0x2854 JUMPI PUSH2 0x2710 SWAP1 DUP2 DUP2 MUL SWAP2 DUP2 DUP4 DIV EQ SWAP1 ISZERO OR ISZERO PUSH2 0x737 JUMPI PUSH2 0xBB8 SWAP2 PUSH2 0x1F86 SWAP2 PUSH2 0x3D57 JUMP JUMPDEST LT PUSH2 0x280F JUMPI PUSH1 0x2 SLOAD PUSH1 0x1 DUP4 ADD SLOAD PUSH1 0x40 MLOAD PUSH4 0x6DED6A19 PUSH1 0xE1 SHL DUP2 MSTORE PUSH1 0x4 DUP2 ADD SWAP2 SWAP1 SWAP2 MSTORE CALLER PUSH1 0x24 DUP3 ADD MSTORE PUSH1 0x1 PUSH1 0x1 PUSH1 0xA0 SHL SUB SWAP1 SWAP2 AND SWAP3 SWAP1 PUSH1 0x20 DUP2 PUSH1 0x44 DUP2 DUP8 GAS STATICCALL DUP1 ISZERO PUSH2 0x13EF JUMPI PUSH1 0x0 SWAP1 PUSH2 0x27DB JUMPI JUMPDEST PUSH2 0x1FDE SWAP2 POP ISZERO ISZERO PUSH2 0x4277 JUMP JUMPDEST PUSH1 0x7 SLOAD SWAP2 PUSH2 0x1FEB DUP4 PUSH2 0x40BB JUMP JUMPDEST PUSH1 0x7 SSTORE PUSH2 0x1FF9 PUSH1 0x24 CALLDATALOAD PUSH2 0x484E JUMP JUMPDEST PUSH2 0x1F4 DUP2 GT ISZERO PUSH2 0x27D5 JUMPI DUP1 PUSH2 0x1F3 NOT DUP2 ADD GT PUSH2 0x737 JUMPI PUSH2 0x1F3 NOT ADD SWAP4 JUMPDEST PUSH1 0x20 PUSH1 0x1 DUP5 ADD SLOAD PUSH1 0x24 PUSH1 0x40 MLOAD DUP1 SWAP5 DUP2 SWAP4 PUSH4 0x8CDC1E87 PUSH1 0xE0 SHL DUP4 MSTORE PUSH1 0x4 DUP4 ADD MSTORE GAS STATICCALL SWAP1 DUP2 ISZERO PUSH2 0x13EF JUMPI PUSH1 0x0 SWAP2 PUSH2 0x27A3 JUMPI JUMPDEST POP DUP1 ISZERO PUSH2 0x2765 JUMPI DUP4 PUSH1 0x0 MSTORE PUSH1 0x9 PUSH1 0x20 MSTORE PUSH1 0x40 PUSH1 0x0 KECCAK256 SSTORE PUSH1 0x1 DUP3 ADD SLOAD SWAP4 PUSH2 0x206E PUSH1 0x4 SLOAD TIMESTAMP PUSH2 0x4108 JUMP JUMPDEST PUSH1 0x40 MLOAD SWAP6 PUSH2 0x207B DUP8 PUSH2 0x39B1 JUMP JUMPDEST DUP6 DUP8 MSTORE PUSH1 0x20 DUP8 ADD MSTORE CALLER PUSH1 0x40 DUP8 ADD MSTORE PUSH2 0x2094 PUSH1 0x24 CALLDATALOAD PUSH2 0x3A24 JUMP JUMPDEST PUSH1 0x24 CALLDATALOAD PUSH1 0x60 DUP8 ADD MSTORE PUSH1 0x40 MLOAD PUSH2 0x20B7 DUP2 PUSH2 0x20B0 DUP2 PUSH1 0x3 DUP10 ADD PUSH2 0x38FF JUMP JUMPDEST SUB DUP3 PUSH2 0x3A03 JUMP JUMPDEST PUSH1 0x80 DUP8 ADD MSTORE PUSH1 0x40 MLOAD PUSH2 0x20D0 DUP2 PUSH2 0x20B0 DUP2 PUSH1 0x4 DUP10 ADD PUSH2 0x38FF JUMP JUMPDEST PUSH1 0xA0 DUP8 ADD MSTORE PUSH1 0x40 MLOAD PUSH2 0x20E9 DUP2 PUSH2 0x20B0 DUP2 PUSH1 0x5 DUP10 ADD PUSH2 0x38FF JUMP JUMPDEST PUSH1 0xC0 DUP8 ADD MSTORE PUSH1 0x0 PUSH1 0xE0 DUP8 ADD MSTORE PUSH1 0x0 PUSH2 0x100 DUP8 ADD MSTORE PUSH1 0x0 PUSH2 0x120 DUP8 ADD MSTORE TIMESTAMP PUSH2 0x140 DUP8 ADD MSTORE PUSH2 0x160 DUP7 ADD MSTORE PUSH2 0x180 DUP6 ADD MSTORE PUSH1 0x1 PUSH2 0x1A0 DUP6 ADD MSTORE PUSH2 0x1C0 DUP5 ADD MSTORE PUSH1 0x40 MLOAD DUP1 PUSH1 0x20 DUP2 ADD LT PUSH1 0x1 PUSH1 0x1 PUSH1 0x40 SHL SUB PUSH1 0x20 DUP4 ADD GT OR PUSH2 0x1B2B JUMPI PUSH1 0x20 DUP2 ADD PUSH1 0x40 MSTORE PUSH1 0x0 DUP2 MSTORE PUSH2 0x1E0 DUP5 ADD MSTORE PUSH1 0x0 PUSH2 0x200 DUP5 ADD MSTORE DUP2 PUSH1 0x0 MSTORE PUSH1 0x6 PUSH1 0x20 MSTORE PUSH1 0x40 PUSH1 0x0 KECCAK256 DUP4 MLOAD DUP2 SSTORE PUSH1 0x20 DUP5 ADD MLOAD PUSH1 0x1 DUP3 ADD SSTORE PUSH1 0x2 DUP2 ADD PUSH1 0x1 DUP1 PUSH1 0xA0 SHL SUB PUSH1 0x40 DUP7 ADD MLOAD AND DUP2 SLOAD SWAP1 PUSH1 0x60 DUP8 ADD MLOAD PUSH2 0x2198 DUP2 PUSH2 0x3A24 JUMP JUMPDEST PUSH2 0x21A1 DUP2 PUSH2 0x3A24 JUMP JUMPDEST PUSH1 0x1 PUSH1 0x1 PUSH1 0xA8 SHL SUB NOT SWAP1 SWAP3 AND OR PUSH1 0xA0 SWAP2 SWAP1 SWAP2 SHL PUSH1 0xFF PUSH1 0xA0 SHL AND OR SWAP1 SSTORE PUSH1 0x80 DUP5 ADD MLOAD DUP1 MLOAD SWAP1 PUSH1 0x1 PUSH1 0x1 PUSH1 0x40 SHL SUB DUP3 GT PUSH2 0x1B2B JUMPI PUSH2 0x21E4 DUP3 PUSH2 0x181B PUSH1 0x3 DUP7 ADD SLOAD PUSH2 0x38C5 JUMP JUMPDEST PUSH1 0x20 SWAP1 PUSH1 0x1F DUP4 GT PUSH1 0x1 EQ PUSH2 0x26F3 JUMPI PUSH2 0x2214 SWAP3 SWAP2 PUSH1 0x0 SWAP2 DUP4 PUSH2 0x1B41 JUMPI POP POP DUP2 PUSH1 0x1 SHL SWAP2 PUSH1 0x0 NOT SWAP1 PUSH1 0x3 SHL SHR NOT AND OR SWAP1 JUMP JUMPDEST PUSH1 0x3 DUP3 ADD SSTORE JUMPDEST PUSH1 0xA0 DUP5 ADD MLOAD DUP1 MLOAD SWAP1 PUSH1 0x1 PUSH1 0x1 PUSH1 0x40 SHL SUB DUP3 GT PUSH2 0x1B2B JUMPI PUSH2 0x2241 DUP3 PUSH2 0x1882 PUSH1 0x4 DUP7 ADD SLOAD PUSH2 0x38C5 JUMP JUMPDEST PUSH1 0x20 SWAP1 PUSH1 0x1F DUP4 GT PUSH1 0x1 EQ PUSH2 0x2681 JUMPI PUSH2 0x2271 SWAP3 SWAP2 PUSH1 0x0 SWAP2 DUP4 PUSH2 0x1B41 JUMPI POP POP DUP2 PUSH1 0x1 SHL SWAP2 PUSH1 0x0 NOT SWAP1 PUSH1 0x3 SHL SHR NOT AND OR SWAP1 JUMP JUMPDEST PUSH1 0x4 DUP3 ADD SSTORE JUMPDEST PUSH1 0xC0 DUP5 ADD MLOAD DUP1 MLOAD SWAP1 PUSH1 0x1 PUSH1 0x1 PUSH1 0x40 SHL SUB DUP3 GT PUSH2 0x1B2B JUMPI PUSH2 0x229E DUP3 PUSH2 0x18E8 PUSH1 0x5 DUP7 ADD SLOAD PUSH2 0x38C5 JUMP JUMPDEST PUSH1 0x20 SWAP1 PUSH1 0x1F DUP4 GT PUSH1 0x1 EQ PUSH2 0x260F JUMPI PUSH2 0x22CE SWAP3 SWAP2 PUSH1 0x0 SWAP2 DUP4 PUSH2 0x1B41 JUMPI POP POP DUP2 PUSH1 0x1 SHL SWAP2 PUSH1 0x0 NOT SWAP1 PUSH1 0x3 SHL SHR NOT AND OR SWAP1 JUMP JUMPDEST PUSH1 0x5 DUP3 ADD SSTORE JUMPDEST PUSH1 0xE0 DUP5 ADD MLOAD PUSH1 0x6 DUP3 ADD SSTORE PUSH2 0x100 DUP5 ADD MLOAD PUSH1 0x7 DUP3 ADD SSTORE PUSH2 0x120 DUP5 ADD MLOAD PUSH1 0x8 DUP3 ADD SSTORE PUSH2 0x140 DUP5 ADD MLOAD PUSH1 0x9 DUP3 ADD SSTORE PUSH2 0x160 DUP5 ADD MLOAD PUSH1 0xA DUP3 ADD SSTORE PUSH2 0x180 DUP5 ADD MLOAD PUSH1 0xB DUP3 ADD SSTORE PUSH2 0x1A0 DUP5 ADD MLOAD PUSH1 0x6 DUP2 LT ISZERO PUSH2 0x39C JUMPI PUSH2 0x2331 SWAP1 PUSH1 0xC DUP4 ADD PUSH2 0x3E44 JUMP JUMPDEST PUSH2 0x1C0 DUP5 ADD MLOAD DUP1 MLOAD SWAP1 PUSH1 0x1 PUSH1 0x1 PUSH1 0x40 SHL SUB DUP3 GT PUSH2 0x1B2B JUMPI PUSH2 0x2359 DUP3 PUSH2 0x19AC PUSH1 0xD DUP7 ADD SLOAD PUSH2 0x38C5 JUMP JUMPDEST PUSH1 0x20 SWAP1 PUSH1 0x1F DUP4 GT PUSH1 0x1 EQ PUSH2 0x259D JUMPI PUSH2 0x2389 SWAP3 SWAP2 PUSH1 0x0 SWAP2 DUP4 PUSH2 0x1B41 JUMPI POP POP DUP2 PUSH1 0x1 SHL SWAP2 PUSH1 0x0 NOT SWAP1 PUSH1 0x3 SHL SHR NOT AND OR SWAP1 JUMP JUMPDEST PUSH1 0xD DUP3 ADD SSTORE JUMPDEST PUSH2 0x1E0 DUP5 ADD MLOAD SWAP4 DUP5 MLOAD PUSH1 0x1 PUSH1 0x1 PUSH1 0x40 SHL SUB DUP2 GT PUSH2 0x1B2B JUMPI PUSH1 0x20 SWAP6 PUSH2 0x23BA DUP3 PUSH2 0x1A16 PUSH1 0xE DUP8 ADD SLOAD PUSH2 0x38C5 JUMP JUMPDEST DUP7 SWAP1 PUSH1 0x1F DUP4 GT PUSH1 0x1 EQ PUSH2 0x2529 JUMPI DUP3 PUSH2 0x200 SWAP4 PUSH1 0xF SWAP6 SWAP4 PUSH2 0x23F0 SWAP4 PUSH1 0x0 SWAP3 PUSH2 0x1AAC JUMPI POP POP DUP2 PUSH1 0x1 SHL SWAP2 PUSH1 0x0 NOT SWAP1 PUSH1 0x3 SHL SHR NOT AND OR SWAP1 JUMP JUMPDEST PUSH1 0xE DUP6 ADD SSTORE JUMPDEST ADD MLOAD SWAP2 ADD SSTORE DUP2 PUSH1 0xFF NOT PUSH1 0x2 DUP2 PUSH1 0xA DUP6 ADD SLOAD AND OR PUSH1 0xA DUP5 ADD SSTORE DUP2 PUSH1 0xB DUP5 ADD SSTORE PUSH1 0x1 DUP4 ADD SLOAD SWAP3 PUSH1 0x40 MLOAD SWAP2 CALLER DUP4 MSTORE PUSH2 0x242C PUSH1 0x24 CALLDATALOAD PUSH2 0x3A24 JUMP JUMPDEST PUSH1 0x24 CALLDATALOAD DUP8 DUP5 ADD MSTORE PUSH1 0x60 PUSH1 0x40 DUP5 ADD MSTORE PUSH1 0x0 SWAP2 PUSH1 0x3 DUP2 ADD SLOAD PUSH2 0x244B DUP2 PUSH2 0x38C5 JUMP JUMPDEST SWAP3 DUP4 PUSH1 0x60 DUP8 ADD MSTORE PUSH1 0x1 DUP3 AND SWAP2 DUP3 PUSH1 0x0 EQ PUSH2 0x24FB JUMPI POP POP PUSH1 0x1 EQ PUSH2 0x24B1 JUMPI JUMPDEST POP POP SWAP1 DUP1 PUSH1 0x0 DUP1 MLOAD PUSH1 0x20 PUSH2 0x4A13 DUP4 CODECOPY DUP2 MLOAD SWAP2 MSTORE SWAP3 SUB SWAP1 LOG3 PUSH1 0x40 MLOAD SWAP1 DUP1 PUSH1 0x4 CALLDATALOAD PUSH32 0xF57507588A3F55547E832AD7906FC1C90A328D2C78895BC24ABF93C41E8568A0 PUSH1 0x0 DUP1 LOG3 DUP2 MSTORE RETURN JUMPDEST PUSH1 0x3 ADD PUSH1 0x0 SWAP1 DUP2 MSTORE DUP8 DUP2 KECCAK256 SWAP1 SWAP3 POP JUMPDEST DUP2 DUP4 LT PUSH2 0x24E3 JUMPI POP POP DUP2 ADD PUSH1 0x80 ADD DUP2 PUSH1 0x0 DUP1 MLOAD PUSH1 0x20 PUSH2 0x4A13 DUP4 CODECOPY DUP2 MLOAD SWAP2 MSTORE PUSH2 0x2469 JUMP JUMPDEST DUP1 SLOAD DUP4 DUP6 ADD PUSH1 0x80 ADD MSTORE DUP7 SWAP5 POP SWAP2 DUP8 ADD SWAP2 PUSH1 0x1 ADD PUSH2 0x24C0 JUMP JUMPDEST DUP7 SWAP6 POP PUSH1 0x80 SWAP4 POP PUSH1 0x0 DUP1 MLOAD PUSH1 0x20 PUSH2 0x4A13 DUP4 CODECOPY DUP2 MLOAD SWAP2 MSTORE SWAP7 SWAP5 SWAP3 POP AND DUP3 DUP5 ADD MSTORE ISZERO ISZERO PUSH1 0x5 SHL DUP3 ADD ADD SWAP2 SWAP3 PUSH2 0x2469 JUMP JUMPDEST SWAP1 PUSH1 0xE DUP6 ADD PUSH1 0x0 MSTORE DUP8 PUSH1 0x0 KECCAK256 SWAP2 PUSH1 0x0 JUMPDEST PUSH1 0x1F NOT DUP6 AND DUP2 LT PUSH2 0x2586 JUMPI POP SWAP3 PUSH1 0xF SWAP5 SWAP3 PUSH1 0x1 SWAP3 PUSH2 0x200 SWAP6 DUP4 PUSH1 0x1F NOT DUP2 AND LT PUSH2 0x256D JUMPI JUMPDEST POP POP POP DUP2 SHL ADD PUSH1 0xE DUP6 ADD SSTORE PUSH2 0x23F6 JUMP JUMPDEST ADD MLOAD PUSH1 0x0 NOT PUSH1 0xF8 DUP5 PUSH1 0x3 SHL AND SHR NOT AND SWAP1 SSTORE DUP10 DUP1 DUP1 PUSH2 0x255D JUMP JUMPDEST SWAP2 SWAP3 DUP10 PUSH1 0x1 DUP2 SWAP3 DUP7 DUP6 ADD MLOAD DUP2 SSTORE ADD SWAP5 ADD SWAP3 ADD PUSH2 0x2539 JUMP JUMPDEST SWAP2 SWAP1 PUSH1 0xD DUP5 ADD PUSH1 0x0 MSTORE PUSH1 0x20 PUSH1 0x0 KECCAK256 SWAP1 PUSH1 0x0 SWAP4 JUMPDEST PUSH1 0x1F NOT DUP5 AND DUP6 LT PUSH2 0x25F4 JUMPI PUSH1 0x1 SWAP5 POP DUP4 PUSH1 0x1F NOT DUP2 AND LT PUSH2 0x25DB JUMPI JUMPDEST POP POP POP DUP2 SHL ADD PUSH1 0xD DUP3 ADD SSTORE PUSH2 0x238F JUMP JUMPDEST ADD MLOAD PUSH1 0x0 NOT PUSH1 0xF8 DUP5 PUSH1 0x3 SHL AND SHR NOT AND SWAP1 SSTORE DUP7 DUP1 DUP1 PUSH2 0x25CB JUMP JUMPDEST DUP2 DUP2 ADD MLOAD DUP4 SSTORE PUSH1 0x20 SWAP5 DUP6 ADD SWAP5 PUSH1 0x1 SWAP1 SWAP4 ADD SWAP3 SWAP1 SWAP2 ADD SWAP1 PUSH2 0x25B0 JUMP JUMPDEST SWAP2 SWAP1 PUSH1 0x5 DUP5 ADD PUSH1 0x0 MSTORE PUSH1 0x20 PUSH1 0x0 KECCAK256 SWAP1 PUSH1 0x0 SWAP4 JUMPDEST PUSH1 0x1F NOT DUP5 AND DUP6 LT PUSH2 0x2666 JUMPI PUSH1 0x1 SWAP5 POP DUP4 PUSH1 0x1F NOT DUP2 AND LT PUSH2 0x264D JUMPI JUMPDEST POP POP POP DUP2 SHL ADD PUSH1 0x5 DUP3 ADD SSTORE PUSH2 0x22D4 JUMP JUMPDEST ADD MLOAD PUSH1 0x0 NOT PUSH1 0xF8 DUP5 PUSH1 0x3 SHL AND SHR NOT AND SWAP1 SSTORE DUP7 DUP1 DUP1 PUSH2 0x263D JUMP JUMPDEST DUP2 DUP2 ADD MLOAD DUP4 SSTORE PUSH1 0x20 SWAP5 DUP6 ADD SWAP5 PUSH1 0x1 SWAP1 SWAP4 ADD SWAP3 SWAP1 SWAP2 ADD SWAP1 PUSH2 0x2622 JUMP JUMPDEST SWAP2 SWAP1 PUSH1 0x4 DUP5 ADD PUSH1 0x0 MSTORE PUSH1 0x20 PUSH1 0x0 KECCAK256 SWAP1 PUSH1 0x0 SWAP4 JUMPDEST PUSH1 0x1F NOT DUP5 AND DUP6 LT PUSH2 0x26D8 JUMPI PUSH1 0x1 SWAP5 POP DUP4 PUSH1 0x1F NOT DUP2 AND LT PUSH2 0x26BF JUMPI JUMPDEST POP POP POP DUP2 SHL ADD PUSH1 0x4 DUP3 ADD SSTORE PUSH2 0x2277 JUMP JUMPDEST ADD MLOAD PUSH1 0x0 NOT PUSH1 0xF8 DUP5 PUSH1 0x3 SHL AND SHR NOT AND SWAP1 SSTORE DUP7 DUP1 DUP1 PUSH2 0x26AF JUMP JUMPDEST DUP2 DUP2 ADD MLOAD DUP4 SSTORE PUSH1 0x20 SWAP5 DUP6 ADD SWAP5 PUSH1 0x1 SWAP1 SWAP4 ADD SWAP3 SWAP1 SWAP2 ADD SWAP1 PUSH2 0x2694 JUMP JUMPDEST SWAP2 SWAP1 PUSH1 0x3 DUP5 ADD PUSH1 0x0 MSTORE PUSH1 0x20 PUSH1 0x0 KECCAK256 SWAP1 PUSH1 0x0 SWAP4 JUMPDEST PUSH1 0x1F NOT DUP5 AND DUP6 LT PUSH2 0x274A JUMPI PUSH1 0x1 SWAP5 POP DUP4 PUSH1 0x1F NOT DUP2 AND LT PUSH2 0x2731 JUMPI JUMPDEST POP POP POP DUP2 SHL ADD PUSH1 0x3 DUP3 ADD SSTORE PUSH2 0x221A JUMP JUMPDEST ADD MLOAD PUSH1 0x0 NOT PUSH1 0xF8 DUP5 PUSH1 0x3 SHL AND SHR NOT AND SWAP1 SSTORE DUP7 DUP1 DUP1 PUSH2 0x2721 JUMP JUMPDEST DUP2 DUP2 ADD MLOAD DUP4 SSTORE PUSH1 0x20 SWAP5 DUP6 ADD SWAP5 PUSH1 0x1 SWAP1 SWAP4 ADD SWAP3 SWAP1 SWAP2 ADD SWAP1 PUSH2 0x2706 JUMP JUMPDEST PUSH1 0x40 MLOAD PUSH3 0x461BCD PUSH1 0xE5 SHL DUP2 MSTORE PUSH1 0x20 PUSH1 0x4 DUP3 ADD MSTORE PUSH1 0x16 PUSH1 0x24 DUP3 ADD MSTORE PUSH22 0x4E6F20766F74696E6720706F77657220657869737473 PUSH1 0x50 SHL PUSH1 0x44 DUP3 ADD MSTORE PUSH1 0x64 SWAP1 REVERT JUMPDEST SWAP1 POP PUSH1 0x20 DUP2 RETURNDATASIZE PUSH1 0x20 GT PUSH2 0x27CD JUMPI JUMPDEST DUP2 PUSH2 0x27BE PUSH1 0x20 SWAP4 DUP4 PUSH2 0x3A03 JUMP JUMPDEST DUP2 ADD SUB SLT PUSH2 0x3B2 JUMPI MLOAD DUP6 PUSH2 0x2046 JUMP JUMPDEST RETURNDATASIZE SWAP2 POP PUSH2 0x27B1 JUMP JUMPDEST SWAP4 PUSH2 0x2016 JUMP JUMPDEST POP PUSH1 0x20 DUP2 RETURNDATASIZE PUSH1 0x20 GT PUSH2 0x2807 JUMPI JUMPDEST DUP2 PUSH2 0x27F5 PUSH1 0x20 SWAP4 DUP4 PUSH2 0x3A03 JUMP JUMPDEST DUP2 ADD SUB SLT PUSH2 0x3B2 JUMPI PUSH2 0x1FDE SWAP1 MLOAD PUSH2 0x1FD2 JUMP JUMPDEST RETURNDATASIZE SWAP2 POP PUSH2 0x27E8 JUMP JUMPDEST PUSH1 0x40 MLOAD PUSH3 0x461BCD PUSH1 0xE5 SHL DUP2 MSTORE PUSH1 0x20 PUSH1 0x4 DUP3 ADD MSTORE PUSH1 0x19 PUSH1 0x24 DUP3 ADD MSTORE PUSH32 0x496E73756666696369656E7420706F6C6C20737570706F727400000000000000 PUSH1 0x44 DUP3 ADD MSTORE PUSH1 0x64 SWAP1 REVERT JUMPDEST PUSH1 0x40 MLOAD PUSH3 0x461BCD PUSH1 0xE5 SHL DUP2 MSTORE PUSH1 0x20 PUSH1 0x4 DUP3 ADD MSTORE PUSH1 0xD PUSH1 0x24 DUP3 ADD MSTORE PUSH13 0x139BC81D9BDD195CC818D85CDD PUSH1 0x9A SHL PUSH1 0x44 DUP3 ADD MSTORE PUSH1 0x64 SWAP1 REVERT JUMPDEST PUSH1 0x40 MLOAD PUSH3 0x461BCD PUSH1 0xE5 SHL DUP2 MSTORE PUSH1 0x20 PUSH1 0x4 DUP3 ADD MSTORE PUSH1 0x11 PUSH1 0x24 DUP3 ADD MSTORE PUSH17 0x105B1C9958591E4818DBDB9D995C9D1959 PUSH1 0x7A SHL PUSH1 0x44 DUP3 ADD MSTORE PUSH1 0x64 SWAP1 REVERT JUMPDEST PUSH1 0x40 MLOAD PUSH3 0x461BCD PUSH1 0xE5 SHL DUP2 MSTORE PUSH1 0x20 PUSH1 0x4 DUP3 ADD MSTORE PUSH1 0x18 PUSH1 0x24 DUP3 ADD MSTORE PUSH32 0x506F6C6C206D75737420626520656E6465642066697273740000000000000000 PUSH1 0x44 DUP3 ADD MSTORE PUSH1 0x64 SWAP1 REVERT JUMPDEST CALLVALUE PUSH2 0x3B2 JUMPI PUSH1 0x0 CALLDATASIZE PUSH1 0x3 NOT ADD SLT PUSH2 0x3B2 JUMPI PUSH1 0x20 PUSH2 0x3DA PUSH2 0x416B JUMP JUMPDEST CALLVALUE PUSH2 0x3B2 JUMPI PUSH1 0x0 CALLDATASIZE PUSH1 0x3 NOT ADD SLT PUSH2 0x3B2 JUMPI PUSH1 0x2 SLOAD PUSH1 0x40 MLOAD PUSH1 0x1 PUSH1 0x1 PUSH1 0xA0 SHL SUB SWAP1 SWAP2 AND DUP2 MSTORE PUSH1 0x20 SWAP1 RETURN JUMPDEST CALLVALUE PUSH2 0x3B2 JUMPI PUSH1 0x40 CALLDATASIZE PUSH1 0x3 NOT ADD SLT PUSH2 0x3B2 JUMPI PUSH2 0x2964 PUSH2 0x3B99 JUMP JUMPDEST CALLER PUSH1 0x1 PUSH1 0x1 PUSH1 0xA0 SHL SUB DUP3 AND SUB PUSH2 0x2980 JUMPI PUSH2 0x668 SWAP1 PUSH1 0x4 CALLDATALOAD PUSH2 0x47D9 JUMP JUMPDEST PUSH1 0x40 MLOAD PUSH4 0x334BD919 PUSH1 0xE1 SHL DUP2 MSTORE PUSH1 0x4 SWAP1 REVERT JUMPDEST CALLVALUE PUSH2 0x3B2 JUMPI PUSH1 0x0 CALLDATASIZE PUSH1 0x3 NOT ADD SLT PUSH2 0x3B2 JUMPI PUSH1 0x20 PUSH1 0x40 MLOAD PUSH32 0x0 DUP2 MSTORE RETURN JUMPDEST CALLVALUE PUSH2 0x3B2 JUMPI PUSH1 0xA0 CALLDATASIZE PUSH1 0x3 NOT ADD SLT PUSH2 0x3B2 JUMPI PUSH1 0x24 CALLDATALOAD PUSH1 0x1 PUSH1 0x1 PUSH1 0x40 SHL SUB DUP2 GT PUSH2 0x3B2 JUMPI PUSH2 0x29FD SWAP1 CALLDATASIZE SWAP1 PUSH1 0x4 ADD PUSH2 0x3BBF JUMP JUMPDEST PUSH1 0x44 CALLDATALOAD PUSH1 0x1 PUSH1 0x1 PUSH1 0x40 SHL SUB DUP2 GT PUSH2 0x3B2 JUMPI PUSH2 0x2A1C SWAP1 CALLDATASIZE SWAP1 PUSH1 0x4 ADD PUSH2 0x3BBF JUMP JUMPDEST SWAP1 PUSH1 0x64 CALLDATALOAD PUSH1 0x1 PUSH1 0x1 PUSH1 0x40 SHL SUB DUP2 GT PUSH2 0x3B2 JUMPI PUSH2 0x2A3C SWAP1 CALLDATASIZE SWAP1 PUSH1 0x4 ADD PUSH2 0x3BBF JUMP JUMPDEST SWAP1 PUSH3 0x15180 PUSH1 0x84 CALLDATALOAD LT ISZERO DUP1 PUSH2 0x2E3F JUMPI JUMPDEST ISZERO PUSH2 0x2E07 JUMPI PUSH1 0xD SLOAD SWAP2 PUSH2 0x2A5E DUP4 PUSH2 0x40BB JUMP JUMPDEST PUSH1 0xD SSTORE PUSH2 0x2A6D PUSH1 0x84 CALLDATALOAD TIMESTAMP PUSH2 0x4108 JUMP JUMPDEST SWAP1 PUSH1 0x40 MLOAD SWAP5 PUSH2 0x2A7B DUP7 PUSH2 0x3995 JUMP JUMPDEST DUP5 DUP7 MSTORE PUSH1 0x4 CALLDATALOAD PUSH1 0x20 DUP8 ADD MSTORE CALLER PUSH1 0x40 DUP8 ADD MSTORE DUP4 PUSH1 0x60 DUP8 ADD MSTORE PUSH1 0x80 DUP7 ADD MSTORE PUSH1 0xA0 DUP6 ADD MSTORE PUSH1 0x0 PUSH1 0xC0 DUP6 ADD MSTORE PUSH1 0x0 PUSH1 0xE0 DUP6 ADD MSTORE TIMESTAMP PUSH2 0x100 DUP6 ADD MSTORE PUSH2 0x120 DUP5 ADD MSTORE PUSH1 0x0 PUSH2 0x140 DUP5 ADD MSTORE PUSH1 0x0 PUSH2 0x160 DUP5 ADD MSTORE DUP2 PUSH1 0x0 MSTORE PUSH1 0xC PUSH1 0x20 MSTORE PUSH1 0x40 PUSH1 0x0 KECCAK256 DUP4 MLOAD DUP2 SSTORE PUSH1 0x20 DUP5 ADD MLOAD PUSH1 0x1 DUP3 ADD SSTORE PUSH1 0x2 DUP2 ADD PUSH1 0x1 DUP1 PUSH1 0xA0 SHL SUB PUSH1 0x40 DUP7 ADD MLOAD AND PUSH12 0xFFFFFFFFFFFFFFFFFFFFFFFF PUSH1 0xA0 SHL DUP3 SLOAD AND OR SWAP1 SSTORE PUSH1 0x60 DUP5 ADD MLOAD DUP1 MLOAD SWAP1 PUSH1 0x1 PUSH1 0x1 PUSH1 0x40 SHL SUB DUP3 GT PUSH2 0x1B2B JUMPI PUSH2 0x2B31 DUP3 PUSH2 0x181B PUSH1 0x3 DUP7 ADD SLOAD PUSH2 0x38C5 JUMP JUMPDEST PUSH1 0x20 SWAP1 PUSH1 0x1F DUP4 GT PUSH1 0x1 EQ PUSH2 0x2D95 JUMPI PUSH2 0x2B61 SWAP3 SWAP2 PUSH1 0x0 SWAP2 DUP4 PUSH2 0x1B41 JUMPI POP POP DUP2 PUSH1 0x1 SHL SWAP2 PUSH1 0x0 NOT SWAP1 PUSH1 0x3 SHL SHR NOT AND OR SWAP1 JUMP JUMPDEST PUSH1 0x3 DUP3 ADD SSTORE JUMPDEST PUSH1 0x80 DUP5 ADD MLOAD DUP1 MLOAD SWAP1 PUSH1 0x1 PUSH1 0x1 PUSH1 0x40 SHL SUB DUP3 GT PUSH2 0x1B2B JUMPI PUSH2 0x2B8E DUP3 PUSH2 0x1882 PUSH1 0x4 DUP7 ADD SLOAD PUSH2 0x38C5 JUMP JUMPDEST PUSH1 0x20 SWAP1 PUSH1 0x1F DUP4 GT PUSH1 0x1 EQ PUSH2 0x2D27 JUMPI PUSH2 0x2BBE SWAP3 SWAP2 PUSH1 0x0 SWAP2 DUP4 PUSH2 0x1B41 JUMPI POP POP DUP2 PUSH1 0x1 SHL SWAP2 PUSH1 0x0 NOT SWAP1 PUSH1 0x3 SHL SHR NOT AND OR SWAP1 JUMP JUMPDEST PUSH1 0x4 DUP3 ADD SSTORE JUMPDEST PUSH1 0xA0 DUP5 ADD MLOAD DUP1 MLOAD SWAP1 PUSH1 0x1 PUSH1 0x1 PUSH1 0x40 SHL SUB DUP3 GT PUSH2 0x1B2B JUMPI PUSH2 0x2BEB DUP3 PUSH2 0x18E8 PUSH1 0x5 DUP7 ADD SLOAD PUSH2 0x38C5 JUMP JUMPDEST PUSH1 0x20 SWAP1 PUSH1 0x1F DUP4 GT PUSH1 0x1 EQ PUSH2 0x2CB9 JUMPI PUSH2 0x2C1B SWAP3 SWAP2 PUSH1 0x0 SWAP2 DUP4 PUSH2 0x1B41 JUMPI POP POP DUP2 PUSH1 0x1 SHL SWAP2 PUSH1 0x0 NOT SWAP1 PUSH1 0x3 SHL SHR NOT AND OR SWAP1 JUMP JUMPDEST PUSH1 0x5 DUP3 ADD SSTORE JUMPDEST PUSH1 0xC0 DUP5 ADD MLOAD PUSH1 0x6 DUP3 ADD SSTORE PUSH1 0xE0 DUP5 ADD MLOAD PUSH1 0x7 DUP3 ADD SSTORE PUSH2 0x100 DUP5 ADD MLOAD PUSH1 0x8 DUP3 ADD SSTORE PUSH2 0x120 DUP5 ADD MLOAD PUSH1 0x9 DUP3 ADD SSTORE PUSH1 0xA DUP2 ADD PUSH2 0x140 DUP6 ADD MLOAD PUSH1 0x3 DUP2 LT ISZERO PUSH2 0x39C JUMPI PUSH1 0x20 SWAP6 PUSH1 0xB SWAP3 PUSH2 0x160 SWAP3 PUSH1 0xFF DUP1 NOT DUP4 SLOAD AND SWAP2 AND OR SWAP1 SSTORE ADD MLOAD SWAP2 ADD SSTORE DUP2 PUSH32 0x658FCCFC8DE51891B480D49E504FBB0F8F9B43F13522A475D1729A74531A9E22 PUSH1 0x40 MLOAD CALLER DUP2 MSTORE PUSH1 0x40 DUP7 DUP3 ADD MSTORE DUP1 PUSH2 0x1AA1 PUSH1 0x4 CALLDATALOAD SWAP6 PUSH1 0x40 DUP4 ADD SWAP1 PUSH2 0x3A2E JUMP JUMPDEST SWAP1 PUSH1 0x1F NOT DUP4 AND SWAP2 PUSH1 0x5 DUP6 ADD PUSH1 0x0 MSTORE PUSH1 0x20 PUSH1 0x0 KECCAK256 SWAP3 PUSH1 0x0 JUMPDEST DUP2 DUP2 LT PUSH2 0x2D0F JUMPI POP SWAP1 DUP5 PUSH1 0x1 SWAP6 SWAP5 SWAP4 SWAP3 LT PUSH2 0x2CF6 JUMPI JUMPDEST POP POP POP DUP2 SHL ADD PUSH1 0x5 DUP3 ADD SSTORE PUSH2 0x2C21 JUMP JUMPDEST ADD MLOAD PUSH1 0x0 NOT PUSH1 0xF8 DUP5 PUSH1 0x3 SHL AND SHR NOT AND SWAP1 SSTORE DUP7 DUP1 DUP1 PUSH2 0x2CE6 JUMP JUMPDEST SWAP3 SWAP4 PUSH1 0x20 PUSH1 0x1 DUP2 SWAP3 DUP8 DUP7 ADD MLOAD DUP2 SSTORE ADD SWAP6 ADD SWAP4 ADD PUSH2 0x2CD0 JUMP JUMPDEST SWAP1 PUSH1 0x1F NOT DUP4 AND SWAP2 PUSH1 0x4 DUP6 ADD PUSH1 0x0 MSTORE PUSH1 0x20 PUSH1 0x0 KECCAK256 SWAP3 PUSH1 0x0 JUMPDEST DUP2 DUP2 LT PUSH2 0x2D7D JUMPI POP SWAP1 DUP5 PUSH1 0x1 SWAP6 SWAP5 SWAP4 SWAP3 LT PUSH2 0x2D64 JUMPI JUMPDEST POP POP POP DUP2 SHL ADD PUSH1 0x4 DUP3 ADD SSTORE PUSH2 0x2BC4 JUMP JUMPDEST ADD MLOAD PUSH1 0x0 NOT PUSH1 0xF8 DUP5 PUSH1 0x3 SHL AND SHR NOT AND SWAP1 SSTORE DUP7 DUP1 DUP1 PUSH2 0x2D54 JUMP JUMPDEST SWAP3 SWAP4 PUSH1 0x20 PUSH1 0x1 DUP2 SWAP3 DUP8 DUP7 ADD MLOAD DUP2 SSTORE ADD SWAP6 ADD SWAP4 ADD PUSH2 0x2D3E JUMP JUMPDEST SWAP2 SWAP1 PUSH1 0x3 DUP5 ADD PUSH1 0x0 MSTORE PUSH1 0x20 PUSH1 0x0 KECCAK256 SWAP1 PUSH1 0x0 SWAP4 JUMPDEST PUSH1 0x1F NOT DUP5 AND DUP6 LT PUSH2 0x2DEC JUMPI PUSH1 0x1 SWAP5 POP DUP4 PUSH1 0x1F NOT DUP2 AND LT PUSH2 0x2DD3 JUMPI JUMPDEST POP POP POP DUP2 SHL ADD PUSH1 0x3 DUP3 ADD SSTORE PUSH2 0x2B67 JUMP JUMPDEST ADD MLOAD PUSH1 0x0 NOT PUSH1 0xF8 DUP5 PUSH1 0x3 SHL AND SHR NOT AND SWAP1 SSTORE DUP7 DUP1 DUP1 PUSH2 0x2DC3 JUMP JUMPDEST DUP2 DUP2 ADD MLOAD DUP4 SSTORE PUSH1 0x20 SWAP5 DUP6 ADD SWAP5 PUSH1 0x1 SWAP1 SWAP4 ADD SWAP3 SWAP1 SWAP2 ADD SWAP1 PUSH2 0x2DA8 JUMP JUMPDEST PUSH1 0x40 MLOAD PUSH3 0x461BCD PUSH1 0xE5 SHL DUP2 MSTORE PUSH1 0x20 PUSH1 0x4 DUP3 ADD MSTORE PUSH1 0x10 PUSH1 0x24 DUP3 ADD MSTORE PUSH16 0x24B73B30B634B210323AB930BA34B7B7 PUSH1 0x81 SHL PUSH1 0x44 DUP3 ADD MSTORE PUSH1 0x64 SWAP1 REVERT JUMPDEST POP PUSH3 0x278D00 PUSH1 0x84 CALLDATALOAD GT ISZERO PUSH2 0x2A4C JUMP JUMPDEST CALLVALUE PUSH2 0x3B2 JUMPI PUSH1 0x0 CALLDATASIZE PUSH1 0x3 NOT ADD SLT PUSH2 0x3B2 JUMPI PUSH2 0x2E67 PUSH2 0x4552 JUMP JUMPDEST PUSH1 0x40 MLOAD PUSH2 0x2E73 DUP2 PUSH2 0x39E8 JUMP JUMPDEST PUSH1 0x80 CALLDATASIZE DUP3 CALLDATACOPY PUSH1 0x12 DUP1 SLOAD PUSH2 0x2EB6 JUMPI JUMPDEST PUSH1 0x40 MLOAD PUSH32 0x229301218EF01CA6B8DA4D31650C5FDF0265077519DFBBFAF6F3254AA666450B SWAP1 DUP1 PUSH2 0x2EB1 DUP6 DUP3 PUSH2 0x3A7B JUMP JUMPDEST SUB SWAP1 LOG1 STOP JUMPDEST PUSH1 0x0 JUMPDEST PUSH1 0x4 DUP2 LT PUSH2 0x2EC7 JUMPI POP PUSH2 0x2E81 JUMP JUMPDEST PUSH2 0x2ED0 DUP2 PUSH2 0x3A24 JUMP JUMPDEST PUSH2 0x2ED9 DUP2 PUSH2 0x3A24 JUMP JUMPDEST DUP1 PUSH1 0x0 MSTORE PUSH1 0x20 SWAP1 PUSH1 0x10 DUP3 MSTORE PUSH1 0x40 PUSH1 0x0 KECCAK256 SLOAD SWAP2 PUSH2 0x2710 SWAP3 DUP4 DUP2 MUL SWAP4 DUP2 DUP6 DIV EQ SWAP1 ISZERO OR ISZERO PUSH2 0x737 JUMPI PUSH2 0x2F0D PUSH1 0x1 SWAP4 DUP6 SLOAD SWAP1 PUSH2 0x3D57 JUMP JUMPDEST PUSH2 0x2F17 DUP4 DUP8 PUSH2 0x3D77 JUMP JUMPDEST MSTORE PUSH1 0x11 PUSH2 0x2F24 DUP4 DUP8 PUSH2 0x3D77 JUMP JUMPDEST MLOAD SWAP2 PUSH2 0x2F2F DUP5 PUSH2 0x3A24 JUMP JUMPDEST DUP4 PUSH1 0x0 MSTORE MSTORE PUSH1 0x40 PUSH1 0x0 KECCAK256 SSTORE ADD PUSH2 0x2EB9 JUMP JUMPDEST CALLVALUE PUSH2 0x3B2 JUMPI PUSH1 0x40 CALLDATASIZE PUSH1 0x3 NOT ADD SLT PUSH2 0x3B2 JUMPI PUSH2 0x668 PUSH1 0x4 CALLDATALOAD PUSH2 0x2F5F PUSH2 0x3B99 JUMP JUMPDEST SWAP1 DUP1 PUSH1 0x0 MSTORE PUSH1 0x0 PUSH1 0x20 MSTORE PUSH2 0x2F7A PUSH1 0x1 PUSH1 0x40 PUSH1 0x0 KECCAK256 ADD SLOAD PUSH2 0x45E8 JUMP JUMPDEST PUSH2 0x475B JUMP JUMPDEST CALLVALUE PUSH2 0x3B2 JUMPI PUSH1 0xE0 CALLDATASIZE PUSH1 0x3 NOT ADD SLT PUSH2 0x3B2 JUMPI PUSH2 0x2F98 PUSH2 0x3BAF JUMP JUMPDEST PUSH1 0x44 CALLDATALOAD PUSH1 0x1 PUSH1 0x1 PUSH1 0xA0 SHL SUB DUP2 AND SWAP1 SUB PUSH2 0x3B2 JUMPI PUSH1 0xFF PUSH1 0x84 CALLDATALOAD AND PUSH1 0x84 CALLDATALOAD SUB PUSH2 0x3B2 JUMPI CALLER PUSH1 0x0 SWAP1 DUP2 MSTORE PUSH32 0xFAF93C3D007E112089DC8351E013E6685EF67703975D0224B26FC45941D4F1F5 PUSH1 0x20 MSTORE PUSH1 0x40 SWAP1 KECCAK256 SLOAD PUSH32 0xE2B7FB3B832174769106DAEBCFD6D1970523240DDA11281102DB9363B83B0DC4 SWAP1 PUSH1 0xFF AND ISZERO PUSH2 0x33EA JUMPI POP PUSH2 0x301B PUSH2 0x460E JUMP JUMPDEST PUSH1 0x64 CALLDATALOAD TIMESTAMP GT PUSH2 0x33B1 JUMPI PUSH1 0x4 CALLDATALOAD PUSH1 0x0 MSTORE PUSH1 0x6 PUSH1 0x20 MSTORE PUSH1 0x40 PUSH1 0x0 KECCAK256 PUSH1 0xFF PUSH1 0xC DUP3 ADD SLOAD AND PUSH1 0x6 DUP2 LT ISZERO PUSH2 0x39C JUMPI PUSH1 0x1 PUSH2 0x3051 SWAP2 EQ PUSH2 0x3F81 JUMP JUMPDEST PUSH2 0x3061 PUSH1 0x9 DUP3 ADD SLOAD TIMESTAMP LT ISZERO PUSH2 0x3FC3 JUMP JUMPDEST PUSH2 0x3070 PUSH1 0xA DUP3 ADD SLOAD TIMESTAMP LT PUSH2 0x4004 JUMP JUMPDEST PUSH2 0x3080 PUSH1 0x2 PUSH1 0xFF DUP5 AND GT ISZERO PUSH2 0x403F JUMP JUMPDEST PUSH1 0x4 CALLDATALOAD PUSH1 0x0 MSTORE PUSH1 0x8 PUSH1 0x20 MSTORE PUSH1 0x40 PUSH1 0x0 KECCAK256 PUSH1 0x1 DUP1 PUSH1 0xA0 SHL SUB PUSH1 0x44 CALLDATALOAD AND PUSH1 0x0 MSTORE PUSH1 0x20 MSTORE PUSH1 0x40 PUSH1 0x0 KECCAK256 SWAP1 PUSH2 0x30B5 PUSH1 0xFF DUP4 SLOAD AND ISZERO PUSH2 0x407F JUMP JUMPDEST PUSH1 0x44 CALLDATALOAD PUSH1 0x1 PUSH1 0x1 PUSH1 0xA0 SHL SUB AND PUSH1 0x0 SWAP1 DUP2 MSTORE PUSH1 0x3 PUSH1 0x20 MSTORE PUSH1 0x40 SWAP1 KECCAK256 DUP1 SLOAD SWAP1 PUSH2 0x30DB DUP3 PUSH2 0x40BB JUMP JUMPDEST SWAP1 SSTORE PUSH1 0x40 MLOAD SWAP1 PUSH1 0x20 DUP3 ADD SWAP1 PUSH32 0xA122AEDC7C2408A97BCFE5D8FF1F6A6D7BF779A8B6DD3D72FF503E8FCF9D2EB9 DUP3 MSTORE PUSH1 0x4 CALLDATALOAD PUSH1 0x40 DUP5 ADD MSTORE PUSH1 0xFF DUP7 AND PUSH1 0x60 DUP5 ADD MSTORE PUSH1 0x1 DUP1 PUSH1 0xA0 SHL SUB PUSH1 0x44 CALLDATALOAD AND PUSH1 0x80 DUP5 ADD MSTORE PUSH1 0xA0 DUP4 ADD MSTORE PUSH1 0x64 CALLDATALOAD PUSH1 0xC0 DUP4 ADD MSTORE PUSH1 0xC0 DUP3 MSTORE PUSH1 0xE0 DUP3 ADD DUP3 DUP2 LT PUSH1 0x1 PUSH1 0x1 PUSH1 0x40 SHL SUB DUP3 GT OR PUSH2 0x1B2B JUMPI PUSH2 0x31C5 SWAP3 PUSH2 0x31BC SWAP3 DUP3 PUSH1 0x40 MSTORE DUP2 MLOAD SWAP1 KECCAK256 PUSH2 0x122 PUSH2 0x100 DUP4 ADD SWAP3 PUSH2 0x1901 PUSH1 0xF0 SHL DUP5 MSTORE PUSH32 0x0 PUSH2 0x102 DUP3 ADD MSTORE ADD MSTORE PUSH1 0x42 DUP3 MSTORE PUSH2 0x31A8 DUP3 PUSH2 0x39E8 JUMP JUMPDEST PUSH1 0xC4 CALLDATALOAD SWAP2 PUSH1 0xA4 CALLDATALOAD SWAP2 PUSH1 0x84 CALLDATALOAD SWAP2 MLOAD SWAP1 KECCAK256 PUSH2 0x48F7 JUMP JUMPDEST SWAP1 SWAP3 SWAP2 SWAP3 PUSH2 0x4987 JUMP JUMPDEST PUSH1 0x1 PUSH1 0x1 PUSH1 0xA0 SHL SUB PUSH1 0x44 CALLDATALOAD DUP2 AND SWAP2 AND SUB PUSH2 0x3378 JUMPI PUSH1 0x2 SLOAD PUSH1 0x1 DUP3 ADD SLOAD PUSH1 0x40 MLOAD PUSH4 0x6DED6A19 PUSH1 0xE1 SHL DUP2 MSTORE PUSH1 0x4 DUP2 ADD SWAP2 SWAP1 SWAP2 MSTORE PUSH1 0x1 PUSH1 0x1 PUSH1 0xA0 SHL SUB PUSH1 0x44 DUP1 CALLDATALOAD DUP3 AND PUSH1 0x24 DUP5 ADD MSTORE SWAP2 SWAP5 SWAP3 PUSH1 0x20 SWAP3 DUP7 SWAP3 SWAP1 SWAP2 DUP4 SWAP2 AND GAS STATICCALL SWAP3 DUP4 ISZERO PUSH2 0x13EF JUMPI PUSH1 0x0 SWAP4 PUSH2 0x3341 JUMPI JUMPDEST POP PUSH1 0xFF PUSH1 0x2 PUSH2 0x32C4 SWAP4 DUP6 PUSH1 0x1 DUP2 SWAP6 PUSH2 0x3240 DUP4 ISZERO ISZERO PUSH2 0x40CA JUMP JUMPDEST DUP1 SLOAD PUSH2 0xFF00 PUSH1 0x8 DUP13 SWAP1 SHL AND DUP8 NOT SWAP1 SWAP2 AND DUP4 OR PUSH2 0xFF00 NOT AND OR DUP2 SSTORE ADD SSTORE DUP7 DUP4 AND PUSH2 0x3312 JUMPI PUSH1 0x7 DUP2 ADD PUSH2 0x3272 DUP6 DUP3 SLOAD PUSH2 0x4108 JUMP JUMPDEST SWAP1 SSTORE JUMPDEST PUSH1 0x44 CALLDATALOAD PUSH1 0x1 PUSH1 0x1 PUSH1 0xA0 SHL SUB AND PUSH1 0x0 SWAP1 DUP2 MSTORE PUSH1 0xA PUSH1 0x20 MSTORE PUSH1 0x40 SWAP1 KECCAK256 DUP1 SLOAD PUSH2 0x329A SWAP1 PUSH2 0x40BB JUMP JUMPDEST SWAP1 SSTORE PUSH1 0x44 CALLDATALOAD PUSH1 0x1 PUSH1 0x1 PUSH1 0xA0 SHL SUB AND PUSH1 0x0 SWAP1 DUP2 MSTORE PUSH1 0xB PUSH1 0x20 MSTORE PUSH1 0x40 SWAP1 KECCAK256 TIMESTAMP SWAP1 SSTORE ADD SLOAD PUSH1 0xA0 SHR AND PUSH2 0x4631 JUMP JUMPDEST PUSH1 0xFF PUSH1 0x40 MLOAD SWAP3 AND DUP3 MSTORE PUSH1 0x20 DUP3 ADD MSTORE CALLER PUSH1 0x40 DUP3 ADD MSTORE PUSH1 0x1 DUP1 PUSH1 0xA0 SHL SUB PUSH1 0x44 CALLDATALOAD AND SWAP1 PUSH32 0xB7A759F14619C0391B65E3F8CEB8FD342A3E24929E81D83493445A4A1C87D0FC PUSH1 0x60 PUSH1 0x4 CALLDATALOAD SWAP3 LOG3 PUSH1 0x1 DUP1 SSTORE STOP JUMPDEST DUP7 DUP4 AND PUSH1 0x1 SUB PUSH2 0x3332 JUMPI PUSH1 0x6 DUP2 ADD PUSH2 0x332B DUP6 DUP3 SLOAD PUSH2 0x4108 JUMP JUMPDEST SWAP1 SSTORE PUSH2 0x3275 JUMP JUMPDEST PUSH1 0x8 DUP2 ADD PUSH2 0x332B DUP6 DUP3 SLOAD PUSH2 0x4108 JUMP JUMPDEST SWAP2 SWAP3 POP PUSH1 0x20 DUP3 RETURNDATASIZE PUSH1 0x20 GT PUSH2 0x3370 JUMPI JUMPDEST DUP2 PUSH2 0x335D PUSH1 0x20 SWAP4 DUP4 PUSH2 0x3A03 JUMP JUMPDEST DUP2 ADD SUB SLT PUSH2 0x3B2 JUMPI SWAP1 MLOAD SWAP2 SWAP1 PUSH1 0xFF PUSH2 0x3227 JUMP JUMPDEST RETURNDATASIZE SWAP2 POP PUSH2 0x3350 JUMP JUMPDEST PUSH1 0x40 MLOAD PUSH3 0x461BCD PUSH1 0xE5 SHL DUP2 MSTORE PUSH1 0x20 PUSH1 0x4 DUP3 ADD MSTORE PUSH1 0x11 PUSH1 0x24 DUP3 ADD MSTORE PUSH17 0x496E76616C6964207369676E6174757265 PUSH1 0x78 SHL PUSH1 0x44 DUP3 ADD MSTORE PUSH1 0x64 SWAP1 REVERT JUMPDEST PUSH1 0x40 MLOAD PUSH3 0x461BCD PUSH1 0xE5 SHL DUP2 MSTORE PUSH1 0x20 PUSH1 0x4 DUP3 ADD MSTORE PUSH1 0x11 PUSH1 0x24 DUP3 ADD MSTORE PUSH17 0x14DA59DB985D1D5C9948195E1C1A5C9959 PUSH1 0x7A SHL PUSH1 0x44 DUP3 ADD MSTORE PUSH1 0x64 SWAP1 REVERT JUMPDEST PUSH1 0x44 SWAP1 PUSH1 0x40 MLOAD SWAP1 PUSH4 0xE2517D3F PUSH1 0xE0 SHL DUP3 MSTORE CALLER PUSH1 0x4 DUP4 ADD MSTORE PUSH1 0x24 DUP3 ADD MSTORE REVERT JUMPDEST CALLVALUE PUSH2 0x3B2 JUMPI PUSH1 0x0 CALLDATASIZE PUSH1 0x3 NOT ADD SLT PUSH2 0x3B2 JUMPI PUSH1 0x20 PUSH1 0x40 MLOAD PUSH2 0x9C4 DUP2 MSTORE RETURN JUMPDEST CALLVALUE PUSH2 0x3B2 JUMPI PUSH1 0x20 CALLDATASIZE PUSH1 0x3 NOT ADD SLT PUSH2 0x3B2 JUMPI PUSH1 0x4 CALLDATALOAD PUSH1 0x0 MSTORE PUSH1 0x0 PUSH1 0x20 MSTORE PUSH1 0x20 PUSH1 0x1 PUSH1 0x40 PUSH1 0x0 KECCAK256 ADD SLOAD PUSH1 0x40 MLOAD SWAP1 DUP2 MSTORE RETURN JUMPDEST CALLVALUE PUSH2 0x3B2 JUMPI PUSH1 0x20 CALLDATASIZE PUSH1 0x3 NOT ADD SLT PUSH2 0x3B2 JUMPI PUSH2 0x346D PUSH2 0x3E5C JUMP JUMPDEST POP PUSH1 0x4 CALLDATALOAD PUSH1 0x0 MSTORE PUSH1 0xC PUSH1 0x20 MSTORE PUSH2 0x7A1 PUSH2 0x3489 PUSH1 0x40 PUSH1 0x0 KECCAK256 PUSH2 0x3EB8 JUMP JUMPDEST PUSH1 0x40 MLOAD SWAP2 DUP3 SWAP2 PUSH1 0x20 DUP4 MSTORE PUSH1 0x20 DUP4 ADD SWAP1 PUSH2 0x3AB6 JUMP JUMPDEST CALLVALUE PUSH2 0x3B2 JUMPI PUSH1 0x20 CALLDATASIZE PUSH1 0x3 NOT ADD SLT PUSH2 0x3B2 JUMPI PUSH1 0x4 CALLDATALOAD PUSH1 0x4 DUP2 LT ISZERO PUSH2 0x3B2 JUMPI PUSH2 0x34C3 DUP2 PUSH2 0x3A24 JUMP JUMPDEST PUSH1 0x0 MSTORE PUSH1 0x11 PUSH1 0x20 MSTORE PUSH1 0x20 PUSH1 0x40 PUSH1 0x0 KECCAK256 SLOAD PUSH1 0x40 MLOAD SWAP1 DUP2 MSTORE RETURN JUMPDEST CALLVALUE PUSH2 0x3B2 JUMPI PUSH1 0x20 CALLDATASIZE PUSH1 0x3 NOT ADD SLT PUSH2 0x3B2 JUMPI PUSH1 0x4 CALLDATALOAD PUSH1 0x4 DUP2 LT ISZERO PUSH2 0x3B2 JUMPI PUSH2 0x3501 DUP2 PUSH2 0x3A24 JUMP JUMPDEST PUSH1 0x0 MSTORE PUSH1 0x10 PUSH1 0x20 MSTORE PUSH1 0x20 PUSH1 0x40 PUSH1 0x0 KECCAK256 SLOAD PUSH1 0x40 MLOAD SWAP1 DUP2 MSTORE RETURN JUMPDEST CALLVALUE PUSH2 0x3B2 JUMPI PUSH1 0x20 CALLDATASIZE PUSH1 0x3 NOT ADD SLT PUSH2 0x3B2 JUMPI CALLER PUSH1 0x0 SWAP1 DUP2 MSTORE PUSH32 0xDAE2AA361DFD1CA020A396615627D436107C35EFF9FE7738A3512819782D7069 PUSH1 0x20 MSTORE PUSH1 0x40 SWAP1 KECCAK256 SLOAD PUSH1 0x4 CALLDATALOAD SWAP1 PUSH32 0xD8AA0F3194971A2A116679F7C2090F6939C8D4E01A2A8D7E41D55E5351469E63 SWAP1 PUSH1 0xFF AND ISZERO PUSH2 0x33EA JUMPI POP PUSH2 0x3590 PUSH2 0x460E JUMP JUMPDEST DUP1 PUSH1 0x0 MSTORE PUSH1 0x6 PUSH1 0x20 MSTORE PUSH1 0xC PUSH1 0x40 PUSH1 0x0 KECCAK256 ADD DUP1 SLOAD PUSH1 0xFF DUP2 AND PUSH1 0x6 DUP2 LT ISZERO PUSH2 0x39C JUMPI PUSH1 0x2 SUB PUSH2 0x35EB JUMPI PUSH1 0xFF NOT AND PUSH1 0x4 OR SWAP1 SSTORE PUSH32 0x712AE1383F79AC853F8D882153778E0260EF8F03B504E2866E0593E04D2B291F PUSH1 0x0 DUP1 LOG2 PUSH1 0x1 DUP1 SSTORE STOP JUMPDEST PUSH1 0x40 MLOAD PUSH3 0x461BCD PUSH1 0xE5 SHL DUP2 MSTORE PUSH1 0x20 PUSH1 0x4 DUP3 ADD MSTORE PUSH1 0x16 PUSH1 0x24 DUP3 ADD MSTORE PUSH22 0x141C9BDC1BDCD85B081B9BDD081CDD58D8D959591959 PUSH1 0x52 SHL PUSH1 0x44 DUP3 ADD MSTORE PUSH1 0x64 SWAP1 REVERT JUMPDEST CALLVALUE PUSH2 0x3B2 JUMPI PUSH1 0x0 CALLDATASIZE PUSH1 0x3 NOT ADD SLT PUSH2 0x3B2 JUMPI PUSH2 0x7A1 PUSH2 0x3645 PUSH2 0x3D9E JUMP JUMPDEST PUSH1 0x40 MLOAD SWAP2 DUP3 SWAP2 DUP3 PUSH2 0x3A7B JUMP JUMPDEST CALLVALUE PUSH2 0x3B2 JUMPI PUSH1 0x0 CALLDATASIZE PUSH1 0x3 NOT ADD SLT PUSH2 0x3B2 JUMPI PUSH1 0x20 PUSH1 0x40 MLOAD PUSH32 0xD8AA0F3194971A2A116679F7C2090F6939C8D4E01A2A8D7E41D55E5351469E63 DUP2 MSTORE RETURN JUMPDEST CALLVALUE PUSH2 0x3B2 JUMPI PUSH1 0x0 CALLDATASIZE PUSH1 0x3 NOT ADD SLT PUSH2 0x3B2 JUMPI PUSH1 0x20 PUSH1 0x4 SLOAD PUSH1 0x40 MLOAD SWAP1 DUP2 MSTORE RETURN JUMPDEST CALLVALUE PUSH2 0x3B2 JUMPI PUSH1 0x20 CALLDATASIZE PUSH1 0x3 NOT ADD SLT PUSH2 0x3B2 JUMPI PUSH1 0x4 CALLDATALOAD PUSH4 0xFFFFFFFF PUSH1 0xE0 SHL DUP2 AND DUP1 SWAP2 SUB PUSH2 0x3B2 JUMPI PUSH1 0x20 SWAP1 PUSH4 0x7965DB0B PUSH1 0xE0 SHL DUP2 EQ SWAP1 DUP2 ISZERO PUSH2 0x36EF JUMPI JUMPDEST POP PUSH1 0x40 MLOAD SWAP1 ISZERO ISZERO DUP2 MSTORE RETURN JUMPDEST PUSH4 0x1FFC9A7 PUSH1 0xE0 SHL EQ SWAP1 POP DUP3 PUSH2 0x36E4 JUMP JUMPDEST CALLVALUE PUSH2 0x3B2 JUMPI PUSH1 0x20 CALLDATASIZE PUSH1 0x3 NOT ADD SLT PUSH2 0x3B2 JUMPI PUSH1 0x4 CALLDATALOAD PUSH1 0x0 MSTORE PUSH1 0x6 PUSH1 0x20 MSTORE PUSH1 0x40 PUSH1 0x0 KECCAK256 DUP1 SLOAD SWAP1 PUSH1 0x1 DUP2 ADD SLOAD PUSH1 0x2 DUP3 ADD SLOAD SWAP2 PUSH1 0x80 DUP1 PUSH1 0x3 DUP4 ADD SWAP1 PUSH2 0x3740 SWAP2 PUSH2 0x38FF JUMP JUMPDEST SUB PUSH1 0x80 SWAP1 PUSH2 0x374D SWAP2 PUSH2 0x3A03 JUMP JUMPDEST PUSH1 0x40 MLOAD DUP1 PUSH2 0x375E DUP2 PUSH1 0x4 DUP6 ADD PUSH2 0x38FF JUMP JUMPDEST SUB PUSH2 0x3769 SWAP1 DUP3 PUSH2 0x3A03 JUMP JUMPDEST PUSH1 0x40 MLOAD DUP1 PUSH2 0x377A DUP2 PUSH1 0x5 DUP7 ADD PUSH2 0x38FF JUMP JUMPDEST SUB PUSH2 0x3785 SWAP1 DUP3 PUSH2 0x3A03 JUMP JUMPDEST PUSH1 0x6 DUP4 ADD SLOAD SWAP1 PUSH1 0x7 DUP5 ADD SLOAD PUSH1 0x8 DUP6 ADD SLOAD PUSH1 0x9 DUP7 ADD SLOAD PUSH1 0xA DUP8 ADD SLOAD SWAP2 PUSH1 0xB DUP9 ADD SLOAD SWAP4 PUSH1 0xC DUP10 ADD SLOAD PUSH1 0xFF AND SWAP6 PUSH1 0x40 MLOAD SWAP9 DUP10 DUP1 PUSH1 0xD DUP14 ADD SWAP1 PUSH2 0x37C3 SWAP2 PUSH2 0x38FF JUMP JUMPDEST SUB PUSH2 0x37CE SWAP1 DUP12 PUSH2 0x3A03 JUMP JUMPDEST PUSH1 0x40 MLOAD SWAP11 DUP12 PUSH2 0x37E0 DUP2 PUSH1 0xE DUP5 ADD PUSH2 0x38FF JUMP JUMPDEST SUB PUSH2 0x37EB SWAP1 DUP14 PUSH2 0x3A03 JUMP JUMPDEST PUSH1 0xF ADD SLOAD SWAP12 PUSH1 0x40 MLOAD SWAP15 DUP16 SWAP15 DUP16 SWAP1 PUSH2 0x220 SWAP4 DUP5 SWAP4 DUP4 MSTORE PUSH1 0x20 DUP4 ADD MSTORE PUSH1 0x1 PUSH1 0xA0 SHL PUSH1 0x1 SWAP1 SUB DUP2 AND PUSH1 0x40 DUP4 ADD MSTORE DUP1 PUSH1 0xA0 SHR PUSH1 0xFF AND PUSH2 0x3825 SWAP1 PUSH2 0x3A24 JUMP JUMPDEST PUSH1 0xA0 SHR PUSH1 0xFF AND PUSH1 0x60 DUP3 ADD MSTORE PUSH1 0x80 ADD MSTORE DUP14 ADD PUSH1 0x80 SWAP1 PUSH2 0x3842 SWAP2 PUSH2 0x3A2E JUMP JUMPDEST DUP14 DUP2 SUB PUSH1 0xA0 DUP16 ADD MSTORE PUSH2 0x3853 SWAP2 PUSH2 0x3A2E JUMP JUMPDEST DUP13 DUP2 SUB PUSH1 0xC0 DUP15 ADD MSTORE PUSH2 0x3864 SWAP2 PUSH2 0x3A2E JUMP JUMPDEST SWAP7 PUSH1 0xE0 DUP13 ADD MSTORE PUSH2 0x100 DUP12 ADD MSTORE PUSH2 0x120 DUP11 ADD MSTORE PUSH2 0x140 DUP10 ADD MSTORE PUSH2 0x160 DUP9 ADD MSTORE PUSH2 0x180 DUP8 ADD MSTORE PUSH2 0x1A0 DUP7 ADD PUSH2 0x3896 SWAP2 PUSH2 0x3A6E JUMP JUMPDEST DUP5 DUP2 SUB PUSH2 0x1C0 DUP7 ADD MSTORE PUSH2 0x38A8 SWAP2 PUSH2 0x3A2E JUMP JUMPDEST DUP4 DUP2 SUB PUSH2 0x1E0 DUP6 ADD MSTORE PUSH2 0x38BA SWAP2 PUSH2 0x3A2E JUMP JUMPDEST SWAP1 PUSH2 0x200 DUP4 ADD MSTORE SUB SWAP1 RETURN JUMPDEST SWAP1 PUSH1 0x1 DUP3 DUP2 SHR SWAP3 AND DUP1 ISZERO PUSH2 0x38F5 JUMPI JUMPDEST PUSH1 0x20 DUP4 LT EQ PUSH2 0x38DF JUMPI JUMP JUMPDEST PUSH4 0x4E487B71 PUSH1 0xE0 SHL PUSH1 0x0 MSTORE PUSH1 0x22 PUSH1 0x4 MSTORE PUSH1 0x24 PUSH1 0x0 REVERT JUMPDEST SWAP2 PUSH1 0x7F AND SWAP2 PUSH2 0x38D4 JUMP JUMPDEST DUP1 SLOAD PUSH1 0x0 SWAP4 SWAP3 PUSH2 0x390E DUP3 PUSH2 0x38C5 JUMP JUMPDEST SWAP2 DUP3 DUP3 MSTORE PUSH1 0x20 SWAP4 PUSH1 0x1 SWAP2 PUSH1 0x1 DUP2 AND SWAP1 DUP2 PUSH1 0x0 EQ PUSH2 0x3976 JUMPI POP PUSH1 0x1 EQ PUSH2 0x3935 JUMPI JUMPDEST POP POP POP POP POP JUMP JUMPDEST SWAP1 SWAP4 SWAP5 SWAP6 POP PUSH1 0x0 SWAP3 SWAP2 SWAP3 MSTORE DUP4 PUSH1 0x0 KECCAK256 SWAP3 DUP5 PUSH1 0x0 SWAP5 JUMPDEST DUP4 DUP7 LT PUSH2 0x3962 JUMPI POP POP POP POP ADD ADD SWAP1 CODESIZE DUP1 DUP1 DUP1 DUP1 PUSH2 0x392E JUMP JUMPDEST DUP1 SLOAD DUP6 DUP8 ADD DUP4 ADD MSTORE SWAP5 ADD SWAP4 DUP6 SWAP1 DUP3 ADD PUSH2 0x394A JUMP JUMPDEST PUSH1 0xFF NOT AND DUP7 DUP6 ADD MSTORE POP POP POP SWAP1 ISZERO ISZERO PUSH1 0x5 SHL ADD ADD SWAP2 POP CODESIZE DUP1 DUP1 DUP1 DUP1 PUSH2 0x392E JUMP JUMPDEST PUSH2 0x180 DUP2 ADD SWAP1 DUP2 LT PUSH1 0x1 PUSH1 0x1 PUSH1 0x40 SHL SUB DUP3 GT OR PUSH2 0x1B2B JUMPI PUSH1 0x40 MSTORE JUMP JUMPDEST PUSH2 0x220 DUP2 ADD SWAP1 DUP2 LT PUSH1 0x1 PUSH1 0x1 PUSH1 0x40 SHL SUB DUP3 GT OR PUSH2 0x1B2B JUMPI PUSH1 0x40 MSTORE JUMP JUMPDEST PUSH1 0x60 DUP2 ADD SWAP1 DUP2 LT PUSH1 0x1 PUSH1 0x1 PUSH1 0x40 SHL SUB DUP3 GT OR PUSH2 0x1B2B JUMPI PUSH1 0x40 MSTORE JUMP JUMPDEST PUSH1 0x80 DUP2 ADD SWAP1 DUP2 LT PUSH1 0x1 PUSH1 0x1 PUSH1 0x40 SHL SUB DUP3 GT OR PUSH2 0x1B2B JUMPI PUSH1 0x40 MSTORE JUMP JUMPDEST SWAP1 PUSH1 0x1F DUP1 NOT SWAP2 ADD AND DUP2 ADD SWAP1 DUP2 LT PUSH1 0x1 PUSH1 0x1 PUSH1 0x40 SHL SUB DUP3 GT OR PUSH2 0x1B2B JUMPI PUSH1 0x40 MSTORE JUMP JUMPDEST PUSH1 0x4 GT ISZERO PUSH2 0x39C JUMPI JUMP JUMPDEST SWAP2 SWAP1 DUP3 MLOAD SWAP3 DUP4 DUP3 MSTORE PUSH1 0x0 JUMPDEST DUP5 DUP2 LT PUSH2 0x3A5A JUMPI POP POP DUP3 PUSH1 0x0 PUSH1 0x20 DUP1 SWAP5 SWAP6 DUP5 ADD ADD MSTORE PUSH1 0x1F DUP1 NOT SWAP2 ADD AND ADD ADD SWAP1 JUMP JUMPDEST PUSH1 0x20 DUP2 DUP4 ADD DUP2 ADD MLOAD DUP5 DUP4 ADD DUP3 ADD MSTORE ADD PUSH2 0x3A39 JUMP JUMPDEST SWAP1 PUSH1 0x6 DUP3 LT ISZERO PUSH2 0x39C JUMPI MSTORE JUMP JUMPDEST PUSH1 0x80 DUP2 ADD SWAP3 SWAP2 PUSH1 0x0 SWAP2 JUMPDEST PUSH1 0x4 DUP4 LT PUSH2 0x3A92 JUMPI POP POP POP JUMP JUMPDEST PUSH1 0x1 SWAP1 DUP3 MLOAD DUP2 MSTORE PUSH1 0x20 DUP1 SWAP2 ADD SWAP3 ADD SWAP3 ADD SWAP2 SWAP1 PUSH2 0x3A85 JUMP JUMPDEST SWAP1 PUSH1 0x3 DUP3 LT ISZERO PUSH2 0x39C JUMPI MSTORE JUMP JUMPDEST SWAP1 PUSH2 0x3B1B PUSH2 0x3B09 PUSH2 0x3AF7 PUSH2 0x180 DUP6 MLOAD DUP6 MSTORE PUSH1 0x20 DUP7 ADD MLOAD PUSH1 0x20 DUP7 ADD MSTORE PUSH1 0x1 DUP1 PUSH1 0xA0 SHL SUB PUSH1 0x40 DUP8 ADD MLOAD AND PUSH1 0x40 DUP7 ADD MSTORE PUSH1 0x60 DUP7 ADD MLOAD SWAP1 DUP1 PUSH1 0x60 DUP8 ADD MSTORE DUP6 ADD SWAP1 PUSH2 0x3A2E JUMP JUMPDEST PUSH1 0x80 DUP6 ADD MLOAD DUP5 DUP3 SUB PUSH1 0x80 DUP7 ADD MSTORE PUSH2 0x3A2E JUMP JUMPDEST PUSH1 0xA0 DUP5 ADD MLOAD DUP4 DUP3 SUB PUSH1 0xA0 DUP6 ADD MSTORE PUSH2 0x3A2E JUMP JUMPDEST SWAP2 PUSH1 0xC0 DUP2 ADD MLOAD PUSH1 0xC0 DUP4 ADD MSTORE PUSH1 0xE0 DUP2 ADD MLOAD PUSH1 0xE0 DUP4 ADD MSTORE PUSH2 0x100 DUP1 DUP3 ADD MLOAD SWAP1 DUP4 ADD MSTORE PUSH2 0x120 DUP1 DUP3 ADD MLOAD SWAP1 DUP4 ADD MSTORE PUSH2 0x3B59 PUSH2 0x140 DUP1 DUP4 ADD MLOAD SWAP1 DUP5 ADD SWAP1 PUSH2 0x3AA9 JUMP JUMPDEST PUSH2 0x160 DUP1 SWAP2 ADD MLOAD SWAP2 ADD MSTORE SWAP1 JUMP JUMPDEST CALLVALUE PUSH2 0x3B2 JUMPI PUSH1 0x0 CALLDATASIZE PUSH1 0x3 NOT ADD SLT PUSH2 0x3B2 JUMPI PUSH1 0x20 PUSH1 0x40 MLOAD PUSH2 0x1388 DUP2 MSTORE RETURN JUMPDEST PUSH1 0x4 CALLDATALOAD SWAP1 PUSH1 0x1 PUSH1 0x1 PUSH1 0xA0 SHL SUB DUP3 AND DUP3 SUB PUSH2 0x3B2 JUMPI JUMP JUMPDEST PUSH1 0x24 CALLDATALOAD SWAP1 PUSH1 0x1 PUSH1 0x1 PUSH1 0xA0 SHL SUB DUP3 AND DUP3 SUB PUSH2 0x3B2 JUMPI JUMP JUMPDEST PUSH1 0x24 CALLDATALOAD SWAP1 PUSH1 0xFF DUP3 AND DUP3 SUB PUSH2 0x3B2 JUMPI JUMP JUMPDEST DUP2 PUSH1 0x1F DUP3 ADD SLT ISZERO PUSH2 0x3B2 JUMPI DUP1 CALLDATALOAD SWAP1 PUSH1 0x1 PUSH1 0x1 PUSH1 0x40 SHL SUB DUP3 GT PUSH2 0x1B2B JUMPI PUSH1 0x40 MLOAD SWAP3 PUSH2 0x3BF3 PUSH1 0x1F DUP5 ADD PUSH1 0x1F NOT AND PUSH1 0x20 ADD DUP6 PUSH2 0x3A03 JUMP JUMPDEST DUP3 DUP5 MSTORE PUSH1 0x20 DUP4 DUP4 ADD ADD GT PUSH2 0x3B2 JUMPI DUP2 PUSH1 0x0 SWAP3 PUSH1 0x20 DUP1 SWAP4 ADD DUP4 DUP7 ADD CALLDATACOPY DUP4 ADD ADD MSTORE SWAP1 JUMP JUMPDEST CALLVALUE PUSH2 0x3B2 JUMPI PUSH1 0x0 CALLDATASIZE PUSH1 0x3 NOT ADD SLT PUSH2 0x3B2 JUMPI PUSH1 0x20 PUSH1 0x40 MLOAD PUSH2 0x1F4 DUP2 MSTORE RETURN JUMPDEST CALLVALUE PUSH2 0x3B2 JUMPI PUSH1 0x0 CALLDATASIZE PUSH1 0x3 NOT ADD SLT PUSH2 0x3B2 JUMPI PUSH1 0x20 PUSH1 0x40 MLOAD PUSH2 0xBB8 DUP2 MSTORE RETURN JUMPDEST SWAP1 PUSH2 0x3D49 PUSH2 0x3D35 PUSH2 0x3CCD PUSH2 0x3CBB PUSH2 0x3CA9 PUSH2 0x220 DUP8 MLOAD DUP8 MSTORE PUSH1 0x20 DUP9 ADD MLOAD PUSH1 0x20 DUP9 ADD MSTORE PUSH1 0x1 DUP1 PUSH1 0xA0 SHL SUB PUSH1 0x40 DUP10 ADD MLOAD AND PUSH1 0x40 DUP9 ADD MSTORE PUSH1 0x60 DUP9 ADD MLOAD PUSH2 0x3C90 DUP2 PUSH2 0x3A24 JUMP JUMPDEST PUSH1 0x60 DUP9 ADD MSTORE PUSH1 0x80 DUP9 ADD MLOAD SWAP1 DUP1 PUSH1 0x80 DUP10 ADD MSTORE DUP8 ADD SWAP1 PUSH2 0x3A2E JUMP JUMPDEST PUSH1 0xA0 DUP8 ADD MLOAD DUP7 DUP3 SUB PUSH1 0xA0 DUP9 ADD MSTORE PUSH2 0x3A2E JUMP JUMPDEST PUSH1 0xC0 DUP7 ADD MLOAD DUP6 DUP3 SUB PUSH1 0xC0 DUP8 ADD MSTORE PUSH2 0x3A2E JUMP JUMPDEST PUSH1 0xE0 DUP6 ADD MLOAD PUSH1 0xE0 DUP6 ADD MSTORE PUSH2 0x100 DUP1 DUP7 ADD MLOAD SWAP1 DUP6 ADD MSTORE PUSH2 0x120 DUP1 DUP7 ADD MLOAD SWAP1 DUP6 ADD MSTORE PUSH2 0x140 DUP1 DUP7 ADD MLOAD SWAP1 DUP6 ADD MSTORE PUSH2 0x160 DUP1 DUP7 ADD MLOAD SWAP1 DUP6 ADD MSTORE PUSH2 0x180 DUP1 DUP7 ADD MLOAD SWAP1 DUP6 ADD MSTORE PUSH2 0x3D21 PUSH2 0x1A0 DUP1 DUP8 ADD MLOAD SWAP1 DUP7 ADD SWAP1 PUSH2 0x3A6E JUMP JUMPDEST PUSH2 0x1C0 DUP1 DUP7 ADD MLOAD SWAP1 DUP6 DUP4 SUB SWAP1 DUP7 ADD MSTORE PUSH2 0x3A2E JUMP JUMPDEST PUSH2 0x1E0 DUP1 DUP6 ADD MLOAD SWAP1 DUP5 DUP4 SUB SWAP1 DUP6 ADD MSTORE PUSH2 0x3A2E JUMP JUMPDEST SWAP2 PUSH2 0x200 DUP1 SWAP2 ADD MLOAD SWAP2 ADD MSTORE SWAP1 JUMP JUMPDEST DUP2 ISZERO PUSH2 0x3D61 JUMPI DIV SWAP1 JUMP JUMPDEST PUSH4 0x4E487B71 PUSH1 0xE0 SHL PUSH1 0x0 MSTORE PUSH1 0x12 PUSH1 0x4 MSTORE PUSH1 0x24 PUSH1 0x0 REVERT JUMPDEST SWAP1 PUSH1 0x4 DUP2 LT ISZERO PUSH2 0x3D88 JUMPI PUSH1 0x5 SHL ADD SWAP1 JUMP JUMPDEST PUSH4 0x4E487B71 PUSH1 0xE0 SHL PUSH1 0x0 MSTORE PUSH1 0x32 PUSH1 0x4 MSTORE PUSH1 0x24 PUSH1 0x0 REVERT JUMPDEST PUSH1 0x40 DUP1 MLOAD SWAP2 PUSH2 0x3DAC DUP4 PUSH2 0x39E8 JUMP JUMPDEST PUSH1 0x80 CALLDATASIZE DUP5 CALLDATACOPY DUP3 SWAP1 PUSH1 0x12 SLOAD SWAP4 DUP5 ISZERO PUSH2 0x3E3D JUMPI POP PUSH1 0x0 JUMPDEST PUSH1 0x4 DUP1 DUP3 LT ISZERO PUSH2 0x3E34 JUMPI PUSH2 0x3DD4 DUP3 PUSH2 0x3A24 JUMP JUMPDEST PUSH2 0x3DDD DUP3 PUSH2 0x3A24 JUMP JUMPDEST DUP2 PUSH1 0x0 MSTORE PUSH1 0x10 PUSH1 0x20 MSTORE DUP5 PUSH1 0x0 KECCAK256 SLOAD SWAP1 PUSH2 0x2710 SWAP2 DUP3 DUP2 MUL SWAP3 DUP2 DUP5 DIV EQ SWAP1 ISZERO OR ISZERO PUSH2 0x3E1F JUMPI POP SWAP1 PUSH2 0x3E0E DUP7 PUSH1 0x1 SWAP4 PUSH2 0x3D57 JUMP JUMPDEST PUSH2 0x3E18 DUP3 DUP7 PUSH2 0x3D77 JUMP JUMPDEST MSTORE ADD PUSH2 0x3DC1 JUMP JUMPDEST PUSH1 0x11 SWAP1 PUSH4 0x4E487B71 PUSH1 0xE0 SHL PUSH1 0x0 MSTORE MSTORE PUSH1 0x24 PUSH1 0x0 REVERT JUMPDEST POP POP SWAP3 POP SWAP1 POP SWAP1 JUMP JUMPDEST SWAP4 POP SWAP2 POP POP JUMP JUMPDEST SWAP1 PUSH1 0x6 DUP2 LT ISZERO PUSH2 0x39C JUMPI PUSH1 0xFF DUP1 NOT DUP4 SLOAD AND SWAP2 AND OR SWAP1 SSTORE JUMP JUMPDEST PUSH1 0x40 MLOAD SWAP1 PUSH2 0x3E69 DUP3 PUSH2 0x3995 JUMP JUMPDEST DUP2 PUSH2 0x160 PUSH1 0x0 SWAP2 DUP3 DUP2 MSTORE DUP3 PUSH1 0x20 DUP3 ADD MSTORE DUP3 PUSH1 0x40 DUP3 ADD MSTORE PUSH1 0x60 DUP1 DUP3 ADD MSTORE PUSH1 0x60 PUSH1 0x80 DUP3 ADD MSTORE PUSH1 0x60 PUSH1 0xA0 DUP3 ADD MSTORE DUP3 PUSH1 0xC0 DUP3 ADD MSTORE DUP3 PUSH1 0xE0 DUP3 ADD MSTORE DUP3 PUSH2 0x100 DUP3 ADD MSTORE DUP3 PUSH2 0x120 DUP3 ADD MSTORE DUP3 PUSH2 0x140 DUP3 ADD MSTORE ADD MSTORE JUMP JUMPDEST SWAP1 PUSH1 0x40 MLOAD PUSH2 0x3EC5 DUP2 PUSH2 0x3995 JUMP JUMPDEST DUP1 SWAP3 DUP1 SLOAD DUP3 MSTORE PUSH1 0x1 DUP2 ADD SLOAD PUSH1 0x20 DUP4 ADD MSTORE PUSH1 0x1 DUP1 PUSH1 0xA0 SHL SUB PUSH1 0x2 DUP3 ADD SLOAD AND PUSH1 0x40 DUP4 ADD MSTORE PUSH1 0x40 MLOAD PUSH2 0x3EFB DUP2 PUSH2 0x20B0 DUP2 PUSH1 0x3 DUP7 ADD PUSH2 0x38FF JUMP JUMPDEST PUSH1 0x60 DUP4 ADD MSTORE PUSH1 0x40 MLOAD PUSH2 0x3F14 DUP2 PUSH2 0x20B0 DUP2 PUSH1 0x4 DUP7 ADD PUSH2 0x38FF JUMP JUMPDEST PUSH1 0x80 DUP4 ADD MSTORE PUSH1 0x40 MLOAD PUSH2 0x3F2D DUP2 PUSH2 0x20B0 DUP2 PUSH1 0x5 DUP7 ADD PUSH2 0x38FF JUMP JUMPDEST PUSH1 0xA0 DUP4 ADD MSTORE PUSH1 0x6 DUP2 ADD SLOAD PUSH1 0xC0 DUP4 ADD MSTORE PUSH1 0x7 DUP2 ADD SLOAD PUSH1 0xE0 DUP4 ADD MSTORE PUSH1 0x8 DUP2 ADD SLOAD PUSH2 0x100 DUP4 ADD MSTORE PUSH1 0x9 DUP2 ADD SLOAD PUSH2 0x120 DUP4 ADD MSTORE PUSH1 0xFF PUSH1 0xA DUP3 ADD SLOAD AND PUSH1 0x3 DUP2 LT ISZERO PUSH2 0x39C JUMPI PUSH2 0x160 SWAP2 PUSH1 0xB SWAP2 PUSH2 0x140 DUP6 ADD MSTORE ADD SLOAD SWAP2 ADD MSTORE JUMP JUMPDEST ISZERO PUSH2 0x3F88 JUMPI JUMP JUMPDEST PUSH1 0x40 MLOAD PUSH3 0x461BCD PUSH1 0xE5 SHL DUP2 MSTORE PUSH1 0x20 PUSH1 0x4 DUP3 ADD MSTORE PUSH1 0x13 PUSH1 0x24 DUP3 ADD MSTORE PUSH19 0x50726F706F73616C206E6F7420616374697665 PUSH1 0x68 SHL PUSH1 0x44 DUP3 ADD MSTORE PUSH1 0x64 SWAP1 REVERT JUMPDEST ISZERO PUSH2 0x3FCA JUMPI JUMP JUMPDEST PUSH1 0x40 MLOAD PUSH3 0x461BCD PUSH1 0xE5 SHL DUP2 MSTORE PUSH1 0x20 PUSH1 0x4 DUP3 ADD MSTORE PUSH1 0x12 PUSH1 0x24 DUP3 ADD MSTORE PUSH18 0x159BDD1A5B99C81B9BDD081CDD185C9D1959 PUSH1 0x72 SHL PUSH1 0x44 DUP3 ADD MSTORE PUSH1 0x64 SWAP1 REVERT JUMPDEST ISZERO PUSH2 0x400B JUMPI JUMP JUMPDEST PUSH1 0x40 MLOAD PUSH3 0x461BCD PUSH1 0xE5 SHL DUP2 MSTORE PUSH1 0x20 PUSH1 0x4 DUP3 ADD MSTORE PUSH1 0xC PUSH1 0x24 DUP3 ADD MSTORE PUSH12 0x159BDD1A5B99C8195B991959 PUSH1 0xA2 SHL PUSH1 0x44 DUP3 ADD MSTORE PUSH1 0x64 SWAP1 REVERT JUMPDEST ISZERO PUSH2 0x4046 JUMPI JUMP JUMPDEST PUSH1 0x40 MLOAD PUSH3 0x461BCD PUSH1 0xE5 SHL DUP2 MSTORE PUSH1 0x20 PUSH1 0x4 DUP3 ADD MSTORE PUSH1 0x11 PUSH1 0x24 DUP3 ADD MSTORE PUSH17 0x496E76616C696420766F74652074797065 PUSH1 0x78 SHL PUSH1 0x44 DUP3 ADD MSTORE PUSH1 0x64 SWAP1 REVERT JUMPDEST ISZERO PUSH2 0x4086 JUMPI JUMP JUMPDEST PUSH1 0x40 MLOAD PUSH3 0x461BCD PUSH1 0xE5 SHL DUP2 MSTORE PUSH1 0x20 PUSH1 0x4 DUP3 ADD MSTORE PUSH1 0xD PUSH1 0x24 DUP3 ADD MSTORE PUSH13 0x105B1C9958591E481D9BDD1959 PUSH1 0x9A SHL PUSH1 0x44 DUP3 ADD MSTORE PUSH1 0x64 SWAP1 REVERT JUMPDEST PUSH1 0x0 NOT DUP2 EQ PUSH2 0x737 JUMPI PUSH1 0x1 ADD SWAP1 JUMP JUMPDEST ISZERO PUSH2 0x40D1 JUMPI JUMP JUMPDEST PUSH1 0x40 MLOAD PUSH3 0x461BCD PUSH1 0xE5 SHL DUP2 MSTORE PUSH1 0x20 PUSH1 0x4 DUP3 ADD MSTORE PUSH1 0xF PUSH1 0x24 DUP3 ADD MSTORE PUSH15 0x2737903B37BA34B733903837BBB2B9 PUSH1 0x89 SHL PUSH1 0x44 DUP3 ADD MSTORE PUSH1 0x64 SWAP1 REVERT JUMPDEST SWAP2 SWAP1 DUP3 ADD DUP1 SWAP3 GT PUSH2 0x737 JUMPI JUMP JUMPDEST SWAP1 PUSH1 0x1F DUP2 GT PUSH2 0x4123 JUMPI POP POP POP JUMP JUMPDEST PUSH1 0x0 SWAP2 PUSH1 0x0 MSTORE PUSH1 0x20 PUSH1 0x0 KECCAK256 SWAP1 PUSH1 0x20 PUSH1 0x1F DUP6 ADD PUSH1 0x5 SHR DUP4 ADD SWAP5 LT PUSH2 0x4161 JUMPI JUMPDEST PUSH1 0x1F ADD PUSH1 0x5 SHR ADD SWAP2 JUMPDEST DUP3 DUP2 LT PUSH2 0x4156 JUMPI POP POP POP JUMP JUMPDEST DUP2 DUP2 SSTORE PUSH1 0x1 ADD PUSH2 0x414A JUMP JUMPDEST SWAP1 SWAP3 POP DUP3 SWAP1 PUSH2 0x4141 JUMP JUMPDEST PUSH1 0x12 SLOAD DUP1 ISZERO PUSH2 0x4271 JUMPI PUSH1 0x0 DUP1 JUMPDEST PUSH1 0x4 SWAP1 DUP2 DUP4 LT ISZERO PUSH2 0x424C JUMPI PUSH2 0x418C DUP4 PUSH2 0x3A24 JUMP JUMPDEST PUSH2 0x4195 DUP4 PUSH2 0x3A24 JUMP JUMPDEST DUP3 PUSH1 0x0 MSTORE PUSH1 0x10 PUSH1 0x20 MSTORE PUSH1 0x40 PUSH1 0x0 KECCAK256 SLOAD PUSH2 0x2710 SWAP1 DUP2 DUP2 MUL SWAP2 DUP2 DUP4 DIV EQ SWAP1 ISZERO OR ISZERO PUSH2 0x4237 JUMPI DUP5 PUSH2 0x41C2 SWAP2 PUSH2 0x3D57 JUMP JUMPDEST PUSH2 0x9C4 SWAP3 SWAP1 PUSH1 0x0 DUP5 DUP3 GT ISZERO PUSH2 0x4213 JUMPI POP PUSH2 0x9C3 NOT DUP2 ADD SWAP1 DUP2 GT PUSH2 0x41FE JUMPI JUMPDEST DUP4 SUB SWAP3 DUP4 GT PUSH2 0x3E1F JUMPI POP PUSH1 0x1 SWAP2 PUSH2 0x41F6 SWAP2 PUSH2 0x4108 JUMP JUMPDEST SWAP2 ADD SWAP1 PUSH2 0x4178 JUMP JUMPDEST PUSH1 0x11 DUP3 PUSH4 0x4E487B71 PUSH1 0xE0 SHL PUSH1 0x0 MSTORE MSTORE PUSH1 0x24 PUSH1 0x0 REVERT JUMPDEST SWAP1 DUP5 SUB SWAP1 DUP5 DUP3 GT PUSH2 0x4224 JUMPI POP PUSH2 0x41E0 JUMP JUMPDEST PUSH4 0x4E487B71 PUSH1 0xE0 SHL DUP2 MSTORE PUSH1 0x11 DUP4 MSTORE PUSH1 0x24 SWAP1 REVERT JUMPDEST PUSH1 0x11 DUP4 PUSH4 0x4E487B71 PUSH1 0xE0 SHL PUSH1 0x0 MSTORE MSTORE PUSH1 0x24 PUSH1 0x0 REVERT JUMPDEST SWAP3 POP POP POP PUSH1 0x1 SHR SWAP1 PUSH2 0x1388 DUP3 ADD DUP1 SWAP3 GT PUSH2 0x737 JUMPI PUSH2 0x2710 DUP1 DUP4 GT PUSH2 0x426D JUMPI POP JUMP JUMPDEST SWAP2 POP JUMP JUMPDEST POP PUSH1 0x0 SWAP1 JUMP JUMPDEST ISZERO PUSH2 0x427E JUMPI JUMP JUMPDEST PUSH1 0x40 MLOAD PUSH3 0x461BCD PUSH1 0xE5 SHL DUP2 MSTORE PUSH1 0x20 PUSH1 0x4 DUP3 ADD MSTORE PUSH1 0x1B PUSH1 0x24 DUP3 ADD MSTORE PUSH32 0x4D75737420686F6C6420746F6B656E7320746F2070726F706F73650000000000 PUSH1 0x44 DUP3 ADD MSTORE PUSH1 0x64 SWAP1 REVERT JUMPDEST PUSH1 0x1 PUSH1 0x1 PUSH1 0x40 SHL SUB DUP2 GT PUSH2 0x1B2B JUMPI PUSH1 0x5 SHL PUSH1 0x20 ADD SWAP1 JUMP JUMPDEST PUSH1 0x40 MLOAD SWAP1 PUSH2 0x42E7 DUP3 PUSH2 0x39B1 JUMP JUMPDEST DUP2 PUSH2 0x200 PUSH1 0x0 SWAP2 DUP3 DUP2 MSTORE DUP3 PUSH1 0x20 DUP3 ADD MSTORE DUP3 PUSH1 0x40 DUP3 ADD MSTORE PUSH1 0x60 DUP4 DUP2 DUP4 ADD MSTORE DUP1 PUSH1 0x80 DUP4 ADD MSTORE DUP1 PUSH1 0xA0 DUP4 ADD MSTORE DUP1 PUSH1 0xC0 DUP4 ADD MSTORE DUP4 PUSH1 0xE0 DUP4 ADD MSTORE DUP4 PUSH2 0x100 DUP4 ADD MSTORE DUP4 PUSH2 0x120 DUP4 ADD MSTORE DUP4 PUSH2 0x140 DUP4 ADD MSTORE DUP4 PUSH2 0x160 DUP4 ADD MSTORE DUP4 PUSH2 0x180 DUP4 ADD MSTORE DUP4 PUSH2 0x1A0 DUP4 ADD MSTORE DUP1 PUSH2 0x1C0 DUP4 ADD MSTORE PUSH2 0x1E0 DUP3 ADD MSTORE ADD MSTORE JUMP JUMPDEST DUP1 MLOAD DUP3 LT ISZERO PUSH2 0x3D88 JUMPI PUSH1 0x20 SWAP2 PUSH1 0x5 SHL ADD ADD SWAP1 JUMP JUMPDEST SWAP1 PUSH1 0x40 DUP1 MLOAD SWAP1 PUSH2 0x437A DUP3 PUSH2 0x39B1 JUMP JUMPDEST DUP4 SLOAD DUP3 MSTORE PUSH1 0x1 DUP5 ADD SLOAD PUSH1 0x20 DUP4 ADD MSTORE PUSH1 0x2 DUP5 ADD SLOAD PUSH1 0x1 PUSH1 0x1 PUSH1 0xA0 SHL SUB DUP2 AND DUP3 DUP5 ADD MSTORE SWAP2 SWAP4 DUP5 SWAP3 PUSH1 0xA0 SHR PUSH1 0xFF AND PUSH2 0x43AE DUP2 PUSH2 0x3A24 JUMP JUMPDEST PUSH1 0x60 DUP5 ADD MSTORE DUP2 MLOAD PUSH2 0x43C6 DUP2 PUSH2 0x20B0 DUP2 PUSH1 0x3 DUP7 ADD PUSH2 0x38FF JUMP JUMPDEST PUSH1 0x80 DUP5 ADD MSTORE DUP2 MLOAD PUSH2 0x43DE DUP2 PUSH2 0x20B0 DUP2 PUSH1 0x4 DUP7 ADD PUSH2 0x38FF JUMP JUMPDEST PUSH1 0xA0 DUP5 ADD MSTORE DUP2 MLOAD PUSH2 0x43F6 DUP2 PUSH2 0x20B0 DUP2 PUSH1 0x5 DUP7 ADD PUSH2 0x38FF JUMP JUMPDEST PUSH1 0xC0 DUP5 ADD MSTORE PUSH1 0x6 DUP2 ADD SLOAD PUSH1 0xE0 DUP5 ADD MSTORE PUSH1 0x7 DUP2 ADD SLOAD PUSH2 0x100 DUP5 ADD MSTORE PUSH1 0x8 DUP2 ADD SLOAD PUSH2 0x120 DUP5 ADD MSTORE PUSH1 0x9 DUP2 ADD SLOAD PUSH2 0x140 DUP5 ADD MSTORE PUSH1 0xA DUP2 ADD SLOAD PUSH2 0x160 DUP5 ADD MSTORE PUSH1 0xB DUP2 ADD SLOAD PUSH2 0x180 DUP5 ADD MSTORE PUSH1 0xFF PUSH1 0xC DUP3 ADD SLOAD AND SWAP1 PUSH1 0x6 DUP3 LT ISZERO PUSH2 0x39C JUMPI PUSH2 0x200 SWAP3 PUSH1 0xF SWAP3 PUSH2 0x1A0 DUP7 ADD MSTORE DUP1 MLOAD PUSH2 0x446E DUP2 PUSH2 0x20B0 DUP2 PUSH1 0xD DUP8 ADD PUSH2 0x38FF JUMP JUMPDEST PUSH2 0x1C0 DUP7 ADD MSTORE MLOAD PUSH2 0x4486 DUP2 PUSH2 0x20B0 DUP2 PUSH1 0xE DUP7 ADD PUSH2 0x38FF JUMP JUMPDEST PUSH2 0x1E0 DUP6 ADD MSTORE ADD SLOAD SWAP2 ADD MSTORE JUMP JUMPDEST PUSH1 0x0 MSTORE PUSH1 0xC PUSH1 0x20 MSTORE PUSH1 0x40 PUSH1 0x0 KECCAK256 PUSH2 0x44B3 PUSH1 0x7 PUSH1 0x6 DUP4 ADD SLOAD SWAP3 ADD SLOAD DUP3 PUSH2 0x4108 JUMP JUMPDEST DUP1 ISZERO PUSH2 0x44D9 JUMPI PUSH2 0x2710 SWAP2 DUP3 DUP2 MUL SWAP3 DUP2 DUP5 DIV EQ SWAP1 ISZERO OR ISZERO PUSH2 0x737 JUMPI PUSH2 0x44D6 SWAP2 PUSH2 0x3D57 JUMP JUMPDEST SWAP1 JUMP JUMPDEST POP POP PUSH1 0x0 SWAP1 JUMP JUMPDEST ISZERO PUSH2 0x44E7 JUMPI JUMP JUMPDEST PUSH1 0x40 MLOAD PUSH3 0x461BCD PUSH1 0xE5 SHL DUP2 MSTORE PUSH1 0x20 PUSH1 0x4 DUP3 ADD MSTORE PUSH1 0xF PUSH1 0x24 DUP3 ADD MSTORE PUSH15 0x506F6C6C206E6F7420616374697665 PUSH1 0x88 SHL PUSH1 0x44 DUP3 ADD MSTORE PUSH1 0x64 SWAP1 REVERT JUMPDEST PUSH1 0x1 DUP1 PUSH1 0xA0 SHL SUB AND PUSH1 0x0 MSTORE PUSH1 0xB PUSH1 0x20 MSTORE PUSH1 0x40 PUSH1 0x0 KECCAK256 SLOAD TIMESTAMP SUB TIMESTAMP DUP2 GT PUSH2 0x737 JUMPI PUSH3 0x278D00 LT ISZERO PUSH2 0x454C JUMPI PUSH1 0x0 SWAP1 JUMP JUMPDEST PUSH1 0x5 SLOAD SWAP1 JUMP JUMPDEST CALLER PUSH1 0x0 SWAP1 DUP2 MSTORE PUSH32 0xAD3228B676F7D3CD4284A5443F17F1962B36E491B30A40B2405849E597BA5FB5 PUSH1 0x20 MSTORE PUSH1 0x40 DUP2 KECCAK256 SLOAD PUSH1 0xFF AND ISZERO PUSH2 0x33EA JUMPI POP JUMP JUMPDEST CALLER PUSH1 0x0 SWAP1 DUP2 MSTORE PUSH32 0x3412D5605AC6CD444957CEDB533E5DACAD6378B4BC819EBE3652188A665066D5 PUSH1 0x20 MSTORE PUSH1 0x40 SWAP1 KECCAK256 SLOAD PUSH32 0xB09AA5AEB3702CFD50B6B62BC4532604938F21248A27A1D5CA736082B6819CC1 SWAP1 PUSH1 0xFF AND ISZERO PUSH2 0x33EA JUMPI POP JUMP JUMPDEST DUP1 PUSH1 0x0 MSTORE PUSH1 0x0 PUSH1 0x20 MSTORE PUSH1 0x40 PUSH1 0x0 KECCAK256 CALLER PUSH1 0x0 MSTORE PUSH1 0x20 MSTORE PUSH1 0xFF PUSH1 0x40 PUSH1 0x0 KECCAK256 SLOAD AND ISZERO PUSH2 0x33EA JUMPI POP JUMP JUMPDEST PUSH1 0x2 PUSH1 0x1 SLOAD EQ PUSH2 0x461F JUMPI PUSH1 0x2 PUSH1 0x1 SSTORE JUMP JUMPDEST PUSH1 0x40 MLOAD PUSH4 0x3EE5AEB5 PUSH1 0xE0 SHL DUP2 MSTORE PUSH1 0x4 SWAP1 REVERT JUMPDEST SWAP2 SWAP1 SWAP2 PUSH2 0x463D DUP2 PUSH2 0x3A24 JUMP JUMPDEST PUSH1 0x0 SWAP3 DUP2 DUP5 MSTORE PUSH1 0x20 SWAP4 PUSH1 0x10 DUP6 MSTORE PUSH2 0x4668 PUSH1 0x40 SWAP3 DUP4 DUP4 KECCAK256 PUSH2 0x465E DUP3 DUP3 SLOAD PUSH2 0x4108 JUMP JUMPDEST SWAP1 SSTORE PUSH1 0x12 SLOAD PUSH2 0x4108 JUMP JUMPDEST SWAP5 DUP6 PUSH1 0x12 SSTORE DUP6 PUSH2 0x46D5 JUMPI JUMPDEST DUP4 SWAP5 SWAP6 POP PUSH2 0x46A1 PUSH32 0xF5C781C3E6E5F46E3229C8B1E6E98F96D8A2FE20AA04BAF40E0FBA44A06D5F1 SWAP5 PUSH2 0x3A24 JUMP JUMPDEST DUP5 DUP3 MSTORE PUSH1 0x10 DUP2 MSTORE DUP3 DUP1 DUP4 KECCAK256 SLOAD SWAP3 PUSH2 0x46B7 DUP8 PUSH2 0x3A24 JUMP JUMPDEST DUP7 DUP2 MSTORE PUSH1 0x11 DUP4 MSTORE KECCAK256 SLOAD SWAP1 PUSH2 0x46CA DUP7 PUSH2 0x3A24 JUMP JUMPDEST DUP4 MLOAD SWAP3 DUP4 MSTORE DUP3 ADD MSTORE LOG2 JUMP JUMPDEST PUSH2 0x46DE DUP5 PUSH2 0x3A24 JUMP JUMPDEST DUP4 DUP3 MSTORE PUSH1 0x10 DUP2 MSTORE DUP3 DUP3 KECCAK256 SLOAD PUSH2 0x2710 SWAP1 DUP2 DUP2 MUL SWAP2 DUP2 DUP4 DIV EQ SWAP1 ISZERO OR ISZERO PUSH2 0x4747 JUMPI PUSH32 0xF5C781C3E6E5F46E3229C8B1E6E98F96D8A2FE20AA04BAF40E0FBA44A06D5F1 SWAP5 SWAP6 SWAP7 PUSH2 0x472A SWAP2 PUSH2 0x3D57 JUMP JUMPDEST PUSH2 0x4733 DUP7 PUSH2 0x3A24 JUMP JUMPDEST DUP6 DUP4 MSTORE PUSH1 0x11 DUP3 MSTORE DUP4 DUP4 KECCAK256 SSTORE DUP6 SWAP5 SWAP4 POP PUSH2 0x4673 JUMP JUMPDEST PUSH4 0x4E487B71 PUSH1 0xE0 SHL DUP4 MSTORE PUSH1 0x11 PUSH1 0x4 MSTORE PUSH1 0x24 DUP4 REVERT JUMPDEST SWAP1 PUSH1 0x0 SWAP2 DUP1 DUP4 MSTORE DUP3 PUSH1 0x20 MSTORE PUSH1 0x40 DUP4 KECCAK256 SWAP2 PUSH1 0x1 DUP1 PUSH1 0xA0 SHL SUB AND SWAP2 DUP3 DUP5 MSTORE PUSH1 0x20 MSTORE PUSH1 0xFF PUSH1 0x40 DUP5 KECCAK256 SLOAD AND ISZERO PUSH1 0x0 EQ PUSH2 0x47D4 JUMPI DUP1 DUP4 MSTORE DUP3 PUSH1 0x20 MSTORE PUSH1 0x40 DUP4 KECCAK256 DUP3 DUP5 MSTORE PUSH1 0x20 MSTORE PUSH1 0x40 DUP4 KECCAK256 PUSH1 0x1 PUSH1 0xFF NOT DUP3 SLOAD AND OR SWAP1 SSTORE PUSH32 0x2F8788117E7EFF1D82E926EC794901D17C78024A50270940304540A733656F0D CALLER SWAP4 DUP1 LOG4 PUSH1 0x1 SWAP1 JUMP JUMPDEST POP POP SWAP1 JUMP JUMPDEST SWAP1 PUSH1 0x0 SWAP2 DUP1 DUP4 MSTORE DUP3 PUSH1 0x20 MSTORE PUSH1 0x40 DUP4 KECCAK256 SWAP2 PUSH1 0x1 DUP1 PUSH1 0xA0 SHL SUB AND SWAP2 DUP3 DUP5 MSTORE PUSH1 0x20 MSTORE PUSH1 0xFF PUSH1 0x40 DUP5 KECCAK256 SLOAD AND PUSH1 0x0 EQ PUSH2 0x47D4 JUMPI DUP1 DUP4 MSTORE DUP3 PUSH1 0x20 MSTORE PUSH1 0x40 DUP4 KECCAK256 DUP3 DUP5 MSTORE PUSH1 0x20 MSTORE PUSH1 0x40 DUP4 KECCAK256 PUSH1 0xFF NOT DUP2 SLOAD AND SWAP1 SSTORE PUSH32 0xF6391F5C32D9C69D2A47EA670B442974B53935D1EDC7FD64EB21E047A839171B CALLER SWAP4 DUP1 LOG4 PUSH1 0x1 SWAP1 JUMP JUMPDEST PUSH2 0x4857 DUP2 PUSH2 0x3A24 JUMP JUMPDEST DUP1 PUSH2 0x48BA JUMPI PUSH2 0x7D0 SWAP1 JUMPDEST PUSH2 0x486A DUP2 PUSH2 0x3A24 JUMP JUMPDEST PUSH1 0x0 MSTORE PUSH1 0x11 PUSH1 0x20 MSTORE PUSH2 0x1388 PUSH1 0x40 PUSH1 0x0 KECCAK256 SLOAD LT ISZERO PUSH2 0x4884 JUMPI SWAP1 JUMP JUMPDEST PUSH2 0x1F4 DUP2 GT ISZERO PUSH2 0x48B1 JUMPI PUSH2 0x1F3 NOT DUP2 ADD SWAP1 DUP2 GT PUSH2 0x737 JUMPI JUMPDEST PUSH2 0x3E8 SWAP1 DUP2 DUP2 LT ISZERO PUSH2 0x48AC JUMPI POP SWAP1 JUMP JUMPDEST SWAP1 POP SWAP1 JUMP JUMPDEST POP PUSH2 0x3E8 PUSH2 0x489C JUMP JUMPDEST PUSH2 0x48C3 DUP2 PUSH2 0x3A24 JUMP JUMPDEST PUSH1 0x1 DUP2 SUB PUSH2 0x48D4 JUMPI PUSH2 0xBB8 SWAP1 PUSH2 0x4861 JUMP JUMPDEST PUSH2 0x48DD DUP2 PUSH2 0x3A24 JUMP JUMPDEST PUSH1 0x2 DUP2 SUB PUSH2 0x48EE JUMPI PUSH2 0x9C4 SWAP1 PUSH2 0x4861 JUMP JUMPDEST PUSH2 0x1388 SWAP1 PUSH2 0x4861 JUMP JUMPDEST SWAP2 SWAP1 PUSH32 0x7FFFFFFFFFFFFFFFFFFFFFFFFFFFFFFF5D576E7357A4501DDFE92F46681B20A0 DUP5 GT PUSH2 0x497B JUMPI SWAP3 PUSH1 0x20 SWAP3 SWAP2 PUSH1 0xFF PUSH1 0x80 SWAP6 PUSH1 0x40 MLOAD SWAP5 DUP6 MSTORE AND DUP5 DUP5 ADD MSTORE PUSH1 0x40 DUP4 ADD MSTORE PUSH1 0x60 DUP3 ADD MSTORE PUSH1 0x0 SWAP3 DUP4 SWAP2 DUP3 DUP1 MSTORE PUSH1 0x1 GAS STATICCALL ISZERO PUSH2 0x496F JUMPI DUP1 MLOAD PUSH1 0x1 PUSH1 0x1 PUSH1 0xA0 SHL SUB DUP2 AND ISZERO PUSH2 0x4966 JUMPI SWAP2 DUP2 SWAP1 JUMP JUMPDEST POP DUP1 SWAP2 PUSH1 0x1 SWAP2 SWAP1 JUMP JUMPDEST PUSH1 0x40 MLOAD SWAP1 RETURNDATASIZE SWAP1 DUP3 RETURNDATACOPY RETURNDATASIZE SWAP1 REVERT JUMPDEST POP POP POP PUSH1 0x0 SWAP2 PUSH1 0x3 SWAP2 SWAP1 JUMP JUMPDEST PUSH2 0x4990 DUP2 PUSH2 0x3A24 JUMP JUMPDEST DUP1 PUSH2 0x4999 JUMPI POP POP JUMP JUMPDEST PUSH2 0x49A2 DUP2 PUSH2 0x3A24 JUMP JUMPDEST PUSH1 0x1 DUP2 SUB PUSH2 0x49BC JUMPI PUSH1 0x40 MLOAD PUSH4 0xF645EEDF PUSH1 0xE0 SHL DUP2 MSTORE PUSH1 0x4 SWAP1 REVERT JUMPDEST PUSH2 0x49C5 DUP2 PUSH2 0x3A24 JUMP JUMPDEST PUSH1 0x2 DUP2 SUB PUSH2 0x49E6 JUMPI PUSH1 0x40 MLOAD PUSH4 0xFCE698F7 PUSH1 0xE0 SHL DUP2 MSTORE PUSH1 0x4 DUP2 ADD DUP4 SWAP1 MSTORE PUSH1 0x24 SWAP1 REVERT JUMPDEST DUP1 PUSH2 0x49F2 PUSH1 0x3 SWAP3 PUSH2 0x3A24 JUMP JUMPDEST EQ PUSH2 0x49FA JUMPI POP JUMP JUMPDEST PUSH1 0x24 SWAP1 PUSH1 0x40 MLOAD SWAP1 PUSH4 0x35E2F383 PUSH1 0xE2 SHL DUP3 MSTORE PUSH1 0x4 DUP3 ADD MSTORE REVERT INVALID 0xB1 0xD5 PUSH10 0xDC5621A0A51229B7AC0E SELFDESTRUCT DUP2 RETURN 0xE6 0xDF PUSH17 0xA3F72FE608AA58F74BB69D7BB6A2646970 PUSH7 0x7358221220BAE7 0x22 0xA6 TIMESTAMP COINBASE 0xE5 ISZERO PUSH20 0xD4E62BD9154245150BF5471F55AB415919CF0A39 PUSH23 0xFD7A64736F6C634300081800332F8788117E7EFF1D82E9 0x26 0xEC PUSH26 0x4901D17C78024A50270940304540A733656F0D00000000000000 "},"methodIdentifiers":{"DEFAULT_ADMIN_ROLE()":"a217fddf","DEMAND_QUORUM_BOOST()":"eac3a6bd","DEMAND_QUORUM_BOOST_THRESHOLD()":"252f57d7","DOMAIN_SEPARATOR()":"3644e515","EXECUTOR_ROLE()":"07bd0265","POLL_PROPOSAL_THRESHOLD()":"808c4479","POLL_QUORUM_BONUS()":"3d8803e2","PROPOSER_ROLE()":"8f61f4f5","QUORUM_EMERGENCY()":"5394c879","QUORUM_PARAMETER()":"248bd471","QUORUM_PROPERTY()":"b277d02a","QUORUM_TREASURY()":"42a7c614","RELAYER_ROLE()":"926d7d7f","VOTE_TYPEHASH()":"86522973","cancelProposal(uint256)":"e0a8f6f5","castVote(uint256,uint8)":"56781388","castVoteBySignature(uint256,uint8,address,uint256,uint8,bytes32,bytes32)":"2dcf0d73","createPoll(uint256,string,string,string,uint256)":"364478e2","createProposal(uint256,uint8,string,string,string,bytes,string,uint256)":"5100084c","createProposalFromPoll(uint256,uint8,bytes)":"4ce83cdb","demandSnapshots(uint8)":"19546f1a","endPoll(uint256)":"f43b8778","executeProposal(uint256)":"0d61b519","finalizeProposal(uint256)":"5652077c","getActivePolls(uint256)":"63f0c7ff","getActiveProposals(uint256)":"6213e5ea","getCommunityHealthScore()":"49672b70","getDemandBars()":"0af4da41","getDemandForType(uint8)":"cae35ba0","getEffectiveQuorum(uint8)":"bcd77a24","getImpactReport(uint256)":"95094544","getNonce(address)":"2d0335ab","getPoll(uint256)":"1a8cbcaa","getPollSupport(uint256)":"9c4e99ca","getProposal(uint256)":"c7f758a8","getRoleAdmin(bytes32)":"248a9ca3","getVote(uint256,address)":"bc3f931f","getVoteToEarnBonus(address)":"ecc52c04","grantRole(bytes32,address)":"2f2ff15d","hasRole(bytes32,address)":"91d14854","lastVoteTimestamp(address)":"de1cf4ad","nonces(address)":"7ecebe00","pollCount()":"9207891d","pollParticipants(uint256)":"c3b028e2","pollVotes(uint256,address)":"637e54ac","polls(uint256)":"ac2f0074","propertyToken()":"43ae2695","proposalCount()":"da35c664","proposals(uint256)":"013cf08b","renounceRole(bytes32,address)":"36568abe","revokeRole(bytes32,address)":"d547741f","setVoteToEarnBonus(uint256)":"872d1544","setVotingPeriod(uint256)":"ea0217cf","supportsInterface(bytes4)":"01ffc9a7","takeDemandSnapshot()":"33b5e38e","totalDemandWeight()":"514c3d56","totalVotingPower(uint256)":"536f9f42","typeDemandWeights(uint8)":"0e6c151c","votePoll(uint256,bool)":"9d79a9eb","voteToEarnBonus()":"dd9deb1b","voterParticipationCount(address)":"5c7b264d","votes(uint256,address)":"d23254b4","votingPeriod()":"02a251a3"}}}}}