{"contracts/Escrow.sol":{"Escrow":{"abi":[{"inputs":[{"internalType":"address","name":"_propertyToken","type":"address"},{"internalType":"address","name":"_founderWallet","type":"address"}],"stateMutability":"nonpayable","type":"constructor"},{"inputs":[],"name":"AccessControlBadConfirmation","type":"error"},{"inputs":[{"internalType":"address","name":"account","type":"address"},{"internalType":"bytes32","name":"neededRole","type":"bytes32"}],"name":"AccessControlUnauthorizedAccount","type":"error"},{"inputs":[],"name":"EnforcedPause","type":"error"},{"inputs":[],"name":"ExpectedPause","type":"error"},{"inputs":[],"name":"ReentrancyGuardReentrantCall","type":"error"},{"anonymous":false,"inputs":[{"indexed":true,"internalType":"uint256","name":"propertyId","type":"uint256"},{"indexed":true,"internalType":"address","name":"buyer","type":"address"},{"indexed":false,"internalType":"uint256","name":"amount","type":"uint256"},{"indexed":false,"internalType":"uint256","name":"totalPaid","type":"uint256"},{"indexed":false,"internalType":"bytes32","name":"transactionHash","type":"bytes32"}],"name":"CompliancePurchaseRecorded","type":"event"},{"anonymous":false,"inputs":[{"indexed":true,"internalType":"uint256","name":"propertyId","type":"uint256"},{"indexed":false,"internalType":"uint256","name":"impactScore","type":"uint256"},{"indexed":false,"internalType":"string","name":"reason","type":"string"}],"name":"FounderFeeSkipped","type":"event"},{"anonymous":false,"inputs":[{"indexed":true,"internalType":"uint256","name":"propertyId","type":"uint256"},{"indexed":true,"internalType":"address","name":"founder","type":"address"},{"indexed":false,"internalType":"uint256","name":"amount","type":"uint256"},{"indexed":false,"internalType":"uint256","name":"impactScore","type":"uint256"}],"name":"FounderFundingFeePaid","type":"event"},{"anonymous":false,"inputs":[{"indexed":true,"internalType":"uint256","name":"propertyId","type":"uint256"},{"indexed":false,"internalType":"uint256","name":"totalRaised","type":"uint256"},{"indexed":false,"internalType":"uint256","name":"projectBudget","type":"uint256"}],"name":"FundingComplete","type":"event"},{"anonymous":false,"inputs":[{"indexed":true,"internalType":"uint256","name":"propertyId","type":"uint256"},{"indexed":false,"internalType":"uint256","name":"totalRaised","type":"uint256"},{"indexed":false,"internalType":"uint256","name":"target","type":"uint256"}],"name":"FundingFailed","type":"event"},{"anonymous":false,"inputs":[{"indexed":true,"internalType":"uint256","name":"propertyId","type":"uint256"},{"indexed":true,"internalType":"address","name":"recipient","type":"address"},{"indexed":false,"internalType":"uint256","name":"amount","type":"uint256"}],"name":"FundsReleased","type":"event"},{"anonymous":false,"inputs":[{"indexed":true,"internalType":"uint256","name":"propertyId","type":"uint256"},{"indexed":false,"internalType":"uint256","name":"amount","type":"uint256"},{"indexed":false,"internalType":"string","name":"incomeType","type":"string"}],"name":"IncomeDeposited","type":"event"},{"anonymous":false,"inputs":[{"indexed":true,"internalType":"uint256","name":"propertyId","type":"uint256"},{"indexed":true,"internalType":"address","name":"investor","type":"address"},{"indexed":false,"internalType":"uint256","name":"currentContribution","type":"uint256"},{"indexed":false,"internalType":"uint256","name":"newContribution","type":"uint256"},{"indexed":false,"internalType":"bool","name":"withinLimit","type":"bool"}],"name":"InvestorLimitChecked","type":"event"},{"anonymous":false,"inputs":[{"indexed":false,"internalType":"address","name":"account","type":"address"}],"name":"Paused","type":"event"},{"anonymous":false,"inputs":[{"indexed":true,"internalType":"uint256","name":"propertyId","type":"uint256"},{"indexed":false,"internalType":"uint256","name":"demandScore","type":"uint256"},{"indexed":false,"internalType":"uint256","name":"adjustedTarget","type":"uint256"}],"name":"PollDemandUpdated","type":"event"},{"anonymous":false,"inputs":[{"indexed":true,"internalType":"uint256","name":"propertyId","type":"uint256"},{"indexed":true,"internalType":"address","name":"buyer","type":"address"},{"indexed":false,"internalType":"uint256","name":"amount","type":"uint256"},{"indexed":false,"internalType":"uint256","name":"totalPaid","type":"uint256"},{"indexed":false,"internalType":"uint256","name":"timestamp","type":"uint256"}],"name":"PurchaseReceived","type":"event"},{"anonymous":false,"inputs":[{"indexed":true,"internalType":"uint256","name":"propertyId","type":"uint256"},{"indexed":false,"internalType":"uint256","name":"totalIncome","type":"uint256"},{"indexed":false,"internalType":"uint256","name":"founderShare","type":"uint256"},{"indexed":false,"internalType":"uint256","name":"investorShare","type":"uint256"},{"indexed":false,"internalType":"uint256","name":"timestamp","type":"uint256"}],"name":"QuarterlyDistribution","type":"event"},{"anonymous":false,"inputs":[{"indexed":true,"internalType":"uint256","name":"propertyId","type":"uint256"},{"indexed":true,"internalType":"address","name":"recipient","type":"address"},{"indexed":false,"internalType":"uint256","name":"principal","type":"uint256"},{"indexed":false,"internalType":"uint256","name":"interest","type":"uint256"},{"indexed":false,"internalType":"uint256","name":"timestamp","type":"uint256"}],"name":"RefundComplianceRecorded","type":"event"},{"anonymous":false,"inputs":[{"indexed":true,"internalType":"uint256","name":"propertyId","type":"uint256"},{"indexed":true,"internalType":"address","name":"buyer","type":"address"},{"indexed":false,"internalType":"uint256","name":"principal","type":"uint256"},{"indexed":false,"internalType":"uint256","name":"interest","type":"uint256"},{"indexed":false,"internalType":"uint256","name":"total","type":"uint256"}],"name":"RefundProcessed","type":"event"},{"anonymous":false,"inputs":[{"indexed":true,"internalType":"bytes32","name":"role","type":"bytes32"},{"indexed":true,"internalType":"bytes32","name":"previousAdminRole","type":"bytes32"},{"indexed":true,"internalType":"bytes32","name":"newAdminRole","type":"bytes32"}],"name":"RoleAdminChanged","type":"event"},{"anonymous":false,"inputs":[{"indexed":true,"internalType":"bytes32","name":"role","type":"bytes32"},{"indexed":true,"internalType":"address","name":"account","type":"address"},{"indexed":true,"internalType":"address","name":"sender","type":"address"}],"name":"RoleGranted","type":"event"},{"anonymous":false,"inputs":[{"indexed":true,"internalType":"bytes32","name":"role","type":"bytes32"},{"indexed":true,"internalType":"address","name":"account","type":"address"},{"indexed":true,"internalType":"address","name":"sender","type":"address"}],"name":"RoleRevoked","type":"event"},{"anonymous":false,"inputs":[{"indexed":true,"internalType":"uint256","name":"propertyId","type":"uint256"},{"indexed":true,"internalType":"address","name":"account","type":"address"},{"indexed":false,"internalType":"string","name":"activityType","type":"string"},{"indexed":false,"internalType":"uint256","name":"timestamp","type":"uint256"}],"name":"SuspiciousActivityReported","type":"event"},{"anonymous":false,"inputs":[{"indexed":false,"internalType":"address","name":"account","type":"address"}],"name":"Unpaused","type":"event"},{"inputs":[],"name":"AML_THRESHOLD","outputs":[{"internalType":"uint256","name":"","type":"uint256"}],"stateMutability":"view","type":"function"},{"inputs":[],"name":"BASIS_POINTS","outputs":[{"internalType":"uint256","name":"","type":"uint256"}],"stateMutability":"view","type":"function"},{"inputs":[],"name":"DEFAULT_ADMIN_ROLE","outputs":[{"internalType":"bytes32","name":"","type":"bytes32"}],"stateMutability":"view","type":"function"},{"inputs":[],"name":"FOUNDER_FEE_BPS","outputs":[{"internalType":"uint256","name":"","type":"uint256"}],"stateMutability":"view","type":"function"},{"inputs":[],"name":"MAX_DEMAND_BONUS","outputs":[{"internalType":"uint256","name":"","type":"uint256"}],"stateMutability":"view","type":"function"},{"inputs":[],"name":"MIN_IMPACT_SCORE","outputs":[{"internalType":"uint256","name":"","type":"uint256"}],"stateMutability":"view","type":"function"},{"inputs":[],"name":"OPERATOR_ROLE","outputs":[{"internalType":"bytes32","name":"","type":"bytes32"}],"stateMutability":"view","type":"function"},{"inputs":[],"name":"QUARTERLY_INTERVAL","outputs":[{"internalType":"uint256","name":"","type":"uint256"}],"stateMutability":"view","type":"function"},{"inputs":[],"name":"REFUND_APR","outputs":[{"internalType":"uint256","name":"","type":"uint256"}],"stateMutability":"view","type":"function"},{"inputs":[],"name":"SECONDS_PER_YEAR","outputs":[{"internalType":"uint256","name":"","type":"uint256"}],"stateMutability":"view","type":"function"},{"inputs":[{"internalType":"uint256","name":"","type":"uint256"}],"name":"activeProperties","outputs":[{"internalType":"uint256","name":"","type":"uint256"}],"stateMutability":"view","type":"function"},{"inputs":[],"name":"amlOracle","outputs":[{"internalType":"contract IAMLOracle","name":"","type":"address"}],"stateMutability":"view","type":"function"},{"inputs":[{"internalType":"uint256","name":"","type":"uint256"}],"name":"baseFundingTargets","outputs":[{"internalType":"uint256","name":"","type":"uint256"}],"stateMutability":"view","type":"function"},{"inputs":[{"internalType":"uint256","name":"","type":"uint256"},{"internalType":"address","name":"","type":"address"}],"name":"buyerContributions","outputs":[{"internalType":"uint256","name":"","type":"uint256"}],"stateMutability":"view","type":"function"},{"inputs":[{"internalType":"uint256","name":"principal","type":"uint256"},{"internalType":"uint256","name":"investmentTimestamp","type":"uint256"}],"name":"calculateRefund","outputs":[{"internalType":"uint256","name":"","type":"uint256"}],"stateMutability":"view","type":"function"},{"inputs":[{"internalType":"bytes","name":"","type":"bytes"}],"name":"checkUpkeep","outputs":[{"internalType":"bool","name":"upkeepNeeded","type":"bool"},{"internalType":"bytes","name":"performData","type":"bytes"}],"stateMutability":"view","type":"function"},{"inputs":[{"internalType":"uint256","name":"propertyId","type":"uint256"},{"internalType":"string","name":"incomeType","type":"string"}],"name":"depositIncome","outputs":[],"stateMutability":"payable","type":"function"},{"inputs":[{"internalType":"uint256","name":"","type":"uint256"}],"name":"distributionRecipients","outputs":[{"internalType":"address","name":"","type":"address"}],"stateMutability":"view","type":"function"},{"inputs":[],"name":"founderWallet","outputs":[{"internalType":"address","name":"","type":"address"}],"stateMutability":"view","type":"function"},{"inputs":[{"internalType":"uint256","name":"","type":"uint256"}],"name":"fundedProperties","outputs":[{"internalType":"uint256","name":"","type":"uint256"}],"stateMutability":"view","type":"function"},{"inputs":[{"internalType":"uint256","name":"propertyId","type":"uint256"}],"name":"getDemandAdjustedTarget","outputs":[{"internalType":"uint256","name":"baseTarget","type":"uint256"},{"internalType":"uint256","name":"adjustedTarget","type":"uint256"},{"internalType":"uint256","name":"demandScore","type":"uint256"}],"stateMutability":"view","type":"function"},{"inputs":[{"internalType":"uint256","name":"propertyId","type":"uint256"}],"name":"getEscrowStatus","outputs":[{"internalType":"uint256","name":"totalRaised","type":"uint256"},{"internalType":"uint256","name":"fundingTarget","type":"uint256"},{"internalType":"uint256","name":"projectBudget","type":"uint256"},{"internalType":"uint256","name":"deadline","type":"uint256"},{"internalType":"bool","name":"isComplete","type":"bool"},{"internalType":"bool","name":"founderFeePaid","type":"bool"},{"internalType":"uint256","name":"percentFunded","type":"uint256"}],"stateMutability":"view","type":"function"},{"inputs":[{"internalType":"uint256","name":"propertyId","type":"uint256"},{"internalType":"address","name":"investor","type":"address"}],"name":"getInvestorContribution","outputs":[{"internalType":"uint256","name":"","type":"uint256"}],"stateMutability":"view","type":"function"},{"inputs":[{"internalType":"uint256","name":"propertyId","type":"uint256"}],"name":"getPurchaseCount","outputs":[{"internalType":"uint256","name":"","type":"uint256"}],"stateMutability":"view","type":"function"},{"inputs":[{"internalType":"uint256","name":"propertyId","type":"uint256"},{"internalType":"uint256","name":"index","type":"uint256"}],"name":"getPurchaseForAudit","outputs":[{"internalType":"address","name":"buyer","type":"address"},{"internalType":"uint256","name":"amount","type":"uint256"},{"internalType":"uint256","name":"price","type":"uint256"},{"internalType":"uint256","name":"totalPaid","type":"uint256"},{"internalType":"uint256","name":"timestamp","type":"uint256"},{"internalType":"bool","name":"refunded","type":"bool"}],"stateMutability":"view","type":"function"},{"inputs":[{"internalType":"uint256","name":"propertyId","type":"uint256"}],"name":"getPurchases","outputs":[{"components":[{"internalType":"address","name":"buyer","type":"address"},{"internalType":"uint256","name":"propertyId","type":"uint256"},{"internalType":"uint256","name":"amount","type":"uint256"},{"internalType":"uint256","name":"price","type":"uint256"},{"internalType":"uint256","name":"totalPaid","type":"uint256"},{"internalType":"uint256","name":"timestamp","type":"uint256"},{"internalType":"bool","name":"refunded","type":"bool"}],"internalType":"struct Escrow.Purchase[]","name":"","type":"tuple[]"}],"stateMutability":"view","type":"function"},{"inputs":[{"internalType":"uint256","name":"propertyId","type":"uint256"}],"name":"getQuarterlyState","outputs":[{"internalType":"uint256","name":"lastDistribution","type":"uint256"},{"internalType":"uint256","name":"pendingIncome","type":"uint256"},{"internalType":"uint256","name":"nextDistribution","type":"uint256"},{"internalType":"bool","name":"isTracked","type":"bool"}],"stateMutability":"view","type":"function"},{"inputs":[{"internalType":"bytes32","name":"role","type":"bytes32"}],"name":"getRoleAdmin","outputs":[{"internalType":"bytes32","name":"","type":"bytes32"}],"stateMutability":"view","type":"function"},{"inputs":[],"name":"governanceContract","outputs":[{"internalType":"address","name":"","type":"address"}],"stateMutability":"view","type":"function"},{"inputs":[{"internalType":"bytes32","name":"role","type":"bytes32"},{"internalType":"address","name":"account","type":"address"}],"name":"grantRole","outputs":[],"stateMutability":"nonpayable","type":"function"},{"inputs":[{"internalType":"bytes32","name":"role","type":"bytes32"},{"internalType":"address","name":"account","type":"address"}],"name":"hasRole","outputs":[{"internalType":"bool","name":"","type":"bool"}],"stateMutability":"view","type":"function"},{"inputs":[{"internalType":"uint256","name":"propertyId","type":"uint256"},{"internalType":"uint256","name":"projectBudget","type":"uint256"},{"internalType":"uint256","name":"deadline","type":"uint256"},{"internalType":"uint256","name":"proposalId","type":"uint256"}],"name":"initializeEscrow","outputs":[],"stateMutability":"nonpayable","type":"function"},{"inputs":[{"internalType":"uint256","name":"","type":"uint256"}],"name":"isPropertyActive","outputs":[{"internalType":"bool","name":"","type":"bool"}],"stateMutability":"view","type":"function"},{"inputs":[{"internalType":"uint256","name":"","type":"uint256"}],"name":"isPropertyFunded","outputs":[{"internalType":"bool","name":"","type":"bool"}],"stateMutability":"view","type":"function"},{"inputs":[],"name":"pause","outputs":[],"stateMutability":"nonpayable","type":"function"},{"inputs":[],"name":"paused","outputs":[{"internalType":"bool","name":"","type":"bool"}],"stateMutability":"view","type":"function"},{"inputs":[{"internalType":"bytes","name":"performData","type":"bytes"}],"name":"performUpkeep","outputs":[],"stateMutability":"nonpayable","type":"function"},{"inputs":[{"internalType":"uint256","name":"","type":"uint256"}],"name":"pollDemandScores","outputs":[{"internalType":"uint256","name":"","type":"uint256"}],"stateMutability":"view","type":"function"},{"inputs":[{"internalType":"uint256","name":"propertyId","type":"uint256"}],"name":"processRefunds","outputs":[],"stateMutability":"nonpayable","type":"function"},{"inputs":[{"internalType":"uint256","name":"","type":"uint256"}],"name":"propertyEscrows","outputs":[{"internalType":"uint256","name":"totalRaised","type":"uint256"},{"internalType":"uint256","name":"fundingTarget","type":"uint256"},{"internalType":"uint256","name":"projectBudget","type":"uint256"},{"internalType":"uint256","name":"deadline","type":"uint256"},{"internalType":"bool","name":"isComplete","type":"bool"},{"internalType":"bool","name":"refundsProcessed","type":"bool"},{"internalType":"bool","name":"founderFeePaid","type":"bool"},{"internalType":"uint256","name":"proposalId","type":"uint256"}],"stateMutability":"view","type":"function"},{"inputs":[{"internalType":"uint256","name":"","type":"uint256"},{"internalType":"uint256","name":"","type":"uint256"}],"name":"propertyPurchases","outputs":[{"internalType":"address","name":"buyer","type":"address"},{"internalType":"uint256","name":"propertyId","type":"uint256"},{"internalType":"uint256","name":"amount","type":"uint256"},{"internalType":"uint256","name":"price","type":"uint256"},{"internalType":"uint256","name":"totalPaid","type":"uint256"},{"internalType":"uint256","name":"timestamp","type":"uint256"},{"internalType":"bool","name":"refunded","type":"bool"}],"stateMutability":"view","type":"function"},{"inputs":[],"name":"propertyToken","outputs":[{"internalType":"contract IPropertyToken","name":"","type":"address"}],"stateMutability":"view","type":"function"},{"inputs":[{"internalType":"uint256","name":"propertyId","type":"uint256"},{"internalType":"uint256","name":"amount","type":"uint256"}],"name":"purchase","outputs":[],"stateMutability":"payable","type":"function"},{"inputs":[{"internalType":"uint256","name":"","type":"uint256"}],"name":"quarterlyStates","outputs":[{"internalType":"uint256","name":"lastDistribution","type":"uint256"},{"internalType":"uint256","name":"pendingIncome","type":"uint256"},{"internalType":"bool","name":"isTracked","type":"bool"}],"stateMutability":"view","type":"function"},{"inputs":[{"internalType":"uint256","name":"propertyId","type":"uint256"},{"internalType":"address","name":"recipient","type":"address"}],"name":"releaseFunds","outputs":[],"stateMutability":"nonpayable","type":"function"},{"inputs":[{"internalType":"bytes32","name":"role","type":"bytes32"},{"internalType":"address","name":"callerConfirmation","type":"address"}],"name":"renounceRole","outputs":[],"stateMutability":"nonpayable","type":"function"},{"inputs":[{"internalType":"uint256","name":"propertyId","type":"uint256"},{"internalType":"address","name":"account","type":"address"},{"internalType":"string","name":"activityType","type":"string"}],"name":"reportSuspiciousActivity","outputs":[],"stateMutability":"nonpayable","type":"function"},{"inputs":[{"internalType":"bytes32","name":"role","type":"bytes32"},{"internalType":"address","name":"account","type":"address"}],"name":"revokeRole","outputs":[],"stateMutability":"nonpayable","type":"function"},{"inputs":[{"internalType":"address","name":"_oracle","type":"address"}],"name":"setAMLOracle","outputs":[],"stateMutability":"nonpayable","type":"function"},{"inputs":[{"internalType":"uint256","name":"propertyId","type":"uint256"},{"internalType":"address","name":"recipient","type":"address"}],"name":"setDistributionRecipient","outputs":[],"stateMutability":"nonpayable","type":"function"},{"inputs":[{"internalType":"address","name":"_governance","type":"address"}],"name":"setGovernanceContract","outputs":[],"stateMutability":"nonpayable","type":"function"},{"inputs":[{"internalType":"bytes4","name":"interfaceId","type":"bytes4"}],"name":"supportsInterface","outputs":[{"internalType":"bool","name":"","type":"bool"}],"stateMutability":"view","type":"function"},{"inputs":[],"name":"unpause","outputs":[],"stateMutability":"nonpayable","type":"function"},{"inputs":[{"internalType":"uint256","name":"propertyId","type":"uint256"},{"internalType":"uint256","name":"demandScore","type":"uint256"}],"name":"updatePollDemand","outputs":[],"stateMutability":"nonpayable","type":"function"},{"stateMutability":"payable","type":"receive"}],"evm":{"bytecode":{"linkReferences":{},"object":"60a0346200011a57601f620031e038819003918201601f19168301916001600160401b038311848410176200011f5780849260409485528339810103126200011a576200005a6020620000528362000135565b920162000135565b6001805560025490916001600160a01b03831615620000d5576001600160a81b031990911660089190911b610100600160a81b031617600255608052620000a1336200014a565b50620000ad33620001ca565b50604051612f5390816200026d8239608051818181610c610152818161131901526120280152f35b60405162461bcd60e51b815260206004820152601760248201527f466f756e6465722077616c6c65742072657175697265640000000000000000006044820152606490fd5b600080fd5b634e487b7160e01b600052604160045260246000fd5b51906001600160a01b03821682036200011a57565b6001600160a01b031660008181527fad3228b676f7d3cd4284a5443f17f1962b36e491b30a40b2405849e597ba5fb5602052604081205490919060ff16620001c657818052816020526040822081835260205260408220600160ff198254161790553391600080516020620031c08339815191528180a4600190565b5090565b6001600160a01b031660008181527fee57cd81e84075558e8fcc182a1f4393f91fc97f963a136e66b7f949a62f319f60205260408120549091907f97667070c54ef182b0f5858b034beac1b6f3089aa2d3188bb1e8929f4fa9b9299060ff166200026757808352826020526040832082845260205260408320600160ff19825416179055600080516020620031c0833981519152339380a4600190565b50509056fe608080604052600436101561001d575b50361561001b57600080fd5b005b600090813560e01c90816301ffc9a7146127f85750806311028915146127dc5780631129753f1461279c57806311e2e1751461227a57806314a2873a1461277f578063154bb891146127505780631af23a59146125dc578063213b8f73146125b35780632430fc3d14612531578063248a9ca3146125055780632b904a79146124db5780632d56061d146124ac5780632f2ff15d1461246f578063345460cd146123a4578063346ef41b1461237157806336568abe146123295780633f4ba83a146122be57806340a0841b1461227a578063435a481a146121ee57806343ae2695146121c15780634585e33b14611db357806350e2f0f714611cef5780635c79a28914611abe5780635c975abb14611a9b5780636e04ff0d14611a245780636f629ed5146118b557806370876c9814610ee157806373f9ff4e14610e705780637f42ff6414610dd85780638456cb5914610d7d5780638b7155d214610d3d5780639093bb2014610d1357806391d1485414610cc8578063937daefd14610cac578063a217fddf14610c90578063a23d3c3514610c4b578063a384854e14610b1c578063a8b268de14610af1578063b172b22214610ac8578063b6607cc514610aac578063b7fe095314610a51578063be4ac3dc146108ae578063be6d243e14610884578063bf9586e014610867578063c6f569011461047c578063d2e0f66e146103f2578063d38e698e146103d4578063d547741f14610393578063da561ec61461034c578063e1f1c4a71461032f578063e38abd0f1461030d578063e6a69ab8146102ee578063f5b541a6146102b35763f71896cc0361000f57346102b05760203660031901126102b05760043590600b548210156102b05760206102a28361292c565b90546040519160031b1c8152f35b80fd5b50346102b057806003193601126102b05760206040517f97667070c54ef182b0f5858b034beac1b6f3089aa2d3188bb1e8929f4fa9b9298152f35b50346102b057806003193601126102b05760206040516301e133808152f35b50346102b0576020610327610321366128a6565b90612cd9565b604051908152f35b50346102b057806003193601126102b05760206040516127108152f35b50346102b05760203660031901126102b0576040606091600435815260086020522080549060ff600260018301549201541690604051928352602083015215156040820152f35b50346102b05760403660031901126102b0576103d06004356103b3612863565b90808452836020526103cb6001604086200154612dc3565b612e8a565b5080f35b50346102b057806003193601126102b05760206040516276a7008152f35b50346102b057610401366128a6565b919081526005602052604081209081548310156102b05760e06104248484612963565b5060018060a01b03815416906001810154906002810154600382015460048301549160ff600660058601549501541694604051968752602087015260408601526060850152608084015260a0830152151560c0820152f35b50346102b05760203660031901126102b057610496612de9565b6004358152600660205260408120600a6020526104b960ff604084205416612a5d565b60048101805460ff8116610829576104d76003840154421015612ade565b60ff8160081c166107e4576101009061ff001916179055805460018092015460405191825260208201527fe530e08c8f5e186cb204c6c0e883b12ddbcd56a383e4113f06dbee1e09fde7c6604060043592a26004358252600560205280604083208184905b61055f575b5050506004358252600a60205260408220805460ff19169055805580f35b81548110156107df576105728183612963565b506006810180549060ff82161561058f575b50505082018261053c565b909291946105a66004870154600588015490612cd9565b60ff199094161790556002548454604051627eeac760e11b81526001600160a01b039182166004808301829052356024830152899360081c9092169190602081604481865afa9081156107d457849161079a575b5080610721575b5050508080808560018060a01b038954165af161061c612a04565b50156106e357849384927fae5e4bdebc0d69f9b0be70b5e09166a1e47166c306633f938b7d07cef8d1a7906106d86106b6600460018060a01b038654169501548486610669838098612cab565b7f35b1f7e4c3146d284962cc37abf509799d0f4be30b6a19d025ba7309302c9487604051806106ae866004359589846040919493926060820195825260208201520152565b0390a3612cab565b6040805194855260208501919091524290840152600435929081906060820190565b0390a3903880610584565b60405162461bcd60e51b81526020600482015260166024820152751499599d5b99081d1c985b9cd9995c8819985a5b195960521b6044820152606490fd5b823b1561079657604051631dd85adb60e11b815260048035908201526001600160a01b0392909216602483015260448201529082908290606490829084905af1801561078b57610773575b8080610601565b61077c9061297f565b61078757853861076c565b8580fd5b6040513d84823e3d90fd5b8380fd5b9350506020833d6020116107cc575b816107b6602093836129c8565b810103126107c757889251386105fa565b600080fd5b3d91506107a9565b6040513d86823e3d90fd5b610541565b60405162461bcd60e51b815260206004820152601960248201527f526566756e647320616c72656164792070726f636573736564000000000000006044820152606490fd5b60405162461bcd60e51b8152602060048201526016602482015275119d5b991a5b99c81dd85cc81cdd58d8d95cdcd99d5b60521b6044820152606490fd5b50346102b057806003193601126102b05760206040516109c48152f35b50346102b05760203660031901126102b05760406020916004358152600f83522054604051908152f35b50346102b0576108bd366128a6565b6108c5612d67565b8183526020600a81526108de60ff604086205416612a5d565b61271090818311610a1657838552600681526040852060ff6004820154166109d157848652600e8252836040872055600f82526040862054869084611b588710156109a1575b6109316109389383612a34565b0490612b21565b928360018301556126ac80850290858204148515171561098d579160027f11048d4b31e45dea888dfccd9163b3bfd669feedfea3a6f44938ac90d77c2f9a96949260409694049101558351928352820152a280f35b634e487b7160e01b88526011600452602488fd5b509050611b5719850185811161098d576109c49081810291818304149015171561098d57610bb890049084610924565b60405162461bcd60e51b815260048101839052601860248201527f46756e64696e6720616c726561647920636f6d706c65746500000000000000006044820152606490fd5b6064906040519062461bcd60e51b825260048201526014602482015273496e76616c69642064656d616e642073636f726560601b6044820152fd5b50346102b05760203660031901126102b0576004358152600f60205260408120546006602052610aa860406001818520015493600e6020522054604051938493846040919493926060820195825260208201520152565b0390f35b50346102b057806003193601126102b057602060405160508152f35b50346102b057806003193601126102b0576004546040516001600160a01b039091168152602090f35b50346102b05760203660031901126102b057600435906009548210156102b05760206102a2836128df565b5060403660031901126102b0576004356024356001600160401b038111610c4757610b4b903690600401612879565b90610b54612d67565b828452600c60205260ff60408520541615610c0c573415610bd0577f298a82860699031727d1bf8a607ec42d9c496cae1f2762d56954d576c211b1fe91838552600860205260016040862001610bab348254612b21565b9055610bca604051928392348452604060208501526040840191612cb8565b0390a280f35b60405162461bcd60e51b8152602060048201526014602482015273139bc81a5b98dbdb59481d1bc819195c1bdcda5d60621b6044820152606490fd5b60405162461bcd60e51b8152602060048201526013602482015272141c9bdc195c9d1e481b9bdd08199d5b991959606a1b6044820152606490fd5b8280fd5b50346102b057806003193601126102b0576040517f00000000000000000000000000000000000000000000000000000000000000006001600160a01b03168152602090f35b50346102b057806003193601126102b057602090604051908152f35b50346102b057806003193601126102b057602060405160468152f35b50346102b05760403660031901126102b0576040610ce4612863565b91600435815280602052209060018060a01b0316600052602052602060ff604060002054166040519015158152f35b50346102b05760203660031901126102b05760406020916004358152600583522054604051908152f35b50346102b05760203660031901126102b057610d5761284d565b610d5f612d0f565b60018060a01b03166001600160601b0360a01b600354161760035580f35b50346102b057806003193601126102b057610d96612d0f565b610d9e612eff565b600160ff1960025416176002557f62e78cea01bee320cd4e420270b5ea74000d11b0c9f74754ebdbfc544b05a2586020604051338152a180f35b50346102b05760603660031901126102b057610df2612863565b604435906001600160401b038211610c47577f3914d40c9fe0daebd442d05df43dd630d415a8ce81ce1695843ca510f4f1c4f5610e36610e52933690600401612879565b9390610e40612d67565b60405194604086526040860191612cb8565b4260208501526001600160a01b03909216926004359281900390a380f35b50346102b05760203660031901126102b0576004358152600860205260408120908154906001830154906276a700830190818411610ecd575060ff6002608095015416916040519384526020840152604083015215156060820152f35b634e487b7160e01b81526011600452602490fd5b50610eeb366128a6565b610ef3612de9565b610efb612eff565b81835260066020526040832090600a602052610f1d60ff604086205416612a5d565b610f2e60ff60048401541615612a9f565b60038201544210156118705760035484906001600160a01b031680611777575b50506002546040516362ae87ab60e11b815260048101859052906020908290602490829060081c6001600160a01b03165afa90811561176c57859161173a575b50610f998282612a34565b908134106116fe5784865260056020526040862060405191610fba83612992565b33835286602084015284604084015260608301528260808301524260a08301528660c0830152805490600160401b8210156116ea5790610fff91600182018155612963565b9190916116d65790600660c06110739360018060a01b038151166001600160601b0360a01b8554161784556020810151600185015560408101516002850155606081015160038501556080810151600485015560a081015160058501550151151591019060ff801983541691151516179055565b61107e818454612b21565b83558385526007602052604085203360005260205260406000206110a3828254612b21565b9055600254859060081c6001600160a01b0316803b15611660576040516346b40cdf60e11b815260048101879052336024820152604481018590529082908290606490829084905af1801561078b576116be575b5050803411611664575b604051847f076d4a8f0927f81646eba8e062c7769238e76316ca0f16820b27d377c2becc1e339280611146428789846040919493926060820195825260208201520152565b0390a36040514260208201523360601b6040820152846054820152826074820152607481528060a08101106001600160401b0360a08301111761147a576111ee9260a08201604052815160208301209060a08301528260c083015260e0820152847f2ded55fd793d860b77d0778a0cdf6984909d323e049f1ed2923eba867202b361606060a0339401a383855260076020526040852033600052602052604060002054612cab565b82845260076020526040842033600052602052604060002054604051918252602082015260016040820152827f42d3cd62f75f9115471aa0a6ef108d9e0fef8e5b6913419befd8a166879def4f60603393a3600181549101541115611256575b506001805580f35b80825260066020526040822060048101805460ff19166001179055600254839060081c6001600160a01b0316803b15611660578180916024604051809481936362b3375960e11b83528960048401525af1801561078b5761164c575b50508054606481029080820460641481151715611638576004548591906001906001600160a01b0316806114ef575b50806114e2575b156114d557506201000062ff00001960048501541617600484015561131261271083048454612cab565b60028401557f00000000000000000000000000000000000000000000000000000000000000006001600160a01b031691858080806127108504875af1611356612a04565b50156114905760407fd3bff92a06f059ffe4dc0961b88c7a33c074d4cb95d95d996ad9a094e0f14db29186936127108351920482526020820152a35b60405160608101908082106001600160401b0383111761147a576113f4916040524281526002602082018681526040830190600182528688526008602052604088209351845551600184015551151591019060ff801983541691151516179055565b600b54600160401b81101561147a577fbd04b0e879e6a84a288e6660cfcc2e8337035a9ad3343ff360c4aefb45576aae9161143782600160409401600b5561292c565b81549060031b9086821b91600019901b1916179055838552600c602052818520600160ff198254161790556002815491015482519182526020820152a23861124e565b634e487b7160e01b600052604160045260246000fd5b60405162461bcd60e51b815260206004820152601b60248201527f466f756e64657220666565207472616e73666572206661696c656400000000006044820152606490fd5b9150506002820155611392565b50612710830415156112e8565b90876005870154602460405180958193632542515160e21b835260048301525afa8892816115a4575b5061152857505060015b386112e1565b909250826046811061153b575b50611522565b9050857f2b0a0eb5cc368f947ec76563b6992d3ec41dbe4a0bae8891d41589c2249fd48e6080899360405190815260406020820152601f60408201527f496d706163742073636f72652062656c6f77203730207468726573686f6c64006060820152a238611535565b9092503d90818a823e6115b782826129c8565b6040818381010312611634578051916001600160401b03831161163057808201601f84840101121561163057828201516115f0816129e9565b916115fe60405193846129c8565b818352830160208286860101011161162c5760209384806116239401918501016128bc565b01519138611518565b8b80fd5b8a80fd5b8980fd5b634e487b7160e01b85526011600452602485fd5b6116559061297f565b610c475782386112b2565b5080fd5b848080806116728534612cab565b335af161167d612a04565b506111015760405162461bcd60e51b8152602060048201526014602482015273115e18d95cdcc81c99599d5b990819985a5b195960621b6044820152606490fd5b6116c79061297f565b6116d25784386110f7565b8480fd5b634e487b7160e01b87526004879052602487fd5b634e487b7160e01b88526041600452602488fd5b60405162461bcd60e51b8152602060048201526014602482015273125b9cdd59999a58da595b9d081c185e5b595b9d60621b6044820152606490fd5b90506020813d602011611764575b81611755602093836129c8565b810103126107c7575138610f8e565b3d9150611748565b6040513d87823e3d90fd5b602090602460405180948193633c84af8760e01b83523360048401525af1801561176c57859061183d575b60509150116117b2578338610f4e565b826040519060408252600e60408301526d4869676820414d4c2053636f726560901b60608301524260208301527f3914d40c9fe0daebd442d05df43dd630d415a8ce81ce1695843ca510f4f1c4f560803393a360405162461bcd60e51b815260206004820152601060248201526f1053530818da1958dac819985a5b195960821b6044820152606490fd5b506020813d602011611868575b81611857602093836129c8565b810103126107c757605090516117a2565b3d915061184a565b60405162461bcd60e51b815260206004820152601760248201527f46756e64696e6720646561646c696e65207061737365640000000000000000006044820152606490fd5b50346102b057602090816003193601126102b05760043581526005808352604082209283546001600160401b038111611a105791849192604051916118ff858360051b01846129c8565b81835284830190819487528587209087925b84841061199d5750505050506040519280840191818552518092526040840192945b8281106119405784840385f35b855180516001600160a01b03168552808301518584015260408082015190860152606080820151908601526080808201519086015260a0808201519086015260c0908101511515908501529481019460e090930192600101611933565b60078860019260409b9a98999b516119b481612992565b848060a01b03875416815284870154838201526002870154604082015260038701546060820152600487015460808201528587015460a082015260ff600688015416151560c08201528152019301930192919795949697611911565b634e487b7160e01b84526041600452602484fd5b50346102b05760203660031901126102b0576004356001600160401b03811161166057611a55903690600401612879565b50506060611a61612b2e565b91906040519283911515825260406020830152611a8d81518092816040860152602086860191016128bc565b601f01601f19168101030190f35b50346102b057806003193601126102b057602060ff600254166040519015158152f35b50346102b05760803660031901126102b0576024908135600435611ae0612d67565b808352602091600a835260ff604085205416611cb3578015611c6f57612710810261270f1982820401611c5c576126ac900490828552600f8452816040862055604051916101008301918383106001600160401b03841117611c47576005926040528684528584019182526040840190815260608401906044358252608085019188835260a086019089825260c08701928a845260e08801956064358752898c5260068b5260408c2098518955516001890155516002880155516003870155611bbc6004870193511515849060ff801983541691151516179055565b5115159061ff0062ff000084549251151560101b169260081b169062ffff001916171790555191015560095493600160401b851015611c335750611c09846001600a9596016009556128df565b81549060031b9083821b91600019901b191617905583525260408120600160ff1982541617905580f35b634e487b7160e01b60009081526041600452fd5b87634e487b7160e01b60005260416004526000fd5b634e487b7160e01b855260116004528585fd5b60405162461bcd60e51b8152600481018490526017818701527f50726f6a656374206275646765742072657175697265640000000000000000006044820152606490fd5b60405162461bcd60e51b81526004810184905260158187015274457363726f7720616c72656164792065786973747360581b6044820152606490fd5b50346102b057611cfe366128a6565b818392935260056020526040822054811015611d785760408260c094611d2a9452600560205220612963565b5060018060a01b0381541690600281015490600381015460048201549060ff6006600585015494015416936040519586526020860152604085015260608401526080830152151560a0820152f35b60405162461bcd60e51b8152602060048201526013602482015272496e646578206f7574206f6620626f756e647360681b6044820152606490fd5b50346102b05760208060031936011261166057600435906001600160401b038211610c4757611de86040923690600401612879565b9080939181010312610c475781359160ff8316809303610796578101359180611ecd5750818352600681526040832090600a8152611e2c60ff604086205416612a5d565b60ff6004830154611e3f82821615612a9f565b60081c16611e9557506003611e58910154421015612ade565b303b15611660576040519063c6f5690160e01b82526004820152818160248183305af1801561078b57611e89575080f35b611e929061297f565b80f35b6064906040519062461bcd60e51b8252600482015260116024820152701499599d5b991cc81c1c9bd8d95cdcd959607a1b6044820152fd5b600114611ed957505080f35b81835260088152604083209060ff600283015416156121845781546276a700810180911161163857421061214057600182019081549283156120fb57848652600d825260408620546001600160a01b0393908416156120b657869055429055606483028381046064036120a25761271090049085611f578386612cab565b9383612020575b84611fa5575b5050917ffa2256ed22b95bad4ade0813dbe7b8eee9382165c52aa77952de366b24bf8e2093916080936040519384528301526040820152426060820152a280f35b81808681938a8352600d87526040832054165af1611fc1612a04565b5015611fce578538611f64565b6084906040519062461bcd60e51b82526004820152602560248201527f496e766573746f7220646973747269627574696f6e207472616e736665722066604482015264185a5b195960da1b6064820152fd5b9080808086857f0000000000000000000000000000000000000000000000000000000000000000165af1612052612a04565b501561205f578690611f5e565b6064826040519062461bcd60e51b825280600483015260248201527f466f756e64657220717561727465726c79207061796d656e74206661696c65646044820152fd5b634e487b7160e01b86526011600452602486fd5b60405162461bcd60e51b815260048101849052601e60248201527f446973747269627574696f6e20726563697069656e74206e6f742073657400006044820152606490fd5b60405162461bcd60e51b815260048101839052601760248201527f4e6f20696e636f6d6520746f20646973747269627574650000000000000000006044820152606490fd5b6064906040519062461bcd60e51b82526004820152601a60248201527f546f6f206561726c7920666f7220646973747269627574696f6e0000000000006044820152fd5b6064906040519062461bcd60e51b8252600482015260166024820152754e6f74206120747261636b65642070726f706572747960501b6044820152fd5b50346102b057806003193601126102b05760025460405160089190911c6001600160a01b03168152602090f35b50346102b05760403660031901126102b057612208612863565b612210612d67565b6001600160a01b03168015612241576004358252600d6020526040822080546001600160a01b031916909117905580f35b60405162461bcd60e51b8152602060048201526011602482015270125b9d985b1a59081c9958da5c1a595b9d607a1b6044820152606490fd5b50346102b05760403660031901126102b0576040602091612299612863565b6004358252600784528282206001600160a01b03909116825283522054604051908152f35b50346102b057806003193601126102b0576122d7612d0f565b60025460ff8116156123175760ff19166002557f5db9ee0a495bf2e6ff9c91a7834c1ba4fdd244a5e8aa4e537bd38aeae4b073aa6020604051338152a180f35b604051638dfc202b60e01b8152600490fd5b50346102b05760403660031901126102b057612343612863565b336001600160a01b0382160361235f576103d090600435612e8a565b60405163334bd91960e11b8152600490fd5b50346102b05760203660031901126102b0576020906004358152600d8252604060018060a01b0391205416604051908152f35b50346102b05760203660031901126102b0576004358152600660205260408120600181015480159283612462578254936127109485810295818704149015171561244e5761243a575060ff8160e09404915b835493600281015460046003830154920154926040519687526020870152604086015260608501528181161515608085015260101c16151560a083015260c0820152f35b634e487b7160e01b81526012600452602490fd5b634e487b7160e01b82526011600452602482fd5b60e0935060ff90916123f6565b50346102b05760403660031901126102b0576103d060043561248f612863565b90808452836020526124a76001604086200154612dc3565b612e0c565b50346102b05760203660031901126102b05760ff60406020926004358152600c84522054166040519015158152f35b50346102b05760203660031901126102b05760406020916004358152600e83522054604051908152f35b50346102b05760203660031901126102b057600160406020926004358152808452200154604051908152f35b50346102b05760203660031901126102b057604061010091600435815260066020522080549060ff6001820154916002810154600382015490600560048401549301549460405196875260208701526040860152606085015281811615156080850152818160081c16151560a085015260101c16151560c083015260e0820152f35b50346102b057806003193601126102b0576003546040516001600160a01b039091168152602090f35b50346102b05760403660031901126102b0576004356125f9612863565b90612602612d67565b61260a612de9565b8083526020600681526040842060ff60048201541615612714576002019283549384156126cf57859055828552600a825260408520805460ff191690556001600160a01b0316928480808084885af1612661612a04565b501561269857907f6e3c6096795c8298a218b2cfb8bde42726ff7c9a3d27b4d3ba41ab7f74feb5fb91604051908152a36001805580f35b60405162461bcd60e51b815260048101839052600f60248201526e151c985b9cd9995c8819985a5b1959608a1b6044820152606490fd5b60405162461bcd60e51b815260048101849052601c60248201527f4e6f2070726f6a6563742062756467657420746f2072656c65617365000000006044820152606490fd5b60405162461bcd60e51b815260048101839052601460248201527346756e64696e67206e6f7420636f6d706c65746560601b6044820152606490fd5b50346102b05760203660031901126102b05760ff60406020926004358152600a84522054166040519015158152f35b50346102b057806003193601126102b057602060405161012c8152f35b50346102b05760203660031901126102b0576127b661284d565b6127be612d0f565b60018060a01b03166001600160601b0360a01b600454161760045580f35b50346102b057806003193601126102b057602060405160648152f35b9050346116605760203660031901126116605760043563ffffffff60e01b8116809103610c475760209250637965db0b60e01b811490811561283c575b5015158152f35b6301ffc9a760e01b14905038612835565b600435906001600160a01b03821682036107c757565b602435906001600160a01b03821682036107c757565b9181601f840112156107c7578235916001600160401b0383116107c757602083818601950101116107c757565b60409060031901126107c7576004359060243590565b60005b8381106128cf5750506000910152565b81810151838201526020016128bf565b6009548110156129165760096000527f6e1540171b6c0c960b71a7020d9f60077f6af931a8bbf590da0223dacf75c7af0190600090565b634e487b7160e01b600052603260045260246000fd5b600b5481101561291657600b6000527f0175b7a638427703f0dbe7bb9bbf987a2551717b34e79f33b5b1008d1fa01db90190600090565b8054821015612916576000526007602060002091020190600090565b6001600160401b03811161147a57604052565b60e081019081106001600160401b0382111761147a57604052565b606081019081106001600160401b0382111761147a57604052565b90601f801991011681019081106001600160401b0382111761147a57604052565b6001600160401b03811161147a57601f01601f191660200190565b3d15612a2f573d90612a15826129e9565b91612a2360405193846129c8565b82523d6000602084013e565b606090565b81810292918115918404141715612a4757565b634e487b7160e01b600052601160045260246000fd5b15612a6457565b60405162461bcd60e51b815260206004820152601360248201527250726f7065727479206e6f742061637469766560681b6044820152606490fd5b15612aa657565b60405162461bcd60e51b815260206004820152601060248201526f46756e64696e6720636f6d706c65746560801b6044820152606490fd5b15612ae557565b60405162461bcd60e51b8152602060048201526014602482015273111958591b1a5b99481b9bdd081c995858da195960621b6044820152606490fd5b91908201809211612a4757565b60095460005b818110612c01575050600b5460005b818110612b72575050600090604051602081018181106001600160401b0382111761147a576040526000815290565b612b7b8161292c565b90549060031b1c8060005260206008815260408060002060ff6002820154169081612bf3575b81612bda575b50612bb757505050600101612b43565b91949350915080519360018093860152818501528352612bd6836129ad565b9190565b9050546276a7008101809111612a475742101538612ba7565b600181015415159150612ba1565b612c0a816128df565b9054600391821b1c9081600052602091600683526040918260002090600a855260ff91828560002054169283612c9c575b83612c8a575b5082612c7c575b5050612c5957505050600101612b34565b9194935091506000825194850152818401528252612c76826129ad565b60019190565b015442101590503880612c48565b600482015460081c1615925038612c41565b60048201548116159350612c3b565b91908203918211612a4757565b908060209392818452848401376000828201840152601f01601f1916010190565b90612ce49042612cab565b9061012c91828202928284041482151715612a475761093164496cebb80091612d0c94612a34565b90565b3360009081527fad3228b676f7d3cd4284a5443f17f1962b36e491b30a40b2405849e597ba5fb5602052604081205460ff1615612d495750565b6044906040519063e2517d3f60e01b82523360048301526024820152fd5b3360009081527fee57cd81e84075558e8fcc182a1f4393f91fc97f963a136e66b7f949a62f319f60205260409020547f97667070c54ef182b0f5858b034beac1b6f3089aa2d3188bb1e8929f4fa9b9299060ff1615612d495750565b80600052600060205260406000203360005260205260ff6040600020541615612d495750565b600260015414612dfa576002600155565b604051633ee5aeb560e01b8152600490fd5b9060009180835282602052604083209160018060a01b03169182845260205260ff60408420541615600014612e8557808352826020526040832082845260205260408320600160ff198254161790557f2f8788117e7eff1d82e926ec794901d17c78024a50270940304540a733656f0d339380a4600190565b505090565b9060009180835282602052604083209160018060a01b03169182845260205260ff604084205416600014612e855780835282602052604083208284526020526040832060ff1981541690557ff6391f5c32d9c69d2a47ea670b442974b53935d1edc7fd64eb21e047a839171b339380a4600190565b60ff60025416612f0b57565b60405163d93c066560e01b8152600490fdfea26469706673582212208d7e63dc31a2faacdbae2b40d6ceeaa572534c0e4c9afa9b197972c7f240d0a764736f6c634300081800332f8788117e7eff1d82e926ec794901d17c78024a50270940304540a733656f0d","opcodes":"PUSH1 0xA0 CALLVALUE PUSH3 0x11A JUMPI PUSH1 0x1F PUSH3 0x31E0 CODESIZE DUP2 SWAP1 SUB SWAP2 DUP3 ADD PUSH1 0x1F NOT AND DUP4 ADD SWAP2 PUSH1 0x1 PUSH1 0x1 PUSH1 0x40 SHL SUB DUP4 GT DUP5 DUP5 LT OR PUSH3 0x11F JUMPI DUP1 DUP5 SWAP3 PUSH1 0x40 SWAP5 DUP6 MSTORE DUP4 CODECOPY DUP2 ADD SUB SLT PUSH3 0x11A JUMPI PUSH3 0x5A PUSH1 0x20 PUSH3 0x52 DUP4 PUSH3 0x135 JUMP JUMPDEST SWAP3 ADD PUSH3 0x135 JUMP JUMPDEST PUSH1 0x1 DUP1 SSTORE PUSH1 0x2 SLOAD SWAP1 SWAP2 PUSH1 0x1 PUSH1 0x1 PUSH1 0xA0 SHL SUB DUP4 AND ISZERO PUSH3 0xD5 JUMPI PUSH1 0x1 PUSH1 0x1 PUSH1 0xA8 SHL SUB NOT SWAP1 SWAP2 AND PUSH1 0x8 SWAP2 SWAP1 SWAP2 SHL PUSH2 0x100 PUSH1 0x1 PUSH1 0xA8 SHL SUB AND OR PUSH1 0x2 SSTORE PUSH1 0x80 MSTORE PUSH3 0xA1 CALLER PUSH3 0x14A JUMP JUMPDEST POP PUSH3 0xAD CALLER PUSH3 0x1CA JUMP JUMPDEST POP PUSH1 0x40 MLOAD PUSH2 0x2F53 SWAP1 DUP2 PUSH3 0x26D DUP3 CODECOPY PUSH1 0x80 MLOAD DUP2 DUP2 DUP2 PUSH2 0xC61 ADD MSTORE DUP2 DUP2 PUSH2 0x1319 ADD MSTORE PUSH2 0x2028 ADD MSTORE RETURN JUMPDEST PUSH1 0x40 MLOAD PUSH3 0x461BCD PUSH1 0xE5 SHL DUP2 MSTORE PUSH1 0x20 PUSH1 0x4 DUP3 ADD MSTORE PUSH1 0x17 PUSH1 0x24 DUP3 ADD MSTORE PUSH32 0x466F756E6465722077616C6C6574207265717569726564000000000000000000 PUSH1 0x44 DUP3 ADD MSTORE PUSH1 0x64 SWAP1 REVERT JUMPDEST PUSH1 0x0 DUP1 REVERT JUMPDEST PUSH4 0x4E487B71 PUSH1 0xE0 SHL PUSH1 0x0 MSTORE PUSH1 0x41 PUSH1 0x4 MSTORE PUSH1 0x24 PUSH1 0x0 REVERT JUMPDEST MLOAD SWAP1 PUSH1 0x1 PUSH1 0x1 PUSH1 0xA0 SHL SUB DUP3 AND DUP3 SUB PUSH3 0x11A JUMPI JUMP JUMPDEST PUSH1 0x1 PUSH1 0x1 PUSH1 0xA0 SHL SUB AND PUSH1 0x0 DUP2 DUP2 MSTORE PUSH32 0xAD3228B676F7D3CD4284A5443F17F1962B36E491B30A40B2405849E597BA5FB5 PUSH1 0x20 MSTORE PUSH1 0x40 DUP2 KECCAK256 SLOAD SWAP1 SWAP2 SWAP1 PUSH1 0xFF AND PUSH3 0x1C6 JUMPI DUP2 DUP1 MSTORE DUP2 PUSH1 0x20 MSTORE PUSH1 0x40 DUP3 KECCAK256 DUP2 DUP4 MSTORE PUSH1 0x20 MSTORE PUSH1 0x40 DUP3 KECCAK256 PUSH1 0x1 PUSH1 0xFF NOT DUP3 SLOAD AND OR SWAP1 SSTORE CALLER SWAP2 PUSH1 0x0 DUP1 MLOAD PUSH1 0x20 PUSH3 0x31C0 DUP4 CODECOPY DUP2 MLOAD SWAP2 MSTORE DUP2 DUP1 LOG4 PUSH1 0x1 SWAP1 JUMP JUMPDEST POP SWAP1 JUMP JUMPDEST PUSH1 0x1 PUSH1 0x1 PUSH1 0xA0 SHL SUB AND PUSH1 0x0 DUP2 DUP2 MSTORE PUSH32 0xEE57CD81E84075558E8FCC182A1F4393F91FC97F963A136E66B7F949A62F319F PUSH1 0x20 MSTORE PUSH1 0x40 DUP2 KECCAK256 SLOAD SWAP1 SWAP2 SWAP1 PUSH32 0x97667070C54EF182B0F5858B034BEAC1B6F3089AA2D3188BB1E8929F4FA9B929 SWAP1 PUSH1 0xFF AND PUSH3 0x267 JUMPI DUP1 DUP4 MSTORE DUP3 PUSH1 0x20 MSTORE PUSH1 0x40 DUP4 KECCAK256 DUP3 DUP5 MSTORE PUSH1 0x20 MSTORE PUSH1 0x40 DUP4 KECCAK256 PUSH1 0x1 PUSH1 0xFF NOT DUP3 SLOAD AND OR SWAP1 SSTORE PUSH1 0x0 DUP1 MLOAD PUSH1 0x20 PUSH3 0x31C0 DUP4 CODECOPY DUP2 MLOAD SWAP2 MSTORE CALLER SWAP4 DUP1 LOG4 PUSH1 0x1 SWAP1 JUMP JUMPDEST POP POP SWAP1 JUMP INVALID PUSH1 0x80 DUP1 PUSH1 0x40 MSTORE PUSH1 0x4 CALLDATASIZE LT ISZERO PUSH2 0x1D JUMPI JUMPDEST POP CALLDATASIZE ISZERO PUSH2 0x1B JUMPI PUSH1 0x0 DUP1 REVERT JUMPDEST STOP JUMPDEST PUSH1 0x0 SWAP1 DUP2 CALLDATALOAD PUSH1 0xE0 SHR SWAP1 DUP2 PUSH4 0x1FFC9A7 EQ PUSH2 0x27F8 JUMPI POP DUP1 PUSH4 0x11028915 EQ PUSH2 0x27DC JUMPI DUP1 PUSH4 0x1129753F EQ PUSH2 0x279C JUMPI DUP1 PUSH4 0x11E2E175 EQ PUSH2 0x227A JUMPI DUP1 PUSH4 0x14A2873A EQ PUSH2 0x277F JUMPI DUP1 PUSH4 0x154BB891 EQ PUSH2 0x2750 JUMPI DUP1 PUSH4 0x1AF23A59 EQ PUSH2 0x25DC JUMPI DUP1 PUSH4 0x213B8F73 EQ PUSH2 0x25B3 JUMPI DUP1 PUSH4 0x2430FC3D EQ PUSH2 0x2531 JUMPI DUP1 PUSH4 0x248A9CA3 EQ PUSH2 0x2505 JUMPI DUP1 PUSH4 0x2B904A79 EQ PUSH2 0x24DB JUMPI DUP1 PUSH4 0x2D56061D EQ PUSH2 0x24AC JUMPI DUP1 PUSH4 0x2F2FF15D EQ PUSH2 0x246F JUMPI DUP1 PUSH4 0x345460CD EQ PUSH2 0x23A4 JUMPI DUP1 PUSH4 0x346EF41B EQ PUSH2 0x2371 JUMPI DUP1 PUSH4 0x36568ABE EQ PUSH2 0x2329 JUMPI DUP1 PUSH4 0x3F4BA83A EQ PUSH2 0x22BE JUMPI DUP1 PUSH4 0x40A0841B EQ PUSH2 0x227A JUMPI DUP1 PUSH4 0x435A481A EQ PUSH2 0x21EE JUMPI DUP1 PUSH4 0x43AE2695 EQ PUSH2 0x21C1 JUMPI DUP1 PUSH4 0x4585E33B EQ PUSH2 0x1DB3 JUMPI DUP1 PUSH4 0x50E2F0F7 EQ PUSH2 0x1CEF JUMPI DUP1 PUSH4 0x5C79A289 EQ PUSH2 0x1ABE JUMPI DUP1 PUSH4 0x5C975ABB EQ PUSH2 0x1A9B JUMPI DUP1 PUSH4 0x6E04FF0D EQ PUSH2 0x1A24 JUMPI DUP1 PUSH4 0x6F629ED5 EQ PUSH2 0x18B5 JUMPI DUP1 PUSH4 0x70876C98 EQ PUSH2 0xEE1 JUMPI DUP1 PUSH4 0x73F9FF4E EQ PUSH2 0xE70 JUMPI DUP1 PUSH4 0x7F42FF64 EQ PUSH2 0xDD8 JUMPI DUP1 PUSH4 0x8456CB59 EQ PUSH2 0xD7D JUMPI DUP1 PUSH4 0x8B7155D2 EQ PUSH2 0xD3D JUMPI DUP1 PUSH4 0x9093BB20 EQ PUSH2 0xD13 JUMPI DUP1 PUSH4 0x91D14854 EQ PUSH2 0xCC8 JUMPI DUP1 PUSH4 0x937DAEFD EQ PUSH2 0xCAC JUMPI DUP1 PUSH4 0xA217FDDF EQ PUSH2 0xC90 JUMPI DUP1 PUSH4 0xA23D3C35 EQ PUSH2 0xC4B JUMPI DUP1 PUSH4 0xA384854E EQ PUSH2 0xB1C JUMPI DUP1 PUSH4 0xA8B268DE EQ PUSH2 0xAF1 JUMPI DUP1 PUSH4 0xB172B222 EQ PUSH2 0xAC8 JUMPI DUP1 PUSH4 0xB6607CC5 EQ PUSH2 0xAAC JUMPI DUP1 PUSH4 0xB7FE0953 EQ PUSH2 0xA51 JUMPI DUP1 PUSH4 0xBE4AC3DC EQ PUSH2 0x8AE JUMPI DUP1 PUSH4 0xBE6D243E EQ PUSH2 0x884 JUMPI DUP1 PUSH4 0xBF9586E0 EQ PUSH2 0x867 JUMPI DUP1 PUSH4 0xC6F56901 EQ PUSH2 0x47C JUMPI DUP1 PUSH4 0xD2E0F66E EQ PUSH2 0x3F2 JUMPI DUP1 PUSH4 0xD38E698E EQ PUSH2 0x3D4 JUMPI DUP1 PUSH4 0xD547741F EQ PUSH2 0x393 JUMPI DUP1 PUSH4 0xDA561EC6 EQ PUSH2 0x34C JUMPI DUP1 PUSH4 0xE1F1C4A7 EQ PUSH2 0x32F JUMPI DUP1 PUSH4 0xE38ABD0F EQ PUSH2 0x30D JUMPI DUP1 PUSH4 0xE6A69AB8 EQ PUSH2 0x2EE JUMPI DUP1 PUSH4 0xF5B541A6 EQ PUSH2 0x2B3 JUMPI PUSH4 0xF71896CC SUB PUSH2 0xF JUMPI CALLVALUE PUSH2 0x2B0 JUMPI PUSH1 0x20 CALLDATASIZE PUSH1 0x3 NOT ADD SLT PUSH2 0x2B0 JUMPI PUSH1 0x4 CALLDATALOAD SWAP1 PUSH1 0xB SLOAD DUP3 LT ISZERO PUSH2 0x2B0 JUMPI PUSH1 0x20 PUSH2 0x2A2 DUP4 PUSH2 0x292C JUMP JUMPDEST SWAP1 SLOAD PUSH1 0x40 MLOAD SWAP2 PUSH1 0x3 SHL SHR DUP2 MSTORE RETURN JUMPDEST DUP1 REVERT JUMPDEST POP CALLVALUE PUSH2 0x2B0 JUMPI DUP1 PUSH1 0x3 NOT CALLDATASIZE ADD SLT PUSH2 0x2B0 JUMPI PUSH1 0x20 PUSH1 0x40 MLOAD PUSH32 0x97667070C54EF182B0F5858B034BEAC1B6F3089AA2D3188BB1E8929F4FA9B929 DUP2 MSTORE RETURN JUMPDEST POP CALLVALUE PUSH2 0x2B0 JUMPI DUP1 PUSH1 0x3 NOT CALLDATASIZE ADD SLT PUSH2 0x2B0 JUMPI PUSH1 0x20 PUSH1 0x40 MLOAD PUSH4 0x1E13380 DUP2 MSTORE RETURN JUMPDEST POP CALLVALUE PUSH2 0x2B0 JUMPI PUSH1 0x20 PUSH2 0x327 PUSH2 0x321 CALLDATASIZE PUSH2 0x28A6 JUMP JUMPDEST SWAP1 PUSH2 0x2CD9 JUMP JUMPDEST PUSH1 0x40 MLOAD SWAP1 DUP2 MSTORE RETURN JUMPDEST POP CALLVALUE PUSH2 0x2B0 JUMPI DUP1 PUSH1 0x3 NOT CALLDATASIZE ADD SLT PUSH2 0x2B0 JUMPI PUSH1 0x20 PUSH1 0x40 MLOAD PUSH2 0x2710 DUP2 MSTORE RETURN JUMPDEST POP CALLVALUE PUSH2 0x2B0 JUMPI PUSH1 0x20 CALLDATASIZE PUSH1 0x3 NOT ADD SLT PUSH2 0x2B0 JUMPI PUSH1 0x40 PUSH1 0x60 SWAP2 PUSH1 0x4 CALLDATALOAD DUP2 MSTORE PUSH1 0x8 PUSH1 0x20 MSTORE KECCAK256 DUP1 SLOAD SWAP1 PUSH1 0xFF PUSH1 0x2 PUSH1 0x1 DUP4 ADD SLOAD SWAP3 ADD SLOAD AND SWAP1 PUSH1 0x40 MLOAD SWAP3 DUP4 MSTORE PUSH1 0x20 DUP4 ADD MSTORE ISZERO ISZERO PUSH1 0x40 DUP3 ADD MSTORE RETURN JUMPDEST POP CALLVALUE PUSH2 0x2B0 JUMPI PUSH1 0x40 CALLDATASIZE PUSH1 0x3 NOT ADD SLT PUSH2 0x2B0 JUMPI PUSH2 0x3D0 PUSH1 0x4 CALLDATALOAD PUSH2 0x3B3 PUSH2 0x2863 JUMP JUMPDEST SWAP1 DUP1 DUP5 MSTORE DUP4 PUSH1 0x20 MSTORE PUSH2 0x3CB PUSH1 0x1 PUSH1 0x40 DUP7 KECCAK256 ADD SLOAD PUSH2 0x2DC3 JUMP JUMPDEST PUSH2 0x2E8A JUMP JUMPDEST POP DUP1 RETURN JUMPDEST POP CALLVALUE PUSH2 0x2B0 JUMPI DUP1 PUSH1 0x3 NOT CALLDATASIZE ADD SLT PUSH2 0x2B0 JUMPI PUSH1 0x20 PUSH1 0x40 MLOAD PUSH3 0x76A700 DUP2 MSTORE RETURN JUMPDEST POP CALLVALUE PUSH2 0x2B0 JUMPI PUSH2 0x401 CALLDATASIZE PUSH2 0x28A6 JUMP JUMPDEST SWAP2 SWAP1 DUP2 MSTORE PUSH1 0x5 PUSH1 0x20 MSTORE PUSH1 0x40 DUP2 KECCAK256 SWAP1 DUP2 SLOAD DUP4 LT ISZERO PUSH2 0x2B0 JUMPI PUSH1 0xE0 PUSH2 0x424 DUP5 DUP5 PUSH2 0x2963 JUMP JUMPDEST POP PUSH1 0x1 DUP1 PUSH1 0xA0 SHL SUB DUP2 SLOAD AND SWAP1 PUSH1 0x1 DUP2 ADD SLOAD SWAP1 PUSH1 0x2 DUP2 ADD SLOAD PUSH1 0x3 DUP3 ADD SLOAD PUSH1 0x4 DUP4 ADD SLOAD SWAP2 PUSH1 0xFF PUSH1 0x6 PUSH1 0x5 DUP7 ADD SLOAD SWAP6 ADD SLOAD AND SWAP5 PUSH1 0x40 MLOAD SWAP7 DUP8 MSTORE PUSH1 0x20 DUP8 ADD MSTORE PUSH1 0x40 DUP7 ADD MSTORE PUSH1 0x60 DUP6 ADD MSTORE PUSH1 0x80 DUP5 ADD MSTORE PUSH1 0xA0 DUP4 ADD MSTORE ISZERO ISZERO PUSH1 0xC0 DUP3 ADD MSTORE RETURN JUMPDEST POP CALLVALUE PUSH2 0x2B0 JUMPI PUSH1 0x20 CALLDATASIZE PUSH1 0x3 NOT ADD SLT PUSH2 0x2B0 JUMPI PUSH2 0x496 PUSH2 0x2DE9 JUMP JUMPDEST PUSH1 0x4 CALLDATALOAD DUP2 MSTORE PUSH1 0x6 PUSH1 0x20 MSTORE PUSH1 0x40 DUP2 KECCAK256 PUSH1 0xA PUSH1 0x20 MSTORE PUSH2 0x4B9 PUSH1 0xFF PUSH1 0x40 DUP5 KECCAK256 SLOAD AND PUSH2 0x2A5D JUMP JUMPDEST PUSH1 0x4 DUP2 ADD DUP1 SLOAD PUSH1 0xFF DUP2 AND PUSH2 0x829 JUMPI PUSH2 0x4D7 PUSH1 0x3 DUP5 ADD SLOAD TIMESTAMP LT ISZERO PUSH2 0x2ADE JUMP JUMPDEST PUSH1 0xFF DUP2 PUSH1 0x8 SHR AND PUSH2 0x7E4 JUMPI PUSH2 0x100 SWAP1 PUSH2 0xFF00 NOT AND OR SWAP1 SSTORE DUP1 SLOAD PUSH1 0x1 DUP1 SWAP3 ADD SLOAD PUSH1 0x40 MLOAD SWAP2 DUP3 MSTORE PUSH1 0x20 DUP3 ADD MSTORE PUSH32 0xE530E08C8F5E186CB204C6C0E883B12DDBCD56A383E4113F06DBEE1E09FDE7C6 PUSH1 0x40 PUSH1 0x4 CALLDATALOAD SWAP3 LOG2 PUSH1 0x4 CALLDATALOAD DUP3 MSTORE PUSH1 0x5 PUSH1 0x20 MSTORE DUP1 PUSH1 0x40 DUP4 KECCAK256 DUP2 DUP5 SWAP1 JUMPDEST PUSH2 0x55F JUMPI JUMPDEST POP POP POP PUSH1 0x4 CALLDATALOAD DUP3 MSTORE PUSH1 0xA PUSH1 0x20 MSTORE PUSH1 0x40 DUP3 KECCAK256 DUP1 SLOAD PUSH1 0xFF NOT AND SWAP1 SSTORE DUP1 SSTORE DUP1 RETURN JUMPDEST DUP2 SLOAD DUP2 LT ISZERO PUSH2 0x7DF JUMPI PUSH2 0x572 DUP2 DUP4 PUSH2 0x2963 JUMP JUMPDEST POP PUSH1 0x6 DUP2 ADD DUP1 SLOAD SWAP1 PUSH1 0xFF DUP3 AND ISZERO PUSH2 0x58F JUMPI JUMPDEST POP POP POP DUP3 ADD DUP3 PUSH2 0x53C JUMP JUMPDEST SWAP1 SWAP3 SWAP2 SWAP5 PUSH2 0x5A6 PUSH1 0x4 DUP8 ADD SLOAD PUSH1 0x5 DUP9 ADD SLOAD SWAP1 PUSH2 0x2CD9 JUMP JUMPDEST PUSH1 0xFF NOT SWAP1 SWAP5 AND OR SWAP1 SSTORE PUSH1 0x2 SLOAD DUP5 SLOAD PUSH1 0x40 MLOAD PUSH3 0x7EEAC7 PUSH1 0xE1 SHL DUP2 MSTORE PUSH1 0x1 PUSH1 0x1 PUSH1 0xA0 SHL SUB SWAP2 DUP3 AND PUSH1 0x4 DUP1 DUP4 ADD DUP3 SWAP1 MSTORE CALLDATALOAD PUSH1 0x24 DUP4 ADD MSTORE DUP10 SWAP4 PUSH1 0x8 SHR SWAP1 SWAP3 AND SWAP2 SWAP1 PUSH1 0x20 DUP2 PUSH1 0x44 DUP2 DUP7 GAS STATICCALL SWAP1 DUP2 ISZERO PUSH2 0x7D4 JUMPI DUP5 SWAP2 PUSH2 0x79A JUMPI JUMPDEST POP DUP1 PUSH2 0x721 JUMPI JUMPDEST POP POP POP DUP1 DUP1 DUP1 DUP6 PUSH1 0x1 DUP1 PUSH1 0xA0 SHL SUB DUP10 SLOAD AND GAS CALL PUSH2 0x61C PUSH2 0x2A04 JUMP JUMPDEST POP ISZERO PUSH2 0x6E3 JUMPI DUP5 SWAP4 DUP5 SWAP3 PUSH32 0xAE5E4BDEBC0D69F9B0BE70B5E09166A1E47166C306633F938B7D07CEF8D1A790 PUSH2 0x6D8 PUSH2 0x6B6 PUSH1 0x4 PUSH1 0x1 DUP1 PUSH1 0xA0 SHL SUB DUP7 SLOAD AND SWAP6 ADD SLOAD DUP5 DUP7 PUSH2 0x669 DUP4 DUP1 SWAP9 PUSH2 0x2CAB JUMP JUMPDEST PUSH32 0x35B1F7E4C3146D284962CC37ABF509799D0F4BE30B6A19D025BA7309302C9487 PUSH1 0x40 MLOAD DUP1 PUSH2 0x6AE DUP7 PUSH1 0x4 CALLDATALOAD SWAP6 DUP10 DUP5 PUSH1 0x40 SWAP2 SWAP5 SWAP4 SWAP3 PUSH1 0x60 DUP3 ADD SWAP6 DUP3 MSTORE PUSH1 0x20 DUP3 ADD MSTORE ADD MSTORE JUMP JUMPDEST SUB SWAP1 LOG3 PUSH2 0x2CAB JUMP JUMPDEST PUSH1 0x40 DUP1 MLOAD SWAP5 DUP6 MSTORE PUSH1 0x20 DUP6 ADD SWAP2 SWAP1 SWAP2 MSTORE TIMESTAMP SWAP1 DUP5 ADD MSTORE PUSH1 0x4 CALLDATALOAD SWAP3 SWAP1 DUP2 SWAP1 PUSH1 0x60 DUP3 ADD SWAP1 JUMP JUMPDEST SUB SWAP1 LOG3 SWAP1 CODESIZE DUP1 PUSH2 0x584 JUMP JUMPDEST PUSH1 0x40 MLOAD PUSH3 0x461BCD PUSH1 0xE5 SHL DUP2 MSTORE PUSH1 0x20 PUSH1 0x4 DUP3 ADD MSTORE PUSH1 0x16 PUSH1 0x24 DUP3 ADD MSTORE PUSH22 0x1499599D5B99081D1C985B9CD9995C8819985A5B1959 PUSH1 0x52 SHL PUSH1 0x44 DUP3 ADD MSTORE PUSH1 0x64 SWAP1 REVERT JUMPDEST DUP3 EXTCODESIZE ISZERO PUSH2 0x796 JUMPI PUSH1 0x40 MLOAD PUSH4 0x1DD85ADB PUSH1 0xE1 SHL DUP2 MSTORE PUSH1 0x4 DUP1 CALLDATALOAD SWAP1 DUP3 ADD MSTORE PUSH1 0x1 PUSH1 0x1 PUSH1 0xA0 SHL SUB SWAP3 SWAP1 SWAP3 AND PUSH1 0x24 DUP4 ADD MSTORE PUSH1 0x44 DUP3 ADD MSTORE SWAP1 DUP3 SWAP1 DUP3 SWAP1 PUSH1 0x64 SWAP1 DUP3 SWAP1 DUP5 SWAP1 GAS CALL DUP1 ISZERO PUSH2 0x78B JUMPI PUSH2 0x773 JUMPI JUMPDEST DUP1 DUP1 PUSH2 0x601 JUMP JUMPDEST PUSH2 0x77C SWAP1 PUSH2 0x297F JUMP JUMPDEST PUSH2 0x787 JUMPI DUP6 CODESIZE PUSH2 0x76C JUMP JUMPDEST DUP6 DUP1 REVERT JUMPDEST PUSH1 0x40 MLOAD RETURNDATASIZE DUP5 DUP3 RETURNDATACOPY RETURNDATASIZE SWAP1 REVERT JUMPDEST DUP4 DUP1 REVERT JUMPDEST SWAP4 POP POP PUSH1 0x20 DUP4 RETURNDATASIZE PUSH1 0x20 GT PUSH2 0x7CC JUMPI JUMPDEST DUP2 PUSH2 0x7B6 PUSH1 0x20 SWAP4 DUP4 PUSH2 0x29C8 JUMP JUMPDEST DUP2 ADD SUB SLT PUSH2 0x7C7 JUMPI DUP9 SWAP3 MLOAD CODESIZE PUSH2 0x5FA JUMP JUMPDEST PUSH1 0x0 DUP1 REVERT JUMPDEST RETURNDATASIZE SWAP2 POP PUSH2 0x7A9 JUMP JUMPDEST PUSH1 0x40 MLOAD RETURNDATASIZE DUP7 DUP3 RETURNDATACOPY RETURNDATASIZE SWAP1 REVERT JUMPDEST PUSH2 0x541 JUMP JUMPDEST PUSH1 0x40 MLOAD PUSH3 0x461BCD PUSH1 0xE5 SHL DUP2 MSTORE PUSH1 0x20 PUSH1 0x4 DUP3 ADD MSTORE PUSH1 0x19 PUSH1 0x24 DUP3 ADD MSTORE PUSH32 0x526566756E647320616C72656164792070726F63657373656400000000000000 PUSH1 0x44 DUP3 ADD MSTORE PUSH1 0x64 SWAP1 REVERT JUMPDEST PUSH1 0x40 MLOAD PUSH3 0x461BCD PUSH1 0xE5 SHL DUP2 MSTORE PUSH1 0x20 PUSH1 0x4 DUP3 ADD MSTORE PUSH1 0x16 PUSH1 0x24 DUP3 ADD MSTORE PUSH22 0x119D5B991A5B99C81DD85CC81CDD58D8D95CDCD99D5B PUSH1 0x52 SHL PUSH1 0x44 DUP3 ADD MSTORE PUSH1 0x64 SWAP1 REVERT JUMPDEST POP CALLVALUE PUSH2 0x2B0 JUMPI DUP1 PUSH1 0x3 NOT CALLDATASIZE ADD SLT PUSH2 0x2B0 JUMPI PUSH1 0x20 PUSH1 0x40 MLOAD PUSH2 0x9C4 DUP2 MSTORE RETURN JUMPDEST POP CALLVALUE PUSH2 0x2B0 JUMPI PUSH1 0x20 CALLDATASIZE PUSH1 0x3 NOT ADD SLT PUSH2 0x2B0 JUMPI PUSH1 0x40 PUSH1 0x20 SWAP2 PUSH1 0x4 CALLDATALOAD DUP2 MSTORE PUSH1 0xF DUP4 MSTORE KECCAK256 SLOAD PUSH1 0x40 MLOAD SWAP1 DUP2 MSTORE RETURN JUMPDEST POP CALLVALUE PUSH2 0x2B0 JUMPI PUSH2 0x8BD CALLDATASIZE PUSH2 0x28A6 JUMP JUMPDEST PUSH2 0x8C5 PUSH2 0x2D67 JUMP JUMPDEST DUP2 DUP4 MSTORE PUSH1 0x20 PUSH1 0xA DUP2 MSTORE PUSH2 0x8DE PUSH1 0xFF PUSH1 0x40 DUP7 KECCAK256 SLOAD AND PUSH2 0x2A5D JUMP JUMPDEST PUSH2 0x2710 SWAP1 DUP2 DUP4 GT PUSH2 0xA16 JUMPI DUP4 DUP6 MSTORE PUSH1 0x6 DUP2 MSTORE PUSH1 0x40 DUP6 KECCAK256 PUSH1 0xFF PUSH1 0x4 DUP3 ADD SLOAD AND PUSH2 0x9D1 JUMPI DUP5 DUP7 MSTORE PUSH1 0xE DUP3 MSTORE DUP4 PUSH1 0x40 DUP8 KECCAK256 SSTORE PUSH1 0xF DUP3 MSTORE PUSH1 0x40 DUP7 KECCAK256 SLOAD DUP7 SWAP1 DUP5 PUSH2 0x1B58 DUP8 LT ISZERO PUSH2 0x9A1 JUMPI JUMPDEST PUSH2 0x931 PUSH2 0x938 SWAP4 DUP4 PUSH2 0x2A34 JUMP JUMPDEST DIV SWAP1 PUSH2 0x2B21 JUMP JUMPDEST SWAP3 DUP4 PUSH1 0x1 DUP4 ADD SSTORE PUSH2 0x26AC DUP1 DUP6 MUL SWAP1 DUP6 DUP3 DIV EQ DUP6 ISZERO OR ISZERO PUSH2 0x98D JUMPI SWAP2 PUSH1 0x2 PUSH32 0x11048D4B31E45DEA888DFCCD9163B3BFD669FEEDFEA3A6F44938AC90D77C2F9A SWAP7 SWAP5 SWAP3 PUSH1 0x40 SWAP7 SWAP5 DIV SWAP2 ADD SSTORE DUP4 MLOAD SWAP3 DUP4 MSTORE DUP3 ADD MSTORE LOG2 DUP1 RETURN JUMPDEST PUSH4 0x4E487B71 PUSH1 0xE0 SHL DUP9 MSTORE PUSH1 0x11 PUSH1 0x4 MSTORE PUSH1 0x24 DUP9 REVERT JUMPDEST POP SWAP1 POP PUSH2 0x1B57 NOT DUP6 ADD DUP6 DUP2 GT PUSH2 0x98D JUMPI PUSH2 0x9C4 SWAP1 DUP2 DUP2 MUL SWAP2 DUP2 DUP4 DIV EQ SWAP1 ISZERO OR ISZERO PUSH2 0x98D JUMPI PUSH2 0xBB8 SWAP1 DIV SWAP1 DUP5 PUSH2 0x924 JUMP JUMPDEST PUSH1 0x40 MLOAD PUSH3 0x461BCD PUSH1 0xE5 SHL DUP2 MSTORE PUSH1 0x4 DUP2 ADD DUP4 SWAP1 MSTORE PUSH1 0x18 PUSH1 0x24 DUP3 ADD MSTORE PUSH32 0x46756E64696E6720616C726561647920636F6D706C6574650000000000000000 PUSH1 0x44 DUP3 ADD MSTORE PUSH1 0x64 SWAP1 REVERT JUMPDEST PUSH1 0x64 SWAP1 PUSH1 0x40 MLOAD SWAP1 PUSH3 0x461BCD PUSH1 0xE5 SHL DUP3 MSTORE PUSH1 0x4 DUP3 ADD MSTORE PUSH1 0x14 PUSH1 0x24 DUP3 ADD MSTORE PUSH20 0x496E76616C69642064656D616E642073636F7265 PUSH1 0x60 SHL PUSH1 0x44 DUP3 ADD MSTORE REVERT JUMPDEST POP CALLVALUE PUSH2 0x2B0 JUMPI PUSH1 0x20 CALLDATASIZE PUSH1 0x3 NOT ADD SLT PUSH2 0x2B0 JUMPI PUSH1 0x4 CALLDATALOAD DUP2 MSTORE PUSH1 0xF PUSH1 0x20 MSTORE PUSH1 0x40 DUP2 KECCAK256 SLOAD PUSH1 0x6 PUSH1 0x20 MSTORE PUSH2 0xAA8 PUSH1 0x40 PUSH1 0x1 DUP2 DUP6 KECCAK256 ADD SLOAD SWAP4 PUSH1 0xE PUSH1 0x20 MSTORE KECCAK256 SLOAD PUSH1 0x40 MLOAD SWAP4 DUP5 SWAP4 DUP5 PUSH1 0x40 SWAP2 SWAP5 SWAP4 SWAP3 PUSH1 0x60 DUP3 ADD SWAP6 DUP3 MSTORE PUSH1 0x20 DUP3 ADD MSTORE ADD MSTORE JUMP JUMPDEST SUB SWAP1 RETURN JUMPDEST POP CALLVALUE PUSH2 0x2B0 JUMPI DUP1 PUSH1 0x3 NOT CALLDATASIZE ADD SLT PUSH2 0x2B0 JUMPI PUSH1 0x20 PUSH1 0x40 MLOAD PUSH1 0x50 DUP2 MSTORE RETURN JUMPDEST POP CALLVALUE PUSH2 0x2B0 JUMPI DUP1 PUSH1 0x3 NOT CALLDATASIZE ADD SLT PUSH2 0x2B0 JUMPI PUSH1 0x4 SLOAD PUSH1 0x40 MLOAD PUSH1 0x1 PUSH1 0x1 PUSH1 0xA0 SHL SUB SWAP1 SWAP2 AND DUP2 MSTORE PUSH1 0x20 SWAP1 RETURN JUMPDEST POP CALLVALUE PUSH2 0x2B0 JUMPI PUSH1 0x20 CALLDATASIZE PUSH1 0x3 NOT ADD SLT PUSH2 0x2B0 JUMPI PUSH1 0x4 CALLDATALOAD SWAP1 PUSH1 0x9 SLOAD DUP3 LT ISZERO PUSH2 0x2B0 JUMPI PUSH1 0x20 PUSH2 0x2A2 DUP4 PUSH2 0x28DF JUMP JUMPDEST POP PUSH1 0x40 CALLDATASIZE PUSH1 0x3 NOT ADD SLT PUSH2 0x2B0 JUMPI PUSH1 0x4 CALLDATALOAD PUSH1 0x24 CALLDATALOAD PUSH1 0x1 PUSH1 0x1 PUSH1 0x40 SHL SUB DUP2 GT PUSH2 0xC47 JUMPI PUSH2 0xB4B SWAP1 CALLDATASIZE SWAP1 PUSH1 0x4 ADD PUSH2 0x2879 JUMP JUMPDEST SWAP1 PUSH2 0xB54 PUSH2 0x2D67 JUMP JUMPDEST DUP3 DUP5 MSTORE PUSH1 0xC PUSH1 0x20 MSTORE PUSH1 0xFF PUSH1 0x40 DUP6 KECCAK256 SLOAD AND ISZERO PUSH2 0xC0C JUMPI CALLVALUE ISZERO PUSH2 0xBD0 JUMPI PUSH32 0x298A82860699031727D1BF8A607EC42D9C496CAE1F2762D56954D576C211B1FE SWAP2 DUP4 DUP6 MSTORE PUSH1 0x8 PUSH1 0x20 MSTORE PUSH1 0x1 PUSH1 0x40 DUP7 KECCAK256 ADD PUSH2 0xBAB CALLVALUE DUP3 SLOAD PUSH2 0x2B21 JUMP JUMPDEST SWAP1 SSTORE PUSH2 0xBCA PUSH1 0x40 MLOAD SWAP3 DUP4 SWAP3 CALLVALUE DUP5 MSTORE PUSH1 0x40 PUSH1 0x20 DUP6 ADD MSTORE PUSH1 0x40 DUP5 ADD SWAP2 PUSH2 0x2CB8 JUMP JUMPDEST SUB SWAP1 LOG2 DUP1 RETURN JUMPDEST PUSH1 0x40 MLOAD PUSH3 0x461BCD PUSH1 0xE5 SHL DUP2 MSTORE PUSH1 0x20 PUSH1 0x4 DUP3 ADD MSTORE PUSH1 0x14 PUSH1 0x24 DUP3 ADD MSTORE PUSH20 0x139BC81A5B98DBDB59481D1BC819195C1BDCDA5D PUSH1 0x62 SHL PUSH1 0x44 DUP3 ADD MSTORE PUSH1 0x64 SWAP1 REVERT JUMPDEST PUSH1 0x40 MLOAD PUSH3 0x461BCD PUSH1 0xE5 SHL DUP2 MSTORE PUSH1 0x20 PUSH1 0x4 DUP3 ADD MSTORE PUSH1 0x13 PUSH1 0x24 DUP3 ADD MSTORE PUSH19 0x141C9BDC195C9D1E481B9BDD08199D5B991959 PUSH1 0x6A SHL PUSH1 0x44 DUP3 ADD MSTORE PUSH1 0x64 SWAP1 REVERT JUMPDEST DUP3 DUP1 REVERT JUMPDEST POP CALLVALUE PUSH2 0x2B0 JUMPI DUP1 PUSH1 0x3 NOT CALLDATASIZE ADD SLT PUSH2 0x2B0 JUMPI PUSH1 0x40 MLOAD PUSH32 0x0 PUSH1 0x1 PUSH1 0x1 PUSH1 0xA0 SHL SUB AND DUP2 MSTORE PUSH1 0x20 SWAP1 RETURN JUMPDEST POP CALLVALUE PUSH2 0x2B0 JUMPI DUP1 PUSH1 0x3 NOT CALLDATASIZE ADD SLT PUSH2 0x2B0 JUMPI PUSH1 0x20 SWAP1 PUSH1 0x40 MLOAD SWAP1 DUP2 MSTORE RETURN JUMPDEST POP CALLVALUE PUSH2 0x2B0 JUMPI DUP1 PUSH1 0x3 NOT CALLDATASIZE ADD SLT PUSH2 0x2B0 JUMPI PUSH1 0x20 PUSH1 0x40 MLOAD PUSH1 0x46 DUP2 MSTORE RETURN JUMPDEST POP CALLVALUE PUSH2 0x2B0 JUMPI PUSH1 0x40 CALLDATASIZE PUSH1 0x3 NOT ADD SLT PUSH2 0x2B0 JUMPI PUSH1 0x40 PUSH2 0xCE4 PUSH2 0x2863 JUMP JUMPDEST SWAP2 PUSH1 0x4 CALLDATALOAD DUP2 MSTORE DUP1 PUSH1 0x20 MSTORE KECCAK256 SWAP1 PUSH1 0x1 DUP1 PUSH1 0xA0 SHL SUB AND PUSH1 0x0 MSTORE PUSH1 0x20 MSTORE PUSH1 0x20 PUSH1 0xFF PUSH1 0x40 PUSH1 0x0 KECCAK256 SLOAD AND PUSH1 0x40 MLOAD SWAP1 ISZERO ISZERO DUP2 MSTORE RETURN JUMPDEST POP CALLVALUE PUSH2 0x2B0 JUMPI PUSH1 0x20 CALLDATASIZE PUSH1 0x3 NOT ADD SLT PUSH2 0x2B0 JUMPI PUSH1 0x40 PUSH1 0x20 SWAP2 PUSH1 0x4 CALLDATALOAD DUP2 MSTORE PUSH1 0x5 DUP4 MSTORE KECCAK256 SLOAD PUSH1 0x40 MLOAD SWAP1 DUP2 MSTORE RETURN JUMPDEST POP CALLVALUE PUSH2 0x2B0 JUMPI PUSH1 0x20 CALLDATASIZE PUSH1 0x3 NOT ADD SLT PUSH2 0x2B0 JUMPI PUSH2 0xD57 PUSH2 0x284D JUMP JUMPDEST PUSH2 0xD5F PUSH2 0x2D0F JUMP JUMPDEST PUSH1 0x1 DUP1 PUSH1 0xA0 SHL SUB AND PUSH1 0x1 PUSH1 0x1 PUSH1 0x60 SHL SUB PUSH1 0xA0 SHL PUSH1 0x3 SLOAD AND OR PUSH1 0x3 SSTORE DUP1 RETURN JUMPDEST POP CALLVALUE PUSH2 0x2B0 JUMPI DUP1 PUSH1 0x3 NOT CALLDATASIZE ADD SLT PUSH2 0x2B0 JUMPI PUSH2 0xD96 PUSH2 0x2D0F JUMP JUMPDEST PUSH2 0xD9E PUSH2 0x2EFF JUMP JUMPDEST PUSH1 0x1 PUSH1 0xFF NOT PUSH1 0x2 SLOAD AND OR PUSH1 0x2 SSTORE PUSH32 0x62E78CEA01BEE320CD4E420270B5EA74000D11B0C9F74754EBDBFC544B05A258 PUSH1 0x20 PUSH1 0x40 MLOAD CALLER DUP2 MSTORE LOG1 DUP1 RETURN JUMPDEST POP CALLVALUE PUSH2 0x2B0 JUMPI PUSH1 0x60 CALLDATASIZE PUSH1 0x3 NOT ADD SLT PUSH2 0x2B0 JUMPI PUSH2 0xDF2 PUSH2 0x2863 JUMP JUMPDEST PUSH1 0x44 CALLDATALOAD SWAP1 PUSH1 0x1 PUSH1 0x1 PUSH1 0x40 SHL SUB DUP3 GT PUSH2 0xC47 JUMPI PUSH32 0x3914D40C9FE0DAEBD442D05DF43DD630D415A8CE81CE1695843CA510F4F1C4F5 PUSH2 0xE36 PUSH2 0xE52 SWAP4 CALLDATASIZE SWAP1 PUSH1 0x4 ADD PUSH2 0x2879 JUMP JUMPDEST SWAP4 SWAP1 PUSH2 0xE40 PUSH2 0x2D67 JUMP JUMPDEST PUSH1 0x40 MLOAD SWAP5 PUSH1 0x40 DUP7 MSTORE PUSH1 0x40 DUP7 ADD SWAP2 PUSH2 0x2CB8 JUMP JUMPDEST TIMESTAMP PUSH1 0x20 DUP6 ADD MSTORE PUSH1 0x1 PUSH1 0x1 PUSH1 0xA0 SHL SUB SWAP1 SWAP3 AND SWAP3 PUSH1 0x4 CALLDATALOAD SWAP3 DUP2 SWAP1 SUB SWAP1 LOG3 DUP1 RETURN JUMPDEST POP CALLVALUE PUSH2 0x2B0 JUMPI PUSH1 0x20 CALLDATASIZE PUSH1 0x3 NOT ADD SLT PUSH2 0x2B0 JUMPI PUSH1 0x4 CALLDATALOAD DUP2 MSTORE PUSH1 0x8 PUSH1 0x20 MSTORE PUSH1 0x40 DUP2 KECCAK256 SWAP1 DUP2 SLOAD SWAP1 PUSH1 0x1 DUP4 ADD SLOAD SWAP1 PUSH3 0x76A700 DUP4 ADD SWAP1 DUP2 DUP5 GT PUSH2 0xECD JUMPI POP PUSH1 0xFF PUSH1 0x2 PUSH1 0x80 SWAP6 ADD SLOAD AND SWAP2 PUSH1 0x40 MLOAD SWAP4 DUP5 MSTORE PUSH1 0x20 DUP5 ADD MSTORE PUSH1 0x40 DUP4 ADD MSTORE ISZERO ISZERO PUSH1 0x60 DUP3 ADD MSTORE RETURN JUMPDEST PUSH4 0x4E487B71 PUSH1 0xE0 SHL DUP2 MSTORE PUSH1 0x11 PUSH1 0x4 MSTORE PUSH1 0x24 SWAP1 REVERT JUMPDEST POP PUSH2 0xEEB CALLDATASIZE PUSH2 0x28A6 JUMP JUMPDEST PUSH2 0xEF3 PUSH2 0x2DE9 JUMP JUMPDEST PUSH2 0xEFB PUSH2 0x2EFF JUMP JUMPDEST DUP2 DUP4 MSTORE PUSH1 0x6 PUSH1 0x20 MSTORE PUSH1 0x40 DUP4 KECCAK256 SWAP1 PUSH1 0xA PUSH1 0x20 MSTORE PUSH2 0xF1D PUSH1 0xFF PUSH1 0x40 DUP7 KECCAK256 SLOAD AND PUSH2 0x2A5D JUMP JUMPDEST PUSH2 0xF2E PUSH1 0xFF PUSH1 0x4 DUP5 ADD SLOAD AND ISZERO PUSH2 0x2A9F JUMP JUMPDEST PUSH1 0x3 DUP3 ADD SLOAD TIMESTAMP LT ISZERO PUSH2 0x1870 JUMPI PUSH1 0x3 SLOAD DUP5 SWAP1 PUSH1 0x1 PUSH1 0x1 PUSH1 0xA0 SHL SUB AND DUP1 PUSH2 0x1777 JUMPI JUMPDEST POP POP PUSH1 0x2 SLOAD PUSH1 0x40 MLOAD PUSH4 0x62AE87AB PUSH1 0xE1 SHL DUP2 MSTORE PUSH1 0x4 DUP2 ADD DUP6 SWAP1 MSTORE SWAP1 PUSH1 0x20 SWAP1 DUP3 SWAP1 PUSH1 0x24 SWAP1 DUP3 SWAP1 PUSH1 0x8 SHR PUSH1 0x1 PUSH1 0x1 PUSH1 0xA0 SHL SUB AND GAS STATICCALL SWAP1 DUP2 ISZERO PUSH2 0x176C JUMPI DUP6 SWAP2 PUSH2 0x173A JUMPI JUMPDEST POP PUSH2 0xF99 DUP3 DUP3 PUSH2 0x2A34 JUMP JUMPDEST SWAP1 DUP2 CALLVALUE LT PUSH2 0x16FE JUMPI DUP5 DUP7 MSTORE PUSH1 0x5 PUSH1 0x20 MSTORE PUSH1 0x40 DUP7 KECCAK256 PUSH1 0x40 MLOAD SWAP2 PUSH2 0xFBA DUP4 PUSH2 0x2992 JUMP JUMPDEST CALLER DUP4 MSTORE DUP7 PUSH1 0x20 DUP5 ADD MSTORE DUP5 PUSH1 0x40 DUP5 ADD MSTORE PUSH1 0x60 DUP4 ADD MSTORE DUP3 PUSH1 0x80 DUP4 ADD MSTORE TIMESTAMP PUSH1 0xA0 DUP4 ADD MSTORE DUP7 PUSH1 0xC0 DUP4 ADD MSTORE DUP1 SLOAD SWAP1 PUSH1 0x1 PUSH1 0x40 SHL DUP3 LT ISZERO PUSH2 0x16EA JUMPI SWAP1 PUSH2 0xFFF SWAP2 PUSH1 0x1 DUP3 ADD DUP2 SSTORE PUSH2 0x2963 JUMP JUMPDEST SWAP2 SWAP1 SWAP2 PUSH2 0x16D6 JUMPI SWAP1 PUSH1 0x6 PUSH1 0xC0 PUSH2 0x1073 SWAP4 PUSH1 0x1 DUP1 PUSH1 0xA0 SHL SUB DUP2 MLOAD AND PUSH1 0x1 PUSH1 0x1 PUSH1 0x60 SHL SUB PUSH1 0xA0 SHL DUP6 SLOAD AND OR DUP5 SSTORE PUSH1 0x20 DUP2 ADD MLOAD PUSH1 0x1 DUP6 ADD SSTORE PUSH1 0x40 DUP2 ADD MLOAD PUSH1 0x2 DUP6 ADD SSTORE PUSH1 0x60 DUP2 ADD MLOAD PUSH1 0x3 DUP6 ADD SSTORE PUSH1 0x80 DUP2 ADD MLOAD PUSH1 0x4 DUP6 ADD SSTORE PUSH1 0xA0 DUP2 ADD MLOAD PUSH1 0x5 DUP6 ADD SSTORE ADD MLOAD ISZERO ISZERO SWAP2 ADD SWAP1 PUSH1 0xFF DUP1 NOT DUP4 SLOAD AND SWAP2 ISZERO ISZERO AND OR SWAP1 SSTORE JUMP JUMPDEST PUSH2 0x107E DUP2 DUP5 SLOAD PUSH2 0x2B21 JUMP JUMPDEST DUP4 SSTORE DUP4 DUP6 MSTORE PUSH1 0x7 PUSH1 0x20 MSTORE PUSH1 0x40 DUP6 KECCAK256 CALLER PUSH1 0x0 MSTORE PUSH1 0x20 MSTORE PUSH1 0x40 PUSH1 0x0 KECCAK256 PUSH2 0x10A3 DUP3 DUP3 SLOAD PUSH2 0x2B21 JUMP JUMPDEST SWAP1 SSTORE PUSH1 0x2 SLOAD DUP6 SWAP1 PUSH1 0x8 SHR PUSH1 0x1 PUSH1 0x1 PUSH1 0xA0 SHL SUB AND DUP1 EXTCODESIZE ISZERO PUSH2 0x1660 JUMPI PUSH1 0x40 MLOAD PUSH4 0x46B40CDF PUSH1 0xE1 SHL DUP2 MSTORE PUSH1 0x4 DUP2 ADD DUP8 SWAP1 MSTORE CALLER PUSH1 0x24 DUP3 ADD MSTORE PUSH1 0x44 DUP2 ADD DUP6 SWAP1 MSTORE SWAP1 DUP3 SWAP1 DUP3 SWAP1 PUSH1 0x64 SWAP1 DUP3 SWAP1 DUP5 SWAP1 GAS CALL DUP1 ISZERO PUSH2 0x78B JUMPI PUSH2 0x16BE JUMPI JUMPDEST POP POP DUP1 CALLVALUE GT PUSH2 0x1664 JUMPI JUMPDEST PUSH1 0x40 MLOAD DUP5 PUSH32 0x76D4A8F0927F81646EBA8E062C7769238E76316CA0F16820B27D377C2BECC1E CALLER SWAP3 DUP1 PUSH2 0x1146 TIMESTAMP DUP8 DUP10 DUP5 PUSH1 0x40 SWAP2 SWAP5 SWAP4 SWAP3 PUSH1 0x60 DUP3 ADD SWAP6 DUP3 MSTORE PUSH1 0x20 DUP3 ADD MSTORE ADD MSTORE JUMP JUMPDEST SUB SWAP1 LOG3 PUSH1 0x40 MLOAD TIMESTAMP PUSH1 0x20 DUP3 ADD MSTORE CALLER PUSH1 0x60 SHL PUSH1 0x40 DUP3 ADD MSTORE DUP5 PUSH1 0x54 DUP3 ADD MSTORE DUP3 PUSH1 0x74 DUP3 ADD MSTORE PUSH1 0x74 DUP2 MSTORE DUP1 PUSH1 0xA0 DUP2 ADD LT PUSH1 0x1 PUSH1 0x1 PUSH1 0x40 SHL SUB PUSH1 0xA0 DUP4 ADD GT OR PUSH2 0x147A JUMPI PUSH2 0x11EE SWAP3 PUSH1 0xA0 DUP3 ADD PUSH1 0x40 MSTORE DUP2 MLOAD PUSH1 0x20 DUP4 ADD KECCAK256 SWAP1 PUSH1 0xA0 DUP4 ADD MSTORE DUP3 PUSH1 0xC0 DUP4 ADD MSTORE PUSH1 0xE0 DUP3 ADD MSTORE DUP5 PUSH32 0x2DED55FD793D860B77D0778A0CDF6984909D323E049F1ED2923EBA867202B361 PUSH1 0x60 PUSH1 0xA0 CALLER SWAP5 ADD LOG3 DUP4 DUP6 MSTORE PUSH1 0x7 PUSH1 0x20 MSTORE PUSH1 0x40 DUP6 KECCAK256 CALLER PUSH1 0x0 MSTORE PUSH1 0x20 MSTORE PUSH1 0x40 PUSH1 0x0 KECCAK256 SLOAD PUSH2 0x2CAB JUMP JUMPDEST DUP3 DUP5 MSTORE PUSH1 0x7 PUSH1 0x20 MSTORE PUSH1 0x40 DUP5 KECCAK256 CALLER PUSH1 0x0 MSTORE PUSH1 0x20 MSTORE PUSH1 0x40 PUSH1 0x0 KECCAK256 SLOAD PUSH1 0x40 MLOAD SWAP2 DUP3 MSTORE PUSH1 0x20 DUP3 ADD MSTORE PUSH1 0x1 PUSH1 0x40 DUP3 ADD MSTORE DUP3 PUSH32 0x42D3CD62F75F9115471AA0A6EF108D9E0FEF8E5B6913419BEFD8A166879DEF4F PUSH1 0x60 CALLER SWAP4 LOG3 PUSH1 0x1 DUP2 SLOAD SWAP2 ADD SLOAD GT ISZERO PUSH2 0x1256 JUMPI JUMPDEST POP PUSH1 0x1 DUP1 SSTORE DUP1 RETURN JUMPDEST DUP1 DUP3 MSTORE PUSH1 0x6 PUSH1 0x20 MSTORE PUSH1 0x40 DUP3 KECCAK256 PUSH1 0x4 DUP2 ADD DUP1 SLOAD PUSH1 0xFF NOT AND PUSH1 0x1 OR SWAP1 SSTORE PUSH1 0x2 SLOAD DUP4 SWAP1 PUSH1 0x8 SHR PUSH1 0x1 PUSH1 0x1 PUSH1 0xA0 SHL SUB AND DUP1 EXTCODESIZE ISZERO PUSH2 0x1660 JUMPI DUP2 DUP1 SWAP2 PUSH1 0x24 PUSH1 0x40 MLOAD DUP1 SWAP5 DUP2 SWAP4 PUSH4 0x62B33759 PUSH1 0xE1 SHL DUP4 MSTORE DUP10 PUSH1 0x4 DUP5 ADD MSTORE GAS CALL DUP1 ISZERO PUSH2 0x78B JUMPI PUSH2 0x164C JUMPI JUMPDEST POP POP DUP1 SLOAD PUSH1 0x64 DUP2 MUL SWAP1 DUP1 DUP3 DIV PUSH1 0x64 EQ DUP2 ISZERO OR ISZERO PUSH2 0x1638 JUMPI PUSH1 0x4 SLOAD DUP6 SWAP2 SWAP1 PUSH1 0x1 SWAP1 PUSH1 0x1 PUSH1 0x1 PUSH1 0xA0 SHL SUB AND DUP1 PUSH2 0x14EF JUMPI JUMPDEST POP DUP1 PUSH2 0x14E2 JUMPI JUMPDEST ISZERO PUSH2 0x14D5 JUMPI POP PUSH3 0x10000 PUSH3 0xFF0000 NOT PUSH1 0x4 DUP6 ADD SLOAD AND OR PUSH1 0x4 DUP5 ADD SSTORE PUSH2 0x1312 PUSH2 0x2710 DUP4 DIV DUP5 SLOAD PUSH2 0x2CAB JUMP JUMPDEST PUSH1 0x2 DUP5 ADD SSTORE PUSH32 0x0 PUSH1 0x1 PUSH1 0x1 PUSH1 0xA0 SHL SUB AND SWAP2 DUP6 DUP1 DUP1 DUP1 PUSH2 0x2710 DUP6 DIV DUP8 GAS CALL PUSH2 0x1356 PUSH2 0x2A04 JUMP JUMPDEST POP ISZERO PUSH2 0x1490 JUMPI PUSH1 0x40 PUSH32 0xD3BFF92A06F059FFE4DC0961B88C7A33C074D4CB95D95D996AD9A094E0F14DB2 SWAP2 DUP7 SWAP4 PUSH2 0x2710 DUP4 MLOAD SWAP3 DIV DUP3 MSTORE PUSH1 0x20 DUP3 ADD MSTORE LOG3 JUMPDEST PUSH1 0x40 MLOAD PUSH1 0x60 DUP2 ADD SWAP1 DUP1 DUP3 LT PUSH1 0x1 PUSH1 0x1 PUSH1 0x40 SHL SUB DUP4 GT OR PUSH2 0x147A JUMPI PUSH2 0x13F4 SWAP2 PUSH1 0x40 MSTORE TIMESTAMP DUP2 MSTORE PUSH1 0x2 PUSH1 0x20 DUP3 ADD DUP7 DUP2 MSTORE PUSH1 0x40 DUP4 ADD SWAP1 PUSH1 0x1 DUP3 MSTORE DUP7 DUP9 MSTORE PUSH1 0x8 PUSH1 0x20 MSTORE PUSH1 0x40 DUP9 KECCAK256 SWAP4 MLOAD DUP5 SSTORE MLOAD PUSH1 0x1 DUP5 ADD SSTORE MLOAD ISZERO ISZERO SWAP2 ADD SWAP1 PUSH1 0xFF DUP1 NOT DUP4 SLOAD AND SWAP2 ISZERO ISZERO AND OR SWAP1 SSTORE JUMP JUMPDEST PUSH1 0xB SLOAD PUSH1 0x1 PUSH1 0x40 SHL DUP2 LT ISZERO PUSH2 0x147A JUMPI PUSH32 0xBD04B0E879E6A84A288E6660CFCC2E8337035A9AD3343FF360C4AEFB45576AAE SWAP2 PUSH2 0x1437 DUP3 PUSH1 0x1 PUSH1 0x40 SWAP5 ADD PUSH1 0xB SSTORE PUSH2 0x292C JUMP JUMPDEST DUP2 SLOAD SWAP1 PUSH1 0x3 SHL SWAP1 DUP7 DUP3 SHL SWAP2 PUSH1 0x0 NOT SWAP1 SHL NOT AND OR SWAP1 SSTORE DUP4 DUP6 MSTORE PUSH1 0xC PUSH1 0x20 MSTORE DUP2 DUP6 KECCAK256 PUSH1 0x1 PUSH1 0xFF NOT DUP3 SLOAD AND OR SWAP1 SSTORE PUSH1 0x2 DUP2 SLOAD SWAP2 ADD SLOAD DUP3 MLOAD SWAP2 DUP3 MSTORE PUSH1 0x20 DUP3 ADD MSTORE LOG2 CODESIZE PUSH2 0x124E JUMP JUMPDEST PUSH4 0x4E487B71 PUSH1 0xE0 SHL PUSH1 0x0 MSTORE PUSH1 0x41 PUSH1 0x4 MSTORE PUSH1 0x24 PUSH1 0x0 REVERT JUMPDEST PUSH1 0x40 MLOAD PUSH3 0x461BCD PUSH1 0xE5 SHL DUP2 MSTORE PUSH1 0x20 PUSH1 0x4 DUP3 ADD MSTORE PUSH1 0x1B PUSH1 0x24 DUP3 ADD MSTORE PUSH32 0x466F756E64657220666565207472616E73666572206661696C65640000000000 PUSH1 0x44 DUP3 ADD MSTORE PUSH1 0x64 SWAP1 REVERT JUMPDEST SWAP2 POP POP PUSH1 0x2 DUP3 ADD SSTORE PUSH2 0x1392 JUMP JUMPDEST POP PUSH2 0x2710 DUP4 DIV ISZERO ISZERO PUSH2 0x12E8 JUMP JUMPDEST SWAP1 DUP8 PUSH1 0x5 DUP8 ADD SLOAD PUSH1 0x24 PUSH1 0x40 MLOAD DUP1 SWAP6 DUP2 SWAP4 PUSH4 0x25425151 PUSH1 0xE2 SHL DUP4 MSTORE PUSH1 0x4 DUP4 ADD MSTORE GAS STATICCALL DUP9 SWAP3 DUP2 PUSH2 0x15A4 JUMPI JUMPDEST POP PUSH2 0x1528 JUMPI POP POP PUSH1 0x1 JUMPDEST CODESIZE PUSH2 0x12E1 JUMP JUMPDEST SWAP1 SWAP3 POP DUP3 PUSH1 0x46 DUP2 LT PUSH2 0x153B JUMPI JUMPDEST POP PUSH2 0x1522 JUMP JUMPDEST SWAP1 POP DUP6 PUSH32 0x2B0A0EB5CC368F947EC76563B6992D3EC41DBE4A0BAE8891D41589C2249FD48E PUSH1 0x80 DUP10 SWAP4 PUSH1 0x40 MLOAD SWAP1 DUP2 MSTORE PUSH1 0x40 PUSH1 0x20 DUP3 ADD MSTORE PUSH1 0x1F PUSH1 0x40 DUP3 ADD MSTORE PUSH32 0x496D706163742073636F72652062656C6F77203730207468726573686F6C6400 PUSH1 0x60 DUP3 ADD MSTORE LOG2 CODESIZE PUSH2 0x1535 JUMP JUMPDEST SWAP1 SWAP3 POP RETURNDATASIZE SWAP1 DUP2 DUP11 DUP3 RETURNDATACOPY PUSH2 0x15B7 DUP3 DUP3 PUSH2 0x29C8 JUMP JUMPDEST PUSH1 0x40 DUP2 DUP4 DUP2 ADD SUB SLT PUSH2 0x1634 JUMPI DUP1 MLOAD SWAP2 PUSH1 0x1 PUSH1 0x1 PUSH1 0x40 SHL SUB DUP4 GT PUSH2 0x1630 JUMPI DUP1 DUP3 ADD PUSH1 0x1F DUP5 DUP5 ADD ADD SLT ISZERO PUSH2 0x1630 JUMPI DUP3 DUP3 ADD MLOAD PUSH2 0x15F0 DUP2 PUSH2 0x29E9 JUMP JUMPDEST SWAP2 PUSH2 0x15FE PUSH1 0x40 MLOAD SWAP4 DUP5 PUSH2 0x29C8 JUMP JUMPDEST DUP2 DUP4 MSTORE DUP4 ADD PUSH1 0x20 DUP3 DUP7 DUP7 ADD ADD ADD GT PUSH2 0x162C JUMPI PUSH1 0x20 SWAP4 DUP5 DUP1 PUSH2 0x1623 SWAP5 ADD SWAP2 DUP6 ADD ADD PUSH2 0x28BC JUMP JUMPDEST ADD MLOAD SWAP2 CODESIZE PUSH2 0x1518 JUMP JUMPDEST DUP12 DUP1 REVERT JUMPDEST DUP11 DUP1 REVERT JUMPDEST DUP10 DUP1 REVERT JUMPDEST PUSH4 0x4E487B71 PUSH1 0xE0 SHL DUP6 MSTORE PUSH1 0x11 PUSH1 0x4 MSTORE PUSH1 0x24 DUP6 REVERT JUMPDEST PUSH2 0x1655 SWAP1 PUSH2 0x297F JUMP JUMPDEST PUSH2 0xC47 JUMPI DUP3 CODESIZE PUSH2 0x12B2 JUMP JUMPDEST POP DUP1 REVERT JUMPDEST DUP5 DUP1 DUP1 DUP1 PUSH2 0x1672 DUP6 CALLVALUE PUSH2 0x2CAB JUMP JUMPDEST CALLER GAS CALL PUSH2 0x167D PUSH2 0x2A04 JUMP JUMPDEST POP PUSH2 0x1101 JUMPI PUSH1 0x40 MLOAD PUSH3 0x461BCD PUSH1 0xE5 SHL DUP2 MSTORE PUSH1 0x20 PUSH1 0x4 DUP3 ADD MSTORE PUSH1 0x14 PUSH1 0x24 DUP3 ADD MSTORE PUSH20 0x115E18D95CDCC81C99599D5B990819985A5B1959 PUSH1 0x62 SHL PUSH1 0x44 DUP3 ADD MSTORE PUSH1 0x64 SWAP1 REVERT JUMPDEST PUSH2 0x16C7 SWAP1 PUSH2 0x297F JUMP JUMPDEST PUSH2 0x16D2 JUMPI DUP5 CODESIZE PUSH2 0x10F7 JUMP JUMPDEST DUP5 DUP1 REVERT JUMPDEST PUSH4 0x4E487B71 PUSH1 0xE0 SHL DUP8 MSTORE PUSH1 0x4 DUP8 SWAP1 MSTORE PUSH1 0x24 DUP8 REVERT JUMPDEST PUSH4 0x4E487B71 PUSH1 0xE0 SHL DUP9 MSTORE PUSH1 0x41 PUSH1 0x4 MSTORE PUSH1 0x24 DUP9 REVERT JUMPDEST PUSH1 0x40 MLOAD PUSH3 0x461BCD PUSH1 0xE5 SHL DUP2 MSTORE PUSH1 0x20 PUSH1 0x4 DUP3 ADD MSTORE PUSH1 0x14 PUSH1 0x24 DUP3 ADD MSTORE PUSH20 0x125B9CDD59999A58DA595B9D081C185E5B595B9D PUSH1 0x62 SHL PUSH1 0x44 DUP3 ADD MSTORE PUSH1 0x64 SWAP1 REVERT JUMPDEST SWAP1 POP PUSH1 0x20 DUP2 RETURNDATASIZE PUSH1 0x20 GT PUSH2 0x1764 JUMPI JUMPDEST DUP2 PUSH2 0x1755 PUSH1 0x20 SWAP4 DUP4 PUSH2 0x29C8 JUMP JUMPDEST DUP2 ADD SUB SLT PUSH2 0x7C7 JUMPI MLOAD CODESIZE PUSH2 0xF8E JUMP JUMPDEST RETURNDATASIZE SWAP2 POP PUSH2 0x1748 JUMP JUMPDEST PUSH1 0x40 MLOAD RETURNDATASIZE DUP8 DUP3 RETURNDATACOPY RETURNDATASIZE SWAP1 REVERT JUMPDEST PUSH1 0x20 SWAP1 PUSH1 0x24 PUSH1 0x40 MLOAD DUP1 SWAP5 DUP2 SWAP4 PUSH4 0x3C84AF87 PUSH1 0xE0 SHL DUP4 MSTORE CALLER PUSH1 0x4 DUP5 ADD MSTORE GAS CALL DUP1 ISZERO PUSH2 0x176C JUMPI DUP6 SWAP1 PUSH2 0x183D JUMPI JUMPDEST PUSH1 0x50 SWAP2 POP GT PUSH2 0x17B2 JUMPI DUP4 CODESIZE PUSH2 0xF4E JUMP JUMPDEST DUP3 PUSH1 0x40 MLOAD SWAP1 PUSH1 0x40 DUP3 MSTORE PUSH1 0xE PUSH1 0x40 DUP4 ADD MSTORE PUSH14 0x4869676820414D4C2053636F7265 PUSH1 0x90 SHL PUSH1 0x60 DUP4 ADD MSTORE TIMESTAMP PUSH1 0x20 DUP4 ADD MSTORE PUSH32 0x3914D40C9FE0DAEBD442D05DF43DD630D415A8CE81CE1695843CA510F4F1C4F5 PUSH1 0x80 CALLER SWAP4 LOG3 PUSH1 0x40 MLOAD PUSH3 0x461BCD PUSH1 0xE5 SHL DUP2 MSTORE PUSH1 0x20 PUSH1 0x4 DUP3 ADD MSTORE PUSH1 0x10 PUSH1 0x24 DUP3 ADD MSTORE PUSH16 0x1053530818DA1958DAC819985A5B1959 PUSH1 0x82 SHL PUSH1 0x44 DUP3 ADD MSTORE PUSH1 0x64 SWAP1 REVERT JUMPDEST POP PUSH1 0x20 DUP2 RETURNDATASIZE PUSH1 0x20 GT PUSH2 0x1868 JUMPI JUMPDEST DUP2 PUSH2 0x1857 PUSH1 0x20 SWAP4 DUP4 PUSH2 0x29C8 JUMP JUMPDEST DUP2 ADD SUB SLT PUSH2 0x7C7 JUMPI PUSH1 0x50 SWAP1 MLOAD PUSH2 0x17A2 JUMP JUMPDEST RETURNDATASIZE SWAP2 POP PUSH2 0x184A JUMP JUMPDEST PUSH1 0x40 MLOAD PUSH3 0x461BCD PUSH1 0xE5 SHL DUP2 MSTORE PUSH1 0x20 PUSH1 0x4 DUP3 ADD MSTORE PUSH1 0x17 PUSH1 0x24 DUP3 ADD MSTORE PUSH32 0x46756E64696E6720646561646C696E6520706173736564000000000000000000 PUSH1 0x44 DUP3 ADD MSTORE PUSH1 0x64 SWAP1 REVERT JUMPDEST POP CALLVALUE PUSH2 0x2B0 JUMPI PUSH1 0x20 SWAP1 DUP2 PUSH1 0x3 NOT CALLDATASIZE ADD SLT PUSH2 0x2B0 JUMPI PUSH1 0x4 CALLDATALOAD DUP2 MSTORE PUSH1 0x5 DUP1 DUP4 MSTORE PUSH1 0x40 DUP3 KECCAK256 SWAP3 DUP4 SLOAD PUSH1 0x1 PUSH1 0x1 PUSH1 0x40 SHL SUB DUP2 GT PUSH2 0x1A10 JUMPI SWAP2 DUP5 SWAP2 SWAP3 PUSH1 0x40 MLOAD SWAP2 PUSH2 0x18FF DUP6 DUP4 PUSH1 0x5 SHL ADD DUP5 PUSH2 0x29C8 JUMP JUMPDEST DUP2 DUP4 MSTORE DUP5 DUP4 ADD SWAP1 DUP2 SWAP5 DUP8 MSTORE DUP6 DUP8 KECCAK256 SWAP1 DUP8 SWAP3 JUMPDEST DUP5 DUP5 LT PUSH2 0x199D JUMPI POP POP POP POP POP PUSH1 0x40 MLOAD SWAP3 DUP1 DUP5 ADD SWAP2 DUP2 DUP6 MSTORE MLOAD DUP1 SWAP3 MSTORE PUSH1 0x40 DUP5 ADD SWAP3 SWAP5 JUMPDEST DUP3 DUP2 LT PUSH2 0x1940 JUMPI DUP5 DUP5 SUB DUP6 RETURN JUMPDEST DUP6 MLOAD DUP1 MLOAD PUSH1 0x1 PUSH1 0x1 PUSH1 0xA0 SHL SUB AND DUP6 MSTORE DUP1 DUP4 ADD MLOAD DUP6 DUP5 ADD MSTORE PUSH1 0x40 DUP1 DUP3 ADD MLOAD SWAP1 DUP7 ADD MSTORE PUSH1 0x60 DUP1 DUP3 ADD MLOAD SWAP1 DUP7 ADD MSTORE PUSH1 0x80 DUP1 DUP3 ADD MLOAD SWAP1 DUP7 ADD MSTORE PUSH1 0xA0 DUP1 DUP3 ADD MLOAD SWAP1 DUP7 ADD MSTORE PUSH1 0xC0 SWAP1 DUP2 ADD MLOAD ISZERO ISZERO SWAP1 DUP6 ADD MSTORE SWAP5 DUP2 ADD SWAP5 PUSH1 0xE0 SWAP1 SWAP4 ADD SWAP3 PUSH1 0x1 ADD PUSH2 0x1933 JUMP JUMPDEST PUSH1 0x7 DUP9 PUSH1 0x1 SWAP3 PUSH1 0x40 SWAP12 SWAP11 SWAP9 SWAP10 SWAP12 MLOAD PUSH2 0x19B4 DUP2 PUSH2 0x2992 JUMP JUMPDEST DUP5 DUP1 PUSH1 0xA0 SHL SUB DUP8 SLOAD AND DUP2 MSTORE DUP5 DUP8 ADD SLOAD DUP4 DUP3 ADD MSTORE PUSH1 0x2 DUP8 ADD SLOAD PUSH1 0x40 DUP3 ADD MSTORE PUSH1 0x3 DUP8 ADD SLOAD PUSH1 0x60 DUP3 ADD MSTORE PUSH1 0x4 DUP8 ADD SLOAD PUSH1 0x80 DUP3 ADD MSTORE DUP6 DUP8 ADD SLOAD PUSH1 0xA0 DUP3 ADD MSTORE PUSH1 0xFF PUSH1 0x6 DUP9 ADD SLOAD AND ISZERO ISZERO PUSH1 0xC0 DUP3 ADD MSTORE DUP2 MSTORE ADD SWAP4 ADD SWAP4 ADD SWAP3 SWAP2 SWAP8 SWAP6 SWAP5 SWAP7 SWAP8 PUSH2 0x1911 JUMP JUMPDEST PUSH4 0x4E487B71 PUSH1 0xE0 SHL DUP5 MSTORE PUSH1 0x41 PUSH1 0x4 MSTORE PUSH1 0x24 DUP5 REVERT JUMPDEST POP CALLVALUE PUSH2 0x2B0 JUMPI PUSH1 0x20 CALLDATASIZE PUSH1 0x3 NOT ADD SLT PUSH2 0x2B0 JUMPI PUSH1 0x4 CALLDATALOAD PUSH1 0x1 PUSH1 0x1 PUSH1 0x40 SHL SUB DUP2 GT PUSH2 0x1660 JUMPI PUSH2 0x1A55 SWAP1 CALLDATASIZE SWAP1 PUSH1 0x4 ADD PUSH2 0x2879 JUMP JUMPDEST POP POP PUSH1 0x60 PUSH2 0x1A61 PUSH2 0x2B2E JUMP JUMPDEST SWAP2 SWAP1 PUSH1 0x40 MLOAD SWAP3 DUP4 SWAP2 ISZERO ISZERO DUP3 MSTORE PUSH1 0x40 PUSH1 0x20 DUP4 ADD MSTORE PUSH2 0x1A8D DUP2 MLOAD DUP1 SWAP3 DUP2 PUSH1 0x40 DUP7 ADD MSTORE PUSH1 0x20 DUP7 DUP7 ADD SWAP2 ADD PUSH2 0x28BC JUMP JUMPDEST PUSH1 0x1F ADD PUSH1 0x1F NOT AND DUP2 ADD SUB ADD SWAP1 RETURN JUMPDEST POP CALLVALUE PUSH2 0x2B0 JUMPI DUP1 PUSH1 0x3 NOT CALLDATASIZE ADD SLT PUSH2 0x2B0 JUMPI PUSH1 0x20 PUSH1 0xFF PUSH1 0x2 SLOAD AND PUSH1 0x40 MLOAD SWAP1 ISZERO ISZERO DUP2 MSTORE RETURN JUMPDEST POP CALLVALUE PUSH2 0x2B0 JUMPI PUSH1 0x80 CALLDATASIZE PUSH1 0x3 NOT ADD SLT PUSH2 0x2B0 JUMPI PUSH1 0x24 SWAP1 DUP2 CALLDATALOAD PUSH1 0x4 CALLDATALOAD PUSH2 0x1AE0 PUSH2 0x2D67 JUMP JUMPDEST DUP1 DUP4 MSTORE PUSH1 0x20 SWAP2 PUSH1 0xA DUP4 MSTORE PUSH1 0xFF PUSH1 0x40 DUP6 KECCAK256 SLOAD AND PUSH2 0x1CB3 JUMPI DUP1 ISZERO PUSH2 0x1C6F JUMPI PUSH2 0x2710 DUP2 MUL PUSH2 0x270F NOT DUP3 DUP3 DIV ADD PUSH2 0x1C5C JUMPI PUSH2 0x26AC SWAP1 DIV SWAP1 DUP3 DUP6 MSTORE PUSH1 0xF DUP5 MSTORE DUP2 PUSH1 0x40 DUP7 KECCAK256 SSTORE PUSH1 0x40 MLOAD SWAP2 PUSH2 0x100 DUP4 ADD SWAP2 DUP4 DUP4 LT PUSH1 0x1 PUSH1 0x1 PUSH1 0x40 SHL SUB DUP5 GT OR PUSH2 0x1C47 JUMPI PUSH1 0x5 SWAP3 PUSH1 0x40 MSTORE DUP7 DUP5 MSTORE DUP6 DUP5 ADD SWAP2 DUP3 MSTORE PUSH1 0x40 DUP5 ADD SWAP1 DUP2 MSTORE PUSH1 0x60 DUP5 ADD SWAP1 PUSH1 0x44 CALLDATALOAD DUP3 MSTORE PUSH1 0x80 DUP6 ADD SWAP2 DUP9 DUP4 MSTORE PUSH1 0xA0 DUP7 ADD SWAP1 DUP10 DUP3 MSTORE PUSH1 0xC0 DUP8 ADD SWAP3 DUP11 DUP5 MSTORE PUSH1 0xE0 DUP9 ADD SWAP6 PUSH1 0x64 CALLDATALOAD DUP8 MSTORE DUP10 DUP13 MSTORE PUSH1 0x6 DUP12 MSTORE PUSH1 0x40 DUP13 KECCAK256 SWAP9 MLOAD DUP10 SSTORE MLOAD PUSH1 0x1 DUP10 ADD SSTORE MLOAD PUSH1 0x2 DUP9 ADD SSTORE MLOAD PUSH1 0x3 DUP8 ADD SSTORE PUSH2 0x1BBC PUSH1 0x4 DUP8 ADD SWAP4 MLOAD ISZERO ISZERO DUP5 SWAP1 PUSH1 0xFF DUP1 NOT DUP4 SLOAD AND SWAP2 ISZERO ISZERO AND OR SWAP1 SSTORE JUMP JUMPDEST MLOAD ISZERO ISZERO SWAP1 PUSH2 0xFF00 PUSH3 0xFF0000 DUP5 SLOAD SWAP3 MLOAD ISZERO ISZERO PUSH1 0x10 SHL AND SWAP3 PUSH1 0x8 SHL AND SWAP1 PUSH3 0xFFFF00 NOT AND OR OR SWAP1 SSTORE MLOAD SWAP2 ADD SSTORE PUSH1 0x9 SLOAD SWAP4 PUSH1 0x1 PUSH1 0x40 SHL DUP6 LT ISZERO PUSH2 0x1C33 JUMPI POP PUSH2 0x1C09 DUP5 PUSH1 0x1 PUSH1 0xA SWAP6 SWAP7 ADD PUSH1 0x9 SSTORE PUSH2 0x28DF JUMP JUMPDEST DUP2 SLOAD SWAP1 PUSH1 0x3 SHL SWAP1 DUP4 DUP3 SHL SWAP2 PUSH1 0x0 NOT SWAP1 SHL NOT AND OR SWAP1 SSTORE DUP4 MSTORE MSTORE PUSH1 0x40 DUP2 KECCAK256 PUSH1 0x1 PUSH1 0xFF NOT DUP3 SLOAD AND OR SWAP1 SSTORE DUP1 RETURN JUMPDEST PUSH4 0x4E487B71 PUSH1 0xE0 SHL PUSH1 0x0 SWAP1 DUP2 MSTORE PUSH1 0x41 PUSH1 0x4 MSTORE REVERT JUMPDEST DUP8 PUSH4 0x4E487B71 PUSH1 0xE0 SHL PUSH1 0x0 MSTORE PUSH1 0x41 PUSH1 0x4 MSTORE PUSH1 0x0 REVERT JUMPDEST PUSH4 0x4E487B71 PUSH1 0xE0 SHL DUP6 MSTORE PUSH1 0x11 PUSH1 0x4 MSTORE DUP6 DUP6 REVERT JUMPDEST PUSH1 0x40 MLOAD PUSH3 0x461BCD PUSH1 0xE5 SHL DUP2 MSTORE PUSH1 0x4 DUP2 ADD DUP5 SWAP1 MSTORE PUSH1 0x17 DUP2 DUP8 ADD MSTORE PUSH32 0x50726F6A65637420627564676574207265717569726564000000000000000000 PUSH1 0x44 DUP3 ADD MSTORE PUSH1 0x64 SWAP1 REVERT JUMPDEST PUSH1 0x40 MLOAD PUSH3 0x461BCD PUSH1 0xE5 SHL DUP2 MSTORE PUSH1 0x4 DUP2 ADD DUP5 SWAP1 MSTORE PUSH1 0x15 DUP2 DUP8 ADD MSTORE PUSH21 0x457363726F7720616C726561647920657869737473 PUSH1 0x58 SHL PUSH1 0x44 DUP3 ADD MSTORE PUSH1 0x64 SWAP1 REVERT JUMPDEST POP CALLVALUE PUSH2 0x2B0 JUMPI PUSH2 0x1CFE CALLDATASIZE PUSH2 0x28A6 JUMP JUMPDEST DUP2 DUP4 SWAP3 SWAP4 MSTORE PUSH1 0x5 PUSH1 0x20 MSTORE PUSH1 0x40 DUP3 KECCAK256 SLOAD DUP2 LT ISZERO PUSH2 0x1D78 JUMPI PUSH1 0x40 DUP3 PUSH1 0xC0 SWAP5 PUSH2 0x1D2A SWAP5 MSTORE PUSH1 0x5 PUSH1 0x20 MSTORE KECCAK256 PUSH2 0x2963 JUMP JUMPDEST POP PUSH1 0x1 DUP1 PUSH1 0xA0 SHL SUB DUP2 SLOAD AND SWAP1 PUSH1 0x2 DUP2 ADD SLOAD SWAP1 PUSH1 0x3 DUP2 ADD SLOAD PUSH1 0x4 DUP3 ADD SLOAD SWAP1 PUSH1 0xFF PUSH1 0x6 PUSH1 0x5 DUP6 ADD SLOAD SWAP5 ADD SLOAD AND SWAP4 PUSH1 0x40 MLOAD SWAP6 DUP7 MSTORE PUSH1 0x20 DUP7 ADD MSTORE PUSH1 0x40 DUP6 ADD MSTORE PUSH1 0x60 DUP5 ADD MSTORE PUSH1 0x80 DUP4 ADD MSTORE ISZERO ISZERO PUSH1 0xA0 DUP3 ADD MSTORE RETURN JUMPDEST PUSH1 0x40 MLOAD PUSH3 0x461BCD PUSH1 0xE5 SHL DUP2 MSTORE PUSH1 0x20 PUSH1 0x4 DUP3 ADD MSTORE PUSH1 0x13 PUSH1 0x24 DUP3 ADD MSTORE PUSH19 0x496E646578206F7574206F6620626F756E6473 PUSH1 0x68 SHL PUSH1 0x44 DUP3 ADD MSTORE PUSH1 0x64 SWAP1 REVERT JUMPDEST POP CALLVALUE PUSH2 0x2B0 JUMPI PUSH1 0x20 DUP1 PUSH1 0x3 NOT CALLDATASIZE ADD SLT PUSH2 0x1660 JUMPI PUSH1 0x4 CALLDATALOAD SWAP1 PUSH1 0x1 PUSH1 0x1 PUSH1 0x40 SHL SUB DUP3 GT PUSH2 0xC47 JUMPI PUSH2 0x1DE8 PUSH1 0x40 SWAP3 CALLDATASIZE SWAP1 PUSH1 0x4 ADD PUSH2 0x2879 JUMP JUMPDEST SWAP1 DUP1 SWAP4 SWAP2 DUP2 ADD SUB SLT PUSH2 0xC47 JUMPI DUP2 CALLDATALOAD SWAP2 PUSH1 0xFF DUP4 AND DUP1 SWAP4 SUB PUSH2 0x796 JUMPI DUP2 ADD CALLDATALOAD SWAP2 DUP1 PUSH2 0x1ECD JUMPI POP DUP2 DUP4 MSTORE PUSH1 0x6 DUP2 MSTORE PUSH1 0x40 DUP4 KECCAK256 SWAP1 PUSH1 0xA DUP2 MSTORE PUSH2 0x1E2C PUSH1 0xFF PUSH1 0x40 DUP7 KECCAK256 SLOAD AND PUSH2 0x2A5D JUMP JUMPDEST PUSH1 0xFF PUSH1 0x4 DUP4 ADD SLOAD PUSH2 0x1E3F DUP3 DUP3 AND ISZERO PUSH2 0x2A9F JUMP JUMPDEST PUSH1 0x8 SHR AND PUSH2 0x1E95 JUMPI POP PUSH1 0x3 PUSH2 0x1E58 SWAP2 ADD SLOAD TIMESTAMP LT ISZERO PUSH2 0x2ADE JUMP JUMPDEST ADDRESS EXTCODESIZE ISZERO PUSH2 0x1660 JUMPI PUSH1 0x40 MLOAD SWAP1 PUSH4 0xC6F56901 PUSH1 0xE0 SHL DUP3 MSTORE PUSH1 0x4 DUP3 ADD MSTORE DUP2 DUP2 PUSH1 0x24 DUP2 DUP4 ADDRESS GAS CALL DUP1 ISZERO PUSH2 0x78B JUMPI PUSH2 0x1E89 JUMPI POP DUP1 RETURN JUMPDEST PUSH2 0x1E92 SWAP1 PUSH2 0x297F JUMP JUMPDEST DUP1 RETURN JUMPDEST PUSH1 0x64 SWAP1 PUSH1 0x40 MLOAD SWAP1 PUSH3 0x461BCD PUSH1 0xE5 SHL DUP3 MSTORE PUSH1 0x4 DUP3 ADD MSTORE PUSH1 0x11 PUSH1 0x24 DUP3 ADD MSTORE PUSH17 0x1499599D5B991CC81C1C9BD8D95CDCD959 PUSH1 0x7A SHL PUSH1 0x44 DUP3 ADD MSTORE REVERT JUMPDEST PUSH1 0x1 EQ PUSH2 0x1ED9 JUMPI POP POP DUP1 RETURN JUMPDEST DUP2 DUP4 MSTORE PUSH1 0x8 DUP2 MSTORE PUSH1 0x40 DUP4 KECCAK256 SWAP1 PUSH1 0xFF PUSH1 0x2 DUP4 ADD SLOAD AND ISZERO PUSH2 0x2184 JUMPI DUP2 SLOAD PUSH3 0x76A700 DUP2 ADD DUP1 SWAP2 GT PUSH2 0x1638 JUMPI TIMESTAMP LT PUSH2 0x2140 JUMPI PUSH1 0x1 DUP3 ADD SWAP1 DUP2 SLOAD SWAP3 DUP4 ISZERO PUSH2 0x20FB JUMPI DUP5 DUP7 MSTORE PUSH1 0xD DUP3 MSTORE PUSH1 0x40 DUP7 KECCAK256 SLOAD PUSH1 0x1 PUSH1 0x1 PUSH1 0xA0 SHL SUB SWAP4 SWAP1 DUP5 AND ISZERO PUSH2 0x20B6 JUMPI DUP7 SWAP1 SSTORE TIMESTAMP SWAP1 SSTORE PUSH1 0x64 DUP4 MUL DUP4 DUP2 DIV PUSH1 0x64 SUB PUSH2 0x20A2 JUMPI PUSH2 0x2710 SWAP1 DIV SWAP1 DUP6 PUSH2 0x1F57 DUP4 DUP7 PUSH2 0x2CAB JUMP JUMPDEST SWAP4 DUP4 PUSH2 0x2020 JUMPI JUMPDEST DUP5 PUSH2 0x1FA5 JUMPI JUMPDEST POP POP SWAP2 PUSH32 0xFA2256ED22B95BAD4ADE0813DBE7B8EEE9382165C52AA77952DE366B24BF8E20 SWAP4 SWAP2 PUSH1 0x80 SWAP4 PUSH1 0x40 MLOAD SWAP4 DUP5 MSTORE DUP4 ADD MSTORE PUSH1 0x40 DUP3 ADD MSTORE TIMESTAMP PUSH1 0x60 DUP3 ADD MSTORE LOG2 DUP1 RETURN JUMPDEST DUP2 DUP1 DUP7 DUP2 SWAP4 DUP11 DUP4 MSTORE PUSH1 0xD DUP8 MSTORE PUSH1 0x40 DUP4 KECCAK256 SLOAD AND GAS CALL PUSH2 0x1FC1 PUSH2 0x2A04 JUMP JUMPDEST POP ISZERO PUSH2 0x1FCE JUMPI DUP6 CODESIZE PUSH2 0x1F64 JUMP JUMPDEST PUSH1 0x84 SWAP1 PUSH1 0x40 MLOAD SWAP1 PUSH3 0x461BCD PUSH1 0xE5 SHL DUP3 MSTORE PUSH1 0x4 DUP3 ADD MSTORE PUSH1 0x25 PUSH1 0x24 DUP3 ADD MSTORE PUSH32 0x496E766573746F7220646973747269627574696F6E207472616E736665722066 PUSH1 0x44 DUP3 ADD MSTORE PUSH5 0x185A5B1959 PUSH1 0xDA SHL PUSH1 0x64 DUP3 ADD MSTORE REVERT JUMPDEST SWAP1 DUP1 DUP1 DUP1 DUP7 DUP6 PUSH32 0x0 AND GAS CALL PUSH2 0x2052 PUSH2 0x2A04 JUMP JUMPDEST POP ISZERO PUSH2 0x205F JUMPI DUP7 SWAP1 PUSH2 0x1F5E JUMP JUMPDEST PUSH1 0x64 DUP3 PUSH1 0x40 MLOAD SWAP1 PUSH3 0x461BCD PUSH1 0xE5 SHL DUP3 MSTORE DUP1 PUSH1 0x4 DUP4 ADD MSTORE PUSH1 0x24 DUP3 ADD MSTORE PUSH32 0x466F756E64657220717561727465726C79207061796D656E74206661696C6564 PUSH1 0x44 DUP3 ADD MSTORE REVERT JUMPDEST PUSH4 0x4E487B71 PUSH1 0xE0 SHL DUP7 MSTORE PUSH1 0x11 PUSH1 0x4 MSTORE PUSH1 0x24 DUP7 REVERT JUMPDEST PUSH1 0x40 MLOAD PUSH3 0x461BCD PUSH1 0xE5 SHL DUP2 MSTORE PUSH1 0x4 DUP2 ADD DUP5 SWAP1 MSTORE PUSH1 0x1E PUSH1 0x24 DUP3 ADD MSTORE PUSH32 0x446973747269627574696F6E20726563697069656E74206E6F74207365740000 PUSH1 0x44 DUP3 ADD MSTORE PUSH1 0x64 SWAP1 REVERT JUMPDEST PUSH1 0x40 MLOAD PUSH3 0x461BCD PUSH1 0xE5 SHL DUP2 MSTORE PUSH1 0x4 DUP2 ADD DUP4 SWAP1 MSTORE PUSH1 0x17 PUSH1 0x24 DUP3 ADD MSTORE PUSH32 0x4E6F20696E636F6D6520746F2064697374726962757465000000000000000000 PUSH1 0x44 DUP3 ADD MSTORE PUSH1 0x64 SWAP1 REVERT JUMPDEST PUSH1 0x64 SWAP1 PUSH1 0x40 MLOAD SWAP1 PUSH3 0x461BCD PUSH1 0xE5 SHL DUP3 MSTORE PUSH1 0x4 DUP3 ADD MSTORE PUSH1 0x1A PUSH1 0x24 DUP3 ADD MSTORE PUSH32 0x546F6F206561726C7920666F7220646973747269627574696F6E000000000000 PUSH1 0x44 DUP3 ADD MSTORE REVERT JUMPDEST PUSH1 0x64 SWAP1 PUSH1 0x40 MLOAD SWAP1 PUSH3 0x461BCD PUSH1 0xE5 SHL DUP3 MSTORE PUSH1 0x4 DUP3 ADD MSTORE PUSH1 0x16 PUSH1 0x24 DUP3 ADD MSTORE PUSH22 0x4E6F74206120747261636B65642070726F7065727479 PUSH1 0x50 SHL PUSH1 0x44 DUP3 ADD MSTORE REVERT JUMPDEST POP CALLVALUE PUSH2 0x2B0 JUMPI DUP1 PUSH1 0x3 NOT CALLDATASIZE ADD SLT PUSH2 0x2B0 JUMPI PUSH1 0x2 SLOAD PUSH1 0x40 MLOAD PUSH1 0x8 SWAP2 SWAP1 SWAP2 SHR PUSH1 0x1 PUSH1 0x1 PUSH1 0xA0 SHL SUB AND DUP2 MSTORE PUSH1 0x20 SWAP1 RETURN JUMPDEST POP CALLVALUE PUSH2 0x2B0 JUMPI PUSH1 0x40 CALLDATASIZE PUSH1 0x3 NOT ADD SLT PUSH2 0x2B0 JUMPI PUSH2 0x2208 PUSH2 0x2863 JUMP JUMPDEST PUSH2 0x2210 PUSH2 0x2D67 JUMP JUMPDEST PUSH1 0x1 PUSH1 0x1 PUSH1 0xA0 SHL SUB AND DUP1 ISZERO PUSH2 0x2241 JUMPI PUSH1 0x4 CALLDATALOAD DUP3 MSTORE PUSH1 0xD PUSH1 0x20 MSTORE PUSH1 0x40 DUP3 KECCAK256 DUP1 SLOAD PUSH1 0x1 PUSH1 0x1 PUSH1 0xA0 SHL SUB NOT AND SWAP1 SWAP2 OR SWAP1 SSTORE DUP1 RETURN JUMPDEST PUSH1 0x40 MLOAD PUSH3 0x461BCD PUSH1 0xE5 SHL DUP2 MSTORE PUSH1 0x20 PUSH1 0x4 DUP3 ADD MSTORE PUSH1 0x11 PUSH1 0x24 DUP3 ADD MSTORE PUSH17 0x125B9D985B1A59081C9958DA5C1A595B9D PUSH1 0x7A SHL PUSH1 0x44 DUP3 ADD MSTORE PUSH1 0x64 SWAP1 REVERT JUMPDEST POP CALLVALUE PUSH2 0x2B0 JUMPI PUSH1 0x40 CALLDATASIZE PUSH1 0x3 NOT ADD SLT PUSH2 0x2B0 JUMPI PUSH1 0x40 PUSH1 0x20 SWAP2 PUSH2 0x2299 PUSH2 0x2863 JUMP JUMPDEST PUSH1 0x4 CALLDATALOAD DUP3 MSTORE PUSH1 0x7 DUP5 MSTORE DUP3 DUP3 KECCAK256 PUSH1 0x1 PUSH1 0x1 PUSH1 0xA0 SHL SUB SWAP1 SWAP2 AND DUP3 MSTORE DUP4 MSTORE KECCAK256 SLOAD PUSH1 0x40 MLOAD SWAP1 DUP2 MSTORE RETURN JUMPDEST POP CALLVALUE PUSH2 0x2B0 JUMPI DUP1 PUSH1 0x3 NOT CALLDATASIZE ADD SLT PUSH2 0x2B0 JUMPI PUSH2 0x22D7 PUSH2 0x2D0F JUMP JUMPDEST PUSH1 0x2 SLOAD PUSH1 0xFF DUP2 AND ISZERO PUSH2 0x2317 JUMPI PUSH1 0xFF NOT AND PUSH1 0x2 SSTORE PUSH32 0x5DB9EE0A495BF2E6FF9C91A7834C1BA4FDD244A5E8AA4E537BD38AEAE4B073AA PUSH1 0x20 PUSH1 0x40 MLOAD CALLER DUP2 MSTORE LOG1 DUP1 RETURN JUMPDEST PUSH1 0x40 MLOAD PUSH4 0x8DFC202B PUSH1 0xE0 SHL DUP2 MSTORE PUSH1 0x4 SWAP1 REVERT JUMPDEST POP CALLVALUE PUSH2 0x2B0 JUMPI PUSH1 0x40 CALLDATASIZE PUSH1 0x3 NOT ADD SLT PUSH2 0x2B0 JUMPI PUSH2 0x2343 PUSH2 0x2863 JUMP JUMPDEST CALLER PUSH1 0x1 PUSH1 0x1 PUSH1 0xA0 SHL SUB DUP3 AND SUB PUSH2 0x235F JUMPI PUSH2 0x3D0 SWAP1 PUSH1 0x4 CALLDATALOAD PUSH2 0x2E8A JUMP JUMPDEST PUSH1 0x40 MLOAD PUSH4 0x334BD919 PUSH1 0xE1 SHL DUP2 MSTORE PUSH1 0x4 SWAP1 REVERT JUMPDEST POP CALLVALUE PUSH2 0x2B0 JUMPI PUSH1 0x20 CALLDATASIZE PUSH1 0x3 NOT ADD SLT PUSH2 0x2B0 JUMPI PUSH1 0x20 SWAP1 PUSH1 0x4 CALLDATALOAD DUP2 MSTORE PUSH1 0xD DUP3 MSTORE PUSH1 0x40 PUSH1 0x1 DUP1 PUSH1 0xA0 SHL SUB SWAP2 KECCAK256 SLOAD AND PUSH1 0x40 MLOAD SWAP1 DUP2 MSTORE RETURN JUMPDEST POP CALLVALUE PUSH2 0x2B0 JUMPI PUSH1 0x20 CALLDATASIZE PUSH1 0x3 NOT ADD SLT PUSH2 0x2B0 JUMPI PUSH1 0x4 CALLDATALOAD DUP2 MSTORE PUSH1 0x6 PUSH1 0x20 MSTORE PUSH1 0x40 DUP2 KECCAK256 PUSH1 0x1 DUP2 ADD SLOAD DUP1 ISZERO SWAP3 DUP4 PUSH2 0x2462 JUMPI DUP3 SLOAD SWAP4 PUSH2 0x2710 SWAP5 DUP6 DUP2 MUL SWAP6 DUP2 DUP8 DIV EQ SWAP1 ISZERO OR ISZERO PUSH2 0x244E JUMPI PUSH2 0x243A JUMPI POP PUSH1 0xFF DUP2 PUSH1 0xE0 SWAP5 DIV SWAP2 JUMPDEST DUP4 SLOAD SWAP4 PUSH1 0x2 DUP2 ADD SLOAD PUSH1 0x4 PUSH1 0x3 DUP4 ADD SLOAD SWAP3 ADD SLOAD SWAP3 PUSH1 0x40 MLOAD SWAP7 DUP8 MSTORE PUSH1 0x20 DUP8 ADD MSTORE PUSH1 0x40 DUP7 ADD MSTORE PUSH1 0x60 DUP6 ADD MSTORE DUP2 DUP2 AND ISZERO ISZERO PUSH1 0x80 DUP6 ADD MSTORE PUSH1 0x10 SHR AND ISZERO ISZERO PUSH1 0xA0 DUP4 ADD MSTORE PUSH1 0xC0 DUP3 ADD MSTORE RETURN JUMPDEST PUSH4 0x4E487B71 PUSH1 0xE0 SHL DUP2 MSTORE PUSH1 0x12 PUSH1 0x4 MSTORE PUSH1 0x24 SWAP1 REVERT JUMPDEST PUSH4 0x4E487B71 PUSH1 0xE0 SHL DUP3 MSTORE PUSH1 0x11 PUSH1 0x4 MSTORE PUSH1 0x24 DUP3 REVERT JUMPDEST PUSH1 0xE0 SWAP4 POP PUSH1 0xFF SWAP1 SWAP2 PUSH2 0x23F6 JUMP JUMPDEST POP CALLVALUE PUSH2 0x2B0 JUMPI PUSH1 0x40 CALLDATASIZE PUSH1 0x3 NOT ADD SLT PUSH2 0x2B0 JUMPI PUSH2 0x3D0 PUSH1 0x4 CALLDATALOAD PUSH2 0x248F PUSH2 0x2863 JUMP JUMPDEST SWAP1 DUP1 DUP5 MSTORE DUP4 PUSH1 0x20 MSTORE PUSH2 0x24A7 PUSH1 0x1 PUSH1 0x40 DUP7 KECCAK256 ADD SLOAD PUSH2 0x2DC3 JUMP JUMPDEST PUSH2 0x2E0C JUMP JUMPDEST POP CALLVALUE PUSH2 0x2B0 JUMPI PUSH1 0x20 CALLDATASIZE PUSH1 0x3 NOT ADD SLT PUSH2 0x2B0 JUMPI PUSH1 0xFF PUSH1 0x40 PUSH1 0x20 SWAP3 PUSH1 0x4 CALLDATALOAD DUP2 MSTORE PUSH1 0xC DUP5 MSTORE KECCAK256 SLOAD AND PUSH1 0x40 MLOAD SWAP1 ISZERO ISZERO DUP2 MSTORE RETURN JUMPDEST POP CALLVALUE PUSH2 0x2B0 JUMPI PUSH1 0x20 CALLDATASIZE PUSH1 0x3 NOT ADD SLT PUSH2 0x2B0 JUMPI PUSH1 0x40 PUSH1 0x20 SWAP2 PUSH1 0x4 CALLDATALOAD DUP2 MSTORE PUSH1 0xE DUP4 MSTORE KECCAK256 SLOAD PUSH1 0x40 MLOAD SWAP1 DUP2 MSTORE RETURN JUMPDEST POP CALLVALUE PUSH2 0x2B0 JUMPI PUSH1 0x20 CALLDATASIZE PUSH1 0x3 NOT ADD SLT PUSH2 0x2B0 JUMPI PUSH1 0x1 PUSH1 0x40 PUSH1 0x20 SWAP3 PUSH1 0x4 CALLDATALOAD DUP2 MSTORE DUP1 DUP5 MSTORE KECCAK256 ADD SLOAD PUSH1 0x40 MLOAD SWAP1 DUP2 MSTORE RETURN JUMPDEST POP CALLVALUE PUSH2 0x2B0 JUMPI PUSH1 0x20 CALLDATASIZE PUSH1 0x3 NOT ADD SLT PUSH2 0x2B0 JUMPI PUSH1 0x40 PUSH2 0x100 SWAP2 PUSH1 0x4 CALLDATALOAD DUP2 MSTORE PUSH1 0x6 PUSH1 0x20 MSTORE KECCAK256 DUP1 SLOAD SWAP1 PUSH1 0xFF PUSH1 0x1 DUP3 ADD SLOAD SWAP2 PUSH1 0x2 DUP2 ADD SLOAD PUSH1 0x3 DUP3 ADD SLOAD SWAP1 PUSH1 0x5 PUSH1 0x4 DUP5 ADD SLOAD SWAP4 ADD SLOAD SWAP5 PUSH1 0x40 MLOAD SWAP7 DUP8 MSTORE PUSH1 0x20 DUP8 ADD MSTORE PUSH1 0x40 DUP7 ADD MSTORE PUSH1 0x60 DUP6 ADD MSTORE DUP2 DUP2 AND ISZERO ISZERO PUSH1 0x80 DUP6 ADD MSTORE DUP2 DUP2 PUSH1 0x8 SHR AND ISZERO ISZERO PUSH1 0xA0 DUP6 ADD MSTORE PUSH1 0x10 SHR AND ISZERO ISZERO PUSH1 0xC0 DUP4 ADD MSTORE PUSH1 0xE0 DUP3 ADD MSTORE RETURN JUMPDEST POP CALLVALUE PUSH2 0x2B0 JUMPI DUP1 PUSH1 0x3 NOT CALLDATASIZE ADD SLT PUSH2 0x2B0 JUMPI PUSH1 0x3 SLOAD PUSH1 0x40 MLOAD PUSH1 0x1 PUSH1 0x1 PUSH1 0xA0 SHL SUB SWAP1 SWAP2 AND DUP2 MSTORE PUSH1 0x20 SWAP1 RETURN JUMPDEST POP CALLVALUE PUSH2 0x2B0 JUMPI PUSH1 0x40 CALLDATASIZE PUSH1 0x3 NOT ADD SLT PUSH2 0x2B0 JUMPI PUSH1 0x4 CALLDATALOAD PUSH2 0x25F9 PUSH2 0x2863 JUMP JUMPDEST SWAP1 PUSH2 0x2602 PUSH2 0x2D67 JUMP JUMPDEST PUSH2 0x260A PUSH2 0x2DE9 JUMP JUMPDEST DUP1 DUP4 MSTORE PUSH1 0x20 PUSH1 0x6 DUP2 MSTORE PUSH1 0x40 DUP5 KECCAK256 PUSH1 0xFF PUSH1 0x4 DUP3 ADD SLOAD AND ISZERO PUSH2 0x2714 JUMPI PUSH1 0x2 ADD SWAP3 DUP4 SLOAD SWAP4 DUP5 ISZERO PUSH2 0x26CF JUMPI DUP6 SWAP1 SSTORE DUP3 DUP6 MSTORE PUSH1 0xA DUP3 MSTORE PUSH1 0x40 DUP6 KECCAK256 DUP1 SLOAD PUSH1 0xFF NOT AND SWAP1 SSTORE PUSH1 0x1 PUSH1 0x1 PUSH1 0xA0 SHL SUB AND SWAP3 DUP5 DUP1 DUP1 DUP1 DUP5 DUP9 GAS CALL PUSH2 0x2661 PUSH2 0x2A04 JUMP JUMPDEST POP ISZERO PUSH2 0x2698 JUMPI SWAP1 PUSH32 0x6E3C6096795C8298A218B2CFB8BDE42726FF7C9A3D27B4D3BA41AB7F74FEB5FB SWAP2 PUSH1 0x40 MLOAD SWAP1 DUP2 MSTORE LOG3 PUSH1 0x1 DUP1 SSTORE DUP1 RETURN JUMPDEST PUSH1 0x40 MLOAD PUSH3 0x461BCD PUSH1 0xE5 SHL DUP2 MSTORE PUSH1 0x4 DUP2 ADD DUP4 SWAP1 MSTORE PUSH1 0xF PUSH1 0x24 DUP3 ADD MSTORE PUSH15 0x151C985B9CD9995C8819985A5B1959 PUSH1 0x8A SHL PUSH1 0x44 DUP3 ADD MSTORE PUSH1 0x64 SWAP1 REVERT JUMPDEST PUSH1 0x40 MLOAD PUSH3 0x461BCD PUSH1 0xE5 SHL DUP2 MSTORE PUSH1 0x4 DUP2 ADD DUP5 SWAP1 MSTORE PUSH1 0x1C PUSH1 0x24 DUP3 ADD MSTORE PUSH32 0x4E6F2070726F6A6563742062756467657420746F2072656C6561736500000000 PUSH1 0x44 DUP3 ADD MSTORE PUSH1 0x64 SWAP1 REVERT JUMPDEST PUSH1 0x40 MLOAD PUSH3 0x461BCD PUSH1 0xE5 SHL DUP2 MSTORE PUSH1 0x4 DUP2 ADD DUP4 SWAP1 MSTORE PUSH1 0x14 PUSH1 0x24 DUP3 ADD MSTORE PUSH20 0x46756E64696E67206E6F7420636F6D706C657465 PUSH1 0x60 SHL PUSH1 0x44 DUP3 ADD MSTORE PUSH1 0x64 SWAP1 REVERT JUMPDEST POP CALLVALUE PUSH2 0x2B0 JUMPI PUSH1 0x20 CALLDATASIZE PUSH1 0x3 NOT ADD SLT PUSH2 0x2B0 JUMPI PUSH1 0xFF PUSH1 0x40 PUSH1 0x20 SWAP3 PUSH1 0x4 CALLDATALOAD DUP2 MSTORE PUSH1 0xA DUP5 MSTORE KECCAK256 SLOAD AND PUSH1 0x40 MLOAD SWAP1 ISZERO ISZERO DUP2 MSTORE RETURN JUMPDEST POP CALLVALUE PUSH2 0x2B0 JUMPI DUP1 PUSH1 0x3 NOT CALLDATASIZE ADD SLT PUSH2 0x2B0 JUMPI PUSH1 0x20 PUSH1 0x40 MLOAD PUSH2 0x12C DUP2 MSTORE RETURN JUMPDEST POP CALLVALUE PUSH2 0x2B0 JUMPI PUSH1 0x20 CALLDATASIZE PUSH1 0x3 NOT ADD SLT PUSH2 0x2B0 JUMPI PUSH2 0x27B6 PUSH2 0x284D JUMP JUMPDEST PUSH2 0x27BE PUSH2 0x2D0F JUMP JUMPDEST PUSH1 0x1 DUP1 PUSH1 0xA0 SHL SUB AND PUSH1 0x1 PUSH1 0x1 PUSH1 0x60 SHL SUB PUSH1 0xA0 SHL PUSH1 0x4 SLOAD AND OR PUSH1 0x4 SSTORE DUP1 RETURN JUMPDEST POP CALLVALUE PUSH2 0x2B0 JUMPI DUP1 PUSH1 0x3 NOT CALLDATASIZE ADD SLT PUSH2 0x2B0 JUMPI PUSH1 0x20 PUSH1 0x40 MLOAD PUSH1 0x64 DUP2 MSTORE RETURN JUMPDEST SWAP1 POP CALLVALUE PUSH2 0x1660 JUMPI PUSH1 0x20 CALLDATASIZE PUSH1 0x3 NOT ADD SLT PUSH2 0x1660 JUMPI PUSH1 0x4 CALLDATALOAD PUSH4 0xFFFFFFFF PUSH1 0xE0 SHL DUP2 AND DUP1 SWAP2 SUB PUSH2 0xC47 JUMPI PUSH1 0x20 SWAP3 POP PUSH4 0x7965DB0B PUSH1 0xE0 SHL DUP2 EQ SWAP1 DUP2 ISZERO PUSH2 0x283C JUMPI JUMPDEST POP ISZERO ISZERO DUP2 MSTORE RETURN JUMPDEST PUSH4 0x1FFC9A7 PUSH1 0xE0 SHL EQ SWAP1 POP CODESIZE PUSH2 0x2835 JUMP JUMPDEST PUSH1 0x4 CALLDATALOAD SWAP1 PUSH1 0x1 PUSH1 0x1 PUSH1 0xA0 SHL SUB DUP3 AND DUP3 SUB PUSH2 0x7C7 JUMPI JUMP JUMPDEST PUSH1 0x24 CALLDATALOAD SWAP1 PUSH1 0x1 PUSH1 0x1 PUSH1 0xA0 SHL SUB DUP3 AND DUP3 SUB PUSH2 0x7C7 JUMPI JUMP JUMPDEST SWAP2 DUP2 PUSH1 0x1F DUP5 ADD SLT ISZERO PUSH2 0x7C7 JUMPI DUP3 CALLDATALOAD SWAP2 PUSH1 0x1 PUSH1 0x1 PUSH1 0x40 SHL SUB DUP4 GT PUSH2 0x7C7 JUMPI PUSH1 0x20 DUP4 DUP2 DUP7 ADD SWAP6 ADD ADD GT PUSH2 0x7C7 JUMPI JUMP JUMPDEST PUSH1 0x40 SWAP1 PUSH1 0x3 NOT ADD SLT PUSH2 0x7C7 JUMPI PUSH1 0x4 CALLDATALOAD SWAP1 PUSH1 0x24 CALLDATALOAD SWAP1 JUMP JUMPDEST PUSH1 0x0 JUMPDEST DUP4 DUP2 LT PUSH2 0x28CF JUMPI POP POP PUSH1 0x0 SWAP2 ADD MSTORE JUMP JUMPDEST DUP2 DUP2 ADD MLOAD DUP4 DUP3 ADD MSTORE PUSH1 0x20 ADD PUSH2 0x28BF JUMP JUMPDEST PUSH1 0x9 SLOAD DUP2 LT ISZERO PUSH2 0x2916 JUMPI PUSH1 0x9 PUSH1 0x0 MSTORE PUSH32 0x6E1540171B6C0C960B71A7020D9F60077F6AF931A8BBF590DA0223DACF75C7AF ADD SWAP1 PUSH1 0x0 SWAP1 JUMP JUMPDEST PUSH4 0x4E487B71 PUSH1 0xE0 SHL PUSH1 0x0 MSTORE PUSH1 0x32 PUSH1 0x4 MSTORE PUSH1 0x24 PUSH1 0x0 REVERT JUMPDEST PUSH1 0xB SLOAD DUP2 LT ISZERO PUSH2 0x2916 JUMPI PUSH1 0xB PUSH1 0x0 MSTORE PUSH32 0x175B7A638427703F0DBE7BB9BBF987A2551717B34E79F33B5B1008D1FA01DB9 ADD SWAP1 PUSH1 0x0 SWAP1 JUMP JUMPDEST DUP1 SLOAD DUP3 LT ISZERO PUSH2 0x2916 JUMPI PUSH1 0x0 MSTORE PUSH1 0x7 PUSH1 0x20 PUSH1 0x0 KECCAK256 SWAP2 MUL ADD SWAP1 PUSH1 0x0 SWAP1 JUMP JUMPDEST PUSH1 0x1 PUSH1 0x1 PUSH1 0x40 SHL SUB DUP2 GT PUSH2 0x147A JUMPI PUSH1 0x40 MSTORE JUMP JUMPDEST PUSH1 0xE0 DUP2 ADD SWAP1 DUP2 LT PUSH1 0x1 PUSH1 0x1 PUSH1 0x40 SHL SUB DUP3 GT OR PUSH2 0x147A JUMPI PUSH1 0x40 MSTORE JUMP JUMPDEST PUSH1 0x60 DUP2 ADD SWAP1 DUP2 LT PUSH1 0x1 PUSH1 0x1 PUSH1 0x40 SHL SUB DUP3 GT OR PUSH2 0x147A JUMPI PUSH1 0x40 MSTORE JUMP JUMPDEST SWAP1 PUSH1 0x1F DUP1 NOT SWAP2 ADD AND DUP2 ADD SWAP1 DUP2 LT PUSH1 0x1 PUSH1 0x1 PUSH1 0x40 SHL SUB DUP3 GT OR PUSH2 0x147A JUMPI PUSH1 0x40 MSTORE JUMP JUMPDEST PUSH1 0x1 PUSH1 0x1 PUSH1 0x40 SHL SUB DUP2 GT PUSH2 0x147A JUMPI PUSH1 0x1F ADD PUSH1 0x1F NOT AND PUSH1 0x20 ADD SWAP1 JUMP JUMPDEST RETURNDATASIZE ISZERO PUSH2 0x2A2F JUMPI RETURNDATASIZE SWAP1 PUSH2 0x2A15 DUP3 PUSH2 0x29E9 JUMP JUMPDEST SWAP2 PUSH2 0x2A23 PUSH1 0x40 MLOAD SWAP4 DUP5 PUSH2 0x29C8 JUMP JUMPDEST DUP3 MSTORE RETURNDATASIZE PUSH1 0x0 PUSH1 0x20 DUP5 ADD RETURNDATACOPY JUMP JUMPDEST PUSH1 0x60 SWAP1 JUMP JUMPDEST DUP2 DUP2 MUL SWAP3 SWAP2 DUP2 ISZERO SWAP2 DUP5 DIV EQ OR ISZERO PUSH2 0x2A47 JUMPI JUMP JUMPDEST PUSH4 0x4E487B71 PUSH1 0xE0 SHL PUSH1 0x0 MSTORE PUSH1 0x11 PUSH1 0x4 MSTORE PUSH1 0x24 PUSH1 0x0 REVERT JUMPDEST ISZERO PUSH2 0x2A64 JUMPI JUMP JUMPDEST PUSH1 0x40 MLOAD PUSH3 0x461BCD PUSH1 0xE5 SHL DUP2 MSTORE PUSH1 0x20 PUSH1 0x4 DUP3 ADD MSTORE PUSH1 0x13 PUSH1 0x24 DUP3 ADD MSTORE PUSH19 0x50726F7065727479206E6F7420616374697665 PUSH1 0x68 SHL PUSH1 0x44 DUP3 ADD MSTORE PUSH1 0x64 SWAP1 REVERT JUMPDEST ISZERO PUSH2 0x2AA6 JUMPI JUMP JUMPDEST PUSH1 0x40 MLOAD PUSH3 0x461BCD PUSH1 0xE5 SHL DUP2 MSTORE PUSH1 0x20 PUSH1 0x4 DUP3 ADD MSTORE PUSH1 0x10 PUSH1 0x24 DUP3 ADD MSTORE PUSH16 0x46756E64696E6720636F6D706C657465 PUSH1 0x80 SHL PUSH1 0x44 DUP3 ADD MSTORE PUSH1 0x64 SWAP1 REVERT JUMPDEST ISZERO PUSH2 0x2AE5 JUMPI JUMP JUMPDEST PUSH1 0x40 MLOAD PUSH3 0x461BCD PUSH1 0xE5 SHL DUP2 MSTORE PUSH1 0x20 PUSH1 0x4 DUP3 ADD MSTORE PUSH1 0x14 PUSH1 0x24 DUP3 ADD MSTORE PUSH20 0x111958591B1A5B99481B9BDD081C995858DA1959 PUSH1 0x62 SHL PUSH1 0x44 DUP3 ADD MSTORE PUSH1 0x64 SWAP1 REVERT JUMPDEST SWAP2 SWAP1 DUP3 ADD DUP1 SWAP3 GT PUSH2 0x2A47 JUMPI JUMP JUMPDEST PUSH1 0x9 SLOAD PUSH1 0x0 JUMPDEST DUP2 DUP2 LT PUSH2 0x2C01 JUMPI POP POP PUSH1 0xB SLOAD PUSH1 0x0 JUMPDEST DUP2 DUP2 LT PUSH2 0x2B72 JUMPI POP POP PUSH1 0x0 SWAP1 PUSH1 0x40 MLOAD PUSH1 0x20 DUP2 ADD DUP2 DUP2 LT PUSH1 0x1 PUSH1 0x1 PUSH1 0x40 SHL SUB DUP3 GT OR PUSH2 0x147A JUMPI PUSH1 0x40 MSTORE PUSH1 0x0 DUP2 MSTORE SWAP1 JUMP JUMPDEST PUSH2 0x2B7B DUP2 PUSH2 0x292C JUMP JUMPDEST SWAP1 SLOAD SWAP1 PUSH1 0x3 SHL SHR DUP1 PUSH1 0x0 MSTORE PUSH1 0x20 PUSH1 0x8 DUP2 MSTORE PUSH1 0x40 DUP1 PUSH1 0x0 KECCAK256 PUSH1 0xFF PUSH1 0x2 DUP3 ADD SLOAD AND SWAP1 DUP2 PUSH2 0x2BF3 JUMPI JUMPDEST DUP2 PUSH2 0x2BDA JUMPI JUMPDEST POP PUSH2 0x2BB7 JUMPI POP POP POP PUSH1 0x1 ADD PUSH2 0x2B43 JUMP JUMPDEST SWAP2 SWAP5 SWAP4 POP SWAP2 POP DUP1 MLOAD SWAP4 PUSH1 0x1 DUP1 SWAP4 DUP7 ADD MSTORE DUP2 DUP6 ADD MSTORE DUP4 MSTORE PUSH2 0x2BD6 DUP4 PUSH2 0x29AD JUMP JUMPDEST SWAP2 SWAP1 JUMP JUMPDEST SWAP1 POP SLOAD PUSH3 0x76A700 DUP2 ADD DUP1 SWAP2 GT PUSH2 0x2A47 JUMPI TIMESTAMP LT ISZERO CODESIZE PUSH2 0x2BA7 JUMP JUMPDEST PUSH1 0x1 DUP2 ADD SLOAD ISZERO ISZERO SWAP2 POP PUSH2 0x2BA1 JUMP JUMPDEST PUSH2 0x2C0A DUP2 PUSH2 0x28DF JUMP JUMPDEST SWAP1 SLOAD PUSH1 0x3 SWAP2 DUP3 SHL SHR SWAP1 DUP2 PUSH1 0x0 MSTORE PUSH1 0x20 SWAP2 PUSH1 0x6 DUP4 MSTORE PUSH1 0x40 SWAP2 DUP3 PUSH1 0x0 KECCAK256 SWAP1 PUSH1 0xA DUP6 MSTORE PUSH1 0xFF SWAP2 DUP3 DUP6 PUSH1 0x0 KECCAK256 SLOAD AND SWAP3 DUP4 PUSH2 0x2C9C JUMPI JUMPDEST DUP4 PUSH2 0x2C8A JUMPI JUMPDEST POP DUP3 PUSH2 0x2C7C JUMPI JUMPDEST POP POP PUSH2 0x2C59 JUMPI POP POP POP PUSH1 0x1 ADD PUSH2 0x2B34 JUMP JUMPDEST SWAP2 SWAP5 SWAP4 POP SWAP2 POP PUSH1 0x0 DUP3 MLOAD SWAP5 DUP6 ADD MSTORE DUP2 DUP5 ADD MSTORE DUP3 MSTORE PUSH2 0x2C76 DUP3 PUSH2 0x29AD JUMP JUMPDEST PUSH1 0x1 SWAP2 SWAP1 JUMP JUMPDEST ADD SLOAD TIMESTAMP LT ISZERO SWAP1 POP CODESIZE DUP1 PUSH2 0x2C48 JUMP JUMPDEST PUSH1 0x4 DUP3 ADD SLOAD PUSH1 0x8 SHR AND ISZERO SWAP3 POP CODESIZE PUSH2 0x2C41 JUMP JUMPDEST PUSH1 0x4 DUP3 ADD SLOAD DUP2 AND ISZERO SWAP4 POP PUSH2 0x2C3B JUMP JUMPDEST SWAP2 SWAP1 DUP3 SUB SWAP2 DUP3 GT PUSH2 0x2A47 JUMPI JUMP JUMPDEST SWAP1 DUP1 PUSH1 0x20 SWAP4 SWAP3 DUP2 DUP5 MSTORE DUP5 DUP5 ADD CALLDATACOPY PUSH1 0x0 DUP3 DUP3 ADD DUP5 ADD MSTORE PUSH1 0x1F ADD PUSH1 0x1F NOT AND ADD ADD SWAP1 JUMP JUMPDEST SWAP1 PUSH2 0x2CE4 SWAP1 TIMESTAMP PUSH2 0x2CAB JUMP JUMPDEST SWAP1 PUSH2 0x12C SWAP2 DUP3 DUP3 MUL SWAP3 DUP3 DUP5 DIV EQ DUP3 ISZERO OR ISZERO PUSH2 0x2A47 JUMPI PUSH2 0x931 PUSH5 0x496CEBB800 SWAP2 PUSH2 0x2D0C SWAP5 PUSH2 0x2A34 JUMP JUMPDEST SWAP1 JUMP JUMPDEST CALLER PUSH1 0x0 SWAP1 DUP2 MSTORE PUSH32 0xAD3228B676F7D3CD4284A5443F17F1962B36E491B30A40B2405849E597BA5FB5 PUSH1 0x20 MSTORE PUSH1 0x40 DUP2 KECCAK256 SLOAD PUSH1 0xFF AND ISZERO PUSH2 0x2D49 JUMPI POP JUMP JUMPDEST PUSH1 0x44 SWAP1 PUSH1 0x40 MLOAD SWAP1 PUSH4 0xE2517D3F PUSH1 0xE0 SHL DUP3 MSTORE CALLER PUSH1 0x4 DUP4 ADD MSTORE PUSH1 0x24 DUP3 ADD MSTORE REVERT JUMPDEST CALLER PUSH1 0x0 SWAP1 DUP2 MSTORE PUSH32 0xEE57CD81E84075558E8FCC182A1F4393F91FC97F963A136E66B7F949A62F319F PUSH1 0x20 MSTORE PUSH1 0x40 SWAP1 KECCAK256 SLOAD PUSH32 0x97667070C54EF182B0F5858B034BEAC1B6F3089AA2D3188BB1E8929F4FA9B929 SWAP1 PUSH1 0xFF AND ISZERO PUSH2 0x2D49 JUMPI POP JUMP JUMPDEST DUP1 PUSH1 0x0 MSTORE PUSH1 0x0 PUSH1 0x20 MSTORE PUSH1 0x40 PUSH1 0x0 KECCAK256 CALLER PUSH1 0x0 MSTORE PUSH1 0x20 MSTORE PUSH1 0xFF PUSH1 0x40 PUSH1 0x0 KECCAK256 SLOAD AND ISZERO PUSH2 0x2D49 JUMPI POP JUMP JUMPDEST PUSH1 0x2 PUSH1 0x1 SLOAD EQ PUSH2 0x2DFA JUMPI PUSH1 0x2 PUSH1 0x1 SSTORE JUMP JUMPDEST PUSH1 0x40 MLOAD PUSH4 0x3EE5AEB5 PUSH1 0xE0 SHL DUP2 MSTORE PUSH1 0x4 SWAP1 REVERT JUMPDEST SWAP1 PUSH1 0x0 SWAP2 DUP1 DUP4 MSTORE DUP3 PUSH1 0x20 MSTORE PUSH1 0x40 DUP4 KECCAK256 SWAP2 PUSH1 0x1 DUP1 PUSH1 0xA0 SHL SUB AND SWAP2 DUP3 DUP5 MSTORE PUSH1 0x20 MSTORE PUSH1 0xFF PUSH1 0x40 DUP5 KECCAK256 SLOAD AND ISZERO PUSH1 0x0 EQ PUSH2 0x2E85 JUMPI DUP1 DUP4 MSTORE DUP3 PUSH1 0x20 MSTORE PUSH1 0x40 DUP4 KECCAK256 DUP3 DUP5 MSTORE PUSH1 0x20 MSTORE PUSH1 0x40 DUP4 KECCAK256 PUSH1 0x1 PUSH1 0xFF NOT DUP3 SLOAD AND OR SWAP1 SSTORE PUSH32 0x2F8788117E7EFF1D82E926EC794901D17C78024A50270940304540A733656F0D CALLER SWAP4 DUP1 LOG4 PUSH1 0x1 SWAP1 JUMP JUMPDEST POP POP SWAP1 JUMP JUMPDEST SWAP1 PUSH1 0x0 SWAP2 DUP1 DUP4 MSTORE DUP3 PUSH1 0x20 MSTORE PUSH1 0x40 DUP4 KECCAK256 SWAP2 PUSH1 0x1 DUP1 PUSH1 0xA0 SHL SUB AND SWAP2 DUP3 DUP5 MSTORE PUSH1 0x20 MSTORE PUSH1 0xFF PUSH1 0x40 DUP5 KECCAK256 SLOAD AND PUSH1 0x0 EQ PUSH2 0x2E85 JUMPI DUP1 DUP4 MSTORE DUP3 PUSH1 0x20 MSTORE PUSH1 0x40 DUP4 KECCAK256 DUP3 DUP5 MSTORE PUSH1 0x20 MSTORE PUSH1 0x40 DUP4 KECCAK256 PUSH1 0xFF NOT DUP2 SLOAD AND SWAP1 SSTORE PUSH32 0xF6391F5C32D9C69D2A47EA670B442974B53935D1EDC7FD64EB21E047A839171B CALLER SWAP4 DUP1 LOG4 PUSH1 0x1 SWAP1 JUMP JUMPDEST PUSH1 0xFF PUSH1 0x2 SLOAD AND PUSH2 0x2F0B JUMPI JUMP JUMPDEST PUSH1 0x40 MLOAD PUSH4 0xD93C0665 PUSH1 0xE0 SHL DUP2 MSTORE PUSH1 0x4 SWAP1 REVERT INVALID LOG2 PUSH5 0x6970667358 0x22 SLT KECCAK256 DUP14 PUSH31 0x63DC31A2FAACDBAE2B40D6CEEAA572534C0E4C9AFA9B197972C7F240D0A764 PUSH20 0x6F6C634300081800332F8788117E7EFF1D82E926 0xEC PUSH26 0x4901D17C78024A50270940304540A733656F0D00000000000000 "},"methodIdentifiers":{"AML_THRESHOLD()":"b6607cc5","BASIS_POINTS()":"e1f1c4a7","DEFAULT_ADMIN_ROLE()":"a217fddf","FOUNDER_FEE_BPS()":"11028915","MAX_DEMAND_BONUS()":"bf9586e0","MIN_IMPACT_SCORE()":"937daefd","OPERATOR_ROLE()":"f5b541a6","QUARTERLY_INTERVAL()":"d38e698e","REFUND_APR()":"14a2873a","SECONDS_PER_YEAR()":"e6a69ab8","activeProperties(uint256)":"a8b268de","amlOracle()":"213b8f73","baseFundingTargets(uint256)":"be6d243e","buyerContributions(uint256,address)":"11e2e175","calculateRefund(uint256,uint256)":"e38abd0f","checkUpkeep(bytes)":"6e04ff0d","depositIncome(uint256,string)":"a384854e","distributionRecipients(uint256)":"346ef41b","founderWallet()":"a23d3c35","fundedProperties(uint256)":"f71896cc","getDemandAdjustedTarget(uint256)":"b7fe0953","getEscrowStatus(uint256)":"345460cd","getInvestorContribution(uint256,address)":"40a0841b","getPurchaseCount(uint256)":"9093bb20","getPurchaseForAudit(uint256,uint256)":"50e2f0f7","getPurchases(uint256)":"6f629ed5","getQuarterlyState(uint256)":"73f9ff4e","getRoleAdmin(bytes32)":"248a9ca3","governanceContract()":"b172b222","grantRole(bytes32,address)":"2f2ff15d","hasRole(bytes32,address)":"91d14854","initializeEscrow(uint256,uint256,uint256,uint256)":"5c79a289","isPropertyActive(uint256)":"154bb891","isPropertyFunded(uint256)":"2d56061d","pause()":"8456cb59","paused()":"5c975abb","performUpkeep(bytes)":"4585e33b","pollDemandScores(uint256)":"2b904a79","processRefunds(uint256)":"c6f56901","propertyEscrows(uint256)":"2430fc3d","propertyPurchases(uint256,uint256)":"d2e0f66e","propertyToken()":"43ae2695","purchase(uint256,uint256)":"70876c98","quarterlyStates(uint256)":"da561ec6","releaseFunds(uint256,address)":"1af23a59","renounceRole(bytes32,address)":"36568abe","reportSuspiciousActivity(uint256,address,string)":"7f42ff64","revokeRole(bytes32,address)":"d547741f","setAMLOracle(address)":"8b7155d2","setDistributionRecipient(uint256,address)":"435a481a","setGovernanceContract(address)":"1129753f","supportsInterface(bytes4)":"01ffc9a7","unpause()":"3f4ba83a","updatePollDemand(uint256,uint256)":"be4ac3dc"}}}}}