{"contracts/PhaseManager.sol":{"PhaseManager":{"abi":[{"inputs":[{"internalType":"address","name":"_propertyToken","type":"address"},{"internalType":"address","name":"_governance","type":"address"}],"stateMutability":"nonpayable","type":"constructor"},{"inputs":[],"name":"AccessControlBadConfirmation","type":"error"},{"inputs":[{"internalType":"address","name":"account","type":"address"},{"internalType":"bytes32","name":"neededRole","type":"bytes32"}],"name":"AccessControlUnauthorizedAccount","type":"error"},{"anonymous":false,"inputs":[{"indexed":true,"internalType":"uint256","name":"propertyId","type":"uint256"},{"indexed":true,"internalType":"address","name":"claimer","type":"address"},{"indexed":false,"internalType":"uint256","name":"bonus","type":"uint256"}],"name":"BonusClaimed","type":"event"},{"anonymous":false,"inputs":[{"indexed":true,"internalType":"uint256","name":"propertyId","type":"uint256"},{"indexed":false,"internalType":"uint256","name":"activeVoters","type":"uint256"},{"indexed":false,"internalType":"uint256","name":"totalEligible","type":"uint256"},{"indexed":false,"internalType":"uint256","name":"engagementPercent","type":"uint256"}],"name":"EngagementUpdated","type":"event"},{"anonymous":false,"inputs":[{"indexed":true,"internalType":"uint256","name":"propertyId","type":"uint256"},{"indexed":false,"internalType":"string","name":"nudgeType","type":"string"},{"indexed":false,"internalType":"uint256","name":"engagementPercent","type":"uint256"}],"name":"NudgeTriggered","type":"event"},{"anonymous":false,"inputs":[{"indexed":true,"internalType":"uint256","name":"propertyId","type":"uint256"},{"indexed":false,"internalType":"uint8","name":"fromPhase","type":"uint8"},{"indexed":false,"internalType":"uint8","name":"toPhase","type":"uint8"},{"indexed":false,"internalType":"uint256","name":"engagementPercent","type":"uint256"}],"name":"PhaseAdvancedByEngagement","type":"event"},{"anonymous":false,"inputs":[{"indexed":true,"internalType":"uint256","name":"propertyId","type":"uint256"},{"indexed":false,"internalType":"uint8","name":"fromPhase","type":"uint8"},{"indexed":false,"internalType":"uint8","name":"toPhase","type":"uint8"}],"name":"PhaseAdvancedBySubscription","type":"event"},{"anonymous":false,"inputs":[{"indexed":true,"internalType":"uint256","name":"propertyId","type":"uint256"},{"indexed":false,"internalType":"uint256","name":"pollParticipants","type":"uint256"},{"indexed":false,"internalType":"uint256","name":"bonusEngagement","type":"uint256"}],"name":"PollBonusApplied","type":"event"},{"anonymous":false,"inputs":[{"indexed":true,"internalType":"uint256","name":"propertyId","type":"uint256"},{"indexed":true,"internalType":"address","name":"participant","type":"address"}],"name":"PollParticipationRecorded","type":"event"},{"anonymous":false,"inputs":[{"indexed":true,"internalType":"uint256","name":"propertyId","type":"uint256"}],"name":"PropertyTrackingStarted","type":"event"},{"anonymous":false,"inputs":[{"indexed":true,"internalType":"uint256","name":"propertyId","type":"uint256"}],"name":"PropertyTrackingStopped","type":"event"},{"anonymous":false,"inputs":[{"indexed":true,"internalType":"bytes32","name":"role","type":"bytes32"},{"indexed":true,"internalType":"bytes32","name":"previousAdminRole","type":"bytes32"},{"indexed":true,"internalType":"bytes32","name":"newAdminRole","type":"bytes32"}],"name":"RoleAdminChanged","type":"event"},{"anonymous":false,"inputs":[{"indexed":true,"internalType":"bytes32","name":"role","type":"bytes32"},{"indexed":true,"internalType":"address","name":"account","type":"address"},{"indexed":true,"internalType":"address","name":"sender","type":"address"}],"name":"RoleGranted","type":"event"},{"anonymous":false,"inputs":[{"indexed":true,"internalType":"bytes32","name":"role","type":"bytes32"},{"indexed":true,"internalType":"address","name":"account","type":"address"},{"indexed":true,"internalType":"address","name":"sender","type":"address"}],"name":"RoleRevoked","type":"event"},{"inputs":[],"name":"BONUS_TOKENS","outputs":[{"internalType":"uint256","name":"","type":"uint256"}],"stateMutability":"view","type":"function"},{"inputs":[],"name":"DEFAULT_ADMIN_ROLE","outputs":[{"internalType":"bytes32","name":"","type":"bytes32"}],"stateMutability":"view","type":"function"},{"inputs":[],"name":"ENGAGEMENT_THRESHOLD","outputs":[{"internalType":"uint256","name":"","type":"uint256"}],"stateMutability":"view","type":"function"},{"inputs":[],"name":"MIN_ENGAGEMENT_PERIOD","outputs":[{"internalType":"uint256","name":"","type":"uint256"}],"stateMutability":"view","type":"function"},{"inputs":[],"name":"OPERATOR_ROLE","outputs":[{"internalType":"bytes32","name":"","type":"bytes32"}],"stateMutability":"view","type":"function"},{"inputs":[],"name":"POLL_BONUS_MULTIPLIER","outputs":[{"internalType":"uint256","name":"","type":"uint256"}],"stateMutability":"view","type":"function"},{"inputs":[{"internalType":"uint256","name":"propertyId","type":"uint256"}],"name":"calculateEngagement","outputs":[{"internalType":"uint256","name":"","type":"uint256"}],"stateMutability":"view","type":"function"},{"inputs":[{"internalType":"uint256","name":"propertyId","type":"uint256"}],"name":"checkSubscriptionAdvancement","outputs":[],"stateMutability":"nonpayable","type":"function"},{"inputs":[{"internalType":"bytes","name":"","type":"bytes"}],"name":"checkUpkeep","outputs":[{"internalType":"bool","name":"upkeepNeeded","type":"bool"},{"internalType":"bytes","name":"performData","type":"bytes"}],"stateMutability":"view","type":"function"},{"inputs":[{"internalType":"uint256","name":"propertyId","type":"uint256"}],"name":"claimEngagementBonus","outputs":[],"stateMutability":"nonpayable","type":"function"},{"inputs":[{"internalType":"uint256","name":"propertyId","type":"uint256"}],"name":"claimPollBoostBonus","outputs":[],"stateMutability":"nonpayable","type":"function"},{"inputs":[{"internalType":"uint256","name":"propertyId","type":"uint256"}],"name":"getEngagement","outputs":[{"internalType":"uint256","name":"phaseStartTime","type":"uint256"},{"internalType":"uint256","name":"totalEligible","type":"uint256"},{"internalType":"uint256","name":"activeVoters","type":"uint256"},{"internalType":"uint256","name":"engagementPercent","type":"uint256"},{"internalType":"bool","name":"isTracking","type":"bool"}],"stateMutability":"view","type":"function"},{"inputs":[{"internalType":"bytes32","name":"role","type":"bytes32"}],"name":"getRoleAdmin","outputs":[{"internalType":"bytes32","name":"","type":"bytes32"}],"stateMutability":"view","type":"function"},{"inputs":[],"name":"getTrackedProperties","outputs":[{"internalType":"uint256[]","name":"","type":"uint256[]"}],"stateMutability":"view","type":"function"},{"inputs":[],"name":"governance","outputs":[{"internalType":"contract IGovernance","name":"","type":"address"}],"stateMutability":"view","type":"function"},{"inputs":[{"internalType":"bytes32","name":"role","type":"bytes32"},{"internalType":"address","name":"account","type":"address"}],"name":"grantRole","outputs":[],"stateMutability":"nonpayable","type":"function"},{"inputs":[{"internalType":"uint256","name":"","type":"uint256"},{"internalType":"address","name":"","type":"address"}],"name":"hasClaimed","outputs":[{"internalType":"bool","name":"","type":"bool"}],"stateMutability":"view","type":"function"},{"inputs":[{"internalType":"uint256","name":"propertyId","type":"uint256"},{"internalType":"address","name":"participant","type":"address"}],"name":"hasParticipatedInPolls","outputs":[{"internalType":"bool","name":"","type":"bool"}],"stateMutability":"view","type":"function"},{"inputs":[{"internalType":"bytes32","name":"role","type":"bytes32"},{"internalType":"address","name":"account","type":"address"}],"name":"hasRole","outputs":[{"internalType":"bool","name":"","type":"bool"}],"stateMutability":"view","type":"function"},{"inputs":[{"internalType":"uint256","name":"","type":"uint256"}],"name":"isTracked","outputs":[{"internalType":"bool","name":"","type":"bool"}],"stateMutability":"view","type":"function"},{"inputs":[{"internalType":"uint256","name":"","type":"uint256"}],"name":"lastNudgeTime","outputs":[{"internalType":"uint256","name":"","type":"uint256"}],"stateMutability":"view","type":"function"},{"inputs":[],"name":"nudgeCooldown","outputs":[{"internalType":"uint256","name":"","type":"uint256"}],"stateMutability":"view","type":"function"},{"inputs":[{"internalType":"bytes","name":"performData","type":"bytes"}],"name":"performUpkeep","outputs":[],"stateMutability":"nonpayable","type":"function"},{"inputs":[{"internalType":"uint256","name":"","type":"uint256"},{"internalType":"address","name":"","type":"address"}],"name":"pollParticipated","outputs":[{"internalType":"bool","name":"","type":"bool"}],"stateMutability":"view","type":"function"},{"inputs":[{"internalType":"uint256","name":"","type":"uint256"}],"name":"propertyEngagement","outputs":[{"internalType":"uint256","name":"propertyId","type":"uint256"},{"internalType":"uint256","name":"phaseStartTime","type":"uint256"},{"internalType":"uint256","name":"totalEligibleVoters","type":"uint256"},{"internalType":"uint256","name":"activeVoters","type":"uint256"},{"internalType":"uint256","name":"totalProposals","type":"uint256"},{"internalType":"uint256","name":"votedProposals","type":"uint256"},{"internalType":"bool","name":"isTracking","type":"bool"}],"stateMutability":"view","type":"function"},{"inputs":[{"internalType":"uint256","name":"","type":"uint256"}],"name":"propertyPollCount","outputs":[{"internalType":"uint256","name":"","type":"uint256"}],"stateMutability":"view","type":"function"},{"inputs":[],"name":"propertyToken","outputs":[{"internalType":"contract IPropertyToken","name":"","type":"address"}],"stateMutability":"view","type":"function"},{"inputs":[{"internalType":"uint256","name":"propertyId","type":"uint256"},{"internalType":"address","name":"participant","type":"address"}],"name":"recordPollParticipation","outputs":[],"stateMutability":"nonpayable","type":"function"},{"inputs":[{"internalType":"bytes32","name":"role","type":"bytes32"},{"internalType":"address","name":"callerConfirmation","type":"address"}],"name":"renounceRole","outputs":[],"stateMutability":"nonpayable","type":"function"},{"inputs":[{"internalType":"bytes32","name":"role","type":"bytes32"},{"internalType":"address","name":"account","type":"address"}],"name":"revokeRole","outputs":[],"stateMutability":"nonpayable","type":"function"},{"inputs":[{"internalType":"uint256","name":"newCooldown","type":"uint256"}],"name":"setNudgeCooldown","outputs":[],"stateMutability":"nonpayable","type":"function"},{"inputs":[{"internalType":"uint256","name":"propertyId","type":"uint256"},{"internalType":"uint256","name":"totalEligibleVoters","type":"uint256"}],"name":"startTracking","outputs":[],"stateMutability":"nonpayable","type":"function"},{"inputs":[{"internalType":"uint256","name":"propertyId","type":"uint256"}],"name":"stopTracking","outputs":[],"stateMutability":"nonpayable","type":"function"},{"inputs":[{"internalType":"bytes4","name":"interfaceId","type":"bytes4"}],"name":"supportsInterface","outputs":[{"internalType":"bool","name":"","type":"bool"}],"stateMutability":"view","type":"function"},{"inputs":[{"internalType":"uint256","name":"","type":"uint256"}],"name":"trackedProperties","outputs":[{"internalType":"uint256","name":"","type":"uint256"}],"stateMutability":"view","type":"function"},{"inputs":[{"internalType":"uint256","name":"propertyId","type":"uint256"},{"internalType":"uint256","name":"activeVoters","type":"uint256"},{"internalType":"uint256","name":"totalProposals","type":"uint256"},{"internalType":"uint256","name":"votedProposals","type":"uint256"}],"name":"updateEngagement","outputs":[],"stateMutability":"nonpayable","type":"function"},{"inputs":[{"internalType":"uint256","name":"propertyId","type":"uint256"},{"internalType":"uint256","name":"activeVoters","type":"uint256"},{"internalType":"uint256","name":"totalProposals","type":"uint256"},{"internalType":"uint256","name":"votedProposals","type":"uint256"},{"internalType":"uint256","name":"pollParticipants","type":"uint256"}],"name":"updateEngagementWithPolls","outputs":[],"stateMutability":"nonpayable","type":"function"}],"evm":{"bytecode":{"linkReferences":{},"object":"608034620000b557601f62001fe938819003918201601f19168301916001600160401b03831184841017620000ba578084926040948552833981010312620000b5576200005a60206200005283620000d0565b9201620000d0565b62015180600755600180546001600160a01b039384166001600160a01b031991821617909155600280549290931691161790556200009833620000e5565b50620000a43362000165565b50604051611dc19081620002088239f35b600080fd5b634e487b7160e01b600052604160045260246000fd5b51906001600160a01b0382168203620000b557565b6001600160a01b031660008181527fad3228b676f7d3cd4284a5443f17f1962b36e491b30a40b2405849e597ba5fb5602052604081205490919060ff166200016157818052816020526040822081835260205260408220600160ff19825416179055339160008051602062001fc98339815191528180a4600190565b5090565b6001600160a01b031660008181527fee57cd81e84075558e8fcc182a1f4393f91fc97f963a136e66b7f949a62f319f60205260408120549091907f97667070c54ef182b0f5858b034beac1b6f3089aa2d3188bb1e8929f4fa9b9299060ff166200020257808352826020526040832082845260205260408320600160ff1982541617905560008051602062001fc9833981519152339380a4600190565b50509056fe608060408181526004918236101561001657600080fd5b600092833560e01c91826301ffc9a7146113c45750816306785d8a146113435781631194f9e91461131657816314585aeb146110d9578163248a9ca3146110af5781632e94dfda1461104f5781632f2ff15d1461102557816330ae780514611008578163313b79da14610f5757816336568abe14610f115781633a21ccc114610de957816340ab317114610c2b57816343ae269514610c025781634585e33b14610b755781635513de4114610b57578163587bd4a7146104bf5781635aa6e67514610b2e5781635da6559e14610b0657816363e86eb814610a9a5781636675584f14610a7b5781636e04ff0d14610a3f57816373de7b4b14610a17578163785b2190146108865781638085b8131461084e578163816aad3c14610737578163873f6f9e146106f15781638e5359e01461064057816391d14854146105fb57816394c9825d1461053c578163a217fddf14610521578163a27f71b214610505578163a9dc8726146104bf578163b415d279146104a3578163d547741f14610464578163d561248614610223578163f333d6c2146101f9575063f5b541a6146101bc57600080fd5b346101f557816003193601126101f557602090517f97667070c54ef182b0f5858b034beac1b6f3089aa2d3188bb1e8929f4fa9b9298152f35b5080fd5b8284346102205760203660031901126102205750610219602092356118cf565b9051908152f35b80fd5b9190503461039c5760209081600319360112610460578235928460018060a01b03600154168351926332665ffb60e01b845286818501528284602481855afa938415610456578394610428575b508451636ea9967760e01b815281810188815260ff861660208201528790829081906040010381865afa90811561041e5784916103ed575b5085516304fa617360e01b815282810189815260ff871660208201528890829081906040010381875afa9081156103e35785916103ad575b501015806103a0575b6102f1578280f35b813b1561039c57866024849283885195869485936340d57a6760e11b85528401525af180156103925761037a575b5092847f7214c5e85040cb3e35452fa6ff842070826b1d0bd195171e1c75e6d07bc1b96c945260038152856003848220426001820155015560ff610362836118bd565b818551941684521690820152a2388080808481808280f35b61038390611547565b61038e57843861031f565b8480fd5b84513d84823e3d90fd5b8280fd5b50600360ff8516106102e9565b809550888092503d83116103dc575b6103c6818361158d565b810103126103d757889351386102e0565b600080fd5b503d6103bc565b87513d87823e3d90fd5b809450878092503d8311610417575b610406818361158d565b810103126103d757879251386102a8565b503d6103fc565b86513d86823e3d90fd5b6104459194503d8085833e61043d818361158d565b810190611832565b505096505050505050509238610270565b85513d85823e3d90fd5b8380fd5b9190503461039c578060031936011261039c5761049f913561049a6001610489611417565b938387528660205286200154611985565b611a29565b5080f35b5050346101f557816003193601126101f5576020905160018152f35b90503461039c578160031936011261039c57816020936104dd611417565b9235815260098552209060018060a01b0316600052825260ff81600020541690519015158152f35b5050346101f557816003193601126101f5576020905160328152f35b5050346101f557816003193601126101f55751908152602090f35b90503461039c57608036600319011261039c576105f891817f63bd409a0ca0450137d1b574e1e74a5a18cc8934d8f718c1603619b971ce6737600293359283926105e66024359161058b61190b565b858a526003602052838a20906105a760ff60068401541661150c565b8360038301556044359082015560643560058201556105c5866118cf565b97889101549351938493846040919493926060820195825260208201520152565b0390a26105f38282611a9e565b611c1d565b80f35b90503461039c578160031936011261039c5781602093610619611417565b92358152808552209060018060a01b0316600052825260ff81600020541690519015158152f35b90503461039c57602036600319011261039c57803591600080526000602052806000203360005260205260ff816000205416156106d357610e10831015806106c6575b1561069057505060075580f35b906020606492519162461bcd60e51b8352820152601060248201526f24b73b30b634b21031b7b7b63237bbb760811b6044820152fd5b5062093a80831115610683565b60449250519063e2517d3f60e01b8252339082015260006024820152fd5b90503461039c578160031936011261039c578160209361070f611417565b9235815260088552209060018060a01b0316600052825260ff81600020541690519015158152f35b9190503461039c578060031936011261039c57813590610755611417565b9261075e61190b565b8285526020906005825260ff83872054161561081657838652600982528286206001600160a01b039095166000818152958352948390205460ff166107e25750828552600981528185206000858152915220805460ff191660011790557f9c81720c57d474644d653192db4aee34eff3e6b5c6b80e4c283ab58871c9382e8380a380f35b915162461bcd60e51b815291820152601060248201526f105b1c9958591e481c9958dbdc99195960821b6044820152606490fd5b915162461bcd60e51b8152918201526014602482015273141c9bdc195c9d1e481b9bdd081d1c9858dad95960621b6044820152606490fd5b828434610220576020366003190112610220578235925483101561022057506108786020926114bf565b91905490519160031b1c8152f35b8383346101f557806003193601126103d7578235906108a361190b565b818352600560205260ff81842054166109e25780519060e0820182811067ffffffffffffffff8211176109cd57815282825260066020830192428452828101602435815260608201878152608083019088825260a084019289845260c085019760018952898b526003602052878b2095518655516001860155516002850155516003840155518883015551600582015501915115159160ff199260ff8483541691161790558454680100000000000000008110156109ba579061096d8287600180950190556114bf565b81549060031b9086821b91600019901b191617905583855260056020528420918254161790557f3621586063592251acf2253a10fe8119554dbb0bf93d6e875b85a3a66a2166b98280a280f35b634e487b7160e01b855260418652602485fd5b604186634e487b7160e01b6000525260246000fd5b5162461bcd60e51b8152602081850152601060248201526f416c726561647920747261636b696e6760801b6044820152606490fd5b90503461039c57602036600319011261039c576020928291358152600a845220549051908152f35b8284346102205750610a503661142d565b5050610a77610a5d6116d3565b83929192519384931515845280602085015283019061149a565b0390f35b5050346101f557816003193601126101f5576020906007549051908152f35b90503461039c57602036600319011261039c578160e0938235815260036020522080549260018201549260028301546003840154918401549260ff600660058701549601541695815197885260208801528601526060850152608084015260a0830152151560c0820152f35b90503461039c57602036600319011261039c5760209282913581526006845220549051908152f35b5050346101f557816003193601126101f55760025490516001600160a01b039091168152602090f35b5050346101f557816003193601126101f5576020905162093a808152f35b8383346101f55780610b863661142d565b90809291810103126103d757600190359182845260036020528320610bb160ff60068301541661150c565b01549262093a808401809411610bef5750610bd26105f8929342101561169b565b610bdb816118cf565b90610bea611d4c831015611638565b611c60565b634e487b7160e01b835260119052602482fd5b5050346101f557816003193601126101f55760015490516001600160a01b039091168152602090f35b9190503461039c57602090816003193601126104605782359160018060a01b039360019460248382885416865192838092634d8c928d60e11b825233888301525afa8015610ddf578890610da5575b610c8491506115bc565b84875260088352838720336000528352610ca560ff856000205416156115fa565b8487526003835285848820610cc060ff60068301541661150c565b610cd6611d4c610ccf896118cf565b1015611638565b015462093a808101809111610d925790610cf488939242101561169b565b85835260088452848320336000528452846000208760ff1982541617905586541690813b1561039c57856064849283885195869485936346b40cdf60e11b85528401523360248401528b60448401525af1801561039257610d7e575b50507f89e1649e796bc46c9dcd5fd4505f79bfdd9197c8eccbdbaf05a6bfd1cb9ea09b91519384523393a380f35b610d8790611547565b61038e578438610d50565b634e487b7160e01b885260118352602488fd5b508381813d8311610dd8575b610dbb818361158d565b81010312610dd457610dcf610c84916115af565b610c7a565b8780fd5b503d610db1565b85513d8a823e3d90fd5b8383346101f55760a03660031901126101f557823560843591610e0a61190b565b818452600360205280842092610e2660ff60068601541661150c565b6032810281810460321482151715610efe579560646105f896970490610e4e82602435611678565b95600281015491828811610ef4575b7f63bd409a0ca0450137d1b574e1e74a5a18cc8934d8f718c1603619b971ce67377fa924d670d57ce0c4ef66945fcc39ba0d6082deb70a897faa080424140b0b1c7d95938389989694938b60038b960155604435908201556005606435910155610ec6836118cf565b86519a8b5260208b019190915260408a0181905298606090a282519182526020820152a26105f38282611a9e565b9196508691610e5d565b634e487b7160e01b865260118752602486fd5b8383346101f557806003193601126101f557610f2b611417565b90336001600160a01b03831603610f48575061049f919235611a29565b5163334bd91960e11b81528390fd5b905082346102205780600319360112610220579190815192838254808652602080960190819484527f8a35acfbc15ff81a39ae7d344fd709f28e8600b4aa8c65c6b64bfe7fe36bd19b90845b818110610ff45750505081610fb991038261158d565b83519485948186019282875251809352850193925b828110610fdd57505050500390f35b835185528695509381019392810192600101610fce565b825484529288019260019283019201610fa3565b5050346101f557816003193601126101f55760209051611d4c8152f35b9190503461039c578060031936011261039c5761049f913561104a6001610489611417565b6119ab565b8383346101f55760203660031901126101f5578060a093359283815260036020522060018101549260028201549260ff600661108f6003860154946118cf565b940154169381519586526020860152840152606083015215156080820152f35b90503461039c57602036600319011261039c57816020936001923581528085522001549051908152f35b90503461039c5760209182600319360112610460576001548151634d8c928d60e11b81523381850152833593916001600160a01b03919086908290602490829086165afa801561130c5787906112d2575b61113491506115bc565b83865260098552828620338752855260ff8387205416156112905783865260088552828620338752855261116e60ff8488205416156115fa565b83865260038552600183872061118a60ff60068301541661150c565b611199611d4c610ccf886118cf565b015462093a80810180911161127d57906111b6879242101561169b565b848252600886528382203383528652838220600160ff198254161790556001541691823b156101f5576064859183865195869485936346b40cdf60e11b8552840152336024840152600260448401525af1801561127357611240575b50516002815233927f89e1649e796bc46c9dcd5fd4505f79bfdd9197c8eccbdbaf05a6bfd1cb9ea09b91a380f35b9361126c7f89e1649e796bc46c9dcd5fd4505f79bfdd9197c8eccbdbaf05a6bfd1cb9ea09b9295611547565b9390611212565b82513d87823e3d90fd5b634e487b7160e01b875260118352602487fd5b5083606492519162461bcd60e51b8352820152601c60248201527f446964206e6f7420706172746963697061746520696e20706f6c6c73000000006044820152fd5b508581813d8311611305575b6112e8818361158d565b81010312611301576112fc611134916115af565b61112a565b8680fd5b503d6112de565b84513d89823e3d90fd5b90503461039c57602036600319011261039c578160209360ff923581526005855220541690519015158152f35b90503461039c57602036600319011261039c57359061136061190b565b818352600560205261137760ff828520541661150c565b81835260036020526006818420019060ff1991828154169055600560205283209081541690557f96fbf803f14da8437e0cbe34df7152f998dbc3b7e2343c52fb4285e90387a9ca8280a280f35b84913461039c57602036600319011261039c573563ffffffff60e01b811680910361039c5760209250637965db0b60e01b8114908115611406575b5015158152f35b6301ffc9a760e01b149050836113ff565b602435906001600160a01b03821682036103d757565b9060206003198301126103d75760043567ffffffffffffffff928382116103d757806023830112156103d75781600401359384116103d757602484830101116103d7576024019190565b60005b83811061148a5750506000910152565b818101518382015260200161147a565b906020916114b381518092818552858086019101611477565b601f01601f1916010190565b6004548110156114f65760046000527f8a35acfbc15ff81a39ae7d344fd709f28e8600b4aa8c65c6b64bfe7fe36bd19b0190600090565b634e487b7160e01b600052603260045260246000fd5b1561151357565b60405162461bcd60e51b815260206004820152600c60248201526b4e6f7420747261636b696e6760a01b6044820152606490fd5b67ffffffffffffffff811161155b57604052565b634e487b7160e01b600052604160045260246000fd5b6040810190811067ffffffffffffffff82111761155b57604052565b90601f8019910116810190811067ffffffffffffffff82111761155b57604052565b519081151582036103d757565b156115c357565b60405162461bcd60e51b815260206004820152600f60248201526e139bdd081dda1a5d195b1a5cdd1959608a1b6044820152606490fd5b1561160157565b60405162461bcd60e51b815260206004820152600f60248201526e105b1c9958591e4818db185a5b5959608a1b6044820152606490fd5b1561163f57565b60405162461bcd60e51b8152602060048201526011602482015270151a1c995cda1bdb19081b9bdd081b595d607a1b6044820152606490fd5b9190820180921161168557565b634e487b7160e01b600052601160045260246000fd5b156116a257565b60405162461bcd60e51b8152602060048201526009602482015268546f6f206561726c7960b81b6044820152606490fd5b6004805460005b81811061170b575050506000906040516020810181811067ffffffffffffffff82111761155b576040526000815290565b611714816114bf565b9054600391821b1c8060005260209182526040806000209160ff600684015416156117bc5760018093015462093a8081018091116117c85742106117bc5761175b816118cf565b90611d4c8210156117755750505050506001905b016116da565b8251948501528382015280835291959490935060608601925067ffffffffffffffff8311868410176117a75750529190565b604190634e487b7160e01b6000525260246000fd5b5050505060019061176f565b601188634e487b7160e01b6000525260246000fd5b81601f820112156103d757805167ffffffffffffffff811161155b5760405192611811601f8301601f19166020018561158d565b818452602082840101116103d75761182f9160208085019101611477565b90565b610140818303126103d757805192602082015167ffffffffffffffff908181116103d757846118629185016117dd565b9360408401519182116103d75761187a9184016117dd565b9160608101519160808201519160a08101519160c08201519160e081015160ff811681036103d7579161182f6101206118b661010085016115af565b93016115af565b60ff60019116019060ff821161168557565b600052600360205260406000206002810154908115611904576003015461271090818102918183041490151715611685570490565b5050600090565b3360009081527fee57cd81e84075558e8fcc182a1f4393f91fc97f963a136e66b7f949a62f319f60205260409020547f97667070c54ef182b0f5858b034beac1b6f3089aa2d3188bb1e8929f4fa9b9299060ff16156119675750565b6044906040519063e2517d3f60e01b82523360048301526024820152fd5b80600052600060205260406000203360005260205260ff60406000205416156119675750565b9060009180835282602052604083209160018060a01b03169182845260205260ff60408420541615600014611a2457808352826020526040832082845260205260408320600160ff198254161790557f2f8788117e7eff1d82e926ec794901d17c78024a50270940304540a733656f0d339380a4600190565b505090565b9060009180835282602052604083209160018060a01b03169182845260205260ff604084205416600014611a245780835282602052604083208284526020526040832060ff1981541690557ff6391f5c32d9c69d2a47ea670b442974b53935d1edc7fd64eb21e047a839171b339380a4600190565b9081600052602090600682526040611abd816000205460075490611678565b4210611c01576109c4821015611b46577f505a29c5397a0038bf34d9f7baf0047c3f5eae6323bf8450c1e34dacf7cc2a17928151611afa81611571565b60148152733ab933b2b73a2fb830b93a34b1b4b830ba34b7b760611b82820152925b8560005260068252428360002055611b3d835194848695865285019061149a565b918301520390a2565b61177082101580611c12575b15611ba4577f505a29c5397a0038bf34d9f7baf0047c3f5eae6323bf8450c1e34dacf7cc2a17928151611b8481611571565b600e81526d36b4b632b9ba37b732afb732b0b960911b8282015292611b1c565b611b5882101580611c07575b15611c01577f505a29c5397a0038bf34d9f7baf0047c3f5eae6323bf8450c1e34dacf7cc2a17928151611be281611571565b600d81526c70686173655f636c6f73696e6760981b8282015292611b1c565b50505050565b50611d4c8210611bb0565b50611d4c8210611b52565b9081600052600360205260016040600020015462093a808101809111611685574210611c5c57611d4c811015611c51575050565b611c5a91611c60565b565b5050565b600154604080516332665ffb60e01b81526004810184905292936001600160a01b039092169260008082602481885afa918215611d7f578192611d59575b5060ff82169460038610611cb6575b50505050505050565b803b156101f55781809160248651809481936340d57a6760e11b83528c60048401525af1801561039257606095937fd786d06dd56df8b68a470fb87593bd3d76a14eeea5cf10760563177bd21496b097959360ff93611d2f93611d4a575b508981526003602052600385822042600182015501556118bd565b8251948552166020840152820152a238808080808080611cad565b611d5390611547565b38611d14565b611d6e9192503d8084833e61043d818361158d565b505096505050505050509038611c9e565b508251903d90823e3d90fdfea2646970667358221220f2a5c6f5911bdfa361cfa0ab527cda92014357a8dc27a8d5075562aabd4ac0cf64736f6c634300081800332f8788117e7eff1d82e926ec794901d17c78024a50270940304540a733656f0d","opcodes":"PUSH1 0x80 CALLVALUE PUSH3 0xB5 JUMPI PUSH1 0x1F PUSH3 0x1FE9 CODESIZE DUP2 SWAP1 SUB SWAP2 DUP3 ADD PUSH1 0x1F NOT AND DUP4 ADD SWAP2 PUSH1 0x1 PUSH1 0x1 PUSH1 0x40 SHL SUB DUP4 GT DUP5 DUP5 LT OR PUSH3 0xBA JUMPI DUP1 DUP5 SWAP3 PUSH1 0x40 SWAP5 DUP6 MSTORE DUP4 CODECOPY DUP2 ADD SUB SLT PUSH3 0xB5 JUMPI PUSH3 0x5A PUSH1 0x20 PUSH3 0x52 DUP4 PUSH3 0xD0 JUMP JUMPDEST SWAP3 ADD PUSH3 0xD0 JUMP JUMPDEST PUSH3 0x15180 PUSH1 0x7 SSTORE PUSH1 0x1 DUP1 SLOAD PUSH1 0x1 PUSH1 0x1 PUSH1 0xA0 SHL SUB SWAP4 DUP5 AND PUSH1 0x1 PUSH1 0x1 PUSH1 0xA0 SHL SUB NOT SWAP2 DUP3 AND OR SWAP1 SWAP2 SSTORE PUSH1 0x2 DUP1 SLOAD SWAP3 SWAP1 SWAP4 AND SWAP2 AND OR SWAP1 SSTORE PUSH3 0x98 CALLER PUSH3 0xE5 JUMP JUMPDEST POP PUSH3 0xA4 CALLER PUSH3 0x165 JUMP JUMPDEST POP PUSH1 0x40 MLOAD PUSH2 0x1DC1 SWAP1 DUP2 PUSH3 0x208 DUP3 CODECOPY RETURN JUMPDEST PUSH1 0x0 DUP1 REVERT JUMPDEST PUSH4 0x4E487B71 PUSH1 0xE0 SHL PUSH1 0x0 MSTORE PUSH1 0x41 PUSH1 0x4 MSTORE PUSH1 0x24 PUSH1 0x0 REVERT JUMPDEST MLOAD SWAP1 PUSH1 0x1 PUSH1 0x1 PUSH1 0xA0 SHL SUB DUP3 AND DUP3 SUB PUSH3 0xB5 JUMPI JUMP JUMPDEST PUSH1 0x1 PUSH1 0x1 PUSH1 0xA0 SHL SUB AND PUSH1 0x0 DUP2 DUP2 MSTORE PUSH32 0xAD3228B676F7D3CD4284A5443F17F1962B36E491B30A40B2405849E597BA5FB5 PUSH1 0x20 MSTORE PUSH1 0x40 DUP2 KECCAK256 SLOAD SWAP1 SWAP2 SWAP1 PUSH1 0xFF AND PUSH3 0x161 JUMPI DUP2 DUP1 MSTORE DUP2 PUSH1 0x20 MSTORE PUSH1 0x40 DUP3 KECCAK256 DUP2 DUP4 MSTORE PUSH1 0x20 MSTORE PUSH1 0x40 DUP3 KECCAK256 PUSH1 0x1 PUSH1 0xFF NOT DUP3 SLOAD AND OR SWAP1 SSTORE CALLER SWAP2 PUSH1 0x0 DUP1 MLOAD PUSH1 0x20 PUSH3 0x1FC9 DUP4 CODECOPY DUP2 MLOAD SWAP2 MSTORE DUP2 DUP1 LOG4 PUSH1 0x1 SWAP1 JUMP JUMPDEST POP SWAP1 JUMP JUMPDEST PUSH1 0x1 PUSH1 0x1 PUSH1 0xA0 SHL SUB AND PUSH1 0x0 DUP2 DUP2 MSTORE PUSH32 0xEE57CD81E84075558E8FCC182A1F4393F91FC97F963A136E66B7F949A62F319F PUSH1 0x20 MSTORE PUSH1 0x40 DUP2 KECCAK256 SLOAD SWAP1 SWAP2 SWAP1 PUSH32 0x97667070C54EF182B0F5858B034BEAC1B6F3089AA2D3188BB1E8929F4FA9B929 SWAP1 PUSH1 0xFF AND PUSH3 0x202 JUMPI DUP1 DUP4 MSTORE DUP3 PUSH1 0x20 MSTORE PUSH1 0x40 DUP4 KECCAK256 DUP3 DUP5 MSTORE PUSH1 0x20 MSTORE PUSH1 0x40 DUP4 KECCAK256 PUSH1 0x1 PUSH1 0xFF NOT DUP3 SLOAD AND OR SWAP1 SSTORE PUSH1 0x0 DUP1 MLOAD PUSH1 0x20 PUSH3 0x1FC9 DUP4 CODECOPY DUP2 MLOAD SWAP2 MSTORE CALLER SWAP4 DUP1 LOG4 PUSH1 0x1 SWAP1 JUMP JUMPDEST POP POP SWAP1 JUMP INVALID PUSH1 0x80 PUSH1 0x40 DUP2 DUP2 MSTORE PUSH1 0x4 SWAP2 DUP3 CALLDATASIZE LT ISZERO PUSH2 0x16 JUMPI PUSH1 0x0 DUP1 REVERT JUMPDEST PUSH1 0x0 SWAP3 DUP4 CALLDATALOAD PUSH1 0xE0 SHR SWAP2 DUP3 PUSH4 0x1FFC9A7 EQ PUSH2 0x13C4 JUMPI POP DUP2 PUSH4 0x6785D8A EQ PUSH2 0x1343 JUMPI DUP2 PUSH4 0x1194F9E9 EQ PUSH2 0x1316 JUMPI DUP2 PUSH4 0x14585AEB EQ PUSH2 0x10D9 JUMPI DUP2 PUSH4 0x248A9CA3 EQ PUSH2 0x10AF JUMPI DUP2 PUSH4 0x2E94DFDA EQ PUSH2 0x104F JUMPI DUP2 PUSH4 0x2F2FF15D EQ PUSH2 0x1025 JUMPI DUP2 PUSH4 0x30AE7805 EQ PUSH2 0x1008 JUMPI DUP2 PUSH4 0x313B79DA EQ PUSH2 0xF57 JUMPI DUP2 PUSH4 0x36568ABE EQ PUSH2 0xF11 JUMPI DUP2 PUSH4 0x3A21CCC1 EQ PUSH2 0xDE9 JUMPI DUP2 PUSH4 0x40AB3171 EQ PUSH2 0xC2B JUMPI DUP2 PUSH4 0x43AE2695 EQ PUSH2 0xC02 JUMPI DUP2 PUSH4 0x4585E33B EQ PUSH2 0xB75 JUMPI DUP2 PUSH4 0x5513DE41 EQ PUSH2 0xB57 JUMPI DUP2 PUSH4 0x587BD4A7 EQ PUSH2 0x4BF JUMPI DUP2 PUSH4 0x5AA6E675 EQ PUSH2 0xB2E JUMPI DUP2 PUSH4 0x5DA6559E EQ PUSH2 0xB06 JUMPI DUP2 PUSH4 0x63E86EB8 EQ PUSH2 0xA9A JUMPI DUP2 PUSH4 0x6675584F EQ PUSH2 0xA7B JUMPI DUP2 PUSH4 0x6E04FF0D EQ PUSH2 0xA3F JUMPI DUP2 PUSH4 0x73DE7B4B EQ PUSH2 0xA17 JUMPI DUP2 PUSH4 0x785B2190 EQ PUSH2 0x886 JUMPI DUP2 PUSH4 0x8085B813 EQ PUSH2 0x84E JUMPI DUP2 PUSH4 0x816AAD3C EQ PUSH2 0x737 JUMPI DUP2 PUSH4 0x873F6F9E EQ PUSH2 0x6F1 JUMPI DUP2 PUSH4 0x8E5359E0 EQ PUSH2 0x640 JUMPI DUP2 PUSH4 0x91D14854 EQ PUSH2 0x5FB JUMPI DUP2 PUSH4 0x94C9825D EQ PUSH2 0x53C JUMPI DUP2 PUSH4 0xA217FDDF EQ PUSH2 0x521 JUMPI DUP2 PUSH4 0xA27F71B2 EQ PUSH2 0x505 JUMPI DUP2 PUSH4 0xA9DC8726 EQ PUSH2 0x4BF JUMPI DUP2 PUSH4 0xB415D279 EQ PUSH2 0x4A3 JUMPI DUP2 PUSH4 0xD547741F EQ PUSH2 0x464 JUMPI DUP2 PUSH4 0xD5612486 EQ PUSH2 0x223 JUMPI DUP2 PUSH4 0xF333D6C2 EQ PUSH2 0x1F9 JUMPI POP PUSH4 0xF5B541A6 EQ PUSH2 0x1BC JUMPI PUSH1 0x0 DUP1 REVERT JUMPDEST CALLVALUE PUSH2 0x1F5 JUMPI DUP2 PUSH1 0x3 NOT CALLDATASIZE ADD SLT PUSH2 0x1F5 JUMPI PUSH1 0x20 SWAP1 MLOAD PUSH32 0x97667070C54EF182B0F5858B034BEAC1B6F3089AA2D3188BB1E8929F4FA9B929 DUP2 MSTORE RETURN JUMPDEST POP DUP1 REVERT JUMPDEST DUP3 DUP5 CALLVALUE PUSH2 0x220 JUMPI PUSH1 0x20 CALLDATASIZE PUSH1 0x3 NOT ADD SLT PUSH2 0x220 JUMPI POP PUSH2 0x219 PUSH1 0x20 SWAP3 CALLDATALOAD PUSH2 0x18CF JUMP JUMPDEST SWAP1 MLOAD SWAP1 DUP2 MSTORE RETURN JUMPDEST DUP1 REVERT JUMPDEST SWAP2 SWAP1 POP CALLVALUE PUSH2 0x39C JUMPI PUSH1 0x20 SWAP1 DUP2 PUSH1 0x3 NOT CALLDATASIZE ADD SLT PUSH2 0x460 JUMPI DUP3 CALLDATALOAD SWAP3 DUP5 PUSH1 0x1 DUP1 PUSH1 0xA0 SHL SUB PUSH1 0x1 SLOAD AND DUP4 MLOAD SWAP3 PUSH4 0x32665FFB PUSH1 0xE0 SHL DUP5 MSTORE DUP7 DUP2 DUP6 ADD MSTORE DUP3 DUP5 PUSH1 0x24 DUP2 DUP6 GAS STATICCALL SWAP4 DUP5 ISZERO PUSH2 0x456 JUMPI DUP4 SWAP5 PUSH2 0x428 JUMPI JUMPDEST POP DUP5 MLOAD PUSH4 0x6EA99677 PUSH1 0xE0 SHL DUP2 MSTORE DUP2 DUP2 ADD DUP9 DUP2 MSTORE PUSH1 0xFF DUP7 AND PUSH1 0x20 DUP3 ADD MSTORE DUP8 SWAP1 DUP3 SWAP1 DUP2 SWAP1 PUSH1 0x40 ADD SUB DUP2 DUP7 GAS STATICCALL SWAP1 DUP2 ISZERO PUSH2 0x41E JUMPI DUP5 SWAP2 PUSH2 0x3ED JUMPI JUMPDEST POP DUP6 MLOAD PUSH4 0x4FA6173 PUSH1 0xE0 SHL DUP2 MSTORE DUP3 DUP2 ADD DUP10 DUP2 MSTORE PUSH1 0xFF DUP8 AND PUSH1 0x20 DUP3 ADD MSTORE DUP9 SWAP1 DUP3 SWAP1 DUP2 SWAP1 PUSH1 0x40 ADD SUB DUP2 DUP8 GAS STATICCALL SWAP1 DUP2 ISZERO PUSH2 0x3E3 JUMPI DUP6 SWAP2 PUSH2 0x3AD JUMPI JUMPDEST POP LT ISZERO DUP1 PUSH2 0x3A0 JUMPI JUMPDEST PUSH2 0x2F1 JUMPI DUP3 DUP1 RETURN JUMPDEST DUP2 EXTCODESIZE ISZERO PUSH2 0x39C JUMPI DUP7 PUSH1 0x24 DUP5 SWAP3 DUP4 DUP9 MLOAD SWAP6 DUP7 SWAP5 DUP6 SWAP4 PUSH4 0x40D57A67 PUSH1 0xE1 SHL DUP6 MSTORE DUP5 ADD MSTORE GAS CALL DUP1 ISZERO PUSH2 0x392 JUMPI PUSH2 0x37A JUMPI JUMPDEST POP SWAP3 DUP5 PUSH32 0x7214C5E85040CB3E35452FA6FF842070826B1D0BD195171E1C75E6D07BC1B96C SWAP5 MSTORE PUSH1 0x3 DUP2 MSTORE DUP6 PUSH1 0x3 DUP5 DUP3 KECCAK256 TIMESTAMP PUSH1 0x1 DUP3 ADD SSTORE ADD SSTORE PUSH1 0xFF PUSH2 0x362 DUP4 PUSH2 0x18BD JUMP JUMPDEST DUP2 DUP6 MLOAD SWAP5 AND DUP5 MSTORE AND SWAP1 DUP3 ADD MSTORE LOG2 CODESIZE DUP1 DUP1 DUP1 DUP5 DUP2 DUP1 DUP3 DUP1 RETURN JUMPDEST PUSH2 0x383 SWAP1 PUSH2 0x1547 JUMP JUMPDEST PUSH2 0x38E JUMPI DUP5 CODESIZE PUSH2 0x31F JUMP JUMPDEST DUP5 DUP1 REVERT JUMPDEST DUP5 MLOAD RETURNDATASIZE DUP5 DUP3 RETURNDATACOPY RETURNDATASIZE SWAP1 REVERT JUMPDEST DUP3 DUP1 REVERT JUMPDEST POP PUSH1 0x3 PUSH1 0xFF DUP6 AND LT PUSH2 0x2E9 JUMP JUMPDEST DUP1 SWAP6 POP DUP9 DUP1 SWAP3 POP RETURNDATASIZE DUP4 GT PUSH2 0x3DC JUMPI JUMPDEST PUSH2 0x3C6 DUP2 DUP4 PUSH2 0x158D JUMP JUMPDEST DUP2 ADD SUB SLT PUSH2 0x3D7 JUMPI DUP9 SWAP4 MLOAD CODESIZE PUSH2 0x2E0 JUMP JUMPDEST PUSH1 0x0 DUP1 REVERT JUMPDEST POP RETURNDATASIZE PUSH2 0x3BC JUMP JUMPDEST DUP8 MLOAD RETURNDATASIZE DUP8 DUP3 RETURNDATACOPY RETURNDATASIZE SWAP1 REVERT JUMPDEST DUP1 SWAP5 POP DUP8 DUP1 SWAP3 POP RETURNDATASIZE DUP4 GT PUSH2 0x417 JUMPI JUMPDEST PUSH2 0x406 DUP2 DUP4 PUSH2 0x158D JUMP JUMPDEST DUP2 ADD SUB SLT PUSH2 0x3D7 JUMPI DUP8 SWAP3 MLOAD CODESIZE PUSH2 0x2A8 JUMP JUMPDEST POP RETURNDATASIZE PUSH2 0x3FC JUMP JUMPDEST DUP7 MLOAD RETURNDATASIZE DUP7 DUP3 RETURNDATACOPY RETURNDATASIZE SWAP1 REVERT JUMPDEST PUSH2 0x445 SWAP2 SWAP5 POP RETURNDATASIZE DUP1 DUP6 DUP4 RETURNDATACOPY PUSH2 0x43D DUP2 DUP4 PUSH2 0x158D JUMP JUMPDEST DUP2 ADD SWAP1 PUSH2 0x1832 JUMP JUMPDEST POP POP SWAP7 POP POP POP POP POP POP POP SWAP3 CODESIZE PUSH2 0x270 JUMP JUMPDEST DUP6 MLOAD RETURNDATASIZE DUP6 DUP3 RETURNDATACOPY RETURNDATASIZE SWAP1 REVERT JUMPDEST DUP4 DUP1 REVERT JUMPDEST SWAP2 SWAP1 POP CALLVALUE PUSH2 0x39C JUMPI DUP1 PUSH1 0x3 NOT CALLDATASIZE ADD SLT PUSH2 0x39C JUMPI PUSH2 0x49F SWAP2 CALLDATALOAD PUSH2 0x49A PUSH1 0x1 PUSH2 0x489 PUSH2 0x1417 JUMP JUMPDEST SWAP4 DUP4 DUP8 MSTORE DUP7 PUSH1 0x20 MSTORE DUP7 KECCAK256 ADD SLOAD PUSH2 0x1985 JUMP JUMPDEST PUSH2 0x1A29 JUMP JUMPDEST POP DUP1 RETURN JUMPDEST POP POP CALLVALUE PUSH2 0x1F5 JUMPI DUP2 PUSH1 0x3 NOT CALLDATASIZE ADD SLT PUSH2 0x1F5 JUMPI PUSH1 0x20 SWAP1 MLOAD PUSH1 0x1 DUP2 MSTORE RETURN JUMPDEST SWAP1 POP CALLVALUE PUSH2 0x39C JUMPI DUP2 PUSH1 0x3 NOT CALLDATASIZE ADD SLT PUSH2 0x39C JUMPI DUP2 PUSH1 0x20 SWAP4 PUSH2 0x4DD PUSH2 0x1417 JUMP JUMPDEST SWAP3 CALLDATALOAD DUP2 MSTORE PUSH1 0x9 DUP6 MSTORE KECCAK256 SWAP1 PUSH1 0x1 DUP1 PUSH1 0xA0 SHL SUB AND PUSH1 0x0 MSTORE DUP3 MSTORE PUSH1 0xFF DUP2 PUSH1 0x0 KECCAK256 SLOAD AND SWAP1 MLOAD SWAP1 ISZERO ISZERO DUP2 MSTORE RETURN JUMPDEST POP POP CALLVALUE PUSH2 0x1F5 JUMPI DUP2 PUSH1 0x3 NOT CALLDATASIZE ADD SLT PUSH2 0x1F5 JUMPI PUSH1 0x20 SWAP1 MLOAD PUSH1 0x32 DUP2 MSTORE RETURN JUMPDEST POP POP CALLVALUE PUSH2 0x1F5 JUMPI DUP2 PUSH1 0x3 NOT CALLDATASIZE ADD SLT PUSH2 0x1F5 JUMPI MLOAD SWAP1 DUP2 MSTORE PUSH1 0x20 SWAP1 RETURN JUMPDEST SWAP1 POP CALLVALUE PUSH2 0x39C JUMPI PUSH1 0x80 CALLDATASIZE PUSH1 0x3 NOT ADD SLT PUSH2 0x39C JUMPI PUSH2 0x5F8 SWAP2 DUP2 PUSH32 0x63BD409A0CA0450137D1B574E1E74A5A18CC8934D8F718C1603619B971CE6737 PUSH1 0x2 SWAP4 CALLDATALOAD SWAP3 DUP4 SWAP3 PUSH2 0x5E6 PUSH1 0x24 CALLDATALOAD SWAP2 PUSH2 0x58B PUSH2 0x190B JUMP JUMPDEST DUP6 DUP11 MSTORE PUSH1 0x3 PUSH1 0x20 MSTORE DUP4 DUP11 KECCAK256 SWAP1 PUSH2 0x5A7 PUSH1 0xFF PUSH1 0x6 DUP5 ADD SLOAD AND PUSH2 0x150C JUMP JUMPDEST DUP4 PUSH1 0x3 DUP4 ADD SSTORE PUSH1 0x44 CALLDATALOAD SWAP1 DUP3 ADD SSTORE PUSH1 0x64 CALLDATALOAD PUSH1 0x5 DUP3 ADD SSTORE PUSH2 0x5C5 DUP7 PUSH2 0x18CF JUMP JUMPDEST SWAP8 DUP9 SWAP2 ADD SLOAD SWAP4 MLOAD SWAP4 DUP5 SWAP4 DUP5 PUSH1 0x40 SWAP2 SWAP5 SWAP4 SWAP3 PUSH1 0x60 DUP3 ADD SWAP6 DUP3 MSTORE PUSH1 0x20 DUP3 ADD MSTORE ADD MSTORE JUMP JUMPDEST SUB SWAP1 LOG2 PUSH2 0x5F3 DUP3 DUP3 PUSH2 0x1A9E JUMP JUMPDEST PUSH2 0x1C1D JUMP JUMPDEST DUP1 RETURN JUMPDEST SWAP1 POP CALLVALUE PUSH2 0x39C JUMPI DUP2 PUSH1 0x3 NOT CALLDATASIZE ADD SLT PUSH2 0x39C JUMPI DUP2 PUSH1 0x20 SWAP4 PUSH2 0x619 PUSH2 0x1417 JUMP JUMPDEST SWAP3 CALLDATALOAD DUP2 MSTORE DUP1 DUP6 MSTORE KECCAK256 SWAP1 PUSH1 0x1 DUP1 PUSH1 0xA0 SHL SUB AND PUSH1 0x0 MSTORE DUP3 MSTORE PUSH1 0xFF DUP2 PUSH1 0x0 KECCAK256 SLOAD AND SWAP1 MLOAD SWAP1 ISZERO ISZERO DUP2 MSTORE RETURN JUMPDEST SWAP1 POP CALLVALUE PUSH2 0x39C JUMPI PUSH1 0x20 CALLDATASIZE PUSH1 0x3 NOT ADD SLT PUSH2 0x39C JUMPI DUP1 CALLDATALOAD SWAP2 PUSH1 0x0 DUP1 MSTORE PUSH1 0x0 PUSH1 0x20 MSTORE DUP1 PUSH1 0x0 KECCAK256 CALLER PUSH1 0x0 MSTORE PUSH1 0x20 MSTORE PUSH1 0xFF DUP2 PUSH1 0x0 KECCAK256 SLOAD AND ISZERO PUSH2 0x6D3 JUMPI PUSH2 0xE10 DUP4 LT ISZERO DUP1 PUSH2 0x6C6 JUMPI JUMPDEST ISZERO PUSH2 0x690 JUMPI POP POP PUSH1 0x7 SSTORE DUP1 RETURN JUMPDEST SWAP1 PUSH1 0x20 PUSH1 0x64 SWAP3 MLOAD SWAP2 PUSH3 0x461BCD PUSH1 0xE5 SHL DUP4 MSTORE DUP3 ADD MSTORE PUSH1 0x10 PUSH1 0x24 DUP3 ADD MSTORE PUSH16 0x24B73B30B634B21031B7B7B63237BBB7 PUSH1 0x81 SHL PUSH1 0x44 DUP3 ADD MSTORE REVERT JUMPDEST POP PUSH3 0x93A80 DUP4 GT ISZERO PUSH2 0x683 JUMP JUMPDEST PUSH1 0x44 SWAP3 POP MLOAD SWAP1 PUSH4 0xE2517D3F PUSH1 0xE0 SHL DUP3 MSTORE CALLER SWAP1 DUP3 ADD MSTORE PUSH1 0x0 PUSH1 0x24 DUP3 ADD MSTORE REVERT JUMPDEST SWAP1 POP CALLVALUE PUSH2 0x39C JUMPI DUP2 PUSH1 0x3 NOT CALLDATASIZE ADD SLT PUSH2 0x39C JUMPI DUP2 PUSH1 0x20 SWAP4 PUSH2 0x70F PUSH2 0x1417 JUMP JUMPDEST SWAP3 CALLDATALOAD DUP2 MSTORE PUSH1 0x8 DUP6 MSTORE KECCAK256 SWAP1 PUSH1 0x1 DUP1 PUSH1 0xA0 SHL SUB AND PUSH1 0x0 MSTORE DUP3 MSTORE PUSH1 0xFF DUP2 PUSH1 0x0 KECCAK256 SLOAD AND SWAP1 MLOAD SWAP1 ISZERO ISZERO DUP2 MSTORE RETURN JUMPDEST SWAP2 SWAP1 POP CALLVALUE PUSH2 0x39C JUMPI DUP1 PUSH1 0x3 NOT CALLDATASIZE ADD SLT PUSH2 0x39C JUMPI DUP2 CALLDATALOAD SWAP1 PUSH2 0x755 PUSH2 0x1417 JUMP JUMPDEST SWAP3 PUSH2 0x75E PUSH2 0x190B JUMP JUMPDEST DUP3 DUP6 MSTORE PUSH1 0x20 SWAP1 PUSH1 0x5 DUP3 MSTORE PUSH1 0xFF DUP4 DUP8 KECCAK256 SLOAD AND ISZERO PUSH2 0x816 JUMPI DUP4 DUP7 MSTORE PUSH1 0x9 DUP3 MSTORE DUP3 DUP7 KECCAK256 PUSH1 0x1 PUSH1 0x1 PUSH1 0xA0 SHL SUB SWAP1 SWAP6 AND PUSH1 0x0 DUP2 DUP2 MSTORE SWAP6 DUP4 MSTORE SWAP5 DUP4 SWAP1 KECCAK256 SLOAD PUSH1 0xFF AND PUSH2 0x7E2 JUMPI POP DUP3 DUP6 MSTORE PUSH1 0x9 DUP2 MSTORE DUP2 DUP6 KECCAK256 PUSH1 0x0 DUP6 DUP2 MSTORE SWAP2 MSTORE KECCAK256 DUP1 SLOAD PUSH1 0xFF NOT AND PUSH1 0x1 OR SWAP1 SSTORE PUSH32 0x9C81720C57D474644D653192DB4AEE34EFF3E6B5C6B80E4C283AB58871C9382E DUP4 DUP1 LOG3 DUP1 RETURN JUMPDEST SWAP2 MLOAD PUSH3 0x461BCD PUSH1 0xE5 SHL DUP2 MSTORE SWAP2 DUP3 ADD MSTORE PUSH1 0x10 PUSH1 0x24 DUP3 ADD MSTORE PUSH16 0x105B1C9958591E481C9958DBDC991959 PUSH1 0x82 SHL PUSH1 0x44 DUP3 ADD MSTORE PUSH1 0x64 SWAP1 REVERT JUMPDEST SWAP2 MLOAD PUSH3 0x461BCD PUSH1 0xE5 SHL DUP2 MSTORE SWAP2 DUP3 ADD MSTORE PUSH1 0x14 PUSH1 0x24 DUP3 ADD MSTORE PUSH20 0x141C9BDC195C9D1E481B9BDD081D1C9858DAD959 PUSH1 0x62 SHL PUSH1 0x44 DUP3 ADD MSTORE PUSH1 0x64 SWAP1 REVERT JUMPDEST DUP3 DUP5 CALLVALUE PUSH2 0x220 JUMPI PUSH1 0x20 CALLDATASIZE PUSH1 0x3 NOT ADD SLT PUSH2 0x220 JUMPI DUP3 CALLDATALOAD SWAP3 SLOAD DUP4 LT ISZERO PUSH2 0x220 JUMPI POP PUSH2 0x878 PUSH1 0x20 SWAP3 PUSH2 0x14BF JUMP JUMPDEST SWAP2 SWAP1 SLOAD SWAP1 MLOAD SWAP2 PUSH1 0x3 SHL SHR DUP2 MSTORE RETURN JUMPDEST DUP4 DUP4 CALLVALUE PUSH2 0x1F5 JUMPI DUP1 PUSH1 0x3 NOT CALLDATASIZE ADD SLT PUSH2 0x3D7 JUMPI DUP3 CALLDATALOAD SWAP1 PUSH2 0x8A3 PUSH2 0x190B JUMP JUMPDEST DUP2 DUP4 MSTORE PUSH1 0x5 PUSH1 0x20 MSTORE PUSH1 0xFF DUP2 DUP5 KECCAK256 SLOAD AND PUSH2 0x9E2 JUMPI DUP1 MLOAD SWAP1 PUSH1 0xE0 DUP3 ADD DUP3 DUP2 LT PUSH8 0xFFFFFFFFFFFFFFFF DUP3 GT OR PUSH2 0x9CD JUMPI DUP2 MSTORE DUP3 DUP3 MSTORE PUSH1 0x6 PUSH1 0x20 DUP4 ADD SWAP3 TIMESTAMP DUP5 MSTORE DUP3 DUP2 ADD PUSH1 0x24 CALLDATALOAD DUP2 MSTORE PUSH1 0x60 DUP3 ADD DUP8 DUP2 MSTORE PUSH1 0x80 DUP4 ADD SWAP1 DUP9 DUP3 MSTORE PUSH1 0xA0 DUP5 ADD SWAP3 DUP10 DUP5 MSTORE PUSH1 0xC0 DUP6 ADD SWAP8 PUSH1 0x1 DUP10 MSTORE DUP10 DUP12 MSTORE PUSH1 0x3 PUSH1 0x20 MSTORE DUP8 DUP12 KECCAK256 SWAP6 MLOAD DUP7 SSTORE MLOAD PUSH1 0x1 DUP7 ADD SSTORE MLOAD PUSH1 0x2 DUP6 ADD SSTORE MLOAD PUSH1 0x3 DUP5 ADD SSTORE MLOAD DUP9 DUP4 ADD SSTORE MLOAD PUSH1 0x5 DUP3 ADD SSTORE ADD SWAP2 MLOAD ISZERO ISZERO SWAP2 PUSH1 0xFF NOT SWAP3 PUSH1 0xFF DUP5 DUP4 SLOAD AND SWAP2 AND OR SWAP1 SSTORE DUP5 SLOAD PUSH9 0x10000000000000000 DUP2 LT ISZERO PUSH2 0x9BA JUMPI SWAP1 PUSH2 0x96D DUP3 DUP8 PUSH1 0x1 DUP1 SWAP6 ADD SWAP1 SSTORE PUSH2 0x14BF JUMP JUMPDEST DUP2 SLOAD SWAP1 PUSH1 0x3 SHL SWAP1 DUP7 DUP3 SHL SWAP2 PUSH1 0x0 NOT SWAP1 SHL NOT AND OR SWAP1 SSTORE DUP4 DUP6 MSTORE PUSH1 0x5 PUSH1 0x20 MSTORE DUP5 KECCAK256 SWAP2 DUP3 SLOAD AND OR SWAP1 SSTORE PUSH32 0x3621586063592251ACF2253A10FE8119554DBB0BF93D6E875B85A3A66A2166B9 DUP3 DUP1 LOG2 DUP1 RETURN JUMPDEST PUSH4 0x4E487B71 PUSH1 0xE0 SHL DUP6 MSTORE PUSH1 0x41 DUP7 MSTORE PUSH1 0x24 DUP6 REVERT JUMPDEST PUSH1 0x41 DUP7 PUSH4 0x4E487B71 PUSH1 0xE0 SHL PUSH1 0x0 MSTORE MSTORE PUSH1 0x24 PUSH1 0x0 REVERT JUMPDEST MLOAD PUSH3 0x461BCD PUSH1 0xE5 SHL DUP2 MSTORE PUSH1 0x20 DUP2 DUP6 ADD MSTORE PUSH1 0x10 PUSH1 0x24 DUP3 ADD MSTORE PUSH16 0x416C726561647920747261636B696E67 PUSH1 0x80 SHL PUSH1 0x44 DUP3 ADD MSTORE PUSH1 0x64 SWAP1 REVERT JUMPDEST SWAP1 POP CALLVALUE PUSH2 0x39C JUMPI PUSH1 0x20 CALLDATASIZE PUSH1 0x3 NOT ADD SLT PUSH2 0x39C JUMPI PUSH1 0x20 SWAP3 DUP3 SWAP2 CALLDATALOAD DUP2 MSTORE PUSH1 0xA DUP5 MSTORE KECCAK256 SLOAD SWAP1 MLOAD SWAP1 DUP2 MSTORE RETURN JUMPDEST DUP3 DUP5 CALLVALUE PUSH2 0x220 JUMPI POP PUSH2 0xA50 CALLDATASIZE PUSH2 0x142D JUMP JUMPDEST POP POP PUSH2 0xA77 PUSH2 0xA5D PUSH2 0x16D3 JUMP JUMPDEST DUP4 SWAP3 SWAP2 SWAP3 MLOAD SWAP4 DUP5 SWAP4 ISZERO ISZERO DUP5 MSTORE DUP1 PUSH1 0x20 DUP6 ADD MSTORE DUP4 ADD SWAP1 PUSH2 0x149A JUMP JUMPDEST SUB SWAP1 RETURN JUMPDEST POP POP CALLVALUE PUSH2 0x1F5 JUMPI DUP2 PUSH1 0x3 NOT CALLDATASIZE ADD SLT PUSH2 0x1F5 JUMPI PUSH1 0x20 SWAP1 PUSH1 0x7 SLOAD SWAP1 MLOAD SWAP1 DUP2 MSTORE RETURN JUMPDEST SWAP1 POP CALLVALUE PUSH2 0x39C JUMPI PUSH1 0x20 CALLDATASIZE PUSH1 0x3 NOT ADD SLT PUSH2 0x39C JUMPI DUP2 PUSH1 0xE0 SWAP4 DUP3 CALLDATALOAD DUP2 MSTORE PUSH1 0x3 PUSH1 0x20 MSTORE KECCAK256 DUP1 SLOAD SWAP3 PUSH1 0x1 DUP3 ADD SLOAD SWAP3 PUSH1 0x2 DUP4 ADD SLOAD PUSH1 0x3 DUP5 ADD SLOAD SWAP2 DUP5 ADD SLOAD SWAP3 PUSH1 0xFF PUSH1 0x6 PUSH1 0x5 DUP8 ADD SLOAD SWAP7 ADD SLOAD AND SWAP6 DUP2 MLOAD SWAP8 DUP9 MSTORE PUSH1 0x20 DUP9 ADD MSTORE DUP7 ADD MSTORE PUSH1 0x60 DUP6 ADD MSTORE PUSH1 0x80 DUP5 ADD MSTORE PUSH1 0xA0 DUP4 ADD MSTORE ISZERO ISZERO PUSH1 0xC0 DUP3 ADD MSTORE RETURN JUMPDEST SWAP1 POP CALLVALUE PUSH2 0x39C JUMPI PUSH1 0x20 CALLDATASIZE PUSH1 0x3 NOT ADD SLT PUSH2 0x39C JUMPI PUSH1 0x20 SWAP3 DUP3 SWAP2 CALLDATALOAD DUP2 MSTORE PUSH1 0x6 DUP5 MSTORE KECCAK256 SLOAD SWAP1 MLOAD SWAP1 DUP2 MSTORE RETURN JUMPDEST POP POP CALLVALUE PUSH2 0x1F5 JUMPI DUP2 PUSH1 0x3 NOT CALLDATASIZE ADD SLT PUSH2 0x1F5 JUMPI PUSH1 0x2 SLOAD SWAP1 MLOAD PUSH1 0x1 PUSH1 0x1 PUSH1 0xA0 SHL SUB SWAP1 SWAP2 AND DUP2 MSTORE PUSH1 0x20 SWAP1 RETURN JUMPDEST POP POP CALLVALUE PUSH2 0x1F5 JUMPI DUP2 PUSH1 0x3 NOT CALLDATASIZE ADD SLT PUSH2 0x1F5 JUMPI PUSH1 0x20 SWAP1 MLOAD PUSH3 0x93A80 DUP2 MSTORE RETURN JUMPDEST DUP4 DUP4 CALLVALUE PUSH2 0x1F5 JUMPI DUP1 PUSH2 0xB86 CALLDATASIZE PUSH2 0x142D JUMP JUMPDEST SWAP1 DUP1 SWAP3 SWAP2 DUP2 ADD SUB SLT PUSH2 0x3D7 JUMPI PUSH1 0x1 SWAP1 CALLDATALOAD SWAP2 DUP3 DUP5 MSTORE PUSH1 0x3 PUSH1 0x20 MSTORE DUP4 KECCAK256 PUSH2 0xBB1 PUSH1 0xFF PUSH1 0x6 DUP4 ADD SLOAD AND PUSH2 0x150C JUMP JUMPDEST ADD SLOAD SWAP3 PUSH3 0x93A80 DUP5 ADD DUP1 SWAP5 GT PUSH2 0xBEF JUMPI POP PUSH2 0xBD2 PUSH2 0x5F8 SWAP3 SWAP4 TIMESTAMP LT ISZERO PUSH2 0x169B JUMP JUMPDEST PUSH2 0xBDB DUP2 PUSH2 0x18CF JUMP JUMPDEST SWAP1 PUSH2 0xBEA PUSH2 0x1D4C DUP4 LT ISZERO PUSH2 0x1638 JUMP JUMPDEST PUSH2 0x1C60 JUMP JUMPDEST PUSH4 0x4E487B71 PUSH1 0xE0 SHL DUP4 MSTORE PUSH1 0x11 SWAP1 MSTORE PUSH1 0x24 DUP3 REVERT JUMPDEST POP POP CALLVALUE PUSH2 0x1F5 JUMPI DUP2 PUSH1 0x3 NOT CALLDATASIZE ADD SLT PUSH2 0x1F5 JUMPI PUSH1 0x1 SLOAD SWAP1 MLOAD PUSH1 0x1 PUSH1 0x1 PUSH1 0xA0 SHL SUB SWAP1 SWAP2 AND DUP2 MSTORE PUSH1 0x20 SWAP1 RETURN JUMPDEST SWAP2 SWAP1 POP CALLVALUE PUSH2 0x39C JUMPI PUSH1 0x20 SWAP1 DUP2 PUSH1 0x3 NOT CALLDATASIZE ADD SLT PUSH2 0x460 JUMPI DUP3 CALLDATALOAD SWAP2 PUSH1 0x1 DUP1 PUSH1 0xA0 SHL SUB SWAP4 PUSH1 0x1 SWAP5 PUSH1 0x24 DUP4 DUP3 DUP9 SLOAD AND DUP7 MLOAD SWAP3 DUP4 DUP1 SWAP3 PUSH4 0x4D8C928D PUSH1 0xE1 SHL DUP3 MSTORE CALLER DUP9 DUP4 ADD MSTORE GAS STATICCALL DUP1 ISZERO PUSH2 0xDDF JUMPI DUP9 SWAP1 PUSH2 0xDA5 JUMPI JUMPDEST PUSH2 0xC84 SWAP2 POP PUSH2 0x15BC JUMP JUMPDEST DUP5 DUP8 MSTORE PUSH1 0x8 DUP4 MSTORE DUP4 DUP8 KECCAK256 CALLER PUSH1 0x0 MSTORE DUP4 MSTORE PUSH2 0xCA5 PUSH1 0xFF DUP6 PUSH1 0x0 KECCAK256 SLOAD AND ISZERO PUSH2 0x15FA JUMP JUMPDEST DUP5 DUP8 MSTORE PUSH1 0x3 DUP4 MSTORE DUP6 DUP5 DUP9 KECCAK256 PUSH2 0xCC0 PUSH1 0xFF PUSH1 0x6 DUP4 ADD SLOAD AND PUSH2 0x150C JUMP JUMPDEST PUSH2 0xCD6 PUSH2 0x1D4C PUSH2 0xCCF DUP10 PUSH2 0x18CF JUMP JUMPDEST LT ISZERO PUSH2 0x1638 JUMP JUMPDEST ADD SLOAD PUSH3 0x93A80 DUP2 ADD DUP1 SWAP2 GT PUSH2 0xD92 JUMPI SWAP1 PUSH2 0xCF4 DUP9 SWAP4 SWAP3 TIMESTAMP LT ISZERO PUSH2 0x169B JUMP JUMPDEST DUP6 DUP4 MSTORE PUSH1 0x8 DUP5 MSTORE DUP5 DUP4 KECCAK256 CALLER PUSH1 0x0 MSTORE DUP5 MSTORE DUP5 PUSH1 0x0 KECCAK256 DUP8 PUSH1 0xFF NOT DUP3 SLOAD AND OR SWAP1 SSTORE DUP7 SLOAD AND SWAP1 DUP2 EXTCODESIZE ISZERO PUSH2 0x39C JUMPI DUP6 PUSH1 0x64 DUP5 SWAP3 DUP4 DUP9 MLOAD SWAP6 DUP7 SWAP5 DUP6 SWAP4 PUSH4 0x46B40CDF PUSH1 0xE1 SHL DUP6 MSTORE DUP5 ADD MSTORE CALLER PUSH1 0x24 DUP5 ADD MSTORE DUP12 PUSH1 0x44 DUP5 ADD MSTORE GAS CALL DUP1 ISZERO PUSH2 0x392 JUMPI PUSH2 0xD7E JUMPI JUMPDEST POP POP PUSH32 0x89E1649E796BC46C9DCD5FD4505F79BFDD9197C8ECCBDBAF05A6BFD1CB9EA09B SWAP2 MLOAD SWAP4 DUP5 MSTORE CALLER SWAP4 LOG3 DUP1 RETURN JUMPDEST PUSH2 0xD87 SWAP1 PUSH2 0x1547 JUMP JUMPDEST PUSH2 0x38E JUMPI DUP5 CODESIZE PUSH2 0xD50 JUMP JUMPDEST PUSH4 0x4E487B71 PUSH1 0xE0 SHL DUP9 MSTORE PUSH1 0x11 DUP4 MSTORE PUSH1 0x24 DUP9 REVERT JUMPDEST POP DUP4 DUP2 DUP2 RETURNDATASIZE DUP4 GT PUSH2 0xDD8 JUMPI JUMPDEST PUSH2 0xDBB DUP2 DUP4 PUSH2 0x158D JUMP JUMPDEST DUP2 ADD SUB SLT PUSH2 0xDD4 JUMPI PUSH2 0xDCF PUSH2 0xC84 SWAP2 PUSH2 0x15AF JUMP JUMPDEST PUSH2 0xC7A JUMP JUMPDEST DUP8 DUP1 REVERT JUMPDEST POP RETURNDATASIZE PUSH2 0xDB1 JUMP JUMPDEST DUP6 MLOAD RETURNDATASIZE DUP11 DUP3 RETURNDATACOPY RETURNDATASIZE SWAP1 REVERT JUMPDEST DUP4 DUP4 CALLVALUE PUSH2 0x1F5 JUMPI PUSH1 0xA0 CALLDATASIZE PUSH1 0x3 NOT ADD SLT PUSH2 0x1F5 JUMPI DUP3 CALLDATALOAD PUSH1 0x84 CALLDATALOAD SWAP2 PUSH2 0xE0A PUSH2 0x190B JUMP JUMPDEST DUP2 DUP5 MSTORE PUSH1 0x3 PUSH1 0x20 MSTORE DUP1 DUP5 KECCAK256 SWAP3 PUSH2 0xE26 PUSH1 0xFF PUSH1 0x6 DUP7 ADD SLOAD AND PUSH2 0x150C JUMP JUMPDEST PUSH1 0x32 DUP2 MUL DUP2 DUP2 DIV PUSH1 0x32 EQ DUP3 ISZERO OR ISZERO PUSH2 0xEFE JUMPI SWAP6 PUSH1 0x64 PUSH2 0x5F8 SWAP7 SWAP8 DIV SWAP1 PUSH2 0xE4E DUP3 PUSH1 0x24 CALLDATALOAD PUSH2 0x1678 JUMP JUMPDEST SWAP6 PUSH1 0x2 DUP2 ADD SLOAD SWAP2 DUP3 DUP9 GT PUSH2 0xEF4 JUMPI JUMPDEST PUSH32 0x63BD409A0CA0450137D1B574E1E74A5A18CC8934D8F718C1603619B971CE6737 PUSH32 0xA924D670D57CE0C4EF66945FCC39BA0D6082DEB70A897FAA080424140B0B1C7D SWAP6 SWAP4 DUP4 DUP10 SWAP9 SWAP7 SWAP5 SWAP4 DUP12 PUSH1 0x3 DUP12 SWAP7 ADD SSTORE PUSH1 0x44 CALLDATALOAD SWAP1 DUP3 ADD SSTORE PUSH1 0x5 PUSH1 0x64 CALLDATALOAD SWAP2 ADD SSTORE PUSH2 0xEC6 DUP4 PUSH2 0x18CF JUMP JUMPDEST DUP7 MLOAD SWAP11 DUP12 MSTORE PUSH1 0x20 DUP12 ADD SWAP2 SWAP1 SWAP2 MSTORE PUSH1 0x40 DUP11 ADD DUP2 SWAP1 MSTORE SWAP9 PUSH1 0x60 SWAP1 LOG2 DUP3 MLOAD SWAP2 DUP3 MSTORE PUSH1 0x20 DUP3 ADD MSTORE LOG2 PUSH2 0x5F3 DUP3 DUP3 PUSH2 0x1A9E JUMP JUMPDEST SWAP2 SWAP7 POP DUP7 SWAP2 PUSH2 0xE5D JUMP JUMPDEST PUSH4 0x4E487B71 PUSH1 0xE0 SHL DUP7 MSTORE PUSH1 0x11 DUP8 MSTORE PUSH1 0x24 DUP7 REVERT JUMPDEST DUP4 DUP4 CALLVALUE PUSH2 0x1F5 JUMPI DUP1 PUSH1 0x3 NOT CALLDATASIZE ADD SLT PUSH2 0x1F5 JUMPI PUSH2 0xF2B PUSH2 0x1417 JUMP JUMPDEST SWAP1 CALLER PUSH1 0x1 PUSH1 0x1 PUSH1 0xA0 SHL SUB DUP4 AND SUB PUSH2 0xF48 JUMPI POP PUSH2 0x49F SWAP2 SWAP3 CALLDATALOAD PUSH2 0x1A29 JUMP JUMPDEST MLOAD PUSH4 0x334BD919 PUSH1 0xE1 SHL DUP2 MSTORE DUP4 SWAP1 REVERT JUMPDEST SWAP1 POP DUP3 CALLVALUE PUSH2 0x220 JUMPI DUP1 PUSH1 0x3 NOT CALLDATASIZE ADD SLT PUSH2 0x220 JUMPI SWAP2 SWAP1 DUP2 MLOAD SWAP3 DUP4 DUP3 SLOAD DUP1 DUP7 MSTORE PUSH1 0x20 DUP1 SWAP7 ADD SWAP1 DUP2 SWAP5 DUP5 MSTORE PUSH32 0x8A35ACFBC15FF81A39AE7D344FD709F28E8600B4AA8C65C6B64BFE7FE36BD19B SWAP1 DUP5 JUMPDEST DUP2 DUP2 LT PUSH2 0xFF4 JUMPI POP POP POP DUP2 PUSH2 0xFB9 SWAP2 SUB DUP3 PUSH2 0x158D JUMP JUMPDEST DUP4 MLOAD SWAP5 DUP6 SWAP5 DUP2 DUP7 ADD SWAP3 DUP3 DUP8 MSTORE MLOAD DUP1 SWAP4 MSTORE DUP6 ADD SWAP4 SWAP3 JUMPDEST DUP3 DUP2 LT PUSH2 0xFDD JUMPI POP POP POP POP SUB SWAP1 RETURN JUMPDEST DUP4 MLOAD DUP6 MSTORE DUP7 SWAP6 POP SWAP4 DUP2 ADD SWAP4 SWAP3 DUP2 ADD SWAP3 PUSH1 0x1 ADD PUSH2 0xFCE JUMP JUMPDEST DUP3 SLOAD DUP5 MSTORE SWAP3 DUP9 ADD SWAP3 PUSH1 0x1 SWAP3 DUP4 ADD SWAP3 ADD PUSH2 0xFA3 JUMP JUMPDEST POP POP CALLVALUE PUSH2 0x1F5 JUMPI DUP2 PUSH1 0x3 NOT CALLDATASIZE ADD SLT PUSH2 0x1F5 JUMPI PUSH1 0x20 SWAP1 MLOAD PUSH2 0x1D4C DUP2 MSTORE RETURN JUMPDEST SWAP2 SWAP1 POP CALLVALUE PUSH2 0x39C JUMPI DUP1 PUSH1 0x3 NOT CALLDATASIZE ADD SLT PUSH2 0x39C JUMPI PUSH2 0x49F SWAP2 CALLDATALOAD PUSH2 0x104A PUSH1 0x1 PUSH2 0x489 PUSH2 0x1417 JUMP JUMPDEST PUSH2 0x19AB JUMP JUMPDEST DUP4 DUP4 CALLVALUE PUSH2 0x1F5 JUMPI PUSH1 0x20 CALLDATASIZE PUSH1 0x3 NOT ADD SLT PUSH2 0x1F5 JUMPI DUP1 PUSH1 0xA0 SWAP4 CALLDATALOAD SWAP3 DUP4 DUP2 MSTORE PUSH1 0x3 PUSH1 0x20 MSTORE KECCAK256 PUSH1 0x1 DUP2 ADD SLOAD SWAP3 PUSH1 0x2 DUP3 ADD SLOAD SWAP3 PUSH1 0xFF PUSH1 0x6 PUSH2 0x108F PUSH1 0x3 DUP7 ADD SLOAD SWAP5 PUSH2 0x18CF JUMP JUMPDEST SWAP5 ADD SLOAD AND SWAP4 DUP2 MLOAD SWAP6 DUP7 MSTORE PUSH1 0x20 DUP7 ADD MSTORE DUP5 ADD MSTORE PUSH1 0x60 DUP4 ADD MSTORE ISZERO ISZERO PUSH1 0x80 DUP3 ADD MSTORE RETURN JUMPDEST SWAP1 POP CALLVALUE PUSH2 0x39C JUMPI PUSH1 0x20 CALLDATASIZE PUSH1 0x3 NOT ADD SLT PUSH2 0x39C JUMPI DUP2 PUSH1 0x20 SWAP4 PUSH1 0x1 SWAP3 CALLDATALOAD DUP2 MSTORE DUP1 DUP6 MSTORE KECCAK256 ADD SLOAD SWAP1 MLOAD SWAP1 DUP2 MSTORE RETURN JUMPDEST SWAP1 POP CALLVALUE PUSH2 0x39C JUMPI PUSH1 0x20 SWAP2 DUP3 PUSH1 0x3 NOT CALLDATASIZE ADD SLT PUSH2 0x460 JUMPI PUSH1 0x1 SLOAD DUP2 MLOAD PUSH4 0x4D8C928D PUSH1 0xE1 SHL DUP2 MSTORE CALLER DUP2 DUP6 ADD MSTORE DUP4 CALLDATALOAD SWAP4 SWAP2 PUSH1 0x1 PUSH1 0x1 PUSH1 0xA0 SHL SUB SWAP2 SWAP1 DUP7 SWAP1 DUP3 SWAP1 PUSH1 0x24 SWAP1 DUP3 SWAP1 DUP7 AND GAS STATICCALL DUP1 ISZERO PUSH2 0x130C JUMPI DUP8 SWAP1 PUSH2 0x12D2 JUMPI JUMPDEST PUSH2 0x1134 SWAP2 POP PUSH2 0x15BC JUMP JUMPDEST DUP4 DUP7 MSTORE PUSH1 0x9 DUP6 MSTORE DUP3 DUP7 KECCAK256 CALLER DUP8 MSTORE DUP6 MSTORE PUSH1 0xFF DUP4 DUP8 KECCAK256 SLOAD AND ISZERO PUSH2 0x1290 JUMPI DUP4 DUP7 MSTORE PUSH1 0x8 DUP6 MSTORE DUP3 DUP7 KECCAK256 CALLER DUP8 MSTORE DUP6 MSTORE PUSH2 0x116E PUSH1 0xFF DUP5 DUP9 KECCAK256 SLOAD AND ISZERO PUSH2 0x15FA JUMP JUMPDEST DUP4 DUP7 MSTORE PUSH1 0x3 DUP6 MSTORE PUSH1 0x1 DUP4 DUP8 KECCAK256 PUSH2 0x118A PUSH1 0xFF PUSH1 0x6 DUP4 ADD SLOAD AND PUSH2 0x150C JUMP JUMPDEST PUSH2 0x1199 PUSH2 0x1D4C PUSH2 0xCCF DUP9 PUSH2 0x18CF JUMP JUMPDEST ADD SLOAD PUSH3 0x93A80 DUP2 ADD DUP1 SWAP2 GT PUSH2 0x127D JUMPI SWAP1 PUSH2 0x11B6 DUP8 SWAP3 TIMESTAMP LT ISZERO PUSH2 0x169B JUMP JUMPDEST DUP5 DUP3 MSTORE PUSH1 0x8 DUP7 MSTORE DUP4 DUP3 KECCAK256 CALLER DUP4 MSTORE DUP7 MSTORE DUP4 DUP3 KECCAK256 PUSH1 0x1 PUSH1 0xFF NOT DUP3 SLOAD AND OR SWAP1 SSTORE PUSH1 0x1 SLOAD AND SWAP2 DUP3 EXTCODESIZE ISZERO PUSH2 0x1F5 JUMPI PUSH1 0x64 DUP6 SWAP2 DUP4 DUP7 MLOAD SWAP6 DUP7 SWAP5 DUP6 SWAP4 PUSH4 0x46B40CDF PUSH1 0xE1 SHL DUP6 MSTORE DUP5 ADD MSTORE CALLER PUSH1 0x24 DUP5 ADD MSTORE PUSH1 0x2 PUSH1 0x44 DUP5 ADD MSTORE GAS CALL DUP1 ISZERO PUSH2 0x1273 JUMPI PUSH2 0x1240 JUMPI JUMPDEST POP MLOAD PUSH1 0x2 DUP2 MSTORE CALLER SWAP3 PUSH32 0x89E1649E796BC46C9DCD5FD4505F79BFDD9197C8ECCBDBAF05A6BFD1CB9EA09B SWAP2 LOG3 DUP1 RETURN JUMPDEST SWAP4 PUSH2 0x126C PUSH32 0x89E1649E796BC46C9DCD5FD4505F79BFDD9197C8ECCBDBAF05A6BFD1CB9EA09B SWAP3 SWAP6 PUSH2 0x1547 JUMP JUMPDEST SWAP4 SWAP1 PUSH2 0x1212 JUMP JUMPDEST DUP3 MLOAD RETURNDATASIZE DUP8 DUP3 RETURNDATACOPY RETURNDATASIZE SWAP1 REVERT JUMPDEST PUSH4 0x4E487B71 PUSH1 0xE0 SHL DUP8 MSTORE PUSH1 0x11 DUP4 MSTORE PUSH1 0x24 DUP8 REVERT JUMPDEST POP DUP4 PUSH1 0x64 SWAP3 MLOAD SWAP2 PUSH3 0x461BCD PUSH1 0xE5 SHL DUP4 MSTORE DUP3 ADD MSTORE PUSH1 0x1C PUSH1 0x24 DUP3 ADD MSTORE PUSH32 0x446964206E6F7420706172746963697061746520696E20706F6C6C7300000000 PUSH1 0x44 DUP3 ADD MSTORE REVERT JUMPDEST POP DUP6 DUP2 DUP2 RETURNDATASIZE DUP4 GT PUSH2 0x1305 JUMPI JUMPDEST PUSH2 0x12E8 DUP2 DUP4 PUSH2 0x158D JUMP JUMPDEST DUP2 ADD SUB SLT PUSH2 0x1301 JUMPI PUSH2 0x12FC PUSH2 0x1134 SWAP2 PUSH2 0x15AF JUMP JUMPDEST PUSH2 0x112A JUMP JUMPDEST DUP7 DUP1 REVERT JUMPDEST POP RETURNDATASIZE PUSH2 0x12DE JUMP JUMPDEST DUP5 MLOAD RETURNDATASIZE DUP10 DUP3 RETURNDATACOPY RETURNDATASIZE SWAP1 REVERT JUMPDEST SWAP1 POP CALLVALUE PUSH2 0x39C JUMPI PUSH1 0x20 CALLDATASIZE PUSH1 0x3 NOT ADD SLT PUSH2 0x39C JUMPI DUP2 PUSH1 0x20 SWAP4 PUSH1 0xFF SWAP3 CALLDATALOAD DUP2 MSTORE PUSH1 0x5 DUP6 MSTORE KECCAK256 SLOAD AND SWAP1 MLOAD SWAP1 ISZERO ISZERO DUP2 MSTORE RETURN JUMPDEST SWAP1 POP CALLVALUE PUSH2 0x39C JUMPI PUSH1 0x20 CALLDATASIZE PUSH1 0x3 NOT ADD SLT PUSH2 0x39C JUMPI CALLDATALOAD SWAP1 PUSH2 0x1360 PUSH2 0x190B JUMP JUMPDEST DUP2 DUP4 MSTORE PUSH1 0x5 PUSH1 0x20 MSTORE PUSH2 0x1377 PUSH1 0xFF DUP3 DUP6 KECCAK256 SLOAD AND PUSH2 0x150C JUMP JUMPDEST DUP2 DUP4 MSTORE PUSH1 0x3 PUSH1 0x20 MSTORE PUSH1 0x6 DUP2 DUP5 KECCAK256 ADD SWAP1 PUSH1 0xFF NOT SWAP2 DUP3 DUP2 SLOAD AND SWAP1 SSTORE PUSH1 0x5 PUSH1 0x20 MSTORE DUP4 KECCAK256 SWAP1 DUP2 SLOAD AND SWAP1 SSTORE PUSH32 0x96FBF803F14DA8437E0CBE34DF7152F998DBC3B7E2343C52FB4285E90387A9CA DUP3 DUP1 LOG2 DUP1 RETURN JUMPDEST DUP5 SWAP2 CALLVALUE PUSH2 0x39C JUMPI PUSH1 0x20 CALLDATASIZE PUSH1 0x3 NOT ADD SLT PUSH2 0x39C JUMPI CALLDATALOAD PUSH4 0xFFFFFFFF PUSH1 0xE0 SHL DUP2 AND DUP1 SWAP2 SUB PUSH2 0x39C JUMPI PUSH1 0x20 SWAP3 POP PUSH4 0x7965DB0B PUSH1 0xE0 SHL DUP2 EQ SWAP1 DUP2 ISZERO PUSH2 0x1406 JUMPI JUMPDEST POP ISZERO ISZERO DUP2 MSTORE RETURN JUMPDEST PUSH4 0x1FFC9A7 PUSH1 0xE0 SHL EQ SWAP1 POP DUP4 PUSH2 0x13FF JUMP JUMPDEST PUSH1 0x24 CALLDATALOAD SWAP1 PUSH1 0x1 PUSH1 0x1 PUSH1 0xA0 SHL SUB DUP3 AND DUP3 SUB PUSH2 0x3D7 JUMPI JUMP JUMPDEST SWAP1 PUSH1 0x20 PUSH1 0x3 NOT DUP4 ADD SLT PUSH2 0x3D7 JUMPI PUSH1 0x4 CALLDATALOAD PUSH8 0xFFFFFFFFFFFFFFFF SWAP3 DUP4 DUP3 GT PUSH2 0x3D7 JUMPI DUP1 PUSH1 0x23 DUP4 ADD SLT ISZERO PUSH2 0x3D7 JUMPI DUP2 PUSH1 0x4 ADD CALLDATALOAD SWAP4 DUP5 GT PUSH2 0x3D7 JUMPI PUSH1 0x24 DUP5 DUP4 ADD ADD GT PUSH2 0x3D7 JUMPI PUSH1 0x24 ADD SWAP2 SWAP1 JUMP JUMPDEST PUSH1 0x0 JUMPDEST DUP4 DUP2 LT PUSH2 0x148A JUMPI POP POP PUSH1 0x0 SWAP2 ADD MSTORE JUMP JUMPDEST DUP2 DUP2 ADD MLOAD DUP4 DUP3 ADD MSTORE PUSH1 0x20 ADD PUSH2 0x147A JUMP JUMPDEST SWAP1 PUSH1 0x20 SWAP2 PUSH2 0x14B3 DUP2 MLOAD DUP1 SWAP3 DUP2 DUP6 MSTORE DUP6 DUP1 DUP7 ADD SWAP2 ADD PUSH2 0x1477 JUMP JUMPDEST PUSH1 0x1F ADD PUSH1 0x1F NOT AND ADD ADD SWAP1 JUMP JUMPDEST PUSH1 0x4 SLOAD DUP2 LT ISZERO PUSH2 0x14F6 JUMPI PUSH1 0x4 PUSH1 0x0 MSTORE PUSH32 0x8A35ACFBC15FF81A39AE7D344FD709F28E8600B4AA8C65C6B64BFE7FE36BD19B ADD SWAP1 PUSH1 0x0 SWAP1 JUMP JUMPDEST PUSH4 0x4E487B71 PUSH1 0xE0 SHL PUSH1 0x0 MSTORE PUSH1 0x32 PUSH1 0x4 MSTORE PUSH1 0x24 PUSH1 0x0 REVERT JUMPDEST ISZERO PUSH2 0x1513 JUMPI JUMP JUMPDEST PUSH1 0x40 MLOAD PUSH3 0x461BCD PUSH1 0xE5 SHL DUP2 MSTORE PUSH1 0x20 PUSH1 0x4 DUP3 ADD MSTORE PUSH1 0xC PUSH1 0x24 DUP3 ADD MSTORE PUSH12 0x4E6F7420747261636B696E67 PUSH1 0xA0 SHL PUSH1 0x44 DUP3 ADD MSTORE PUSH1 0x64 SWAP1 REVERT JUMPDEST PUSH8 0xFFFFFFFFFFFFFFFF DUP2 GT PUSH2 0x155B JUMPI PUSH1 0x40 MSTORE JUMP JUMPDEST PUSH4 0x4E487B71 PUSH1 0xE0 SHL PUSH1 0x0 MSTORE PUSH1 0x41 PUSH1 0x4 MSTORE PUSH1 0x24 PUSH1 0x0 REVERT JUMPDEST PUSH1 0x40 DUP2 ADD SWAP1 DUP2 LT PUSH8 0xFFFFFFFFFFFFFFFF DUP3 GT OR PUSH2 0x155B JUMPI PUSH1 0x40 MSTORE JUMP JUMPDEST SWAP1 PUSH1 0x1F DUP1 NOT SWAP2 ADD AND DUP2 ADD SWAP1 DUP2 LT PUSH8 0xFFFFFFFFFFFFFFFF DUP3 GT OR PUSH2 0x155B JUMPI PUSH1 0x40 MSTORE JUMP JUMPDEST MLOAD SWAP1 DUP2 ISZERO ISZERO DUP3 SUB PUSH2 0x3D7 JUMPI JUMP JUMPDEST ISZERO PUSH2 0x15C3 JUMPI JUMP JUMPDEST PUSH1 0x40 MLOAD PUSH3 0x461BCD PUSH1 0xE5 SHL DUP2 MSTORE PUSH1 0x20 PUSH1 0x4 DUP3 ADD MSTORE PUSH1 0xF PUSH1 0x24 DUP3 ADD MSTORE PUSH15 0x139BDD081DDA1A5D195B1A5CDD1959 PUSH1 0x8A SHL PUSH1 0x44 DUP3 ADD MSTORE PUSH1 0x64 SWAP1 REVERT JUMPDEST ISZERO PUSH2 0x1601 JUMPI JUMP JUMPDEST PUSH1 0x40 MLOAD PUSH3 0x461BCD PUSH1 0xE5 SHL DUP2 MSTORE PUSH1 0x20 PUSH1 0x4 DUP3 ADD MSTORE PUSH1 0xF PUSH1 0x24 DUP3 ADD MSTORE PUSH15 0x105B1C9958591E4818DB185A5B5959 PUSH1 0x8A SHL PUSH1 0x44 DUP3 ADD MSTORE PUSH1 0x64 SWAP1 REVERT JUMPDEST ISZERO PUSH2 0x163F JUMPI JUMP JUMPDEST PUSH1 0x40 MLOAD PUSH3 0x461BCD PUSH1 0xE5 SHL DUP2 MSTORE PUSH1 0x20 PUSH1 0x4 DUP3 ADD MSTORE PUSH1 0x11 PUSH1 0x24 DUP3 ADD MSTORE PUSH17 0x151A1C995CDA1BDB19081B9BDD081B595D PUSH1 0x7A SHL PUSH1 0x44 DUP3 ADD MSTORE PUSH1 0x64 SWAP1 REVERT JUMPDEST SWAP2 SWAP1 DUP3 ADD DUP1 SWAP3 GT PUSH2 0x1685 JUMPI JUMP JUMPDEST PUSH4 0x4E487B71 PUSH1 0xE0 SHL PUSH1 0x0 MSTORE PUSH1 0x11 PUSH1 0x4 MSTORE PUSH1 0x24 PUSH1 0x0 REVERT JUMPDEST ISZERO PUSH2 0x16A2 JUMPI JUMP JUMPDEST PUSH1 0x40 MLOAD PUSH3 0x461BCD PUSH1 0xE5 SHL DUP2 MSTORE PUSH1 0x20 PUSH1 0x4 DUP3 ADD MSTORE PUSH1 0x9 PUSH1 0x24 DUP3 ADD MSTORE PUSH9 0x546F6F206561726C79 PUSH1 0xB8 SHL PUSH1 0x44 DUP3 ADD MSTORE PUSH1 0x64 SWAP1 REVERT JUMPDEST PUSH1 0x4 DUP1 SLOAD PUSH1 0x0 JUMPDEST DUP2 DUP2 LT PUSH2 0x170B JUMPI POP POP POP PUSH1 0x0 SWAP1 PUSH1 0x40 MLOAD PUSH1 0x20 DUP2 ADD DUP2 DUP2 LT PUSH8 0xFFFFFFFFFFFFFFFF DUP3 GT OR PUSH2 0x155B JUMPI PUSH1 0x40 MSTORE PUSH1 0x0 DUP2 MSTORE SWAP1 JUMP JUMPDEST PUSH2 0x1714 DUP2 PUSH2 0x14BF JUMP JUMPDEST SWAP1 SLOAD PUSH1 0x3 SWAP2 DUP3 SHL SHR DUP1 PUSH1 0x0 MSTORE PUSH1 0x20 SWAP2 DUP3 MSTORE PUSH1 0x40 DUP1 PUSH1 0x0 KECCAK256 SWAP2 PUSH1 0xFF PUSH1 0x6 DUP5 ADD SLOAD AND ISZERO PUSH2 0x17BC JUMPI PUSH1 0x1 DUP1 SWAP4 ADD SLOAD PUSH3 0x93A80 DUP2 ADD DUP1 SWAP2 GT PUSH2 0x17C8 JUMPI TIMESTAMP LT PUSH2 0x17BC JUMPI PUSH2 0x175B DUP2 PUSH2 0x18CF JUMP JUMPDEST SWAP1 PUSH2 0x1D4C DUP3 LT ISZERO PUSH2 0x1775 JUMPI POP POP POP POP POP PUSH1 0x1 SWAP1 JUMPDEST ADD PUSH2 0x16DA JUMP JUMPDEST DUP3 MLOAD SWAP5 DUP6 ADD MSTORE DUP4 DUP3 ADD MSTORE DUP1 DUP4 MSTORE SWAP2 SWAP6 SWAP5 SWAP1 SWAP4 POP PUSH1 0x60 DUP7 ADD SWAP3 POP PUSH8 0xFFFFFFFFFFFFFFFF DUP4 GT DUP7 DUP5 LT OR PUSH2 0x17A7 JUMPI POP MSTORE SWAP2 SWAP1 JUMP JUMPDEST PUSH1 0x41 SWAP1 PUSH4 0x4E487B71 PUSH1 0xE0 SHL PUSH1 0x0 MSTORE MSTORE PUSH1 0x24 PUSH1 0x0 REVERT JUMPDEST POP POP POP POP PUSH1 0x1 SWAP1 PUSH2 0x176F JUMP JUMPDEST PUSH1 0x11 DUP9 PUSH4 0x4E487B71 PUSH1 0xE0 SHL PUSH1 0x0 MSTORE MSTORE PUSH1 0x24 PUSH1 0x0 REVERT JUMPDEST DUP2 PUSH1 0x1F DUP3 ADD SLT ISZERO PUSH2 0x3D7 JUMPI DUP1 MLOAD PUSH8 0xFFFFFFFFFFFFFFFF DUP2 GT PUSH2 0x155B JUMPI PUSH1 0x40 MLOAD SWAP3 PUSH2 0x1811 PUSH1 0x1F DUP4 ADD PUSH1 0x1F NOT AND PUSH1 0x20 ADD DUP6 PUSH2 0x158D JUMP JUMPDEST DUP2 DUP5 MSTORE PUSH1 0x20 DUP3 DUP5 ADD ADD GT PUSH2 0x3D7 JUMPI PUSH2 0x182F SWAP2 PUSH1 0x20 DUP1 DUP6 ADD SWAP2 ADD PUSH2 0x1477 JUMP JUMPDEST SWAP1 JUMP JUMPDEST PUSH2 0x140 DUP2 DUP4 SUB SLT PUSH2 0x3D7 JUMPI DUP1 MLOAD SWAP3 PUSH1 0x20 DUP3 ADD MLOAD PUSH8 0xFFFFFFFFFFFFFFFF SWAP1 DUP2 DUP2 GT PUSH2 0x3D7 JUMPI DUP5 PUSH2 0x1862 SWAP2 DUP6 ADD PUSH2 0x17DD JUMP JUMPDEST SWAP4 PUSH1 0x40 DUP5 ADD MLOAD SWAP2 DUP3 GT PUSH2 0x3D7 JUMPI PUSH2 0x187A SWAP2 DUP5 ADD PUSH2 0x17DD JUMP JUMPDEST SWAP2 PUSH1 0x60 DUP2 ADD MLOAD SWAP2 PUSH1 0x80 DUP3 ADD MLOAD SWAP2 PUSH1 0xA0 DUP2 ADD MLOAD SWAP2 PUSH1 0xC0 DUP3 ADD MLOAD SWAP2 PUSH1 0xE0 DUP2 ADD MLOAD PUSH1 0xFF DUP2 AND DUP2 SUB PUSH2 0x3D7 JUMPI SWAP2 PUSH2 0x182F PUSH2 0x120 PUSH2 0x18B6 PUSH2 0x100 DUP6 ADD PUSH2 0x15AF JUMP JUMPDEST SWAP4 ADD PUSH2 0x15AF JUMP JUMPDEST PUSH1 0xFF PUSH1 0x1 SWAP2 AND ADD SWAP1 PUSH1 0xFF DUP3 GT PUSH2 0x1685 JUMPI JUMP JUMPDEST PUSH1 0x0 MSTORE PUSH1 0x3 PUSH1 0x20 MSTORE PUSH1 0x40 PUSH1 0x0 KECCAK256 PUSH1 0x2 DUP2 ADD SLOAD SWAP1 DUP2 ISZERO PUSH2 0x1904 JUMPI PUSH1 0x3 ADD SLOAD PUSH2 0x2710 SWAP1 DUP2 DUP2 MUL SWAP2 DUP2 DUP4 DIV EQ SWAP1 ISZERO OR ISZERO PUSH2 0x1685 JUMPI DIV SWAP1 JUMP JUMPDEST POP POP PUSH1 0x0 SWAP1 JUMP JUMPDEST CALLER PUSH1 0x0 SWAP1 DUP2 MSTORE PUSH32 0xEE57CD81E84075558E8FCC182A1F4393F91FC97F963A136E66B7F949A62F319F PUSH1 0x20 MSTORE PUSH1 0x40 SWAP1 KECCAK256 SLOAD PUSH32 0x97667070C54EF182B0F5858B034BEAC1B6F3089AA2D3188BB1E8929F4FA9B929 SWAP1 PUSH1 0xFF AND ISZERO PUSH2 0x1967 JUMPI POP JUMP JUMPDEST PUSH1 0x44 SWAP1 PUSH1 0x40 MLOAD SWAP1 PUSH4 0xE2517D3F PUSH1 0xE0 SHL DUP3 MSTORE CALLER PUSH1 0x4 DUP4 ADD MSTORE PUSH1 0x24 DUP3 ADD MSTORE REVERT JUMPDEST DUP1 PUSH1 0x0 MSTORE PUSH1 0x0 PUSH1 0x20 MSTORE PUSH1 0x40 PUSH1 0x0 KECCAK256 CALLER PUSH1 0x0 MSTORE PUSH1 0x20 MSTORE PUSH1 0xFF PUSH1 0x40 PUSH1 0x0 KECCAK256 SLOAD AND ISZERO PUSH2 0x1967 JUMPI POP JUMP JUMPDEST SWAP1 PUSH1 0x0 SWAP2 DUP1 DUP4 MSTORE DUP3 PUSH1 0x20 MSTORE PUSH1 0x40 DUP4 KECCAK256 SWAP2 PUSH1 0x1 DUP1 PUSH1 0xA0 SHL SUB AND SWAP2 DUP3 DUP5 MSTORE PUSH1 0x20 MSTORE PUSH1 0xFF PUSH1 0x40 DUP5 KECCAK256 SLOAD AND ISZERO PUSH1 0x0 EQ PUSH2 0x1A24 JUMPI DUP1 DUP4 MSTORE DUP3 PUSH1 0x20 MSTORE PUSH1 0x40 DUP4 KECCAK256 DUP3 DUP5 MSTORE PUSH1 0x20 MSTORE PUSH1 0x40 DUP4 KECCAK256 PUSH1 0x1 PUSH1 0xFF NOT DUP3 SLOAD AND OR SWAP1 SSTORE PUSH32 0x2F8788117E7EFF1D82E926EC794901D17C78024A50270940304540A733656F0D CALLER SWAP4 DUP1 LOG4 PUSH1 0x1 SWAP1 JUMP JUMPDEST POP POP SWAP1 JUMP JUMPDEST SWAP1 PUSH1 0x0 SWAP2 DUP1 DUP4 MSTORE DUP3 PUSH1 0x20 MSTORE PUSH1 0x40 DUP4 KECCAK256 SWAP2 PUSH1 0x1 DUP1 PUSH1 0xA0 SHL SUB AND SWAP2 DUP3 DUP5 MSTORE PUSH1 0x20 MSTORE PUSH1 0xFF PUSH1 0x40 DUP5 KECCAK256 SLOAD AND PUSH1 0x0 EQ PUSH2 0x1A24 JUMPI DUP1 DUP4 MSTORE DUP3 PUSH1 0x20 MSTORE PUSH1 0x40 DUP4 KECCAK256 DUP3 DUP5 MSTORE PUSH1 0x20 MSTORE PUSH1 0x40 DUP4 KECCAK256 PUSH1 0xFF NOT DUP2 SLOAD AND SWAP1 SSTORE PUSH32 0xF6391F5C32D9C69D2A47EA670B442974B53935D1EDC7FD64EB21E047A839171B CALLER SWAP4 DUP1 LOG4 PUSH1 0x1 SWAP1 JUMP JUMPDEST SWAP1 DUP2 PUSH1 0x0 MSTORE PUSH1 0x20 SWAP1 PUSH1 0x6 DUP3 MSTORE PUSH1 0x40 PUSH2 0x1ABD DUP2 PUSH1 0x0 KECCAK256 SLOAD PUSH1 0x7 SLOAD SWAP1 PUSH2 0x1678 JUMP JUMPDEST TIMESTAMP LT PUSH2 0x1C01 JUMPI PUSH2 0x9C4 DUP3 LT ISZERO PUSH2 0x1B46 JUMPI PUSH32 0x505A29C5397A0038BF34D9F7BAF0047C3F5EAE6323BF8450C1E34DACF7CC2A17 SWAP3 DUP2 MLOAD PUSH2 0x1AFA DUP2 PUSH2 0x1571 JUMP JUMPDEST PUSH1 0x14 DUP2 MSTORE PUSH20 0x3AB933B2B73A2FB830B93A34B1B4B830BA34B7B7 PUSH1 0x61 SHL DUP3 DUP3 ADD MSTORE SWAP3 JUMPDEST DUP6 PUSH1 0x0 MSTORE PUSH1 0x6 DUP3 MSTORE TIMESTAMP DUP4 PUSH1 0x0 KECCAK256 SSTORE PUSH2 0x1B3D DUP4 MLOAD SWAP5 DUP5 DUP7 SWAP6 DUP7 MSTORE DUP6 ADD SWAP1 PUSH2 0x149A JUMP JUMPDEST SWAP2 DUP4 ADD MSTORE SUB SWAP1 LOG2 JUMP JUMPDEST PUSH2 0x1770 DUP3 LT ISZERO DUP1 PUSH2 0x1C12 JUMPI JUMPDEST ISZERO PUSH2 0x1BA4 JUMPI PUSH32 0x505A29C5397A0038BF34D9F7BAF0047C3F5EAE6323BF8450C1E34DACF7CC2A17 SWAP3 DUP2 MLOAD PUSH2 0x1B84 DUP2 PUSH2 0x1571 JUMP JUMPDEST PUSH1 0xE DUP2 MSTORE PUSH14 0x36B4B632B9BA37B732AFB732B0B9 PUSH1 0x91 SHL DUP3 DUP3 ADD MSTORE SWAP3 PUSH2 0x1B1C JUMP JUMPDEST PUSH2 0x1B58 DUP3 LT ISZERO DUP1 PUSH2 0x1C07 JUMPI JUMPDEST ISZERO PUSH2 0x1C01 JUMPI PUSH32 0x505A29C5397A0038BF34D9F7BAF0047C3F5EAE6323BF8450C1E34DACF7CC2A17 SWAP3 DUP2 MLOAD PUSH2 0x1BE2 DUP2 PUSH2 0x1571 JUMP JUMPDEST PUSH1 0xD DUP2 MSTORE PUSH13 0x70686173655F636C6F73696E67 PUSH1 0x98 SHL DUP3 DUP3 ADD MSTORE SWAP3 PUSH2 0x1B1C JUMP JUMPDEST POP POP POP POP JUMP JUMPDEST POP PUSH2 0x1D4C DUP3 LT PUSH2 0x1BB0 JUMP JUMPDEST POP PUSH2 0x1D4C DUP3 LT PUSH2 0x1B52 JUMP JUMPDEST SWAP1 DUP2 PUSH1 0x0 MSTORE PUSH1 0x3 PUSH1 0x20 MSTORE PUSH1 0x1 PUSH1 0x40 PUSH1 0x0 KECCAK256 ADD SLOAD PUSH3 0x93A80 DUP2 ADD DUP1 SWAP2 GT PUSH2 0x1685 JUMPI TIMESTAMP LT PUSH2 0x1C5C JUMPI PUSH2 0x1D4C DUP2 LT ISZERO PUSH2 0x1C51 JUMPI POP POP JUMP JUMPDEST PUSH2 0x1C5A SWAP2 PUSH2 0x1C60 JUMP JUMPDEST JUMP JUMPDEST POP POP JUMP JUMPDEST PUSH1 0x1 SLOAD PUSH1 0x40 DUP1 MLOAD PUSH4 0x32665FFB PUSH1 0xE0 SHL DUP2 MSTORE PUSH1 0x4 DUP2 ADD DUP5 SWAP1 MSTORE SWAP3 SWAP4 PUSH1 0x1 PUSH1 0x1 PUSH1 0xA0 SHL SUB SWAP1 SWAP3 AND SWAP3 PUSH1 0x0 DUP1 DUP3 PUSH1 0x24 DUP2 DUP9 GAS STATICCALL SWAP2 DUP3 ISZERO PUSH2 0x1D7F JUMPI DUP2 SWAP3 PUSH2 0x1D59 JUMPI JUMPDEST POP PUSH1 0xFF DUP3 AND SWAP5 PUSH1 0x3 DUP7 LT PUSH2 0x1CB6 JUMPI JUMPDEST POP POP POP POP POP POP POP JUMP JUMPDEST DUP1 EXTCODESIZE ISZERO PUSH2 0x1F5 JUMPI DUP2 DUP1 SWAP2 PUSH1 0x24 DUP7 MLOAD DUP1 SWAP5 DUP2 SWAP4 PUSH4 0x40D57A67 PUSH1 0xE1 SHL DUP4 MSTORE DUP13 PUSH1 0x4 DUP5 ADD MSTORE GAS CALL DUP1 ISZERO PUSH2 0x392 JUMPI PUSH1 0x60 SWAP6 SWAP4 PUSH32 0xD786D06DD56DF8B68A470FB87593BD3D76A14EEEA5CF10760563177BD21496B0 SWAP8 SWAP6 SWAP4 PUSH1 0xFF SWAP4 PUSH2 0x1D2F SWAP4 PUSH2 0x1D4A JUMPI JUMPDEST POP DUP10 DUP2 MSTORE PUSH1 0x3 PUSH1 0x20 MSTORE PUSH1 0x3 DUP6 DUP3 KECCAK256 TIMESTAMP PUSH1 0x1 DUP3 ADD SSTORE ADD SSTORE PUSH2 0x18BD JUMP JUMPDEST DUP3 MLOAD SWAP5 DUP6 MSTORE AND PUSH1 0x20 DUP5 ADD MSTORE DUP3 ADD MSTORE LOG2 CODESIZE DUP1 DUP1 DUP1 DUP1 DUP1 DUP1 PUSH2 0x1CAD JUMP JUMPDEST PUSH2 0x1D53 SWAP1 PUSH2 0x1547 JUMP JUMPDEST CODESIZE PUSH2 0x1D14 JUMP JUMPDEST PUSH2 0x1D6E SWAP2 SWAP3 POP RETURNDATASIZE DUP1 DUP5 DUP4 RETURNDATACOPY PUSH2 0x43D DUP2 DUP4 PUSH2 0x158D JUMP JUMPDEST POP POP SWAP7 POP POP POP POP POP POP POP SWAP1 CODESIZE PUSH2 0x1C9E JUMP JUMPDEST POP DUP3 MLOAD SWAP1 RETURNDATASIZE SWAP1 DUP3 RETURNDATACOPY RETURNDATASIZE SWAP1 REVERT INVALID LOG2 PUSH5 0x6970667358 0x22 SLT KECCAK256 CALLCODE 0xA5 0xC6 CREATE2 SWAP2 SHL 0xDF LOG3 PUSH2 0xCFA0 0xAB MSTORE PUSH29 0xDA92014357A8DC27A8D5075562AABD4AC0CF64736F6C63430008180033 0x2F DUP8 DUP9 GT PUSH31 0x7EFF1D82E926EC794901D17C78024A50270940304540A733656F0D00000000 "},"methodIdentifiers":{"BONUS_TOKENS()":"b415d279","DEFAULT_ADMIN_ROLE()":"a217fddf","ENGAGEMENT_THRESHOLD()":"30ae7805","MIN_ENGAGEMENT_PERIOD()":"5513de41","OPERATOR_ROLE()":"f5b541a6","POLL_BONUS_MULTIPLIER()":"a27f71b2","calculateEngagement(uint256)":"f333d6c2","checkSubscriptionAdvancement(uint256)":"d5612486","checkUpkeep(bytes)":"6e04ff0d","claimEngagementBonus(uint256)":"40ab3171","claimPollBoostBonus(uint256)":"14585aeb","getEngagement(uint256)":"2e94dfda","getRoleAdmin(bytes32)":"248a9ca3","getTrackedProperties()":"313b79da","governance()":"5aa6e675","grantRole(bytes32,address)":"2f2ff15d","hasClaimed(uint256,address)":"873f6f9e","hasParticipatedInPolls(uint256,address)":"a9dc8726","hasRole(bytes32,address)":"91d14854","isTracked(uint256)":"1194f9e9","lastNudgeTime(uint256)":"5da6559e","nudgeCooldown()":"6675584f","performUpkeep(bytes)":"4585e33b","pollParticipated(uint256,address)":"587bd4a7","propertyEngagement(uint256)":"63e86eb8","propertyPollCount(uint256)":"73de7b4b","propertyToken()":"43ae2695","recordPollParticipation(uint256,address)":"816aad3c","renounceRole(bytes32,address)":"36568abe","revokeRole(bytes32,address)":"d547741f","setNudgeCooldown(uint256)":"8e5359e0","startTracking(uint256,uint256)":"785b2190","stopTracking(uint256)":"06785d8a","supportsInterface(bytes4)":"01ffc9a7","trackedProperties(uint256)":"8085b813","updateEngagement(uint256,uint256,uint256,uint256)":"94c9825d","updateEngagementWithPolls(uint256,uint256,uint256,uint256,uint256)":"3a21ccc1"}}}}}