{"contracts/Governance.sol":{"Governance":{"abi":[{"inputs":[{"internalType":"address","name":"_propertyToken","type":"address"}],"stateMutability":"nonpayable","type":"constructor"},{"inputs":[],"name":"AccessControlBadConfirmation","type":"error"},{"inputs":[{"internalType":"address","name":"account","type":"address"},{"internalType":"bytes32","name":"neededRole","type":"bytes32"}],"name":"AccessControlUnauthorizedAccount","type":"error"},{"inputs":[],"name":"ECDSAInvalidSignature","type":"error"},{"inputs":[{"internalType":"uint256","name":"length","type":"uint256"}],"name":"ECDSAInvalidSignatureLength","type":"error"},{"inputs":[{"internalType":"bytes32","name":"s","type":"bytes32"}],"name":"ECDSAInvalidSignatureS","type":"error"},{"inputs":[],"name":"ReentrancyGuardReentrantCall","type":"error"},{"anonymous":false,"inputs":[{"indexed":true,"internalType":"uint256","name":"proposalId","type":"uint256"},{"indexed":true,"internalType":"address","name":"voter","type":"address"},{"indexed":false,"internalType":"uint8","name":"support","type":"uint8"},{"indexed":false,"internalType":"uint256","name":"weight","type":"uint256"},{"indexed":false,"internalType":"address","name":"relayer","type":"address"}],"name":"OffChainVoteCast","type":"event"},{"anonymous":false,"inputs":[{"indexed":true,"internalType":"uint256","name":"pollId","type":"uint256"},{"indexed":true,"internalType":"uint256","name":"proposalId","type":"uint256"}],"name":"PollConvertedToProposal","type":"event"},{"anonymous":false,"inputs":[{"indexed":true,"internalType":"uint256","name":"pollId","type":"uint256"},{"indexed":true,"internalType":"uint256","name":"propertyId","type":"uint256"},{"indexed":false,"internalType":"address","name":"creator","type":"address"},{"indexed":false,"internalType":"string","name":"question","type":"string"}],"name":"PollCreated","type":"event"},{"anonymous":false,"inputs":[{"indexed":true,"internalType":"uint256","name":"pollId","type":"uint256"},{"indexed":false,"internalType":"uint256","name":"votesFor","type":"uint256"},{"indexed":false,"internalType":"uint256","name":"votesAgainst","type":"uint256"}],"name":"PollEnded","type":"event"},{"anonymous":false,"inputs":[{"indexed":true,"internalType":"uint256","name":"pollId","type":"uint256"},{"indexed":true,"internalType":"address","name":"voter","type":"address"},{"indexed":false,"internalType":"bool","name":"support","type":"bool"}],"name":"PollVoteCast","type":"event"},{"anonymous":false,"inputs":[{"indexed":true,"internalType":"uint256","name":"proposalId","type":"uint256"}],"name":"ProposalCancelled","type":"event"},{"anonymous":false,"inputs":[{"indexed":true,"internalType":"uint256","name":"proposalId","type":"uint256"},{"indexed":true,"internalType":"uint256","name":"propertyId","type":"uint256"},{"indexed":false,"internalType":"address","name":"proposer","type":"address"},{"indexed":false,"internalType":"enum Governance.ProposalType","name":"proposalType","type":"uint8"},{"indexed":false,"internalType":"string","name":"title","type":"string"}],"name":"ProposalCreated","type":"event"},{"anonymous":false,"inputs":[{"indexed":true,"internalType":"uint256","name":"proposalId","type":"uint256"}],"name":"ProposalExecuted","type":"event"},{"anonymous":false,"inputs":[{"indexed":true,"internalType":"bytes32","name":"role","type":"bytes32"},{"indexed":true,"internalType":"bytes32","name":"previousAdminRole","type":"bytes32"},{"indexed":true,"internalType":"bytes32","name":"newAdminRole","type":"bytes32"}],"name":"RoleAdminChanged","type":"event"},{"anonymous":false,"inputs":[{"indexed":true,"internalType":"bytes32","name":"role","type":"bytes32"},{"indexed":true,"internalType":"address","name":"account","type":"address"},{"indexed":true,"internalType":"address","name":"sender","type":"address"}],"name":"RoleGranted","type":"event"},{"anonymous":false,"inputs":[{"indexed":true,"internalType":"bytes32","name":"role","type":"bytes32"},{"indexed":true,"internalType":"address","name":"account","type":"address"},{"indexed":true,"internalType":"address","name":"sender","type":"address"}],"name":"RoleRevoked","type":"event"},{"anonymous":false,"inputs":[{"indexed":true,"internalType":"uint256","name":"proposalId","type":"uint256"},{"indexed":true,"internalType":"address","name":"voter","type":"address"},{"indexed":false,"internalType":"uint8","name":"support","type":"uint8"},{"indexed":false,"internalType":"uint256","name":"weight","type":"uint256"}],"name":"VoteCast","type":"event"},{"anonymous":false,"inputs":[{"indexed":false,"internalType":"uint256","name":"newBonus","type":"uint256"}],"name":"VoteToEarnBonusUpdated","type":"event"},{"anonymous":false,"inputs":[{"indexed":false,"internalType":"uint256","name":"newPeriod","type":"uint256"}],"name":"VotingPeriodUpdated","type":"event"},{"inputs":[],"name":"DEFAULT_ADMIN_ROLE","outputs":[{"internalType":"bytes32","name":"","type":"bytes32"}],"stateMutability":"view","type":"function"},{"inputs":[],"name":"DOMAIN_SEPARATOR","outputs":[{"internalType":"bytes32","name":"","type":"bytes32"}],"stateMutability":"view","type":"function"},{"inputs":[],"name":"EXECUTOR_ROLE","outputs":[{"internalType":"bytes32","name":"","type":"bytes32"}],"stateMutability":"view","type":"function"},{"inputs":[],"name":"POLL_PROPOSAL_THRESHOLD","outputs":[{"internalType":"uint256","name":"","type":"uint256"}],"stateMutability":"view","type":"function"},{"inputs":[],"name":"POLL_QUORUM_BONUS","outputs":[{"internalType":"uint256","name":"","type":"uint256"}],"stateMutability":"view","type":"function"},{"inputs":[],"name":"PROPOSER_ROLE","outputs":[{"internalType":"bytes32","name":"","type":"bytes32"}],"stateMutability":"view","type":"function"},{"inputs":[],"name":"QUORUM_EMERGENCY","outputs":[{"internalType":"uint256","name":"","type":"uint256"}],"stateMutability":"view","type":"function"},{"inputs":[],"name":"QUORUM_PARAMETER","outputs":[{"internalType":"uint256","name":"","type":"uint256"}],"stateMutability":"view","type":"function"},{"inputs":[],"name":"QUORUM_PROPERTY","outputs":[{"internalType":"uint256","name":"","type":"uint256"}],"stateMutability":"view","type":"function"},{"inputs":[],"name":"QUORUM_TREASURY","outputs":[{"internalType":"uint256","name":"","type":"uint256"}],"stateMutability":"view","type":"function"},{"inputs":[],"name":"RELAYER_ROLE","outputs":[{"internalType":"bytes32","name":"","type":"bytes32"}],"stateMutability":"view","type":"function"},{"inputs":[],"name":"VOTE_TYPEHASH","outputs":[{"internalType":"bytes32","name":"","type":"bytes32"}],"stateMutability":"view","type":"function"},{"inputs":[{"internalType":"uint256","name":"proposalId","type":"uint256"}],"name":"cancelProposal","outputs":[],"stateMutability":"nonpayable","type":"function"},{"inputs":[{"internalType":"uint256","name":"proposalId","type":"uint256"},{"internalType":"uint8","name":"support","type":"uint8"}],"name":"castVote","outputs":[],"stateMutability":"nonpayable","type":"function"},{"inputs":[{"internalType":"uint256","name":"proposalId","type":"uint256"},{"internalType":"uint8","name":"support","type":"uint8"},{"internalType":"address","name":"voter","type":"address"},{"internalType":"uint256","name":"deadline","type":"uint256"},{"internalType":"uint8","name":"v","type":"uint8"},{"internalType":"bytes32","name":"r","type":"bytes32"},{"internalType":"bytes32","name":"s","type":"bytes32"}],"name":"castVoteBySignature","outputs":[],"stateMutability":"nonpayable","type":"function"},{"inputs":[{"internalType":"uint256","name":"propertyId","type":"uint256"},{"internalType":"string","name":"question","type":"string"},{"internalType":"string","name":"description","type":"string"},{"internalType":"string","name":"ipfsHash","type":"string"},{"internalType":"uint256","name":"duration","type":"uint256"}],"name":"createPoll","outputs":[{"internalType":"uint256","name":"","type":"uint256"}],"stateMutability":"nonpayable","type":"function"},{"inputs":[{"internalType":"uint256","name":"propertyId","type":"uint256"},{"internalType":"enum Governance.ProposalType","name":"proposalType","type":"uint8"},{"internalType":"string","name":"title","type":"string"},{"internalType":"string","name":"description","type":"string"},{"internalType":"string","name":"ipfsHash","type":"string"},{"internalType":"bytes","name":"executionData","type":"bytes"}],"name":"createProposal","outputs":[{"internalType":"uint256","name":"","type":"uint256"}],"stateMutability":"nonpayable","type":"function"},{"inputs":[{"internalType":"uint256","name":"pollId","type":"uint256"},{"internalType":"enum Governance.ProposalType","name":"proposalType","type":"uint8"},{"internalType":"bytes","name":"executionData","type":"bytes"}],"name":"createProposalFromPoll","outputs":[{"internalType":"uint256","name":"","type":"uint256"}],"stateMutability":"nonpayable","type":"function"},{"inputs":[{"internalType":"uint256","name":"pollId","type":"uint256"}],"name":"endPoll","outputs":[],"stateMutability":"nonpayable","type":"function"},{"inputs":[{"internalType":"uint256","name":"proposalId","type":"uint256"}],"name":"executeProposal","outputs":[],"stateMutability":"nonpayable","type":"function"},{"inputs":[{"internalType":"uint256","name":"proposalId","type":"uint256"}],"name":"finalizeProposal","outputs":[],"stateMutability":"nonpayable","type":"function"},{"inputs":[{"internalType":"uint256","name":"propertyId","type":"uint256"}],"name":"getActivePolls","outputs":[{"components":[{"internalType":"uint256","name":"id","type":"uint256"},{"internalType":"uint256","name":"propertyId","type":"uint256"},{"internalType":"address","name":"creator","type":"address"},{"internalType":"string","name":"question","type":"string"},{"internalType":"string","name":"description","type":"string"},{"internalType":"string","name":"ipfsHash","type":"string"},{"internalType":"uint256","name":"votesFor","type":"uint256"},{"internalType":"uint256","name":"votesAgainst","type":"uint256"},{"internalType":"uint256","name":"startTime","type":"uint256"},{"internalType":"uint256","name":"endTime","type":"uint256"},{"internalType":"enum Governance.PollStatus","name":"status","type":"uint8"},{"internalType":"uint256","name":"linkedProposalId","type":"uint256"}],"internalType":"struct Governance.Poll[]","name":"","type":"tuple[]"}],"stateMutability":"view","type":"function"},{"inputs":[{"internalType":"uint256","name":"propertyId","type":"uint256"}],"name":"getActiveProposals","outputs":[{"components":[{"internalType":"uint256","name":"id","type":"uint256"},{"internalType":"uint256","name":"propertyId","type":"uint256"},{"internalType":"address","name":"proposer","type":"address"},{"internalType":"enum Governance.ProposalType","name":"proposalType","type":"uint8"},{"internalType":"string","name":"title","type":"string"},{"internalType":"string","name":"description","type":"string"},{"internalType":"string","name":"ipfsHash","type":"string"},{"internalType":"uint256","name":"votesFor","type":"uint256"},{"internalType":"uint256","name":"votesAgainst","type":"uint256"},{"internalType":"uint256","name":"votesAbstain","type":"uint256"},{"internalType":"uint256","name":"startTime","type":"uint256"},{"internalType":"uint256","name":"endTime","type":"uint256"},{"internalType":"uint256","name":"quorumRequired","type":"uint256"},{"internalType":"enum Governance.ProposalStatus","name":"status","type":"uint8"},{"internalType":"bytes","name":"executionData","type":"bytes"}],"internalType":"struct Governance.Proposal[]","name":"","type":"tuple[]"}],"stateMutability":"view","type":"function"},{"inputs":[{"internalType":"address","name":"voter","type":"address"}],"name":"getNonce","outputs":[{"internalType":"uint256","name":"","type":"uint256"}],"stateMutability":"view","type":"function"},{"inputs":[{"internalType":"uint256","name":"pollId","type":"uint256"}],"name":"getPoll","outputs":[{"components":[{"internalType":"uint256","name":"id","type":"uint256"},{"internalType":"uint256","name":"propertyId","type":"uint256"},{"internalType":"address","name":"creator","type":"address"},{"internalType":"string","name":"question","type":"string"},{"internalType":"string","name":"description","type":"string"},{"internalType":"string","name":"ipfsHash","type":"string"},{"internalType":"uint256","name":"votesFor","type":"uint256"},{"internalType":"uint256","name":"votesAgainst","type":"uint256"},{"internalType":"uint256","name":"startTime","type":"uint256"},{"internalType":"uint256","name":"endTime","type":"uint256"},{"internalType":"enum Governance.PollStatus","name":"status","type":"uint8"},{"internalType":"uint256","name":"linkedProposalId","type":"uint256"}],"internalType":"struct Governance.Poll","name":"","type":"tuple"}],"stateMutability":"view","type":"function"},{"inputs":[{"internalType":"uint256","name":"pollId","type":"uint256"}],"name":"getPollSupport","outputs":[{"internalType":"uint256","name":"","type":"uint256"}],"stateMutability":"view","type":"function"},{"inputs":[{"internalType":"uint256","name":"proposalId","type":"uint256"}],"name":"getProposal","outputs":[{"components":[{"internalType":"uint256","name":"id","type":"uint256"},{"internalType":"uint256","name":"propertyId","type":"uint256"},{"internalType":"address","name":"proposer","type":"address"},{"internalType":"enum Governance.ProposalType","name":"proposalType","type":"uint8"},{"internalType":"string","name":"title","type":"string"},{"internalType":"string","name":"description","type":"string"},{"internalType":"string","name":"ipfsHash","type":"string"},{"internalType":"uint256","name":"votesFor","type":"uint256"},{"internalType":"uint256","name":"votesAgainst","type":"uint256"},{"internalType":"uint256","name":"votesAbstain","type":"uint256"},{"internalType":"uint256","name":"startTime","type":"uint256"},{"internalType":"uint256","name":"endTime","type":"uint256"},{"internalType":"uint256","name":"quorumRequired","type":"uint256"},{"internalType":"enum Governance.ProposalStatus","name":"status","type":"uint8"},{"internalType":"bytes","name":"executionData","type":"bytes"}],"internalType":"struct Governance.Proposal","name":"","type":"tuple"}],"stateMutability":"view","type":"function"},{"inputs":[{"internalType":"bytes32","name":"role","type":"bytes32"}],"name":"getRoleAdmin","outputs":[{"internalType":"bytes32","name":"","type":"bytes32"}],"stateMutability":"view","type":"function"},{"inputs":[{"internalType":"uint256","name":"proposalId","type":"uint256"},{"internalType":"address","name":"voter","type":"address"}],"name":"getVote","outputs":[{"components":[{"internalType":"bool","name":"hasVoted","type":"bool"},{"internalType":"uint8","name":"support","type":"uint8"},{"internalType":"uint256","name":"weight","type":"uint256"}],"internalType":"struct Governance.Vote","name":"","type":"tuple"}],"stateMutability":"view","type":"function"},{"inputs":[{"internalType":"address","name":"voter","type":"address"}],"name":"getVoteToEarnBonus","outputs":[{"internalType":"uint256","name":"","type":"uint256"}],"stateMutability":"view","type":"function"},{"inputs":[{"internalType":"bytes32","name":"role","type":"bytes32"},{"internalType":"address","name":"account","type":"address"}],"name":"grantRole","outputs":[],"stateMutability":"nonpayable","type":"function"},{"inputs":[{"internalType":"bytes32","name":"role","type":"bytes32"},{"internalType":"address","name":"account","type":"address"}],"name":"hasRole","outputs":[{"internalType":"bool","name":"","type":"bool"}],"stateMutability":"view","type":"function"},{"inputs":[{"internalType":"address","name":"","type":"address"}],"name":"lastVoteTimestamp","outputs":[{"internalType":"uint256","name":"","type":"uint256"}],"stateMutability":"view","type":"function"},{"inputs":[{"internalType":"address","name":"","type":"address"}],"name":"nonces","outputs":[{"internalType":"uint256","name":"","type":"uint256"}],"stateMutability":"view","type":"function"},{"inputs":[],"name":"pollCount","outputs":[{"internalType":"uint256","name":"","type":"uint256"}],"stateMutability":"view","type":"function"},{"inputs":[{"internalType":"uint256","name":"","type":"uint256"}],"name":"pollParticipants","outputs":[{"internalType":"uint256","name":"","type":"uint256"}],"stateMutability":"view","type":"function"},{"inputs":[{"internalType":"uint256","name":"","type":"uint256"},{"internalType":"address","name":"","type":"address"}],"name":"pollVotes","outputs":[{"internalType":"bool","name":"hasVoted","type":"bool"},{"internalType":"bool","name":"support","type":"bool"}],"stateMutability":"view","type":"function"},{"inputs":[{"internalType":"uint256","name":"","type":"uint256"}],"name":"polls","outputs":[{"internalType":"uint256","name":"id","type":"uint256"},{"internalType":"uint256","name":"propertyId","type":"uint256"},{"internalType":"address","name":"creator","type":"address"},{"internalType":"string","name":"question","type":"string"},{"internalType":"string","name":"description","type":"string"},{"internalType":"string","name":"ipfsHash","type":"string"},{"internalType":"uint256","name":"votesFor","type":"uint256"},{"internalType":"uint256","name":"votesAgainst","type":"uint256"},{"internalType":"uint256","name":"startTime","type":"uint256"},{"internalType":"uint256","name":"endTime","type":"uint256"},{"internalType":"enum Governance.PollStatus","name":"status","type":"uint8"},{"internalType":"uint256","name":"linkedProposalId","type":"uint256"}],"stateMutability":"view","type":"function"},{"inputs":[],"name":"propertyToken","outputs":[{"internalType":"contract IPropertyToken","name":"","type":"address"}],"stateMutability":"view","type":"function"},{"inputs":[],"name":"proposalCount","outputs":[{"internalType":"uint256","name":"","type":"uint256"}],"stateMutability":"view","type":"function"},{"inputs":[{"internalType":"uint256","name":"","type":"uint256"}],"name":"proposals","outputs":[{"internalType":"uint256","name":"id","type":"uint256"},{"internalType":"uint256","name":"propertyId","type":"uint256"},{"internalType":"address","name":"proposer","type":"address"},{"internalType":"enum Governance.ProposalType","name":"proposalType","type":"uint8"},{"internalType":"string","name":"title","type":"string"},{"internalType":"string","name":"description","type":"string"},{"internalType":"string","name":"ipfsHash","type":"string"},{"internalType":"uint256","name":"votesFor","type":"uint256"},{"internalType":"uint256","name":"votesAgainst","type":"uint256"},{"internalType":"uint256","name":"votesAbstain","type":"uint256"},{"internalType":"uint256","name":"startTime","type":"uint256"},{"internalType":"uint256","name":"endTime","type":"uint256"},{"internalType":"uint256","name":"quorumRequired","type":"uint256"},{"internalType":"enum Governance.ProposalStatus","name":"status","type":"uint8"},{"internalType":"bytes","name":"executionData","type":"bytes"}],"stateMutability":"view","type":"function"},{"inputs":[{"internalType":"bytes32","name":"role","type":"bytes32"},{"internalType":"address","name":"callerConfirmation","type":"address"}],"name":"renounceRole","outputs":[],"stateMutability":"nonpayable","type":"function"},{"inputs":[{"internalType":"bytes32","name":"role","type":"bytes32"},{"internalType":"address","name":"account","type":"address"}],"name":"revokeRole","outputs":[],"stateMutability":"nonpayable","type":"function"},{"inputs":[{"internalType":"uint256","name":"newBonus","type":"uint256"}],"name":"setVoteToEarnBonus","outputs":[],"stateMutability":"nonpayable","type":"function"},{"inputs":[{"internalType":"uint256","name":"newPeriod","type":"uint256"}],"name":"setVotingPeriod","outputs":[],"stateMutability":"nonpayable","type":"function"},{"inputs":[{"internalType":"bytes4","name":"interfaceId","type":"bytes4"}],"name":"supportsInterface","outputs":[{"internalType":"bool","name":"","type":"bool"}],"stateMutability":"view","type":"function"},{"inputs":[{"internalType":"uint256","name":"","type":"uint256"}],"name":"totalVotingPower","outputs":[{"internalType":"uint256","name":"","type":"uint256"}],"stateMutability":"view","type":"function"},{"inputs":[{"internalType":"uint256","name":"pollId","type":"uint256"},{"internalType":"bool","name":"support","type":"bool"}],"name":"votePoll","outputs":[],"stateMutability":"nonpayable","type":"function"},{"inputs":[],"name":"voteToEarnBonus","outputs":[{"internalType":"uint256","name":"","type":"uint256"}],"stateMutability":"view","type":"function"},{"inputs":[{"internalType":"address","name":"","type":"address"}],"name":"voterParticipationCount","outputs":[{"internalType":"uint256","name":"","type":"uint256"}],"stateMutability":"view","type":"function"},{"inputs":[{"internalType":"uint256","name":"","type":"uint256"},{"internalType":"address","name":"","type":"address"}],"name":"votes","outputs":[{"internalType":"bool","name":"hasVoted","type":"bool"},{"internalType":"uint8","name":"support","type":"uint8"},{"internalType":"uint256","name":"weight","type":"uint256"}],"stateMutability":"view","type":"function"},{"inputs":[],"name":"votingPeriod","outputs":[{"internalType":"uint256","name":"","type":"uint256"}],"stateMutability":"view","type":"function"}],"evm":{"bytecode":{"linkReferences":{},"object":"60a03462000199576001600160401b0390601f6200438438819003918201601f1916830192919084841183851017620001835781602092849260409687528339810103126200019957516001600160a01b0381169081900362000199576001805562093a806004556032600555600280546001600160a01b0319169190911790556200008b33620001ba565b5062000097336200023a565b50620000a333620002dc565b50620000af3362000379565b50601460208251620000c1816200019e565b828152017f52657669746148756220476f7665726e616e636500000000000000000000000081522090600160208251620000fb816200019e565b82815201603160f81b8152209080519160208301937f8b73c3c69bb8fe3d512ecc4cf759cc79239f7b179b0ffacaa9a75d522b39400f85528284015260608301524660808301523060a083015260a0825260c0820193828510908511176200018357839052519020608052613f4d90816200041782396080518181816124880152612b5c0152f35b634e487b7160e01b600052604160045260246000fd5b600080fd5b604081019081106001600160401b038211176200018357604052565b6001600160a01b031660008181527fad3228b676f7d3cd4284a5443f17f1962b36e491b30a40b2405849e597ba5fb5602052604081205490919060ff166200023657818052816020526040822081835260205260408220600160ff198254161790553391600080516020620043648339815191528180a4600190565b5090565b6001600160a01b031660008181527f3412d5605ac6cd444957cedb533e5dacad6378b4bc819ebe3652188a665066d560205260408120549091907fb09aa5aeb3702cfd50b6b62bc4532604938f21248a27a1d5ca736082b6819cc19060ff16620002d757808352826020526040832082845260205260408320600160ff1982541617905560008051602062004364833981519152339380a4600190565b505090565b6001600160a01b031660008181527fdae2aa361dfd1ca020a396615627d436107c35eff9fe7738a3512819782d706960205260408120549091907fd8aa0f3194971a2a116679f7c2090f6939c8d4e01a2a8d7e41d55e5351469e639060ff16620002d757808352826020526040832082845260205260408320600160ff1982541617905560008051602062004364833981519152339380a4600190565b6001600160a01b031660008181527ffaf93c3d007e112089dc8351e013e6685ef67703975d0224b26fc45941d4f1f560205260408120549091907fe2b7fb3b832174769106daebcfd6d1970523240dda11281102db9363b83b0dc49060ff16620002d757808352826020526040832082845260205260408320600160ff1982541617905560008051602062004364833981519152339380a460019056fe6080604052600436101561001257600080fd5b60003560e01c8063013cf08b1461303f57806301ffc9a714612fe957806302a251a314612fcb57806307bd026514612f905780630d61b51914612e805780631a8cbcaa14612e37578063248a9ca314612e08578063248bd47114612deb5780632d0335ab146112f05780632dcf0d731461296b5780632f2ff15d1461292c578063364478e2146124ab5780633644e5151461247057806336568abe146124295780633d8803e21461240c57806342a7c614146112eb57806343ae2695146123e35780634ce83cdb14611a97578063536f9f4214611a6b5780635394c87914611a4e5780635652077c1461191357806356781388146117075780635c7b264d146116cd5780636213e5ea14611535578063637e54ac146114dd57806363f0c7ff1461132a5780637ecebe00146112f0578063808c4479146112eb57806386522973146112b0578063872d1544146112245780638f61f4f5146111e957806391d148541461119c5780639207891d1461117e578063926d7d7f146111435780639b699e5714610a275780639c4e99ca14610a095780639d79a9eb146108d0578063a217fddf146108b4578063ac2f007414610783578063b277d02a14610766578063bc3f931f146106c8578063c3b028e21461069c578063c7f758a81461064f578063d23254b4146105ec578063d547741f146105ab578063da35c6641461058d578063dd9deb1b1461056f578063de1cf4ad14610535578063e0a8f6f51461040b578063ea0217cf14610369578063ecc52c041461033e5763f43b87781461025857600080fd5b346103395760203660031901126103395760043580600052600c6020526040600020600a81019081549060ff82166003811015610323576102999015613b4d565b600981015442106102e9577f76254391687772340030bc79660c2d1e15dad744f94894a52e52863b5fca111592600160409360ff19161790556007600682015491015482519182526020820152a2005b60405162461bcd60e51b8152602060048201526012602482015271141bdb1b081b9bdd08195b991959081e595d60721b6044820152606490fd5b634e487b7160e01b600052602160045260246000fd5b600080fd5b3461033957602036600319011261033957602061036161035c61341f565b613b8b565b604051908152f35b3461033957602036600319011261033957600435610385613c1b565b62015180811015806103fe575b156103c8576020817f651c77f42613a075437aa794c44471e3abc3a661956a67aaee165bb7396974aa92600455604051908152a1005b60405162461bcd60e51b815260206004820152600e60248201526d125b9d985b1a59081c195c9a5bd960921b6044820152606490fd5b5062278d00811115610392565b346103395760208060031936011261033957600435908160005260068152604060002060018060a01b0360028201541633148015610513575b156104dd57600c019081549060ff8216600681101561032357600181149081156104d4575b50156104a0575060ff191660051790557f416e669c63d9a3a5e36ee7cc7e2104b8db28ccd286aa18966e98fa230c73b08c600080a2005b6064906040519062461bcd60e51b82526004820152600d60248201526c10d85b9b9bdd0818d85b98d95b609a1b6044820152fd5b90501585610469565b60405162461bcd60e51b815260048101839052600e60248201526d139bdd08185d5d1a1bdc9a5e995960921b6044820152606490fd5b506000805260008252604060002033600052825260ff60406000205416610444565b34610339576020366003190112610339576001600160a01b0361055661341f565b16600052600b6020526020604060002054604051908152f35b34610339576000366003190112610339576020600554604051908152f35b34610339576000366003190112610339576020600754604051908152f35b34610339576040366003190112610339576105ea6004356105ca613435565b908060005260006020526105e5600160406000200154613c55565b613d1c565b005b3461033957604036600319011261033957610605613435565b600435600052600860205260406000209060018060a01b0316600052602052606060406000206001815491015460ff604051928181161515845260081c1660208301526040820152f35b346103395760203660031901126103395761066861395f565b50600435600052600660205261069861068460406000206139f7565b6040519182916020835260208301906134ce565b0390f35b3461033957602036600319011261033957600435600052600f6020526020604060002054604051908152f35b34610339576040366003190112610339576106e1613435565b6000604080516106f0816132cf565b8281528260208201520152600435600052600860205260406000209060018060a01b03166000526020526060604060002060405161072d816132cf565b60ff82546040600183831615159586865284602087019460081c1684520154930192835260405193845251166020830152516040820152f35b346103395760003660031901126103395760206040516107d08152f35b3461033957602036600319011261033957600435600052600c6020526040600020805490600181015490600160a01b600190036002820154169260405191828060038301906107d191613201565b036107dc90846132ea565b60405192836107ee8160048501613201565b036107f990856132ea565b604051938461080b8160058601613201565b0361081690866132ea565b600683015494600784015490600885015492600986015494600a87015460ff1696600b0154976040519b8c9b610180928d5260208d015260408c01528060608c01528a0161086391613315565b89810360808b015261087491613315565b88810360a08a015261088591613315565b9560c088015260e087015261010086015261012085015261014084016108aa91613362565b6101608301520390f35b3461033957600036600319011261033957602060405160008152f35b346103395760403660031901126103395760043560243590811515918281036103395781600052602090600c825260406000209060ff600a8301541660038110156103235761091f9015613b4d565b60098201544210156109d757907fdf13ce4fcc43c19a08df4ffa6d471ae7bb1d6ffc3beb528ad821c873f798ce2f929184600052600e8352604060002033600052835260406000206001815461097860ff8216156137f0565b61ff008960081b169061ffff19161717905584600052600f835260406000206109a1815461382c565b9055156109c3576006016109b5815461382c565b90555b6040519384523393a3005b6007016109d0815461382c565b90556109b8565b60405162461bcd60e51b815260048101849052600a602482015269141bdb1b08195b99195960b21b6044820152606490fd5b34610339576020366003190112610339576020610361600435613b03565b346103395760c03660031901126103395760046024351015610339576044356001600160401b03811161033957610a6290369060040161345b565b6064356001600160401b03811161033957610a8190369060040161345b565b906084356001600160401b03811161033957610aa190369060040161345b565b9060a4356001600160401b03811161033957610ac190369060040161345b565b610ac9613bbf565b600254604051636ded6a1960e11b815260048035908201523360248201526001600160a01b0390911690602081604481855afa80156111035760009061110f575b610b16915015156138fc565b60075493610b238561382c565b60075560246020610b348235613d91565b9360405192838092638cdc1e8760e01b825260043560048301525afa908115611103576000916110d1575b50801561107b57856000526009602052604060002055610b8160045442613879565b9060405196610b8f886132b3565b8688526004356020890152336040890152610bab60243561330b565b602435606089015285608089015260a088015260c0870152600060e0870152600061010087015260006101208701524261014087015261016086015261018085015260016101a08501526101c0840152816000526006602052604060002083518155602084015160018201556002810160018060a01b036040860151168154906060870151610c398161330b565b610c428161330b565b6001600160a81b03199092161760a09190911b60ff60a01b1617905560808401518051906001600160401b038211610f0f57610c8e82610c8560038601546131c7565b60038601613886565b602090601f831160011461100957610cbf929160009183610e9e575b50508160011b916000199060031b1c19161790565b60038201555b60a08401518051906001600160401b038211610f0f57610cf582610cec60048601546131c7565b60048601613886565b602090601f8311600114610f9757610d25929160009183610e9e5750508160011b916000199060031b1c19161790565b60048201555b60c08401518051906001600160401b038211610f0f57610d5b82610d5260058601546131c7565b60058601613886565b602090601f8311600114610f2557610d8b929160009183610e9e5750508160011b916000199060031b1c19161790565b60058201555b60e08401516006820155610100840151600782015561012084015160088201556101408401516009820155610160840151600a820155610180840151600b8201556101a084015160068110156103235781610df4600d92600c6101c095016135b5565b019301519283516001600160401b038111610f0f57602094610e2082610e1a85546131c7565b85613886565b8590601f8311600114610ea957610e4f929160009183610e9e5750508160011b916000199060031b1c19161790565b90555b81600080516020613ef8833981519152604051338152610e7360243561330b565b602435868201526060604082015280610e93600435956060830190613315565b0390a3604051908152f35b015190508780610caa565b90601f1983169184600052876000209260005b818110610ef85750908460019594939210610edf575b505050811b019055610e52565b015160001960f88460031b161c19169055868080610ed2565b929389600181928786015181550195019301610ebc565b634e487b7160e01b600052604160045260246000fd5b9190600584016000526020600020906000935b601f1984168510610f7c576001945083601f19811610610f63575b505050811b016005820155610d91565b015160001960f88460031b161c19169055868080610f53565b81810151835560209485019460019093019290910190610f38565b9190600484016000526020600020906000935b601f1984168510610fee576001945083601f19811610610fd5575b505050811b016004820155610d2b565b015160001960f88460031b161c19169055868080610fc5565b81810151835560209485019460019093019290910190610faa565b9190600384016000526020600020906000935b601f1984168510611060576001945083601f19811610611047575b505050811b016003820155610cc5565b015160001960f88460031b161c19169055868080611037565b8181015183556020948501946001909301929091019061101c565b60405162461bcd60e51b815260206004820152602860248201527f4e6f20766f74696e6720706f7765722065786973747320666f7220746869732060448201526770726f706572747960c01b6064820152608490fd5b90506020813d6020116110fb575b816110ec602093836132ea565b81010312610339575187610b5f565b3d91506110df565b6040513d6000823e3d90fd5b506020813d60201161113b575b81611129602093836132ea565b8101031261033957610b169051610b0a565b3d915061111c565b346103395760003660031901126103395760206040517fe2b7fb3b832174769106daebcfd6d1970523240dda11281102db9363b83b0dc48152f35b34610339576000366003190112610339576020600d54604051908152f35b34610339576040366003190112610339576111b5613435565b600435600052600060205260406000209060018060a01b0316600052602052602060ff604060002054166040519015158152f35b346103395760003660031901126103395760206040517fb09aa5aeb3702cfd50b6b62bc4532604938f21248a27a1d5ca736082b6819cc18152f35b3461033957602036600319011261033957600435611240613c1b565b6101f4811161127a576020817f4ade7322d9a0c41dc254574f72d3d442f06addcc77917dcb9cb1ac4441d1b20f92600555604051908152a1005b60405162461bcd60e51b815260206004820152600e60248201526d084dedceae640e8dede40d0d2ced60931b6044820152606490fd5b346103395760003660031901126103395760206040517fa122aedc7c2408a97bcfe5d8ff1f6a6d7bf779a8b6dd3d72ff503e8fcf9d2eb98152f35b6134b1565b34610339576020366003190112610339576001600160a01b0361131161341f565b1660005260036020526020604060002054604051908152f35b3461033957602080600319360112610339576004356000906000600d54905b818110611487575061137361135d84613948565b9361136b60405195866132ea565b808552613948565b601f19018460005b828110611471575050506000805b8281106113ee57604080518781528651818901819052600092600582901b8301810191898b01918b9085015b8287106113c25785850386f35b9091929382806113de600193603f198a8203018652885161336f565b96019201960195929190926113b5565b80600052600c908187526040600020918560018401541480611454575b6001935061141b575b5001611389565b81600052875261144d60406000209361143c6114368261382c565b95613629565b611446828a6139cd565b52876139cd565b5087611414565b5091600a60ff91015416916003831015610323576001921561140b565b6114796135cd565b82828801015201859061137b565b80600052600c855260406000208360018201541490816114c4575b506114b0575b600101611349565b926114bc60019161382c565b9390506114a8565b60ff9150600a01541660038110156103235715866114a2565b34610339576040366003190112610339576114f6613435565b600435600052600e60205260406000209060018060a01b03166000526020526040806000205460ff8251918181161515835260081c1615156020820152f35b3461033957602080600319360112610339576004356000906000600754905b81811061166e575061156861135d84613948565b601f19018460005b828110611658575050506000805b8281106115e357604080518781528651818901819052600092600582901b8301810191898b01918b9085015b8287106115b75785850386f35b9091929382806115d3600193603f198a820301865288516134ce565b96019201960195929190926115aa565b80600052600690818752604060002091600192868482015414908161163c575b5060019350611614575b500161157e565b81600052875261163560406000209361143c61162f8261382c565b956139f7565b508761160d565b60ff9150600c0154169281841015610323576001931489611603565b61166061395f565b828288010152018590611570565b80600052600680865260406000209060019085828401541492836116b1575b50505061169d575b600101611554565b926116a960019161382c565b939050611695565b60ff91929350600c01541690811015610323571486808061168d565b34610339576020366003190112610339576001600160a01b036116ee61341f565b16600052600a6020526020604060002054604051908152f35b346103395760403660031901126103395760043561172361344b565b61172b613c7b565b816000526020916006835260406000209160ff600c840154169360068510156103235761175b60018096146136f2565b61176b6009850154421015613734565b61177a600a8501544210613775565b60ff82169361178c60028611156137b0565b836000526008825260406000203360005282526117f560406000208054946117b760ff8716156137f0565b60025489850154604051636ded6a1960e11b8152600481019190915233602482015293869185916001600160a01b0390911690829081906044820190565b03915afa9586156111035789936000976118da575b50839291879461183d9261181f87151561383b565b61ff001990911661ffff199091161760089190911b61ff0016178255565b0155846118b057600701611852838254613879565b90555b33600052600a8152604060002061186c815461382c565b905533600052600b8152426040600020556040519384528301527fb83d25c6a5d258561330739951487acb4bd09ba5190b5d32c4f261817d90679260403393a38055005b8486036118cc576006016118c5838254613879565b9055611855565b6008016118c5838254613879565b96509250908486813d811161190c575b6118f481836132ea565b8101031261033957945194889290919061183d61180a565b503d6118ea565b3461033957602036600319011261033957600435806000526006602052604060002090600c82019182549160ff8316600681101561032357600161195791146136f2565b600a8201544210611a165760068201549160078101549161198661197b8486613879565b600884015490613879565b60009182526009602052604090912054908115611a0a57612710908181029181830414901517156119f457600b916119bd916138dc565b915b0154111591826119ea575b5050156119df5750805460ff19166002179055005b60ff19166003179055005b11905083806119ca565b634e487b7160e01b600052601160045260246000fd5b5050600b6000916119bf565b60405162461bcd60e51b815260206004820152601060248201526f159bdd1a5b99c81b9bdd08195b99195960821b6044820152606490fd5b346103395760003660031901126103395760206040516113888152f35b346103395760203660031901126103395760043560005260096020526020604060002054604051908152f35b346103395760603660031901126103395760046024351015610339576044356001600160401b03811161033957611ad290369060040161345b565b611ada613bbf565b600435600052600c60205260406000209060ff600a8301541660038110156103235760010361239e57600b820154612365576006820154611b1f600784015482613879565b90811561233057612710908181029181830414901517156119f457610bb891611b47916138dc565b106122eb576002546001830154604051636ded6a1960e11b815260048101919091523360248201526001600160a01b039091169290602081604481875afa8015611103576000906122b7575b611b9f915015156138fc565b60075491611bac8361382c565b600755611bba602435613d91565b6101f48111156122b157806101f3198101116119f4576101f31901935b60206001840154602460405180948193638cdc1e8760e01b835260048301525afa9081156111035760009161227f575b50801561224157836000526009602052604060002055600182015493611c2f60045442613879565b60405195611c3c876132b3565b8587526020870152336040870152611c5560243561330b565b6024356060870152604051611c7881611c718160038901613201565b03826132ea565b6080870152604051611c9181611c718160048901613201565b60a0870152604051611caa81611c718160058901613201565b60c0870152600060e0870152600061010087015260006101208701524261014087015261016086015261018085015260016101a08501526101c084015281600052600660205260406000209280518455602081015160018501556002840160018060a01b036040830151168154906060840151611d268161330b565b611d2f8161330b565b6001600160a81b03199092161760a09190911b60ff60a01b1617905560808101518051906001600160401b038211610f0f57611d7b82611d7260038901546131c7565b60038901613886565b602090601f83116001146121cf57611dab929160009183610e9e5750508160011b916000199060031b1c19161790565b60038501555b60a08101518051906001600160401b038211610f0f57611de182611dd860048901546131c7565b60048901613886565b602090601f831160011461215d57611e11929160009183610e9e5750508160011b916000199060031b1c19161790565b60048501555b60c08101518051906001600160401b038211610f0f57611e4782611e3e60058901546131c7565b60058901613886565b602090601f83116001146120eb57611e77929160009183610e9e5750508160011b916000199060031b1c19161790565b60058501555b60e08101516006850155610100810151600785015561012081015160088501556101408101516009850155610160810151600a850155610180810151600b8501556101a081015190600682101561032357611ede6101c092600c87016135b5565b01519283516001600160401b038111610f0f57602094611f0e82611f05600d8601546131c7565b600d8601613886565b8590601f831160011461207d579180611f4092600d946000926120725750508160011b916000199060031b1c19161790565b9101555b8160ff19600281600a8501541617600a84015581600b84015560018301549260405191338352611f7560243561330b565b60243587840152606060408401526000916003810154611f94816131c7565b92836060870152600182169182600014612044575050600114611ffa575b50509080600080516020613ef8833981519152920390a360405190806004357ff57507588a3f55547e832ad7906fc1c90a328d2c78895bc24abf93c41e8568a0600080a38152f35b60030160009081528781209092505b81831061202c575050810160800181600080516020613ef8833981519152611fb2565b80548385016080015286945091870191600101612009565b86955060809350600080516020613ef8833981519152969492501682840152151560051b8201019192611fb2565b015190508880610caa565b90600d8401600052866000209160005b601f19851681106120d45750918391600193600d95601f198116106120bb575b505050811b01910155611f44565b015160001960f88460031b161c191690558780806120ad565b91928860018192868501518155019401920161208d565b9190600587016000526020600020906000935b601f1984168510612142576001945083601f19811610612129575b505050811b016005850155611e7d565b015160001960f88460031b161c19169055868080612119565b818101518355602094850194600190930192909101906120fe565b9190600487016000526020600020906000935b601f19841685106121b4576001945083601f1981161061219b575b505050811b016004850155611e17565b015160001960f88460031b161c1916905586808061218b565b81810151835560209485019460019093019290910190612170565b9190600387016000526020600020906000935b601f1984168510612226576001945083601f1981161061220d575b505050811b016003850155611db1565b015160001960f88460031b161c191690558680806121fd565b818101518355602094850194600190930192909101906121e2565b60405162461bcd60e51b81526020600482015260166024820152754e6f20766f74696e6720706f7765722065786973747360501b6044820152606490fd5b90506020813d6020116122a9575b8161229a602093836132ea565b81010312610339575185611c07565b3d915061228d565b93611bd7565b506020813d6020116122e3575b816122d1602093836132ea565b8101031261033957611b9f9051611b93565b3d91506122c4565b60405162461bcd60e51b815260206004820152601960248201527f496e73756666696369656e7420706f6c6c20737570706f7274000000000000006044820152606490fd5b60405162461bcd60e51b815260206004820152600d60248201526c139bc81d9bdd195cc818d85cdd609a1b6044820152606490fd5b60405162461bcd60e51b8152602060048201526011602482015270105b1c9958591e4818dbdb9d995c9d1959607a1b6044820152606490fd5b60405162461bcd60e51b815260206004820152601860248201527f506f6c6c206d75737420626520656e64656420666972737400000000000000006044820152606490fd5b34610339576000366003190112610339576002546040516001600160a01b039091168152602090f35b346103395760003660031901126103395760206040516101f48152f35b3461033957604036600319011261033957612442613435565b336001600160a01b0382160361245e576105ea90600435613d1c565b60405163334bd91960e11b8152600490fd5b346103395760003660031901126103395760206040517f00000000000000000000000000000000000000000000000000000000000000008152f35b346103395760a0366003190112610339576024356001600160401b038111610339576124db90369060040161345b565b6044356001600160401b038111610339576124fa90369060040161345b565b906064356001600160401b0381116103395761251a90369060040161345b565b906201518060843510158061291d575b156128e557600d549161253c8361382c565b600d5561254b60843542613879565b906040519461255986613297565b8486526004356020870152336040870152836060870152608086015260a0850152600060c0850152600060e0850152426101008501526101208401526000610140840152600061016084015281600052600c602052604060002083518155602084015160018201556002810160018060a01b036040860151166bffffffffffffffffffffffff60a01b82541617905560608401518051906001600160401b038211610f0f5761260f82610c8560038601546131c7565b602090601f83116001146128735761263f929160009183610e9e5750508160011b916000199060031b1c19161790565b60038201555b60808401518051906001600160401b038211610f0f5761266c82610cec60048601546131c7565b602090601f83116001146128055761269c929160009183610e9e5750508160011b916000199060031b1c19161790565b60048201555b60a08401518051906001600160401b038211610f0f576126c982610d5260058601546131c7565b602090601f8311600114612797576126f9929160009183610e9e5750508160011b916000199060031b1c19161790565b60058201555b60c0840151600682015560e0840151600782015561010084015160088201556101208401516009820155600a8101610140850151600381101561032357602095600b926101609260ff801983541691161790550151910155817f658fccfc8de51891b480d49e504fbb0f8f9b43f13522a475d1729a74531a9e2260405133815260408682015280610e93600435956040830190613315565b90601f198316916005850160005260206000209260005b8181106127ed57509084600195949392106127d4575b505050811b0160058201556126ff565b015160001960f88460031b161c191690558680806127c4565b929360206001819287860151815501950193016127ae565b90601f198316916004850160005260206000209260005b81811061285b5750908460019594939210612842575b505050811b0160048201556126a2565b015160001960f88460031b161c19169055868080612832565b9293602060018192878601518155019501930161281c565b9190600384016000526020600020906000935b601f19841685106128ca576001945083601f198116106128b1575b505050811b016003820155612645565b015160001960f88460031b161c191690558680806128a1565b81810151835560209485019460019093019290910190612886565b60405162461bcd60e51b815260206004820152601060248201526f24b73b30b634b210323ab930ba34b7b760811b6044820152606490fd5b5062278d00608435111561252a565b34610339576040366003190112610339576105ea60043561294b613435565b90806000526000602052612966600160406000200154613c55565b613c9e565b346103395760e03660031901126103395761298461344b565b6044356001600160a01b03811690036103395760ff6084351660843503610339573360009081527ffaf93c3d007e112089dc8351e013e6685ef67703975d0224b26fc45941d4f1f560205260409020547fe2b7fb3b832174769106daebcfd6d1970523240dda11281102db9363b83b0dc49060ff1615612dcd5750612a07613c7b565b6064354211612d94576004356000526006602052604060002060ff600c820154166006811015610323576001612a3d91146136f2565b612a4d6009820154421015613734565b612a5c600a8201544210613775565b612a6c600260ff841611156137b0565b6004356000526008602052604060002060018060a01b0360443516600052602052604060002090612aa160ff835416156137f0565b6044356001600160a01b03166000908152600360205260409020805490612ac78261382c565b90556040519060208201907fa122aedc7c2408a97bcfe5d8ff1f6a6d7bf779a8b6dd3d72ff503e8fcf9d2eb98252600435604084015260ff8616606084015260018060a01b0360443516608084015260a083015260643560c083015260c0825260e082016001600160401b039183821083831117610f0f576101609082604052845190209361010081019461190160f01b86527f000000000000000000000000000000000000000000000000000000000000000061010283015261012282015260428352019181831090831117610f0f57612bc092612bb79260405260c4359160a4359160843591519020613ddc565b90929192613e6c565b6001600160a01b036044358116911603612d5b576002546001820154604051636ded6a1960e11b815260048101919091526001600160a01b036044803582166024840152919492602092869290918391165afa92831561110357600093612d26575b5060018391612c3283151561383b565b805461ff0019831661ffff1990911617600887901b61ff0016178155015560ff8316612cf857600701612c66828254613879565b90555b6044356001600160a01b03166000908152600a602052604090208054612c8e9061382c565b905560018060a01b0360443516600052600b6020524260406000205560ff60405192168252602082015233604082015260018060a01b0360443516907fb7a759f14619c0391b65e3f8ceb8fd342a3e24929e81d83493445a4a1c87d0fc606060043592a360018055005b60ff8316600103612d1857600601612d11828254613879565b9055612c69565b600801612d11828254613879565b92506020833d602011612d53575b81612d41602093836132ea565b81010312610339576001925192612c22565b3d9150612d34565b60405162461bcd60e51b8152602060048201526011602482015270496e76616c6964207369676e617475726560781b6044820152606490fd5b60405162461bcd60e51b815260206004820152601160248201527014da59db985d1d5c9948195e1c1a5c9959607a1b6044820152606490fd5b6044906040519063e2517d3f60e01b82523360048301526024820152fd5b346103395760003660031901126103395760206040516109c48152f35b346103395760203660031901126103395760043560005260006020526020600160406000200154604051908152f35b3461033957602036600319011261033957612e506135cd565b50600435600052600c602052610698612e6c6040600020613629565b60405191829160208352602083019061336f565b34610339576020366003190112610339573360009081527fdae2aa361dfd1ca020a396615627d436107c35eff9fe7738a3512819782d70696020526040902054600435907fd8aa0f3194971a2a116679f7c2090f6939c8d4e01a2a8d7e41d55e5351469e639060ff1615612dcd5750612ef7613c7b565b806000526006602052600c604060002001805460ff8116600681101561032357600203612f525760ff191660041790557f712ae1383f79ac853f8d882153778e0260ef8f03b504e2866e0593e04d2b291f600080a260018055005b60405162461bcd60e51b8152602060048201526016602482015275141c9bdc1bdcd85b081b9bdd081cdd58d8d95959195960521b6044820152606490fd5b346103395760003660031901126103395760206040517fd8aa0f3194971a2a116679f7c2090f6939c8d4e01a2a8d7e41d55e5351469e638152f35b34610339576000366003190112610339576020600454604051908152f35b346103395760203660031901126103395760043563ffffffff60e01b811680910361033957602090637965db0b60e01b811490811561302e575b506040519015158152f35b6301ffc9a760e01b14905082613023565b346103395760203660031901126103395760043560005260066020526040600020805490600181015490600281015492608080600384019061308091613201565b0360809061308d916132ea565b604051908161309f8160048601613201565b036130aa90836132ea565b60405191826130bc8160058701613201565b036130c790846132ea565b60068401549260078501546008860154600987015491600a88015493600b89015495600c8a015460ff169760405180600d819d019061310591613201565b03613110908c6132ea565b6040519c8d9c8d6101e0938152602001528c600160a01b60019003821690604001528060a01c60ff166131429061330b565b60a01c60ff1660608d01528060808d01528b0160809061316191613315565b8b810360a08d015261317291613315565b8a810360c08c015261318391613315565b9660e08a01526101008901526101208801526101408701526101608601526101808501526101a084016131b591613355565b8281036101c084015261069891613315565b90600182811c921680156131f7575b60208310146131e157565b634e487b7160e01b600052602260045260246000fd5b91607f16916131d6565b805460009392613210826131c7565b918282526020936001916001811690816000146132785750600114613237575b5050505050565b90939495506000929192528360002092846000945b83861061326457505050500101903880808080613230565b80548587018301529401938590820161324c565b60ff19168685015250505090151560051b010191503880808080613230565b61018081019081106001600160401b03821117610f0f57604052565b6101e081019081106001600160401b03821117610f0f57604052565b606081019081106001600160401b03821117610f0f57604052565b90601f801991011681019081106001600160401b03821117610f0f57604052565b6004111561032357565b919082519283825260005b848110613341575050826000602080949584010152601f8019910116010190565b602081830181015184830182015201613320565b9060068210156103235752565b9060038210156103235752565b906133d46133c26133b0610180855185526020860151602086015260018060a01b036040870151166040860152606086015190806060870152850190613315565b60808501518482036080860152613315565b60a084015183820360a0850152613315565b9160c081015160c083015260e081015160e0830152610100808201519083015261012080820151908301526134126101408083015190840190613362565b6101608091015191015290565b600435906001600160a01b038216820361033957565b602435906001600160a01b038216820361033957565b6024359060ff8216820361033957565b81601f82011215610339578035906001600160401b038211610f0f576040519261348f601f8401601f1916602001856132ea565b8284526020838301011161033957816000926020809301838601378301015290565b34610339576000366003190112610339576020604051610bb88152f35b906135b29161354a6135386135266101e0845186526020850151602087015260018060a01b036040860151166040870152606085015161350d8161330b565b6060870152608085015190806080880152860190613315565b60a084015185820360a0870152613315565b60c083015184820360c0860152613315565b9160e082015160e08201526101008083015190820152610120808301519082015261014080830151908201526101608083015190820152610180808301519082015261359f6101a08084015190830190613355565b6101c08092015191818403910152613315565b90565b9060068110156103235760ff80198354169116179055565b604051906135da82613297565b8161016060009182815282602082015282604082015260608082015260606080820152606060a08201528260c08201528260e08201528261010082015282610120820152826101408201520152565b9060405161363681613297565b8092805482526001810154602083015260018060a01b03600282015416604083015260405161366c81611c718160038601613201565b606083015260405161368581611c718160048601613201565b608083015260405161369e81611c718160058601613201565b60a0830152600681015460c0830152600781015460e08301526008810154610100830152600981015461012083015260ff600a8201541660038110156103235761016091600b916101408501520154910152565b156136f957565b60405162461bcd60e51b815260206004820152601360248201527250726f706f73616c206e6f742061637469766560681b6044820152606490fd5b1561373b57565b60405162461bcd60e51b8152602060048201526012602482015271159bdd1a5b99c81b9bdd081cdd185c9d195960721b6044820152606490fd5b1561377c57565b60405162461bcd60e51b815260206004820152600c60248201526b159bdd1a5b99c8195b99195960a21b6044820152606490fd5b156137b757565b60405162461bcd60e51b8152602060048201526011602482015270496e76616c696420766f7465207479706560781b6044820152606490fd5b156137f757565b60405162461bcd60e51b815260206004820152600d60248201526c105b1c9958591e481d9bdd1959609a1b6044820152606490fd5b60001981146119f45760010190565b1561384257565b60405162461bcd60e51b815260206004820152600f60248201526e2737903b37ba34b733903837bbb2b960891b6044820152606490fd5b919082018092116119f457565b90601f811161389457505050565b6000916000526020600020906020601f850160051c830194106138d2575b601f0160051c01915b8281106138c757505050565b8181556001016138bb565b90925082906138b2565b81156138e6570490565b634e487b7160e01b600052601260045260246000fd5b1561390357565b60405162461bcd60e51b815260206004820152601b60248201527f4d75737420686f6c6420746f6b656e7320746f2070726f706f736500000000006044820152606490fd5b6001600160401b038111610f0f5760051b60200190565b6040519061396c826132b3565b60606101c083600080825280602083015280604083015280848301528360808301528360a08301528360c08301528060e083015280610100830152806101208301528061014083015280610160830152806101808301526101a08201520152565b80518210156139e15760209160051b010190565b634e487b7160e01b600052603260045260246000fd5b90604091825192613a07846132b3565b815484526001820154602085015260028201546001600160a01b03811682860152849060a01c60ff16613a398161330b565b60608201528151613a5181611c718160038801613201565b60808201528151613a6981611c718160048801613201565b60a08201528151613a8181611c718160058801613201565b60c0820152600683015460e0820152600783015461010082015260088301546101208201526009830154610140820152600a830154610160820152600b83015461018082015260ff600c8401541691600683101561032357600d93613af8613aff926101c0956101a0860152518096819301613201565b03846132ea565b0152565b600052600c6020526040600020613b236007600683015492015482613879565b8015613b4657612710918281029281840414901517156119f4576135b2916138dc565b5050600090565b15613b5457565b60405162461bcd60e51b815260206004820152600f60248201526e506f6c6c206e6f742061637469766560881b6044820152606490fd5b60018060a01b0316600052600b60205260406000205442034281116119f45762278d001015613bb957600090565b60055490565b3360009081527f3412d5605ac6cd444957cedb533e5dacad6378b4bc819ebe3652188a665066d560205260409020547fb09aa5aeb3702cfd50b6b62bc4532604938f21248a27a1d5ca736082b6819cc19060ff1615612dcd5750565b3360009081527fad3228b676f7d3cd4284a5443f17f1962b36e491b30a40b2405849e597ba5fb5602052604081205460ff1615612dcd5750565b80600052600060205260406000203360005260205260ff6040600020541615612dcd5750565b600260015414613c8c576002600155565b604051633ee5aeb560e01b8152600490fd5b9060009180835282602052604083209160018060a01b03169182845260205260ff60408420541615600014613d1757808352826020526040832082845260205260408320600160ff198254161790557f2f8788117e7eff1d82e926ec794901d17c78024a50270940304540a733656f0d339380a4600190565b505090565b9060009180835282602052604083209160018060a01b03169182845260205260ff604084205416600014613d175780835282602052604083208284526020526040832060ff1981541690557ff6391f5c32d9c69d2a47ea670b442974b53935d1edc7fd64eb21e047a839171b339380a4600190565b613d9a8161330b565b8015613dd557613da98161330b565b60018114613dce5780613dbd60029261330b565b14613dc85761138890565b6109c490565b50610bb890565b506107d090565b91907f7fffffffffffffffffffffffffffffff5d576e7357a4501ddfe92f46681b20a08411613e6057926020929160ff608095604051948552168484015260408301526060820152600092839182805260015afa15613e545780516001600160a01b03811615613e4b57918190565b50809160019190565b604051903d90823e3d90fd5b50505060009160039190565b613e758161330b565b80613e7e575050565b613e878161330b565b60018103613ea15760405163f645eedf60e01b8152600490fd5b613eaa8161330b565b60028103613ecb5760405163fce698f760e01b815260048101839052602490fd5b80613ed760039261330b565b14613edf5750565b602490604051906335e2f38360e21b82526004820152fdfeb1d569dc5621a0a51229b7ac0eff81f3e6df70a3f72fe608aa58f74bb69d7bb6a26469706673582212205add0647e98807cc8c5cfd319f9ae647850aea74c4426b243b0919ded0e2224364736f6c634300081800332f8788117e7eff1d82e926ec794901d17c78024a50270940304540a733656f0d","opcodes":"PUSH1 0xA0 CALLVALUE PUSH3 0x199 JUMPI PUSH1 0x1 PUSH1 0x1 PUSH1 0x40 SHL SUB SWAP1 PUSH1 0x1F PUSH3 0x4384 CODESIZE DUP2 SWAP1 SUB SWAP2 DUP3 ADD PUSH1 0x1F NOT AND DUP4 ADD SWAP3 SWAP2 SWAP1 DUP5 DUP5 GT DUP4 DUP6 LT OR PUSH3 0x183 JUMPI DUP2 PUSH1 0x20 SWAP3 DUP5 SWAP3 PUSH1 0x40 SWAP7 DUP8 MSTORE DUP4 CODECOPY DUP2 ADD SUB SLT PUSH3 0x199 JUMPI MLOAD PUSH1 0x1 PUSH1 0x1 PUSH1 0xA0 SHL SUB DUP2 AND SWAP1 DUP2 SWAP1 SUB PUSH3 0x199 JUMPI PUSH1 0x1 DUP1 SSTORE PUSH3 0x93A80 PUSH1 0x4 SSTORE PUSH1 0x32 PUSH1 0x5 SSTORE PUSH1 0x2 DUP1 SLOAD PUSH1 0x1 PUSH1 0x1 PUSH1 0xA0 SHL SUB NOT AND SWAP2 SWAP1 SWAP2 OR SWAP1 SSTORE PUSH3 0x8B CALLER PUSH3 0x1BA JUMP JUMPDEST POP PUSH3 0x97 CALLER PUSH3 0x23A JUMP JUMPDEST POP PUSH3 0xA3 CALLER PUSH3 0x2DC JUMP JUMPDEST POP PUSH3 0xAF CALLER PUSH3 0x379 JUMP JUMPDEST POP PUSH1 0x14 PUSH1 0x20 DUP3 MLOAD PUSH3 0xC1 DUP2 PUSH3 0x19E JUMP JUMPDEST DUP3 DUP2 MSTORE ADD PUSH32 0x52657669746148756220476F7665726E616E6365000000000000000000000000 DUP2 MSTORE KECCAK256 SWAP1 PUSH1 0x1 PUSH1 0x20 DUP3 MLOAD PUSH3 0xFB DUP2 PUSH3 0x19E JUMP JUMPDEST DUP3 DUP2 MSTORE ADD PUSH1 0x31 PUSH1 0xF8 SHL DUP2 MSTORE KECCAK256 SWAP1 DUP1 MLOAD SWAP2 PUSH1 0x20 DUP4 ADD SWAP4 PUSH32 0x8B73C3C69BB8FE3D512ECC4CF759CC79239F7B179B0FFACAA9A75D522B39400F DUP6 MSTORE DUP3 DUP5 ADD MSTORE PUSH1 0x60 DUP4 ADD MSTORE CHAINID PUSH1 0x80 DUP4 ADD MSTORE ADDRESS PUSH1 0xA0 DUP4 ADD MSTORE PUSH1 0xA0 DUP3 MSTORE PUSH1 0xC0 DUP3 ADD SWAP4 DUP3 DUP6 LT SWAP1 DUP6 GT OR PUSH3 0x183 JUMPI DUP4 SWAP1 MSTORE MLOAD SWAP1 KECCAK256 PUSH1 0x80 MSTORE PUSH2 0x3F4D SWAP1 DUP2 PUSH3 0x417 DUP3 CODECOPY PUSH1 0x80 MLOAD DUP2 DUP2 DUP2 PUSH2 0x2488 ADD MSTORE PUSH2 0x2B5C ADD MSTORE RETURN JUMPDEST PUSH4 0x4E487B71 PUSH1 0xE0 SHL PUSH1 0x0 MSTORE PUSH1 0x41 PUSH1 0x4 MSTORE PUSH1 0x24 PUSH1 0x0 REVERT JUMPDEST PUSH1 0x0 DUP1 REVERT JUMPDEST PUSH1 0x40 DUP2 ADD SWAP1 DUP2 LT PUSH1 0x1 PUSH1 0x1 PUSH1 0x40 SHL SUB DUP3 GT OR PUSH3 0x183 JUMPI PUSH1 0x40 MSTORE JUMP JUMPDEST PUSH1 0x1 PUSH1 0x1 PUSH1 0xA0 SHL SUB AND PUSH1 0x0 DUP2 DUP2 MSTORE PUSH32 0xAD3228B676F7D3CD4284A5443F17F1962B36E491B30A40B2405849E597BA5FB5 PUSH1 0x20 MSTORE PUSH1 0x40 DUP2 KECCAK256 SLOAD SWAP1 SWAP2 SWAP1 PUSH1 0xFF AND PUSH3 0x236 JUMPI DUP2 DUP1 MSTORE DUP2 PUSH1 0x20 MSTORE PUSH1 0x40 DUP3 KECCAK256 DUP2 DUP4 MSTORE PUSH1 0x20 MSTORE PUSH1 0x40 DUP3 KECCAK256 PUSH1 0x1 PUSH1 0xFF NOT DUP3 SLOAD AND OR SWAP1 SSTORE CALLER SWAP2 PUSH1 0x0 DUP1 MLOAD PUSH1 0x20 PUSH3 0x4364 DUP4 CODECOPY DUP2 MLOAD SWAP2 MSTORE DUP2 DUP1 LOG4 PUSH1 0x1 SWAP1 JUMP JUMPDEST POP SWAP1 JUMP JUMPDEST PUSH1 0x1 PUSH1 0x1 PUSH1 0xA0 SHL SUB AND PUSH1 0x0 DUP2 DUP2 MSTORE PUSH32 0x3412D5605AC6CD444957CEDB533E5DACAD6378B4BC819EBE3652188A665066D5 PUSH1 0x20 MSTORE PUSH1 0x40 DUP2 KECCAK256 SLOAD SWAP1 SWAP2 SWAP1 PUSH32 0xB09AA5AEB3702CFD50B6B62BC4532604938F21248A27A1D5CA736082B6819CC1 SWAP1 PUSH1 0xFF AND PUSH3 0x2D7 JUMPI DUP1 DUP4 MSTORE DUP3 PUSH1 0x20 MSTORE PUSH1 0x40 DUP4 KECCAK256 DUP3 DUP5 MSTORE PUSH1 0x20 MSTORE PUSH1 0x40 DUP4 KECCAK256 PUSH1 0x1 PUSH1 0xFF NOT DUP3 SLOAD AND OR SWAP1 SSTORE PUSH1 0x0 DUP1 MLOAD PUSH1 0x20 PUSH3 0x4364 DUP4 CODECOPY DUP2 MLOAD SWAP2 MSTORE CALLER SWAP4 DUP1 LOG4 PUSH1 0x1 SWAP1 JUMP JUMPDEST POP POP SWAP1 JUMP JUMPDEST PUSH1 0x1 PUSH1 0x1 PUSH1 0xA0 SHL SUB AND PUSH1 0x0 DUP2 DUP2 MSTORE PUSH32 0xDAE2AA361DFD1CA020A396615627D436107C35EFF9FE7738A3512819782D7069 PUSH1 0x20 MSTORE PUSH1 0x40 DUP2 KECCAK256 SLOAD SWAP1 SWAP2 SWAP1 PUSH32 0xD8AA0F3194971A2A116679F7C2090F6939C8D4E01A2A8D7E41D55E5351469E63 SWAP1 PUSH1 0xFF AND PUSH3 0x2D7 JUMPI DUP1 DUP4 MSTORE DUP3 PUSH1 0x20 MSTORE PUSH1 0x40 DUP4 KECCAK256 DUP3 DUP5 MSTORE PUSH1 0x20 MSTORE PUSH1 0x40 DUP4 KECCAK256 PUSH1 0x1 PUSH1 0xFF NOT DUP3 SLOAD AND OR SWAP1 SSTORE PUSH1 0x0 DUP1 MLOAD PUSH1 0x20 PUSH3 0x4364 DUP4 CODECOPY DUP2 MLOAD SWAP2 MSTORE CALLER SWAP4 DUP1 LOG4 PUSH1 0x1 SWAP1 JUMP JUMPDEST PUSH1 0x1 PUSH1 0x1 PUSH1 0xA0 SHL SUB AND PUSH1 0x0 DUP2 DUP2 MSTORE PUSH32 0xFAF93C3D007E112089DC8351E013E6685EF67703975D0224B26FC45941D4F1F5 PUSH1 0x20 MSTORE PUSH1 0x40 DUP2 KECCAK256 SLOAD SWAP1 SWAP2 SWAP1 PUSH32 0xE2B7FB3B832174769106DAEBCFD6D1970523240DDA11281102DB9363B83B0DC4 SWAP1 PUSH1 0xFF AND PUSH3 0x2D7 JUMPI DUP1 DUP4 MSTORE DUP3 PUSH1 0x20 MSTORE PUSH1 0x40 DUP4 KECCAK256 DUP3 DUP5 MSTORE PUSH1 0x20 MSTORE PUSH1 0x40 DUP4 KECCAK256 PUSH1 0x1 PUSH1 0xFF NOT DUP3 SLOAD AND OR SWAP1 SSTORE PUSH1 0x0 DUP1 MLOAD PUSH1 0x20 PUSH3 0x4364 DUP4 CODECOPY DUP2 MLOAD SWAP2 MSTORE CALLER SWAP4 DUP1 LOG4 PUSH1 0x1 SWAP1 JUMP INVALID PUSH1 0x80 PUSH1 0x40 MSTORE PUSH1 0x4 CALLDATASIZE LT ISZERO PUSH2 0x12 JUMPI PUSH1 0x0 DUP1 REVERT JUMPDEST PUSH1 0x0 CALLDATALOAD PUSH1 0xE0 SHR DUP1 PUSH4 0x13CF08B EQ PUSH2 0x303F JUMPI DUP1 PUSH4 0x1FFC9A7 EQ PUSH2 0x2FE9 JUMPI DUP1 PUSH4 0x2A251A3 EQ PUSH2 0x2FCB JUMPI DUP1 PUSH4 0x7BD0265 EQ PUSH2 0x2F90 JUMPI DUP1 PUSH4 0xD61B519 EQ PUSH2 0x2E80 JUMPI DUP1 PUSH4 0x1A8CBCAA EQ PUSH2 0x2E37 JUMPI DUP1 PUSH4 0x248A9CA3 EQ PUSH2 0x2E08 JUMPI DUP1 PUSH4 0x248BD471 EQ PUSH2 0x2DEB JUMPI DUP1 PUSH4 0x2D0335AB EQ PUSH2 0x12F0 JUMPI DUP1 PUSH4 0x2DCF0D73 EQ PUSH2 0x296B JUMPI DUP1 PUSH4 0x2F2FF15D EQ PUSH2 0x292C JUMPI DUP1 PUSH4 0x364478E2 EQ PUSH2 0x24AB JUMPI DUP1 PUSH4 0x3644E515 EQ PUSH2 0x2470 JUMPI DUP1 PUSH4 0x36568ABE EQ PUSH2 0x2429 JUMPI DUP1 PUSH4 0x3D8803E2 EQ PUSH2 0x240C JUMPI DUP1 PUSH4 0x42A7C614 EQ PUSH2 0x12EB JUMPI DUP1 PUSH4 0x43AE2695 EQ PUSH2 0x23E3 JUMPI DUP1 PUSH4 0x4CE83CDB EQ PUSH2 0x1A97 JUMPI DUP1 PUSH4 0x536F9F42 EQ PUSH2 0x1A6B JUMPI DUP1 PUSH4 0x5394C879 EQ PUSH2 0x1A4E JUMPI DUP1 PUSH4 0x5652077C EQ PUSH2 0x1913 JUMPI DUP1 PUSH4 0x56781388 EQ PUSH2 0x1707 JUMPI DUP1 PUSH4 0x5C7B264D EQ PUSH2 0x16CD JUMPI DUP1 PUSH4 0x6213E5EA EQ PUSH2 0x1535 JUMPI DUP1 PUSH4 0x637E54AC EQ PUSH2 0x14DD JUMPI DUP1 PUSH4 0x63F0C7FF EQ PUSH2 0x132A JUMPI DUP1 PUSH4 0x7ECEBE00 EQ PUSH2 0x12F0 JUMPI DUP1 PUSH4 0x808C4479 EQ PUSH2 0x12EB JUMPI DUP1 PUSH4 0x86522973 EQ PUSH2 0x12B0 JUMPI DUP1 PUSH4 0x872D1544 EQ PUSH2 0x1224 JUMPI DUP1 PUSH4 0x8F61F4F5 EQ PUSH2 0x11E9 JUMPI DUP1 PUSH4 0x91D14854 EQ PUSH2 0x119C JUMPI DUP1 PUSH4 0x9207891D EQ PUSH2 0x117E JUMPI DUP1 PUSH4 0x926D7D7F EQ PUSH2 0x1143 JUMPI DUP1 PUSH4 0x9B699E57 EQ PUSH2 0xA27 JUMPI DUP1 PUSH4 0x9C4E99CA EQ PUSH2 0xA09 JUMPI DUP1 PUSH4 0x9D79A9EB EQ PUSH2 0x8D0 JUMPI DUP1 PUSH4 0xA217FDDF EQ PUSH2 0x8B4 JUMPI DUP1 PUSH4 0xAC2F0074 EQ PUSH2 0x783 JUMPI DUP1 PUSH4 0xB277D02A EQ PUSH2 0x766 JUMPI DUP1 PUSH4 0xBC3F931F EQ PUSH2 0x6C8 JUMPI DUP1 PUSH4 0xC3B028E2 EQ PUSH2 0x69C JUMPI DUP1 PUSH4 0xC7F758A8 EQ PUSH2 0x64F JUMPI DUP1 PUSH4 0xD23254B4 EQ PUSH2 0x5EC JUMPI DUP1 PUSH4 0xD547741F EQ PUSH2 0x5AB JUMPI DUP1 PUSH4 0xDA35C664 EQ PUSH2 0x58D JUMPI DUP1 PUSH4 0xDD9DEB1B EQ PUSH2 0x56F JUMPI DUP1 PUSH4 0xDE1CF4AD EQ PUSH2 0x535 JUMPI DUP1 PUSH4 0xE0A8F6F5 EQ PUSH2 0x40B JUMPI DUP1 PUSH4 0xEA0217CF EQ PUSH2 0x369 JUMPI DUP1 PUSH4 0xECC52C04 EQ PUSH2 0x33E JUMPI PUSH4 0xF43B8778 EQ PUSH2 0x258 JUMPI PUSH1 0x0 DUP1 REVERT JUMPDEST CALLVALUE PUSH2 0x339 JUMPI PUSH1 0x20 CALLDATASIZE PUSH1 0x3 NOT ADD SLT PUSH2 0x339 JUMPI PUSH1 0x4 CALLDATALOAD DUP1 PUSH1 0x0 MSTORE PUSH1 0xC PUSH1 0x20 MSTORE PUSH1 0x40 PUSH1 0x0 KECCAK256 PUSH1 0xA DUP2 ADD SWAP1 DUP2 SLOAD SWAP1 PUSH1 0xFF DUP3 AND PUSH1 0x3 DUP2 LT ISZERO PUSH2 0x323 JUMPI PUSH2 0x299 SWAP1 ISZERO PUSH2 0x3B4D JUMP JUMPDEST PUSH1 0x9 DUP2 ADD SLOAD TIMESTAMP LT PUSH2 0x2E9 JUMPI PUSH32 0x76254391687772340030BC79660C2D1E15DAD744F94894A52E52863B5FCA1115 SWAP3 PUSH1 0x1 PUSH1 0x40 SWAP4 PUSH1 0xFF NOT AND OR SWAP1 SSTORE PUSH1 0x7 PUSH1 0x6 DUP3 ADD SLOAD SWAP2 ADD SLOAD DUP3 MLOAD SWAP2 DUP3 MSTORE PUSH1 0x20 DUP3 ADD MSTORE LOG2 STOP JUMPDEST PUSH1 0x40 MLOAD PUSH3 0x461BCD PUSH1 0xE5 SHL DUP2 MSTORE PUSH1 0x20 PUSH1 0x4 DUP3 ADD MSTORE PUSH1 0x12 PUSH1 0x24 DUP3 ADD MSTORE PUSH18 0x141BDB1B081B9BDD08195B991959081E595D PUSH1 0x72 SHL PUSH1 0x44 DUP3 ADD MSTORE PUSH1 0x64 SWAP1 REVERT JUMPDEST PUSH4 0x4E487B71 PUSH1 0xE0 SHL PUSH1 0x0 MSTORE PUSH1 0x21 PUSH1 0x4 MSTORE PUSH1 0x24 PUSH1 0x0 REVERT JUMPDEST PUSH1 0x0 DUP1 REVERT JUMPDEST CALLVALUE PUSH2 0x339 JUMPI PUSH1 0x20 CALLDATASIZE PUSH1 0x3 NOT ADD SLT PUSH2 0x339 JUMPI PUSH1 0x20 PUSH2 0x361 PUSH2 0x35C PUSH2 0x341F JUMP JUMPDEST PUSH2 0x3B8B JUMP JUMPDEST PUSH1 0x40 MLOAD SWAP1 DUP2 MSTORE RETURN JUMPDEST CALLVALUE PUSH2 0x339 JUMPI PUSH1 0x20 CALLDATASIZE PUSH1 0x3 NOT ADD SLT PUSH2 0x339 JUMPI PUSH1 0x4 CALLDATALOAD PUSH2 0x385 PUSH2 0x3C1B JUMP JUMPDEST PUSH3 0x15180 DUP2 LT ISZERO DUP1 PUSH2 0x3FE JUMPI JUMPDEST ISZERO PUSH2 0x3C8 JUMPI PUSH1 0x20 DUP2 PUSH32 0x651C77F42613A075437AA794C44471E3ABC3A661956A67AAEE165BB7396974AA SWAP3 PUSH1 0x4 SSTORE PUSH1 0x40 MLOAD SWAP1 DUP2 MSTORE LOG1 STOP JUMPDEST PUSH1 0x40 MLOAD PUSH3 0x461BCD PUSH1 0xE5 SHL DUP2 MSTORE PUSH1 0x20 PUSH1 0x4 DUP3 ADD MSTORE PUSH1 0xE PUSH1 0x24 DUP3 ADD MSTORE PUSH14 0x125B9D985B1A59081C195C9A5BD9 PUSH1 0x92 SHL PUSH1 0x44 DUP3 ADD MSTORE PUSH1 0x64 SWAP1 REVERT JUMPDEST POP PUSH3 0x278D00 DUP2 GT ISZERO PUSH2 0x392 JUMP JUMPDEST CALLVALUE PUSH2 0x339 JUMPI PUSH1 0x20 DUP1 PUSH1 0x3 NOT CALLDATASIZE ADD SLT PUSH2 0x339 JUMPI PUSH1 0x4 CALLDATALOAD SWAP1 DUP2 PUSH1 0x0 MSTORE PUSH1 0x6 DUP2 MSTORE PUSH1 0x40 PUSH1 0x0 KECCAK256 PUSH1 0x1 DUP1 PUSH1 0xA0 SHL SUB PUSH1 0x2 DUP3 ADD SLOAD AND CALLER EQ DUP1 ISZERO PUSH2 0x513 JUMPI JUMPDEST ISZERO PUSH2 0x4DD JUMPI PUSH1 0xC ADD SWAP1 DUP2 SLOAD SWAP1 PUSH1 0xFF DUP3 AND PUSH1 0x6 DUP2 LT ISZERO PUSH2 0x323 JUMPI PUSH1 0x1 DUP2 EQ SWAP1 DUP2 ISZERO PUSH2 0x4D4 JUMPI JUMPDEST POP ISZERO PUSH2 0x4A0 JUMPI POP PUSH1 0xFF NOT AND PUSH1 0x5 OR SWAP1 SSTORE PUSH32 0x416E669C63D9A3A5E36EE7CC7E2104B8DB28CCD286AA18966E98FA230C73B08C PUSH1 0x0 DUP1 LOG2 STOP JUMPDEST PUSH1 0x64 SWAP1 PUSH1 0x40 MLOAD SWAP1 PUSH3 0x461BCD PUSH1 0xE5 SHL DUP3 MSTORE PUSH1 0x4 DUP3 ADD MSTORE PUSH1 0xD PUSH1 0x24 DUP3 ADD MSTORE PUSH13 0x10D85B9B9BDD0818D85B98D95B PUSH1 0x9A SHL PUSH1 0x44 DUP3 ADD MSTORE REVERT JUMPDEST SWAP1 POP ISZERO DUP6 PUSH2 0x469 JUMP JUMPDEST PUSH1 0x40 MLOAD PUSH3 0x461BCD PUSH1 0xE5 SHL DUP2 MSTORE PUSH1 0x4 DUP2 ADD DUP4 SWAP1 MSTORE PUSH1 0xE PUSH1 0x24 DUP3 ADD MSTORE PUSH14 0x139BDD08185D5D1A1BDC9A5E9959 PUSH1 0x92 SHL PUSH1 0x44 DUP3 ADD MSTORE PUSH1 0x64 SWAP1 REVERT JUMPDEST POP PUSH1 0x0 DUP1 MSTORE PUSH1 0x0 DUP3 MSTORE PUSH1 0x40 PUSH1 0x0 KECCAK256 CALLER PUSH1 0x0 MSTORE DUP3 MSTORE PUSH1 0xFF PUSH1 0x40 PUSH1 0x0 KECCAK256 SLOAD AND PUSH2 0x444 JUMP JUMPDEST CALLVALUE PUSH2 0x339 JUMPI PUSH1 0x20 CALLDATASIZE PUSH1 0x3 NOT ADD SLT PUSH2 0x339 JUMPI PUSH1 0x1 PUSH1 0x1 PUSH1 0xA0 SHL SUB PUSH2 0x556 PUSH2 0x341F JUMP JUMPDEST AND PUSH1 0x0 MSTORE PUSH1 0xB PUSH1 0x20 MSTORE PUSH1 0x20 PUSH1 0x40 PUSH1 0x0 KECCAK256 SLOAD PUSH1 0x40 MLOAD SWAP1 DUP2 MSTORE RETURN JUMPDEST CALLVALUE PUSH2 0x339 JUMPI PUSH1 0x0 CALLDATASIZE PUSH1 0x3 NOT ADD SLT PUSH2 0x339 JUMPI PUSH1 0x20 PUSH1 0x5 SLOAD PUSH1 0x40 MLOAD SWAP1 DUP2 MSTORE RETURN JUMPDEST CALLVALUE PUSH2 0x339 JUMPI PUSH1 0x0 CALLDATASIZE PUSH1 0x3 NOT ADD SLT PUSH2 0x339 JUMPI PUSH1 0x20 PUSH1 0x7 SLOAD PUSH1 0x40 MLOAD SWAP1 DUP2 MSTORE RETURN JUMPDEST CALLVALUE PUSH2 0x339 JUMPI PUSH1 0x40 CALLDATASIZE PUSH1 0x3 NOT ADD SLT PUSH2 0x339 JUMPI PUSH2 0x5EA PUSH1 0x4 CALLDATALOAD PUSH2 0x5CA PUSH2 0x3435 JUMP JUMPDEST SWAP1 DUP1 PUSH1 0x0 MSTORE PUSH1 0x0 PUSH1 0x20 MSTORE PUSH2 0x5E5 PUSH1 0x1 PUSH1 0x40 PUSH1 0x0 KECCAK256 ADD SLOAD PUSH2 0x3C55 JUMP JUMPDEST PUSH2 0x3D1C JUMP JUMPDEST STOP JUMPDEST CALLVALUE PUSH2 0x339 JUMPI PUSH1 0x40 CALLDATASIZE PUSH1 0x3 NOT ADD SLT PUSH2 0x339 JUMPI PUSH2 0x605 PUSH2 0x3435 JUMP JUMPDEST PUSH1 0x4 CALLDATALOAD PUSH1 0x0 MSTORE PUSH1 0x8 PUSH1 0x20 MSTORE PUSH1 0x40 PUSH1 0x0 KECCAK256 SWAP1 PUSH1 0x1 DUP1 PUSH1 0xA0 SHL SUB AND PUSH1 0x0 MSTORE PUSH1 0x20 MSTORE PUSH1 0x60 PUSH1 0x40 PUSH1 0x0 KECCAK256 PUSH1 0x1 DUP2 SLOAD SWAP2 ADD SLOAD PUSH1 0xFF PUSH1 0x40 MLOAD SWAP3 DUP2 DUP2 AND ISZERO ISZERO DUP5 MSTORE PUSH1 0x8 SHR AND PUSH1 0x20 DUP4 ADD MSTORE PUSH1 0x40 DUP3 ADD MSTORE RETURN JUMPDEST CALLVALUE PUSH2 0x339 JUMPI PUSH1 0x20 CALLDATASIZE PUSH1 0x3 NOT ADD SLT PUSH2 0x339 JUMPI PUSH2 0x668 PUSH2 0x395F JUMP JUMPDEST POP PUSH1 0x4 CALLDATALOAD PUSH1 0x0 MSTORE PUSH1 0x6 PUSH1 0x20 MSTORE PUSH2 0x698 PUSH2 0x684 PUSH1 0x40 PUSH1 0x0 KECCAK256 PUSH2 0x39F7 JUMP JUMPDEST PUSH1 0x40 MLOAD SWAP2 DUP3 SWAP2 PUSH1 0x20 DUP4 MSTORE PUSH1 0x20 DUP4 ADD SWAP1 PUSH2 0x34CE JUMP JUMPDEST SUB SWAP1 RETURN JUMPDEST CALLVALUE PUSH2 0x339 JUMPI PUSH1 0x20 CALLDATASIZE PUSH1 0x3 NOT ADD SLT PUSH2 0x339 JUMPI PUSH1 0x4 CALLDATALOAD PUSH1 0x0 MSTORE PUSH1 0xF PUSH1 0x20 MSTORE PUSH1 0x20 PUSH1 0x40 PUSH1 0x0 KECCAK256 SLOAD PUSH1 0x40 MLOAD SWAP1 DUP2 MSTORE RETURN JUMPDEST CALLVALUE PUSH2 0x339 JUMPI PUSH1 0x40 CALLDATASIZE PUSH1 0x3 NOT ADD SLT PUSH2 0x339 JUMPI PUSH2 0x6E1 PUSH2 0x3435 JUMP JUMPDEST PUSH1 0x0 PUSH1 0x40 DUP1 MLOAD PUSH2 0x6F0 DUP2 PUSH2 0x32CF JUMP JUMPDEST DUP3 DUP2 MSTORE DUP3 PUSH1 0x20 DUP3 ADD MSTORE ADD MSTORE PUSH1 0x4 CALLDATALOAD PUSH1 0x0 MSTORE PUSH1 0x8 PUSH1 0x20 MSTORE PUSH1 0x40 PUSH1 0x0 KECCAK256 SWAP1 PUSH1 0x1 DUP1 PUSH1 0xA0 SHL SUB AND PUSH1 0x0 MSTORE PUSH1 0x20 MSTORE PUSH1 0x60 PUSH1 0x40 PUSH1 0x0 KECCAK256 PUSH1 0x40 MLOAD PUSH2 0x72D DUP2 PUSH2 0x32CF JUMP JUMPDEST PUSH1 0xFF DUP3 SLOAD PUSH1 0x40 PUSH1 0x1 DUP4 DUP4 AND ISZERO ISZERO SWAP6 DUP7 DUP7 MSTORE DUP5 PUSH1 0x20 DUP8 ADD SWAP5 PUSH1 0x8 SHR AND DUP5 MSTORE ADD SLOAD SWAP4 ADD SWAP3 DUP4 MSTORE PUSH1 0x40 MLOAD SWAP4 DUP5 MSTORE MLOAD AND PUSH1 0x20 DUP4 ADD MSTORE MLOAD PUSH1 0x40 DUP3 ADD MSTORE RETURN JUMPDEST CALLVALUE PUSH2 0x339 JUMPI PUSH1 0x0 CALLDATASIZE PUSH1 0x3 NOT ADD SLT PUSH2 0x339 JUMPI PUSH1 0x20 PUSH1 0x40 MLOAD PUSH2 0x7D0 DUP2 MSTORE RETURN JUMPDEST CALLVALUE PUSH2 0x339 JUMPI PUSH1 0x20 CALLDATASIZE PUSH1 0x3 NOT ADD SLT PUSH2 0x339 JUMPI PUSH1 0x4 CALLDATALOAD PUSH1 0x0 MSTORE PUSH1 0xC PUSH1 0x20 MSTORE PUSH1 0x40 PUSH1 0x0 KECCAK256 DUP1 SLOAD SWAP1 PUSH1 0x1 DUP2 ADD SLOAD SWAP1 PUSH1 0x1 PUSH1 0xA0 SHL PUSH1 0x1 SWAP1 SUB PUSH1 0x2 DUP3 ADD SLOAD AND SWAP3 PUSH1 0x40 MLOAD SWAP2 DUP3 DUP1 PUSH1 0x3 DUP4 ADD SWAP1 PUSH2 0x7D1 SWAP2 PUSH2 0x3201 JUMP JUMPDEST SUB PUSH2 0x7DC SWAP1 DUP5 PUSH2 0x32EA JUMP JUMPDEST PUSH1 0x40 MLOAD SWAP3 DUP4 PUSH2 0x7EE DUP2 PUSH1 0x4 DUP6 ADD PUSH2 0x3201 JUMP JUMPDEST SUB PUSH2 0x7F9 SWAP1 DUP6 PUSH2 0x32EA JUMP JUMPDEST PUSH1 0x40 MLOAD SWAP4 DUP5 PUSH2 0x80B DUP2 PUSH1 0x5 DUP7 ADD PUSH2 0x3201 JUMP JUMPDEST SUB PUSH2 0x816 SWAP1 DUP7 PUSH2 0x32EA JUMP JUMPDEST PUSH1 0x6 DUP4 ADD SLOAD SWAP5 PUSH1 0x7 DUP5 ADD SLOAD SWAP1 PUSH1 0x8 DUP6 ADD SLOAD SWAP3 PUSH1 0x9 DUP7 ADD SLOAD SWAP5 PUSH1 0xA DUP8 ADD SLOAD PUSH1 0xFF AND SWAP7 PUSH1 0xB ADD SLOAD SWAP8 PUSH1 0x40 MLOAD SWAP12 DUP13 SWAP12 PUSH2 0x180 SWAP3 DUP14 MSTORE PUSH1 0x20 DUP14 ADD MSTORE PUSH1 0x40 DUP13 ADD MSTORE DUP1 PUSH1 0x60 DUP13 ADD MSTORE DUP11 ADD PUSH2 0x863 SWAP2 PUSH2 0x3315 JUMP JUMPDEST DUP10 DUP2 SUB PUSH1 0x80 DUP12 ADD MSTORE PUSH2 0x874 SWAP2 PUSH2 0x3315 JUMP JUMPDEST DUP9 DUP2 SUB PUSH1 0xA0 DUP11 ADD MSTORE PUSH2 0x885 SWAP2 PUSH2 0x3315 JUMP JUMPDEST SWAP6 PUSH1 0xC0 DUP9 ADD MSTORE PUSH1 0xE0 DUP8 ADD MSTORE PUSH2 0x100 DUP7 ADD MSTORE PUSH2 0x120 DUP6 ADD MSTORE PUSH2 0x140 DUP5 ADD PUSH2 0x8AA SWAP2 PUSH2 0x3362 JUMP JUMPDEST PUSH2 0x160 DUP4 ADD MSTORE SUB SWAP1 RETURN JUMPDEST CALLVALUE PUSH2 0x339 JUMPI PUSH1 0x0 CALLDATASIZE PUSH1 0x3 NOT ADD SLT PUSH2 0x339 JUMPI PUSH1 0x20 PUSH1 0x40 MLOAD PUSH1 0x0 DUP2 MSTORE RETURN JUMPDEST CALLVALUE PUSH2 0x339 JUMPI PUSH1 0x40 CALLDATASIZE PUSH1 0x3 NOT ADD SLT PUSH2 0x339 JUMPI PUSH1 0x4 CALLDATALOAD PUSH1 0x24 CALLDATALOAD SWAP1 DUP2 ISZERO ISZERO SWAP2 DUP3 DUP2 SUB PUSH2 0x339 JUMPI DUP2 PUSH1 0x0 MSTORE PUSH1 0x20 SWAP1 PUSH1 0xC DUP3 MSTORE PUSH1 0x40 PUSH1 0x0 KECCAK256 SWAP1 PUSH1 0xFF PUSH1 0xA DUP4 ADD SLOAD AND PUSH1 0x3 DUP2 LT ISZERO PUSH2 0x323 JUMPI PUSH2 0x91F SWAP1 ISZERO PUSH2 0x3B4D JUMP JUMPDEST PUSH1 0x9 DUP3 ADD SLOAD TIMESTAMP LT ISZERO PUSH2 0x9D7 JUMPI SWAP1 PUSH32 0xDF13CE4FCC43C19A08DF4FFA6D471AE7BB1D6FFC3BEB528AD821C873F798CE2F SWAP3 SWAP2 DUP5 PUSH1 0x0 MSTORE PUSH1 0xE DUP4 MSTORE PUSH1 0x40 PUSH1 0x0 KECCAK256 CALLER PUSH1 0x0 MSTORE DUP4 MSTORE PUSH1 0x40 PUSH1 0x0 KECCAK256 PUSH1 0x1 DUP2 SLOAD PUSH2 0x978 PUSH1 0xFF DUP3 AND ISZERO PUSH2 0x37F0 JUMP JUMPDEST PUSH2 0xFF00 DUP10 PUSH1 0x8 SHL AND SWAP1 PUSH2 0xFFFF NOT AND OR OR SWAP1 SSTORE DUP5 PUSH1 0x0 MSTORE PUSH1 0xF DUP4 MSTORE PUSH1 0x40 PUSH1 0x0 KECCAK256 PUSH2 0x9A1 DUP2 SLOAD PUSH2 0x382C JUMP JUMPDEST SWAP1 SSTORE ISZERO PUSH2 0x9C3 JUMPI PUSH1 0x6 ADD PUSH2 0x9B5 DUP2 SLOAD PUSH2 0x382C JUMP JUMPDEST SWAP1 SSTORE JUMPDEST PUSH1 0x40 MLOAD SWAP4 DUP5 MSTORE CALLER SWAP4 LOG3 STOP JUMPDEST PUSH1 0x7 ADD PUSH2 0x9D0 DUP2 SLOAD PUSH2 0x382C JUMP JUMPDEST SWAP1 SSTORE PUSH2 0x9B8 JUMP JUMPDEST PUSH1 0x40 MLOAD PUSH3 0x461BCD PUSH1 0xE5 SHL DUP2 MSTORE PUSH1 0x4 DUP2 ADD DUP5 SWAP1 MSTORE PUSH1 0xA PUSH1 0x24 DUP3 ADD MSTORE PUSH10 0x141BDB1B08195B991959 PUSH1 0xB2 SHL PUSH1 0x44 DUP3 ADD MSTORE PUSH1 0x64 SWAP1 REVERT JUMPDEST CALLVALUE PUSH2 0x339 JUMPI PUSH1 0x20 CALLDATASIZE PUSH1 0x3 NOT ADD SLT PUSH2 0x339 JUMPI PUSH1 0x20 PUSH2 0x361 PUSH1 0x4 CALLDATALOAD PUSH2 0x3B03 JUMP JUMPDEST CALLVALUE PUSH2 0x339 JUMPI PUSH1 0xC0 CALLDATASIZE PUSH1 0x3 NOT ADD SLT PUSH2 0x339 JUMPI PUSH1 0x4 PUSH1 0x24 CALLDATALOAD LT ISZERO PUSH2 0x339 JUMPI PUSH1 0x44 CALLDATALOAD PUSH1 0x1 PUSH1 0x1 PUSH1 0x40 SHL SUB DUP2 GT PUSH2 0x339 JUMPI PUSH2 0xA62 SWAP1 CALLDATASIZE SWAP1 PUSH1 0x4 ADD PUSH2 0x345B JUMP JUMPDEST PUSH1 0x64 CALLDATALOAD PUSH1 0x1 PUSH1 0x1 PUSH1 0x40 SHL SUB DUP2 GT PUSH2 0x339 JUMPI PUSH2 0xA81 SWAP1 CALLDATASIZE SWAP1 PUSH1 0x4 ADD PUSH2 0x345B JUMP JUMPDEST SWAP1 PUSH1 0x84 CALLDATALOAD PUSH1 0x1 PUSH1 0x1 PUSH1 0x40 SHL SUB DUP2 GT PUSH2 0x339 JUMPI PUSH2 0xAA1 SWAP1 CALLDATASIZE SWAP1 PUSH1 0x4 ADD PUSH2 0x345B JUMP JUMPDEST SWAP1 PUSH1 0xA4 CALLDATALOAD PUSH1 0x1 PUSH1 0x1 PUSH1 0x40 SHL SUB DUP2 GT PUSH2 0x339 JUMPI PUSH2 0xAC1 SWAP1 CALLDATASIZE SWAP1 PUSH1 0x4 ADD PUSH2 0x345B JUMP JUMPDEST PUSH2 0xAC9 PUSH2 0x3BBF JUMP JUMPDEST PUSH1 0x2 SLOAD PUSH1 0x40 MLOAD PUSH4 0x6DED6A19 PUSH1 0xE1 SHL DUP2 MSTORE PUSH1 0x4 DUP1 CALLDATALOAD SWAP1 DUP3 ADD MSTORE CALLER PUSH1 0x24 DUP3 ADD MSTORE PUSH1 0x1 PUSH1 0x1 PUSH1 0xA0 SHL SUB SWAP1 SWAP2 AND SWAP1 PUSH1 0x20 DUP2 PUSH1 0x44 DUP2 DUP6 GAS STATICCALL DUP1 ISZERO PUSH2 0x1103 JUMPI PUSH1 0x0 SWAP1 PUSH2 0x110F JUMPI JUMPDEST PUSH2 0xB16 SWAP2 POP ISZERO ISZERO PUSH2 0x38FC JUMP JUMPDEST PUSH1 0x7 SLOAD SWAP4 PUSH2 0xB23 DUP6 PUSH2 0x382C JUMP JUMPDEST PUSH1 0x7 SSTORE PUSH1 0x24 PUSH1 0x20 PUSH2 0xB34 DUP3 CALLDATALOAD PUSH2 0x3D91 JUMP JUMPDEST SWAP4 PUSH1 0x40 MLOAD SWAP3 DUP4 DUP1 SWAP3 PUSH4 0x8CDC1E87 PUSH1 0xE0 SHL DUP3 MSTORE PUSH1 0x4 CALLDATALOAD PUSH1 0x4 DUP4 ADD MSTORE GAS STATICCALL SWAP1 DUP2 ISZERO PUSH2 0x1103 JUMPI PUSH1 0x0 SWAP2 PUSH2 0x10D1 JUMPI JUMPDEST POP DUP1 ISZERO PUSH2 0x107B JUMPI DUP6 PUSH1 0x0 MSTORE PUSH1 0x9 PUSH1 0x20 MSTORE PUSH1 0x40 PUSH1 0x0 KECCAK256 SSTORE PUSH2 0xB81 PUSH1 0x4 SLOAD TIMESTAMP PUSH2 0x3879 JUMP JUMPDEST SWAP1 PUSH1 0x40 MLOAD SWAP7 PUSH2 0xB8F DUP9 PUSH2 0x32B3 JUMP JUMPDEST DUP7 DUP9 MSTORE PUSH1 0x4 CALLDATALOAD PUSH1 0x20 DUP10 ADD MSTORE CALLER PUSH1 0x40 DUP10 ADD MSTORE PUSH2 0xBAB PUSH1 0x24 CALLDATALOAD PUSH2 0x330B JUMP JUMPDEST PUSH1 0x24 CALLDATALOAD PUSH1 0x60 DUP10 ADD MSTORE DUP6 PUSH1 0x80 DUP10 ADD MSTORE PUSH1 0xA0 DUP9 ADD MSTORE PUSH1 0xC0 DUP8 ADD MSTORE PUSH1 0x0 PUSH1 0xE0 DUP8 ADD MSTORE PUSH1 0x0 PUSH2 0x100 DUP8 ADD MSTORE PUSH1 0x0 PUSH2 0x120 DUP8 ADD MSTORE TIMESTAMP PUSH2 0x140 DUP8 ADD MSTORE PUSH2 0x160 DUP7 ADD MSTORE PUSH2 0x180 DUP6 ADD MSTORE PUSH1 0x1 PUSH2 0x1A0 DUP6 ADD MSTORE PUSH2 0x1C0 DUP5 ADD MSTORE DUP2 PUSH1 0x0 MSTORE PUSH1 0x6 PUSH1 0x20 MSTORE PUSH1 0x40 PUSH1 0x0 KECCAK256 DUP4 MLOAD DUP2 SSTORE PUSH1 0x20 DUP5 ADD MLOAD PUSH1 0x1 DUP3 ADD SSTORE PUSH1 0x2 DUP2 ADD PUSH1 0x1 DUP1 PUSH1 0xA0 SHL SUB PUSH1 0x40 DUP7 ADD MLOAD AND DUP2 SLOAD SWAP1 PUSH1 0x60 DUP8 ADD MLOAD PUSH2 0xC39 DUP2 PUSH2 0x330B JUMP JUMPDEST PUSH2 0xC42 DUP2 PUSH2 0x330B JUMP JUMPDEST PUSH1 0x1 PUSH1 0x1 PUSH1 0xA8 SHL SUB NOT SWAP1 SWAP3 AND OR PUSH1 0xA0 SWAP2 SWAP1 SWAP2 SHL PUSH1 0xFF PUSH1 0xA0 SHL AND OR SWAP1 SSTORE PUSH1 0x80 DUP5 ADD MLOAD DUP1 MLOAD SWAP1 PUSH1 0x1 PUSH1 0x1 PUSH1 0x40 SHL SUB DUP3 GT PUSH2 0xF0F JUMPI PUSH2 0xC8E DUP3 PUSH2 0xC85 PUSH1 0x3 DUP7 ADD SLOAD PUSH2 0x31C7 JUMP JUMPDEST PUSH1 0x3 DUP7 ADD PUSH2 0x3886 JUMP JUMPDEST PUSH1 0x20 SWAP1 PUSH1 0x1F DUP4 GT PUSH1 0x1 EQ PUSH2 0x1009 JUMPI PUSH2 0xCBF SWAP3 SWAP2 PUSH1 0x0 SWAP2 DUP4 PUSH2 0xE9E JUMPI JUMPDEST POP POP DUP2 PUSH1 0x1 SHL SWAP2 PUSH1 0x0 NOT SWAP1 PUSH1 0x3 SHL SHR NOT AND OR SWAP1 JUMP JUMPDEST PUSH1 0x3 DUP3 ADD SSTORE JUMPDEST PUSH1 0xA0 DUP5 ADD MLOAD DUP1 MLOAD SWAP1 PUSH1 0x1 PUSH1 0x1 PUSH1 0x40 SHL SUB DUP3 GT PUSH2 0xF0F JUMPI PUSH2 0xCF5 DUP3 PUSH2 0xCEC PUSH1 0x4 DUP7 ADD SLOAD PUSH2 0x31C7 JUMP JUMPDEST PUSH1 0x4 DUP7 ADD PUSH2 0x3886 JUMP JUMPDEST PUSH1 0x20 SWAP1 PUSH1 0x1F DUP4 GT PUSH1 0x1 EQ PUSH2 0xF97 JUMPI PUSH2 0xD25 SWAP3 SWAP2 PUSH1 0x0 SWAP2 DUP4 PUSH2 0xE9E JUMPI POP POP DUP2 PUSH1 0x1 SHL SWAP2 PUSH1 0x0 NOT SWAP1 PUSH1 0x3 SHL SHR NOT AND OR SWAP1 JUMP JUMPDEST PUSH1 0x4 DUP3 ADD SSTORE JUMPDEST PUSH1 0xC0 DUP5 ADD MLOAD DUP1 MLOAD SWAP1 PUSH1 0x1 PUSH1 0x1 PUSH1 0x40 SHL SUB DUP3 GT PUSH2 0xF0F JUMPI PUSH2 0xD5B DUP3 PUSH2 0xD52 PUSH1 0x5 DUP7 ADD SLOAD PUSH2 0x31C7 JUMP JUMPDEST PUSH1 0x5 DUP7 ADD PUSH2 0x3886 JUMP JUMPDEST PUSH1 0x20 SWAP1 PUSH1 0x1F DUP4 GT PUSH1 0x1 EQ PUSH2 0xF25 JUMPI PUSH2 0xD8B SWAP3 SWAP2 PUSH1 0x0 SWAP2 DUP4 PUSH2 0xE9E JUMPI POP POP DUP2 PUSH1 0x1 SHL SWAP2 PUSH1 0x0 NOT SWAP1 PUSH1 0x3 SHL SHR NOT AND OR SWAP1 JUMP JUMPDEST PUSH1 0x5 DUP3 ADD SSTORE JUMPDEST PUSH1 0xE0 DUP5 ADD MLOAD PUSH1 0x6 DUP3 ADD SSTORE PUSH2 0x100 DUP5 ADD MLOAD PUSH1 0x7 DUP3 ADD SSTORE PUSH2 0x120 DUP5 ADD MLOAD PUSH1 0x8 DUP3 ADD SSTORE PUSH2 0x140 DUP5 ADD MLOAD PUSH1 0x9 DUP3 ADD SSTORE PUSH2 0x160 DUP5 ADD MLOAD PUSH1 0xA DUP3 ADD SSTORE PUSH2 0x180 DUP5 ADD MLOAD PUSH1 0xB DUP3 ADD SSTORE PUSH2 0x1A0 DUP5 ADD MLOAD PUSH1 0x6 DUP2 LT ISZERO PUSH2 0x323 JUMPI DUP2 PUSH2 0xDF4 PUSH1 0xD SWAP3 PUSH1 0xC PUSH2 0x1C0 SWAP6 ADD PUSH2 0x35B5 JUMP JUMPDEST ADD SWAP4 ADD MLOAD SWAP3 DUP4 MLOAD PUSH1 0x1 PUSH1 0x1 PUSH1 0x40 SHL SUB DUP2 GT PUSH2 0xF0F JUMPI PUSH1 0x20 SWAP5 PUSH2 0xE20 DUP3 PUSH2 0xE1A DUP6 SLOAD PUSH2 0x31C7 JUMP JUMPDEST DUP6 PUSH2 0x3886 JUMP JUMPDEST DUP6 SWAP1 PUSH1 0x1F DUP4 GT PUSH1 0x1 EQ PUSH2 0xEA9 JUMPI PUSH2 0xE4F SWAP3 SWAP2 PUSH1 0x0 SWAP2 DUP4 PUSH2 0xE9E JUMPI POP POP DUP2 PUSH1 0x1 SHL SWAP2 PUSH1 0x0 NOT SWAP1 PUSH1 0x3 SHL SHR NOT AND OR SWAP1 JUMP JUMPDEST SWAP1 SSTORE JUMPDEST DUP2 PUSH1 0x0 DUP1 MLOAD PUSH1 0x20 PUSH2 0x3EF8 DUP4 CODECOPY DUP2 MLOAD SWAP2 MSTORE PUSH1 0x40 MLOAD CALLER DUP2 MSTORE PUSH2 0xE73 PUSH1 0x24 CALLDATALOAD PUSH2 0x330B JUMP JUMPDEST PUSH1 0x24 CALLDATALOAD DUP7 DUP3 ADD MSTORE PUSH1 0x60 PUSH1 0x40 DUP3 ADD MSTORE DUP1 PUSH2 0xE93 PUSH1 0x4 CALLDATALOAD SWAP6 PUSH1 0x60 DUP4 ADD SWAP1 PUSH2 0x3315 JUMP JUMPDEST SUB SWAP1 LOG3 PUSH1 0x40 MLOAD SWAP1 DUP2 MSTORE RETURN JUMPDEST ADD MLOAD SWAP1 POP DUP8 DUP1 PUSH2 0xCAA JUMP JUMPDEST SWAP1 PUSH1 0x1F NOT DUP4 AND SWAP2 DUP5 PUSH1 0x0 MSTORE DUP8 PUSH1 0x0 KECCAK256 SWAP3 PUSH1 0x0 JUMPDEST DUP2 DUP2 LT PUSH2 0xEF8 JUMPI POP SWAP1 DUP5 PUSH1 0x1 SWAP6 SWAP5 SWAP4 SWAP3 LT PUSH2 0xEDF JUMPI JUMPDEST POP POP POP DUP2 SHL ADD SWAP1 SSTORE PUSH2 0xE52 JUMP JUMPDEST ADD MLOAD PUSH1 0x0 NOT PUSH1 0xF8 DUP5 PUSH1 0x3 SHL AND SHR NOT AND SWAP1 SSTORE DUP7 DUP1 DUP1 PUSH2 0xED2 JUMP JUMPDEST SWAP3 SWAP4 DUP10 PUSH1 0x1 DUP2 SWAP3 DUP8 DUP7 ADD MLOAD DUP2 SSTORE ADD SWAP6 ADD SWAP4 ADD PUSH2 0xEBC JUMP JUMPDEST PUSH4 0x4E487B71 PUSH1 0xE0 SHL PUSH1 0x0 MSTORE PUSH1 0x41 PUSH1 0x4 MSTORE PUSH1 0x24 PUSH1 0x0 REVERT JUMPDEST SWAP2 SWAP1 PUSH1 0x5 DUP5 ADD PUSH1 0x0 MSTORE PUSH1 0x20 PUSH1 0x0 KECCAK256 SWAP1 PUSH1 0x0 SWAP4 JUMPDEST PUSH1 0x1F NOT DUP5 AND DUP6 LT PUSH2 0xF7C JUMPI PUSH1 0x1 SWAP5 POP DUP4 PUSH1 0x1F NOT DUP2 AND LT PUSH2 0xF63 JUMPI JUMPDEST POP POP POP DUP2 SHL ADD PUSH1 0x5 DUP3 ADD SSTORE PUSH2 0xD91 JUMP JUMPDEST ADD MLOAD PUSH1 0x0 NOT PUSH1 0xF8 DUP5 PUSH1 0x3 SHL AND SHR NOT AND SWAP1 SSTORE DUP7 DUP1 DUP1 PUSH2 0xF53 JUMP JUMPDEST DUP2 DUP2 ADD MLOAD DUP4 SSTORE PUSH1 0x20 SWAP5 DUP6 ADD SWAP5 PUSH1 0x1 SWAP1 SWAP4 ADD SWAP3 SWAP1 SWAP2 ADD SWAP1 PUSH2 0xF38 JUMP JUMPDEST SWAP2 SWAP1 PUSH1 0x4 DUP5 ADD PUSH1 0x0 MSTORE PUSH1 0x20 PUSH1 0x0 KECCAK256 SWAP1 PUSH1 0x0 SWAP4 JUMPDEST PUSH1 0x1F NOT DUP5 AND DUP6 LT PUSH2 0xFEE JUMPI PUSH1 0x1 SWAP5 POP DUP4 PUSH1 0x1F NOT DUP2 AND LT PUSH2 0xFD5 JUMPI JUMPDEST POP POP POP DUP2 SHL ADD PUSH1 0x4 DUP3 ADD SSTORE PUSH2 0xD2B JUMP JUMPDEST ADD MLOAD PUSH1 0x0 NOT PUSH1 0xF8 DUP5 PUSH1 0x3 SHL AND SHR NOT AND SWAP1 SSTORE DUP7 DUP1 DUP1 PUSH2 0xFC5 JUMP JUMPDEST DUP2 DUP2 ADD MLOAD DUP4 SSTORE PUSH1 0x20 SWAP5 DUP6 ADD SWAP5 PUSH1 0x1 SWAP1 SWAP4 ADD SWAP3 SWAP1 SWAP2 ADD SWAP1 PUSH2 0xFAA JUMP JUMPDEST SWAP2 SWAP1 PUSH1 0x3 DUP5 ADD PUSH1 0x0 MSTORE PUSH1 0x20 PUSH1 0x0 KECCAK256 SWAP1 PUSH1 0x0 SWAP4 JUMPDEST PUSH1 0x1F NOT DUP5 AND DUP6 LT PUSH2 0x1060 JUMPI PUSH1 0x1 SWAP5 POP DUP4 PUSH1 0x1F NOT DUP2 AND LT PUSH2 0x1047 JUMPI JUMPDEST POP POP POP DUP2 SHL ADD PUSH1 0x3 DUP3 ADD SSTORE PUSH2 0xCC5 JUMP JUMPDEST ADD MLOAD PUSH1 0x0 NOT PUSH1 0xF8 DUP5 PUSH1 0x3 SHL AND SHR NOT AND SWAP1 SSTORE DUP7 DUP1 DUP1 PUSH2 0x1037 JUMP JUMPDEST DUP2 DUP2 ADD MLOAD DUP4 SSTORE PUSH1 0x20 SWAP5 DUP6 ADD SWAP5 PUSH1 0x1 SWAP1 SWAP4 ADD SWAP3 SWAP1 SWAP2 ADD SWAP1 PUSH2 0x101C JUMP JUMPDEST PUSH1 0x40 MLOAD PUSH3 0x461BCD PUSH1 0xE5 SHL DUP2 MSTORE PUSH1 0x20 PUSH1 0x4 DUP3 ADD MSTORE PUSH1 0x28 PUSH1 0x24 DUP3 ADD MSTORE PUSH32 0x4E6F20766F74696E6720706F7765722065786973747320666F72207468697320 PUSH1 0x44 DUP3 ADD MSTORE PUSH8 0x70726F7065727479 PUSH1 0xC0 SHL PUSH1 0x64 DUP3 ADD MSTORE PUSH1 0x84 SWAP1 REVERT JUMPDEST SWAP1 POP PUSH1 0x20 DUP2 RETURNDATASIZE PUSH1 0x20 GT PUSH2 0x10FB JUMPI JUMPDEST DUP2 PUSH2 0x10EC PUSH1 0x20 SWAP4 DUP4 PUSH2 0x32EA JUMP JUMPDEST DUP2 ADD SUB SLT PUSH2 0x339 JUMPI MLOAD DUP8 PUSH2 0xB5F JUMP JUMPDEST RETURNDATASIZE SWAP2 POP PUSH2 0x10DF JUMP JUMPDEST PUSH1 0x40 MLOAD RETURNDATASIZE PUSH1 0x0 DUP3 RETURNDATACOPY RETURNDATASIZE SWAP1 REVERT JUMPDEST POP PUSH1 0x20 DUP2 RETURNDATASIZE PUSH1 0x20 GT PUSH2 0x113B JUMPI JUMPDEST DUP2 PUSH2 0x1129 PUSH1 0x20 SWAP4 DUP4 PUSH2 0x32EA JUMP JUMPDEST DUP2 ADD SUB SLT PUSH2 0x339 JUMPI PUSH2 0xB16 SWAP1 MLOAD PUSH2 0xB0A JUMP JUMPDEST RETURNDATASIZE SWAP2 POP PUSH2 0x111C JUMP JUMPDEST CALLVALUE PUSH2 0x339 JUMPI PUSH1 0x0 CALLDATASIZE PUSH1 0x3 NOT ADD SLT PUSH2 0x339 JUMPI PUSH1 0x20 PUSH1 0x40 MLOAD PUSH32 0xE2B7FB3B832174769106DAEBCFD6D1970523240DDA11281102DB9363B83B0DC4 DUP2 MSTORE RETURN JUMPDEST CALLVALUE PUSH2 0x339 JUMPI PUSH1 0x0 CALLDATASIZE PUSH1 0x3 NOT ADD SLT PUSH2 0x339 JUMPI PUSH1 0x20 PUSH1 0xD SLOAD PUSH1 0x40 MLOAD SWAP1 DUP2 MSTORE RETURN JUMPDEST CALLVALUE PUSH2 0x339 JUMPI PUSH1 0x40 CALLDATASIZE PUSH1 0x3 NOT ADD SLT PUSH2 0x339 JUMPI PUSH2 0x11B5 PUSH2 0x3435 JUMP JUMPDEST PUSH1 0x4 CALLDATALOAD PUSH1 0x0 MSTORE PUSH1 0x0 PUSH1 0x20 MSTORE PUSH1 0x40 PUSH1 0x0 KECCAK256 SWAP1 PUSH1 0x1 DUP1 PUSH1 0xA0 SHL SUB AND PUSH1 0x0 MSTORE PUSH1 0x20 MSTORE PUSH1 0x20 PUSH1 0xFF PUSH1 0x40 PUSH1 0x0 KECCAK256 SLOAD AND PUSH1 0x40 MLOAD SWAP1 ISZERO ISZERO DUP2 MSTORE RETURN JUMPDEST CALLVALUE PUSH2 0x339 JUMPI PUSH1 0x0 CALLDATASIZE PUSH1 0x3 NOT ADD SLT PUSH2 0x339 JUMPI PUSH1 0x20 PUSH1 0x40 MLOAD PUSH32 0xB09AA5AEB3702CFD50B6B62BC4532604938F21248A27A1D5CA736082B6819CC1 DUP2 MSTORE RETURN JUMPDEST CALLVALUE PUSH2 0x339 JUMPI PUSH1 0x20 CALLDATASIZE PUSH1 0x3 NOT ADD SLT PUSH2 0x339 JUMPI PUSH1 0x4 CALLDATALOAD PUSH2 0x1240 PUSH2 0x3C1B JUMP JUMPDEST PUSH2 0x1F4 DUP2 GT PUSH2 0x127A JUMPI PUSH1 0x20 DUP2 PUSH32 0x4ADE7322D9A0C41DC254574F72D3D442F06ADDCC77917DCB9CB1AC4441D1B20F SWAP3 PUSH1 0x5 SSTORE PUSH1 0x40 MLOAD SWAP1 DUP2 MSTORE LOG1 STOP JUMPDEST PUSH1 0x40 MLOAD PUSH3 0x461BCD PUSH1 0xE5 SHL DUP2 MSTORE PUSH1 0x20 PUSH1 0x4 DUP3 ADD MSTORE PUSH1 0xE PUSH1 0x24 DUP3 ADD MSTORE PUSH14 0x84DEDCEAE640E8DEDE40D0D2CED PUSH1 0x93 SHL PUSH1 0x44 DUP3 ADD MSTORE PUSH1 0x64 SWAP1 REVERT JUMPDEST CALLVALUE PUSH2 0x339 JUMPI PUSH1 0x0 CALLDATASIZE PUSH1 0x3 NOT ADD SLT PUSH2 0x339 JUMPI PUSH1 0x20 PUSH1 0x40 MLOAD PUSH32 0xA122AEDC7C2408A97BCFE5D8FF1F6A6D7BF779A8B6DD3D72FF503E8FCF9D2EB9 DUP2 MSTORE RETURN JUMPDEST PUSH2 0x34B1 JUMP JUMPDEST CALLVALUE PUSH2 0x339 JUMPI PUSH1 0x20 CALLDATASIZE PUSH1 0x3 NOT ADD SLT PUSH2 0x339 JUMPI PUSH1 0x1 PUSH1 0x1 PUSH1 0xA0 SHL SUB PUSH2 0x1311 PUSH2 0x341F JUMP JUMPDEST AND PUSH1 0x0 MSTORE PUSH1 0x3 PUSH1 0x20 MSTORE PUSH1 0x20 PUSH1 0x40 PUSH1 0x0 KECCAK256 SLOAD PUSH1 0x40 MLOAD SWAP1 DUP2 MSTORE RETURN JUMPDEST CALLVALUE PUSH2 0x339 JUMPI PUSH1 0x20 DUP1 PUSH1 0x3 NOT CALLDATASIZE ADD SLT PUSH2 0x339 JUMPI PUSH1 0x4 CALLDATALOAD PUSH1 0x0 SWAP1 PUSH1 0x0 PUSH1 0xD SLOAD SWAP1 JUMPDEST DUP2 DUP2 LT PUSH2 0x1487 JUMPI POP PUSH2 0x1373 PUSH2 0x135D DUP5 PUSH2 0x3948 JUMP JUMPDEST SWAP4 PUSH2 0x136B PUSH1 0x40 MLOAD SWAP6 DUP7 PUSH2 0x32EA JUMP JUMPDEST DUP1 DUP6 MSTORE PUSH2 0x3948 JUMP JUMPDEST PUSH1 0x1F NOT ADD DUP5 PUSH1 0x0 JUMPDEST DUP3 DUP2 LT PUSH2 0x1471 JUMPI POP POP POP PUSH1 0x0 DUP1 JUMPDEST DUP3 DUP2 LT PUSH2 0x13EE JUMPI PUSH1 0x40 DUP1 MLOAD DUP8 DUP2 MSTORE DUP7 MLOAD DUP2 DUP10 ADD DUP2 SWAP1 MSTORE PUSH1 0x0 SWAP3 PUSH1 0x5 DUP3 SWAP1 SHL DUP4 ADD DUP2 ADD SWAP2 DUP10 DUP12 ADD SWAP2 DUP12 SWAP1 DUP6 ADD JUMPDEST DUP3 DUP8 LT PUSH2 0x13C2 JUMPI DUP6 DUP6 SUB DUP7 RETURN JUMPDEST SWAP1 SWAP2 SWAP3 SWAP4 DUP3 DUP1 PUSH2 0x13DE PUSH1 0x1 SWAP4 PUSH1 0x3F NOT DUP11 DUP3 SUB ADD DUP7 MSTORE DUP9 MLOAD PUSH2 0x336F JUMP JUMPDEST SWAP7 ADD SWAP3 ADD SWAP7 ADD SWAP6 SWAP3 SWAP2 SWAP1 SWAP3 PUSH2 0x13B5 JUMP JUMPDEST DUP1 PUSH1 0x0 MSTORE PUSH1 0xC SWAP1 DUP2 DUP8 MSTORE PUSH1 0x40 PUSH1 0x0 KECCAK256 SWAP2 DUP6 PUSH1 0x1 DUP5 ADD SLOAD EQ DUP1 PUSH2 0x1454 JUMPI JUMPDEST PUSH1 0x1 SWAP4 POP PUSH2 0x141B JUMPI JUMPDEST POP ADD PUSH2 0x1389 JUMP JUMPDEST DUP2 PUSH1 0x0 MSTORE DUP8 MSTORE PUSH2 0x144D PUSH1 0x40 PUSH1 0x0 KECCAK256 SWAP4 PUSH2 0x143C PUSH2 0x1436 DUP3 PUSH2 0x382C JUMP JUMPDEST SWAP6 PUSH2 0x3629 JUMP JUMPDEST PUSH2 0x1446 DUP3 DUP11 PUSH2 0x39CD JUMP JUMPDEST MSTORE DUP8 PUSH2 0x39CD JUMP JUMPDEST POP DUP8 PUSH2 0x1414 JUMP JUMPDEST POP SWAP2 PUSH1 0xA PUSH1 0xFF SWAP2 ADD SLOAD AND SWAP2 PUSH1 0x3 DUP4 LT ISZERO PUSH2 0x323 JUMPI PUSH1 0x1 SWAP3 ISZERO PUSH2 0x140B JUMP JUMPDEST PUSH2 0x1479 PUSH2 0x35CD JUMP JUMPDEST DUP3 DUP3 DUP9 ADD ADD MSTORE ADD DUP6 SWAP1 PUSH2 0x137B JUMP JUMPDEST DUP1 PUSH1 0x0 MSTORE PUSH1 0xC DUP6 MSTORE PUSH1 0x40 PUSH1 0x0 KECCAK256 DUP4 PUSH1 0x1 DUP3 ADD SLOAD EQ SWAP1 DUP2 PUSH2 0x14C4 JUMPI JUMPDEST POP PUSH2 0x14B0 JUMPI JUMPDEST PUSH1 0x1 ADD PUSH2 0x1349 JUMP JUMPDEST SWAP3 PUSH2 0x14BC PUSH1 0x1 SWAP2 PUSH2 0x382C JUMP JUMPDEST SWAP4 SWAP1 POP PUSH2 0x14A8 JUMP JUMPDEST PUSH1 0xFF SWAP2 POP PUSH1 0xA ADD SLOAD AND PUSH1 0x3 DUP2 LT ISZERO PUSH2 0x323 JUMPI ISZERO DUP7 PUSH2 0x14A2 JUMP JUMPDEST CALLVALUE PUSH2 0x339 JUMPI PUSH1 0x40 CALLDATASIZE PUSH1 0x3 NOT ADD SLT PUSH2 0x339 JUMPI PUSH2 0x14F6 PUSH2 0x3435 JUMP JUMPDEST PUSH1 0x4 CALLDATALOAD PUSH1 0x0 MSTORE PUSH1 0xE PUSH1 0x20 MSTORE PUSH1 0x40 PUSH1 0x0 KECCAK256 SWAP1 PUSH1 0x1 DUP1 PUSH1 0xA0 SHL SUB AND PUSH1 0x0 MSTORE PUSH1 0x20 MSTORE PUSH1 0x40 DUP1 PUSH1 0x0 KECCAK256 SLOAD PUSH1 0xFF DUP3 MLOAD SWAP2 DUP2 DUP2 AND ISZERO ISZERO DUP4 MSTORE PUSH1 0x8 SHR AND ISZERO ISZERO PUSH1 0x20 DUP3 ADD MSTORE RETURN JUMPDEST CALLVALUE PUSH2 0x339 JUMPI PUSH1 0x20 DUP1 PUSH1 0x3 NOT CALLDATASIZE ADD SLT PUSH2 0x339 JUMPI PUSH1 0x4 CALLDATALOAD PUSH1 0x0 SWAP1 PUSH1 0x0 PUSH1 0x7 SLOAD SWAP1 JUMPDEST DUP2 DUP2 LT PUSH2 0x166E JUMPI POP PUSH2 0x1568 PUSH2 0x135D DUP5 PUSH2 0x3948 JUMP JUMPDEST PUSH1 0x1F NOT ADD DUP5 PUSH1 0x0 JUMPDEST DUP3 DUP2 LT PUSH2 0x1658 JUMPI POP POP POP PUSH1 0x0 DUP1 JUMPDEST DUP3 DUP2 LT PUSH2 0x15E3 JUMPI PUSH1 0x40 DUP1 MLOAD DUP8 DUP2 MSTORE DUP7 MLOAD DUP2 DUP10 ADD DUP2 SWAP1 MSTORE PUSH1 0x0 SWAP3 PUSH1 0x5 DUP3 SWAP1 SHL DUP4 ADD DUP2 ADD SWAP2 DUP10 DUP12 ADD SWAP2 DUP12 SWAP1 DUP6 ADD JUMPDEST DUP3 DUP8 LT PUSH2 0x15B7 JUMPI DUP6 DUP6 SUB DUP7 RETURN JUMPDEST SWAP1 SWAP2 SWAP3 SWAP4 DUP3 DUP1 PUSH2 0x15D3 PUSH1 0x1 SWAP4 PUSH1 0x3F NOT DUP11 DUP3 SUB ADD DUP7 MSTORE DUP9 MLOAD PUSH2 0x34CE JUMP JUMPDEST SWAP7 ADD SWAP3 ADD SWAP7 ADD SWAP6 SWAP3 SWAP2 SWAP1 SWAP3 PUSH2 0x15AA JUMP JUMPDEST DUP1 PUSH1 0x0 MSTORE PUSH1 0x6 SWAP1 DUP2 DUP8 MSTORE PUSH1 0x40 PUSH1 0x0 KECCAK256 SWAP2 PUSH1 0x1 SWAP3 DUP7 DUP5 DUP3 ADD SLOAD EQ SWAP1 DUP2 PUSH2 0x163C JUMPI JUMPDEST POP PUSH1 0x1 SWAP4 POP PUSH2 0x1614 JUMPI JUMPDEST POP ADD PUSH2 0x157E JUMP JUMPDEST DUP2 PUSH1 0x0 MSTORE DUP8 MSTORE PUSH2 0x1635 PUSH1 0x40 PUSH1 0x0 KECCAK256 SWAP4 PUSH2 0x143C PUSH2 0x162F DUP3 PUSH2 0x382C JUMP JUMPDEST SWAP6 PUSH2 0x39F7 JUMP JUMPDEST POP DUP8 PUSH2 0x160D JUMP JUMPDEST PUSH1 0xFF SWAP2 POP PUSH1 0xC ADD SLOAD AND SWAP3 DUP2 DUP5 LT ISZERO PUSH2 0x323 JUMPI PUSH1 0x1 SWAP4 EQ DUP10 PUSH2 0x1603 JUMP JUMPDEST PUSH2 0x1660 PUSH2 0x395F JUMP JUMPDEST DUP3 DUP3 DUP9 ADD ADD MSTORE ADD DUP6 SWAP1 PUSH2 0x1570 JUMP JUMPDEST DUP1 PUSH1 0x0 MSTORE PUSH1 0x6 DUP1 DUP7 MSTORE PUSH1 0x40 PUSH1 0x0 KECCAK256 SWAP1 PUSH1 0x1 SWAP1 DUP6 DUP3 DUP5 ADD SLOAD EQ SWAP3 DUP4 PUSH2 0x16B1 JUMPI JUMPDEST POP POP POP PUSH2 0x169D JUMPI JUMPDEST PUSH1 0x1 ADD PUSH2 0x1554 JUMP JUMPDEST SWAP3 PUSH2 0x16A9 PUSH1 0x1 SWAP2 PUSH2 0x382C JUMP JUMPDEST SWAP4 SWAP1 POP PUSH2 0x1695 JUMP JUMPDEST PUSH1 0xFF SWAP2 SWAP3 SWAP4 POP PUSH1 0xC ADD SLOAD AND SWAP1 DUP2 LT ISZERO PUSH2 0x323 JUMPI EQ DUP7 DUP1 DUP1 PUSH2 0x168D JUMP JUMPDEST CALLVALUE PUSH2 0x339 JUMPI PUSH1 0x20 CALLDATASIZE PUSH1 0x3 NOT ADD SLT PUSH2 0x339 JUMPI PUSH1 0x1 PUSH1 0x1 PUSH1 0xA0 SHL SUB PUSH2 0x16EE PUSH2 0x341F JUMP JUMPDEST AND PUSH1 0x0 MSTORE PUSH1 0xA PUSH1 0x20 MSTORE PUSH1 0x20 PUSH1 0x40 PUSH1 0x0 KECCAK256 SLOAD PUSH1 0x40 MLOAD SWAP1 DUP2 MSTORE RETURN JUMPDEST CALLVALUE PUSH2 0x339 JUMPI PUSH1 0x40 CALLDATASIZE PUSH1 0x3 NOT ADD SLT PUSH2 0x339 JUMPI PUSH1 0x4 CALLDATALOAD PUSH2 0x1723 PUSH2 0x344B JUMP JUMPDEST PUSH2 0x172B PUSH2 0x3C7B JUMP JUMPDEST DUP2 PUSH1 0x0 MSTORE PUSH1 0x20 SWAP2 PUSH1 0x6 DUP4 MSTORE PUSH1 0x40 PUSH1 0x0 KECCAK256 SWAP2 PUSH1 0xFF PUSH1 0xC DUP5 ADD SLOAD AND SWAP4 PUSH1 0x6 DUP6 LT ISZERO PUSH2 0x323 JUMPI PUSH2 0x175B PUSH1 0x1 DUP1 SWAP7 EQ PUSH2 0x36F2 JUMP JUMPDEST PUSH2 0x176B PUSH1 0x9 DUP6 ADD SLOAD TIMESTAMP LT ISZERO PUSH2 0x3734 JUMP JUMPDEST PUSH2 0x177A PUSH1 0xA DUP6 ADD SLOAD TIMESTAMP LT PUSH2 0x3775 JUMP JUMPDEST PUSH1 0xFF DUP3 AND SWAP4 PUSH2 0x178C PUSH1 0x2 DUP7 GT ISZERO PUSH2 0x37B0 JUMP JUMPDEST DUP4 PUSH1 0x0 MSTORE PUSH1 0x8 DUP3 MSTORE PUSH1 0x40 PUSH1 0x0 KECCAK256 CALLER PUSH1 0x0 MSTORE DUP3 MSTORE PUSH2 0x17F5 PUSH1 0x40 PUSH1 0x0 KECCAK256 DUP1 SLOAD SWAP5 PUSH2 0x17B7 PUSH1 0xFF DUP8 AND ISZERO PUSH2 0x37F0 JUMP JUMPDEST PUSH1 0x2 SLOAD DUP10 DUP6 ADD SLOAD PUSH1 0x40 MLOAD PUSH4 0x6DED6A19 PUSH1 0xE1 SHL DUP2 MSTORE PUSH1 0x4 DUP2 ADD SWAP2 SWAP1 SWAP2 MSTORE CALLER PUSH1 0x24 DUP3 ADD MSTORE SWAP4 DUP7 SWAP2 DUP6 SWAP2 PUSH1 0x1 PUSH1 0x1 PUSH1 0xA0 SHL SUB SWAP1 SWAP2 AND SWAP1 DUP3 SWAP1 DUP2 SWAP1 PUSH1 0x44 DUP3 ADD SWAP1 JUMP JUMPDEST SUB SWAP2 GAS STATICCALL SWAP6 DUP7 ISZERO PUSH2 0x1103 JUMPI DUP10 SWAP4 PUSH1 0x0 SWAP8 PUSH2 0x18DA JUMPI JUMPDEST POP DUP4 SWAP3 SWAP2 DUP8 SWAP5 PUSH2 0x183D SWAP3 PUSH2 0x181F DUP8 ISZERO ISZERO PUSH2 0x383B JUMP JUMPDEST PUSH2 0xFF00 NOT SWAP1 SWAP2 AND PUSH2 0xFFFF NOT SWAP1 SWAP2 AND OR PUSH1 0x8 SWAP2 SWAP1 SWAP2 SHL PUSH2 0xFF00 AND OR DUP3 SSTORE JUMP JUMPDEST ADD SSTORE DUP5 PUSH2 0x18B0 JUMPI PUSH1 0x7 ADD PUSH2 0x1852 DUP4 DUP3 SLOAD PUSH2 0x3879 JUMP JUMPDEST SWAP1 SSTORE JUMPDEST CALLER PUSH1 0x0 MSTORE PUSH1 0xA DUP2 MSTORE PUSH1 0x40 PUSH1 0x0 KECCAK256 PUSH2 0x186C DUP2 SLOAD PUSH2 0x382C JUMP JUMPDEST SWAP1 SSTORE CALLER PUSH1 0x0 MSTORE PUSH1 0xB DUP2 MSTORE TIMESTAMP PUSH1 0x40 PUSH1 0x0 KECCAK256 SSTORE PUSH1 0x40 MLOAD SWAP4 DUP5 MSTORE DUP4 ADD MSTORE PUSH32 0xB83D25C6A5D258561330739951487ACB4BD09BA5190B5D32C4F261817D906792 PUSH1 0x40 CALLER SWAP4 LOG3 DUP1 SSTORE STOP JUMPDEST DUP5 DUP7 SUB PUSH2 0x18CC JUMPI PUSH1 0x6 ADD PUSH2 0x18C5 DUP4 DUP3 SLOAD PUSH2 0x3879 JUMP JUMPDEST SWAP1 SSTORE PUSH2 0x1855 JUMP JUMPDEST PUSH1 0x8 ADD PUSH2 0x18C5 DUP4 DUP3 SLOAD PUSH2 0x3879 JUMP JUMPDEST SWAP7 POP SWAP3 POP SWAP1 DUP5 DUP7 DUP2 RETURNDATASIZE DUP2 GT PUSH2 0x190C JUMPI JUMPDEST PUSH2 0x18F4 DUP2 DUP4 PUSH2 0x32EA JUMP JUMPDEST DUP2 ADD SUB SLT PUSH2 0x339 JUMPI SWAP5 MLOAD SWAP5 DUP9 SWAP3 SWAP1 SWAP2 SWAP1 PUSH2 0x183D PUSH2 0x180A JUMP JUMPDEST POP RETURNDATASIZE PUSH2 0x18EA JUMP JUMPDEST CALLVALUE PUSH2 0x339 JUMPI PUSH1 0x20 CALLDATASIZE PUSH1 0x3 NOT ADD SLT PUSH2 0x339 JUMPI PUSH1 0x4 CALLDATALOAD DUP1 PUSH1 0x0 MSTORE PUSH1 0x6 PUSH1 0x20 MSTORE PUSH1 0x40 PUSH1 0x0 KECCAK256 SWAP1 PUSH1 0xC DUP3 ADD SWAP2 DUP3 SLOAD SWAP2 PUSH1 0xFF DUP4 AND PUSH1 0x6 DUP2 LT ISZERO PUSH2 0x323 JUMPI PUSH1 0x1 PUSH2 0x1957 SWAP2 EQ PUSH2 0x36F2 JUMP JUMPDEST PUSH1 0xA DUP3 ADD SLOAD TIMESTAMP LT PUSH2 0x1A16 JUMPI PUSH1 0x6 DUP3 ADD SLOAD SWAP2 PUSH1 0x7 DUP2 ADD SLOAD SWAP2 PUSH2 0x1986 PUSH2 0x197B DUP5 DUP7 PUSH2 0x3879 JUMP JUMPDEST PUSH1 0x8 DUP5 ADD SLOAD SWAP1 PUSH2 0x3879 JUMP JUMPDEST PUSH1 0x0 SWAP2 DUP3 MSTORE PUSH1 0x9 PUSH1 0x20 MSTORE PUSH1 0x40 SWAP1 SWAP2 KECCAK256 SLOAD SWAP1 DUP2 ISZERO PUSH2 0x1A0A JUMPI PUSH2 0x2710 SWAP1 DUP2 DUP2 MUL SWAP2 DUP2 DUP4 DIV EQ SWAP1 ISZERO OR ISZERO PUSH2 0x19F4 JUMPI PUSH1 0xB SWAP2 PUSH2 0x19BD SWAP2 PUSH2 0x38DC JUMP JUMPDEST SWAP2 JUMPDEST ADD SLOAD GT ISZERO SWAP2 DUP3 PUSH2 0x19EA JUMPI JUMPDEST POP POP ISZERO PUSH2 0x19DF JUMPI POP DUP1 SLOAD PUSH1 0xFF NOT AND PUSH1 0x2 OR SWAP1 SSTORE STOP JUMPDEST PUSH1 0xFF NOT AND PUSH1 0x3 OR SWAP1 SSTORE STOP JUMPDEST GT SWAP1 POP DUP4 DUP1 PUSH2 0x19CA JUMP JUMPDEST PUSH4 0x4E487B71 PUSH1 0xE0 SHL PUSH1 0x0 MSTORE PUSH1 0x11 PUSH1 0x4 MSTORE PUSH1 0x24 PUSH1 0x0 REVERT JUMPDEST POP POP PUSH1 0xB PUSH1 0x0 SWAP2 PUSH2 0x19BF JUMP JUMPDEST PUSH1 0x40 MLOAD PUSH3 0x461BCD PUSH1 0xE5 SHL DUP2 MSTORE PUSH1 0x20 PUSH1 0x4 DUP3 ADD MSTORE PUSH1 0x10 PUSH1 0x24 DUP3 ADD MSTORE PUSH16 0x159BDD1A5B99C81B9BDD08195B991959 PUSH1 0x82 SHL PUSH1 0x44 DUP3 ADD MSTORE PUSH1 0x64 SWAP1 REVERT JUMPDEST CALLVALUE PUSH2 0x339 JUMPI PUSH1 0x0 CALLDATASIZE PUSH1 0x3 NOT ADD SLT PUSH2 0x339 JUMPI PUSH1 0x20 PUSH1 0x40 MLOAD PUSH2 0x1388 DUP2 MSTORE RETURN JUMPDEST CALLVALUE PUSH2 0x339 JUMPI PUSH1 0x20 CALLDATASIZE PUSH1 0x3 NOT ADD SLT PUSH2 0x339 JUMPI PUSH1 0x4 CALLDATALOAD PUSH1 0x0 MSTORE PUSH1 0x9 PUSH1 0x20 MSTORE PUSH1 0x20 PUSH1 0x40 PUSH1 0x0 KECCAK256 SLOAD PUSH1 0x40 MLOAD SWAP1 DUP2 MSTORE RETURN JUMPDEST CALLVALUE PUSH2 0x339 JUMPI PUSH1 0x60 CALLDATASIZE PUSH1 0x3 NOT ADD SLT PUSH2 0x339 JUMPI PUSH1 0x4 PUSH1 0x24 CALLDATALOAD LT ISZERO PUSH2 0x339 JUMPI PUSH1 0x44 CALLDATALOAD PUSH1 0x1 PUSH1 0x1 PUSH1 0x40 SHL SUB DUP2 GT PUSH2 0x339 JUMPI PUSH2 0x1AD2 SWAP1 CALLDATASIZE SWAP1 PUSH1 0x4 ADD PUSH2 0x345B JUMP JUMPDEST PUSH2 0x1ADA PUSH2 0x3BBF JUMP JUMPDEST PUSH1 0x4 CALLDATALOAD PUSH1 0x0 MSTORE PUSH1 0xC PUSH1 0x20 MSTORE PUSH1 0x40 PUSH1 0x0 KECCAK256 SWAP1 PUSH1 0xFF PUSH1 0xA DUP4 ADD SLOAD AND PUSH1 0x3 DUP2 LT ISZERO PUSH2 0x323 JUMPI PUSH1 0x1 SUB PUSH2 0x239E JUMPI PUSH1 0xB DUP3 ADD SLOAD PUSH2 0x2365 JUMPI PUSH1 0x6 DUP3 ADD SLOAD PUSH2 0x1B1F PUSH1 0x7 DUP5 ADD SLOAD DUP3 PUSH2 0x3879 JUMP JUMPDEST SWAP1 DUP2 ISZERO PUSH2 0x2330 JUMPI PUSH2 0x2710 SWAP1 DUP2 DUP2 MUL SWAP2 DUP2 DUP4 DIV EQ SWAP1 ISZERO OR ISZERO PUSH2 0x19F4 JUMPI PUSH2 0xBB8 SWAP2 PUSH2 0x1B47 SWAP2 PUSH2 0x38DC JUMP JUMPDEST LT PUSH2 0x22EB JUMPI PUSH1 0x2 SLOAD PUSH1 0x1 DUP4 ADD SLOAD PUSH1 0x40 MLOAD PUSH4 0x6DED6A19 PUSH1 0xE1 SHL DUP2 MSTORE PUSH1 0x4 DUP2 ADD SWAP2 SWAP1 SWAP2 MSTORE CALLER PUSH1 0x24 DUP3 ADD MSTORE PUSH1 0x1 PUSH1 0x1 PUSH1 0xA0 SHL SUB SWAP1 SWAP2 AND SWAP3 SWAP1 PUSH1 0x20 DUP2 PUSH1 0x44 DUP2 DUP8 GAS STATICCALL DUP1 ISZERO PUSH2 0x1103 JUMPI PUSH1 0x0 SWAP1 PUSH2 0x22B7 JUMPI JUMPDEST PUSH2 0x1B9F SWAP2 POP ISZERO ISZERO PUSH2 0x38FC JUMP JUMPDEST PUSH1 0x7 SLOAD SWAP2 PUSH2 0x1BAC DUP4 PUSH2 0x382C JUMP JUMPDEST PUSH1 0x7 SSTORE PUSH2 0x1BBA PUSH1 0x24 CALLDATALOAD PUSH2 0x3D91 JUMP JUMPDEST PUSH2 0x1F4 DUP2 GT ISZERO PUSH2 0x22B1 JUMPI DUP1 PUSH2 0x1F3 NOT DUP2 ADD GT PUSH2 0x19F4 JUMPI PUSH2 0x1F3 NOT ADD SWAP4 JUMPDEST PUSH1 0x20 PUSH1 0x1 DUP5 ADD SLOAD PUSH1 0x24 PUSH1 0x40 MLOAD DUP1 SWAP5 DUP2 SWAP4 PUSH4 0x8CDC1E87 PUSH1 0xE0 SHL DUP4 MSTORE PUSH1 0x4 DUP4 ADD MSTORE GAS STATICCALL SWAP1 DUP2 ISZERO PUSH2 0x1103 JUMPI PUSH1 0x0 SWAP2 PUSH2 0x227F JUMPI JUMPDEST POP DUP1 ISZERO PUSH2 0x2241 JUMPI DUP4 PUSH1 0x0 MSTORE PUSH1 0x9 PUSH1 0x20 MSTORE PUSH1 0x40 PUSH1 0x0 KECCAK256 SSTORE PUSH1 0x1 DUP3 ADD SLOAD SWAP4 PUSH2 0x1C2F PUSH1 0x4 SLOAD TIMESTAMP PUSH2 0x3879 JUMP JUMPDEST PUSH1 0x40 MLOAD SWAP6 PUSH2 0x1C3C DUP8 PUSH2 0x32B3 JUMP JUMPDEST DUP6 DUP8 MSTORE PUSH1 0x20 DUP8 ADD MSTORE CALLER PUSH1 0x40 DUP8 ADD MSTORE PUSH2 0x1C55 PUSH1 0x24 CALLDATALOAD PUSH2 0x330B JUMP JUMPDEST PUSH1 0x24 CALLDATALOAD PUSH1 0x60 DUP8 ADD MSTORE PUSH1 0x40 MLOAD PUSH2 0x1C78 DUP2 PUSH2 0x1C71 DUP2 PUSH1 0x3 DUP10 ADD PUSH2 0x3201 JUMP JUMPDEST SUB DUP3 PUSH2 0x32EA JUMP JUMPDEST PUSH1 0x80 DUP8 ADD MSTORE PUSH1 0x40 MLOAD PUSH2 0x1C91 DUP2 PUSH2 0x1C71 DUP2 PUSH1 0x4 DUP10 ADD PUSH2 0x3201 JUMP JUMPDEST PUSH1 0xA0 DUP8 ADD MSTORE PUSH1 0x40 MLOAD PUSH2 0x1CAA DUP2 PUSH2 0x1C71 DUP2 PUSH1 0x5 DUP10 ADD PUSH2 0x3201 JUMP JUMPDEST PUSH1 0xC0 DUP8 ADD MSTORE PUSH1 0x0 PUSH1 0xE0 DUP8 ADD MSTORE PUSH1 0x0 PUSH2 0x100 DUP8 ADD MSTORE PUSH1 0x0 PUSH2 0x120 DUP8 ADD MSTORE TIMESTAMP PUSH2 0x140 DUP8 ADD MSTORE PUSH2 0x160 DUP7 ADD MSTORE PUSH2 0x180 DUP6 ADD MSTORE PUSH1 0x1 PUSH2 0x1A0 DUP6 ADD MSTORE PUSH2 0x1C0 DUP5 ADD MSTORE DUP2 PUSH1 0x0 MSTORE PUSH1 0x6 PUSH1 0x20 MSTORE PUSH1 0x40 PUSH1 0x0 KECCAK256 SWAP3 DUP1 MLOAD DUP5 SSTORE PUSH1 0x20 DUP2 ADD MLOAD PUSH1 0x1 DUP6 ADD SSTORE PUSH1 0x2 DUP5 ADD PUSH1 0x1 DUP1 PUSH1 0xA0 SHL SUB PUSH1 0x40 DUP4 ADD MLOAD AND DUP2 SLOAD SWAP1 PUSH1 0x60 DUP5 ADD MLOAD PUSH2 0x1D26 DUP2 PUSH2 0x330B JUMP JUMPDEST PUSH2 0x1D2F DUP2 PUSH2 0x330B JUMP JUMPDEST PUSH1 0x1 PUSH1 0x1 PUSH1 0xA8 SHL SUB NOT SWAP1 SWAP3 AND OR PUSH1 0xA0 SWAP2 SWAP1 SWAP2 SHL PUSH1 0xFF PUSH1 0xA0 SHL AND OR SWAP1 SSTORE PUSH1 0x80 DUP2 ADD MLOAD DUP1 MLOAD SWAP1 PUSH1 0x1 PUSH1 0x1 PUSH1 0x40 SHL SUB DUP3 GT PUSH2 0xF0F JUMPI PUSH2 0x1D7B DUP3 PUSH2 0x1D72 PUSH1 0x3 DUP10 ADD SLOAD PUSH2 0x31C7 JUMP JUMPDEST PUSH1 0x3 DUP10 ADD PUSH2 0x3886 JUMP JUMPDEST PUSH1 0x20 SWAP1 PUSH1 0x1F DUP4 GT PUSH1 0x1 EQ PUSH2 0x21CF JUMPI PUSH2 0x1DAB SWAP3 SWAP2 PUSH1 0x0 SWAP2 DUP4 PUSH2 0xE9E JUMPI POP POP DUP2 PUSH1 0x1 SHL SWAP2 PUSH1 0x0 NOT SWAP1 PUSH1 0x3 SHL SHR NOT AND OR SWAP1 JUMP JUMPDEST PUSH1 0x3 DUP6 ADD SSTORE JUMPDEST PUSH1 0xA0 DUP2 ADD MLOAD DUP1 MLOAD SWAP1 PUSH1 0x1 PUSH1 0x1 PUSH1 0x40 SHL SUB DUP3 GT PUSH2 0xF0F JUMPI PUSH2 0x1DE1 DUP3 PUSH2 0x1DD8 PUSH1 0x4 DUP10 ADD SLOAD PUSH2 0x31C7 JUMP JUMPDEST PUSH1 0x4 DUP10 ADD PUSH2 0x3886 JUMP JUMPDEST PUSH1 0x20 SWAP1 PUSH1 0x1F DUP4 GT PUSH1 0x1 EQ PUSH2 0x215D JUMPI PUSH2 0x1E11 SWAP3 SWAP2 PUSH1 0x0 SWAP2 DUP4 PUSH2 0xE9E JUMPI POP POP DUP2 PUSH1 0x1 SHL SWAP2 PUSH1 0x0 NOT SWAP1 PUSH1 0x3 SHL SHR NOT AND OR SWAP1 JUMP JUMPDEST PUSH1 0x4 DUP6 ADD SSTORE JUMPDEST PUSH1 0xC0 DUP2 ADD MLOAD DUP1 MLOAD SWAP1 PUSH1 0x1 PUSH1 0x1 PUSH1 0x40 SHL SUB DUP3 GT PUSH2 0xF0F JUMPI PUSH2 0x1E47 DUP3 PUSH2 0x1E3E PUSH1 0x5 DUP10 ADD SLOAD PUSH2 0x31C7 JUMP JUMPDEST PUSH1 0x5 DUP10 ADD PUSH2 0x3886 JUMP JUMPDEST PUSH1 0x20 SWAP1 PUSH1 0x1F DUP4 GT PUSH1 0x1 EQ PUSH2 0x20EB JUMPI PUSH2 0x1E77 SWAP3 SWAP2 PUSH1 0x0 SWAP2 DUP4 PUSH2 0xE9E JUMPI POP POP DUP2 PUSH1 0x1 SHL SWAP2 PUSH1 0x0 NOT SWAP1 PUSH1 0x3 SHL SHR NOT AND OR SWAP1 JUMP JUMPDEST PUSH1 0x5 DUP6 ADD SSTORE JUMPDEST PUSH1 0xE0 DUP2 ADD MLOAD PUSH1 0x6 DUP6 ADD SSTORE PUSH2 0x100 DUP2 ADD MLOAD PUSH1 0x7 DUP6 ADD SSTORE PUSH2 0x120 DUP2 ADD MLOAD PUSH1 0x8 DUP6 ADD SSTORE PUSH2 0x140 DUP2 ADD MLOAD PUSH1 0x9 DUP6 ADD SSTORE PUSH2 0x160 DUP2 ADD MLOAD PUSH1 0xA DUP6 ADD SSTORE PUSH2 0x180 DUP2 ADD MLOAD PUSH1 0xB DUP6 ADD SSTORE PUSH2 0x1A0 DUP2 ADD MLOAD SWAP1 PUSH1 0x6 DUP3 LT ISZERO PUSH2 0x323 JUMPI PUSH2 0x1EDE PUSH2 0x1C0 SWAP3 PUSH1 0xC DUP8 ADD PUSH2 0x35B5 JUMP JUMPDEST ADD MLOAD SWAP3 DUP4 MLOAD PUSH1 0x1 PUSH1 0x1 PUSH1 0x40 SHL SUB DUP2 GT PUSH2 0xF0F JUMPI PUSH1 0x20 SWAP5 PUSH2 0x1F0E DUP3 PUSH2 0x1F05 PUSH1 0xD DUP7 ADD SLOAD PUSH2 0x31C7 JUMP JUMPDEST PUSH1 0xD DUP7 ADD PUSH2 0x3886 JUMP JUMPDEST DUP6 SWAP1 PUSH1 0x1F DUP4 GT PUSH1 0x1 EQ PUSH2 0x207D JUMPI SWAP2 DUP1 PUSH2 0x1F40 SWAP3 PUSH1 0xD SWAP5 PUSH1 0x0 SWAP3 PUSH2 0x2072 JUMPI POP POP DUP2 PUSH1 0x1 SHL SWAP2 PUSH1 0x0 NOT SWAP1 PUSH1 0x3 SHL SHR NOT AND OR SWAP1 JUMP JUMPDEST SWAP2 ADD SSTORE JUMPDEST DUP2 PUSH1 0xFF NOT PUSH1 0x2 DUP2 PUSH1 0xA DUP6 ADD SLOAD AND OR PUSH1 0xA DUP5 ADD SSTORE DUP2 PUSH1 0xB DUP5 ADD SSTORE PUSH1 0x1 DUP4 ADD SLOAD SWAP3 PUSH1 0x40 MLOAD SWAP2 CALLER DUP4 MSTORE PUSH2 0x1F75 PUSH1 0x24 CALLDATALOAD PUSH2 0x330B JUMP JUMPDEST PUSH1 0x24 CALLDATALOAD DUP8 DUP5 ADD MSTORE PUSH1 0x60 PUSH1 0x40 DUP5 ADD MSTORE PUSH1 0x0 SWAP2 PUSH1 0x3 DUP2 ADD SLOAD PUSH2 0x1F94 DUP2 PUSH2 0x31C7 JUMP JUMPDEST SWAP3 DUP4 PUSH1 0x60 DUP8 ADD MSTORE PUSH1 0x1 DUP3 AND SWAP2 DUP3 PUSH1 0x0 EQ PUSH2 0x2044 JUMPI POP POP PUSH1 0x1 EQ PUSH2 0x1FFA JUMPI JUMPDEST POP POP SWAP1 DUP1 PUSH1 0x0 DUP1 MLOAD PUSH1 0x20 PUSH2 0x3EF8 DUP4 CODECOPY DUP2 MLOAD SWAP2 MSTORE SWAP3 SUB SWAP1 LOG3 PUSH1 0x40 MLOAD SWAP1 DUP1 PUSH1 0x4 CALLDATALOAD PUSH32 0xF57507588A3F55547E832AD7906FC1C90A328D2C78895BC24ABF93C41E8568A0 PUSH1 0x0 DUP1 LOG3 DUP2 MSTORE RETURN JUMPDEST PUSH1 0x3 ADD PUSH1 0x0 SWAP1 DUP2 MSTORE DUP8 DUP2 KECCAK256 SWAP1 SWAP3 POP JUMPDEST DUP2 DUP4 LT PUSH2 0x202C JUMPI POP POP DUP2 ADD PUSH1 0x80 ADD DUP2 PUSH1 0x0 DUP1 MLOAD PUSH1 0x20 PUSH2 0x3EF8 DUP4 CODECOPY DUP2 MLOAD SWAP2 MSTORE PUSH2 0x1FB2 JUMP JUMPDEST DUP1 SLOAD DUP4 DUP6 ADD PUSH1 0x80 ADD MSTORE DUP7 SWAP5 POP SWAP2 DUP8 ADD SWAP2 PUSH1 0x1 ADD PUSH2 0x2009 JUMP JUMPDEST DUP7 SWAP6 POP PUSH1 0x80 SWAP4 POP PUSH1 0x0 DUP1 MLOAD PUSH1 0x20 PUSH2 0x3EF8 DUP4 CODECOPY DUP2 MLOAD SWAP2 MSTORE SWAP7 SWAP5 SWAP3 POP AND DUP3 DUP5 ADD MSTORE ISZERO ISZERO PUSH1 0x5 SHL DUP3 ADD ADD SWAP2 SWAP3 PUSH2 0x1FB2 JUMP JUMPDEST ADD MLOAD SWAP1 POP DUP9 DUP1 PUSH2 0xCAA JUMP JUMPDEST SWAP1 PUSH1 0xD DUP5 ADD PUSH1 0x0 MSTORE DUP7 PUSH1 0x0 KECCAK256 SWAP2 PUSH1 0x0 JUMPDEST PUSH1 0x1F NOT DUP6 AND DUP2 LT PUSH2 0x20D4 JUMPI POP SWAP2 DUP4 SWAP2 PUSH1 0x1 SWAP4 PUSH1 0xD SWAP6 PUSH1 0x1F NOT DUP2 AND LT PUSH2 0x20BB JUMPI JUMPDEST POP POP POP DUP2 SHL ADD SWAP2 ADD SSTORE PUSH2 0x1F44 JUMP JUMPDEST ADD MLOAD PUSH1 0x0 NOT PUSH1 0xF8 DUP5 PUSH1 0x3 SHL AND SHR NOT AND SWAP1 SSTORE DUP8 DUP1 DUP1 PUSH2 0x20AD JUMP JUMPDEST SWAP2 SWAP3 DUP9 PUSH1 0x1 DUP2 SWAP3 DUP7 DUP6 ADD MLOAD DUP2 SSTORE ADD SWAP5 ADD SWAP3 ADD PUSH2 0x208D JUMP JUMPDEST SWAP2 SWAP1 PUSH1 0x5 DUP8 ADD PUSH1 0x0 MSTORE PUSH1 0x20 PUSH1 0x0 KECCAK256 SWAP1 PUSH1 0x0 SWAP4 JUMPDEST PUSH1 0x1F NOT DUP5 AND DUP6 LT PUSH2 0x2142 JUMPI PUSH1 0x1 SWAP5 POP DUP4 PUSH1 0x1F NOT DUP2 AND LT PUSH2 0x2129 JUMPI JUMPDEST POP POP POP DUP2 SHL ADD PUSH1 0x5 DUP6 ADD SSTORE PUSH2 0x1E7D JUMP JUMPDEST ADD MLOAD PUSH1 0x0 NOT PUSH1 0xF8 DUP5 PUSH1 0x3 SHL AND SHR NOT AND SWAP1 SSTORE DUP7 DUP1 DUP1 PUSH2 0x2119 JUMP JUMPDEST DUP2 DUP2 ADD MLOAD DUP4 SSTORE PUSH1 0x20 SWAP5 DUP6 ADD SWAP5 PUSH1 0x1 SWAP1 SWAP4 ADD SWAP3 SWAP1 SWAP2 ADD SWAP1 PUSH2 0x20FE JUMP JUMPDEST SWAP2 SWAP1 PUSH1 0x4 DUP8 ADD PUSH1 0x0 MSTORE PUSH1 0x20 PUSH1 0x0 KECCAK256 SWAP1 PUSH1 0x0 SWAP4 JUMPDEST PUSH1 0x1F NOT DUP5 AND DUP6 LT PUSH2 0x21B4 JUMPI PUSH1 0x1 SWAP5 POP DUP4 PUSH1 0x1F NOT DUP2 AND LT PUSH2 0x219B JUMPI JUMPDEST POP POP POP DUP2 SHL ADD PUSH1 0x4 DUP6 ADD SSTORE PUSH2 0x1E17 JUMP JUMPDEST ADD MLOAD PUSH1 0x0 NOT PUSH1 0xF8 DUP5 PUSH1 0x3 SHL AND SHR NOT AND SWAP1 SSTORE DUP7 DUP1 DUP1 PUSH2 0x218B JUMP JUMPDEST DUP2 DUP2 ADD MLOAD DUP4 SSTORE PUSH1 0x20 SWAP5 DUP6 ADD SWAP5 PUSH1 0x1 SWAP1 SWAP4 ADD SWAP3 SWAP1 SWAP2 ADD SWAP1 PUSH2 0x2170 JUMP JUMPDEST SWAP2 SWAP1 PUSH1 0x3 DUP8 ADD PUSH1 0x0 MSTORE PUSH1 0x20 PUSH1 0x0 KECCAK256 SWAP1 PUSH1 0x0 SWAP4 JUMPDEST PUSH1 0x1F NOT DUP5 AND DUP6 LT PUSH2 0x2226 JUMPI PUSH1 0x1 SWAP5 POP DUP4 PUSH1 0x1F NOT DUP2 AND LT PUSH2 0x220D JUMPI JUMPDEST POP POP POP DUP2 SHL ADD PUSH1 0x3 DUP6 ADD SSTORE PUSH2 0x1DB1 JUMP JUMPDEST ADD MLOAD PUSH1 0x0 NOT PUSH1 0xF8 DUP5 PUSH1 0x3 SHL AND SHR NOT AND SWAP1 SSTORE DUP7 DUP1 DUP1 PUSH2 0x21FD JUMP JUMPDEST DUP2 DUP2 ADD MLOAD DUP4 SSTORE PUSH1 0x20 SWAP5 DUP6 ADD SWAP5 PUSH1 0x1 SWAP1 SWAP4 ADD SWAP3 SWAP1 SWAP2 ADD SWAP1 PUSH2 0x21E2 JUMP JUMPDEST PUSH1 0x40 MLOAD PUSH3 0x461BCD PUSH1 0xE5 SHL DUP2 MSTORE PUSH1 0x20 PUSH1 0x4 DUP3 ADD MSTORE PUSH1 0x16 PUSH1 0x24 DUP3 ADD MSTORE PUSH22 0x4E6F20766F74696E6720706F77657220657869737473 PUSH1 0x50 SHL PUSH1 0x44 DUP3 ADD MSTORE PUSH1 0x64 SWAP1 REVERT JUMPDEST SWAP1 POP PUSH1 0x20 DUP2 RETURNDATASIZE PUSH1 0x20 GT PUSH2 0x22A9 JUMPI JUMPDEST DUP2 PUSH2 0x229A PUSH1 0x20 SWAP4 DUP4 PUSH2 0x32EA JUMP JUMPDEST DUP2 ADD SUB SLT PUSH2 0x339 JUMPI MLOAD DUP6 PUSH2 0x1C07 JUMP JUMPDEST RETURNDATASIZE SWAP2 POP PUSH2 0x228D JUMP JUMPDEST SWAP4 PUSH2 0x1BD7 JUMP JUMPDEST POP PUSH1 0x20 DUP2 RETURNDATASIZE PUSH1 0x20 GT PUSH2 0x22E3 JUMPI JUMPDEST DUP2 PUSH2 0x22D1 PUSH1 0x20 SWAP4 DUP4 PUSH2 0x32EA JUMP JUMPDEST DUP2 ADD SUB SLT PUSH2 0x339 JUMPI PUSH2 0x1B9F SWAP1 MLOAD PUSH2 0x1B93 JUMP JUMPDEST RETURNDATASIZE SWAP2 POP PUSH2 0x22C4 JUMP JUMPDEST PUSH1 0x40 MLOAD PUSH3 0x461BCD PUSH1 0xE5 SHL DUP2 MSTORE PUSH1 0x20 PUSH1 0x4 DUP3 ADD MSTORE PUSH1 0x19 PUSH1 0x24 DUP3 ADD MSTORE PUSH32 0x496E73756666696369656E7420706F6C6C20737570706F727400000000000000 PUSH1 0x44 DUP3 ADD MSTORE PUSH1 0x64 SWAP1 REVERT JUMPDEST PUSH1 0x40 MLOAD PUSH3 0x461BCD PUSH1 0xE5 SHL DUP2 MSTORE PUSH1 0x20 PUSH1 0x4 DUP3 ADD MSTORE PUSH1 0xD PUSH1 0x24 DUP3 ADD MSTORE PUSH13 0x139BC81D9BDD195CC818D85CDD PUSH1 0x9A SHL PUSH1 0x44 DUP3 ADD MSTORE PUSH1 0x64 SWAP1 REVERT JUMPDEST PUSH1 0x40 MLOAD PUSH3 0x461BCD PUSH1 0xE5 SHL DUP2 MSTORE PUSH1 0x20 PUSH1 0x4 DUP3 ADD MSTORE PUSH1 0x11 PUSH1 0x24 DUP3 ADD MSTORE PUSH17 0x105B1C9958591E4818DBDB9D995C9D1959 PUSH1 0x7A SHL PUSH1 0x44 DUP3 ADD MSTORE PUSH1 0x64 SWAP1 REVERT JUMPDEST PUSH1 0x40 MLOAD PUSH3 0x461BCD PUSH1 0xE5 SHL DUP2 MSTORE PUSH1 0x20 PUSH1 0x4 DUP3 ADD MSTORE PUSH1 0x18 PUSH1 0x24 DUP3 ADD MSTORE PUSH32 0x506F6C6C206D75737420626520656E6465642066697273740000000000000000 PUSH1 0x44 DUP3 ADD MSTORE PUSH1 0x64 SWAP1 REVERT JUMPDEST CALLVALUE PUSH2 0x339 JUMPI PUSH1 0x0 CALLDATASIZE PUSH1 0x3 NOT ADD SLT PUSH2 0x339 JUMPI PUSH1 0x2 SLOAD PUSH1 0x40 MLOAD PUSH1 0x1 PUSH1 0x1 PUSH1 0xA0 SHL SUB SWAP1 SWAP2 AND DUP2 MSTORE PUSH1 0x20 SWAP1 RETURN JUMPDEST CALLVALUE PUSH2 0x339 JUMPI PUSH1 0x0 CALLDATASIZE PUSH1 0x3 NOT ADD SLT PUSH2 0x339 JUMPI PUSH1 0x20 PUSH1 0x40 MLOAD PUSH2 0x1F4 DUP2 MSTORE RETURN JUMPDEST CALLVALUE PUSH2 0x339 JUMPI PUSH1 0x40 CALLDATASIZE PUSH1 0x3 NOT ADD SLT PUSH2 0x339 JUMPI PUSH2 0x2442 PUSH2 0x3435 JUMP JUMPDEST CALLER PUSH1 0x1 PUSH1 0x1 PUSH1 0xA0 SHL SUB DUP3 AND SUB PUSH2 0x245E JUMPI PUSH2 0x5EA SWAP1 PUSH1 0x4 CALLDATALOAD PUSH2 0x3D1C JUMP JUMPDEST PUSH1 0x40 MLOAD PUSH4 0x334BD919 PUSH1 0xE1 SHL DUP2 MSTORE PUSH1 0x4 SWAP1 REVERT JUMPDEST CALLVALUE PUSH2 0x339 JUMPI PUSH1 0x0 CALLDATASIZE PUSH1 0x3 NOT ADD SLT PUSH2 0x339 JUMPI PUSH1 0x20 PUSH1 0x40 MLOAD PUSH32 0x0 DUP2 MSTORE RETURN JUMPDEST CALLVALUE PUSH2 0x339 JUMPI PUSH1 0xA0 CALLDATASIZE PUSH1 0x3 NOT ADD SLT PUSH2 0x339 JUMPI PUSH1 0x24 CALLDATALOAD PUSH1 0x1 PUSH1 0x1 PUSH1 0x40 SHL SUB DUP2 GT PUSH2 0x339 JUMPI PUSH2 0x24DB SWAP1 CALLDATASIZE SWAP1 PUSH1 0x4 ADD PUSH2 0x345B JUMP JUMPDEST PUSH1 0x44 CALLDATALOAD PUSH1 0x1 PUSH1 0x1 PUSH1 0x40 SHL SUB DUP2 GT PUSH2 0x339 JUMPI PUSH2 0x24FA SWAP1 CALLDATASIZE SWAP1 PUSH1 0x4 ADD PUSH2 0x345B JUMP JUMPDEST SWAP1 PUSH1 0x64 CALLDATALOAD PUSH1 0x1 PUSH1 0x1 PUSH1 0x40 SHL SUB DUP2 GT PUSH2 0x339 JUMPI PUSH2 0x251A SWAP1 CALLDATASIZE SWAP1 PUSH1 0x4 ADD PUSH2 0x345B JUMP JUMPDEST SWAP1 PUSH3 0x15180 PUSH1 0x84 CALLDATALOAD LT ISZERO DUP1 PUSH2 0x291D JUMPI JUMPDEST ISZERO PUSH2 0x28E5 JUMPI PUSH1 0xD SLOAD SWAP2 PUSH2 0x253C DUP4 PUSH2 0x382C JUMP JUMPDEST PUSH1 0xD SSTORE PUSH2 0x254B PUSH1 0x84 CALLDATALOAD TIMESTAMP PUSH2 0x3879 JUMP JUMPDEST SWAP1 PUSH1 0x40 MLOAD SWAP5 PUSH2 0x2559 DUP7 PUSH2 0x3297 JUMP JUMPDEST DUP5 DUP7 MSTORE PUSH1 0x4 CALLDATALOAD PUSH1 0x20 DUP8 ADD MSTORE CALLER PUSH1 0x40 DUP8 ADD MSTORE DUP4 PUSH1 0x60 DUP8 ADD MSTORE PUSH1 0x80 DUP7 ADD MSTORE PUSH1 0xA0 DUP6 ADD MSTORE PUSH1 0x0 PUSH1 0xC0 DUP6 ADD MSTORE PUSH1 0x0 PUSH1 0xE0 DUP6 ADD MSTORE TIMESTAMP PUSH2 0x100 DUP6 ADD MSTORE PUSH2 0x120 DUP5 ADD MSTORE PUSH1 0x0 PUSH2 0x140 DUP5 ADD MSTORE PUSH1 0x0 PUSH2 0x160 DUP5 ADD MSTORE DUP2 PUSH1 0x0 MSTORE PUSH1 0xC PUSH1 0x20 MSTORE PUSH1 0x40 PUSH1 0x0 KECCAK256 DUP4 MLOAD DUP2 SSTORE PUSH1 0x20 DUP5 ADD MLOAD PUSH1 0x1 DUP3 ADD SSTORE PUSH1 0x2 DUP2 ADD PUSH1 0x1 DUP1 PUSH1 0xA0 SHL SUB PUSH1 0x40 DUP7 ADD MLOAD AND PUSH12 0xFFFFFFFFFFFFFFFFFFFFFFFF PUSH1 0xA0 SHL DUP3 SLOAD AND OR SWAP1 SSTORE PUSH1 0x60 DUP5 ADD MLOAD DUP1 MLOAD SWAP1 PUSH1 0x1 PUSH1 0x1 PUSH1 0x40 SHL SUB DUP3 GT PUSH2 0xF0F JUMPI PUSH2 0x260F DUP3 PUSH2 0xC85 PUSH1 0x3 DUP7 ADD SLOAD PUSH2 0x31C7 JUMP JUMPDEST PUSH1 0x20 SWAP1 PUSH1 0x1F DUP4 GT PUSH1 0x1 EQ PUSH2 0x2873 JUMPI PUSH2 0x263F SWAP3 SWAP2 PUSH1 0x0 SWAP2 DUP4 PUSH2 0xE9E JUMPI POP POP DUP2 PUSH1 0x1 SHL SWAP2 PUSH1 0x0 NOT SWAP1 PUSH1 0x3 SHL SHR NOT AND OR SWAP1 JUMP JUMPDEST PUSH1 0x3 DUP3 ADD SSTORE JUMPDEST PUSH1 0x80 DUP5 ADD MLOAD DUP1 MLOAD SWAP1 PUSH1 0x1 PUSH1 0x1 PUSH1 0x40 SHL SUB DUP3 GT PUSH2 0xF0F JUMPI PUSH2 0x266C DUP3 PUSH2 0xCEC PUSH1 0x4 DUP7 ADD SLOAD PUSH2 0x31C7 JUMP JUMPDEST PUSH1 0x20 SWAP1 PUSH1 0x1F DUP4 GT PUSH1 0x1 EQ PUSH2 0x2805 JUMPI PUSH2 0x269C SWAP3 SWAP2 PUSH1 0x0 SWAP2 DUP4 PUSH2 0xE9E JUMPI POP POP DUP2 PUSH1 0x1 SHL SWAP2 PUSH1 0x0 NOT SWAP1 PUSH1 0x3 SHL SHR NOT AND OR SWAP1 JUMP JUMPDEST PUSH1 0x4 DUP3 ADD SSTORE JUMPDEST PUSH1 0xA0 DUP5 ADD MLOAD DUP1 MLOAD SWAP1 PUSH1 0x1 PUSH1 0x1 PUSH1 0x40 SHL SUB DUP3 GT PUSH2 0xF0F JUMPI PUSH2 0x26C9 DUP3 PUSH2 0xD52 PUSH1 0x5 DUP7 ADD SLOAD PUSH2 0x31C7 JUMP JUMPDEST PUSH1 0x20 SWAP1 PUSH1 0x1F DUP4 GT PUSH1 0x1 EQ PUSH2 0x2797 JUMPI PUSH2 0x26F9 SWAP3 SWAP2 PUSH1 0x0 SWAP2 DUP4 PUSH2 0xE9E JUMPI POP POP DUP2 PUSH1 0x1 SHL SWAP2 PUSH1 0x0 NOT SWAP1 PUSH1 0x3 SHL SHR NOT AND OR SWAP1 JUMP JUMPDEST PUSH1 0x5 DUP3 ADD SSTORE JUMPDEST PUSH1 0xC0 DUP5 ADD MLOAD PUSH1 0x6 DUP3 ADD SSTORE PUSH1 0xE0 DUP5 ADD MLOAD PUSH1 0x7 DUP3 ADD SSTORE PUSH2 0x100 DUP5 ADD MLOAD PUSH1 0x8 DUP3 ADD SSTORE PUSH2 0x120 DUP5 ADD MLOAD PUSH1 0x9 DUP3 ADD SSTORE PUSH1 0xA DUP2 ADD PUSH2 0x140 DUP6 ADD MLOAD PUSH1 0x3 DUP2 LT ISZERO PUSH2 0x323 JUMPI PUSH1 0x20 SWAP6 PUSH1 0xB SWAP3 PUSH2 0x160 SWAP3 PUSH1 0xFF DUP1 NOT DUP4 SLOAD AND SWAP2 AND OR SWAP1 SSTORE ADD MLOAD SWAP2 ADD SSTORE DUP2 PUSH32 0x658FCCFC8DE51891B480D49E504FBB0F8F9B43F13522A475D1729A74531A9E22 PUSH1 0x40 MLOAD CALLER DUP2 MSTORE PUSH1 0x40 DUP7 DUP3 ADD MSTORE DUP1 PUSH2 0xE93 PUSH1 0x4 CALLDATALOAD SWAP6 PUSH1 0x40 DUP4 ADD SWAP1 PUSH2 0x3315 JUMP JUMPDEST SWAP1 PUSH1 0x1F NOT DUP4 AND SWAP2 PUSH1 0x5 DUP6 ADD PUSH1 0x0 MSTORE PUSH1 0x20 PUSH1 0x0 KECCAK256 SWAP3 PUSH1 0x0 JUMPDEST DUP2 DUP2 LT PUSH2 0x27ED JUMPI POP SWAP1 DUP5 PUSH1 0x1 SWAP6 SWAP5 SWAP4 SWAP3 LT PUSH2 0x27D4 JUMPI JUMPDEST POP POP POP DUP2 SHL ADD PUSH1 0x5 DUP3 ADD SSTORE PUSH2 0x26FF JUMP JUMPDEST ADD MLOAD PUSH1 0x0 NOT PUSH1 0xF8 DUP5 PUSH1 0x3 SHL AND SHR NOT AND SWAP1 SSTORE DUP7 DUP1 DUP1 PUSH2 0x27C4 JUMP JUMPDEST SWAP3 SWAP4 PUSH1 0x20 PUSH1 0x1 DUP2 SWAP3 DUP8 DUP7 ADD MLOAD DUP2 SSTORE ADD SWAP6 ADD SWAP4 ADD PUSH2 0x27AE JUMP JUMPDEST SWAP1 PUSH1 0x1F NOT DUP4 AND SWAP2 PUSH1 0x4 DUP6 ADD PUSH1 0x0 MSTORE PUSH1 0x20 PUSH1 0x0 KECCAK256 SWAP3 PUSH1 0x0 JUMPDEST DUP2 DUP2 LT PUSH2 0x285B JUMPI POP SWAP1 DUP5 PUSH1 0x1 SWAP6 SWAP5 SWAP4 SWAP3 LT PUSH2 0x2842 JUMPI JUMPDEST POP POP POP DUP2 SHL ADD PUSH1 0x4 DUP3 ADD SSTORE PUSH2 0x26A2 JUMP JUMPDEST ADD MLOAD PUSH1 0x0 NOT PUSH1 0xF8 DUP5 PUSH1 0x3 SHL AND SHR NOT AND SWAP1 SSTORE DUP7 DUP1 DUP1 PUSH2 0x2832 JUMP JUMPDEST SWAP3 SWAP4 PUSH1 0x20 PUSH1 0x1 DUP2 SWAP3 DUP8 DUP7 ADD MLOAD DUP2 SSTORE ADD SWAP6 ADD SWAP4 ADD PUSH2 0x281C JUMP JUMPDEST SWAP2 SWAP1 PUSH1 0x3 DUP5 ADD PUSH1 0x0 MSTORE PUSH1 0x20 PUSH1 0x0 KECCAK256 SWAP1 PUSH1 0x0 SWAP4 JUMPDEST PUSH1 0x1F NOT DUP5 AND DUP6 LT PUSH2 0x28CA JUMPI PUSH1 0x1 SWAP5 POP DUP4 PUSH1 0x1F NOT DUP2 AND LT PUSH2 0x28B1 JUMPI JUMPDEST POP POP POP DUP2 SHL ADD PUSH1 0x3 DUP3 ADD SSTORE PUSH2 0x2645 JUMP JUMPDEST ADD MLOAD PUSH1 0x0 NOT PUSH1 0xF8 DUP5 PUSH1 0x3 SHL AND SHR NOT AND SWAP1 SSTORE DUP7 DUP1 DUP1 PUSH2 0x28A1 JUMP JUMPDEST DUP2 DUP2 ADD MLOAD DUP4 SSTORE PUSH1 0x20 SWAP5 DUP6 ADD SWAP5 PUSH1 0x1 SWAP1 SWAP4 ADD SWAP3 SWAP1 SWAP2 ADD SWAP1 PUSH2 0x2886 JUMP JUMPDEST PUSH1 0x40 MLOAD PUSH3 0x461BCD PUSH1 0xE5 SHL DUP2 MSTORE PUSH1 0x20 PUSH1 0x4 DUP3 ADD MSTORE PUSH1 0x10 PUSH1 0x24 DUP3 ADD MSTORE PUSH16 0x24B73B30B634B210323AB930BA34B7B7 PUSH1 0x81 SHL PUSH1 0x44 DUP3 ADD MSTORE PUSH1 0x64 SWAP1 REVERT JUMPDEST POP PUSH3 0x278D00 PUSH1 0x84 CALLDATALOAD GT ISZERO PUSH2 0x252A JUMP JUMPDEST CALLVALUE PUSH2 0x339 JUMPI PUSH1 0x40 CALLDATASIZE PUSH1 0x3 NOT ADD SLT PUSH2 0x339 JUMPI PUSH2 0x5EA PUSH1 0x4 CALLDATALOAD PUSH2 0x294B PUSH2 0x3435 JUMP JUMPDEST SWAP1 DUP1 PUSH1 0x0 MSTORE PUSH1 0x0 PUSH1 0x20 MSTORE PUSH2 0x2966 PUSH1 0x1 PUSH1 0x40 PUSH1 0x0 KECCAK256 ADD SLOAD PUSH2 0x3C55 JUMP JUMPDEST PUSH2 0x3C9E JUMP JUMPDEST CALLVALUE PUSH2 0x339 JUMPI PUSH1 0xE0 CALLDATASIZE PUSH1 0x3 NOT ADD SLT PUSH2 0x339 JUMPI PUSH2 0x2984 PUSH2 0x344B JUMP JUMPDEST PUSH1 0x44 CALLDATALOAD PUSH1 0x1 PUSH1 0x1 PUSH1 0xA0 SHL SUB DUP2 AND SWAP1 SUB PUSH2 0x339 JUMPI PUSH1 0xFF PUSH1 0x84 CALLDATALOAD AND PUSH1 0x84 CALLDATALOAD SUB PUSH2 0x339 JUMPI CALLER PUSH1 0x0 SWAP1 DUP2 MSTORE PUSH32 0xFAF93C3D007E112089DC8351E013E6685EF67703975D0224B26FC45941D4F1F5 PUSH1 0x20 MSTORE PUSH1 0x40 SWAP1 KECCAK256 SLOAD PUSH32 0xE2B7FB3B832174769106DAEBCFD6D1970523240DDA11281102DB9363B83B0DC4 SWAP1 PUSH1 0xFF AND ISZERO PUSH2 0x2DCD JUMPI POP PUSH2 0x2A07 PUSH2 0x3C7B JUMP JUMPDEST PUSH1 0x64 CALLDATALOAD TIMESTAMP GT PUSH2 0x2D94 JUMPI PUSH1 0x4 CALLDATALOAD PUSH1 0x0 MSTORE PUSH1 0x6 PUSH1 0x20 MSTORE PUSH1 0x40 PUSH1 0x0 KECCAK256 PUSH1 0xFF PUSH1 0xC DUP3 ADD SLOAD AND PUSH1 0x6 DUP2 LT ISZERO PUSH2 0x323 JUMPI PUSH1 0x1 PUSH2 0x2A3D SWAP2 EQ PUSH2 0x36F2 JUMP JUMPDEST PUSH2 0x2A4D PUSH1 0x9 DUP3 ADD SLOAD TIMESTAMP LT ISZERO PUSH2 0x3734 JUMP JUMPDEST PUSH2 0x2A5C PUSH1 0xA DUP3 ADD SLOAD TIMESTAMP LT PUSH2 0x3775 JUMP JUMPDEST PUSH2 0x2A6C PUSH1 0x2 PUSH1 0xFF DUP5 AND GT ISZERO PUSH2 0x37B0 JUMP JUMPDEST PUSH1 0x4 CALLDATALOAD PUSH1 0x0 MSTORE PUSH1 0x8 PUSH1 0x20 MSTORE PUSH1 0x40 PUSH1 0x0 KECCAK256 PUSH1 0x1 DUP1 PUSH1 0xA0 SHL SUB PUSH1 0x44 CALLDATALOAD AND PUSH1 0x0 MSTORE PUSH1 0x20 MSTORE PUSH1 0x40 PUSH1 0x0 KECCAK256 SWAP1 PUSH2 0x2AA1 PUSH1 0xFF DUP4 SLOAD AND ISZERO PUSH2 0x37F0 JUMP JUMPDEST PUSH1 0x44 CALLDATALOAD PUSH1 0x1 PUSH1 0x1 PUSH1 0xA0 SHL SUB AND PUSH1 0x0 SWAP1 DUP2 MSTORE PUSH1 0x3 PUSH1 0x20 MSTORE PUSH1 0x40 SWAP1 KECCAK256 DUP1 SLOAD SWAP1 PUSH2 0x2AC7 DUP3 PUSH2 0x382C JUMP JUMPDEST SWAP1 SSTORE PUSH1 0x40 MLOAD SWAP1 PUSH1 0x20 DUP3 ADD SWAP1 PUSH32 0xA122AEDC7C2408A97BCFE5D8FF1F6A6D7BF779A8B6DD3D72FF503E8FCF9D2EB9 DUP3 MSTORE PUSH1 0x4 CALLDATALOAD PUSH1 0x40 DUP5 ADD MSTORE PUSH1 0xFF DUP7 AND PUSH1 0x60 DUP5 ADD MSTORE PUSH1 0x1 DUP1 PUSH1 0xA0 SHL SUB PUSH1 0x44 CALLDATALOAD AND PUSH1 0x80 DUP5 ADD MSTORE PUSH1 0xA0 DUP4 ADD MSTORE PUSH1 0x64 CALLDATALOAD PUSH1 0xC0 DUP4 ADD MSTORE PUSH1 0xC0 DUP3 MSTORE PUSH1 0xE0 DUP3 ADD PUSH1 0x1 PUSH1 0x1 PUSH1 0x40 SHL SUB SWAP2 DUP4 DUP3 LT DUP4 DUP4 GT OR PUSH2 0xF0F JUMPI PUSH2 0x160 SWAP1 DUP3 PUSH1 0x40 MSTORE DUP5 MLOAD SWAP1 KECCAK256 SWAP4 PUSH2 0x100 DUP2 ADD SWAP5 PUSH2 0x1901 PUSH1 0xF0 SHL DUP7 MSTORE PUSH32 0x0 PUSH2 0x102 DUP4 ADD MSTORE PUSH2 0x122 DUP3 ADD MSTORE PUSH1 0x42 DUP4 MSTORE ADD SWAP2 DUP2 DUP4 LT SWAP1 DUP4 GT OR PUSH2 0xF0F JUMPI PUSH2 0x2BC0 SWAP3 PUSH2 0x2BB7 SWAP3 PUSH1 0x40 MSTORE PUSH1 0xC4 CALLDATALOAD SWAP2 PUSH1 0xA4 CALLDATALOAD SWAP2 PUSH1 0x84 CALLDATALOAD SWAP2 MLOAD SWAP1 KECCAK256 PUSH2 0x3DDC JUMP JUMPDEST SWAP1 SWAP3 SWAP2 SWAP3 PUSH2 0x3E6C JUMP JUMPDEST PUSH1 0x1 PUSH1 0x1 PUSH1 0xA0 SHL SUB PUSH1 0x44 CALLDATALOAD DUP2 AND SWAP2 AND SUB PUSH2 0x2D5B JUMPI PUSH1 0x2 SLOAD PUSH1 0x1 DUP3 ADD SLOAD PUSH1 0x40 MLOAD PUSH4 0x6DED6A19 PUSH1 0xE1 SHL DUP2 MSTORE PUSH1 0x4 DUP2 ADD SWAP2 SWAP1 SWAP2 MSTORE PUSH1 0x1 PUSH1 0x1 PUSH1 0xA0 SHL SUB PUSH1 0x44 DUP1 CALLDATALOAD DUP3 AND PUSH1 0x24 DUP5 ADD MSTORE SWAP2 SWAP5 SWAP3 PUSH1 0x20 SWAP3 DUP7 SWAP3 SWAP1 SWAP2 DUP4 SWAP2 AND GAS STATICCALL SWAP3 DUP4 ISZERO PUSH2 0x1103 JUMPI PUSH1 0x0 SWAP4 PUSH2 0x2D26 JUMPI JUMPDEST POP PUSH1 0x1 DUP4 SWAP2 PUSH2 0x2C32 DUP4 ISZERO ISZERO PUSH2 0x383B JUMP JUMPDEST DUP1 SLOAD PUSH2 0xFF00 NOT DUP4 AND PUSH2 0xFFFF NOT SWAP1 SWAP2 AND OR PUSH1 0x8 DUP8 SWAP1 SHL PUSH2 0xFF00 AND OR DUP2 SSTORE ADD SSTORE PUSH1 0xFF DUP4 AND PUSH2 0x2CF8 JUMPI PUSH1 0x7 ADD PUSH2 0x2C66 DUP3 DUP3 SLOAD PUSH2 0x3879 JUMP JUMPDEST SWAP1 SSTORE JUMPDEST PUSH1 0x44 CALLDATALOAD PUSH1 0x1 PUSH1 0x1 PUSH1 0xA0 SHL SUB AND PUSH1 0x0 SWAP1 DUP2 MSTORE PUSH1 0xA PUSH1 0x20 MSTORE PUSH1 0x40 SWAP1 KECCAK256 DUP1 SLOAD PUSH2 0x2C8E SWAP1 PUSH2 0x382C JUMP JUMPDEST SWAP1 SSTORE PUSH1 0x1 DUP1 PUSH1 0xA0 SHL SUB PUSH1 0x44 CALLDATALOAD AND PUSH1 0x0 MSTORE PUSH1 0xB PUSH1 0x20 MSTORE TIMESTAMP PUSH1 0x40 PUSH1 0x0 KECCAK256 SSTORE PUSH1 0xFF PUSH1 0x40 MLOAD SWAP3 AND DUP3 MSTORE PUSH1 0x20 DUP3 ADD MSTORE CALLER PUSH1 0x40 DUP3 ADD MSTORE PUSH1 0x1 DUP1 PUSH1 0xA0 SHL SUB PUSH1 0x44 CALLDATALOAD AND SWAP1 PUSH32 0xB7A759F14619C0391B65E3F8CEB8FD342A3E24929E81D83493445A4A1C87D0FC PUSH1 0x60 PUSH1 0x4 CALLDATALOAD SWAP3 LOG3 PUSH1 0x1 DUP1 SSTORE STOP JUMPDEST PUSH1 0xFF DUP4 AND PUSH1 0x1 SUB PUSH2 0x2D18 JUMPI PUSH1 0x6 ADD PUSH2 0x2D11 DUP3 DUP3 SLOAD PUSH2 0x3879 JUMP JUMPDEST SWAP1 SSTORE PUSH2 0x2C69 JUMP JUMPDEST PUSH1 0x8 ADD PUSH2 0x2D11 DUP3 DUP3 SLOAD PUSH2 0x3879 JUMP JUMPDEST SWAP3 POP PUSH1 0x20 DUP4 RETURNDATASIZE PUSH1 0x20 GT PUSH2 0x2D53 JUMPI JUMPDEST DUP2 PUSH2 0x2D41 PUSH1 0x20 SWAP4 DUP4 PUSH2 0x32EA JUMP JUMPDEST DUP2 ADD SUB SLT PUSH2 0x339 JUMPI PUSH1 0x1 SWAP3 MLOAD SWAP3 PUSH2 0x2C22 JUMP JUMPDEST RETURNDATASIZE SWAP2 POP PUSH2 0x2D34 JUMP JUMPDEST PUSH1 0x40 MLOAD PUSH3 0x461BCD PUSH1 0xE5 SHL DUP2 MSTORE PUSH1 0x20 PUSH1 0x4 DUP3 ADD MSTORE PUSH1 0x11 PUSH1 0x24 DUP3 ADD MSTORE PUSH17 0x496E76616C6964207369676E6174757265 PUSH1 0x78 SHL PUSH1 0x44 DUP3 ADD MSTORE PUSH1 0x64 SWAP1 REVERT JUMPDEST PUSH1 0x40 MLOAD PUSH3 0x461BCD PUSH1 0xE5 SHL DUP2 MSTORE PUSH1 0x20 PUSH1 0x4 DUP3 ADD MSTORE PUSH1 0x11 PUSH1 0x24 DUP3 ADD MSTORE PUSH17 0x14DA59DB985D1D5C9948195E1C1A5C9959 PUSH1 0x7A SHL PUSH1 0x44 DUP3 ADD MSTORE PUSH1 0x64 SWAP1 REVERT JUMPDEST PUSH1 0x44 SWAP1 PUSH1 0x40 MLOAD SWAP1 PUSH4 0xE2517D3F PUSH1 0xE0 SHL DUP3 MSTORE CALLER PUSH1 0x4 DUP4 ADD MSTORE PUSH1 0x24 DUP3 ADD MSTORE REVERT JUMPDEST CALLVALUE PUSH2 0x339 JUMPI PUSH1 0x0 CALLDATASIZE PUSH1 0x3 NOT ADD SLT PUSH2 0x339 JUMPI PUSH1 0x20 PUSH1 0x40 MLOAD PUSH2 0x9C4 DUP2 MSTORE RETURN JUMPDEST CALLVALUE PUSH2 0x339 JUMPI PUSH1 0x20 CALLDATASIZE PUSH1 0x3 NOT ADD SLT PUSH2 0x339 JUMPI PUSH1 0x4 CALLDATALOAD PUSH1 0x0 MSTORE PUSH1 0x0 PUSH1 0x20 MSTORE PUSH1 0x20 PUSH1 0x1 PUSH1 0x40 PUSH1 0x0 KECCAK256 ADD SLOAD PUSH1 0x40 MLOAD SWAP1 DUP2 MSTORE RETURN JUMPDEST CALLVALUE PUSH2 0x339 JUMPI PUSH1 0x20 CALLDATASIZE PUSH1 0x3 NOT ADD SLT PUSH2 0x339 JUMPI PUSH2 0x2E50 PUSH2 0x35CD JUMP JUMPDEST POP PUSH1 0x4 CALLDATALOAD PUSH1 0x0 MSTORE PUSH1 0xC PUSH1 0x20 MSTORE PUSH2 0x698 PUSH2 0x2E6C PUSH1 0x40 PUSH1 0x0 KECCAK256 PUSH2 0x3629 JUMP JUMPDEST PUSH1 0x40 MLOAD SWAP2 DUP3 SWAP2 PUSH1 0x20 DUP4 MSTORE PUSH1 0x20 DUP4 ADD SWAP1 PUSH2 0x336F JUMP JUMPDEST CALLVALUE PUSH2 0x339 JUMPI PUSH1 0x20 CALLDATASIZE PUSH1 0x3 NOT ADD SLT PUSH2 0x339 JUMPI CALLER PUSH1 0x0 SWAP1 DUP2 MSTORE PUSH32 0xDAE2AA361DFD1CA020A396615627D436107C35EFF9FE7738A3512819782D7069 PUSH1 0x20 MSTORE PUSH1 0x40 SWAP1 KECCAK256 SLOAD PUSH1 0x4 CALLDATALOAD SWAP1 PUSH32 0xD8AA0F3194971A2A116679F7C2090F6939C8D4E01A2A8D7E41D55E5351469E63 SWAP1 PUSH1 0xFF AND ISZERO PUSH2 0x2DCD JUMPI POP PUSH2 0x2EF7 PUSH2 0x3C7B JUMP JUMPDEST DUP1 PUSH1 0x0 MSTORE PUSH1 0x6 PUSH1 0x20 MSTORE PUSH1 0xC PUSH1 0x40 PUSH1 0x0 KECCAK256 ADD DUP1 SLOAD PUSH1 0xFF DUP2 AND PUSH1 0x6 DUP2 LT ISZERO PUSH2 0x323 JUMPI PUSH1 0x2 SUB PUSH2 0x2F52 JUMPI PUSH1 0xFF NOT AND PUSH1 0x4 OR SWAP1 SSTORE PUSH32 0x712AE1383F79AC853F8D882153778E0260EF8F03B504E2866E0593E04D2B291F PUSH1 0x0 DUP1 LOG2 PUSH1 0x1 DUP1 SSTORE STOP JUMPDEST PUSH1 0x40 MLOAD PUSH3 0x461BCD PUSH1 0xE5 SHL DUP2 MSTORE PUSH1 0x20 PUSH1 0x4 DUP3 ADD MSTORE PUSH1 0x16 PUSH1 0x24 DUP3 ADD MSTORE PUSH22 0x141C9BDC1BDCD85B081B9BDD081CDD58D8D959591959 PUSH1 0x52 SHL PUSH1 0x44 DUP3 ADD MSTORE PUSH1 0x64 SWAP1 REVERT JUMPDEST CALLVALUE PUSH2 0x339 JUMPI PUSH1 0x0 CALLDATASIZE PUSH1 0x3 NOT ADD SLT PUSH2 0x339 JUMPI PUSH1 0x20 PUSH1 0x40 MLOAD PUSH32 0xD8AA0F3194971A2A116679F7C2090F6939C8D4E01A2A8D7E41D55E5351469E63 DUP2 MSTORE RETURN JUMPDEST CALLVALUE PUSH2 0x339 JUMPI PUSH1 0x0 CALLDATASIZE PUSH1 0x3 NOT ADD SLT PUSH2 0x339 JUMPI PUSH1 0x20 PUSH1 0x4 SLOAD PUSH1 0x40 MLOAD SWAP1 DUP2 MSTORE RETURN JUMPDEST CALLVALUE PUSH2 0x339 JUMPI PUSH1 0x20 CALLDATASIZE PUSH1 0x3 NOT ADD SLT PUSH2 0x339 JUMPI PUSH1 0x4 CALLDATALOAD PUSH4 0xFFFFFFFF PUSH1 0xE0 SHL DUP2 AND DUP1 SWAP2 SUB PUSH2 0x339 JUMPI PUSH1 0x20 SWAP1 PUSH4 0x7965DB0B PUSH1 0xE0 SHL DUP2 EQ SWAP1 DUP2 ISZERO PUSH2 0x302E JUMPI JUMPDEST POP PUSH1 0x40 MLOAD SWAP1 ISZERO ISZERO DUP2 MSTORE RETURN JUMPDEST PUSH4 0x1FFC9A7 PUSH1 0xE0 SHL EQ SWAP1 POP DUP3 PUSH2 0x3023 JUMP JUMPDEST CALLVALUE PUSH2 0x339 JUMPI PUSH1 0x20 CALLDATASIZE PUSH1 0x3 NOT ADD SLT PUSH2 0x339 JUMPI PUSH1 0x4 CALLDATALOAD PUSH1 0x0 MSTORE PUSH1 0x6 PUSH1 0x20 MSTORE PUSH1 0x40 PUSH1 0x0 KECCAK256 DUP1 SLOAD SWAP1 PUSH1 0x1 DUP2 ADD SLOAD SWAP1 PUSH1 0x2 DUP2 ADD SLOAD SWAP3 PUSH1 0x80 DUP1 PUSH1 0x3 DUP5 ADD SWAP1 PUSH2 0x3080 SWAP2 PUSH2 0x3201 JUMP JUMPDEST SUB PUSH1 0x80 SWAP1 PUSH2 0x308D SWAP2 PUSH2 0x32EA JUMP JUMPDEST PUSH1 0x40 MLOAD SWAP1 DUP2 PUSH2 0x309F DUP2 PUSH1 0x4 DUP7 ADD PUSH2 0x3201 JUMP JUMPDEST SUB PUSH2 0x30AA SWAP1 DUP4 PUSH2 0x32EA JUMP JUMPDEST PUSH1 0x40 MLOAD SWAP2 DUP3 PUSH2 0x30BC DUP2 PUSH1 0x5 DUP8 ADD PUSH2 0x3201 JUMP JUMPDEST SUB PUSH2 0x30C7 SWAP1 DUP5 PUSH2 0x32EA JUMP JUMPDEST PUSH1 0x6 DUP5 ADD SLOAD SWAP3 PUSH1 0x7 DUP6 ADD SLOAD PUSH1 0x8 DUP7 ADD SLOAD PUSH1 0x9 DUP8 ADD SLOAD SWAP2 PUSH1 0xA DUP9 ADD SLOAD SWAP4 PUSH1 0xB DUP10 ADD SLOAD SWAP6 PUSH1 0xC DUP11 ADD SLOAD PUSH1 0xFF AND SWAP8 PUSH1 0x40 MLOAD DUP1 PUSH1 0xD DUP2 SWAP14 ADD SWAP1 PUSH2 0x3105 SWAP2 PUSH2 0x3201 JUMP JUMPDEST SUB PUSH2 0x3110 SWAP1 DUP13 PUSH2 0x32EA JUMP JUMPDEST PUSH1 0x40 MLOAD SWAP13 DUP14 SWAP13 DUP14 PUSH2 0x1E0 SWAP4 DUP2 MSTORE PUSH1 0x20 ADD MSTORE DUP13 PUSH1 0x1 PUSH1 0xA0 SHL PUSH1 0x1 SWAP1 SUB DUP3 AND SWAP1 PUSH1 0x40 ADD MSTORE DUP1 PUSH1 0xA0 SHR PUSH1 0xFF AND PUSH2 0x3142 SWAP1 PUSH2 0x330B JUMP JUMPDEST PUSH1 0xA0 SHR PUSH1 0xFF AND PUSH1 0x60 DUP14 ADD MSTORE DUP1 PUSH1 0x80 DUP14 ADD MSTORE DUP12 ADD PUSH1 0x80 SWAP1 PUSH2 0x3161 SWAP2 PUSH2 0x3315 JUMP JUMPDEST DUP12 DUP2 SUB PUSH1 0xA0 DUP14 ADD MSTORE PUSH2 0x3172 SWAP2 PUSH2 0x3315 JUMP JUMPDEST DUP11 DUP2 SUB PUSH1 0xC0 DUP13 ADD MSTORE PUSH2 0x3183 SWAP2 PUSH2 0x3315 JUMP JUMPDEST SWAP7 PUSH1 0xE0 DUP11 ADD MSTORE PUSH2 0x100 DUP10 ADD MSTORE PUSH2 0x120 DUP9 ADD MSTORE PUSH2 0x140 DUP8 ADD MSTORE PUSH2 0x160 DUP7 ADD MSTORE PUSH2 0x180 DUP6 ADD MSTORE PUSH2 0x1A0 DUP5 ADD PUSH2 0x31B5 SWAP2 PUSH2 0x3355 JUMP JUMPDEST DUP3 DUP2 SUB PUSH2 0x1C0 DUP5 ADD MSTORE PUSH2 0x698 SWAP2 PUSH2 0x3315 JUMP JUMPDEST SWAP1 PUSH1 0x1 DUP3 DUP2 SHR SWAP3 AND DUP1 ISZERO PUSH2 0x31F7 JUMPI JUMPDEST PUSH1 0x20 DUP4 LT EQ PUSH2 0x31E1 JUMPI JUMP JUMPDEST PUSH4 0x4E487B71 PUSH1 0xE0 SHL PUSH1 0x0 MSTORE PUSH1 0x22 PUSH1 0x4 MSTORE PUSH1 0x24 PUSH1 0x0 REVERT JUMPDEST SWAP2 PUSH1 0x7F AND SWAP2 PUSH2 0x31D6 JUMP JUMPDEST DUP1 SLOAD PUSH1 0x0 SWAP4 SWAP3 PUSH2 0x3210 DUP3 PUSH2 0x31C7 JUMP JUMPDEST SWAP2 DUP3 DUP3 MSTORE PUSH1 0x20 SWAP4 PUSH1 0x1 SWAP2 PUSH1 0x1 DUP2 AND SWAP1 DUP2 PUSH1 0x0 EQ PUSH2 0x3278 JUMPI POP PUSH1 0x1 EQ PUSH2 0x3237 JUMPI JUMPDEST POP POP POP POP POP JUMP JUMPDEST SWAP1 SWAP4 SWAP5 SWAP6 POP PUSH1 0x0 SWAP3 SWAP2 SWAP3 MSTORE DUP4 PUSH1 0x0 KECCAK256 SWAP3 DUP5 PUSH1 0x0 SWAP5 JUMPDEST DUP4 DUP7 LT PUSH2 0x3264 JUMPI POP POP POP POP ADD ADD SWAP1 CODESIZE DUP1 DUP1 DUP1 DUP1 PUSH2 0x3230 JUMP JUMPDEST DUP1 SLOAD DUP6 DUP8 ADD DUP4 ADD MSTORE SWAP5 ADD SWAP4 DUP6 SWAP1 DUP3 ADD PUSH2 0x324C JUMP JUMPDEST PUSH1 0xFF NOT AND DUP7 DUP6 ADD MSTORE POP POP POP SWAP1 ISZERO ISZERO PUSH1 0x5 SHL ADD ADD SWAP2 POP CODESIZE DUP1 DUP1 DUP1 DUP1 PUSH2 0x3230 JUMP JUMPDEST PUSH2 0x180 DUP2 ADD SWAP1 DUP2 LT PUSH1 0x1 PUSH1 0x1 PUSH1 0x40 SHL SUB DUP3 GT OR PUSH2 0xF0F JUMPI PUSH1 0x40 MSTORE JUMP JUMPDEST PUSH2 0x1E0 DUP2 ADD SWAP1 DUP2 LT PUSH1 0x1 PUSH1 0x1 PUSH1 0x40 SHL SUB DUP3 GT OR PUSH2 0xF0F JUMPI PUSH1 0x40 MSTORE JUMP JUMPDEST PUSH1 0x60 DUP2 ADD SWAP1 DUP2 LT PUSH1 0x1 PUSH1 0x1 PUSH1 0x40 SHL SUB DUP3 GT OR PUSH2 0xF0F JUMPI PUSH1 0x40 MSTORE JUMP JUMPDEST SWAP1 PUSH1 0x1F DUP1 NOT SWAP2 ADD AND DUP2 ADD SWAP1 DUP2 LT PUSH1 0x1 PUSH1 0x1 PUSH1 0x40 SHL SUB DUP3 GT OR PUSH2 0xF0F JUMPI PUSH1 0x40 MSTORE JUMP JUMPDEST PUSH1 0x4 GT ISZERO PUSH2 0x323 JUMPI JUMP JUMPDEST SWAP2 SWAP1 DUP3 MLOAD SWAP3 DUP4 DUP3 MSTORE PUSH1 0x0 JUMPDEST DUP5 DUP2 LT PUSH2 0x3341 JUMPI POP POP DUP3 PUSH1 0x0 PUSH1 0x20 DUP1 SWAP5 SWAP6 DUP5 ADD ADD MSTORE PUSH1 0x1F DUP1 NOT SWAP2 ADD AND ADD ADD SWAP1 JUMP JUMPDEST PUSH1 0x20 DUP2 DUP4 ADD DUP2 ADD MLOAD DUP5 DUP4 ADD DUP3 ADD MSTORE ADD PUSH2 0x3320 JUMP JUMPDEST SWAP1 PUSH1 0x6 DUP3 LT ISZERO PUSH2 0x323 JUMPI MSTORE JUMP JUMPDEST SWAP1 PUSH1 0x3 DUP3 LT ISZERO PUSH2 0x323 JUMPI MSTORE JUMP JUMPDEST SWAP1 PUSH2 0x33D4 PUSH2 0x33C2 PUSH2 0x33B0 PUSH2 0x180 DUP6 MLOAD DUP6 MSTORE PUSH1 0x20 DUP7 ADD MLOAD PUSH1 0x20 DUP7 ADD MSTORE PUSH1 0x1 DUP1 PUSH1 0xA0 SHL SUB PUSH1 0x40 DUP8 ADD MLOAD AND PUSH1 0x40 DUP7 ADD MSTORE PUSH1 0x60 DUP7 ADD MLOAD SWAP1 DUP1 PUSH1 0x60 DUP8 ADD MSTORE DUP6 ADD SWAP1 PUSH2 0x3315 JUMP JUMPDEST PUSH1 0x80 DUP6 ADD MLOAD DUP5 DUP3 SUB PUSH1 0x80 DUP7 ADD MSTORE PUSH2 0x3315 JUMP JUMPDEST PUSH1 0xA0 DUP5 ADD MLOAD DUP4 DUP3 SUB PUSH1 0xA0 DUP6 ADD MSTORE PUSH2 0x3315 JUMP JUMPDEST SWAP2 PUSH1 0xC0 DUP2 ADD MLOAD PUSH1 0xC0 DUP4 ADD MSTORE PUSH1 0xE0 DUP2 ADD MLOAD PUSH1 0xE0 DUP4 ADD MSTORE PUSH2 0x100 DUP1 DUP3 ADD MLOAD SWAP1 DUP4 ADD MSTORE PUSH2 0x120 DUP1 DUP3 ADD MLOAD SWAP1 DUP4 ADD MSTORE PUSH2 0x3412 PUSH2 0x140 DUP1 DUP4 ADD MLOAD SWAP1 DUP5 ADD SWAP1 PUSH2 0x3362 JUMP JUMPDEST PUSH2 0x160 DUP1 SWAP2 ADD MLOAD SWAP2 ADD MSTORE SWAP1 JUMP JUMPDEST PUSH1 0x4 CALLDATALOAD SWAP1 PUSH1 0x1 PUSH1 0x1 PUSH1 0xA0 SHL SUB DUP3 AND DUP3 SUB PUSH2 0x339 JUMPI JUMP JUMPDEST PUSH1 0x24 CALLDATALOAD SWAP1 PUSH1 0x1 PUSH1 0x1 PUSH1 0xA0 SHL SUB DUP3 AND DUP3 SUB PUSH2 0x339 JUMPI JUMP JUMPDEST PUSH1 0x24 CALLDATALOAD SWAP1 PUSH1 0xFF DUP3 AND DUP3 SUB PUSH2 0x339 JUMPI JUMP JUMPDEST DUP2 PUSH1 0x1F DUP3 ADD SLT ISZERO PUSH2 0x339 JUMPI DUP1 CALLDATALOAD SWAP1 PUSH1 0x1 PUSH1 0x1 PUSH1 0x40 SHL SUB DUP3 GT PUSH2 0xF0F JUMPI PUSH1 0x40 MLOAD SWAP3 PUSH2 0x348F PUSH1 0x1F DUP5 ADD PUSH1 0x1F NOT AND PUSH1 0x20 ADD DUP6 PUSH2 0x32EA JUMP JUMPDEST DUP3 DUP5 MSTORE PUSH1 0x20 DUP4 DUP4 ADD ADD GT PUSH2 0x339 JUMPI DUP2 PUSH1 0x0 SWAP3 PUSH1 0x20 DUP1 SWAP4 ADD DUP4 DUP7 ADD CALLDATACOPY DUP4 ADD ADD MSTORE SWAP1 JUMP JUMPDEST CALLVALUE PUSH2 0x339 JUMPI PUSH1 0x0 CALLDATASIZE PUSH1 0x3 NOT ADD SLT PUSH2 0x339 JUMPI PUSH1 0x20 PUSH1 0x40 MLOAD PUSH2 0xBB8 DUP2 MSTORE RETURN JUMPDEST SWAP1 PUSH2 0x35B2 SWAP2 PUSH2 0x354A PUSH2 0x3538 PUSH2 0x3526 PUSH2 0x1E0 DUP5 MLOAD DUP7 MSTORE PUSH1 0x20 DUP6 ADD MLOAD PUSH1 0x20 DUP8 ADD MSTORE PUSH1 0x1 DUP1 PUSH1 0xA0 SHL SUB PUSH1 0x40 DUP7 ADD MLOAD AND PUSH1 0x40 DUP8 ADD MSTORE PUSH1 0x60 DUP6 ADD MLOAD PUSH2 0x350D DUP2 PUSH2 0x330B JUMP JUMPDEST PUSH1 0x60 DUP8 ADD MSTORE PUSH1 0x80 DUP6 ADD MLOAD SWAP1 DUP1 PUSH1 0x80 DUP9 ADD MSTORE DUP7 ADD SWAP1 PUSH2 0x3315 JUMP JUMPDEST PUSH1 0xA0 DUP5 ADD MLOAD DUP6 DUP3 SUB PUSH1 0xA0 DUP8 ADD MSTORE PUSH2 0x3315 JUMP JUMPDEST PUSH1 0xC0 DUP4 ADD MLOAD DUP5 DUP3 SUB PUSH1 0xC0 DUP7 ADD MSTORE PUSH2 0x3315 JUMP JUMPDEST SWAP2 PUSH1 0xE0 DUP3 ADD MLOAD PUSH1 0xE0 DUP3 ADD MSTORE PUSH2 0x100 DUP1 DUP4 ADD MLOAD SWAP1 DUP3 ADD MSTORE PUSH2 0x120 DUP1 DUP4 ADD MLOAD SWAP1 DUP3 ADD MSTORE PUSH2 0x140 DUP1 DUP4 ADD MLOAD SWAP1 DUP3 ADD MSTORE PUSH2 0x160 DUP1 DUP4 ADD MLOAD SWAP1 DUP3 ADD MSTORE PUSH2 0x180 DUP1 DUP4 ADD MLOAD SWAP1 DUP3 ADD MSTORE PUSH2 0x359F PUSH2 0x1A0 DUP1 DUP5 ADD MLOAD SWAP1 DUP4 ADD SWAP1 PUSH2 0x3355 JUMP JUMPDEST PUSH2 0x1C0 DUP1 SWAP3 ADD MLOAD SWAP2 DUP2 DUP5 SUB SWAP2 ADD MSTORE PUSH2 0x3315 JUMP JUMPDEST SWAP1 JUMP JUMPDEST SWAP1 PUSH1 0x6 DUP2 LT ISZERO PUSH2 0x323 JUMPI PUSH1 0xFF DUP1 NOT DUP4 SLOAD AND SWAP2 AND OR SWAP1 SSTORE JUMP JUMPDEST PUSH1 0x40 MLOAD SWAP1 PUSH2 0x35DA DUP3 PUSH2 0x3297 JUMP JUMPDEST DUP2 PUSH2 0x160 PUSH1 0x0 SWAP2 DUP3 DUP2 MSTORE DUP3 PUSH1 0x20 DUP3 ADD MSTORE DUP3 PUSH1 0x40 DUP3 ADD MSTORE PUSH1 0x60 DUP1 DUP3 ADD MSTORE PUSH1 0x60 PUSH1 0x80 DUP3 ADD MSTORE PUSH1 0x60 PUSH1 0xA0 DUP3 ADD MSTORE DUP3 PUSH1 0xC0 DUP3 ADD MSTORE DUP3 PUSH1 0xE0 DUP3 ADD MSTORE DUP3 PUSH2 0x100 DUP3 ADD MSTORE DUP3 PUSH2 0x120 DUP3 ADD MSTORE DUP3 PUSH2 0x140 DUP3 ADD MSTORE ADD MSTORE JUMP JUMPDEST SWAP1 PUSH1 0x40 MLOAD PUSH2 0x3636 DUP2 PUSH2 0x3297 JUMP JUMPDEST DUP1 SWAP3 DUP1 SLOAD DUP3 MSTORE PUSH1 0x1 DUP2 ADD SLOAD PUSH1 0x20 DUP4 ADD MSTORE PUSH1 0x1 DUP1 PUSH1 0xA0 SHL SUB PUSH1 0x2 DUP3 ADD SLOAD AND PUSH1 0x40 DUP4 ADD MSTORE PUSH1 0x40 MLOAD PUSH2 0x366C DUP2 PUSH2 0x1C71 DUP2 PUSH1 0x3 DUP7 ADD PUSH2 0x3201 JUMP JUMPDEST PUSH1 0x60 DUP4 ADD MSTORE PUSH1 0x40 MLOAD PUSH2 0x3685 DUP2 PUSH2 0x1C71 DUP2 PUSH1 0x4 DUP7 ADD PUSH2 0x3201 JUMP JUMPDEST PUSH1 0x80 DUP4 ADD MSTORE PUSH1 0x40 MLOAD PUSH2 0x369E DUP2 PUSH2 0x1C71 DUP2 PUSH1 0x5 DUP7 ADD PUSH2 0x3201 JUMP JUMPDEST PUSH1 0xA0 DUP4 ADD MSTORE PUSH1 0x6 DUP2 ADD SLOAD PUSH1 0xC0 DUP4 ADD MSTORE PUSH1 0x7 DUP2 ADD SLOAD PUSH1 0xE0 DUP4 ADD MSTORE PUSH1 0x8 DUP2 ADD SLOAD PUSH2 0x100 DUP4 ADD MSTORE PUSH1 0x9 DUP2 ADD SLOAD PUSH2 0x120 DUP4 ADD MSTORE PUSH1 0xFF PUSH1 0xA DUP3 ADD SLOAD AND PUSH1 0x3 DUP2 LT ISZERO PUSH2 0x323 JUMPI PUSH2 0x160 SWAP2 PUSH1 0xB SWAP2 PUSH2 0x140 DUP6 ADD MSTORE ADD SLOAD SWAP2 ADD MSTORE JUMP JUMPDEST ISZERO PUSH2 0x36F9 JUMPI JUMP JUMPDEST PUSH1 0x40 MLOAD PUSH3 0x461BCD PUSH1 0xE5 SHL DUP2 MSTORE PUSH1 0x20 PUSH1 0x4 DUP3 ADD MSTORE PUSH1 0x13 PUSH1 0x24 DUP3 ADD MSTORE PUSH19 0x50726F706F73616C206E6F7420616374697665 PUSH1 0x68 SHL PUSH1 0x44 DUP3 ADD MSTORE PUSH1 0x64 SWAP1 REVERT JUMPDEST ISZERO PUSH2 0x373B JUMPI JUMP JUMPDEST PUSH1 0x40 MLOAD PUSH3 0x461BCD PUSH1 0xE5 SHL DUP2 MSTORE PUSH1 0x20 PUSH1 0x4 DUP3 ADD MSTORE PUSH1 0x12 PUSH1 0x24 DUP3 ADD MSTORE PUSH18 0x159BDD1A5B99C81B9BDD081CDD185C9D1959 PUSH1 0x72 SHL PUSH1 0x44 DUP3 ADD MSTORE PUSH1 0x64 SWAP1 REVERT JUMPDEST ISZERO PUSH2 0x377C JUMPI JUMP JUMPDEST PUSH1 0x40 MLOAD PUSH3 0x461BCD PUSH1 0xE5 SHL DUP2 MSTORE PUSH1 0x20 PUSH1 0x4 DUP3 ADD MSTORE PUSH1 0xC PUSH1 0x24 DUP3 ADD MSTORE PUSH12 0x159BDD1A5B99C8195B991959 PUSH1 0xA2 SHL PUSH1 0x44 DUP3 ADD MSTORE PUSH1 0x64 SWAP1 REVERT JUMPDEST ISZERO PUSH2 0x37B7 JUMPI JUMP JUMPDEST PUSH1 0x40 MLOAD PUSH3 0x461BCD PUSH1 0xE5 SHL DUP2 MSTORE PUSH1 0x20 PUSH1 0x4 DUP3 ADD MSTORE PUSH1 0x11 PUSH1 0x24 DUP3 ADD MSTORE PUSH17 0x496E76616C696420766F74652074797065 PUSH1 0x78 SHL PUSH1 0x44 DUP3 ADD MSTORE PUSH1 0x64 SWAP1 REVERT JUMPDEST ISZERO PUSH2 0x37F7 JUMPI JUMP JUMPDEST PUSH1 0x40 MLOAD PUSH3 0x461BCD PUSH1 0xE5 SHL DUP2 MSTORE PUSH1 0x20 PUSH1 0x4 DUP3 ADD MSTORE PUSH1 0xD PUSH1 0x24 DUP3 ADD MSTORE PUSH13 0x105B1C9958591E481D9BDD1959 PUSH1 0x9A SHL PUSH1 0x44 DUP3 ADD MSTORE PUSH1 0x64 SWAP1 REVERT JUMPDEST PUSH1 0x0 NOT DUP2 EQ PUSH2 0x19F4 JUMPI PUSH1 0x1 ADD SWAP1 JUMP JUMPDEST ISZERO PUSH2 0x3842 JUMPI JUMP JUMPDEST PUSH1 0x40 MLOAD PUSH3 0x461BCD PUSH1 0xE5 SHL DUP2 MSTORE PUSH1 0x20 PUSH1 0x4 DUP3 ADD MSTORE PUSH1 0xF PUSH1 0x24 DUP3 ADD MSTORE PUSH15 0x2737903B37BA34B733903837BBB2B9 PUSH1 0x89 SHL PUSH1 0x44 DUP3 ADD MSTORE PUSH1 0x64 SWAP1 REVERT JUMPDEST SWAP2 SWAP1 DUP3 ADD DUP1 SWAP3 GT PUSH2 0x19F4 JUMPI JUMP JUMPDEST SWAP1 PUSH1 0x1F DUP2 GT PUSH2 0x3894 JUMPI POP POP POP JUMP JUMPDEST PUSH1 0x0 SWAP2 PUSH1 0x0 MSTORE PUSH1 0x20 PUSH1 0x0 KECCAK256 SWAP1 PUSH1 0x20 PUSH1 0x1F DUP6 ADD PUSH1 0x5 SHR DUP4 ADD SWAP5 LT PUSH2 0x38D2 JUMPI JUMPDEST PUSH1 0x1F ADD PUSH1 0x5 SHR ADD SWAP2 JUMPDEST DUP3 DUP2 LT PUSH2 0x38C7 JUMPI POP POP POP JUMP JUMPDEST DUP2 DUP2 SSTORE PUSH1 0x1 ADD PUSH2 0x38BB JUMP JUMPDEST SWAP1 SWAP3 POP DUP3 SWAP1 PUSH2 0x38B2 JUMP JUMPDEST DUP2 ISZERO PUSH2 0x38E6 JUMPI DIV SWAP1 JUMP JUMPDEST PUSH4 0x4E487B71 PUSH1 0xE0 SHL PUSH1 0x0 MSTORE PUSH1 0x12 PUSH1 0x4 MSTORE PUSH1 0x24 PUSH1 0x0 REVERT JUMPDEST ISZERO PUSH2 0x3903 JUMPI JUMP JUMPDEST PUSH1 0x40 MLOAD PUSH3 0x461BCD PUSH1 0xE5 SHL DUP2 MSTORE PUSH1 0x20 PUSH1 0x4 DUP3 ADD MSTORE PUSH1 0x1B PUSH1 0x24 DUP3 ADD MSTORE PUSH32 0x4D75737420686F6C6420746F6B656E7320746F2070726F706F73650000000000 PUSH1 0x44 DUP3 ADD MSTORE PUSH1 0x64 SWAP1 REVERT JUMPDEST PUSH1 0x1 PUSH1 0x1 PUSH1 0x40 SHL SUB DUP2 GT PUSH2 0xF0F JUMPI PUSH1 0x5 SHL PUSH1 0x20 ADD SWAP1 JUMP JUMPDEST PUSH1 0x40 MLOAD SWAP1 PUSH2 0x396C DUP3 PUSH2 0x32B3 JUMP JUMPDEST PUSH1 0x60 PUSH2 0x1C0 DUP4 PUSH1 0x0 DUP1 DUP3 MSTORE DUP1 PUSH1 0x20 DUP4 ADD MSTORE DUP1 PUSH1 0x40 DUP4 ADD MSTORE DUP1 DUP5 DUP4 ADD MSTORE DUP4 PUSH1 0x80 DUP4 ADD MSTORE DUP4 PUSH1 0xA0 DUP4 ADD MSTORE DUP4 PUSH1 0xC0 DUP4 ADD MSTORE DUP1 PUSH1 0xE0 DUP4 ADD MSTORE DUP1 PUSH2 0x100 DUP4 ADD MSTORE DUP1 PUSH2 0x120 DUP4 ADD MSTORE DUP1 PUSH2 0x140 DUP4 ADD MSTORE DUP1 PUSH2 0x160 DUP4 ADD MSTORE DUP1 PUSH2 0x180 DUP4 ADD MSTORE PUSH2 0x1A0 DUP3 ADD MSTORE ADD MSTORE JUMP JUMPDEST DUP1 MLOAD DUP3 LT ISZERO PUSH2 0x39E1 JUMPI PUSH1 0x20 SWAP2 PUSH1 0x5 SHL ADD ADD SWAP1 JUMP JUMPDEST PUSH4 0x4E487B71 PUSH1 0xE0 SHL PUSH1 0x0 MSTORE PUSH1 0x32 PUSH1 0x4 MSTORE PUSH1 0x24 PUSH1 0x0 REVERT JUMPDEST SWAP1 PUSH1 0x40 SWAP2 DUP3 MLOAD SWAP3 PUSH2 0x3A07 DUP5 PUSH2 0x32B3 JUMP JUMPDEST DUP2 SLOAD DUP5 MSTORE PUSH1 0x1 DUP3 ADD SLOAD PUSH1 0x20 DUP6 ADD MSTORE PUSH1 0x2 DUP3 ADD SLOAD PUSH1 0x1 PUSH1 0x1 PUSH1 0xA0 SHL SUB DUP2 AND DUP3 DUP7 ADD MSTORE DUP5 SWAP1 PUSH1 0xA0 SHR PUSH1 0xFF AND PUSH2 0x3A39 DUP2 PUSH2 0x330B JUMP JUMPDEST PUSH1 0x60 DUP3 ADD MSTORE DUP2 MLOAD PUSH2 0x3A51 DUP2 PUSH2 0x1C71 DUP2 PUSH1 0x3 DUP9 ADD PUSH2 0x3201 JUMP JUMPDEST PUSH1 0x80 DUP3 ADD MSTORE DUP2 MLOAD PUSH2 0x3A69 DUP2 PUSH2 0x1C71 DUP2 PUSH1 0x4 DUP9 ADD PUSH2 0x3201 JUMP JUMPDEST PUSH1 0xA0 DUP3 ADD MSTORE DUP2 MLOAD PUSH2 0x3A81 DUP2 PUSH2 0x1C71 DUP2 PUSH1 0x5 DUP9 ADD PUSH2 0x3201 JUMP JUMPDEST PUSH1 0xC0 DUP3 ADD MSTORE PUSH1 0x6 DUP4 ADD SLOAD PUSH1 0xE0 DUP3 ADD MSTORE PUSH1 0x7 DUP4 ADD SLOAD PUSH2 0x100 DUP3 ADD MSTORE PUSH1 0x8 DUP4 ADD SLOAD PUSH2 0x120 DUP3 ADD MSTORE PUSH1 0x9 DUP4 ADD SLOAD PUSH2 0x140 DUP3 ADD MSTORE PUSH1 0xA DUP4 ADD SLOAD PUSH2 0x160 DUP3 ADD MSTORE PUSH1 0xB DUP4 ADD SLOAD PUSH2 0x180 DUP3 ADD MSTORE PUSH1 0xFF PUSH1 0xC DUP5 ADD SLOAD AND SWAP2 PUSH1 0x6 DUP4 LT ISZERO PUSH2 0x323 JUMPI PUSH1 0xD SWAP4 PUSH2 0x3AF8 PUSH2 0x3AFF SWAP3 PUSH2 0x1C0 SWAP6 PUSH2 0x1A0 DUP7 ADD MSTORE MLOAD DUP1 SWAP7 DUP2 SWAP4 ADD PUSH2 0x3201 JUMP JUMPDEST SUB DUP5 PUSH2 0x32EA JUMP JUMPDEST ADD MSTORE JUMP JUMPDEST PUSH1 0x0 MSTORE PUSH1 0xC PUSH1 0x20 MSTORE PUSH1 0x40 PUSH1 0x0 KECCAK256 PUSH2 0x3B23 PUSH1 0x7 PUSH1 0x6 DUP4 ADD SLOAD SWAP3 ADD SLOAD DUP3 PUSH2 0x3879 JUMP JUMPDEST DUP1 ISZERO PUSH2 0x3B46 JUMPI PUSH2 0x2710 SWAP2 DUP3 DUP2 MUL SWAP3 DUP2 DUP5 DIV EQ SWAP1 ISZERO OR ISZERO PUSH2 0x19F4 JUMPI PUSH2 0x35B2 SWAP2 PUSH2 0x38DC JUMP JUMPDEST POP POP PUSH1 0x0 SWAP1 JUMP JUMPDEST ISZERO PUSH2 0x3B54 JUMPI JUMP JUMPDEST PUSH1 0x40 MLOAD PUSH3 0x461BCD PUSH1 0xE5 SHL DUP2 MSTORE PUSH1 0x20 PUSH1 0x4 DUP3 ADD MSTORE PUSH1 0xF PUSH1 0x24 DUP3 ADD MSTORE PUSH15 0x506F6C6C206E6F7420616374697665 PUSH1 0x88 SHL PUSH1 0x44 DUP3 ADD MSTORE PUSH1 0x64 SWAP1 REVERT JUMPDEST PUSH1 0x1 DUP1 PUSH1 0xA0 SHL SUB AND PUSH1 0x0 MSTORE PUSH1 0xB PUSH1 0x20 MSTORE PUSH1 0x40 PUSH1 0x0 KECCAK256 SLOAD TIMESTAMP SUB TIMESTAMP DUP2 GT PUSH2 0x19F4 JUMPI PUSH3 0x278D00 LT ISZERO PUSH2 0x3BB9 JUMPI PUSH1 0x0 SWAP1 JUMP JUMPDEST PUSH1 0x5 SLOAD SWAP1 JUMP JUMPDEST CALLER PUSH1 0x0 SWAP1 DUP2 MSTORE PUSH32 0x3412D5605AC6CD444957CEDB533E5DACAD6378B4BC819EBE3652188A665066D5 PUSH1 0x20 MSTORE PUSH1 0x40 SWAP1 KECCAK256 SLOAD PUSH32 0xB09AA5AEB3702CFD50B6B62BC4532604938F21248A27A1D5CA736082B6819CC1 SWAP1 PUSH1 0xFF AND ISZERO PUSH2 0x2DCD JUMPI POP JUMP JUMPDEST CALLER PUSH1 0x0 SWAP1 DUP2 MSTORE PUSH32 0xAD3228B676F7D3CD4284A5443F17F1962B36E491B30A40B2405849E597BA5FB5 PUSH1 0x20 MSTORE PUSH1 0x40 DUP2 KECCAK256 SLOAD PUSH1 0xFF AND ISZERO PUSH2 0x2DCD JUMPI POP JUMP JUMPDEST DUP1 PUSH1 0x0 MSTORE PUSH1 0x0 PUSH1 0x20 MSTORE PUSH1 0x40 PUSH1 0x0 KECCAK256 CALLER PUSH1 0x0 MSTORE PUSH1 0x20 MSTORE PUSH1 0xFF PUSH1 0x40 PUSH1 0x0 KECCAK256 SLOAD AND ISZERO PUSH2 0x2DCD JUMPI POP JUMP JUMPDEST PUSH1 0x2 PUSH1 0x1 SLOAD EQ PUSH2 0x3C8C JUMPI PUSH1 0x2 PUSH1 0x1 SSTORE JUMP JUMPDEST PUSH1 0x40 MLOAD PUSH4 0x3EE5AEB5 PUSH1 0xE0 SHL DUP2 MSTORE PUSH1 0x4 SWAP1 REVERT JUMPDEST SWAP1 PUSH1 0x0 SWAP2 DUP1 DUP4 MSTORE DUP3 PUSH1 0x20 MSTORE PUSH1 0x40 DUP4 KECCAK256 SWAP2 PUSH1 0x1 DUP1 PUSH1 0xA0 SHL SUB AND SWAP2 DUP3 DUP5 MSTORE PUSH1 0x20 MSTORE PUSH1 0xFF PUSH1 0x40 DUP5 KECCAK256 SLOAD AND ISZERO PUSH1 0x0 EQ PUSH2 0x3D17 JUMPI DUP1 DUP4 MSTORE DUP3 PUSH1 0x20 MSTORE PUSH1 0x40 DUP4 KECCAK256 DUP3 DUP5 MSTORE PUSH1 0x20 MSTORE PUSH1 0x40 DUP4 KECCAK256 PUSH1 0x1 PUSH1 0xFF NOT DUP3 SLOAD AND OR SWAP1 SSTORE PUSH32 0x2F8788117E7EFF1D82E926EC794901D17C78024A50270940304540A733656F0D CALLER SWAP4 DUP1 LOG4 PUSH1 0x1 SWAP1 JUMP JUMPDEST POP POP SWAP1 JUMP JUMPDEST SWAP1 PUSH1 0x0 SWAP2 DUP1 DUP4 MSTORE DUP3 PUSH1 0x20 MSTORE PUSH1 0x40 DUP4 KECCAK256 SWAP2 PUSH1 0x1 DUP1 PUSH1 0xA0 SHL SUB AND SWAP2 DUP3 DUP5 MSTORE PUSH1 0x20 MSTORE PUSH1 0xFF PUSH1 0x40 DUP5 KECCAK256 SLOAD AND PUSH1 0x0 EQ PUSH2 0x3D17 JUMPI DUP1 DUP4 MSTORE DUP3 PUSH1 0x20 MSTORE PUSH1 0x40 DUP4 KECCAK256 DUP3 DUP5 MSTORE PUSH1 0x20 MSTORE PUSH1 0x40 DUP4 KECCAK256 PUSH1 0xFF NOT DUP2 SLOAD AND SWAP1 SSTORE PUSH32 0xF6391F5C32D9C69D2A47EA670B442974B53935D1EDC7FD64EB21E047A839171B CALLER SWAP4 DUP1 LOG4 PUSH1 0x1 SWAP1 JUMP JUMPDEST PUSH2 0x3D9A DUP2 PUSH2 0x330B JUMP JUMPDEST DUP1 ISZERO PUSH2 0x3DD5 JUMPI PUSH2 0x3DA9 DUP2 PUSH2 0x330B JUMP JUMPDEST PUSH1 0x1 DUP2 EQ PUSH2 0x3DCE JUMPI DUP1 PUSH2 0x3DBD PUSH1 0x2 SWAP3 PUSH2 0x330B JUMP JUMPDEST EQ PUSH2 0x3DC8 JUMPI PUSH2 0x1388 SWAP1 JUMP JUMPDEST PUSH2 0x9C4 SWAP1 JUMP JUMPDEST POP PUSH2 0xBB8 SWAP1 JUMP JUMPDEST POP PUSH2 0x7D0 SWAP1 JUMP JUMPDEST SWAP2 SWAP1 PUSH32 0x7FFFFFFFFFFFFFFFFFFFFFFFFFFFFFFF5D576E7357A4501DDFE92F46681B20A0 DUP5 GT PUSH2 0x3E60 JUMPI SWAP3 PUSH1 0x20 SWAP3 SWAP2 PUSH1 0xFF PUSH1 0x80 SWAP6 PUSH1 0x40 MLOAD SWAP5 DUP6 MSTORE AND DUP5 DUP5 ADD MSTORE PUSH1 0x40 DUP4 ADD MSTORE PUSH1 0x60 DUP3 ADD MSTORE PUSH1 0x0 SWAP3 DUP4 SWAP2 DUP3 DUP1 MSTORE PUSH1 0x1 GAS STATICCALL ISZERO PUSH2 0x3E54 JUMPI DUP1 MLOAD PUSH1 0x1 PUSH1 0x1 PUSH1 0xA0 SHL SUB DUP2 AND ISZERO PUSH2 0x3E4B JUMPI SWAP2 DUP2 SWAP1 JUMP JUMPDEST POP DUP1 SWAP2 PUSH1 0x1 SWAP2 SWAP1 JUMP JUMPDEST PUSH1 0x40 MLOAD SWAP1 RETURNDATASIZE SWAP1 DUP3 RETURNDATACOPY RETURNDATASIZE SWAP1 REVERT JUMPDEST POP POP POP PUSH1 0x0 SWAP2 PUSH1 0x3 SWAP2 SWAP1 JUMP JUMPDEST PUSH2 0x3E75 DUP2 PUSH2 0x330B JUMP JUMPDEST DUP1 PUSH2 0x3E7E JUMPI POP POP JUMP JUMPDEST PUSH2 0x3E87 DUP2 PUSH2 0x330B JUMP JUMPDEST PUSH1 0x1 DUP2 SUB PUSH2 0x3EA1 JUMPI PUSH1 0x40 MLOAD PUSH4 0xF645EEDF PUSH1 0xE0 SHL DUP2 MSTORE PUSH1 0x4 SWAP1 REVERT JUMPDEST PUSH2 0x3EAA DUP2 PUSH2 0x330B JUMP JUMPDEST PUSH1 0x2 DUP2 SUB PUSH2 0x3ECB JUMPI PUSH1 0x40 MLOAD PUSH4 0xFCE698F7 PUSH1 0xE0 SHL DUP2 MSTORE PUSH1 0x4 DUP2 ADD DUP4 SWAP1 MSTORE PUSH1 0x24 SWAP1 REVERT JUMPDEST DUP1 PUSH2 0x3ED7 PUSH1 0x3 SWAP3 PUSH2 0x330B JUMP JUMPDEST EQ PUSH2 0x3EDF JUMPI POP JUMP JUMPDEST PUSH1 0x24 SWAP1 PUSH1 0x40 MLOAD SWAP1 PUSH4 0x35E2F383 PUSH1 0xE2 SHL DUP3 MSTORE PUSH1 0x4 DUP3 ADD MSTORE REVERT INVALID 0xB1 0xD5 PUSH10 0xDC5621A0A51229B7AC0E SELFDESTRUCT DUP2 RETURN 0xE6 0xDF PUSH17 0xA3F72FE608AA58F74BB69D7BB6A2646970 PUSH7 0x73582212205ADD MOD SELFBALANCE 0xE9 DUP9 SMOD 0xCC DUP13 TLOAD REVERT BALANCE SWAP16 SWAP11 0xE6 SELFBALANCE DUP6 EXP 0xEA PUSH21 0xC4426B243B0919DED0E2224364736F6C6343000818 STOP CALLER 0x2F DUP8 DUP9 GT PUSH31 0x7EFF1D82E926EC794901D17C78024A50270940304540A733656F0D00000000 "},"methodIdentifiers":{"DEFAULT_ADMIN_ROLE()":"a217fddf","DOMAIN_SEPARATOR()":"3644e515","EXECUTOR_ROLE()":"07bd0265","POLL_PROPOSAL_THRESHOLD()":"808c4479","POLL_QUORUM_BONUS()":"3d8803e2","PROPOSER_ROLE()":"8f61f4f5","QUORUM_EMERGENCY()":"5394c879","QUORUM_PARAMETER()":"248bd471","QUORUM_PROPERTY()":"b277d02a","QUORUM_TREASURY()":"42a7c614","RELAYER_ROLE()":"926d7d7f","VOTE_TYPEHASH()":"86522973","cancelProposal(uint256)":"e0a8f6f5","castVote(uint256,uint8)":"56781388","castVoteBySignature(uint256,uint8,address,uint256,uint8,bytes32,bytes32)":"2dcf0d73","createPoll(uint256,string,string,string,uint256)":"364478e2","createProposal(uint256,uint8,string,string,string,bytes)":"9b699e57","createProposalFromPoll(uint256,uint8,bytes)":"4ce83cdb","endPoll(uint256)":"f43b8778","executeProposal(uint256)":"0d61b519","finalizeProposal(uint256)":"5652077c","getActivePolls(uint256)":"63f0c7ff","getActiveProposals(uint256)":"6213e5ea","getNonce(address)":"2d0335ab","getPoll(uint256)":"1a8cbcaa","getPollSupport(uint256)":"9c4e99ca","getProposal(uint256)":"c7f758a8","getRoleAdmin(bytes32)":"248a9ca3","getVote(uint256,address)":"bc3f931f","getVoteToEarnBonus(address)":"ecc52c04","grantRole(bytes32,address)":"2f2ff15d","hasRole(bytes32,address)":"91d14854","lastVoteTimestamp(address)":"de1cf4ad","nonces(address)":"7ecebe00","pollCount()":"9207891d","pollParticipants(uint256)":"c3b028e2","pollVotes(uint256,address)":"637e54ac","polls(uint256)":"ac2f0074","propertyToken()":"43ae2695","proposalCount()":"da35c664","proposals(uint256)":"013cf08b","renounceRole(bytes32,address)":"36568abe","revokeRole(bytes32,address)":"d547741f","setVoteToEarnBonus(uint256)":"872d1544","setVotingPeriod(uint256)":"ea0217cf","supportsInterface(bytes4)":"01ffc9a7","totalVotingPower(uint256)":"536f9f42","votePoll(uint256,bool)":"9d79a9eb","voteToEarnBonus()":"dd9deb1b","voterParticipationCount(address)":"5c7b264d","votes(uint256,address)":"d23254b4","votingPeriod()":"02a251a3"}}}}}