{
  "_format": "hh-sol-artifact-1",
  "contractName": "Governance",
  "sourceName": "contracts/Governance.sol",
  "abi": [
    {
      "inputs": [
        {
          "internalType": "address",
          "name": "_propertyToken",
          "type": "address"
        }
      ],
      "stateMutability": "nonpayable",
      "type": "constructor"
    },
    {
      "inputs": [],
      "name": "AccessControlBadConfirmation",
      "type": "error"
    },
    {
      "inputs": [
        {
          "internalType": "address",
          "name": "account",
          "type": "address"
        },
        {
          "internalType": "bytes32",
          "name": "neededRole",
          "type": "bytes32"
        }
      ],
      "name": "AccessControlUnauthorizedAccount",
      "type": "error"
    },
    {
      "inputs": [],
      "name": "ECDSAInvalidSignature",
      "type": "error"
    },
    {
      "inputs": [
        {
          "internalType": "uint256",
          "name": "length",
          "type": "uint256"
        }
      ],
      "name": "ECDSAInvalidSignatureLength",
      "type": "error"
    },
    {
      "inputs": [
        {
          "internalType": "bytes32",
          "name": "s",
          "type": "bytes32"
        }
      ],
      "name": "ECDSAInvalidSignatureS",
      "type": "error"
    },
    {
      "inputs": [],
      "name": "ReentrancyGuardReentrantCall",
      "type": "error"
    },
    {
      "anonymous": false,
      "inputs": [
        {
          "indexed": true,
          "internalType": "uint256",
          "name": "proposalId",
          "type": "uint256"
        },
        {
          "indexed": true,
          "internalType": "address",
          "name": "voter",
          "type": "address"
        },
        {
          "indexed": false,
          "internalType": "uint8",
          "name": "support",
          "type": "uint8"
        },
        {
          "indexed": false,
          "internalType": "uint256",
          "name": "weight",
          "type": "uint256"
        },
        {
          "indexed": false,
          "internalType": "address",
          "name": "relayer",
          "type": "address"
        }
      ],
      "name": "OffChainVoteCast",
      "type": "event"
    },
    {
      "anonymous": false,
      "inputs": [
        {
          "indexed": true,
          "internalType": "uint256",
          "name": "proposalId",
          "type": "uint256"
        }
      ],
      "name": "ProposalCancelled",
      "type": "event"
    },
    {
      "anonymous": false,
      "inputs": [
        {
          "indexed": true,
          "internalType": "uint256",
          "name": "proposalId",
          "type": "uint256"
        },
        {
          "indexed": true,
          "internalType": "uint256",
          "name": "propertyId",
          "type": "uint256"
        },
        {
          "indexed": false,
          "internalType": "address",
          "name": "proposer",
          "type": "address"
        },
        {
          "indexed": false,
          "internalType": "enum Governance.ProposalType",
          "name": "proposalType",
          "type": "uint8"
        },
        {
          "indexed": false,
          "internalType": "string",
          "name": "title",
          "type": "string"
        }
      ],
      "name": "ProposalCreated",
      "type": "event"
    },
    {
      "anonymous": false,
      "inputs": [
        {
          "indexed": true,
          "internalType": "uint256",
          "name": "proposalId",
          "type": "uint256"
        }
      ],
      "name": "ProposalExecuted",
      "type": "event"
    },
    {
      "anonymous": false,
      "inputs": [
        {
          "indexed": true,
          "internalType": "bytes32",
          "name": "role",
          "type": "bytes32"
        },
        {
          "indexed": true,
          "internalType": "bytes32",
          "name": "previousAdminRole",
          "type": "bytes32"
        },
        {
          "indexed": true,
          "internalType": "bytes32",
          "name": "newAdminRole",
          "type": "bytes32"
        }
      ],
      "name": "RoleAdminChanged",
      "type": "event"
    },
    {
      "anonymous": false,
      "inputs": [
        {
          "indexed": true,
          "internalType": "bytes32",
          "name": "role",
          "type": "bytes32"
        },
        {
          "indexed": true,
          "internalType": "address",
          "name": "account",
          "type": "address"
        },
        {
          "indexed": true,
          "internalType": "address",
          "name": "sender",
          "type": "address"
        }
      ],
      "name": "RoleGranted",
      "type": "event"
    },
    {
      "anonymous": false,
      "inputs": [
        {
          "indexed": true,
          "internalType": "bytes32",
          "name": "role",
          "type": "bytes32"
        },
        {
          "indexed": true,
          "internalType": "address",
          "name": "account",
          "type": "address"
        },
        {
          "indexed": true,
          "internalType": "address",
          "name": "sender",
          "type": "address"
        }
      ],
      "name": "RoleRevoked",
      "type": "event"
    },
    {
      "anonymous": false,
      "inputs": [
        {
          "indexed": true,
          "internalType": "uint256",
          "name": "proposalId",
          "type": "uint256"
        },
        {
          "indexed": true,
          "internalType": "address",
          "name": "voter",
          "type": "address"
        },
        {
          "indexed": false,
          "internalType": "uint8",
          "name": "support",
          "type": "uint8"
        },
        {
          "indexed": false,
          "internalType": "uint256",
          "name": "weight",
          "type": "uint256"
        }
      ],
      "name": "VoteCast",
      "type": "event"
    },
    {
      "anonymous": false,
      "inputs": [
        {
          "indexed": false,
          "internalType": "uint256",
          "name": "newBonus",
          "type": "uint256"
        }
      ],
      "name": "VoteToEarnBonusUpdated",
      "type": "event"
    },
    {
      "anonymous": false,
      "inputs": [
        {
          "indexed": false,
          "internalType": "uint256",
          "name": "newPeriod",
          "type": "uint256"
        }
      ],
      "name": "VotingPeriodUpdated",
      "type": "event"
    },
    {
      "inputs": [],
      "name": "DEFAULT_ADMIN_ROLE",
      "outputs": [
        {
          "internalType": "bytes32",
          "name": "",
          "type": "bytes32"
        }
      ],
      "stateMutability": "view",
      "type": "function"
    },
    {
      "inputs": [],
      "name": "DOMAIN_SEPARATOR",
      "outputs": [
        {
          "internalType": "bytes32",
          "name": "",
          "type": "bytes32"
        }
      ],
      "stateMutability": "view",
      "type": "function"
    },
    {
      "inputs": [],
      "name": "EXECUTOR_ROLE",
      "outputs": [
        {
          "internalType": "bytes32",
          "name": "",
          "type": "bytes32"
        }
      ],
      "stateMutability": "view",
      "type": "function"
    },
    {
      "inputs": [],
      "name": "PROPOSER_ROLE",
      "outputs": [
        {
          "internalType": "bytes32",
          "name": "",
          "type": "bytes32"
        }
      ],
      "stateMutability": "view",
      "type": "function"
    },
    {
      "inputs": [],
      "name": "QUORUM_EMERGENCY",
      "outputs": [
        {
          "internalType": "uint256",
          "name": "",
          "type": "uint256"
        }
      ],
      "stateMutability": "view",
      "type": "function"
    },
    {
      "inputs": [],
      "name": "QUORUM_PARAMETER",
      "outputs": [
        {
          "internalType": "uint256",
          "name": "",
          "type": "uint256"
        }
      ],
      "stateMutability": "view",
      "type": "function"
    },
    {
      "inputs": [],
      "name": "QUORUM_PROPERTY",
      "outputs": [
        {
          "internalType": "uint256",
          "name": "",
          "type": "uint256"
        }
      ],
      "stateMutability": "view",
      "type": "function"
    },
    {
      "inputs": [],
      "name": "QUORUM_TREASURY",
      "outputs": [
        {
          "internalType": "uint256",
          "name": "",
          "type": "uint256"
        }
      ],
      "stateMutability": "view",
      "type": "function"
    },
    {
      "inputs": [],
      "name": "RELAYER_ROLE",
      "outputs": [
        {
          "internalType": "bytes32",
          "name": "",
          "type": "bytes32"
        }
      ],
      "stateMutability": "view",
      "type": "function"
    },
    {
      "inputs": [],
      "name": "VOTE_TYPEHASH",
      "outputs": [
        {
          "internalType": "bytes32",
          "name": "",
          "type": "bytes32"
        }
      ],
      "stateMutability": "view",
      "type": "function"
    },
    {
      "inputs": [
        {
          "internalType": "uint256",
          "name": "proposalId",
          "type": "uint256"
        }
      ],
      "name": "cancelProposal",
      "outputs": [],
      "stateMutability": "nonpayable",
      "type": "function"
    },
    {
      "inputs": [
        {
          "internalType": "uint256",
          "name": "proposalId",
          "type": "uint256"
        },
        {
          "internalType": "uint8",
          "name": "support",
          "type": "uint8"
        }
      ],
      "name": "castVote",
      "outputs": [],
      "stateMutability": "nonpayable",
      "type": "function"
    },
    {
      "inputs": [
        {
          "internalType": "uint256",
          "name": "proposalId",
          "type": "uint256"
        },
        {
          "internalType": "uint8",
          "name": "support",
          "type": "uint8"
        },
        {
          "internalType": "address",
          "name": "voter",
          "type": "address"
        },
        {
          "internalType": "uint256",
          "name": "deadline",
          "type": "uint256"
        },
        {
          "internalType": "uint8",
          "name": "v",
          "type": "uint8"
        },
        {
          "internalType": "bytes32",
          "name": "r",
          "type": "bytes32"
        },
        {
          "internalType": "bytes32",
          "name": "s",
          "type": "bytes32"
        }
      ],
      "name": "castVoteBySignature",
      "outputs": [],
      "stateMutability": "nonpayable",
      "type": "function"
    },
    {
      "inputs": [
        {
          "internalType": "uint256",
          "name": "propertyId",
          "type": "uint256"
        },
        {
          "internalType": "enum Governance.ProposalType",
          "name": "proposalType",
          "type": "uint8"
        },
        {
          "internalType": "string",
          "name": "title",
          "type": "string"
        },
        {
          "internalType": "string",
          "name": "description",
          "type": "string"
        },
        {
          "internalType": "string",
          "name": "ipfsHash",
          "type": "string"
        },
        {
          "internalType": "bytes",
          "name": "executionData",
          "type": "bytes"
        }
      ],
      "name": "createProposal",
      "outputs": [
        {
          "internalType": "uint256",
          "name": "",
          "type": "uint256"
        }
      ],
      "stateMutability": "nonpayable",
      "type": "function"
    },
    {
      "inputs": [
        {
          "internalType": "uint256",
          "name": "proposalId",
          "type": "uint256"
        }
      ],
      "name": "executeProposal",
      "outputs": [],
      "stateMutability": "nonpayable",
      "type": "function"
    },
    {
      "inputs": [
        {
          "internalType": "uint256",
          "name": "proposalId",
          "type": "uint256"
        }
      ],
      "name": "finalizeProposal",
      "outputs": [],
      "stateMutability": "nonpayable",
      "type": "function"
    },
    {
      "inputs": [
        {
          "internalType": "uint256",
          "name": "propertyId",
          "type": "uint256"
        }
      ],
      "name": "getActiveProposals",
      "outputs": [
        {
          "components": [
            {
              "internalType": "uint256",
              "name": "id",
              "type": "uint256"
            },
            {
              "internalType": "uint256",
              "name": "propertyId",
              "type": "uint256"
            },
            {
              "internalType": "address",
              "name": "proposer",
              "type": "address"
            },
            {
              "internalType": "enum Governance.ProposalType",
              "name": "proposalType",
              "type": "uint8"
            },
            {
              "internalType": "string",
              "name": "title",
              "type": "string"
            },
            {
              "internalType": "string",
              "name": "description",
              "type": "string"
            },
            {
              "internalType": "string",
              "name": "ipfsHash",
              "type": "string"
            },
            {
              "internalType": "uint256",
              "name": "votesFor",
              "type": "uint256"
            },
            {
              "internalType": "uint256",
              "name": "votesAgainst",
              "type": "uint256"
            },
            {
              "internalType": "uint256",
              "name": "votesAbstain",
              "type": "uint256"
            },
            {
              "internalType": "uint256",
              "name": "startTime",
              "type": "uint256"
            },
            {
              "internalType": "uint256",
              "name": "endTime",
              "type": "uint256"
            },
            {
              "internalType": "uint256",
              "name": "quorumRequired",
              "type": "uint256"
            },
            {
              "internalType": "enum Governance.ProposalStatus",
              "name": "status",
              "type": "uint8"
            },
            {
              "internalType": "bytes",
              "name": "executionData",
              "type": "bytes"
            }
          ],
          "internalType": "struct Governance.Proposal[]",
          "name": "",
          "type": "tuple[]"
        }
      ],
      "stateMutability": "view",
      "type": "function"
    },
    {
      "inputs": [
        {
          "internalType": "address",
          "name": "voter",
          "type": "address"
        }
      ],
      "name": "getNonce",
      "outputs": [
        {
          "internalType": "uint256",
          "name": "",
          "type": "uint256"
        }
      ],
      "stateMutability": "view",
      "type": "function"
    },
    {
      "inputs": [
        {
          "internalType": "uint256",
          "name": "proposalId",
          "type": "uint256"
        }
      ],
      "name": "getProposal",
      "outputs": [
        {
          "components": [
            {
              "internalType": "uint256",
              "name": "id",
              "type": "uint256"
            },
            {
              "internalType": "uint256",
              "name": "propertyId",
              "type": "uint256"
            },
            {
              "internalType": "address",
              "name": "proposer",
              "type": "address"
            },
            {
              "internalType": "enum Governance.ProposalType",
              "name": "proposalType",
              "type": "uint8"
            },
            {
              "internalType": "string",
              "name": "title",
              "type": "string"
            },
            {
              "internalType": "string",
              "name": "description",
              "type": "string"
            },
            {
              "internalType": "string",
              "name": "ipfsHash",
              "type": "string"
            },
            {
              "internalType": "uint256",
              "name": "votesFor",
              "type": "uint256"
            },
            {
              "internalType": "uint256",
              "name": "votesAgainst",
              "type": "uint256"
            },
            {
              "internalType": "uint256",
              "name": "votesAbstain",
              "type": "uint256"
            },
            {
              "internalType": "uint256",
              "name": "startTime",
              "type": "uint256"
            },
            {
              "internalType": "uint256",
              "name": "endTime",
              "type": "uint256"
            },
            {
              "internalType": "uint256",
              "name": "quorumRequired",
              "type": "uint256"
            },
            {
              "internalType": "enum Governance.ProposalStatus",
              "name": "status",
              "type": "uint8"
            },
            {
              "internalType": "bytes",
              "name": "executionData",
              "type": "bytes"
            }
          ],
          "internalType": "struct Governance.Proposal",
          "name": "",
          "type": "tuple"
        }
      ],
      "stateMutability": "view",
      "type": "function"
    },
    {
      "inputs": [
        {
          "internalType": "bytes32",
          "name": "role",
          "type": "bytes32"
        }
      ],
      "name": "getRoleAdmin",
      "outputs": [
        {
          "internalType": "bytes32",
          "name": "",
          "type": "bytes32"
        }
      ],
      "stateMutability": "view",
      "type": "function"
    },
    {
      "inputs": [
        {
          "internalType": "uint256",
          "name": "proposalId",
          "type": "uint256"
        },
        {
          "internalType": "address",
          "name": "voter",
          "type": "address"
        }
      ],
      "name": "getVote",
      "outputs": [
        {
          "components": [
            {
              "internalType": "bool",
              "name": "hasVoted",
              "type": "bool"
            },
            {
              "internalType": "uint8",
              "name": "support",
              "type": "uint8"
            },
            {
              "internalType": "uint256",
              "name": "weight",
              "type": "uint256"
            }
          ],
          "internalType": "struct Governance.Vote",
          "name": "",
          "type": "tuple"
        }
      ],
      "stateMutability": "view",
      "type": "function"
    },
    {
      "inputs": [
        {
          "internalType": "address",
          "name": "voter",
          "type": "address"
        }
      ],
      "name": "getVoteToEarnBonus",
      "outputs": [
        {
          "internalType": "uint256",
          "name": "",
          "type": "uint256"
        }
      ],
      "stateMutability": "view",
      "type": "function"
    },
    {
      "inputs": [
        {
          "internalType": "bytes32",
          "name": "role",
          "type": "bytes32"
        },
        {
          "internalType": "address",
          "name": "account",
          "type": "address"
        }
      ],
      "name": "grantRole",
      "outputs": [],
      "stateMutability": "nonpayable",
      "type": "function"
    },
    {
      "inputs": [
        {
          "internalType": "bytes32",
          "name": "role",
          "type": "bytes32"
        },
        {
          "internalType": "address",
          "name": "account",
          "type": "address"
        }
      ],
      "name": "hasRole",
      "outputs": [
        {
          "internalType": "bool",
          "name": "",
          "type": "bool"
        }
      ],
      "stateMutability": "view",
      "type": "function"
    },
    {
      "inputs": [
        {
          "internalType": "address",
          "name": "",
          "type": "address"
        }
      ],
      "name": "lastVoteTimestamp",
      "outputs": [
        {
          "internalType": "uint256",
          "name": "",
          "type": "uint256"
        }
      ],
      "stateMutability": "view",
      "type": "function"
    },
    {
      "inputs": [
        {
          "internalType": "address",
          "name": "",
          "type": "address"
        }
      ],
      "name": "nonces",
      "outputs": [
        {
          "internalType": "uint256",
          "name": "",
          "type": "uint256"
        }
      ],
      "stateMutability": "view",
      "type": "function"
    },
    {
      "inputs": [],
      "name": "propertyToken",
      "outputs": [
        {
          "internalType": "contract IPropertyToken",
          "name": "",
          "type": "address"
        }
      ],
      "stateMutability": "view",
      "type": "function"
    },
    {
      "inputs": [],
      "name": "proposalCount",
      "outputs": [
        {
          "internalType": "uint256",
          "name": "",
          "type": "uint256"
        }
      ],
      "stateMutability": "view",
      "type": "function"
    },
    {
      "inputs": [
        {
          "internalType": "uint256",
          "name": "",
          "type": "uint256"
        }
      ],
      "name": "proposals",
      "outputs": [
        {
          "internalType": "uint256",
          "name": "id",
          "type": "uint256"
        },
        {
          "internalType": "uint256",
          "name": "propertyId",
          "type": "uint256"
        },
        {
          "internalType": "address",
          "name": "proposer",
          "type": "address"
        },
        {
          "internalType": "enum Governance.ProposalType",
          "name": "proposalType",
          "type": "uint8"
        },
        {
          "internalType": "string",
          "name": "title",
          "type": "string"
        },
        {
          "internalType": "string",
          "name": "description",
          "type": "string"
        },
        {
          "internalType": "string",
          "name": "ipfsHash",
          "type": "string"
        },
        {
          "internalType": "uint256",
          "name": "votesFor",
          "type": "uint256"
        },
        {
          "internalType": "uint256",
          "name": "votesAgainst",
          "type": "uint256"
        },
        {
          "internalType": "uint256",
          "name": "votesAbstain",
          "type": "uint256"
        },
        {
          "internalType": "uint256",
          "name": "startTime",
          "type": "uint256"
        },
        {
          "internalType": "uint256",
          "name": "endTime",
          "type": "uint256"
        },
        {
          "internalType": "uint256",
          "name": "quorumRequired",
          "type": "uint256"
        },
        {
          "internalType": "enum Governance.ProposalStatus",
          "name": "status",
          "type": "uint8"
        },
        {
          "internalType": "bytes",
          "name": "executionData",
          "type": "bytes"
        }
      ],
      "stateMutability": "view",
      "type": "function"
    },
    {
      "inputs": [
        {
          "internalType": "bytes32",
          "name": "role",
          "type": "bytes32"
        },
        {
          "internalType": "address",
          "name": "callerConfirmation",
          "type": "address"
        }
      ],
      "name": "renounceRole",
      "outputs": [],
      "stateMutability": "nonpayable",
      "type": "function"
    },
    {
      "inputs": [
        {
          "internalType": "bytes32",
          "name": "role",
          "type": "bytes32"
        },
        {
          "internalType": "address",
          "name": "account",
          "type": "address"
        }
      ],
      "name": "revokeRole",
      "outputs": [],
      "stateMutability": "nonpayable",
      "type": "function"
    },
    {
      "inputs": [
        {
          "internalType": "uint256",
          "name": "newBonus",
          "type": "uint256"
        }
      ],
      "name": "setVoteToEarnBonus",
      "outputs": [],
      "stateMutability": "nonpayable",
      "type": "function"
    },
    {
      "inputs": [
        {
          "internalType": "uint256",
          "name": "newPeriod",
          "type": "uint256"
        }
      ],
      "name": "setVotingPeriod",
      "outputs": [],
      "stateMutability": "nonpayable",
      "type": "function"
    },
    {
      "inputs": [
        {
          "internalType": "bytes4",
          "name": "interfaceId",
          "type": "bytes4"
        }
      ],
      "name": "supportsInterface",
      "outputs": [
        {
          "internalType": "bool",
          "name": "",
          "type": "bool"
        }
      ],
      "stateMutability": "view",
      "type": "function"
    },
    {
      "inputs": [
        {
          "internalType": "uint256",
          "name": "",
          "type": "uint256"
        }
      ],
      "name": "totalVotingPower",
      "outputs": [
        {
          "internalType": "uint256",
          "name": "",
          "type": "uint256"
        }
      ],
      "stateMutability": "view",
      "type": "function"
    },
    {
      "inputs": [],
      "name": "voteToEarnBonus",
      "outputs": [
        {
          "internalType": "uint256",
          "name": "",
          "type": "uint256"
        }
      ],
      "stateMutability": "view",
      "type": "function"
    },
    {
      "inputs": [
        {
          "internalType": "address",
          "name": "",
          "type": "address"
        }
      ],
      "name": "voterParticipationCount",
      "outputs": [
        {
          "internalType": "uint256",
          "name": "",
          "type": "uint256"
        }
      ],
      "stateMutability": "view",
      "type": "function"
    },
    {
      "inputs": [
        {
          "internalType": "uint256",
          "name": "",
          "type": "uint256"
        },
        {
          "internalType": "address",
          "name": "",
          "type": "address"
        }
      ],
      "name": "votes",
      "outputs": [
        {
          "internalType": "bool",
          "name": "hasVoted",
          "type": "bool"
        },
        {
          "internalType": "uint8",
          "name": "support",
          "type": "uint8"
        },
        {
          "internalType": "uint256",
          "name": "weight",
          "type": "uint256"
        }
      ],
      "stateMutability": "view",
      "type": "function"
    },
    {
      "inputs": [],
      "name": "votingPeriod",
      "outputs": [
        {
          "internalType": "uint256",
          "name": "",
          "type": "uint256"
        }
      ],
      "stateMutability": "view",
      "type": "function"
    }
  ],
  "bytecode": "0x60a03462000199576001600160401b0390601f62002c6738819003918201601f1916830192919084841183851017620001835781602092849260409687528339810103126200019957516001600160a01b0381169081900362000199576001805562093a806004556032600555600280546001600160a01b0319169190911790556200008b33620001ba565b5062000097336200023a565b50620000a333620002dc565b50620000af3362000379565b50601460208251620000c1816200019e565b828152017f52657669746148756220476f7665726e616e636500000000000000000000000081522090600160208251620000fb816200019e565b82815201603160f81b8152209080519160208301937f8b73c3c69bb8fe3d512ecc4cf759cc79239f7b179b0ffacaa9a75d522b39400f85528284015260608301524660808301523060a083015260a0825260c0820193828510908511176200018357839052519020608052612830908162000417823960805181818161161101526118480152f35b634e487b7160e01b600052604160045260246000fd5b600080fd5b604081019081106001600160401b038211176200018357604052565b6001600160a01b031660008181527fad3228b676f7d3cd4284a5443f17f1962b36e491b30a40b2405849e597ba5fb5602052604081205490919060ff166200023657818052816020526040822081835260205260408220600160ff19825416179055339160008051602062002c478339815191528180a4600190565b5090565b6001600160a01b031660008181527f3412d5605ac6cd444957cedb533e5dacad6378b4bc819ebe3652188a665066d560205260408120549091907fb09aa5aeb3702cfd50b6b62bc4532604938f21248a27a1d5ca736082b6819cc19060ff16620002d757808352826020526040832082845260205260408320600160ff1982541617905560008051602062002c47833981519152339380a4600190565b505090565b6001600160a01b031660008181527fdae2aa361dfd1ca020a396615627d436107c35eff9fe7738a3512819782d706960205260408120549091907fd8aa0f3194971a2a116679f7c2090f6939c8d4e01a2a8d7e41d55e5351469e639060ff16620002d757808352826020526040832082845260205260408320600160ff1982541617905560008051602062002c47833981519152339380a4600190565b6001600160a01b031660008181527ffaf93c3d007e112089dc8351e013e6685ef67703975d0224b26fc45941d4f1f560205260408120549091907fe2b7fb3b832174769106daebcfd6d1970523240dda11281102db9363b83b0dc49060ff16620002d757808352826020526040832082845260205260408320600160ff1982541617905560008051602062002c47833981519152339380a460019056fe6080604052600436101561001257600080fd5b60003560e01c8063013cf08b14611cb357806301ffc9a714611c5d57806302a251a314611c3f57806307bd026514611c045780630d61b51914611af4578063248a9ca314611ac5578063248bd47114611aa85780632d0335ab14610f965780632dcf0d73146116735780632f2ff15d146116345780633644e515146115f957806336568abe146115b257806342a7c6141461159557806343ae26951461156c578063536f9f42146115405780635394c879146115235780635652077c146113d557806356781388146111c95780635c7b264d1461118f5780636213e5ea14610fd05780637ecebe0014610f965780638652297314610f5b578063872d154414610ecf5780638f61f4f514610e9457806391d1485414610e47578063926d7d7f14610e0c5780639b699e5714610619578063a217fddf146105fd578063b277d02a146105e0578063bc3f931f14610542578063c7f758a8146104f5578063d23254b414610492578063d547741f14610451578063da35c66414610433578063dd9deb1b14610415578063de1cf4ad146103db578063e0a8f6f51461029b578063ea0217cf146101f95763ecc52c04146101c957600080fd5b346101f45760203660031901126101f45760206101ec6101e7611fba565b6124ea565b604051908152f35b600080fd5b346101f45760203660031901126101f45760043561021561251e565b620151808110158061028e575b15610258576020817f651c77f42613a075437aa794c44471e3abc3a661956a67aaee165bb7396974aa92600455604051908152a1005b60405162461bcd60e51b815260206004820152600e60248201526d125b9d985b1a59081c195c9a5bd960921b6044820152606490fd5b5062278d00811115610222565b346101f4576020806003193601126101f457600435908160005260068152604060002060018060a01b03600282015416331480156103b9575b1561038357600c019081549060ff8216600681101561036d5760018114908115610364575b5015610330575060ff191660051790557f416e669c63d9a3a5e36ee7cc7e2104b8db28ccd286aa18966e98fa230c73b08c600080a2005b6064906040519062461bcd60e51b82526004820152600d60248201526c10d85b9b9bdd0818d85b98d95b609a1b6044820152fd5b905015856102f9565b634e487b7160e01b600052602160045260246000fd5b60405162461bcd60e51b815260048101839052600e60248201526d139bdd08185d5d1a1bdc9a5e995960921b6044820152606490fd5b506000805260008252604060002033600052825260ff604060002054166102d4565b346101f45760203660031901126101f4576001600160a01b036103fc611fba565b16600052600b6020526020604060002054604051908152f35b346101f45760003660031901126101f4576020600554604051908152f35b346101f45760003660031901126101f4576020600754604051908152f35b346101f45760403660031901126101f457610490600435610470611fd0565b9080600052600060205261048b600160406000200154612558565b61261f565b005b346101f45760403660031901126101f4576104ab611fd0565b600435600052600860205260406000209060018060a01b0316600052602052606060406000206001815491015460ff604051928181161515845260081c1660208301526040820152f35b346101f45760203660031901126101f45761050e6122e9565b50600435600052600660205261053e61052a6040600020612381565b604051918291602083526020830190611ff6565b0390f35b346101f45760403660031901126101f45761055b611fd0565b60006040805161056a81611f27565b8281528260208201520152600435600052600860205260406000209060018060a01b0316600052602052606060406000206040516105a781611f27565b60ff82546040600183831615159586865284602087019460081c1684520154930192835260405193845251166020830152516040820152f35b346101f45760003660031901126101f45760206040516107d08152f35b346101f45760003660031901126101f457602060405160008152f35b346101f45760c03660031901126101f457600460243510156101f4576044356001600160401b0381116101f457610654903690600401612123565b6064356001600160401b0381116101f457610673903690600401612123565b906084356001600160401b0381116101f457610693903690600401612123565b9060a4356001600160401b0381116101f457366023820112156101f4576106c49036906024816004013591016120dd565b3360009081527f3412d5605ac6cd444957cedb533e5dacad6378b4bc819ebe3652188a665066d560205260409020547fb09aa5aeb3702cfd50b6b62bc4532604938f21248a27a1d5ca736082b6819cc19060ff1615610dee5750600254604051636ded6a1960e11b815260048035908201523360248201526001600160a01b0390911690602081604481855afa908115610d6b57600091610dbc575b5015610d77576007549361077385612278565b600755602460206107848235612694565b9360405192838092638cdc1e8760e01b825260043560048301525afa908115610d6b57600091610d39575b508015610ce3578560005260096020526040600020556107d1600454426122c5565b90604051966107df88611f0b565b86885260043560208901523360408901526107fb602435611f63565b602435606089015285608089015260a088015260c0870152600060e0870152600061010087015260006101208701524261014087015261016086015261018085015260016101a08501526101c0840152816000526006602052604060002083518155602084015160018201556002810160018060a01b03604086015116815490606087015161088981611f63565b61089281611f63565b6001600160a81b03199092161760a09190911b60ff60a01b1617905560808401518051906001600160401b038211610b77576108de826108d56003860154611e3b565b60038601612494565b602090601f8311600114610c715761090f929160009183610b06575b50508160011b916000199060031b1c19161790565b60038201555b60a08401518051906001600160401b038211610b77576109458261093c6004860154611e3b565b60048601612494565b602090601f8311600114610bff57610975929160009183610b065750508160011b916000199060031b1c19161790565b60048201555b60c08401518051906001600160401b038211610b77576109ab826109a26005860154611e3b565b60058601612494565b602090601f8311600114610b8d576109db929160009183610b065750508160011b916000199060031b1c19161790565b60058201555b60e08401516006820155610100840151600782015561012084015160088201556101408401516009820155610160840151600a820155610180840151600b820155600c8101906101a085015190600682101561036d576101c092600d9260ff80198354169116179055019301519283516001600160401b038111610b7757602094610a7682610a708554611e3b565b85612494565b8590601f8311600114610b1157610aa5929160009183610b065750508160011b916000199060031b1c19161790565b90555b817fb1d569dc5621a0a51229b7ac0eff81f3e6df70a3f72fe608aa58f74bb69d7bb6604051338152610adb602435611f63565b602435868201526060604082015280610afb600435956060830190611f6d565b0390a3604051908152f35b0151905087806108fa565b90601f1983169184600052876000209260005b818110610b605750908460019594939210610b47575b505050811b019055610aa8565b015160001960f88460031b161c19169055868080610b3a565b929389600181928786015181550195019301610b24565b634e487b7160e01b600052604160045260246000fd5b9190600584016000526020600020906000935b601f1984168510610be4576001945083601f19811610610bcb575b505050811b0160058201556109e1565b015160001960f88460031b161c19169055868080610bbb565b81810151835560209485019460019093019290910190610ba0565b9190600484016000526020600020906000935b601f1984168510610c56576001945083601f19811610610c3d575b505050811b01600482015561097b565b015160001960f88460031b161c19169055868080610c2d565b81810151835560209485019460019093019290910190610c12565b9190600384016000526020600020906000935b601f1984168510610cc8576001945083601f19811610610caf575b505050811b016003820155610915565b015160001960f88460031b161c19169055868080610c9f565b81810151835560209485019460019093019290910190610c84565b60405162461bcd60e51b815260206004820152602860248201527f4e6f20766f74696e6720706f7765722065786973747320666f7220746869732060448201526770726f706572747960c01b6064820152608490fd5b90506020813d602011610d63575b81610d5460209383611f42565b810103126101f45751876107af565b3d9150610d47565b6040513d6000823e3d90fd5b60405162461bcd60e51b815260206004820152601b60248201527f4d75737420686f6c6420746f6b656e7320746f2070726f706f736500000000006044820152606490fd5b90506020813d602011610de6575b81610dd760209383611f42565b810103126101f4575186610760565b3d9150610dca565b6044906040519063e2517d3f60e01b82523360048301526024820152fd5b346101f45760003660031901126101f45760206040517fe2b7fb3b832174769106daebcfd6d1970523240dda11281102db9363b83b0dc48152f35b346101f45760403660031901126101f457610e60611fd0565b600435600052600060205260406000209060018060a01b0316600052602052602060ff604060002054166040519015158152f35b346101f45760003660031901126101f45760206040517fb09aa5aeb3702cfd50b6b62bc4532604938f21248a27a1d5ca736082b6819cc18152f35b346101f45760203660031901126101f457600435610eeb61251e565b6101f48111610f25576020817f4ade7322d9a0c41dc254574f72d3d442f06addcc77917dcb9cb1ac4441d1b20f92600555604051908152a1005b60405162461bcd60e51b815260206004820152600e60248201526d084dedceae640e8dede40d0d2ced60931b6044820152606490fd5b346101f45760003660031901126101f45760206040517fa122aedc7c2408a97bcfe5d8ff1f6a6d7bf779a8b6dd3d72ff503e8fcf9d2eb98152f35b346101f45760203660031901126101f4576001600160a01b03610fb7611fba565b1660005260036020526020604060002054604051908152f35b346101f4576020806003193601126101f4576004356000906000600754905b8181106111305750611019611003846122d2565b936110116040519586611f42565b8085526122d2565b601f19018460005b82811061111a575050506000805b82811061109457604080518781528651818901819052600092600582901b8301810191898b01918b9085015b8287106110685785850386f35b909192938280611084600193603f198a82030186528851611ff6565b960192019601959291909261105b565b8060005260069081875260406000209160019286848201541490816110fe575b50600193506110c5575b500161102f565b8160005287526110f76040600020936110e66110e082612278565b95612381565b6110f0828a612357565b5287612357565b50876110be565b60ff9150600c015416928184101561036d5760019314896110b4565b6111226122e9565b828288010152018590611021565b8060005260068086526040600020906001908582840154149283611173575b50505061115f575b600101610fef565b9261116b600191612278565b939050611157565b60ff91929350600c0154169081101561036d571486808061114f565b346101f45760203660031901126101f4576001600160a01b036111b0611fba565b16600052600a6020526020604060002054604051908152f35b346101f45760403660031901126101f4576004356111e5611fe6565b6111ed61257e565b816000526020916006835260406000209160ff600c8401541693600685101561036d5761121d600180961461213e565b61122d6009850154421015612180565b61123c600a85015442106121c1565b60ff82169361124e60028611156121fc565b836000526008825260406000203360005282526112b7604060002080549461127960ff87161561223c565b60025489850154604051636ded6a1960e11b8152600481019190915233602482015293869185916001600160a01b0390911690829081906044820190565b03915afa958615610d6b57899360009761139c575b5083929187946112ff926112e1871515612287565b61ff001990911661ffff199091161760089190911b61ff0016178255565b015584611372576007016113148382546122c5565b90555b33600052600a8152604060002061132e8154612278565b905533600052600b8152426040600020556040519384528301527fb83d25c6a5d258561330739951487acb4bd09ba5190b5d32c4f261817d90679260403393a38055005b84860361138e576006016113878382546122c5565b9055611317565b6008016113878382546122c5565b96509250908486813d81116113ce575b6113b68183611f42565b810103126101f45794519488929091906112ff6112cc565b503d6113ac565b346101f45760203660031901126101f457600435806000526006602052604060002090600c82019182549160ff8316600681101561036d576001611419911461213e565b600a82015442106114eb5760068201549160078101549161144861143d84866122c5565b6008840154906122c5565b600091825260096020526040909120548015806114de57612710928381029381850414901517156114c8576114b257600b9104915b0154111591826114a8575b50501561149d5750805460ff19166002179055005b60ff19166003179055005b1190508380611488565b634e487b7160e01b600052601260045260246000fd5b634e487b7160e01b600052601160045260246000fd5b505050600b60009161147d565b60405162461bcd60e51b815260206004820152601060248201526f159bdd1a5b99c81b9bdd08195b99195960821b6044820152606490fd5b346101f45760003660031901126101f45760206040516113888152f35b346101f45760203660031901126101f45760043560005260096020526020604060002054604051908152f35b346101f45760003660031901126101f4576002546040516001600160a01b039091168152602090f35b346101f45760003660031901126101f4576020604051610bb88152f35b346101f45760403660031901126101f4576115cb611fd0565b336001600160a01b038216036115e7576104909060043561261f565b60405163334bd91960e11b8152600490fd5b346101f45760003660031901126101f45760206040517f00000000000000000000000000000000000000000000000000000000000000008152f35b346101f45760403660031901126101f457610490600435611653611fd0565b9080600052600060205261166e600160406000200154612558565b6125a1565b346101f45760e03660031901126101f45760043561168f611fe6565b604435916001600160a01b03808416928385036101f45760843560ff811681036101f4573360009081527ffaf93c3d007e112089dc8351e013e6685ef67703975d0224b26fc45941d4f1f560209081526040909120549091907fe2b7fb3b832174769106daebcfd6d1970523240dda11281102db9363b83b0dc49060ff1615610dee575061171b61257e565b6064354211611a6f57846000526006825260406000209060ff600c8301541697600689101561036d576117516001809a1461213e565b6117616009840154421015612180565b611770600a84015442106121c1565b60ff85169561178260028811156121fc565b876000526008855260406000208960005285526040600020926117a960ff8554161561223c565b896000526003865260406000208054906117c282612278565b905560405191878301917fa122aedc7c2408a97bcfe5d8ff1f6a6d7bf779a8b6dd3d72ff503e8fcf9d2eb983528b60408501528a60608501528c608085015260a084015260643560c084015260c0835260e08301916001600160401b039084841082851117610b77576101609084604052855190209461010081019561190160f01b87527f000000000000000000000000000000000000000000000000000000000000000061010283015261012282015260428552019083821090821117610b77578c9385936118ac936118a39360405260c4359260a435925190206126df565b9092919261276f565b1603611a36576002548a850154604051636ded6a1960e11b815260048101919091526001600160a01b03939093166024840152919291859184916044918391165afa948515610d6b5789926000966119d6575b50947fb7a759f14619c0391b65e3f8ceb8fd342a3e24929e81d83493445a4a1c87d0fc969492819492611958606098611939851515612287565b825461ff0019851661ffff199091161760089190911b61ff0016178255565b0155836119ac5760070161196d8382546122c5565b90555b86600052600a815260406000206119878154612278565b905586600052600b815242604060002055604051928352820152336040820152a38055005b8389036119c8576006016119c18382546122c5565b9055611970565b6008016119c18382546122c5565b809650858094509197959492943d8311611a2f575b6119f58183611f42565b810103126101f4579351929492939092909188917fb7a759f14619c0391b65e3f8ceb8fd342a3e24929e81d83493445a4a1c87d0fc6118ff565b503d6119eb565b60405162461bcd60e51b8152600481018690526011602482015270496e76616c6964207369676e617475726560781b6044820152606490fd5b60405162461bcd60e51b815260048101839052601160248201527014da59db985d1d5c9948195e1c1a5c9959607a1b6044820152606490fd5b346101f45760003660031901126101f45760206040516109c48152f35b346101f45760203660031901126101f45760043560005260006020526020600160406000200154604051908152f35b346101f45760203660031901126101f4573360009081527fdae2aa361dfd1ca020a396615627d436107c35eff9fe7738a3512819782d70696020526040902054600435907fd8aa0f3194971a2a116679f7c2090f6939c8d4e01a2a8d7e41d55e5351469e639060ff1615610dee5750611b6b61257e565b806000526006602052600c604060002001805460ff8116600681101561036d57600203611bc65760ff191660041790557f712ae1383f79ac853f8d882153778e0260ef8f03b504e2866e0593e04d2b291f600080a260018055005b60405162461bcd60e51b8152602060048201526016602482015275141c9bdc1bdcd85b081b9bdd081cdd58d8d95959195960521b6044820152606490fd5b346101f45760003660031901126101f45760206040517fd8aa0f3194971a2a116679f7c2090f6939c8d4e01a2a8d7e41d55e5351469e638152f35b346101f45760003660031901126101f4576020600454604051908152f35b346101f45760203660031901126101f45760043563ffffffff60e01b81168091036101f457602090637965db0b60e01b8114908115611ca2575b506040519015158152f35b6301ffc9a760e01b14905082611c97565b346101f45760203660031901126101f457600435600052600660205260406000208054906001810154906002810154926080806003840190611cf491611e75565b03608090611d0191611f42565b6040519081611d138160048601611e75565b03611d1e9083611f42565b6040519182611d308160058701611e75565b03611d3b9084611f42565b60068401549260078501546008860154600987015491600a88015493600b89015495600c8a015460ff169760405180600d819d0190611d7991611e75565b03611d84908c611f42565b6040519c8d9c8d6101e0938152602001528c600160a01b60019003821690604001528060a01c60ff16611db690611f63565b60a01c60ff1660608d01528060808d01528b01608090611dd591611f6d565b8b810360a08d0152611de691611f6d565b8a810360c08c0152611df791611f6d565b9660e08a01526101008901526101208801526101408701526101608601526101808501526101a08401611e2991611fad565b8281036101c084015261053e91611f6d565b90600182811c92168015611e6b575b6020831014611e5557565b634e487b7160e01b600052602260045260246000fd5b91607f1691611e4a565b805460009392611e8482611e3b565b91828252602093600191600181169081600014611eec5750600114611eab575b5050505050565b90939495506000929192528360002092846000945b838610611ed857505050500101903880808080611ea4565b805485870183015294019385908201611ec0565b60ff19168685015250505090151560051b010191503880808080611ea4565b6101e081019081106001600160401b03821117610b7757604052565b606081019081106001600160401b03821117610b7757604052565b90601f801991011681019081106001600160401b03821117610b7757604052565b6004111561036d57565b919082519283825260005b848110611f99575050826000602080949584010152601f8019910116010190565b602081830181015184830182015201611f78565b90600682101561036d5752565b600435906001600160a01b03821682036101f457565b602435906001600160a01b03821682036101f457565b6024359060ff821682036101f457565b906120da9161207261206061204e6101e0845186526020850151602087015260018060a01b036040860151166040870152606085015161203581611f63565b6060870152608085015190806080880152860190611f6d565b60a084015185820360a0870152611f6d565b60c083015184820360c0860152611f6d565b9160e082015160e0820152610100808301519082015261012080830151908201526101408083015190820152610160808301519082015261018080830151908201526120c76101a08084015190830190611fad565b6101c08092015191818403910152611f6d565b90565b9291926001600160401b038211610b775760405191612106601f8201601f191660200184611f42565b8294818452818301116101f4578281602093846000960137010152565b9080601f830112156101f4578160206120da933591016120dd565b1561214557565b60405162461bcd60e51b815260206004820152601360248201527250726f706f73616c206e6f742061637469766560681b6044820152606490fd5b1561218757565b60405162461bcd60e51b8152602060048201526012602482015271159bdd1a5b99c81b9bdd081cdd185c9d195960721b6044820152606490fd5b156121c857565b60405162461bcd60e51b815260206004820152600c60248201526b159bdd1a5b99c8195b99195960a21b6044820152606490fd5b1561220357565b60405162461bcd60e51b8152602060048201526011602482015270496e76616c696420766f7465207479706560781b6044820152606490fd5b1561224357565b60405162461bcd60e51b815260206004820152600d60248201526c105b1c9958591e481d9bdd1959609a1b6044820152606490fd5b60001981146114c85760010190565b1561228e57565b60405162461bcd60e51b815260206004820152600f60248201526e2737903b37ba34b733903837bbb2b960891b6044820152606490fd5b919082018092116114c857565b6001600160401b038111610b775760051b60200190565b604051906122f682611f0b565b60606101c083600080825280602083015280604083015280848301528360808301528360a08301528360c08301528060e083015280610100830152806101208301528061014083015280610160830152806101808301526101a08201520152565b805182101561236b5760209160051b010190565b634e487b7160e01b600052603260045260246000fd5b9060409182519261239184611f0b565b815484526001820154602085015260028201546001600160a01b03811682860152849060a01c60ff166123c381611f63565b606082015281516123e2816123db8160038801611e75565b0382611f42565b608082015281516123fa816123db8160048801611e75565b60a08201528151612412816123db8160058801611e75565b60c0820152600683015460e0820152600783015461010082015260088301546101208201526009830154610140820152600a830154610160820152600b83015461018082015260ff600c8401541691600683101561036d57600d93612489612490926101c0956101a0860152518096819301611e75565b0384611f42565b0152565b90601f81116124a257505050565b6000916000526020600020906020601f850160051c830194106124e0575b601f0160051c01915b8281106124d557505050565b8181556001016124c9565b90925082906124c0565b60018060a01b0316600052600b60205260406000205442034281116114c85762278d00101561251857600090565b60055490565b3360009081527fad3228b676f7d3cd4284a5443f17f1962b36e491b30a40b2405849e597ba5fb5602052604081205460ff1615610dee5750565b80600052600060205260406000203360005260205260ff6040600020541615610dee5750565b60026001541461258f576002600155565b604051633ee5aeb560e01b8152600490fd5b9060009180835282602052604083209160018060a01b03169182845260205260ff6040842054161560001461261a57808352826020526040832082845260205260408320600160ff198254161790557f2f8788117e7eff1d82e926ec794901d17c78024a50270940304540a733656f0d339380a4600190565b505090565b9060009180835282602052604083209160018060a01b03169182845260205260ff60408420541660001461261a5780835282602052604083208284526020526040832060ff1981541690557ff6391f5c32d9c69d2a47ea670b442974b53935d1edc7fd64eb21e047a839171b339380a4600190565b61269d81611f63565b80156126d8576126ac81611f63565b600181146126d157806126c0600292611f63565b146126cb5761138890565b6109c490565b50610bb890565b506107d090565b91907f7fffffffffffffffffffffffffffffff5d576e7357a4501ddfe92f46681b20a0841161276357926020929160ff608095604051948552168484015260408301526060820152600092839182805260015afa156127575780516001600160a01b0381161561274e57918190565b50809160019190565b604051903d90823e3d90fd5b50505060009160039190565b61277881611f63565b80612781575050565b61278a81611f63565b600181036127a45760405163f645eedf60e01b8152600490fd5b6127ad81611f63565b600281036127ce5760405163fce698f760e01b815260048101839052602490fd5b806127da600392611f63565b146127e25750565b602490604051906335e2f38360e21b82526004820152fdfea264697066735822122029a3fb5d8c5fe781188096dab517bb9a5a9fccba8c49ed75c7026bda840c4c0964736f6c634300081800332f8788117e7eff1d82e926ec794901d17c78024a50270940304540a733656f0d",
  "linkReferences": {},
  "deployedLinkReferences": {}
}