{
  "_format": "hh-sol-artifact-1",
  "contractName": "Governance",
  "sourceName": "contracts/Governance.sol",
  "abi": [
    {
      "inputs": [
        {
          "internalType": "address",
          "name": "_propertyToken",
          "type": "address"
        }
      ],
      "stateMutability": "nonpayable",
      "type": "constructor"
    },
    {
      "inputs": [],
      "name": "AccessControlBadConfirmation",
      "type": "error"
    },
    {
      "inputs": [
        {
          "internalType": "address",
          "name": "account",
          "type": "address"
        },
        {
          "internalType": "bytes32",
          "name": "neededRole",
          "type": "bytes32"
        }
      ],
      "name": "AccessControlUnauthorizedAccount",
      "type": "error"
    },
    {
      "inputs": [],
      "name": "ReentrancyGuardReentrantCall",
      "type": "error"
    },
    {
      "anonymous": false,
      "inputs": [
        {
          "indexed": true,
          "internalType": "uint256",
          "name": "proposalId",
          "type": "uint256"
        }
      ],
      "name": "ProposalCancelled",
      "type": "event"
    },
    {
      "anonymous": false,
      "inputs": [
        {
          "indexed": true,
          "internalType": "uint256",
          "name": "proposalId",
          "type": "uint256"
        },
        {
          "indexed": true,
          "internalType": "uint256",
          "name": "propertyId",
          "type": "uint256"
        },
        {
          "indexed": false,
          "internalType": "address",
          "name": "proposer",
          "type": "address"
        },
        {
          "indexed": false,
          "internalType": "enum Governance.ProposalType",
          "name": "proposalType",
          "type": "uint8"
        },
        {
          "indexed": false,
          "internalType": "string",
          "name": "title",
          "type": "string"
        }
      ],
      "name": "ProposalCreated",
      "type": "event"
    },
    {
      "anonymous": false,
      "inputs": [
        {
          "indexed": true,
          "internalType": "uint256",
          "name": "proposalId",
          "type": "uint256"
        }
      ],
      "name": "ProposalExecuted",
      "type": "event"
    },
    {
      "anonymous": false,
      "inputs": [
        {
          "indexed": true,
          "internalType": "bytes32",
          "name": "role",
          "type": "bytes32"
        },
        {
          "indexed": true,
          "internalType": "bytes32",
          "name": "previousAdminRole",
          "type": "bytes32"
        },
        {
          "indexed": true,
          "internalType": "bytes32",
          "name": "newAdminRole",
          "type": "bytes32"
        }
      ],
      "name": "RoleAdminChanged",
      "type": "event"
    },
    {
      "anonymous": false,
      "inputs": [
        {
          "indexed": true,
          "internalType": "bytes32",
          "name": "role",
          "type": "bytes32"
        },
        {
          "indexed": true,
          "internalType": "address",
          "name": "account",
          "type": "address"
        },
        {
          "indexed": true,
          "internalType": "address",
          "name": "sender",
          "type": "address"
        }
      ],
      "name": "RoleGranted",
      "type": "event"
    },
    {
      "anonymous": false,
      "inputs": [
        {
          "indexed": true,
          "internalType": "bytes32",
          "name": "role",
          "type": "bytes32"
        },
        {
          "indexed": true,
          "internalType": "address",
          "name": "account",
          "type": "address"
        },
        {
          "indexed": true,
          "internalType": "address",
          "name": "sender",
          "type": "address"
        }
      ],
      "name": "RoleRevoked",
      "type": "event"
    },
    {
      "anonymous": false,
      "inputs": [
        {
          "indexed": true,
          "internalType": "uint256",
          "name": "proposalId",
          "type": "uint256"
        },
        {
          "indexed": true,
          "internalType": "address",
          "name": "voter",
          "type": "address"
        },
        {
          "indexed": false,
          "internalType": "uint8",
          "name": "support",
          "type": "uint8"
        },
        {
          "indexed": false,
          "internalType": "uint256",
          "name": "weight",
          "type": "uint256"
        }
      ],
      "name": "VoteCast",
      "type": "event"
    },
    {
      "anonymous": false,
      "inputs": [
        {
          "indexed": false,
          "internalType": "uint256",
          "name": "newBonus",
          "type": "uint256"
        }
      ],
      "name": "VoteToEarnBonusUpdated",
      "type": "event"
    },
    {
      "anonymous": false,
      "inputs": [
        {
          "indexed": false,
          "internalType": "uint256",
          "name": "newPeriod",
          "type": "uint256"
        }
      ],
      "name": "VotingPeriodUpdated",
      "type": "event"
    },
    {
      "inputs": [],
      "name": "DEFAULT_ADMIN_ROLE",
      "outputs": [
        {
          "internalType": "bytes32",
          "name": "",
          "type": "bytes32"
        }
      ],
      "stateMutability": "view",
      "type": "function"
    },
    {
      "inputs": [],
      "name": "EXECUTOR_ROLE",
      "outputs": [
        {
          "internalType": "bytes32",
          "name": "",
          "type": "bytes32"
        }
      ],
      "stateMutability": "view",
      "type": "function"
    },
    {
      "inputs": [],
      "name": "PROPOSER_ROLE",
      "outputs": [
        {
          "internalType": "bytes32",
          "name": "",
          "type": "bytes32"
        }
      ],
      "stateMutability": "view",
      "type": "function"
    },
    {
      "inputs": [],
      "name": "QUORUM_EMERGENCY",
      "outputs": [
        {
          "internalType": "uint256",
          "name": "",
          "type": "uint256"
        }
      ],
      "stateMutability": "view",
      "type": "function"
    },
    {
      "inputs": [],
      "name": "QUORUM_PARAMETER",
      "outputs": [
        {
          "internalType": "uint256",
          "name": "",
          "type": "uint256"
        }
      ],
      "stateMutability": "view",
      "type": "function"
    },
    {
      "inputs": [],
      "name": "QUORUM_PROPERTY",
      "outputs": [
        {
          "internalType": "uint256",
          "name": "",
          "type": "uint256"
        }
      ],
      "stateMutability": "view",
      "type": "function"
    },
    {
      "inputs": [],
      "name": "QUORUM_TREASURY",
      "outputs": [
        {
          "internalType": "uint256",
          "name": "",
          "type": "uint256"
        }
      ],
      "stateMutability": "view",
      "type": "function"
    },
    {
      "inputs": [
        {
          "internalType": "uint256",
          "name": "proposalId",
          "type": "uint256"
        }
      ],
      "name": "cancelProposal",
      "outputs": [],
      "stateMutability": "nonpayable",
      "type": "function"
    },
    {
      "inputs": [
        {
          "internalType": "uint256",
          "name": "proposalId",
          "type": "uint256"
        },
        {
          "internalType": "uint8",
          "name": "support",
          "type": "uint8"
        }
      ],
      "name": "castVote",
      "outputs": [],
      "stateMutability": "nonpayable",
      "type": "function"
    },
    {
      "inputs": [
        {
          "internalType": "uint256",
          "name": "propertyId",
          "type": "uint256"
        },
        {
          "internalType": "enum Governance.ProposalType",
          "name": "proposalType",
          "type": "uint8"
        },
        {
          "internalType": "string",
          "name": "title",
          "type": "string"
        },
        {
          "internalType": "string",
          "name": "description",
          "type": "string"
        },
        {
          "internalType": "string",
          "name": "ipfsHash",
          "type": "string"
        },
        {
          "internalType": "bytes",
          "name": "executionData",
          "type": "bytes"
        }
      ],
      "name": "createProposal",
      "outputs": [
        {
          "internalType": "uint256",
          "name": "",
          "type": "uint256"
        }
      ],
      "stateMutability": "nonpayable",
      "type": "function"
    },
    {
      "inputs": [
        {
          "internalType": "uint256",
          "name": "proposalId",
          "type": "uint256"
        }
      ],
      "name": "executeProposal",
      "outputs": [],
      "stateMutability": "nonpayable",
      "type": "function"
    },
    {
      "inputs": [
        {
          "internalType": "uint256",
          "name": "proposalId",
          "type": "uint256"
        }
      ],
      "name": "finalizeProposal",
      "outputs": [],
      "stateMutability": "nonpayable",
      "type": "function"
    },
    {
      "inputs": [
        {
          "internalType": "uint256",
          "name": "proposalId",
          "type": "uint256"
        }
      ],
      "name": "getProposal",
      "outputs": [
        {
          "components": [
            {
              "internalType": "uint256",
              "name": "id",
              "type": "uint256"
            },
            {
              "internalType": "uint256",
              "name": "propertyId",
              "type": "uint256"
            },
            {
              "internalType": "address",
              "name": "proposer",
              "type": "address"
            },
            {
              "internalType": "enum Governance.ProposalType",
              "name": "proposalType",
              "type": "uint8"
            },
            {
              "internalType": "string",
              "name": "title",
              "type": "string"
            },
            {
              "internalType": "string",
              "name": "description",
              "type": "string"
            },
            {
              "internalType": "string",
              "name": "ipfsHash",
              "type": "string"
            },
            {
              "internalType": "uint256",
              "name": "votesFor",
              "type": "uint256"
            },
            {
              "internalType": "uint256",
              "name": "votesAgainst",
              "type": "uint256"
            },
            {
              "internalType": "uint256",
              "name": "votesAbstain",
              "type": "uint256"
            },
            {
              "internalType": "uint256",
              "name": "startTime",
              "type": "uint256"
            },
            {
              "internalType": "uint256",
              "name": "endTime",
              "type": "uint256"
            },
            {
              "internalType": "uint256",
              "name": "quorumRequired",
              "type": "uint256"
            },
            {
              "internalType": "enum Governance.ProposalStatus",
              "name": "status",
              "type": "uint8"
            },
            {
              "internalType": "bytes",
              "name": "executionData",
              "type": "bytes"
            }
          ],
          "internalType": "struct Governance.Proposal",
          "name": "",
          "type": "tuple"
        }
      ],
      "stateMutability": "view",
      "type": "function"
    },
    {
      "inputs": [
        {
          "internalType": "bytes32",
          "name": "role",
          "type": "bytes32"
        }
      ],
      "name": "getRoleAdmin",
      "outputs": [
        {
          "internalType": "bytes32",
          "name": "",
          "type": "bytes32"
        }
      ],
      "stateMutability": "view",
      "type": "function"
    },
    {
      "inputs": [
        {
          "internalType": "uint256",
          "name": "proposalId",
          "type": "uint256"
        },
        {
          "internalType": "address",
          "name": "voter",
          "type": "address"
        }
      ],
      "name": "getVote",
      "outputs": [
        {
          "components": [
            {
              "internalType": "bool",
              "name": "hasVoted",
              "type": "bool"
            },
            {
              "internalType": "uint8",
              "name": "support",
              "type": "uint8"
            },
            {
              "internalType": "uint256",
              "name": "weight",
              "type": "uint256"
            }
          ],
          "internalType": "struct Governance.Vote",
          "name": "",
          "type": "tuple"
        }
      ],
      "stateMutability": "view",
      "type": "function"
    },
    {
      "inputs": [
        {
          "internalType": "address",
          "name": "voter",
          "type": "address"
        }
      ],
      "name": "getVoteToEarnBonus",
      "outputs": [
        {
          "internalType": "uint256",
          "name": "",
          "type": "uint256"
        }
      ],
      "stateMutability": "view",
      "type": "function"
    },
    {
      "inputs": [
        {
          "internalType": "bytes32",
          "name": "role",
          "type": "bytes32"
        },
        {
          "internalType": "address",
          "name": "account",
          "type": "address"
        }
      ],
      "name": "grantRole",
      "outputs": [],
      "stateMutability": "nonpayable",
      "type": "function"
    },
    {
      "inputs": [
        {
          "internalType": "bytes32",
          "name": "role",
          "type": "bytes32"
        },
        {
          "internalType": "address",
          "name": "account",
          "type": "address"
        }
      ],
      "name": "hasRole",
      "outputs": [
        {
          "internalType": "bool",
          "name": "",
          "type": "bool"
        }
      ],
      "stateMutability": "view",
      "type": "function"
    },
    {
      "inputs": [
        {
          "internalType": "address",
          "name": "",
          "type": "address"
        }
      ],
      "name": "lastVoteTimestamp",
      "outputs": [
        {
          "internalType": "uint256",
          "name": "",
          "type": "uint256"
        }
      ],
      "stateMutability": "view",
      "type": "function"
    },
    {
      "inputs": [],
      "name": "propertyToken",
      "outputs": [
        {
          "internalType": "contract IPropertyToken",
          "name": "",
          "type": "address"
        }
      ],
      "stateMutability": "view",
      "type": "function"
    },
    {
      "inputs": [],
      "name": "proposalCount",
      "outputs": [
        {
          "internalType": "uint256",
          "name": "",
          "type": "uint256"
        }
      ],
      "stateMutability": "view",
      "type": "function"
    },
    {
      "inputs": [
        {
          "internalType": "uint256",
          "name": "",
          "type": "uint256"
        }
      ],
      "name": "proposals",
      "outputs": [
        {
          "internalType": "uint256",
          "name": "id",
          "type": "uint256"
        },
        {
          "internalType": "uint256",
          "name": "propertyId",
          "type": "uint256"
        },
        {
          "internalType": "address",
          "name": "proposer",
          "type": "address"
        },
        {
          "internalType": "enum Governance.ProposalType",
          "name": "proposalType",
          "type": "uint8"
        },
        {
          "internalType": "string",
          "name": "title",
          "type": "string"
        },
        {
          "internalType": "string",
          "name": "description",
          "type": "string"
        },
        {
          "internalType": "string",
          "name": "ipfsHash",
          "type": "string"
        },
        {
          "internalType": "uint256",
          "name": "votesFor",
          "type": "uint256"
        },
        {
          "internalType": "uint256",
          "name": "votesAgainst",
          "type": "uint256"
        },
        {
          "internalType": "uint256",
          "name": "votesAbstain",
          "type": "uint256"
        },
        {
          "internalType": "uint256",
          "name": "startTime",
          "type": "uint256"
        },
        {
          "internalType": "uint256",
          "name": "endTime",
          "type": "uint256"
        },
        {
          "internalType": "uint256",
          "name": "quorumRequired",
          "type": "uint256"
        },
        {
          "internalType": "enum Governance.ProposalStatus",
          "name": "status",
          "type": "uint8"
        },
        {
          "internalType": "bytes",
          "name": "executionData",
          "type": "bytes"
        }
      ],
      "stateMutability": "view",
      "type": "function"
    },
    {
      "inputs": [
        {
          "internalType": "bytes32",
          "name": "role",
          "type": "bytes32"
        },
        {
          "internalType": "address",
          "name": "callerConfirmation",
          "type": "address"
        }
      ],
      "name": "renounceRole",
      "outputs": [],
      "stateMutability": "nonpayable",
      "type": "function"
    },
    {
      "inputs": [
        {
          "internalType": "bytes32",
          "name": "role",
          "type": "bytes32"
        },
        {
          "internalType": "address",
          "name": "account",
          "type": "address"
        }
      ],
      "name": "revokeRole",
      "outputs": [],
      "stateMutability": "nonpayable",
      "type": "function"
    },
    {
      "inputs": [
        {
          "internalType": "uint256",
          "name": "newBonus",
          "type": "uint256"
        }
      ],
      "name": "setVoteToEarnBonus",
      "outputs": [],
      "stateMutability": "nonpayable",
      "type": "function"
    },
    {
      "inputs": [
        {
          "internalType": "uint256",
          "name": "newPeriod",
          "type": "uint256"
        }
      ],
      "name": "setVotingPeriod",
      "outputs": [],
      "stateMutability": "nonpayable",
      "type": "function"
    },
    {
      "inputs": [
        {
          "internalType": "bytes4",
          "name": "interfaceId",
          "type": "bytes4"
        }
      ],
      "name": "supportsInterface",
      "outputs": [
        {
          "internalType": "bool",
          "name": "",
          "type": "bool"
        }
      ],
      "stateMutability": "view",
      "type": "function"
    },
    {
      "inputs": [
        {
          "internalType": "uint256",
          "name": "",
          "type": "uint256"
        }
      ],
      "name": "totalVotingPower",
      "outputs": [
        {
          "internalType": "uint256",
          "name": "",
          "type": "uint256"
        }
      ],
      "stateMutability": "view",
      "type": "function"
    },
    {
      "inputs": [],
      "name": "voteToEarnBonus",
      "outputs": [
        {
          "internalType": "uint256",
          "name": "",
          "type": "uint256"
        }
      ],
      "stateMutability": "view",
      "type": "function"
    },
    {
      "inputs": [
        {
          "internalType": "address",
          "name": "",
          "type": "address"
        }
      ],
      "name": "voterParticipationCount",
      "outputs": [
        {
          "internalType": "uint256",
          "name": "",
          "type": "uint256"
        }
      ],
      "stateMutability": "view",
      "type": "function"
    },
    {
      "inputs": [
        {
          "internalType": "uint256",
          "name": "",
          "type": "uint256"
        },
        {
          "internalType": "address",
          "name": "",
          "type": "address"
        }
      ],
      "name": "votes",
      "outputs": [
        {
          "internalType": "bool",
          "name": "hasVoted",
          "type": "bool"
        },
        {
          "internalType": "uint8",
          "name": "support",
          "type": "uint8"
        },
        {
          "internalType": "uint256",
          "name": "weight",
          "type": "uint256"
        }
      ],
      "stateMutability": "view",
      "type": "function"
    },
    {
      "inputs": [],
      "name": "votingPeriod",
      "outputs": [
        {
          "internalType": "uint256",
          "name": "",
          "type": "uint256"
        }
      ],
      "stateMutability": "view",
      "type": "function"
    }
  ],
  "bytecode": "0x608034620000ae57601f620021da38819003918201601f19168301916001600160401b03831184841017620000b357808492602094604052833981010312620000ae57516001600160a01b03811690819003620000ae576001805562093a806003556032600455600280546001600160a01b0319169190911790556200008533620000c9565b50620000913362000149565b506200009d33620001eb565b50604051611f319081620002898239f35b600080fd5b634e487b7160e01b600052604160045260246000fd5b6001600160a01b031660008181527fad3228b676f7d3cd4284a5443f17f1962b36e491b30a40b2405849e597ba5fb5602052604081205490919060ff166200014557818052816020526040822081835260205260408220600160ff198254161790553391600080516020620021ba8339815191528180a4600190565b5090565b6001600160a01b031660008181527f3412d5605ac6cd444957cedb533e5dacad6378b4bc819ebe3652188a665066d560205260408120549091907fb09aa5aeb3702cfd50b6b62bc4532604938f21248a27a1d5ca736082b6819cc19060ff16620001e657808352826020526040832082845260205260408320600160ff19825416179055600080516020620021ba833981519152339380a4600190565b505090565b6001600160a01b031660008181527fdae2aa361dfd1ca020a396615627d436107c35eff9fe7738a3512819782d706960205260408120549091907fd8aa0f3194971a2a116679f7c2090f6939c8d4e01a2a8d7e41d55e5351469e639060ff16620001e657808352826020526040832082845260205260408320600160ff19825416179055600080516020620021ba833981519152339380a460019056fe6080604052600436101561001257600080fd5b60003560e01c8063013cf08b146118c757806301ffc9a71461187157806302a251a31461185357806307bd0265146118185780630d61b51914611708578063248a9ca3146116d9578063248bd471146116bc5780632f2ff15d1461167d57806336568abe1461163657806342a7c6141461161957806343ae2695146115f0578063536f9f42146115c45780635394c879146115a75780635652077c1461145957806356781388146111605780635c7b264d14611126578063872d15441461109a5780638f61f4f51461105f57806391d14854146110125780639b699e5714610821578063a217fddf14610805578063b277d02a146107e8578063bc3f931f1461074a578063c7f758a8146104a8578063d23254b414610445578063d547741f14610404578063da35c664146103e6578063dd9deb1b146103c8578063de1cf4ad1461038e578063e0a8f6f51461024e578063ea0217cf146101ac5763ecc52c041461017c57600080fd5b346101a75760203660031901126101a757602061019f61019a611be0565b611e8f565b604051908152f35b600080fd5b346101a75760203660031901126101a7576004356101c8611c5b565b6201518081101580610241575b1561020b576020817f651c77f42613a075437aa794c44471e3abc3a661956a67aaee165bb7396974aa92600355604051908152a1005b60405162461bcd60e51b815260206004820152600e60248201526d125b9d985b1a59081c195c9a5bd960921b6044820152606490fd5b5062278d008111156101d5565b346101a7576020806003193601126101a757600435908160005260058152604060002060018060a01b036002820154163314801561036c575b1561033657600c019081549060ff821660068110156103205760018114908115610317575b50156102e3575060ff191660051790557f416e669c63d9a3a5e36ee7cc7e2104b8db28ccd286aa18966e98fa230c73b08c600080a2005b6064906040519062461bcd60e51b82526004820152600d60248201526c10d85b9b9bdd0818d85b98d95b609a1b6044820152fd5b905015856102ac565b634e487b7160e01b600052602160045260246000fd5b60405162461bcd60e51b815260048101839052600e60248201526d139bdd08185d5d1a1bdc9a5e995960921b6044820152606490fd5b506000805260008252604060002033600052825260ff60406000205416610287565b346101a75760203660031901126101a7576001600160a01b036103af611be0565b16600052600a6020526020604060002054604051908152f35b346101a75760003660031901126101a7576020600454604051908152f35b346101a75760003660031901126101a7576020600654604051908152f35b346101a75760403660031901126101a757610443600435610423611bca565b9080600052600060205261043e600160406000200154611c95565b611d39565b005b346101a75760403660031901126101a75761045e611bca565b600435600052600760205260406000209060018060a01b0316600052602052606060406000206001815491015460ff604051928181161515845260081c1660208301526040820152f35b346101a75760203660031901126101a75760606101c06040516104ca81611b15565b6000815260006020820152600060408201526000838201528260808201528260a08201528260c0820152600060e08201526000610100820152600061012082015260006101408201526000610160820152600061018082015260006101a082015201526004356000526005602052604060002060405161054981611b15565b815481526001820154602082015260028201546001600160a01b038116604083015261057e9060a01c60ff1660608301611dca565b604051610599816105928160038701611a7f565b0382611b4e565b60808201526040516105b2816105928160048701611a7f565b60a08201526040516105cb816105928160058701611a7f565b60c0820152600682015460e0820152600782015461010082015260088201546101208201526009820154610140820152600a820154610160820152600b82015461018082015260ff600c8301541691600683101561032057610643600d91610746946101a08501526105926040518094819301611a7f565b6101c082015260405191829160208352805160208401526020810151604084015260018060a01b03604082015116606084015261068860608201516080850190611b70565b6101c06106d86106c26106ac60808501516101e060a0890152610200880190611b7d565b60a0850151878203601f190160c0890152611b7d565b60c0840151868203601f190160e0880152611b7d565b9160e08101516101008601526101008101516101208601526101208101516101408601526101408101516101608601526101608101516101808601526101808101516101a08601526107326101a082015183870190611bbd565b0151838203601f19016101e0850152611b7d565b0390f35b346101a75760403660031901126101a757610763611bca565b60006040805161077281611b32565b8281528260208201520152600435600052600760205260406000209060018060a01b0316600052602052606060406000206040516107af81611b32565b60ff82546040600183831615159586865284602087019460081c1684520154930192835260405193845251166020830152516040820152f35b346101a75760003660031901126101a75760206040516107d08152f35b346101a75760003660031901126101a757602060405160008152f35b346101a75760c03660031901126101a757600460243510156101a75760443567ffffffffffffffff81116101a75761085d903690600401611c3d565b60643567ffffffffffffffff81116101a75761087d903690600401611c3d565b9060843567ffffffffffffffff81116101a75761089e903690600401611c3d565b9060a43567ffffffffffffffff81116101a757366023820112156101a7576108d0903690602481600401359101611bf6565b3360009081527f3412d5605ac6cd444957cedb533e5dacad6378b4bc819ebe3652188a665066d560205260409020547fb09aa5aeb3702cfd50b6b62bc4532604938f21248a27a1d5ca736082b6819cc19060ff1615610ff45750600254604051636ded6a1960e11b815260048035908201523360248201526001600160a01b0390911690602081604481855afa908115610f7157600091610fc2575b5015610f7d576006549361097f85611dae565b600655602460206109908235611ec3565b9360405192838092638cdc1e8760e01b825260043560048301525afa908115610f7157600091610f3f575b508015610ee9578560005260086020526040600020556109dd60035442611dbd565b90604051966109eb88611b15565b8688526004356020890152336040890152610a0b60243560608a01611dca565b85608089015260a088015260c0870152600060e0870152600061010087015260006101208701524261014087015261016086015261018085015260016101a08501526101c08401528160005260056020526040600020835181556020840151600182015560018060a01b0360408501511660028201549060608601516004811015610320576001600160a81b03199092161760a09190911b60ff60a01b16176002820155608084015180519067ffffffffffffffff8211610d5c578190610ae282610ad96003870154611a45565b60038701611dd6565b602090601f8311600114610e7757600092610e6c575b50508160011b916000199060031b1c19161760038201555b60a084015180519067ffffffffffffffff8211610d5c578190610b4382610b3a6004870154611a45565b60048701611dd6565b602090601f8311600114610dfa57600092610def575b50508160011b916000199060031b1c19161760048201555b60c084015180519067ffffffffffffffff8211610d5c578190610ba482610b9b6005870154611a45565b60058701611dd6565b602090601f8311600114610d7d57600092610d72575b50508160011b916000199060031b1c19161760058201555b60e08401516006820155610100840151600782015561012084015160088201556101408401516009820155610160840151600a820155610180840151600b820155600c8101906101a0850151906006821015610320576101c092600d9260ff801983541691161790550193015192835167ffffffffffffffff8111610d5c5780602095610c6982610c638654611a45565b86611dd6565b8690601f8311600114610cf857600092610ced575b50508160011b916000199060031b1c19161790555b817fb1d569dc5621a0a51229b7ac0eff81f3e6df70a3f72fe608aa58f74bb69d7bb6604051338152610cc9868201602435611b70565b6060604082015280610ce2600435956060830190611b7d565b0390a3604051908152f35b015190508680610c7e565b60008581528881209350601f198516905b818110610d455750908460019594939210610d2c575b505050811b019055610c93565b015160001960f88460031b161c19169055868080610d1f565b929389600181928786015181550195019301610d09565b634e487b7160e01b600052604160045260246000fd5b015190508680610bba565b9250600584016000526020600020906000935b601f1984168510610dd4576001945083601f19811610610dbb575b505050811b016005820155610bd2565b015160001960f88460031b161c19169055868080610dab565b81810151835560209485019460019093019290910190610d90565b015190508680610b59565b9250600484016000526020600020906000935b601f1984168510610e51576001945083601f19811610610e38575b505050811b016004820155610b71565b015160001960f88460031b161c19169055868080610e28565b81810151835560209485019460019093019290910190610e0d565b015190508680610af8565b9250600384016000526020600020906000935b601f1984168510610ece576001945083601f19811610610eb5575b505050811b016003820155610b10565b015160001960f88460031b161c19169055868080610ea5565b81810151835560209485019460019093019290910190610e8a565b60405162461bcd60e51b815260206004820152602860248201527f4e6f20766f74696e6720706f7765722065786973747320666f7220746869732060448201526770726f706572747960c01b6064820152608490fd5b90506020813d602011610f69575b81610f5a60209383611b4e565b810103126101a75751876109bb565b3d9150610f4d565b6040513d6000823e3d90fd5b60405162461bcd60e51b815260206004820152601b60248201527f4d75737420686f6c6420746f6b656e7320746f2070726f706f736500000000006044820152606490fd5b90506020813d602011610fec575b81610fdd60209383611b4e565b810103126101a757518661096c565b3d9150610fd0565b6044906040519063e2517d3f60e01b82523360048301526024820152fd5b346101a75760403660031901126101a75761102b611bca565b600435600052600060205260406000209060018060a01b0316600052602052602060ff604060002054166040519015158152f35b346101a75760003660031901126101a75760206040517fb09aa5aeb3702cfd50b6b62bc4532604938f21248a27a1d5ca736082b6819cc18152f35b346101a75760203660031901126101a7576004356110b6611c5b565b6101f481116110f0576020817f4ade7322d9a0c41dc254574f72d3d442f06addcc77917dcb9cb1ac4441d1b20f92600455604051908152a1005b60405162461bcd60e51b815260206004820152600e60248201526d084dedceae640e8dede40d0d2ced60931b6044820152606490fd5b346101a75760203660031901126101a7576001600160a01b03611147611be0565b1660005260096020526020604060002054604051908152f35b346101a75760403660031901126101a7576024803560ff81166004358183036101a75761118b611e6c565b80600052602060058152604060002060ff600c82015416946006861015611444576111b96001809714611e2a565b6009820154421061140b57600a8201544210156113d857600285116113a0578360005260078352604060002033600052835260406000209081549060ff821661136c5760025488850154604051636ded6a1960e11b81526004810191909152336024820152989997989697908690889060449082906001600160a01b03165afa968715610f715760009761133d575b50861561130857509188809261ff00889560081b169061ffff191617178155015584156000146112de57600701611280838254611dbd565b90555b3360005260098152604060002061129a8154611dae565b905533600052600a8152426040600020556040519384528301527fb83d25c6a5d258561330739951487acb4bd09ba5190b5d32c4f261817d90679260403393a38055005b8486036112fa576006016112f3838254611dbd565b9055611283565b6008016112f3838254611dbd565b85600f6064926040519262461bcd60e51b845260048401528201526e2737903b37ba34b733903837bbb2b960891b6044820152fd5b9096508581813d8311611365575b6113558183611b4e565b810103126101a75751958a611248565b503d61134b565b60405162461bcd60e51b815260048101869052600d818b01526c105b1c9958591e481d9bdd1959609a1b6044820152606490fd5b60405162461bcd60e51b81526004810184905260118189015270496e76616c696420766f7465207479706560781b6044820152606490fd5b60405162461bcd60e51b815260048101849052600c818901526b159bdd1a5b99c8195b99195960a21b6044820152606490fd5b60405162461bcd60e51b81526004810184905260128189015271159bdd1a5b99c81b9bdd081cdd185c9d195960721b6044820152606490fd5b86634e487b7160e01b60005260216004526000fd5b346101a75760203660031901126101a757600435806000526005602052604060002090600c82019182549160ff8316600681101561032057600161149d9114611e2a565b600a820154421061156f576006820154916007810154916114cc6114c18486611dbd565b600884015490611dbd565b60009182526008602052604090912054801580611562576127109283810293818504149015171561154c5761153657600b9104915b01541115918261152c575b5050156115215750805460ff19166002179055005b60ff19166003179055005b119050838061150c565b634e487b7160e01b600052601260045260246000fd5b634e487b7160e01b600052601160045260246000fd5b505050600b600091611501565b60405162461bcd60e51b815260206004820152601060248201526f159bdd1a5b99c81b9bdd08195b99195960821b6044820152606490fd5b346101a75760003660031901126101a75760206040516113888152f35b346101a75760203660031901126101a75760043560005260086020526020604060002054604051908152f35b346101a75760003660031901126101a7576002546040516001600160a01b039091168152602090f35b346101a75760003660031901126101a7576020604051610bb88152f35b346101a75760403660031901126101a75761164f611bca565b336001600160a01b0382160361166b5761044390600435611d39565b60405163334bd91960e11b8152600490fd5b346101a75760403660031901126101a75761044360043561169c611bca565b908060005260006020526116b7600160406000200154611c95565b611cbb565b346101a75760003660031901126101a75760206040516109c48152f35b346101a75760203660031901126101a75760043560005260006020526020600160406000200154604051908152f35b346101a75760203660031901126101a7573360009081527fdae2aa361dfd1ca020a396615627d436107c35eff9fe7738a3512819782d70696020526040902054600435907fd8aa0f3194971a2a116679f7c2090f6939c8d4e01a2a8d7e41d55e5351469e639060ff1615610ff4575061177f611e6c565b806000526005602052600c604060002001805460ff81166006811015610320576002036117da5760ff191660041790557f712ae1383f79ac853f8d882153778e0260ef8f03b504e2866e0593e04d2b291f600080a260018055005b60405162461bcd60e51b8152602060048201526016602482015275141c9bdc1bdcd85b081b9bdd081cdd58d8d95959195960521b6044820152606490fd5b346101a75760003660031901126101a75760206040517fd8aa0f3194971a2a116679f7c2090f6939c8d4e01a2a8d7e41d55e5351469e638152f35b346101a75760003660031901126101a7576020600354604051908152f35b346101a75760203660031901126101a75760043563ffffffff60e01b81168091036101a757602090637965db0b60e01b81149081156118b6575b506040519015158152f35b6301ffc9a760e01b149050826118ab565b346101a75760203660031901126101a7576004356000526005602052604060002080546001820154916002810154608080600384019061190691611a7f565b0360809061191391611b4e565b60405190816119258160048601611a7f565b036119309083611b4e565b60405191826119428160058701611a7f565b0361194d9084611b4e565b60068401549260078501546008860154600987015491600a88015493600b89015495600c8a015460ff169760405180600d819d019061198b91611a7f565b03611996908c611b4e565b6040519c8d9c8d5260208d0152600160a01b60019003811660408d015260608c019060a01c60ff16906119c891611b70565b6101e08060808d01528b016080906119df91611b7d565b8b810360a08d01526119f091611b7d565b8a810360c08c0152611a0191611b7d565b9660e08a01526101008901526101208801526101408701526101608601526101808501526101a08401611a3391611bbd565b8281036101c084015261074691611b7d565b90600182811c92168015611a75575b6020831014611a5f57565b634e487b7160e01b600052602260045260246000fd5b91607f1691611a54565b9060009291805491611a9083611a45565b918282526001938481169081600014611af25750600114611ab2575b50505050565b90919394506000526020928360002092846000945b838610611ade575050505001019038808080611aac565b805485870183015294019385908201611ac7565b9294505050602093945060ff191683830152151560051b01019038808080611aac565b6101e0810190811067ffffffffffffffff821117610d5c57604052565b6060810190811067ffffffffffffffff821117610d5c57604052565b90601f8019910116810190811067ffffffffffffffff821117610d5c57604052565b9060048210156103205752565b919082519283825260005b848110611ba9575050826000602080949584010152601f8019910116010190565b602081830181015184830182015201611b88565b9060068210156103205752565b602435906001600160a01b03821682036101a757565b600435906001600160a01b03821682036101a757565b92919267ffffffffffffffff8211610d5c5760405191611c20601f8201601f191660200184611b4e565b8294818452818301116101a7578281602093846000960137010152565b9080601f830112156101a757816020611c5893359101611bf6565b90565b3360009081527fad3228b676f7d3cd4284a5443f17f1962b36e491b30a40b2405849e597ba5fb5602052604081205460ff1615610ff45750565b80600052600060205260406000203360005260205260ff6040600020541615610ff45750565b9060009180835282602052604083209160018060a01b03169182845260205260ff60408420541615600014611d3457808352826020526040832082845260205260408320600160ff198254161790557f2f8788117e7eff1d82e926ec794901d17c78024a50270940304540a733656f0d339380a4600190565b505090565b9060009180835282602052604083209160018060a01b03169182845260205260ff604084205416600014611d345780835282602052604083208284526020526040832060ff1981541690557ff6391f5c32d9c69d2a47ea670b442974b53935d1edc7fd64eb21e047a839171b339380a4600190565b600019811461154c5760010190565b9190820180921161154c57565b60048210156103205752565b90601f8111611de457505050565b600091825260208220906020601f850160051c83019410611e20575b601f0160051c01915b828110611e1557505050565b818155600101611e09565b9092508290611e00565b15611e3157565b60405162461bcd60e51b815260206004820152601360248201527250726f706f73616c206e6f742061637469766560681b6044820152606490fd5b600260015414611e7d576002600155565b604051633ee5aeb560e01b8152600490fd5b60018060a01b0316600052600a602052604060002054420342811161154c5762278d001015611ebd57600090565b60045490565b6004811015610320578015611ef45760018114611eed57600214611ee75761138890565b6109c490565b50610bb890565b506107d09056fea2646970667358221220e066da80d3147fba6c33810bd932e3f4a52c0da784dc420926094a1d2dcaba5664736f6c634300081400332f8788117e7eff1d82e926ec794901d17c78024a50270940304540a733656f0d",
  "linkReferences": {},
  "deployedLinkReferences": {}
}