{
  "_format": "hh-sol-artifact-1",
  "contractName": "Governance",
  "sourceName": "contracts/Governance.sol",
  "abi": [
    {
      "inputs": [
        {
          "internalType": "address",
          "name": "_propertyToken",
          "type": "address"
        }
      ],
      "stateMutability": "nonpayable",
      "type": "constructor"
    },
    {
      "inputs": [],
      "name": "AccessControlBadConfirmation",
      "type": "error"
    },
    {
      "inputs": [
        {
          "internalType": "address",
          "name": "account",
          "type": "address"
        },
        {
          "internalType": "bytes32",
          "name": "neededRole",
          "type": "bytes32"
        }
      ],
      "name": "AccessControlUnauthorizedAccount",
      "type": "error"
    },
    {
      "inputs": [],
      "name": "ECDSAInvalidSignature",
      "type": "error"
    },
    {
      "inputs": [
        {
          "internalType": "uint256",
          "name": "length",
          "type": "uint256"
        }
      ],
      "name": "ECDSAInvalidSignatureLength",
      "type": "error"
    },
    {
      "inputs": [
        {
          "internalType": "bytes32",
          "name": "s",
          "type": "bytes32"
        }
      ],
      "name": "ECDSAInvalidSignatureS",
      "type": "error"
    },
    {
      "inputs": [],
      "name": "ReentrancyGuardReentrantCall",
      "type": "error"
    },
    {
      "anonymous": false,
      "inputs": [
        {
          "indexed": false,
          "internalType": "uint256[4]",
          "name": "demandBars",
          "type": "uint256[4]"
        }
      ],
      "name": "DemandSnapshotTaken",
      "type": "event"
    },
    {
      "anonymous": false,
      "inputs": [
        {
          "indexed": true,
          "internalType": "enum Governance.ProposalType",
          "name": "proposalType",
          "type": "uint8"
        },
        {
          "indexed": false,
          "internalType": "uint256",
          "name": "demandWeight",
          "type": "uint256"
        },
        {
          "indexed": false,
          "internalType": "uint256",
          "name": "demandBps",
          "type": "uint256"
        }
      ],
      "name": "DemandUpdated",
      "type": "event"
    },
    {
      "anonymous": false,
      "inputs": [
        {
          "indexed": true,
          "internalType": "uint256",
          "name": "proposalId",
          "type": "uint256"
        },
        {
          "indexed": true,
          "internalType": "address",
          "name": "voter",
          "type": "address"
        },
        {
          "indexed": false,
          "internalType": "uint8",
          "name": "support",
          "type": "uint8"
        },
        {
          "indexed": false,
          "internalType": "uint256",
          "name": "weight",
          "type": "uint256"
        },
        {
          "indexed": false,
          "internalType": "address",
          "name": "relayer",
          "type": "address"
        }
      ],
      "name": "OffChainVoteCast",
      "type": "event"
    },
    {
      "anonymous": false,
      "inputs": [
        {
          "indexed": true,
          "internalType": "uint256",
          "name": "pollId",
          "type": "uint256"
        },
        {
          "indexed": true,
          "internalType": "uint256",
          "name": "proposalId",
          "type": "uint256"
        }
      ],
      "name": "PollConvertedToProposal",
      "type": "event"
    },
    {
      "anonymous": false,
      "inputs": [
        {
          "indexed": true,
          "internalType": "uint256",
          "name": "pollId",
          "type": "uint256"
        },
        {
          "indexed": true,
          "internalType": "uint256",
          "name": "propertyId",
          "type": "uint256"
        },
        {
          "indexed": false,
          "internalType": "address",
          "name": "creator",
          "type": "address"
        },
        {
          "indexed": false,
          "internalType": "string",
          "name": "question",
          "type": "string"
        }
      ],
      "name": "PollCreated",
      "type": "event"
    },
    {
      "anonymous": false,
      "inputs": [
        {
          "indexed": true,
          "internalType": "uint256",
          "name": "pollId",
          "type": "uint256"
        },
        {
          "indexed": false,
          "internalType": "uint256",
          "name": "votesFor",
          "type": "uint256"
        },
        {
          "indexed": false,
          "internalType": "uint256",
          "name": "votesAgainst",
          "type": "uint256"
        }
      ],
      "name": "PollEnded",
      "type": "event"
    },
    {
      "anonymous": false,
      "inputs": [
        {
          "indexed": true,
          "internalType": "uint256",
          "name": "pollId",
          "type": "uint256"
        },
        {
          "indexed": true,
          "internalType": "address",
          "name": "voter",
          "type": "address"
        },
        {
          "indexed": false,
          "internalType": "bool",
          "name": "support",
          "type": "bool"
        }
      ],
      "name": "PollVoteCast",
      "type": "event"
    },
    {
      "anonymous": false,
      "inputs": [
        {
          "indexed": true,
          "internalType": "uint256",
          "name": "proposalId",
          "type": "uint256"
        }
      ],
      "name": "ProposalCancelled",
      "type": "event"
    },
    {
      "anonymous": false,
      "inputs": [
        {
          "indexed": true,
          "internalType": "uint256",
          "name": "proposalId",
          "type": "uint256"
        },
        {
          "indexed": true,
          "internalType": "uint256",
          "name": "propertyId",
          "type": "uint256"
        },
        {
          "indexed": false,
          "internalType": "address",
          "name": "proposer",
          "type": "address"
        },
        {
          "indexed": false,
          "internalType": "enum Governance.ProposalType",
          "name": "proposalType",
          "type": "uint8"
        },
        {
          "indexed": false,
          "internalType": "string",
          "name": "title",
          "type": "string"
        }
      ],
      "name": "ProposalCreated",
      "type": "event"
    },
    {
      "anonymous": false,
      "inputs": [
        {
          "indexed": true,
          "internalType": "uint256",
          "name": "proposalId",
          "type": "uint256"
        }
      ],
      "name": "ProposalExecuted",
      "type": "event"
    },
    {
      "anonymous": false,
      "inputs": [
        {
          "indexed": true,
          "internalType": "bytes32",
          "name": "role",
          "type": "bytes32"
        },
        {
          "indexed": true,
          "internalType": "bytes32",
          "name": "previousAdminRole",
          "type": "bytes32"
        },
        {
          "indexed": true,
          "internalType": "bytes32",
          "name": "newAdminRole",
          "type": "bytes32"
        }
      ],
      "name": "RoleAdminChanged",
      "type": "event"
    },
    {
      "anonymous": false,
      "inputs": [
        {
          "indexed": true,
          "internalType": "bytes32",
          "name": "role",
          "type": "bytes32"
        },
        {
          "indexed": true,
          "internalType": "address",
          "name": "account",
          "type": "address"
        },
        {
          "indexed": true,
          "internalType": "address",
          "name": "sender",
          "type": "address"
        }
      ],
      "name": "RoleGranted",
      "type": "event"
    },
    {
      "anonymous": false,
      "inputs": [
        {
          "indexed": true,
          "internalType": "bytes32",
          "name": "role",
          "type": "bytes32"
        },
        {
          "indexed": true,
          "internalType": "address",
          "name": "account",
          "type": "address"
        },
        {
          "indexed": true,
          "internalType": "address",
          "name": "sender",
          "type": "address"
        }
      ],
      "name": "RoleRevoked",
      "type": "event"
    },
    {
      "anonymous": false,
      "inputs": [
        {
          "indexed": true,
          "internalType": "uint256",
          "name": "proposalId",
          "type": "uint256"
        },
        {
          "indexed": true,
          "internalType": "address",
          "name": "voter",
          "type": "address"
        },
        {
          "indexed": false,
          "internalType": "uint8",
          "name": "support",
          "type": "uint8"
        },
        {
          "indexed": false,
          "internalType": "uint256",
          "name": "weight",
          "type": "uint256"
        }
      ],
      "name": "VoteCast",
      "type": "event"
    },
    {
      "anonymous": false,
      "inputs": [
        {
          "indexed": false,
          "internalType": "uint256",
          "name": "newBonus",
          "type": "uint256"
        }
      ],
      "name": "VoteToEarnBonusUpdated",
      "type": "event"
    },
    {
      "anonymous": false,
      "inputs": [
        {
          "indexed": false,
          "internalType": "uint256",
          "name": "newPeriod",
          "type": "uint256"
        }
      ],
      "name": "VotingPeriodUpdated",
      "type": "event"
    },
    {
      "inputs": [],
      "name": "DEFAULT_ADMIN_ROLE",
      "outputs": [
        {
          "internalType": "bytes32",
          "name": "",
          "type": "bytes32"
        }
      ],
      "stateMutability": "view",
      "type": "function"
    },
    {
      "inputs": [],
      "name": "DEMAND_QUORUM_BOOST",
      "outputs": [
        {
          "internalType": "uint256",
          "name": "",
          "type": "uint256"
        }
      ],
      "stateMutability": "view",
      "type": "function"
    },
    {
      "inputs": [],
      "name": "DEMAND_QUORUM_BOOST_THRESHOLD",
      "outputs": [
        {
          "internalType": "uint256",
          "name": "",
          "type": "uint256"
        }
      ],
      "stateMutability": "view",
      "type": "function"
    },
    {
      "inputs": [],
      "name": "DOMAIN_SEPARATOR",
      "outputs": [
        {
          "internalType": "bytes32",
          "name": "",
          "type": "bytes32"
        }
      ],
      "stateMutability": "view",
      "type": "function"
    },
    {
      "inputs": [],
      "name": "EXECUTOR_ROLE",
      "outputs": [
        {
          "internalType": "bytes32",
          "name": "",
          "type": "bytes32"
        }
      ],
      "stateMutability": "view",
      "type": "function"
    },
    {
      "inputs": [],
      "name": "POLL_PROPOSAL_THRESHOLD",
      "outputs": [
        {
          "internalType": "uint256",
          "name": "",
          "type": "uint256"
        }
      ],
      "stateMutability": "view",
      "type": "function"
    },
    {
      "inputs": [],
      "name": "POLL_QUORUM_BONUS",
      "outputs": [
        {
          "internalType": "uint256",
          "name": "",
          "type": "uint256"
        }
      ],
      "stateMutability": "view",
      "type": "function"
    },
    {
      "inputs": [],
      "name": "PROPOSER_ROLE",
      "outputs": [
        {
          "internalType": "bytes32",
          "name": "",
          "type": "bytes32"
        }
      ],
      "stateMutability": "view",
      "type": "function"
    },
    {
      "inputs": [],
      "name": "QUORUM_EMERGENCY",
      "outputs": [
        {
          "internalType": "uint256",
          "name": "",
          "type": "uint256"
        }
      ],
      "stateMutability": "view",
      "type": "function"
    },
    {
      "inputs": [],
      "name": "QUORUM_PARAMETER",
      "outputs": [
        {
          "internalType": "uint256",
          "name": "",
          "type": "uint256"
        }
      ],
      "stateMutability": "view",
      "type": "function"
    },
    {
      "inputs": [],
      "name": "QUORUM_PROPERTY",
      "outputs": [
        {
          "internalType": "uint256",
          "name": "",
          "type": "uint256"
        }
      ],
      "stateMutability": "view",
      "type": "function"
    },
    {
      "inputs": [],
      "name": "QUORUM_TREASURY",
      "outputs": [
        {
          "internalType": "uint256",
          "name": "",
          "type": "uint256"
        }
      ],
      "stateMutability": "view",
      "type": "function"
    },
    {
      "inputs": [],
      "name": "RELAYER_ROLE",
      "outputs": [
        {
          "internalType": "bytes32",
          "name": "",
          "type": "bytes32"
        }
      ],
      "stateMutability": "view",
      "type": "function"
    },
    {
      "inputs": [],
      "name": "VOTE_TYPEHASH",
      "outputs": [
        {
          "internalType": "bytes32",
          "name": "",
          "type": "bytes32"
        }
      ],
      "stateMutability": "view",
      "type": "function"
    },
    {
      "inputs": [
        {
          "internalType": "uint256",
          "name": "proposalId",
          "type": "uint256"
        }
      ],
      "name": "cancelProposal",
      "outputs": [],
      "stateMutability": "nonpayable",
      "type": "function"
    },
    {
      "inputs": [
        {
          "internalType": "uint256",
          "name": "proposalId",
          "type": "uint256"
        },
        {
          "internalType": "uint8",
          "name": "support",
          "type": "uint8"
        }
      ],
      "name": "castVote",
      "outputs": [],
      "stateMutability": "nonpayable",
      "type": "function"
    },
    {
      "inputs": [
        {
          "internalType": "uint256",
          "name": "proposalId",
          "type": "uint256"
        },
        {
          "internalType": "uint8",
          "name": "support",
          "type": "uint8"
        },
        {
          "internalType": "address",
          "name": "voter",
          "type": "address"
        },
        {
          "internalType": "uint256",
          "name": "deadline",
          "type": "uint256"
        },
        {
          "internalType": "uint8",
          "name": "v",
          "type": "uint8"
        },
        {
          "internalType": "bytes32",
          "name": "r",
          "type": "bytes32"
        },
        {
          "internalType": "bytes32",
          "name": "s",
          "type": "bytes32"
        }
      ],
      "name": "castVoteBySignature",
      "outputs": [],
      "stateMutability": "nonpayable",
      "type": "function"
    },
    {
      "inputs": [
        {
          "internalType": "uint256",
          "name": "propertyId",
          "type": "uint256"
        },
        {
          "internalType": "string",
          "name": "question",
          "type": "string"
        },
        {
          "internalType": "string",
          "name": "description",
          "type": "string"
        },
        {
          "internalType": "string",
          "name": "ipfsHash",
          "type": "string"
        },
        {
          "internalType": "uint256",
          "name": "duration",
          "type": "uint256"
        }
      ],
      "name": "createPoll",
      "outputs": [
        {
          "internalType": "uint256",
          "name": "",
          "type": "uint256"
        }
      ],
      "stateMutability": "nonpayable",
      "type": "function"
    },
    {
      "inputs": [
        {
          "internalType": "uint256",
          "name": "propertyId",
          "type": "uint256"
        },
        {
          "internalType": "enum Governance.ProposalType",
          "name": "proposalType",
          "type": "uint8"
        },
        {
          "internalType": "string",
          "name": "title",
          "type": "string"
        },
        {
          "internalType": "string",
          "name": "description",
          "type": "string"
        },
        {
          "internalType": "string",
          "name": "ipfsHash",
          "type": "string"
        },
        {
          "internalType": "bytes",
          "name": "executionData",
          "type": "bytes"
        },
        {
          "internalType": "string",
          "name": "impactReportIPFS",
          "type": "string"
        },
        {
          "internalType": "uint256",
          "name": "impactScore",
          "type": "uint256"
        }
      ],
      "name": "createProposal",
      "outputs": [
        {
          "internalType": "uint256",
          "name": "",
          "type": "uint256"
        }
      ],
      "stateMutability": "nonpayable",
      "type": "function"
    },
    {
      "inputs": [
        {
          "internalType": "uint256",
          "name": "pollId",
          "type": "uint256"
        },
        {
          "internalType": "enum Governance.ProposalType",
          "name": "proposalType",
          "type": "uint8"
        },
        {
          "internalType": "bytes",
          "name": "executionData",
          "type": "bytes"
        },
        {
          "internalType": "string",
          "name": "impactReportIPFS",
          "type": "string"
        },
        {
          "internalType": "uint256",
          "name": "impactScore",
          "type": "uint256"
        }
      ],
      "name": "createProposalFromPoll",
      "outputs": [
        {
          "internalType": "uint256",
          "name": "",
          "type": "uint256"
        }
      ],
      "stateMutability": "nonpayable",
      "type": "function"
    },
    {
      "inputs": [
        {
          "internalType": "enum Governance.ProposalType",
          "name": "",
          "type": "uint8"
        }
      ],
      "name": "demandSnapshots",
      "outputs": [
        {
          "internalType": "uint256",
          "name": "",
          "type": "uint256"
        }
      ],
      "stateMutability": "view",
      "type": "function"
    },
    {
      "inputs": [
        {
          "internalType": "uint256",
          "name": "pollId",
          "type": "uint256"
        }
      ],
      "name": "endPoll",
      "outputs": [],
      "stateMutability": "nonpayable",
      "type": "function"
    },
    {
      "inputs": [
        {
          "internalType": "uint256",
          "name": "proposalId",
          "type": "uint256"
        }
      ],
      "name": "executeProposal",
      "outputs": [],
      "stateMutability": "nonpayable",
      "type": "function"
    },
    {
      "inputs": [
        {
          "internalType": "uint256",
          "name": "proposalId",
          "type": "uint256"
        }
      ],
      "name": "finalizeProposal",
      "outputs": [],
      "stateMutability": "nonpayable",
      "type": "function"
    },
    {
      "inputs": [
        {
          "internalType": "uint256",
          "name": "propertyId",
          "type": "uint256"
        }
      ],
      "name": "getActivePolls",
      "outputs": [
        {
          "components": [
            {
              "internalType": "uint256",
              "name": "id",
              "type": "uint256"
            },
            {
              "internalType": "uint256",
              "name": "propertyId",
              "type": "uint256"
            },
            {
              "internalType": "address",
              "name": "creator",
              "type": "address"
            },
            {
              "internalType": "string",
              "name": "question",
              "type": "string"
            },
            {
              "internalType": "string",
              "name": "description",
              "type": "string"
            },
            {
              "internalType": "string",
              "name": "ipfsHash",
              "type": "string"
            },
            {
              "internalType": "uint256",
              "name": "votesFor",
              "type": "uint256"
            },
            {
              "internalType": "uint256",
              "name": "votesAgainst",
              "type": "uint256"
            },
            {
              "internalType": "uint256",
              "name": "startTime",
              "type": "uint256"
            },
            {
              "internalType": "uint256",
              "name": "endTime",
              "type": "uint256"
            },
            {
              "internalType": "enum Governance.PollStatus",
              "name": "status",
              "type": "uint8"
            },
            {
              "internalType": "uint256",
              "name": "linkedProposalId",
              "type": "uint256"
            }
          ],
          "internalType": "struct Governance.Poll[]",
          "name": "",
          "type": "tuple[]"
        }
      ],
      "stateMutability": "view",
      "type": "function"
    },
    {
      "inputs": [
        {
          "internalType": "uint256",
          "name": "propertyId",
          "type": "uint256"
        }
      ],
      "name": "getActiveProposals",
      "outputs": [
        {
          "components": [
            {
              "internalType": "uint256",
              "name": "id",
              "type": "uint256"
            },
            {
              "internalType": "uint256",
              "name": "propertyId",
              "type": "uint256"
            },
            {
              "internalType": "address",
              "name": "proposer",
              "type": "address"
            },
            {
              "internalType": "enum Governance.ProposalType",
              "name": "proposalType",
              "type": "uint8"
            },
            {
              "internalType": "string",
              "name": "title",
              "type": "string"
            },
            {
              "internalType": "string",
              "name": "description",
              "type": "string"
            },
            {
              "internalType": "string",
              "name": "ipfsHash",
              "type": "string"
            },
            {
              "internalType": "uint256",
              "name": "votesFor",
              "type": "uint256"
            },
            {
              "internalType": "uint256",
              "name": "votesAgainst",
              "type": "uint256"
            },
            {
              "internalType": "uint256",
              "name": "votesAbstain",
              "type": "uint256"
            },
            {
              "internalType": "uint256",
              "name": "startTime",
              "type": "uint256"
            },
            {
              "internalType": "uint256",
              "name": "endTime",
              "type": "uint256"
            },
            {
              "internalType": "uint256",
              "name": "quorumRequired",
              "type": "uint256"
            },
            {
              "internalType": "enum Governance.ProposalStatus",
              "name": "status",
              "type": "uint8"
            },
            {
              "internalType": "bytes",
              "name": "executionData",
              "type": "bytes"
            },
            {
              "internalType": "string",
              "name": "impactReportIPFS",
              "type": "string"
            },
            {
              "internalType": "uint256",
              "name": "impactScore",
              "type": "uint256"
            }
          ],
          "internalType": "struct Governance.Proposal[]",
          "name": "",
          "type": "tuple[]"
        }
      ],
      "stateMutability": "view",
      "type": "function"
    },
    {
      "inputs": [],
      "name": "getCommunityHealthScore",
      "outputs": [
        {
          "internalType": "uint256",
          "name": "healthScore",
          "type": "uint256"
        }
      ],
      "stateMutability": "view",
      "type": "function"
    },
    {
      "inputs": [],
      "name": "getDemandBars",
      "outputs": [
        {
          "internalType": "uint256[4]",
          "name": "bars",
          "type": "uint256[4]"
        }
      ],
      "stateMutability": "view",
      "type": "function"
    },
    {
      "inputs": [
        {
          "internalType": "enum Governance.ProposalType",
          "name": "proposalType",
          "type": "uint8"
        }
      ],
      "name": "getDemandForType",
      "outputs": [
        {
          "internalType": "uint256",
          "name": "weight",
          "type": "uint256"
        },
        {
          "internalType": "uint256",
          "name": "bps",
          "type": "uint256"
        }
      ],
      "stateMutability": "view",
      "type": "function"
    },
    {
      "inputs": [
        {
          "internalType": "enum Governance.ProposalType",
          "name": "proposalType",
          "type": "uint8"
        }
      ],
      "name": "getEffectiveQuorum",
      "outputs": [
        {
          "internalType": "uint256",
          "name": "",
          "type": "uint256"
        }
      ],
      "stateMutability": "view",
      "type": "function"
    },
    {
      "inputs": [
        {
          "internalType": "uint256",
          "name": "proposalId",
          "type": "uint256"
        }
      ],
      "name": "getImpactReport",
      "outputs": [
        {
          "internalType": "string",
          "name": "ipfsHash",
          "type": "string"
        },
        {
          "internalType": "uint256",
          "name": "impactScore",
          "type": "uint256"
        }
      ],
      "stateMutability": "view",
      "type": "function"
    },
    {
      "inputs": [
        {
          "internalType": "address",
          "name": "voter",
          "type": "address"
        }
      ],
      "name": "getNonce",
      "outputs": [
        {
          "internalType": "uint256",
          "name": "",
          "type": "uint256"
        }
      ],
      "stateMutability": "view",
      "type": "function"
    },
    {
      "inputs": [
        {
          "internalType": "uint256",
          "name": "pollId",
          "type": "uint256"
        }
      ],
      "name": "getPoll",
      "outputs": [
        {
          "components": [
            {
              "internalType": "uint256",
              "name": "id",
              "type": "uint256"
            },
            {
              "internalType": "uint256",
              "name": "propertyId",
              "type": "uint256"
            },
            {
              "internalType": "address",
              "name": "creator",
              "type": "address"
            },
            {
              "internalType": "string",
              "name": "question",
              "type": "string"
            },
            {
              "internalType": "string",
              "name": "description",
              "type": "string"
            },
            {
              "internalType": "string",
              "name": "ipfsHash",
              "type": "string"
            },
            {
              "internalType": "uint256",
              "name": "votesFor",
              "type": "uint256"
            },
            {
              "internalType": "uint256",
              "name": "votesAgainst",
              "type": "uint256"
            },
            {
              "internalType": "uint256",
              "name": "startTime",
              "type": "uint256"
            },
            {
              "internalType": "uint256",
              "name": "endTime",
              "type": "uint256"
            },
            {
              "internalType": "enum Governance.PollStatus",
              "name": "status",
              "type": "uint8"
            },
            {
              "internalType": "uint256",
              "name": "linkedProposalId",
              "type": "uint256"
            }
          ],
          "internalType": "struct Governance.Poll",
          "name": "",
          "type": "tuple"
        }
      ],
      "stateMutability": "view",
      "type": "function"
    },
    {
      "inputs": [
        {
          "internalType": "uint256",
          "name": "pollId",
          "type": "uint256"
        }
      ],
      "name": "getPollSupport",
      "outputs": [
        {
          "internalType": "uint256",
          "name": "",
          "type": "uint256"
        }
      ],
      "stateMutability": "view",
      "type": "function"
    },
    {
      "inputs": [
        {
          "internalType": "uint256",
          "name": "proposalId",
          "type": "uint256"
        }
      ],
      "name": "getProposal",
      "outputs": [
        {
          "components": [
            {
              "internalType": "uint256",
              "name": "id",
              "type": "uint256"
            },
            {
              "internalType": "uint256",
              "name": "propertyId",
              "type": "uint256"
            },
            {
              "internalType": "address",
              "name": "proposer",
              "type": "address"
            },
            {
              "internalType": "enum Governance.ProposalType",
              "name": "proposalType",
              "type": "uint8"
            },
            {
              "internalType": "string",
              "name": "title",
              "type": "string"
            },
            {
              "internalType": "string",
              "name": "description",
              "type": "string"
            },
            {
              "internalType": "string",
              "name": "ipfsHash",
              "type": "string"
            },
            {
              "internalType": "uint256",
              "name": "votesFor",
              "type": "uint256"
            },
            {
              "internalType": "uint256",
              "name": "votesAgainst",
              "type": "uint256"
            },
            {
              "internalType": "uint256",
              "name": "votesAbstain",
              "type": "uint256"
            },
            {
              "internalType": "uint256",
              "name": "startTime",
              "type": "uint256"
            },
            {
              "internalType": "uint256",
              "name": "endTime",
              "type": "uint256"
            },
            {
              "internalType": "uint256",
              "name": "quorumRequired",
              "type": "uint256"
            },
            {
              "internalType": "enum Governance.ProposalStatus",
              "name": "status",
              "type": "uint8"
            },
            {
              "internalType": "bytes",
              "name": "executionData",
              "type": "bytes"
            },
            {
              "internalType": "string",
              "name": "impactReportIPFS",
              "type": "string"
            },
            {
              "internalType": "uint256",
              "name": "impactScore",
              "type": "uint256"
            }
          ],
          "internalType": "struct Governance.Proposal",
          "name": "",
          "type": "tuple"
        }
      ],
      "stateMutability": "view",
      "type": "function"
    },
    {
      "inputs": [
        {
          "internalType": "bytes32",
          "name": "role",
          "type": "bytes32"
        }
      ],
      "name": "getRoleAdmin",
      "outputs": [
        {
          "internalType": "bytes32",
          "name": "",
          "type": "bytes32"
        }
      ],
      "stateMutability": "view",
      "type": "function"
    },
    {
      "inputs": [
        {
          "internalType": "uint256",
          "name": "proposalId",
          "type": "uint256"
        },
        {
          "internalType": "address",
          "name": "voter",
          "type": "address"
        }
      ],
      "name": "getVote",
      "outputs": [
        {
          "components": [
            {
              "internalType": "bool",
              "name": "hasVoted",
              "type": "bool"
            },
            {
              "internalType": "uint8",
              "name": "support",
              "type": "uint8"
            },
            {
              "internalType": "uint256",
              "name": "weight",
              "type": "uint256"
            }
          ],
          "internalType": "struct Governance.Vote",
          "name": "",
          "type": "tuple"
        }
      ],
      "stateMutability": "view",
      "type": "function"
    },
    {
      "inputs": [
        {
          "internalType": "address",
          "name": "voter",
          "type": "address"
        }
      ],
      "name": "getVoteToEarnBonus",
      "outputs": [
        {
          "internalType": "uint256",
          "name": "",
          "type": "uint256"
        }
      ],
      "stateMutability": "view",
      "type": "function"
    },
    {
      "inputs": [
        {
          "internalType": "bytes32",
          "name": "role",
          "type": "bytes32"
        },
        {
          "internalType": "address",
          "name": "account",
          "type": "address"
        }
      ],
      "name": "grantRole",
      "outputs": [],
      "stateMutability": "nonpayable",
      "type": "function"
    },
    {
      "inputs": [
        {
          "internalType": "bytes32",
          "name": "role",
          "type": "bytes32"
        },
        {
          "internalType": "address",
          "name": "account",
          "type": "address"
        }
      ],
      "name": "hasRole",
      "outputs": [
        {
          "internalType": "bool",
          "name": "",
          "type": "bool"
        }
      ],
      "stateMutability": "view",
      "type": "function"
    },
    {
      "inputs": [
        {
          "internalType": "address",
          "name": "",
          "type": "address"
        }
      ],
      "name": "lastVoteTimestamp",
      "outputs": [
        {
          "internalType": "uint256",
          "name": "",
          "type": "uint256"
        }
      ],
      "stateMutability": "view",
      "type": "function"
    },
    {
      "inputs": [
        {
          "internalType": "address",
          "name": "",
          "type": "address"
        }
      ],
      "name": "nonces",
      "outputs": [
        {
          "internalType": "uint256",
          "name": "",
          "type": "uint256"
        }
      ],
      "stateMutability": "view",
      "type": "function"
    },
    {
      "inputs": [],
      "name": "pollCount",
      "outputs": [
        {
          "internalType": "uint256",
          "name": "",
          "type": "uint256"
        }
      ],
      "stateMutability": "view",
      "type": "function"
    },
    {
      "inputs": [
        {
          "internalType": "uint256",
          "name": "",
          "type": "uint256"
        }
      ],
      "name": "pollParticipants",
      "outputs": [
        {
          "internalType": "uint256",
          "name": "",
          "type": "uint256"
        }
      ],
      "stateMutability": "view",
      "type": "function"
    },
    {
      "inputs": [
        {
          "internalType": "uint256",
          "name": "",
          "type": "uint256"
        },
        {
          "internalType": "address",
          "name": "",
          "type": "address"
        }
      ],
      "name": "pollVotes",
      "outputs": [
        {
          "internalType": "bool",
          "name": "hasVoted",
          "type": "bool"
        },
        {
          "internalType": "bool",
          "name": "support",
          "type": "bool"
        }
      ],
      "stateMutability": "view",
      "type": "function"
    },
    {
      "inputs": [
        {
          "internalType": "uint256",
          "name": "",
          "type": "uint256"
        }
      ],
      "name": "polls",
      "outputs": [
        {
          "internalType": "uint256",
          "name": "id",
          "type": "uint256"
        },
        {
          "internalType": "uint256",
          "name": "propertyId",
          "type": "uint256"
        },
        {
          "internalType": "address",
          "name": "creator",
          "type": "address"
        },
        {
          "internalType": "string",
          "name": "question",
          "type": "string"
        },
        {
          "internalType": "string",
          "name": "description",
          "type": "string"
        },
        {
          "internalType": "string",
          "name": "ipfsHash",
          "type": "string"
        },
        {
          "internalType": "uint256",
          "name": "votesFor",
          "type": "uint256"
        },
        {
          "internalType": "uint256",
          "name": "votesAgainst",
          "type": "uint256"
        },
        {
          "internalType": "uint256",
          "name": "startTime",
          "type": "uint256"
        },
        {
          "internalType": "uint256",
          "name": "endTime",
          "type": "uint256"
        },
        {
          "internalType": "enum Governance.PollStatus",
          "name": "status",
          "type": "uint8"
        },
        {
          "internalType": "uint256",
          "name": "linkedProposalId",
          "type": "uint256"
        }
      ],
      "stateMutability": "view",
      "type": "function"
    },
    {
      "inputs": [],
      "name": "propertyToken",
      "outputs": [
        {
          "internalType": "contract IPropertyToken",
          "name": "",
          "type": "address"
        }
      ],
      "stateMutability": "view",
      "type": "function"
    },
    {
      "inputs": [],
      "name": "proposalCount",
      "outputs": [
        {
          "internalType": "uint256",
          "name": "",
          "type": "uint256"
        }
      ],
      "stateMutability": "view",
      "type": "function"
    },
    {
      "inputs": [
        {
          "internalType": "uint256",
          "name": "",
          "type": "uint256"
        }
      ],
      "name": "proposals",
      "outputs": [
        {
          "internalType": "uint256",
          "name": "id",
          "type": "uint256"
        },
        {
          "internalType": "uint256",
          "name": "propertyId",
          "type": "uint256"
        },
        {
          "internalType": "address",
          "name": "proposer",
          "type": "address"
        },
        {
          "internalType": "enum Governance.ProposalType",
          "name": "proposalType",
          "type": "uint8"
        },
        {
          "internalType": "string",
          "name": "title",
          "type": "string"
        },
        {
          "internalType": "string",
          "name": "description",
          "type": "string"
        },
        {
          "internalType": "string",
          "name": "ipfsHash",
          "type": "string"
        },
        {
          "internalType": "uint256",
          "name": "votesFor",
          "type": "uint256"
        },
        {
          "internalType": "uint256",
          "name": "votesAgainst",
          "type": "uint256"
        },
        {
          "internalType": "uint256",
          "name": "votesAbstain",
          "type": "uint256"
        },
        {
          "internalType": "uint256",
          "name": "startTime",
          "type": "uint256"
        },
        {
          "internalType": "uint256",
          "name": "endTime",
          "type": "uint256"
        },
        {
          "internalType": "uint256",
          "name": "quorumRequired",
          "type": "uint256"
        },
        {
          "internalType": "enum Governance.ProposalStatus",
          "name": "status",
          "type": "uint8"
        },
        {
          "internalType": "bytes",
          "name": "executionData",
          "type": "bytes"
        },
        {
          "internalType": "string",
          "name": "impactReportIPFS",
          "type": "string"
        },
        {
          "internalType": "uint256",
          "name": "impactScore",
          "type": "uint256"
        }
      ],
      "stateMutability": "view",
      "type": "function"
    },
    {
      "inputs": [
        {
          "internalType": "bytes32",
          "name": "role",
          "type": "bytes32"
        },
        {
          "internalType": "address",
          "name": "callerConfirmation",
          "type": "address"
        }
      ],
      "name": "renounceRole",
      "outputs": [],
      "stateMutability": "nonpayable",
      "type": "function"
    },
    {
      "inputs": [
        {
          "internalType": "bytes32",
          "name": "role",
          "type": "bytes32"
        },
        {
          "internalType": "address",
          "name": "account",
          "type": "address"
        }
      ],
      "name": "revokeRole",
      "outputs": [],
      "stateMutability": "nonpayable",
      "type": "function"
    },
    {
      "inputs": [
        {
          "internalType": "uint256",
          "name": "newBonus",
          "type": "uint256"
        }
      ],
      "name": "setVoteToEarnBonus",
      "outputs": [],
      "stateMutability": "nonpayable",
      "type": "function"
    },
    {
      "inputs": [
        {
          "internalType": "uint256",
          "name": "newPeriod",
          "type": "uint256"
        }
      ],
      "name": "setVotingPeriod",
      "outputs": [],
      "stateMutability": "nonpayable",
      "type": "function"
    },
    {
      "inputs": [
        {
          "internalType": "bytes4",
          "name": "interfaceId",
          "type": "bytes4"
        }
      ],
      "name": "supportsInterface",
      "outputs": [
        {
          "internalType": "bool",
          "name": "",
          "type": "bool"
        }
      ],
      "stateMutability": "view",
      "type": "function"
    },
    {
      "inputs": [],
      "name": "takeDemandSnapshot",
      "outputs": [],
      "stateMutability": "nonpayable",
      "type": "function"
    },
    {
      "inputs": [],
      "name": "totalDemandWeight",
      "outputs": [
        {
          "internalType": "uint256",
          "name": "",
          "type": "uint256"
        }
      ],
      "stateMutability": "view",
      "type": "function"
    },
    {
      "inputs": [
        {
          "internalType": "uint256",
          "name": "",
          "type": "uint256"
        }
      ],
      "name": "totalVotingPower",
      "outputs": [
        {
          "internalType": "uint256",
          "name": "",
          "type": "uint256"
        }
      ],
      "stateMutability": "view",
      "type": "function"
    },
    {
      "inputs": [
        {
          "internalType": "enum Governance.ProposalType",
          "name": "",
          "type": "uint8"
        }
      ],
      "name": "typeDemandWeights",
      "outputs": [
        {
          "internalType": "uint256",
          "name": "",
          "type": "uint256"
        }
      ],
      "stateMutability": "view",
      "type": "function"
    },
    {
      "inputs": [
        {
          "internalType": "uint256",
          "name": "pollId",
          "type": "uint256"
        },
        {
          "internalType": "bool",
          "name": "support",
          "type": "bool"
        }
      ],
      "name": "votePoll",
      "outputs": [],
      "stateMutability": "nonpayable",
      "type": "function"
    },
    {
      "inputs": [],
      "name": "voteToEarnBonus",
      "outputs": [
        {
          "internalType": "uint256",
          "name": "",
          "type": "uint256"
        }
      ],
      "stateMutability": "view",
      "type": "function"
    },
    {
      "inputs": [
        {
          "internalType": "address",
          "name": "",
          "type": "address"
        }
      ],
      "name": "voterParticipationCount",
      "outputs": [
        {
          "internalType": "uint256",
          "name": "",
          "type": "uint256"
        }
      ],
      "stateMutability": "view",
      "type": "function"
    },
    {
      "inputs": [
        {
          "internalType": "uint256",
          "name": "",
          "type": "uint256"
        },
        {
          "internalType": "address",
          "name": "",
          "type": "address"
        }
      ],
      "name": "votes",
      "outputs": [
        {
          "internalType": "bool",
          "name": "hasVoted",
          "type": "bool"
        },
        {
          "internalType": "uint8",
          "name": "support",
          "type": "uint8"
        },
        {
          "internalType": "uint256",
          "name": "weight",
          "type": "uint256"
        }
      ],
      "stateMutability": "view",
      "type": "function"
    },
    {
      "inputs": [],
      "name": "votingPeriod",
      "outputs": [
        {
          "internalType": "uint256",
          "name": "",
          "type": "uint256"
        }
      ],
      "stateMutability": "view",
      "type": "function"
    }
  ],
  "bytecode": "0x60a03462000199576001600160401b0390601f62004f0138819003918201601f1916830192919084841183851017620001835781602092849260409687528339810103126200019957516001600160a01b0381169081900362000199576001805562093a806004556032600555600280546001600160a01b0319169190911790556200008b33620001ba565b5062000097336200023a565b50620000a333620002dc565b50620000af3362000379565b50601460208251620000c1816200019e565b828152017f52657669746148756220476f7665726e616e636500000000000000000000000081522090600160208251620000fb816200019e565b82815201603160f81b8152209080519160208301937f8b73c3c69bb8fe3d512ecc4cf759cc79239f7b179b0ffacaa9a75d522b39400f85528284015260608301524660808301523060a083015260a0825260c0820193828510908511176200018357839052519020608052614aca90816200041782396080518181816128fb01526130c50152f35b634e487b7160e01b600052604160045260246000fd5b600080fd5b604081019081106001600160401b038211176200018357604052565b6001600160a01b031660008181527fad3228b676f7d3cd4284a5443f17f1962b36e491b30a40b2405849e597ba5fb5602052604081205490919060ff166200023657818052816020526040822081835260205260408220600160ff19825416179055339160008051602062004ee18339815191528180a4600190565b5090565b6001600160a01b031660008181527f3412d5605ac6cd444957cedb533e5dacad6378b4bc819ebe3652188a665066d560205260408120549091907fb09aa5aeb3702cfd50b6b62bc4532604938f21248a27a1d5ca736082b6819cc19060ff16620002d757808352826020526040832082845260205260408320600160ff1982541617905560008051602062004ee1833981519152339380a4600190565b505090565b6001600160a01b031660008181527fdae2aa361dfd1ca020a396615627d436107c35eff9fe7738a3512819782d706960205260408120549091907fd8aa0f3194971a2a116679f7c2090f6939c8d4e01a2a8d7e41d55e5351469e639060ff16620002d757808352826020526040832082845260205260408320600160ff1982541617905560008051602062004ee1833981519152339380a4600190565b6001600160a01b031660008181527ffaf93c3d007e112089dc8351e013e6685ef67703975d0224b26fc45941d4f1f560205260408120549091907fe2b7fb3b832174769106daebcfd6d1970523240dda11281102db9363b83b0dc49060ff16620002d757808352826020526040832082845260205260408320600160ff1982541617905560008051602062004ee1833981519152339380a460019056fe6080604052600436101561001257600080fd5b60003560e01c8063013cf08b1461365157806301ffc9a7146135fb57806302a251a3146135dd57806307bd0265146135a25780630af4da411461357a5780630d61b5191461346a5780630e6c151c1461342c57806319546f1a146133ee5780631a8cbcaa146133a5578063248a9ca314613376578063248bd47114613359578063252f57d714611fe35780632d0335ab146118875780632dcf0d7314612ed05780632f2ff15d14612e9157806333b5e38e14612d9f578063364478e21461291e5780633644e515146128e357806336568abe1461289c5780633d8803e2146103e257806342a7c6141461188257806343ae26951461287357806349672b70146128585780635100084c14612032578063514c3d5614612014578063536f9f4214611fe85780635394c87914611fe35780635652077c14611ebe5780635678138814611c9e5780635c7b264d14611c645780636213e5ea14611acc578063637e54ac14611a7457806363f0c7ff146118c15780637ecebe0014611887578063808c4479146118825780638652297314611847578063872d1544146117bb5780638f61f4f51461178057806391d14854146117335780639207891d14611715578063926d7d7f146116da57806395094544146116275780639c4e99ca146116095780639d79a9eb146114d0578063a217fddf146114b4578063ac2f007414611383578063b277d02a14611366578063bc3f931f146112c8578063bcd77a24146112a0578063c3b028e214611274578063c6366adf146107a5578063c7f758a814610758578063cae35ba0146106cd578063d23254b41461066a578063d547741f14610629578063da35c6641461060b578063dd9deb1b146105ed578063de1cf4ad146105b3578063e0a8f6f514610489578063ea0217cf146103e7578063eac3a6bd146103e2578063ecc52c04146103b75763f43b8778146102d157600080fd5b346103b25760203660031901126103b25760043580600052600c6020526040600020600a81019081549060ff8216600381101561039c576103129015614542565b60098101544210610362577f76254391687772340030bc79660c2d1e15dad744f94894a52e52863b5fca111592600160409360ff19161790556007600682015491015482519182526020820152a2005b60405162461bcd60e51b8152602060048201526012602482015271141bdb1b081b9bdd08195b991959081e595d60721b6044820152606490fd5b634e487b7160e01b600052602160045260246000fd5b600080fd5b346103b25760203660031901126103b25760206103da6103d5613ad4565b614580565b604051908152f35b613b66565b346103b25760203660031901126103b2576004356104036145b4565b620151808110158061047c575b15610446576020817f651c77f42613a075437aa794c44471e3abc3a661956a67aaee165bb7396974aa92600455604051908152a1005b60405162461bcd60e51b815260206004820152600e60248201526d125b9d985b1a59081c195c9a5bd960921b6044820152606490fd5b5062278d00811115610410565b346103b2576020806003193601126103b257600435908160005260068152604060002060018060a01b0360028201541633148015610591575b1561055b57600c019081549060ff8216600681101561039c5760018114908115610552575b501561051e575060ff191660051790557f416e669c63d9a3a5e36ee7cc7e2104b8db28ccd286aa18966e98fa230c73b08c600080a2005b6064906040519062461bcd60e51b82526004820152600d60248201526c10d85b9b9bdd0818d85b98d95b609a1b6044820152fd5b905015856104e7565b60405162461bcd60e51b815260048101839052600e60248201526d139bdd08185d5d1a1bdc9a5e995960921b6044820152606490fd5b506000805260008252604060002033600052825260ff604060002054166104c2565b346103b25760203660031901126103b2576001600160a01b036105d4613ad4565b16600052600b6020526020604060002054604051908152f35b346103b25760003660031901126103b2576020600554604051908152f35b346103b25760003660031901126103b2576020600754604051908152f35b346103b25760403660031901126103b257610668600435610648613aea565b9080600052600060205261066360016040600020015461464a565b61483b565b005b346103b25760403660031901126103b257610683613aea565b600435600052600860205260406000209060018060a01b0316600052602052606060406000206001815491015460ff604051928181161515845260081c1660208301526040820152f35b346103b25760203660031901126103b25760043560048110156103b2576106f381613975565b60009081526010602052604090205460125490811561074d576127108082029082820414821517156107375760409261072b91613ca8565b82519182526020820152f35b634e487b7160e01b600052601160045260246000fd5b60409150600061072b565b346103b25760203660031901126103b25761077161433c565b5060043560005260066020526107a161078d60406000206143cd565b604051918291602083526020830190613ba0565b0390f35b346103b25760a03660031901126103b257600460243510156103b2576044356001600160401b0381116103b2576107e0903690600401613b10565b60649081356001600160401b0381116103b257610801903690600401613b10565b6108096145ee565b610814602435613975565b60243515611256575b61082b83608435111561428d565b600435600052600c60205260406000209060ff600a83015416600381101561039c5760010361121257600b8201546111da576006820154610870600784015482614059565b9081156111a6576127109081810291818304149015171561073757610bb89161089891613ca8565b10611162576002546001830154604051636ded6a1960e11b815260048101919091523360248201526001600160a01b039091169390602081604481885afa801561111c5760009061112e575b6108f0915015156142d9565b600754936108fd8561400c565b60075561090b6024356148b0565b6101f481111561112857806101f319810111610737576101f31901955b60206001860154602460405180958193638cdc1e8760e01b835260048301525afa91821561111c576000926110e8575b5081156110ad575084600052600960205260406000205560018301549461098160045442614059565b6040519661098e88613902565b86885260208801523360408801526109a7602435613975565b60243560608801526040516109ca816109c38160038a01613850565b0382613954565b60808801526040516109e3816109c38160048a01613850565b60a08801526040516109fc816109c38160058a01613850565b60c0880152600060e0880152600061010088015260006101208801524261014088015261016087015261018086015260016101a08601526101c08501526101e0840152608435610200840152816000526006602052604060002083518155602084015160018201556002810160018060a01b036040860151168154906060870151610a8681613975565b610a8f81613975565b6001600160a81b03199092161760a09190911b60ff60a01b1617905560808401518051906001600160401b038211610ec457610adb82610ad26003860154613816565b60038601614066565b602090601f831160011461103b57610b0c929160009183610eda575b50508160011b916000199060031b1c19161790565b60038201555b60a08401518051906001600160401b038211610ec457610b4282610b396004860154613816565b60048601614066565b602090601f8311600114610fc957610b72929160009183610eda5750508160011b916000199060031b1c19161790565b60048201555b60c08401518051906001600160401b038211610ec457610ba882610b9f6005860154613816565b60058601614066565b602090601f8311600114610f5757610bd8929160009183610eda5750508160011b916000199060031b1c19161790565b60058201555b60e08401516006820155610100840151600782015561012084015160088201556101408401516009820155610160840151600a820155610180840151600b8201556101a0840151600681101561039c57610c3b90600c8301613d95565b6101c08401518051906001600160401b038211610ec457610c6c82610c63600d860154613816565b600d8601614066565b602090601f8311600114610ee557610c9c929160009183610eda5750508160011b916000199060031b1c19161790565b600d8201555b6101e08401519384516001600160401b038111610ec457602095610cd682610ccd600e870154613816565b600e8701614066565b8690601f8311600114610e50578261020093600f9593610d0c93600092610e455750508160011b916000199060031b1c19161790565b600e8501555b01519101558160ff19600281600a8501541617600a84015581600b84015560018301549260405191338352610d48602435613975565b60243587840152606060408401526000916003810154610d6781613816565b92836060870152600182169182600014610e17575050600114610dcd575b50509080600080516020614a75833981519152920390a360405190806004357ff57507588a3f55547e832ad7906fc1c90a328d2c78895bc24abf93c41e8568a0600080a38152f35b60030160009081528781209092505b818310610dff575050810160800181600080516020614a75833981519152610d85565b80548385016080015286945091870191600101610ddc565b86955060809350600080516020614a75833981519152969492501682840152151560051b8201019192610d85565b015190508a80610af7565b90600e8501600052876000209160005b601f1985168110610ead575092600f94926001926102009583601f19811610610e94575b505050811b01600e850155610d12565b015160001960f88460031b161c19169055898080610e84565b919289600181928685015181550194019201610e60565b634e487b7160e01b600052604160045260246000fd5b015190508780610af7565b9190600d84016000526020600020906000935b601f1984168510610f3c576001945083601f19811610610f23575b505050811b01600d820155610ca2565b015160001960f88460031b161c19169055868080610f13565b81810151835560209485019460019093019290910190610ef8565b9190600584016000526020600020906000935b601f1984168510610fae576001945083601f19811610610f95575b505050811b016005820155610bde565b015160001960f88460031b161c19169055868080610f85565b81810151835560209485019460019093019290910190610f6a565b9190600484016000526020600020906000935b601f1984168510611020576001945083601f19811610611007575b505050811b016004820155610b78565b015160001960f88460031b161c19169055868080610ff7565b81810151835560209485019460019093019290910190610fdc565b9190600384016000526020600020906000935b601f1984168510611092576001945083601f19811610611079575b505050811b016003820155610b12565b015160001960f88460031b161c19169055868080611069565b8181015183556020948501946001909301929091019061104e565b60405162461bcd60e51b81526020600482015260166024820152754e6f20766f74696e6720706f7765722065786973747360501b6044820152fd5b9091506020813d602011611114575b8161110460209383613954565b810103126103b257519087610958565b3d91506110f7565b6040513d6000823e3d90fd5b95610928565b506020813d60201161115a575b8161114860209383613954565b810103126103b2576108f090516108e4565b3d915061113b565b60405162461bcd60e51b815260206004820152601960248201527f496e73756666696369656e7420706f6c6c20737570706f72740000000000000060448201528490fd5b60405162461bcd60e51b815260206004820152600d60248201526c139bc81d9bdd195cc818d85cdd609a1b60448201528690fd5b60405162461bcd60e51b8152602060048201526011602482015270105b1c9958591e4818dbdb9d995c9d1959607a1b60448201528490fd5b60405162461bcd60e51b815260206004820152601860248201527f506f6c6c206d75737420626520656e646564206669727374000000000000000060448201528490fd5b611262815115156141c8565b61126f608435151561422b565b61081d565b346103b25760203660031901126103b257600435600052600f6020526020604060002054604051908152f35b346103b25760203660031901126103b25760043560048110156103b2576103da6020916148b0565b346103b25760403660031901126103b2576112e1613aea565b6000604080516112f08161391e565b8281528260208201520152600435600052600860205260406000209060018060a01b03166000526020526060604060002060405161132d8161391e565b60ff82546040600183831615159586865284602087019460081c1684520154930192835260405193845251166020830152516040820152f35b346103b25760003660031901126103b25760206040516107d08152f35b346103b25760203660031901126103b257600435600052600c6020526040600020805490600181015490600160a01b600190036002820154169260405191828060038301906113d191613850565b036113dc9084613954565b60405192836113ee8160048501613850565b036113f99085613954565b604051938461140b8160058601613850565b036114169086613954565b600683015494600784015490600885015492600986015494600a87015460ff1696600b0154976040519b8c9b610180928d5260208d015260408c01528060608c01528a016114639161397f565b89810360808b01526114749161397f565b88810360a08a01526114859161397f565b9560c088015260e087015261010086015261012085015261014084016114aa916139fa565b6101608301520390f35b346103b25760003660031901126103b257602060405160008152f35b346103b25760403660031901126103b25760043560243590811515918281036103b25781600052602090600c825260406000209060ff600a83015416600381101561039c5761151f9015614542565b60098201544210156115d757907fdf13ce4fcc43c19a08df4ffa6d471ae7bb1d6ffc3beb528ad821c873f798ce2f929184600052600e8352604060002033600052835260406000206001815461157860ff821615613fd0565b61ff008960081b169061ffff19161717905584600052600f835260406000206115a1815461400c565b9055156115c3576006016115b5815461400c565b90555b6040519384523393a3005b6007016115d0815461400c565b90556115b8565b60405162461bcd60e51b815260048101849052600a602482015269141bdb1b08195b99195960b21b6044820152606490fd5b346103b25760203660031901126103b25760206103da6004356144f5565b346103b25760203660031901126103b25760043560075481101561169557600052600660205261168b600e6040600020611677600f820154916116706040518095819301613850565b0383613954565b60405192839260408452604084019061397f565b9060208301520390f35b60405162461bcd60e51b815260206004820152601760248201527f50726f706f73616c20646f6573206e6f742065786973740000000000000000006044820152606490fd5b346103b25760003660031901126103b25760206040517fe2b7fb3b832174769106daebcfd6d1970523240dda11281102db9363b83b0dc48152f35b346103b25760003660031901126103b2576020600d54604051908152f35b346103b25760403660031901126103b25761174c613aea565b600435600052600060205260406000209060018060a01b0316600052602052602060ff604060002054166040519015158152f35b346103b25760003660031901126103b25760206040517fb09aa5aeb3702cfd50b6b62bc4532604938f21248a27a1d5ca736082b6819cc18152f35b346103b25760203660031901126103b2576004356117d76145b4565b6101f48111611811576020817f4ade7322d9a0c41dc254574f72d3d442f06addcc77917dcb9cb1ac4441d1b20f92600555604051908152a1005b60405162461bcd60e51b815260206004820152600e60248201526d084dedceae640e8dede40d0d2ced60931b6044820152606490fd5b346103b25760003660031901126103b25760206040517fa122aedc7c2408a97bcfe5d8ff1f6a6d7bf779a8b6dd3d72ff503e8fcf9d2eb98152f35b613b83565b346103b25760203660031901126103b2576001600160a01b036118a8613ad4565b1660005260036020526020604060002054604051908152f35b346103b2576020806003193601126103b2576004356000906000600d54905b818110611a1e575061190a6118f484614325565b936119026040519586613954565b808552614325565b601f19018460005b828110611a08575050506000805b82811061198557604080518781528651818901819052600092600582901b8301810191898b01918b9085015b8287106119595785850386f35b909192938280611975600193603f198a82030186528851613a07565b960192019601959291909261194c565b80600052600c9081875260406000209185600184015414806119eb575b600193506119b2575b5001611920565b8160005287526119e46040600020936119d36119cd8261400c565b95613e09565b6119dd828a6143b9565b52876143b9565b50876119ab565b5091600a60ff9101541691600383101561039c57600192156119a2565b611a10613dad565b828288010152018590611912565b80600052600c85526040600020836001820154149081611a5b575b50611a47575b6001016118e0565b92611a5360019161400c565b939050611a3f565b60ff9150600a015416600381101561039c571586611a39565b346103b25760403660031901126103b257611a8d613aea565b600435600052600e60205260406000209060018060a01b03166000526020526040806000205460ff8251918181161515835260081c1615156020820152f35b346103b2576020806003193601126103b2576004356000906000600754905b818110611c055750611aff6118f484614325565b601f19018460005b828110611bef575050506000805b828110611b7a57604080518781528651818901819052600092600582901b8301810191898b01918b9085015b828710611b4e5785850386f35b909192938280611b6a600193603f198a82030186528851613ba0565b9601920196019592919092611b41565b806000526006908187526040600020916001928684820154149081611bd3575b5060019350611bab575b5001611b15565b816000528752611bcc6040600020936119d3611bc68261400c565b956143cd565b5087611ba4565b60ff9150600c015416928184101561039c576001931489611b9a565b611bf761433c565b828288010152018590611b07565b8060005260068086526040600020906001908582840154149283611c48575b505050611c34575b600101611aeb565b92611c4060019161400c565b939050611c2c565b60ff91929350600c0154169081101561039c5714868080611c24565b346103b25760203660031901126103b2576001600160a01b03611c85613ad4565b16600052600a6020526020604060002054604051908152f35b346103b25760403660031901126103b257600435611cba613b00565b611cc2614670565b816000526020916006835260406000209160ff600c8401541693600685101561039c57611cf26001809614613ed2565b611d026009850154421015613f14565b611d11600a8501544210613f55565b60ff821693611d236002861115613f90565b83600052600882526040600020336000528252611d8c6040600020805494611d4e60ff871615613fd0565b60025489850154604051636ded6a1960e11b8152600481019190915233602482015293869185916001600160a01b0390911690829081906044820190565b03915afa95861561111c578993600097611e87575b5093868460ff94611ddc6002958498611e289a611dbf87151561401b565b891916178355829061ff0082549160081b169061ff001916179055565b015588611e5b5760078101611df2858254614059565b90555b33600052600a86526040600020611e0c815461400c565b905533600052600b865242604060002055015460a01c16614693565b6040519384528301527fb83d25c6a5d258561330739951487acb4bd09ba5190b5d32c4f261817d90679260403393a38055005b888a03611e785760068101611e71858254614059565b9055611df5565b60088101611e71858254614059565b9196509250908482813d8111611eb7575b611ea28183613954565b810103126103b2579051948892611e28611da1565b503d611e98565b346103b25760203660031901126103b257600435806000526006602052604060002090600c82019182549160ff8316600681101561039c576001611f029114613ed2565b600a8201544210611fab57600682015491600781015491611f31611f268486614059565b600884015490614059565b60009182526009602052604090912054908115611f9f576127109081810291818304149015171561073757600b91611f6891613ca8565b915b015411159182611f95575b505015611f8a5750805460ff19166002179055005b60ff19166003179055005b1190508380611f75565b5050600b600091611f6a565b60405162461bcd60e51b815260206004820152601060248201526f159bdd1a5b99c81b9bdd08195b99195960821b6044820152606490fd5b613ab7565b346103b25760203660031901126103b25760043560005260096020526020604060002054604051908152f35b346103b25760003660031901126103b2576020601254604051908152f35b346103b2576101003660031901126103b257600460243510156103b2576044356001600160401b0381116103b25761206e903690600401613b10565b6064356001600160401b0381116103b25761208d903690600401613b10565b906084356001600160401b0381116103b2576120ad903690600401613b10565b9060a4356001600160401b0381116103b2576120cd903690600401613b10565b60c4356001600160401b0381116103b2576120ec903690600401613b10565b906120f56145ee565b612100602435613975565b6024351561283a575b612118606460e435111561428d565b600254604051636ded6a1960e11b815260048035908201523360248201526001600160a01b0390911690602081604481855afa801561111c57600090612806575b612165915015156142d9565b600754946121728661400c565b6007556024602061218382356148b0565b9360405192838092638cdc1e8760e01b825260043560048301525afa90811561111c576000916127d4575b50801561277e578660005260096020526040600020556121d060045442614059565b90604051976121de89613902565b87895260043560208a01523360408a01526121fa602435613975565b60243560608a01528660808a015260a089015260c0880152600060e0880152600061010088015260006101208801524261014088015261016087015261018086015260016101a08601526101c08501526101e084015260e435610200840152816000526006602052604060002083518155602084015160018201556002810160018060a01b03604086015116815490606087015161229781613975565b6122a081613975565b6001600160a81b03199092161760a09190911b60ff60a01b1617905560808401518051906001600160401b038211610ec4576122e382610ad26003860154613816565b602090601f831160011461270c57612313929160009183610eda5750508160011b916000199060031b1c19161790565b60038201555b60a08401518051906001600160401b038211610ec45761234082610b396004860154613816565b602090601f831160011461269a57612370929160009183610eda5750508160011b916000199060031b1c19161790565b60048201555b60c08401518051906001600160401b038211610ec45761239d82610b9f6005860154613816565b602090601f8311600114612628576123cd929160009183610eda5750508160011b916000199060031b1c19161790565b60058201555b60e08401516006820155610100840151600782015561012084015160088201556101408401516009820155610160840151600a820155610180840151600b8201556101a0840151600681101561039c5761243090600c8301613d95565b6101c08401518051906001600160401b038211610ec45761245882610c63600d860154613816565b602090601f83116001146125ba57612488929160009183610eda5750508160011b916000199060031b1c19161790565b600d8201555b6101e08401519384516001600160401b038111610ec4576020956124b982610ccd600e870154613816565b8690601f8311600114612546578261020093600f95936124ef93600092610e455750508160011b916000199060031b1c19161790565b600e8501555b015191015581600080516020614a7583398151915260405133815261251b602435613975565b60243586820152606060408201528061253b60043595606083019061397f565b0390a3604051908152f35b90600e8501600052876000209160005b601f19851681106125a3575092600f94926001926102009583601f1981161061258a575b505050811b01600e8501556124f5565b015160001960f88460031b161c1916905589808061257a565b919289600181928685015181550194019201612556565b90601f19831691600d850160005260206000209260005b81811061261057509084600195949392106125f7575b505050811b01600d82015561248e565b015160001960f88460031b161c191690558680806125e7565b929360206001819287860151815501950193016125d1565b9190600584016000526020600020906000935b601f198416851061267f576001945083601f19811610612666575b505050811b0160058201556123d3565b015160001960f88460031b161c19169055868080612656565b8181015183556020948501946001909301929091019061263b565b9190600484016000526020600020906000935b601f19841685106126f1576001945083601f198116106126d8575b505050811b016004820155612376565b015160001960f88460031b161c191690558680806126c8565b818101518355602094850194600190930192909101906126ad565b9190600384016000526020600020906000935b601f1984168510612763576001945083601f1981161061274a575b505050811b016003820155612319565b015160001960f88460031b161c1916905586808061273a565b8181015183556020948501946001909301929091019061271f565b60405162461bcd60e51b815260206004820152602860248201527f4e6f20766f74696e6720706f7765722065786973747320666f7220746869732060448201526770726f706572747960c01b6064820152608490fd5b90506020813d6020116127fe575b816127ef60209383613954565b810103126103b25751886121ae565b3d91506127e2565b506020813d602011612832575b8161282060209383613954565b810103126103b2576121659051612159565b3d9150612813565b612846825115156141c8565b61285360e435151561422b565b612109565b346103b25760003660031901126103b25760206103da6140bc565b346103b25760003660031901126103b2576002546040516001600160a01b039091168152602090f35b346103b25760403660031901126103b2576128b5613aea565b336001600160a01b038216036128d1576106689060043561483b565b60405163334bd91960e11b8152600490fd5b346103b25760003660031901126103b25760206040517f00000000000000000000000000000000000000000000000000000000000000008152f35b346103b25760a03660031901126103b2576024356001600160401b0381116103b25761294e903690600401613b10565b6044356001600160401b0381116103b25761296d903690600401613b10565b906064356001600160401b0381116103b25761298d903690600401613b10565b9062015180608435101580612d90575b15612d5857600d54916129af8361400c565b600d556129be60843542614059565b90604051946129cc866138e6565b8486526004356020870152336040870152836060870152608086015260a0850152600060c0850152600060e0850152426101008501526101208401526000610140840152600061016084015281600052600c602052604060002083518155602084015160018201556002810160018060a01b036040860151166bffffffffffffffffffffffff60a01b82541617905560608401518051906001600160401b038211610ec457612a8282610ad26003860154613816565b602090601f8311600114612ce657612ab2929160009183610eda5750508160011b916000199060031b1c19161790565b60038201555b60808401518051906001600160401b038211610ec457612adf82610b396004860154613816565b602090601f8311600114612c7857612b0f929160009183610eda5750508160011b916000199060031b1c19161790565b60048201555b60a08401518051906001600160401b038211610ec457612b3c82610b9f6005860154613816565b602090601f8311600114612c0a57612b6c929160009183610eda5750508160011b916000199060031b1c19161790565b60058201555b60c0840151600682015560e0840151600782015561010084015160088201556101208401516009820155600a8101610140850151600381101561039c57602095600b926101609260ff801983541691161790550151910155817f658fccfc8de51891b480d49e504fbb0f8f9b43f13522a475d1729a74531a9e226040513381526040868201528061253b60043595604083019061397f565b90601f198316916005850160005260206000209260005b818110612c605750908460019594939210612c47575b505050811b016005820155612b72565b015160001960f88460031b161c19169055868080612c37565b92936020600181928786015181550195019301612c21565b90601f198316916004850160005260206000209260005b818110612cce5750908460019594939210612cb5575b505050811b016004820155612b15565b015160001960f88460031b161c19169055868080612ca5565b92936020600181928786015181550195019301612c8f565b9190600384016000526020600020906000935b601f1984168510612d3d576001945083601f19811610612d24575b505050811b016003820155612ab8565b015160001960f88460031b161c19169055868080612d14565b81810151835560209485019460019093019290910190612cf9565b60405162461bcd60e51b815260206004820152601060248201526f24b73b30b634b210323ab930ba34b7b760811b6044820152606490fd5b5062278d00608435111561299d565b346103b25760003660031901126103b257612db86145b4565b604051612dc481613939565b608036823760128054612e07575b6040517f229301218ef01ca6b8da4d31650c5fdf0265077519dfbbfaf6f3254aa666450b9080612e0285826139cc565b0390a1005b60005b60048110612e185750612dd2565b612e2181613975565b612e2a81613975565b8060005260209060108252604060002054916127109283810293818504149015171561073757612e5e600193855490613ca8565b612e688387613cc8565b526011612e758387613cc8565b5191612e8084613975565b836000525260406000205501612e0a565b346103b25760403660031901126103b257610668600435612eb0613aea565b90806000526000602052612ecb60016040600020015461464a565b6147bd565b346103b25760e03660031901126103b257612ee9613b00565b6044356001600160a01b03811690036103b25760ff60843516608435036103b2573360009081527ffaf93c3d007e112089dc8351e013e6685ef67703975d0224b26fc45941d4f1f560205260409020547fe2b7fb3b832174769106daebcfd6d1970523240dda11281102db9363b83b0dc49060ff161561333b5750612f6c614670565b6064354211613302576004356000526006602052604060002060ff600c82015416600681101561039c576001612fa29114613ed2565b612fb26009820154421015613f14565b612fc1600a8201544210613f55565b612fd1600260ff84161115613f90565b6004356000526008602052604060002060018060a01b036044351660005260205260406000209061300660ff83541615613fd0565b6044356001600160a01b0316600090815260036020526040902080549061302c8261400c565b90556040519060208201907fa122aedc7c2408a97bcfe5d8ff1f6a6d7bf779a8b6dd3d72ff503e8fcf9d2eb98252600435604084015260ff8616606084015260018060a01b0360443516608084015260a083015260643560c083015260c0825260e082018281106001600160401b03821117610ec4576131169261310d92826040528151902061012261010083019261190160f01b84527f00000000000000000000000000000000000000000000000000000000000000006101028201520152604282526130f982613939565b60c4359160a4359160843591519020614959565b909291926149e9565b6001600160a01b0360443581169116036132c9576002546001820154604051636ded6a1960e11b815260048101919091526001600160a01b036044803582166024840152919492602092869290918391165afa92831561111c57600093613292575b5060ff600261321593856001819561319183151561401b565b805461ff0060088c901b168719909116831761ff001916178155015586831661326357600781016131c3858254614059565b90555b6044356001600160a01b03166000908152600a6020526040902080546131eb9061400c565b90556044356001600160a01b03166000908152600b60205260409020429055015460a01c16614693565b60ff60405192168252602082015233604082015260018060a01b0360443516907fb7a759f14619c0391b65e3f8ceb8fd342a3e24929e81d83493445a4a1c87d0fc606060043592a360018055005b868316600103613283576006810161327c858254614059565b90556131c6565b6008810161327c858254614059565b9192506020823d6020116132c1575b816132ae60209383613954565b810103126103b2579051919060ff613178565b3d91506132a1565b60405162461bcd60e51b8152602060048201526011602482015270496e76616c6964207369676e617475726560781b6044820152606490fd5b60405162461bcd60e51b815260206004820152601160248201527014da59db985d1d5c9948195e1c1a5c9959607a1b6044820152606490fd5b6044906040519063e2517d3f60e01b82523360048301526024820152fd5b346103b25760003660031901126103b25760206040516109c48152f35b346103b25760203660031901126103b25760043560005260006020526020600160406000200154604051908152f35b346103b25760203660031901126103b2576133be613dad565b50600435600052600c6020526107a16133da6040600020613e09565b604051918291602083526020830190613a07565b346103b25760203660031901126103b25760043560048110156103b25761341481613975565b60005260116020526020604060002054604051908152f35b346103b25760203660031901126103b25760043560048110156103b25761345281613975565b60005260106020526020604060002054604051908152f35b346103b25760203660031901126103b2573360009081527fdae2aa361dfd1ca020a396615627d436107c35eff9fe7738a3512819782d70696020526040902054600435907fd8aa0f3194971a2a116679f7c2090f6939c8d4e01a2a8d7e41d55e5351469e639060ff161561333b57506134e1614670565b806000526006602052600c604060002001805460ff8116600681101561039c5760020361353c5760ff191660041790557f712ae1383f79ac853f8d882153778e0260ef8f03b504e2866e0593e04d2b291f600080a260018055005b60405162461bcd60e51b8152602060048201526016602482015275141c9bdc1bdcd85b081b9bdd081cdd58d8d95959195960521b6044820152606490fd5b346103b25760003660031901126103b2576107a1613596613cef565b604051918291826139cc565b346103b25760003660031901126103b25760206040517fd8aa0f3194971a2a116679f7c2090f6939c8d4e01a2a8d7e41d55e5351469e638152f35b346103b25760003660031901126103b2576020600454604051908152f35b346103b25760203660031901126103b25760043563ffffffff60e01b81168091036103b257602090637965db0b60e01b8114908115613640575b506040519015158152f35b6301ffc9a760e01b14905082613635565b346103b25760203660031901126103b257600435600052600660205260406000208054906001810154600282015491608080600383019061369191613850565b0360809061369e91613954565b604051806136af8160048501613850565b036136ba9082613954565b604051806136cb8160058601613850565b036136d69082613954565b600683015490600784015460088501546009860154600a87015491600b88015493600c89015460ff1695604051988980600d8d019061371491613850565b0361371f908b613954565b6040519a8b61373181600e8401613850565b0361373c908d613954565b600f01549b6040519e8f9e8f9061022093849383526020830152600160a01b60019003811660408301528060a01c60ff1661377690613975565b60a01c60ff166060820152608001528d016080906137939161397f565b8d810360a08f01526137a49161397f565b8c810360c08e01526137b59161397f565b9660e08c01526101008b01526101208a01526101408901526101608801526101808701526101a086016137e7916139bf565b8481036101c08601526137f99161397f565b8381036101e085015261380b9161397f565b906102008301520390f35b90600182811c92168015613846575b602083101461383057565b634e487b7160e01b600052602260045260246000fd5b91607f1691613825565b80546000939261385f82613816565b918282526020936001916001811690816000146138c75750600114613886575b5050505050565b90939495506000929192528360002092846000945b8386106138b35750505050010190388080808061387f565b80548587018301529401938590820161389b565b60ff19168685015250505090151560051b01019150388080808061387f565b61018081019081106001600160401b03821117610ec457604052565b61022081019081106001600160401b03821117610ec457604052565b606081019081106001600160401b03821117610ec457604052565b608081019081106001600160401b03821117610ec457604052565b90601f801991011681019081106001600160401b03821117610ec457604052565b6004111561039c57565b919082519283825260005b8481106139ab575050826000602080949584010152601f8019910116010190565b60208183018101518483018201520161398a565b90600682101561039c5752565b6080810192916000915b600483106139e357505050565b6001908251815260208091019201920191906139d6565b90600382101561039c5752565b90613a6c613a5a613a48610180855185526020860151602086015260018060a01b03604087015116604086015260608601519080606087015285019061397f565b6080850151848203608086015261397f565b60a084015183820360a085015261397f565b9160c081015160c083015260e081015160e083015261010080820151908301526101208082015190830152613aaa61014080830151908401906139fa565b6101608091015191015290565b346103b25760003660031901126103b25760206040516113888152f35b600435906001600160a01b03821682036103b257565b602435906001600160a01b03821682036103b257565b6024359060ff821682036103b257565b81601f820112156103b2578035906001600160401b038211610ec45760405192613b44601f8401601f191660200185613954565b828452602083830101116103b257816000926020809301838601378301015290565b346103b25760003660031901126103b25760206040516101f48152f35b346103b25760003660031901126103b2576020604051610bb88152f35b90613c9a613c86613c1e613c0c613bfa610220875187526020880151602088015260018060a01b0360408901511660408801526060880151613be181613975565b606088015260808801519080608089015287019061397f565b60a087015186820360a088015261397f565b60c086015185820360c087015261397f565b60e085015160e085015261010080860151908501526101208086015190850152610140808601519085015261016080860151908501526101808086015190850152613c726101a080870151908601906139bf565b6101c080860151908583039086015261397f565b6101e080850151908483039085015261397f565b916102008091015191015290565b8115613cb2570490565b634e487b7160e01b600052601260045260246000fd5b906004811015613cd95760051b0190565b634e487b7160e01b600052603260045260246000fd5b6040805191613cfd83613939565b60803684378290601254938415613d8e575060005b600480821015613d8557613d2582613975565b613d2e82613975565b81600052601060205284600020549061271091828102928184041490151715613d70575090613d5f86600193613ca8565b613d698286613cc8565b5201613d12565b601190634e487b7160e01b6000525260246000fd5b50509250905090565b9350915050565b90600681101561039c5760ff80198354169116179055565b60405190613dba826138e6565b8161016060009182815282602082015282604082015260608082015260606080820152606060a08201528260c08201528260e08201528261010082015282610120820152826101408201520152565b90604051613e16816138e6565b8092805482526001810154602083015260018060a01b036002820154166040830152604051613e4c816109c38160038601613850565b6060830152604051613e65816109c38160048601613850565b6080830152604051613e7e816109c38160058601613850565b60a0830152600681015460c0830152600781015460e08301526008810154610100830152600981015461012083015260ff600a82015416600381101561039c5761016091600b916101408501520154910152565b15613ed957565b60405162461bcd60e51b815260206004820152601360248201527250726f706f73616c206e6f742061637469766560681b6044820152606490fd5b15613f1b57565b60405162461bcd60e51b8152602060048201526012602482015271159bdd1a5b99c81b9bdd081cdd185c9d195960721b6044820152606490fd5b15613f5c57565b60405162461bcd60e51b815260206004820152600c60248201526b159bdd1a5b99c8195b99195960a21b6044820152606490fd5b15613f9757565b60405162461bcd60e51b8152602060048201526011602482015270496e76616c696420766f7465207479706560781b6044820152606490fd5b15613fd757565b60405162461bcd60e51b815260206004820152600d60248201526c105b1c9958591e481d9bdd1959609a1b6044820152606490fd5b60001981146107375760010190565b1561402257565b60405162461bcd60e51b815260206004820152600f60248201526e2737903b37ba34b733903837bbb2b960891b6044820152606490fd5b9190820180921161073757565b90601f811161407457505050565b6000916000526020600020906020601f850160051c830194106140b2575b601f0160051c01915b8281106140a757505050565b81815560010161409b565b9092508290614092565b60125480156141c2576000805b6004908183101561419d576140dd83613975565b6140e683613975565b82600052601060205260406000205461271090818102918183041490151715614188578461411391613ca8565b6109c4929060008482111561416457506109c319810190811161414f575b8303928311613d70575060019161414791614059565b9101906140c9565b601182634e487b7160e01b6000525260246000fd5b908403908482116141755750614131565b634e487b7160e01b815260118352602490fd5b601183634e487b7160e01b6000525260246000fd5b9250505060011c906113888201809211610737576127108083116141be5750565b9150565b50600090565b156141cf57565b60405162461bcd60e51b815260206004820152602e60248201527f496d70616374207265706f727420726571756972656420666f722050726f706560448201526d1c9d1e51195d995b1bdc1b595b9d60921b6064820152608490fd5b1561423257565b60405162461bcd60e51b815260206004820152602d60248201527f496d706163742073636f726520726571756972656420666f722050726f70657260448201526c1d1e51195d995b1bdc1b595b9d609a1b6064820152608490fd5b1561429457565b60405162461bcd60e51b815260206004820152601a60248201527f496d706163742073636f7265206d75737420626520302d3130300000000000006044820152606490fd5b156142e057565b60405162461bcd60e51b815260206004820152601b60248201527f4d75737420686f6c6420746f6b656e7320746f2070726f706f736500000000006044820152606490fd5b6001600160401b038111610ec45760051b60200190565b6040519061434982613902565b81610200600091828152826020820152826040820152606083818301528060808301528060a08301528060c08301528360e08301528361010083015283610120830152836101408301528361016083015283610180830152836101a0830152806101c08301526101e08201520152565b8051821015613cd95760209160051b010190565b9060408051906143dc82613902565b835482526001840154602083015260028401546001600160a01b038116828401529193849260a01c60ff1661441081613975565b60608401528151614428816109c38160038601613850565b60808401528151614440816109c38160048601613850565b60a08401528151614458816109c38160058601613850565b60c0840152600681015460e0840152600781015461010084015260088101546101208401526009810154610140840152600a810154610160840152600b81015461018084015260ff600c8201541690600682101561039c5761020092600f926101a086015280516144d0816109c381600d8701613850565b6101c0860152516144e8816109c381600e8601613850565b6101e08501520154910152565b600052600c60205260406000206145156007600683015492015482614059565b801561453b57612710918281029281840414901517156107375761453891613ca8565b90565b5050600090565b1561454957565b60405162461bcd60e51b815260206004820152600f60248201526e506f6c6c206e6f742061637469766560881b6044820152606490fd5b60018060a01b0316600052600b60205260406000205442034281116107375762278d0010156145ae57600090565b60055490565b3360009081527fad3228b676f7d3cd4284a5443f17f1962b36e491b30a40b2405849e597ba5fb5602052604081205460ff161561333b5750565b3360009081527f3412d5605ac6cd444957cedb533e5dacad6378b4bc819ebe3652188a665066d560205260409020547fb09aa5aeb3702cfd50b6b62bc4532604938f21248a27a1d5ca736082b6819cc19060ff161561333b5750565b80600052600060205260406000203360005260205260ff604060002054161561333b5750565b600260015414614681576002600155565b604051633ee5aeb560e01b8152600490fd5b91909161469f81613975565b600092818452602093601085526146ca6040928383206146c0828254614059565b9055601254614059565b948560125585614737575b839495506147037f0f5c781c3e6e5f46e3229c8b1e6e98f96d8a2fe20aa04baf40e0fba44a06d5f194613975565b8482526010815282808320549261471987613975565b8681526011835220549061472c86613975565b8351928352820152a2565b61474084613975565b8382526010815282822054612710908181029181830414901517156147a9577f0f5c781c3e6e5f46e3229c8b1e6e98f96d8a2fe20aa04baf40e0fba44a06d5f194959661478c91613ca8565b61479586613975565b8583526011825283832055859493506146d5565b634e487b7160e01b83526011600452602483fd5b9060009180835282602052604083209160018060a01b03169182845260205260ff6040842054161560001461483657808352826020526040832082845260205260408320600160ff198254161790557f2f8788117e7eff1d82e926ec794901d17c78024a50270940304540a733656f0d339380a4600190565b505090565b9060009180835282602052604083209160018060a01b03169182845260205260ff6040842054166000146148365780835282602052604083208284526020526040832060ff1981541690557ff6391f5c32d9c69d2a47ea670b442974b53935d1edc7fd64eb21e047a839171b339380a4600190565b6148b981613975565b8061491c576107d0905b6148cc81613975565b600052601160205261138860406000205410156148e65790565b6101f4811115614913576101f3198101908111610737575b6103e8908181101561490e575090565b905090565b506103e86148fe565b61492581613975565b6001810361493657610bb8906148c3565b61493f81613975565b60028103614950576109c4906148c3565b611388906148c3565b91907f7fffffffffffffffffffffffffffffff5d576e7357a4501ddfe92f46681b20a084116149dd57926020929160ff608095604051948552168484015260408301526060820152600092839182805260015afa156149d15780516001600160a01b038116156149c857918190565b50809160019190565b604051903d90823e3d90fd5b50505060009160039190565b6149f281613975565b806149fb575050565b614a0481613975565b60018103614a1e5760405163f645eedf60e01b8152600490fd5b614a2781613975565b60028103614a485760405163fce698f760e01b815260048101839052602490fd5b80614a54600392613975565b14614a5c5750565b602490604051906335e2f38360e21b82526004820152fdfeb1d569dc5621a0a51229b7ac0eff81f3e6df70a3f72fe608aa58f74bb69d7bb6a26469706673582212208a4db973eb5836bc2a134b6ea0b165e7d981bc63a2ab2561d9faf7004b08864564736f6c634300081800332f8788117e7eff1d82e926ec794901d17c78024a50270940304540a733656f0d",
  "linkReferences": {},
  "deployedLinkReferences": {}
}