{
  "_format": "hh-sol-artifact-1",
  "contractName": "Governance",
  "sourceName": "contracts/Governance.sol",
  "abi": [
    {
      "inputs": [
        {
          "internalType": "address",
          "name": "_propertyToken",
          "type": "address"
        }
      ],
      "stateMutability": "nonpayable",
      "type": "constructor"
    },
    {
      "inputs": [],
      "name": "AccessControlBadConfirmation",
      "type": "error"
    },
    {
      "inputs": [
        {
          "internalType": "address",
          "name": "account",
          "type": "address"
        },
        {
          "internalType": "bytes32",
          "name": "neededRole",
          "type": "bytes32"
        }
      ],
      "name": "AccessControlUnauthorizedAccount",
      "type": "error"
    },
    {
      "inputs": [],
      "name": "ReentrancyGuardReentrantCall",
      "type": "error"
    },
    {
      "anonymous": false,
      "inputs": [
        {
          "indexed": true,
          "internalType": "uint256",
          "name": "proposalId",
          "type": "uint256"
        }
      ],
      "name": "ProposalCancelled",
      "type": "event"
    },
    {
      "anonymous": false,
      "inputs": [
        {
          "indexed": true,
          "internalType": "uint256",
          "name": "proposalId",
          "type": "uint256"
        },
        {
          "indexed": true,
          "internalType": "uint256",
          "name": "propertyId",
          "type": "uint256"
        },
        {
          "indexed": false,
          "internalType": "address",
          "name": "proposer",
          "type": "address"
        },
        {
          "indexed": false,
          "internalType": "enum Governance.ProposalType",
          "name": "proposalType",
          "type": "uint8"
        },
        {
          "indexed": false,
          "internalType": "string",
          "name": "title",
          "type": "string"
        }
      ],
      "name": "ProposalCreated",
      "type": "event"
    },
    {
      "anonymous": false,
      "inputs": [
        {
          "indexed": true,
          "internalType": "uint256",
          "name": "proposalId",
          "type": "uint256"
        }
      ],
      "name": "ProposalExecuted",
      "type": "event"
    },
    {
      "anonymous": false,
      "inputs": [
        {
          "indexed": true,
          "internalType": "bytes32",
          "name": "role",
          "type": "bytes32"
        },
        {
          "indexed": true,
          "internalType": "bytes32",
          "name": "previousAdminRole",
          "type": "bytes32"
        },
        {
          "indexed": true,
          "internalType": "bytes32",
          "name": "newAdminRole",
          "type": "bytes32"
        }
      ],
      "name": "RoleAdminChanged",
      "type": "event"
    },
    {
      "anonymous": false,
      "inputs": [
        {
          "indexed": true,
          "internalType": "bytes32",
          "name": "role",
          "type": "bytes32"
        },
        {
          "indexed": true,
          "internalType": "address",
          "name": "account",
          "type": "address"
        },
        {
          "indexed": true,
          "internalType": "address",
          "name": "sender",
          "type": "address"
        }
      ],
      "name": "RoleGranted",
      "type": "event"
    },
    {
      "anonymous": false,
      "inputs": [
        {
          "indexed": true,
          "internalType": "bytes32",
          "name": "role",
          "type": "bytes32"
        },
        {
          "indexed": true,
          "internalType": "address",
          "name": "account",
          "type": "address"
        },
        {
          "indexed": true,
          "internalType": "address",
          "name": "sender",
          "type": "address"
        }
      ],
      "name": "RoleRevoked",
      "type": "event"
    },
    {
      "anonymous": false,
      "inputs": [
        {
          "indexed": true,
          "internalType": "uint256",
          "name": "proposalId",
          "type": "uint256"
        },
        {
          "indexed": true,
          "internalType": "address",
          "name": "voter",
          "type": "address"
        },
        {
          "indexed": false,
          "internalType": "uint8",
          "name": "support",
          "type": "uint8"
        },
        {
          "indexed": false,
          "internalType": "uint256",
          "name": "weight",
          "type": "uint256"
        }
      ],
      "name": "VoteCast",
      "type": "event"
    },
    {
      "anonymous": false,
      "inputs": [
        {
          "indexed": false,
          "internalType": "uint256",
          "name": "newBonus",
          "type": "uint256"
        }
      ],
      "name": "VoteToEarnBonusUpdated",
      "type": "event"
    },
    {
      "anonymous": false,
      "inputs": [
        {
          "indexed": false,
          "internalType": "uint256",
          "name": "newPeriod",
          "type": "uint256"
        }
      ],
      "name": "VotingPeriodUpdated",
      "type": "event"
    },
    {
      "inputs": [],
      "name": "DEFAULT_ADMIN_ROLE",
      "outputs": [
        {
          "internalType": "bytes32",
          "name": "",
          "type": "bytes32"
        }
      ],
      "stateMutability": "view",
      "type": "function"
    },
    {
      "inputs": [],
      "name": "EXECUTOR_ROLE",
      "outputs": [
        {
          "internalType": "bytes32",
          "name": "",
          "type": "bytes32"
        }
      ],
      "stateMutability": "view",
      "type": "function"
    },
    {
      "inputs": [],
      "name": "PROPOSER_ROLE",
      "outputs": [
        {
          "internalType": "bytes32",
          "name": "",
          "type": "bytes32"
        }
      ],
      "stateMutability": "view",
      "type": "function"
    },
    {
      "inputs": [],
      "name": "QUORUM_EMERGENCY",
      "outputs": [
        {
          "internalType": "uint256",
          "name": "",
          "type": "uint256"
        }
      ],
      "stateMutability": "view",
      "type": "function"
    },
    {
      "inputs": [],
      "name": "QUORUM_PARAMETER",
      "outputs": [
        {
          "internalType": "uint256",
          "name": "",
          "type": "uint256"
        }
      ],
      "stateMutability": "view",
      "type": "function"
    },
    {
      "inputs": [],
      "name": "QUORUM_PROPERTY",
      "outputs": [
        {
          "internalType": "uint256",
          "name": "",
          "type": "uint256"
        }
      ],
      "stateMutability": "view",
      "type": "function"
    },
    {
      "inputs": [],
      "name": "QUORUM_TREASURY",
      "outputs": [
        {
          "internalType": "uint256",
          "name": "",
          "type": "uint256"
        }
      ],
      "stateMutability": "view",
      "type": "function"
    },
    {
      "inputs": [
        {
          "internalType": "uint256",
          "name": "proposalId",
          "type": "uint256"
        }
      ],
      "name": "cancelProposal",
      "outputs": [],
      "stateMutability": "nonpayable",
      "type": "function"
    },
    {
      "inputs": [
        {
          "internalType": "uint256",
          "name": "proposalId",
          "type": "uint256"
        },
        {
          "internalType": "uint8",
          "name": "support",
          "type": "uint8"
        }
      ],
      "name": "castVote",
      "outputs": [],
      "stateMutability": "nonpayable",
      "type": "function"
    },
    {
      "inputs": [
        {
          "internalType": "uint256",
          "name": "propertyId",
          "type": "uint256"
        },
        {
          "internalType": "enum Governance.ProposalType",
          "name": "proposalType",
          "type": "uint8"
        },
        {
          "internalType": "string",
          "name": "title",
          "type": "string"
        },
        {
          "internalType": "string",
          "name": "description",
          "type": "string"
        },
        {
          "internalType": "string",
          "name": "ipfsHash",
          "type": "string"
        },
        {
          "internalType": "bytes",
          "name": "executionData",
          "type": "bytes"
        }
      ],
      "name": "createProposal",
      "outputs": [
        {
          "internalType": "uint256",
          "name": "",
          "type": "uint256"
        }
      ],
      "stateMutability": "nonpayable",
      "type": "function"
    },
    {
      "inputs": [
        {
          "internalType": "uint256",
          "name": "proposalId",
          "type": "uint256"
        }
      ],
      "name": "executeProposal",
      "outputs": [],
      "stateMutability": "nonpayable",
      "type": "function"
    },
    {
      "inputs": [
        {
          "internalType": "uint256",
          "name": "proposalId",
          "type": "uint256"
        }
      ],
      "name": "finalizeProposal",
      "outputs": [],
      "stateMutability": "nonpayable",
      "type": "function"
    },
    {
      "inputs": [
        {
          "internalType": "uint256",
          "name": "propertyId",
          "type": "uint256"
        }
      ],
      "name": "getActiveProposals",
      "outputs": [
        {
          "components": [
            {
              "internalType": "uint256",
              "name": "id",
              "type": "uint256"
            },
            {
              "internalType": "uint256",
              "name": "propertyId",
              "type": "uint256"
            },
            {
              "internalType": "address",
              "name": "proposer",
              "type": "address"
            },
            {
              "internalType": "enum Governance.ProposalType",
              "name": "proposalType",
              "type": "uint8"
            },
            {
              "internalType": "string",
              "name": "title",
              "type": "string"
            },
            {
              "internalType": "string",
              "name": "description",
              "type": "string"
            },
            {
              "internalType": "string",
              "name": "ipfsHash",
              "type": "string"
            },
            {
              "internalType": "uint256",
              "name": "votesFor",
              "type": "uint256"
            },
            {
              "internalType": "uint256",
              "name": "votesAgainst",
              "type": "uint256"
            },
            {
              "internalType": "uint256",
              "name": "votesAbstain",
              "type": "uint256"
            },
            {
              "internalType": "uint256",
              "name": "startTime",
              "type": "uint256"
            },
            {
              "internalType": "uint256",
              "name": "endTime",
              "type": "uint256"
            },
            {
              "internalType": "uint256",
              "name": "quorumRequired",
              "type": "uint256"
            },
            {
              "internalType": "enum Governance.ProposalStatus",
              "name": "status",
              "type": "uint8"
            },
            {
              "internalType": "bytes",
              "name": "executionData",
              "type": "bytes"
            }
          ],
          "internalType": "struct Governance.Proposal[]",
          "name": "",
          "type": "tuple[]"
        }
      ],
      "stateMutability": "view",
      "type": "function"
    },
    {
      "inputs": [
        {
          "internalType": "uint256",
          "name": "proposalId",
          "type": "uint256"
        }
      ],
      "name": "getProposal",
      "outputs": [
        {
          "components": [
            {
              "internalType": "uint256",
              "name": "id",
              "type": "uint256"
            },
            {
              "internalType": "uint256",
              "name": "propertyId",
              "type": "uint256"
            },
            {
              "internalType": "address",
              "name": "proposer",
              "type": "address"
            },
            {
              "internalType": "enum Governance.ProposalType",
              "name": "proposalType",
              "type": "uint8"
            },
            {
              "internalType": "string",
              "name": "title",
              "type": "string"
            },
            {
              "internalType": "string",
              "name": "description",
              "type": "string"
            },
            {
              "internalType": "string",
              "name": "ipfsHash",
              "type": "string"
            },
            {
              "internalType": "uint256",
              "name": "votesFor",
              "type": "uint256"
            },
            {
              "internalType": "uint256",
              "name": "votesAgainst",
              "type": "uint256"
            },
            {
              "internalType": "uint256",
              "name": "votesAbstain",
              "type": "uint256"
            },
            {
              "internalType": "uint256",
              "name": "startTime",
              "type": "uint256"
            },
            {
              "internalType": "uint256",
              "name": "endTime",
              "type": "uint256"
            },
            {
              "internalType": "uint256",
              "name": "quorumRequired",
              "type": "uint256"
            },
            {
              "internalType": "enum Governance.ProposalStatus",
              "name": "status",
              "type": "uint8"
            },
            {
              "internalType": "bytes",
              "name": "executionData",
              "type": "bytes"
            }
          ],
          "internalType": "struct Governance.Proposal",
          "name": "",
          "type": "tuple"
        }
      ],
      "stateMutability": "view",
      "type": "function"
    },
    {
      "inputs": [
        {
          "internalType": "bytes32",
          "name": "role",
          "type": "bytes32"
        }
      ],
      "name": "getRoleAdmin",
      "outputs": [
        {
          "internalType": "bytes32",
          "name": "",
          "type": "bytes32"
        }
      ],
      "stateMutability": "view",
      "type": "function"
    },
    {
      "inputs": [
        {
          "internalType": "uint256",
          "name": "proposalId",
          "type": "uint256"
        },
        {
          "internalType": "address",
          "name": "voter",
          "type": "address"
        }
      ],
      "name": "getVote",
      "outputs": [
        {
          "components": [
            {
              "internalType": "bool",
              "name": "hasVoted",
              "type": "bool"
            },
            {
              "internalType": "uint8",
              "name": "support",
              "type": "uint8"
            },
            {
              "internalType": "uint256",
              "name": "weight",
              "type": "uint256"
            }
          ],
          "internalType": "struct Governance.Vote",
          "name": "",
          "type": "tuple"
        }
      ],
      "stateMutability": "view",
      "type": "function"
    },
    {
      "inputs": [
        {
          "internalType": "address",
          "name": "voter",
          "type": "address"
        }
      ],
      "name": "getVoteToEarnBonus",
      "outputs": [
        {
          "internalType": "uint256",
          "name": "",
          "type": "uint256"
        }
      ],
      "stateMutability": "view",
      "type": "function"
    },
    {
      "inputs": [
        {
          "internalType": "bytes32",
          "name": "role",
          "type": "bytes32"
        },
        {
          "internalType": "address",
          "name": "account",
          "type": "address"
        }
      ],
      "name": "grantRole",
      "outputs": [],
      "stateMutability": "nonpayable",
      "type": "function"
    },
    {
      "inputs": [
        {
          "internalType": "bytes32",
          "name": "role",
          "type": "bytes32"
        },
        {
          "internalType": "address",
          "name": "account",
          "type": "address"
        }
      ],
      "name": "hasRole",
      "outputs": [
        {
          "internalType": "bool",
          "name": "",
          "type": "bool"
        }
      ],
      "stateMutability": "view",
      "type": "function"
    },
    {
      "inputs": [
        {
          "internalType": "address",
          "name": "",
          "type": "address"
        }
      ],
      "name": "lastVoteTimestamp",
      "outputs": [
        {
          "internalType": "uint256",
          "name": "",
          "type": "uint256"
        }
      ],
      "stateMutability": "view",
      "type": "function"
    },
    {
      "inputs": [],
      "name": "propertyToken",
      "outputs": [
        {
          "internalType": "contract IPropertyToken",
          "name": "",
          "type": "address"
        }
      ],
      "stateMutability": "view",
      "type": "function"
    },
    {
      "inputs": [],
      "name": "proposalCount",
      "outputs": [
        {
          "internalType": "uint256",
          "name": "",
          "type": "uint256"
        }
      ],
      "stateMutability": "view",
      "type": "function"
    },
    {
      "inputs": [
        {
          "internalType": "uint256",
          "name": "",
          "type": "uint256"
        }
      ],
      "name": "proposals",
      "outputs": [
        {
          "internalType": "uint256",
          "name": "id",
          "type": "uint256"
        },
        {
          "internalType": "uint256",
          "name": "propertyId",
          "type": "uint256"
        },
        {
          "internalType": "address",
          "name": "proposer",
          "type": "address"
        },
        {
          "internalType": "enum Governance.ProposalType",
          "name": "proposalType",
          "type": "uint8"
        },
        {
          "internalType": "string",
          "name": "title",
          "type": "string"
        },
        {
          "internalType": "string",
          "name": "description",
          "type": "string"
        },
        {
          "internalType": "string",
          "name": "ipfsHash",
          "type": "string"
        },
        {
          "internalType": "uint256",
          "name": "votesFor",
          "type": "uint256"
        },
        {
          "internalType": "uint256",
          "name": "votesAgainst",
          "type": "uint256"
        },
        {
          "internalType": "uint256",
          "name": "votesAbstain",
          "type": "uint256"
        },
        {
          "internalType": "uint256",
          "name": "startTime",
          "type": "uint256"
        },
        {
          "internalType": "uint256",
          "name": "endTime",
          "type": "uint256"
        },
        {
          "internalType": "uint256",
          "name": "quorumRequired",
          "type": "uint256"
        },
        {
          "internalType": "enum Governance.ProposalStatus",
          "name": "status",
          "type": "uint8"
        },
        {
          "internalType": "bytes",
          "name": "executionData",
          "type": "bytes"
        }
      ],
      "stateMutability": "view",
      "type": "function"
    },
    {
      "inputs": [
        {
          "internalType": "bytes32",
          "name": "role",
          "type": "bytes32"
        },
        {
          "internalType": "address",
          "name": "callerConfirmation",
          "type": "address"
        }
      ],
      "name": "renounceRole",
      "outputs": [],
      "stateMutability": "nonpayable",
      "type": "function"
    },
    {
      "inputs": [
        {
          "internalType": "bytes32",
          "name": "role",
          "type": "bytes32"
        },
        {
          "internalType": "address",
          "name": "account",
          "type": "address"
        }
      ],
      "name": "revokeRole",
      "outputs": [],
      "stateMutability": "nonpayable",
      "type": "function"
    },
    {
      "inputs": [
        {
          "internalType": "uint256",
          "name": "newBonus",
          "type": "uint256"
        }
      ],
      "name": "setVoteToEarnBonus",
      "outputs": [],
      "stateMutability": "nonpayable",
      "type": "function"
    },
    {
      "inputs": [
        {
          "internalType": "uint256",
          "name": "newPeriod",
          "type": "uint256"
        }
      ],
      "name": "setVotingPeriod",
      "outputs": [],
      "stateMutability": "nonpayable",
      "type": "function"
    },
    {
      "inputs": [
        {
          "internalType": "bytes4",
          "name": "interfaceId",
          "type": "bytes4"
        }
      ],
      "name": "supportsInterface",
      "outputs": [
        {
          "internalType": "bool",
          "name": "",
          "type": "bool"
        }
      ],
      "stateMutability": "view",
      "type": "function"
    },
    {
      "inputs": [
        {
          "internalType": "uint256",
          "name": "",
          "type": "uint256"
        }
      ],
      "name": "totalVotingPower",
      "outputs": [
        {
          "internalType": "uint256",
          "name": "",
          "type": "uint256"
        }
      ],
      "stateMutability": "view",
      "type": "function"
    },
    {
      "inputs": [],
      "name": "voteToEarnBonus",
      "outputs": [
        {
          "internalType": "uint256",
          "name": "",
          "type": "uint256"
        }
      ],
      "stateMutability": "view",
      "type": "function"
    },
    {
      "inputs": [
        {
          "internalType": "address",
          "name": "",
          "type": "address"
        }
      ],
      "name": "voterParticipationCount",
      "outputs": [
        {
          "internalType": "uint256",
          "name": "",
          "type": "uint256"
        }
      ],
      "stateMutability": "view",
      "type": "function"
    },
    {
      "inputs": [
        {
          "internalType": "uint256",
          "name": "",
          "type": "uint256"
        },
        {
          "internalType": "address",
          "name": "",
          "type": "address"
        }
      ],
      "name": "votes",
      "outputs": [
        {
          "internalType": "bool",
          "name": "hasVoted",
          "type": "bool"
        },
        {
          "internalType": "uint8",
          "name": "support",
          "type": "uint8"
        },
        {
          "internalType": "uint256",
          "name": "weight",
          "type": "uint256"
        }
      ],
      "stateMutability": "view",
      "type": "function"
    },
    {
      "inputs": [],
      "name": "votingPeriod",
      "outputs": [
        {
          "internalType": "uint256",
          "name": "",
          "type": "uint256"
        }
      ],
      "stateMutability": "view",
      "type": "function"
    }
  ],
  "bytecode": "0x608034620000ae57601f620023e338819003918201601f19168301916001600160401b03831184841017620000b357808492602094604052833981010312620000ae57516001600160a01b03811690819003620000ae576001805562093a806003556032600455600280546001600160a01b0319169190911790556200008533620000c9565b50620000913362000149565b506200009d33620001eb565b5060405161213a9081620002898239f35b600080fd5b634e487b7160e01b600052604160045260246000fd5b6001600160a01b031660008181527fad3228b676f7d3cd4284a5443f17f1962b36e491b30a40b2405849e597ba5fb5602052604081205490919060ff166200014557818052816020526040822081835260205260408220600160ff198254161790553391600080516020620023c38339815191528180a4600190565b5090565b6001600160a01b031660008181527f3412d5605ac6cd444957cedb533e5dacad6378b4bc819ebe3652188a665066d560205260408120549091907fb09aa5aeb3702cfd50b6b62bc4532604938f21248a27a1d5ca736082b6819cc19060ff16620001e657808352826020526040832082845260205260408320600160ff19825416179055600080516020620023c3833981519152339380a4600190565b505090565b6001600160a01b031660008181527fdae2aa361dfd1ca020a396615627d436107c35eff9fe7738a3512819782d706960205260408120549091907fd8aa0f3194971a2a116679f7c2090f6939c8d4e01a2a8d7e41d55e5351469e639060ff16620001e657808352826020526040832082845260205260408320600160ff19825416179055600080516020620023c3833981519152339380a460019056fe608080604052600436101561001357600080fd5b60003560e01c908163013cf08b1461182e5750806301ffc9a7146117d857806302a251a3146117ba57806307bd02651461177f5780630d61b5191461166f578063248a9ca314611640578063248bd471146116235780632f2ff15d146115e457806336568abe1461159d57806342a7c6141461158057806343ae269514611557578063536f9f421461152b5780635394c8791461150e5780635652077c146113c057806356781388146110c75780635c7b264d1461108d5780636213e5ea14610ed2578063872d154414610e465780638f61f4f514610e0b57806391d1485414610dbe5780639b699e57146105da578063a217fddf146105be578063b277d02a146105a1578063bc3f931f14610503578063c7f758a8146104b6578063d23254b414610453578063d547741f14610412578063da35c664146103f4578063dd9deb1b146103d6578063de1cf4ad1461039c578063e0a8f6f51461025c578063ea0217cf146101ba5763ecc52c041461018a57600080fd5b346101b55760203660031901126101b55760206101ad6101a8611b44565b611f22565b604051908152f35b600080fd5b346101b55760203660031901126101b5576004356101d6611f56565b620151808110158061024f575b15610219576020817f651c77f42613a075437aa794c44471e3abc3a661956a67aaee165bb7396974aa92600355604051908152a1005b60405162461bcd60e51b815260206004820152600e60248201526d125b9d985b1a59081c195c9a5bd960921b6044820152606490fd5b5062278d008111156101e3565b346101b5576020806003193601126101b557600435908160005260058152604060002060018060a01b036002820154163314801561037a575b1561034457600c019081549060ff8216600681101561032e5760018114908115610325575b50156102f1575060ff191660051790557f416e669c63d9a3a5e36ee7cc7e2104b8db28ccd286aa18966e98fa230c73b08c600080a2005b6064906040519062461bcd60e51b82526004820152600d60248201526c10d85b9b9bdd0818d85b98d95b609a1b6044820152fd5b905015856102ba565b634e487b7160e01b600052602160045260246000fd5b60405162461bcd60e51b815260048101839052600e60248201526d139bdd08185d5d1a1bdc9a5e995960921b6044820152606490fd5b506000805260008252604060002033600052825260ff60406000205416610295565b346101b55760203660031901126101b5576001600160a01b036103bd611b44565b16600052600a6020526020604060002054604051908152f35b346101b55760003660031901126101b5576020600454604051908152f35b346101b55760003660031901126101b5576020600654604051908152f35b346101b55760403660031901126101b557610451600435610431611b2e565b9080600052600060205261044c600160406000200154611f90565b612057565b005b346101b55760403660031901126101b55761046c611b2e565b600435600052600760205260406000209060018060a01b0316600052602052606060406000206001815491015460ff604051928181161515845260081c1660208301526040820152f35b346101b55760203660031901126101b5576104cf611d16565b5060043560005260056020526104ff6104eb6040600020611dba565b604051918291602083526020830190611b5a565b0390f35b346101b55760403660031901126101b55761051c611b2e565b60006040805161052b81611a98565b8281528260208201520152600435600052600760205260406000209060018060a01b03166000526020526060604060002060405161056881611a98565b60ff82546040600183831615159586865284602087019460081c1684520154930192835260405193845251166020830152516040820152f35b346101b55760003660031901126101b55760206040516107d08152f35b346101b55760003660031901126101b557602060405160008152f35b346101b55760c03660031901126101b557600460243510156101b5576044356001600160401b0381116101b557610615903690600401611c86565b6064356001600160401b0381116101b557610634903690600401611c86565b906084356001600160401b0381116101b557610654903690600401611c86565b9060a4356001600160401b0381116101b557366023820112156101b557610685903690602481600401359101611c40565b3360009081527f3412d5605ac6cd444957cedb533e5dacad6378b4bc819ebe3652188a665066d560205260409020547fb09aa5aeb3702cfd50b6b62bc4532604938f21248a27a1d5ca736082b6819cc19060ff1615610da05750600254604051636ded6a1960e11b815260048035908201523360248201526001600160a01b0390911690602081604481855afa908115610d1d57600091610d6e575b5015610d29576006549361073485611cf0565b6006556024602061074582356120cc565b9360405192838092638cdc1e8760e01b825260043560048301525afa908115610d1d57600091610ceb575b508015610c955785600052600860205260406000205561079260035442611ce3565b90604051966107a088611a7c565b86885260043560208901523360408901526107c060243560608a01611dae565b85608089015260a088015260c0870152600060e0870152600061010087015260006101208701524261014087015261016086015261018085015260016101a08501526101c08401528160005260056020526040600020835181556020840151600182015560018060a01b036040850151166002820154906060860151600481101561032e576001600160a81b03199092161760a09190911b60ff60a01b1617600282015560808401518051906001600160401b038211610b29576108948261088b60038601546119ac565b60038601611ecc565b602090601f8311600114610c23576108c5929160009183610ab8575b50508160011b916000199060031b1c19161790565b60038201555b60a08401518051906001600160401b038211610b29576108fb826108f260048601546119ac565b60048601611ecc565b602090601f8311600114610bb15761092b929160009183610ab85750508160011b916000199060031b1c19161790565b60048201555b60c08401518051906001600160401b038211610b29576109618261095860058601546119ac565b60058601611ecc565b602090601f8311600114610b3f57610991929160009183610ab85750508160011b916000199060031b1c19161790565b60058201555b60e08401516006820155610100840151600782015561012084015160088201556101408401516009820155610160840151600a820155610180840151600b820155600c8101906101a085015190600682101561032e576101c092600d9260ff80198354169116179055019301519283516001600160401b038111610b2957602094610a2c82610a2685546119ac565b85611ecc565b8590601f8311600114610ac357610a5b929160009183610ab85750508160011b916000199060031b1c19161790565b90555b817fb1d569dc5621a0a51229b7ac0eff81f3e6df70a3f72fe608aa58f74bb69d7bb6604051338152610a94868201602435611ad4565b6060604082015280610aad600435956060830190611ae1565b0390a3604051908152f35b0151905087806108b0565b90601f1983169184600052876000209260005b818110610b125750908460019594939210610af9575b505050811b019055610a5e565b015160001960f88460031b161c19169055868080610aec565b929389600181928786015181550195019301610ad6565b634e487b7160e01b600052604160045260246000fd5b9190600584016000526020600020906000935b601f1984168510610b96576001945083601f19811610610b7d575b505050811b016005820155610997565b015160001960f88460031b161c19169055868080610b6d565b81810151835560209485019460019093019290910190610b52565b9190600484016000526020600020906000935b601f1984168510610c08576001945083601f19811610610bef575b505050811b016004820155610931565b015160001960f88460031b161c19169055868080610bdf565b81810151835560209485019460019093019290910190610bc4565b9190600384016000526020600020906000935b601f1984168510610c7a576001945083601f19811610610c61575b505050811b0160038201556108cb565b015160001960f88460031b161c19169055868080610c51565b81810151835560209485019460019093019290910190610c36565b60405162461bcd60e51b815260206004820152602860248201527f4e6f20766f74696e6720706f7765722065786973747320666f7220746869732060448201526770726f706572747960c01b6064820152608490fd5b90506020813d602011610d15575b81610d0660209383611ab3565b810103126101b5575187610770565b3d9150610cf9565b6040513d6000823e3d90fd5b60405162461bcd60e51b815260206004820152601b60248201527f4d75737420686f6c6420746f6b656e7320746f2070726f706f736500000000006044820152606490fd5b90506020813d602011610d98575b81610d8960209383611ab3565b810103126101b5575186610721565b3d9150610d7c565b6044906040519063e2517d3f60e01b82523360048301526024820152fd5b346101b55760403660031901126101b557610dd7611b2e565b600435600052600060205260406000209060018060a01b0316600052602052602060ff604060002054166040519015158152f35b346101b55760003660031901126101b55760206040517fb09aa5aeb3702cfd50b6b62bc4532604938f21248a27a1d5ca736082b6819cc18152f35b346101b55760203660031901126101b557600435610e62611f56565b6101f48111610e9c576020817f4ade7322d9a0c41dc254574f72d3d442f06addcc77917dcb9cb1ac4441d1b20f92600455604051908152a1005b60405162461bcd60e51b815260206004820152600e60248201526d084dedceae640e8dede40d0d2ced60931b6044820152606490fd5b346101b5576020806003193601126101b5576006805460009190600435835b8281106110345750610f1b610f0585611cff565b94610f136040519687611ab3565b808652611cff565b601f19018560005b82811061101e5750505060009060005b838110610f9857604080518881528751818a01819052600092600582901b83018101918a8c01918c9085015b828710610f6c5785850386f35b909192938280610f88600193603f198a82030186528851611b5a565b9601920196019592919092610f5f565b806000526005908188526040600020916001928484820154149081611002575b5060019350610fc9575b5001610f33565b816000528852610ffb604060002094610fea610fe482611cf0565b96611dba565b610ff4828b611d84565b5288611d84565b5088610fc2565b60ff9150600c015416928784101561032e57600193148a610fb8565b611026611d16565b828289010152018690610f23565b8060005260058652604060002060018381830154149182611073575b505061105f575b600101610ef1565b9361106b600191611cf0565b949050611057565b60ff919250600c0154168581101561032e57148780611050565b346101b55760203660031901126101b5576001600160a01b036110ae611b44565b1660005260096020526020604060002054604051908152f35b346101b55760403660031901126101b5576024803560ff81166004358183036101b5576110f2611fb6565b80600052602060058152604060002060ff600c820154169460068610156113ab576111206001809714611ca1565b6009820154421061137257600a82015442101561133f5760028511611307578360005260078352604060002033600052835260406000209081549060ff82166112d35760025488850154604051636ded6a1960e11b81526004810191909152336024820152989997989697908690889060449082906001600160a01b03165afa968715610d1d576000976112a4575b50861561126f57509188809261ff00889560081b169061ffff19161717815501558415600014611245576007016111e7838254611ce3565b90555b336000526009815260406000206112018154611cf0565b905533600052600a8152426040600020556040519384528301527fb83d25c6a5d258561330739951487acb4bd09ba5190b5d32c4f261817d90679260403393a38055005b8486036112615760060161125a838254611ce3565b90556111ea565b60080161125a838254611ce3565b85600f6064926040519262461bcd60e51b845260048401528201526e2737903b37ba34b733903837bbb2b960891b6044820152fd5b9096508581813d83116112cc575b6112bc8183611ab3565b810103126101b55751958a6111af565b503d6112b2565b60405162461bcd60e51b815260048101869052600d818b01526c105b1c9958591e481d9bdd1959609a1b6044820152606490fd5b60405162461bcd60e51b81526004810184905260118189015270496e76616c696420766f7465207479706560781b6044820152606490fd5b60405162461bcd60e51b815260048101849052600c818901526b159bdd1a5b99c8195b99195960a21b6044820152606490fd5b60405162461bcd60e51b81526004810184905260128189015271159bdd1a5b99c81b9bdd081cdd185c9d195960721b6044820152606490fd5b86634e487b7160e01b60005260216004526000fd5b346101b55760203660031901126101b557600435806000526005602052604060002090600c82019182549160ff8316600681101561032e5760016114049114611ca1565b600a82015442106114d6576006820154916007810154916114336114288486611ce3565b600884015490611ce3565b600091825260086020526040909120548015806114c957612710928381029381850414901517156114b35761149d57600b9104915b015411159182611493575b5050156114885750805460ff19166002179055005b60ff19166003179055005b1190508380611473565b634e487b7160e01b600052601260045260246000fd5b634e487b7160e01b600052601160045260246000fd5b505050600b600091611468565b60405162461bcd60e51b815260206004820152601060248201526f159bdd1a5b99c81b9bdd08195b99195960821b6044820152606490fd5b346101b55760003660031901126101b55760206040516113888152f35b346101b55760203660031901126101b55760043560005260086020526020604060002054604051908152f35b346101b55760003660031901126101b5576002546040516001600160a01b039091168152602090f35b346101b55760003660031901126101b5576020604051610bb88152f35b346101b55760403660031901126101b5576115b6611b2e565b336001600160a01b038216036115d25761045190600435612057565b60405163334bd91960e11b8152600490fd5b346101b55760403660031901126101b557610451600435611603611b2e565b9080600052600060205261161e600160406000200154611f90565b611fd9565b346101b55760003660031901126101b55760206040516109c48152f35b346101b55760203660031901126101b55760043560005260006020526020600160406000200154604051908152f35b346101b55760203660031901126101b5573360009081527fdae2aa361dfd1ca020a396615627d436107c35eff9fe7738a3512819782d70696020526040902054600435907fd8aa0f3194971a2a116679f7c2090f6939c8d4e01a2a8d7e41d55e5351469e639060ff1615610da057506116e6611fb6565b806000526005602052600c604060002001805460ff8116600681101561032e576002036117415760ff191660041790557f712ae1383f79ac853f8d882153778e0260ef8f03b504e2866e0593e04d2b291f600080a260018055005b60405162461bcd60e51b8152602060048201526016602482015275141c9bdc1bdcd85b081b9bdd081cdd58d8d95959195960521b6044820152606490fd5b346101b55760003660031901126101b55760206040517fd8aa0f3194971a2a116679f7c2090f6939c8d4e01a2a8d7e41d55e5351469e638152f35b346101b55760003660031901126101b5576020600354604051908152f35b346101b55760203660031901126101b55760043563ffffffff60e01b81168091036101b557602090637965db0b60e01b811490811561181d575b506040519015158152f35b6301ffc9a760e01b14905082611812565b346101b55760203660031901126101b55760043560005260056020526040600020908154916001810154916002820154928180600385019061186f916119e6565b0361187a9083611ab3565b604051918261188c81600487016119e6565b036118979084611ab3565b60405192836118a981600588016119e6565b036118b49085611ab3565b6006850154936007860154600887015490600988015492600a89015494600b8a015496600c8b015460ff169860405180600d819e01906118f3916119e6565b036118fe908d611ab3565b6040519d8e809e6101e093849383526020830152600160a01b6001900381166040830152606082019060a01c60ff169061193791611ad4565b608001528c0161194691611ae1565b8b810360a08d015261195791611ae1565b8a810360c08c015261196891611ae1565b9660e08a01526101008901526101208801526101408701526101608601526101808501526101a0840161199a91611b21565b8281036101c08401526104ff91611ae1565b90600182811c921680156119dc575b60208310146119c657565b634e487b7160e01b600052602260045260246000fd5b91607f16916119bb565b8054600093926119f5826119ac565b91828252602093600191600181169081600014611a5d5750600114611a1c575b5050505050565b90939495506000929192528360002092846000945b838610611a4957505050500101903880808080611a15565b805485870183015294019385908201611a31565b60ff19168685015250505090151560051b010191503880808080611a15565b6101e081019081106001600160401b03821117610b2957604052565b606081019081106001600160401b03821117610b2957604052565b90601f801991011681019081106001600160401b03821117610b2957604052565b90600482101561032e5752565b919082519283825260005b848110611b0d575050826000602080949584010152601f8019910116010190565b602081830181015184830182015201611aec565b90600682101561032e5752565b602435906001600160a01b03821682036101b557565b600435906001600160a01b03821682036101b557565b90611c3d91611bd5611bc3611bb16101e0845186526020850151602087015260018060a01b036040860151166040870152611b9d60608601516060880190611ad4565b608085015190806080880152860190611ae1565b60a084015185820360a0870152611ae1565b60c083015184820360c0860152611ae1565b9160e082015160e082015261010080830151908201526101208083015190820152610140808301519082015261016080830151908201526101808083015190820152611c2a6101a08084015190830190611b21565b6101c08092015191818403910152611ae1565b90565b9291926001600160401b038211610b295760405191611c69601f8201601f191660200184611ab3565b8294818452818301116101b5578281602093846000960137010152565b9080601f830112156101b557816020611c3d93359101611c40565b15611ca857565b60405162461bcd60e51b815260206004820152601360248201527250726f706f73616c206e6f742061637469766560681b6044820152606490fd5b919082018092116114b357565b60001981146114b35760010190565b6001600160401b038111610b295760051b60200190565b60405190611d2382611a7c565b60606101c083600080825280602083015280604083015280848301528360808301528360a08301528360c08301528060e083015280610100830152806101208301528061014083015280610160830152806101808301526101a08201520152565b8051821015611d985760209160051b010190565b634e487b7160e01b600052603260045260246000fd5b600482101561032e5752565b90604091825192611dca84611a7c565b815484526001820154602085015260028201546001600160a01b038116828601528490611e009060a01c60ff1660608301611dae565b8151611e1a81611e1381600388016119e6565b0382611ab3565b60808201528151611e3281611e1381600488016119e6565b60a08201528151611e4a81611e1381600588016119e6565b60c0820152600683015460e0820152600783015461010082015260088301546101208201526009830154610140820152600a830154610160820152600b83015461018082015260ff600c8401541691600683101561032e57600d93611ec1611ec8926101c0956101a08601525180968193016119e6565b0384611ab3565b0152565b90601f8111611eda57505050565b6000916000526020600020906020601f850160051c83019410611f18575b601f0160051c01915b828110611f0d57505050565b818155600101611f01565b9092508290611ef8565b60018060a01b0316600052600a60205260406000205442034281116114b35762278d001015611f5057600090565b60045490565b3360009081527fad3228b676f7d3cd4284a5443f17f1962b36e491b30a40b2405849e597ba5fb5602052604081205460ff1615610da05750565b80600052600060205260406000203360005260205260ff6040600020541615610da05750565b600260015414611fc7576002600155565b604051633ee5aeb560e01b8152600490fd5b9060009180835282602052604083209160018060a01b03169182845260205260ff6040842054161560001461205257808352826020526040832082845260205260408320600160ff198254161790557f2f8788117e7eff1d82e926ec794901d17c78024a50270940304540a733656f0d339380a4600190565b505090565b9060009180835282602052604083209160018060a01b03169182845260205260ff6040842054166000146120525780835282602052604083208284526020526040832060ff1981541690557ff6391f5c32d9c69d2a47ea670b442974b53935d1edc7fd64eb21e047a839171b339380a4600190565b600481101561032e5780156120fd57600181146120f6576002146120f05761138890565b6109c490565b50610bb890565b506107d09056fea2646970667358221220df64ab50b4f35972671ea8c520deae06dffc2cff95be2c530d1ae01613d3835364736f6c634300081800332f8788117e7eff1d82e926ec794901d17c78024a50270940304540a733656f0d",
  "linkReferences": {},
  "deployedLinkReferences": {}
}