{
  "_format": "hh-sol-artifact-1",
  "contractName": "Governance",
  "sourceName": "contracts/Governance.sol",
  "abi": [
    {
      "inputs": [
        {
          "internalType": "address",
          "name": "_propertyToken",
          "type": "address"
        }
      ],
      "stateMutability": "nonpayable",
      "type": "constructor"
    },
    {
      "inputs": [],
      "name": "AccessControlBadConfirmation",
      "type": "error"
    },
    {
      "inputs": [
        {
          "internalType": "address",
          "name": "account",
          "type": "address"
        },
        {
          "internalType": "bytes32",
          "name": "neededRole",
          "type": "bytes32"
        }
      ],
      "name": "AccessControlUnauthorizedAccount",
      "type": "error"
    },
    {
      "inputs": [],
      "name": "ECDSAInvalidSignature",
      "type": "error"
    },
    {
      "inputs": [
        {
          "internalType": "uint256",
          "name": "length",
          "type": "uint256"
        }
      ],
      "name": "ECDSAInvalidSignatureLength",
      "type": "error"
    },
    {
      "inputs": [
        {
          "internalType": "bytes32",
          "name": "s",
          "type": "bytes32"
        }
      ],
      "name": "ECDSAInvalidSignatureS",
      "type": "error"
    },
    {
      "inputs": [],
      "name": "ReentrancyGuardReentrantCall",
      "type": "error"
    },
    {
      "anonymous": false,
      "inputs": [
        {
          "indexed": false,
          "internalType": "uint256[4]",
          "name": "demandBars",
          "type": "uint256[4]"
        }
      ],
      "name": "DemandSnapshotTaken",
      "type": "event"
    },
    {
      "anonymous": false,
      "inputs": [
        {
          "indexed": true,
          "internalType": "enum Governance.ProposalType",
          "name": "proposalType",
          "type": "uint8"
        },
        {
          "indexed": false,
          "internalType": "uint256",
          "name": "demandWeight",
          "type": "uint256"
        },
        {
          "indexed": false,
          "internalType": "uint256",
          "name": "demandBps",
          "type": "uint256"
        }
      ],
      "name": "DemandUpdated",
      "type": "event"
    },
    {
      "anonymous": false,
      "inputs": [
        {
          "indexed": true,
          "internalType": "uint256",
          "name": "proposalId",
          "type": "uint256"
        },
        {
          "indexed": true,
          "internalType": "address",
          "name": "voter",
          "type": "address"
        },
        {
          "indexed": false,
          "internalType": "uint8",
          "name": "support",
          "type": "uint8"
        },
        {
          "indexed": false,
          "internalType": "uint256",
          "name": "weight",
          "type": "uint256"
        },
        {
          "indexed": false,
          "internalType": "address",
          "name": "relayer",
          "type": "address"
        }
      ],
      "name": "OffChainVoteCast",
      "type": "event"
    },
    {
      "anonymous": false,
      "inputs": [
        {
          "indexed": true,
          "internalType": "uint256",
          "name": "pollId",
          "type": "uint256"
        },
        {
          "indexed": true,
          "internalType": "uint256",
          "name": "proposalId",
          "type": "uint256"
        }
      ],
      "name": "PollConvertedToProposal",
      "type": "event"
    },
    {
      "anonymous": false,
      "inputs": [
        {
          "indexed": true,
          "internalType": "uint256",
          "name": "pollId",
          "type": "uint256"
        },
        {
          "indexed": true,
          "internalType": "uint256",
          "name": "propertyId",
          "type": "uint256"
        },
        {
          "indexed": false,
          "internalType": "address",
          "name": "creator",
          "type": "address"
        },
        {
          "indexed": false,
          "internalType": "string",
          "name": "question",
          "type": "string"
        }
      ],
      "name": "PollCreated",
      "type": "event"
    },
    {
      "anonymous": false,
      "inputs": [
        {
          "indexed": true,
          "internalType": "uint256",
          "name": "pollId",
          "type": "uint256"
        },
        {
          "indexed": false,
          "internalType": "uint256",
          "name": "votesFor",
          "type": "uint256"
        },
        {
          "indexed": false,
          "internalType": "uint256",
          "name": "votesAgainst",
          "type": "uint256"
        }
      ],
      "name": "PollEnded",
      "type": "event"
    },
    {
      "anonymous": false,
      "inputs": [
        {
          "indexed": true,
          "internalType": "uint256",
          "name": "pollId",
          "type": "uint256"
        },
        {
          "indexed": true,
          "internalType": "address",
          "name": "voter",
          "type": "address"
        },
        {
          "indexed": false,
          "internalType": "bool",
          "name": "support",
          "type": "bool"
        }
      ],
      "name": "PollVoteCast",
      "type": "event"
    },
    {
      "anonymous": false,
      "inputs": [
        {
          "indexed": true,
          "internalType": "uint256",
          "name": "proposalId",
          "type": "uint256"
        }
      ],
      "name": "ProposalCancelled",
      "type": "event"
    },
    {
      "anonymous": false,
      "inputs": [
        {
          "indexed": true,
          "internalType": "uint256",
          "name": "proposalId",
          "type": "uint256"
        },
        {
          "indexed": true,
          "internalType": "uint256",
          "name": "propertyId",
          "type": "uint256"
        },
        {
          "indexed": false,
          "internalType": "address",
          "name": "proposer",
          "type": "address"
        },
        {
          "indexed": false,
          "internalType": "enum Governance.ProposalType",
          "name": "proposalType",
          "type": "uint8"
        },
        {
          "indexed": false,
          "internalType": "string",
          "name": "title",
          "type": "string"
        }
      ],
      "name": "ProposalCreated",
      "type": "event"
    },
    {
      "anonymous": false,
      "inputs": [
        {
          "indexed": true,
          "internalType": "uint256",
          "name": "proposalId",
          "type": "uint256"
        }
      ],
      "name": "ProposalExecuted",
      "type": "event"
    },
    {
      "anonymous": false,
      "inputs": [
        {
          "indexed": true,
          "internalType": "bytes32",
          "name": "role",
          "type": "bytes32"
        },
        {
          "indexed": true,
          "internalType": "bytes32",
          "name": "previousAdminRole",
          "type": "bytes32"
        },
        {
          "indexed": true,
          "internalType": "bytes32",
          "name": "newAdminRole",
          "type": "bytes32"
        }
      ],
      "name": "RoleAdminChanged",
      "type": "event"
    },
    {
      "anonymous": false,
      "inputs": [
        {
          "indexed": true,
          "internalType": "bytes32",
          "name": "role",
          "type": "bytes32"
        },
        {
          "indexed": true,
          "internalType": "address",
          "name": "account",
          "type": "address"
        },
        {
          "indexed": true,
          "internalType": "address",
          "name": "sender",
          "type": "address"
        }
      ],
      "name": "RoleGranted",
      "type": "event"
    },
    {
      "anonymous": false,
      "inputs": [
        {
          "indexed": true,
          "internalType": "bytes32",
          "name": "role",
          "type": "bytes32"
        },
        {
          "indexed": true,
          "internalType": "address",
          "name": "account",
          "type": "address"
        },
        {
          "indexed": true,
          "internalType": "address",
          "name": "sender",
          "type": "address"
        }
      ],
      "name": "RoleRevoked",
      "type": "event"
    },
    {
      "anonymous": false,
      "inputs": [
        {
          "indexed": true,
          "internalType": "uint256",
          "name": "proposalId",
          "type": "uint256"
        },
        {
          "indexed": true,
          "internalType": "address",
          "name": "voter",
          "type": "address"
        },
        {
          "indexed": false,
          "internalType": "uint8",
          "name": "support",
          "type": "uint8"
        },
        {
          "indexed": false,
          "internalType": "uint256",
          "name": "weight",
          "type": "uint256"
        }
      ],
      "name": "VoteCast",
      "type": "event"
    },
    {
      "anonymous": false,
      "inputs": [
        {
          "indexed": false,
          "internalType": "uint256",
          "name": "newBonus",
          "type": "uint256"
        }
      ],
      "name": "VoteToEarnBonusUpdated",
      "type": "event"
    },
    {
      "anonymous": false,
      "inputs": [
        {
          "indexed": false,
          "internalType": "uint256",
          "name": "newPeriod",
          "type": "uint256"
        }
      ],
      "name": "VotingPeriodUpdated",
      "type": "event"
    },
    {
      "inputs": [],
      "name": "DEFAULT_ADMIN_ROLE",
      "outputs": [
        {
          "internalType": "bytes32",
          "name": "",
          "type": "bytes32"
        }
      ],
      "stateMutability": "view",
      "type": "function"
    },
    {
      "inputs": [],
      "name": "DEMAND_QUORUM_BOOST",
      "outputs": [
        {
          "internalType": "uint256",
          "name": "",
          "type": "uint256"
        }
      ],
      "stateMutability": "view",
      "type": "function"
    },
    {
      "inputs": [],
      "name": "DEMAND_QUORUM_BOOST_THRESHOLD",
      "outputs": [
        {
          "internalType": "uint256",
          "name": "",
          "type": "uint256"
        }
      ],
      "stateMutability": "view",
      "type": "function"
    },
    {
      "inputs": [],
      "name": "DOMAIN_SEPARATOR",
      "outputs": [
        {
          "internalType": "bytes32",
          "name": "",
          "type": "bytes32"
        }
      ],
      "stateMutability": "view",
      "type": "function"
    },
    {
      "inputs": [],
      "name": "EXECUTOR_ROLE",
      "outputs": [
        {
          "internalType": "bytes32",
          "name": "",
          "type": "bytes32"
        }
      ],
      "stateMutability": "view",
      "type": "function"
    },
    {
      "inputs": [],
      "name": "POLL_PROPOSAL_THRESHOLD",
      "outputs": [
        {
          "internalType": "uint256",
          "name": "",
          "type": "uint256"
        }
      ],
      "stateMutability": "view",
      "type": "function"
    },
    {
      "inputs": [],
      "name": "POLL_QUORUM_BONUS",
      "outputs": [
        {
          "internalType": "uint256",
          "name": "",
          "type": "uint256"
        }
      ],
      "stateMutability": "view",
      "type": "function"
    },
    {
      "inputs": [],
      "name": "PROPOSER_ROLE",
      "outputs": [
        {
          "internalType": "bytes32",
          "name": "",
          "type": "bytes32"
        }
      ],
      "stateMutability": "view",
      "type": "function"
    },
    {
      "inputs": [],
      "name": "QUORUM_EMERGENCY",
      "outputs": [
        {
          "internalType": "uint256",
          "name": "",
          "type": "uint256"
        }
      ],
      "stateMutability": "view",
      "type": "function"
    },
    {
      "inputs": [],
      "name": "QUORUM_PARAMETER",
      "outputs": [
        {
          "internalType": "uint256",
          "name": "",
          "type": "uint256"
        }
      ],
      "stateMutability": "view",
      "type": "function"
    },
    {
      "inputs": [],
      "name": "QUORUM_PROPERTY",
      "outputs": [
        {
          "internalType": "uint256",
          "name": "",
          "type": "uint256"
        }
      ],
      "stateMutability": "view",
      "type": "function"
    },
    {
      "inputs": [],
      "name": "QUORUM_TREASURY",
      "outputs": [
        {
          "internalType": "uint256",
          "name": "",
          "type": "uint256"
        }
      ],
      "stateMutability": "view",
      "type": "function"
    },
    {
      "inputs": [],
      "name": "RELAYER_ROLE",
      "outputs": [
        {
          "internalType": "bytes32",
          "name": "",
          "type": "bytes32"
        }
      ],
      "stateMutability": "view",
      "type": "function"
    },
    {
      "inputs": [],
      "name": "VOTE_TYPEHASH",
      "outputs": [
        {
          "internalType": "bytes32",
          "name": "",
          "type": "bytes32"
        }
      ],
      "stateMutability": "view",
      "type": "function"
    },
    {
      "inputs": [
        {
          "internalType": "uint256",
          "name": "proposalId",
          "type": "uint256"
        }
      ],
      "name": "cancelProposal",
      "outputs": [],
      "stateMutability": "nonpayable",
      "type": "function"
    },
    {
      "inputs": [
        {
          "internalType": "uint256",
          "name": "proposalId",
          "type": "uint256"
        },
        {
          "internalType": "uint8",
          "name": "support",
          "type": "uint8"
        }
      ],
      "name": "castVote",
      "outputs": [],
      "stateMutability": "nonpayable",
      "type": "function"
    },
    {
      "inputs": [
        {
          "internalType": "uint256",
          "name": "proposalId",
          "type": "uint256"
        },
        {
          "internalType": "uint8",
          "name": "support",
          "type": "uint8"
        },
        {
          "internalType": "address",
          "name": "voter",
          "type": "address"
        },
        {
          "internalType": "uint256",
          "name": "deadline",
          "type": "uint256"
        },
        {
          "internalType": "uint8",
          "name": "v",
          "type": "uint8"
        },
        {
          "internalType": "bytes32",
          "name": "r",
          "type": "bytes32"
        },
        {
          "internalType": "bytes32",
          "name": "s",
          "type": "bytes32"
        }
      ],
      "name": "castVoteBySignature",
      "outputs": [],
      "stateMutability": "nonpayable",
      "type": "function"
    },
    {
      "inputs": [
        {
          "internalType": "uint256",
          "name": "propertyId",
          "type": "uint256"
        },
        {
          "internalType": "string",
          "name": "question",
          "type": "string"
        },
        {
          "internalType": "string",
          "name": "description",
          "type": "string"
        },
        {
          "internalType": "string",
          "name": "ipfsHash",
          "type": "string"
        },
        {
          "internalType": "uint256",
          "name": "duration",
          "type": "uint256"
        }
      ],
      "name": "createPoll",
      "outputs": [
        {
          "internalType": "uint256",
          "name": "",
          "type": "uint256"
        }
      ],
      "stateMutability": "nonpayable",
      "type": "function"
    },
    {
      "inputs": [
        {
          "internalType": "uint256",
          "name": "propertyId",
          "type": "uint256"
        },
        {
          "internalType": "enum Governance.ProposalType",
          "name": "proposalType",
          "type": "uint8"
        },
        {
          "internalType": "string",
          "name": "title",
          "type": "string"
        },
        {
          "internalType": "string",
          "name": "description",
          "type": "string"
        },
        {
          "internalType": "string",
          "name": "ipfsHash",
          "type": "string"
        },
        {
          "internalType": "bytes",
          "name": "executionData",
          "type": "bytes"
        }
      ],
      "name": "createProposal",
      "outputs": [
        {
          "internalType": "uint256",
          "name": "",
          "type": "uint256"
        }
      ],
      "stateMutability": "nonpayable",
      "type": "function"
    },
    {
      "inputs": [
        {
          "internalType": "uint256",
          "name": "pollId",
          "type": "uint256"
        },
        {
          "internalType": "enum Governance.ProposalType",
          "name": "proposalType",
          "type": "uint8"
        },
        {
          "internalType": "bytes",
          "name": "executionData",
          "type": "bytes"
        }
      ],
      "name": "createProposalFromPoll",
      "outputs": [
        {
          "internalType": "uint256",
          "name": "",
          "type": "uint256"
        }
      ],
      "stateMutability": "nonpayable",
      "type": "function"
    },
    {
      "inputs": [
        {
          "internalType": "enum Governance.ProposalType",
          "name": "",
          "type": "uint8"
        }
      ],
      "name": "demandSnapshots",
      "outputs": [
        {
          "internalType": "uint256",
          "name": "",
          "type": "uint256"
        }
      ],
      "stateMutability": "view",
      "type": "function"
    },
    {
      "inputs": [
        {
          "internalType": "uint256",
          "name": "pollId",
          "type": "uint256"
        }
      ],
      "name": "endPoll",
      "outputs": [],
      "stateMutability": "nonpayable",
      "type": "function"
    },
    {
      "inputs": [
        {
          "internalType": "uint256",
          "name": "proposalId",
          "type": "uint256"
        }
      ],
      "name": "executeProposal",
      "outputs": [],
      "stateMutability": "nonpayable",
      "type": "function"
    },
    {
      "inputs": [
        {
          "internalType": "uint256",
          "name": "proposalId",
          "type": "uint256"
        }
      ],
      "name": "finalizeProposal",
      "outputs": [],
      "stateMutability": "nonpayable",
      "type": "function"
    },
    {
      "inputs": [
        {
          "internalType": "uint256",
          "name": "propertyId",
          "type": "uint256"
        }
      ],
      "name": "getActivePolls",
      "outputs": [
        {
          "components": [
            {
              "internalType": "uint256",
              "name": "id",
              "type": "uint256"
            },
            {
              "internalType": "uint256",
              "name": "propertyId",
              "type": "uint256"
            },
            {
              "internalType": "address",
              "name": "creator",
              "type": "address"
            },
            {
              "internalType": "string",
              "name": "question",
              "type": "string"
            },
            {
              "internalType": "string",
              "name": "description",
              "type": "string"
            },
            {
              "internalType": "string",
              "name": "ipfsHash",
              "type": "string"
            },
            {
              "internalType": "uint256",
              "name": "votesFor",
              "type": "uint256"
            },
            {
              "internalType": "uint256",
              "name": "votesAgainst",
              "type": "uint256"
            },
            {
              "internalType": "uint256",
              "name": "startTime",
              "type": "uint256"
            },
            {
              "internalType": "uint256",
              "name": "endTime",
              "type": "uint256"
            },
            {
              "internalType": "enum Governance.PollStatus",
              "name": "status",
              "type": "uint8"
            },
            {
              "internalType": "uint256",
              "name": "linkedProposalId",
              "type": "uint256"
            }
          ],
          "internalType": "struct Governance.Poll[]",
          "name": "",
          "type": "tuple[]"
        }
      ],
      "stateMutability": "view",
      "type": "function"
    },
    {
      "inputs": [
        {
          "internalType": "uint256",
          "name": "propertyId",
          "type": "uint256"
        }
      ],
      "name": "getActiveProposals",
      "outputs": [
        {
          "components": [
            {
              "internalType": "uint256",
              "name": "id",
              "type": "uint256"
            },
            {
              "internalType": "uint256",
              "name": "propertyId",
              "type": "uint256"
            },
            {
              "internalType": "address",
              "name": "proposer",
              "type": "address"
            },
            {
              "internalType": "enum Governance.ProposalType",
              "name": "proposalType",
              "type": "uint8"
            },
            {
              "internalType": "string",
              "name": "title",
              "type": "string"
            },
            {
              "internalType": "string",
              "name": "description",
              "type": "string"
            },
            {
              "internalType": "string",
              "name": "ipfsHash",
              "type": "string"
            },
            {
              "internalType": "uint256",
              "name": "votesFor",
              "type": "uint256"
            },
            {
              "internalType": "uint256",
              "name": "votesAgainst",
              "type": "uint256"
            },
            {
              "internalType": "uint256",
              "name": "votesAbstain",
              "type": "uint256"
            },
            {
              "internalType": "uint256",
              "name": "startTime",
              "type": "uint256"
            },
            {
              "internalType": "uint256",
              "name": "endTime",
              "type": "uint256"
            },
            {
              "internalType": "uint256",
              "name": "quorumRequired",
              "type": "uint256"
            },
            {
              "internalType": "enum Governance.ProposalStatus",
              "name": "status",
              "type": "uint8"
            },
            {
              "internalType": "bytes",
              "name": "executionData",
              "type": "bytes"
            }
          ],
          "internalType": "struct Governance.Proposal[]",
          "name": "",
          "type": "tuple[]"
        }
      ],
      "stateMutability": "view",
      "type": "function"
    },
    {
      "inputs": [],
      "name": "getCommunityHealthScore",
      "outputs": [
        {
          "internalType": "uint256",
          "name": "healthScore",
          "type": "uint256"
        }
      ],
      "stateMutability": "view",
      "type": "function"
    },
    {
      "inputs": [],
      "name": "getDemandBars",
      "outputs": [
        {
          "internalType": "uint256[4]",
          "name": "bars",
          "type": "uint256[4]"
        }
      ],
      "stateMutability": "view",
      "type": "function"
    },
    {
      "inputs": [
        {
          "internalType": "enum Governance.ProposalType",
          "name": "proposalType",
          "type": "uint8"
        }
      ],
      "name": "getDemandForType",
      "outputs": [
        {
          "internalType": "uint256",
          "name": "weight",
          "type": "uint256"
        },
        {
          "internalType": "uint256",
          "name": "bps",
          "type": "uint256"
        }
      ],
      "stateMutability": "view",
      "type": "function"
    },
    {
      "inputs": [
        {
          "internalType": "enum Governance.ProposalType",
          "name": "proposalType",
          "type": "uint8"
        }
      ],
      "name": "getEffectiveQuorum",
      "outputs": [
        {
          "internalType": "uint256",
          "name": "",
          "type": "uint256"
        }
      ],
      "stateMutability": "view",
      "type": "function"
    },
    {
      "inputs": [
        {
          "internalType": "address",
          "name": "voter",
          "type": "address"
        }
      ],
      "name": "getNonce",
      "outputs": [
        {
          "internalType": "uint256",
          "name": "",
          "type": "uint256"
        }
      ],
      "stateMutability": "view",
      "type": "function"
    },
    {
      "inputs": [
        {
          "internalType": "uint256",
          "name": "pollId",
          "type": "uint256"
        }
      ],
      "name": "getPoll",
      "outputs": [
        {
          "components": [
            {
              "internalType": "uint256",
              "name": "id",
              "type": "uint256"
            },
            {
              "internalType": "uint256",
              "name": "propertyId",
              "type": "uint256"
            },
            {
              "internalType": "address",
              "name": "creator",
              "type": "address"
            },
            {
              "internalType": "string",
              "name": "question",
              "type": "string"
            },
            {
              "internalType": "string",
              "name": "description",
              "type": "string"
            },
            {
              "internalType": "string",
              "name": "ipfsHash",
              "type": "string"
            },
            {
              "internalType": "uint256",
              "name": "votesFor",
              "type": "uint256"
            },
            {
              "internalType": "uint256",
              "name": "votesAgainst",
              "type": "uint256"
            },
            {
              "internalType": "uint256",
              "name": "startTime",
              "type": "uint256"
            },
            {
              "internalType": "uint256",
              "name": "endTime",
              "type": "uint256"
            },
            {
              "internalType": "enum Governance.PollStatus",
              "name": "status",
              "type": "uint8"
            },
            {
              "internalType": "uint256",
              "name": "linkedProposalId",
              "type": "uint256"
            }
          ],
          "internalType": "struct Governance.Poll",
          "name": "",
          "type": "tuple"
        }
      ],
      "stateMutability": "view",
      "type": "function"
    },
    {
      "inputs": [
        {
          "internalType": "uint256",
          "name": "pollId",
          "type": "uint256"
        }
      ],
      "name": "getPollSupport",
      "outputs": [
        {
          "internalType": "uint256",
          "name": "",
          "type": "uint256"
        }
      ],
      "stateMutability": "view",
      "type": "function"
    },
    {
      "inputs": [
        {
          "internalType": "uint256",
          "name": "proposalId",
          "type": "uint256"
        }
      ],
      "name": "getProposal",
      "outputs": [
        {
          "components": [
            {
              "internalType": "uint256",
              "name": "id",
              "type": "uint256"
            },
            {
              "internalType": "uint256",
              "name": "propertyId",
              "type": "uint256"
            },
            {
              "internalType": "address",
              "name": "proposer",
              "type": "address"
            },
            {
              "internalType": "enum Governance.ProposalType",
              "name": "proposalType",
              "type": "uint8"
            },
            {
              "internalType": "string",
              "name": "title",
              "type": "string"
            },
            {
              "internalType": "string",
              "name": "description",
              "type": "string"
            },
            {
              "internalType": "string",
              "name": "ipfsHash",
              "type": "string"
            },
            {
              "internalType": "uint256",
              "name": "votesFor",
              "type": "uint256"
            },
            {
              "internalType": "uint256",
              "name": "votesAgainst",
              "type": "uint256"
            },
            {
              "internalType": "uint256",
              "name": "votesAbstain",
              "type": "uint256"
            },
            {
              "internalType": "uint256",
              "name": "startTime",
              "type": "uint256"
            },
            {
              "internalType": "uint256",
              "name": "endTime",
              "type": "uint256"
            },
            {
              "internalType": "uint256",
              "name": "quorumRequired",
              "type": "uint256"
            },
            {
              "internalType": "enum Governance.ProposalStatus",
              "name": "status",
              "type": "uint8"
            },
            {
              "internalType": "bytes",
              "name": "executionData",
              "type": "bytes"
            }
          ],
          "internalType": "struct Governance.Proposal",
          "name": "",
          "type": "tuple"
        }
      ],
      "stateMutability": "view",
      "type": "function"
    },
    {
      "inputs": [
        {
          "internalType": "bytes32",
          "name": "role",
          "type": "bytes32"
        }
      ],
      "name": "getRoleAdmin",
      "outputs": [
        {
          "internalType": "bytes32",
          "name": "",
          "type": "bytes32"
        }
      ],
      "stateMutability": "view",
      "type": "function"
    },
    {
      "inputs": [
        {
          "internalType": "uint256",
          "name": "proposalId",
          "type": "uint256"
        },
        {
          "internalType": "address",
          "name": "voter",
          "type": "address"
        }
      ],
      "name": "getVote",
      "outputs": [
        {
          "components": [
            {
              "internalType": "bool",
              "name": "hasVoted",
              "type": "bool"
            },
            {
              "internalType": "uint8",
              "name": "support",
              "type": "uint8"
            },
            {
              "internalType": "uint256",
              "name": "weight",
              "type": "uint256"
            }
          ],
          "internalType": "struct Governance.Vote",
          "name": "",
          "type": "tuple"
        }
      ],
      "stateMutability": "view",
      "type": "function"
    },
    {
      "inputs": [
        {
          "internalType": "address",
          "name": "voter",
          "type": "address"
        }
      ],
      "name": "getVoteToEarnBonus",
      "outputs": [
        {
          "internalType": "uint256",
          "name": "",
          "type": "uint256"
        }
      ],
      "stateMutability": "view",
      "type": "function"
    },
    {
      "inputs": [
        {
          "internalType": "bytes32",
          "name": "role",
          "type": "bytes32"
        },
        {
          "internalType": "address",
          "name": "account",
          "type": "address"
        }
      ],
      "name": "grantRole",
      "outputs": [],
      "stateMutability": "nonpayable",
      "type": "function"
    },
    {
      "inputs": [
        {
          "internalType": "bytes32",
          "name": "role",
          "type": "bytes32"
        },
        {
          "internalType": "address",
          "name": "account",
          "type": "address"
        }
      ],
      "name": "hasRole",
      "outputs": [
        {
          "internalType": "bool",
          "name": "",
          "type": "bool"
        }
      ],
      "stateMutability": "view",
      "type": "function"
    },
    {
      "inputs": [
        {
          "internalType": "address",
          "name": "",
          "type": "address"
        }
      ],
      "name": "lastVoteTimestamp",
      "outputs": [
        {
          "internalType": "uint256",
          "name": "",
          "type": "uint256"
        }
      ],
      "stateMutability": "view",
      "type": "function"
    },
    {
      "inputs": [
        {
          "internalType": "address",
          "name": "",
          "type": "address"
        }
      ],
      "name": "nonces",
      "outputs": [
        {
          "internalType": "uint256",
          "name": "",
          "type": "uint256"
        }
      ],
      "stateMutability": "view",
      "type": "function"
    },
    {
      "inputs": [],
      "name": "pollCount",
      "outputs": [
        {
          "internalType": "uint256",
          "name": "",
          "type": "uint256"
        }
      ],
      "stateMutability": "view",
      "type": "function"
    },
    {
      "inputs": [
        {
          "internalType": "uint256",
          "name": "",
          "type": "uint256"
        }
      ],
      "name": "pollParticipants",
      "outputs": [
        {
          "internalType": "uint256",
          "name": "",
          "type": "uint256"
        }
      ],
      "stateMutability": "view",
      "type": "function"
    },
    {
      "inputs": [
        {
          "internalType": "uint256",
          "name": "",
          "type": "uint256"
        },
        {
          "internalType": "address",
          "name": "",
          "type": "address"
        }
      ],
      "name": "pollVotes",
      "outputs": [
        {
          "internalType": "bool",
          "name": "hasVoted",
          "type": "bool"
        },
        {
          "internalType": "bool",
          "name": "support",
          "type": "bool"
        }
      ],
      "stateMutability": "view",
      "type": "function"
    },
    {
      "inputs": [
        {
          "internalType": "uint256",
          "name": "",
          "type": "uint256"
        }
      ],
      "name": "polls",
      "outputs": [
        {
          "internalType": "uint256",
          "name": "id",
          "type": "uint256"
        },
        {
          "internalType": "uint256",
          "name": "propertyId",
          "type": "uint256"
        },
        {
          "internalType": "address",
          "name": "creator",
          "type": "address"
        },
        {
          "internalType": "string",
          "name": "question",
          "type": "string"
        },
        {
          "internalType": "string",
          "name": "description",
          "type": "string"
        },
        {
          "internalType": "string",
          "name": "ipfsHash",
          "type": "string"
        },
        {
          "internalType": "uint256",
          "name": "votesFor",
          "type": "uint256"
        },
        {
          "internalType": "uint256",
          "name": "votesAgainst",
          "type": "uint256"
        },
        {
          "internalType": "uint256",
          "name": "startTime",
          "type": "uint256"
        },
        {
          "internalType": "uint256",
          "name": "endTime",
          "type": "uint256"
        },
        {
          "internalType": "enum Governance.PollStatus",
          "name": "status",
          "type": "uint8"
        },
        {
          "internalType": "uint256",
          "name": "linkedProposalId",
          "type": "uint256"
        }
      ],
      "stateMutability": "view",
      "type": "function"
    },
    {
      "inputs": [],
      "name": "propertyToken",
      "outputs": [
        {
          "internalType": "contract IPropertyToken",
          "name": "",
          "type": "address"
        }
      ],
      "stateMutability": "view",
      "type": "function"
    },
    {
      "inputs": [],
      "name": "proposalCount",
      "outputs": [
        {
          "internalType": "uint256",
          "name": "",
          "type": "uint256"
        }
      ],
      "stateMutability": "view",
      "type": "function"
    },
    {
      "inputs": [
        {
          "internalType": "uint256",
          "name": "",
          "type": "uint256"
        }
      ],
      "name": "proposals",
      "outputs": [
        {
          "internalType": "uint256",
          "name": "id",
          "type": "uint256"
        },
        {
          "internalType": "uint256",
          "name": "propertyId",
          "type": "uint256"
        },
        {
          "internalType": "address",
          "name": "proposer",
          "type": "address"
        },
        {
          "internalType": "enum Governance.ProposalType",
          "name": "proposalType",
          "type": "uint8"
        },
        {
          "internalType": "string",
          "name": "title",
          "type": "string"
        },
        {
          "internalType": "string",
          "name": "description",
          "type": "string"
        },
        {
          "internalType": "string",
          "name": "ipfsHash",
          "type": "string"
        },
        {
          "internalType": "uint256",
          "name": "votesFor",
          "type": "uint256"
        },
        {
          "internalType": "uint256",
          "name": "votesAgainst",
          "type": "uint256"
        },
        {
          "internalType": "uint256",
          "name": "votesAbstain",
          "type": "uint256"
        },
        {
          "internalType": "uint256",
          "name": "startTime",
          "type": "uint256"
        },
        {
          "internalType": "uint256",
          "name": "endTime",
          "type": "uint256"
        },
        {
          "internalType": "uint256",
          "name": "quorumRequired",
          "type": "uint256"
        },
        {
          "internalType": "enum Governance.ProposalStatus",
          "name": "status",
          "type": "uint8"
        },
        {
          "internalType": "bytes",
          "name": "executionData",
          "type": "bytes"
        }
      ],
      "stateMutability": "view",
      "type": "function"
    },
    {
      "inputs": [
        {
          "internalType": "bytes32",
          "name": "role",
          "type": "bytes32"
        },
        {
          "internalType": "address",
          "name": "callerConfirmation",
          "type": "address"
        }
      ],
      "name": "renounceRole",
      "outputs": [],
      "stateMutability": "nonpayable",
      "type": "function"
    },
    {
      "inputs": [
        {
          "internalType": "bytes32",
          "name": "role",
          "type": "bytes32"
        },
        {
          "internalType": "address",
          "name": "account",
          "type": "address"
        }
      ],
      "name": "revokeRole",
      "outputs": [],
      "stateMutability": "nonpayable",
      "type": "function"
    },
    {
      "inputs": [
        {
          "internalType": "uint256",
          "name": "newBonus",
          "type": "uint256"
        }
      ],
      "name": "setVoteToEarnBonus",
      "outputs": [],
      "stateMutability": "nonpayable",
      "type": "function"
    },
    {
      "inputs": [
        {
          "internalType": "uint256",
          "name": "newPeriod",
          "type": "uint256"
        }
      ],
      "name": "setVotingPeriod",
      "outputs": [],
      "stateMutability": "nonpayable",
      "type": "function"
    },
    {
      "inputs": [
        {
          "internalType": "bytes4",
          "name": "interfaceId",
          "type": "bytes4"
        }
      ],
      "name": "supportsInterface",
      "outputs": [
        {
          "internalType": "bool",
          "name": "",
          "type": "bool"
        }
      ],
      "stateMutability": "view",
      "type": "function"
    },
    {
      "inputs": [],
      "name": "takeDemandSnapshot",
      "outputs": [],
      "stateMutability": "nonpayable",
      "type": "function"
    },
    {
      "inputs": [],
      "name": "totalDemandWeight",
      "outputs": [
        {
          "internalType": "uint256",
          "name": "",
          "type": "uint256"
        }
      ],
      "stateMutability": "view",
      "type": "function"
    },
    {
      "inputs": [
        {
          "internalType": "uint256",
          "name": "",
          "type": "uint256"
        }
      ],
      "name": "totalVotingPower",
      "outputs": [
        {
          "internalType": "uint256",
          "name": "",
          "type": "uint256"
        }
      ],
      "stateMutability": "view",
      "type": "function"
    },
    {
      "inputs": [
        {
          "internalType": "enum Governance.ProposalType",
          "name": "",
          "type": "uint8"
        }
      ],
      "name": "typeDemandWeights",
      "outputs": [
        {
          "internalType": "uint256",
          "name": "",
          "type": "uint256"
        }
      ],
      "stateMutability": "view",
      "type": "function"
    },
    {
      "inputs": [
        {
          "internalType": "uint256",
          "name": "pollId",
          "type": "uint256"
        },
        {
          "internalType": "bool",
          "name": "support",
          "type": "bool"
        }
      ],
      "name": "votePoll",
      "outputs": [],
      "stateMutability": "nonpayable",
      "type": "function"
    },
    {
      "inputs": [],
      "name": "voteToEarnBonus",
      "outputs": [
        {
          "internalType": "uint256",
          "name": "",
          "type": "uint256"
        }
      ],
      "stateMutability": "view",
      "type": "function"
    },
    {
      "inputs": [
        {
          "internalType": "address",
          "name": "",
          "type": "address"
        }
      ],
      "name": "voterParticipationCount",
      "outputs": [
        {
          "internalType": "uint256",
          "name": "",
          "type": "uint256"
        }
      ],
      "stateMutability": "view",
      "type": "function"
    },
    {
      "inputs": [
        {
          "internalType": "uint256",
          "name": "",
          "type": "uint256"
        },
        {
          "internalType": "address",
          "name": "",
          "type": "address"
        }
      ],
      "name": "votes",
      "outputs": [
        {
          "internalType": "bool",
          "name": "hasVoted",
          "type": "bool"
        },
        {
          "internalType": "uint8",
          "name": "support",
          "type": "uint8"
        },
        {
          "internalType": "uint256",
          "name": "weight",
          "type": "uint256"
        }
      ],
      "stateMutability": "view",
      "type": "function"
    },
    {
      "inputs": [],
      "name": "votingPeriod",
      "outputs": [
        {
          "internalType": "uint256",
          "name": "",
          "type": "uint256"
        }
      ],
      "stateMutability": "view",
      "type": "function"
    }
  ],
  "bytecode": "0x60a03462000199576001600160401b0390601f62004a1938819003918201601f1916830192919084841183851017620001835781602092849260409687528339810103126200019957516001600160a01b0381169081900362000199576001805562093a806004556032600555600280546001600160a01b0319169190911790556200008b33620001ba565b5062000097336200023a565b50620000a333620002dc565b50620000af3362000379565b50601460208251620000c1816200019e565b828152017f52657669746148756220476f7665726e616e636500000000000000000000000081522090600160208251620000fb816200019e565b82815201603160f81b8152209080519160208301937f8b73c3c69bb8fe3d512ecc4cf759cc79239f7b179b0ffacaa9a75d522b39400f85528284015260608301524660808301523060a083015260a0825260c08201938285109085111762000183578390525190206080526145e290816200041782396080518181816125b00152612d7a0152f35b634e487b7160e01b600052604160045260246000fd5b600080fd5b604081019081106001600160401b038211176200018357604052565b6001600160a01b031660008181527fad3228b676f7d3cd4284a5443f17f1962b36e491b30a40b2405849e597ba5fb5602052604081205490919060ff166200023657818052816020526040822081835260205260408220600160ff198254161790553391600080516020620049f98339815191528180a4600190565b5090565b6001600160a01b031660008181527f3412d5605ac6cd444957cedb533e5dacad6378b4bc819ebe3652188a665066d560205260408120549091907fb09aa5aeb3702cfd50b6b62bc4532604938f21248a27a1d5ca736082b6819cc19060ff16620002d757808352826020526040832082845260205260408320600160ff19825416179055600080516020620049f9833981519152339380a4600190565b505090565b6001600160a01b031660008181527fdae2aa361dfd1ca020a396615627d436107c35eff9fe7738a3512819782d706960205260408120549091907fd8aa0f3194971a2a116679f7c2090f6939c8d4e01a2a8d7e41d55e5351469e639060ff16620002d757808352826020526040832082845260205260408320600160ff19825416179055600080516020620049f9833981519152339380a4600190565b6001600160a01b031660008181527ffaf93c3d007e112089dc8351e013e6685ef67703975d0224b26fc45941d4f1f560205260408120549091907fe2b7fb3b832174769106daebcfd6d1970523240dda11281102db9363b83b0dc49060ff16620002d757808352826020526040832082845260205260408320600160ff19825416179055600080516020620049f9833981519152339380a460019056fe6080604052600436101561001257600080fd5b60003560e01c8063013cf08b1461330657806301ffc9a7146132b057806302a251a31461329257806307bd0265146132575780630af4da411461322f5780630d61b5191461311f5780630e6c151c146130e157806319546f1a146130a35780631a8cbcaa1461305a578063248a9ca31461302b578063248bd4711461300e578063252f57d714611b725780632d0335ab146114165780632dcf0d7314612b855780632f2ff15d14612b4657806333b5e38e14612a54578063364478e2146125d35780633644e5151461259857806336568abe146125515780633d8803e2146103d757806342a7c6141461141157806343ae26951461252857806349672b701461250d5780634ce83cdb14611bc1578063514c3d5614611ba3578063536f9f4214611b775780635394c87914611b725780635652077c14611a4d578063567813881461182d5780635c7b264d146117f35780636213e5ea1461165b578063637e54ac1461160357806363f0c7ff146114505780637ecebe0014611416578063808c44791461141157806386522973146113d6578063872d15441461134a5780638f61f4f51461130f57806391d14854146112c25780639207891d146112a4578063926d7d7f146112695780639b699e5714610b4d5780639c4e99ca14610b2f5780639d79a9eb146109f6578063a217fddf146109da578063ac2f0074146108a9578063b277d02a1461088c578063bc3f931f146107ee578063bcd77a24146107c6578063c3b028e21461079a578063c7f758a81461074d578063cae35ba0146106c2578063d23254b41461065f578063d547741f1461061e578063da35c66414610600578063dd9deb1b146105e2578063de1cf4ad146105a8578063e0a8f6f51461047e578063ea0217cf146103dc578063eac3a6bd146103d7578063ecc52c04146103ac5763f43b8778146102c657600080fd5b346103a75760203660031901126103a75760043580600052600c6020526040600020600a81019081549060ff8216600381101561039157610307901561405a565b60098101544210610357577f76254391687772340030bc79660c2d1e15dad744f94894a52e52863b5fca111592600160409360ff19161790556007600682015491015482519182526020820152a2005b60405162461bcd60e51b8152602060048201526012602482015271141bdb1b081b9bdd08195b991959081e595d60721b6044820152606490fd5b634e487b7160e01b600052602160045260246000fd5b600080fd5b346103a75760203660031901126103a75760206103cf6103ca61374c565b614098565b604051908152f35b6137de565b346103a75760203660031901126103a7576004356103f86140cc565b6201518081101580610471575b1561043b576020817f651c77f42613a075437aa794c44471e3abc3a661956a67aaee165bb7396974aa92600455604051908152a1005b60405162461bcd60e51b815260206004820152600e60248201526d125b9d985b1a59081c195c9a5bd960921b6044820152606490fd5b5062278d00811115610405565b346103a7576020806003193601126103a757600435908160005260068152604060002060018060a01b0360028201541633148015610586575b1561055057600c019081549060ff821660068110156103915760018114908115610547575b5015610513575060ff191660051790557f416e669c63d9a3a5e36ee7cc7e2104b8db28ccd286aa18966e98fa230c73b08c600080a2005b6064906040519062461bcd60e51b82526004820152600d60248201526c10d85b9b9bdd0818d85b98d95b609a1b6044820152fd5b905015856104dc565b60405162461bcd60e51b815260048101839052600e60248201526d139bdd08185d5d1a1bdc9a5e995960921b6044820152606490fd5b506000805260008252604060002033600052825260ff604060002054166104b7565b346103a75760203660031901126103a7576001600160a01b036105c961374c565b16600052600b6020526020604060002054604051908152f35b346103a75760003660031901126103a7576020600554604051908152f35b346103a75760003660031901126103a7576020600754604051908152f35b346103a75760403660031901126103a75761065d60043561063d613762565b90806000526000602052610658600160406000200154614162565b614353565b005b346103a75760403660031901126103a757610678613762565b600435600052600860205260406000209060018060a01b0316600052602052606060406000206001815491015460ff604051928181161515845260081c1660208301526040820152f35b346103a75760203660031901126103a75760043560048110156103a7576106e8816135ed565b6000908152601060205260409020546012549081156107425761271080820290828204148215171561072c57604092610720916138ff565b82519182526020820152f35b634e487b7160e01b600052601160045260246000fd5b604091506000610720565b346103a75760203660031901126103a757610766613e82565b5060043560005260066020526107966107826040600020613f04565b604051918291602083526020830190613818565b0390f35b346103a75760203660031901126103a757600435600052600f6020526020604060002054604051908152f35b346103a75760203660031901126103a75760043560048110156103a7576103cf6020916143c8565b346103a75760403660031901126103a757610807613762565b60006040805161081681613596565b8281528260208201520152600435600052600860205260406000209060018060a01b03166000526020526060604060002060405161085381613596565b60ff82546040600183831615159586865284602087019460081c1684520154930192835260405193845251166020830152516040820152f35b346103a75760003660031901126103a75760206040516107d08152f35b346103a75760203660031901126103a757600435600052600c6020526040600020805490600181015490600160a01b600190036002820154169260405191828060038301906108f7916134c8565b0361090290846135cc565b604051928361091481600485016134c8565b0361091f90856135cc565b604051938461093181600586016134c8565b0361093c90866135cc565b600683015494600784015490600885015492600986015494600a87015460ff1696600b0154976040519b8c9b610180928d5260208d015260408c01528060608c01528a01610989916135f7565b89810360808b015261099a916135f7565b88810360a08a01526109ab916135f7565b9560c088015260e087015261010086015261012085015261014084016109d091613672565b6101608301520390f35b346103a75760003660031901126103a757602060405160008152f35b346103a75760403660031901126103a75760043560243590811515918281036103a75781600052602090600c825260406000209060ff600a83015416600381101561039157610a45901561405a565b6009820154421015610afd57907fdf13ce4fcc43c19a08df4ffa6d471ae7bb1d6ffc3beb528ad821c873f798ce2f929184600052600e83526040600020336000528352604060002060018154610a9e60ff821615613c27565b61ff008960081b169061ffff19161717905584600052600f83526040600020610ac78154613c63565b905515610ae957600601610adb8154613c63565b90555b6040519384523393a3005b600701610af68154613c63565b9055610ade565b60405162461bcd60e51b815260048101849052600a602482015269141bdb1b08195b99195960b21b6044820152606490fd5b346103a75760203660031901126103a75760206103cf600435614010565b346103a75760c03660031901126103a757600460243510156103a7576044356001600160401b0381116103a757610b88903690600401613788565b6064356001600160401b0381116103a757610ba7903690600401613788565b906084356001600160401b0381116103a757610bc7903690600401613788565b9060a4356001600160401b0381116103a757610be7903690600401613788565b610bef614106565b600254604051636ded6a1960e11b815260048035908201523360248201526001600160a01b0390911690602081604481855afa801561122957600090611235575b610c3c91501515613e1f565b60075493610c4985613c63565b60075560246020610c5a82356143c8565b9360405192838092638cdc1e8760e01b825260043560048301525afa908115611229576000916111f7575b5080156111a157856000526009602052604060002055610ca760045442613cb0565b9060405196610cb58861357a565b8688526004356020890152336040890152610cd16024356135ed565b602435606089015285608089015260a088015260c0870152600060e0870152600061010087015260006101208701524261014087015261016086015261018085015260016101a08501526101c0840152816000526006602052604060002083518155602084015160018201556002810160018060a01b036040860151168154906060870151610d5f816135ed565b610d68816135ed565b6001600160a81b03199092161760a09190911b60ff60a01b1617905560808401518051906001600160401b03821161103557610db482610dab600386015461348e565b60038601613cbd565b602090601f831160011461112f57610de5929160009183610fc4575b50508160011b916000199060031b1c19161790565b60038201555b60a08401518051906001600160401b03821161103557610e1b82610e12600486015461348e565b60048601613cbd565b602090601f83116001146110bd57610e4b929160009183610fc45750508160011b916000199060031b1c19161790565b60048201555b60c08401518051906001600160401b03821161103557610e8182610e78600586015461348e565b60058601613cbd565b602090601f831160011461104b57610eb1929160009183610fc45750508160011b916000199060031b1c19161790565b60058201555b60e08401516006820155610100840151600782015561012084015160088201556101408401516009820155610160840151600a820155610180840151600b8201556101a084015160068110156103915781610f1a600d92600c6101c095016139ec565b019301519283516001600160401b03811161103557602094610f4682610f40855461348e565b85613cbd565b8590601f8311600114610fcf57610f75929160009183610fc45750508160011b916000199060031b1c19161790565b90555b8160008051602061458d833981519152604051338152610f996024356135ed565b602435868201526060604082015280610fb96004359560608301906135f7565b0390a3604051908152f35b015190508780610dd0565b90601f1983169184600052876000209260005b81811061101e5750908460019594939210611005575b505050811b019055610f78565b015160001960f88460031b161c19169055868080610ff8565b929389600181928786015181550195019301610fe2565b634e487b7160e01b600052604160045260246000fd5b9190600584016000526020600020906000935b601f19841685106110a2576001945083601f19811610611089575b505050811b016005820155610eb7565b015160001960f88460031b161c19169055868080611079565b8181015183556020948501946001909301929091019061105e565b9190600484016000526020600020906000935b601f1984168510611114576001945083601f198116106110fb575b505050811b016004820155610e51565b015160001960f88460031b161c191690558680806110eb565b818101518355602094850194600190930192909101906110d0565b9190600384016000526020600020906000935b601f1984168510611186576001945083601f1981161061116d575b505050811b016003820155610deb565b015160001960f88460031b161c1916905586808061115d565b81810151835560209485019460019093019290910190611142565b60405162461bcd60e51b815260206004820152602860248201527f4e6f20766f74696e6720706f7765722065786973747320666f7220746869732060448201526770726f706572747960c01b6064820152608490fd5b90506020813d602011611221575b81611212602093836135cc565b810103126103a7575187610c85565b3d9150611205565b6040513d6000823e3d90fd5b506020813d602011611261575b8161124f602093836135cc565b810103126103a757610c3c9051610c30565b3d9150611242565b346103a75760003660031901126103a75760206040517fe2b7fb3b832174769106daebcfd6d1970523240dda11281102db9363b83b0dc48152f35b346103a75760003660031901126103a7576020600d54604051908152f35b346103a75760403660031901126103a7576112db613762565b600435600052600060205260406000209060018060a01b0316600052602052602060ff604060002054166040519015158152f35b346103a75760003660031901126103a75760206040517fb09aa5aeb3702cfd50b6b62bc4532604938f21248a27a1d5ca736082b6819cc18152f35b346103a75760203660031901126103a7576004356113666140cc565b6101f481116113a0576020817f4ade7322d9a0c41dc254574f72d3d442f06addcc77917dcb9cb1ac4441d1b20f92600555604051908152a1005b60405162461bcd60e51b815260206004820152600e60248201526d084dedceae640e8dede40d0d2ced60931b6044820152606490fd5b346103a75760003660031901126103a75760206040517fa122aedc7c2408a97bcfe5d8ff1f6a6d7bf779a8b6dd3d72ff503e8fcf9d2eb98152f35b6137fb565b346103a75760203660031901126103a7576001600160a01b0361143761374c565b1660005260036020526020604060002054604051908152f35b346103a7576020806003193601126103a7576004356000906000600d54905b8181106115ad575061149961148384613e6b565b9361149160405195866135cc565b808552613e6b565b601f19018460005b828110611597575050506000805b82811061151457604080518781528651818901819052600092600582901b8301810191898b01918b9085015b8287106114e85785850386f35b909192938280611504600193603f198a8203018652885161367f565b96019201960195929190926114db565b80600052600c90818752604060002091856001840154148061157a575b60019350611541575b50016114af565b81600052875261157360406000209361156261155c82613c63565b95613a60565b61156c828a613ef0565b5287613ef0565b508761153a565b5091600a60ff910154169160038310156103915760019215611531565b61159f613a04565b8282880101520185906114a1565b80600052600c855260406000208360018201541490816115ea575b506115d6575b60010161146f565b926115e2600191613c63565b9390506115ce565b60ff9150600a01541660038110156103915715866115c8565b346103a75760403660031901126103a75761161c613762565b600435600052600e60205260406000209060018060a01b03166000526020526040806000205460ff8251918181161515835260081c1615156020820152f35b346103a7576020806003193601126103a7576004356000906000600754905b818110611794575061168e61148384613e6b565b601f19018460005b82811061177e575050506000805b82811061170957604080518781528651818901819052600092600582901b8301810191898b01918b9085015b8287106116dd5785850386f35b9091929382806116f9600193603f198a82030186528851613818565b96019201960195929190926116d0565b806000526006908187526040600020916001928684820154149081611762575b506001935061173a575b50016116a4565b81600052875261175b60406000209361156261175582613c63565b95613f04565b5087611733565b60ff9150600c0154169281841015610391576001931489611729565b611786613e82565b828288010152018590611696565b80600052600680865260406000209060019085828401541492836117d7575b5050506117c3575b60010161167a565b926117cf600191613c63565b9390506117bb565b60ff91929350600c0154169081101561039157148680806117b3565b346103a75760203660031901126103a7576001600160a01b0361181461374c565b16600052600a6020526020604060002054604051908152f35b346103a75760403660031901126103a757600435611849613778565b611851614188565b816000526020916006835260406000209160ff600c84015416936006851015610391576118816001809614613b29565b6118916009850154421015613b6b565b6118a0600a8501544210613bac565b60ff8216936118b26002861115613be7565b8360005260088252604060002033600052825261191b60406000208054946118dd60ff871615613c27565b60025489850154604051636ded6a1960e11b8152600481019190915233602482015293869185916001600160a01b0390911690829081906044820190565b03915afa958615611229578993600097611a16575b5093868460ff9461196b60029584986119b79a61194e871515613c72565b891916178355829061ff0082549160081b169061ff001916179055565b0155886119ea5760078101611981858254613cb0565b90555b33600052600a8652604060002061199b8154613c63565b905533600052600b865242604060002055015460a01c166141ab565b6040519384528301527fb83d25c6a5d258561330739951487acb4bd09ba5190b5d32c4f261817d90679260403393a38055005b888a03611a075760068101611a00858254613cb0565b9055611984565b60088101611a00858254613cb0565b9196509250908482813d8111611a46575b611a3181836135cc565b810103126103a75790519488926119b7611930565b503d611a27565b346103a75760203660031901126103a757600435806000526006602052604060002090600c82019182549160ff83166006811015610391576001611a919114613b29565b600a8201544210611b3a57600682015491600781015491611ac0611ab58486613cb0565b600884015490613cb0565b60009182526009602052604090912054908115611b2e576127109081810291818304149015171561072c57600b91611af7916138ff565b915b015411159182611b24575b505015611b195750805460ff19166002179055005b60ff19166003179055005b1190508380611b04565b5050600b600091611af9565b60405162461bcd60e51b815260206004820152601060248201526f159bdd1a5b99c81b9bdd08195b99195960821b6044820152606490fd5b61372f565b346103a75760203660031901126103a75760043560005260096020526020604060002054604051908152f35b346103a75760003660031901126103a7576020601254604051908152f35b346103a75760603660031901126103a757600460243510156103a7576044356001600160401b0381116103a757611bfc903690600401613788565b611c04614106565b600435600052600c60205260406000209060ff600a830154166003811015610391576001036124c857600b82015461248f576006820154611c49600784015482613cb0565b90811561245a576127109081810291818304149015171561072c57610bb891611c71916138ff565b10612415576002546001830154604051636ded6a1960e11b815260048101919091523360248201526001600160a01b039091169290602081604481875afa8015611229576000906123e1575b611cc991501515613e1f565b60075491611cd683613c63565b600755611ce46024356143c8565b6101f48111156123db57806101f31981011161072c576101f31901935b60206001840154602460405180948193638cdc1e8760e01b835260048301525afa908115611229576000916123a9575b50801561236b57836000526009602052604060002055600182015493611d5960045442613cb0565b60405195611d668761357a565b8587526020870152336040870152611d7f6024356135ed565b6024356060870152604051611da281611d9b81600389016134c8565b03826135cc565b6080870152604051611dbb81611d9b81600489016134c8565b60a0870152604051611dd481611d9b81600589016134c8565b60c0870152600060e0870152600061010087015260006101208701524261014087015261016086015261018085015260016101a08501526101c084015281600052600660205260406000209280518455602081015160018501556002840160018060a01b036040830151168154906060840151611e50816135ed565b611e59816135ed565b6001600160a81b03199092161760a09190911b60ff60a01b1617905560808101518051906001600160401b03821161103557611ea582611e9c600389015461348e565b60038901613cbd565b602090601f83116001146122f957611ed5929160009183610fc45750508160011b916000199060031b1c19161790565b60038501555b60a08101518051906001600160401b03821161103557611f0b82611f02600489015461348e565b60048901613cbd565b602090601f831160011461228757611f3b929160009183610fc45750508160011b916000199060031b1c19161790565b60048501555b60c08101518051906001600160401b03821161103557611f7182611f68600589015461348e565b60058901613cbd565b602090601f831160011461221557611fa1929160009183610fc45750508160011b916000199060031b1c19161790565b60058501555b60e08101516006850155610100810151600785015561012081015160088501556101408101516009850155610160810151600a850155610180810151600b8501556101a0810151906006821015610391576120086101c092600c87016139ec565b01519283516001600160401b038111611035576020946120388261202f600d86015461348e565b600d8601613cbd565b8590601f83116001146121a757918061206a92600d9460009261219c5750508160011b916000199060031b1c19161790565b9101555b8160ff19600281600a8501541617600a84015581600b8401556001830154926040519133835261209f6024356135ed565b602435878401526060604084015260009160038101546120be8161348e565b9283606087015260018216918260001461216e575050600114612124575b5050908060008051602061458d833981519152920390a360405190806004357ff57507588a3f55547e832ad7906fc1c90a328d2c78895bc24abf93c41e8568a0600080a38152f35b60030160009081528781209092505b81831061215657505081016080018160008051602061458d8339815191526120dc565b80548385016080015286945091870191600101612133565b8695506080935060008051602061458d833981519152969492501682840152151560051b82010191926120dc565b015190508880610dd0565b90600d8401600052866000209160005b601f19851681106121fe5750918391600193600d95601f198116106121e5575b505050811b0191015561206e565b015160001960f88460031b161c191690558780806121d7565b9192886001819286850151815501940192016121b7565b9190600587016000526020600020906000935b601f198416851061226c576001945083601f19811610612253575b505050811b016005850155611fa7565b015160001960f88460031b161c19169055868080612243565b81810151835560209485019460019093019290910190612228565b9190600487016000526020600020906000935b601f19841685106122de576001945083601f198116106122c5575b505050811b016004850155611f41565b015160001960f88460031b161c191690558680806122b5565b8181015183556020948501946001909301929091019061229a565b9190600387016000526020600020906000935b601f1984168510612350576001945083601f19811610612337575b505050811b016003850155611edb565b015160001960f88460031b161c19169055868080612327565b8181015183556020948501946001909301929091019061230c565b60405162461bcd60e51b81526020600482015260166024820152754e6f20766f74696e6720706f7765722065786973747360501b6044820152606490fd5b90506020813d6020116123d3575b816123c4602093836135cc565b810103126103a7575185611d31565b3d91506123b7565b93611d01565b506020813d60201161240d575b816123fb602093836135cc565b810103126103a757611cc99051611cbd565b3d91506123ee565b60405162461bcd60e51b815260206004820152601960248201527f496e73756666696369656e7420706f6c6c20737570706f7274000000000000006044820152606490fd5b60405162461bcd60e51b815260206004820152600d60248201526c139bc81d9bdd195cc818d85cdd609a1b6044820152606490fd5b60405162461bcd60e51b8152602060048201526011602482015270105b1c9958591e4818dbdb9d995c9d1959607a1b6044820152606490fd5b60405162461bcd60e51b815260206004820152601860248201527f506f6c6c206d75737420626520656e64656420666972737400000000000000006044820152606490fd5b346103a75760003660031901126103a75760206103cf613d13565b346103a75760003660031901126103a7576002546040516001600160a01b039091168152602090f35b346103a75760403660031901126103a75761256a613762565b336001600160a01b038216036125865761065d90600435614353565b60405163334bd91960e11b8152600490fd5b346103a75760003660031901126103a75760206040517f00000000000000000000000000000000000000000000000000000000000000008152f35b346103a75760a03660031901126103a7576024356001600160401b0381116103a757612603903690600401613788565b6044356001600160401b0381116103a757612622903690600401613788565b906064356001600160401b0381116103a757612642903690600401613788565b9062015180608435101580612a45575b15612a0d57600d549161266483613c63565b600d5561267360843542613cb0565b90604051946126818661355e565b8486526004356020870152336040870152836060870152608086015260a0850152600060c0850152600060e0850152426101008501526101208401526000610140840152600061016084015281600052600c602052604060002083518155602084015160018201556002810160018060a01b036040860151166bffffffffffffffffffffffff60a01b82541617905560608401518051906001600160401b0382116110355761273782610dab600386015461348e565b602090601f831160011461299b57612767929160009183610fc45750508160011b916000199060031b1c19161790565b60038201555b60808401518051906001600160401b0382116110355761279482610e12600486015461348e565b602090601f831160011461292d576127c4929160009183610fc45750508160011b916000199060031b1c19161790565b60048201555b60a08401518051906001600160401b038211611035576127f182610e78600586015461348e565b602090601f83116001146128bf57612821929160009183610fc45750508160011b916000199060031b1c19161790565b60058201555b60c0840151600682015560e0840151600782015561010084015160088201556101208401516009820155600a8101610140850151600381101561039157602095600b926101609260ff801983541691161790550151910155817f658fccfc8de51891b480d49e504fbb0f8f9b43f13522a475d1729a74531a9e2260405133815260408682015280610fb96004359560408301906135f7565b90601f198316916005850160005260206000209260005b81811061291557509084600195949392106128fc575b505050811b016005820155612827565b015160001960f88460031b161c191690558680806128ec565b929360206001819287860151815501950193016128d6565b90601f198316916004850160005260206000209260005b818110612983575090846001959493921061296a575b505050811b0160048201556127ca565b015160001960f88460031b161c1916905586808061295a565b92936020600181928786015181550195019301612944565b9190600384016000526020600020906000935b601f19841685106129f2576001945083601f198116106129d9575b505050811b01600382015561276d565b015160001960f88460031b161c191690558680806129c9565b818101518355602094850194600190930192909101906129ae565b60405162461bcd60e51b815260206004820152601060248201526f24b73b30b634b210323ab930ba34b7b760811b6044820152606490fd5b5062278d006084351115612652565b346103a75760003660031901126103a757612a6d6140cc565b604051612a79816135b1565b608036823760128054612abc575b6040517f229301218ef01ca6b8da4d31650c5fdf0265077519dfbbfaf6f3254aa666450b9080612ab78582613644565b0390a1005b60005b60048110612acd5750612a87565b612ad6816135ed565b612adf816135ed565b8060005260209060108252604060002054916127109283810293818504149015171561072c57612b136001938554906138ff565b612b1d838761391f565b526011612b2a838761391f565b5191612b35846135ed565b836000525260406000205501612abf565b346103a75760403660031901126103a75761065d600435612b65613762565b90806000526000602052612b80600160406000200154614162565b6142d5565b346103a75760e03660031901126103a757612b9e613778565b6044356001600160a01b03811690036103a75760ff60843516608435036103a7573360009081527ffaf93c3d007e112089dc8351e013e6685ef67703975d0224b26fc45941d4f1f560205260409020547fe2b7fb3b832174769106daebcfd6d1970523240dda11281102db9363b83b0dc49060ff1615612ff05750612c21614188565b6064354211612fb7576004356000526006602052604060002060ff600c820154166006811015610391576001612c579114613b29565b612c676009820154421015613b6b565b612c76600a8201544210613bac565b612c86600260ff84161115613be7565b6004356000526008602052604060002060018060a01b0360443516600052602052604060002090612cbb60ff83541615613c27565b6044356001600160a01b03166000908152600360205260409020805490612ce182613c63565b90556040519060208201907fa122aedc7c2408a97bcfe5d8ff1f6a6d7bf779a8b6dd3d72ff503e8fcf9d2eb98252600435604084015260ff8616606084015260018060a01b0360443516608084015260a083015260643560c083015260c0825260e082018281106001600160401b0382111761103557612dcb92612dc292826040528151902061012261010083019261190160f01b84527f0000000000000000000000000000000000000000000000000000000000000000610102820152015260428252612dae826135b1565b60c4359160a4359160843591519020614471565b90929192614501565b6001600160a01b036044358116911603612f7e576002546001820154604051636ded6a1960e11b815260048101919091526001600160a01b036044803582166024840152919492602092869290918391165afa92831561122957600093612f47575b5060ff6002612eca938560018195612e46831515613c72565b805461ff0060088c901b168719909116831761ff0019161781550155868316612f185760078101612e78858254613cb0565b90555b6044356001600160a01b03166000908152600a602052604090208054612ea090613c63565b90556044356001600160a01b03166000908152600b60205260409020429055015460a01c166141ab565b60ff60405192168252602082015233604082015260018060a01b0360443516907fb7a759f14619c0391b65e3f8ceb8fd342a3e24929e81d83493445a4a1c87d0fc606060043592a360018055005b868316600103612f385760068101612f31858254613cb0565b9055612e7b565b60088101612f31858254613cb0565b9192506020823d602011612f76575b81612f63602093836135cc565b810103126103a7579051919060ff612e2d565b3d9150612f56565b60405162461bcd60e51b8152602060048201526011602482015270496e76616c6964207369676e617475726560781b6044820152606490fd5b60405162461bcd60e51b815260206004820152601160248201527014da59db985d1d5c9948195e1c1a5c9959607a1b6044820152606490fd5b6044906040519063e2517d3f60e01b82523360048301526024820152fd5b346103a75760003660031901126103a75760206040516109c48152f35b346103a75760203660031901126103a75760043560005260006020526020600160406000200154604051908152f35b346103a75760203660031901126103a757613073613a04565b50600435600052600c60205261079661308f6040600020613a60565b60405191829160208352602083019061367f565b346103a75760203660031901126103a75760043560048110156103a7576130c9816135ed565b60005260116020526020604060002054604051908152f35b346103a75760203660031901126103a75760043560048110156103a757613107816135ed565b60005260106020526020604060002054604051908152f35b346103a75760203660031901126103a7573360009081527fdae2aa361dfd1ca020a396615627d436107c35eff9fe7738a3512819782d70696020526040902054600435907fd8aa0f3194971a2a116679f7c2090f6939c8d4e01a2a8d7e41d55e5351469e639060ff1615612ff05750613196614188565b806000526006602052600c604060002001805460ff81166006811015610391576002036131f15760ff191660041790557f712ae1383f79ac853f8d882153778e0260ef8f03b504e2866e0593e04d2b291f600080a260018055005b60405162461bcd60e51b8152602060048201526016602482015275141c9bdc1bdcd85b081b9bdd081cdd58d8d95959195960521b6044820152606490fd5b346103a75760003660031901126103a75761079661324b613946565b60405191829182613644565b346103a75760003660031901126103a75760206040517fd8aa0f3194971a2a116679f7c2090f6939c8d4e01a2a8d7e41d55e5351469e638152f35b346103a75760003660031901126103a7576020600454604051908152f35b346103a75760203660031901126103a75760043563ffffffff60e01b81168091036103a757602090637965db0b60e01b81149081156132f5575b506040519015158152f35b6301ffc9a760e01b149050826132ea565b346103a75760203660031901126103a757600435600052600660205260406000208054906001810154906002810154926080806003840190613347916134c8565b03608090613354916135cc565b604051908161336681600486016134c8565b0361337190836135cc565b604051918261338381600587016134c8565b0361338e90846135cc565b60068401549260078501546008860154600987015491600a88015493600b89015495600c8a015460ff169760405180600d819d01906133cc916134c8565b036133d7908c6135cc565b6040519c8d9c8d6101e0938152602001528c600160a01b60019003821690604001528060a01c60ff16613409906135ed565b60a01c60ff1660608d01528060808d01528b01608090613428916135f7565b8b810360a08d0152613439916135f7565b8a810360c08c015261344a916135f7565b9660e08a01526101008901526101208801526101408701526101608601526101808501526101a0840161347c91613637565b8281036101c0840152610796916135f7565b90600182811c921680156134be575b60208310146134a857565b634e487b7160e01b600052602260045260246000fd5b91607f169161349d565b8054600093926134d78261348e565b9182825260209360019160018116908160001461353f57506001146134fe575b5050505050565b90939495506000929192528360002092846000945b83861061352b575050505001019038808080806134f7565b805485870183015294019385908201613513565b60ff19168685015250505090151560051b0101915038808080806134f7565b61018081019081106001600160401b0382111761103557604052565b6101e081019081106001600160401b0382111761103557604052565b606081019081106001600160401b0382111761103557604052565b608081019081106001600160401b0382111761103557604052565b90601f801991011681019081106001600160401b0382111761103557604052565b6004111561039157565b919082519283825260005b848110613623575050826000602080949584010152601f8019910116010190565b602081830181015184830182015201613602565b9060068210156103915752565b6080810192916000915b6004831061365b57505050565b60019082518152602080910192019201919061364e565b9060038210156103915752565b906136e46136d26136c0610180855185526020860151602086015260018060a01b0360408701511660408601526060860151908060608701528501906135f7565b608085015184820360808601526135f7565b60a084015183820360a08501526135f7565b9160c081015160c083015260e081015160e0830152610100808201519083015261012080820151908301526137226101408083015190840190613672565b6101608091015191015290565b346103a75760003660031901126103a75760206040516113888152f35b600435906001600160a01b03821682036103a757565b602435906001600160a01b03821682036103a757565b6024359060ff821682036103a757565b81601f820112156103a7578035906001600160401b03821161103557604051926137bc601f8401601f1916602001856135cc565b828452602083830101116103a757816000926020809301838601378301015290565b346103a75760003660031901126103a75760206040516101f48152f35b346103a75760003660031901126103a7576020604051610bb88152f35b906138fc916138946138826138706101e0845186526020850151602087015260018060a01b0360408601511660408701526060850151613857816135ed565b60608701526080850151908060808801528601906135f7565b60a084015185820360a08701526135f7565b60c083015184820360c08601526135f7565b9160e082015160e0820152610100808301519082015261012080830151908201526101408083015190820152610160808301519082015261018080830151908201526138e96101a08084015190830190613637565b6101c080920151918184039101526135f7565b90565b8115613909570490565b634e487b7160e01b600052601260045260246000fd5b9060048110156139305760051b0190565b634e487b7160e01b600052603260045260246000fd5b6040805191613954836135b1565b608036843782906012549384156139e5575060005b6004808210156139dc5761397c826135ed565b613985826135ed565b816000526010602052846000205490612710918281029281840414901517156139c75750906139b6866001936138ff565b6139c0828661391f565b5201613969565b601190634e487b7160e01b6000525260246000fd5b50509250905090565b9350915050565b9060068110156103915760ff80198354169116179055565b60405190613a118261355e565b8161016060009182815282602082015282604082015260608082015260606080820152606060a08201528260c08201528260e08201528261010082015282610120820152826101408201520152565b90604051613a6d8161355e565b8092805482526001810154602083015260018060a01b036002820154166040830152604051613aa381611d9b81600386016134c8565b6060830152604051613abc81611d9b81600486016134c8565b6080830152604051613ad581611d9b81600586016134c8565b60a0830152600681015460c0830152600781015460e08301526008810154610100830152600981015461012083015260ff600a8201541660038110156103915761016091600b916101408501520154910152565b15613b3057565b60405162461bcd60e51b815260206004820152601360248201527250726f706f73616c206e6f742061637469766560681b6044820152606490fd5b15613b7257565b60405162461bcd60e51b8152602060048201526012602482015271159bdd1a5b99c81b9bdd081cdd185c9d195960721b6044820152606490fd5b15613bb357565b60405162461bcd60e51b815260206004820152600c60248201526b159bdd1a5b99c8195b99195960a21b6044820152606490fd5b15613bee57565b60405162461bcd60e51b8152602060048201526011602482015270496e76616c696420766f7465207479706560781b6044820152606490fd5b15613c2e57565b60405162461bcd60e51b815260206004820152600d60248201526c105b1c9958591e481d9bdd1959609a1b6044820152606490fd5b600019811461072c5760010190565b15613c7957565b60405162461bcd60e51b815260206004820152600f60248201526e2737903b37ba34b733903837bbb2b960891b6044820152606490fd5b9190820180921161072c57565b90601f8111613ccb57505050565b6000916000526020600020906020601f850160051c83019410613d09575b601f0160051c01915b828110613cfe57505050565b818155600101613cf2565b9092508290613ce9565b6012548015613e19576000805b60049081831015613df457613d34836135ed565b613d3d836135ed565b82600052601060205260406000205461271090818102918183041490151715613ddf5784613d6a916138ff565b6109c49290600084821115613dbb57506109c3198101908111613da6575b83039283116139c75750600191613d9e91613cb0565b910190613d20565b601182634e487b7160e01b6000525260246000fd5b90840390848211613dcc5750613d88565b634e487b7160e01b815260118352602490fd5b601183634e487b7160e01b6000525260246000fd5b9250505060011c90611388820180921161072c57612710808311613e155750565b9150565b50600090565b15613e2657565b60405162461bcd60e51b815260206004820152601b60248201527f4d75737420686f6c6420746f6b656e7320746f2070726f706f736500000000006044820152606490fd5b6001600160401b0381116110355760051b60200190565b60405190613e8f8261357a565b60606101c083600080825280602083015280604083015280848301528360808301528360a08301528360c08301528060e083015280610100830152806101208301528061014083015280610160830152806101808301526101a08201520152565b80518210156139305760209160051b010190565b90604091825192613f148461357a565b815484526001820154602085015260028201546001600160a01b03811682860152849060a01c60ff16613f46816135ed565b60608201528151613f5e81611d9b81600388016134c8565b60808201528151613f7681611d9b81600488016134c8565b60a08201528151613f8e81611d9b81600588016134c8565b60c0820152600683015460e0820152600783015461010082015260088301546101208201526009830154610140820152600a830154610160820152600b83015461018082015260ff600c8401541691600683101561039157600d9361400561400c926101c0956101a08601525180968193016134c8565b03846135cc565b0152565b600052600c60205260406000206140306007600683015492015482613cb0565b8015614053576127109182810292818404149015171561072c576138fc916138ff565b5050600090565b1561406157565b60405162461bcd60e51b815260206004820152600f60248201526e506f6c6c206e6f742061637469766560881b6044820152606490fd5b60018060a01b0316600052600b602052604060002054420342811161072c5762278d0010156140c657600090565b60055490565b3360009081527fad3228b676f7d3cd4284a5443f17f1962b36e491b30a40b2405849e597ba5fb5602052604081205460ff1615612ff05750565b3360009081527f3412d5605ac6cd444957cedb533e5dacad6378b4bc819ebe3652188a665066d560205260409020547fb09aa5aeb3702cfd50b6b62bc4532604938f21248a27a1d5ca736082b6819cc19060ff1615612ff05750565b80600052600060205260406000203360005260205260ff6040600020541615612ff05750565b600260015414614199576002600155565b604051633ee5aeb560e01b8152600490fd5b9190916141b7816135ed565b600092818452602093601085526141e26040928383206141d8828254613cb0565b9055601254613cb0565b94856012558561424f575b8394955061421b7f0f5c781c3e6e5f46e3229c8b1e6e98f96d8a2fe20aa04baf40e0fba44a06d5f1946135ed565b84825260108152828083205492614231876135ed565b86815260118352205490614244866135ed565b8351928352820152a2565b614258846135ed565b8382526010815282822054612710908181029181830414901517156142c1577f0f5c781c3e6e5f46e3229c8b1e6e98f96d8a2fe20aa04baf40e0fba44a06d5f19495966142a4916138ff565b6142ad866135ed565b8583526011825283832055859493506141ed565b634e487b7160e01b83526011600452602483fd5b9060009180835282602052604083209160018060a01b03169182845260205260ff6040842054161560001461434e57808352826020526040832082845260205260408320600160ff198254161790557f2f8788117e7eff1d82e926ec794901d17c78024a50270940304540a733656f0d339380a4600190565b505090565b9060009180835282602052604083209160018060a01b03169182845260205260ff60408420541660001461434e5780835282602052604083208284526020526040832060ff1981541690557ff6391f5c32d9c69d2a47ea670b442974b53935d1edc7fd64eb21e047a839171b339380a4600190565b6143d1816135ed565b80614434576107d0905b6143e4816135ed565b600052601160205261138860406000205410156143fe5790565b6101f481111561442b576101f319810190811161072c575b6103e89081811015614426575090565b905090565b506103e8614416565b61443d816135ed565b6001810361444e57610bb8906143db565b614457816135ed565b60028103614468576109c4906143db565b611388906143db565b91907f7fffffffffffffffffffffffffffffff5d576e7357a4501ddfe92f46681b20a084116144f557926020929160ff608095604051948552168484015260408301526060820152600092839182805260015afa156144e95780516001600160a01b038116156144e057918190565b50809160019190565b604051903d90823e3d90fd5b50505060009160039190565b61450a816135ed565b80614513575050565b61451c816135ed565b600181036145365760405163f645eedf60e01b8152600490fd5b61453f816135ed565b600281036145605760405163fce698f760e01b815260048101839052602490fd5b8061456c6003926135ed565b146145745750565b602490604051906335e2f38360e21b82526004820152fdfeb1d569dc5621a0a51229b7ac0eff81f3e6df70a3f72fe608aa58f74bb69d7bb6a264697066735822122095e2c2e77d77c7fad58eaddffb5303d20eb256f7d5d7a81e0b0ead80c5e4ff2264736f6c634300081800332f8788117e7eff1d82e926ec794901d17c78024a50270940304540a733656f0d",
  "linkReferences": {},
  "deployedLinkReferences": {}
}