{
  "_format": "hh-sol-artifact-1",
  "contractName": "Governance",
  "sourceName": "contracts/Governance.sol",
  "abi": [
    {
      "inputs": [
        {
          "internalType": "address",
          "name": "_propertyToken",
          "type": "address"
        }
      ],
      "stateMutability": "nonpayable",
      "type": "constructor"
    },
    {
      "inputs": [],
      "name": "AccessControlBadConfirmation",
      "type": "error"
    },
    {
      "inputs": [
        {
          "internalType": "address",
          "name": "account",
          "type": "address"
        },
        {
          "internalType": "bytes32",
          "name": "neededRole",
          "type": "bytes32"
        }
      ],
      "name": "AccessControlUnauthorizedAccount",
      "type": "error"
    },
    {
      "inputs": [],
      "name": "ECDSAInvalidSignature",
      "type": "error"
    },
    {
      "inputs": [
        {
          "internalType": "uint256",
          "name": "length",
          "type": "uint256"
        }
      ],
      "name": "ECDSAInvalidSignatureLength",
      "type": "error"
    },
    {
      "inputs": [
        {
          "internalType": "bytes32",
          "name": "s",
          "type": "bytes32"
        }
      ],
      "name": "ECDSAInvalidSignatureS",
      "type": "error"
    },
    {
      "inputs": [],
      "name": "ReentrancyGuardReentrantCall",
      "type": "error"
    },
    {
      "anonymous": false,
      "inputs": [
        {
          "indexed": true,
          "internalType": "uint256",
          "name": "proposalId",
          "type": "uint256"
        },
        {
          "indexed": true,
          "internalType": "address",
          "name": "voter",
          "type": "address"
        },
        {
          "indexed": false,
          "internalType": "uint8",
          "name": "support",
          "type": "uint8"
        },
        {
          "indexed": false,
          "internalType": "uint256",
          "name": "weight",
          "type": "uint256"
        },
        {
          "indexed": false,
          "internalType": "address",
          "name": "relayer",
          "type": "address"
        }
      ],
      "name": "OffChainVoteCast",
      "type": "event"
    },
    {
      "anonymous": false,
      "inputs": [
        {
          "indexed": true,
          "internalType": "uint256",
          "name": "pollId",
          "type": "uint256"
        },
        {
          "indexed": true,
          "internalType": "uint256",
          "name": "proposalId",
          "type": "uint256"
        }
      ],
      "name": "PollConvertedToProposal",
      "type": "event"
    },
    {
      "anonymous": false,
      "inputs": [
        {
          "indexed": true,
          "internalType": "uint256",
          "name": "pollId",
          "type": "uint256"
        },
        {
          "indexed": true,
          "internalType": "uint256",
          "name": "propertyId",
          "type": "uint256"
        },
        {
          "indexed": false,
          "internalType": "address",
          "name": "creator",
          "type": "address"
        },
        {
          "indexed": false,
          "internalType": "string",
          "name": "question",
          "type": "string"
        }
      ],
      "name": "PollCreated",
      "type": "event"
    },
    {
      "anonymous": false,
      "inputs": [
        {
          "indexed": true,
          "internalType": "uint256",
          "name": "pollId",
          "type": "uint256"
        },
        {
          "indexed": false,
          "internalType": "uint256",
          "name": "votesFor",
          "type": "uint256"
        },
        {
          "indexed": false,
          "internalType": "uint256",
          "name": "votesAgainst",
          "type": "uint256"
        }
      ],
      "name": "PollEnded",
      "type": "event"
    },
    {
      "anonymous": false,
      "inputs": [
        {
          "indexed": true,
          "internalType": "uint256",
          "name": "pollId",
          "type": "uint256"
        },
        {
          "indexed": true,
          "internalType": "address",
          "name": "voter",
          "type": "address"
        },
        {
          "indexed": false,
          "internalType": "bool",
          "name": "support",
          "type": "bool"
        }
      ],
      "name": "PollVoteCast",
      "type": "event"
    },
    {
      "anonymous": false,
      "inputs": [
        {
          "indexed": true,
          "internalType": "uint256",
          "name": "proposalId",
          "type": "uint256"
        }
      ],
      "name": "ProposalCancelled",
      "type": "event"
    },
    {
      "anonymous": false,
      "inputs": [
        {
          "indexed": true,
          "internalType": "uint256",
          "name": "proposalId",
          "type": "uint256"
        },
        {
          "indexed": true,
          "internalType": "uint256",
          "name": "propertyId",
          "type": "uint256"
        },
        {
          "indexed": false,
          "internalType": "address",
          "name": "proposer",
          "type": "address"
        },
        {
          "indexed": false,
          "internalType": "enum Governance.ProposalType",
          "name": "proposalType",
          "type": "uint8"
        },
        {
          "indexed": false,
          "internalType": "string",
          "name": "title",
          "type": "string"
        }
      ],
      "name": "ProposalCreated",
      "type": "event"
    },
    {
      "anonymous": false,
      "inputs": [
        {
          "indexed": true,
          "internalType": "uint256",
          "name": "proposalId",
          "type": "uint256"
        }
      ],
      "name": "ProposalExecuted",
      "type": "event"
    },
    {
      "anonymous": false,
      "inputs": [
        {
          "indexed": true,
          "internalType": "bytes32",
          "name": "role",
          "type": "bytes32"
        },
        {
          "indexed": true,
          "internalType": "bytes32",
          "name": "previousAdminRole",
          "type": "bytes32"
        },
        {
          "indexed": true,
          "internalType": "bytes32",
          "name": "newAdminRole",
          "type": "bytes32"
        }
      ],
      "name": "RoleAdminChanged",
      "type": "event"
    },
    {
      "anonymous": false,
      "inputs": [
        {
          "indexed": true,
          "internalType": "bytes32",
          "name": "role",
          "type": "bytes32"
        },
        {
          "indexed": true,
          "internalType": "address",
          "name": "account",
          "type": "address"
        },
        {
          "indexed": true,
          "internalType": "address",
          "name": "sender",
          "type": "address"
        }
      ],
      "name": "RoleGranted",
      "type": "event"
    },
    {
      "anonymous": false,
      "inputs": [
        {
          "indexed": true,
          "internalType": "bytes32",
          "name": "role",
          "type": "bytes32"
        },
        {
          "indexed": true,
          "internalType": "address",
          "name": "account",
          "type": "address"
        },
        {
          "indexed": true,
          "internalType": "address",
          "name": "sender",
          "type": "address"
        }
      ],
      "name": "RoleRevoked",
      "type": "event"
    },
    {
      "anonymous": false,
      "inputs": [
        {
          "indexed": true,
          "internalType": "uint256",
          "name": "proposalId",
          "type": "uint256"
        },
        {
          "indexed": true,
          "internalType": "address",
          "name": "voter",
          "type": "address"
        },
        {
          "indexed": false,
          "internalType": "uint8",
          "name": "support",
          "type": "uint8"
        },
        {
          "indexed": false,
          "internalType": "uint256",
          "name": "weight",
          "type": "uint256"
        }
      ],
      "name": "VoteCast",
      "type": "event"
    },
    {
      "anonymous": false,
      "inputs": [
        {
          "indexed": false,
          "internalType": "uint256",
          "name": "newBonus",
          "type": "uint256"
        }
      ],
      "name": "VoteToEarnBonusUpdated",
      "type": "event"
    },
    {
      "anonymous": false,
      "inputs": [
        {
          "indexed": false,
          "internalType": "uint256",
          "name": "newPeriod",
          "type": "uint256"
        }
      ],
      "name": "VotingPeriodUpdated",
      "type": "event"
    },
    {
      "inputs": [],
      "name": "DEFAULT_ADMIN_ROLE",
      "outputs": [
        {
          "internalType": "bytes32",
          "name": "",
          "type": "bytes32"
        }
      ],
      "stateMutability": "view",
      "type": "function"
    },
    {
      "inputs": [],
      "name": "DOMAIN_SEPARATOR",
      "outputs": [
        {
          "internalType": "bytes32",
          "name": "",
          "type": "bytes32"
        }
      ],
      "stateMutability": "view",
      "type": "function"
    },
    {
      "inputs": [],
      "name": "EXECUTOR_ROLE",
      "outputs": [
        {
          "internalType": "bytes32",
          "name": "",
          "type": "bytes32"
        }
      ],
      "stateMutability": "view",
      "type": "function"
    },
    {
      "inputs": [],
      "name": "POLL_PROPOSAL_THRESHOLD",
      "outputs": [
        {
          "internalType": "uint256",
          "name": "",
          "type": "uint256"
        }
      ],
      "stateMutability": "view",
      "type": "function"
    },
    {
      "inputs": [],
      "name": "POLL_QUORUM_BONUS",
      "outputs": [
        {
          "internalType": "uint256",
          "name": "",
          "type": "uint256"
        }
      ],
      "stateMutability": "view",
      "type": "function"
    },
    {
      "inputs": [],
      "name": "PROPOSER_ROLE",
      "outputs": [
        {
          "internalType": "bytes32",
          "name": "",
          "type": "bytes32"
        }
      ],
      "stateMutability": "view",
      "type": "function"
    },
    {
      "inputs": [],
      "name": "QUORUM_EMERGENCY",
      "outputs": [
        {
          "internalType": "uint256",
          "name": "",
          "type": "uint256"
        }
      ],
      "stateMutability": "view",
      "type": "function"
    },
    {
      "inputs": [],
      "name": "QUORUM_PARAMETER",
      "outputs": [
        {
          "internalType": "uint256",
          "name": "",
          "type": "uint256"
        }
      ],
      "stateMutability": "view",
      "type": "function"
    },
    {
      "inputs": [],
      "name": "QUORUM_PROPERTY",
      "outputs": [
        {
          "internalType": "uint256",
          "name": "",
          "type": "uint256"
        }
      ],
      "stateMutability": "view",
      "type": "function"
    },
    {
      "inputs": [],
      "name": "QUORUM_TREASURY",
      "outputs": [
        {
          "internalType": "uint256",
          "name": "",
          "type": "uint256"
        }
      ],
      "stateMutability": "view",
      "type": "function"
    },
    {
      "inputs": [],
      "name": "RELAYER_ROLE",
      "outputs": [
        {
          "internalType": "bytes32",
          "name": "",
          "type": "bytes32"
        }
      ],
      "stateMutability": "view",
      "type": "function"
    },
    {
      "inputs": [],
      "name": "VOTE_TYPEHASH",
      "outputs": [
        {
          "internalType": "bytes32",
          "name": "",
          "type": "bytes32"
        }
      ],
      "stateMutability": "view",
      "type": "function"
    },
    {
      "inputs": [
        {
          "internalType": "uint256",
          "name": "proposalId",
          "type": "uint256"
        }
      ],
      "name": "cancelProposal",
      "outputs": [],
      "stateMutability": "nonpayable",
      "type": "function"
    },
    {
      "inputs": [
        {
          "internalType": "uint256",
          "name": "proposalId",
          "type": "uint256"
        },
        {
          "internalType": "uint8",
          "name": "support",
          "type": "uint8"
        }
      ],
      "name": "castVote",
      "outputs": [],
      "stateMutability": "nonpayable",
      "type": "function"
    },
    {
      "inputs": [
        {
          "internalType": "uint256",
          "name": "proposalId",
          "type": "uint256"
        },
        {
          "internalType": "uint8",
          "name": "support",
          "type": "uint8"
        },
        {
          "internalType": "address",
          "name": "voter",
          "type": "address"
        },
        {
          "internalType": "uint256",
          "name": "deadline",
          "type": "uint256"
        },
        {
          "internalType": "uint8",
          "name": "v",
          "type": "uint8"
        },
        {
          "internalType": "bytes32",
          "name": "r",
          "type": "bytes32"
        },
        {
          "internalType": "bytes32",
          "name": "s",
          "type": "bytes32"
        }
      ],
      "name": "castVoteBySignature",
      "outputs": [],
      "stateMutability": "nonpayable",
      "type": "function"
    },
    {
      "inputs": [
        {
          "internalType": "uint256",
          "name": "propertyId",
          "type": "uint256"
        },
        {
          "internalType": "string",
          "name": "question",
          "type": "string"
        },
        {
          "internalType": "string",
          "name": "description",
          "type": "string"
        },
        {
          "internalType": "string",
          "name": "ipfsHash",
          "type": "string"
        },
        {
          "internalType": "uint256",
          "name": "duration",
          "type": "uint256"
        }
      ],
      "name": "createPoll",
      "outputs": [
        {
          "internalType": "uint256",
          "name": "",
          "type": "uint256"
        }
      ],
      "stateMutability": "nonpayable",
      "type": "function"
    },
    {
      "inputs": [
        {
          "internalType": "uint256",
          "name": "propertyId",
          "type": "uint256"
        },
        {
          "internalType": "enum Governance.ProposalType",
          "name": "proposalType",
          "type": "uint8"
        },
        {
          "internalType": "string",
          "name": "title",
          "type": "string"
        },
        {
          "internalType": "string",
          "name": "description",
          "type": "string"
        },
        {
          "internalType": "string",
          "name": "ipfsHash",
          "type": "string"
        },
        {
          "internalType": "bytes",
          "name": "executionData",
          "type": "bytes"
        }
      ],
      "name": "createProposal",
      "outputs": [
        {
          "internalType": "uint256",
          "name": "",
          "type": "uint256"
        }
      ],
      "stateMutability": "nonpayable",
      "type": "function"
    },
    {
      "inputs": [
        {
          "internalType": "uint256",
          "name": "pollId",
          "type": "uint256"
        },
        {
          "internalType": "enum Governance.ProposalType",
          "name": "proposalType",
          "type": "uint8"
        },
        {
          "internalType": "bytes",
          "name": "executionData",
          "type": "bytes"
        }
      ],
      "name": "createProposalFromPoll",
      "outputs": [
        {
          "internalType": "uint256",
          "name": "",
          "type": "uint256"
        }
      ],
      "stateMutability": "nonpayable",
      "type": "function"
    },
    {
      "inputs": [
        {
          "internalType": "uint256",
          "name": "pollId",
          "type": "uint256"
        }
      ],
      "name": "endPoll",
      "outputs": [],
      "stateMutability": "nonpayable",
      "type": "function"
    },
    {
      "inputs": [
        {
          "internalType": "uint256",
          "name": "proposalId",
          "type": "uint256"
        }
      ],
      "name": "executeProposal",
      "outputs": [],
      "stateMutability": "nonpayable",
      "type": "function"
    },
    {
      "inputs": [
        {
          "internalType": "uint256",
          "name": "proposalId",
          "type": "uint256"
        }
      ],
      "name": "finalizeProposal",
      "outputs": [],
      "stateMutability": "nonpayable",
      "type": "function"
    },
    {
      "inputs": [
        {
          "internalType": "uint256",
          "name": "propertyId",
          "type": "uint256"
        }
      ],
      "name": "getActivePolls",
      "outputs": [
        {
          "components": [
            {
              "internalType": "uint256",
              "name": "id",
              "type": "uint256"
            },
            {
              "internalType": "uint256",
              "name": "propertyId",
              "type": "uint256"
            },
            {
              "internalType": "address",
              "name": "creator",
              "type": "address"
            },
            {
              "internalType": "string",
              "name": "question",
              "type": "string"
            },
            {
              "internalType": "string",
              "name": "description",
              "type": "string"
            },
            {
              "internalType": "string",
              "name": "ipfsHash",
              "type": "string"
            },
            {
              "internalType": "uint256",
              "name": "votesFor",
              "type": "uint256"
            },
            {
              "internalType": "uint256",
              "name": "votesAgainst",
              "type": "uint256"
            },
            {
              "internalType": "uint256",
              "name": "startTime",
              "type": "uint256"
            },
            {
              "internalType": "uint256",
              "name": "endTime",
              "type": "uint256"
            },
            {
              "internalType": "enum Governance.PollStatus",
              "name": "status",
              "type": "uint8"
            },
            {
              "internalType": "uint256",
              "name": "linkedProposalId",
              "type": "uint256"
            }
          ],
          "internalType": "struct Governance.Poll[]",
          "name": "",
          "type": "tuple[]"
        }
      ],
      "stateMutability": "view",
      "type": "function"
    },
    {
      "inputs": [
        {
          "internalType": "uint256",
          "name": "propertyId",
          "type": "uint256"
        }
      ],
      "name": "getActiveProposals",
      "outputs": [
        {
          "components": [
            {
              "internalType": "uint256",
              "name": "id",
              "type": "uint256"
            },
            {
              "internalType": "uint256",
              "name": "propertyId",
              "type": "uint256"
            },
            {
              "internalType": "address",
              "name": "proposer",
              "type": "address"
            },
            {
              "internalType": "enum Governance.ProposalType",
              "name": "proposalType",
              "type": "uint8"
            },
            {
              "internalType": "string",
              "name": "title",
              "type": "string"
            },
            {
              "internalType": "string",
              "name": "description",
              "type": "string"
            },
            {
              "internalType": "string",
              "name": "ipfsHash",
              "type": "string"
            },
            {
              "internalType": "uint256",
              "name": "votesFor",
              "type": "uint256"
            },
            {
              "internalType": "uint256",
              "name": "votesAgainst",
              "type": "uint256"
            },
            {
              "internalType": "uint256",
              "name": "votesAbstain",
              "type": "uint256"
            },
            {
              "internalType": "uint256",
              "name": "startTime",
              "type": "uint256"
            },
            {
              "internalType": "uint256",
              "name": "endTime",
              "type": "uint256"
            },
            {
              "internalType": "uint256",
              "name": "quorumRequired",
              "type": "uint256"
            },
            {
              "internalType": "enum Governance.ProposalStatus",
              "name": "status",
              "type": "uint8"
            },
            {
              "internalType": "bytes",
              "name": "executionData",
              "type": "bytes"
            }
          ],
          "internalType": "struct Governance.Proposal[]",
          "name": "",
          "type": "tuple[]"
        }
      ],
      "stateMutability": "view",
      "type": "function"
    },
    {
      "inputs": [
        {
          "internalType": "address",
          "name": "voter",
          "type": "address"
        }
      ],
      "name": "getNonce",
      "outputs": [
        {
          "internalType": "uint256",
          "name": "",
          "type": "uint256"
        }
      ],
      "stateMutability": "view",
      "type": "function"
    },
    {
      "inputs": [
        {
          "internalType": "uint256",
          "name": "pollId",
          "type": "uint256"
        }
      ],
      "name": "getPoll",
      "outputs": [
        {
          "components": [
            {
              "internalType": "uint256",
              "name": "id",
              "type": "uint256"
            },
            {
              "internalType": "uint256",
              "name": "propertyId",
              "type": "uint256"
            },
            {
              "internalType": "address",
              "name": "creator",
              "type": "address"
            },
            {
              "internalType": "string",
              "name": "question",
              "type": "string"
            },
            {
              "internalType": "string",
              "name": "description",
              "type": "string"
            },
            {
              "internalType": "string",
              "name": "ipfsHash",
              "type": "string"
            },
            {
              "internalType": "uint256",
              "name": "votesFor",
              "type": "uint256"
            },
            {
              "internalType": "uint256",
              "name": "votesAgainst",
              "type": "uint256"
            },
            {
              "internalType": "uint256",
              "name": "startTime",
              "type": "uint256"
            },
            {
              "internalType": "uint256",
              "name": "endTime",
              "type": "uint256"
            },
            {
              "internalType": "enum Governance.PollStatus",
              "name": "status",
              "type": "uint8"
            },
            {
              "internalType": "uint256",
              "name": "linkedProposalId",
              "type": "uint256"
            }
          ],
          "internalType": "struct Governance.Poll",
          "name": "",
          "type": "tuple"
        }
      ],
      "stateMutability": "view",
      "type": "function"
    },
    {
      "inputs": [
        {
          "internalType": "uint256",
          "name": "pollId",
          "type": "uint256"
        }
      ],
      "name": "getPollSupport",
      "outputs": [
        {
          "internalType": "uint256",
          "name": "",
          "type": "uint256"
        }
      ],
      "stateMutability": "view",
      "type": "function"
    },
    {
      "inputs": [
        {
          "internalType": "uint256",
          "name": "proposalId",
          "type": "uint256"
        }
      ],
      "name": "getProposal",
      "outputs": [
        {
          "components": [
            {
              "internalType": "uint256",
              "name": "id",
              "type": "uint256"
            },
            {
              "internalType": "uint256",
              "name": "propertyId",
              "type": "uint256"
            },
            {
              "internalType": "address",
              "name": "proposer",
              "type": "address"
            },
            {
              "internalType": "enum Governance.ProposalType",
              "name": "proposalType",
              "type": "uint8"
            },
            {
              "internalType": "string",
              "name": "title",
              "type": "string"
            },
            {
              "internalType": "string",
              "name": "description",
              "type": "string"
            },
            {
              "internalType": "string",
              "name": "ipfsHash",
              "type": "string"
            },
            {
              "internalType": "uint256",
              "name": "votesFor",
              "type": "uint256"
            },
            {
              "internalType": "uint256",
              "name": "votesAgainst",
              "type": "uint256"
            },
            {
              "internalType": "uint256",
              "name": "votesAbstain",
              "type": "uint256"
            },
            {
              "internalType": "uint256",
              "name": "startTime",
              "type": "uint256"
            },
            {
              "internalType": "uint256",
              "name": "endTime",
              "type": "uint256"
            },
            {
              "internalType": "uint256",
              "name": "quorumRequired",
              "type": "uint256"
            },
            {
              "internalType": "enum Governance.ProposalStatus",
              "name": "status",
              "type": "uint8"
            },
            {
              "internalType": "bytes",
              "name": "executionData",
              "type": "bytes"
            }
          ],
          "internalType": "struct Governance.Proposal",
          "name": "",
          "type": "tuple"
        }
      ],
      "stateMutability": "view",
      "type": "function"
    },
    {
      "inputs": [
        {
          "internalType": "bytes32",
          "name": "role",
          "type": "bytes32"
        }
      ],
      "name": "getRoleAdmin",
      "outputs": [
        {
          "internalType": "bytes32",
          "name": "",
          "type": "bytes32"
        }
      ],
      "stateMutability": "view",
      "type": "function"
    },
    {
      "inputs": [
        {
          "internalType": "uint256",
          "name": "proposalId",
          "type": "uint256"
        },
        {
          "internalType": "address",
          "name": "voter",
          "type": "address"
        }
      ],
      "name": "getVote",
      "outputs": [
        {
          "components": [
            {
              "internalType": "bool",
              "name": "hasVoted",
              "type": "bool"
            },
            {
              "internalType": "uint8",
              "name": "support",
              "type": "uint8"
            },
            {
              "internalType": "uint256",
              "name": "weight",
              "type": "uint256"
            }
          ],
          "internalType": "struct Governance.Vote",
          "name": "",
          "type": "tuple"
        }
      ],
      "stateMutability": "view",
      "type": "function"
    },
    {
      "inputs": [
        {
          "internalType": "address",
          "name": "voter",
          "type": "address"
        }
      ],
      "name": "getVoteToEarnBonus",
      "outputs": [
        {
          "internalType": "uint256",
          "name": "",
          "type": "uint256"
        }
      ],
      "stateMutability": "view",
      "type": "function"
    },
    {
      "inputs": [
        {
          "internalType": "bytes32",
          "name": "role",
          "type": "bytes32"
        },
        {
          "internalType": "address",
          "name": "account",
          "type": "address"
        }
      ],
      "name": "grantRole",
      "outputs": [],
      "stateMutability": "nonpayable",
      "type": "function"
    },
    {
      "inputs": [
        {
          "internalType": "bytes32",
          "name": "role",
          "type": "bytes32"
        },
        {
          "internalType": "address",
          "name": "account",
          "type": "address"
        }
      ],
      "name": "hasRole",
      "outputs": [
        {
          "internalType": "bool",
          "name": "",
          "type": "bool"
        }
      ],
      "stateMutability": "view",
      "type": "function"
    },
    {
      "inputs": [
        {
          "internalType": "address",
          "name": "",
          "type": "address"
        }
      ],
      "name": "lastVoteTimestamp",
      "outputs": [
        {
          "internalType": "uint256",
          "name": "",
          "type": "uint256"
        }
      ],
      "stateMutability": "view",
      "type": "function"
    },
    {
      "inputs": [
        {
          "internalType": "address",
          "name": "",
          "type": "address"
        }
      ],
      "name": "nonces",
      "outputs": [
        {
          "internalType": "uint256",
          "name": "",
          "type": "uint256"
        }
      ],
      "stateMutability": "view",
      "type": "function"
    },
    {
      "inputs": [],
      "name": "pollCount",
      "outputs": [
        {
          "internalType": "uint256",
          "name": "",
          "type": "uint256"
        }
      ],
      "stateMutability": "view",
      "type": "function"
    },
    {
      "inputs": [
        {
          "internalType": "uint256",
          "name": "",
          "type": "uint256"
        }
      ],
      "name": "pollParticipants",
      "outputs": [
        {
          "internalType": "uint256",
          "name": "",
          "type": "uint256"
        }
      ],
      "stateMutability": "view",
      "type": "function"
    },
    {
      "inputs": [
        {
          "internalType": "uint256",
          "name": "",
          "type": "uint256"
        },
        {
          "internalType": "address",
          "name": "",
          "type": "address"
        }
      ],
      "name": "pollVotes",
      "outputs": [
        {
          "internalType": "bool",
          "name": "hasVoted",
          "type": "bool"
        },
        {
          "internalType": "bool",
          "name": "support",
          "type": "bool"
        }
      ],
      "stateMutability": "view",
      "type": "function"
    },
    {
      "inputs": [
        {
          "internalType": "uint256",
          "name": "",
          "type": "uint256"
        }
      ],
      "name": "polls",
      "outputs": [
        {
          "internalType": "uint256",
          "name": "id",
          "type": "uint256"
        },
        {
          "internalType": "uint256",
          "name": "propertyId",
          "type": "uint256"
        },
        {
          "internalType": "address",
          "name": "creator",
          "type": "address"
        },
        {
          "internalType": "string",
          "name": "question",
          "type": "string"
        },
        {
          "internalType": "string",
          "name": "description",
          "type": "string"
        },
        {
          "internalType": "string",
          "name": "ipfsHash",
          "type": "string"
        },
        {
          "internalType": "uint256",
          "name": "votesFor",
          "type": "uint256"
        },
        {
          "internalType": "uint256",
          "name": "votesAgainst",
          "type": "uint256"
        },
        {
          "internalType": "uint256",
          "name": "startTime",
          "type": "uint256"
        },
        {
          "internalType": "uint256",
          "name": "endTime",
          "type": "uint256"
        },
        {
          "internalType": "enum Governance.PollStatus",
          "name": "status",
          "type": "uint8"
        },
        {
          "internalType": "uint256",
          "name": "linkedProposalId",
          "type": "uint256"
        }
      ],
      "stateMutability": "view",
      "type": "function"
    },
    {
      "inputs": [],
      "name": "propertyToken",
      "outputs": [
        {
          "internalType": "contract IPropertyToken",
          "name": "",
          "type": "address"
        }
      ],
      "stateMutability": "view",
      "type": "function"
    },
    {
      "inputs": [],
      "name": "proposalCount",
      "outputs": [
        {
          "internalType": "uint256",
          "name": "",
          "type": "uint256"
        }
      ],
      "stateMutability": "view",
      "type": "function"
    },
    {
      "inputs": [
        {
          "internalType": "uint256",
          "name": "",
          "type": "uint256"
        }
      ],
      "name": "proposals",
      "outputs": [
        {
          "internalType": "uint256",
          "name": "id",
          "type": "uint256"
        },
        {
          "internalType": "uint256",
          "name": "propertyId",
          "type": "uint256"
        },
        {
          "internalType": "address",
          "name": "proposer",
          "type": "address"
        },
        {
          "internalType": "enum Governance.ProposalType",
          "name": "proposalType",
          "type": "uint8"
        },
        {
          "internalType": "string",
          "name": "title",
          "type": "string"
        },
        {
          "internalType": "string",
          "name": "description",
          "type": "string"
        },
        {
          "internalType": "string",
          "name": "ipfsHash",
          "type": "string"
        },
        {
          "internalType": "uint256",
          "name": "votesFor",
          "type": "uint256"
        },
        {
          "internalType": "uint256",
          "name": "votesAgainst",
          "type": "uint256"
        },
        {
          "internalType": "uint256",
          "name": "votesAbstain",
          "type": "uint256"
        },
        {
          "internalType": "uint256",
          "name": "startTime",
          "type": "uint256"
        },
        {
          "internalType": "uint256",
          "name": "endTime",
          "type": "uint256"
        },
        {
          "internalType": "uint256",
          "name": "quorumRequired",
          "type": "uint256"
        },
        {
          "internalType": "enum Governance.ProposalStatus",
          "name": "status",
          "type": "uint8"
        },
        {
          "internalType": "bytes",
          "name": "executionData",
          "type": "bytes"
        }
      ],
      "stateMutability": "view",
      "type": "function"
    },
    {
      "inputs": [
        {
          "internalType": "bytes32",
          "name": "role",
          "type": "bytes32"
        },
        {
          "internalType": "address",
          "name": "callerConfirmation",
          "type": "address"
        }
      ],
      "name": "renounceRole",
      "outputs": [],
      "stateMutability": "nonpayable",
      "type": "function"
    },
    {
      "inputs": [
        {
          "internalType": "bytes32",
          "name": "role",
          "type": "bytes32"
        },
        {
          "internalType": "address",
          "name": "account",
          "type": "address"
        }
      ],
      "name": "revokeRole",
      "outputs": [],
      "stateMutability": "nonpayable",
      "type": "function"
    },
    {
      "inputs": [
        {
          "internalType": "uint256",
          "name": "newBonus",
          "type": "uint256"
        }
      ],
      "name": "setVoteToEarnBonus",
      "outputs": [],
      "stateMutability": "nonpayable",
      "type": "function"
    },
    {
      "inputs": [
        {
          "internalType": "uint256",
          "name": "newPeriod",
          "type": "uint256"
        }
      ],
      "name": "setVotingPeriod",
      "outputs": [],
      "stateMutability": "nonpayable",
      "type": "function"
    },
    {
      "inputs": [
        {
          "internalType": "bytes4",
          "name": "interfaceId",
          "type": "bytes4"
        }
      ],
      "name": "supportsInterface",
      "outputs": [
        {
          "internalType": "bool",
          "name": "",
          "type": "bool"
        }
      ],
      "stateMutability": "view",
      "type": "function"
    },
    {
      "inputs": [
        {
          "internalType": "uint256",
          "name": "",
          "type": "uint256"
        }
      ],
      "name": "totalVotingPower",
      "outputs": [
        {
          "internalType": "uint256",
          "name": "",
          "type": "uint256"
        }
      ],
      "stateMutability": "view",
      "type": "function"
    },
    {
      "inputs": [
        {
          "internalType": "uint256",
          "name": "pollId",
          "type": "uint256"
        },
        {
          "internalType": "bool",
          "name": "support",
          "type": "bool"
        }
      ],
      "name": "votePoll",
      "outputs": [],
      "stateMutability": "nonpayable",
      "type": "function"
    },
    {
      "inputs": [],
      "name": "voteToEarnBonus",
      "outputs": [
        {
          "internalType": "uint256",
          "name": "",
          "type": "uint256"
        }
      ],
      "stateMutability": "view",
      "type": "function"
    },
    {
      "inputs": [
        {
          "internalType": "address",
          "name": "",
          "type": "address"
        }
      ],
      "name": "voterParticipationCount",
      "outputs": [
        {
          "internalType": "uint256",
          "name": "",
          "type": "uint256"
        }
      ],
      "stateMutability": "view",
      "type": "function"
    },
    {
      "inputs": [
        {
          "internalType": "uint256",
          "name": "",
          "type": "uint256"
        },
        {
          "internalType": "address",
          "name": "",
          "type": "address"
        }
      ],
      "name": "votes",
      "outputs": [
        {
          "internalType": "bool",
          "name": "hasVoted",
          "type": "bool"
        },
        {
          "internalType": "uint8",
          "name": "support",
          "type": "uint8"
        },
        {
          "internalType": "uint256",
          "name": "weight",
          "type": "uint256"
        }
      ],
      "stateMutability": "view",
      "type": "function"
    },
    {
      "inputs": [],
      "name": "votingPeriod",
      "outputs": [
        {
          "internalType": "uint256",
          "name": "",
          "type": "uint256"
        }
      ],
      "stateMutability": "view",
      "type": "function"
    }
  ],
  "bytecode": "0x60a03462000199576001600160401b0390601f6200438438819003918201601f1916830192919084841183851017620001835781602092849260409687528339810103126200019957516001600160a01b0381169081900362000199576001805562093a806004556032600555600280546001600160a01b0319169190911790556200008b33620001ba565b5062000097336200023a565b50620000a333620002dc565b50620000af3362000379565b50601460208251620000c1816200019e565b828152017f52657669746148756220476f7665726e616e636500000000000000000000000081522090600160208251620000fb816200019e565b82815201603160f81b8152209080519160208301937f8b73c3c69bb8fe3d512ecc4cf759cc79239f7b179b0ffacaa9a75d522b39400f85528284015260608301524660808301523060a083015260a0825260c0820193828510908511176200018357839052519020608052613f4d90816200041782396080518181816124880152612b5c0152f35b634e487b7160e01b600052604160045260246000fd5b600080fd5b604081019081106001600160401b038211176200018357604052565b6001600160a01b031660008181527fad3228b676f7d3cd4284a5443f17f1962b36e491b30a40b2405849e597ba5fb5602052604081205490919060ff166200023657818052816020526040822081835260205260408220600160ff198254161790553391600080516020620043648339815191528180a4600190565b5090565b6001600160a01b031660008181527f3412d5605ac6cd444957cedb533e5dacad6378b4bc819ebe3652188a665066d560205260408120549091907fb09aa5aeb3702cfd50b6b62bc4532604938f21248a27a1d5ca736082b6819cc19060ff16620002d757808352826020526040832082845260205260408320600160ff1982541617905560008051602062004364833981519152339380a4600190565b505090565b6001600160a01b031660008181527fdae2aa361dfd1ca020a396615627d436107c35eff9fe7738a3512819782d706960205260408120549091907fd8aa0f3194971a2a116679f7c2090f6939c8d4e01a2a8d7e41d55e5351469e639060ff16620002d757808352826020526040832082845260205260408320600160ff1982541617905560008051602062004364833981519152339380a4600190565b6001600160a01b031660008181527ffaf93c3d007e112089dc8351e013e6685ef67703975d0224b26fc45941d4f1f560205260408120549091907fe2b7fb3b832174769106daebcfd6d1970523240dda11281102db9363b83b0dc49060ff16620002d757808352826020526040832082845260205260408320600160ff1982541617905560008051602062004364833981519152339380a460019056fe6080604052600436101561001257600080fd5b60003560e01c8063013cf08b1461303f57806301ffc9a714612fe957806302a251a314612fcb57806307bd026514612f905780630d61b51914612e805780631a8cbcaa14612e37578063248a9ca314612e08578063248bd47114612deb5780632d0335ab146112f05780632dcf0d731461296b5780632f2ff15d1461292c578063364478e2146124ab5780633644e5151461247057806336568abe146124295780633d8803e21461240c57806342a7c614146112eb57806343ae2695146123e35780634ce83cdb14611a97578063536f9f4214611a6b5780635394c87914611a4e5780635652077c1461191357806356781388146117075780635c7b264d146116cd5780636213e5ea14611535578063637e54ac146114dd57806363f0c7ff1461132a5780637ecebe00146112f0578063808c4479146112eb57806386522973146112b0578063872d1544146112245780638f61f4f5146111e957806391d148541461119c5780639207891d1461117e578063926d7d7f146111435780639b699e5714610a275780639c4e99ca14610a095780639d79a9eb146108d0578063a217fddf146108b4578063ac2f007414610783578063b277d02a14610766578063bc3f931f146106c8578063c3b028e21461069c578063c7f758a81461064f578063d23254b4146105ec578063d547741f146105ab578063da35c6641461058d578063dd9deb1b1461056f578063de1cf4ad14610535578063e0a8f6f51461040b578063ea0217cf14610369578063ecc52c041461033e5763f43b87781461025857600080fd5b346103395760203660031901126103395760043580600052600c6020526040600020600a81019081549060ff82166003811015610323576102999015613b4d565b600981015442106102e9577f76254391687772340030bc79660c2d1e15dad744f94894a52e52863b5fca111592600160409360ff19161790556007600682015491015482519182526020820152a2005b60405162461bcd60e51b8152602060048201526012602482015271141bdb1b081b9bdd08195b991959081e595d60721b6044820152606490fd5b634e487b7160e01b600052602160045260246000fd5b600080fd5b3461033957602036600319011261033957602061036161035c61341f565b613b8b565b604051908152f35b3461033957602036600319011261033957600435610385613c1b565b62015180811015806103fe575b156103c8576020817f651c77f42613a075437aa794c44471e3abc3a661956a67aaee165bb7396974aa92600455604051908152a1005b60405162461bcd60e51b815260206004820152600e60248201526d125b9d985b1a59081c195c9a5bd960921b6044820152606490fd5b5062278d00811115610392565b346103395760208060031936011261033957600435908160005260068152604060002060018060a01b0360028201541633148015610513575b156104dd57600c019081549060ff8216600681101561032357600181149081156104d4575b50156104a0575060ff191660051790557f416e669c63d9a3a5e36ee7cc7e2104b8db28ccd286aa18966e98fa230c73b08c600080a2005b6064906040519062461bcd60e51b82526004820152600d60248201526c10d85b9b9bdd0818d85b98d95b609a1b6044820152fd5b90501585610469565b60405162461bcd60e51b815260048101839052600e60248201526d139bdd08185d5d1a1bdc9a5e995960921b6044820152606490fd5b506000805260008252604060002033600052825260ff60406000205416610444565b34610339576020366003190112610339576001600160a01b0361055661341f565b16600052600b6020526020604060002054604051908152f35b34610339576000366003190112610339576020600554604051908152f35b34610339576000366003190112610339576020600754604051908152f35b34610339576040366003190112610339576105ea6004356105ca613435565b908060005260006020526105e5600160406000200154613c55565b613d1c565b005b3461033957604036600319011261033957610605613435565b600435600052600860205260406000209060018060a01b0316600052602052606060406000206001815491015460ff604051928181161515845260081c1660208301526040820152f35b346103395760203660031901126103395761066861395f565b50600435600052600660205261069861068460406000206139f7565b6040519182916020835260208301906134ce565b0390f35b3461033957602036600319011261033957600435600052600f6020526020604060002054604051908152f35b34610339576040366003190112610339576106e1613435565b6000604080516106f0816132cf565b8281528260208201520152600435600052600860205260406000209060018060a01b03166000526020526060604060002060405161072d816132cf565b60ff82546040600183831615159586865284602087019460081c1684520154930192835260405193845251166020830152516040820152f35b346103395760003660031901126103395760206040516107d08152f35b3461033957602036600319011261033957600435600052600c6020526040600020805490600181015490600160a01b600190036002820154169260405191828060038301906107d191613201565b036107dc90846132ea565b60405192836107ee8160048501613201565b036107f990856132ea565b604051938461080b8160058601613201565b0361081690866132ea565b600683015494600784015490600885015492600986015494600a87015460ff1696600b0154976040519b8c9b610180928d5260208d015260408c01528060608c01528a0161086391613315565b89810360808b015261087491613315565b88810360a08a015261088591613315565b9560c088015260e087015261010086015261012085015261014084016108aa91613362565b6101608301520390f35b3461033957600036600319011261033957602060405160008152f35b346103395760403660031901126103395760043560243590811515918281036103395781600052602090600c825260406000209060ff600a8301541660038110156103235761091f9015613b4d565b60098201544210156109d757907fdf13ce4fcc43c19a08df4ffa6d471ae7bb1d6ffc3beb528ad821c873f798ce2f929184600052600e8352604060002033600052835260406000206001815461097860ff8216156137f0565b61ff008960081b169061ffff19161717905584600052600f835260406000206109a1815461382c565b9055156109c3576006016109b5815461382c565b90555b6040519384523393a3005b6007016109d0815461382c565b90556109b8565b60405162461bcd60e51b815260048101849052600a602482015269141bdb1b08195b99195960b21b6044820152606490fd5b34610339576020366003190112610339576020610361600435613b03565b346103395760c03660031901126103395760046024351015610339576044356001600160401b03811161033957610a6290369060040161345b565b6064356001600160401b03811161033957610a8190369060040161345b565b906084356001600160401b03811161033957610aa190369060040161345b565b9060a4356001600160401b03811161033957610ac190369060040161345b565b610ac9613bbf565b600254604051636ded6a1960e11b815260048035908201523360248201526001600160a01b0390911690602081604481855afa80156111035760009061110f575b610b16915015156138fc565b60075493610b238561382c565b60075560246020610b348235613d91565b9360405192838092638cdc1e8760e01b825260043560048301525afa908115611103576000916110d1575b50801561107b57856000526009602052604060002055610b8160045442613879565b9060405196610b8f886132b3565b8688526004356020890152336040890152610bab60243561330b565b602435606089015285608089015260a088015260c0870152600060e0870152600061010087015260006101208701524261014087015261016086015261018085015260016101a08501526101c0840152816000526006602052604060002083518155602084015160018201556002810160018060a01b036040860151168154906060870151610c398161330b565b610c428161330b565b6001600160a81b03199092161760a09190911b60ff60a01b1617905560808401518051906001600160401b038211610f0f57610c8e82610c8560038601546131c7565b60038601613886565b602090601f831160011461100957610cbf929160009183610e9e575b50508160011b916000199060031b1c19161790565b60038201555b60a08401518051906001600160401b038211610f0f57610cf582610cec60048601546131c7565b60048601613886565b602090601f8311600114610f9757610d25929160009183610e9e5750508160011b916000199060031b1c19161790565b60048201555b60c08401518051906001600160401b038211610f0f57610d5b82610d5260058601546131c7565b60058601613886565b602090601f8311600114610f2557610d8b929160009183610e9e5750508160011b916000199060031b1c19161790565b60058201555b60e08401516006820155610100840151600782015561012084015160088201556101408401516009820155610160840151600a820155610180840151600b8201556101a084015160068110156103235781610df4600d92600c6101c095016135b5565b019301519283516001600160401b038111610f0f57602094610e2082610e1a85546131c7565b85613886565b8590601f8311600114610ea957610e4f929160009183610e9e5750508160011b916000199060031b1c19161790565b90555b81600080516020613ef8833981519152604051338152610e7360243561330b565b602435868201526060604082015280610e93600435956060830190613315565b0390a3604051908152f35b015190508780610caa565b90601f1983169184600052876000209260005b818110610ef85750908460019594939210610edf575b505050811b019055610e52565b015160001960f88460031b161c19169055868080610ed2565b929389600181928786015181550195019301610ebc565b634e487b7160e01b600052604160045260246000fd5b9190600584016000526020600020906000935b601f1984168510610f7c576001945083601f19811610610f63575b505050811b016005820155610d91565b015160001960f88460031b161c19169055868080610f53565b81810151835560209485019460019093019290910190610f38565b9190600484016000526020600020906000935b601f1984168510610fee576001945083601f19811610610fd5575b505050811b016004820155610d2b565b015160001960f88460031b161c19169055868080610fc5565b81810151835560209485019460019093019290910190610faa565b9190600384016000526020600020906000935b601f1984168510611060576001945083601f19811610611047575b505050811b016003820155610cc5565b015160001960f88460031b161c19169055868080611037565b8181015183556020948501946001909301929091019061101c565b60405162461bcd60e51b815260206004820152602860248201527f4e6f20766f74696e6720706f7765722065786973747320666f7220746869732060448201526770726f706572747960c01b6064820152608490fd5b90506020813d6020116110fb575b816110ec602093836132ea565b81010312610339575187610b5f565b3d91506110df565b6040513d6000823e3d90fd5b506020813d60201161113b575b81611129602093836132ea565b8101031261033957610b169051610b0a565b3d915061111c565b346103395760003660031901126103395760206040517fe2b7fb3b832174769106daebcfd6d1970523240dda11281102db9363b83b0dc48152f35b34610339576000366003190112610339576020600d54604051908152f35b34610339576040366003190112610339576111b5613435565b600435600052600060205260406000209060018060a01b0316600052602052602060ff604060002054166040519015158152f35b346103395760003660031901126103395760206040517fb09aa5aeb3702cfd50b6b62bc4532604938f21248a27a1d5ca736082b6819cc18152f35b3461033957602036600319011261033957600435611240613c1b565b6101f4811161127a576020817f4ade7322d9a0c41dc254574f72d3d442f06addcc77917dcb9cb1ac4441d1b20f92600555604051908152a1005b60405162461bcd60e51b815260206004820152600e60248201526d084dedceae640e8dede40d0d2ced60931b6044820152606490fd5b346103395760003660031901126103395760206040517fa122aedc7c2408a97bcfe5d8ff1f6a6d7bf779a8b6dd3d72ff503e8fcf9d2eb98152f35b6134b1565b34610339576020366003190112610339576001600160a01b0361131161341f565b1660005260036020526020604060002054604051908152f35b3461033957602080600319360112610339576004356000906000600d54905b818110611487575061137361135d84613948565b9361136b60405195866132ea565b808552613948565b601f19018460005b828110611471575050506000805b8281106113ee57604080518781528651818901819052600092600582901b8301810191898b01918b9085015b8287106113c25785850386f35b9091929382806113de600193603f198a8203018652885161336f565b96019201960195929190926113b5565b80600052600c908187526040600020918560018401541480611454575b6001935061141b575b5001611389565b81600052875261144d60406000209361143c6114368261382c565b95613629565b611446828a6139cd565b52876139cd565b5087611414565b5091600a60ff91015416916003831015610323576001921561140b565b6114796135cd565b82828801015201859061137b565b80600052600c855260406000208360018201541490816114c4575b506114b0575b600101611349565b926114bc60019161382c565b9390506114a8565b60ff9150600a01541660038110156103235715866114a2565b34610339576040366003190112610339576114f6613435565b600435600052600e60205260406000209060018060a01b03166000526020526040806000205460ff8251918181161515835260081c1615156020820152f35b3461033957602080600319360112610339576004356000906000600754905b81811061166e575061156861135d84613948565b601f19018460005b828110611658575050506000805b8281106115e357604080518781528651818901819052600092600582901b8301810191898b01918b9085015b8287106115b75785850386f35b9091929382806115d3600193603f198a820301865288516134ce565b96019201960195929190926115aa565b80600052600690818752604060002091600192868482015414908161163c575b5060019350611614575b500161157e565b81600052875261163560406000209361143c61162f8261382c565b956139f7565b508761160d565b60ff9150600c0154169281841015610323576001931489611603565b61166061395f565b828288010152018590611570565b80600052600680865260406000209060019085828401541492836116b1575b50505061169d575b600101611554565b926116a960019161382c565b939050611695565b60ff91929350600c01541690811015610323571486808061168d565b34610339576020366003190112610339576001600160a01b036116ee61341f565b16600052600a6020526020604060002054604051908152f35b346103395760403660031901126103395760043561172361344b565b61172b613c7b565b816000526020916006835260406000209160ff600c840154169360068510156103235761175b60018096146136f2565b61176b6009850154421015613734565b61177a600a8501544210613775565b60ff82169361178c60028611156137b0565b836000526008825260406000203360005282526117f560406000208054946117b760ff8716156137f0565b60025489850154604051636ded6a1960e11b8152600481019190915233602482015293869185916001600160a01b0390911690829081906044820190565b03915afa9586156111035789936000976118da575b50839291879461183d9261181f87151561383b565b61ff001990911661ffff199091161760089190911b61ff0016178255565b0155846118b057600701611852838254613879565b90555b33600052600a8152604060002061186c815461382c565b905533600052600b8152426040600020556040519384528301527fb83d25c6a5d258561330739951487acb4bd09ba5190b5d32c4f261817d90679260403393a38055005b8486036118cc576006016118c5838254613879565b9055611855565b6008016118c5838254613879565b96509250908486813d811161190c575b6118f481836132ea565b8101031261033957945194889290919061183d61180a565b503d6118ea565b3461033957602036600319011261033957600435806000526006602052604060002090600c82019182549160ff8316600681101561032357600161195791146136f2565b600a8201544210611a165760068201549160078101549161198661197b8486613879565b600884015490613879565b60009182526009602052604090912054908115611a0a57612710908181029181830414901517156119f457600b916119bd916138dc565b915b0154111591826119ea575b5050156119df5750805460ff19166002179055005b60ff19166003179055005b11905083806119ca565b634e487b7160e01b600052601160045260246000fd5b5050600b6000916119bf565b60405162461bcd60e51b815260206004820152601060248201526f159bdd1a5b99c81b9bdd08195b99195960821b6044820152606490fd5b346103395760003660031901126103395760206040516113888152f35b346103395760203660031901126103395760043560005260096020526020604060002054604051908152f35b346103395760603660031901126103395760046024351015610339576044356001600160401b03811161033957611ad290369060040161345b565b611ada613bbf565b600435600052600c60205260406000209060ff600a8301541660038110156103235760010361239e57600b820154612365576006820154611b1f600784015482613879565b90811561233057612710908181029181830414901517156119f457610bb891611b47916138dc565b106122eb576002546001830154604051636ded6a1960e11b815260048101919091523360248201526001600160a01b039091169290602081604481875afa8015611103576000906122b7575b611b9f915015156138fc565b60075491611bac8361382c565b600755611bba602435613d91565b6101f48111156122b157806101f3198101116119f4576101f31901935b60206001840154602460405180948193638cdc1e8760e01b835260048301525afa9081156111035760009161227f575b50801561224157836000526009602052604060002055600182015493611c2f60045442613879565b60405195611c3c876132b3565b8587526020870152336040870152611c5560243561330b565b6024356060870152604051611c7881611c718160038901613201565b03826132ea565b6080870152604051611c9181611c718160048901613201565b60a0870152604051611caa81611c718160058901613201565b60c0870152600060e0870152600061010087015260006101208701524261014087015261016086015261018085015260016101a08501526101c084015281600052600660205260406000209280518455602081015160018501556002840160018060a01b036040830151168154906060840151611d268161330b565b611d2f8161330b565b6001600160a81b03199092161760a09190911b60ff60a01b1617905560808101518051906001600160401b038211610f0f57611d7b82611d7260038901546131c7565b60038901613886565b602090601f83116001146121cf57611dab929160009183610e9e5750508160011b916000199060031b1c19161790565b60038501555b60a08101518051906001600160401b038211610f0f57611de182611dd860048901546131c7565b60048901613886565b602090601f831160011461215d57611e11929160009183610e9e5750508160011b916000199060031b1c19161790565b60048501555b60c08101518051906001600160401b038211610f0f57611e4782611e3e60058901546131c7565b60058901613886565b602090601f83116001146120eb57611e77929160009183610e9e5750508160011b916000199060031b1c19161790565b60058501555b60e08101516006850155610100810151600785015561012081015160088501556101408101516009850155610160810151600a850155610180810151600b8501556101a081015190600682101561032357611ede6101c092600c87016135b5565b01519283516001600160401b038111610f0f57602094611f0e82611f05600d8601546131c7565b600d8601613886565b8590601f831160011461207d579180611f4092600d946000926120725750508160011b916000199060031b1c19161790565b9101555b8160ff19600281600a8501541617600a84015581600b84015560018301549260405191338352611f7560243561330b565b60243587840152606060408401526000916003810154611f94816131c7565b92836060870152600182169182600014612044575050600114611ffa575b50509080600080516020613ef8833981519152920390a360405190806004357ff57507588a3f55547e832ad7906fc1c90a328d2c78895bc24abf93c41e8568a0600080a38152f35b60030160009081528781209092505b81831061202c575050810160800181600080516020613ef8833981519152611fb2565b80548385016080015286945091870191600101612009565b86955060809350600080516020613ef8833981519152969492501682840152151560051b8201019192611fb2565b015190508880610caa565b90600d8401600052866000209160005b601f19851681106120d45750918391600193600d95601f198116106120bb575b505050811b01910155611f44565b015160001960f88460031b161c191690558780806120ad565b91928860018192868501518155019401920161208d565b9190600587016000526020600020906000935b601f1984168510612142576001945083601f19811610612129575b505050811b016005850155611e7d565b015160001960f88460031b161c19169055868080612119565b818101518355602094850194600190930192909101906120fe565b9190600487016000526020600020906000935b601f19841685106121b4576001945083601f1981161061219b575b505050811b016004850155611e17565b015160001960f88460031b161c1916905586808061218b565b81810151835560209485019460019093019290910190612170565b9190600387016000526020600020906000935b601f1984168510612226576001945083601f1981161061220d575b505050811b016003850155611db1565b015160001960f88460031b161c191690558680806121fd565b818101518355602094850194600190930192909101906121e2565b60405162461bcd60e51b81526020600482015260166024820152754e6f20766f74696e6720706f7765722065786973747360501b6044820152606490fd5b90506020813d6020116122a9575b8161229a602093836132ea565b81010312610339575185611c07565b3d915061228d565b93611bd7565b506020813d6020116122e3575b816122d1602093836132ea565b8101031261033957611b9f9051611b93565b3d91506122c4565b60405162461bcd60e51b815260206004820152601960248201527f496e73756666696369656e7420706f6c6c20737570706f7274000000000000006044820152606490fd5b60405162461bcd60e51b815260206004820152600d60248201526c139bc81d9bdd195cc818d85cdd609a1b6044820152606490fd5b60405162461bcd60e51b8152602060048201526011602482015270105b1c9958591e4818dbdb9d995c9d1959607a1b6044820152606490fd5b60405162461bcd60e51b815260206004820152601860248201527f506f6c6c206d75737420626520656e64656420666972737400000000000000006044820152606490fd5b34610339576000366003190112610339576002546040516001600160a01b039091168152602090f35b346103395760003660031901126103395760206040516101f48152f35b3461033957604036600319011261033957612442613435565b336001600160a01b0382160361245e576105ea90600435613d1c565b60405163334bd91960e11b8152600490fd5b346103395760003660031901126103395760206040517f00000000000000000000000000000000000000000000000000000000000000008152f35b346103395760a0366003190112610339576024356001600160401b038111610339576124db90369060040161345b565b6044356001600160401b038111610339576124fa90369060040161345b565b906064356001600160401b0381116103395761251a90369060040161345b565b906201518060843510158061291d575b156128e557600d549161253c8361382c565b600d5561254b60843542613879565b906040519461255986613297565b8486526004356020870152336040870152836060870152608086015260a0850152600060c0850152600060e0850152426101008501526101208401526000610140840152600061016084015281600052600c602052604060002083518155602084015160018201556002810160018060a01b036040860151166bffffffffffffffffffffffff60a01b82541617905560608401518051906001600160401b038211610f0f5761260f82610c8560038601546131c7565b602090601f83116001146128735761263f929160009183610e9e5750508160011b916000199060031b1c19161790565b60038201555b60808401518051906001600160401b038211610f0f5761266c82610cec60048601546131c7565b602090601f83116001146128055761269c929160009183610e9e5750508160011b916000199060031b1c19161790565b60048201555b60a08401518051906001600160401b038211610f0f576126c982610d5260058601546131c7565b602090601f8311600114612797576126f9929160009183610e9e5750508160011b916000199060031b1c19161790565b60058201555b60c0840151600682015560e0840151600782015561010084015160088201556101208401516009820155600a8101610140850151600381101561032357602095600b926101609260ff801983541691161790550151910155817f658fccfc8de51891b480d49e504fbb0f8f9b43f13522a475d1729a74531a9e2260405133815260408682015280610e93600435956040830190613315565b90601f198316916005850160005260206000209260005b8181106127ed57509084600195949392106127d4575b505050811b0160058201556126ff565b015160001960f88460031b161c191690558680806127c4565b929360206001819287860151815501950193016127ae565b90601f198316916004850160005260206000209260005b81811061285b5750908460019594939210612842575b505050811b0160048201556126a2565b015160001960f88460031b161c19169055868080612832565b9293602060018192878601518155019501930161281c565b9190600384016000526020600020906000935b601f19841685106128ca576001945083601f198116106128b1575b505050811b016003820155612645565b015160001960f88460031b161c191690558680806128a1565b81810151835560209485019460019093019290910190612886565b60405162461bcd60e51b815260206004820152601060248201526f24b73b30b634b210323ab930ba34b7b760811b6044820152606490fd5b5062278d00608435111561252a565b34610339576040366003190112610339576105ea60043561294b613435565b90806000526000602052612966600160406000200154613c55565b613c9e565b346103395760e03660031901126103395761298461344b565b6044356001600160a01b03811690036103395760ff6084351660843503610339573360009081527ffaf93c3d007e112089dc8351e013e6685ef67703975d0224b26fc45941d4f1f560205260409020547fe2b7fb3b832174769106daebcfd6d1970523240dda11281102db9363b83b0dc49060ff1615612dcd5750612a07613c7b565b6064354211612d94576004356000526006602052604060002060ff600c820154166006811015610323576001612a3d91146136f2565b612a4d6009820154421015613734565b612a5c600a8201544210613775565b612a6c600260ff841611156137b0565b6004356000526008602052604060002060018060a01b0360443516600052602052604060002090612aa160ff835416156137f0565b6044356001600160a01b03166000908152600360205260409020805490612ac78261382c565b90556040519060208201907fa122aedc7c2408a97bcfe5d8ff1f6a6d7bf779a8b6dd3d72ff503e8fcf9d2eb98252600435604084015260ff8616606084015260018060a01b0360443516608084015260a083015260643560c083015260c0825260e082016001600160401b039183821083831117610f0f576101609082604052845190209361010081019461190160f01b86527f000000000000000000000000000000000000000000000000000000000000000061010283015261012282015260428352019181831090831117610f0f57612bc092612bb79260405260c4359160a4359160843591519020613ddc565b90929192613e6c565b6001600160a01b036044358116911603612d5b576002546001820154604051636ded6a1960e11b815260048101919091526001600160a01b036044803582166024840152919492602092869290918391165afa92831561110357600093612d26575b5060018391612c3283151561383b565b805461ff0019831661ffff1990911617600887901b61ff0016178155015560ff8316612cf857600701612c66828254613879565b90555b6044356001600160a01b03166000908152600a602052604090208054612c8e9061382c565b905560018060a01b0360443516600052600b6020524260406000205560ff60405192168252602082015233604082015260018060a01b0360443516907fb7a759f14619c0391b65e3f8ceb8fd342a3e24929e81d83493445a4a1c87d0fc606060043592a360018055005b60ff8316600103612d1857600601612d11828254613879565b9055612c69565b600801612d11828254613879565b92506020833d602011612d53575b81612d41602093836132ea565b81010312610339576001925192612c22565b3d9150612d34565b60405162461bcd60e51b8152602060048201526011602482015270496e76616c6964207369676e617475726560781b6044820152606490fd5b60405162461bcd60e51b815260206004820152601160248201527014da59db985d1d5c9948195e1c1a5c9959607a1b6044820152606490fd5b6044906040519063e2517d3f60e01b82523360048301526024820152fd5b346103395760003660031901126103395760206040516109c48152f35b346103395760203660031901126103395760043560005260006020526020600160406000200154604051908152f35b3461033957602036600319011261033957612e506135cd565b50600435600052600c602052610698612e6c6040600020613629565b60405191829160208352602083019061336f565b34610339576020366003190112610339573360009081527fdae2aa361dfd1ca020a396615627d436107c35eff9fe7738a3512819782d70696020526040902054600435907fd8aa0f3194971a2a116679f7c2090f6939c8d4e01a2a8d7e41d55e5351469e639060ff1615612dcd5750612ef7613c7b565b806000526006602052600c604060002001805460ff8116600681101561032357600203612f525760ff191660041790557f712ae1383f79ac853f8d882153778e0260ef8f03b504e2866e0593e04d2b291f600080a260018055005b60405162461bcd60e51b8152602060048201526016602482015275141c9bdc1bdcd85b081b9bdd081cdd58d8d95959195960521b6044820152606490fd5b346103395760003660031901126103395760206040517fd8aa0f3194971a2a116679f7c2090f6939c8d4e01a2a8d7e41d55e5351469e638152f35b34610339576000366003190112610339576020600454604051908152f35b346103395760203660031901126103395760043563ffffffff60e01b811680910361033957602090637965db0b60e01b811490811561302e575b506040519015158152f35b6301ffc9a760e01b14905082613023565b346103395760203660031901126103395760043560005260066020526040600020805490600181015490600281015492608080600384019061308091613201565b0360809061308d916132ea565b604051908161309f8160048601613201565b036130aa90836132ea565b60405191826130bc8160058701613201565b036130c790846132ea565b60068401549260078501546008860154600987015491600a88015493600b89015495600c8a015460ff169760405180600d819d019061310591613201565b03613110908c6132ea565b6040519c8d9c8d6101e0938152602001528c600160a01b60019003821690604001528060a01c60ff166131429061330b565b60a01c60ff1660608d01528060808d01528b0160809061316191613315565b8b810360a08d015261317291613315565b8a810360c08c015261318391613315565b9660e08a01526101008901526101208801526101408701526101608601526101808501526101a084016131b591613355565b8281036101c084015261069891613315565b90600182811c921680156131f7575b60208310146131e157565b634e487b7160e01b600052602260045260246000fd5b91607f16916131d6565b805460009392613210826131c7565b918282526020936001916001811690816000146132785750600114613237575b5050505050565b90939495506000929192528360002092846000945b83861061326457505050500101903880808080613230565b80548587018301529401938590820161324c565b60ff19168685015250505090151560051b010191503880808080613230565b61018081019081106001600160401b03821117610f0f57604052565b6101e081019081106001600160401b03821117610f0f57604052565b606081019081106001600160401b03821117610f0f57604052565b90601f801991011681019081106001600160401b03821117610f0f57604052565b6004111561032357565b919082519283825260005b848110613341575050826000602080949584010152601f8019910116010190565b602081830181015184830182015201613320565b9060068210156103235752565b9060038210156103235752565b906133d46133c26133b0610180855185526020860151602086015260018060a01b036040870151166040860152606086015190806060870152850190613315565b60808501518482036080860152613315565b60a084015183820360a0850152613315565b9160c081015160c083015260e081015160e0830152610100808201519083015261012080820151908301526134126101408083015190840190613362565b6101608091015191015290565b600435906001600160a01b038216820361033957565b602435906001600160a01b038216820361033957565b6024359060ff8216820361033957565b81601f82011215610339578035906001600160401b038211610f0f576040519261348f601f8401601f1916602001856132ea565b8284526020838301011161033957816000926020809301838601378301015290565b34610339576000366003190112610339576020604051610bb88152f35b906135b29161354a6135386135266101e0845186526020850151602087015260018060a01b036040860151166040870152606085015161350d8161330b565b6060870152608085015190806080880152860190613315565b60a084015185820360a0870152613315565b60c083015184820360c0860152613315565b9160e082015160e08201526101008083015190820152610120808301519082015261014080830151908201526101608083015190820152610180808301519082015261359f6101a08084015190830190613355565b6101c08092015191818403910152613315565b90565b9060068110156103235760ff80198354169116179055565b604051906135da82613297565b8161016060009182815282602082015282604082015260608082015260606080820152606060a08201528260c08201528260e08201528261010082015282610120820152826101408201520152565b9060405161363681613297565b8092805482526001810154602083015260018060a01b03600282015416604083015260405161366c81611c718160038601613201565b606083015260405161368581611c718160048601613201565b608083015260405161369e81611c718160058601613201565b60a0830152600681015460c0830152600781015460e08301526008810154610100830152600981015461012083015260ff600a8201541660038110156103235761016091600b916101408501520154910152565b156136f957565b60405162461bcd60e51b815260206004820152601360248201527250726f706f73616c206e6f742061637469766560681b6044820152606490fd5b1561373b57565b60405162461bcd60e51b8152602060048201526012602482015271159bdd1a5b99c81b9bdd081cdd185c9d195960721b6044820152606490fd5b1561377c57565b60405162461bcd60e51b815260206004820152600c60248201526b159bdd1a5b99c8195b99195960a21b6044820152606490fd5b156137b757565b60405162461bcd60e51b8152602060048201526011602482015270496e76616c696420766f7465207479706560781b6044820152606490fd5b156137f757565b60405162461bcd60e51b815260206004820152600d60248201526c105b1c9958591e481d9bdd1959609a1b6044820152606490fd5b60001981146119f45760010190565b1561384257565b60405162461bcd60e51b815260206004820152600f60248201526e2737903b37ba34b733903837bbb2b960891b6044820152606490fd5b919082018092116119f457565b90601f811161389457505050565b6000916000526020600020906020601f850160051c830194106138d2575b601f0160051c01915b8281106138c757505050565b8181556001016138bb565b90925082906138b2565b81156138e6570490565b634e487b7160e01b600052601260045260246000fd5b1561390357565b60405162461bcd60e51b815260206004820152601b60248201527f4d75737420686f6c6420746f6b656e7320746f2070726f706f736500000000006044820152606490fd5b6001600160401b038111610f0f5760051b60200190565b6040519061396c826132b3565b60606101c083600080825280602083015280604083015280848301528360808301528360a08301528360c08301528060e083015280610100830152806101208301528061014083015280610160830152806101808301526101a08201520152565b80518210156139e15760209160051b010190565b634e487b7160e01b600052603260045260246000fd5b90604091825192613a07846132b3565b815484526001820154602085015260028201546001600160a01b03811682860152849060a01c60ff16613a398161330b565b60608201528151613a5181611c718160038801613201565b60808201528151613a6981611c718160048801613201565b60a08201528151613a8181611c718160058801613201565b60c0820152600683015460e0820152600783015461010082015260088301546101208201526009830154610140820152600a830154610160820152600b83015461018082015260ff600c8401541691600683101561032357600d93613af8613aff926101c0956101a0860152518096819301613201565b03846132ea565b0152565b600052600c6020526040600020613b236007600683015492015482613879565b8015613b4657612710918281029281840414901517156119f4576135b2916138dc565b5050600090565b15613b5457565b60405162461bcd60e51b815260206004820152600f60248201526e506f6c6c206e6f742061637469766560881b6044820152606490fd5b60018060a01b0316600052600b60205260406000205442034281116119f45762278d001015613bb957600090565b60055490565b3360009081527f3412d5605ac6cd444957cedb533e5dacad6378b4bc819ebe3652188a665066d560205260409020547fb09aa5aeb3702cfd50b6b62bc4532604938f21248a27a1d5ca736082b6819cc19060ff1615612dcd5750565b3360009081527fad3228b676f7d3cd4284a5443f17f1962b36e491b30a40b2405849e597ba5fb5602052604081205460ff1615612dcd5750565b80600052600060205260406000203360005260205260ff6040600020541615612dcd5750565b600260015414613c8c576002600155565b604051633ee5aeb560e01b8152600490fd5b9060009180835282602052604083209160018060a01b03169182845260205260ff60408420541615600014613d1757808352826020526040832082845260205260408320600160ff198254161790557f2f8788117e7eff1d82e926ec794901d17c78024a50270940304540a733656f0d339380a4600190565b505090565b9060009180835282602052604083209160018060a01b03169182845260205260ff604084205416600014613d175780835282602052604083208284526020526040832060ff1981541690557ff6391f5c32d9c69d2a47ea670b442974b53935d1edc7fd64eb21e047a839171b339380a4600190565b613d9a8161330b565b8015613dd557613da98161330b565b60018114613dce5780613dbd60029261330b565b14613dc85761138890565b6109c490565b50610bb890565b506107d090565b91907f7fffffffffffffffffffffffffffffff5d576e7357a4501ddfe92f46681b20a08411613e6057926020929160ff608095604051948552168484015260408301526060820152600092839182805260015afa15613e545780516001600160a01b03811615613e4b57918190565b50809160019190565b604051903d90823e3d90fd5b50505060009160039190565b613e758161330b565b80613e7e575050565b613e878161330b565b60018103613ea15760405163f645eedf60e01b8152600490fd5b613eaa8161330b565b60028103613ecb5760405163fce698f760e01b815260048101839052602490fd5b80613ed760039261330b565b14613edf5750565b602490604051906335e2f38360e21b82526004820152fdfeb1d569dc5621a0a51229b7ac0eff81f3e6df70a3f72fe608aa58f74bb69d7bb6a26469706673582212205add0647e98807cc8c5cfd319f9ae647850aea74c4426b243b0919ded0e2224364736f6c634300081800332f8788117e7eff1d82e926ec794901d17c78024a50270940304540a733656f0d",
  "linkReferences": {},
  "deployedLinkReferences": {}
}