{
  "_format": "hh-sol-artifact-1",
  "contractName": "Treasury",
  "sourceName": "contracts/Treasury.sol",
  "abi": [
    {
      "inputs": [
        {
          "internalType": "address",
          "name": "_founderWallet",
          "type": "address"
        }
      ],
      "stateMutability": "nonpayable",
      "type": "constructor"
    },
    {
      "inputs": [],
      "name": "AccessControlBadConfirmation",
      "type": "error"
    },
    {
      "inputs": [
        {
          "internalType": "address",
          "name": "account",
          "type": "address"
        },
        {
          "internalType": "bytes32",
          "name": "neededRole",
          "type": "bytes32"
        }
      ],
      "name": "AccessControlUnauthorizedAccount",
      "type": "error"
    },
    {
      "inputs": [],
      "name": "ReentrancyGuardReentrantCall",
      "type": "error"
    },
    {
      "anonymous": false,
      "inputs": [
        {
          "indexed": true,
          "internalType": "address",
          "name": "oldOracle",
          "type": "address"
        },
        {
          "indexed": true,
          "internalType": "address",
          "name": "newOracle",
          "type": "address"
        }
      ],
      "name": "ChainlinkOracleUpdated",
      "type": "event"
    },
    {
      "anonymous": false,
      "inputs": [
        {
          "indexed": true,
          "internalType": "address",
          "name": "target",
          "type": "address"
        },
        {
          "indexed": false,
          "internalType": "uint256",
          "name": "value",
          "type": "uint256"
        },
        {
          "indexed": false,
          "internalType": "bytes",
          "name": "data",
          "type": "bytes"
        }
      ],
      "name": "Executed",
      "type": "event"
    },
    {
      "anonymous": false,
      "inputs": [
        {
          "indexed": true,
          "internalType": "address",
          "name": "founder",
          "type": "address"
        },
        {
          "indexed": false,
          "internalType": "uint256",
          "name": "amount",
          "type": "uint256"
        }
      ],
      "name": "FounderCutSent",
      "type": "event"
    },
    {
      "anonymous": false,
      "inputs": [
        {
          "indexed": true,
          "internalType": "address",
          "name": "oldWallet",
          "type": "address"
        },
        {
          "indexed": true,
          "internalType": "address",
          "name": "newWallet",
          "type": "address"
        }
      ],
      "name": "FounderWalletUpdated",
      "type": "event"
    },
    {
      "anonymous": false,
      "inputs": [
        {
          "indexed": false,
          "internalType": "uint256",
          "name": "oldMax",
          "type": "uint256"
        },
        {
          "indexed": false,
          "internalType": "uint256",
          "name": "newMax",
          "type": "uint256"
        }
      ],
      "name": "MaxReimbursementUpdated",
      "type": "event"
    },
    {
      "anonymous": false,
      "inputs": [
        {
          "indexed": false,
          "internalType": "uint256",
          "name": "amount",
          "type": "uint256"
        },
        {
          "indexed": false,
          "internalType": "uint256",
          "name": "newTotal",
          "type": "uint256"
        }
      ],
      "name": "ReimbursementPoolFunded",
      "type": "event"
    },
    {
      "anonymous": false,
      "inputs": [
        {
          "indexed": true,
          "internalType": "address",
          "name": "relayer",
          "type": "address"
        },
        {
          "indexed": false,
          "internalType": "uint256",
          "name": "amount",
          "type": "uint256"
        },
        {
          "indexed": false,
          "internalType": "uint256",
          "name": "poolRemaining",
          "type": "uint256"
        }
      ],
      "name": "RelayerReimbursed",
      "type": "event"
    },
    {
      "anonymous": false,
      "inputs": [
        {
          "indexed": false,
          "internalType": "uint256",
          "name": "oldRequired",
          "type": "uint256"
        },
        {
          "indexed": false,
          "internalType": "uint256",
          "name": "newRequired",
          "type": "uint256"
        }
      ],
      "name": "RequiredConfirmationsUpdated",
      "type": "event"
    },
    {
      "anonymous": false,
      "inputs": [
        {
          "indexed": true,
          "internalType": "uint256",
          "name": "propertyId",
          "type": "uint256"
        },
        {
          "indexed": false,
          "internalType": "uint256",
          "name": "reserves",
          "type": "uint256"
        }
      ],
      "name": "ReservesVerified",
      "type": "event"
    },
    {
      "anonymous": false,
      "inputs": [
        {
          "indexed": true,
          "internalType": "bytes32",
          "name": "role",
          "type": "bytes32"
        },
        {
          "indexed": true,
          "internalType": "bytes32",
          "name": "previousAdminRole",
          "type": "bytes32"
        },
        {
          "indexed": true,
          "internalType": "bytes32",
          "name": "newAdminRole",
          "type": "bytes32"
        }
      ],
      "name": "RoleAdminChanged",
      "type": "event"
    },
    {
      "anonymous": false,
      "inputs": [
        {
          "indexed": true,
          "internalType": "bytes32",
          "name": "role",
          "type": "bytes32"
        },
        {
          "indexed": true,
          "internalType": "address",
          "name": "account",
          "type": "address"
        },
        {
          "indexed": true,
          "internalType": "address",
          "name": "sender",
          "type": "address"
        }
      ],
      "name": "RoleGranted",
      "type": "event"
    },
    {
      "anonymous": false,
      "inputs": [
        {
          "indexed": true,
          "internalType": "bytes32",
          "name": "role",
          "type": "bytes32"
        },
        {
          "indexed": true,
          "internalType": "address",
          "name": "account",
          "type": "address"
        },
        {
          "indexed": true,
          "internalType": "address",
          "name": "sender",
          "type": "address"
        }
      ],
      "name": "RoleRevoked",
      "type": "event"
    },
    {
      "anonymous": false,
      "inputs": [
        {
          "indexed": true,
          "internalType": "address",
          "name": "signer",
          "type": "address"
        }
      ],
      "name": "SignerAdded",
      "type": "event"
    },
    {
      "anonymous": false,
      "inputs": [
        {
          "indexed": true,
          "internalType": "address",
          "name": "signer",
          "type": "address"
        }
      ],
      "name": "SignerRemoved",
      "type": "event"
    },
    {
      "anonymous": false,
      "inputs": [
        {
          "indexed": true,
          "internalType": "uint256",
          "name": "txId",
          "type": "uint256"
        },
        {
          "indexed": true,
          "internalType": "address",
          "name": "signer",
          "type": "address"
        }
      ],
      "name": "TransactionConfirmed",
      "type": "event"
    },
    {
      "anonymous": false,
      "inputs": [
        {
          "indexed": true,
          "internalType": "uint256",
          "name": "txId",
          "type": "uint256"
        }
      ],
      "name": "TransactionExecuted",
      "type": "event"
    },
    {
      "anonymous": false,
      "inputs": [
        {
          "indexed": true,
          "internalType": "uint256",
          "name": "txId",
          "type": "uint256"
        },
        {
          "indexed": true,
          "internalType": "address",
          "name": "signer",
          "type": "address"
        }
      ],
      "name": "TransactionRevoked",
      "type": "event"
    },
    {
      "anonymous": false,
      "inputs": [
        {
          "indexed": true,
          "internalType": "uint256",
          "name": "txId",
          "type": "uint256"
        },
        {
          "indexed": true,
          "internalType": "address",
          "name": "submitter",
          "type": "address"
        },
        {
          "indexed": false,
          "internalType": "address",
          "name": "target",
          "type": "address"
        },
        {
          "indexed": false,
          "internalType": "uint256",
          "name": "value",
          "type": "uint256"
        }
      ],
      "name": "TransactionSubmitted",
      "type": "event"
    },
    {
      "anonymous": false,
      "inputs": [
        {
          "indexed": true,
          "internalType": "address",
          "name": "founder",
          "type": "address"
        },
        {
          "indexed": false,
          "internalType": "uint256",
          "name": "amount",
          "type": "uint256"
        },
        {
          "indexed": false,
          "internalType": "uint256",
          "name": "totalVested",
          "type": "uint256"
        }
      ],
      "name": "VestedCutAccrued",
      "type": "event"
    },
    {
      "anonymous": false,
      "inputs": [
        {
          "indexed": true,
          "internalType": "address",
          "name": "founder",
          "type": "address"
        },
        {
          "indexed": false,
          "internalType": "uint256",
          "name": "amount",
          "type": "uint256"
        },
        {
          "indexed": false,
          "internalType": "uint256",
          "name": "remaining",
          "type": "uint256"
        }
      ],
      "name": "VestedCutClaimed",
      "type": "event"
    },
    {
      "inputs": [],
      "name": "DEFAULT_ADMIN_ROLE",
      "outputs": [
        {
          "internalType": "bytes32",
          "name": "",
          "type": "bytes32"
        }
      ],
      "stateMutability": "view",
      "type": "function"
    },
    {
      "inputs": [],
      "name": "EXECUTOR_ROLE",
      "outputs": [
        {
          "internalType": "bytes32",
          "name": "",
          "type": "bytes32"
        }
      ],
      "stateMutability": "view",
      "type": "function"
    },
    {
      "inputs": [],
      "name": "FOUNDER_CUT_BPS",
      "outputs": [
        {
          "internalType": "uint256",
          "name": "",
          "type": "uint256"
        }
      ],
      "stateMutability": "view",
      "type": "function"
    },
    {
      "inputs": [],
      "name": "SIGNER_ROLE",
      "outputs": [
        {
          "internalType": "bytes32",
          "name": "",
          "type": "bytes32"
        }
      ],
      "stateMutability": "view",
      "type": "function"
    },
    {
      "inputs": [],
      "name": "VESTING_CLIFF",
      "outputs": [
        {
          "internalType": "uint256",
          "name": "",
          "type": "uint256"
        }
      ],
      "stateMutability": "view",
      "type": "function"
    },
    {
      "inputs": [],
      "name": "VESTING_PERIOD",
      "outputs": [
        {
          "internalType": "uint256",
          "name": "",
          "type": "uint256"
        }
      ],
      "stateMutability": "view",
      "type": "function"
    },
    {
      "inputs": [
        {
          "internalType": "address",
          "name": "signer",
          "type": "address"
        }
      ],
      "name": "addSigner",
      "outputs": [],
      "stateMutability": "nonpayable",
      "type": "function"
    },
    {
      "inputs": [],
      "name": "chainlinkOracle",
      "outputs": [
        {
          "internalType": "address",
          "name": "",
          "type": "address"
        }
      ],
      "stateMutability": "view",
      "type": "function"
    },
    {
      "inputs": [],
      "name": "claimVestedCuts",
      "outputs": [],
      "stateMutability": "nonpayable",
      "type": "function"
    },
    {
      "inputs": [
        {
          "internalType": "address",
          "name": "",
          "type": "address"
        }
      ],
      "name": "claimedCuts",
      "outputs": [
        {
          "internalType": "uint256",
          "name": "",
          "type": "uint256"
        }
      ],
      "stateMutability": "view",
      "type": "function"
    },
    {
      "inputs": [
        {
          "internalType": "uint256",
          "name": "txId",
          "type": "uint256"
        }
      ],
      "name": "confirmTransaction",
      "outputs": [],
      "stateMutability": "nonpayable",
      "type": "function"
    },
    {
      "inputs": [
        {
          "internalType": "uint256",
          "name": "",
          "type": "uint256"
        },
        {
          "internalType": "address",
          "name": "",
          "type": "address"
        }
      ],
      "name": "confirmations",
      "outputs": [
        {
          "internalType": "bool",
          "name": "",
          "type": "bool"
        }
      ],
      "stateMutability": "view",
      "type": "function"
    },
    {
      "inputs": [
        {
          "internalType": "address",
          "name": "target",
          "type": "address"
        },
        {
          "internalType": "uint256",
          "name": "value",
          "type": "uint256"
        },
        {
          "internalType": "bytes",
          "name": "data",
          "type": "bytes"
        }
      ],
      "name": "execute",
      "outputs": [
        {
          "internalType": "bytes",
          "name": "",
          "type": "bytes"
        }
      ],
      "stateMutability": "nonpayable",
      "type": "function"
    },
    {
      "inputs": [
        {
          "internalType": "uint256",
          "name": "txId",
          "type": "uint256"
        }
      ],
      "name": "executeTransaction",
      "outputs": [
        {
          "internalType": "bytes",
          "name": "",
          "type": "bytes"
        }
      ],
      "stateMutability": "nonpayable",
      "type": "function"
    },
    {
      "inputs": [],
      "name": "founderWallet",
      "outputs": [
        {
          "internalType": "address",
          "name": "",
          "type": "address"
        }
      ],
      "stateMutability": "view",
      "type": "function"
    },
    {
      "inputs": [],
      "name": "fundReimbursementPool",
      "outputs": [],
      "stateMutability": "payable",
      "type": "function"
    },
    {
      "inputs": [],
      "name": "getBalance",
      "outputs": [
        {
          "internalType": "uint256",
          "name": "",
          "type": "uint256"
        }
      ],
      "stateMutability": "view",
      "type": "function"
    },
    {
      "inputs": [
        {
          "internalType": "address",
          "name": "founder",
          "type": "address"
        }
      ],
      "name": "getClaimableVested",
      "outputs": [
        {
          "internalType": "uint256",
          "name": "",
          "type": "uint256"
        }
      ],
      "stateMutability": "view",
      "type": "function"
    },
    {
      "inputs": [],
      "name": "getReimbursementPoolInfo",
      "outputs": [
        {
          "internalType": "uint256",
          "name": "poolBalance",
          "type": "uint256"
        },
        {
          "internalType": "uint256",
          "name": "maxPerTx",
          "type": "uint256"
        }
      ],
      "stateMutability": "view",
      "type": "function"
    },
    {
      "inputs": [
        {
          "internalType": "bytes32",
          "name": "role",
          "type": "bytes32"
        }
      ],
      "name": "getRoleAdmin",
      "outputs": [
        {
          "internalType": "bytes32",
          "name": "",
          "type": "bytes32"
        }
      ],
      "stateMutability": "view",
      "type": "function"
    },
    {
      "inputs": [
        {
          "internalType": "uint256",
          "name": "txId",
          "type": "uint256"
        }
      ],
      "name": "getTransaction",
      "outputs": [
        {
          "internalType": "address",
          "name": "target",
          "type": "address"
        },
        {
          "internalType": "uint256",
          "name": "value",
          "type": "uint256"
        },
        {
          "internalType": "bytes",
          "name": "data",
          "type": "bytes"
        },
        {
          "internalType": "bool",
          "name": "executed",
          "type": "bool"
        },
        {
          "internalType": "uint256",
          "name": "confirmationCount",
          "type": "uint256"
        }
      ],
      "stateMutability": "view",
      "type": "function"
    },
    {
      "inputs": [
        {
          "internalType": "address",
          "name": "founder",
          "type": "address"
        }
      ],
      "name": "getVestingInfo",
      "outputs": [
        {
          "internalType": "uint256",
          "name": "totalVested",
          "type": "uint256"
        },
        {
          "internalType": "uint256",
          "name": "claimed",
          "type": "uint256"
        },
        {
          "internalType": "uint256",
          "name": "claimable",
          "type": "uint256"
        },
        {
          "internalType": "uint256",
          "name": "vestingStartTime",
          "type": "uint256"
        },
        {
          "internalType": "uint256",
          "name": "vestingEndTime",
          "type": "uint256"
        }
      ],
      "stateMutability": "view",
      "type": "function"
    },
    {
      "inputs": [
        {
          "internalType": "bytes32",
          "name": "role",
          "type": "bytes32"
        },
        {
          "internalType": "address",
          "name": "account",
          "type": "address"
        }
      ],
      "name": "grantRole",
      "outputs": [],
      "stateMutability": "nonpayable",
      "type": "function"
    },
    {
      "inputs": [
        {
          "internalType": "bytes32",
          "name": "role",
          "type": "bytes32"
        },
        {
          "internalType": "address",
          "name": "account",
          "type": "address"
        }
      ],
      "name": "hasRole",
      "outputs": [
        {
          "internalType": "bool",
          "name": "",
          "type": "bool"
        }
      ],
      "stateMutability": "view",
      "type": "function"
    },
    {
      "inputs": [
        {
          "internalType": "uint256",
          "name": "txId",
          "type": "uint256"
        },
        {
          "internalType": "address",
          "name": "signer",
          "type": "address"
        }
      ],
      "name": "isConfirmed",
      "outputs": [
        {
          "internalType": "bool",
          "name": "",
          "type": "bool"
        }
      ],
      "stateMutability": "view",
      "type": "function"
    },
    {
      "inputs": [],
      "name": "maxReimbursementPerTx",
      "outputs": [
        {
          "internalType": "uint256",
          "name": "",
          "type": "uint256"
        }
      ],
      "stateMutability": "view",
      "type": "function"
    },
    {
      "inputs": [
        {
          "internalType": "address",
          "name": "relayer",
          "type": "address"
        },
        {
          "internalType": "uint256",
          "name": "gasUsed",
          "type": "uint256"
        }
      ],
      "name": "reimburseRelayer",
      "outputs": [],
      "stateMutability": "nonpayable",
      "type": "function"
    },
    {
      "inputs": [],
      "name": "relayerReimbursementPool",
      "outputs": [
        {
          "internalType": "uint256",
          "name": "",
          "type": "uint256"
        }
      ],
      "stateMutability": "view",
      "type": "function"
    },
    {
      "inputs": [
        {
          "internalType": "address",
          "name": "",
          "type": "address"
        }
      ],
      "name": "relayerReimbursements",
      "outputs": [
        {
          "internalType": "uint256",
          "name": "",
          "type": "uint256"
        }
      ],
      "stateMutability": "view",
      "type": "function"
    },
    {
      "inputs": [
        {
          "internalType": "address",
          "name": "signer",
          "type": "address"
        }
      ],
      "name": "removeSigner",
      "outputs": [],
      "stateMutability": "nonpayable",
      "type": "function"
    },
    {
      "inputs": [
        {
          "internalType": "bytes32",
          "name": "role",
          "type": "bytes32"
        },
        {
          "internalType": "address",
          "name": "callerConfirmation",
          "type": "address"
        }
      ],
      "name": "renounceRole",
      "outputs": [],
      "stateMutability": "nonpayable",
      "type": "function"
    },
    {
      "inputs": [],
      "name": "requiredConfirmations",
      "outputs": [
        {
          "internalType": "uint256",
          "name": "",
          "type": "uint256"
        }
      ],
      "stateMutability": "view",
      "type": "function"
    },
    {
      "inputs": [
        {
          "internalType": "uint256",
          "name": "txId",
          "type": "uint256"
        }
      ],
      "name": "revokeConfirmation",
      "outputs": [],
      "stateMutability": "nonpayable",
      "type": "function"
    },
    {
      "inputs": [
        {
          "internalType": "bytes32",
          "name": "role",
          "type": "bytes32"
        },
        {
          "internalType": "address",
          "name": "account",
          "type": "address"
        }
      ],
      "name": "revokeRole",
      "outputs": [],
      "stateMutability": "nonpayable",
      "type": "function"
    },
    {
      "inputs": [
        {
          "internalType": "address",
          "name": "_chainlinkOracle",
          "type": "address"
        }
      ],
      "name": "setChainlinkOracle",
      "outputs": [],
      "stateMutability": "nonpayable",
      "type": "function"
    },
    {
      "inputs": [
        {
          "internalType": "uint256",
          "name": "newMax",
          "type": "uint256"
        }
      ],
      "name": "setMaxReimbursement",
      "outputs": [],
      "stateMutability": "nonpayable",
      "type": "function"
    },
    {
      "inputs": [
        {
          "internalType": "uint256",
          "name": "_requiredConfirmations",
          "type": "uint256"
        }
      ],
      "name": "setRequiredConfirmations",
      "outputs": [],
      "stateMutability": "nonpayable",
      "type": "function"
    },
    {
      "inputs": [
        {
          "internalType": "address",
          "name": "target",
          "type": "address"
        },
        {
          "internalType": "uint256",
          "name": "value",
          "type": "uint256"
        },
        {
          "internalType": "bytes",
          "name": "data",
          "type": "bytes"
        }
      ],
      "name": "submitTransaction",
      "outputs": [
        {
          "internalType": "uint256",
          "name": "",
          "type": "uint256"
        }
      ],
      "stateMutability": "nonpayable",
      "type": "function"
    },
    {
      "inputs": [
        {
          "internalType": "bytes4",
          "name": "interfaceId",
          "type": "bytes4"
        }
      ],
      "name": "supportsInterface",
      "outputs": [
        {
          "internalType": "bool",
          "name": "",
          "type": "bool"
        }
      ],
      "stateMutability": "view",
      "type": "function"
    },
    {
      "inputs": [],
      "name": "transactionCount",
      "outputs": [
        {
          "internalType": "uint256",
          "name": "",
          "type": "uint256"
        }
      ],
      "stateMutability": "view",
      "type": "function"
    },
    {
      "inputs": [
        {
          "internalType": "uint256",
          "name": "",
          "type": "uint256"
        }
      ],
      "name": "transactions",
      "outputs": [
        {
          "internalType": "address",
          "name": "target",
          "type": "address"
        },
        {
          "internalType": "uint256",
          "name": "value",
          "type": "uint256"
        },
        {
          "internalType": "bytes",
          "name": "data",
          "type": "bytes"
        },
        {
          "internalType": "bool",
          "name": "executed",
          "type": "bool"
        },
        {
          "internalType": "uint256",
          "name": "confirmationCount",
          "type": "uint256"
        }
      ],
      "stateMutability": "view",
      "type": "function"
    },
    {
      "inputs": [
        {
          "internalType": "address",
          "name": "_newFounderWallet",
          "type": "address"
        }
      ],
      "name": "updateFounderWallet",
      "outputs": [],
      "stateMutability": "nonpayable",
      "type": "function"
    },
    {
      "inputs": [
        {
          "internalType": "uint256",
          "name": "propertyId",
          "type": "uint256"
        }
      ],
      "name": "verifyAndRecordReserves",
      "outputs": [
        {
          "internalType": "uint256",
          "name": "",
          "type": "uint256"
        }
      ],
      "stateMutability": "nonpayable",
      "type": "function"
    },
    {
      "inputs": [
        {
          "internalType": "uint256",
          "name": "propertyId",
          "type": "uint256"
        }
      ],
      "name": "verifyReserves",
      "outputs": [
        {
          "internalType": "uint256",
          "name": "",
          "type": "uint256"
        }
      ],
      "stateMutability": "view",
      "type": "function"
    },
    {
      "inputs": [
        {
          "internalType": "address",
          "name": "",
          "type": "address"
        }
      ],
      "name": "vestedCuts",
      "outputs": [
        {
          "internalType": "uint256",
          "name": "",
          "type": "uint256"
        }
      ],
      "stateMutability": "view",
      "type": "function"
    },
    {
      "inputs": [
        {
          "internalType": "address",
          "name": "",
          "type": "address"
        }
      ],
      "name": "vestingStart",
      "outputs": [
        {
          "internalType": "uint256",
          "name": "",
          "type": "uint256"
        }
      ],
      "stateMutability": "view",
      "type": "function"
    },
    {
      "inputs": [
        {
          "internalType": "uint256",
          "name": "amount",
          "type": "uint256"
        }
      ],
      "name": "withdraw",
      "outputs": [],
      "stateMutability": "nonpayable",
      "type": "function"
    },
    {
      "stateMutability": "payable",
      "type": "receive"
    }
  ],
  "bytecode": "0x608034620000f257601f6200257b38819003918201601f19168301916001600160401b03831184841017620000f757808492602094604052833981010312620000f257516001600160a01b03811690819003620000f257600180556002600455662386f26fc10000600a558015620000ad576200007c336200010d565b5062000088336200018d565b50600280546001600160a01b03191691909117905560405161232b9081620002308239f35b60405162461bcd60e51b815260206004820152601660248201527f496e76616c696420666f756e6465722077616c6c6574000000000000000000006044820152606490fd5b600080fd5b634e487b7160e01b600052604160045260246000fd5b6001600160a01b031660008181527fad3228b676f7d3cd4284a5443f17f1962b36e491b30a40b2405849e597ba5fb5602052604081205490919060ff166200018957818052816020526040822081835260205260408220600160ff1982541617905533916000805160206200255b8339815191528180a4600190565b5090565b6001600160a01b031660008181527f059f08e7d7ba1c82eddc57afae67f80df851baf38a099607a779825038c3ce5b60205260408120549091907fe2f4eaae4a9751e85a3e4a7b9587827a877f29914755229b07a7b2da98285f709060ff166200022a57808352826020526040832082845260205260408320600160ff198254161790556000805160206200255b833981519152339380a4600190565b50509056fe608080604052600436101561001d575b50361561001b57600080fd5b005b60003560e01c9081630197d97214611ad85750806301ffc9a714611a82578063032bbf4f14611a485780630363c8fb146118c957806307bd02651461188e5780630e316ab71461183357806312065fe01461181757806320ea8d8614611713578063248a9ca3146116e45780632e1a7d4d146116295780632f2ff15d146115ea57806333ea3dc8146115805780633411c81c1461119757806336568abe146115395780634d2478891461151b57806363f3dbe5146114fd5780636ab3818e146114b057806373522681146114855780637a9b0412146113d75780637aab13811461139d5780637b7c343d146112925780637f307ff7146111e457806380f59a651461119757806382e717f7146111795780638f28544c1461115d57806391d14854146111105780639ace38c2146110a6578063a1ebf35d1461107d578063a217fddf14611061578063a23d3c3514611038578063a5574d5214610fa0578063a64c113814610f66578063af522b1c14610ed8578063b61d27f614610d5d578063b77bf60014610d3f578063bf7cd80414610d05578063c01a8c8414610bfd578063c56c9ff414610ae9578063c642747414610799578063c96f85cf14610774578063d547741f14610735578063d98823341461066e578063eb12d61e146105cd578063ee22610b14610314578063ef06e72c146102eb578063ef66d684146102cd5763fb897ce41461022f573861000f565b346102c85760203660031901126102c857610248611af5565b60018060a01b03811680600052600660205260406000205490600860205261027560406000205493611e4b565b9060005260076020526040600020546303c267008101918282116102b25760a0946040519485526020850152604084015260608301526080820152f35b634e487b7160e01b600052601160045260246000fd5b600080fd5b346102c85760003660031901126102c8576020600954604051908152f35b346102c85760003660031901126102c8576003546040516001600160a01b039091168152602090f35b346102c8576020806003193601126102c85760043590610332611fe7565b61033a611f6c565b6103476005548310611da0565b81600052600c8152604060002091600383019081549361036a60ff861615611dec565b60048101546004541161058857479160019361038c8584015480951015611cee565b8460ff1980981617905560648302838104606414841517156102b2576127106103b791048094611d93565b928061052f575b5060018060a01b0395868354166002840191856040519160009085546103e381611b9a565b91818c1691821561051c5750506001146104de575b50916000939181859403925af19661040e611d63565b9715610499577fcaf938de11c367272220bfd1d2baa99ca46665e7bc4d85f00adb51b90fe1fa9f93929161047c916040519485947f15ed165a284872ea7017f03df402a0cadfbfab588320ffaf83f160c2f82781c7600080a254169583526040888401526040830190611bd4565b0390a28055610495604051928284938452830190611b21565b0390f35b60405162461bcd60e51b815260048101889052601c60248201527f5472616e73616374696f6e20657865637574696f6e206661696c6564000000006044820152606490fd5b905084600052896000208a8a6000925b84841061050457505050908301905060006103f8565b8054878501528b955092909101918c918c91016104ee565b16855250801515028301905060006103f8565b7fb45df24de5d27f6414d5fb15009502c7f77909dc68ce75448b60a4a71640e2708660018060a01b0361057660008080808886600254165af1610570611d63565b50611f11565b6002541692604051908152a2866103be565b60405162461bcd60e51b815260048101859052601860248201527f4e6f7420656e6f75676820636f6e6669726d6174696f6e7300000000000000006044820152606490fd5b346102c85760203660031901126102c8576105e6611af5565b6105ee611f8f565b6001600160a01b03811690811561063057610608906121c1565b507f47d1c22a25bb3a5d4e481b9b1e6944c2eade3181a0a20b495ed61d35b5323f24600080a2005b60405162461bcd60e51b8152602060048201526016602482015275496e76616c6964207369676e6572206164647265737360501b6044820152606490fd5b346102c8576020806003193601126102c8576003546024906004359083906001600160a01b03166106a0811515611ecd565b604051938480926323a9d25760e21b82528560048301525afa918215610729576000926106fa575b507fb96772fa5329ea20c203d97d9b39acce1faec46fdb3bd87a329ebf77fd7410ce83604051848152a2604051908152f35b9091508281813d8311610722575b6107128183611c6a565b810103126102c8575190836106c8565b503d610708565b6040513d6000823e3d90fd5b346102c85760403660031901126102c85761001b600435610754611b0b565b9080600052600060205261076f60016040600020015461208d565b61214c565b346102c85760003660031901126102c8576040600954600a5482519182526020820152f35b346102c8576107a736611c8c565b92916107b1611fe7565b600554926107be84611f5d565b6005556040519067ffffffffffffffff60a0830181811184821017610ad3576040526001600160a01b03918216808452602084018581529790959061080281611d47565b916108106040519384611c6a565b81835236828201116102c8578160009260209283860137830101526040840190815260608401976000895260808501936000855288600052600c60205260406000209551166001600160601b0360a01b865416178555516001850155518051918211610ad3576108836002850154611b9a565b601f8111610a88575b50602090601f8311600114610a1757600493929160009183610a0c575b50508160011b916000199060031b1c19161760028401555b60038301965115159660ff199760ff898354169116179055519101556040519182526020820152817f753dcda37efe0bc3675e04e24d1fb08b70681f14675eed4b6e7978495caf2ca060403393a3610917611fe7565b6109246005548210611da0565b80600052600c60205261094260ff6003604060002001541615611dec565b80600052600d60205260406000203360005260205260ff604060002054166109d35760209181600052600d83526040600020336000528352600160406000209182541617905580600052600c825260046040600020016109a28154611f5d565b90556040519033817f15c2f311c9e0f53b50388279894aeff029a3457884a6601e924fca879e12adcc600080a38152f35b60405162461bcd60e51b8152602060048201526011602482015270105b1c9958591e4818dbdb999a5c9b5959607a1b6044820152606490fd5b0151905089806108a9565b90601f198316916002860160005260206000209260005b818110610a705750916001939185600497969410610a57575b505050811b0160028401556108c1565b015160001960f88460031b161c19169055898080610a47565b92936020600181928786015181550195019301610a2e565b600285016000526020600020601f840160051c81019160208510610ac9575b601f0160051c01905b818110610abd575061088c565b60008155600101610ab0565b9091508190610aa7565b634e487b7160e01b600052604160045260246000fd5b346102c85760403660031901126102c857610b02611af5565b610b0a612031565b610b163a602435611e38565b90600a54808311610bf5575b50600954808311610bed575b82610b3557005b82610b3f91611d93565b60095560018060a01b03169081600052600b6020526040600020610b64828254611d3a565b9055600080808084865af1610b77611d63565b5015610bb15760407f5fc1e14c18e85d0603c37d2759f24a4f00fe4454e0a0b2566df29785f4810d299160095482519182526020820152a2005b60405162461bcd60e51b815260206004820152601460248201527314995a5b589d5c9cd95b595b9d0819985a5b195960621b6044820152606490fd5b915081610b2e565b915082610b22565b346102c8576020806003193601126102c85760043590610c1b611fe7565b610c286005548310611da0565b81600052600c8152610c4560ff6003604060002001541615611dec565b81600052600d8152604060002033600052815260ff60406000205416610ccd57600c9082600052600d815260406000203360005281526040600020600160ff1982541617905582600052526004604060002001610ca28154611f5d565b905533907f15c2f311c9e0f53b50388279894aeff029a3457884a6601e924fca879e12adcc600080a3005b6064906040519062461bcd60e51b825260048201526011602482015270105b1c9958591e4818dbdb999a5c9b5959607a1b6044820152fd5b346102c85760203660031901126102c8576001600160a01b03610d26611af5565b1660005260086020526020604060002054604051908152f35b346102c85760003660031901126102c8576020600554604051908152f35b346102c857610d6b36611c8c565b9091610d75612031565b610d7d611f6c565b610d8981471015611cee565b60648102818104606414821517156102b257612710610daa91048092611d93565b9080610e84575b506000806040518486823780858101838152039084885af192610dd2611d63565b9315610e515760607fcaf938de11c367272220bfd1d2baa99ca46665e7bc4d85f00adb51b90fe1fa9f9261049596856040519485938452604060208501528160408501528484013760008287018401526001600160a01b031694601f01601f19168101030190a260018055604051918291602083526020830190611b21565b60405162461bcd60e51b815260206004820152600b60248201526a10d85b1b0819985a5b195960aa1b6044820152606490fd5b7fb45df24de5d27f6414d5fb15009502c7f77909dc68ce75448b60a4a71640e270602060018060a01b03610ec660008080808886600254165af1610570611d63565b6002541692604051908152a284610db1565b346102c8576020806003193601126102c85760035460249082906001600160a01b0316610f06811515611ecd565b604051928380926323a9d25760e21b825260043560048301525afa90811561072957600091610f39575b50604051908152f35b90508181813d8311610f5f575b610f508183611c6a565b810103126102c8575182610f30565b503d610f46565b346102c85760203660031901126102c8576001600160a01b03610f87611af5565b1660005260066020526020604060002054604051908152f35b346102c85760203660031901126102c857600435610fbc611f8f565b67016345785d8a000081116110045760407f6ff3ba4223f4d694ced77174a208557c49fd86ead36368eb2871ceb7eb4d1eeb91600a549080600a5582519182526020820152a1005b60405162461bcd60e51b815260206004820152600c60248201526b09ac2f040e8dede40d0d2ced60a31b6044820152606490fd5b346102c85760003660031901126102c8576002546040516001600160a01b039091168152602090f35b346102c85760003660031901126102c857602060405160008152f35b346102c85760003660031901126102c85760206040516000805160206122d68339815191528152f35b346102c85760203660031901126102c857600435600052600c602052604060002060018060a01b03815416610495600183015492604051906110f6826110ef8160028501611bd4565b0383611c6a565b600460ff6003830154169101549160405195869586611b61565b346102c85760403660031901126102c857611129611b0b565b600435600052600060205260406000209060018060a01b0316600052602052602060ff604060002054166040519015158152f35b346102c85760003660031901126102c857602060405160648152f35b346102c85760003660031901126102c8576020600454604051908152f35b346102c85760403660031901126102c8576111b0611b0b565b600435600052600d60205260406000209060018060a01b0316600052602052602060ff604060002054166040519015158152f35b346102c85760203660031901126102c8576111fd611af5565b611205611f8f565b6001600160a01b0390811690811561125457600254826001600160601b0360a01b821617600255167f8fde258c62bae775e2f2a12f222aa115ecd71ca13947381ec3122d23dca37d6d600080a3005b60405162461bcd60e51b8152602060048201526016602482015275125b9d985b1a5908199bdd5b99195c881dd85b1b195d60521b6044820152606490fd5b346102c85760203660031901126102c8576004356112ae611f8f565b801561134c57600a81116112f55760407f9a71f52a6cf1d6a0a676a538d4131e624fbe0f9146d1ca1c7a31fda3db8c37f791600454908060045582519182526020820152a1005b60405162461bcd60e51b815260206004820152602960248201527f43616e6e6f742072657175697265206d6f7265207468616e20313020636f6e6660448201526869726d6174696f6e7360b81b6064820152608490fd5b60405162461bcd60e51b8152602060048201526024808201527f4d7573742072657175697265206174206c65617374203120636f6e6669726d616044820152633a34b7b760e11b6064820152608490fd5b346102c85760203660031901126102c8576001600160a01b036113be611af5565b16600052600b6020526020604060002054604051908152f35b346102c85760203660031901126102c8576113f0611af5565b6113f8611f8f565b6001600160a01b0390811690811561144757600354826001600160601b0360a01b821617600355167fe108cf8f8b301f7954568e77ebd0b1215523268a978e34bc9cc1a60b6abf78e6600080a3005b60405162461bcd60e51b8152602060048201526016602482015275496e76616c6964206f7261636c65206164647265737360501b6044820152606490fd5b346102c85760203660031901126102c85760206114a86114a3611af5565b611e4b565b604051908152f35b60003660031901126102c8577f19a5c5590f6a234a92047e9b565ee9a2e8d9d83db89b9ac1622a6d6e170470ee60406114eb34600954611d3a565b806009558151903482526020820152a1005b346102c85760003660031901126102c85760206040516276a7008152f35b346102c85760003660031901126102c8576020600a54604051908152f35b346102c85760403660031901126102c857611552611b0b565b336001600160a01b0382160361156e5761001b9060043561214c565b60405163334bd91960e11b8152600490fd5b346102c85760203660031901126102c857600435600052600c602052604060002060018060a01b0381541661049560018301549260ff60038201541660026115de6004840154936115d76040518094819301611bd4565b0382611c6a565b60405195869586611b61565b346102c85760403660031901126102c85761001b600435611609611b0b565b9080600052600060205261162460016040600020015461208d565b61225c565b346102c85760203660031901126102c857600435611645611f8f565b61164d611f6c565b8047106116a857600080808093335af1611665611d63565b50156116715760018055005b60405162461bcd60e51b815260206004820152600f60248201526e15da5d1a191c985dc819985a5b1959608a1b6044820152606490fd5b60405162461bcd60e51b8152602060048201526014602482015273496e73756666696369656e742062616c616e636560601b6044820152606490fd5b346102c85760203660031901126102c85760043560005260006020526020600160406000200154604051908152f35b346102c8576020806003193601126102c85760043590611731611fe7565b61173e6005548310611da0565b81600052600c815261175b60ff6003604060002001541615611dec565b81600052600d8152604060002033600052815260ff60406000205416156117e357600c9082600052600d81526040600020336000528152604060002060ff19815416905582600052526004604060002001805480156102b25760001901905533907f4cd471041f6b9ff47536a54a3d3ab62d0fa9dd5e36c0418b294b1673acb31881600080a3005b6064906040519062461bcd60e51b82526004820152600d60248201526c139bdd0818dbdb999a5c9b5959609a1b6044820152fd5b346102c85760003660031901126102c857602047604051908152f35b346102c85760203660031901126102c85761184c611af5565b611854611f8f565b61185d816120b3565b506001600160a01b03167f3525e22824a8a7df2c9a6029941c824cf95b6447f1e13d5128fd3826d35afe8b600080a2005b346102c85760003660031901126102c85760206040517fd8aa0f3194971a2a116679f7c2090f6939c8d4e01a2a8d7e41d55e5351469e638152f35b346102c85760003660031901126102c8576118e2611f6c565b6002546001600160a01b03163303611a0a576118fd33611e4b565b80156119d25761190f81471015611cee565b3360005260086020526040600020611928828254611d3a565b9055600080808084335af161193b611d63565b501561199b57336000526006602052611964604060002054600860205260406000205490611d93565b60405191825260208201527f2a802e837fc4c908f2771b54afa67bb6b29094584706495b8dd12e8db55fc88760403392a260018055005b60405162461bcd60e51b815260206004820152600f60248201526e151c985b9cd9995c8819985a5b1959608a1b6044820152606490fd5b60405162461bcd60e51b815260206004820152601060248201526f4e6f7468696e6720746f20636c61696d60801b6044820152606490fd5b60405162461bcd60e51b81526020600482015260166024820152754f6e6c7920666f756e6465722063616e20636c61696d60501b6044820152606490fd5b346102c85760203660031901126102c8576001600160a01b03611a69611af5565b1660005260076020526020604060002054604051908152f35b346102c85760203660031901126102c85760043563ffffffff60e01b81168091036102c857602090637965db0b60e01b8114908115611ac7575b506040519015158152f35b6301ffc9a760e01b14905082611abc565b346102c85760003660031901126102c857806303c2670060209252f35b600435906001600160a01b03821682036102c857565b602435906001600160a01b03821682036102c857565b919082519283825260005b848110611b4d575050826000602080949584010152601f8019910116010190565b602081830181015184830182015201611b2c565b9192608093611b8e929796959760018060a01b03168452602084015260a0604084015260a0830190611b21565b94151560608201520152565b90600182811c92168015611bca575b6020831014611bb457565b634e487b7160e01b600052602260045260246000fd5b91607f1691611ba9565b805460009392611be382611b9a565b91828252602093600191600181169081600014611c4b5750600114611c0a575b5050505050565b90939495506000929192528360002092846000945b838610611c3757505050500101903880808080611c03565b805485870183015294019385908201611c1f565b60ff19168685015250505090151560051b010191503880808080611c03565b90601f8019910116810190811067ffffffffffffffff821117610ad357604052565b9060606003198301126102c8576004356001600160a01b03811681036102c857916024359160443567ffffffffffffffff928382116102c857806023830112156102c85781600401359384116102c857602484830101116102c8576024019190565b15611cf557565b60405162461bcd60e51b815260206004820152601d60248201527f496e73756666696369656e742074726561737572792062616c616e63650000006044820152606490fd5b919082018092116102b257565b67ffffffffffffffff8111610ad357601f01601f191660200190565b3d15611d8e573d90611d7482611d47565b91611d826040519384611c6a565b82523d6000602084013e565b606090565b919082039182116102b257565b15611da757565b60405162461bcd60e51b815260206004820152601a60248201527f5472616e73616374696f6e20646f6573206e6f742065786973740000000000006044820152606490fd5b15611df357565b60405162461bcd60e51b815260206004820152601c60248201527f5472616e73616374696f6e20616c7265616479206578656375746564000000006044820152606490fd5b818102929181159184041417156102b257565b6001600160a01b03166000818152600760205260408120549091908015611ec857611e769042611d93565b6276a7008110611ec8578183526006602052604080842054611eb49491926303c2670090818110611eb7575050925b81526008602052205490611d93565b90565b611ec19192611e38565b0492611ea5565b505090565b15611ed457565b60405162461bcd60e51b815260206004820152601560248201527413dc9858db19481b9bdd0818dbdb999a59dd5c9959605a1b6044820152606490fd5b15611f1857565b60405162461bcd60e51b815260206004820152601b60248201527f466f756e64657220637574207472616e73666572206661696c656400000000006044820152606490fd5b60001981146102b25760010190565b600260015414611f7d576002600155565b604051633ee5aeb560e01b8152600490fd5b3360009081527fad3228b676f7d3cd4284a5443f17f1962b36e491b30a40b2405849e597ba5fb5602052604081205460ff1615611fc95750565b6044906040519063e2517d3f60e01b82523360048301526024820152fd5b3360009081527f059f08e7d7ba1c82eddc57afae67f80df851baf38a099607a779825038c3ce5b60205260409020546000805160206122d68339815191529060ff1615611fc95750565b3360009081527fdae2aa361dfd1ca020a396615627d436107c35eff9fe7738a3512819782d706960205260409020547fd8aa0f3194971a2a116679f7c2090f6939c8d4e01a2a8d7e41d55e5351469e639060ff1615611fc95750565b80600052600060205260406000203360005260205260ff6040600020541615611fc95750565b6001600160a01b031660008181527f059f08e7d7ba1c82eddc57afae67f80df851baf38a099607a779825038c3ce5b60205260408120549091906000805160206122d68339815191529060ff1615611ec85780835282602052604083208284526020526040832060ff1981541690557ff6391f5c32d9c69d2a47ea670b442974b53935d1edc7fd64eb21e047a839171b339380a4600190565b9060009180835282602052604083209160018060a01b03169182845260205260ff604084205416600014611ec85780835282602052604083208284526020526040832060ff1981541690557ff6391f5c32d9c69d2a47ea670b442974b53935d1edc7fd64eb21e047a839171b339380a4600190565b6001600160a01b031660008181527f059f08e7d7ba1c82eddc57afae67f80df851baf38a099607a779825038c3ce5b60205260408120549091906000805160206122d68339815191529060ff16611ec857808352826020526040832082845260205260408320600160ff198254161790557f2f8788117e7eff1d82e926ec794901d17c78024a50270940304540a733656f0d339380a4600190565b9060009180835282602052604083209160018060a01b03169182845260205260ff60408420541615600014611ec857808352826020526040832082845260205260408320600160ff198254161790557f2f8788117e7eff1d82e926ec794901d17c78024a50270940304540a733656f0d339380a460019056fee2f4eaae4a9751e85a3e4a7b9587827a877f29914755229b07a7b2da98285f70a2646970667358221220ca3ebe2d45fd760397a0c76d6bb3fd5a4d07292cb2117fe76fb2b3b849ecdc0e64736f6c634300081800332f8788117e7eff1d82e926ec794901d17c78024a50270940304540a733656f0d",
  "linkReferences": {},
  "deployedLinkReferences": {}
}