{
  "_format": "hh-sol-artifact-1",
  "contractName": "Treasury",
  "sourceName": "contracts/Treasury.sol",
  "abi": [
    {
      "inputs": [
        {
          "internalType": "address",
          "name": "_founderWallet",
          "type": "address"
        }
      ],
      "stateMutability": "nonpayable",
      "type": "constructor"
    },
    {
      "inputs": [],
      "name": "AccessControlBadConfirmation",
      "type": "error"
    },
    {
      "inputs": [
        {
          "internalType": "address",
          "name": "account",
          "type": "address"
        },
        {
          "internalType": "bytes32",
          "name": "neededRole",
          "type": "bytes32"
        }
      ],
      "name": "AccessControlUnauthorizedAccount",
      "type": "error"
    },
    {
      "inputs": [],
      "name": "ReentrancyGuardReentrantCall",
      "type": "error"
    },
    {
      "anonymous": false,
      "inputs": [
        {
          "indexed": true,
          "internalType": "address",
          "name": "oldOracle",
          "type": "address"
        },
        {
          "indexed": true,
          "internalType": "address",
          "name": "newOracle",
          "type": "address"
        }
      ],
      "name": "ChainlinkOracleUpdated",
      "type": "event"
    },
    {
      "anonymous": false,
      "inputs": [
        {
          "indexed": true,
          "internalType": "address",
          "name": "target",
          "type": "address"
        },
        {
          "indexed": false,
          "internalType": "uint256",
          "name": "value",
          "type": "uint256"
        },
        {
          "indexed": false,
          "internalType": "bytes",
          "name": "data",
          "type": "bytes"
        }
      ],
      "name": "Executed",
      "type": "event"
    },
    {
      "anonymous": false,
      "inputs": [
        {
          "indexed": true,
          "internalType": "address",
          "name": "founder",
          "type": "address"
        },
        {
          "indexed": false,
          "internalType": "uint256",
          "name": "amount",
          "type": "uint256"
        }
      ],
      "name": "FounderCutSent",
      "type": "event"
    },
    {
      "anonymous": false,
      "inputs": [
        {
          "indexed": true,
          "internalType": "address",
          "name": "oldWallet",
          "type": "address"
        },
        {
          "indexed": true,
          "internalType": "address",
          "name": "newWallet",
          "type": "address"
        }
      ],
      "name": "FounderWalletUpdated",
      "type": "event"
    },
    {
      "anonymous": false,
      "inputs": [
        {
          "indexed": true,
          "internalType": "uint256",
          "name": "propertyId",
          "type": "uint256"
        },
        {
          "indexed": false,
          "internalType": "uint256",
          "name": "reserves",
          "type": "uint256"
        }
      ],
      "name": "ReservesVerified",
      "type": "event"
    },
    {
      "anonymous": false,
      "inputs": [
        {
          "indexed": true,
          "internalType": "bytes32",
          "name": "role",
          "type": "bytes32"
        },
        {
          "indexed": true,
          "internalType": "bytes32",
          "name": "previousAdminRole",
          "type": "bytes32"
        },
        {
          "indexed": true,
          "internalType": "bytes32",
          "name": "newAdminRole",
          "type": "bytes32"
        }
      ],
      "name": "RoleAdminChanged",
      "type": "event"
    },
    {
      "anonymous": false,
      "inputs": [
        {
          "indexed": true,
          "internalType": "bytes32",
          "name": "role",
          "type": "bytes32"
        },
        {
          "indexed": true,
          "internalType": "address",
          "name": "account",
          "type": "address"
        },
        {
          "indexed": true,
          "internalType": "address",
          "name": "sender",
          "type": "address"
        }
      ],
      "name": "RoleGranted",
      "type": "event"
    },
    {
      "anonymous": false,
      "inputs": [
        {
          "indexed": true,
          "internalType": "bytes32",
          "name": "role",
          "type": "bytes32"
        },
        {
          "indexed": true,
          "internalType": "address",
          "name": "account",
          "type": "address"
        },
        {
          "indexed": true,
          "internalType": "address",
          "name": "sender",
          "type": "address"
        }
      ],
      "name": "RoleRevoked",
      "type": "event"
    },
    {
      "inputs": [],
      "name": "DEFAULT_ADMIN_ROLE",
      "outputs": [
        {
          "internalType": "bytes32",
          "name": "",
          "type": "bytes32"
        }
      ],
      "stateMutability": "view",
      "type": "function"
    },
    {
      "inputs": [],
      "name": "EXECUTOR_ROLE",
      "outputs": [
        {
          "internalType": "bytes32",
          "name": "",
          "type": "bytes32"
        }
      ],
      "stateMutability": "view",
      "type": "function"
    },
    {
      "inputs": [],
      "name": "FOUNDER_CUT_BPS",
      "outputs": [
        {
          "internalType": "uint256",
          "name": "",
          "type": "uint256"
        }
      ],
      "stateMutability": "view",
      "type": "function"
    },
    {
      "inputs": [],
      "name": "chainlinkOracle",
      "outputs": [
        {
          "internalType": "address",
          "name": "",
          "type": "address"
        }
      ],
      "stateMutability": "view",
      "type": "function"
    },
    {
      "inputs": [
        {
          "internalType": "address",
          "name": "target",
          "type": "address"
        },
        {
          "internalType": "uint256",
          "name": "value",
          "type": "uint256"
        },
        {
          "internalType": "bytes",
          "name": "data",
          "type": "bytes"
        }
      ],
      "name": "execute",
      "outputs": [
        {
          "internalType": "bytes",
          "name": "",
          "type": "bytes"
        }
      ],
      "stateMutability": "nonpayable",
      "type": "function"
    },
    {
      "inputs": [],
      "name": "founderWallet",
      "outputs": [
        {
          "internalType": "address",
          "name": "",
          "type": "address"
        }
      ],
      "stateMutability": "view",
      "type": "function"
    },
    {
      "inputs": [],
      "name": "getBalance",
      "outputs": [
        {
          "internalType": "uint256",
          "name": "",
          "type": "uint256"
        }
      ],
      "stateMutability": "view",
      "type": "function"
    },
    {
      "inputs": [
        {
          "internalType": "bytes32",
          "name": "role",
          "type": "bytes32"
        }
      ],
      "name": "getRoleAdmin",
      "outputs": [
        {
          "internalType": "bytes32",
          "name": "",
          "type": "bytes32"
        }
      ],
      "stateMutability": "view",
      "type": "function"
    },
    {
      "inputs": [
        {
          "internalType": "bytes32",
          "name": "role",
          "type": "bytes32"
        },
        {
          "internalType": "address",
          "name": "account",
          "type": "address"
        }
      ],
      "name": "grantRole",
      "outputs": [],
      "stateMutability": "nonpayable",
      "type": "function"
    },
    {
      "inputs": [
        {
          "internalType": "bytes32",
          "name": "role",
          "type": "bytes32"
        },
        {
          "internalType": "address",
          "name": "account",
          "type": "address"
        }
      ],
      "name": "hasRole",
      "outputs": [
        {
          "internalType": "bool",
          "name": "",
          "type": "bool"
        }
      ],
      "stateMutability": "view",
      "type": "function"
    },
    {
      "inputs": [
        {
          "internalType": "bytes32",
          "name": "role",
          "type": "bytes32"
        },
        {
          "internalType": "address",
          "name": "callerConfirmation",
          "type": "address"
        }
      ],
      "name": "renounceRole",
      "outputs": [],
      "stateMutability": "nonpayable",
      "type": "function"
    },
    {
      "inputs": [
        {
          "internalType": "bytes32",
          "name": "role",
          "type": "bytes32"
        },
        {
          "internalType": "address",
          "name": "account",
          "type": "address"
        }
      ],
      "name": "revokeRole",
      "outputs": [],
      "stateMutability": "nonpayable",
      "type": "function"
    },
    {
      "inputs": [
        {
          "internalType": "address",
          "name": "_chainlinkOracle",
          "type": "address"
        }
      ],
      "name": "setChainlinkOracle",
      "outputs": [],
      "stateMutability": "nonpayable",
      "type": "function"
    },
    {
      "inputs": [
        {
          "internalType": "bytes4",
          "name": "interfaceId",
          "type": "bytes4"
        }
      ],
      "name": "supportsInterface",
      "outputs": [
        {
          "internalType": "bool",
          "name": "",
          "type": "bool"
        }
      ],
      "stateMutability": "view",
      "type": "function"
    },
    {
      "inputs": [
        {
          "internalType": "address",
          "name": "_newFounderWallet",
          "type": "address"
        }
      ],
      "name": "updateFounderWallet",
      "outputs": [],
      "stateMutability": "nonpayable",
      "type": "function"
    },
    {
      "inputs": [
        {
          "internalType": "uint256",
          "name": "propertyId",
          "type": "uint256"
        }
      ],
      "name": "verifyAndRecordReserves",
      "outputs": [
        {
          "internalType": "uint256",
          "name": "",
          "type": "uint256"
        }
      ],
      "stateMutability": "nonpayable",
      "type": "function"
    },
    {
      "inputs": [
        {
          "internalType": "uint256",
          "name": "propertyId",
          "type": "uint256"
        }
      ],
      "name": "verifyReserves",
      "outputs": [
        {
          "internalType": "uint256",
          "name": "",
          "type": "uint256"
        }
      ],
      "stateMutability": "view",
      "type": "function"
    },
    {
      "inputs": [
        {
          "internalType": "uint256",
          "name": "amount",
          "type": "uint256"
        }
      ],
      "name": "withdraw",
      "outputs": [],
      "stateMutability": "nonpayable",
      "type": "function"
    },
    {
      "stateMutability": "payable",
      "type": "receive"
    }
  ],
  "bytecode": "0x6080346100cd57601f610de838819003918201601f19168301916001600160401b038311848410176100d2578084926020946040528339810103126100cd57516001600160a01b038116908190036100cd5760018055801561008857610064336100e8565b50600280546001600160a01b031916919091179055604051610c6f90816101798239f35b60405162461bcd60e51b815260206004820152601660248201527f496e76616c696420666f756e6465722077616c6c6574000000000000000000006044820152606490fd5b600080fd5b634e487b7160e01b600052604160045260246000fd5b6001600160a01b031660008181527fad3228b676f7d3cd4284a5443f17f1962b36e491b30a40b2405849e597ba5fb5602052604081205490919060ff1661017457818052816020526040822081835260205260408220600160ff1982541617905533917f2f8788117e7eff1d82e926ec794901d17c78024a50270940304540a733656f0d8180a4600190565b509056fe6080604081815260049182361015610022575b505050361561002057600080fd5b005b600092833560e01c91826301ffc9a7146109655750816307bd02651461092a57816312065fe01461090f578163248a9ca3146108e55781632e1a7d4d1461082b5781632f2ff15d1461080157816336568abe146107bb5781637a9b0412146107055781637f307ff71461064f5781638f28544c1461063357816391d14854146105ed578163a217fddf146105d2578163a23d3c35146105a9578163af522b1c1461050d578163b61d27f61461022d578163d547741f146101ee578163d988233414610123575063ef06e72c146100f85780610012565b3461011f578160031936011261011f5760035490516001600160a01b039091168152602090f35b5080fd5b83833461011f57602092836003193601126101ea578035908482602460018060a01b036003541693610156851515610a61565b865194859384926323a9d25760e21b84528301525afa9384156101df5780946101aa575b50507fb96772fa5329ea20c203d97d9b39acce1faec46fdb3bd87a329ebf77fd7410ce848351858152a251908152f35b909193508482813d83116101d8575b6101c381836109e9565b810103126101d557505191848061017a565b80fd5b503d6101b9565b8351903d90823e3d90fd5b8280fd5b919050346101ea57806003193601126101ea57610229913561022460016102136109b8565b938387528660205286200154610afd565b610bc4565b5080f35b919050346101ea5760603660031901126101ea576102496109d3565b6044359360249167ffffffffffffffff9083359082881161050957366023890112156105095787870135928311610509578488019785843692010111610509577fd8aa0f3194971a2a116679f7c2090f6939c8d4e01a2a8d7e41d55e5351469e6396878552602097858952878620338752895260ff8887205416156104ed57506102d1610b23565b8247106104ab5760648302838104606414841517156104995761271090048084039384116104995780610402575b5084808851868c823780878101838152039086865af19561031e610a21565b96156103d257505087606084937fcaf938de11c367272220bfd1d2baa99ca46665e7bc4d85f00adb51b90fe1fa9f93601f968a5194859384528b8d850152818c8501528484013781860183018890528619966001600160a01b03909116950186168101030190a2600180558351948592818452845191828186015281955b8387106103ba5750508394508582601f949501015201168101030190f35b8681018201518988018901529581019588955061039c565b875162461bcd60e51b8152918201899052600b908201526a10d85b1b0819985a5b195960aa1b6044820152606490fd5b60018060a01b03868080808585600254165af161041d610a21565b501561045757897fb45df24de5d27f6414d5fb15009502c7f77909dc68ce75448b60a4a71640e2709160025416928a51908152a2386102ff565b885162461bcd60e51b81528084018b9052601b818a01527f466f756e64657220637574207472616e73666572206661696c656400000000006044820152606490fd5b634e487b7160e01b8652601182528686fd5b865162461bcd60e51b8152908101889052601d818701527f496e73756666696369656e742074726561737572792062616c616e63650000006044820152606490fd5b604492508688519263e2517d3f60e01b84523390840152820152fd5b8380fd5b83833461011f57602092836003193601126101ea576003546001600160a01b031690849061053c831515610a61565b60248451809481936323a9d25760e21b83528035908301525afa92831561059e57809361056c575b505051908152f35b909192508382813d8311610597575b61058581836109e9565b810103126101d5575051908380610564565b503d61057b565b8251903d90823e3d90fd5b50503461011f578160031936011261011f5760025490516001600160a01b039091168152602090f35b50503461011f578160031936011261011f5751908152602090f35b9050346101ea57816003193601126101ea578160209360ff9261060e6109b8565b903582528186528282206001600160a01b039091168252855220549151911615158152f35b50503461011f578160031936011261011f576020905160648152f35b9050346101ea5760203660031901126101ea5761066a6109d3565b90610673610aa5565b6001600160a01b039182169283156106c9575050600254826bffffffffffffffffffffffff60a01b821617600255167f8fde258c62bae775e2f2a12f222aa115ecd71ca13947381ec3122d23dca37d6d8380a380f35b906020606492519162461bcd60e51b83528201526016602482015275125b9d985b1a5908199bdd5b99195c881dd85b1b195d60521b6044820152fd5b9050346101ea5760203660031901126101ea576107206109d3565b90610729610aa5565b6001600160a01b0391821692831561077f575050600354826bffffffffffffffffffffffff60a01b821617600355167fe108cf8f8b301f7954568e77ebd0b1215523268a978e34bc9cc1a60b6abf78e68380a380f35b906020606492519162461bcd60e51b83528201526016602482015275496e76616c6964206f7261636c65206164647265737360501b6044820152fd5b83833461011f578060031936011261011f576107d56109b8565b90336001600160a01b038316036107f25750610229919235610bc4565b5163334bd91960e11b81528390fd5b919050346101ea57806003193601126101ea57610229913561082660016102136109b8565b610b46565b919050346101ea5760203660031901126101ea578135610849610aa5565b610851610b23565b8047106108ab578380808093335af1610868610a21565b501561087657826001805580f35b906020606492519162461bcd60e51b8352820152600f60248201526e15da5d1a191c985dc819985a5b1959608a1b6044820152fd5b815162461bcd60e51b81526020818501526014602482015273496e73756666696369656e742062616c616e636560601b6044820152606490fd5b9050346101ea5760203660031901126101ea57816020936001923581528085522001549051908152f35b50503461011f578160031936011261011f5751478152602090f35b50503461011f578160031936011261011f57602090517fd8aa0f3194971a2a116679f7c2090f6939c8d4e01a2a8d7e41d55e5351469e638152f35b8491346101ea5760203660031901126101ea573563ffffffff60e01b81168091036101ea5760209250637965db0b60e01b81149081156109a7575b5015158152f35b6301ffc9a760e01b149050836109a0565b602435906001600160a01b03821682036109ce57565b600080fd5b600435906001600160a01b03821682036109ce57565b90601f8019910116810190811067ffffffffffffffff821117610a0b57604052565b634e487b7160e01b600052604160045260246000fd5b3d15610a5c573d9067ffffffffffffffff8211610a0b5760405191610a50601f8201601f1916602001846109e9565b82523d6000602084013e565b606090565b15610a6857565b60405162461bcd60e51b815260206004820152601560248201527413dc9858db19481b9bdd0818dbdb999a59dd5c9959605a1b6044820152606490fd5b3360009081527fad3228b676f7d3cd4284a5443f17f1962b36e491b30a40b2405849e597ba5fb5602052604081205460ff1615610adf5750565b6044906040519063e2517d3f60e01b82523360048301526024820152fd5b80600052600060205260406000203360005260205260ff6040600020541615610adf5750565b600260015414610b34576002600155565b604051633ee5aeb560e01b8152600490fd5b9060009180835282602052604083209160018060a01b03169182845260205260ff60408420541615600014610bbf57808352826020526040832082845260205260408320600160ff198254161790557f2f8788117e7eff1d82e926ec794901d17c78024a50270940304540a733656f0d339380a4600190565b505090565b9060009180835282602052604083209160018060a01b03169182845260205260ff604084205416600014610bbf5780835282602052604083208284526020526040832060ff1981541690557ff6391f5c32d9c69d2a47ea670b442974b53935d1edc7fd64eb21e047a839171b339380a460019056fea2646970667358221220081a969202405e6676a6a57df9a9e5503ad1170798b80480b161e0fc921f514664736f6c63430008180033",
  "linkReferences": {},
  "deployedLinkReferences": {}
}