{
  "_format": "hh-sol-artifact-1",
  "contractName": "Treasury",
  "sourceName": "contracts/Treasury.sol",
  "abi": [
    {
      "inputs": [],
      "stateMutability": "nonpayable",
      "type": "constructor"
    },
    {
      "inputs": [],
      "name": "AccessControlBadConfirmation",
      "type": "error"
    },
    {
      "inputs": [
        {
          "internalType": "address",
          "name": "account",
          "type": "address"
        },
        {
          "internalType": "bytes32",
          "name": "neededRole",
          "type": "bytes32"
        }
      ],
      "name": "AccessControlUnauthorizedAccount",
      "type": "error"
    },
    {
      "inputs": [],
      "name": "ReentrancyGuardReentrantCall",
      "type": "error"
    },
    {
      "anonymous": false,
      "inputs": [
        {
          "indexed": true,
          "internalType": "address",
          "name": "oldOracle",
          "type": "address"
        },
        {
          "indexed": true,
          "internalType": "address",
          "name": "newOracle",
          "type": "address"
        }
      ],
      "name": "ChainlinkOracleUpdated",
      "type": "event"
    },
    {
      "anonymous": false,
      "inputs": [
        {
          "indexed": true,
          "internalType": "address",
          "name": "target",
          "type": "address"
        },
        {
          "indexed": false,
          "internalType": "uint256",
          "name": "value",
          "type": "uint256"
        },
        {
          "indexed": false,
          "internalType": "bytes",
          "name": "data",
          "type": "bytes"
        }
      ],
      "name": "Executed",
      "type": "event"
    },
    {
      "anonymous": false,
      "inputs": [
        {
          "indexed": false,
          "internalType": "uint256",
          "name": "oldMax",
          "type": "uint256"
        },
        {
          "indexed": false,
          "internalType": "uint256",
          "name": "newMax",
          "type": "uint256"
        }
      ],
      "name": "MaxReimbursementUpdated",
      "type": "event"
    },
    {
      "anonymous": false,
      "inputs": [
        {
          "indexed": false,
          "internalType": "uint256",
          "name": "amount",
          "type": "uint256"
        },
        {
          "indexed": false,
          "internalType": "uint256",
          "name": "newTotal",
          "type": "uint256"
        }
      ],
      "name": "ReimbursementPoolFunded",
      "type": "event"
    },
    {
      "anonymous": false,
      "inputs": [
        {
          "indexed": true,
          "internalType": "address",
          "name": "relayer",
          "type": "address"
        },
        {
          "indexed": false,
          "internalType": "uint256",
          "name": "amount",
          "type": "uint256"
        },
        {
          "indexed": false,
          "internalType": "uint256",
          "name": "poolRemaining",
          "type": "uint256"
        }
      ],
      "name": "RelayerReimbursed",
      "type": "event"
    },
    {
      "anonymous": false,
      "inputs": [
        {
          "indexed": false,
          "internalType": "uint256",
          "name": "oldRequired",
          "type": "uint256"
        },
        {
          "indexed": false,
          "internalType": "uint256",
          "name": "newRequired",
          "type": "uint256"
        }
      ],
      "name": "RequiredConfirmationsUpdated",
      "type": "event"
    },
    {
      "anonymous": false,
      "inputs": [
        {
          "indexed": true,
          "internalType": "uint256",
          "name": "propertyId",
          "type": "uint256"
        },
        {
          "indexed": false,
          "internalType": "uint256",
          "name": "reserves",
          "type": "uint256"
        }
      ],
      "name": "ReservesVerified",
      "type": "event"
    },
    {
      "anonymous": false,
      "inputs": [
        {
          "indexed": true,
          "internalType": "bytes32",
          "name": "role",
          "type": "bytes32"
        },
        {
          "indexed": true,
          "internalType": "bytes32",
          "name": "previousAdminRole",
          "type": "bytes32"
        },
        {
          "indexed": true,
          "internalType": "bytes32",
          "name": "newAdminRole",
          "type": "bytes32"
        }
      ],
      "name": "RoleAdminChanged",
      "type": "event"
    },
    {
      "anonymous": false,
      "inputs": [
        {
          "indexed": true,
          "internalType": "bytes32",
          "name": "role",
          "type": "bytes32"
        },
        {
          "indexed": true,
          "internalType": "address",
          "name": "account",
          "type": "address"
        },
        {
          "indexed": true,
          "internalType": "address",
          "name": "sender",
          "type": "address"
        }
      ],
      "name": "RoleGranted",
      "type": "event"
    },
    {
      "anonymous": false,
      "inputs": [
        {
          "indexed": true,
          "internalType": "bytes32",
          "name": "role",
          "type": "bytes32"
        },
        {
          "indexed": true,
          "internalType": "address",
          "name": "account",
          "type": "address"
        },
        {
          "indexed": true,
          "internalType": "address",
          "name": "sender",
          "type": "address"
        }
      ],
      "name": "RoleRevoked",
      "type": "event"
    },
    {
      "anonymous": false,
      "inputs": [
        {
          "indexed": true,
          "internalType": "address",
          "name": "signer",
          "type": "address"
        }
      ],
      "name": "SignerAdded",
      "type": "event"
    },
    {
      "anonymous": false,
      "inputs": [
        {
          "indexed": true,
          "internalType": "address",
          "name": "signer",
          "type": "address"
        }
      ],
      "name": "SignerRemoved",
      "type": "event"
    },
    {
      "anonymous": false,
      "inputs": [
        {
          "indexed": true,
          "internalType": "uint256",
          "name": "txId",
          "type": "uint256"
        },
        {
          "indexed": true,
          "internalType": "address",
          "name": "signer",
          "type": "address"
        }
      ],
      "name": "TransactionConfirmed",
      "type": "event"
    },
    {
      "anonymous": false,
      "inputs": [
        {
          "indexed": true,
          "internalType": "uint256",
          "name": "txId",
          "type": "uint256"
        }
      ],
      "name": "TransactionExecuted",
      "type": "event"
    },
    {
      "anonymous": false,
      "inputs": [
        {
          "indexed": true,
          "internalType": "uint256",
          "name": "txId",
          "type": "uint256"
        },
        {
          "indexed": true,
          "internalType": "address",
          "name": "signer",
          "type": "address"
        }
      ],
      "name": "TransactionRevoked",
      "type": "event"
    },
    {
      "anonymous": false,
      "inputs": [
        {
          "indexed": true,
          "internalType": "uint256",
          "name": "txId",
          "type": "uint256"
        },
        {
          "indexed": true,
          "internalType": "address",
          "name": "submitter",
          "type": "address"
        },
        {
          "indexed": false,
          "internalType": "address",
          "name": "target",
          "type": "address"
        },
        {
          "indexed": false,
          "internalType": "uint256",
          "name": "value",
          "type": "uint256"
        }
      ],
      "name": "TransactionSubmitted",
      "type": "event"
    },
    {
      "inputs": [],
      "name": "DEFAULT_ADMIN_ROLE",
      "outputs": [
        {
          "internalType": "bytes32",
          "name": "",
          "type": "bytes32"
        }
      ],
      "stateMutability": "view",
      "type": "function"
    },
    {
      "inputs": [],
      "name": "EXECUTOR_ROLE",
      "outputs": [
        {
          "internalType": "bytes32",
          "name": "",
          "type": "bytes32"
        }
      ],
      "stateMutability": "view",
      "type": "function"
    },
    {
      "inputs": [],
      "name": "SIGNER_ROLE",
      "outputs": [
        {
          "internalType": "bytes32",
          "name": "",
          "type": "bytes32"
        }
      ],
      "stateMutability": "view",
      "type": "function"
    },
    {
      "inputs": [
        {
          "internalType": "address",
          "name": "signer",
          "type": "address"
        }
      ],
      "name": "addSigner",
      "outputs": [],
      "stateMutability": "nonpayable",
      "type": "function"
    },
    {
      "inputs": [],
      "name": "chainlinkOracle",
      "outputs": [
        {
          "internalType": "address",
          "name": "",
          "type": "address"
        }
      ],
      "stateMutability": "view",
      "type": "function"
    },
    {
      "inputs": [
        {
          "internalType": "uint256",
          "name": "txId",
          "type": "uint256"
        }
      ],
      "name": "confirmTransaction",
      "outputs": [],
      "stateMutability": "nonpayable",
      "type": "function"
    },
    {
      "inputs": [
        {
          "internalType": "uint256",
          "name": "",
          "type": "uint256"
        },
        {
          "internalType": "address",
          "name": "",
          "type": "address"
        }
      ],
      "name": "confirmations",
      "outputs": [
        {
          "internalType": "bool",
          "name": "",
          "type": "bool"
        }
      ],
      "stateMutability": "view",
      "type": "function"
    },
    {
      "inputs": [
        {
          "internalType": "address",
          "name": "target",
          "type": "address"
        },
        {
          "internalType": "uint256",
          "name": "value",
          "type": "uint256"
        },
        {
          "internalType": "bytes",
          "name": "data",
          "type": "bytes"
        },
        {
          "internalType": "uint256",
          "name": "proposalId",
          "type": "uint256"
        }
      ],
      "name": "execute",
      "outputs": [
        {
          "internalType": "bytes",
          "name": "",
          "type": "bytes"
        }
      ],
      "stateMutability": "nonpayable",
      "type": "function"
    },
    {
      "inputs": [
        {
          "internalType": "uint256",
          "name": "txId",
          "type": "uint256"
        }
      ],
      "name": "executeTransaction",
      "outputs": [
        {
          "internalType": "bytes",
          "name": "",
          "type": "bytes"
        }
      ],
      "stateMutability": "nonpayable",
      "type": "function"
    },
    {
      "inputs": [],
      "name": "fundReimbursementPool",
      "outputs": [],
      "stateMutability": "payable",
      "type": "function"
    },
    {
      "inputs": [],
      "name": "getBalance",
      "outputs": [
        {
          "internalType": "uint256",
          "name": "",
          "type": "uint256"
        }
      ],
      "stateMutability": "view",
      "type": "function"
    },
    {
      "inputs": [],
      "name": "getReimbursementPoolInfo",
      "outputs": [
        {
          "internalType": "uint256",
          "name": "poolBalance",
          "type": "uint256"
        },
        {
          "internalType": "uint256",
          "name": "maxPerTx",
          "type": "uint256"
        }
      ],
      "stateMutability": "view",
      "type": "function"
    },
    {
      "inputs": [
        {
          "internalType": "bytes32",
          "name": "role",
          "type": "bytes32"
        }
      ],
      "name": "getRoleAdmin",
      "outputs": [
        {
          "internalType": "bytes32",
          "name": "",
          "type": "bytes32"
        }
      ],
      "stateMutability": "view",
      "type": "function"
    },
    {
      "inputs": [
        {
          "internalType": "uint256",
          "name": "txId",
          "type": "uint256"
        }
      ],
      "name": "getTransaction",
      "outputs": [
        {
          "internalType": "address",
          "name": "target",
          "type": "address"
        },
        {
          "internalType": "uint256",
          "name": "value",
          "type": "uint256"
        },
        {
          "internalType": "bytes",
          "name": "data",
          "type": "bytes"
        },
        {
          "internalType": "bool",
          "name": "executed",
          "type": "bool"
        },
        {
          "internalType": "uint256",
          "name": "confirmationCount",
          "type": "uint256"
        }
      ],
      "stateMutability": "view",
      "type": "function"
    },
    {
      "inputs": [
        {
          "internalType": "bytes32",
          "name": "role",
          "type": "bytes32"
        },
        {
          "internalType": "address",
          "name": "account",
          "type": "address"
        }
      ],
      "name": "grantRole",
      "outputs": [],
      "stateMutability": "nonpayable",
      "type": "function"
    },
    {
      "inputs": [
        {
          "internalType": "bytes32",
          "name": "role",
          "type": "bytes32"
        },
        {
          "internalType": "address",
          "name": "account",
          "type": "address"
        }
      ],
      "name": "hasRole",
      "outputs": [
        {
          "internalType": "bool",
          "name": "",
          "type": "bool"
        }
      ],
      "stateMutability": "view",
      "type": "function"
    },
    {
      "inputs": [
        {
          "internalType": "uint256",
          "name": "txId",
          "type": "uint256"
        },
        {
          "internalType": "address",
          "name": "signer",
          "type": "address"
        }
      ],
      "name": "isConfirmed",
      "outputs": [
        {
          "internalType": "bool",
          "name": "",
          "type": "bool"
        }
      ],
      "stateMutability": "view",
      "type": "function"
    },
    {
      "inputs": [],
      "name": "maxReimbursementPerTx",
      "outputs": [
        {
          "internalType": "uint256",
          "name": "",
          "type": "uint256"
        }
      ],
      "stateMutability": "view",
      "type": "function"
    },
    {
      "inputs": [
        {
          "internalType": "address",
          "name": "relayer",
          "type": "address"
        },
        {
          "internalType": "uint256",
          "name": "gasUsed",
          "type": "uint256"
        }
      ],
      "name": "reimburseRelayer",
      "outputs": [],
      "stateMutability": "nonpayable",
      "type": "function"
    },
    {
      "inputs": [],
      "name": "relayerReimbursementPool",
      "outputs": [
        {
          "internalType": "uint256",
          "name": "",
          "type": "uint256"
        }
      ],
      "stateMutability": "view",
      "type": "function"
    },
    {
      "inputs": [
        {
          "internalType": "address",
          "name": "",
          "type": "address"
        }
      ],
      "name": "relayerReimbursements",
      "outputs": [
        {
          "internalType": "uint256",
          "name": "",
          "type": "uint256"
        }
      ],
      "stateMutability": "view",
      "type": "function"
    },
    {
      "inputs": [
        {
          "internalType": "address",
          "name": "signer",
          "type": "address"
        }
      ],
      "name": "removeSigner",
      "outputs": [],
      "stateMutability": "nonpayable",
      "type": "function"
    },
    {
      "inputs": [
        {
          "internalType": "bytes32",
          "name": "role",
          "type": "bytes32"
        },
        {
          "internalType": "address",
          "name": "callerConfirmation",
          "type": "address"
        }
      ],
      "name": "renounceRole",
      "outputs": [],
      "stateMutability": "nonpayable",
      "type": "function"
    },
    {
      "inputs": [],
      "name": "requiredConfirmations",
      "outputs": [
        {
          "internalType": "uint256",
          "name": "",
          "type": "uint256"
        }
      ],
      "stateMutability": "view",
      "type": "function"
    },
    {
      "inputs": [
        {
          "internalType": "uint256",
          "name": "txId",
          "type": "uint256"
        }
      ],
      "name": "revokeConfirmation",
      "outputs": [],
      "stateMutability": "nonpayable",
      "type": "function"
    },
    {
      "inputs": [
        {
          "internalType": "bytes32",
          "name": "role",
          "type": "bytes32"
        },
        {
          "internalType": "address",
          "name": "account",
          "type": "address"
        }
      ],
      "name": "revokeRole",
      "outputs": [],
      "stateMutability": "nonpayable",
      "type": "function"
    },
    {
      "inputs": [
        {
          "internalType": "address",
          "name": "_chainlinkOracle",
          "type": "address"
        }
      ],
      "name": "setChainlinkOracle",
      "outputs": [],
      "stateMutability": "nonpayable",
      "type": "function"
    },
    {
      "inputs": [
        {
          "internalType": "uint256",
          "name": "newMax",
          "type": "uint256"
        }
      ],
      "name": "setMaxReimbursement",
      "outputs": [],
      "stateMutability": "nonpayable",
      "type": "function"
    },
    {
      "inputs": [
        {
          "internalType": "uint256",
          "name": "_requiredConfirmations",
          "type": "uint256"
        }
      ],
      "name": "setRequiredConfirmations",
      "outputs": [],
      "stateMutability": "nonpayable",
      "type": "function"
    },
    {
      "inputs": [
        {
          "internalType": "address",
          "name": "target",
          "type": "address"
        },
        {
          "internalType": "uint256",
          "name": "value",
          "type": "uint256"
        },
        {
          "internalType": "bytes",
          "name": "data",
          "type": "bytes"
        }
      ],
      "name": "submitTransaction",
      "outputs": [
        {
          "internalType": "uint256",
          "name": "",
          "type": "uint256"
        }
      ],
      "stateMutability": "nonpayable",
      "type": "function"
    },
    {
      "inputs": [
        {
          "internalType": "bytes4",
          "name": "interfaceId",
          "type": "bytes4"
        }
      ],
      "name": "supportsInterface",
      "outputs": [
        {
          "internalType": "bool",
          "name": "",
          "type": "bool"
        }
      ],
      "stateMutability": "view",
      "type": "function"
    },
    {
      "inputs": [],
      "name": "transactionCount",
      "outputs": [
        {
          "internalType": "uint256",
          "name": "",
          "type": "uint256"
        }
      ],
      "stateMutability": "view",
      "type": "function"
    },
    {
      "inputs": [
        {
          "internalType": "uint256",
          "name": "",
          "type": "uint256"
        }
      ],
      "name": "transactions",
      "outputs": [
        {
          "internalType": "address",
          "name": "target",
          "type": "address"
        },
        {
          "internalType": "uint256",
          "name": "value",
          "type": "uint256"
        },
        {
          "internalType": "bytes",
          "name": "data",
          "type": "bytes"
        },
        {
          "internalType": "bool",
          "name": "executed",
          "type": "bool"
        },
        {
          "internalType": "uint256",
          "name": "confirmationCount",
          "type": "uint256"
        }
      ],
      "stateMutability": "view",
      "type": "function"
    },
    {
      "inputs": [
        {
          "internalType": "uint256",
          "name": "propertyId",
          "type": "uint256"
        }
      ],
      "name": "verifyAndRecordReserves",
      "outputs": [
        {
          "internalType": "uint256",
          "name": "",
          "type": "uint256"
        }
      ],
      "stateMutability": "nonpayable",
      "type": "function"
    },
    {
      "inputs": [
        {
          "internalType": "uint256",
          "name": "propertyId",
          "type": "uint256"
        }
      ],
      "name": "verifyReserves",
      "outputs": [
        {
          "internalType": "uint256",
          "name": "",
          "type": "uint256"
        }
      ],
      "stateMutability": "view",
      "type": "function"
    },
    {
      "inputs": [
        {
          "internalType": "uint256",
          "name": "amount",
          "type": "uint256"
        }
      ],
      "name": "withdraw",
      "outputs": [],
      "stateMutability": "nonpayable",
      "type": "function"
    },
    {
      "stateMutability": "payable",
      "type": "receive"
    }
  ],
  "bytecode": "0x6080604052346200004657600180556002600355662386f26fc1000060065562000029336200004b565b506200003533620000cb565b50604051611cf990816200016e8239f35b600080fd5b6001600160a01b031660008181527fad3228b676f7d3cd4284a5443f17f1962b36e491b30a40b2405849e597ba5fb5602052604081205490919060ff16620000c757818052816020526040822081835260205260408220600160ff19825416179055339160008051602062001e678339815191528180a4600190565b5090565b6001600160a01b031660008181527f059f08e7d7ba1c82eddc57afae67f80df851baf38a099607a779825038c3ce5b60205260408120549091907fe2f4eaae4a9751e85a3e4a7b9587827a877f29914755229b07a7b2da98285f709060ff166200016857808352826020526040832082845260205260408320600160ff1982541617905560008051602062001e67833981519152339380a4600190565b50509056fe608080604052600436101561001d575b50361561001b57600080fd5b005b60003560e01c90816301ffc9a71461158d5750806307bd0265146115525780630e316ab7146114f757806312065fe0146114db57806320ea8d86146113d7578063248a9ca3146113a85780632e1a7d4d146112ed5780632f2ff15d146112ae57806333ea3dc8146112445780633411c81c14610e2157806336568abe146111fd5780634d247889146111df5780636ab3818e1461119257806374420f4c146110665780637a9b041214610fb35780637aab138114610f795780637b7c343d14610e6e57806380f59a6514610e2157806382e717f714610e0357806391d1485414610db65780639ace38c214610d4c578063a1ebf35d14610d23578063a217fddf14610d07578063a5574d5214610c6f578063af522b1c14610be1578063b77bf60014610bc3578063c01a8c8414610abb578063c56c9ff414610989578063c642747414610604578063c96f85cf146105df578063d547741f146105a0578063d9882334146104d9578063eb12d61e14610438578063ee22610b14610202578063ef06e72c146101d95763ef66d684146101b6573861000f565b346101d45760003660031901126101d4576020600554604051908152f35b600080fd5b346101d45760003660031901126101d4576002546040516001600160a01b039091168152602090f35b346101d4576020806003193601126101d4576004359061022061198d565b610228611b6c565b61023560045483106117a5565b81600052600881526040600020916003830180549361025760ff8616156117f1565b6004810154600354116103f35747926001938483019361027b855480931015611896565b60ff199788168617905582546040516002850180546001600160a01b039a9194938b1693916000916102ac816116b3565b91818c169182156103e05750506001146103a8575b50916000939181859403925af1966102d7611859565b9715610363577fcaf938de11c367272220bfd1d2baa99ca46665e7bc4d85f00adb51b90fe1fa9f939291610346916040519485947f15ed165a284872ea7017f03df402a0cadfbfab588320ffaf83f160c2f82781c7600080a254169554835260408884015260408301906116ed565b0390a2805561035f60405192828493845283019061160c565b0390f35b60405162461bcd60e51b815260048101889052601c60248201527f5472616e73616374696f6e20657865637574696f6e206661696c6564000000006044820152606490fd5b905084600052896000208a8a6000925b8484106103ce57505050908301905060006102c1565b805484880152019101908a8c916103b8565b16855250801515028301905060006102c1565b60405162461bcd60e51b815260048101859052601860248201527f4e6f7420656e6f75676820636f6e6669726d6174696f6e7300000000000000006044820152606490fd5b346101d45760203660031901126101d4576104516115e0565b610459611935565b6001600160a01b03811690811561049b5761047390611b8f565b507f47d1c22a25bb3a5d4e481b9b1e6944c2eade3181a0a20b495ed61d35b5323f24600080a2005b60405162461bcd60e51b8152602060048201526016602482015275496e76616c6964207369676e6572206164647265737360501b6044820152606490fd5b346101d4576020806003193601126101d4576002546024906004359083906001600160a01b031661050b8115156118e2565b604051938480926323a9d25760e21b82528560048301525afa91821561059457600092610565575b507fb96772fa5329ea20c203d97d9b39acce1faec46fdb3bd87a329ebf77fd7410ce83604051848152a2604051908152f35b9091508281813d831161058d575b61057d8183611783565b810103126101d457519083610533565b503d610573565b6040513d6000823e3d90fd5b346101d45760403660031901126101d45761001b6004356105bf6115f6565b908060005260006020526105da600160406000200154611a33565b611af7565b346101d45760003660031901126101d457604060055460065482519182526020820152f35b346101d45760603660031901126101d45761061d6115e0565b67ffffffffffffffff6044358181116101d45761063e903690600401611685565b9261064761198d565b6004549261065484611926565b6004556040519260a0840184811083821117610973576040526001600160a01b03838116855260243560208601908152969092906106918161183d565b9261069f6040519485611783565b81845236828201116101d457816000926020928387013784010152604085019182526000606086015260006080860152856000526008602052604060002091838651166bffffffffffffffffffffffff60a01b845416178355600197518884015551805191821161097357819061071960028501546116b3565b601f811161091b575b50602090601f83116001146108b1576000926108a6575b5050600019600383901b1c191690871b1760028201555b600460806003830195606081015115159660ff199760ff8983541691161790550151910155604051911681526024356020820152827f753dcda37efe0bc3675e04e24d1fb08b70681f14675eed4b6e7978495caf2ca060403393a36107b361198d565b6107c060045483106117a5565b8160005260086020526107de60ff60036040600020015416156117f1565b81600052600960205260406000203360005260205260ff6040600020541661086d57602092826000526009845260406000203360005284526040600020918254161790558060005260088252600460406000200161083c8154611926565b90556040519033817f15c2f311c9e0f53b50388279894aeff029a3457884a6601e924fca879e12adcc600080a38152f35b60405162461bcd60e51b8152602060048201526011602482015270105b1c9958591e4818dbdb999a5c9b5959607a1b6044820152606490fd5b015190508880610739565b90899350601f198316916002860160005260206000209260005b818110610903575084116108ea575b505050811b016002820155610750565b015160001960f88460031b161c191690558880806108da565b8284015185558c9690940193602093840193016108cb565b909150600284016000526020600020601f840160051c81019160208510610969575b84939291601f8c920160051c01915b82811061095a575050610722565b600081558594508b910161094c565b909150819061093d565b634e487b7160e01b600052604160045260246000fd5b346101d45760403660031901126101d4576109a26115e0565b602435906109ae6119d7565b3a8202918083043a1490151715610a9557600654808311610ab3575b50600554808311610aab575b826109dd57005b828103908111610a955760055560018060a01b0316908160005260076020526040600020610a0c828254611889565b9055600080808084865af1610a1f611859565b5015610a595760407f5fc1e14c18e85d0603c37d2759f24a4f00fe4454e0a0b2566df29785f4810d299160055482519182526020820152a2005b60405162461bcd60e51b815260206004820152601460248201527314995a5b589d5c9cd95b595b9d0819985a5b195960621b6044820152606490fd5b634e487b7160e01b600052601160045260246000fd5b9150816109d6565b9150826109ca565b346101d4576020806003193601126101d45760043590610ad961198d565b610ae660045483106117a5565b8160005260088152610b0360ff60036040600020015416156117f1565b8160005260098152604060002033600052815260ff60406000205416610b8b57600890826000526009815260406000203360005281526040600020600160ff1982541617905582600052526004604060002001610b608154611926565b905533907f15c2f311c9e0f53b50388279894aeff029a3457884a6601e924fca879e12adcc600080a3005b6064906040519062461bcd60e51b825260048201526011602482015270105b1c9958591e4818dbdb999a5c9b5959607a1b6044820152fd5b346101d45760003660031901126101d4576020600454604051908152f35b346101d4576020806003193601126101d45760025460249082906001600160a01b0316610c0f8115156118e2565b604051928380926323a9d25760e21b825260043560048301525afa90811561059457600091610c42575b50604051908152f35b90508181813d8311610c68575b610c598183611783565b810103126101d4575182610c39565b503d610c4f565b346101d45760203660031901126101d457600435610c8b611935565b67016345785d8a00008111610cd35760407f6ff3ba4223f4d694ced77174a208557c49fd86ead36368eb2871ceb7eb4d1eeb91600654908060065582519182526020820152a1005b60405162461bcd60e51b815260206004820152600c60248201526b09ac2f040e8dede40d0d2ced60a31b6044820152606490fd5b346101d45760003660031901126101d457602060405160008152f35b346101d45760003660031901126101d4576020604051600080516020611ca48339815191528152f35b346101d45760203660031901126101d4576004356000526008602052604060002060018060a01b0381541661035f60018301549260405190610d9c82610d9581600285016116ed565b0383611783565b600460ff600383015416910154916040519586958661164c565b346101d45760403660031901126101d457610dcf6115f6565b600435600052600060205260406000209060018060a01b0316600052602052602060ff604060002054166040519015158152f35b346101d45760003660031901126101d4576020600354604051908152f35b346101d45760403660031901126101d457610e3a6115f6565b600435600052600960205260406000209060018060a01b0316600052602052602060ff604060002054166040519015158152f35b346101d45760203660031901126101d457600435610e8a611935565b8015610f2857600a8111610ed15760407f9a71f52a6cf1d6a0a676a538d4131e624fbe0f9146d1ca1c7a31fda3db8c37f791600354908060035582519182526020820152a1005b60405162461bcd60e51b815260206004820152602960248201527f43616e6e6f742072657175697265206d6f7265207468616e20313020636f6e6660448201526869726d6174696f6e7360b81b6064820152608490fd5b60405162461bcd60e51b8152602060048201526024808201527f4d7573742072657175697265206174206c65617374203120636f6e6669726d616044820152633a34b7b760e11b6064820152608490fd5b346101d45760203660031901126101d4576001600160a01b03610f9a6115e0565b1660005260076020526020604060002054604051908152f35b346101d45760203660031901126101d457610fcc6115e0565b610fd4611935565b6001600160a01b0390811690811561102857600254826bffffffffffffffffffffffff60a01b821617600255167fe108cf8f8b301f7954568e77ebd0b1215523268a978e34bc9cc1a60b6abf78e6600080a3005b60405162461bcd60e51b8152602060048201526016602482015275496e76616c6964206f7261636c65206164647265737360501b6044820152606490fd5b346101d45760803660031901126101d45761107f6115e0565b60243560443567ffffffffffffffff81116101d4576110a2903690600401611685565b90916110ac6119d7565b6110b4611b6c565b6110c081471015611896565b6000806040518486823780858101838152039084885af1926110e0611859565b931561115f5760607fcaf938de11c367272220bfd1d2baa99ca46665e7bc4d85f00adb51b90fe1fa9f9261035f96856040519485938452604060208501528160408501528484013760008287018401526001600160a01b031694601f01601f19168101030190a26001805560405191829160208352602083019061160c565b60405162461bcd60e51b815260206004820152600b60248201526a10d85b1b0819985a5b195960aa1b6044820152606490fd5b60003660031901126101d4577f19a5c5590f6a234a92047e9b565ee9a2e8d9d83db89b9ac1622a6d6e170470ee60406111cd34600554611889565b806005558151903482526020820152a1005b346101d45760003660031901126101d4576020600654604051908152f35b346101d45760403660031901126101d4576112166115f6565b336001600160a01b038216036112325761001b90600435611af7565b60405163334bd91960e11b8152600490fd5b346101d45760203660031901126101d4576004356000526008602052604060002060018060a01b0381541661035f60018301549260ff60038201541660026112a260048401549361129b60405180948193016116ed565b0382611783565b6040519586958661164c565b346101d45760403660031901126101d45761001b6004356112cd6115f6565b908060005260006020526112e8600160406000200154611a33565b611c2a565b346101d45760203660031901126101d457600435611309611935565b611311611b6c565b80471061136c57600080808093335af1611329611859565b50156113355760018055005b60405162461bcd60e51b815260206004820152600f60248201526e15da5d1a191c985dc819985a5b1959608a1b6044820152606490fd5b60405162461bcd60e51b8152602060048201526014602482015273496e73756666696369656e742062616c616e636560601b6044820152606490fd5b346101d45760203660031901126101d45760043560005260006020526020600160406000200154604051908152f35b346101d4576020806003193601126101d457600435906113f561198d565b61140260045483106117a5565b816000526008815261141f60ff60036040600020015416156117f1565b8160005260098152604060002033600052815260ff60406000205416156114a75760089082600052600981526040600020336000528152604060002060ff1981541690558260005252600460406000200180548015610a955760001901905533907f4cd471041f6b9ff47536a54a3d3ab62d0fa9dd5e36c0418b294b1673acb31881600080a3005b6064906040519062461bcd60e51b82526004820152600d60248201526c139bdd0818dbdb999a5c9b5959609a1b6044820152fd5b346101d45760003660031901126101d457602047604051908152f35b346101d45760203660031901126101d4576115106115e0565b611518611935565b61152181611a59565b506001600160a01b03167f3525e22824a8a7df2c9a6029941c824cf95b6447f1e13d5128fd3826d35afe8b600080a2005b346101d45760003660031901126101d45760206040517fd8aa0f3194971a2a116679f7c2090f6939c8d4e01a2a8d7e41d55e5351469e638152f35b346101d45760203660031901126101d4576004359063ffffffff60e01b82168092036101d457602091637965db0b60e01b81149081156115cf575b5015158152f35b6301ffc9a760e01b149050836115c8565b600435906001600160a01b03821682036101d457565b602435906001600160a01b03821682036101d457565b919082519283825260005b848110611638575050826000602080949584010152601f8019910116010190565b602081830181015184830182015201611617565b9192608093611679929796959760018060a01b03168452602084015260a0604084015260a083019061160c565b94151560608201520152565b9181601f840112156101d45782359167ffffffffffffffff83116101d457602083818601950101116101d457565b90600182811c921680156116e3575b60208310146116cd57565b634e487b7160e01b600052602260045260246000fd5b91607f16916116c2565b8054600093926116fc826116b3565b918282526020936001916001811690816000146117645750600114611723575b5050505050565b90939495506000929192528360002092846000945b8386106117505750505050010190388080808061171c565b805485870183015294019385908201611738565b60ff19168685015250505090151560051b01019150388080808061171c565b90601f8019910116810190811067ffffffffffffffff82111761097357604052565b156117ac57565b60405162461bcd60e51b815260206004820152601a60248201527f5472616e73616374696f6e20646f6573206e6f742065786973740000000000006044820152606490fd5b156117f857565b60405162461bcd60e51b815260206004820152601c60248201527f5472616e73616374696f6e20616c7265616479206578656375746564000000006044820152606490fd5b67ffffffffffffffff811161097357601f01601f191660200190565b3d15611884573d9061186a8261183d565b916118786040519384611783565b82523d6000602084013e565b606090565b91908201809211610a9557565b1561189d57565b60405162461bcd60e51b815260206004820152601d60248201527f496e73756666696369656e742074726561737572792062616c616e63650000006044820152606490fd5b156118e957565b60405162461bcd60e51b815260206004820152601560248201527413dc9858db19481b9bdd0818dbdb999a59dd5c9959605a1b6044820152606490fd5b6000198114610a955760010190565b3360009081527fad3228b676f7d3cd4284a5443f17f1962b36e491b30a40b2405849e597ba5fb5602052604081205460ff161561196f5750565b6044906040519063e2517d3f60e01b82523360048301526024820152fd5b3360009081527f059f08e7d7ba1c82eddc57afae67f80df851baf38a099607a779825038c3ce5b6020526040902054600080516020611ca48339815191529060ff161561196f5750565b3360009081527fdae2aa361dfd1ca020a396615627d436107c35eff9fe7738a3512819782d706960205260409020547fd8aa0f3194971a2a116679f7c2090f6939c8d4e01a2a8d7e41d55e5351469e639060ff161561196f5750565b80600052600060205260406000203360005260205260ff604060002054161561196f5750565b6001600160a01b031660008181527f059f08e7d7ba1c82eddc57afae67f80df851baf38a099607a779825038c3ce5b6020526040812054909190600080516020611ca48339815191529060ff1615611af25780835282602052604083208284526020526040832060ff1981541690557ff6391f5c32d9c69d2a47ea670b442974b53935d1edc7fd64eb21e047a839171b339380a4600190565b505090565b9060009180835282602052604083209160018060a01b03169182845260205260ff604084205416600014611af25780835282602052604083208284526020526040832060ff1981541690557ff6391f5c32d9c69d2a47ea670b442974b53935d1edc7fd64eb21e047a839171b339380a4600190565b600260015414611b7d576002600155565b604051633ee5aeb560e01b8152600490fd5b6001600160a01b031660008181527f059f08e7d7ba1c82eddc57afae67f80df851baf38a099607a779825038c3ce5b6020526040812054909190600080516020611ca48339815191529060ff16611af257808352826020526040832082845260205260408320600160ff198254161790557f2f8788117e7eff1d82e926ec794901d17c78024a50270940304540a733656f0d339380a4600190565b9060009180835282602052604083209160018060a01b03169182845260205260ff60408420541615600014611af257808352826020526040832082845260205260408320600160ff198254161790557f2f8788117e7eff1d82e926ec794901d17c78024a50270940304540a733656f0d339380a460019056fee2f4eaae4a9751e85a3e4a7b9587827a877f29914755229b07a7b2da98285f70a2646970667358221220c652f4d39725680f4dfa8f5c38d92dcbb907e37a860c4a4fa46bd3313283e1e864736f6c634300081800332f8788117e7eff1d82e926ec794901d17c78024a50270940304540a733656f0d",
  "linkReferences": {},
  "deployedLinkReferences": {}
}