{
  "_format": "hh-sol-artifact-1",
  "contractName": "Treasury",
  "sourceName": "contracts/Treasury.sol",
  "abi": [
    {
      "inputs": [
        {
          "internalType": "address",
          "name": "_founderWallet",
          "type": "address"
        }
      ],
      "stateMutability": "nonpayable",
      "type": "constructor"
    },
    {
      "inputs": [],
      "name": "AccessControlBadConfirmation",
      "type": "error"
    },
    {
      "inputs": [
        {
          "internalType": "address",
          "name": "account",
          "type": "address"
        },
        {
          "internalType": "bytes32",
          "name": "neededRole",
          "type": "bytes32"
        }
      ],
      "name": "AccessControlUnauthorizedAccount",
      "type": "error"
    },
    {
      "inputs": [],
      "name": "ReentrancyGuardReentrantCall",
      "type": "error"
    },
    {
      "anonymous": false,
      "inputs": [
        {
          "indexed": true,
          "internalType": "address",
          "name": "oldOracle",
          "type": "address"
        },
        {
          "indexed": true,
          "internalType": "address",
          "name": "newOracle",
          "type": "address"
        }
      ],
      "name": "ChainlinkOracleUpdated",
      "type": "event"
    },
    {
      "anonymous": false,
      "inputs": [
        {
          "indexed": true,
          "internalType": "address",
          "name": "target",
          "type": "address"
        },
        {
          "indexed": false,
          "internalType": "uint256",
          "name": "value",
          "type": "uint256"
        },
        {
          "indexed": false,
          "internalType": "bytes",
          "name": "data",
          "type": "bytes"
        }
      ],
      "name": "Executed",
      "type": "event"
    },
    {
      "anonymous": false,
      "inputs": [
        {
          "indexed": true,
          "internalType": "address",
          "name": "founder",
          "type": "address"
        },
        {
          "indexed": false,
          "internalType": "uint256",
          "name": "amount",
          "type": "uint256"
        }
      ],
      "name": "FounderCutSent",
      "type": "event"
    },
    {
      "anonymous": false,
      "inputs": [
        {
          "indexed": true,
          "internalType": "uint256",
          "name": "proposalId",
          "type": "uint256"
        },
        {
          "indexed": false,
          "internalType": "uint256",
          "name": "impactScore",
          "type": "uint256"
        }
      ],
      "name": "FounderCutZeroedByImpact",
      "type": "event"
    },
    {
      "anonymous": false,
      "inputs": [
        {
          "indexed": true,
          "internalType": "address",
          "name": "oldWallet",
          "type": "address"
        },
        {
          "indexed": true,
          "internalType": "address",
          "name": "newWallet",
          "type": "address"
        }
      ],
      "name": "FounderWalletUpdated",
      "type": "event"
    },
    {
      "anonymous": false,
      "inputs": [
        {
          "indexed": true,
          "internalType": "address",
          "name": "oldGovernance",
          "type": "address"
        },
        {
          "indexed": true,
          "internalType": "address",
          "name": "newGovernance",
          "type": "address"
        }
      ],
      "name": "GovernanceContractUpdated",
      "type": "event"
    },
    {
      "anonymous": false,
      "inputs": [
        {
          "indexed": false,
          "internalType": "uint256",
          "name": "oldMax",
          "type": "uint256"
        },
        {
          "indexed": false,
          "internalType": "uint256",
          "name": "newMax",
          "type": "uint256"
        }
      ],
      "name": "MaxReimbursementUpdated",
      "type": "event"
    },
    {
      "anonymous": false,
      "inputs": [
        {
          "indexed": false,
          "internalType": "uint256",
          "name": "amount",
          "type": "uint256"
        },
        {
          "indexed": false,
          "internalType": "uint256",
          "name": "newTotal",
          "type": "uint256"
        }
      ],
      "name": "ReimbursementPoolFunded",
      "type": "event"
    },
    {
      "anonymous": false,
      "inputs": [
        {
          "indexed": true,
          "internalType": "address",
          "name": "relayer",
          "type": "address"
        },
        {
          "indexed": false,
          "internalType": "uint256",
          "name": "amount",
          "type": "uint256"
        },
        {
          "indexed": false,
          "internalType": "uint256",
          "name": "poolRemaining",
          "type": "uint256"
        }
      ],
      "name": "RelayerReimbursed",
      "type": "event"
    },
    {
      "anonymous": false,
      "inputs": [
        {
          "indexed": false,
          "internalType": "uint256",
          "name": "oldRequired",
          "type": "uint256"
        },
        {
          "indexed": false,
          "internalType": "uint256",
          "name": "newRequired",
          "type": "uint256"
        }
      ],
      "name": "RequiredConfirmationsUpdated",
      "type": "event"
    },
    {
      "anonymous": false,
      "inputs": [
        {
          "indexed": true,
          "internalType": "uint256",
          "name": "propertyId",
          "type": "uint256"
        },
        {
          "indexed": false,
          "internalType": "uint256",
          "name": "reserves",
          "type": "uint256"
        }
      ],
      "name": "ReservesVerified",
      "type": "event"
    },
    {
      "anonymous": false,
      "inputs": [
        {
          "indexed": true,
          "internalType": "bytes32",
          "name": "role",
          "type": "bytes32"
        },
        {
          "indexed": true,
          "internalType": "bytes32",
          "name": "previousAdminRole",
          "type": "bytes32"
        },
        {
          "indexed": true,
          "internalType": "bytes32",
          "name": "newAdminRole",
          "type": "bytes32"
        }
      ],
      "name": "RoleAdminChanged",
      "type": "event"
    },
    {
      "anonymous": false,
      "inputs": [
        {
          "indexed": true,
          "internalType": "bytes32",
          "name": "role",
          "type": "bytes32"
        },
        {
          "indexed": true,
          "internalType": "address",
          "name": "account",
          "type": "address"
        },
        {
          "indexed": true,
          "internalType": "address",
          "name": "sender",
          "type": "address"
        }
      ],
      "name": "RoleGranted",
      "type": "event"
    },
    {
      "anonymous": false,
      "inputs": [
        {
          "indexed": true,
          "internalType": "bytes32",
          "name": "role",
          "type": "bytes32"
        },
        {
          "indexed": true,
          "internalType": "address",
          "name": "account",
          "type": "address"
        },
        {
          "indexed": true,
          "internalType": "address",
          "name": "sender",
          "type": "address"
        }
      ],
      "name": "RoleRevoked",
      "type": "event"
    },
    {
      "anonymous": false,
      "inputs": [
        {
          "indexed": true,
          "internalType": "address",
          "name": "signer",
          "type": "address"
        }
      ],
      "name": "SignerAdded",
      "type": "event"
    },
    {
      "anonymous": false,
      "inputs": [
        {
          "indexed": true,
          "internalType": "address",
          "name": "signer",
          "type": "address"
        }
      ],
      "name": "SignerRemoved",
      "type": "event"
    },
    {
      "anonymous": false,
      "inputs": [
        {
          "indexed": true,
          "internalType": "uint256",
          "name": "txId",
          "type": "uint256"
        },
        {
          "indexed": true,
          "internalType": "address",
          "name": "signer",
          "type": "address"
        }
      ],
      "name": "TransactionConfirmed",
      "type": "event"
    },
    {
      "anonymous": false,
      "inputs": [
        {
          "indexed": true,
          "internalType": "uint256",
          "name": "txId",
          "type": "uint256"
        }
      ],
      "name": "TransactionExecuted",
      "type": "event"
    },
    {
      "anonymous": false,
      "inputs": [
        {
          "indexed": true,
          "internalType": "uint256",
          "name": "txId",
          "type": "uint256"
        },
        {
          "indexed": true,
          "internalType": "address",
          "name": "signer",
          "type": "address"
        }
      ],
      "name": "TransactionRevoked",
      "type": "event"
    },
    {
      "anonymous": false,
      "inputs": [
        {
          "indexed": true,
          "internalType": "uint256",
          "name": "txId",
          "type": "uint256"
        },
        {
          "indexed": true,
          "internalType": "address",
          "name": "submitter",
          "type": "address"
        },
        {
          "indexed": false,
          "internalType": "address",
          "name": "target",
          "type": "address"
        },
        {
          "indexed": false,
          "internalType": "uint256",
          "name": "value",
          "type": "uint256"
        }
      ],
      "name": "TransactionSubmitted",
      "type": "event"
    },
    {
      "anonymous": false,
      "inputs": [
        {
          "indexed": true,
          "internalType": "address",
          "name": "founder",
          "type": "address"
        },
        {
          "indexed": false,
          "internalType": "uint256",
          "name": "amount",
          "type": "uint256"
        },
        {
          "indexed": false,
          "internalType": "uint256",
          "name": "totalVested",
          "type": "uint256"
        }
      ],
      "name": "VestedCutAccrued",
      "type": "event"
    },
    {
      "anonymous": false,
      "inputs": [
        {
          "indexed": true,
          "internalType": "address",
          "name": "founder",
          "type": "address"
        },
        {
          "indexed": false,
          "internalType": "uint256",
          "name": "amount",
          "type": "uint256"
        },
        {
          "indexed": false,
          "internalType": "uint256",
          "name": "remaining",
          "type": "uint256"
        }
      ],
      "name": "VestedCutClaimed",
      "type": "event"
    },
    {
      "inputs": [],
      "name": "DEFAULT_ADMIN_ROLE",
      "outputs": [
        {
          "internalType": "bytes32",
          "name": "",
          "type": "bytes32"
        }
      ],
      "stateMutability": "view",
      "type": "function"
    },
    {
      "inputs": [],
      "name": "EXECUTOR_ROLE",
      "outputs": [
        {
          "internalType": "bytes32",
          "name": "",
          "type": "bytes32"
        }
      ],
      "stateMutability": "view",
      "type": "function"
    },
    {
      "inputs": [],
      "name": "FOUNDER_CUT_BPS",
      "outputs": [
        {
          "internalType": "uint256",
          "name": "",
          "type": "uint256"
        }
      ],
      "stateMutability": "view",
      "type": "function"
    },
    {
      "inputs": [],
      "name": "SIGNER_ROLE",
      "outputs": [
        {
          "internalType": "bytes32",
          "name": "",
          "type": "bytes32"
        }
      ],
      "stateMutability": "view",
      "type": "function"
    },
    {
      "inputs": [],
      "name": "VESTING_CLIFF",
      "outputs": [
        {
          "internalType": "uint256",
          "name": "",
          "type": "uint256"
        }
      ],
      "stateMutability": "view",
      "type": "function"
    },
    {
      "inputs": [],
      "name": "VESTING_PERIOD",
      "outputs": [
        {
          "internalType": "uint256",
          "name": "",
          "type": "uint256"
        }
      ],
      "stateMutability": "view",
      "type": "function"
    },
    {
      "inputs": [
        {
          "internalType": "address",
          "name": "signer",
          "type": "address"
        }
      ],
      "name": "addSigner",
      "outputs": [],
      "stateMutability": "nonpayable",
      "type": "function"
    },
    {
      "inputs": [],
      "name": "chainlinkOracle",
      "outputs": [
        {
          "internalType": "address",
          "name": "",
          "type": "address"
        }
      ],
      "stateMutability": "view",
      "type": "function"
    },
    {
      "inputs": [],
      "name": "claimVestedCuts",
      "outputs": [],
      "stateMutability": "nonpayable",
      "type": "function"
    },
    {
      "inputs": [
        {
          "internalType": "address",
          "name": "",
          "type": "address"
        }
      ],
      "name": "claimedCuts",
      "outputs": [
        {
          "internalType": "uint256",
          "name": "",
          "type": "uint256"
        }
      ],
      "stateMutability": "view",
      "type": "function"
    },
    {
      "inputs": [
        {
          "internalType": "uint256",
          "name": "txId",
          "type": "uint256"
        }
      ],
      "name": "confirmTransaction",
      "outputs": [],
      "stateMutability": "nonpayable",
      "type": "function"
    },
    {
      "inputs": [
        {
          "internalType": "uint256",
          "name": "",
          "type": "uint256"
        },
        {
          "internalType": "address",
          "name": "",
          "type": "address"
        }
      ],
      "name": "confirmations",
      "outputs": [
        {
          "internalType": "bool",
          "name": "",
          "type": "bool"
        }
      ],
      "stateMutability": "view",
      "type": "function"
    },
    {
      "inputs": [
        {
          "internalType": "address",
          "name": "target",
          "type": "address"
        },
        {
          "internalType": "uint256",
          "name": "value",
          "type": "uint256"
        },
        {
          "internalType": "bytes",
          "name": "data",
          "type": "bytes"
        },
        {
          "internalType": "uint256",
          "name": "proposalId",
          "type": "uint256"
        }
      ],
      "name": "execute",
      "outputs": [
        {
          "internalType": "bytes",
          "name": "",
          "type": "bytes"
        }
      ],
      "stateMutability": "nonpayable",
      "type": "function"
    },
    {
      "inputs": [
        {
          "internalType": "uint256",
          "name": "txId",
          "type": "uint256"
        }
      ],
      "name": "executeTransaction",
      "outputs": [
        {
          "internalType": "bytes",
          "name": "",
          "type": "bytes"
        }
      ],
      "stateMutability": "nonpayable",
      "type": "function"
    },
    {
      "inputs": [],
      "name": "founderWallet",
      "outputs": [
        {
          "internalType": "address",
          "name": "",
          "type": "address"
        }
      ],
      "stateMutability": "view",
      "type": "function"
    },
    {
      "inputs": [],
      "name": "fundReimbursementPool",
      "outputs": [],
      "stateMutability": "payable",
      "type": "function"
    },
    {
      "inputs": [],
      "name": "getBalance",
      "outputs": [
        {
          "internalType": "uint256",
          "name": "",
          "type": "uint256"
        }
      ],
      "stateMutability": "view",
      "type": "function"
    },
    {
      "inputs": [
        {
          "internalType": "address",
          "name": "founder",
          "type": "address"
        }
      ],
      "name": "getClaimableVested",
      "outputs": [
        {
          "internalType": "uint256",
          "name": "",
          "type": "uint256"
        }
      ],
      "stateMutability": "view",
      "type": "function"
    },
    {
      "inputs": [],
      "name": "getReimbursementPoolInfo",
      "outputs": [
        {
          "internalType": "uint256",
          "name": "poolBalance",
          "type": "uint256"
        },
        {
          "internalType": "uint256",
          "name": "maxPerTx",
          "type": "uint256"
        }
      ],
      "stateMutability": "view",
      "type": "function"
    },
    {
      "inputs": [
        {
          "internalType": "bytes32",
          "name": "role",
          "type": "bytes32"
        }
      ],
      "name": "getRoleAdmin",
      "outputs": [
        {
          "internalType": "bytes32",
          "name": "",
          "type": "bytes32"
        }
      ],
      "stateMutability": "view",
      "type": "function"
    },
    {
      "inputs": [
        {
          "internalType": "uint256",
          "name": "txId",
          "type": "uint256"
        }
      ],
      "name": "getTransaction",
      "outputs": [
        {
          "internalType": "address",
          "name": "target",
          "type": "address"
        },
        {
          "internalType": "uint256",
          "name": "value",
          "type": "uint256"
        },
        {
          "internalType": "bytes",
          "name": "data",
          "type": "bytes"
        },
        {
          "internalType": "bool",
          "name": "executed",
          "type": "bool"
        },
        {
          "internalType": "uint256",
          "name": "confirmationCount",
          "type": "uint256"
        }
      ],
      "stateMutability": "view",
      "type": "function"
    },
    {
      "inputs": [
        {
          "internalType": "address",
          "name": "founder",
          "type": "address"
        }
      ],
      "name": "getVestingInfo",
      "outputs": [
        {
          "internalType": "uint256",
          "name": "totalVested",
          "type": "uint256"
        },
        {
          "internalType": "uint256",
          "name": "claimed",
          "type": "uint256"
        },
        {
          "internalType": "uint256",
          "name": "claimable",
          "type": "uint256"
        },
        {
          "internalType": "uint256",
          "name": "vestingStartTime",
          "type": "uint256"
        },
        {
          "internalType": "uint256",
          "name": "vestingEndTime",
          "type": "uint256"
        }
      ],
      "stateMutability": "view",
      "type": "function"
    },
    {
      "inputs": [],
      "name": "governanceContract",
      "outputs": [
        {
          "internalType": "address",
          "name": "",
          "type": "address"
        }
      ],
      "stateMutability": "view",
      "type": "function"
    },
    {
      "inputs": [
        {
          "internalType": "bytes32",
          "name": "role",
          "type": "bytes32"
        },
        {
          "internalType": "address",
          "name": "account",
          "type": "address"
        }
      ],
      "name": "grantRole",
      "outputs": [],
      "stateMutability": "nonpayable",
      "type": "function"
    },
    {
      "inputs": [
        {
          "internalType": "bytes32",
          "name": "role",
          "type": "bytes32"
        },
        {
          "internalType": "address",
          "name": "account",
          "type": "address"
        }
      ],
      "name": "hasRole",
      "outputs": [
        {
          "internalType": "bool",
          "name": "",
          "type": "bool"
        }
      ],
      "stateMutability": "view",
      "type": "function"
    },
    {
      "inputs": [
        {
          "internalType": "uint256",
          "name": "txId",
          "type": "uint256"
        },
        {
          "internalType": "address",
          "name": "signer",
          "type": "address"
        }
      ],
      "name": "isConfirmed",
      "outputs": [
        {
          "internalType": "bool",
          "name": "",
          "type": "bool"
        }
      ],
      "stateMutability": "view",
      "type": "function"
    },
    {
      "inputs": [],
      "name": "maxReimbursementPerTx",
      "outputs": [
        {
          "internalType": "uint256",
          "name": "",
          "type": "uint256"
        }
      ],
      "stateMutability": "view",
      "type": "function"
    },
    {
      "inputs": [
        {
          "internalType": "address",
          "name": "relayer",
          "type": "address"
        },
        {
          "internalType": "uint256",
          "name": "gasUsed",
          "type": "uint256"
        }
      ],
      "name": "reimburseRelayer",
      "outputs": [],
      "stateMutability": "nonpayable",
      "type": "function"
    },
    {
      "inputs": [],
      "name": "relayerReimbursementPool",
      "outputs": [
        {
          "internalType": "uint256",
          "name": "",
          "type": "uint256"
        }
      ],
      "stateMutability": "view",
      "type": "function"
    },
    {
      "inputs": [
        {
          "internalType": "address",
          "name": "",
          "type": "address"
        }
      ],
      "name": "relayerReimbursements",
      "outputs": [
        {
          "internalType": "uint256",
          "name": "",
          "type": "uint256"
        }
      ],
      "stateMutability": "view",
      "type": "function"
    },
    {
      "inputs": [
        {
          "internalType": "address",
          "name": "signer",
          "type": "address"
        }
      ],
      "name": "removeSigner",
      "outputs": [],
      "stateMutability": "nonpayable",
      "type": "function"
    },
    {
      "inputs": [
        {
          "internalType": "bytes32",
          "name": "role",
          "type": "bytes32"
        },
        {
          "internalType": "address",
          "name": "callerConfirmation",
          "type": "address"
        }
      ],
      "name": "renounceRole",
      "outputs": [],
      "stateMutability": "nonpayable",
      "type": "function"
    },
    {
      "inputs": [],
      "name": "requiredConfirmations",
      "outputs": [
        {
          "internalType": "uint256",
          "name": "",
          "type": "uint256"
        }
      ],
      "stateMutability": "view",
      "type": "function"
    },
    {
      "inputs": [
        {
          "internalType": "uint256",
          "name": "txId",
          "type": "uint256"
        }
      ],
      "name": "revokeConfirmation",
      "outputs": [],
      "stateMutability": "nonpayable",
      "type": "function"
    },
    {
      "inputs": [
        {
          "internalType": "bytes32",
          "name": "role",
          "type": "bytes32"
        },
        {
          "internalType": "address",
          "name": "account",
          "type": "address"
        }
      ],
      "name": "revokeRole",
      "outputs": [],
      "stateMutability": "nonpayable",
      "type": "function"
    },
    {
      "inputs": [
        {
          "internalType": "address",
          "name": "_chainlinkOracle",
          "type": "address"
        }
      ],
      "name": "setChainlinkOracle",
      "outputs": [],
      "stateMutability": "nonpayable",
      "type": "function"
    },
    {
      "inputs": [
        {
          "internalType": "address",
          "name": "_governance",
          "type": "address"
        }
      ],
      "name": "setGovernance",
      "outputs": [],
      "stateMutability": "nonpayable",
      "type": "function"
    },
    {
      "inputs": [
        {
          "internalType": "uint256",
          "name": "newMax",
          "type": "uint256"
        }
      ],
      "name": "setMaxReimbursement",
      "outputs": [],
      "stateMutability": "nonpayable",
      "type": "function"
    },
    {
      "inputs": [
        {
          "internalType": "uint256",
          "name": "_requiredConfirmations",
          "type": "uint256"
        }
      ],
      "name": "setRequiredConfirmations",
      "outputs": [],
      "stateMutability": "nonpayable",
      "type": "function"
    },
    {
      "inputs": [
        {
          "internalType": "address",
          "name": "target",
          "type": "address"
        },
        {
          "internalType": "uint256",
          "name": "value",
          "type": "uint256"
        },
        {
          "internalType": "bytes",
          "name": "data",
          "type": "bytes"
        }
      ],
      "name": "submitTransaction",
      "outputs": [
        {
          "internalType": "uint256",
          "name": "",
          "type": "uint256"
        }
      ],
      "stateMutability": "nonpayable",
      "type": "function"
    },
    {
      "inputs": [
        {
          "internalType": "bytes4",
          "name": "interfaceId",
          "type": "bytes4"
        }
      ],
      "name": "supportsInterface",
      "outputs": [
        {
          "internalType": "bool",
          "name": "",
          "type": "bool"
        }
      ],
      "stateMutability": "view",
      "type": "function"
    },
    {
      "inputs": [],
      "name": "transactionCount",
      "outputs": [
        {
          "internalType": "uint256",
          "name": "",
          "type": "uint256"
        }
      ],
      "stateMutability": "view",
      "type": "function"
    },
    {
      "inputs": [
        {
          "internalType": "uint256",
          "name": "",
          "type": "uint256"
        }
      ],
      "name": "transactions",
      "outputs": [
        {
          "internalType": "address",
          "name": "target",
          "type": "address"
        },
        {
          "internalType": "uint256",
          "name": "value",
          "type": "uint256"
        },
        {
          "internalType": "bytes",
          "name": "data",
          "type": "bytes"
        },
        {
          "internalType": "bool",
          "name": "executed",
          "type": "bool"
        },
        {
          "internalType": "uint256",
          "name": "confirmationCount",
          "type": "uint256"
        }
      ],
      "stateMutability": "view",
      "type": "function"
    },
    {
      "inputs": [
        {
          "internalType": "address",
          "name": "_newFounderWallet",
          "type": "address"
        }
      ],
      "name": "updateFounderWallet",
      "outputs": [],
      "stateMutability": "nonpayable",
      "type": "function"
    },
    {
      "inputs": [
        {
          "internalType": "uint256",
          "name": "propertyId",
          "type": "uint256"
        }
      ],
      "name": "verifyAndRecordReserves",
      "outputs": [
        {
          "internalType": "uint256",
          "name": "",
          "type": "uint256"
        }
      ],
      "stateMutability": "nonpayable",
      "type": "function"
    },
    {
      "inputs": [
        {
          "internalType": "uint256",
          "name": "propertyId",
          "type": "uint256"
        }
      ],
      "name": "verifyReserves",
      "outputs": [
        {
          "internalType": "uint256",
          "name": "",
          "type": "uint256"
        }
      ],
      "stateMutability": "view",
      "type": "function"
    },
    {
      "inputs": [
        {
          "internalType": "address",
          "name": "",
          "type": "address"
        }
      ],
      "name": "vestedCuts",
      "outputs": [
        {
          "internalType": "uint256",
          "name": "",
          "type": "uint256"
        }
      ],
      "stateMutability": "view",
      "type": "function"
    },
    {
      "inputs": [
        {
          "internalType": "address",
          "name": "",
          "type": "address"
        }
      ],
      "name": "vestingStart",
      "outputs": [
        {
          "internalType": "uint256",
          "name": "",
          "type": "uint256"
        }
      ],
      "stateMutability": "view",
      "type": "function"
    },
    {
      "inputs": [
        {
          "internalType": "uint256",
          "name": "amount",
          "type": "uint256"
        }
      ],
      "name": "withdraw",
      "outputs": [],
      "stateMutability": "nonpayable",
      "type": "function"
    },
    {
      "stateMutability": "payable",
      "type": "receive"
    }
  ],
  "bytecode": "0x608034620000f257601f620027ac38819003918201601f19168301916001600160401b03831184841017620000f757808492602094604052833981010312620000f257516001600160a01b03811690819003620000f257600180556002600555662386f26fc10000600b558015620000ad576200007c336200010d565b5062000088336200018d565b50600280546001600160a01b03191691909117905560405161255c9081620002308239f35b60405162461bcd60e51b815260206004820152601660248201527f496e76616c696420666f756e6465722077616c6c6574000000000000000000006044820152606490fd5b600080fd5b634e487b7160e01b600052604160045260246000fd5b6001600160a01b031660008181527fad3228b676f7d3cd4284a5443f17f1962b36e491b30a40b2405849e597ba5fb5602052604081205490919060ff166200018957818052816020526040822081835260205260408220600160ff1982541617905533916000805160206200278c8339815191528180a4600190565b5090565b6001600160a01b031660008181527f059f08e7d7ba1c82eddc57afae67f80df851baf38a099607a779825038c3ce5b60205260408120549091907fe2f4eaae4a9751e85a3e4a7b9587827a877f29914755229b07a7b2da98285f709060ff166200022a57808352826020526040832082845260205260408320600160ff198254161790556000805160206200278c833981519152339380a4600190565b50509056fe608080604052600436101561001d575b50361561001b57600080fd5b005b60003560e01c9081630197d97214611d355750806301ffc9a714611cdf578063032bbf4f14611ca55780630363c8fb14611b2657806307bd026514611aeb5780630e316ab714611a9057806312065fe014611a7457806320ea8d8614611970578063248a9ca3146119415780632e1a7d4d146118865780632f2ff15d1461184757806333ea3dc8146117dd5780633411c81c1461114057806336568abe146117965780634d2478891461177857806363f3dbe51461175a5780636ab3818e1461170d57806373522681146116e257806374420f4c1461142e5780637a9b0412146113805780637aab1381146113465780637b7c343d1461123b5780637f307ff71461118d57806380f59a651461114057806382e717f7146111225780638f28544c1461110657806391d14854146110b95780639ace38c21461104f578063a1ebf35d14611026578063a217fddf1461100a578063a23d3c3514610fe1578063a5574d5214610f49578063a64c113814610f0f578063ab033ea914610e5a578063af522b1c14610dcc578063b172b22214610da3578063b77bf60014610d85578063bf7cd80414610d4b578063c01a8c8414610c43578063c56c9ff414610b2f578063c6427474146107af578063c96f85cf1461078a578063d547741f1461074b578063d988233414610684578063eb12d61e146105e3578063ee22610b1461032a578063ef06e72c14610301578063ef66d684146102e35763fb897ce414610245573861000f565b346102de5760203660031901126102de5761025e611d52565b60018060a01b03811680600052600760205260406000205490600960205261028b6040600020549361207c565b9060005260086020526040600020546303c267008101918282116102c85760a0946040519485526020850152604084015260608301526080820152f35b634e487b7160e01b600052601160045260246000fd5b600080fd5b346102de5760003660031901126102de576020600a54604051908152f35b346102de5760003660031901126102de576003546040516001600160a01b039091168152602090f35b346102de576020806003193601126102de5760043590610348612218565b61035061219d565b61035d6006548310611fd1565b81600052600d8152604060002091600383019081549361038060ff86161561201d565b60048101546005541161059e5747916001936103a28584015480951015611f1f565b8460ff1980981617905560648302838104606414841517156102c8576127106103cd91048094611fc4565b9280610545575b5060018060a01b0395868354166002840191856040519160009085546103f981611e2d565b91818c169182156105325750506001146104f4575b50916000939181859403925af196610424611f94565b97156104af577fcaf938de11c367272220bfd1d2baa99ca46665e7bc4d85f00adb51b90fe1fa9f939291610492916040519485947f15ed165a284872ea7017f03df402a0cadfbfab588320ffaf83f160c2f82781c7600080a254169583526040888401526040830190611e67565b0390a280556104ab604051928284938452830190611da1565b0390f35b60405162461bcd60e51b815260048101889052601c60248201527f5472616e73616374696f6e20657865637574696f6e206661696c6564000000006044820152606490fd5b905084600052896000208a8a6000925b84841061051a575050509083019050600061040e565b8054878501528b955092909101918c918c9101610504565b168552508015150283019050600061040e565b7fb45df24de5d27f6414d5fb15009502c7f77909dc68ce75448b60a4a71640e2708660018060a01b0361058c60008080808886600254165af1610586611f94565b506120fe565b6002541692604051908152a2866103d4565b60405162461bcd60e51b815260048101859052601860248201527f4e6f7420656e6f75676820636f6e6669726d6174696f6e7300000000000000006044820152606490fd5b346102de5760203660031901126102de576105fc611d52565b6106046121c0565b6001600160a01b0381169081156106465761061e906123f2565b507f47d1c22a25bb3a5d4e481b9b1e6944c2eade3181a0a20b495ed61d35b5323f24600080a2005b60405162461bcd60e51b8152602060048201526016602482015275496e76616c6964207369676e6572206164647265737360501b6044820152606490fd5b346102de576020806003193601126102de576003546024906004359083906001600160a01b03166106b681151561214a565b604051938480926323a9d25760e21b82528560048301525afa91821561073f57600092610710575b507fb96772fa5329ea20c203d97d9b39acce1faec46fdb3bd87a329ebf77fd7410ce83604051848152a2604051908152f35b9091508281813d8311610738575b6107288183611efd565b810103126102de575190836106de565b503d61071e565b6040513d6000823e3d90fd5b346102de5760403660031901126102de5761001b60043561076a611d68565b908060005260006020526107856001604060002001546122be565b61237d565b346102de5760003660031901126102de576040600a54600b5482519182526020820152f35b346102de5760603660031901126102de576107c8611d52565b67ffffffffffffffff6044358181116102de576107e9903690600401611dff565b926107f2612218565b600654926107ff8461218e565b6006556040519260a0840184811083821117610b19576040526001600160a01b038381168552602435602086019081529690929061083c81611f78565b9261084a6040519485611efd565b81845236828201116102de5781600092602092838701378401015260408501918252600060608601526000608086015285600052600d602052604060002091838651166001600160601b0360a01b8454161783556001975188840155518051918211610b195781906108bf6002850154611e2d565b601f8111610ac1575b50602090601f8311600114610a5757600092610a4c575b5050600019600383901b1c191690871b1760028201555b600460806003830195606081015115159660ff199760ff8983541691161790550151910155604051911681526024356020820152827f753dcda37efe0bc3675e04e24d1fb08b70681f14675eed4b6e7978495caf2ca060403393a3610959612218565b6109666006548310611fd1565b81600052600d60205261098460ff600360406000200154161561201d565b81600052600e60205260406000203360005260205260ff60406000205416610a135760209282600052600e8452604060002033600052845260406000209182541617905580600052600d825260046040600020016109e2815461218e565b90556040519033817f15c2f311c9e0f53b50388279894aeff029a3457884a6601e924fca879e12adcc600080a38152f35b60405162461bcd60e51b8152602060048201526011602482015270105b1c9958591e4818dbdb999a5c9b5959607a1b6044820152606490fd5b0151905088806108df565b90899350601f198316916002860160005260206000209260005b818110610aa957508411610a90575b505050811b0160028201556108f6565b015160001960f88460031b161c19169055888080610a80565b8284015185558c969094019360209384019301610a71565b909150600284016000526020600020601f840160051c81019160208510610b0f575b84939291601f8c920160051c01915b828110610b005750506108c8565b600081558594508b9101610af2565b9091508190610ae3565b634e487b7160e01b600052604160045260246000fd5b346102de5760403660031901126102de57610b48611d52565b610b50612262565b610b5c3a602435612069565b90600b54808311610c3b575b50600a54808311610c33575b82610b7b57005b82610b8591611fc4565b600a5560018060a01b03169081600052600c6020526040600020610baa828254611f6b565b9055600080808084865af1610bbd611f94565b5015610bf75760407f5fc1e14c18e85d0603c37d2759f24a4f00fe4454e0a0b2566df29785f4810d2991600a5482519182526020820152a2005b60405162461bcd60e51b815260206004820152601460248201527314995a5b589d5c9cd95b595b9d0819985a5b195960621b6044820152606490fd5b915081610b74565b915082610b68565b346102de576020806003193601126102de5760043590610c61612218565b610c6e6006548310611fd1565b81600052600d8152610c8b60ff600360406000200154161561201d565b81600052600e8152604060002033600052815260ff60406000205416610d1357600d9082600052600e815260406000203360005281526040600020600160ff1982541617905582600052526004604060002001610ce8815461218e565b905533907f15c2f311c9e0f53b50388279894aeff029a3457884a6601e924fca879e12adcc600080a3005b6064906040519062461bcd60e51b825260048201526011602482015270105b1c9958591e4818dbdb999a5c9b5959607a1b6044820152fd5b346102de5760203660031901126102de576001600160a01b03610d6c611d52565b1660005260096020526020604060002054604051908152f35b346102de5760003660031901126102de576020600654604051908152f35b346102de5760003660031901126102de576004546040516001600160a01b039091168152602090f35b346102de576020806003193601126102de5760035460249082906001600160a01b0316610dfa81151561214a565b604051928380926323a9d25760e21b825260043560048301525afa90811561073f57600091610e2d575b50604051908152f35b90508181813d8311610e53575b610e448183611efd565b810103126102de575182610e24565b503d610e3a565b346102de5760203660031901126102de57610e73611d52565b610e7b6121c0565b6001600160a01b03908116908115610eca57600454826001600160601b0360a01b821617600455167f2bb6fa423908148a692d1326edeb12cf0436abf468ce271a4be85c722b327748600080a3005b60405162461bcd60e51b815260206004820152601a60248201527f496e76616c696420676f7665726e616e636520616464726573730000000000006044820152606490fd5b346102de5760203660031901126102de576001600160a01b03610f30611d52565b1660005260076020526020604060002054604051908152f35b346102de5760203660031901126102de57600435610f656121c0565b67016345785d8a00008111610fad5760407f6ff3ba4223f4d694ced77174a208557c49fd86ead36368eb2871ceb7eb4d1eeb91600b549080600b5582519182526020820152a1005b60405162461bcd60e51b815260206004820152600c60248201526b09ac2f040e8dede40d0d2ced60a31b6044820152606490fd5b346102de5760003660031901126102de576002546040516001600160a01b039091168152602090f35b346102de5760003660031901126102de57602060405160008152f35b346102de5760003660031901126102de5760206040516000805160206125078339815191528152f35b346102de5760203660031901126102de57600435600052600d602052604060002060018060a01b038154166104ab6001830154926040519061109f826110988160028501611e67565b0383611efd565b600460ff6003830154169101549160405195869586611dc6565b346102de5760403660031901126102de576110d2611d68565b600435600052600060205260406000209060018060a01b0316600052602052602060ff604060002054166040519015158152f35b346102de5760003660031901126102de57602060405160648152f35b346102de5760003660031901126102de576020600554604051908152f35b346102de5760403660031901126102de57611159611d68565b600435600052600e60205260406000209060018060a01b0316600052602052602060ff604060002054166040519015158152f35b346102de5760203660031901126102de576111a6611d52565b6111ae6121c0565b6001600160a01b039081169081156111fd57600254826001600160601b0360a01b821617600255167f8fde258c62bae775e2f2a12f222aa115ecd71ca13947381ec3122d23dca37d6d600080a3005b60405162461bcd60e51b8152602060048201526016602482015275125b9d985b1a5908199bdd5b99195c881dd85b1b195d60521b6044820152606490fd5b346102de5760203660031901126102de576004356112576121c0565b80156112f557600a811161129e5760407f9a71f52a6cf1d6a0a676a538d4131e624fbe0f9146d1ca1c7a31fda3db8c37f791600554908060055582519182526020820152a1005b60405162461bcd60e51b815260206004820152602960248201527f43616e6e6f742072657175697265206d6f7265207468616e20313020636f6e6660448201526869726d6174696f6e7360b81b6064820152608490fd5b60405162461bcd60e51b8152602060048201526024808201527f4d7573742072657175697265206174206c65617374203120636f6e6669726d616044820152633a34b7b760e11b6064820152608490fd5b346102de5760203660031901126102de576001600160a01b03611367611d52565b16600052600c6020526020604060002054604051908152f35b346102de5760203660031901126102de57611399611d52565b6113a16121c0565b6001600160a01b039081169081156113f057600354826001600160601b0360a01b821617600355167fe108cf8f8b301f7954568e77ebd0b1215523268a978e34bc9cc1a60b6abf78e6600080a3005b60405162461bcd60e51b8152602060048201526016602482015275496e76616c6964206f7261636c65206164647265737360501b6044820152606490fd5b346102de5760803660031901126102de57611447611d52565b6024359067ffffffffffffffff6044358181116102de5761146c903690600401611dff565b91906064359461147a612262565b61148261219d565b61148e81471015611f1f565b60648102818104606414821517156102c857600454612710909104966001600160a01b039488928616806115ea575b5050506114c991611fc4565b948061159c575b506000806040518584823780868101838152039088885af1936114f1611f94565b9415611569576104ab957fcaf938de11c367272220bfd1d2baa99ca46665e7bc4d85f00adb51b90fe1fa9f93606092866040519586948552604060208601528160408601528585013760008388018501521694601f01601f19168101030190a260018055604051918291602083526020830190611da1565b60405162461bcd60e51b815260206004820152600b60248201526a10d85b1b0819985a5b195960aa1b6044820152606490fd5b6115b460008080808588600254165af1610586611f94565b7fb45df24de5d27f6414d5fb15009502c7f77909dc68ce75448b60a4a71640e2706020846002541692604051908152a2856114d0565b6024935060009060405194858092632542515160e21b82528660048301525afa92831561073f57600093611668575b50506046821061162c575b8088926114bd565b60209750916114c9927f602c0e3af2af2bb1df1d57f7bb78b2cbc3d25d83fa10ad81a84d5c0519af51bf6000998a94604051908152a291611624565b909192503d806000833e61167c8183611efd565b8101916040828403126102de5781519081116102de5781019180601f840112156102de5782516116ab81611f78565b916116b96040519384611efd565b818352602082860101116102de5760209384806116d894019101611d7e565b0151908880611619565b346102de5760203660031901126102de576020611705611700611d52565b61207c565b604051908152f35b60003660031901126102de577f19a5c5590f6a234a92047e9b565ee9a2e8d9d83db89b9ac1622a6d6e170470ee604061174834600a54611f6b565b80600a558151903482526020820152a1005b346102de5760003660031901126102de5760206040516276a7008152f35b346102de5760003660031901126102de576020600b54604051908152f35b346102de5760403660031901126102de576117af611d68565b336001600160a01b038216036117cb5761001b9060043561237d565b60405163334bd91960e11b8152600490fd5b346102de5760203660031901126102de57600435600052600d602052604060002060018060a01b038154166104ab60018301549260ff600382015416600261183b6004840154936118346040518094819301611e67565b0382611efd565b60405195869586611dc6565b346102de5760403660031901126102de5761001b600435611866611d68565b908060005260006020526118816001604060002001546122be565b61248d565b346102de5760203660031901126102de576004356118a26121c0565b6118aa61219d565b80471061190557600080808093335af16118c2611f94565b50156118ce5760018055005b60405162461bcd60e51b815260206004820152600f60248201526e15da5d1a191c985dc819985a5b1959608a1b6044820152606490fd5b60405162461bcd60e51b8152602060048201526014602482015273496e73756666696369656e742062616c616e636560601b6044820152606490fd5b346102de5760203660031901126102de5760043560005260006020526020600160406000200154604051908152f35b346102de576020806003193601126102de576004359061198e612218565b61199b6006548310611fd1565b81600052600d81526119b860ff600360406000200154161561201d565b81600052600e8152604060002033600052815260ff6040600020541615611a4057600d9082600052600e81526040600020336000528152604060002060ff19815416905582600052526004604060002001805480156102c85760001901905533907f4cd471041f6b9ff47536a54a3d3ab62d0fa9dd5e36c0418b294b1673acb31881600080a3005b6064906040519062461bcd60e51b82526004820152600d60248201526c139bdd0818dbdb999a5c9b5959609a1b6044820152fd5b346102de5760003660031901126102de57602047604051908152f35b346102de5760203660031901126102de57611aa9611d52565b611ab16121c0565b611aba816122e4565b506001600160a01b03167f3525e22824a8a7df2c9a6029941c824cf95b6447f1e13d5128fd3826d35afe8b600080a2005b346102de5760003660031901126102de5760206040517fd8aa0f3194971a2a116679f7c2090f6939c8d4e01a2a8d7e41d55e5351469e638152f35b346102de5760003660031901126102de57611b3f61219d565b6002546001600160a01b03163303611c6757611b5a3361207c565b8015611c2f57611b6c81471015611f1f565b3360005260096020526040600020611b85828254611f6b565b9055600080808084335af1611b98611f94565b5015611bf857336000526007602052611bc1604060002054600960205260406000205490611fc4565b60405191825260208201527f2a802e837fc4c908f2771b54afa67bb6b29094584706495b8dd12e8db55fc88760403392a260018055005b60405162461bcd60e51b815260206004820152600f60248201526e151c985b9cd9995c8819985a5b1959608a1b6044820152606490fd5b60405162461bcd60e51b815260206004820152601060248201526f4e6f7468696e6720746f20636c61696d60801b6044820152606490fd5b60405162461bcd60e51b81526020600482015260166024820152754f6e6c7920666f756e6465722063616e20636c61696d60501b6044820152606490fd5b346102de5760203660031901126102de576001600160a01b03611cc6611d52565b1660005260086020526020604060002054604051908152f35b346102de5760203660031901126102de5760043563ffffffff60e01b81168091036102de57602090637965db0b60e01b8114908115611d24575b506040519015158152f35b6301ffc9a760e01b14905082611d19565b346102de5760003660031901126102de57806303c2670060209252f35b600435906001600160a01b03821682036102de57565b602435906001600160a01b03821682036102de57565b60005b838110611d915750506000910152565b8181015183820152602001611d81565b90602091611dba81518092818552858086019101611d7e565b601f01601f1916010190565b9192608093611df3929796959760018060a01b03168452602084015260a0604084015260a0830190611da1565b94151560608201520152565b9181601f840112156102de5782359167ffffffffffffffff83116102de57602083818601950101116102de57565b90600182811c92168015611e5d575b6020831014611e4757565b634e487b7160e01b600052602260045260246000fd5b91607f1691611e3c565b805460009392611e7682611e2d565b91828252602093600191600181169081600014611ede5750600114611e9d575b5050505050565b90939495506000929192528360002092846000945b838610611eca57505050500101903880808080611e96565b805485870183015294019385908201611eb2565b60ff19168685015250505090151560051b010191503880808080611e96565b90601f8019910116810190811067ffffffffffffffff821117610b1957604052565b15611f2657565b60405162461bcd60e51b815260206004820152601d60248201527f496e73756666696369656e742074726561737572792062616c616e63650000006044820152606490fd5b919082018092116102c857565b67ffffffffffffffff8111610b1957601f01601f191660200190565b3d15611fbf573d90611fa582611f78565b91611fb36040519384611efd565b82523d6000602084013e565b606090565b919082039182116102c857565b15611fd857565b60405162461bcd60e51b815260206004820152601a60248201527f5472616e73616374696f6e20646f6573206e6f742065786973740000000000006044820152606490fd5b1561202457565b60405162461bcd60e51b815260206004820152601c60248201527f5472616e73616374696f6e20616c7265616479206578656375746564000000006044820152606490fd5b818102929181159184041417156102c857565b6001600160a01b031660008181526008602052604081205490919080156120f9576120a79042611fc4565b6276a70081106120f95781835260076020526040808420546120e59491926303c26700908181106120e8575050925b81526009602052205490611fc4565b90565b6120f29192612069565b04926120d6565b505090565b1561210557565b60405162461bcd60e51b815260206004820152601b60248201527f466f756e64657220637574207472616e73666572206661696c656400000000006044820152606490fd5b1561215157565b60405162461bcd60e51b815260206004820152601560248201527413dc9858db19481b9bdd0818dbdb999a59dd5c9959605a1b6044820152606490fd5b60001981146102c85760010190565b6002600154146121ae576002600155565b604051633ee5aeb560e01b8152600490fd5b3360009081527fad3228b676f7d3cd4284a5443f17f1962b36e491b30a40b2405849e597ba5fb5602052604081205460ff16156121fa5750565b6044906040519063e2517d3f60e01b82523360048301526024820152fd5b3360009081527f059f08e7d7ba1c82eddc57afae67f80df851baf38a099607a779825038c3ce5b60205260409020546000805160206125078339815191529060ff16156121fa5750565b3360009081527fdae2aa361dfd1ca020a396615627d436107c35eff9fe7738a3512819782d706960205260409020547fd8aa0f3194971a2a116679f7c2090f6939c8d4e01a2a8d7e41d55e5351469e639060ff16156121fa5750565b80600052600060205260406000203360005260205260ff60406000205416156121fa5750565b6001600160a01b031660008181527f059f08e7d7ba1c82eddc57afae67f80df851baf38a099607a779825038c3ce5b60205260408120549091906000805160206125078339815191529060ff16156120f95780835282602052604083208284526020526040832060ff1981541690557ff6391f5c32d9c69d2a47ea670b442974b53935d1edc7fd64eb21e047a839171b339380a4600190565b9060009180835282602052604083209160018060a01b03169182845260205260ff6040842054166000146120f95780835282602052604083208284526020526040832060ff1981541690557ff6391f5c32d9c69d2a47ea670b442974b53935d1edc7fd64eb21e047a839171b339380a4600190565b6001600160a01b031660008181527f059f08e7d7ba1c82eddc57afae67f80df851baf38a099607a779825038c3ce5b60205260408120549091906000805160206125078339815191529060ff166120f957808352826020526040832082845260205260408320600160ff198254161790557f2f8788117e7eff1d82e926ec794901d17c78024a50270940304540a733656f0d339380a4600190565b9060009180835282602052604083209160018060a01b03169182845260205260ff604084205416156000146120f957808352826020526040832082845260205260408320600160ff198254161790557f2f8788117e7eff1d82e926ec794901d17c78024a50270940304540a733656f0d339380a460019056fee2f4eaae4a9751e85a3e4a7b9587827a877f29914755229b07a7b2da98285f70a26469706673582212201cd237d2950c4a24b1e5efbf94fe90ea34333347a98e89c42bae9fa3ccbf116764736f6c634300081800332f8788117e7eff1d82e926ec794901d17c78024a50270940304540a733656f0d",
  "linkReferences": {},
  "deployedLinkReferences": {}
}