{
  "_format": "hh-sol-artifact-1",
  "contractName": "Treasury",
  "sourceName": "contracts/Treasury.sol",
  "abi": [
    {
      "inputs": [
        {
          "internalType": "address",
          "name": "_founderWallet",
          "type": "address"
        }
      ],
      "stateMutability": "nonpayable",
      "type": "constructor"
    },
    {
      "inputs": [],
      "name": "AccessControlBadConfirmation",
      "type": "error"
    },
    {
      "inputs": [
        {
          "internalType": "address",
          "name": "account",
          "type": "address"
        },
        {
          "internalType": "bytes32",
          "name": "neededRole",
          "type": "bytes32"
        }
      ],
      "name": "AccessControlUnauthorizedAccount",
      "type": "error"
    },
    {
      "inputs": [],
      "name": "ReentrancyGuardReentrantCall",
      "type": "error"
    },
    {
      "anonymous": false,
      "inputs": [
        {
          "indexed": true,
          "internalType": "address",
          "name": "oldOracle",
          "type": "address"
        },
        {
          "indexed": true,
          "internalType": "address",
          "name": "newOracle",
          "type": "address"
        }
      ],
      "name": "ChainlinkOracleUpdated",
      "type": "event"
    },
    {
      "anonymous": false,
      "inputs": [
        {
          "indexed": true,
          "internalType": "address",
          "name": "target",
          "type": "address"
        },
        {
          "indexed": false,
          "internalType": "uint256",
          "name": "value",
          "type": "uint256"
        },
        {
          "indexed": false,
          "internalType": "bytes",
          "name": "data",
          "type": "bytes"
        }
      ],
      "name": "Executed",
      "type": "event"
    },
    {
      "anonymous": false,
      "inputs": [
        {
          "indexed": true,
          "internalType": "address",
          "name": "founder",
          "type": "address"
        },
        {
          "indexed": false,
          "internalType": "uint256",
          "name": "amount",
          "type": "uint256"
        }
      ],
      "name": "FounderCutSent",
      "type": "event"
    },
    {
      "anonymous": false,
      "inputs": [
        {
          "indexed": true,
          "internalType": "address",
          "name": "oldWallet",
          "type": "address"
        },
        {
          "indexed": true,
          "internalType": "address",
          "name": "newWallet",
          "type": "address"
        }
      ],
      "name": "FounderWalletUpdated",
      "type": "event"
    },
    {
      "anonymous": false,
      "inputs": [
        {
          "indexed": false,
          "internalType": "uint256",
          "name": "oldRequired",
          "type": "uint256"
        },
        {
          "indexed": false,
          "internalType": "uint256",
          "name": "newRequired",
          "type": "uint256"
        }
      ],
      "name": "RequiredConfirmationsUpdated",
      "type": "event"
    },
    {
      "anonymous": false,
      "inputs": [
        {
          "indexed": true,
          "internalType": "uint256",
          "name": "propertyId",
          "type": "uint256"
        },
        {
          "indexed": false,
          "internalType": "uint256",
          "name": "reserves",
          "type": "uint256"
        }
      ],
      "name": "ReservesVerified",
      "type": "event"
    },
    {
      "anonymous": false,
      "inputs": [
        {
          "indexed": true,
          "internalType": "bytes32",
          "name": "role",
          "type": "bytes32"
        },
        {
          "indexed": true,
          "internalType": "bytes32",
          "name": "previousAdminRole",
          "type": "bytes32"
        },
        {
          "indexed": true,
          "internalType": "bytes32",
          "name": "newAdminRole",
          "type": "bytes32"
        }
      ],
      "name": "RoleAdminChanged",
      "type": "event"
    },
    {
      "anonymous": false,
      "inputs": [
        {
          "indexed": true,
          "internalType": "bytes32",
          "name": "role",
          "type": "bytes32"
        },
        {
          "indexed": true,
          "internalType": "address",
          "name": "account",
          "type": "address"
        },
        {
          "indexed": true,
          "internalType": "address",
          "name": "sender",
          "type": "address"
        }
      ],
      "name": "RoleGranted",
      "type": "event"
    },
    {
      "anonymous": false,
      "inputs": [
        {
          "indexed": true,
          "internalType": "bytes32",
          "name": "role",
          "type": "bytes32"
        },
        {
          "indexed": true,
          "internalType": "address",
          "name": "account",
          "type": "address"
        },
        {
          "indexed": true,
          "internalType": "address",
          "name": "sender",
          "type": "address"
        }
      ],
      "name": "RoleRevoked",
      "type": "event"
    },
    {
      "anonymous": false,
      "inputs": [
        {
          "indexed": true,
          "internalType": "address",
          "name": "signer",
          "type": "address"
        }
      ],
      "name": "SignerAdded",
      "type": "event"
    },
    {
      "anonymous": false,
      "inputs": [
        {
          "indexed": true,
          "internalType": "address",
          "name": "signer",
          "type": "address"
        }
      ],
      "name": "SignerRemoved",
      "type": "event"
    },
    {
      "anonymous": false,
      "inputs": [
        {
          "indexed": true,
          "internalType": "uint256",
          "name": "txId",
          "type": "uint256"
        },
        {
          "indexed": true,
          "internalType": "address",
          "name": "signer",
          "type": "address"
        }
      ],
      "name": "TransactionConfirmed",
      "type": "event"
    },
    {
      "anonymous": false,
      "inputs": [
        {
          "indexed": true,
          "internalType": "uint256",
          "name": "txId",
          "type": "uint256"
        }
      ],
      "name": "TransactionExecuted",
      "type": "event"
    },
    {
      "anonymous": false,
      "inputs": [
        {
          "indexed": true,
          "internalType": "uint256",
          "name": "txId",
          "type": "uint256"
        },
        {
          "indexed": true,
          "internalType": "address",
          "name": "signer",
          "type": "address"
        }
      ],
      "name": "TransactionRevoked",
      "type": "event"
    },
    {
      "anonymous": false,
      "inputs": [
        {
          "indexed": true,
          "internalType": "uint256",
          "name": "txId",
          "type": "uint256"
        },
        {
          "indexed": true,
          "internalType": "address",
          "name": "submitter",
          "type": "address"
        },
        {
          "indexed": false,
          "internalType": "address",
          "name": "target",
          "type": "address"
        },
        {
          "indexed": false,
          "internalType": "uint256",
          "name": "value",
          "type": "uint256"
        }
      ],
      "name": "TransactionSubmitted",
      "type": "event"
    },
    {
      "inputs": [],
      "name": "DEFAULT_ADMIN_ROLE",
      "outputs": [
        {
          "internalType": "bytes32",
          "name": "",
          "type": "bytes32"
        }
      ],
      "stateMutability": "view",
      "type": "function"
    },
    {
      "inputs": [],
      "name": "EXECUTOR_ROLE",
      "outputs": [
        {
          "internalType": "bytes32",
          "name": "",
          "type": "bytes32"
        }
      ],
      "stateMutability": "view",
      "type": "function"
    },
    {
      "inputs": [],
      "name": "FOUNDER_CUT_BPS",
      "outputs": [
        {
          "internalType": "uint256",
          "name": "",
          "type": "uint256"
        }
      ],
      "stateMutability": "view",
      "type": "function"
    },
    {
      "inputs": [],
      "name": "SIGNER_ROLE",
      "outputs": [
        {
          "internalType": "bytes32",
          "name": "",
          "type": "bytes32"
        }
      ],
      "stateMutability": "view",
      "type": "function"
    },
    {
      "inputs": [
        {
          "internalType": "address",
          "name": "signer",
          "type": "address"
        }
      ],
      "name": "addSigner",
      "outputs": [],
      "stateMutability": "nonpayable",
      "type": "function"
    },
    {
      "inputs": [],
      "name": "chainlinkOracle",
      "outputs": [
        {
          "internalType": "address",
          "name": "",
          "type": "address"
        }
      ],
      "stateMutability": "view",
      "type": "function"
    },
    {
      "inputs": [
        {
          "internalType": "uint256",
          "name": "txId",
          "type": "uint256"
        }
      ],
      "name": "confirmTransaction",
      "outputs": [],
      "stateMutability": "nonpayable",
      "type": "function"
    },
    {
      "inputs": [
        {
          "internalType": "uint256",
          "name": "",
          "type": "uint256"
        },
        {
          "internalType": "address",
          "name": "",
          "type": "address"
        }
      ],
      "name": "confirmations",
      "outputs": [
        {
          "internalType": "bool",
          "name": "",
          "type": "bool"
        }
      ],
      "stateMutability": "view",
      "type": "function"
    },
    {
      "inputs": [
        {
          "internalType": "address",
          "name": "target",
          "type": "address"
        },
        {
          "internalType": "uint256",
          "name": "value",
          "type": "uint256"
        },
        {
          "internalType": "bytes",
          "name": "data",
          "type": "bytes"
        }
      ],
      "name": "execute",
      "outputs": [
        {
          "internalType": "bytes",
          "name": "",
          "type": "bytes"
        }
      ],
      "stateMutability": "nonpayable",
      "type": "function"
    },
    {
      "inputs": [
        {
          "internalType": "uint256",
          "name": "txId",
          "type": "uint256"
        }
      ],
      "name": "executeTransaction",
      "outputs": [
        {
          "internalType": "bytes",
          "name": "",
          "type": "bytes"
        }
      ],
      "stateMutability": "nonpayable",
      "type": "function"
    },
    {
      "inputs": [],
      "name": "founderWallet",
      "outputs": [
        {
          "internalType": "address",
          "name": "",
          "type": "address"
        }
      ],
      "stateMutability": "view",
      "type": "function"
    },
    {
      "inputs": [],
      "name": "getBalance",
      "outputs": [
        {
          "internalType": "uint256",
          "name": "",
          "type": "uint256"
        }
      ],
      "stateMutability": "view",
      "type": "function"
    },
    {
      "inputs": [
        {
          "internalType": "bytes32",
          "name": "role",
          "type": "bytes32"
        }
      ],
      "name": "getRoleAdmin",
      "outputs": [
        {
          "internalType": "bytes32",
          "name": "",
          "type": "bytes32"
        }
      ],
      "stateMutability": "view",
      "type": "function"
    },
    {
      "inputs": [
        {
          "internalType": "uint256",
          "name": "txId",
          "type": "uint256"
        }
      ],
      "name": "getTransaction",
      "outputs": [
        {
          "internalType": "address",
          "name": "target",
          "type": "address"
        },
        {
          "internalType": "uint256",
          "name": "value",
          "type": "uint256"
        },
        {
          "internalType": "bytes",
          "name": "data",
          "type": "bytes"
        },
        {
          "internalType": "bool",
          "name": "executed",
          "type": "bool"
        },
        {
          "internalType": "uint256",
          "name": "confirmationCount",
          "type": "uint256"
        }
      ],
      "stateMutability": "view",
      "type": "function"
    },
    {
      "inputs": [
        {
          "internalType": "bytes32",
          "name": "role",
          "type": "bytes32"
        },
        {
          "internalType": "address",
          "name": "account",
          "type": "address"
        }
      ],
      "name": "grantRole",
      "outputs": [],
      "stateMutability": "nonpayable",
      "type": "function"
    },
    {
      "inputs": [
        {
          "internalType": "bytes32",
          "name": "role",
          "type": "bytes32"
        },
        {
          "internalType": "address",
          "name": "account",
          "type": "address"
        }
      ],
      "name": "hasRole",
      "outputs": [
        {
          "internalType": "bool",
          "name": "",
          "type": "bool"
        }
      ],
      "stateMutability": "view",
      "type": "function"
    },
    {
      "inputs": [
        {
          "internalType": "uint256",
          "name": "txId",
          "type": "uint256"
        },
        {
          "internalType": "address",
          "name": "signer",
          "type": "address"
        }
      ],
      "name": "isConfirmed",
      "outputs": [
        {
          "internalType": "bool",
          "name": "",
          "type": "bool"
        }
      ],
      "stateMutability": "view",
      "type": "function"
    },
    {
      "inputs": [
        {
          "internalType": "address",
          "name": "signer",
          "type": "address"
        }
      ],
      "name": "removeSigner",
      "outputs": [],
      "stateMutability": "nonpayable",
      "type": "function"
    },
    {
      "inputs": [
        {
          "internalType": "bytes32",
          "name": "role",
          "type": "bytes32"
        },
        {
          "internalType": "address",
          "name": "callerConfirmation",
          "type": "address"
        }
      ],
      "name": "renounceRole",
      "outputs": [],
      "stateMutability": "nonpayable",
      "type": "function"
    },
    {
      "inputs": [],
      "name": "requiredConfirmations",
      "outputs": [
        {
          "internalType": "uint256",
          "name": "",
          "type": "uint256"
        }
      ],
      "stateMutability": "view",
      "type": "function"
    },
    {
      "inputs": [
        {
          "internalType": "uint256",
          "name": "txId",
          "type": "uint256"
        }
      ],
      "name": "revokeConfirmation",
      "outputs": [],
      "stateMutability": "nonpayable",
      "type": "function"
    },
    {
      "inputs": [
        {
          "internalType": "bytes32",
          "name": "role",
          "type": "bytes32"
        },
        {
          "internalType": "address",
          "name": "account",
          "type": "address"
        }
      ],
      "name": "revokeRole",
      "outputs": [],
      "stateMutability": "nonpayable",
      "type": "function"
    },
    {
      "inputs": [
        {
          "internalType": "address",
          "name": "_chainlinkOracle",
          "type": "address"
        }
      ],
      "name": "setChainlinkOracle",
      "outputs": [],
      "stateMutability": "nonpayable",
      "type": "function"
    },
    {
      "inputs": [
        {
          "internalType": "uint256",
          "name": "_requiredConfirmations",
          "type": "uint256"
        }
      ],
      "name": "setRequiredConfirmations",
      "outputs": [],
      "stateMutability": "nonpayable",
      "type": "function"
    },
    {
      "inputs": [
        {
          "internalType": "address",
          "name": "target",
          "type": "address"
        },
        {
          "internalType": "uint256",
          "name": "value",
          "type": "uint256"
        },
        {
          "internalType": "bytes",
          "name": "data",
          "type": "bytes"
        }
      ],
      "name": "submitTransaction",
      "outputs": [
        {
          "internalType": "uint256",
          "name": "",
          "type": "uint256"
        }
      ],
      "stateMutability": "nonpayable",
      "type": "function"
    },
    {
      "inputs": [
        {
          "internalType": "bytes4",
          "name": "interfaceId",
          "type": "bytes4"
        }
      ],
      "name": "supportsInterface",
      "outputs": [
        {
          "internalType": "bool",
          "name": "",
          "type": "bool"
        }
      ],
      "stateMutability": "view",
      "type": "function"
    },
    {
      "inputs": [],
      "name": "transactionCount",
      "outputs": [
        {
          "internalType": "uint256",
          "name": "",
          "type": "uint256"
        }
      ],
      "stateMutability": "view",
      "type": "function"
    },
    {
      "inputs": [
        {
          "internalType": "uint256",
          "name": "",
          "type": "uint256"
        }
      ],
      "name": "transactions",
      "outputs": [
        {
          "internalType": "address",
          "name": "target",
          "type": "address"
        },
        {
          "internalType": "uint256",
          "name": "value",
          "type": "uint256"
        },
        {
          "internalType": "bytes",
          "name": "data",
          "type": "bytes"
        },
        {
          "internalType": "bool",
          "name": "executed",
          "type": "bool"
        },
        {
          "internalType": "uint256",
          "name": "confirmationCount",
          "type": "uint256"
        }
      ],
      "stateMutability": "view",
      "type": "function"
    },
    {
      "inputs": [
        {
          "internalType": "address",
          "name": "_newFounderWallet",
          "type": "address"
        }
      ],
      "name": "updateFounderWallet",
      "outputs": [],
      "stateMutability": "nonpayable",
      "type": "function"
    },
    {
      "inputs": [
        {
          "internalType": "uint256",
          "name": "propertyId",
          "type": "uint256"
        }
      ],
      "name": "verifyAndRecordReserves",
      "outputs": [
        {
          "internalType": "uint256",
          "name": "",
          "type": "uint256"
        }
      ],
      "stateMutability": "nonpayable",
      "type": "function"
    },
    {
      "inputs": [
        {
          "internalType": "uint256",
          "name": "propertyId",
          "type": "uint256"
        }
      ],
      "name": "verifyReserves",
      "outputs": [
        {
          "internalType": "uint256",
          "name": "",
          "type": "uint256"
        }
      ],
      "stateMutability": "view",
      "type": "function"
    },
    {
      "inputs": [
        {
          "internalType": "uint256",
          "name": "amount",
          "type": "uint256"
        }
      ],
      "name": "withdraw",
      "outputs": [],
      "stateMutability": "nonpayable",
      "type": "function"
    },
    {
      "stateMutability": "payable",
      "type": "receive"
    }
  ],
  "bytecode": "0x608034620000e757601f62001e5f38819003918201601f19168301916001600160401b03831184841017620000ec57808492602094604052833981010312620000e757516001600160a01b03811690819003620000e7576001805560026004558015620000a257620000713362000102565b506200007d3362000182565b50600280546001600160a01b031916919091179055604051611c1a9081620002258239f35b60405162461bcd60e51b815260206004820152601660248201527f496e76616c696420666f756e6465722077616c6c6574000000000000000000006044820152606490fd5b600080fd5b634e487b7160e01b600052604160045260246000fd5b6001600160a01b031660008181527fad3228b676f7d3cd4284a5443f17f1962b36e491b30a40b2405849e597ba5fb5602052604081205490919060ff166200017e57818052816020526040822081835260205260408220600160ff19825416179055339160008051602062001e3f8339815191528180a4600190565b5090565b6001600160a01b031660008181527f059f08e7d7ba1c82eddc57afae67f80df851baf38a099607a779825038c3ce5b60205260408120549091907fe2f4eaae4a9751e85a3e4a7b9587827a877f29914755229b07a7b2da98285f709060ff166200021f57808352826020526040832082845260205260408320600160ff1982541617905560008051602062001e3f833981519152339380a4600190565b50509056fe608080604052600436101561001d575b50361561001b57600080fd5b005b60003560e01c90816301ffc9a7146114a85750806307bd02651461146d5780630e316ab71461141257806312065fe0146113f657806320ea8d86146112f2578063248a9ca3146112c35780632e1a7d4d146112085780632f2ff15d146111c957806333ea3dc81461115f5780633411c81c14610e6457806336568abe146111185780637a9b04121461106a5780637b7c343d14610f5f5780637f307ff714610eb157806380f59a6514610e6457806382e717f714610e465780638f28544c14610e2a57806391d1485414610ddd5780639ace38c214610d73578063a1ebf35d14610d4a578063a217fddf14610d2e578063a23d3c3514610d05578063af522b1c14610c77578063b61d27f614610aa4578063b77bf60014610a86578063c01a8c841461097e578063c64274741461062e578063d547741f146105ef578063d988233414610528578063eb12d61e14610487578063ee22610b146101b85763ef06e72c1461018a573861000f565b346101b35760003660031901126101b3576003546040516001600160a01b039091168152602090f35b600080fd5b346101b3576020806003193601126101b357600435906101d661190a565b6101de611a8d565b6101eb60055483106116f4565b8160005260068152604060002091600383019081549361020e60ff861615611740565b600481015460045411610442574791600193610230858401548095101561181c565b8460ff19809816179055606483028381046064148415171561042c5761271061025b91048094611868565b92806103d3575b5060018060a01b039586835416600284019185604051916000908554610287816115a0565b91818c169182156103c0575050600114610382575b50916000939181859403925af1966102b26117a8565b971561033d577fcaf938de11c367272220bfd1d2baa99ca46665e7bc4d85f00adb51b90fe1fa9f939291610320916040519485947f15ed165a284872ea7017f03df402a0cadfbfab588320ffaf83f160c2f82781c7600080a2541695835260408884015260408301906115da565b0390a28055610339604051928284938452830190611527565b0390f35b60405162461bcd60e51b815260048101889052601c60248201527f5472616e73616374696f6e20657865637574696f6e206661696c6564000000006044820152606490fd5b905084600052896000208a8a6000925b8484106103a8575050509083019050600061029c565b8054878501528b955092909101918c918c9101610392565b168552508015150283019050600061029c565b7fb45df24de5d27f6414d5fb15009502c7f77909dc68ce75448b60a4a71640e2708660018060a01b0361041a60008080808886600254165af16104146117a8565b50611875565b6002541692604051908152a286610262565b634e487b7160e01b600052601160045260246000fd5b60405162461bcd60e51b815260048101859052601860248201527f4e6f7420656e6f75676820636f6e6669726d6174696f6e7300000000000000006044820152606490fd5b346101b35760203660031901126101b3576104a06114fb565b6104a86118d0565b6001600160a01b0381169081156104ea576104c290611ab0565b507f47d1c22a25bb3a5d4e481b9b1e6944c2eade3181a0a20b495ed61d35b5323f24600080a2005b60405162461bcd60e51b8152602060048201526016602482015275496e76616c6964207369676e6572206164647265737360501b6044820152606490fd5b346101b3576020806003193601126101b3576003546024906004359083906001600160a01b031661055a8115156117d8565b604051938480926323a9d25760e21b82528560048301525afa9182156105e3576000926105b4575b507fb96772fa5329ea20c203d97d9b39acce1faec46fdb3bd87a329ebf77fd7410ce83604051848152a2604051908152f35b9091508281813d83116105dc575b6105cc8183611670565b810103126101b357519083610582565b503d6105c2565b6040513d6000823e3d90fd5b346101b35760403660031901126101b35761001b60043561060e611511565b90806000526000602052610629600160406000200154611954565b611a18565b346101b35761063c36611692565b929161064661190a565b60055492610653846118c1565b6005556040519067ffffffffffffffff60a0830181811184821017610968576040526001600160a01b0391821680845260208401858152979095906106978161178c565b916106a56040519384611670565b81835236828201116101b3578160009260209283860137830101526040840190815260608401976000895260808501936000855288600052600660205260406000209551166001600160601b0360a01b8654161785555160018501555180519182116109685761071860028501546115a0565b601f811161091d575b50602090601f83116001146108ac576004939291600091836108a1575b50508160011b916000199060031b1c19161760028401555b60038301965115159660ff199760ff898354169116179055519101556040519182526020820152817f753dcda37efe0bc3675e04e24d1fb08b70681f14675eed4b6e7978495caf2ca060403393a36107ac61190a565b6107b960055482106116f4565b8060005260066020526107d760ff6003604060002001541615611740565b80600052600760205260406000203360005260205260ff60406000205416610868576020918160005260078352604060002033600052835260016040600020918254161790558060005260068252600460406000200161083781546118c1565b90556040519033817f15c2f311c9e0f53b50388279894aeff029a3457884a6601e924fca879e12adcc600080a38152f35b60405162461bcd60e51b8152602060048201526011602482015270105b1c9958591e4818dbdb999a5c9b5959607a1b6044820152606490fd5b01519050898061073e565b90601f198316916002860160005260206000209260005b81811061090557509160019391856004979694106108ec575b505050811b016002840155610756565b015160001960f88460031b161c191690558980806108dc565b929360206001819287860151815501950193016108c3565b600285016000526020600020601f840160051c8101916020851061095e575b601f0160051c01905b8181106109525750610721565b60008155600101610945565b909150819061093c565b634e487b7160e01b600052604160045260246000fd5b346101b3576020806003193601126101b3576004359061099c61190a565b6109a960055483106116f4565b81600052600681526109c660ff6003604060002001541615611740565b8160005260078152604060002033600052815260ff60406000205416610a4e57600690826000526007815260406000203360005281526040600020600160ff1982541617905582600052526004604060002001610a2381546118c1565b905533907f15c2f311c9e0f53b50388279894aeff029a3457884a6601e924fca879e12adcc600080a3005b6064906040519062461bcd60e51b825260048201526011602482015270105b1c9958591e4818dbdb999a5c9b5959607a1b6044820152fd5b346101b35760003660031901126101b3576020600554604051908152f35b346101b357610ab236611692565b907fd8aa0f3194971a2a116679f7c2090f6939c8d4e01a2a8d7e41d55e5351469e63928360005260209360008552604060002033600052855260ff6040600020541615610c595750610b02611a8d565b610b0e8147101561181c565b606481028181046064148215171561042c57612710610b2f91048092611868565b9080610c06575b506000806040518585823780868101838152039084895af194610b576117a8565b9515610bd3577fcaf938de11c367272220bfd1d2baa99ca46665e7bc4d85f00adb51b90fe1fa9f92916060918560405194859384526040898501528160408501528484013760008287018401526001600160a01b031694601f01601f19168101030190a260018055610339604051928284938452830190611527565b60405162461bcd60e51b815260048101869052600b60248201526a10d85b1b0819985a5b195960aa1b6044820152606490fd5b7fb45df24de5d27f6414d5fb15009502c7f77909dc68ce75448b60a4a71640e2708560018060a01b03610c4760008080808886600254165af16104146117a8565b6002541692604051908152a285610b36565b6044906040519063e2517d3f60e01b82523360048301526024820152fd5b346101b3576020806003193601126101b35760035460249082906001600160a01b0316610ca58115156117d8565b604051928380926323a9d25760e21b825260043560048301525afa9081156105e357600091610cd8575b50604051908152f35b90508181813d8311610cfe575b610cef8183611670565b810103126101b3575182610ccf565b503d610ce5565b346101b35760003660031901126101b3576002546040516001600160a01b039091168152602090f35b346101b35760003660031901126101b357602060405160008152f35b346101b35760003660031901126101b3576020604051600080516020611bc58339815191528152f35b346101b35760203660031901126101b3576004356000526006602052604060002060018060a01b0381541661033960018301549260405190610dc382610dbc81600285016115da565b0383611670565b600460ff6003830154169101549160405195869586611567565b346101b35760403660031901126101b357610df6611511565b600435600052600060205260406000209060018060a01b0316600052602052602060ff604060002054166040519015158152f35b346101b35760003660031901126101b357602060405160648152f35b346101b35760003660031901126101b3576020600454604051908152f35b346101b35760403660031901126101b357610e7d611511565b600435600052600760205260406000209060018060a01b0316600052602052602060ff604060002054166040519015158152f35b346101b35760203660031901126101b357610eca6114fb565b610ed26118d0565b6001600160a01b03908116908115610f2157600254826001600160601b0360a01b821617600255167f8fde258c62bae775e2f2a12f222aa115ecd71ca13947381ec3122d23dca37d6d600080a3005b60405162461bcd60e51b8152602060048201526016602482015275125b9d985b1a5908199bdd5b99195c881dd85b1b195d60521b6044820152606490fd5b346101b35760203660031901126101b357600435610f7b6118d0565b801561101957600a8111610fc25760407f9a71f52a6cf1d6a0a676a538d4131e624fbe0f9146d1ca1c7a31fda3db8c37f791600454908060045582519182526020820152a1005b60405162461bcd60e51b815260206004820152602960248201527f43616e6e6f742072657175697265206d6f7265207468616e20313020636f6e6660448201526869726d6174696f6e7360b81b6064820152608490fd5b60405162461bcd60e51b8152602060048201526024808201527f4d7573742072657175697265206174206c65617374203120636f6e6669726d616044820152633a34b7b760e11b6064820152608490fd5b346101b35760203660031901126101b3576110836114fb565b61108b6118d0565b6001600160a01b039081169081156110da57600354826001600160601b0360a01b821617600355167fe108cf8f8b301f7954568e77ebd0b1215523268a978e34bc9cc1a60b6abf78e6600080a3005b60405162461bcd60e51b8152602060048201526016602482015275496e76616c6964206f7261636c65206164647265737360501b6044820152606490fd5b346101b35760403660031901126101b357611131611511565b336001600160a01b0382160361114d5761001b90600435611a18565b60405163334bd91960e11b8152600490fd5b346101b35760203660031901126101b3576004356000526006602052604060002060018060a01b0381541661033960018301549260ff60038201541660026111bd6004840154936111b660405180948193016115da565b0382611670565b60405195869586611567565b346101b35760403660031901126101b35761001b6004356111e8611511565b90806000526000602052611203600160406000200154611954565b611b4b565b346101b35760203660031901126101b3576004356112246118d0565b61122c611a8d565b80471061128757600080808093335af16112446117a8565b50156112505760018055005b60405162461bcd60e51b815260206004820152600f60248201526e15da5d1a191c985dc819985a5b1959608a1b6044820152606490fd5b60405162461bcd60e51b8152602060048201526014602482015273496e73756666696369656e742062616c616e636560601b6044820152606490fd5b346101b35760203660031901126101b35760043560005260006020526020600160406000200154604051908152f35b346101b3576020806003193601126101b3576004359061131061190a565b61131d60055483106116f4565b816000526006815261133a60ff6003604060002001541615611740565b8160005260078152604060002033600052815260ff60406000205416156113c25760069082600052600781526040600020336000528152604060002060ff198154169055826000525260046040600020018054801561042c5760001901905533907f4cd471041f6b9ff47536a54a3d3ab62d0fa9dd5e36c0418b294b1673acb31881600080a3005b6064906040519062461bcd60e51b82526004820152600d60248201526c139bdd0818dbdb999a5c9b5959609a1b6044820152fd5b346101b35760003660031901126101b357602047604051908152f35b346101b35760203660031901126101b35761142b6114fb565b6114336118d0565b61143c8161197a565b506001600160a01b03167f3525e22824a8a7df2c9a6029941c824cf95b6447f1e13d5128fd3826d35afe8b600080a2005b346101b35760003660031901126101b35760206040517fd8aa0f3194971a2a116679f7c2090f6939c8d4e01a2a8d7e41d55e5351469e638152f35b346101b35760203660031901126101b3576004359063ffffffff60e01b82168092036101b357602091637965db0b60e01b81149081156114ea575b5015158152f35b6301ffc9a760e01b149050836114e3565b600435906001600160a01b03821682036101b357565b602435906001600160a01b03821682036101b357565b919082519283825260005b848110611553575050826000602080949584010152601f8019910116010190565b602081830181015184830182015201611532565b9192608093611594929796959760018060a01b03168452602084015260a0604084015260a0830190611527565b94151560608201520152565b90600182811c921680156115d0575b60208310146115ba57565b634e487b7160e01b600052602260045260246000fd5b91607f16916115af565b8054600093926115e9826115a0565b918282526020936001916001811690816000146116515750600114611610575b5050505050565b90939495506000929192528360002092846000945b83861061163d57505050500101903880808080611609565b805485870183015294019385908201611625565b60ff19168685015250505090151560051b010191503880808080611609565b90601f8019910116810190811067ffffffffffffffff82111761096857604052565b9060606003198301126101b3576004356001600160a01b03811681036101b357916024359160443567ffffffffffffffff928382116101b357806023830112156101b35781600401359384116101b357602484830101116101b3576024019190565b156116fb57565b60405162461bcd60e51b815260206004820152601a60248201527f5472616e73616374696f6e20646f6573206e6f742065786973740000000000006044820152606490fd5b1561174757565b60405162461bcd60e51b815260206004820152601c60248201527f5472616e73616374696f6e20616c7265616479206578656375746564000000006044820152606490fd5b67ffffffffffffffff811161096857601f01601f191660200190565b3d156117d3573d906117b98261178c565b916117c76040519384611670565b82523d6000602084013e565b606090565b156117df57565b60405162461bcd60e51b815260206004820152601560248201527413dc9858db19481b9bdd0818dbdb999a59dd5c9959605a1b6044820152606490fd5b1561182357565b60405162461bcd60e51b815260206004820152601d60248201527f496e73756666696369656e742074726561737572792062616c616e63650000006044820152606490fd5b9190820391821161042c57565b1561187c57565b60405162461bcd60e51b815260206004820152601b60248201527f466f756e64657220637574207472616e73666572206661696c656400000000006044820152606490fd5b600019811461042c5760010190565b3360009081527fad3228b676f7d3cd4284a5443f17f1962b36e491b30a40b2405849e597ba5fb5602052604081205460ff1615610c595750565b3360009081527f059f08e7d7ba1c82eddc57afae67f80df851baf38a099607a779825038c3ce5b6020526040902054600080516020611bc58339815191529060ff1615610c595750565b80600052600060205260406000203360005260205260ff6040600020541615610c595750565b6001600160a01b031660008181527f059f08e7d7ba1c82eddc57afae67f80df851baf38a099607a779825038c3ce5b6020526040812054909190600080516020611bc58339815191529060ff1615611a135780835282602052604083208284526020526040832060ff1981541690557ff6391f5c32d9c69d2a47ea670b442974b53935d1edc7fd64eb21e047a839171b339380a4600190565b505090565b9060009180835282602052604083209160018060a01b03169182845260205260ff604084205416600014611a135780835282602052604083208284526020526040832060ff1981541690557ff6391f5c32d9c69d2a47ea670b442974b53935d1edc7fd64eb21e047a839171b339380a4600190565b600260015414611a9e576002600155565b604051633ee5aeb560e01b8152600490fd5b6001600160a01b031660008181527f059f08e7d7ba1c82eddc57afae67f80df851baf38a099607a779825038c3ce5b6020526040812054909190600080516020611bc58339815191529060ff16611a1357808352826020526040832082845260205260408320600160ff198254161790557f2f8788117e7eff1d82e926ec794901d17c78024a50270940304540a733656f0d339380a4600190565b9060009180835282602052604083209160018060a01b03169182845260205260ff60408420541615600014611a1357808352826020526040832082845260205260408320600160ff198254161790557f2f8788117e7eff1d82e926ec794901d17c78024a50270940304540a733656f0d339380a460019056fee2f4eaae4a9751e85a3e4a7b9587827a877f29914755229b07a7b2da98285f70a26469706673582212209fb73f054be75c707e53bfdab0546d4e08e42cd7f73232cf7f9d3cfdf5866f8064736f6c634300081800332f8788117e7eff1d82e926ec794901d17c78024a50270940304540a733656f0d",
  "linkReferences": {},
  "deployedLinkReferences": {}
}