{
  "_format": "hh-sol-artifact-1",
  "contractName": "Escrow",
  "sourceName": "contracts/Escrow.sol",
  "abi": [
    {
      "inputs": [
        {
          "internalType": "address",
          "name": "_propertyToken",
          "type": "address"
        }
      ],
      "stateMutability": "nonpayable",
      "type": "constructor"
    },
    {
      "inputs": [],
      "name": "AccessControlBadConfirmation",
      "type": "error"
    },
    {
      "inputs": [
        {
          "internalType": "address",
          "name": "account",
          "type": "address"
        },
        {
          "internalType": "bytes32",
          "name": "neededRole",
          "type": "bytes32"
        }
      ],
      "name": "AccessControlUnauthorizedAccount",
      "type": "error"
    },
    {
      "inputs": [],
      "name": "EnforcedPause",
      "type": "error"
    },
    {
      "inputs": [],
      "name": "ExpectedPause",
      "type": "error"
    },
    {
      "inputs": [],
      "name": "ReentrancyGuardReentrantCall",
      "type": "error"
    },
    {
      "anonymous": false,
      "inputs": [
        {
          "indexed": true,
          "internalType": "uint256",
          "name": "propertyId",
          "type": "uint256"
        },
        {
          "indexed": true,
          "internalType": "address",
          "name": "buyer",
          "type": "address"
        },
        {
          "indexed": false,
          "internalType": "uint256",
          "name": "amount",
          "type": "uint256"
        },
        {
          "indexed": false,
          "internalType": "uint256",
          "name": "totalPaid",
          "type": "uint256"
        },
        {
          "indexed": false,
          "internalType": "bytes32",
          "name": "transactionHash",
          "type": "bytes32"
        }
      ],
      "name": "CompliancePurchaseRecorded",
      "type": "event"
    },
    {
      "anonymous": false,
      "inputs": [
        {
          "indexed": true,
          "internalType": "uint256",
          "name": "propertyId",
          "type": "uint256"
        },
        {
          "indexed": false,
          "internalType": "uint256",
          "name": "totalRaised",
          "type": "uint256"
        }
      ],
      "name": "FundingComplete",
      "type": "event"
    },
    {
      "anonymous": false,
      "inputs": [
        {
          "indexed": true,
          "internalType": "uint256",
          "name": "propertyId",
          "type": "uint256"
        },
        {
          "indexed": false,
          "internalType": "uint256",
          "name": "totalRaised",
          "type": "uint256"
        },
        {
          "indexed": false,
          "internalType": "uint256",
          "name": "target",
          "type": "uint256"
        }
      ],
      "name": "FundingFailed",
      "type": "event"
    },
    {
      "anonymous": false,
      "inputs": [
        {
          "indexed": true,
          "internalType": "uint256",
          "name": "propertyId",
          "type": "uint256"
        },
        {
          "indexed": true,
          "internalType": "address",
          "name": "recipient",
          "type": "address"
        },
        {
          "indexed": false,
          "internalType": "uint256",
          "name": "amount",
          "type": "uint256"
        }
      ],
      "name": "FundsReleased",
      "type": "event"
    },
    {
      "anonymous": false,
      "inputs": [
        {
          "indexed": true,
          "internalType": "uint256",
          "name": "propertyId",
          "type": "uint256"
        },
        {
          "indexed": true,
          "internalType": "address",
          "name": "investor",
          "type": "address"
        },
        {
          "indexed": false,
          "internalType": "uint256",
          "name": "currentContribution",
          "type": "uint256"
        },
        {
          "indexed": false,
          "internalType": "uint256",
          "name": "newContribution",
          "type": "uint256"
        },
        {
          "indexed": false,
          "internalType": "bool",
          "name": "withinLimit",
          "type": "bool"
        }
      ],
      "name": "InvestorLimitChecked",
      "type": "event"
    },
    {
      "anonymous": false,
      "inputs": [
        {
          "indexed": false,
          "internalType": "address",
          "name": "account",
          "type": "address"
        }
      ],
      "name": "Paused",
      "type": "event"
    },
    {
      "anonymous": false,
      "inputs": [
        {
          "indexed": true,
          "internalType": "uint256",
          "name": "propertyId",
          "type": "uint256"
        },
        {
          "indexed": false,
          "internalType": "uint256",
          "name": "demandScore",
          "type": "uint256"
        },
        {
          "indexed": false,
          "internalType": "uint256",
          "name": "adjustedTarget",
          "type": "uint256"
        }
      ],
      "name": "PollDemandUpdated",
      "type": "event"
    },
    {
      "anonymous": false,
      "inputs": [
        {
          "indexed": true,
          "internalType": "uint256",
          "name": "propertyId",
          "type": "uint256"
        },
        {
          "indexed": true,
          "internalType": "address",
          "name": "buyer",
          "type": "address"
        },
        {
          "indexed": false,
          "internalType": "uint256",
          "name": "amount",
          "type": "uint256"
        },
        {
          "indexed": false,
          "internalType": "uint256",
          "name": "totalPaid",
          "type": "uint256"
        },
        {
          "indexed": false,
          "internalType": "uint256",
          "name": "timestamp",
          "type": "uint256"
        }
      ],
      "name": "PurchaseReceived",
      "type": "event"
    },
    {
      "anonymous": false,
      "inputs": [
        {
          "indexed": true,
          "internalType": "uint256",
          "name": "propertyId",
          "type": "uint256"
        },
        {
          "indexed": true,
          "internalType": "address",
          "name": "recipient",
          "type": "address"
        },
        {
          "indexed": false,
          "internalType": "uint256",
          "name": "principal",
          "type": "uint256"
        },
        {
          "indexed": false,
          "internalType": "uint256",
          "name": "interest",
          "type": "uint256"
        },
        {
          "indexed": false,
          "internalType": "uint256",
          "name": "timestamp",
          "type": "uint256"
        }
      ],
      "name": "RefundComplianceRecorded",
      "type": "event"
    },
    {
      "anonymous": false,
      "inputs": [
        {
          "indexed": true,
          "internalType": "uint256",
          "name": "propertyId",
          "type": "uint256"
        },
        {
          "indexed": true,
          "internalType": "address",
          "name": "buyer",
          "type": "address"
        },
        {
          "indexed": false,
          "internalType": "uint256",
          "name": "principal",
          "type": "uint256"
        },
        {
          "indexed": false,
          "internalType": "uint256",
          "name": "interest",
          "type": "uint256"
        },
        {
          "indexed": false,
          "internalType": "uint256",
          "name": "total",
          "type": "uint256"
        }
      ],
      "name": "RefundProcessed",
      "type": "event"
    },
    {
      "anonymous": false,
      "inputs": [
        {
          "indexed": true,
          "internalType": "bytes32",
          "name": "role",
          "type": "bytes32"
        },
        {
          "indexed": true,
          "internalType": "bytes32",
          "name": "previousAdminRole",
          "type": "bytes32"
        },
        {
          "indexed": true,
          "internalType": "bytes32",
          "name": "newAdminRole",
          "type": "bytes32"
        }
      ],
      "name": "RoleAdminChanged",
      "type": "event"
    },
    {
      "anonymous": false,
      "inputs": [
        {
          "indexed": true,
          "internalType": "bytes32",
          "name": "role",
          "type": "bytes32"
        },
        {
          "indexed": true,
          "internalType": "address",
          "name": "account",
          "type": "address"
        },
        {
          "indexed": true,
          "internalType": "address",
          "name": "sender",
          "type": "address"
        }
      ],
      "name": "RoleGranted",
      "type": "event"
    },
    {
      "anonymous": false,
      "inputs": [
        {
          "indexed": true,
          "internalType": "bytes32",
          "name": "role",
          "type": "bytes32"
        },
        {
          "indexed": true,
          "internalType": "address",
          "name": "account",
          "type": "address"
        },
        {
          "indexed": true,
          "internalType": "address",
          "name": "sender",
          "type": "address"
        }
      ],
      "name": "RoleRevoked",
      "type": "event"
    },
    {
      "anonymous": false,
      "inputs": [
        {
          "indexed": true,
          "internalType": "uint256",
          "name": "propertyId",
          "type": "uint256"
        },
        {
          "indexed": true,
          "internalType": "address",
          "name": "account",
          "type": "address"
        },
        {
          "indexed": false,
          "internalType": "string",
          "name": "activityType",
          "type": "string"
        },
        {
          "indexed": false,
          "internalType": "uint256",
          "name": "timestamp",
          "type": "uint256"
        }
      ],
      "name": "SuspiciousActivityReported",
      "type": "event"
    },
    {
      "anonymous": false,
      "inputs": [
        {
          "indexed": false,
          "internalType": "address",
          "name": "account",
          "type": "address"
        }
      ],
      "name": "Unpaused",
      "type": "event"
    },
    {
      "inputs": [],
      "name": "AML_THRESHOLD",
      "outputs": [
        {
          "internalType": "uint256",
          "name": "",
          "type": "uint256"
        }
      ],
      "stateMutability": "view",
      "type": "function"
    },
    {
      "inputs": [],
      "name": "BASIS_POINTS",
      "outputs": [
        {
          "internalType": "uint256",
          "name": "",
          "type": "uint256"
        }
      ],
      "stateMutability": "view",
      "type": "function"
    },
    {
      "inputs": [],
      "name": "DEFAULT_ADMIN_ROLE",
      "outputs": [
        {
          "internalType": "bytes32",
          "name": "",
          "type": "bytes32"
        }
      ],
      "stateMutability": "view",
      "type": "function"
    },
    {
      "inputs": [],
      "name": "MAX_DEMAND_BONUS",
      "outputs": [
        {
          "internalType": "uint256",
          "name": "",
          "type": "uint256"
        }
      ],
      "stateMutability": "view",
      "type": "function"
    },
    {
      "inputs": [],
      "name": "OPERATOR_ROLE",
      "outputs": [
        {
          "internalType": "bytes32",
          "name": "",
          "type": "bytes32"
        }
      ],
      "stateMutability": "view",
      "type": "function"
    },
    {
      "inputs": [],
      "name": "REFUND_APR",
      "outputs": [
        {
          "internalType": "uint256",
          "name": "",
          "type": "uint256"
        }
      ],
      "stateMutability": "view",
      "type": "function"
    },
    {
      "inputs": [],
      "name": "SECONDS_PER_YEAR",
      "outputs": [
        {
          "internalType": "uint256",
          "name": "",
          "type": "uint256"
        }
      ],
      "stateMutability": "view",
      "type": "function"
    },
    {
      "inputs": [
        {
          "internalType": "uint256",
          "name": "",
          "type": "uint256"
        }
      ],
      "name": "activeProperties",
      "outputs": [
        {
          "internalType": "uint256",
          "name": "",
          "type": "uint256"
        }
      ],
      "stateMutability": "view",
      "type": "function"
    },
    {
      "inputs": [],
      "name": "amlOracle",
      "outputs": [
        {
          "internalType": "contract IAMLOracle",
          "name": "",
          "type": "address"
        }
      ],
      "stateMutability": "view",
      "type": "function"
    },
    {
      "inputs": [
        {
          "internalType": "uint256",
          "name": "",
          "type": "uint256"
        }
      ],
      "name": "baseFundingTargets",
      "outputs": [
        {
          "internalType": "uint256",
          "name": "",
          "type": "uint256"
        }
      ],
      "stateMutability": "view",
      "type": "function"
    },
    {
      "inputs": [
        {
          "internalType": "uint256",
          "name": "",
          "type": "uint256"
        },
        {
          "internalType": "address",
          "name": "",
          "type": "address"
        }
      ],
      "name": "buyerContributions",
      "outputs": [
        {
          "internalType": "uint256",
          "name": "",
          "type": "uint256"
        }
      ],
      "stateMutability": "view",
      "type": "function"
    },
    {
      "inputs": [
        {
          "internalType": "uint256",
          "name": "principal",
          "type": "uint256"
        },
        {
          "internalType": "uint256",
          "name": "investmentTimestamp",
          "type": "uint256"
        }
      ],
      "name": "calculateRefund",
      "outputs": [
        {
          "internalType": "uint256",
          "name": "",
          "type": "uint256"
        }
      ],
      "stateMutability": "view",
      "type": "function"
    },
    {
      "inputs": [
        {
          "internalType": "bytes",
          "name": "",
          "type": "bytes"
        }
      ],
      "name": "checkUpkeep",
      "outputs": [
        {
          "internalType": "bool",
          "name": "upkeepNeeded",
          "type": "bool"
        },
        {
          "internalType": "bytes",
          "name": "performData",
          "type": "bytes"
        }
      ],
      "stateMutability": "view",
      "type": "function"
    },
    {
      "inputs": [
        {
          "internalType": "uint256",
          "name": "propertyId",
          "type": "uint256"
        }
      ],
      "name": "getDemandAdjustedTarget",
      "outputs": [
        {
          "internalType": "uint256",
          "name": "baseTarget",
          "type": "uint256"
        },
        {
          "internalType": "uint256",
          "name": "adjustedTarget",
          "type": "uint256"
        },
        {
          "internalType": "uint256",
          "name": "demandScore",
          "type": "uint256"
        }
      ],
      "stateMutability": "view",
      "type": "function"
    },
    {
      "inputs": [
        {
          "internalType": "uint256",
          "name": "propertyId",
          "type": "uint256"
        }
      ],
      "name": "getEscrowStatus",
      "outputs": [
        {
          "internalType": "uint256",
          "name": "totalRaised",
          "type": "uint256"
        },
        {
          "internalType": "uint256",
          "name": "fundingTarget",
          "type": "uint256"
        },
        {
          "internalType": "uint256",
          "name": "deadline",
          "type": "uint256"
        },
        {
          "internalType": "bool",
          "name": "isComplete",
          "type": "bool"
        },
        {
          "internalType": "uint256",
          "name": "percentFunded",
          "type": "uint256"
        }
      ],
      "stateMutability": "view",
      "type": "function"
    },
    {
      "inputs": [
        {
          "internalType": "uint256",
          "name": "propertyId",
          "type": "uint256"
        },
        {
          "internalType": "address",
          "name": "investor",
          "type": "address"
        }
      ],
      "name": "getInvestorContribution",
      "outputs": [
        {
          "internalType": "uint256",
          "name": "",
          "type": "uint256"
        }
      ],
      "stateMutability": "view",
      "type": "function"
    },
    {
      "inputs": [
        {
          "internalType": "uint256",
          "name": "propertyId",
          "type": "uint256"
        }
      ],
      "name": "getPurchaseCount",
      "outputs": [
        {
          "internalType": "uint256",
          "name": "",
          "type": "uint256"
        }
      ],
      "stateMutability": "view",
      "type": "function"
    },
    {
      "inputs": [
        {
          "internalType": "uint256",
          "name": "propertyId",
          "type": "uint256"
        },
        {
          "internalType": "uint256",
          "name": "index",
          "type": "uint256"
        }
      ],
      "name": "getPurchaseForAudit",
      "outputs": [
        {
          "internalType": "address",
          "name": "buyer",
          "type": "address"
        },
        {
          "internalType": "uint256",
          "name": "amount",
          "type": "uint256"
        },
        {
          "internalType": "uint256",
          "name": "price",
          "type": "uint256"
        },
        {
          "internalType": "uint256",
          "name": "totalPaid",
          "type": "uint256"
        },
        {
          "internalType": "uint256",
          "name": "timestamp",
          "type": "uint256"
        },
        {
          "internalType": "bool",
          "name": "refunded",
          "type": "bool"
        }
      ],
      "stateMutability": "view",
      "type": "function"
    },
    {
      "inputs": [
        {
          "internalType": "uint256",
          "name": "propertyId",
          "type": "uint256"
        }
      ],
      "name": "getPurchases",
      "outputs": [
        {
          "components": [
            {
              "internalType": "address",
              "name": "buyer",
              "type": "address"
            },
            {
              "internalType": "uint256",
              "name": "propertyId",
              "type": "uint256"
            },
            {
              "internalType": "uint256",
              "name": "amount",
              "type": "uint256"
            },
            {
              "internalType": "uint256",
              "name": "price",
              "type": "uint256"
            },
            {
              "internalType": "uint256",
              "name": "totalPaid",
              "type": "uint256"
            },
            {
              "internalType": "uint256",
              "name": "timestamp",
              "type": "uint256"
            },
            {
              "internalType": "bool",
              "name": "refunded",
              "type": "bool"
            }
          ],
          "internalType": "struct Escrow.Purchase[]",
          "name": "",
          "type": "tuple[]"
        }
      ],
      "stateMutability": "view",
      "type": "function"
    },
    {
      "inputs": [
        {
          "internalType": "bytes32",
          "name": "role",
          "type": "bytes32"
        }
      ],
      "name": "getRoleAdmin",
      "outputs": [
        {
          "internalType": "bytes32",
          "name": "",
          "type": "bytes32"
        }
      ],
      "stateMutability": "view",
      "type": "function"
    },
    {
      "inputs": [
        {
          "internalType": "bytes32",
          "name": "role",
          "type": "bytes32"
        },
        {
          "internalType": "address",
          "name": "account",
          "type": "address"
        }
      ],
      "name": "grantRole",
      "outputs": [],
      "stateMutability": "nonpayable",
      "type": "function"
    },
    {
      "inputs": [
        {
          "internalType": "bytes32",
          "name": "role",
          "type": "bytes32"
        },
        {
          "internalType": "address",
          "name": "account",
          "type": "address"
        }
      ],
      "name": "hasRole",
      "outputs": [
        {
          "internalType": "bool",
          "name": "",
          "type": "bool"
        }
      ],
      "stateMutability": "view",
      "type": "function"
    },
    {
      "inputs": [
        {
          "internalType": "uint256",
          "name": "propertyId",
          "type": "uint256"
        },
        {
          "internalType": "uint256",
          "name": "fundingTarget",
          "type": "uint256"
        },
        {
          "internalType": "uint256",
          "name": "deadline",
          "type": "uint256"
        }
      ],
      "name": "initializeEscrow",
      "outputs": [],
      "stateMutability": "nonpayable",
      "type": "function"
    },
    {
      "inputs": [
        {
          "internalType": "uint256",
          "name": "",
          "type": "uint256"
        }
      ],
      "name": "isPropertyActive",
      "outputs": [
        {
          "internalType": "bool",
          "name": "",
          "type": "bool"
        }
      ],
      "stateMutability": "view",
      "type": "function"
    },
    {
      "inputs": [],
      "name": "pause",
      "outputs": [],
      "stateMutability": "nonpayable",
      "type": "function"
    },
    {
      "inputs": [],
      "name": "paused",
      "outputs": [
        {
          "internalType": "bool",
          "name": "",
          "type": "bool"
        }
      ],
      "stateMutability": "view",
      "type": "function"
    },
    {
      "inputs": [
        {
          "internalType": "bytes",
          "name": "performData",
          "type": "bytes"
        }
      ],
      "name": "performUpkeep",
      "outputs": [],
      "stateMutability": "nonpayable",
      "type": "function"
    },
    {
      "inputs": [
        {
          "internalType": "uint256",
          "name": "",
          "type": "uint256"
        }
      ],
      "name": "pollDemandScores",
      "outputs": [
        {
          "internalType": "uint256",
          "name": "",
          "type": "uint256"
        }
      ],
      "stateMutability": "view",
      "type": "function"
    },
    {
      "inputs": [
        {
          "internalType": "uint256",
          "name": "propertyId",
          "type": "uint256"
        }
      ],
      "name": "processRefunds",
      "outputs": [],
      "stateMutability": "nonpayable",
      "type": "function"
    },
    {
      "inputs": [
        {
          "internalType": "uint256",
          "name": "",
          "type": "uint256"
        }
      ],
      "name": "propertyEscrows",
      "outputs": [
        {
          "internalType": "uint256",
          "name": "totalRaised",
          "type": "uint256"
        },
        {
          "internalType": "uint256",
          "name": "fundingTarget",
          "type": "uint256"
        },
        {
          "internalType": "uint256",
          "name": "deadline",
          "type": "uint256"
        },
        {
          "internalType": "bool",
          "name": "isComplete",
          "type": "bool"
        },
        {
          "internalType": "bool",
          "name": "refundsProcessed",
          "type": "bool"
        }
      ],
      "stateMutability": "view",
      "type": "function"
    },
    {
      "inputs": [
        {
          "internalType": "uint256",
          "name": "",
          "type": "uint256"
        },
        {
          "internalType": "uint256",
          "name": "",
          "type": "uint256"
        }
      ],
      "name": "propertyPurchases",
      "outputs": [
        {
          "internalType": "address",
          "name": "buyer",
          "type": "address"
        },
        {
          "internalType": "uint256",
          "name": "propertyId",
          "type": "uint256"
        },
        {
          "internalType": "uint256",
          "name": "amount",
          "type": "uint256"
        },
        {
          "internalType": "uint256",
          "name": "price",
          "type": "uint256"
        },
        {
          "internalType": "uint256",
          "name": "totalPaid",
          "type": "uint256"
        },
        {
          "internalType": "uint256",
          "name": "timestamp",
          "type": "uint256"
        },
        {
          "internalType": "bool",
          "name": "refunded",
          "type": "bool"
        }
      ],
      "stateMutability": "view",
      "type": "function"
    },
    {
      "inputs": [],
      "name": "propertyToken",
      "outputs": [
        {
          "internalType": "contract IPropertyToken",
          "name": "",
          "type": "address"
        }
      ],
      "stateMutability": "view",
      "type": "function"
    },
    {
      "inputs": [
        {
          "internalType": "uint256",
          "name": "propertyId",
          "type": "uint256"
        },
        {
          "internalType": "uint256",
          "name": "amount",
          "type": "uint256"
        }
      ],
      "name": "purchase",
      "outputs": [],
      "stateMutability": "payable",
      "type": "function"
    },
    {
      "inputs": [
        {
          "internalType": "uint256",
          "name": "propertyId",
          "type": "uint256"
        },
        {
          "internalType": "address",
          "name": "recipient",
          "type": "address"
        }
      ],
      "name": "releaseFunds",
      "outputs": [],
      "stateMutability": "nonpayable",
      "type": "function"
    },
    {
      "inputs": [
        {
          "internalType": "bytes32",
          "name": "role",
          "type": "bytes32"
        },
        {
          "internalType": "address",
          "name": "callerConfirmation",
          "type": "address"
        }
      ],
      "name": "renounceRole",
      "outputs": [],
      "stateMutability": "nonpayable",
      "type": "function"
    },
    {
      "inputs": [
        {
          "internalType": "uint256",
          "name": "propertyId",
          "type": "uint256"
        },
        {
          "internalType": "address",
          "name": "account",
          "type": "address"
        },
        {
          "internalType": "string",
          "name": "activityType",
          "type": "string"
        }
      ],
      "name": "reportSuspiciousActivity",
      "outputs": [],
      "stateMutability": "nonpayable",
      "type": "function"
    },
    {
      "inputs": [
        {
          "internalType": "bytes32",
          "name": "role",
          "type": "bytes32"
        },
        {
          "internalType": "address",
          "name": "account",
          "type": "address"
        }
      ],
      "name": "revokeRole",
      "outputs": [],
      "stateMutability": "nonpayable",
      "type": "function"
    },
    {
      "inputs": [
        {
          "internalType": "address",
          "name": "_oracle",
          "type": "address"
        }
      ],
      "name": "setAMLOracle",
      "outputs": [],
      "stateMutability": "nonpayable",
      "type": "function"
    },
    {
      "inputs": [
        {
          "internalType": "bytes4",
          "name": "interfaceId",
          "type": "bytes4"
        }
      ],
      "name": "supportsInterface",
      "outputs": [
        {
          "internalType": "bool",
          "name": "",
          "type": "bool"
        }
      ],
      "stateMutability": "view",
      "type": "function"
    },
    {
      "inputs": [],
      "name": "unpause",
      "outputs": [],
      "stateMutability": "nonpayable",
      "type": "function"
    },
    {
      "inputs": [
        {
          "internalType": "uint256",
          "name": "propertyId",
          "type": "uint256"
        },
        {
          "internalType": "uint256",
          "name": "demandScore",
          "type": "uint256"
        }
      ],
      "name": "updatePollDemand",
      "outputs": [],
      "stateMutability": "nonpayable",
      "type": "function"
    },
    {
      "stateMutability": "payable",
      "type": "receive"
    }
  ],
  "bytecode": "0x608034620000a457601f6200243f38819003918201601f19168301916001600160401b03831184841017620000a957808492602094604052833981010312620000a457516001600160a01b0381168103620000a45760018055600280546001600160a81b03191660089290921b610100600160a81b03169190911790556200008733620000bf565b5062000093336200013f565b5060405161223d9081620001e28239f35b600080fd5b634e487b7160e01b600052604160045260246000fd5b6001600160a01b031660008181527fad3228b676f7d3cd4284a5443f17f1962b36e491b30a40b2405849e597ba5fb5602052604081205490919060ff166200013b57818052816020526040822081835260205260408220600160ff1982541617905533916000805160206200241f8339815191528180a4600190565b5090565b6001600160a01b031660008181527fee57cd81e84075558e8fcc182a1f4393f91fc97f963a136e66b7f949a62f319f60205260408120549091907f97667070c54ef182b0f5858b034beac1b6f3089aa2d3188bb1e8929f4fa9b9299060ff16620001dc57808352826020526040832082845260205260408320600160ff198254161790556000805160206200241f833981519152339380a4600190565b50509056fe608080604052600436101561001d575b50361561001b57600080fd5b005b60009060e0823560e01c91826301ffc9a714611c3057508163066d4d5e14611aae57816311e2e1751461163857816314a2873a14611a91578163154bb89114611a625781631af23a59146118fb578163213b8f73146118d25781632430fc3d14611873578163248a9ca3146118475781632b904a791461181d5781632f2ff15d146117e0578163345460cd1461172f57816336568abe146116e75781633f4ba83a1461167c57816340a0841b1461163857816343ae26951461160b5781634585e33b1461150957816350e2f0f7146114455781635c975abb146114225781636e04ff0d1461138e5781636f629ed5146112125750806370876c9814610b9a5780637f42ff6414610aef5780638456cb5914610a945780638b7155d214610a4a5780639093bb2014610a2057806391d14854146109d5578063a217fddf146109b9578063a8b268de14610980578063b6607cc514610964578063b7fe095314610909578063be4ac3dc14610784578063be6d243e1461075a578063bf9586e01461073d578063c6f5690114610352578063d2e0f66e146102c8578063d547741f14610287578063e1f1c4a71461026a578063e38abd0f14610248578063e6a69ab8146102295763f5b541a60361000f573461022657806003193601126102265760206040517f97667070c54ef182b0f5858b034beac1b6f3089aa2d3188bb1e8929f4fa9b9298152f35b80fd5b503461022657806003193601126102265760206040516301e133808152f35b503461022657602061026261025c36611cc8565b90611fc3565b604051908152f35b503461022657806003193601126102265760206040516127108152f35b5034610226576040366003190112610226576102c46004356102a7611c85565b90808452836020526102bf60016040862001546120ad565b612174565b5080f35b5034610226576102d736611cc8565b919081526004602052604081209081548310156102265760e06102fa8484611d2b565b5060018060a01b03815416906001810154906002810154600382015460048301549160ff600660058601549501541694604051968752602087015260408601526060850152608084015260a0830152151560c0820152f35b50346102265760203660031901126102265761036c6120d3565b6004358152600560205260408120600860205261038f60ff604084205416611dfe565b60038101805460ff81166106ff576103ad6002840154421015611e7f565b60ff8160081c166106ba576101009061ff001916179055805460018092015460405191825260208201527fe530e08c8f5e186cb204c6c0e883b12ddbcd56a383e4113f06dbee1e09fde7c6604060043592a26004358252600460205280604083208184905b610435575b5050506004358252600860205260408220805460ff19169055805580f35b81548110156106b5576104488183611d2b565b506006810180549060ff821615610465575b505050820182610412565b9092919461047c6004870154600588015490611fc3565b60ff199094161790556002548454604051627eeac760e11b81526001600160a01b039182166004808301829052356024830152899360081c9092169190602081604481865afa9081156106aa578491610670575b50806105f7575b5050508080808560018060a01b038954165af16104f2611d96565b50156105b957849384927fae5e4bdebc0d69f9b0be70b5e09166a1e47166c306633f938b7d07cef8d1a7906105ae61058c600460018060a01b03865416950154848661053f838098611fb6565b7f35b1f7e4c3146d284962cc37abf509799d0f4be30b6a19d025ba7309302c948760405180610584866004359589846040919493926060820195825260208201520152565b0390a3611fb6565b6040805194855260208501919091524290840152600435929081906060820190565b0390a390388061045a565b60405162461bcd60e51b81526020600482015260166024820152751499599d5b99081d1c985b9cd9995c8819985a5b195960521b6044820152606490fd5b823b1561066c57604051631dd85adb60e11b815260048035908201526001600160a01b0392909216602483015260448201529082908290606490829084905af1801561066157610649575b80806104d7565b61065290611d47565b61065d578538610642565b8580fd5b6040513d84823e3d90fd5b8380fd5b9350506020833d6020116106a2575b8161068c60209383611d75565b8101031261069d57889251386104d0565b600080fd5b3d915061067f565b6040513d86823e3d90fd5b610417565b60405162461bcd60e51b815260206004820152601960248201527f526566756e647320616c72656164792070726f636573736564000000000000006044820152606490fd5b60405162461bcd60e51b8152602060048201526016602482015275119d5b991a5b99c81dd85cc81cdd58d8d95cdcd99d5b60521b6044820152606490fd5b503461022657806003193601126102265760206040516109c48152f35b50346102265760203660031901126102265760406020916004358152600a83522054604051908152f35b50346102265761079336611cc8565b61079b611ff9565b8183526020600881526107b460ff604086205416611dfe565b6127108083116108cd5783855260058252604085209060ff6003830154166108885784865260098352836040872055600a835260408620549086611b58861015610848575b9261083783604096936108307f11048d4b31e45dea888dfccd9163b3bfd669feedfea3a6f44938ac90d77c2f9a9997600197611dd5565b0490611fa9565b92839101558351928352820152a280f35b50611b57198501858111610874576109c49081810291818304149015171561087457610bb890046107f9565b634e487b7160e01b88526011600452602488fd5b60405162461bcd60e51b815260048101849052601860248201527f46756e64696e6720616c726561647920636f6d706c65746500000000000000006044820152606490fd5b60405162461bcd60e51b8152600481018390526014602482015273496e76616c69642064656d616e642073636f726560601b6044820152606490fd5b5034610226576020366003190112610226576004358152600a602052604081205460056020526109606040600181852001549360096020522054604051938493846040919493926060820195825260208201520152565b0390f35b5034610226578060031936011261022657602060405160508152f35b503461022657602036600319011261022657600435906007548210156102265760206109ab83611cde565b90546040519160031b1c8152f35b5034610226578060031936011261022657602090604051908152f35b50346102265760403660031901126102265760406109f1611c85565b91600435815280602052209060018060a01b0316600052602052602060ff604060002054166040519015158152f35b50346102265760203660031901126102265760406020916004358152600483522054604051908152f35b5034610226576020366003190112610226576004356001600160a01b0381169081900361069d57610a79612073565b6bffffffffffffffffffffffff60a01b600354161760035580f35b5034610226578060031936011261022657610aad612073565b610ab56121e9565b600160ff1960025416176002557f62e78cea01bee320cd4e420270b5ea74000d11b0c9f74754ebdbfc544b05a2586020604051338152a180f35b503461022657606036600319011261022657610b09611c85565b6044356001600160401b038111610b9657610b497f3914d40c9fe0daebd442d05df43dd630d415a8ce81ce1695843ca510f4f1c4f5913690600401611c9b565b919092610b54611ff9565b8260405194604086528160408701526060860137846060848601015242602085015260018060a01b03169260608160043594601f80199101168101030190a380f35b8280fd5b50610ba436611cc8565b610bac6120d3565b610bb46121e9565b818352600560205260408320906008602052610bd660ff604086205416611dfe565b610be760ff60038401541615611e40565b60028201544210156111cd5760035484906001600160a01b0316806110d4575b50506002546040516362ae87ab60e11b815260048101859052906020908290602490829060081c6001600160a01b03165afa9081156110c9578591611097575b50610c528282611dd5565b9081341061105b5784865260046020526040862060405191610c7383611d5a565b33835286602084015284604084015260608301528260808301524260a08301528660c0830152805490600160401b8210156110475790610cb891600182018155611d2b565b9190916110335790600660c0610d319360018060a01b038151166bffffffffffffffffffffffff60a01b8554161784556020810151600185015560408101516002850155606081015160038501556080810151600485015560a081015160058501550151151591019060ff801983541691151516179055565b610d3c818454611fa9565b8355838552600660205260408520336000526020526040600020610d61828254611fa9565b9055600254859060081c6001600160a01b0316803b15610fae576040516346b40cdf60e11b815260048101879052336024820152604481018590529082908290606490829084905af180156106615761101b575b5050803411610fc8575b604051847f076d4a8f0927f81646eba8e062c7769238e76316ca0f16820b27d377c2becc1e339280610e04428789846040919493926060820195825260208201520152565b0390a36040519160208301904282523360601b60408501528560548501528060748501526074845260a08401918483106001600160401b03841117610fb257610ea29460e09184604052815190209284528460c08201520152847f2ded55fd793d860b77d0778a0cdf6984909d323e049f1ed2923eba867202b36160603393a383855260066020526040852033600052602052604060002054611fb6565b82845260066020526040842033600052602052604060002054604051918252602082015260016040820152827f42d3cd62f75f9115471aa0a6ef108d9e0fef8e5b6913419befd8a166879def4f60603393a3600181549101541115610f0a575b506001805580f35b80825260056020526040822060038101805460ff19166001179055600254839060081c6001600160a01b0316803b15610fae578180916024604051809481936362b3375960e11b83528960048401525af1801561066157610f9a575b505060207fa94752e9c9082234a8789d877418277dfc7f671e8c27e4a3c22928cae04473129154604051908152a238610f02565b610fa390611d47565b610b96578238610f66565b5080fd5b634e487b7160e01b600052604160045260246000fd5b84808080610fd68534611fb6565b335af1610fe1611d96565b50610dbf5760405162461bcd60e51b815260206004820152600d60248201526c1499599d5b990819985a5b1959609a1b6044820152606490fd5b61102490611d47565b61102f578438610db5565b8480fd5b634e487b7160e01b87526004879052602487fd5b634e487b7160e01b88526041600452602488fd5b60405162461bcd60e51b8152602060048201526014602482015273125b9cdd59999a58da595b9d081c185e5b595b9d60621b6044820152606490fd5b90506020813d6020116110c1575b816110b260209383611d75565b8101031261069d575138610c47565b3d91506110a5565b6040513d87823e3d90fd5b602090602460405180948193633c84af8760e01b83523360048401525af180156110c957859061119a575b605091501161110f578338610c07565b826040519060408252600e60408301526d4869676820414d4c2053636f726560901b60608301524260208301527f3914d40c9fe0daebd442d05df43dd630d415a8ce81ce1695843ca510f4f1c4f560803393a360405162461bcd60e51b815260206004820152601060248201526f1053530818da1958dac819985a5b195960821b6044820152606490fd5b506020813d6020116111c5575b816111b460209383611d75565b8101031261069d57605090516110ff565b3d91506111a7565b60405162461bcd60e51b815260206004820152601760248201527f46756e64696e6720646561646c696e65207061737365640000000000000000006044820152606490fd5b823461022657602090816003193601126102265760043581526004825260408120918254916001600160401b03831161137a57909392916005906040519161125f878360051b0184611d75565b81835286830190819585528785209085925b8484106113055750505050506040519485948186019282875251809352604086019493905b8382106112a35786860387f35b845180516001600160a01b03168752808401518785015260408082015190880152606080820151908801526080808201519088015260a0808201519088015260c090810151151590870152879650948501949382019360019190910190611296565b60078a60019260409c99989a9b9c5161131d81611d5a565b848060a01b03875416815284870154838201526002870154604082015260038701546060820152600487015460808201528587015460a082015260ff600688015416151560c0820152815201930193019291989796949598611271565b634e487b7160e01b81526041600452602490fd5b8234610226576020906020600319360112610226576004356001600160401b038111610fae576113c383913690600401611c9b565b50506113cd611ec2565b916040519384921515835260406020840152835191826040850152815b83811061140b57505060608094508284010152601f80199101168101030190f35b8086018201518782016060015286945081016113ea565b8234610226578060031936011261022657602060ff600254166040519015158152f35b82346102265761145436611cc8565b8183929352600460205260408220548110156114ce5760408260c0946114809452600460205220611d2b565b5060018060a01b0381541690600281015490600381015460048201549060ff6006600585015494015416936040519586526020860152604085015260608401526080830152151560a0820152f35b60405162461bcd60e51b8152602060048201526013602482015272496e646578206f7574206f6620626f756e647360681b6044820152606490fd5b8234610226576020366003190112610226576004356001600160401b038111610fae5761153c6020913690600401611c9b565b9080929181010312610fae5735808252600560205260408220600860205261156a60ff604085205416611dfe565b60ff600382015461157d82821615611e40565b60081c166115d2576002611595910154421015611e7f565b303b15610fae576040519063c6f5690160e01b82526004820152818160248183305af18015610661576115c6575080f35b6115cf90611d47565b80f35b60405162461bcd60e51b81526020600482015260116024820152701499599d5b991cc81c1c9bd8d95cdcd959607a1b6044820152606490fd5b823461022657806003193601126102265760025460405160089190911c6001600160a01b03168152602090f35b8234610226576040366003190112610226576040602091611657611c85565b6004358252600684528282206001600160a01b03909116825283522054604051908152f35b8234610226578060031936011261022657611695612073565b60025460ff8116156116d55760ff19166002557f5db9ee0a495bf2e6ff9c91a7834c1ba4fdd244a5e8aa4e537bd38aeae4b073aa6020604051338152a180f35b604051638dfc202b60e01b8152600490fd5b823461022657604036600319011261022657611701611c85565b336001600160a01b0382160361171d576102c490600435612174565b60405163334bd91960e11b8152600490fd5b82346102265760203660031901126102265760043581526005602052604081206001810154801592836117d657825493612710948581029581870414901517156117c2576117ae57508060a09304905b82549260ff60036002830154920154169160405194855260208501526040840152151560608301526080820152f35b634e487b7160e01b81526012600452602490fd5b634e487b7160e01b82526011600452602482fd5b60a093509061177f565b8234610226576040366003190112610226576102c4600435611800611c85565b908084528360205261181860016040862001546120ad565b6120f6565b82346102265760203660031901126102265760406020916004358152600983522054604051908152f35b823461022657602036600319011261022657600160406020926004358152808452200154604051908152f35b823461022657602036600319011261022657604060a091600435815260056020522060ff8154916001810154906003600282015491015491604051948552602085015260408401528181161515606084015260081c1615156080820152f35b82346102265780600319360112610226576003546040516001600160a01b039091168152602090f35b823461022657604036600319011261022657600435611918611c85565b90611921611ff9565b6119296120d3565b808352602060058152604084209260ff60038501541615611a265783549384156119eb578590558285526008825260408520805460ff191690556001600160a01b0316928480808084885af161197d611d96565b50156119b457907f6e3c6096795c8298a218b2cfb8bde42726ff7c9a3d27b4d3ba41ab7f74feb5fb91604051908152a36001805580f35b60405162461bcd60e51b815260048101839052600f60248201526e151c985b9cd9995c8819985a5b1959608a1b6044820152606490fd5b60405162461bcd60e51b81526004810184905260136024820152724e6f2066756e647320746f2072656c6561736560681b6044820152606490fd5b60405162461bcd60e51b815260048101839052601460248201527346756e64696e67206e6f7420636f6d706c65746560601b6044820152606490fd5b82346102265760203660031901126102265760ff60406020926004358152600884522054166040519015158152f35b8234610226578060031936011261022657602060405161012c8152f35b82346102265760603660031901126102265760043590602435611acf611ff9565b8282526020906008825260ff604084205416611bf357838352600a82528060408420556040519060a082018281106001600160401b03821117611bdf57604052838252828201908152611b69600360408401936044358552606081019487865260808201948886528989526005885260408920925183555160018301555160028201550192511515839060ff801983541691151516179055565b51815461ff00191690151560081b61ff001617905560075492600160401b841015611bcb57611ba18460016008959601600755611cde565b81549060031b9083821b91600019901b191617905583525260408120600160ff1982541617905580f35b634e487b7160e01b83526041600452602483fd5b634e487b7160e01b85526041600452602485fd5b60405162461bcd60e51b8152600481018390526015602482015274457363726f7720616c72656164792065786973747360581b6044820152606490fd5b839034610fae576020366003190112610fae5760043563ffffffff60e01b8116809103610b965760209250637965db0b60e01b8114908115611c74575b5015158152f35b6301ffc9a760e01b14905083611c6d565b602435906001600160a01b038216820361069d57565b9181601f8401121561069d578235916001600160401b03831161069d576020838186019501011161069d57565b604090600319011261069d576004359060243590565b600754811015611d155760076000527fa66cc928b5edb82af9bd49922954155ab7b0942694bea4ce44661d9a8736c6880190600090565b634e487b7160e01b600052603260045260246000fd5b8054821015611d15576000526007602060002091020190600090565b6001600160401b038111610fb257604052565b60e081019081106001600160401b03821117610fb257604052565b90601f801991011681019081106001600160401b03821117610fb257604052565b3d15611dd0573d906001600160401b038211610fb25760405191611dc4601f8201601f191660200184611d75565b82523d6000602084013e565b606090565b81810292918115918404141715611de857565b634e487b7160e01b600052601160045260246000fd5b15611e0557565b60405162461bcd60e51b815260206004820152601360248201527250726f7065727479206e6f742061637469766560681b6044820152606490fd5b15611e4757565b60405162461bcd60e51b815260206004820152601060248201526f46756e64696e6720636f6d706c65746560801b6044820152606490fd5b15611e8657565b60405162461bcd60e51b8152602060048201526014602482015273111958591b1a5b99481b9bdd081c995858da195960621b6044820152606490fd5b60075460005b818110611ef7575050600090604051602081018181106001600160401b03821117610fb2576040526000815290565b611f0081611cde565b9054600391821b1c908160005260206005815260409182600020600880845260ff90818660002054169384611f9b575b84611f8a575b50505081611f7b575b50611f4f57505050600101611ec8565b919493508092505193818501528352808301908382106001600160401b03831117610fb2575260019190565b60029150015442101538611f3f565b830154901c16159150388080611f36565b838101548316159450611f30565b91908201809211611de857565b91908203918211611de857565b90611fce9042611fb6565b9061012c91828202928284041482151715611de85761083064496cebb80091611ff694611dd5565b90565b3360009081527fee57cd81e84075558e8fcc182a1f4393f91fc97f963a136e66b7f949a62f319f60205260409020547f97667070c54ef182b0f5858b034beac1b6f3089aa2d3188bb1e8929f4fa9b9299060ff16156120555750565b6044906040519063e2517d3f60e01b82523360048301526024820152fd5b3360009081527fad3228b676f7d3cd4284a5443f17f1962b36e491b30a40b2405849e597ba5fb5602052604081205460ff16156120555750565b80600052600060205260406000203360005260205260ff60406000205416156120555750565b6002600154146120e4576002600155565b604051633ee5aeb560e01b8152600490fd5b9060009180835282602052604083209160018060a01b03169182845260205260ff6040842054161560001461216f57808352826020526040832082845260205260408320600160ff198254161790557f2f8788117e7eff1d82e926ec794901d17c78024a50270940304540a733656f0d339380a4600190565b505090565b9060009180835282602052604083209160018060a01b03169182845260205260ff60408420541660001461216f5780835282602052604083208284526020526040832060ff1981541690557ff6391f5c32d9c69d2a47ea670b442974b53935d1edc7fd64eb21e047a839171b339380a4600190565b60ff600254166121f557565b60405163d93c066560e01b8152600490fdfea2646970667358221220743e4f5a9bacccece52194025a67cf170aeedddcfbbc19e6fa9ac45fe385c2ac64736f6c634300081800332f8788117e7eff1d82e926ec794901d17c78024a50270940304540a733656f0d",
  "linkReferences": {},
  "deployedLinkReferences": {}
}