{
  "_format": "hh-sol-artifact-1",
  "contractName": "Escrow",
  "sourceName": "contracts/Escrow.sol",
  "abi": [
    {
      "inputs": [
        {
          "internalType": "address",
          "name": "_propertyToken",
          "type": "address"
        }
      ],
      "stateMutability": "nonpayable",
      "type": "constructor"
    },
    {
      "inputs": [],
      "name": "AccessControlBadConfirmation",
      "type": "error"
    },
    {
      "inputs": [
        {
          "internalType": "address",
          "name": "account",
          "type": "address"
        },
        {
          "internalType": "bytes32",
          "name": "neededRole",
          "type": "bytes32"
        }
      ],
      "name": "AccessControlUnauthorizedAccount",
      "type": "error"
    },
    {
      "inputs": [],
      "name": "EnforcedPause",
      "type": "error"
    },
    {
      "inputs": [],
      "name": "ExpectedPause",
      "type": "error"
    },
    {
      "inputs": [],
      "name": "ReentrancyGuardReentrantCall",
      "type": "error"
    },
    {
      "anonymous": false,
      "inputs": [
        {
          "indexed": true,
          "internalType": "uint256",
          "name": "propertyId",
          "type": "uint256"
        },
        {
          "indexed": false,
          "internalType": "uint256",
          "name": "totalRaised",
          "type": "uint256"
        }
      ],
      "name": "FundingComplete",
      "type": "event"
    },
    {
      "anonymous": false,
      "inputs": [
        {
          "indexed": true,
          "internalType": "uint256",
          "name": "propertyId",
          "type": "uint256"
        },
        {
          "indexed": false,
          "internalType": "uint256",
          "name": "totalRaised",
          "type": "uint256"
        },
        {
          "indexed": false,
          "internalType": "uint256",
          "name": "target",
          "type": "uint256"
        }
      ],
      "name": "FundingFailed",
      "type": "event"
    },
    {
      "anonymous": false,
      "inputs": [
        {
          "indexed": true,
          "internalType": "uint256",
          "name": "propertyId",
          "type": "uint256"
        },
        {
          "indexed": true,
          "internalType": "address",
          "name": "recipient",
          "type": "address"
        },
        {
          "indexed": false,
          "internalType": "uint256",
          "name": "amount",
          "type": "uint256"
        }
      ],
      "name": "FundsReleased",
      "type": "event"
    },
    {
      "anonymous": false,
      "inputs": [
        {
          "indexed": false,
          "internalType": "address",
          "name": "account",
          "type": "address"
        }
      ],
      "name": "Paused",
      "type": "event"
    },
    {
      "anonymous": false,
      "inputs": [
        {
          "indexed": true,
          "internalType": "uint256",
          "name": "propertyId",
          "type": "uint256"
        },
        {
          "indexed": true,
          "internalType": "address",
          "name": "buyer",
          "type": "address"
        },
        {
          "indexed": false,
          "internalType": "uint256",
          "name": "amount",
          "type": "uint256"
        },
        {
          "indexed": false,
          "internalType": "uint256",
          "name": "totalPaid",
          "type": "uint256"
        },
        {
          "indexed": false,
          "internalType": "uint256",
          "name": "timestamp",
          "type": "uint256"
        }
      ],
      "name": "PurchaseReceived",
      "type": "event"
    },
    {
      "anonymous": false,
      "inputs": [
        {
          "indexed": true,
          "internalType": "uint256",
          "name": "propertyId",
          "type": "uint256"
        },
        {
          "indexed": true,
          "internalType": "address",
          "name": "buyer",
          "type": "address"
        },
        {
          "indexed": false,
          "internalType": "uint256",
          "name": "principal",
          "type": "uint256"
        },
        {
          "indexed": false,
          "internalType": "uint256",
          "name": "interest",
          "type": "uint256"
        },
        {
          "indexed": false,
          "internalType": "uint256",
          "name": "total",
          "type": "uint256"
        }
      ],
      "name": "RefundProcessed",
      "type": "event"
    },
    {
      "anonymous": false,
      "inputs": [
        {
          "indexed": true,
          "internalType": "bytes32",
          "name": "role",
          "type": "bytes32"
        },
        {
          "indexed": true,
          "internalType": "bytes32",
          "name": "previousAdminRole",
          "type": "bytes32"
        },
        {
          "indexed": true,
          "internalType": "bytes32",
          "name": "newAdminRole",
          "type": "bytes32"
        }
      ],
      "name": "RoleAdminChanged",
      "type": "event"
    },
    {
      "anonymous": false,
      "inputs": [
        {
          "indexed": true,
          "internalType": "bytes32",
          "name": "role",
          "type": "bytes32"
        },
        {
          "indexed": true,
          "internalType": "address",
          "name": "account",
          "type": "address"
        },
        {
          "indexed": true,
          "internalType": "address",
          "name": "sender",
          "type": "address"
        }
      ],
      "name": "RoleGranted",
      "type": "event"
    },
    {
      "anonymous": false,
      "inputs": [
        {
          "indexed": true,
          "internalType": "bytes32",
          "name": "role",
          "type": "bytes32"
        },
        {
          "indexed": true,
          "internalType": "address",
          "name": "account",
          "type": "address"
        },
        {
          "indexed": true,
          "internalType": "address",
          "name": "sender",
          "type": "address"
        }
      ],
      "name": "RoleRevoked",
      "type": "event"
    },
    {
      "anonymous": false,
      "inputs": [
        {
          "indexed": false,
          "internalType": "address",
          "name": "account",
          "type": "address"
        }
      ],
      "name": "Unpaused",
      "type": "event"
    },
    {
      "inputs": [],
      "name": "BASIS_POINTS",
      "outputs": [
        {
          "internalType": "uint256",
          "name": "",
          "type": "uint256"
        }
      ],
      "stateMutability": "view",
      "type": "function"
    },
    {
      "inputs": [],
      "name": "DEFAULT_ADMIN_ROLE",
      "outputs": [
        {
          "internalType": "bytes32",
          "name": "",
          "type": "bytes32"
        }
      ],
      "stateMutability": "view",
      "type": "function"
    },
    {
      "inputs": [],
      "name": "OPERATOR_ROLE",
      "outputs": [
        {
          "internalType": "bytes32",
          "name": "",
          "type": "bytes32"
        }
      ],
      "stateMutability": "view",
      "type": "function"
    },
    {
      "inputs": [],
      "name": "REFUND_APR",
      "outputs": [
        {
          "internalType": "uint256",
          "name": "",
          "type": "uint256"
        }
      ],
      "stateMutability": "view",
      "type": "function"
    },
    {
      "inputs": [],
      "name": "SECONDS_PER_YEAR",
      "outputs": [
        {
          "internalType": "uint256",
          "name": "",
          "type": "uint256"
        }
      ],
      "stateMutability": "view",
      "type": "function"
    },
    {
      "inputs": [
        {
          "internalType": "uint256",
          "name": "",
          "type": "uint256"
        }
      ],
      "name": "activeProperties",
      "outputs": [
        {
          "internalType": "uint256",
          "name": "",
          "type": "uint256"
        }
      ],
      "stateMutability": "view",
      "type": "function"
    },
    {
      "inputs": [
        {
          "internalType": "uint256",
          "name": "",
          "type": "uint256"
        },
        {
          "internalType": "address",
          "name": "",
          "type": "address"
        }
      ],
      "name": "buyerContributions",
      "outputs": [
        {
          "internalType": "uint256",
          "name": "",
          "type": "uint256"
        }
      ],
      "stateMutability": "view",
      "type": "function"
    },
    {
      "inputs": [
        {
          "internalType": "uint256",
          "name": "principal",
          "type": "uint256"
        },
        {
          "internalType": "uint256",
          "name": "investmentTimestamp",
          "type": "uint256"
        }
      ],
      "name": "calculateRefund",
      "outputs": [
        {
          "internalType": "uint256",
          "name": "",
          "type": "uint256"
        }
      ],
      "stateMutability": "view",
      "type": "function"
    },
    {
      "inputs": [
        {
          "internalType": "bytes",
          "name": "",
          "type": "bytes"
        }
      ],
      "name": "checkUpkeep",
      "outputs": [
        {
          "internalType": "bool",
          "name": "upkeepNeeded",
          "type": "bool"
        },
        {
          "internalType": "bytes",
          "name": "performData",
          "type": "bytes"
        }
      ],
      "stateMutability": "view",
      "type": "function"
    },
    {
      "inputs": [
        {
          "internalType": "uint256",
          "name": "propertyId",
          "type": "uint256"
        }
      ],
      "name": "getEscrowStatus",
      "outputs": [
        {
          "internalType": "uint256",
          "name": "totalRaised",
          "type": "uint256"
        },
        {
          "internalType": "uint256",
          "name": "fundingTarget",
          "type": "uint256"
        },
        {
          "internalType": "uint256",
          "name": "deadline",
          "type": "uint256"
        },
        {
          "internalType": "bool",
          "name": "isComplete",
          "type": "bool"
        },
        {
          "internalType": "uint256",
          "name": "percentFunded",
          "type": "uint256"
        }
      ],
      "stateMutability": "view",
      "type": "function"
    },
    {
      "inputs": [
        {
          "internalType": "uint256",
          "name": "propertyId",
          "type": "uint256"
        }
      ],
      "name": "getPurchases",
      "outputs": [
        {
          "components": [
            {
              "internalType": "address",
              "name": "buyer",
              "type": "address"
            },
            {
              "internalType": "uint256",
              "name": "propertyId",
              "type": "uint256"
            },
            {
              "internalType": "uint256",
              "name": "amount",
              "type": "uint256"
            },
            {
              "internalType": "uint256",
              "name": "price",
              "type": "uint256"
            },
            {
              "internalType": "uint256",
              "name": "totalPaid",
              "type": "uint256"
            },
            {
              "internalType": "uint256",
              "name": "timestamp",
              "type": "uint256"
            },
            {
              "internalType": "bool",
              "name": "refunded",
              "type": "bool"
            }
          ],
          "internalType": "struct Escrow.Purchase[]",
          "name": "",
          "type": "tuple[]"
        }
      ],
      "stateMutability": "view",
      "type": "function"
    },
    {
      "inputs": [
        {
          "internalType": "bytes32",
          "name": "role",
          "type": "bytes32"
        }
      ],
      "name": "getRoleAdmin",
      "outputs": [
        {
          "internalType": "bytes32",
          "name": "",
          "type": "bytes32"
        }
      ],
      "stateMutability": "view",
      "type": "function"
    },
    {
      "inputs": [
        {
          "internalType": "bytes32",
          "name": "role",
          "type": "bytes32"
        },
        {
          "internalType": "address",
          "name": "account",
          "type": "address"
        }
      ],
      "name": "grantRole",
      "outputs": [],
      "stateMutability": "nonpayable",
      "type": "function"
    },
    {
      "inputs": [
        {
          "internalType": "bytes32",
          "name": "role",
          "type": "bytes32"
        },
        {
          "internalType": "address",
          "name": "account",
          "type": "address"
        }
      ],
      "name": "hasRole",
      "outputs": [
        {
          "internalType": "bool",
          "name": "",
          "type": "bool"
        }
      ],
      "stateMutability": "view",
      "type": "function"
    },
    {
      "inputs": [
        {
          "internalType": "uint256",
          "name": "propertyId",
          "type": "uint256"
        },
        {
          "internalType": "uint256",
          "name": "fundingTarget",
          "type": "uint256"
        },
        {
          "internalType": "uint256",
          "name": "deadline",
          "type": "uint256"
        }
      ],
      "name": "initializeEscrow",
      "outputs": [],
      "stateMutability": "nonpayable",
      "type": "function"
    },
    {
      "inputs": [
        {
          "internalType": "uint256",
          "name": "",
          "type": "uint256"
        }
      ],
      "name": "isPropertyActive",
      "outputs": [
        {
          "internalType": "bool",
          "name": "",
          "type": "bool"
        }
      ],
      "stateMutability": "view",
      "type": "function"
    },
    {
      "inputs": [],
      "name": "pause",
      "outputs": [],
      "stateMutability": "nonpayable",
      "type": "function"
    },
    {
      "inputs": [],
      "name": "paused",
      "outputs": [
        {
          "internalType": "bool",
          "name": "",
          "type": "bool"
        }
      ],
      "stateMutability": "view",
      "type": "function"
    },
    {
      "inputs": [
        {
          "internalType": "bytes",
          "name": "performData",
          "type": "bytes"
        }
      ],
      "name": "performUpkeep",
      "outputs": [],
      "stateMutability": "nonpayable",
      "type": "function"
    },
    {
      "inputs": [
        {
          "internalType": "uint256",
          "name": "propertyId",
          "type": "uint256"
        }
      ],
      "name": "processRefunds",
      "outputs": [],
      "stateMutability": "nonpayable",
      "type": "function"
    },
    {
      "inputs": [
        {
          "internalType": "uint256",
          "name": "",
          "type": "uint256"
        }
      ],
      "name": "propertyEscrows",
      "outputs": [
        {
          "internalType": "uint256",
          "name": "totalRaised",
          "type": "uint256"
        },
        {
          "internalType": "uint256",
          "name": "fundingTarget",
          "type": "uint256"
        },
        {
          "internalType": "uint256",
          "name": "deadline",
          "type": "uint256"
        },
        {
          "internalType": "bool",
          "name": "isComplete",
          "type": "bool"
        },
        {
          "internalType": "bool",
          "name": "refundsProcessed",
          "type": "bool"
        }
      ],
      "stateMutability": "view",
      "type": "function"
    },
    {
      "inputs": [
        {
          "internalType": "uint256",
          "name": "",
          "type": "uint256"
        },
        {
          "internalType": "uint256",
          "name": "",
          "type": "uint256"
        }
      ],
      "name": "propertyPurchases",
      "outputs": [
        {
          "internalType": "address",
          "name": "buyer",
          "type": "address"
        },
        {
          "internalType": "uint256",
          "name": "propertyId",
          "type": "uint256"
        },
        {
          "internalType": "uint256",
          "name": "amount",
          "type": "uint256"
        },
        {
          "internalType": "uint256",
          "name": "price",
          "type": "uint256"
        },
        {
          "internalType": "uint256",
          "name": "totalPaid",
          "type": "uint256"
        },
        {
          "internalType": "uint256",
          "name": "timestamp",
          "type": "uint256"
        },
        {
          "internalType": "bool",
          "name": "refunded",
          "type": "bool"
        }
      ],
      "stateMutability": "view",
      "type": "function"
    },
    {
      "inputs": [],
      "name": "propertyToken",
      "outputs": [
        {
          "internalType": "contract IPropertyToken",
          "name": "",
          "type": "address"
        }
      ],
      "stateMutability": "view",
      "type": "function"
    },
    {
      "inputs": [
        {
          "internalType": "uint256",
          "name": "propertyId",
          "type": "uint256"
        },
        {
          "internalType": "uint256",
          "name": "amount",
          "type": "uint256"
        }
      ],
      "name": "purchase",
      "outputs": [],
      "stateMutability": "payable",
      "type": "function"
    },
    {
      "inputs": [
        {
          "internalType": "uint256",
          "name": "propertyId",
          "type": "uint256"
        },
        {
          "internalType": "address",
          "name": "recipient",
          "type": "address"
        }
      ],
      "name": "releaseFunds",
      "outputs": [],
      "stateMutability": "nonpayable",
      "type": "function"
    },
    {
      "inputs": [
        {
          "internalType": "bytes32",
          "name": "role",
          "type": "bytes32"
        },
        {
          "internalType": "address",
          "name": "callerConfirmation",
          "type": "address"
        }
      ],
      "name": "renounceRole",
      "outputs": [],
      "stateMutability": "nonpayable",
      "type": "function"
    },
    {
      "inputs": [
        {
          "internalType": "bytes32",
          "name": "role",
          "type": "bytes32"
        },
        {
          "internalType": "address",
          "name": "account",
          "type": "address"
        }
      ],
      "name": "revokeRole",
      "outputs": [],
      "stateMutability": "nonpayable",
      "type": "function"
    },
    {
      "inputs": [
        {
          "internalType": "bytes4",
          "name": "interfaceId",
          "type": "bytes4"
        }
      ],
      "name": "supportsInterface",
      "outputs": [
        {
          "internalType": "bool",
          "name": "",
          "type": "bool"
        }
      ],
      "stateMutability": "view",
      "type": "function"
    },
    {
      "inputs": [],
      "name": "unpause",
      "outputs": [],
      "stateMutability": "nonpayable",
      "type": "function"
    },
    {
      "stateMutability": "payable",
      "type": "receive"
    }
  ],
  "bytecode": "0x608034620000a457601f62001d1338819003918201601f19168301916001600160401b03831184841017620000a957808492602094604052833981010312620000a457516001600160a01b0381168103620000a45760018055600280546001600160a81b03191660089290921b610100600160a81b03169190911790556200008733620000bf565b5062000093336200013f565b50604051611b119081620001e28239f35b600080fd5b634e487b7160e01b600052604160045260246000fd5b6001600160a01b031660008181527fad3228b676f7d3cd4284a5443f17f1962b36e491b30a40b2405849e597ba5fb5602052604081205490919060ff166200013b57818052816020526040822081835260205260408220600160ff19825416179055339160008051602062001cf38339815191528180a4600190565b5090565b6001600160a01b031660008181527fee57cd81e84075558e8fcc182a1f4393f91fc97f963a136e66b7f949a62f319f60205260408120549091907f97667070c54ef182b0f5858b034beac1b6f3089aa2d3188bb1e8929f4fa9b9299060ff16620001dc57808352826020526040832082845260205260408320600160ff1982541617905560008051602062001cf3833981519152339380a4600190565b50509056fe608080604052600436101561001d575b50361561001b57600080fd5b005b60009060e08235811c91826301ffc9a71461149857508163066d4d5e1461132557816311e2e175146112e157816314a2873a146112c4578163154bb891146112955781631af23a591461112e5781632430fc3d146110cf578163248a9ca3146110a35781632f2ff15d14611066578163345460cd14610fb657816336568abe14610f6e5781633f4ba83a14610f0357816343ae269514610ed65781634585e33b14610df65781635c975abb14610dd35781636e04ff0d14610d635781636f629ed514610be757816370876c981461075d5781638456cb591461070257816391d14854146106b7578163a217fddf1461069b578163a8b268de14610662578163c6f56901146102d2578163d2e0f66e1461024357508063d547741f14610202578063e1f1c4a7146101e5578063e38abd0f146101c3578063e6a69ab8146101a45763f5b541a60361000f57346101a157806003193601126101a15760206040517f97667070c54ef182b0f5858b034beac1b6f3089aa2d3188bb1e8929f4fa9b9298152f35b80fd5b50346101a157806003193601126101a15760206040516301e133808152f35b50346101a15760206101dd6101d73661154d565b90611946565b604051908152f35b50346101a157806003193601126101a15760206040516127108152f35b50346101a15760403660031901126101a15761023f6004356102226114ed565b908084528360205261023a6001604086200154611680565b611724565b5080f35b9050346102ce576102533661154d565b90835260036020526040832080548210156102ca5790610272916115b0565b5060018060a01b03815416906001810154906002810154600382015460048301549160ff600660058601549501541694604051968752602087015260408601526060850152608084015260a0830152151560c0820152f35b8380fd5b5080fd5b82346101a15760203660031901126101a1576102ec611923565b6004358152600460205260408120600760205261030f60ff604084205416611801565b60038101805460ff81166106245761032d6002840154421015611983565b60ff8160081c166105df576101009061ff001916179055805460018092015460405191825260208201527fe530e08c8f5e186cb204c6c0e883b12ddbcd56a383e4113f06dbee1e09fde7c6604060043592a26004358252600360205280604083208184905b6103b5575b5050506004358252600760205260408220805460ff19169055805580f35b81548110156105da576103c881836115b0565b506006810180549060ff8216156103ec575b5050506103e6906119c6565b82610392565b909291946104036004870154600588015490611946565b60ff199094161790556002548454604051627eeac760e11b81526001600160a01b039182166004808301829052356024830152899360081c9092169190602081604481865afa9081156105cf578491610595575b5080610520575b5050508080808560018060a01b038954165af16104796118c5565b50156104e25784936103e6927f35b1f7e4c3146d284962cc37abf509799d0f4be30b6a19d025ba7309302c9487600460018060a01b03845416930154916104c083826118b8565b60408051948552602085019190915283015260043591606090a39086806103da565b60405162461bcd60e51b81526020600482015260166024820152751499599d5b99081d1c985b9cd9995c8819985a5b195960521b6044820152606490fd5b823b156102ca57604051631dd85adb60e11b815260048035908201526001600160a01b0392909216602483015260448201529082908290606490829084905af1801561058a57610572575b808061045e565b61057b90611799565b61058657858761056b565b8580fd5b6040513d84823e3d90fd5b9350506020833d6020116105c7575b816105b1602093836117df565b810103126105c2578892518a610457565b600080fd5b3d91506105a4565b6040513d86823e3d90fd5b610397565b60405162461bcd60e51b815260206004820152601960248201527f526566756e647320616c72656164792070726f636573736564000000000000006044820152606490fd5b60405162461bcd60e51b8152602060048201526016602482015275119d5b991a5b99c81dd85cc81cdd58d8d95cdcd99d5b60521b6044820152606490fd5b82346101a15760203660031901126101a157600435906006548210156101a157602061068d83611563565b90546040519160031b1c8152f35b82346101a157806003193601126101a157602090604051908152f35b82346101a15760403660031901126101a15760406106d36114ed565b91600435815280602052209060018060a01b0316600052602052602060ff604060002054166040519015158152f35b82346101a157806003193601126101a15761071b611646565b610723611905565b600160ff1960025416176002557f62e78cea01bee320cd4e420270b5ea74000d11b0c9f74754ebdbfc544b05a2586020604051338152a180f35b826107673661154d565b61076f611923565b610777611905565b81835260046020526040832090600760205261079960ff604086205416611801565b6107aa60ff60038401541615611843565b6002820154421015610ba2576002546040516362ae87ab60e11b81526004810185905291906020908390602490829060081c6001600160a01b03165afa918215610b97578592610b63575b506108008183611882565b91823410610b275784865260036020526040862060405191610821836117c3565b33835286602084015283604084015260608301528360808301524260a08301528660c0830152805490600160401b821015610b135790610866916001820181556115b0565b919091610aff5790600660c06108df9360018060a01b038151166bffffffffffffffffffffffff60a01b8554161784556020810151600185015560408101516002850155606081015160038501556080810151600485015560a081015160058501550151151591019060ff801983541691151516179055565b6108ea8284546118ab565b835583855260056020526040852033600052602052604060002061090f8382546118ab565b905560025460081c6001600160a01b031690813b15610586576040516346b40cdf60e11b8152600481018690523360248201526044810182905291869081908490606490829084905af1928315610af2578693610ad5575b5050823411610a78575b6109b77f076d4a8f0927f81646eba8e062c7769238e76316ca0f16820b27d377c2becc1e9160405191829133964291846040919493926060820195825260208201520152565b0390a36001815491015411156109d0575b506001805580f35b80825260046020526040822060038101805460ff19166001179055600254839060081c6001600160a01b0316803b156102ce578180916024604051809481936362b3375960e11b83528960048401525af1801561058a57610a60575b505060207fa94752e9c9082234a8789d877418277dfc7f671e8c27e4a3c22928cae04473129154604051908152a2816109c8565b610a6990611799565b610a74578284610a2c565b8280fd5b905084808080610a8886346118b8565b335af1610a936118c5565b5015610aa0578390610971565b60405162461bcd60e51b815260206004820152600d60248201526c1499599d5b990819985a5b1959609a1b6044820152606490fd5b610ae191929350611799565b610aee5783908587610967565b8480fd5b50604051903d90823e3d90fd5b634e487b7160e01b87526004879052602487fd5b634e487b7160e01b88526041600452602488fd5b60405162461bcd60e51b8152602060048201526014602482015273125b9cdd59999a58da595b9d081c185e5b595b9d60621b6044820152606490fd5b9091506020813d602011610b8f575b81610b7f602093836117df565b810103126105c2575190856107f5565b3d9150610b72565b6040513d87823e3d90fd5b60405162461bcd60e51b815260206004820152601760248201527f46756e64696e6720646561646c696e65207061737365640000000000000000006044820152606490fd5b82346101a1576020806003193601126102ce5760043582526003908181526040832092835467ffffffffffffffff8111610d4f578591848692604051916005610c348884831b01856117df565b82845287840191829686528886209186935b858510610cdb575050505050506040519485948186019282875251809352604086019493905b838210610c795786860387f35b845180516001600160a01b03168752808401518785015260408082015190880152606080820151908801526080808201519088015260a0808201519088015260c090810151151590870152879650948501949382019360019190910190610c6c565b60078b60019260409d9a999b9c9d51610cf3816117c3565b848060a01b038854168152848801548382015260028801546040820152868801546060820152600488015460808201528588015460a082015260ff600689015416151560c0820152815201940194019392999897959699610c46565b634e487b7160e01b82526041600452602482fd5b82346101a157610d7236611503565b5050610d7c6119d5565b9060405192839115158252602090604082840152835191826040850152815b838110610dbc57505060608094508284010152601f80199101168101030190f35b808601820151878201606001528694508101610d9b565b82346101a157806003193601126101a157602060ff600254166040519015158152f35b82346101a1576020610e0736611503565b90809291810103126102ce57358082526004602052604082206007602052610e3560ff604085205416611801565b60ff6003820154610e4882821615611843565b60081c16610e9d576002610e60910154421015611983565b303b156102ce576040519063c6f5690160e01b82526004820152818160248183305af1801561058a57610e91575080f35b610e9a90611799565b80f35b60405162461bcd60e51b81526020600482015260116024820152701499599d5b991cc81c1c9bd8d95cdcd959607a1b6044820152606490fd5b82346101a157806003193601126101a15760025460405160089190911c6001600160a01b03168152602090f35b82346101a157806003193601126101a157610f1c611646565b60025460ff811615610f5c5760ff19166002557f5db9ee0a495bf2e6ff9c91a7834c1ba4fdd244a5e8aa4e537bd38aeae4b073aa6020604051338152a180f35b604051638dfc202b60e01b8152600490fd5b82346101a15760403660031901126101a157610f886114ed565b336001600160a01b03821603610fa45761023f90600435611724565b60405163334bd91960e11b8152600490fd5b82346101a15760203660031901126101a1576004803582526020526040812060018101548015928361105c57825493612710948581029581870414901517156110485761103457508060a09304905b82549260ff60036002830154920154169160405194855260208501526040840152151560608301526080820152f35b634e487b7160e01b81526012600452602490fd5b634e487b7160e01b82526011600452602482fd5b60a0935090611005565b82346101a15760403660031901126101a15761023f6004356110866114ed565b908084528360205261109e6001604086200154611680565b6116a6565b82346101a15760203660031901126101a157600160406020926004358152808452200154604051908152f35b82346101a15760203660031901126101a157604060a091600435815260046020522060ff8154916001810154906003600282015491015491604051948552602085015260408401528181161515606084015260081c1615156080820152f35b82346101a15760403660031901126101a15760043561114b6114ed565b906111546115cc565b61115c611923565b808352602060048152604084209260ff6003850154161561125957835493841561121e578590558285526007825260408520805460ff191690556001600160a01b0316928480808084885af16111b06118c5565b50156111e757907f6e3c6096795c8298a218b2cfb8bde42726ff7c9a3d27b4d3ba41ab7f74feb5fb91604051908152a36001805580f35b60405162461bcd60e51b815260048101839052600f60248201526e151c985b9cd9995c8819985a5b1959608a1b6044820152606490fd5b60405162461bcd60e51b81526004810184905260136024820152724e6f2066756e647320746f2072656c6561736560681b6044820152606490fd5b60405162461bcd60e51b815260048101839052601460248201527346756e64696e67206e6f7420636f6d706c65746560601b6044820152606490fd5b82346101a15760203660031901126101a15760ff60406020926004358152600784522054166040519015158152f35b82346101a157806003193601126101a157602060405161012c8152f35b82346101a15760403660031901126101a15760406020916113006114ed565b6004358252600584528282206001600160a01b03909116825283522054604051908152f35b82346101a15760603660031901126101a1576004356113426115cc565b808252600760205260ff60408320541661145b5760405160a0810181811067ffffffffffffffff821117611447576040528281526020810160243581526113d160036040840193604435855260608101948786526080820194888652878952600460205260408920925183555160018301555160028201550192511515839060ff801983541691151516179055565b51815461ff00191690151560081b61ff0016179055600654600160401b811015611433578060016114059201600655611563565b81549060031b9083821b91600019901b19161790558152600760205260408120600160ff1982541617905580f35b634e487b7160e01b83526041600452602483fd5b634e487b7160e01b84526041600452602484fd5b60405162461bcd60e51b8152602060048201526015602482015274457363726f7720616c72656164792065786973747360581b6044820152606490fd5b8390346102ce5760203660031901126102ce5760043563ffffffff60e01b8116809103610a745760209250637965db0b60e01b81149081156114dc575b5015158152f35b6301ffc9a760e01b149050836114d5565b602435906001600160a01b03821682036105c257565b9060206003198301126105c25760043567ffffffffffffffff928382116105c257806023830112156105c25781600401359384116105c257602484830101116105c2576024019190565b60409060031901126105c2576004359060243590565b60065481101561159a5760066000527ff652222313e28459528d920b65115c16c04f3efc82aaedc97be59f3f377c0d3f0190600090565b634e487b7160e01b600052603260045260246000fd5b805482101561159a576000526007602060002091020190600090565b3360009081527fee57cd81e84075558e8fcc182a1f4393f91fc97f963a136e66b7f949a62f319f60205260409020547f97667070c54ef182b0f5858b034beac1b6f3089aa2d3188bb1e8929f4fa9b9299060ff16156116285750565b6044906040519063e2517d3f60e01b82523360048301526024820152fd5b3360009081527fad3228b676f7d3cd4284a5443f17f1962b36e491b30a40b2405849e597ba5fb5602052604081205460ff16156116285750565b80600052600060205260406000203360005260205260ff60406000205416156116285750565b9060009180835282602052604083209160018060a01b03169182845260205260ff6040842054161560001461171f57808352826020526040832082845260205260408320600160ff198254161790557f2f8788117e7eff1d82e926ec794901d17c78024a50270940304540a733656f0d339380a4600190565b505090565b9060009180835282602052604083209160018060a01b03169182845260205260ff60408420541660001461171f5780835282602052604083208284526020526040832060ff1981541690557ff6391f5c32d9c69d2a47ea670b442974b53935d1edc7fd64eb21e047a839171b339380a4600190565b67ffffffffffffffff81116117ad57604052565b634e487b7160e01b600052604160045260246000fd5b60e0810190811067ffffffffffffffff8211176117ad57604052565b90601f8019910116810190811067ffffffffffffffff8211176117ad57604052565b1561180857565b60405162461bcd60e51b815260206004820152601360248201527250726f7065727479206e6f742061637469766560681b6044820152606490fd5b1561184a57565b60405162461bcd60e51b815260206004820152601060248201526f46756e64696e6720636f6d706c65746560801b6044820152606490fd5b8181029291811591840414171561189557565b634e487b7160e01b600052601160045260246000fd5b9190820180921161189557565b9190820391821161189557565b3d15611900573d9067ffffffffffffffff82116117ad57604051916118f4601f8201601f1916602001846117df565b82523d6000602084013e565b606090565b60ff6002541661191157565b60405163d93c066560e01b8152600490fd5b600260015414611934576002600155565b604051633ee5aeb560e01b8152600490fd5b9061195190426118b8565b9061012c918282029282840414821517156118955761197964496cebb8009161198094611882565b04906118ab565b90565b1561198a57565b60405162461bcd60e51b8152602060048201526014602482015273111958591b1a5b99481b9bdd081c995858da195960621b6044820152606490fd5b60001981146118955760010190565b60065460005b818110611a0b5750506000906040516020810181811067ffffffffffffffff8211176117ad576040526000815290565b611a1481611563565b9054600391821b1c90816000526004906020828152604091826000206007835260ff808560002054169283611acd575b83611abc575b505081611aad575b50611a695750505050611a64906119c6565b6119db565b919350809295945051948186015284528084019184831067ffffffffffffffff841117611a9857505260019190565b604190634e487b7160e01b6000525260246000fd5b60029150015442101538611a52565b82015460081c161591503880611a4a565b828101548216159350611a4456fea264697066735822122086e0f41a7b2fb827e86addce4628f40f1b029f3a80a07eda6370dbbd5fddcec464736f6c634300081400332f8788117e7eff1d82e926ec794901d17c78024a50270940304540a733656f0d",
  "linkReferences": {},
  "deployedLinkReferences": {}
}