{
  "_format": "hh-sol-artifact-1",
  "contractName": "Escrow",
  "sourceName": "contracts/Escrow.sol",
  "abi": [
    {
      "inputs": [
        {
          "internalType": "address",
          "name": "_propertyToken",
          "type": "address"
        },
        {
          "internalType": "address",
          "name": "_founderWallet",
          "type": "address"
        }
      ],
      "stateMutability": "nonpayable",
      "type": "constructor"
    },
    {
      "inputs": [],
      "name": "AccessControlBadConfirmation",
      "type": "error"
    },
    {
      "inputs": [
        {
          "internalType": "address",
          "name": "account",
          "type": "address"
        },
        {
          "internalType": "bytes32",
          "name": "neededRole",
          "type": "bytes32"
        }
      ],
      "name": "AccessControlUnauthorizedAccount",
      "type": "error"
    },
    {
      "inputs": [],
      "name": "EnforcedPause",
      "type": "error"
    },
    {
      "inputs": [],
      "name": "ExpectedPause",
      "type": "error"
    },
    {
      "inputs": [],
      "name": "ReentrancyGuardReentrantCall",
      "type": "error"
    },
    {
      "anonymous": false,
      "inputs": [
        {
          "indexed": true,
          "internalType": "uint256",
          "name": "propertyId",
          "type": "uint256"
        },
        {
          "indexed": true,
          "internalType": "address",
          "name": "buyer",
          "type": "address"
        },
        {
          "indexed": false,
          "internalType": "uint256",
          "name": "amount",
          "type": "uint256"
        },
        {
          "indexed": false,
          "internalType": "uint256",
          "name": "totalPaid",
          "type": "uint256"
        },
        {
          "indexed": false,
          "internalType": "bytes32",
          "name": "transactionHash",
          "type": "bytes32"
        }
      ],
      "name": "CompliancePurchaseRecorded",
      "type": "event"
    },
    {
      "anonymous": false,
      "inputs": [
        {
          "indexed": true,
          "internalType": "uint256",
          "name": "propertyId",
          "type": "uint256"
        },
        {
          "indexed": false,
          "internalType": "uint256",
          "name": "impactScore",
          "type": "uint256"
        },
        {
          "indexed": false,
          "internalType": "string",
          "name": "reason",
          "type": "string"
        }
      ],
      "name": "FounderFeeSkipped",
      "type": "event"
    },
    {
      "anonymous": false,
      "inputs": [
        {
          "indexed": true,
          "internalType": "uint256",
          "name": "propertyId",
          "type": "uint256"
        },
        {
          "indexed": true,
          "internalType": "address",
          "name": "founder",
          "type": "address"
        },
        {
          "indexed": false,
          "internalType": "uint256",
          "name": "amount",
          "type": "uint256"
        },
        {
          "indexed": false,
          "internalType": "uint256",
          "name": "impactScore",
          "type": "uint256"
        }
      ],
      "name": "FounderFundingFeePaid",
      "type": "event"
    },
    {
      "anonymous": false,
      "inputs": [
        {
          "indexed": true,
          "internalType": "uint256",
          "name": "propertyId",
          "type": "uint256"
        },
        {
          "indexed": false,
          "internalType": "uint256",
          "name": "totalRaised",
          "type": "uint256"
        },
        {
          "indexed": false,
          "internalType": "uint256",
          "name": "projectBudget",
          "type": "uint256"
        }
      ],
      "name": "FundingComplete",
      "type": "event"
    },
    {
      "anonymous": false,
      "inputs": [
        {
          "indexed": true,
          "internalType": "uint256",
          "name": "propertyId",
          "type": "uint256"
        },
        {
          "indexed": false,
          "internalType": "uint256",
          "name": "totalRaised",
          "type": "uint256"
        },
        {
          "indexed": false,
          "internalType": "uint256",
          "name": "target",
          "type": "uint256"
        }
      ],
      "name": "FundingFailed",
      "type": "event"
    },
    {
      "anonymous": false,
      "inputs": [
        {
          "indexed": true,
          "internalType": "uint256",
          "name": "propertyId",
          "type": "uint256"
        },
        {
          "indexed": true,
          "internalType": "address",
          "name": "recipient",
          "type": "address"
        },
        {
          "indexed": false,
          "internalType": "uint256",
          "name": "amount",
          "type": "uint256"
        }
      ],
      "name": "FundsReleased",
      "type": "event"
    },
    {
      "anonymous": false,
      "inputs": [
        {
          "indexed": true,
          "internalType": "uint256",
          "name": "propertyId",
          "type": "uint256"
        },
        {
          "indexed": false,
          "internalType": "uint256",
          "name": "amount",
          "type": "uint256"
        },
        {
          "indexed": false,
          "internalType": "string",
          "name": "incomeType",
          "type": "string"
        }
      ],
      "name": "IncomeDeposited",
      "type": "event"
    },
    {
      "anonymous": false,
      "inputs": [
        {
          "indexed": true,
          "internalType": "uint256",
          "name": "propertyId",
          "type": "uint256"
        },
        {
          "indexed": true,
          "internalType": "address",
          "name": "investor",
          "type": "address"
        },
        {
          "indexed": false,
          "internalType": "uint256",
          "name": "currentContribution",
          "type": "uint256"
        },
        {
          "indexed": false,
          "internalType": "uint256",
          "name": "newContribution",
          "type": "uint256"
        },
        {
          "indexed": false,
          "internalType": "bool",
          "name": "withinLimit",
          "type": "bool"
        }
      ],
      "name": "InvestorLimitChecked",
      "type": "event"
    },
    {
      "anonymous": false,
      "inputs": [
        {
          "indexed": false,
          "internalType": "address",
          "name": "account",
          "type": "address"
        }
      ],
      "name": "Paused",
      "type": "event"
    },
    {
      "anonymous": false,
      "inputs": [
        {
          "indexed": true,
          "internalType": "uint256",
          "name": "propertyId",
          "type": "uint256"
        },
        {
          "indexed": false,
          "internalType": "uint256",
          "name": "demandScore",
          "type": "uint256"
        },
        {
          "indexed": false,
          "internalType": "uint256",
          "name": "adjustedTarget",
          "type": "uint256"
        }
      ],
      "name": "PollDemandUpdated",
      "type": "event"
    },
    {
      "anonymous": false,
      "inputs": [
        {
          "indexed": true,
          "internalType": "uint256",
          "name": "propertyId",
          "type": "uint256"
        },
        {
          "indexed": true,
          "internalType": "address",
          "name": "buyer",
          "type": "address"
        },
        {
          "indexed": false,
          "internalType": "uint256",
          "name": "amount",
          "type": "uint256"
        },
        {
          "indexed": false,
          "internalType": "uint256",
          "name": "totalPaid",
          "type": "uint256"
        },
        {
          "indexed": false,
          "internalType": "uint256",
          "name": "timestamp",
          "type": "uint256"
        }
      ],
      "name": "PurchaseReceived",
      "type": "event"
    },
    {
      "anonymous": false,
      "inputs": [
        {
          "indexed": true,
          "internalType": "uint256",
          "name": "propertyId",
          "type": "uint256"
        },
        {
          "indexed": false,
          "internalType": "uint256",
          "name": "totalIncome",
          "type": "uint256"
        },
        {
          "indexed": false,
          "internalType": "uint256",
          "name": "founderShare",
          "type": "uint256"
        },
        {
          "indexed": false,
          "internalType": "uint256",
          "name": "investorShare",
          "type": "uint256"
        },
        {
          "indexed": false,
          "internalType": "uint256",
          "name": "timestamp",
          "type": "uint256"
        }
      ],
      "name": "QuarterlyDistribution",
      "type": "event"
    },
    {
      "anonymous": false,
      "inputs": [
        {
          "indexed": true,
          "internalType": "uint256",
          "name": "propertyId",
          "type": "uint256"
        },
        {
          "indexed": true,
          "internalType": "address",
          "name": "recipient",
          "type": "address"
        },
        {
          "indexed": false,
          "internalType": "uint256",
          "name": "principal",
          "type": "uint256"
        },
        {
          "indexed": false,
          "internalType": "uint256",
          "name": "interest",
          "type": "uint256"
        },
        {
          "indexed": false,
          "internalType": "uint256",
          "name": "timestamp",
          "type": "uint256"
        }
      ],
      "name": "RefundComplianceRecorded",
      "type": "event"
    },
    {
      "anonymous": false,
      "inputs": [
        {
          "indexed": true,
          "internalType": "uint256",
          "name": "propertyId",
          "type": "uint256"
        },
        {
          "indexed": true,
          "internalType": "address",
          "name": "buyer",
          "type": "address"
        },
        {
          "indexed": false,
          "internalType": "uint256",
          "name": "principal",
          "type": "uint256"
        },
        {
          "indexed": false,
          "internalType": "uint256",
          "name": "interest",
          "type": "uint256"
        },
        {
          "indexed": false,
          "internalType": "uint256",
          "name": "total",
          "type": "uint256"
        }
      ],
      "name": "RefundProcessed",
      "type": "event"
    },
    {
      "anonymous": false,
      "inputs": [
        {
          "indexed": true,
          "internalType": "bytes32",
          "name": "role",
          "type": "bytes32"
        },
        {
          "indexed": true,
          "internalType": "bytes32",
          "name": "previousAdminRole",
          "type": "bytes32"
        },
        {
          "indexed": true,
          "internalType": "bytes32",
          "name": "newAdminRole",
          "type": "bytes32"
        }
      ],
      "name": "RoleAdminChanged",
      "type": "event"
    },
    {
      "anonymous": false,
      "inputs": [
        {
          "indexed": true,
          "internalType": "bytes32",
          "name": "role",
          "type": "bytes32"
        },
        {
          "indexed": true,
          "internalType": "address",
          "name": "account",
          "type": "address"
        },
        {
          "indexed": true,
          "internalType": "address",
          "name": "sender",
          "type": "address"
        }
      ],
      "name": "RoleGranted",
      "type": "event"
    },
    {
      "anonymous": false,
      "inputs": [
        {
          "indexed": true,
          "internalType": "bytes32",
          "name": "role",
          "type": "bytes32"
        },
        {
          "indexed": true,
          "internalType": "address",
          "name": "account",
          "type": "address"
        },
        {
          "indexed": true,
          "internalType": "address",
          "name": "sender",
          "type": "address"
        }
      ],
      "name": "RoleRevoked",
      "type": "event"
    },
    {
      "anonymous": false,
      "inputs": [
        {
          "indexed": true,
          "internalType": "uint256",
          "name": "propertyId",
          "type": "uint256"
        },
        {
          "indexed": true,
          "internalType": "address",
          "name": "account",
          "type": "address"
        },
        {
          "indexed": false,
          "internalType": "string",
          "name": "activityType",
          "type": "string"
        },
        {
          "indexed": false,
          "internalType": "uint256",
          "name": "timestamp",
          "type": "uint256"
        }
      ],
      "name": "SuspiciousActivityReported",
      "type": "event"
    },
    {
      "anonymous": false,
      "inputs": [
        {
          "indexed": false,
          "internalType": "address",
          "name": "account",
          "type": "address"
        }
      ],
      "name": "Unpaused",
      "type": "event"
    },
    {
      "inputs": [],
      "name": "AML_THRESHOLD",
      "outputs": [
        {
          "internalType": "uint256",
          "name": "",
          "type": "uint256"
        }
      ],
      "stateMutability": "view",
      "type": "function"
    },
    {
      "inputs": [],
      "name": "BASIS_POINTS",
      "outputs": [
        {
          "internalType": "uint256",
          "name": "",
          "type": "uint256"
        }
      ],
      "stateMutability": "view",
      "type": "function"
    },
    {
      "inputs": [],
      "name": "DEFAULT_ADMIN_ROLE",
      "outputs": [
        {
          "internalType": "bytes32",
          "name": "",
          "type": "bytes32"
        }
      ],
      "stateMutability": "view",
      "type": "function"
    },
    {
      "inputs": [],
      "name": "FOUNDER_FEE_BPS",
      "outputs": [
        {
          "internalType": "uint256",
          "name": "",
          "type": "uint256"
        }
      ],
      "stateMutability": "view",
      "type": "function"
    },
    {
      "inputs": [],
      "name": "MAX_DEMAND_BONUS",
      "outputs": [
        {
          "internalType": "uint256",
          "name": "",
          "type": "uint256"
        }
      ],
      "stateMutability": "view",
      "type": "function"
    },
    {
      "inputs": [],
      "name": "MIN_IMPACT_SCORE",
      "outputs": [
        {
          "internalType": "uint256",
          "name": "",
          "type": "uint256"
        }
      ],
      "stateMutability": "view",
      "type": "function"
    },
    {
      "inputs": [],
      "name": "OPERATOR_ROLE",
      "outputs": [
        {
          "internalType": "bytes32",
          "name": "",
          "type": "bytes32"
        }
      ],
      "stateMutability": "view",
      "type": "function"
    },
    {
      "inputs": [],
      "name": "QUARTERLY_INTERVAL",
      "outputs": [
        {
          "internalType": "uint256",
          "name": "",
          "type": "uint256"
        }
      ],
      "stateMutability": "view",
      "type": "function"
    },
    {
      "inputs": [],
      "name": "REFUND_APR",
      "outputs": [
        {
          "internalType": "uint256",
          "name": "",
          "type": "uint256"
        }
      ],
      "stateMutability": "view",
      "type": "function"
    },
    {
      "inputs": [],
      "name": "SECONDS_PER_YEAR",
      "outputs": [
        {
          "internalType": "uint256",
          "name": "",
          "type": "uint256"
        }
      ],
      "stateMutability": "view",
      "type": "function"
    },
    {
      "inputs": [
        {
          "internalType": "uint256",
          "name": "",
          "type": "uint256"
        }
      ],
      "name": "activeProperties",
      "outputs": [
        {
          "internalType": "uint256",
          "name": "",
          "type": "uint256"
        }
      ],
      "stateMutability": "view",
      "type": "function"
    },
    {
      "inputs": [],
      "name": "amlOracle",
      "outputs": [
        {
          "internalType": "contract IAMLOracle",
          "name": "",
          "type": "address"
        }
      ],
      "stateMutability": "view",
      "type": "function"
    },
    {
      "inputs": [
        {
          "internalType": "uint256",
          "name": "",
          "type": "uint256"
        }
      ],
      "name": "baseFundingTargets",
      "outputs": [
        {
          "internalType": "uint256",
          "name": "",
          "type": "uint256"
        }
      ],
      "stateMutability": "view",
      "type": "function"
    },
    {
      "inputs": [
        {
          "internalType": "uint256",
          "name": "",
          "type": "uint256"
        },
        {
          "internalType": "address",
          "name": "",
          "type": "address"
        }
      ],
      "name": "buyerContributions",
      "outputs": [
        {
          "internalType": "uint256",
          "name": "",
          "type": "uint256"
        }
      ],
      "stateMutability": "view",
      "type": "function"
    },
    {
      "inputs": [
        {
          "internalType": "uint256",
          "name": "principal",
          "type": "uint256"
        },
        {
          "internalType": "uint256",
          "name": "investmentTimestamp",
          "type": "uint256"
        }
      ],
      "name": "calculateRefund",
      "outputs": [
        {
          "internalType": "uint256",
          "name": "",
          "type": "uint256"
        }
      ],
      "stateMutability": "view",
      "type": "function"
    },
    {
      "inputs": [
        {
          "internalType": "bytes",
          "name": "",
          "type": "bytes"
        }
      ],
      "name": "checkUpkeep",
      "outputs": [
        {
          "internalType": "bool",
          "name": "upkeepNeeded",
          "type": "bool"
        },
        {
          "internalType": "bytes",
          "name": "performData",
          "type": "bytes"
        }
      ],
      "stateMutability": "view",
      "type": "function"
    },
    {
      "inputs": [
        {
          "internalType": "uint256",
          "name": "propertyId",
          "type": "uint256"
        },
        {
          "internalType": "string",
          "name": "incomeType",
          "type": "string"
        }
      ],
      "name": "depositIncome",
      "outputs": [],
      "stateMutability": "payable",
      "type": "function"
    },
    {
      "inputs": [
        {
          "internalType": "uint256",
          "name": "",
          "type": "uint256"
        }
      ],
      "name": "distributionRecipients",
      "outputs": [
        {
          "internalType": "address",
          "name": "",
          "type": "address"
        }
      ],
      "stateMutability": "view",
      "type": "function"
    },
    {
      "inputs": [],
      "name": "founderWallet",
      "outputs": [
        {
          "internalType": "address",
          "name": "",
          "type": "address"
        }
      ],
      "stateMutability": "view",
      "type": "function"
    },
    {
      "inputs": [
        {
          "internalType": "uint256",
          "name": "",
          "type": "uint256"
        }
      ],
      "name": "fundedProperties",
      "outputs": [
        {
          "internalType": "uint256",
          "name": "",
          "type": "uint256"
        }
      ],
      "stateMutability": "view",
      "type": "function"
    },
    {
      "inputs": [
        {
          "internalType": "uint256",
          "name": "propertyId",
          "type": "uint256"
        }
      ],
      "name": "getDemandAdjustedTarget",
      "outputs": [
        {
          "internalType": "uint256",
          "name": "baseTarget",
          "type": "uint256"
        },
        {
          "internalType": "uint256",
          "name": "adjustedTarget",
          "type": "uint256"
        },
        {
          "internalType": "uint256",
          "name": "demandScore",
          "type": "uint256"
        }
      ],
      "stateMutability": "view",
      "type": "function"
    },
    {
      "inputs": [
        {
          "internalType": "uint256",
          "name": "propertyId",
          "type": "uint256"
        }
      ],
      "name": "getEscrowStatus",
      "outputs": [
        {
          "internalType": "uint256",
          "name": "totalRaised",
          "type": "uint256"
        },
        {
          "internalType": "uint256",
          "name": "fundingTarget",
          "type": "uint256"
        },
        {
          "internalType": "uint256",
          "name": "projectBudget",
          "type": "uint256"
        },
        {
          "internalType": "uint256",
          "name": "deadline",
          "type": "uint256"
        },
        {
          "internalType": "bool",
          "name": "isComplete",
          "type": "bool"
        },
        {
          "internalType": "bool",
          "name": "founderFeePaid",
          "type": "bool"
        },
        {
          "internalType": "uint256",
          "name": "percentFunded",
          "type": "uint256"
        }
      ],
      "stateMutability": "view",
      "type": "function"
    },
    {
      "inputs": [
        {
          "internalType": "uint256",
          "name": "propertyId",
          "type": "uint256"
        },
        {
          "internalType": "address",
          "name": "investor",
          "type": "address"
        }
      ],
      "name": "getInvestorContribution",
      "outputs": [
        {
          "internalType": "uint256",
          "name": "",
          "type": "uint256"
        }
      ],
      "stateMutability": "view",
      "type": "function"
    },
    {
      "inputs": [
        {
          "internalType": "uint256",
          "name": "propertyId",
          "type": "uint256"
        }
      ],
      "name": "getPurchaseCount",
      "outputs": [
        {
          "internalType": "uint256",
          "name": "",
          "type": "uint256"
        }
      ],
      "stateMutability": "view",
      "type": "function"
    },
    {
      "inputs": [
        {
          "internalType": "uint256",
          "name": "propertyId",
          "type": "uint256"
        },
        {
          "internalType": "uint256",
          "name": "index",
          "type": "uint256"
        }
      ],
      "name": "getPurchaseForAudit",
      "outputs": [
        {
          "internalType": "address",
          "name": "buyer",
          "type": "address"
        },
        {
          "internalType": "uint256",
          "name": "amount",
          "type": "uint256"
        },
        {
          "internalType": "uint256",
          "name": "price",
          "type": "uint256"
        },
        {
          "internalType": "uint256",
          "name": "totalPaid",
          "type": "uint256"
        },
        {
          "internalType": "uint256",
          "name": "timestamp",
          "type": "uint256"
        },
        {
          "internalType": "bool",
          "name": "refunded",
          "type": "bool"
        }
      ],
      "stateMutability": "view",
      "type": "function"
    },
    {
      "inputs": [
        {
          "internalType": "uint256",
          "name": "propertyId",
          "type": "uint256"
        }
      ],
      "name": "getPurchases",
      "outputs": [
        {
          "components": [
            {
              "internalType": "address",
              "name": "buyer",
              "type": "address"
            },
            {
              "internalType": "uint256",
              "name": "propertyId",
              "type": "uint256"
            },
            {
              "internalType": "uint256",
              "name": "amount",
              "type": "uint256"
            },
            {
              "internalType": "uint256",
              "name": "price",
              "type": "uint256"
            },
            {
              "internalType": "uint256",
              "name": "totalPaid",
              "type": "uint256"
            },
            {
              "internalType": "uint256",
              "name": "timestamp",
              "type": "uint256"
            },
            {
              "internalType": "bool",
              "name": "refunded",
              "type": "bool"
            }
          ],
          "internalType": "struct Escrow.Purchase[]",
          "name": "",
          "type": "tuple[]"
        }
      ],
      "stateMutability": "view",
      "type": "function"
    },
    {
      "inputs": [
        {
          "internalType": "uint256",
          "name": "propertyId",
          "type": "uint256"
        }
      ],
      "name": "getQuarterlyState",
      "outputs": [
        {
          "internalType": "uint256",
          "name": "lastDistribution",
          "type": "uint256"
        },
        {
          "internalType": "uint256",
          "name": "pendingIncome",
          "type": "uint256"
        },
        {
          "internalType": "uint256",
          "name": "nextDistribution",
          "type": "uint256"
        },
        {
          "internalType": "bool",
          "name": "isTracked",
          "type": "bool"
        }
      ],
      "stateMutability": "view",
      "type": "function"
    },
    {
      "inputs": [
        {
          "internalType": "bytes32",
          "name": "role",
          "type": "bytes32"
        }
      ],
      "name": "getRoleAdmin",
      "outputs": [
        {
          "internalType": "bytes32",
          "name": "",
          "type": "bytes32"
        }
      ],
      "stateMutability": "view",
      "type": "function"
    },
    {
      "inputs": [],
      "name": "governanceContract",
      "outputs": [
        {
          "internalType": "address",
          "name": "",
          "type": "address"
        }
      ],
      "stateMutability": "view",
      "type": "function"
    },
    {
      "inputs": [
        {
          "internalType": "bytes32",
          "name": "role",
          "type": "bytes32"
        },
        {
          "internalType": "address",
          "name": "account",
          "type": "address"
        }
      ],
      "name": "grantRole",
      "outputs": [],
      "stateMutability": "nonpayable",
      "type": "function"
    },
    {
      "inputs": [
        {
          "internalType": "bytes32",
          "name": "role",
          "type": "bytes32"
        },
        {
          "internalType": "address",
          "name": "account",
          "type": "address"
        }
      ],
      "name": "hasRole",
      "outputs": [
        {
          "internalType": "bool",
          "name": "",
          "type": "bool"
        }
      ],
      "stateMutability": "view",
      "type": "function"
    },
    {
      "inputs": [
        {
          "internalType": "uint256",
          "name": "propertyId",
          "type": "uint256"
        },
        {
          "internalType": "uint256",
          "name": "projectBudget",
          "type": "uint256"
        },
        {
          "internalType": "uint256",
          "name": "deadline",
          "type": "uint256"
        },
        {
          "internalType": "uint256",
          "name": "proposalId",
          "type": "uint256"
        }
      ],
      "name": "initializeEscrow",
      "outputs": [],
      "stateMutability": "nonpayable",
      "type": "function"
    },
    {
      "inputs": [
        {
          "internalType": "uint256",
          "name": "",
          "type": "uint256"
        }
      ],
      "name": "isPropertyActive",
      "outputs": [
        {
          "internalType": "bool",
          "name": "",
          "type": "bool"
        }
      ],
      "stateMutability": "view",
      "type": "function"
    },
    {
      "inputs": [
        {
          "internalType": "uint256",
          "name": "",
          "type": "uint256"
        }
      ],
      "name": "isPropertyFunded",
      "outputs": [
        {
          "internalType": "bool",
          "name": "",
          "type": "bool"
        }
      ],
      "stateMutability": "view",
      "type": "function"
    },
    {
      "inputs": [],
      "name": "pause",
      "outputs": [],
      "stateMutability": "nonpayable",
      "type": "function"
    },
    {
      "inputs": [],
      "name": "paused",
      "outputs": [
        {
          "internalType": "bool",
          "name": "",
          "type": "bool"
        }
      ],
      "stateMutability": "view",
      "type": "function"
    },
    {
      "inputs": [
        {
          "internalType": "bytes",
          "name": "performData",
          "type": "bytes"
        }
      ],
      "name": "performUpkeep",
      "outputs": [],
      "stateMutability": "nonpayable",
      "type": "function"
    },
    {
      "inputs": [
        {
          "internalType": "uint256",
          "name": "",
          "type": "uint256"
        }
      ],
      "name": "pollDemandScores",
      "outputs": [
        {
          "internalType": "uint256",
          "name": "",
          "type": "uint256"
        }
      ],
      "stateMutability": "view",
      "type": "function"
    },
    {
      "inputs": [
        {
          "internalType": "uint256",
          "name": "propertyId",
          "type": "uint256"
        }
      ],
      "name": "processRefunds",
      "outputs": [],
      "stateMutability": "nonpayable",
      "type": "function"
    },
    {
      "inputs": [
        {
          "internalType": "uint256",
          "name": "",
          "type": "uint256"
        }
      ],
      "name": "propertyEscrows",
      "outputs": [
        {
          "internalType": "uint256",
          "name": "totalRaised",
          "type": "uint256"
        },
        {
          "internalType": "uint256",
          "name": "fundingTarget",
          "type": "uint256"
        },
        {
          "internalType": "uint256",
          "name": "projectBudget",
          "type": "uint256"
        },
        {
          "internalType": "uint256",
          "name": "deadline",
          "type": "uint256"
        },
        {
          "internalType": "bool",
          "name": "isComplete",
          "type": "bool"
        },
        {
          "internalType": "bool",
          "name": "refundsProcessed",
          "type": "bool"
        },
        {
          "internalType": "bool",
          "name": "founderFeePaid",
          "type": "bool"
        },
        {
          "internalType": "uint256",
          "name": "proposalId",
          "type": "uint256"
        }
      ],
      "stateMutability": "view",
      "type": "function"
    },
    {
      "inputs": [
        {
          "internalType": "uint256",
          "name": "",
          "type": "uint256"
        },
        {
          "internalType": "uint256",
          "name": "",
          "type": "uint256"
        }
      ],
      "name": "propertyPurchases",
      "outputs": [
        {
          "internalType": "address",
          "name": "buyer",
          "type": "address"
        },
        {
          "internalType": "uint256",
          "name": "propertyId",
          "type": "uint256"
        },
        {
          "internalType": "uint256",
          "name": "amount",
          "type": "uint256"
        },
        {
          "internalType": "uint256",
          "name": "price",
          "type": "uint256"
        },
        {
          "internalType": "uint256",
          "name": "totalPaid",
          "type": "uint256"
        },
        {
          "internalType": "uint256",
          "name": "timestamp",
          "type": "uint256"
        },
        {
          "internalType": "bool",
          "name": "refunded",
          "type": "bool"
        }
      ],
      "stateMutability": "view",
      "type": "function"
    },
    {
      "inputs": [],
      "name": "propertyToken",
      "outputs": [
        {
          "internalType": "contract IPropertyToken",
          "name": "",
          "type": "address"
        }
      ],
      "stateMutability": "view",
      "type": "function"
    },
    {
      "inputs": [
        {
          "internalType": "uint256",
          "name": "propertyId",
          "type": "uint256"
        },
        {
          "internalType": "uint256",
          "name": "amount",
          "type": "uint256"
        }
      ],
      "name": "purchase",
      "outputs": [],
      "stateMutability": "payable",
      "type": "function"
    },
    {
      "inputs": [
        {
          "internalType": "uint256",
          "name": "",
          "type": "uint256"
        }
      ],
      "name": "quarterlyStates",
      "outputs": [
        {
          "internalType": "uint256",
          "name": "lastDistribution",
          "type": "uint256"
        },
        {
          "internalType": "uint256",
          "name": "pendingIncome",
          "type": "uint256"
        },
        {
          "internalType": "bool",
          "name": "isTracked",
          "type": "bool"
        }
      ],
      "stateMutability": "view",
      "type": "function"
    },
    {
      "inputs": [
        {
          "internalType": "uint256",
          "name": "propertyId",
          "type": "uint256"
        },
        {
          "internalType": "address",
          "name": "recipient",
          "type": "address"
        }
      ],
      "name": "releaseFunds",
      "outputs": [],
      "stateMutability": "nonpayable",
      "type": "function"
    },
    {
      "inputs": [
        {
          "internalType": "bytes32",
          "name": "role",
          "type": "bytes32"
        },
        {
          "internalType": "address",
          "name": "callerConfirmation",
          "type": "address"
        }
      ],
      "name": "renounceRole",
      "outputs": [],
      "stateMutability": "nonpayable",
      "type": "function"
    },
    {
      "inputs": [
        {
          "internalType": "uint256",
          "name": "propertyId",
          "type": "uint256"
        },
        {
          "internalType": "address",
          "name": "account",
          "type": "address"
        },
        {
          "internalType": "string",
          "name": "activityType",
          "type": "string"
        }
      ],
      "name": "reportSuspiciousActivity",
      "outputs": [],
      "stateMutability": "nonpayable",
      "type": "function"
    },
    {
      "inputs": [
        {
          "internalType": "bytes32",
          "name": "role",
          "type": "bytes32"
        },
        {
          "internalType": "address",
          "name": "account",
          "type": "address"
        }
      ],
      "name": "revokeRole",
      "outputs": [],
      "stateMutability": "nonpayable",
      "type": "function"
    },
    {
      "inputs": [
        {
          "internalType": "address",
          "name": "_oracle",
          "type": "address"
        }
      ],
      "name": "setAMLOracle",
      "outputs": [],
      "stateMutability": "nonpayable",
      "type": "function"
    },
    {
      "inputs": [
        {
          "internalType": "uint256",
          "name": "propertyId",
          "type": "uint256"
        },
        {
          "internalType": "address",
          "name": "recipient",
          "type": "address"
        }
      ],
      "name": "setDistributionRecipient",
      "outputs": [],
      "stateMutability": "nonpayable",
      "type": "function"
    },
    {
      "inputs": [
        {
          "internalType": "address",
          "name": "_governance",
          "type": "address"
        }
      ],
      "name": "setGovernanceContract",
      "outputs": [],
      "stateMutability": "nonpayable",
      "type": "function"
    },
    {
      "inputs": [
        {
          "internalType": "bytes4",
          "name": "interfaceId",
          "type": "bytes4"
        }
      ],
      "name": "supportsInterface",
      "outputs": [
        {
          "internalType": "bool",
          "name": "",
          "type": "bool"
        }
      ],
      "stateMutability": "view",
      "type": "function"
    },
    {
      "inputs": [],
      "name": "unpause",
      "outputs": [],
      "stateMutability": "nonpayable",
      "type": "function"
    },
    {
      "inputs": [
        {
          "internalType": "uint256",
          "name": "propertyId",
          "type": "uint256"
        },
        {
          "internalType": "uint256",
          "name": "demandScore",
          "type": "uint256"
        }
      ],
      "name": "updatePollDemand",
      "outputs": [],
      "stateMutability": "nonpayable",
      "type": "function"
    },
    {
      "stateMutability": "payable",
      "type": "receive"
    }
  ],
  "bytecode": "0x60a0346200011a57601f620031e038819003918201601f19168301916001600160401b038311848410176200011f5780849260409485528339810103126200011a576200005a6020620000528362000135565b920162000135565b6001805560025490916001600160a01b03831615620000d5576001600160a81b031990911660089190911b610100600160a81b031617600255608052620000a1336200014a565b50620000ad33620001ca565b50604051612f5390816200026d8239608051818181610c610152818161131901526120280152f35b60405162461bcd60e51b815260206004820152601760248201527f466f756e6465722077616c6c65742072657175697265640000000000000000006044820152606490fd5b600080fd5b634e487b7160e01b600052604160045260246000fd5b51906001600160a01b03821682036200011a57565b6001600160a01b031660008181527fad3228b676f7d3cd4284a5443f17f1962b36e491b30a40b2405849e597ba5fb5602052604081205490919060ff16620001c657818052816020526040822081835260205260408220600160ff198254161790553391600080516020620031c08339815191528180a4600190565b5090565b6001600160a01b031660008181527fee57cd81e84075558e8fcc182a1f4393f91fc97f963a136e66b7f949a62f319f60205260408120549091907f97667070c54ef182b0f5858b034beac1b6f3089aa2d3188bb1e8929f4fa9b9299060ff166200026757808352826020526040832082845260205260408320600160ff19825416179055600080516020620031c0833981519152339380a4600190565b50509056fe608080604052600436101561001d575b50361561001b57600080fd5b005b600090813560e01c90816301ffc9a7146127f85750806311028915146127dc5780631129753f1461279c57806311e2e1751461227a57806314a2873a1461277f578063154bb891146127505780631af23a59146125dc578063213b8f73146125b35780632430fc3d14612531578063248a9ca3146125055780632b904a79146124db5780632d56061d146124ac5780632f2ff15d1461246f578063345460cd146123a4578063346ef41b1461237157806336568abe146123295780633f4ba83a146122be57806340a0841b1461227a578063435a481a146121ee57806343ae2695146121c15780634585e33b14611db357806350e2f0f714611cef5780635c79a28914611abe5780635c975abb14611a9b5780636e04ff0d14611a245780636f629ed5146118b557806370876c9814610ee157806373f9ff4e14610e705780637f42ff6414610dd85780638456cb5914610d7d5780638b7155d214610d3d5780639093bb2014610d1357806391d1485414610cc8578063937daefd14610cac578063a217fddf14610c90578063a23d3c3514610c4b578063a384854e14610b1c578063a8b268de14610af1578063b172b22214610ac8578063b6607cc514610aac578063b7fe095314610a51578063be4ac3dc146108ae578063be6d243e14610884578063bf9586e014610867578063c6f569011461047c578063d2e0f66e146103f2578063d38e698e146103d4578063d547741f14610393578063da561ec61461034c578063e1f1c4a71461032f578063e38abd0f1461030d578063e6a69ab8146102ee578063f5b541a6146102b35763f71896cc0361000f57346102b05760203660031901126102b05760043590600b548210156102b05760206102a28361292c565b90546040519160031b1c8152f35b80fd5b50346102b057806003193601126102b05760206040517f97667070c54ef182b0f5858b034beac1b6f3089aa2d3188bb1e8929f4fa9b9298152f35b50346102b057806003193601126102b05760206040516301e133808152f35b50346102b0576020610327610321366128a6565b90612cd9565b604051908152f35b50346102b057806003193601126102b05760206040516127108152f35b50346102b05760203660031901126102b0576040606091600435815260086020522080549060ff600260018301549201541690604051928352602083015215156040820152f35b50346102b05760403660031901126102b0576103d06004356103b3612863565b90808452836020526103cb6001604086200154612dc3565b612e8a565b5080f35b50346102b057806003193601126102b05760206040516276a7008152f35b50346102b057610401366128a6565b919081526005602052604081209081548310156102b05760e06104248484612963565b5060018060a01b03815416906001810154906002810154600382015460048301549160ff600660058601549501541694604051968752602087015260408601526060850152608084015260a0830152151560c0820152f35b50346102b05760203660031901126102b057610496612de9565b6004358152600660205260408120600a6020526104b960ff604084205416612a5d565b60048101805460ff8116610829576104d76003840154421015612ade565b60ff8160081c166107e4576101009061ff001916179055805460018092015460405191825260208201527fe530e08c8f5e186cb204c6c0e883b12ddbcd56a383e4113f06dbee1e09fde7c6604060043592a26004358252600560205280604083208184905b61055f575b5050506004358252600a60205260408220805460ff19169055805580f35b81548110156107df576105728183612963565b506006810180549060ff82161561058f575b50505082018261053c565b909291946105a66004870154600588015490612cd9565b60ff199094161790556002548454604051627eeac760e11b81526001600160a01b039182166004808301829052356024830152899360081c9092169190602081604481865afa9081156107d457849161079a575b5080610721575b5050508080808560018060a01b038954165af161061c612a04565b50156106e357849384927fae5e4bdebc0d69f9b0be70b5e09166a1e47166c306633f938b7d07cef8d1a7906106d86106b6600460018060a01b038654169501548486610669838098612cab565b7f35b1f7e4c3146d284962cc37abf509799d0f4be30b6a19d025ba7309302c9487604051806106ae866004359589846040919493926060820195825260208201520152565b0390a3612cab565b6040805194855260208501919091524290840152600435929081906060820190565b0390a3903880610584565b60405162461bcd60e51b81526020600482015260166024820152751499599d5b99081d1c985b9cd9995c8819985a5b195960521b6044820152606490fd5b823b1561079657604051631dd85adb60e11b815260048035908201526001600160a01b0392909216602483015260448201529082908290606490829084905af1801561078b57610773575b8080610601565b61077c9061297f565b61078757853861076c565b8580fd5b6040513d84823e3d90fd5b8380fd5b9350506020833d6020116107cc575b816107b6602093836129c8565b810103126107c757889251386105fa565b600080fd5b3d91506107a9565b6040513d86823e3d90fd5b610541565b60405162461bcd60e51b815260206004820152601960248201527f526566756e647320616c72656164792070726f636573736564000000000000006044820152606490fd5b60405162461bcd60e51b8152602060048201526016602482015275119d5b991a5b99c81dd85cc81cdd58d8d95cdcd99d5b60521b6044820152606490fd5b50346102b057806003193601126102b05760206040516109c48152f35b50346102b05760203660031901126102b05760406020916004358152600f83522054604051908152f35b50346102b0576108bd366128a6565b6108c5612d67565b8183526020600a81526108de60ff604086205416612a5d565b61271090818311610a1657838552600681526040852060ff6004820154166109d157848652600e8252836040872055600f82526040862054869084611b588710156109a1575b6109316109389383612a34565b0490612b21565b928360018301556126ac80850290858204148515171561098d579160027f11048d4b31e45dea888dfccd9163b3bfd669feedfea3a6f44938ac90d77c2f9a96949260409694049101558351928352820152a280f35b634e487b7160e01b88526011600452602488fd5b509050611b5719850185811161098d576109c49081810291818304149015171561098d57610bb890049084610924565b60405162461bcd60e51b815260048101839052601860248201527f46756e64696e6720616c726561647920636f6d706c65746500000000000000006044820152606490fd5b6064906040519062461bcd60e51b825260048201526014602482015273496e76616c69642064656d616e642073636f726560601b6044820152fd5b50346102b05760203660031901126102b0576004358152600f60205260408120546006602052610aa860406001818520015493600e6020522054604051938493846040919493926060820195825260208201520152565b0390f35b50346102b057806003193601126102b057602060405160508152f35b50346102b057806003193601126102b0576004546040516001600160a01b039091168152602090f35b50346102b05760203660031901126102b057600435906009548210156102b05760206102a2836128df565b5060403660031901126102b0576004356024356001600160401b038111610c4757610b4b903690600401612879565b90610b54612d67565b828452600c60205260ff60408520541615610c0c573415610bd0577f298a82860699031727d1bf8a607ec42d9c496cae1f2762d56954d576c211b1fe91838552600860205260016040862001610bab348254612b21565b9055610bca604051928392348452604060208501526040840191612cb8565b0390a280f35b60405162461bcd60e51b8152602060048201526014602482015273139bc81a5b98dbdb59481d1bc819195c1bdcda5d60621b6044820152606490fd5b60405162461bcd60e51b8152602060048201526013602482015272141c9bdc195c9d1e481b9bdd08199d5b991959606a1b6044820152606490fd5b8280fd5b50346102b057806003193601126102b0576040517f00000000000000000000000000000000000000000000000000000000000000006001600160a01b03168152602090f35b50346102b057806003193601126102b057602090604051908152f35b50346102b057806003193601126102b057602060405160468152f35b50346102b05760403660031901126102b0576040610ce4612863565b91600435815280602052209060018060a01b0316600052602052602060ff604060002054166040519015158152f35b50346102b05760203660031901126102b05760406020916004358152600583522054604051908152f35b50346102b05760203660031901126102b057610d5761284d565b610d5f612d0f565b60018060a01b03166001600160601b0360a01b600354161760035580f35b50346102b057806003193601126102b057610d96612d0f565b610d9e612eff565b600160ff1960025416176002557f62e78cea01bee320cd4e420270b5ea74000d11b0c9f74754ebdbfc544b05a2586020604051338152a180f35b50346102b05760603660031901126102b057610df2612863565b604435906001600160401b038211610c47577f3914d40c9fe0daebd442d05df43dd630d415a8ce81ce1695843ca510f4f1c4f5610e36610e52933690600401612879565b9390610e40612d67565b60405194604086526040860191612cb8565b4260208501526001600160a01b03909216926004359281900390a380f35b50346102b05760203660031901126102b0576004358152600860205260408120908154906001830154906276a700830190818411610ecd575060ff6002608095015416916040519384526020840152604083015215156060820152f35b634e487b7160e01b81526011600452602490fd5b50610eeb366128a6565b610ef3612de9565b610efb612eff565b81835260066020526040832090600a602052610f1d60ff604086205416612a5d565b610f2e60ff60048401541615612a9f565b60038201544210156118705760035484906001600160a01b031680611777575b50506002546040516362ae87ab60e11b815260048101859052906020908290602490829060081c6001600160a01b03165afa90811561176c57859161173a575b50610f998282612a34565b908134106116fe5784865260056020526040862060405191610fba83612992565b33835286602084015284604084015260608301528260808301524260a08301528660c0830152805490600160401b8210156116ea5790610fff91600182018155612963565b9190916116d65790600660c06110739360018060a01b038151166001600160601b0360a01b8554161784556020810151600185015560408101516002850155606081015160038501556080810151600485015560a081015160058501550151151591019060ff801983541691151516179055565b61107e818454612b21565b83558385526007602052604085203360005260205260406000206110a3828254612b21565b9055600254859060081c6001600160a01b0316803b15611660576040516346b40cdf60e11b815260048101879052336024820152604481018590529082908290606490829084905af1801561078b576116be575b5050803411611664575b604051847f076d4a8f0927f81646eba8e062c7769238e76316ca0f16820b27d377c2becc1e339280611146428789846040919493926060820195825260208201520152565b0390a36040514260208201523360601b6040820152846054820152826074820152607481528060a08101106001600160401b0360a08301111761147a576111ee9260a08201604052815160208301209060a08301528260c083015260e0820152847f2ded55fd793d860b77d0778a0cdf6984909d323e049f1ed2923eba867202b361606060a0339401a383855260076020526040852033600052602052604060002054612cab565b82845260076020526040842033600052602052604060002054604051918252602082015260016040820152827f42d3cd62f75f9115471aa0a6ef108d9e0fef8e5b6913419befd8a166879def4f60603393a3600181549101541115611256575b506001805580f35b80825260066020526040822060048101805460ff19166001179055600254839060081c6001600160a01b0316803b15611660578180916024604051809481936362b3375960e11b83528960048401525af1801561078b5761164c575b50508054606481029080820460641481151715611638576004548591906001906001600160a01b0316806114ef575b50806114e2575b156114d557506201000062ff00001960048501541617600484015561131261271083048454612cab565b60028401557f00000000000000000000000000000000000000000000000000000000000000006001600160a01b031691858080806127108504875af1611356612a04565b50156114905760407fd3bff92a06f059ffe4dc0961b88c7a33c074d4cb95d95d996ad9a094e0f14db29186936127108351920482526020820152a35b60405160608101908082106001600160401b0383111761147a576113f4916040524281526002602082018681526040830190600182528688526008602052604088209351845551600184015551151591019060ff801983541691151516179055565b600b54600160401b81101561147a577fbd04b0e879e6a84a288e6660cfcc2e8337035a9ad3343ff360c4aefb45576aae9161143782600160409401600b5561292c565b81549060031b9086821b91600019901b1916179055838552600c602052818520600160ff198254161790556002815491015482519182526020820152a23861124e565b634e487b7160e01b600052604160045260246000fd5b60405162461bcd60e51b815260206004820152601b60248201527f466f756e64657220666565207472616e73666572206661696c656400000000006044820152606490fd5b9150506002820155611392565b50612710830415156112e8565b90876005870154602460405180958193632542515160e21b835260048301525afa8892816115a4575b5061152857505060015b386112e1565b909250826046811061153b575b50611522565b9050857f2b0a0eb5cc368f947ec76563b6992d3ec41dbe4a0bae8891d41589c2249fd48e6080899360405190815260406020820152601f60408201527f496d706163742073636f72652062656c6f77203730207468726573686f6c64006060820152a238611535565b9092503d90818a823e6115b782826129c8565b6040818381010312611634578051916001600160401b03831161163057808201601f84840101121561163057828201516115f0816129e9565b916115fe60405193846129c8565b818352830160208286860101011161162c5760209384806116239401918501016128bc565b01519138611518565b8b80fd5b8a80fd5b8980fd5b634e487b7160e01b85526011600452602485fd5b6116559061297f565b610c475782386112b2565b5080fd5b848080806116728534612cab565b335af161167d612a04565b506111015760405162461bcd60e51b8152602060048201526014602482015273115e18d95cdcc81c99599d5b990819985a5b195960621b6044820152606490fd5b6116c79061297f565b6116d25784386110f7565b8480fd5b634e487b7160e01b87526004879052602487fd5b634e487b7160e01b88526041600452602488fd5b60405162461bcd60e51b8152602060048201526014602482015273125b9cdd59999a58da595b9d081c185e5b595b9d60621b6044820152606490fd5b90506020813d602011611764575b81611755602093836129c8565b810103126107c7575138610f8e565b3d9150611748565b6040513d87823e3d90fd5b602090602460405180948193633c84af8760e01b83523360048401525af1801561176c57859061183d575b60509150116117b2578338610f4e565b826040519060408252600e60408301526d4869676820414d4c2053636f726560901b60608301524260208301527f3914d40c9fe0daebd442d05df43dd630d415a8ce81ce1695843ca510f4f1c4f560803393a360405162461bcd60e51b815260206004820152601060248201526f1053530818da1958dac819985a5b195960821b6044820152606490fd5b506020813d602011611868575b81611857602093836129c8565b810103126107c757605090516117a2565b3d915061184a565b60405162461bcd60e51b815260206004820152601760248201527f46756e64696e6720646561646c696e65207061737365640000000000000000006044820152606490fd5b50346102b057602090816003193601126102b05760043581526005808352604082209283546001600160401b038111611a105791849192604051916118ff858360051b01846129c8565b81835284830190819487528587209087925b84841061199d5750505050506040519280840191818552518092526040840192945b8281106119405784840385f35b855180516001600160a01b03168552808301518584015260408082015190860152606080820151908601526080808201519086015260a0808201519086015260c0908101511515908501529481019460e090930192600101611933565b60078860019260409b9a98999b516119b481612992565b848060a01b03875416815284870154838201526002870154604082015260038701546060820152600487015460808201528587015460a082015260ff600688015416151560c08201528152019301930192919795949697611911565b634e487b7160e01b84526041600452602484fd5b50346102b05760203660031901126102b0576004356001600160401b03811161166057611a55903690600401612879565b50506060611a61612b2e565b91906040519283911515825260406020830152611a8d81518092816040860152602086860191016128bc565b601f01601f19168101030190f35b50346102b057806003193601126102b057602060ff600254166040519015158152f35b50346102b05760803660031901126102b0576024908135600435611ae0612d67565b808352602091600a835260ff604085205416611cb3578015611c6f57612710810261270f1982820401611c5c576126ac900490828552600f8452816040862055604051916101008301918383106001600160401b03841117611c47576005926040528684528584019182526040840190815260608401906044358252608085019188835260a086019089825260c08701928a845260e08801956064358752898c5260068b5260408c2098518955516001890155516002880155516003870155611bbc6004870193511515849060ff801983541691151516179055565b5115159061ff0062ff000084549251151560101b169260081b169062ffff001916171790555191015560095493600160401b851015611c335750611c09846001600a9596016009556128df565b81549060031b9083821b91600019901b191617905583525260408120600160ff1982541617905580f35b634e487b7160e01b60009081526041600452fd5b87634e487b7160e01b60005260416004526000fd5b634e487b7160e01b855260116004528585fd5b60405162461bcd60e51b8152600481018490526017818701527f50726f6a656374206275646765742072657175697265640000000000000000006044820152606490fd5b60405162461bcd60e51b81526004810184905260158187015274457363726f7720616c72656164792065786973747360581b6044820152606490fd5b50346102b057611cfe366128a6565b818392935260056020526040822054811015611d785760408260c094611d2a9452600560205220612963565b5060018060a01b0381541690600281015490600381015460048201549060ff6006600585015494015416936040519586526020860152604085015260608401526080830152151560a0820152f35b60405162461bcd60e51b8152602060048201526013602482015272496e646578206f7574206f6620626f756e647360681b6044820152606490fd5b50346102b05760208060031936011261166057600435906001600160401b038211610c4757611de86040923690600401612879565b9080939181010312610c475781359160ff8316809303610796578101359180611ecd5750818352600681526040832090600a8152611e2c60ff604086205416612a5d565b60ff6004830154611e3f82821615612a9f565b60081c16611e9557506003611e58910154421015612ade565b303b15611660576040519063c6f5690160e01b82526004820152818160248183305af1801561078b57611e89575080f35b611e929061297f565b80f35b6064906040519062461bcd60e51b8252600482015260116024820152701499599d5b991cc81c1c9bd8d95cdcd959607a1b6044820152fd5b600114611ed957505080f35b81835260088152604083209060ff600283015416156121845781546276a700810180911161163857421061214057600182019081549283156120fb57848652600d825260408620546001600160a01b0393908416156120b657869055429055606483028381046064036120a25761271090049085611f578386612cab565b9383612020575b84611fa5575b5050917ffa2256ed22b95bad4ade0813dbe7b8eee9382165c52aa77952de366b24bf8e2093916080936040519384528301526040820152426060820152a280f35b81808681938a8352600d87526040832054165af1611fc1612a04565b5015611fce578538611f64565b6084906040519062461bcd60e51b82526004820152602560248201527f496e766573746f7220646973747269627574696f6e207472616e736665722066604482015264185a5b195960da1b6064820152fd5b9080808086857f0000000000000000000000000000000000000000000000000000000000000000165af1612052612a04565b501561205f578690611f5e565b6064826040519062461bcd60e51b825280600483015260248201527f466f756e64657220717561727465726c79207061796d656e74206661696c65646044820152fd5b634e487b7160e01b86526011600452602486fd5b60405162461bcd60e51b815260048101849052601e60248201527f446973747269627574696f6e20726563697069656e74206e6f742073657400006044820152606490fd5b60405162461bcd60e51b815260048101839052601760248201527f4e6f20696e636f6d6520746f20646973747269627574650000000000000000006044820152606490fd5b6064906040519062461bcd60e51b82526004820152601a60248201527f546f6f206561726c7920666f7220646973747269627574696f6e0000000000006044820152fd5b6064906040519062461bcd60e51b8252600482015260166024820152754e6f74206120747261636b65642070726f706572747960501b6044820152fd5b50346102b057806003193601126102b05760025460405160089190911c6001600160a01b03168152602090f35b50346102b05760403660031901126102b057612208612863565b612210612d67565b6001600160a01b03168015612241576004358252600d6020526040822080546001600160a01b031916909117905580f35b60405162461bcd60e51b8152602060048201526011602482015270125b9d985b1a59081c9958da5c1a595b9d607a1b6044820152606490fd5b50346102b05760403660031901126102b0576040602091612299612863565b6004358252600784528282206001600160a01b03909116825283522054604051908152f35b50346102b057806003193601126102b0576122d7612d0f565b60025460ff8116156123175760ff19166002557f5db9ee0a495bf2e6ff9c91a7834c1ba4fdd244a5e8aa4e537bd38aeae4b073aa6020604051338152a180f35b604051638dfc202b60e01b8152600490fd5b50346102b05760403660031901126102b057612343612863565b336001600160a01b0382160361235f576103d090600435612e8a565b60405163334bd91960e11b8152600490fd5b50346102b05760203660031901126102b0576020906004358152600d8252604060018060a01b0391205416604051908152f35b50346102b05760203660031901126102b0576004358152600660205260408120600181015480159283612462578254936127109485810295818704149015171561244e5761243a575060ff8160e09404915b835493600281015460046003830154920154926040519687526020870152604086015260608501528181161515608085015260101c16151560a083015260c0820152f35b634e487b7160e01b81526012600452602490fd5b634e487b7160e01b82526011600452602482fd5b60e0935060ff90916123f6565b50346102b05760403660031901126102b0576103d060043561248f612863565b90808452836020526124a76001604086200154612dc3565b612e0c565b50346102b05760203660031901126102b05760ff60406020926004358152600c84522054166040519015158152f35b50346102b05760203660031901126102b05760406020916004358152600e83522054604051908152f35b50346102b05760203660031901126102b057600160406020926004358152808452200154604051908152f35b50346102b05760203660031901126102b057604061010091600435815260066020522080549060ff6001820154916002810154600382015490600560048401549301549460405196875260208701526040860152606085015281811615156080850152818160081c16151560a085015260101c16151560c083015260e0820152f35b50346102b057806003193601126102b0576003546040516001600160a01b039091168152602090f35b50346102b05760403660031901126102b0576004356125f9612863565b90612602612d67565b61260a612de9565b8083526020600681526040842060ff60048201541615612714576002019283549384156126cf57859055828552600a825260408520805460ff191690556001600160a01b0316928480808084885af1612661612a04565b501561269857907f6e3c6096795c8298a218b2cfb8bde42726ff7c9a3d27b4d3ba41ab7f74feb5fb91604051908152a36001805580f35b60405162461bcd60e51b815260048101839052600f60248201526e151c985b9cd9995c8819985a5b1959608a1b6044820152606490fd5b60405162461bcd60e51b815260048101849052601c60248201527f4e6f2070726f6a6563742062756467657420746f2072656c65617365000000006044820152606490fd5b60405162461bcd60e51b815260048101839052601460248201527346756e64696e67206e6f7420636f6d706c65746560601b6044820152606490fd5b50346102b05760203660031901126102b05760ff60406020926004358152600a84522054166040519015158152f35b50346102b057806003193601126102b057602060405161012c8152f35b50346102b05760203660031901126102b0576127b661284d565b6127be612d0f565b60018060a01b03166001600160601b0360a01b600454161760045580f35b50346102b057806003193601126102b057602060405160648152f35b9050346116605760203660031901126116605760043563ffffffff60e01b8116809103610c475760209250637965db0b60e01b811490811561283c575b5015158152f35b6301ffc9a760e01b14905038612835565b600435906001600160a01b03821682036107c757565b602435906001600160a01b03821682036107c757565b9181601f840112156107c7578235916001600160401b0383116107c757602083818601950101116107c757565b60409060031901126107c7576004359060243590565b60005b8381106128cf5750506000910152565b81810151838201526020016128bf565b6009548110156129165760096000527f6e1540171b6c0c960b71a7020d9f60077f6af931a8bbf590da0223dacf75c7af0190600090565b634e487b7160e01b600052603260045260246000fd5b600b5481101561291657600b6000527f0175b7a638427703f0dbe7bb9bbf987a2551717b34e79f33b5b1008d1fa01db90190600090565b8054821015612916576000526007602060002091020190600090565b6001600160401b03811161147a57604052565b60e081019081106001600160401b0382111761147a57604052565b606081019081106001600160401b0382111761147a57604052565b90601f801991011681019081106001600160401b0382111761147a57604052565b6001600160401b03811161147a57601f01601f191660200190565b3d15612a2f573d90612a15826129e9565b91612a2360405193846129c8565b82523d6000602084013e565b606090565b81810292918115918404141715612a4757565b634e487b7160e01b600052601160045260246000fd5b15612a6457565b60405162461bcd60e51b815260206004820152601360248201527250726f7065727479206e6f742061637469766560681b6044820152606490fd5b15612aa657565b60405162461bcd60e51b815260206004820152601060248201526f46756e64696e6720636f6d706c65746560801b6044820152606490fd5b15612ae557565b60405162461bcd60e51b8152602060048201526014602482015273111958591b1a5b99481b9bdd081c995858da195960621b6044820152606490fd5b91908201809211612a4757565b60095460005b818110612c01575050600b5460005b818110612b72575050600090604051602081018181106001600160401b0382111761147a576040526000815290565b612b7b8161292c565b90549060031b1c8060005260206008815260408060002060ff6002820154169081612bf3575b81612bda575b50612bb757505050600101612b43565b91949350915080519360018093860152818501528352612bd6836129ad565b9190565b9050546276a7008101809111612a475742101538612ba7565b600181015415159150612ba1565b612c0a816128df565b9054600391821b1c9081600052602091600683526040918260002090600a855260ff91828560002054169283612c9c575b83612c8a575b5082612c7c575b5050612c5957505050600101612b34565b9194935091506000825194850152818401528252612c76826129ad565b60019190565b015442101590503880612c48565b600482015460081c1615925038612c41565b60048201548116159350612c3b565b91908203918211612a4757565b908060209392818452848401376000828201840152601f01601f1916010190565b90612ce49042612cab565b9061012c91828202928284041482151715612a475761093164496cebb80091612d0c94612a34565b90565b3360009081527fad3228b676f7d3cd4284a5443f17f1962b36e491b30a40b2405849e597ba5fb5602052604081205460ff1615612d495750565b6044906040519063e2517d3f60e01b82523360048301526024820152fd5b3360009081527fee57cd81e84075558e8fcc182a1f4393f91fc97f963a136e66b7f949a62f319f60205260409020547f97667070c54ef182b0f5858b034beac1b6f3089aa2d3188bb1e8929f4fa9b9299060ff1615612d495750565b80600052600060205260406000203360005260205260ff6040600020541615612d495750565b600260015414612dfa576002600155565b604051633ee5aeb560e01b8152600490fd5b9060009180835282602052604083209160018060a01b03169182845260205260ff60408420541615600014612e8557808352826020526040832082845260205260408320600160ff198254161790557f2f8788117e7eff1d82e926ec794901d17c78024a50270940304540a733656f0d339380a4600190565b505090565b9060009180835282602052604083209160018060a01b03169182845260205260ff604084205416600014612e855780835282602052604083208284526020526040832060ff1981541690557ff6391f5c32d9c69d2a47ea670b442974b53935d1edc7fd64eb21e047a839171b339380a4600190565b60ff60025416612f0b57565b60405163d93c066560e01b8152600490fdfea26469706673582212208d7e63dc31a2faacdbae2b40d6ceeaa572534c0e4c9afa9b197972c7f240d0a764736f6c634300081800332f8788117e7eff1d82e926ec794901d17c78024a50270940304540a733656f0d",
  "linkReferences": {},
  "deployedLinkReferences": {}
}