{
  "_format": "hh-sol-artifact-1",
  "contractName": "PropertyToken",
  "sourceName": "contracts/PropertyToken.sol",
  "abi": [
    {
      "inputs": [
        {
          "internalType": "string",
          "name": "uri_",
          "type": "string"
        }
      ],
      "stateMutability": "nonpayable",
      "type": "constructor"
    },
    {
      "inputs": [],
      "name": "AccessControlBadConfirmation",
      "type": "error"
    },
    {
      "inputs": [
        {
          "internalType": "address",
          "name": "account",
          "type": "address"
        },
        {
          "internalType": "bytes32",
          "name": "neededRole",
          "type": "bytes32"
        }
      ],
      "name": "AccessControlUnauthorizedAccount",
      "type": "error"
    },
    {
      "inputs": [
        {
          "internalType": "address",
          "name": "sender",
          "type": "address"
        },
        {
          "internalType": "uint256",
          "name": "balance",
          "type": "uint256"
        },
        {
          "internalType": "uint256",
          "name": "needed",
          "type": "uint256"
        },
        {
          "internalType": "uint256",
          "name": "tokenId",
          "type": "uint256"
        }
      ],
      "name": "ERC1155InsufficientBalance",
      "type": "error"
    },
    {
      "inputs": [
        {
          "internalType": "address",
          "name": "approver",
          "type": "address"
        }
      ],
      "name": "ERC1155InvalidApprover",
      "type": "error"
    },
    {
      "inputs": [
        {
          "internalType": "uint256",
          "name": "idsLength",
          "type": "uint256"
        },
        {
          "internalType": "uint256",
          "name": "valuesLength",
          "type": "uint256"
        }
      ],
      "name": "ERC1155InvalidArrayLength",
      "type": "error"
    },
    {
      "inputs": [
        {
          "internalType": "address",
          "name": "operator",
          "type": "address"
        }
      ],
      "name": "ERC1155InvalidOperator",
      "type": "error"
    },
    {
      "inputs": [
        {
          "internalType": "address",
          "name": "receiver",
          "type": "address"
        }
      ],
      "name": "ERC1155InvalidReceiver",
      "type": "error"
    },
    {
      "inputs": [
        {
          "internalType": "address",
          "name": "sender",
          "type": "address"
        }
      ],
      "name": "ERC1155InvalidSender",
      "type": "error"
    },
    {
      "inputs": [
        {
          "internalType": "address",
          "name": "operator",
          "type": "address"
        },
        {
          "internalType": "address",
          "name": "owner",
          "type": "address"
        }
      ],
      "name": "ERC1155MissingApprovalForAll",
      "type": "error"
    },
    {
      "inputs": [],
      "name": "EnforcedPause",
      "type": "error"
    },
    {
      "inputs": [],
      "name": "ExpectedPause",
      "type": "error"
    },
    {
      "inputs": [],
      "name": "ReentrancyGuardReentrantCall",
      "type": "error"
    },
    {
      "anonymous": false,
      "inputs": [
        {
          "indexed": true,
          "internalType": "address",
          "name": "account",
          "type": "address"
        }
      ],
      "name": "AddressRemovedFromWhitelist",
      "type": "event"
    },
    {
      "anonymous": false,
      "inputs": [
        {
          "indexed": true,
          "internalType": "address",
          "name": "account",
          "type": "address"
        },
        {
          "indexed": false,
          "internalType": "enum PropertyToken.Phase",
          "name": "eligibility",
          "type": "uint8"
        }
      ],
      "name": "AddressWhitelisted",
      "type": "event"
    },
    {
      "anonymous": false,
      "inputs": [
        {
          "indexed": true,
          "internalType": "address",
          "name": "account",
          "type": "address"
        },
        {
          "indexed": true,
          "internalType": "address",
          "name": "operator",
          "type": "address"
        },
        {
          "indexed": false,
          "internalType": "bool",
          "name": "approved",
          "type": "bool"
        }
      ],
      "name": "ApprovalForAll",
      "type": "event"
    },
    {
      "anonymous": false,
      "inputs": [
        {
          "indexed": false,
          "internalType": "uint256",
          "name": "newPrice",
          "type": "uint256"
        }
      ],
      "name": "BasePriceUpdated",
      "type": "event"
    },
    {
      "anonymous": false,
      "inputs": [
        {
          "indexed": false,
          "internalType": "address",
          "name": "account",
          "type": "address"
        }
      ],
      "name": "Paused",
      "type": "event"
    },
    {
      "anonymous": false,
      "inputs": [
        {
          "indexed": true,
          "internalType": "uint256",
          "name": "propertyId",
          "type": "uint256"
        },
        {
          "indexed": false,
          "internalType": "enum PropertyToken.Phase",
          "name": "newPhase",
          "type": "uint8"
        }
      ],
      "name": "PhaseAdvanced",
      "type": "event"
    },
    {
      "anonymous": false,
      "inputs": [
        {
          "indexed": true,
          "internalType": "uint256",
          "name": "propertyId",
          "type": "uint256"
        },
        {
          "indexed": false,
          "internalType": "string",
          "name": "name",
          "type": "string"
        },
        {
          "indexed": false,
          "internalType": "uint256",
          "name": "totalSupply",
          "type": "uint256"
        },
        {
          "indexed": false,
          "internalType": "uint256",
          "name": "fundingTarget",
          "type": "uint256"
        }
      ],
      "name": "PropertyCreated",
      "type": "event"
    },
    {
      "anonymous": false,
      "inputs": [
        {
          "indexed": true,
          "internalType": "uint256",
          "name": "propertyId",
          "type": "uint256"
        },
        {
          "indexed": false,
          "internalType": "uint256",
          "name": "totalRaised",
          "type": "uint256"
        }
      ],
      "name": "PropertyFunded",
      "type": "event"
    },
    {
      "anonymous": false,
      "inputs": [
        {
          "indexed": true,
          "internalType": "bytes32",
          "name": "role",
          "type": "bytes32"
        },
        {
          "indexed": true,
          "internalType": "bytes32",
          "name": "previousAdminRole",
          "type": "bytes32"
        },
        {
          "indexed": true,
          "internalType": "bytes32",
          "name": "newAdminRole",
          "type": "bytes32"
        }
      ],
      "name": "RoleAdminChanged",
      "type": "event"
    },
    {
      "anonymous": false,
      "inputs": [
        {
          "indexed": true,
          "internalType": "bytes32",
          "name": "role",
          "type": "bytes32"
        },
        {
          "indexed": true,
          "internalType": "address",
          "name": "account",
          "type": "address"
        },
        {
          "indexed": true,
          "internalType": "address",
          "name": "sender",
          "type": "address"
        }
      ],
      "name": "RoleGranted",
      "type": "event"
    },
    {
      "anonymous": false,
      "inputs": [
        {
          "indexed": true,
          "internalType": "bytes32",
          "name": "role",
          "type": "bytes32"
        },
        {
          "indexed": true,
          "internalType": "address",
          "name": "account",
          "type": "address"
        },
        {
          "indexed": true,
          "internalType": "address",
          "name": "sender",
          "type": "address"
        }
      ],
      "name": "RoleRevoked",
      "type": "event"
    },
    {
      "anonymous": false,
      "inputs": [
        {
          "indexed": true,
          "internalType": "uint256",
          "name": "propertyId",
          "type": "uint256"
        },
        {
          "indexed": true,
          "internalType": "address",
          "name": "from",
          "type": "address"
        },
        {
          "indexed": false,
          "internalType": "uint256",
          "name": "amount",
          "type": "uint256"
        },
        {
          "indexed": false,
          "internalType": "enum PropertyToken.Phase",
          "name": "phase",
          "type": "uint8"
        }
      ],
      "name": "TokensBurned",
      "type": "event"
    },
    {
      "anonymous": false,
      "inputs": [
        {
          "indexed": true,
          "internalType": "uint256",
          "name": "propertyId",
          "type": "uint256"
        },
        {
          "indexed": true,
          "internalType": "address",
          "name": "buyer",
          "type": "address"
        },
        {
          "indexed": false,
          "internalType": "uint256",
          "name": "amount",
          "type": "uint256"
        },
        {
          "indexed": false,
          "internalType": "enum PropertyToken.Phase",
          "name": "phase",
          "type": "uint8"
        }
      ],
      "name": "TokensMinted",
      "type": "event"
    },
    {
      "anonymous": false,
      "inputs": [
        {
          "indexed": true,
          "internalType": "address",
          "name": "operator",
          "type": "address"
        },
        {
          "indexed": true,
          "internalType": "address",
          "name": "from",
          "type": "address"
        },
        {
          "indexed": true,
          "internalType": "address",
          "name": "to",
          "type": "address"
        },
        {
          "indexed": false,
          "internalType": "uint256[]",
          "name": "ids",
          "type": "uint256[]"
        },
        {
          "indexed": false,
          "internalType": "uint256[]",
          "name": "values",
          "type": "uint256[]"
        }
      ],
      "name": "TransferBatch",
      "type": "event"
    },
    {
      "anonymous": false,
      "inputs": [
        {
          "indexed": true,
          "internalType": "address",
          "name": "operator",
          "type": "address"
        },
        {
          "indexed": true,
          "internalType": "address",
          "name": "from",
          "type": "address"
        },
        {
          "indexed": true,
          "internalType": "address",
          "name": "to",
          "type": "address"
        },
        {
          "indexed": false,
          "internalType": "uint256",
          "name": "id",
          "type": "uint256"
        },
        {
          "indexed": false,
          "internalType": "uint256",
          "name": "value",
          "type": "uint256"
        }
      ],
      "name": "TransferSingle",
      "type": "event"
    },
    {
      "anonymous": false,
      "inputs": [
        {
          "indexed": false,
          "internalType": "string",
          "name": "value",
          "type": "string"
        },
        {
          "indexed": true,
          "internalType": "uint256",
          "name": "id",
          "type": "uint256"
        }
      ],
      "name": "URI",
      "type": "event"
    },
    {
      "anonymous": false,
      "inputs": [
        {
          "indexed": false,
          "internalType": "address",
          "name": "account",
          "type": "address"
        }
      ],
      "name": "Unpaused",
      "type": "event"
    },
    {
      "inputs": [],
      "name": "BURNER_ROLE",
      "outputs": [
        {
          "internalType": "bytes32",
          "name": "",
          "type": "bytes32"
        }
      ],
      "stateMutability": "view",
      "type": "function"
    },
    {
      "inputs": [],
      "name": "COUNTY_ALLOCATION",
      "outputs": [
        {
          "internalType": "uint256",
          "name": "",
          "type": "uint256"
        }
      ],
      "stateMutability": "view",
      "type": "function"
    },
    {
      "inputs": [],
      "name": "COUNTY_MULTIPLIER",
      "outputs": [
        {
          "internalType": "uint256",
          "name": "",
          "type": "uint256"
        }
      ],
      "stateMutability": "view",
      "type": "function"
    },
    {
      "inputs": [],
      "name": "COUNTY_VOTING_MULTIPLIER",
      "outputs": [
        {
          "internalType": "uint256",
          "name": "",
          "type": "uint256"
        }
      ],
      "stateMutability": "view",
      "type": "function"
    },
    {
      "inputs": [],
      "name": "DEFAULT_ADMIN_ROLE",
      "outputs": [
        {
          "internalType": "bytes32",
          "name": "",
          "type": "bytes32"
        }
      ],
      "stateMutability": "view",
      "type": "function"
    },
    {
      "inputs": [],
      "name": "INTERNATIONAL_ALLOCATION",
      "outputs": [
        {
          "internalType": "uint256",
          "name": "",
          "type": "uint256"
        }
      ],
      "stateMutability": "view",
      "type": "function"
    },
    {
      "inputs": [],
      "name": "INTERNATIONAL_MULTIPLIER",
      "outputs": [
        {
          "internalType": "uint256",
          "name": "",
          "type": "uint256"
        }
      ],
      "stateMutability": "view",
      "type": "function"
    },
    {
      "inputs": [],
      "name": "INTERNATIONAL_VOTING_MULTIPLIER",
      "outputs": [
        {
          "internalType": "uint256",
          "name": "",
          "type": "uint256"
        }
      ],
      "stateMutability": "view",
      "type": "function"
    },
    {
      "inputs": [],
      "name": "MINTER_ROLE",
      "outputs": [
        {
          "internalType": "bytes32",
          "name": "",
          "type": "bytes32"
        }
      ],
      "stateMutability": "view",
      "type": "function"
    },
    {
      "inputs": [],
      "name": "NATIONAL_ALLOCATION",
      "outputs": [
        {
          "internalType": "uint256",
          "name": "",
          "type": "uint256"
        }
      ],
      "stateMutability": "view",
      "type": "function"
    },
    {
      "inputs": [],
      "name": "NATIONAL_MULTIPLIER",
      "outputs": [
        {
          "internalType": "uint256",
          "name": "",
          "type": "uint256"
        }
      ],
      "stateMutability": "view",
      "type": "function"
    },
    {
      "inputs": [],
      "name": "NATIONAL_VOTING_MULTIPLIER",
      "outputs": [
        {
          "internalType": "uint256",
          "name": "",
          "type": "uint256"
        }
      ],
      "stateMutability": "view",
      "type": "function"
    },
    {
      "inputs": [],
      "name": "PAUSER_ROLE",
      "outputs": [
        {
          "internalType": "bytes32",
          "name": "",
          "type": "bytes32"
        }
      ],
      "stateMutability": "view",
      "type": "function"
    },
    {
      "inputs": [],
      "name": "PHASE_ADVANCER_ROLE",
      "outputs": [
        {
          "internalType": "bytes32",
          "name": "",
          "type": "bytes32"
        }
      ],
      "stateMutability": "view",
      "type": "function"
    },
    {
      "inputs": [],
      "name": "STATE_ALLOCATION",
      "outputs": [
        {
          "internalType": "uint256",
          "name": "",
          "type": "uint256"
        }
      ],
      "stateMutability": "view",
      "type": "function"
    },
    {
      "inputs": [],
      "name": "STATE_MULTIPLIER",
      "outputs": [
        {
          "internalType": "uint256",
          "name": "",
          "type": "uint256"
        }
      ],
      "stateMutability": "view",
      "type": "function"
    },
    {
      "inputs": [],
      "name": "STATE_VOTING_MULTIPLIER",
      "outputs": [
        {
          "internalType": "uint256",
          "name": "",
          "type": "uint256"
        }
      ],
      "stateMutability": "view",
      "type": "function"
    },
    {
      "inputs": [],
      "name": "WHITELIST_ADMIN_ROLE",
      "outputs": [
        {
          "internalType": "bytes32",
          "name": "",
          "type": "bytes32"
        }
      ],
      "stateMutability": "view",
      "type": "function"
    },
    {
      "inputs": [
        {
          "internalType": "address",
          "name": "account",
          "type": "address"
        },
        {
          "internalType": "enum PropertyToken.Phase",
          "name": "eligibility",
          "type": "uint8"
        }
      ],
      "name": "addToWhitelist",
      "outputs": [],
      "stateMutability": "nonpayable",
      "type": "function"
    },
    {
      "inputs": [
        {
          "internalType": "address",
          "name": "",
          "type": "address"
        }
      ],
      "name": "addressPhaseEligibility",
      "outputs": [
        {
          "internalType": "enum PropertyToken.Phase",
          "name": "",
          "type": "uint8"
        }
      ],
      "stateMutability": "view",
      "type": "function"
    },
    {
      "inputs": [
        {
          "internalType": "uint256",
          "name": "propertyId",
          "type": "uint256"
        }
      ],
      "name": "advancePhase",
      "outputs": [],
      "stateMutability": "nonpayable",
      "type": "function"
    },
    {
      "inputs": [
        {
          "internalType": "address",
          "name": "account",
          "type": "address"
        },
        {
          "internalType": "uint256",
          "name": "id",
          "type": "uint256"
        }
      ],
      "name": "balanceOf",
      "outputs": [
        {
          "internalType": "uint256",
          "name": "",
          "type": "uint256"
        }
      ],
      "stateMutability": "view",
      "type": "function"
    },
    {
      "inputs": [
        {
          "internalType": "address[]",
          "name": "accounts",
          "type": "address[]"
        },
        {
          "internalType": "uint256[]",
          "name": "ids",
          "type": "uint256[]"
        }
      ],
      "name": "balanceOfBatch",
      "outputs": [
        {
          "internalType": "uint256[]",
          "name": "",
          "type": "uint256[]"
        }
      ],
      "stateMutability": "view",
      "type": "function"
    },
    {
      "inputs": [],
      "name": "basePrice",
      "outputs": [
        {
          "internalType": "uint256",
          "name": "",
          "type": "uint256"
        }
      ],
      "stateMutability": "view",
      "type": "function"
    },
    {
      "inputs": [
        {
          "internalType": "address",
          "name": "account",
          "type": "address"
        },
        {
          "internalType": "uint256",
          "name": "id",
          "type": "uint256"
        },
        {
          "internalType": "uint256",
          "name": "value",
          "type": "uint256"
        }
      ],
      "name": "burn",
      "outputs": [],
      "stateMutability": "nonpayable",
      "type": "function"
    },
    {
      "inputs": [
        {
          "internalType": "address",
          "name": "account",
          "type": "address"
        },
        {
          "internalType": "uint256[]",
          "name": "ids",
          "type": "uint256[]"
        },
        {
          "internalType": "uint256[]",
          "name": "values",
          "type": "uint256[]"
        }
      ],
      "name": "burnBatch",
      "outputs": [],
      "stateMutability": "nonpayable",
      "type": "function"
    },
    {
      "inputs": [
        {
          "internalType": "uint256",
          "name": "propertyId",
          "type": "uint256"
        },
        {
          "internalType": "address",
          "name": "holder",
          "type": "address"
        },
        {
          "internalType": "uint256",
          "name": "amount",
          "type": "uint256"
        }
      ],
      "name": "burnFromOnFailure",
      "outputs": [],
      "stateMutability": "nonpayable",
      "type": "function"
    },
    {
      "inputs": [
        {
          "internalType": "string",
          "name": "name",
          "type": "string"
        },
        {
          "internalType": "string",
          "name": "propertyUri",
          "type": "string"
        },
        {
          "internalType": "uint256",
          "name": "totalSupply",
          "type": "uint256"
        },
        {
          "internalType": "uint256",
          "name": "fundingTarget",
          "type": "uint256"
        },
        {
          "internalType": "uint256",
          "name": "fundingDuration",
          "type": "uint256"
        }
      ],
      "name": "createProperty",
      "outputs": [
        {
          "internalType": "uint256",
          "name": "",
          "type": "uint256"
        }
      ],
      "stateMutability": "nonpayable",
      "type": "function"
    },
    {
      "inputs": [
        {
          "internalType": "uint256",
          "name": "id",
          "type": "uint256"
        }
      ],
      "name": "exists",
      "outputs": [
        {
          "internalType": "bool",
          "name": "",
          "type": "bool"
        }
      ],
      "stateMutability": "view",
      "type": "function"
    },
    {
      "inputs": [],
      "name": "getAllPropertyIds",
      "outputs": [
        {
          "internalType": "uint256[]",
          "name": "",
          "type": "uint256[]"
        }
      ],
      "stateMutability": "view",
      "type": "function"
    },
    {
      "inputs": [
        {
          "internalType": "uint256",
          "name": "propertyId",
          "type": "uint256"
        }
      ],
      "name": "getCurrentPrice",
      "outputs": [
        {
          "internalType": "uint256",
          "name": "",
          "type": "uint256"
        }
      ],
      "stateMutability": "view",
      "type": "function"
    },
    {
      "inputs": [
        {
          "internalType": "uint256",
          "name": "propertyId",
          "type": "uint256"
        }
      ],
      "name": "getProperty",
      "outputs": [
        {
          "components": [
            {
              "internalType": "uint256",
              "name": "id",
              "type": "uint256"
            },
            {
              "internalType": "string",
              "name": "name",
              "type": "string"
            },
            {
              "internalType": "string",
              "name": "uri",
              "type": "string"
            },
            {
              "internalType": "uint256",
              "name": "totalSupply",
              "type": "uint256"
            },
            {
              "internalType": "uint256",
              "name": "mintedSupply",
              "type": "uint256"
            },
            {
              "internalType": "uint256",
              "name": "fundingTarget",
              "type": "uint256"
            },
            {
              "internalType": "uint256",
              "name": "fundingDeadline",
              "type": "uint256"
            },
            {
              "internalType": "enum PropertyToken.Phase",
              "name": "currentPhase",
              "type": "uint8"
            },
            {
              "internalType": "bool",
              "name": "isActive",
              "type": "bool"
            },
            {
              "internalType": "bool",
              "name": "isFunded",
              "type": "bool"
            }
          ],
          "internalType": "struct PropertyToken.Property",
          "name": "",
          "type": "tuple"
        }
      ],
      "stateMutability": "view",
      "type": "function"
    },
    {
      "inputs": [],
      "name": "getPropertyCount",
      "outputs": [
        {
          "internalType": "uint256",
          "name": "",
          "type": "uint256"
        }
      ],
      "stateMutability": "view",
      "type": "function"
    },
    {
      "inputs": [
        {
          "internalType": "bytes32",
          "name": "role",
          "type": "bytes32"
        }
      ],
      "name": "getRoleAdmin",
      "outputs": [
        {
          "internalType": "bytes32",
          "name": "",
          "type": "bytes32"
        }
      ],
      "stateMutability": "view",
      "type": "function"
    },
    {
      "inputs": [
        {
          "internalType": "uint256",
          "name": "propertyId",
          "type": "uint256"
        }
      ],
      "name": "getTotalWeightedVotingPower",
      "outputs": [
        {
          "internalType": "uint256",
          "name": "",
          "type": "uint256"
        }
      ],
      "stateMutability": "view",
      "type": "function"
    },
    {
      "inputs": [
        {
          "internalType": "enum PropertyToken.Phase",
          "name": "phase",
          "type": "uint8"
        }
      ],
      "name": "getVotingMultiplier",
      "outputs": [
        {
          "internalType": "uint256",
          "name": "",
          "type": "uint256"
        }
      ],
      "stateMutability": "pure",
      "type": "function"
    },
    {
      "inputs": [
        {
          "internalType": "uint256",
          "name": "propertyId",
          "type": "uint256"
        },
        {
          "internalType": "address",
          "name": "voter",
          "type": "address"
        }
      ],
      "name": "getVotingPower",
      "outputs": [
        {
          "internalType": "uint256",
          "name": "",
          "type": "uint256"
        }
      ],
      "stateMutability": "view",
      "type": "function"
    },
    {
      "inputs": [
        {
          "internalType": "bytes32",
          "name": "role",
          "type": "bytes32"
        },
        {
          "internalType": "address",
          "name": "account",
          "type": "address"
        }
      ],
      "name": "grantRole",
      "outputs": [],
      "stateMutability": "nonpayable",
      "type": "function"
    },
    {
      "inputs": [
        {
          "internalType": "bytes32",
          "name": "role",
          "type": "bytes32"
        },
        {
          "internalType": "address",
          "name": "account",
          "type": "address"
        }
      ],
      "name": "hasRole",
      "outputs": [
        {
          "internalType": "bool",
          "name": "",
          "type": "bool"
        }
      ],
      "stateMutability": "view",
      "type": "function"
    },
    {
      "inputs": [
        {
          "internalType": "uint256",
          "name": "",
          "type": "uint256"
        },
        {
          "internalType": "address",
          "name": "",
          "type": "address"
        },
        {
          "internalType": "enum PropertyToken.Phase",
          "name": "",
          "type": "uint8"
        }
      ],
      "name": "holdingsByPhase",
      "outputs": [
        {
          "internalType": "uint256",
          "name": "",
          "type": "uint256"
        }
      ],
      "stateMutability": "view",
      "type": "function"
    },
    {
      "inputs": [
        {
          "internalType": "address",
          "name": "account",
          "type": "address"
        },
        {
          "internalType": "address",
          "name": "operator",
          "type": "address"
        }
      ],
      "name": "isApprovedForAll",
      "outputs": [
        {
          "internalType": "bool",
          "name": "",
          "type": "bool"
        }
      ],
      "stateMutability": "view",
      "type": "function"
    },
    {
      "inputs": [
        {
          "internalType": "uint256",
          "name": "propertyId",
          "type": "uint256"
        }
      ],
      "name": "markFunded",
      "outputs": [],
      "stateMutability": "nonpayable",
      "type": "function"
    },
    {
      "inputs": [
        {
          "internalType": "uint256",
          "name": "propertyId",
          "type": "uint256"
        },
        {
          "internalType": "address",
          "name": "buyer",
          "type": "address"
        },
        {
          "internalType": "uint256",
          "name": "amount",
          "type": "uint256"
        }
      ],
      "name": "mintTokens",
      "outputs": [],
      "stateMutability": "nonpayable",
      "type": "function"
    },
    {
      "inputs": [],
      "name": "pause",
      "outputs": [],
      "stateMutability": "nonpayable",
      "type": "function"
    },
    {
      "inputs": [],
      "name": "paused",
      "outputs": [
        {
          "internalType": "bool",
          "name": "",
          "type": "bool"
        }
      ],
      "stateMutability": "view",
      "type": "function"
    },
    {
      "inputs": [
        {
          "internalType": "uint256",
          "name": "",
          "type": "uint256"
        },
        {
          "internalType": "enum PropertyToken.Phase",
          "name": "",
          "type": "uint8"
        }
      ],
      "name": "phaseAllocations",
      "outputs": [
        {
          "internalType": "uint256",
          "name": "",
          "type": "uint256"
        }
      ],
      "stateMutability": "view",
      "type": "function"
    },
    {
      "inputs": [
        {
          "internalType": "uint256",
          "name": "",
          "type": "uint256"
        },
        {
          "internalType": "enum PropertyToken.Phase",
          "name": "",
          "type": "uint8"
        }
      ],
      "name": "phaseMinted",
      "outputs": [
        {
          "internalType": "uint256",
          "name": "",
          "type": "uint256"
        }
      ],
      "stateMutability": "view",
      "type": "function"
    },
    {
      "inputs": [
        {
          "internalType": "uint256",
          "name": "",
          "type": "uint256"
        }
      ],
      "name": "properties",
      "outputs": [
        {
          "internalType": "uint256",
          "name": "id",
          "type": "uint256"
        },
        {
          "internalType": "string",
          "name": "name",
          "type": "string"
        },
        {
          "internalType": "string",
          "name": "uri",
          "type": "string"
        },
        {
          "internalType": "uint256",
          "name": "totalSupply",
          "type": "uint256"
        },
        {
          "internalType": "uint256",
          "name": "mintedSupply",
          "type": "uint256"
        },
        {
          "internalType": "uint256",
          "name": "fundingTarget",
          "type": "uint256"
        },
        {
          "internalType": "uint256",
          "name": "fundingDeadline",
          "type": "uint256"
        },
        {
          "internalType": "enum PropertyToken.Phase",
          "name": "currentPhase",
          "type": "uint8"
        },
        {
          "internalType": "bool",
          "name": "isActive",
          "type": "bool"
        },
        {
          "internalType": "bool",
          "name": "isFunded",
          "type": "bool"
        }
      ],
      "stateMutability": "view",
      "type": "function"
    },
    {
      "inputs": [],
      "name": "propertyCount",
      "outputs": [
        {
          "internalType": "uint256",
          "name": "",
          "type": "uint256"
        }
      ],
      "stateMutability": "view",
      "type": "function"
    },
    {
      "inputs": [
        {
          "internalType": "uint256",
          "name": "propertyId",
          "type": "uint256"
        }
      ],
      "name": "propertyExists",
      "outputs": [
        {
          "internalType": "bool",
          "name": "",
          "type": "bool"
        }
      ],
      "stateMutability": "view",
      "type": "function"
    },
    {
      "inputs": [
        {
          "internalType": "address",
          "name": "account",
          "type": "address"
        }
      ],
      "name": "removeFromWhitelist",
      "outputs": [],
      "stateMutability": "nonpayable",
      "type": "function"
    },
    {
      "inputs": [
        {
          "internalType": "bytes32",
          "name": "role",
          "type": "bytes32"
        },
        {
          "internalType": "address",
          "name": "callerConfirmation",
          "type": "address"
        }
      ],
      "name": "renounceRole",
      "outputs": [],
      "stateMutability": "nonpayable",
      "type": "function"
    },
    {
      "inputs": [
        {
          "internalType": "bytes32",
          "name": "role",
          "type": "bytes32"
        },
        {
          "internalType": "address",
          "name": "account",
          "type": "address"
        }
      ],
      "name": "revokeRole",
      "outputs": [],
      "stateMutability": "nonpayable",
      "type": "function"
    },
    {
      "inputs": [
        {
          "internalType": "address",
          "name": "from",
          "type": "address"
        },
        {
          "internalType": "address",
          "name": "to",
          "type": "address"
        },
        {
          "internalType": "uint256[]",
          "name": "ids",
          "type": "uint256[]"
        },
        {
          "internalType": "uint256[]",
          "name": "values",
          "type": "uint256[]"
        },
        {
          "internalType": "bytes",
          "name": "data",
          "type": "bytes"
        }
      ],
      "name": "safeBatchTransferFrom",
      "outputs": [],
      "stateMutability": "nonpayable",
      "type": "function"
    },
    {
      "inputs": [
        {
          "internalType": "address",
          "name": "from",
          "type": "address"
        },
        {
          "internalType": "address",
          "name": "to",
          "type": "address"
        },
        {
          "internalType": "uint256",
          "name": "id",
          "type": "uint256"
        },
        {
          "internalType": "uint256",
          "name": "value",
          "type": "uint256"
        },
        {
          "internalType": "bytes",
          "name": "data",
          "type": "bytes"
        }
      ],
      "name": "safeTransferFrom",
      "outputs": [],
      "stateMutability": "nonpayable",
      "type": "function"
    },
    {
      "inputs": [
        {
          "internalType": "address",
          "name": "operator",
          "type": "address"
        },
        {
          "internalType": "bool",
          "name": "approved",
          "type": "bool"
        }
      ],
      "name": "setApprovalForAll",
      "outputs": [],
      "stateMutability": "nonpayable",
      "type": "function"
    },
    {
      "inputs": [
        {
          "internalType": "bytes4",
          "name": "interfaceId",
          "type": "bytes4"
        }
      ],
      "name": "supportsInterface",
      "outputs": [
        {
          "internalType": "bool",
          "name": "",
          "type": "bool"
        }
      ],
      "stateMutability": "view",
      "type": "function"
    },
    {
      "inputs": [],
      "name": "totalSupply",
      "outputs": [
        {
          "internalType": "uint256",
          "name": "",
          "type": "uint256"
        }
      ],
      "stateMutability": "view",
      "type": "function"
    },
    {
      "inputs": [
        {
          "internalType": "uint256",
          "name": "id",
          "type": "uint256"
        }
      ],
      "name": "totalSupply",
      "outputs": [
        {
          "internalType": "uint256",
          "name": "",
          "type": "uint256"
        }
      ],
      "stateMutability": "view",
      "type": "function"
    },
    {
      "inputs": [],
      "name": "unpause",
      "outputs": [],
      "stateMutability": "nonpayable",
      "type": "function"
    },
    {
      "inputs": [
        {
          "internalType": "uint256",
          "name": "newPrice",
          "type": "uint256"
        }
      ],
      "name": "updateBasePrice",
      "outputs": [],
      "stateMutability": "nonpayable",
      "type": "function"
    },
    {
      "inputs": [
        {
          "internalType": "uint256",
          "name": "",
          "type": "uint256"
        }
      ],
      "name": "uri",
      "outputs": [
        {
          "internalType": "string",
          "name": "",
          "type": "string"
        }
      ],
      "stateMutability": "view",
      "type": "function"
    },
    {
      "inputs": [
        {
          "internalType": "address",
          "name": "",
          "type": "address"
        }
      ],
      "name": "whitelist",
      "outputs": [
        {
          "internalType": "bool",
          "name": "",
          "type": "bool"
        }
      ],
      "stateMutability": "view",
      "type": "function"
    }
  ],
  "bytecode": "0x60806040523462000275576200437a803803806200001d816200027a565b9283398101906020908181840312620002755780516001600160401b039182821162000275570191601f90848285011215620002755783518381116200024a57601f199462000072828501871684016200027a565b968288528383830101116200027557829060005b838110620002605750506000918701015284519283116200024a57600254936001948581811c911680156200023f575b838210146200022957838111620001dd575b50819284116001146200017457505081929360009262000168575b5050600019600383901b1c191690821b176002555b60ff1960065416600655600755662c68af0bb140006008556200011b33620002a0565b50620001273362000321565b506200013333620003c4565b506200013f3362000462565b506200014b3362000500565b5062000157336200059e565b50604051613d1d90816200063d8239f35b015190503880620000e3565b839291921694600260005282600020926000905b878210620001c557505083859610620001ab575b505050811b01600255620000f8565b015160001960f88460031b161c191690553880806200019c565b80878596829496860151815501950193019062000188565b6002600052826000208480870160051c8201928588106200021f575b0160051c019086905b82811062000212575050620000c8565b6000815501869062000202565b92508192620001f9565b634e487b7160e01b600052602260045260246000fd5b90607f1690620000b6565b634e487b7160e01b600052604160045260246000fd5b81810183015189820184015284920162000086565b600080fd5b6040519190601f01601f191682016001600160401b038111838210176200024a57604052565b6001600160a01b031660008181527f05b8ccbb9d4d8fb16ea74ce3c29a41f1b461fbdaff4714a0d9a8eb05499746bc602052604081205490919060ff166200031d5781805260056020526040822081835260205260408220600160ff1982541617905533916000805160206200435a8339815191528180a4600190565b5090565b6001600160a01b031660008181527f15a28d26fa1bf736cf7edc9922607171ccb09c3c73b808e7772a3013e068a52260205260408120549091907f9f2df0fed2c77648de5860a4cc508cd0818c85b8b8a1ab4ceeef8d981c8956a69060ff16620003bf5780835260056020526040832082845260205260408320600160ff198254161790556000805160206200435a833981519152339380a4600190565b505090565b6001600160a01b031660008181527f99f2891db7a8db76249871a02b43b68c0bb8f22ef8a3bc1034ae9375ef6b7c3c60205260408120549091907f65d7a28e3265b37a6474929f336521b332c1681b933f6cb9f3376673440d862a9060ff16620003bf5780835260056020526040832082845260205260408320600160ff198254161790556000805160206200435a833981519152339380a4600190565b6001600160a01b031660008181527f294bb43e882f8724b7ae88344d047a41612b98ee139a78f923b3689f3cc274b160205260408120549091907f28f5a99355973cc89255b8c4ac88405f27c78ded7608b040ee77a8bdf44d15e29060ff16620003bf5780835260056020526040832082845260205260408320600160ff198254161790556000805160206200435a833981519152339380a4600190565b6001600160a01b031660008181527fc54cc0cad80e711aff5b4fca3e13682b9a8fcd7ff4679fbc81d0391d16e477bd60205260408120549091907f62045f2f519251643cf4b5f0750d99bbda23ce869802ad9f6d52577cd08a645a9060ff16620003bf5780835260056020526040832082845260205260408320600160ff198254161790556000805160206200435a833981519152339380a4600190565b6001600160a01b031660008181527f847f481f687befb06ed3511f1a8dcef57e83007c0147ae5047583d705617093760205260408120549091907f3c11d16cbaffd01df69ce1c404f6340ee057498f5f00246190ea54220576a8489060ff16620003bf5780835260056020526040832082845260205260408320600160ff198254161790556000805160206200435a833981519152339380a460019056fe6080604052600436101561001257600080fd5b60003560e01c8062fdd58e146103fc57806301ffc9a7146103f75780630263b858146103f257806304fa6173146103ed5780630e89341c146103e857806311dd6cdc1461039857806318160ddd146103e357806323067248146103de578063248a9ca3146103d9578063282c51f3146103d45780632eb2c2d6146103cf5780632f2ff15d146103ca57806332665ffb146103c557806335894afd146103c057806336568abe146103bb5780633bb0b5b6146103b65780633f4ba83a146103b15780634a164732146103ac5780634e1273f4146103a75780634f558e79146103a25780634ff69e831461039d578063500e9f731461039857806354202c4e146103935780635561c5b31461038e57806358567dd5146103895780635bbe9f5e146103115780635c975abb146103845780635fc68c461461037f5780636b20c4541461037a5780636ce2f91d146103755780636ea99677146103705780637326b9011461036b5780637ca8c6f11461036657806381aaf4ce146103615780638456cb591461035c5780638ab1d681146103575780638cdc1e87146103525780638d6819be1461034d57806391d14854146103485780639b19251a146103435780639ca027631461033e578063a217fddf14610339578063a22cb46514610334578063a7907f741461032f578063bd85b0391461032a578063c361a33514610325578063c55d0f5614610320578063c5666eb21461031b578063c65b682014610316578063c7527d0814610311578063c7876ea41461030c578063ceadd5b914610307578063d539139314610302578063d547741f146102fd578063dbdad432146102f8578063e63ab1e9146102f3578063e985e9c5146102ee578063edff4969146102e9578063f242432a146102e4578063f5298aca146102df578063f7b10808146102da578063f8147a8a146102d55763fd5baa88146102d057600080fd5b6121ef565b6121d2565b612157565b611f7d565b611e77565b611e33565b611dd2565b611d97565b611d12565b611cd3565b611c98565b611c7b565b611c5d565b6112d3565b611c40565b611b63565b611b45565b611b27565b611afb565b611ade565b611a22565b611a06565b6119b0565b611971565b61191f565b6116a9565b61160e565b6115a6565b61154c565b6114b9565b61149c565b61147e565b61144c565b61141c565b611330565b611313565b6112f0565b6110c5565b6110a8565b61106d565b61075c565b610fe1565b610fb3565b610ef9565b610e86565b610e1c565b610d4c565b610cdb565b610ca0565b610b95565b610aa5565b61097c565b6107e3565b6107b4565b610797565b610779565b610676565b610604565b61053c565b6104a5565b610446565b600435906001600160a01b038216820361041757565b600080fd5b602435906001600160a01b038216820361041757565b35906001600160a01b038216820361041757565b3461041757604036600319011261041757602061048a610464610401565b6024356000526000835260406000209060018060a01b0316600052602052604060002090565b54604051908152f35b6001600160e01b031981160361041757565b346104175760203660031901126104175760206004356104c481610493565b63ffffffff60e01b16637965db0b60e01b81149081156104ea575b506040519015158152f35b636cdb3d1360e11b81149150811561051c575b811561050b575b50386104df565b6301ffc9a760e01b14905038610504565b6303a24d0760e21b811491506104fd565b60243590600482101561041757565b3461041757604036600319011261041757610555610401565b7f473a74f22f6ac6868d6c168fc84aef7f2172066bab41229b471d1c6b85434c82602061058061052d565b9261058961223b565b60018060a01b03169283600052600d82526040600020600160ff19825416179055600e82526105bc816040600020612ff5565b6105c96040518092610ae4565ba2005b600411156105d657565b634e487b7160e01b600052602160045260246000fd5b9060048110156105d657600052602052604060002090565b3461041757604036600319011261041757602061048a61062261052d565b600435600052600c835260406000206105ec565b919082519283825260005b848110610662575050826000602080949584010152601f8019910116010190565b602081830181015184830182015201610641565b346104175760208060031936011261041757604051906000826002549161069c83612010565b9283835260019085828216918260001461073c5750506001146106df575b506106c792500383610872565b6106db604051928284938452830190610636565b0390f35b84915060026000527f405787fa12a823e0f2b7631cc41b3ba8828b3321ca811111fa75cd3aa3bb5ace906000915b8583106107245750506106c79350820101386106ba565b8054838901850152879450869390920191810161070d565b60ff1916858201526106c795151560051b85010192503891506106ba9050565b346104175760003660031901126104175760206040516127108152f35b34610417576000366003190112610417576020600454604051908152f35b34610417576000366003190112610417576020604051611d4c8152f35b346104175760203660031901126104175760043560005260056020526020600160406000200154604051908152f35b346104175760003660031901126104175760206040517f3c11d16cbaffd01df69ce1c404f6340ee057498f5f00246190ea54220576a8488152f35b634e487b7160e01b600052604160045260246000fd5b610140810190811067ffffffffffffffff82111761085157604052565b61081e565b6020810190811067ffffffffffffffff82111761085157604052565b90601f8019910116810190811067ffffffffffffffff82111761085157604052565b604051906108a182610834565b565b67ffffffffffffffff81116108515760051b60200190565b81601f82011215610417578035916108d2836108a3565b926108e06040519485610872565b808452602092838086019260051b820101928311610417578301905b82821061090a575050505090565b813581529083019083016108fc565b67ffffffffffffffff811161085157601f01601f191660200190565b81601f820112156104175780359061094c82610919565b9261095a6040519485610872565b8284526020838301011161041757816000926020809301838601378301015290565b346104175760a036600319011261041757610995610401565b61099d61041c565b906044359167ffffffffffffffff90818411610417576109c2600494369086016108bb565b90606435838111610417576109da90369087016108bb565b92608435908111610417576109f29036908701610935565b936001600160a01b03808216903382141580610a81575b610a5457831615610a3c5715610a2557610a2395506128c3565b005b604051626a0d4560e21b8152600081880152602490fd5b604051632bfa23e760e11b8152600081890152602490fd5b6040805163711bec9160e11b815233818b019081526001600160a01b038616602082015290918291010390fd5b50600082815260016020908152604080832033845290915290205460ff1615610a09565b3461041757604036600319011261041757610a23600435610ac461041c565b90806000526005602052610adf6001604060002001546123f9565b61241a565b9060048210156105d65752565b610b929060208152825160208201526020830151610b36610b2061014092836040860152610160850190610636565b6040860151848203601f19016060860152610636565b9360608101516080840152608081015160a084015260a081015160c084015260c081015160e084015260e0810151610b746101009182860190610ae4565b81015190610b89610120928386019015159052565b01511515910152565b90565b34610417576020366003190112610417576106db604051610bb581610834565b610c9460009182815260606020820152606060408201528260608201528260808201528260a08201528260c08201528260e082015260ff60406101009480868501528061012080950152600435815260096020522093610c886007610c18610894565b9680548852610c296001820161204a565b6020890152610c3a6002820161204a565b60408901526003810154606089015260048101546080890152600581015460a0890152600681015460c0890152015491610c7984841660e08901612ec6565b600883901c8416151590870152565b60101c16151590830152565b60405191829182610af1565b346104175760003660031901126104175760206040517f62045f2f519251643cf4b5f0750d99bbda23ce869802ad9f6d52577cd08a645a8152f35b3461041757604036600319011261041757610cf461041c565b336001600160a01b03821603610d1057610a23906004356124b4565b60405163334bd91960e11b8152600490fd5b606090600319011261041757600435906024356001600160a01b0381168103610417579060443590565b3461041757610d5a36610d22565b9091610d64612299565b8115610dd7576000818152602081815260408083206001600160a01b0387168452909152902082905410610d9b57610a2392612e6f565b60405162461bcd60e51b8152602060048201526014602482015273496e73756666696369656e742062616c616e636560601b6044820152606490fd5b60405162461bcd60e51b815260206004820152601760248201527f416d6f756e74206d75737420626520706f7369746976650000000000000000006044820152606490fd5b3461041757600036600319011261041757610e356122f1565b60065460ff811615610e745760ff19166006557f5db9ee0a495bf2e6ff9c91a7834c1ba4fdd244a5e8aa4e537bd38aeae4b073aa6020604051338152a1005b604051638dfc202b60e01b8152600490fd5b3461041757602036600319011261041757600435600052601160205260206040600020541515604051908152f35b90815180825260208080930193019160005b828110610ed4575050505090565b835185529381019392810192600101610ec6565b906020610b92928181520190610eb4565b346104175760403660031901126104175760043567ffffffffffffffff8082116104175736602383011215610417578160040135610f36816108a3565b92610f446040519485610872565b81845260209160248386019160051b8301019136831161041757602401905b828210610f9c5785602435868111610417576106db91610f8a610f909236906004016108bb565b9061259f565b60405191829182610ee8565b838091610fa884610432565b815201910190610f63565b3461041757602036600319011261041757600435600052600360205260206040600020541515604051908152f35b34610417576000366003190112610417576040518060105480825282602080930160106000527f1b6847dc741a1b0cd08d278845f9d819d87b734759afb55fe2de5cb82a9ae6729260005b858282106110575750505061104392500383610872565b6106db604051928284938452830190610eb4565b855484526001958601958895509301920161102c565b346104175760003660031901126104175760206040517f28f5a99355973cc89255b8c4ac88405f27c78ded7608b040ee77a8bdf44d15e28152f35b346104175760003660031901126104175760206040516107d08152f35b346104175760a03660031901126104175767ffffffffffffffff600435818111610417576110f7903690600401610935565b90602435908111610417576106db917f1efdde4594ed8e2284022aa3bedd98d13b88c18f2bb33d90131dff8e95589ba36111386111d3933690600401610935565b91604435906112c060643561114b612349565b600a5496879661116261115d8961255c565b600a55565b61116e60843542612eb9565b611176610894565b918983528660208401526040830152866060830152600060808301528360a083015260c0820152600060e08201526111b2610100820160019052565b60006101208201526111ce886000526009602052604060002090565b61300d565b6111e76111df856130c7565b612710900490565b61120d6111fe88600052600b602052604060002090565b60008052602052604060002090565b5561121a6111df856130de565b61124161123188600052600b602052604060002090565b6001600052602052604060002090565b5561124e6111df856130f5565b61127561126588600052600b602052604060002090565b6002600052602052604060002090565b556112826111df8561310c565b6112a961129988600052600b602052604060002090565b6003600052602052604060002090565b556112b386613158565b5060405193849384613136565b0390a26040519081529081906020820190565b34610417576000366003190112610417576020604051613a988152f35b3461041757600036600319011261041757602060ff600654166040519015158152f35b34610417576000366003190112610417576020604051610bb88152f35b3461041757606036600319011261041757611349610401565b67ffffffffffffffff6024358181116104175761136a9036906004016108bb565b90604435908111610417576113839036906004016108bb565b906001600160a01b03831633811415806113f8575b6113d157156113b957610a239260006040516113b381610856565b52612664565b604051626a0d4560e21b815260006004820152602490fd5b60405163711bec9160e11b81523360048201526001600160a01b0385166024820152604490fd5b50600081815260016020908152604080832033845290915290205460ff1615611398565b34610417576020366003190112610417576004356004811015610417576114446020916132a8565b604051908152f35b3461041757604036600319011261041757602061048a61146a61052d565b600435600052600b835260406000206105ec565b34610417576000366003190112610417576020601054604051908152f35b346104175760003660031901126104175760206040516157e48152f35b34610417576020366003190112610417573360009081527fc54cc0cad80e711aff5b4fca3e13682b9a8fcd7ff4679fbc81d0391d16e477bd60205260409020547f62045f2f519251643cf4b5f0750d99bbda23ce869802ad9f6d52577cd08a645a9060ff161561152e57610a2360043561356b565b6044906040519063e2517d3f60e01b82523360048301526024820152fd5b34610417576000366003190112610417576115656122f1565b61156d61353b565b600160ff1960065416176006557f62e78cea01bee320cd4e420270b5ea74000d11b0c9f74754ebdbfc544b05a2586020604051338152a1005b34610417576020366003190112610417576115bf610401565b6115c761223b565b6001600160a01b03166000818152600d60205260408120805460ff19169055907f535611fb62fa2a833988f283b779e417e996813e44046f521d76c17b5943b08c8280a280f35b346104175760203660031901126104175760048035600091825b60ff84166003811161169e578281101561168957611683916116776111df8361167161166a61167d966116658b600052600c602052604060002090565b6105ec565b54916132a8565b90613123565b90612eb9565b936132f3565b92611628565b602183634e487b7160e01b6000525260246000fd5b604051828152602090f35b34610417576116b736610d22565b6116bf6123a1565b60026007541461190d5760026007556116d661353b565b6001600160a01b0382166000908152600d60205260409020611703906116fe905b5460ff1690565b613313565b827f689e2353c59bcd8c1c4352ddd0f21299329ad92442d331648747e4e865acde7461188d61173c836000526009602052604060002090565b600460078201916117f76117ef60ff6117b78b826117986116f78a5493611767848660081c166131d4565b838560101c161580156118ff575b61177e90613357565b6001600160a01b03166000908152600e6020526040902090565b916117a2836105cc565b169283916117af836105cc565b161015613394565b6117e86117d2826116658c600052600b602052604060002090565b54916116658b600052600c602052604060002090565b54906133e0565b8811156133ed565b61180a611802612baf565b88888b61344f565b01611816868254612eb9565b905561183a61182f85600052600c602052604060002090565b825460ff16906105ec565b611845868254612eb9565b905561187961182f8761186287600052600f602052604060002090565b9060018060a01b0316600052602052604060002090565b611884868254612eb9565b90555460ff1690565b60405190946001600160a01b03169381906118aa90879083613439565b0390a36118de6118c88261166585600052600c602052604060002090565b549161166584600052600b602052604060002090565b5411156118f0575b610a236001600755565b6118f99061356b565b386118e6565b5060068a0154421115611775565b604051633ee5aeb560e01b8152600490fd5b3461041757604036600319011261041757602060ff61196561193f61041c565b6004356000526005845260406000209060018060a01b0316600052602052604060002090565b54166040519015158152f35b34610417576020366003190112610417576001600160a01b03611992610401565b16600052600d602052602060ff604060002054166040519015158152f35b34610417576060366003190112610417576119c961041c565b6044359060048210156104175760209161166561048a92600435600052600f855260406000209060018060a01b0316600052602052604060002090565b3461041757600036600319011261041757602060405160008152f35b3461041757604036600319011261041757611a3b610401565b6024359081151590818303610417576001600160a01b038116928315611ac657611a87611a989233600052600160205260406000209060018060a01b0316600052602052604060002090565b9060ff801983541691151516179055565b6040519081527f17307eab39ab6107e8899845ad3d59bd9653f200f220920489ca2b5937696c3160203392a3005b60405162ced3e160e81b815260006004820152602490fd5b346104175760003660031901126104175760206040516103e88152f35b346104175760203660031901126104175760043560005260036020526020604060002054604051908152f35b34610417576000366003190112610417576020600a54604051908152f35b34610417576020366003190112610417576020611444600435613216565b3461041757602036600319011261041757600435611b7f6123a1565b80600052600960205260406000206007810160ff8154611ba3828260081c166131d4565b60101c16611c0a57611bf560047fb00cd7db2cf318388d4984a9842ff206b7cf7bc273a58f12701f29755b3ca94193611bea611c05946201000062ff000019825416179055565b015461167185613216565b6040519081529081906020820190565b0390a2005b60405162461bcd60e51b815260206004820152600e60248201526d105b1c9958591e48199d5b99195960921b6044820152606490fd5b346104175760003660031901126104175760206040516175308152f35b34610417576000366003190112610417576020600854604051908152f35b34610417576000366003190112610417576020604051610fa08152f35b346104175760003660031901126104175760206040517f9f2df0fed2c77648de5860a4cc508cd0818c85b8b8a1ab4ceeef8d981c8956a68152f35b3461041757604036600319011261041757610a23600435611cf261041c565b90806000526005602052611d0d6001604060002001546123f9565b6124b4565b346104175760403660031901126104175760048035611d2f61041c565b91600092835b60ff85166003811161169e5783811015611d8257611d7c916116776111df8361167161166a611d76966116658a6118628e600052600f602052604060002090565b946132f3565b93611d35565b602184634e487b7160e01b6000525260246000fd5b346104175760003660031901126104175760206040517f65d7a28e3265b37a6474929f336521b332c1681b933f6cb9f3376673440d862a8152f35b3461041757604036600319011261041757602060ff611965611df2610401565b611dfa61041c565b6001600160a01b0391821660009081526001865260408082209290931681526020919091522090565b6020810192916108a19190610ae4565b34610417576020366003190112610417576001600160a01b03611e54610401565b16600052600e602052602060ff60406000205416611e756040518092610ae4565bf35b346104175760a036600319011261041757611e90610401565b611e9861041c565b60843567ffffffffffffffff811161041757611eb8903690600401610935565b906001600160a01b03838116903382141580611f59575b611f3257821615611f1957156113b957610a2392611f116064356044359160405192600184526020840152604083019160018352606084015260808301604052565b9290916128c3565b604051632bfa23e760e11b815260006004820152602490fd5b60405163711bec9160e11b81523360048201526001600160a01b0386166024820152604490fd5b50600082815260016020908152604080832033845290915290205460ff1615611ecf565b3461041757606036600319011261041757611f96610401565b6001600160a01b038116338114159081611fea575b50611fc157610a23906044359060243590612e6f565b60405163711bec9160e11b81523360048201526001600160a01b03919091166024820152604490fd5b6000908152600160209081526040808320338452909152902060ff915054161538611fab565b90600182811c92168015612040575b602083101461202a57565b634e487b7160e01b600052602260045260246000fd5b91607f169161201f565b906040519182600082549261205e84612010565b9081845260019485811690816000146120cb5750600114612088575b50506108a192500383610872565b9093915060005260209081600020936000915b8183106120b35750506108a19350820101388061207a565b8554888401850152948501948794509183019161209b565b9150506108a194506020925060ff191682840152151560051b820101388061207a565b98959161012098949b9a979361211b6121299261214898948d5260208d61014091829101528d0190610636565b908b820360408d0152610636565b9a60608a0152608089015260a088015260c087015260e0860190610ae4565b15156101008401521515910152565b3461041757602036600319011261041757600435600052600960205260406000208054906106db61218a6001830161204a565b6121966002840161204a565b926003810154946004820154916005810154600760068301549201549360405198899860ff8760101c169760ff808960081c169816968b6120ee565b346104175760003660031901126104175760206040516130d48152f35b34610417576020366003190112610417577ffab5bcbec79a8b5888e114fd4b378427aa58d9b237d85056f0ee5b3ea57df8c5602060043561222e612349565b80600855604051908152a1005b3360009081527f294bb43e882f8724b7ae88344d047a41612b98ee139a78f923b3689f3cc274b1602052604090207f28f5a99355973cc89255b8c4ac88405f27c78ded7608b040ee77a8bdf44d15e29060ff905b54161561152e5750565b3360009081527f847f481f687befb06ed3511f1a8dcef57e83007c0147ae5047583d7056170937602052604090207f3c11d16cbaffd01df69ce1c404f6340ee057498f5f00246190ea54220576a8489060ff9061228f565b3360009081527f99f2891db7a8db76249871a02b43b68c0bb8f22ef8a3bc1034ae9375ef6b7c3c602052604090207f65d7a28e3265b37a6474929f336521b332c1681b933f6cb9f3376673440d862a9060ff9061228f565b3360009081527f05b8ccbb9d4d8fb16ea74ce3c29a41f1b461fbdaff4714a0d9a8eb05499746bc602052604090205460ff161561238257565b60405163e2517d3f60e01b815233600482015260006024820152604490fd5b3360009081527f15a28d26fa1bf736cf7edc9922607171ccb09c3c73b808e7772a3013e068a522602052604090207f9f2df0fed2c77648de5860a4cc508cd0818c85b8b8a1ab4ceeef8d981c8956a69060ff9061228f565b6000818152600560209081526040808320338452909152902060ff9061228f565b600090808252600560205260ff61244684604085209060018060a01b0316600052602052604060002090565b54166124ae578082526005602090815260408084206001600160a01b038616600090815292529020805460ff1916600117905533926001600160a01b0316917f2f8788117e7eff1d82e926ec794901d17c78024a50270940304540a733656f0d9080a4600190565b50905090565b600090808252600560205260ff6124e084604085209060018060a01b0316600052602052604060002090565b5416156124ae578082526005602090815260408084206001600160a01b038616600090815292529020805460ff1916905533926001600160a01b0316917ff6391f5c32d9c69d2a47ea670b442974b53935d1edc7fd64eb21e047a839171b9080a4600190565b634e487b7160e01b600052601160045260246000fd5b600019811461256b5760010190565b612546565b634e487b7160e01b600052603260045260246000fd5b805182101561259a5760209160051b010190565b612570565b919091805183518082036126425750508051906125bb826108a3565b916125c96040519384610872565b8083526125d8601f19916108a3565b0190602091368385013760005b815181101561263a57600581901b8281018401519087018401516000908152602081815260408083206001600160a01b0390941683529290522054612635919061262f8287612586565b5261255c565b6125e5565b509193505050565b604051635b05999160e01b815260048101919091526024810191909152604490fd5b61266c61353b565b6001600160a01b03811680151580806128bb575b612828575b612696575b50906108a1929161372c565b600094929394925b845184101561281a576126b18486612586565b51946126bd8588612586565b519660005b60ff8116600381111580612811575b156127ed576126df816105cc565b6126fb81611665896118628d600052600f602052604060002090565b5480612712575b505061270d906132f3565b6126c2565b61270d929a878b7f79fa03c4f76e383f2eb3d51f38e9daa7af8429e8573f8c1bb7d6103e878e35646127d06127d8968d96818782116000146127e05761276d915061166588995b61186288600052600f602052604060002090565b6127788882546133e0565b90556004612790856000526009602052604060002090565b0161279c8882546133e0565b90556127b68161166586600052600c602052604060002090565b6127c18882546133e0565b90556040519182918883613439565b0390a36133e0565b989038612702565b61166561276d9299612759565b505095509195936128026128079295156136d4565b61255c565b929490939461269e565b508915156126d1565b949392506108a1905061268a565b93919060005b8451811015612876578061280261286c6007612861612850612871968b612586565b516000526009602052604060002090565b015460101c60ff1690565b61363c565b61282e565b5060008052600d60205291939091906128b66128b17f81955a0a11e65eac625c29e8882660bae4e165a75d72780094acae8ece9a29ee6116f7565b613688565b612685565b506000612680565b919392906128cf61353b565b6001600160a01b038381168015158080612b2b575b612acb575b612940575b506128fb838784876137e7565b8116612909575b5050505050565b845160010361292f576020806129259601519201519233612cec565b3880808080612902565b61293b94919233612e38565b612925565b9196956000959195965b8151881015612abf5761295d8883612586565b51926129698987612586565b519560005b60ff81168c600382111580612ab6575b15612a9657908a918c6129ac83611665866118628e61299c856105cc565b600052600f602052604060002090565b54806129c6575b50505050506129c1906132f3565b61296e565b612a4d94936129c1969d938d938d9383878211600014612a89576129fe9150611665889961186288600052600f602052604060002090565b612a098882546133e0565b90558116612a5a57506127d07f79fa03c4f76e383f2eb3d51f38e9daa7af8429e8573f8c1bb7d6103e878e3564916004612790856000526009602052604060002090565b97905088388d8c826129b3565b612a7793506118626116659293600052600f602052604060002090565b612a82838254612eb9565b90556133e0565b6116656129fe9299612759565b50505095612aae9293945061280290999199156136d4565b96919061294a565b5089151561297e565b979250955093386128ee565b9795949392919060005b8851811015612afc578061280261286c6007612861612850612af7968f612586565b612ad5565b5090919293949597612b266128b16116f78660018060a01b0316600052600d602052604060002090565b6128e9565b5082841615156128e4565b908160209103126104175751610b9281610493565b909260a092610b929594600180861b0316835260006020840152604083015260608201528160808201520190610636565b9192610b9295949160a094600180871b038092168552166020840152604083015260608201528160808201520190610636565b60405190612bbc82610856565b60008252565b3d15612bed573d90612bd382610919565b91612be16040519384610872565b82523d6000602084013e565b606090565b9293919093843b612c04575050505050565b602091612c27604051948593849363f23a6e6160e01b9889865260048601612b4b565b038160006001600160a01b0388165af160009181612cbc575b50612c7f5782612c4e612bc2565b8051919082612c7857604051632bfa23e760e11b81526001600160a01b0383166004820152602490fd5b9050602001fd5b6001600160e01b03191603612c9957503880808080612902565b604051632bfa23e760e11b81526001600160a01b03919091166004820152602490fd5b612cde91925060203d8111612ce5575b612cd68183610872565b810190612b36565b9038612c40565b503d612ccc565b939290949194853b612d01575b505050505050565b612d24602093604051958694859463f23a6e6160e01b998a875260048701612b7c565b038160006001600160a01b0388165af160009181612d66575b50612d4b5782612c4e612bc2565b6001600160e01b03191603612c995750388080808080612cf9565b612d7f91925060203d8111612ce557612cd68183610872565b9038612d3d565b92612db5610b929593612dc39360018060a01b031686526000602087015260a0604087015260a0860190610eb4565b908482036060860152610eb4565b916080818403910152610636565b9390610b929593612db591612dc39460018060a01b03809216885216602087015260a0604087015260a0860190610eb4565b9293919093843b612e15575050505050565b602091612c27604051948593849363bc197c8160e01b9889865260048601612d86565b939290949194853b612e4c57505050505050565b612d24602093604051958694859463bc197c8160e01b998a875260048701612dd1565b906001600160a01b038216156113b9576108a192612eaa60405192600184526020840152604083019160018352606084015260808301604052565b9160006040516113b381610856565b9190820180921161256b57565b60048210156105d65752565b90601f8111612ee057505050565b600091825260208220906020601f850160051c83019410612f1c575b601f0160051c01915b828110612f1157505050565b818155600101612f05565b9092508290612efc565b919091825167ffffffffffffffff811161085157612f4e81612f488454612010565b84612ed2565b602080601f8311600114612f8a575081929394600092612f7f575b50508160011b916000199060031b1c1916179055565b015190503880612f69565b90601f19831695612fa085600052602060002090565b926000905b888210612fdd57505083600195969710612fc4575b505050811b019055565b015160001960f88460031b161c19169055388080612fba565b80600185968294968601518155019501930190612fa5565b9060048110156105d65760ff80198354169116179055565b906130af61012060076108a1948451815561302f602086015160018301612f26565b613040604086015160028301612f26565b606085015160038201556080850151600482015560a0850151600582015560c08501516006820155019261308160e082015161307b816105cc565b85612ff5565b6130a8613092610100830151151590565b855461ff00191690151560081b61ff0016178555565b0151151590565b815462ff0000191690151560101b62ff000016179055565b90610fa09182810292818404149015171561256b57565b90610bb89182810292818404149015171561256b57565b906107d09182810292818404149015171561256b57565b906103e89182810292818404149015171561256b57565b8181029291811591840414171561256b57565b61314e60409295949395606083526060830190610636565b9460208201520152565b806000526011602052604060002054156000146131ce576010546801000000000000000081101561085157600181018060105581101561259a5781907f1b6847dc741a1b0cd08d278845f9d819d87b734759afb55fe2de5cb82a9ae6720155601054906000526011602052604060002055600190565b50600090565b156131db57565b60405162461bcd60e51b815260206004820152601360248201527250726f7065727479206e6f742061637469766560681b6044820152606490fd5b600052600960205260ff600760406000200154613237828260081c166131d4565b16613241816105cc565b8061325b5750612710613257815b600854613123565b0490565b613264816105cc565b6001810361327b5750612710613257613a9861324f565b806132876002926105cc565b0361329a576127106132576157e461324f565b61271061325761753061324f565b60048110156105d65780156132ec576132c0816105cc565b600181146132e557806132d46002926105cc565b146132df57611d4c90565b61271090565b506130d490565b50613a9890565b60ff1660ff811461256b5760010190565b60ff1660048110156105d65790565b1561331a57565b60405162461bcd60e51b8152602060048201526015602482015274109d5e595c881b9bdd081dda1a5d195b1a5cdd1959605a1b6044820152606490fd5b1561335e57565b60405162461bcd60e51b815260206004820152600e60248201526d119d5b991a5b99c818db1bdcd95960921b6044820152606490fd5b1561339b57565b60405162461bcd60e51b815260206004820152601e60248201527f4e6f7420656c696769626c6520666f722063757272656e7420706861736500006044820152606490fd5b9190820391821161256b57565b156133f457565b60405162461bcd60e51b815260206004820152601860248201527f4578636565647320706861736520616c6c6f636174696f6e00000000000000006044820152606490fd5b9081526040810192916108a19160200190610ae4565b93916001600160a01b03851615611f195761348760405192600184526020840152604083019160018352606084015260808301604052565b909161349161353b565b61349c8284876138ae565b600094855b84518710156134f9576134ed6134f3916134bb8987612586565b51906134db6134ca8b8a612586565b516000526003602052604060002090565b6134e6838254612eb9565b9055612eb9565b9661255c565b956134a1565b61351391959492965061350e90600454612eb9565b600455565b805160010361353157906020806108a1959301519101519133612bf2565b6108a19333612e03565b60ff6006541661354757565b60405163d93c066560e01b8152600490fd5b60ff60019116019060ff821161256b57565b806000526009602052600760406000200160ff815461358e828260081c166131d4565b169060048210156105d65760038210156135fe576135ed6135f9916116f76135e76135e2866135dd7fa92c850bb09d5afa4a6230f4866fad10264c6fea20047156b39e3e24c5763ad4986105cc565b613559565b613304565b82612ff5565b60405191829182611e23565b0390a2565b60405162461bcd60e51b8152602060048201526016602482015275416c72656164792061742066696e616c20706861736560501b6044820152606490fd5b1561364357565b60405162461bcd60e51b815260206004820152601f60248201527f5472616e7366657273206c6f636b656420647572696e672066756e64696e67006044820152606490fd5b1561368f57565b60405162461bcd60e51b815260206004820152601960248201527f526563697069656e74206e6f742077686974656c6973746564000000000000006044820152606490fd5b156136db57565b60405162461bcd60e51b815260206004820152602360248201527f496e73756666696369656e742070686173652d747261636b656420686f6c64696044820152626e677360e81b6064820152608490fd5b92919261373a8483836139ce565b6001600160a01b031615613798575b6000805b825182101561378657613780906137648387612586565b51906137736134ca8587612586565b828154039055019161255c565b9061374d565b9150506108a191925060045403600455565b6000805b82518210156137d1576137c56137cb916137b68488612586565b51906134db6134ca8688612586565b9161255c565b9061379c565b6137e2915061350e90600454612eb9565b613749565b909392936137f785848385613b3b565b6001600160a01b0391821615613834575b161561381357509050565b6000805b82518210156137865761382e906137648387612586565b90613817565b92600091825b845184101561386f5761386361386991613854868a612586565b51906134db6134ca888a612586565b9361255c565b9261383a565b61388491935061350e90959295600454612eb9565b613808565b90916138a0610b9293604084526040840190610eb4565b916020818403910152610eb4565b919091825182519081810361264257505060005b835181101561392e57600581901b84810160209081015191850101516138fc929184906001600160a01b038216613901575b50505061255c565b6138c2565b6139249161186261391c926000526000602052604060002090565b918254612eb9565b90553883816138f4565b5091600181511460001461398f576020908101519181015160408051938452918301526001600160a01b039092169160009133917fc3d58168c5ae7397731d063d5bbf3d657854427343f4c083240f7aacaa2d0f629190819081015b0390a4565b7f4a39dc06d4c0dbc64b70af90fd698a233a518aa5d07e595d983b8c0526c8f7fb61398a6000939460405191829160018060a01b031696339583613889565b929190805182519081810361264257505060005b8151811015613a9c57600581901b82810160209081015191850101516001600160a01b038716613a1d575b5050613a189061255c565b6139e2565b613a3587611862846000526000602052604060002090565b54818110613a655787611862613a18959493613a5d9303936000526000602052604060002090565b559038613a0d565b6040516303dee4c560e01b81526001600160a01b038916600482015260248101919091526044810182905260648101839052608490fd5b5090600092939160018151148414613afc576020908101519181015160408051938452918301526001600160a01b039092169133917fc3d58168c5ae7397731d063d5bbf3d657854427343f4c083240f7aacaa2d0f62918190810161398a565b6040516001600160a01b039093169233927f4a39dc06d4c0dbc64b70af90fd698a233a518aa5d07e595d983b8c0526c8f7fb92829161398a9183613889565b939291805183519081810361264257505060005b8151811015613c4257600581901b82810160209081015191860101516001600160a01b0392918590898516613bbb575b613b91948216613b965750505061255c565b613b4f565b613bb19161186261391c926000526000602052604060002090565b90553884816138f4565b9192939050613bd889611862846000526000602052604060002090565b54838110613c0b5791869184613b9196959403613c038c611862856000526000602052604060002090565b559450613b7f565b6040516303dee4c560e01b81526001600160a01b038b16600482015260248101919091526044810184905260648101839052608490fd5b508051939493919291600103613ca4576020908101519181015160408051938452918301526001600160a01b03928316939092169133917fc3d58168c5ae7397731d063d5bbf3d657854427343f4c083240f7aacaa2d0f62918190810161398a565b6040516001600160a01b03938416949093169233927f4a39dc06d4c0dbc64b70af90fd698a233a518aa5d07e595d983b8c0526c8f7fb92829161398a918361388956fea2646970667358221220b3d29f5daa6f4198f1e7b5be977176bd28348284ea3a75f07ba29953d815923964736f6c634300081400332f8788117e7eff1d82e926ec794901d17c78024a50270940304540a733656f0d",
  "linkReferences": {},
  "deployedLinkReferences": {}
}