{
  "_format": "hh-sol-artifact-1",
  "contractName": "PropertyToken",
  "sourceName": "contracts/PropertyToken.sol",
  "abi": [
    {
      "inputs": [
        {
          "internalType": "string",
          "name": "uri_",
          "type": "string"
        }
      ],
      "stateMutability": "nonpayable",
      "type": "constructor"
    },
    {
      "inputs": [],
      "name": "AccessControlBadConfirmation",
      "type": "error"
    },
    {
      "inputs": [
        {
          "internalType": "address",
          "name": "account",
          "type": "address"
        },
        {
          "internalType": "bytes32",
          "name": "neededRole",
          "type": "bytes32"
        }
      ],
      "name": "AccessControlUnauthorizedAccount",
      "type": "error"
    },
    {
      "inputs": [
        {
          "internalType": "address",
          "name": "sender",
          "type": "address"
        },
        {
          "internalType": "uint256",
          "name": "balance",
          "type": "uint256"
        },
        {
          "internalType": "uint256",
          "name": "needed",
          "type": "uint256"
        },
        {
          "internalType": "uint256",
          "name": "tokenId",
          "type": "uint256"
        }
      ],
      "name": "ERC1155InsufficientBalance",
      "type": "error"
    },
    {
      "inputs": [
        {
          "internalType": "address",
          "name": "approver",
          "type": "address"
        }
      ],
      "name": "ERC1155InvalidApprover",
      "type": "error"
    },
    {
      "inputs": [
        {
          "internalType": "uint256",
          "name": "idsLength",
          "type": "uint256"
        },
        {
          "internalType": "uint256",
          "name": "valuesLength",
          "type": "uint256"
        }
      ],
      "name": "ERC1155InvalidArrayLength",
      "type": "error"
    },
    {
      "inputs": [
        {
          "internalType": "address",
          "name": "operator",
          "type": "address"
        }
      ],
      "name": "ERC1155InvalidOperator",
      "type": "error"
    },
    {
      "inputs": [
        {
          "internalType": "address",
          "name": "receiver",
          "type": "address"
        }
      ],
      "name": "ERC1155InvalidReceiver",
      "type": "error"
    },
    {
      "inputs": [
        {
          "internalType": "address",
          "name": "sender",
          "type": "address"
        }
      ],
      "name": "ERC1155InvalidSender",
      "type": "error"
    },
    {
      "inputs": [
        {
          "internalType": "address",
          "name": "operator",
          "type": "address"
        },
        {
          "internalType": "address",
          "name": "owner",
          "type": "address"
        }
      ],
      "name": "ERC1155MissingApprovalForAll",
      "type": "error"
    },
    {
      "inputs": [],
      "name": "EnforcedPause",
      "type": "error"
    },
    {
      "inputs": [],
      "name": "ExpectedPause",
      "type": "error"
    },
    {
      "inputs": [],
      "name": "ReentrancyGuardReentrantCall",
      "type": "error"
    },
    {
      "anonymous": false,
      "inputs": [
        {
          "indexed": true,
          "internalType": "address",
          "name": "account",
          "type": "address"
        },
        {
          "indexed": false,
          "internalType": "uint256",
          "name": "timestamp",
          "type": "uint256"
        },
        {
          "indexed": false,
          "internalType": "string",
          "name": "reason",
          "type": "string"
        }
      ],
      "name": "AMLCheckFailed",
      "type": "event"
    },
    {
      "anonymous": false,
      "inputs": [
        {
          "indexed": true,
          "internalType": "address",
          "name": "account",
          "type": "address"
        },
        {
          "indexed": false,
          "internalType": "uint256",
          "name": "timestamp",
          "type": "uint256"
        },
        {
          "indexed": false,
          "internalType": "bytes32",
          "name": "checkId",
          "type": "bytes32"
        }
      ],
      "name": "AMLCheckPassed",
      "type": "event"
    },
    {
      "anonymous": false,
      "inputs": [
        {
          "indexed": true,
          "internalType": "address",
          "name": "account",
          "type": "address"
        }
      ],
      "name": "AddressRemovedFromWhitelist",
      "type": "event"
    },
    {
      "anonymous": false,
      "inputs": [
        {
          "indexed": true,
          "internalType": "address",
          "name": "account",
          "type": "address"
        },
        {
          "indexed": false,
          "internalType": "enum PropertyToken.Phase",
          "name": "eligibility",
          "type": "uint8"
        }
      ],
      "name": "AddressWhitelisted",
      "type": "event"
    },
    {
      "anonymous": false,
      "inputs": [
        {
          "indexed": true,
          "internalType": "address",
          "name": "account",
          "type": "address"
        },
        {
          "indexed": true,
          "internalType": "address",
          "name": "operator",
          "type": "address"
        },
        {
          "indexed": false,
          "internalType": "bool",
          "name": "approved",
          "type": "bool"
        }
      ],
      "name": "ApprovalForAll",
      "type": "event"
    },
    {
      "anonymous": false,
      "inputs": [
        {
          "indexed": false,
          "internalType": "uint256",
          "name": "newPrice",
          "type": "uint256"
        }
      ],
      "name": "BasePriceUpdated",
      "type": "event"
    },
    {
      "anonymous": false,
      "inputs": [
        {
          "indexed": true,
          "internalType": "uint256",
          "name": "propertyId",
          "type": "uint256"
        },
        {
          "indexed": false,
          "internalType": "uint256",
          "name": "timestamp",
          "type": "uint256"
        },
        {
          "indexed": false,
          "internalType": "uint256",
          "name": "totalHolders",
          "type": "uint256"
        },
        {
          "indexed": false,
          "internalType": "uint256",
          "name": "totalSupplyMinted",
          "type": "uint256"
        }
      ],
      "name": "ComplianceCheckpoint",
      "type": "event"
    },
    {
      "anonymous": false,
      "inputs": [
        {
          "indexed": true,
          "internalType": "address",
          "name": "account",
          "type": "address"
        },
        {
          "indexed": false,
          "internalType": "uint256",
          "name": "timestamp",
          "type": "uint256"
        },
        {
          "indexed": false,
          "internalType": "bytes32",
          "name": "verificationId",
          "type": "bytes32"
        }
      ],
      "name": "KYCVerificationCompleted",
      "type": "event"
    },
    {
      "anonymous": false,
      "inputs": [
        {
          "indexed": true,
          "internalType": "address",
          "name": "account",
          "type": "address"
        },
        {
          "indexed": false,
          "internalType": "uint256",
          "name": "timestamp",
          "type": "uint256"
        },
        {
          "indexed": false,
          "internalType": "string",
          "name": "reason",
          "type": "string"
        }
      ],
      "name": "KYCVerificationRevoked",
      "type": "event"
    },
    {
      "anonymous": false,
      "inputs": [
        {
          "indexed": false,
          "internalType": "address",
          "name": "account",
          "type": "address"
        }
      ],
      "name": "Paused",
      "type": "event"
    },
    {
      "anonymous": false,
      "inputs": [
        {
          "indexed": true,
          "internalType": "uint256",
          "name": "propertyId",
          "type": "uint256"
        },
        {
          "indexed": false,
          "internalType": "enum PropertyToken.Phase",
          "name": "newPhase",
          "type": "uint8"
        }
      ],
      "name": "PhaseAdvanced",
      "type": "event"
    },
    {
      "anonymous": false,
      "inputs": [
        {
          "indexed": true,
          "internalType": "uint256",
          "name": "propertyId",
          "type": "uint256"
        },
        {
          "indexed": false,
          "internalType": "string",
          "name": "name",
          "type": "string"
        },
        {
          "indexed": false,
          "internalType": "uint256",
          "name": "totalSupply",
          "type": "uint256"
        },
        {
          "indexed": false,
          "internalType": "uint256",
          "name": "fundingTarget",
          "type": "uint256"
        }
      ],
      "name": "PropertyCreated",
      "type": "event"
    },
    {
      "anonymous": false,
      "inputs": [
        {
          "indexed": true,
          "internalType": "uint256",
          "name": "propertyId",
          "type": "uint256"
        },
        {
          "indexed": false,
          "internalType": "uint256",
          "name": "totalRaised",
          "type": "uint256"
        }
      ],
      "name": "PropertyFunded",
      "type": "event"
    },
    {
      "anonymous": false,
      "inputs": [
        {
          "indexed": true,
          "internalType": "uint256",
          "name": "propertyId",
          "type": "uint256"
        },
        {
          "indexed": true,
          "internalType": "address",
          "name": "requestor",
          "type": "address"
        },
        {
          "indexed": false,
          "internalType": "uint256",
          "name": "timestamp",
          "type": "uint256"
        }
      ],
      "name": "RegulatorAuditRequested",
      "type": "event"
    },
    {
      "anonymous": false,
      "inputs": [
        {
          "indexed": true,
          "internalType": "bytes32",
          "name": "role",
          "type": "bytes32"
        },
        {
          "indexed": true,
          "internalType": "bytes32",
          "name": "previousAdminRole",
          "type": "bytes32"
        },
        {
          "indexed": true,
          "internalType": "bytes32",
          "name": "newAdminRole",
          "type": "bytes32"
        }
      ],
      "name": "RoleAdminChanged",
      "type": "event"
    },
    {
      "anonymous": false,
      "inputs": [
        {
          "indexed": true,
          "internalType": "bytes32",
          "name": "role",
          "type": "bytes32"
        },
        {
          "indexed": true,
          "internalType": "address",
          "name": "account",
          "type": "address"
        },
        {
          "indexed": true,
          "internalType": "address",
          "name": "sender",
          "type": "address"
        }
      ],
      "name": "RoleGranted",
      "type": "event"
    },
    {
      "anonymous": false,
      "inputs": [
        {
          "indexed": true,
          "internalType": "bytes32",
          "name": "role",
          "type": "bytes32"
        },
        {
          "indexed": true,
          "internalType": "address",
          "name": "account",
          "type": "address"
        },
        {
          "indexed": true,
          "internalType": "address",
          "name": "sender",
          "type": "address"
        }
      ],
      "name": "RoleRevoked",
      "type": "event"
    },
    {
      "anonymous": false,
      "inputs": [
        {
          "indexed": true,
          "internalType": "uint256",
          "name": "propertyId",
          "type": "uint256"
        },
        {
          "indexed": true,
          "internalType": "address",
          "name": "from",
          "type": "address"
        },
        {
          "indexed": false,
          "internalType": "uint256",
          "name": "amount",
          "type": "uint256"
        },
        {
          "indexed": false,
          "internalType": "enum PropertyToken.Phase",
          "name": "phase",
          "type": "uint8"
        }
      ],
      "name": "TokensBurned",
      "type": "event"
    },
    {
      "anonymous": false,
      "inputs": [
        {
          "indexed": true,
          "internalType": "uint256",
          "name": "propertyId",
          "type": "uint256"
        },
        {
          "indexed": true,
          "internalType": "address",
          "name": "buyer",
          "type": "address"
        },
        {
          "indexed": false,
          "internalType": "uint256",
          "name": "amount",
          "type": "uint256"
        },
        {
          "indexed": false,
          "internalType": "enum PropertyToken.Phase",
          "name": "phase",
          "type": "uint8"
        }
      ],
      "name": "TokensMinted",
      "type": "event"
    },
    {
      "anonymous": false,
      "inputs": [
        {
          "indexed": true,
          "internalType": "address",
          "name": "operator",
          "type": "address"
        },
        {
          "indexed": true,
          "internalType": "address",
          "name": "from",
          "type": "address"
        },
        {
          "indexed": true,
          "internalType": "address",
          "name": "to",
          "type": "address"
        },
        {
          "indexed": false,
          "internalType": "uint256[]",
          "name": "ids",
          "type": "uint256[]"
        },
        {
          "indexed": false,
          "internalType": "uint256[]",
          "name": "values",
          "type": "uint256[]"
        }
      ],
      "name": "TransferBatch",
      "type": "event"
    },
    {
      "anonymous": false,
      "inputs": [
        {
          "indexed": true,
          "internalType": "uint256",
          "name": "propertyId",
          "type": "uint256"
        },
        {
          "indexed": true,
          "internalType": "address",
          "name": "from",
          "type": "address"
        },
        {
          "indexed": true,
          "internalType": "address",
          "name": "to",
          "type": "address"
        },
        {
          "indexed": false,
          "internalType": "string",
          "name": "reason",
          "type": "string"
        }
      ],
      "name": "TransferRestricted",
      "type": "event"
    },
    {
      "anonymous": false,
      "inputs": [
        {
          "indexed": true,
          "internalType": "address",
          "name": "operator",
          "type": "address"
        },
        {
          "indexed": true,
          "internalType": "address",
          "name": "from",
          "type": "address"
        },
        {
          "indexed": true,
          "internalType": "address",
          "name": "to",
          "type": "address"
        },
        {
          "indexed": false,
          "internalType": "uint256",
          "name": "id",
          "type": "uint256"
        },
        {
          "indexed": false,
          "internalType": "uint256",
          "name": "value",
          "type": "uint256"
        }
      ],
      "name": "TransferSingle",
      "type": "event"
    },
    {
      "anonymous": false,
      "inputs": [
        {
          "indexed": false,
          "internalType": "string",
          "name": "value",
          "type": "string"
        },
        {
          "indexed": true,
          "internalType": "uint256",
          "name": "id",
          "type": "uint256"
        }
      ],
      "name": "URI",
      "type": "event"
    },
    {
      "anonymous": false,
      "inputs": [
        {
          "indexed": false,
          "internalType": "address",
          "name": "account",
          "type": "address"
        }
      ],
      "name": "Unpaused",
      "type": "event"
    },
    {
      "inputs": [],
      "name": "BURNER_ROLE",
      "outputs": [
        {
          "internalType": "bytes32",
          "name": "",
          "type": "bytes32"
        }
      ],
      "stateMutability": "view",
      "type": "function"
    },
    {
      "inputs": [],
      "name": "COUNTY_ALLOCATION",
      "outputs": [
        {
          "internalType": "uint256",
          "name": "",
          "type": "uint256"
        }
      ],
      "stateMutability": "view",
      "type": "function"
    },
    {
      "inputs": [],
      "name": "COUNTY_MULTIPLIER",
      "outputs": [
        {
          "internalType": "uint256",
          "name": "",
          "type": "uint256"
        }
      ],
      "stateMutability": "view",
      "type": "function"
    },
    {
      "inputs": [],
      "name": "COUNTY_VOTING_MULTIPLIER",
      "outputs": [
        {
          "internalType": "uint256",
          "name": "",
          "type": "uint256"
        }
      ],
      "stateMutability": "view",
      "type": "function"
    },
    {
      "inputs": [],
      "name": "DEFAULT_ADMIN_ROLE",
      "outputs": [
        {
          "internalType": "bytes32",
          "name": "",
          "type": "bytes32"
        }
      ],
      "stateMutability": "view",
      "type": "function"
    },
    {
      "inputs": [],
      "name": "INTERNATIONAL_ALLOCATION",
      "outputs": [
        {
          "internalType": "uint256",
          "name": "",
          "type": "uint256"
        }
      ],
      "stateMutability": "view",
      "type": "function"
    },
    {
      "inputs": [],
      "name": "INTERNATIONAL_MULTIPLIER",
      "outputs": [
        {
          "internalType": "uint256",
          "name": "",
          "type": "uint256"
        }
      ],
      "stateMutability": "view",
      "type": "function"
    },
    {
      "inputs": [],
      "name": "INTERNATIONAL_VOTING_MULTIPLIER",
      "outputs": [
        {
          "internalType": "uint256",
          "name": "",
          "type": "uint256"
        }
      ],
      "stateMutability": "view",
      "type": "function"
    },
    {
      "inputs": [],
      "name": "MINTER_ROLE",
      "outputs": [
        {
          "internalType": "bytes32",
          "name": "",
          "type": "bytes32"
        }
      ],
      "stateMutability": "view",
      "type": "function"
    },
    {
      "inputs": [],
      "name": "NATIONAL_ALLOCATION",
      "outputs": [
        {
          "internalType": "uint256",
          "name": "",
          "type": "uint256"
        }
      ],
      "stateMutability": "view",
      "type": "function"
    },
    {
      "inputs": [],
      "name": "NATIONAL_MULTIPLIER",
      "outputs": [
        {
          "internalType": "uint256",
          "name": "",
          "type": "uint256"
        }
      ],
      "stateMutability": "view",
      "type": "function"
    },
    {
      "inputs": [],
      "name": "NATIONAL_VOTING_MULTIPLIER",
      "outputs": [
        {
          "internalType": "uint256",
          "name": "",
          "type": "uint256"
        }
      ],
      "stateMutability": "view",
      "type": "function"
    },
    {
      "inputs": [],
      "name": "PAUSER_ROLE",
      "outputs": [
        {
          "internalType": "bytes32",
          "name": "",
          "type": "bytes32"
        }
      ],
      "stateMutability": "view",
      "type": "function"
    },
    {
      "inputs": [],
      "name": "PHASE_ADVANCER_ROLE",
      "outputs": [
        {
          "internalType": "bytes32",
          "name": "",
          "type": "bytes32"
        }
      ],
      "stateMutability": "view",
      "type": "function"
    },
    {
      "inputs": [],
      "name": "STATE_ALLOCATION",
      "outputs": [
        {
          "internalType": "uint256",
          "name": "",
          "type": "uint256"
        }
      ],
      "stateMutability": "view",
      "type": "function"
    },
    {
      "inputs": [],
      "name": "STATE_MULTIPLIER",
      "outputs": [
        {
          "internalType": "uint256",
          "name": "",
          "type": "uint256"
        }
      ],
      "stateMutability": "view",
      "type": "function"
    },
    {
      "inputs": [],
      "name": "STATE_VOTING_MULTIPLIER",
      "outputs": [
        {
          "internalType": "uint256",
          "name": "",
          "type": "uint256"
        }
      ],
      "stateMutability": "view",
      "type": "function"
    },
    {
      "inputs": [],
      "name": "WHITELIST_ADMIN_ROLE",
      "outputs": [
        {
          "internalType": "bytes32",
          "name": "",
          "type": "bytes32"
        }
      ],
      "stateMutability": "view",
      "type": "function"
    },
    {
      "inputs": [
        {
          "internalType": "address",
          "name": "account",
          "type": "address"
        },
        {
          "internalType": "enum PropertyToken.Phase",
          "name": "eligibility",
          "type": "uint8"
        }
      ],
      "name": "addToWhitelist",
      "outputs": [],
      "stateMutability": "nonpayable",
      "type": "function"
    },
    {
      "inputs": [
        {
          "internalType": "address",
          "name": "",
          "type": "address"
        }
      ],
      "name": "addressPhaseEligibility",
      "outputs": [
        {
          "internalType": "enum PropertyToken.Phase",
          "name": "",
          "type": "uint8"
        }
      ],
      "stateMutability": "view",
      "type": "function"
    },
    {
      "inputs": [
        {
          "internalType": "uint256",
          "name": "propertyId",
          "type": "uint256"
        }
      ],
      "name": "advancePhase",
      "outputs": [],
      "stateMutability": "nonpayable",
      "type": "function"
    },
    {
      "inputs": [
        {
          "internalType": "address",
          "name": "",
          "type": "address"
        }
      ],
      "name": "amlCheckIds",
      "outputs": [
        {
          "internalType": "bytes32",
          "name": "",
          "type": "bytes32"
        }
      ],
      "stateMutability": "view",
      "type": "function"
    },
    {
      "inputs": [
        {
          "internalType": "address",
          "name": "account",
          "type": "address"
        },
        {
          "internalType": "enum PropertyToken.Phase",
          "name": "eligibility",
          "type": "uint8"
        },
        {
          "internalType": "bytes",
          "name": "verificationData",
          "type": "bytes"
        }
      ],
      "name": "autoWhitelist",
      "outputs": [],
      "stateMutability": "nonpayable",
      "type": "function"
    },
    {
      "inputs": [
        {
          "internalType": "address",
          "name": "account",
          "type": "address"
        },
        {
          "internalType": "uint256",
          "name": "id",
          "type": "uint256"
        }
      ],
      "name": "balanceOf",
      "outputs": [
        {
          "internalType": "uint256",
          "name": "",
          "type": "uint256"
        }
      ],
      "stateMutability": "view",
      "type": "function"
    },
    {
      "inputs": [
        {
          "internalType": "address[]",
          "name": "accounts",
          "type": "address[]"
        },
        {
          "internalType": "uint256[]",
          "name": "ids",
          "type": "uint256[]"
        }
      ],
      "name": "balanceOfBatch",
      "outputs": [
        {
          "internalType": "uint256[]",
          "name": "",
          "type": "uint256[]"
        }
      ],
      "stateMutability": "view",
      "type": "function"
    },
    {
      "inputs": [],
      "name": "basePrice",
      "outputs": [
        {
          "internalType": "uint256",
          "name": "",
          "type": "uint256"
        }
      ],
      "stateMutability": "view",
      "type": "function"
    },
    {
      "inputs": [
        {
          "internalType": "address",
          "name": "account",
          "type": "address"
        },
        {
          "internalType": "uint256",
          "name": "id",
          "type": "uint256"
        },
        {
          "internalType": "uint256",
          "name": "value",
          "type": "uint256"
        }
      ],
      "name": "burn",
      "outputs": [],
      "stateMutability": "nonpayable",
      "type": "function"
    },
    {
      "inputs": [
        {
          "internalType": "address",
          "name": "account",
          "type": "address"
        },
        {
          "internalType": "uint256[]",
          "name": "ids",
          "type": "uint256[]"
        },
        {
          "internalType": "uint256[]",
          "name": "values",
          "type": "uint256[]"
        }
      ],
      "name": "burnBatch",
      "outputs": [],
      "stateMutability": "nonpayable",
      "type": "function"
    },
    {
      "inputs": [
        {
          "internalType": "uint256",
          "name": "propertyId",
          "type": "uint256"
        },
        {
          "internalType": "address",
          "name": "holder",
          "type": "address"
        },
        {
          "internalType": "uint256",
          "name": "amount",
          "type": "uint256"
        }
      ],
      "name": "burnFromOnFailure",
      "outputs": [],
      "stateMutability": "nonpayable",
      "type": "function"
    },
    {
      "inputs": [
        {
          "internalType": "uint256",
          "name": "propertyId",
          "type": "uint256"
        }
      ],
      "name": "createComplianceCheckpoint",
      "outputs": [],
      "stateMutability": "nonpayable",
      "type": "function"
    },
    {
      "inputs": [
        {
          "internalType": "string",
          "name": "name",
          "type": "string"
        },
        {
          "internalType": "string",
          "name": "propertyUri",
          "type": "string"
        },
        {
          "internalType": "uint256",
          "name": "totalSupply",
          "type": "uint256"
        },
        {
          "internalType": "uint256",
          "name": "fundingTarget",
          "type": "uint256"
        },
        {
          "internalType": "uint256",
          "name": "fundingDuration",
          "type": "uint256"
        }
      ],
      "name": "createProperty",
      "outputs": [
        {
          "internalType": "uint256",
          "name": "",
          "type": "uint256"
        }
      ],
      "stateMutability": "nonpayable",
      "type": "function"
    },
    {
      "inputs": [
        {
          "internalType": "uint256",
          "name": "id",
          "type": "uint256"
        }
      ],
      "name": "exists",
      "outputs": [
        {
          "internalType": "bool",
          "name": "",
          "type": "bool"
        }
      ],
      "stateMutability": "view",
      "type": "function"
    },
    {
      "inputs": [],
      "name": "getAllPropertyIds",
      "outputs": [
        {
          "internalType": "uint256[]",
          "name": "",
          "type": "uint256[]"
        }
      ],
      "stateMutability": "view",
      "type": "function"
    },
    {
      "inputs": [
        {
          "internalType": "uint256",
          "name": "propertyId",
          "type": "uint256"
        }
      ],
      "name": "getCurrentPrice",
      "outputs": [
        {
          "internalType": "uint256",
          "name": "",
          "type": "uint256"
        }
      ],
      "stateMutability": "view",
      "type": "function"
    },
    {
      "inputs": [
        {
          "internalType": "address",
          "name": "account",
          "type": "address"
        }
      ],
      "name": "getKYCStatus",
      "outputs": [
        {
          "internalType": "bool",
          "name": "isVerified",
          "type": "bool"
        },
        {
          "internalType": "bytes32",
          "name": "verificationId",
          "type": "bytes32"
        },
        {
          "internalType": "uint256",
          "name": "verificationTimestamp",
          "type": "uint256"
        }
      ],
      "stateMutability": "view",
      "type": "function"
    },
    {
      "inputs": [
        {
          "internalType": "uint256",
          "name": "propertyId",
          "type": "uint256"
        }
      ],
      "name": "getProperty",
      "outputs": [
        {
          "components": [
            {
              "internalType": "uint256",
              "name": "id",
              "type": "uint256"
            },
            {
              "internalType": "string",
              "name": "name",
              "type": "string"
            },
            {
              "internalType": "string",
              "name": "uri",
              "type": "string"
            },
            {
              "internalType": "uint256",
              "name": "totalSupply",
              "type": "uint256"
            },
            {
              "internalType": "uint256",
              "name": "mintedSupply",
              "type": "uint256"
            },
            {
              "internalType": "uint256",
              "name": "fundingTarget",
              "type": "uint256"
            },
            {
              "internalType": "uint256",
              "name": "fundingDeadline",
              "type": "uint256"
            },
            {
              "internalType": "enum PropertyToken.Phase",
              "name": "currentPhase",
              "type": "uint8"
            },
            {
              "internalType": "bool",
              "name": "isActive",
              "type": "bool"
            },
            {
              "internalType": "bool",
              "name": "isFunded",
              "type": "bool"
            }
          ],
          "internalType": "struct PropertyToken.Property",
          "name": "",
          "type": "tuple"
        }
      ],
      "stateMutability": "view",
      "type": "function"
    },
    {
      "inputs": [],
      "name": "getPropertyCount",
      "outputs": [
        {
          "internalType": "uint256",
          "name": "",
          "type": "uint256"
        }
      ],
      "stateMutability": "view",
      "type": "function"
    },
    {
      "inputs": [
        {
          "internalType": "bytes32",
          "name": "role",
          "type": "bytes32"
        }
      ],
      "name": "getRoleAdmin",
      "outputs": [
        {
          "internalType": "bytes32",
          "name": "",
          "type": "bytes32"
        }
      ],
      "stateMutability": "view",
      "type": "function"
    },
    {
      "inputs": [
        {
          "internalType": "uint256",
          "name": "propertyId",
          "type": "uint256"
        }
      ],
      "name": "getTotalWeightedVotingPower",
      "outputs": [
        {
          "internalType": "uint256",
          "name": "",
          "type": "uint256"
        }
      ],
      "stateMutability": "view",
      "type": "function"
    },
    {
      "inputs": [
        {
          "internalType": "enum PropertyToken.Phase",
          "name": "phase",
          "type": "uint8"
        }
      ],
      "name": "getVotingMultiplier",
      "outputs": [
        {
          "internalType": "uint256",
          "name": "",
          "type": "uint256"
        }
      ],
      "stateMutability": "pure",
      "type": "function"
    },
    {
      "inputs": [
        {
          "internalType": "uint256",
          "name": "propertyId",
          "type": "uint256"
        },
        {
          "internalType": "address",
          "name": "voter",
          "type": "address"
        }
      ],
      "name": "getVotingPower",
      "outputs": [
        {
          "internalType": "uint256",
          "name": "",
          "type": "uint256"
        }
      ],
      "stateMutability": "view",
      "type": "function"
    },
    {
      "inputs": [
        {
          "internalType": "bytes32",
          "name": "role",
          "type": "bytes32"
        },
        {
          "internalType": "address",
          "name": "account",
          "type": "address"
        }
      ],
      "name": "grantRole",
      "outputs": [],
      "stateMutability": "nonpayable",
      "type": "function"
    },
    {
      "inputs": [
        {
          "internalType": "bytes32",
          "name": "role",
          "type": "bytes32"
        },
        {
          "internalType": "address",
          "name": "account",
          "type": "address"
        }
      ],
      "name": "hasRole",
      "outputs": [
        {
          "internalType": "bool",
          "name": "",
          "type": "bool"
        }
      ],
      "stateMutability": "view",
      "type": "function"
    },
    {
      "inputs": [
        {
          "internalType": "uint256",
          "name": "",
          "type": "uint256"
        },
        {
          "internalType": "address",
          "name": "",
          "type": "address"
        },
        {
          "internalType": "enum PropertyToken.Phase",
          "name": "",
          "type": "uint8"
        }
      ],
      "name": "holdingsByPhase",
      "outputs": [
        {
          "internalType": "uint256",
          "name": "",
          "type": "uint256"
        }
      ],
      "stateMutability": "view",
      "type": "function"
    },
    {
      "inputs": [
        {
          "internalType": "address",
          "name": "account",
          "type": "address"
        },
        {
          "internalType": "address",
          "name": "operator",
          "type": "address"
        }
      ],
      "name": "isApprovedForAll",
      "outputs": [
        {
          "internalType": "bool",
          "name": "",
          "type": "bool"
        }
      ],
      "stateMutability": "view",
      "type": "function"
    },
    {
      "inputs": [
        {
          "internalType": "address",
          "name": "",
          "type": "address"
        }
      ],
      "name": "kycVerificationIds",
      "outputs": [
        {
          "internalType": "bytes32",
          "name": "",
          "type": "bytes32"
        }
      ],
      "stateMutability": "view",
      "type": "function"
    },
    {
      "inputs": [
        {
          "internalType": "address",
          "name": "",
          "type": "address"
        }
      ],
      "name": "kycVerificationTimestamps",
      "outputs": [
        {
          "internalType": "uint256",
          "name": "",
          "type": "uint256"
        }
      ],
      "stateMutability": "view",
      "type": "function"
    },
    {
      "inputs": [
        {
          "internalType": "uint256",
          "name": "propertyId",
          "type": "uint256"
        }
      ],
      "name": "markFunded",
      "outputs": [],
      "stateMutability": "nonpayable",
      "type": "function"
    },
    {
      "inputs": [
        {
          "internalType": "uint256",
          "name": "propertyId",
          "type": "uint256"
        },
        {
          "internalType": "address",
          "name": "buyer",
          "type": "address"
        },
        {
          "internalType": "uint256",
          "name": "amount",
          "type": "uint256"
        }
      ],
      "name": "mintTokens",
      "outputs": [],
      "stateMutability": "nonpayable",
      "type": "function"
    },
    {
      "inputs": [],
      "name": "pause",
      "outputs": [],
      "stateMutability": "nonpayable",
      "type": "function"
    },
    {
      "inputs": [],
      "name": "paused",
      "outputs": [
        {
          "internalType": "bool",
          "name": "",
          "type": "bool"
        }
      ],
      "stateMutability": "view",
      "type": "function"
    },
    {
      "inputs": [
        {
          "internalType": "uint256",
          "name": "",
          "type": "uint256"
        },
        {
          "internalType": "enum PropertyToken.Phase",
          "name": "",
          "type": "uint8"
        }
      ],
      "name": "phaseAllocations",
      "outputs": [
        {
          "internalType": "uint256",
          "name": "",
          "type": "uint256"
        }
      ],
      "stateMutability": "view",
      "type": "function"
    },
    {
      "inputs": [
        {
          "internalType": "uint256",
          "name": "",
          "type": "uint256"
        },
        {
          "internalType": "enum PropertyToken.Phase",
          "name": "",
          "type": "uint8"
        }
      ],
      "name": "phaseMinted",
      "outputs": [
        {
          "internalType": "uint256",
          "name": "",
          "type": "uint256"
        }
      ],
      "stateMutability": "view",
      "type": "function"
    },
    {
      "inputs": [
        {
          "internalType": "uint256",
          "name": "",
          "type": "uint256"
        }
      ],
      "name": "properties",
      "outputs": [
        {
          "internalType": "uint256",
          "name": "id",
          "type": "uint256"
        },
        {
          "internalType": "string",
          "name": "name",
          "type": "string"
        },
        {
          "internalType": "string",
          "name": "uri",
          "type": "string"
        },
        {
          "internalType": "uint256",
          "name": "totalSupply",
          "type": "uint256"
        },
        {
          "internalType": "uint256",
          "name": "mintedSupply",
          "type": "uint256"
        },
        {
          "internalType": "uint256",
          "name": "fundingTarget",
          "type": "uint256"
        },
        {
          "internalType": "uint256",
          "name": "fundingDeadline",
          "type": "uint256"
        },
        {
          "internalType": "enum PropertyToken.Phase",
          "name": "currentPhase",
          "type": "uint8"
        },
        {
          "internalType": "bool",
          "name": "isActive",
          "type": "bool"
        },
        {
          "internalType": "bool",
          "name": "isFunded",
          "type": "bool"
        }
      ],
      "stateMutability": "view",
      "type": "function"
    },
    {
      "inputs": [],
      "name": "propertyCount",
      "outputs": [
        {
          "internalType": "uint256",
          "name": "",
          "type": "uint256"
        }
      ],
      "stateMutability": "view",
      "type": "function"
    },
    {
      "inputs": [
        {
          "internalType": "uint256",
          "name": "propertyId",
          "type": "uint256"
        }
      ],
      "name": "propertyExists",
      "outputs": [
        {
          "internalType": "bool",
          "name": "",
          "type": "bool"
        }
      ],
      "stateMutability": "view",
      "type": "function"
    },
    {
      "inputs": [
        {
          "internalType": "address",
          "name": "account",
          "type": "address"
        },
        {
          "internalType": "bytes32",
          "name": "checkId",
          "type": "bytes32"
        }
      ],
      "name": "recordAMLCheck",
      "outputs": [],
      "stateMutability": "nonpayable",
      "type": "function"
    },
    {
      "inputs": [
        {
          "internalType": "address",
          "name": "account",
          "type": "address"
        },
        {
          "internalType": "string",
          "name": "reason",
          "type": "string"
        }
      ],
      "name": "recordAMLFailure",
      "outputs": [],
      "stateMutability": "nonpayable",
      "type": "function"
    },
    {
      "inputs": [
        {
          "internalType": "address",
          "name": "account",
          "type": "address"
        },
        {
          "internalType": "bytes32",
          "name": "verificationId",
          "type": "bytes32"
        }
      ],
      "name": "recordKYCVerification",
      "outputs": [],
      "stateMutability": "nonpayable",
      "type": "function"
    },
    {
      "inputs": [
        {
          "internalType": "address",
          "name": "account",
          "type": "address"
        }
      ],
      "name": "removeFromWhitelist",
      "outputs": [],
      "stateMutability": "nonpayable",
      "type": "function"
    },
    {
      "inputs": [
        {
          "internalType": "bytes32",
          "name": "role",
          "type": "bytes32"
        },
        {
          "internalType": "address",
          "name": "callerConfirmation",
          "type": "address"
        }
      ],
      "name": "renounceRole",
      "outputs": [],
      "stateMutability": "nonpayable",
      "type": "function"
    },
    {
      "inputs": [
        {
          "internalType": "uint256",
          "name": "propertyId",
          "type": "uint256"
        }
      ],
      "name": "requestRegulatorAudit",
      "outputs": [],
      "stateMutability": "nonpayable",
      "type": "function"
    },
    {
      "inputs": [
        {
          "internalType": "address",
          "name": "account",
          "type": "address"
        },
        {
          "internalType": "string",
          "name": "reason",
          "type": "string"
        }
      ],
      "name": "revokeKYCVerification",
      "outputs": [],
      "stateMutability": "nonpayable",
      "type": "function"
    },
    {
      "inputs": [
        {
          "internalType": "bytes32",
          "name": "role",
          "type": "bytes32"
        },
        {
          "internalType": "address",
          "name": "account",
          "type": "address"
        }
      ],
      "name": "revokeRole",
      "outputs": [],
      "stateMutability": "nonpayable",
      "type": "function"
    },
    {
      "inputs": [
        {
          "internalType": "address",
          "name": "from",
          "type": "address"
        },
        {
          "internalType": "address",
          "name": "to",
          "type": "address"
        },
        {
          "internalType": "uint256[]",
          "name": "ids",
          "type": "uint256[]"
        },
        {
          "internalType": "uint256[]",
          "name": "values",
          "type": "uint256[]"
        },
        {
          "internalType": "bytes",
          "name": "data",
          "type": "bytes"
        }
      ],
      "name": "safeBatchTransferFrom",
      "outputs": [],
      "stateMutability": "nonpayable",
      "type": "function"
    },
    {
      "inputs": [
        {
          "internalType": "address",
          "name": "from",
          "type": "address"
        },
        {
          "internalType": "address",
          "name": "to",
          "type": "address"
        },
        {
          "internalType": "uint256",
          "name": "id",
          "type": "uint256"
        },
        {
          "internalType": "uint256",
          "name": "value",
          "type": "uint256"
        },
        {
          "internalType": "bytes",
          "name": "data",
          "type": "bytes"
        }
      ],
      "name": "safeTransferFrom",
      "outputs": [],
      "stateMutability": "nonpayable",
      "type": "function"
    },
    {
      "inputs": [
        {
          "internalType": "address",
          "name": "operator",
          "type": "address"
        },
        {
          "internalType": "bool",
          "name": "approved",
          "type": "bool"
        }
      ],
      "name": "setApprovalForAll",
      "outputs": [],
      "stateMutability": "nonpayable",
      "type": "function"
    },
    {
      "inputs": [
        {
          "internalType": "bytes4",
          "name": "interfaceId",
          "type": "bytes4"
        }
      ],
      "name": "supportsInterface",
      "outputs": [
        {
          "internalType": "bool",
          "name": "",
          "type": "bool"
        }
      ],
      "stateMutability": "view",
      "type": "function"
    },
    {
      "inputs": [],
      "name": "totalSupply",
      "outputs": [
        {
          "internalType": "uint256",
          "name": "",
          "type": "uint256"
        }
      ],
      "stateMutability": "view",
      "type": "function"
    },
    {
      "inputs": [
        {
          "internalType": "uint256",
          "name": "id",
          "type": "uint256"
        }
      ],
      "name": "totalSupply",
      "outputs": [
        {
          "internalType": "uint256",
          "name": "",
          "type": "uint256"
        }
      ],
      "stateMutability": "view",
      "type": "function"
    },
    {
      "inputs": [],
      "name": "unpause",
      "outputs": [],
      "stateMutability": "nonpayable",
      "type": "function"
    },
    {
      "inputs": [
        {
          "internalType": "uint256",
          "name": "newPrice",
          "type": "uint256"
        }
      ],
      "name": "updateBasePrice",
      "outputs": [],
      "stateMutability": "nonpayable",
      "type": "function"
    },
    {
      "inputs": [
        {
          "internalType": "uint256",
          "name": "",
          "type": "uint256"
        }
      ],
      "name": "uri",
      "outputs": [
        {
          "internalType": "string",
          "name": "",
          "type": "string"
        }
      ],
      "stateMutability": "view",
      "type": "function"
    },
    {
      "inputs": [
        {
          "internalType": "address",
          "name": "",
          "type": "address"
        }
      ],
      "name": "whitelist",
      "outputs": [
        {
          "internalType": "bool",
          "name": "",
          "type": "bool"
        }
      ],
      "stateMutability": "view",
      "type": "function"
    }
  ],
  "bytecode": "0x608060405234620002755762004b42803803806200001d816200027a565b9283398101906020908181840312620002755780516001600160401b039182821162000275570191601f90848285011215620002755783518381116200024a57601f199462000072828501871684016200027a565b968288528383830101116200027557829060005b838110620002605750506000918701015284519283116200024a57600254936001948581811c911680156200023f575b838210146200022957838111620001dd575b50819284116001146200017457505081929360009262000168575b5050600019600383901b1c191690821b176002555b60ff1960065416600655600755662c68af0bb140006008556200011b33620002a0565b50620001273362000321565b506200013333620003c4565b506200013f3362000462565b506200014b3362000500565b5062000157336200059e565b506040516144e590816200063d8239f35b015190503880620000e3565b839291921694600260005282600020926000905b878210620001c557505083859610620001ab575b505050811b01600255620000f8565b015160001960f88460031b161c191690553880806200019c565b80878596829496860151815501950193019062000188565b6002600052826000208480870160051c8201928588106200021f575b0160051c019086905b82811062000212575050620000c8565b6000815501869062000202565b92508192620001f9565b634e487b7160e01b600052602260045260246000fd5b90607f1690620000b6565b634e487b7160e01b600052604160045260246000fd5b81810183015189820184015284920162000086565b600080fd5b6040519190601f01601f191682016001600160401b038111838210176200024a57604052565b6001600160a01b031660008181527f05b8ccbb9d4d8fb16ea74ce3c29a41f1b461fbdaff4714a0d9a8eb05499746bc602052604081205490919060ff166200031d5781805260056020526040822081835260205260408220600160ff19825416179055339160008051602062004b228339815191528180a4600190565b5090565b6001600160a01b031660008181527f15a28d26fa1bf736cf7edc9922607171ccb09c3c73b808e7772a3013e068a52260205260408120549091907f9f2df0fed2c77648de5860a4cc508cd0818c85b8b8a1ab4ceeef8d981c8956a69060ff16620003bf5780835260056020526040832082845260205260408320600160ff1982541617905560008051602062004b22833981519152339380a4600190565b505090565b6001600160a01b031660008181527f99f2891db7a8db76249871a02b43b68c0bb8f22ef8a3bc1034ae9375ef6b7c3c60205260408120549091907f65d7a28e3265b37a6474929f336521b332c1681b933f6cb9f3376673440d862a9060ff16620003bf5780835260056020526040832082845260205260408320600160ff1982541617905560008051602062004b22833981519152339380a4600190565b6001600160a01b031660008181527f294bb43e882f8724b7ae88344d047a41612b98ee139a78f923b3689f3cc274b160205260408120549091907f28f5a99355973cc89255b8c4ac88405f27c78ded7608b040ee77a8bdf44d15e29060ff16620003bf5780835260056020526040832082845260205260408320600160ff1982541617905560008051602062004b22833981519152339380a4600190565b6001600160a01b031660008181527fc54cc0cad80e711aff5b4fca3e13682b9a8fcd7ff4679fbc81d0391d16e477bd60205260408120549091907f62045f2f519251643cf4b5f0750d99bbda23ce869802ad9f6d52577cd08a645a9060ff16620003bf5780835260056020526040832082845260205260408320600160ff1982541617905560008051602062004b22833981519152339380a4600190565b6001600160a01b031660008181527f847f481f687befb06ed3511f1a8dcef57e83007c0147ae5047583d705617093760205260408120549091907f3c11d16cbaffd01df69ce1c404f6340ee057498f5f00246190ea54220576a8489060ff16620003bf5780835260056020526040832082845260205260408320600160ff1982541617905560008051602062004b22833981519152339380a460019056fe6080604052600436101561001257600080fd5b60003560e01c80620c8df0146104ab578062fdd58e146104a657806301ffc9a7146104a15780630263b8581461049c57806304fa6173146104975780630e89341c146104925780630fbe640f1461048d57806311dd6cdc1461042e57806318160ddd1461048857806319e7645414610483578063230672481461047e578063248a9ca3146104795780632632067a14610474578063282c51f31461046f5780632eb2c2d61461046a5780632f2ff15d1461046557806332665ffb1461046057806335894afd1461045b57806336568abe146104565780633bb0b5b6146104515780633f4ba83a1461044c57806343cb5413146104475780634a164732146104425780634e1273f41461043d5780634f558e79146104385780634ff69e8314610433578063500e9f731461042e57806354202c4e146104295780635561c5b31461042457806358567dd51461041f5780635bbe9f5e1461038e5780635c975abb1461041a5780635fc68c46146104155780636b20c454146104105780636ce2f91d1461040b5780636e1ffa9b146104065780636ea99677146104015780637326b901146103fc578063742c4f4c146103f757806375cfcb3d146103f25780637b667e6f146103ed5780637ca8c6f1146103e857806381aaf4ce146103e35780638456cb59146103de578063847ede74146103d95780638ab1d681146103d45780638cdc1e87146103cf5780638d6819be146103ca57806391d14854146103c55780639b19251a146103c05780639ca02763146103bb578063a217fddf146103b6578063a22cb465146103b1578063a7907f74146103ac578063bd85b039146103a7578063c361a335146103a2578063c55d0f561461039d578063c5666eb214610398578063c65b682014610393578063c7527d081461038e578063c7876ea414610389578063ceadd5b914610384578063d53913931461037f578063d547741f1461037a578063dbdad43214610375578063e63ab1e914610370578063e985e9c51461036b578063edff496914610366578063f242432a14610361578063f5298aca1461035c578063f7b1080814610357578063f8147a8a14610352578063f918ce1b1461034d5763fd5baa881461034857600080fd5b612801565b612779565b61275c565b6126e1565b612508565b612403565b6123bf565b61235e565b612323565b61229e565b61225f565b612224565b612207565b6121e9565b611682565b6121cc565b6120f4565b6120d6565b6120b8565b61208c565b61206f565b611fb3565b611f97565b611f41565b611f02565b611eb0565b611c54565b611bb9565b611b51565b611acf565b611a75565b6119e2565b6119c5565b61197a565b611940565b6118c6565b6118a8565b611876565b6117fa565b6117ca565b6116df565b6116c2565b61169f565b611475565b611458565b61141d565b6108ba565b61138e565b611360565b6112a6565b611233565b611199565b6110ec565b61101c565b610fab565b610f70565b610e65565b610d75565b610c4d565b610ab7565b6109a8565b61094c565b61092f565b6108f5565b6108d7565b610880565b610799565b610727565b61065f565b6105c8565b610569565b6104f5565b600435906001600160a01b03821682036104c657565b600080fd5b602435906001600160a01b03821682036104c657565b35906001600160a01b03821682036104c657565b346104c6576020806003193601126104c6576060906001600160a01b0361051a6104b0565b16600052600d815260409060ff8260002054169182610556575b6012825280600020546013835281600020549282519415158552840152820152f35b9150601281528160002054151591610534565b346104c65760403660031901126104c65760206105ad6105876104b0565b6024356000526000835260406000209060018060a01b0316600052602052604060002090565b54604051908152f35b6001600160e01b03198116036104c657565b346104c65760203660031901126104c65760206004356105e7816105b6565b63ffffffff60e01b16637965db0b60e01b811490811561060d575b506040519015158152f35b636cdb3d1360e11b81149150811561063f575b811561062e575b5038610602565b6301ffc9a760e01b14905038610627565b6303a24d0760e21b81149150610620565b6024359060048210156104c657565b346104c65760403660031901126104c6576106786104b0565b7f473a74f22f6ac6868d6c168fc84aef7f2172066bab41229b471d1c6b85434c8260206106a3610650565b926106ac612ec8565b60018060a01b03169283600052600d82526040600020600160ff19825416179055600e82526106df81604060002061284d565b6106ec6040518092610db4565ba2005b600411156106f957565b634e487b7160e01b600052602160045260246000fd5b9060048110156106f957600052602052604060002090565b346104c65760403660031901126104c65760206105ad610745610650565b600435600052600c8352604060002061070f565b919082519283825260005b848110610785575050826000602080949584010152601f8019910116010190565b602081830181015184830182015201610764565b346104c6576020806003193601126104c65760405190600082600254916107bf8361259b565b9283835260019085600182169182600014610860575050600114610803575b506107eb92500383610b44565b6107ff604051928284938452830190610759565b0390f35b84915060026000527f405787fa12a823e0f2b7631cc41b3ba8828b3321ca811111fa75cd3aa3bb5ace906000915b8583106108485750506107eb9350820101386107de565b80548389018501528794508693909201918101610831565b60ff1916858201526107eb95151560051b85010192503891506107de9050565b346104c65760203660031901126104c6576001600160a01b036108a16104b0565b1660005260136020526020604060002054604051908152f35b346104c65760003660031901126104c65760206040516127108152f35b346104c65760003660031901126104c6576020600454604051908152f35b346104c65760203660031901126104c6576001600160a01b036109166104b0565b1660005260146020526020604060002054604051908152f35b346104c65760003660031901126104c6576020604051611d4c8152f35b346104c65760203660031901126104c65760043560005260056020526020600160406000200154604051908152f35b9181601f840112156104c6578235916001600160401b0383116104c657602083818601950101116104c657565b346104c65760603660031901126104c6576109c16104b0565b6109c9610650565b6044356001600160401b0381116104c6576109e890369060040161097b565b90506109f2612ec8565b15610a7b57610a7681610a6a7f473a74f22f6ac6868d6c168fc84aef7f2172066bab41229b471d1c6b85434c8293610a6560018060a01b0387169687600052600d602052610a4b6040600020600160ff19825416179055565b6001600160a01b03166000908152600e6020526040902090565b61284d565b604051918291826123af565b0390a2005b60405162461bcd60e51b81526020600482015260146024820152734e6f20766572696669636174696f6e206461746160601b6044820152606490fd5b346104c65760003660031901126104c65760206040517f3c11d16cbaffd01df69ce1c404f6340ee057498f5f00246190ea54220576a8488152f35b634e487b7160e01b600052604160045260246000fd5b61014081019081106001600160401b03821117610b2457604052565b610af2565b602081019081106001600160401b03821117610b2457604052565b90601f801991011681019081106001600160401b03821117610b2457604052565b60405190610b7282610b08565b565b6001600160401b038111610b245760051b60200190565b9080601f830112156104c6576020908235610ba581610b74565b93610bb36040519586610b44565b81855260208086019260051b8201019283116104c657602001905b828210610bdc575050505090565b81358152908301908301610bce565b6001600160401b038111610b2457601f01601f191660200190565b81601f820112156104c657803590610c1d82610beb565b92610c2b6040519485610b44565b828452602083830101116104c657816000926020809301838601378301015290565b346104c65760a03660031901126104c657610c666104b0565b610c6e6104cb565b90604435916001600160401b03908184116104c657610c9260049436908601610b8b565b906064358381116104c657610caa9036908701610b8b565b926084359081116104c657610cc29036908701610c06565b936001600160a01b03808216903382141580610d51575b610d2457831615610d0c5715610cf557610cf395506137f6565b005b604051626a0d4560e21b8152600081880152602490fd5b604051632bfa23e760e11b8152600081890152602490fd5b6040805163711bec9160e11b815233818b019081526001600160a01b038616602082015290918291010390fd5b50600082815260016020908152604080832033845290915290205460ff1615610cd9565b346104c65760403660031901126104c657610cf3600435610d946104cb565b90806000526005602052610daf600160406000200154613086565b6130a7565b9060048210156106f95752565b610e629060208152825160208201526020830151610e06610df061014092836040860152610160850190610759565b6040860151848203601f19016060860152610759565b9360608101516080840152608081015160a084015260a081015160c084015260c081015160e084015260e0810151610e446101009182860190610db4565b81015190610e59610120928386019015159052565b01511515910152565b90565b346104c65760203660031901126104c6576107ff604051610e8581610b08565b610f6460009182815260606020820152606060408201528260608201528260808201528260a08201528260c08201528260e082015260ff60406101009480868501528061012080950152600435815260096020522093610f586007610ee8610b65565b9680548852610ef9600182016125d5565b6020890152610f0a600282016125d5565b60408901526003810154606089015260048101546080890152600581015460a0890152600681015460c0890152015491610f4984841660e08901612865565b600883901c8416151590870152565b60101c16151590830152565b60405191829182610dc1565b346104c65760003660031901126104c65760206040517f62045f2f519251643cf4b5f0750d99bbda23ce869802ad9f6d52577cd08a645a8152f35b346104c65760403660031901126104c657610fc46104cb565b336001600160a01b03821603610fe057610cf390600435613141565b60405163334bd91960e11b8152600490fd5b60609060031901126104c657600435906024356001600160a01b03811681036104c6579060443590565b346104c65761102a36610ff2565b9091611034612f26565b81156110a7576000818152602081815260408083206001600160a01b038716845290915290208290541061106b57610cf3926131d3565b60405162461bcd60e51b8152602060048201526014602482015273496e73756666696369656e742062616c616e636560601b6044820152606490fd5b60405162461bcd60e51b815260206004820152601760248201527f416d6f756e74206d75737420626520706f7369746976650000000000000000006044820152606490fd5b346104c65760003660031901126104c657611105612f7e565b60065460ff8116156111445760ff19166006557f5db9ee0a495bf2e6ff9c91a7834c1ba4fdd244a5e8aa4e537bd38aeae4b073aa6020604051338152a1005b604051638dfc202b60e01b8152600490fd5b9060406003198301126104c6576004356001600160a01b03811681036104c65791602435906001600160401b0382116104c6576111959160040161097b565b9091565b346104c6577fed82f44f688727207518136f7e93ae71dc311562b9f1841866814c6dbe3fc4876111c836611156565b9092916111d3612ec8565b6001600160a01b03166000818152600d6020526040808220805460ff191690555190949193849390928291611209914284612871565b0390a27f535611fb62fa2a833988f283b779e417e996813e44046f521d76c17b5943b08c8280a280f35b346104c65760203660031901126104c657600435600052601160205260206040600020541515604051908152f35b90815180825260208080930193019160005b828110611281575050505090565b835185529381019392810192600101611273565b906020610e62928181520190611261565b346104c65760403660031901126104c6576004356001600160401b038082116104c657366023830112156104c65781600401356112e281610b74565b926112f06040519485610b44565b8184526020916024602086019160051b830101913683116104c657602401905b82821061134957856024358681116104c6576107ff9161133761133d923690600401610b8b565b906128ce565b60405191829182611295565b838091611355846104e1565b815201910190611310565b346104c65760203660031901126104c657600435600052600360205260206040600020541515604051908152f35b346104c65760003660031901126104c657604051806010549182815260208091019260106000527f1b6847dc741a1b0cd08d278845f9d819d87b734759afb55fe2de5cb82a9ae672916000905b828210611406576107ff856113f281890382610b44565b604051918291602083526020830190611261565b8354865294850194600193840193909101906113db565b346104c65760003660031901126104c65760206040517f28f5a99355973cc89255b8c4ac88405f27c78ded7608b040ee77a8bdf44d15e28152f35b346104c65760003660031901126104c65760206040516107d08152f35b346104c65760a03660031901126104c6576001600160401b036004358181116104c6576114a6903690600401610c06565b906024359081116104c6576107ff917f1efdde4594ed8e2284022aa3bedd98d13b88c18f2bb33d90131dff8e95589ba36114e7611582933690600401610c06565b916044359061166f6064356114fa612fd6565b600a5496879661151161150c896129a3565b600a55565b61151d608435426129b7565b611525610b65565b918983528660208401526040830152866060830152600060808301528360a083015260c0820152600060e0820152611561610100820160019052565b600061012082015261157d886000526009602052604060002090565b612aef565b61159661158e85612ba9565b612710900490565b6115bc6115ad88600052600b602052604060002090565b60008052602052604060002090565b556115c961158e85612bc0565b6115f06115e088600052600b602052604060002090565b6001600052602052604060002090565b556115fd61158e85612bd7565b61162461161488600052600b602052604060002090565b6002600052602052604060002090565b5561163161158e85612bee565b61165861164888600052600b602052604060002090565b6003600052602052604060002090565b5561166286613a69565b5060405193849384612c18565b0390a26040519081529081906020820190565b346104c65760003660031901126104c6576020604051613a988152f35b346104c65760003660031901126104c657602060ff600654166040519015158152f35b346104c65760003660031901126104c6576020604051610bb88152f35b346104c65760603660031901126104c6576116f86104b0565b6001600160401b036024358181116104c657611718903690600401610b8b565b906044359081116104c657611731903690600401610b8b565b906001600160a01b03831633811415806117a6575b61177f571561176757610cf392600060405161176181610b29565b526135a4565b604051626a0d4560e21b815260006004820152602490fd5b60405163711bec9160e11b81523360048201526001600160a01b0385166024820152604490fd5b50600081815260016020908152604080832033845290915290205460ff1615611746565b346104c65760203660031901126104c65760043560048110156104c6576117f2602091612c3a565b604051908152f35b346104c65760403660031901126104c6576118136104b0565b7f73d81b71910f8bd08cf791875865c73764d8d891af9db3d5529a9c6574ef6dd1610a7660243592611843612ec8565b60018060a01b03169283600052601460205280604060002055604051918291428360209093929193604081019481520152565b346104c65760403660031901126104c65760206105ad611894610650565b600435600052600b8352604060002061070f565b346104c65760003660031901126104c6576020601054604051908152f35b346104c65760203660031901126104c6576004356118e2612fd6565b8060005260096020527f97997c603fecb6522ee76ac10b6a193d5ce1db7b82c8271b2a27a63f022e53b560606004604060002061192860ff600783015460081c16612c85565b015460405190428252600060208301526040820152a2005b346104c65760203660031901126104c6576001600160a01b036119616104b0565b1660005260126020526020604060002054604051908152f35b346104c65760203660031901126104c657611993612fd6565b60405142815233907fe6b09768ac52cdf77f7335552a3533efca4c4c467299850e0e7af38a1d8b52b1602060043592a3005b346104c65760003660031901126104c65760206040516157e48152f35b346104c65760203660031901126104c6573360009081527fc54cc0cad80e711aff5b4fca3e13682b9a8fcd7ff4679fbc81d0391d16e477bd60205260409020547f62045f2f519251643cf4b5f0750d99bbda23ce869802ad9f6d52577cd08a645a9060ff1615611a5757610cf36004356133da565b6044906040519063e2517d3f60e01b82523360048301526024820152fd5b346104c65760003660031901126104c657611a8e612f7e565b611a9661349f565b600160ff1960065416176006557f62e78cea01bee320cd4e420270b5ea74000d11b0c9f74754ebdbfc544b05a2586020604051338152a1005b346104c6577f71ff24386d252605e27e246db81bba937113d7887d04711cefa5fe7295437566611afe36611156565b909291611b09612ec8565b60018060a01b031691829160009483865260126020528560408120556013602052856040812055600d6020526040862060ff1981541690556112096040519283924284612871565b346104c65760203660031901126104c657611b6a6104b0565b611b72612ec8565b6001600160a01b03166000818152600d60205260408120805460ff19169055907f535611fb62fa2a833988f283b779e417e996813e44046f521d76c17b5943b08c8280a280f35b346104c65760203660031901126104c65760006004803590825b60ff841660038111611c495782811015611c3457611c2e91611c2261158e83611c1c611c15611c2896611c108b600052600c602052604060002090565b61070f565b5491612c3a565b90612c05565b906129b7565b93612cc7565b92611bd3565b602183634e487b7160e01b6000525260246000fd5b604051828152602090f35b346104c657611c6236610ff2565b611c6a61302e565b600260075414611e9e576002600755611c8161349f565b6001600160a01b0382166000908152600d60205260409020611cae90611ca9905b5460ff1690565b612ce7565b827f689e2353c59bcd8c1c4352ddd0f21299329ad92442d331648747e4e865acde74611e1e611ce7836000526009602052604060002090565b60046007820191611d88611d8060ff611d488b82611d29611ca28a5493611d12848660081c16612c85565b838560101c16158015611e90575b610a4b90612d2b565b91611d33836106ef565b16928391611d40836106ef565b161015612d68565b611d79611d6382611c108c600052600b602052604060002090565b5491611c108b600052600c602052604060002090565b5490612db4565b881115612dc1565b611d9b611d93612e0d565b88888b6134bd565b01611da78682546129b7565b9055611dcb611dc085600052600c602052604060002090565b825460ff169061070f565b611dd68682546129b7565b9055611e0a611dc087611df387600052600f602052604060002090565b9060018060a01b0316600052602052604060002090565b611e158682546129b7565b90555460ff1690565b60405190946001600160a01b0316938190611e3b90879083612e20565b0390a3611e6f611e5982611c1085600052600c602052604060002090565b5491611c1084600052600b602052604060002090565b541115611e81575b610cf36001600755565b611e8a906133da565b38611e77565b5060068a0154421115611d20565b604051633ee5aeb560e01b8152600490fd5b346104c65760403660031901126104c657602060ff611ef6611ed06104cb565b6004356000526005845260406000209060018060a01b0316600052602052604060002090565b54166040519015158152f35b346104c65760203660031901126104c6576001600160a01b03611f236104b0565b16600052600d602052602060ff604060002054166040519015158152f35b346104c65760603660031901126104c657611f5a6104cb565b6044359060048210156104c657602091611c106105ad92600435600052600f855260406000209060018060a01b0316600052602052604060002090565b346104c65760003660031901126104c657602060405160008152f35b346104c65760403660031901126104c657611fcc6104b0565b60243590811515908183036104c6576001600160a01b038116928315612057576120186120299233600052600160205260406000209060018060a01b0316600052602052604060002090565b9060ff801983541691151516179055565b6040519081527f17307eab39ab6107e8899845ad3d59bd9653f200f220920489ca2b5937696c3160203392a3005b60405162ced3e160e81b815260006004820152602490fd5b346104c65760003660031901126104c65760206040516103e88152f35b346104c65760203660031901126104c65760043560005260036020526020604060002054604051908152f35b346104c65760003660031901126104c6576020600a54604051908152f35b346104c65760203660031901126104c65760206117f2600435612e36565b346104c65760203660031901126104c65760043561211061302e565b80600052600960205260406000206007810160ff8154612134828260081c16612c85565b60101c166121965761218660047fb00cd7db2cf318388d4984a9842ff206b7cf7bc273a58f12701f29755b3ca9419361217b610a76946201000062ff000019825416179055565b0154611c1c85612e36565b6040519081529081906020820190565b60405162461bcd60e51b815260206004820152600e60248201526d105b1c9958591e48199d5b99195960921b6044820152606490fd5b346104c65760003660031901126104c65760206040516175308152f35b346104c65760003660031901126104c6576020600854604051908152f35b346104c65760003660031901126104c6576020604051610fa08152f35b346104c65760003660031901126104c65760206040517f9f2df0fed2c77648de5860a4cc508cd0818c85b8b8a1ab4ceeef8d981c8956a68152f35b346104c65760403660031901126104c657610cf360043561227e6104cb565b90806000526005602052612299600160406000200154613086565b613141565b346104c65760403660031901126104c657600480356122bb6104cb565b60009290835b60ff851660038111611c49578381101561230e5761230891611c2261158e83611c1c611c1561230296611c108a611df38e600052600f602052604060002090565b94612cc7565b936122c1565b602184634e487b7160e01b6000525260246000fd5b346104c65760003660031901126104c65760206040517f65d7a28e3265b37a6474929f336521b332c1681b933f6cb9f3376673440d862a8152f35b346104c65760403660031901126104c657602060ff611ef661237e6104b0565b6123866104cb565b6001600160a01b0391821660009081526001865260408082209290931681526020919091522090565b602081019291610b729190610db4565b346104c65760203660031901126104c6576001600160a01b036123e06104b0565b16600052600e602052602060ff604060002054166124016040518092610db4565bf35b346104c65760a03660031901126104c65761241c6104b0565b6124246104cb565b6084356001600160401b0381116104c657612443903690600401610c06565b906001600160a01b038381169033821415806124e4575b6124bd578216156124a4571561176757610cf39261249c6064356044359160405192600184526020840152604083019160018352606084015260808301604052565b9290916137f6565b604051632bfa23e760e11b815260006004820152602490fd5b60405163711bec9160e11b81523360048201526001600160a01b0386166024820152604490fd5b50600082815260016020908152604080832033845290915290205460ff161561245a565b346104c65760603660031901126104c6576125216104b0565b6001600160a01b038116338114159081612575575b5061254c57610cf39060443590602435906131d3565b60405163711bec9160e11b81523360048201526001600160a01b03919091166024820152604490fd5b6000908152600160209081526040808320338452909152902060ff915054161538612536565b90600182811c921680156125cb575b60208310146125b557565b634e487b7160e01b600052602260045260246000fd5b91607f16916125aa565b906040519182600082546125e88161259b565b908184526020946001916001811690816000146126565750600114612617575b505050610b7292500383610b44565b600090815285812095935091905b81831061263e575050610b729350820101388080612608565b85548884018501529485019487945091830191612625565b92505050610b7294925060ff191682840152151560051b820101388080612608565b98959161012098949b9a97936126a56126b3928c6126d299956020610140928392815201528d0190610759565b908b820360408d0152610759565b9a60608a0152608089015260a088015260c087015260e0860190610db4565b15156101008401521515910152565b346104c65760203660031901126104c657600435600052600960205260406000208054906107ff612714600183016125d5565b612720600284016125d5565b926003810154946004820154916005810154600760068301549201549360405198899860ff8760101c169760ff808960081c169816968b612678565b346104c65760003660031901126104c65760206040516130d48152f35b346104c65760403660031901126104c6576127926104b0565b7f101006801e3b4b14d09186f508bd7a78c4d24598dd6126863425d0350503fb02610a76602435926127c2612ec8565b60018060a01b03169283600052601260205280604060002055601360205242604060002055604051918291428360209093929193604081019481520152565b346104c65760203660031901126104c6577ffab5bcbec79a8b5888e114fd4b378427aa58d9b237d85056f0ee5b3ea57df8c56020600435612840612fd6565b80600855604051908152a1005b9060048110156106f95760ff80198354169116179055565b60048210156106f95752565b91926060938192845260406020850152816040850152848401376000828201840152601f01601f1916010190565b634e487b7160e01b600052603260045260246000fd5b80518210156128c95760209160051b010190565b61289f565b9190918051835180820361296b5750508051906129036128ed83610b74565b926128fb6040519485610b44565b808452610b74565b60209190601f1901368484013760005b815181101561296357600581901b8281018401519087018401516000908152602081815260408083206001600160a01b03909416835292905220546001919061295c82876128b5565b5201612913565b509193505050565b604051635b05999160e01b815260048101919091526024810191909152604490fd5b634e487b7160e01b600052601160045260246000fd5b60001981146129b25760010190565b61298d565b919082018092116129b257565b90601f81116129d257505050565b6000916000526020600020906020601f850160051c83019410612a10575b601f0160051c01915b828110612a0557505050565b8181556001016129f9565b90925082906129f0565b91909182516001600160401b038111610b2457612a4181612a3b845461259b565b846129c4565b602080601f8311600114612a8457508190612a75939495600092612a79575b50508160011b916000199060031b1c19161790565b9055565b015190503880612a60565b90601f19831695612a9a85600052602060002090565b926000905b888210612ad757505083600195969710612abe575b505050811b019055565b015160001960f88460031b161c19169055388080612ab4565b80600185968294968601518155019501930190612a9f565b90612b916101206007610b729484518155612b11602086015160018301612a1a565b612b22604086015160028301612a1a565b606085015160038201556080850151600482015560a0850151600582015560c085015160068201550192612b6360e0820151612b5d816106ef565b8561284d565b612b8a612b74610100830151151590565b855461ff00191690151560081b61ff0016178555565b0151151590565b815462ff0000191690151560101b62ff000016179055565b90610fa0918281029281840414901517156129b257565b90610bb8918281029281840414901517156129b257565b906107d0918281029281840414901517156129b257565b906103e8918281029281840414901517156129b257565b818102929181159184041417156129b257565b612c3060409295949395606083526060830190610759565b9460208201520152565b60048110156106f9578015612c7e57612c52816106ef565b60018114612c775780612c666002926106ef565b14612c7157611d4c90565b61271090565b506130d490565b50613a9890565b15612c8c57565b60405162461bcd60e51b815260206004820152601360248201527250726f7065727479206e6f742061637469766560681b6044820152606490fd5b60ff1660ff81146129b25760010190565b60ff1660048110156106f95790565b15612cee57565b60405162461bcd60e51b8152602060048201526015602482015274109d5e595c881b9bdd081dda1a5d195b1a5cdd1959605a1b6044820152606490fd5b15612d3257565b60405162461bcd60e51b815260206004820152600e60248201526d119d5b991a5b99c818db1bdcd95960921b6044820152606490fd5b15612d6f57565b60405162461bcd60e51b815260206004820152601e60248201527f4e6f7420656c696769626c6520666f722063757272656e7420706861736500006044820152606490fd5b919082039182116129b257565b15612dc857565b60405162461bcd60e51b815260206004820152601860248201527f4578636565647320706861736520616c6c6f636174696f6e00000000000000006044820152606490fd5b60405190612e1a82610b29565b60008252565b908152604081019291610b729160200190610db4565b600052600960205260ff600760406000200154612e57828260081c16612c85565b16612e61816106ef565b80612e7b5750612710612e77815b600854612c05565b0490565b612e84816106ef565b60018103612e9b5750612710612e77613a98612e6f565b80612ea76002926106ef565b03612eba57612710612e776157e4612e6f565b612710612e77617530612e6f565b3360009081527f294bb43e882f8724b7ae88344d047a41612b98ee139a78f923b3689f3cc274b1602052604090207f28f5a99355973cc89255b8c4ac88405f27c78ded7608b040ee77a8bdf44d15e29060ff905b541615611a575750565b3360009081527f847f481f687befb06ed3511f1a8dcef57e83007c0147ae5047583d7056170937602052604090207f3c11d16cbaffd01df69ce1c404f6340ee057498f5f00246190ea54220576a8489060ff90612f1c565b3360009081527f99f2891db7a8db76249871a02b43b68c0bb8f22ef8a3bc1034ae9375ef6b7c3c602052604090207f65d7a28e3265b37a6474929f336521b332c1681b933f6cb9f3376673440d862a9060ff90612f1c565b3360009081527f05b8ccbb9d4d8fb16ea74ce3c29a41f1b461fbdaff4714a0d9a8eb05499746bc602052604090205460ff161561300f57565b60405163e2517d3f60e01b815233600482015260006024820152604490fd5b3360009081527f15a28d26fa1bf736cf7edc9922607171ccb09c3c73b808e7772a3013e068a522602052604090207f9f2df0fed2c77648de5860a4cc508cd0818c85b8b8a1ab4ceeef8d981c8956a69060ff90612f1c565b6000818152600560209081526040808320338452909152902060ff90612f1c565b600090808252600560205260ff6130d384604085209060018060a01b0316600052602052604060002090565b541661313b578082526005602090815260408084206001600160a01b038616600090815292529020805460ff1916600117905533926001600160a01b0316917f2f8788117e7eff1d82e926ec794901d17c78024a50270940304540a733656f0d9080a4600190565b50905090565b600090808252600560205260ff61316d84604085209060018060a01b0316600052602052604060002090565b54161561313b578082526005602090815260408084206001600160a01b038616600090815292529020805460ff1916905533926001600160a01b0316917ff6391f5c32d9c69d2a47ea670b442974b53935d1edc7fd64eb21e047a839171b9080a4600190565b92916001600160a01b0384169190821561176757613213919493949160405192600184526020840152604083019160018352606084015260808301604052565b9290936040926040519561322687610b29565b600080975261323361349f565b6000955b81518710156133b75761324a87836128b5565b519161325688836128b5565b5194895b60ff81166003811115806133ae575b1561339357806132798a926106ef565b8a8d61329783611c1086611df38d600052600f602052604060002090565b5490816132b2575b50505050506132ad90612cc7565b61325a565b7f79fa03c4f76e383f2eb3d51f38e9daa7af8429e8573f8c1bb7d6103e878e356461337161337996956132ad989e958e958e955082888211600014613386576133109150611c10899a5b611df389600052600f602052604060002090565b61331b898254612db4565b90556004613333866000526009602052604060002090565b0161333f898254612db4565b905561335982611c1087600052600c602052604060002090565b613364898254612db4565b9055519182918883612e20565b0390a3612db4565b96905087388a818e61329f565b611c10613310929a6132fc565b5050979092506133a66001929515613b7d565b019592613237565b50871515613269565b94509291955050610b729350613efd565b60ff60019116019060ff82116129b257565b806000526009602052600760406000200160ff81546133fd828260081c16612c85565b169060048210156106f957600382101561346157610a6a61345c91611ca26134566134518661344c7fa92c850bb09d5afa4a6230f4866fad10264c6fea20047156b39e3e24c5763ad4986106ef565b6133c8565b612cd8565b8261284d565b0390a2565b60405162461bcd60e51b8152602060048201526016602482015275416c72656164792061742066696e616c20706861736560501b6044820152606490fd5b60ff600654166134ab57565b60405163d93c066560e01b8152600490fd5b93916001600160a01b038516156124a4576134f560405192600184526020840152604083019160018352606084015260808301604052565b90916134ff61349f565b61350a828487614087565b600094855b84518710156135625761355a60019161352889876128b5565b51906135486135378b8a6128b5565b516000526003602052604060002090565b6135538382546129b7565b90556129b7565b96019561350f565b61357c919594929650613577906004546129b7565b600455565b805160010361359a5790602080610b72959301519101519133613e91565b610b729333613c97565b6135ac61349f565b6001600160a01b03811680151580806137ee575b61375b575b6135d6575b5090610b729291613efd565b600094929394925b845184101561374d576135f184866128b5565b51946135fd85886128b5565b519660005b60ff8116600381111580613744575b156137255761361f816106ef565b61363b81611c1089611df38d600052600f602052604060002090565b5480613652575b505061364d90612cc7565b613602565b61364d929a878b7f79fa03c4f76e383f2eb3d51f38e9daa7af8429e8573f8c1bb7d6103e878e3564613371613710968d9681878211600014613718576136ad9150611c1088995b611df388600052600f602052604060002090565b6136b8888254612db4565b905560046136d0856000526009602052604060002090565b016136dc888254612db4565b90556136f681611c1086600052600c602052604060002090565b613701888254612db4565b90556040519182918883612e20565b989038613642565b611c106136ad9299613699565b505095509195936137396001929515613b7d565b0192949093946135de565b50891515613611565b94939250610b7290506135ca565b93919060005b84518110156137a957806137a361379e60076137936137826001968b6128b5565b516000526009602052604060002090565b015460101c60ff1690565b613ae5565b01613761565b5060008052600d60205291939091906137e96137e47f81955a0a11e65eac625c29e8882660bae4e165a75d72780094acae8ece9a29ee611ca2565b613b31565b6135c5565b5060006135c0565b9193929061380261349f565b6001600160a01b038381168015158080613a5e575b6139fe575b613873575b5061382e83878487613fae565b811661383c575b5050505050565b8451600103613862576020806138589601519201519233613ec6565b3880808080613835565b61386e94919233613d92565b613858565b9196956000959195965b81518810156139f25761389088836128b5565b519261389c89876128b5565b519560005b60ff81168c6003821115806139e9575b156139c957908a918c6138df83611c1086611df38e6138cf856106ef565b600052600f602052604060002090565b54806138f9575b50505050506138f490612cc7565b6138a1565b61398094936138f4969d938d938d93838782116000146139bc576139319150611c108899611df388600052600f602052604060002090565b61393c888254612db4565b9055811661398d57506133717f79fa03c4f76e383f2eb3d51f38e9daa7af8429e8573f8c1bb7d6103e878e35649160046136d0856000526009602052604060002090565b97905088388d8c826138e6565b6139aa9350611df3611c109293600052600f602052604060002090565b6139b58382546129b7565b9055612db4565b611c106139319299613699565b505050956001929394506139e09099919915613b7d565b0196919061387d565b508915156138b1565b97925095509338613821565b9795949392919060005b8851811015613a2f5780613a2961379e60076137936137826001968f6128b5565b01613a08565b5090919293949597613a596137e4611ca28660018060a01b0316600052600d602052604060002090565b61381c565b508284161515613817565b80600052601160205260406000205415600014613adf5760105468010000000000000000811015610b245760018101806010558110156128c95781907f1b6847dc741a1b0cd08d278845f9d819d87b734759afb55fe2de5cb82a9ae6720155601054906000526011602052604060002055600190565b50600090565b15613aec57565b60405162461bcd60e51b815260206004820152601f60248201527f5472616e7366657273206c6f636b656420647572696e672066756e64696e67006044820152606490fd5b15613b3857565b60405162461bcd60e51b815260206004820152601960248201527f526563697069656e74206e6f742077686974656c6973746564000000000000006044820152606490fd5b15613b8457565b60405162461bcd60e51b815260206004820152602360248201527f496e73756666696369656e742070686173652d747261636b656420686f6c64696044820152626e677360e81b6064820152608490fd5b908160209103126104c65751610e62816105b6565b92613c19610e629593613c279360018060a01b031686526000602087015260a0604087015260a0860190611261565b908482036060860152611261565b916080818403910152610759565b9390610e629593613c1991613c279460018060a01b03809216885216602087015260a0604087015260a0860190611261565b3d15613c92573d90613c7882610beb565b91613c866040519384610b44565b82523d6000602084013e565b606090565b9293919093843b613ca9575050505050565b602091613ccc604051948593849363bc197c8160e01b9889865260048601613bea565b038160006001600160a01b0388165af160009181613d61575b50613d245782613cf3613c67565b8051919082613d1d57604051632bfa23e760e11b81526001600160a01b0383166004820152602490fd5b9050602001fd5b6001600160e01b03191603613d3e57503880808080613835565b604051632bfa23e760e11b81526001600160a01b03919091166004820152602490fd5b613d8491925060203d602011613d8b575b613d7c8183610b44565b810190613bd5565b9038613ce5565b503d613d72565b939290949194853b613da7575b505050505050565b613dca602093604051958694859463bc197c8160e01b998a875260048701613c35565b038160006001600160a01b0388165af160009181613e0c575b50613df15782613cf3613c67565b6001600160e01b03191603613d3e5750388080808080613d9f565b613e2691925060203d602011613d8b57613d7c8183610b44565b9038613de3565b909260a092610e629594600180861b0316835260006020840152604083015260608201528160808201520190610759565b9192610e6295949160a094600180871b038092168552166020840152604083015260608201528160808201520190610759565b9293919093843b613ea3575050505050565b602091613ccc604051948593849363f23a6e6160e01b9889865260048601613e2d565b939290949194853b613eda57505050505050565b613dca602093604051958694859463f23a6e6160e01b998a875260048701613e5e565b929192613f0b8483836141a2565b6001600160a01b031615613f64575b6000805b8251821015613f5257600190613f3483876128b5565b5190613f4361353785876128b5565b82815403905501910190613f1e565b915050610b7291925060045403600455565b6000805b8251821015613f9857613f90600191613f8184886128b5565b519061354861353786886128b5565b910190613f68565b613fa99150613577906004546129b7565b613f1a565b90939293613fbe85848385614308565b6001600160a01b0391821615614012575b1615613fda57509050565b6000805b8251821015613f5257600190613ff483876128b5565b519061400361353785876128b5565b82815403905501910190613fde565b92600091825b845184101561404857614040600191614031868a6128b5565b5190613548613537888a6128b5565b930192614018565b61405d919350613577909592956004546129b7565b613fcf565b9091614079610e6293604084526040840190611261565b916020818403910152611261565b919091825182519081810361296b57505060005b835181101561410257600581901b84810160209081015191850101516001929184906001600160a01b0382166140d5575b5050500161409b565b6140f891611df36140f0926000526000602052604060002090565b9182546129b7565b90553883816140cc565b50916001815114600014614163576020908101519181015160408051938452918301526001600160a01b039092169160009133917fc3d58168c5ae7397731d063d5bbf3d657854427343f4c083240f7aacaa2d0f629190819081015b0390a4565b7f4a39dc06d4c0dbc64b70af90fd698a233a518aa5d07e595d983b8c0526c8f7fb61415e6000939460405191829160018060a01b031696339583614062565b929190805182519081810361296b57505060005b815181101561426957600581901b82810160209081015191850101516001600160a01b0387166141eb575b50506001016141b6565b61420387611df3846000526000602052604060002090565b548181106142325787611df3600195949361422a9303936000526000602052604060002090565b5590386141e1565b6040516303dee4c560e01b81526001600160a01b038916600482015260248101919091526044810182905260648101839052608490fd5b50906000929391600181511484146142c9576020908101519181015160408051938452918301526001600160a01b039092169133917fc3d58168c5ae7397731d063d5bbf3d657854427343f4c083240f7aacaa2d0f62918190810161415e565b6040516001600160a01b039093169233927f4a39dc06d4c0dbc64b70af90fd698a233a518aa5d07e595d983b8c0526c8f7fb92829161415e9183614062565b939291805183519081810361296b57505060005b815181101561440a57600581901b82810160209081015191860101516001600160a01b0392918590898516614384575b600194821661435f575b5050500161431c565b61437a91611df36140f0926000526000602052604060002090565b9055388481614356565b91929390506143a189611df3846000526000602052604060002090565b548381106143d357918691846001969594036143cb8c611df3856000526000602052604060002090565b55945061434c565b6040516303dee4c560e01b81526001600160a01b038b16600482015260248101919091526044810184905260648101839052608490fd5b50805193949391929160010361446c576020908101519181015160408051938452918301526001600160a01b03928316939092169133917fc3d58168c5ae7397731d063d5bbf3d657854427343f4c083240f7aacaa2d0f62918190810161415e565b6040516001600160a01b03938416949093169233927f4a39dc06d4c0dbc64b70af90fd698a233a518aa5d07e595d983b8c0526c8f7fb92829161415e918361406256fea264697066735822122050b0015d72a5f1a0fa244c6d94d68356145fe3b1c73dc0e21567d9b6f626f4ea64736f6c634300081800332f8788117e7eff1d82e926ec794901d17c78024a50270940304540a733656f0d",
  "linkReferences": {},
  "deployedLinkReferences": {}
}