{
  "_format": "hh-sol-artifact-1",
  "contractName": "PropertyToken",
  "sourceName": "contracts/PropertyToken.sol",
  "abi": [
    {
      "inputs": [
        {
          "internalType": "string",
          "name": "uri_",
          "type": "string"
        }
      ],
      "stateMutability": "nonpayable",
      "type": "constructor"
    },
    {
      "inputs": [],
      "name": "AccessControlBadConfirmation",
      "type": "error"
    },
    {
      "inputs": [
        {
          "internalType": "address",
          "name": "account",
          "type": "address"
        },
        {
          "internalType": "bytes32",
          "name": "neededRole",
          "type": "bytes32"
        }
      ],
      "name": "AccessControlUnauthorizedAccount",
      "type": "error"
    },
    {
      "inputs": [
        {
          "internalType": "address",
          "name": "sender",
          "type": "address"
        },
        {
          "internalType": "uint256",
          "name": "balance",
          "type": "uint256"
        },
        {
          "internalType": "uint256",
          "name": "needed",
          "type": "uint256"
        },
        {
          "internalType": "uint256",
          "name": "tokenId",
          "type": "uint256"
        }
      ],
      "name": "ERC1155InsufficientBalance",
      "type": "error"
    },
    {
      "inputs": [
        {
          "internalType": "address",
          "name": "approver",
          "type": "address"
        }
      ],
      "name": "ERC1155InvalidApprover",
      "type": "error"
    },
    {
      "inputs": [
        {
          "internalType": "uint256",
          "name": "idsLength",
          "type": "uint256"
        },
        {
          "internalType": "uint256",
          "name": "valuesLength",
          "type": "uint256"
        }
      ],
      "name": "ERC1155InvalidArrayLength",
      "type": "error"
    },
    {
      "inputs": [
        {
          "internalType": "address",
          "name": "operator",
          "type": "address"
        }
      ],
      "name": "ERC1155InvalidOperator",
      "type": "error"
    },
    {
      "inputs": [
        {
          "internalType": "address",
          "name": "receiver",
          "type": "address"
        }
      ],
      "name": "ERC1155InvalidReceiver",
      "type": "error"
    },
    {
      "inputs": [
        {
          "internalType": "address",
          "name": "sender",
          "type": "address"
        }
      ],
      "name": "ERC1155InvalidSender",
      "type": "error"
    },
    {
      "inputs": [
        {
          "internalType": "address",
          "name": "operator",
          "type": "address"
        },
        {
          "internalType": "address",
          "name": "owner",
          "type": "address"
        }
      ],
      "name": "ERC1155MissingApprovalForAll",
      "type": "error"
    },
    {
      "inputs": [],
      "name": "EnforcedPause",
      "type": "error"
    },
    {
      "inputs": [],
      "name": "ExpectedPause",
      "type": "error"
    },
    {
      "inputs": [],
      "name": "ReentrancyGuardReentrantCall",
      "type": "error"
    },
    {
      "anonymous": false,
      "inputs": [
        {
          "indexed": true,
          "internalType": "address",
          "name": "account",
          "type": "address"
        },
        {
          "indexed": false,
          "internalType": "uint256",
          "name": "timestamp",
          "type": "uint256"
        },
        {
          "indexed": false,
          "internalType": "string",
          "name": "reason",
          "type": "string"
        }
      ],
      "name": "AMLCheckFailed",
      "type": "event"
    },
    {
      "anonymous": false,
      "inputs": [
        {
          "indexed": true,
          "internalType": "address",
          "name": "account",
          "type": "address"
        },
        {
          "indexed": false,
          "internalType": "uint256",
          "name": "timestamp",
          "type": "uint256"
        },
        {
          "indexed": false,
          "internalType": "bytes32",
          "name": "checkId",
          "type": "bytes32"
        }
      ],
      "name": "AMLCheckPassed",
      "type": "event"
    },
    {
      "anonymous": false,
      "inputs": [
        {
          "indexed": true,
          "internalType": "address",
          "name": "account",
          "type": "address"
        }
      ],
      "name": "AddressRemovedFromWhitelist",
      "type": "event"
    },
    {
      "anonymous": false,
      "inputs": [
        {
          "indexed": true,
          "internalType": "address",
          "name": "account",
          "type": "address"
        },
        {
          "indexed": false,
          "internalType": "enum PropertyToken.Phase",
          "name": "eligibility",
          "type": "uint8"
        }
      ],
      "name": "AddressWhitelisted",
      "type": "event"
    },
    {
      "anonymous": false,
      "inputs": [
        {
          "indexed": true,
          "internalType": "address",
          "name": "account",
          "type": "address"
        },
        {
          "indexed": true,
          "internalType": "address",
          "name": "operator",
          "type": "address"
        },
        {
          "indexed": false,
          "internalType": "bool",
          "name": "approved",
          "type": "bool"
        }
      ],
      "name": "ApprovalForAll",
      "type": "event"
    },
    {
      "anonymous": false,
      "inputs": [
        {
          "indexed": false,
          "internalType": "uint256",
          "name": "newPrice",
          "type": "uint256"
        }
      ],
      "name": "BasePriceUpdated",
      "type": "event"
    },
    {
      "anonymous": false,
      "inputs": [
        {
          "indexed": true,
          "internalType": "uint256",
          "name": "propertyId",
          "type": "uint256"
        },
        {
          "indexed": false,
          "internalType": "uint256",
          "name": "timestamp",
          "type": "uint256"
        },
        {
          "indexed": false,
          "internalType": "uint256",
          "name": "totalHolders",
          "type": "uint256"
        },
        {
          "indexed": false,
          "internalType": "uint256",
          "name": "totalSupplyMinted",
          "type": "uint256"
        }
      ],
      "name": "ComplianceCheckpoint",
      "type": "event"
    },
    {
      "anonymous": false,
      "inputs": [
        {
          "indexed": true,
          "internalType": "address",
          "name": "account",
          "type": "address"
        },
        {
          "indexed": false,
          "internalType": "uint256",
          "name": "timestamp",
          "type": "uint256"
        },
        {
          "indexed": false,
          "internalType": "bytes32",
          "name": "verificationId",
          "type": "bytes32"
        }
      ],
      "name": "KYCVerificationCompleted",
      "type": "event"
    },
    {
      "anonymous": false,
      "inputs": [
        {
          "indexed": true,
          "internalType": "address",
          "name": "account",
          "type": "address"
        },
        {
          "indexed": false,
          "internalType": "uint256",
          "name": "timestamp",
          "type": "uint256"
        },
        {
          "indexed": false,
          "internalType": "string",
          "name": "reason",
          "type": "string"
        }
      ],
      "name": "KYCVerificationRevoked",
      "type": "event"
    },
    {
      "anonymous": false,
      "inputs": [
        {
          "indexed": true,
          "internalType": "uint256",
          "name": "propertyId",
          "type": "uint256"
        },
        {
          "indexed": false,
          "internalType": "string",
          "name": "llcIdentifier",
          "type": "string"
        },
        {
          "indexed": false,
          "internalType": "address",
          "name": "custodian",
          "type": "address"
        }
      ],
      "name": "LLCBackingUpdated",
      "type": "event"
    },
    {
      "anonymous": false,
      "inputs": [
        {
          "indexed": false,
          "internalType": "address",
          "name": "account",
          "type": "address"
        }
      ],
      "name": "Paused",
      "type": "event"
    },
    {
      "anonymous": false,
      "inputs": [
        {
          "indexed": true,
          "internalType": "uint256",
          "name": "propertyId",
          "type": "uint256"
        },
        {
          "indexed": false,
          "internalType": "enum PropertyToken.Phase",
          "name": "newPhase",
          "type": "uint8"
        }
      ],
      "name": "PhaseAdvanced",
      "type": "event"
    },
    {
      "anonymous": false,
      "inputs": [
        {
          "indexed": true,
          "internalType": "uint256",
          "name": "propertyId",
          "type": "uint256"
        },
        {
          "indexed": false,
          "internalType": "string",
          "name": "name",
          "type": "string"
        },
        {
          "indexed": false,
          "internalType": "uint256",
          "name": "totalSupply",
          "type": "uint256"
        },
        {
          "indexed": false,
          "internalType": "uint256",
          "name": "fundingTarget",
          "type": "uint256"
        },
        {
          "indexed": false,
          "internalType": "string",
          "name": "llcIdentifier",
          "type": "string"
        },
        {
          "indexed": false,
          "internalType": "address",
          "name": "custodian",
          "type": "address"
        }
      ],
      "name": "PropertyCreated",
      "type": "event"
    },
    {
      "anonymous": false,
      "inputs": [
        {
          "indexed": true,
          "internalType": "uint256",
          "name": "propertyId",
          "type": "uint256"
        },
        {
          "indexed": false,
          "internalType": "uint256",
          "name": "totalRaised",
          "type": "uint256"
        }
      ],
      "name": "PropertyFunded",
      "type": "event"
    },
    {
      "anonymous": false,
      "inputs": [
        {
          "indexed": true,
          "internalType": "uint256",
          "name": "propertyId",
          "type": "uint256"
        },
        {
          "indexed": true,
          "internalType": "address",
          "name": "requestor",
          "type": "address"
        },
        {
          "indexed": false,
          "internalType": "uint256",
          "name": "timestamp",
          "type": "uint256"
        }
      ],
      "name": "RegulatorAuditRequested",
      "type": "event"
    },
    {
      "anonymous": false,
      "inputs": [
        {
          "indexed": true,
          "internalType": "bytes32",
          "name": "role",
          "type": "bytes32"
        },
        {
          "indexed": true,
          "internalType": "bytes32",
          "name": "previousAdminRole",
          "type": "bytes32"
        },
        {
          "indexed": true,
          "internalType": "bytes32",
          "name": "newAdminRole",
          "type": "bytes32"
        }
      ],
      "name": "RoleAdminChanged",
      "type": "event"
    },
    {
      "anonymous": false,
      "inputs": [
        {
          "indexed": true,
          "internalType": "bytes32",
          "name": "role",
          "type": "bytes32"
        },
        {
          "indexed": true,
          "internalType": "address",
          "name": "account",
          "type": "address"
        },
        {
          "indexed": true,
          "internalType": "address",
          "name": "sender",
          "type": "address"
        }
      ],
      "name": "RoleGranted",
      "type": "event"
    },
    {
      "anonymous": false,
      "inputs": [
        {
          "indexed": true,
          "internalType": "bytes32",
          "name": "role",
          "type": "bytes32"
        },
        {
          "indexed": true,
          "internalType": "address",
          "name": "account",
          "type": "address"
        },
        {
          "indexed": true,
          "internalType": "address",
          "name": "sender",
          "type": "address"
        }
      ],
      "name": "RoleRevoked",
      "type": "event"
    },
    {
      "anonymous": false,
      "inputs": [
        {
          "indexed": true,
          "internalType": "uint256",
          "name": "propertyId",
          "type": "uint256"
        },
        {
          "indexed": true,
          "internalType": "address",
          "name": "from",
          "type": "address"
        },
        {
          "indexed": false,
          "internalType": "uint256",
          "name": "amount",
          "type": "uint256"
        },
        {
          "indexed": false,
          "internalType": "enum PropertyToken.Phase",
          "name": "phase",
          "type": "uint8"
        }
      ],
      "name": "TokensBurned",
      "type": "event"
    },
    {
      "anonymous": false,
      "inputs": [
        {
          "indexed": true,
          "internalType": "uint256",
          "name": "propertyId",
          "type": "uint256"
        },
        {
          "indexed": true,
          "internalType": "address",
          "name": "buyer",
          "type": "address"
        },
        {
          "indexed": false,
          "internalType": "uint256",
          "name": "amount",
          "type": "uint256"
        },
        {
          "indexed": false,
          "internalType": "enum PropertyToken.Phase",
          "name": "phase",
          "type": "uint8"
        }
      ],
      "name": "TokensMinted",
      "type": "event"
    },
    {
      "anonymous": false,
      "inputs": [
        {
          "indexed": true,
          "internalType": "address",
          "name": "operator",
          "type": "address"
        },
        {
          "indexed": true,
          "internalType": "address",
          "name": "from",
          "type": "address"
        },
        {
          "indexed": true,
          "internalType": "address",
          "name": "to",
          "type": "address"
        },
        {
          "indexed": false,
          "internalType": "uint256[]",
          "name": "ids",
          "type": "uint256[]"
        },
        {
          "indexed": false,
          "internalType": "uint256[]",
          "name": "values",
          "type": "uint256[]"
        }
      ],
      "name": "TransferBatch",
      "type": "event"
    },
    {
      "anonymous": false,
      "inputs": [
        {
          "indexed": true,
          "internalType": "uint256",
          "name": "propertyId",
          "type": "uint256"
        },
        {
          "indexed": true,
          "internalType": "address",
          "name": "from",
          "type": "address"
        },
        {
          "indexed": true,
          "internalType": "address",
          "name": "to",
          "type": "address"
        },
        {
          "indexed": false,
          "internalType": "string",
          "name": "reason",
          "type": "string"
        }
      ],
      "name": "TransferRestricted",
      "type": "event"
    },
    {
      "anonymous": false,
      "inputs": [
        {
          "indexed": true,
          "internalType": "address",
          "name": "operator",
          "type": "address"
        },
        {
          "indexed": true,
          "internalType": "address",
          "name": "from",
          "type": "address"
        },
        {
          "indexed": true,
          "internalType": "address",
          "name": "to",
          "type": "address"
        },
        {
          "indexed": false,
          "internalType": "uint256",
          "name": "id",
          "type": "uint256"
        },
        {
          "indexed": false,
          "internalType": "uint256",
          "name": "value",
          "type": "uint256"
        }
      ],
      "name": "TransferSingle",
      "type": "event"
    },
    {
      "anonymous": false,
      "inputs": [
        {
          "indexed": false,
          "internalType": "string",
          "name": "value",
          "type": "string"
        },
        {
          "indexed": true,
          "internalType": "uint256",
          "name": "id",
          "type": "uint256"
        }
      ],
      "name": "URI",
      "type": "event"
    },
    {
      "anonymous": false,
      "inputs": [
        {
          "indexed": false,
          "internalType": "address",
          "name": "account",
          "type": "address"
        }
      ],
      "name": "Unpaused",
      "type": "event"
    },
    {
      "inputs": [],
      "name": "BURNER_ROLE",
      "outputs": [
        {
          "internalType": "bytes32",
          "name": "",
          "type": "bytes32"
        }
      ],
      "stateMutability": "view",
      "type": "function"
    },
    {
      "inputs": [],
      "name": "COUNTY_ALLOCATION",
      "outputs": [
        {
          "internalType": "uint256",
          "name": "",
          "type": "uint256"
        }
      ],
      "stateMutability": "view",
      "type": "function"
    },
    {
      "inputs": [],
      "name": "COUNTY_MULTIPLIER",
      "outputs": [
        {
          "internalType": "uint256",
          "name": "",
          "type": "uint256"
        }
      ],
      "stateMutability": "view",
      "type": "function"
    },
    {
      "inputs": [],
      "name": "COUNTY_VOTING_MULTIPLIER",
      "outputs": [
        {
          "internalType": "uint256",
          "name": "",
          "type": "uint256"
        }
      ],
      "stateMutability": "view",
      "type": "function"
    },
    {
      "inputs": [],
      "name": "DEFAULT_ADMIN_ROLE",
      "outputs": [
        {
          "internalType": "bytes32",
          "name": "",
          "type": "bytes32"
        }
      ],
      "stateMutability": "view",
      "type": "function"
    },
    {
      "inputs": [],
      "name": "INTERNATIONAL_ALLOCATION",
      "outputs": [
        {
          "internalType": "uint256",
          "name": "",
          "type": "uint256"
        }
      ],
      "stateMutability": "view",
      "type": "function"
    },
    {
      "inputs": [],
      "name": "INTERNATIONAL_MULTIPLIER",
      "outputs": [
        {
          "internalType": "uint256",
          "name": "",
          "type": "uint256"
        }
      ],
      "stateMutability": "view",
      "type": "function"
    },
    {
      "inputs": [],
      "name": "INTERNATIONAL_VOTING_MULTIPLIER",
      "outputs": [
        {
          "internalType": "uint256",
          "name": "",
          "type": "uint256"
        }
      ],
      "stateMutability": "view",
      "type": "function"
    },
    {
      "inputs": [],
      "name": "MINTER_ROLE",
      "outputs": [
        {
          "internalType": "bytes32",
          "name": "",
          "type": "bytes32"
        }
      ],
      "stateMutability": "view",
      "type": "function"
    },
    {
      "inputs": [],
      "name": "NATIONAL_ALLOCATION",
      "outputs": [
        {
          "internalType": "uint256",
          "name": "",
          "type": "uint256"
        }
      ],
      "stateMutability": "view",
      "type": "function"
    },
    {
      "inputs": [],
      "name": "NATIONAL_MULTIPLIER",
      "outputs": [
        {
          "internalType": "uint256",
          "name": "",
          "type": "uint256"
        }
      ],
      "stateMutability": "view",
      "type": "function"
    },
    {
      "inputs": [],
      "name": "NATIONAL_VOTING_MULTIPLIER",
      "outputs": [
        {
          "internalType": "uint256",
          "name": "",
          "type": "uint256"
        }
      ],
      "stateMutability": "view",
      "type": "function"
    },
    {
      "inputs": [],
      "name": "PAUSER_ROLE",
      "outputs": [
        {
          "internalType": "bytes32",
          "name": "",
          "type": "bytes32"
        }
      ],
      "stateMutability": "view",
      "type": "function"
    },
    {
      "inputs": [],
      "name": "PHASE_ADVANCER_ROLE",
      "outputs": [
        {
          "internalType": "bytes32",
          "name": "",
          "type": "bytes32"
        }
      ],
      "stateMutability": "view",
      "type": "function"
    },
    {
      "inputs": [],
      "name": "STATE_ALLOCATION",
      "outputs": [
        {
          "internalType": "uint256",
          "name": "",
          "type": "uint256"
        }
      ],
      "stateMutability": "view",
      "type": "function"
    },
    {
      "inputs": [],
      "name": "STATE_MULTIPLIER",
      "outputs": [
        {
          "internalType": "uint256",
          "name": "",
          "type": "uint256"
        }
      ],
      "stateMutability": "view",
      "type": "function"
    },
    {
      "inputs": [],
      "name": "STATE_VOTING_MULTIPLIER",
      "outputs": [
        {
          "internalType": "uint256",
          "name": "",
          "type": "uint256"
        }
      ],
      "stateMutability": "view",
      "type": "function"
    },
    {
      "inputs": [],
      "name": "WHITELIST_ADMIN_ROLE",
      "outputs": [
        {
          "internalType": "bytes32",
          "name": "",
          "type": "bytes32"
        }
      ],
      "stateMutability": "view",
      "type": "function"
    },
    {
      "inputs": [
        {
          "internalType": "address",
          "name": "account",
          "type": "address"
        },
        {
          "internalType": "enum PropertyToken.Phase",
          "name": "eligibility",
          "type": "uint8"
        }
      ],
      "name": "addToWhitelist",
      "outputs": [],
      "stateMutability": "nonpayable",
      "type": "function"
    },
    {
      "inputs": [
        {
          "internalType": "address",
          "name": "",
          "type": "address"
        }
      ],
      "name": "addressPhaseEligibility",
      "outputs": [
        {
          "internalType": "enum PropertyToken.Phase",
          "name": "",
          "type": "uint8"
        }
      ],
      "stateMutability": "view",
      "type": "function"
    },
    {
      "inputs": [
        {
          "internalType": "uint256",
          "name": "propertyId",
          "type": "uint256"
        }
      ],
      "name": "advancePhase",
      "outputs": [],
      "stateMutability": "nonpayable",
      "type": "function"
    },
    {
      "inputs": [
        {
          "internalType": "address",
          "name": "",
          "type": "address"
        }
      ],
      "name": "amlCheckIds",
      "outputs": [
        {
          "internalType": "bytes32",
          "name": "",
          "type": "bytes32"
        }
      ],
      "stateMutability": "view",
      "type": "function"
    },
    {
      "inputs": [
        {
          "internalType": "address",
          "name": "account",
          "type": "address"
        },
        {
          "internalType": "enum PropertyToken.Phase",
          "name": "eligibility",
          "type": "uint8"
        },
        {
          "internalType": "bytes",
          "name": "verificationData",
          "type": "bytes"
        }
      ],
      "name": "autoWhitelist",
      "outputs": [],
      "stateMutability": "nonpayable",
      "type": "function"
    },
    {
      "inputs": [
        {
          "internalType": "address",
          "name": "account",
          "type": "address"
        },
        {
          "internalType": "uint256",
          "name": "id",
          "type": "uint256"
        }
      ],
      "name": "balanceOf",
      "outputs": [
        {
          "internalType": "uint256",
          "name": "",
          "type": "uint256"
        }
      ],
      "stateMutability": "view",
      "type": "function"
    },
    {
      "inputs": [
        {
          "internalType": "address[]",
          "name": "accounts",
          "type": "address[]"
        },
        {
          "internalType": "uint256[]",
          "name": "ids",
          "type": "uint256[]"
        }
      ],
      "name": "balanceOfBatch",
      "outputs": [
        {
          "internalType": "uint256[]",
          "name": "",
          "type": "uint256[]"
        }
      ],
      "stateMutability": "view",
      "type": "function"
    },
    {
      "inputs": [],
      "name": "basePrice",
      "outputs": [
        {
          "internalType": "uint256",
          "name": "",
          "type": "uint256"
        }
      ],
      "stateMutability": "view",
      "type": "function"
    },
    {
      "inputs": [
        {
          "internalType": "address",
          "name": "account",
          "type": "address"
        },
        {
          "internalType": "uint256",
          "name": "id",
          "type": "uint256"
        },
        {
          "internalType": "uint256",
          "name": "value",
          "type": "uint256"
        }
      ],
      "name": "burn",
      "outputs": [],
      "stateMutability": "nonpayable",
      "type": "function"
    },
    {
      "inputs": [
        {
          "internalType": "address",
          "name": "account",
          "type": "address"
        },
        {
          "internalType": "uint256[]",
          "name": "ids",
          "type": "uint256[]"
        },
        {
          "internalType": "uint256[]",
          "name": "values",
          "type": "uint256[]"
        }
      ],
      "name": "burnBatch",
      "outputs": [],
      "stateMutability": "nonpayable",
      "type": "function"
    },
    {
      "inputs": [
        {
          "internalType": "uint256",
          "name": "propertyId",
          "type": "uint256"
        },
        {
          "internalType": "address",
          "name": "holder",
          "type": "address"
        },
        {
          "internalType": "uint256",
          "name": "amount",
          "type": "uint256"
        }
      ],
      "name": "burnFromOnFailure",
      "outputs": [],
      "stateMutability": "nonpayable",
      "type": "function"
    },
    {
      "inputs": [
        {
          "internalType": "uint256",
          "name": "propertyId",
          "type": "uint256"
        }
      ],
      "name": "createComplianceCheckpoint",
      "outputs": [],
      "stateMutability": "nonpayable",
      "type": "function"
    },
    {
      "inputs": [
        {
          "internalType": "string",
          "name": "name",
          "type": "string"
        },
        {
          "internalType": "string",
          "name": "propertyUri",
          "type": "string"
        },
        {
          "internalType": "uint256",
          "name": "totalSupply",
          "type": "uint256"
        },
        {
          "internalType": "uint256",
          "name": "fundingTarget",
          "type": "uint256"
        },
        {
          "internalType": "uint256",
          "name": "fundingDuration",
          "type": "uint256"
        },
        {
          "internalType": "string",
          "name": "llcId",
          "type": "string"
        },
        {
          "internalType": "address",
          "name": "custodian",
          "type": "address"
        }
      ],
      "name": "createProperty",
      "outputs": [
        {
          "internalType": "uint256",
          "name": "",
          "type": "uint256"
        }
      ],
      "stateMutability": "nonpayable",
      "type": "function"
    },
    {
      "inputs": [
        {
          "internalType": "uint256",
          "name": "id",
          "type": "uint256"
        }
      ],
      "name": "exists",
      "outputs": [
        {
          "internalType": "bool",
          "name": "",
          "type": "bool"
        }
      ],
      "stateMutability": "view",
      "type": "function"
    },
    {
      "inputs": [],
      "name": "getAllPropertyIds",
      "outputs": [
        {
          "internalType": "uint256[]",
          "name": "",
          "type": "uint256[]"
        }
      ],
      "stateMutability": "view",
      "type": "function"
    },
    {
      "inputs": [
        {
          "internalType": "uint256",
          "name": "propertyId",
          "type": "uint256"
        }
      ],
      "name": "getCurrentPrice",
      "outputs": [
        {
          "internalType": "uint256",
          "name": "",
          "type": "uint256"
        }
      ],
      "stateMutability": "view",
      "type": "function"
    },
    {
      "inputs": [
        {
          "internalType": "address",
          "name": "account",
          "type": "address"
        }
      ],
      "name": "getKYCStatus",
      "outputs": [
        {
          "internalType": "bool",
          "name": "isVerified",
          "type": "bool"
        },
        {
          "internalType": "bytes32",
          "name": "verificationId",
          "type": "bytes32"
        },
        {
          "internalType": "uint256",
          "name": "verificationTimestamp",
          "type": "uint256"
        }
      ],
      "stateMutability": "view",
      "type": "function"
    },
    {
      "inputs": [
        {
          "internalType": "uint256",
          "name": "propertyId",
          "type": "uint256"
        }
      ],
      "name": "getProperty",
      "outputs": [
        {
          "components": [
            {
              "internalType": "uint256",
              "name": "id",
              "type": "uint256"
            },
            {
              "internalType": "string",
              "name": "name",
              "type": "string"
            },
            {
              "internalType": "string",
              "name": "uri",
              "type": "string"
            },
            {
              "internalType": "uint256",
              "name": "totalSupply",
              "type": "uint256"
            },
            {
              "internalType": "uint256",
              "name": "mintedSupply",
              "type": "uint256"
            },
            {
              "internalType": "uint256",
              "name": "fundingTarget",
              "type": "uint256"
            },
            {
              "internalType": "uint256",
              "name": "fundingDeadline",
              "type": "uint256"
            },
            {
              "internalType": "enum PropertyToken.Phase",
              "name": "currentPhase",
              "type": "uint8"
            },
            {
              "internalType": "bool",
              "name": "isActive",
              "type": "bool"
            },
            {
              "internalType": "bool",
              "name": "isFunded",
              "type": "bool"
            },
            {
              "internalType": "string",
              "name": "llcIdentifier",
              "type": "string"
            },
            {
              "internalType": "address",
              "name": "custodian",
              "type": "address"
            }
          ],
          "internalType": "struct PropertyToken.Property",
          "name": "",
          "type": "tuple"
        }
      ],
      "stateMutability": "view",
      "type": "function"
    },
    {
      "inputs": [],
      "name": "getPropertyCount",
      "outputs": [
        {
          "internalType": "uint256",
          "name": "",
          "type": "uint256"
        }
      ],
      "stateMutability": "view",
      "type": "function"
    },
    {
      "inputs": [
        {
          "internalType": "bytes32",
          "name": "role",
          "type": "bytes32"
        }
      ],
      "name": "getRoleAdmin",
      "outputs": [
        {
          "internalType": "bytes32",
          "name": "",
          "type": "bytes32"
        }
      ],
      "stateMutability": "view",
      "type": "function"
    },
    {
      "inputs": [
        {
          "internalType": "uint256",
          "name": "propertyId",
          "type": "uint256"
        }
      ],
      "name": "getTotalWeightedVotingPower",
      "outputs": [
        {
          "internalType": "uint256",
          "name": "",
          "type": "uint256"
        }
      ],
      "stateMutability": "view",
      "type": "function"
    },
    {
      "inputs": [
        {
          "internalType": "enum PropertyToken.Phase",
          "name": "phase",
          "type": "uint8"
        }
      ],
      "name": "getVotingMultiplier",
      "outputs": [
        {
          "internalType": "uint256",
          "name": "",
          "type": "uint256"
        }
      ],
      "stateMutability": "pure",
      "type": "function"
    },
    {
      "inputs": [
        {
          "internalType": "uint256",
          "name": "propertyId",
          "type": "uint256"
        },
        {
          "internalType": "address",
          "name": "voter",
          "type": "address"
        }
      ],
      "name": "getVotingPower",
      "outputs": [
        {
          "internalType": "uint256",
          "name": "",
          "type": "uint256"
        }
      ],
      "stateMutability": "view",
      "type": "function"
    },
    {
      "inputs": [
        {
          "internalType": "bytes32",
          "name": "role",
          "type": "bytes32"
        },
        {
          "internalType": "address",
          "name": "account",
          "type": "address"
        }
      ],
      "name": "grantRole",
      "outputs": [],
      "stateMutability": "nonpayable",
      "type": "function"
    },
    {
      "inputs": [
        {
          "internalType": "bytes32",
          "name": "role",
          "type": "bytes32"
        },
        {
          "internalType": "address",
          "name": "account",
          "type": "address"
        }
      ],
      "name": "hasRole",
      "outputs": [
        {
          "internalType": "bool",
          "name": "",
          "type": "bool"
        }
      ],
      "stateMutability": "view",
      "type": "function"
    },
    {
      "inputs": [
        {
          "internalType": "uint256",
          "name": "",
          "type": "uint256"
        },
        {
          "internalType": "address",
          "name": "",
          "type": "address"
        },
        {
          "internalType": "enum PropertyToken.Phase",
          "name": "",
          "type": "uint8"
        }
      ],
      "name": "holdingsByPhase",
      "outputs": [
        {
          "internalType": "uint256",
          "name": "",
          "type": "uint256"
        }
      ],
      "stateMutability": "view",
      "type": "function"
    },
    {
      "inputs": [
        {
          "internalType": "address",
          "name": "account",
          "type": "address"
        },
        {
          "internalType": "address",
          "name": "operator",
          "type": "address"
        }
      ],
      "name": "isApprovedForAll",
      "outputs": [
        {
          "internalType": "bool",
          "name": "",
          "type": "bool"
        }
      ],
      "stateMutability": "view",
      "type": "function"
    },
    {
      "inputs": [
        {
          "internalType": "address",
          "name": "",
          "type": "address"
        }
      ],
      "name": "kycVerificationIds",
      "outputs": [
        {
          "internalType": "bytes32",
          "name": "",
          "type": "bytes32"
        }
      ],
      "stateMutability": "view",
      "type": "function"
    },
    {
      "inputs": [
        {
          "internalType": "address",
          "name": "",
          "type": "address"
        }
      ],
      "name": "kycVerificationTimestamps",
      "outputs": [
        {
          "internalType": "uint256",
          "name": "",
          "type": "uint256"
        }
      ],
      "stateMutability": "view",
      "type": "function"
    },
    {
      "inputs": [
        {
          "internalType": "uint256",
          "name": "propertyId",
          "type": "uint256"
        }
      ],
      "name": "markFunded",
      "outputs": [],
      "stateMutability": "nonpayable",
      "type": "function"
    },
    {
      "inputs": [
        {
          "internalType": "uint256",
          "name": "propertyId",
          "type": "uint256"
        },
        {
          "internalType": "address",
          "name": "buyer",
          "type": "address"
        },
        {
          "internalType": "uint256",
          "name": "amount",
          "type": "uint256"
        }
      ],
      "name": "mintTokens",
      "outputs": [],
      "stateMutability": "nonpayable",
      "type": "function"
    },
    {
      "inputs": [],
      "name": "pause",
      "outputs": [],
      "stateMutability": "nonpayable",
      "type": "function"
    },
    {
      "inputs": [],
      "name": "paused",
      "outputs": [
        {
          "internalType": "bool",
          "name": "",
          "type": "bool"
        }
      ],
      "stateMutability": "view",
      "type": "function"
    },
    {
      "inputs": [
        {
          "internalType": "uint256",
          "name": "",
          "type": "uint256"
        },
        {
          "internalType": "enum PropertyToken.Phase",
          "name": "",
          "type": "uint8"
        }
      ],
      "name": "phaseAllocations",
      "outputs": [
        {
          "internalType": "uint256",
          "name": "",
          "type": "uint256"
        }
      ],
      "stateMutability": "view",
      "type": "function"
    },
    {
      "inputs": [
        {
          "internalType": "uint256",
          "name": "",
          "type": "uint256"
        },
        {
          "internalType": "enum PropertyToken.Phase",
          "name": "",
          "type": "uint8"
        }
      ],
      "name": "phaseMinted",
      "outputs": [
        {
          "internalType": "uint256",
          "name": "",
          "type": "uint256"
        }
      ],
      "stateMutability": "view",
      "type": "function"
    },
    {
      "inputs": [
        {
          "internalType": "uint256",
          "name": "",
          "type": "uint256"
        }
      ],
      "name": "properties",
      "outputs": [
        {
          "internalType": "uint256",
          "name": "id",
          "type": "uint256"
        },
        {
          "internalType": "string",
          "name": "name",
          "type": "string"
        },
        {
          "internalType": "string",
          "name": "uri",
          "type": "string"
        },
        {
          "internalType": "uint256",
          "name": "totalSupply",
          "type": "uint256"
        },
        {
          "internalType": "uint256",
          "name": "mintedSupply",
          "type": "uint256"
        },
        {
          "internalType": "uint256",
          "name": "fundingTarget",
          "type": "uint256"
        },
        {
          "internalType": "uint256",
          "name": "fundingDeadline",
          "type": "uint256"
        },
        {
          "internalType": "enum PropertyToken.Phase",
          "name": "currentPhase",
          "type": "uint8"
        },
        {
          "internalType": "bool",
          "name": "isActive",
          "type": "bool"
        },
        {
          "internalType": "bool",
          "name": "isFunded",
          "type": "bool"
        },
        {
          "internalType": "string",
          "name": "llcIdentifier",
          "type": "string"
        },
        {
          "internalType": "address",
          "name": "custodian",
          "type": "address"
        }
      ],
      "stateMutability": "view",
      "type": "function"
    },
    {
      "inputs": [],
      "name": "propertyCount",
      "outputs": [
        {
          "internalType": "uint256",
          "name": "",
          "type": "uint256"
        }
      ],
      "stateMutability": "view",
      "type": "function"
    },
    {
      "inputs": [
        {
          "internalType": "uint256",
          "name": "propertyId",
          "type": "uint256"
        }
      ],
      "name": "propertyExists",
      "outputs": [
        {
          "internalType": "bool",
          "name": "",
          "type": "bool"
        }
      ],
      "stateMutability": "view",
      "type": "function"
    },
    {
      "inputs": [
        {
          "internalType": "address",
          "name": "account",
          "type": "address"
        },
        {
          "internalType": "bytes32",
          "name": "checkId",
          "type": "bytes32"
        }
      ],
      "name": "recordAMLCheck",
      "outputs": [],
      "stateMutability": "nonpayable",
      "type": "function"
    },
    {
      "inputs": [
        {
          "internalType": "address",
          "name": "account",
          "type": "address"
        },
        {
          "internalType": "string",
          "name": "reason",
          "type": "string"
        }
      ],
      "name": "recordAMLFailure",
      "outputs": [],
      "stateMutability": "nonpayable",
      "type": "function"
    },
    {
      "inputs": [
        {
          "internalType": "address",
          "name": "account",
          "type": "address"
        },
        {
          "internalType": "bytes32",
          "name": "verificationId",
          "type": "bytes32"
        }
      ],
      "name": "recordKYCVerification",
      "outputs": [],
      "stateMutability": "nonpayable",
      "type": "function"
    },
    {
      "inputs": [
        {
          "internalType": "address",
          "name": "account",
          "type": "address"
        }
      ],
      "name": "removeFromWhitelist",
      "outputs": [],
      "stateMutability": "nonpayable",
      "type": "function"
    },
    {
      "inputs": [
        {
          "internalType": "bytes32",
          "name": "role",
          "type": "bytes32"
        },
        {
          "internalType": "address",
          "name": "callerConfirmation",
          "type": "address"
        }
      ],
      "name": "renounceRole",
      "outputs": [],
      "stateMutability": "nonpayable",
      "type": "function"
    },
    {
      "inputs": [
        {
          "internalType": "uint256",
          "name": "propertyId",
          "type": "uint256"
        }
      ],
      "name": "requestRegulatorAudit",
      "outputs": [],
      "stateMutability": "nonpayable",
      "type": "function"
    },
    {
      "inputs": [
        {
          "internalType": "address",
          "name": "account",
          "type": "address"
        },
        {
          "internalType": "string",
          "name": "reason",
          "type": "string"
        }
      ],
      "name": "revokeKYCVerification",
      "outputs": [],
      "stateMutability": "nonpayable",
      "type": "function"
    },
    {
      "inputs": [
        {
          "internalType": "bytes32",
          "name": "role",
          "type": "bytes32"
        },
        {
          "internalType": "address",
          "name": "account",
          "type": "address"
        }
      ],
      "name": "revokeRole",
      "outputs": [],
      "stateMutability": "nonpayable",
      "type": "function"
    },
    {
      "inputs": [
        {
          "internalType": "address",
          "name": "from",
          "type": "address"
        },
        {
          "internalType": "address",
          "name": "to",
          "type": "address"
        },
        {
          "internalType": "uint256[]",
          "name": "ids",
          "type": "uint256[]"
        },
        {
          "internalType": "uint256[]",
          "name": "values",
          "type": "uint256[]"
        },
        {
          "internalType": "bytes",
          "name": "data",
          "type": "bytes"
        }
      ],
      "name": "safeBatchTransferFrom",
      "outputs": [],
      "stateMutability": "nonpayable",
      "type": "function"
    },
    {
      "inputs": [
        {
          "internalType": "address",
          "name": "from",
          "type": "address"
        },
        {
          "internalType": "address",
          "name": "to",
          "type": "address"
        },
        {
          "internalType": "uint256",
          "name": "id",
          "type": "uint256"
        },
        {
          "internalType": "uint256",
          "name": "value",
          "type": "uint256"
        },
        {
          "internalType": "bytes",
          "name": "data",
          "type": "bytes"
        }
      ],
      "name": "safeTransferFrom",
      "outputs": [],
      "stateMutability": "nonpayable",
      "type": "function"
    },
    {
      "inputs": [
        {
          "internalType": "address",
          "name": "operator",
          "type": "address"
        },
        {
          "internalType": "bool",
          "name": "approved",
          "type": "bool"
        }
      ],
      "name": "setApprovalForAll",
      "outputs": [],
      "stateMutability": "nonpayable",
      "type": "function"
    },
    {
      "inputs": [
        {
          "internalType": "bytes4",
          "name": "interfaceId",
          "type": "bytes4"
        }
      ],
      "name": "supportsInterface",
      "outputs": [
        {
          "internalType": "bool",
          "name": "",
          "type": "bool"
        }
      ],
      "stateMutability": "view",
      "type": "function"
    },
    {
      "inputs": [],
      "name": "totalSupply",
      "outputs": [
        {
          "internalType": "uint256",
          "name": "",
          "type": "uint256"
        }
      ],
      "stateMutability": "view",
      "type": "function"
    },
    {
      "inputs": [
        {
          "internalType": "uint256",
          "name": "id",
          "type": "uint256"
        }
      ],
      "name": "totalSupply",
      "outputs": [
        {
          "internalType": "uint256",
          "name": "",
          "type": "uint256"
        }
      ],
      "stateMutability": "view",
      "type": "function"
    },
    {
      "inputs": [],
      "name": "unpause",
      "outputs": [],
      "stateMutability": "nonpayable",
      "type": "function"
    },
    {
      "inputs": [
        {
          "internalType": "uint256",
          "name": "newPrice",
          "type": "uint256"
        }
      ],
      "name": "updateBasePrice",
      "outputs": [],
      "stateMutability": "nonpayable",
      "type": "function"
    },
    {
      "inputs": [
        {
          "internalType": "uint256",
          "name": "propertyId",
          "type": "uint256"
        },
        {
          "internalType": "string",
          "name": "llcId",
          "type": "string"
        },
        {
          "internalType": "address",
          "name": "custodian",
          "type": "address"
        }
      ],
      "name": "updateLLCBacking",
      "outputs": [],
      "stateMutability": "nonpayable",
      "type": "function"
    },
    {
      "inputs": [
        {
          "internalType": "uint256",
          "name": "",
          "type": "uint256"
        }
      ],
      "name": "uri",
      "outputs": [
        {
          "internalType": "string",
          "name": "",
          "type": "string"
        }
      ],
      "stateMutability": "view",
      "type": "function"
    },
    {
      "inputs": [
        {
          "internalType": "address",
          "name": "",
          "type": "address"
        }
      ],
      "name": "whitelist",
      "outputs": [
        {
          "internalType": "bool",
          "name": "",
          "type": "bool"
        }
      ],
      "stateMutability": "view",
      "type": "function"
    }
  ],
  "bytecode": "0x60806040523462000275576200500e803803806200001d816200027a565b9283398101906020908181840312620002755780516001600160401b039182821162000275570191601f90848285011215620002755783518381116200024a57601f199462000072828501871684016200027a565b968288528383830101116200027557829060005b838110620002605750506000918701015284519283116200024a57600254936001948581811c911680156200023f575b838210146200022957838111620001dd575b50819284116001146200017457505081929360009262000168575b5050600019600383901b1c191690821b176002555b60ff1960065416600655600755662c68af0bb140006008556200011b33620002a0565b50620001273362000321565b506200013333620003c4565b506200013f3362000462565b506200014b3362000500565b5062000157336200059e565b506040516149b190816200063d8239f35b015190503880620000e3565b839291921694600260005282600020926000905b878210620001c557505083859610620001ab575b505050811b01600255620000f8565b015160001960f88460031b161c191690553880806200019c565b80878596829496860151815501950193019062000188565b6002600052826000208480870160051c8201928588106200021f575b0160051c019086905b82811062000212575050620000c8565b6000815501869062000202565b92508192620001f9565b634e487b7160e01b600052602260045260246000fd5b90607f1690620000b6565b634e487b7160e01b600052604160045260246000fd5b81810183015189820184015284920162000086565b600080fd5b6040519190601f01601f191682016001600160401b038111838210176200024a57604052565b6001600160a01b031660008181527f05b8ccbb9d4d8fb16ea74ce3c29a41f1b461fbdaff4714a0d9a8eb05499746bc602052604081205490919060ff166200031d5781805260056020526040822081835260205260408220600160ff19825416179055339160008051602062004fee8339815191528180a4600190565b5090565b6001600160a01b031660008181527f15a28d26fa1bf736cf7edc9922607171ccb09c3c73b808e7772a3013e068a52260205260408120549091907f9f2df0fed2c77648de5860a4cc508cd0818c85b8b8a1ab4ceeef8d981c8956a69060ff16620003bf5780835260056020526040832082845260205260408320600160ff1982541617905560008051602062004fee833981519152339380a4600190565b505090565b6001600160a01b031660008181527f99f2891db7a8db76249871a02b43b68c0bb8f22ef8a3bc1034ae9375ef6b7c3c60205260408120549091907f65d7a28e3265b37a6474929f336521b332c1681b933f6cb9f3376673440d862a9060ff16620003bf5780835260056020526040832082845260205260408320600160ff1982541617905560008051602062004fee833981519152339380a4600190565b6001600160a01b031660008181527f294bb43e882f8724b7ae88344d047a41612b98ee139a78f923b3689f3cc274b160205260408120549091907f28f5a99355973cc89255b8c4ac88405f27c78ded7608b040ee77a8bdf44d15e29060ff16620003bf5780835260056020526040832082845260205260408320600160ff1982541617905560008051602062004fee833981519152339380a4600190565b6001600160a01b031660008181527fc54cc0cad80e711aff5b4fca3e13682b9a8fcd7ff4679fbc81d0391d16e477bd60205260408120549091907f62045f2f519251643cf4b5f0750d99bbda23ce869802ad9f6d52577cd08a645a9060ff16620003bf5780835260056020526040832082845260205260408320600160ff1982541617905560008051602062004fee833981519152339380a4600190565b6001600160a01b031660008181527f847f481f687befb06ed3511f1a8dcef57e83007c0147ae5047583d705617093760205260408120549091907f3c11d16cbaffd01df69ce1c404f6340ee057498f5f00246190ea54220576a8489060ff16620003bf5780835260056020526040832082845260205260408320600160ff1982541617905560008051602062004fee833981519152339380a460019056fe6080604052600436101561001257600080fd5b60003560e01c80620c8df0146104bb578062fdd58e146104b657806301ffc9a7146104b15780630263b858146104ac57806304fa6173146104a75780630e89341c146104a25780630fbe640f1461049d57806311dd6cdc1461043e57806318160ddd1461049857806319e7645414610493578063230672481461048e578063248a9ca3146104895780632632067a14610484578063282c51f31461047f5780632eb2c2d61461047a5780632f2ff15d1461047557806332665ffb1461047057806335894afd1461046b57806336568abe146104665780633bb0b5b6146104615780633f4ba83a1461045c57806343cb5413146104575780634a164732146104525780634e1273f41461044d5780634f558e79146104485780634ff69e8314610443578063500e9f731461043e57806354202c4e146104395780635561c5b3146104345780635bbe9f5e146103995780635c975abb1461042f5780635fc68c461461042a57806365c4c7e2146104255780636b20c454146104205780636ce2f91d1461041b5780636e1ffa9b146104165780636ea99677146104115780637326b9011461040c578063742c4f4c1461040757806375cfcb3d146104025780637b667e6f146103fd5780637ca8c6f1146103f857806381aaf4ce146103f35780638456cb59146103ee578063847ede74146103e95780638ab1d681146103e45780638cdc1e87146103df5780638d6819be146103da57806391d14854146103d55780639b19251a146103d05780639ca02763146103cb578063a217fddf146103c6578063a22cb465146103c1578063a7907f74146103bc578063bd85b039146103b7578063c361a335146103b2578063c55d0f56146103ad578063c5666eb2146103a8578063c611643c146103a3578063c65b68201461039e578063c7527d0814610399578063c7876ea414610394578063ceadd5b91461038f578063d53913931461038a578063d547741f14610385578063dbdad43214610380578063e63ab1e91461037b578063e985e9c514610376578063edff496914610371578063f242432a1461036c578063f5298aca14610367578063f7b1080814610362578063f8147a8a1461035d578063f918ce1b146103585763fd5baa881461035357600080fd5b612810565b612788565b61276b565b6126cd565b6124cf565b6123ca565b612386565b612325565b6122ea565b612265565b612226565b6121eb565b6121ce565b6121b0565b611468565b612193565b61210f565b612037565b612019565b611ffb565b611fcf565b611fb2565b611ef6565b611eda565b611e84565b611e45565b611df3565b611b86565b611ae3565b611a7b565b6119f9565b61199f565b61190c565b6118ef565b6118a4565b61186a565b6117f0565b6117d2565b6117a0565b611724565b6116f4565b611609565b6114c5565b6114a8565b611485565b61144b565b611410565b6108f6565b611381565b611353565b611299565b611226565b61118c565b6110df565b61100f565b610f9e565b610f63565b610ed5565b610db1565b610c89565b610af3565b6109e4565b610988565b61096b565b610931565b610913565b6108bc565b6107d5565b610763565b61069b565b610604565b6105a5565b610531565b600435906001600160a01b03821682036104d657565b600080fd5b602435906001600160a01b03821682036104d657565b604435906001600160a01b03821682036104d657565b60c435906001600160a01b03821682036104d657565b35906001600160a01b03821682036104d657565b346104d6576020806003193601126104d6576060906001600160a01b036105566104c0565b16600052600d815260409060ff8260002054169182610592575b6012825280600020546013835281600020549282519415158552840152820152f35b9150601281528160002054151591610570565b346104d65760403660031901126104d65760206105e96105c36104c0565b6024356000526000835260406000209060018060a01b0316600052602052604060002090565b54604051908152f35b6001600160e01b03198116036104d657565b346104d65760203660031901126104d6576020600435610623816105f2565b63ffffffff60e01b16637965db0b60e01b8114908115610649575b506040519015158152f35b636cdb3d1360e11b81149150811561067b575b811561066a575b503861063e565b6301ffc9a760e01b14905038610663565b6303a24d0760e21b8114915061065c565b6024359060048210156104d657565b346104d65760403660031901126104d6576106b46104c0565b7f473a74f22f6ac6868d6c168fc84aef7f2172066bab41229b471d1c6b85434c8260206106df61068c565b926106e861339a565b60018060a01b03169283600052600d82526040600020600160ff19825416179055600e825261071b81604060002061285c565b6107286040518092610df0565ba2005b6004111561073557565b634e487b7160e01b600052602160045260246000fd5b90600481101561073557600052602052604060002090565b346104d65760403660031901126104d65760206105e961078161068c565b600435600052600c8352604060002061074b565b919082519283825260005b8481106107c1575050826000602080949584010152601f8019910116010190565b6020818301810151848301820152016107a0565b346104d6576020806003193601126104d65760405190600082600254916107fb83612562565b928383526001908560018216918260001461089c57505060011461083f575b5061082792500383610b80565b61083b604051928284938452830190610795565b0390f35b84915060026000527f405787fa12a823e0f2b7631cc41b3ba8828b3321ca811111fa75cd3aa3bb5ace906000915b85831061088457505061082793508201013861081a565b8054838901850152879450869390920191810161086d565b60ff19168582015261082795151560051b850101925038915061081a9050565b346104d65760203660031901126104d6576001600160a01b036108dd6104c0565b1660005260136020526020604060002054604051908152f35b346104d65760003660031901126104d65760206040516127108152f35b346104d65760003660031901126104d6576020600454604051908152f35b346104d65760203660031901126104d6576001600160a01b036109526104c0565b1660005260146020526020604060002054604051908152f35b346104d65760003660031901126104d6576020604051611d4c8152f35b346104d65760203660031901126104d65760043560005260056020526020600160406000200154604051908152f35b9181601f840112156104d6578235916001600160401b0383116104d657602083818601950101116104d657565b346104d65760603660031901126104d6576109fd6104c0565b610a0561068c565b6044356001600160401b0381116104d657610a249036906004016109b7565b9050610a2e61339a565b15610ab757610ab281610aa67f473a74f22f6ac6868d6c168fc84aef7f2172066bab41229b471d1c6b85434c8293610aa160018060a01b0387169687600052600d602052610a876040600020600160ff19825416179055565b6001600160a01b03166000908152600e6020526040902090565b61285c565b60405191829182612376565b0390a2005b60405162461bcd60e51b81526020600482015260146024820152734e6f20766572696669636174696f6e206461746160601b6044820152606490fd5b346104d65760003660031901126104d65760206040517f3c11d16cbaffd01df69ce1c404f6340ee057498f5f00246190ea54220576a8488152f35b634e487b7160e01b600052604160045260246000fd5b61018081019081106001600160401b03821117610b6057604052565b610b2e565b602081019081106001600160401b03821117610b6057604052565b90601f801991011681019081106001600160401b03821117610b6057604052565b60405190610bae82610b44565b565b6001600160401b038111610b605760051b60200190565b9080601f830112156104d6576020908235610be181610bb0565b93610bef6040519586610b80565b81855260208086019260051b8201019283116104d657602001905b828210610c18575050505090565b81358152908301908301610c0a565b6001600160401b038111610b6057601f01601f191660200190565b81601f820112156104d657803590610c5982610c27565b92610c676040519485610b80565b828452602083830101116104d657816000926020809301838601378301015290565b346104d65760a03660031901126104d657610ca26104c0565b610caa6104db565b90604435916001600160401b03908184116104d657610cce60049436908601610bc7565b906064358381116104d657610ce69036908701610bc7565b926084359081116104d657610cfe9036908701610c42565b936001600160a01b03808216903382141580610d8d575b610d6057831615610d485715610d3157610d2f9550613cc2565b005b604051626a0d4560e21b8152600081880152602490fd5b604051632bfa23e760e11b8152600081890152602490fd5b6040805163711bec9160e11b815233818b019081526001600160a01b038616602082015290918291010390fd5b50600082815260016020908152604080832033845290915290205460ff1615610d15565b346104d65760403660031901126104d657610d2f600435610dd06104db565b90806000526005602052610deb600160406000200154613558565b613579565b9060048210156107355752565b610ed29060208152825160208201526020830151610e29610180918260408501526101a0840190610795565b610ec1610e48604087015192601f199384878303016060880152610795565b60608701516080860152608087015160a086015260a087015160c086015260c087015160e086015260e0870151610e856101009182880190610df0565b870151610e99610120918288019015159052565b870151610ead610140918288019015159052565b870151610160938683030184870152610795565b9401516001600160a01b0316910152565b90565b346104d65760203660031901126104d65761083b610f5760406101608151610efc81610b44565b6000918183809352606060208201526060858201528260608201528260808201528260a08201528260c08201528260e08201528261010082015282610120820152606061014082015201526004358152600960205220612880565b60405191829182610dfd565b346104d65760003660031901126104d65760206040517f62045f2f519251643cf4b5f0750d99bbda23ce869802ad9f6d52577cd08a645a8152f35b346104d65760403660031901126104d657610fb76104db565b336001600160a01b03821603610fd357610d2f90600435613613565b60405163334bd91960e11b8152600490fd5b60609060031901126104d657600435906024356001600160a01b03811681036104d6579060443590565b346104d65761101d36610fe5565b90916110276133f8565b811561109a576000818152602081815260408083206001600160a01b038716845290915290208290541061105e57610d2f926136a5565b60405162461bcd60e51b8152602060048201526014602482015273496e73756666696369656e742062616c616e636560601b6044820152606490fd5b60405162461bcd60e51b815260206004820152601760248201527f416d6f756e74206d75737420626520706f7369746976650000000000000000006044820152606490fd5b346104d65760003660031901126104d6576110f8613450565b60065460ff8116156111375760ff19166006557f5db9ee0a495bf2e6ff9c91a7834c1ba4fdd244a5e8aa4e537bd38aeae4b073aa6020604051338152a1005b604051638dfc202b60e01b8152600490fd5b9060406003198301126104d6576004356001600160a01b03811681036104d65791602435906001600160401b0382116104d657611188916004016109b7565b9091565b346104d6577fed82f44f688727207518136f7e93ae71dc311562b9f1841866814c6dbe3fc4876111bb36611149565b9092916111c661339a565b6001600160a01b03166000818152600d6020526040808220805460ff1916905551909491938493909282916111fc914284612968565b0390a27f535611fb62fa2a833988f283b779e417e996813e44046f521d76c17b5943b08c8280a280f35b346104d65760203660031901126104d657600435600052601160205260206040600020541515604051908152f35b90815180825260208080930193019160005b828110611274575050505090565b835185529381019392810192600101611266565b906020610ed2928181520190611254565b346104d65760403660031901126104d6576004356001600160401b038082116104d657366023830112156104d65781600401356112d581610bb0565b926112e36040519485610b80565b8184526020916024602086019160051b830101913683116104d657602401905b82821061133c57856024358681116104d65761083b9161132a611330923690600401610bc7565b906129ae565b60405191829182611288565b8380916113488461051d565b815201910190611303565b346104d65760203660031901126104d657600435600052600360205260206040600020541515604051908152f35b346104d65760003660031901126104d657604051806010549182815260208091019260106000527f1b6847dc741a1b0cd08d278845f9d819d87b734759afb55fe2de5cb82a9ae672916000905b8282106113f95761083b856113e581890382610b80565b604051918291602083526020830190611254565b8354865294850194600193840193909101906113ce565b346104d65760003660031901126104d65760206040517f28f5a99355973cc89255b8c4ac88405f27c78ded7608b040ee77a8bdf44d15e28152f35b346104d65760003660031901126104d65760206040516107d08152f35b346104d65760003660031901126104d6576020604051613a988152f35b346104d65760003660031901126104d657602060ff600654166040519015158152f35b346104d65760003660031901126104d6576020604051610bb88152f35b346104d65760603660031901126104d6576004356024356001600160401b0381116104d6576114f89036906004016109b7565b6115006104f1565b916115096134a8565b83600052600960205261152960ff60076040600020015460081c16612a6d565b6001600160a01b038316156115cf57610ab27f421276d75471dec1af882730784ceb99cd90745bcb3355fffe059aae8cfcefdc93611568841515612aaf565b611589848460086115838a6000526009602052604060002090565b01612b51565b6115c38160096115a3896000526009602052604060002090565b0180546001600160a01b0319166001600160a01b03909216919091179055565b60405193849384612c1f565b60405162461bcd60e51b815260206004820152601260248201527110dd5cdd1bd91a585b881c995c5d5a5c995960721b6044820152606490fd5b346104d65760603660031901126104d6576116226104c0565b6001600160401b036024358181116104d657611642903690600401610bc7565b906044359081116104d65761165b903690600401610bc7565b906001600160a01b03831633811415806116d0575b6116a9571561169157610d2f92600060405161168b81610b65565b52613a70565b604051626a0d4560e21b815260006004820152602490fd5b60405163711bec9160e11b81523360048201526001600160a01b0385166024820152604490fd5b50600081815260016020908152604080832033845290915290205460ff1615611670565b346104d65760203660031901126104d65760043560048110156104d65761171c602091612c38565b604051908152f35b346104d65760403660031901126104d65761173d6104c0565b7f73d81b71910f8bd08cf791875865c73764d8d891af9db3d5529a9c6574ef6dd1610ab26024359261176d61339a565b60018060a01b03169283600052601460205280604060002055604051918291428360209093929193604081019481520152565b346104d65760403660031901126104d65760206105e96117be61068c565b600435600052600b8352604060002061074b565b346104d65760003660031901126104d6576020601054604051908152f35b346104d65760203660031901126104d65760043561180c6134a8565b8060005260096020527f97997c603fecb6522ee76ac10b6a193d5ce1db7b82c8271b2a27a63f022e53b560606004604060002061185260ff600783015460081c16612a6d565b015460405190428252600060208301526040820152a2005b346104d65760203660031901126104d6576001600160a01b0361188b6104c0565b1660005260126020526020604060002054604051908152f35b346104d65760203660031901126104d6576118bd6134a8565b60405142815233907fe6b09768ac52cdf77f7335552a3533efca4c4c467299850e0e7af38a1d8b52b1602060043592a3005b346104d65760003660031901126104d65760206040516157e48152f35b346104d65760203660031901126104d6573360009081527fc54cc0cad80e711aff5b4fca3e13682b9a8fcd7ff4679fbc81d0391d16e477bd60205260409020547f62045f2f519251643cf4b5f0750d99bbda23ce869802ad9f6d52577cd08a645a9060ff161561198157610d2f6004356138ac565b6044906040519063e2517d3f60e01b82523360048301526024820152fd5b346104d65760003660031901126104d6576119b8613450565b6119c061396b565b600160ff1960065416176006557f62e78cea01bee320cd4e420270b5ea74000d11b0c9f74754ebdbfc544b05a2586020604051338152a1005b346104d6577f71ff24386d252605e27e246db81bba937113d7887d04711cefa5fe7295437566611a2836611149565b909291611a3361339a565b60018060a01b031691829160009483865260126020528560408120556013602052856040812055600d6020526040862060ff1981541690556111fc6040519283924284612968565b346104d65760203660031901126104d657611a946104c0565b611a9c61339a565b6001600160a01b03166000818152600d60205260408120805460ff19169055907f535611fb62fa2a833988f283b779e417e996813e44046f521d76c17b5943b08c8280a280f35b346104d65760203660031901126104d65760006004803590825b60ff841660038111611b7b5782811015611b6657611b6091611b54611b4c83611b46611b3f611b5a96611b3a8b600052600c602052604060002090565b61074b565b5491612c38565b90612d1a565b612710900490565b90612d2d565b93612c99565b92611afd565b602183634e487b7160e01b6000525260246000fd5b604051828152602090f35b346104d657611b9436610fe5565b611b9c613500565b600260075414611de1576002600755611bb361396b565b6001600160a01b0382166000908152600d60205260409020611be090611bdb905b5460ff1690565b612d3a565b827f689e2353c59bcd8c1c4352ddd0f21299329ad92442d331648747e4e865acde74611c5f611d6b611c1c846000526009602052604060002090565b60046007820191611cd5611ccd60ff611c958c82611c76611bd48a5493611c47848660081c16612a6d565b60098a01546001600160a01b039e908f161515612d7e565b838560101c16158015611dd3575b610a8790612dbb565b91611c808361072b565b16928391611c8d8361072b565b161015612df8565b611cc6611cb082611b3a8d600052600b602052604060002090565b5491611b3a8c600052600c602052604060002090565b5490612e44565b891115612e51565b611ce8611ce0612e9d565b89898c613989565b01611cf4878254612d2d565b9055611d18611d0d86600052600c602052604060002090565b825460ff169061074b565b611d23878254612d2d565b9055611d57611d0d88611d4088600052600f602052604060002090565b9060018060a01b0316600052602052604060002090565b611d62878254612d2d565b90555460ff1690565b94611d7e86604051938493169683612eb0565b0390a3611db2611d9c82611b3a85600052600c602052604060002090565b5491611b3a84600052600b602052604060002090565b541115611dc4575b610d2f6001600755565b611dcd906138ac565b38611dba565b5060068a0154421115611c6d565b604051633ee5aeb560e01b8152600490fd5b346104d65760403660031901126104d657602060ff611e39611e136104db565b6004356000526005845260406000209060018060a01b0316600052602052604060002090565b54166040519015158152f35b346104d65760203660031901126104d6576001600160a01b03611e666104c0565b16600052600d602052602060ff604060002054166040519015158152f35b346104d65760603660031901126104d657611e9d6104db565b6044359060048210156104d657602091611b3a6105e992600435600052600f855260406000209060018060a01b0316600052602052604060002090565b346104d65760003660031901126104d657602060405160008152f35b346104d65760403660031901126104d657611f0f6104c0565b60243590811515908183036104d6576001600160a01b038116928315611f9a57611f5b611f6c9233600052600160205260406000209060018060a01b0316600052602052604060002090565b9060ff801983541691151516179055565b6040519081527f17307eab39ab6107e8899845ad3d59bd9653f200f220920489ca2b5937696c3160203392a3005b60405162ced3e160e81b815260006004820152602490fd5b346104d65760003660031901126104d65760206040516103e88152f35b346104d65760203660031901126104d65760043560005260036020526020604060002054604051908152f35b346104d65760003660031901126104d6576020600a54604051908152f35b346104d65760203660031901126104d657602061171c600435612ec6565b346104d65760203660031901126104d657600435612053613500565b80600052600960205260406000206007810160ff8154612077828260081c16612a6d565b60101c166120d9576120c960047fb00cd7db2cf318388d4984a9842ff206b7cf7bc273a58f12701f29755b3ca941936120be610ab2946201000062ff000019825416179055565b0154611b4685612ec6565b6040519081529081906020820190565b60405162461bcd60e51b815260206004820152600e60248201526d105b1c9958591e48199d5b99195960921b6044820152606490fd5b346104d65760e03660031901126104d6576001600160401b036004358181116104d657612140903690600401610c42565b906024358181116104d657612159903690600401610c42565b60a4359182116104d65761083b926121786120c9933690600401610c42565b90612181610507565b92608435916064359160443591612f58565b346104d65760003660031901126104d65760206040516175308152f35b346104d65760003660031901126104d6576020600854604051908152f35b346104d65760003660031901126104d6576020604051610fa08152f35b346104d65760003660031901126104d65760206040517f9f2df0fed2c77648de5860a4cc508cd0818c85b8b8a1ab4ceeef8d981c8956a68152f35b346104d65760403660031901126104d657610d2f6004356122456104db565b90806000526005602052612260600160406000200154613558565b613613565b346104d65760403660031901126104d657600480356122826104db565b60009290835b60ff851660038111611b7b57838110156122d5576122cf91611b54611b4c83611b46611b3f6122c996611b3a8a611d408e600052600f602052604060002090565b94612c99565b93612288565b602184634e487b7160e01b6000525260246000fd5b346104d65760003660031901126104d65760206040517f65d7a28e3265b37a6474929f336521b332c1681b933f6cb9f3376673440d862a8152f35b346104d65760403660031901126104d657602060ff611e396123456104c0565b61234d6104db565b6001600160a01b0391821660009081526001865260408082209290931681526020919091522090565b602081019291610bae9190610df0565b346104d65760203660031901126104d6576001600160a01b036123a76104c0565b16600052600e602052602060ff604060002054166123c86040518092610df0565bf35b346104d65760a03660031901126104d6576123e36104c0565b6123eb6104db565b6084356001600160401b0381116104d65761240a903690600401610c42565b906001600160a01b038381169033821415806124ab575b6124845782161561246b571561169157610d2f926124636064356044359160405192600184526020840152604083019160018352606084015260808301604052565b929091613cc2565b604051632bfa23e760e11b815260006004820152602490fd5b60405163711bec9160e11b81523360048201526001600160a01b0386166024820152604490fd5b50600082815260016020908152604080832033845290915290205460ff1615612421565b346104d65760603660031901126104d6576124e86104c0565b6001600160a01b03811633811415908161253c575b5061251357610d2f9060443590602435906136a5565b60405163711bec9160e11b81523360048201526001600160a01b03919091166024820152604490fd5b6000908152600160209081526040808320338452909152902060ff9150541615386124fd565b90600182811c92168015612592575b602083101461257c57565b634e487b7160e01b600052602260045260246000fd5b91607f1691612571565b906040519182600082546125af81612562565b9081845260209460019160018116908160001461261d57506001146125de575b505050610bae92500383610b80565b600090815285812095935091905b818310612605575050610bae93508201013880806125cf565b855488840185015294850194879450918301916125ec565b92505050610bae94925060ff191682840152151560051b8201013880806125cf565b9a9691946126808c9d9e9d61269f969a956126726126bd9d996101609f9b96610180908552806020860152840190610795565b916040818403910152610795565b9860608d015260808c015260a08b015260c08a015260e0890190610df0565b15156101008701521515610120860152848203610140860152610795565b6001600160a01b03909416910152565b346104d65760203660031901126104d6576004356000526009602052604060002080549061083b6127006001830161259c565b9261270d6002840161259c565b92600381015494600482015492600583015490600684015460078501549261274b600961273c6008890161259c565b9701546001600160a01b031690565b966040519a8b9a60ff8760101c169760ff808960081c169816968d61263f565b346104d65760003660031901126104d65760206040516130d48152f35b346104d65760403660031901126104d6576127a16104c0565b7f101006801e3b4b14d09186f508bd7a78c4d24598dd6126863425d0350503fb02610ab2602435926127d161339a565b60018060a01b03169283600052601260205280604060002055601360205242604060002055604051918291428360209093929193604081019481520152565b346104d65760203660031901126104d6577ffab5bcbec79a8b5888e114fd4b378427aa58d9b237d85056f0ee5b3ea57df8c5602060043561284f6134a8565b80600855604051908152a1005b9060048110156107355760ff80198354169116179055565b60048210156107355752565b90610bae6129366009612891610ba1565b94805486526128a26001820161259c565b60208701526128b36002820161259c565b60408701526003810154606087015260048101546080870152600581015460a0870152600681015460c087015261291660ff60078301546128f982821660e08b01612874565b600881901c821615156101008a015260101c161515610120880152565b6129226008820161259c565b61014087015201546001600160a01b031690565b6001600160a01b0316610160840152565b908060209392818452848401376000828201840152601f01601f1916010190565b604090610ed2949281528160208201520191612947565b634e487b7160e01b600052603260045260246000fd5b80518210156129a95760209160051b010190565b61297f565b91909180518351808203612a4b5750508051906129e36129cd83610bb0565b926129db6040519485610b80565b808452610bb0565b60209190601f1901368484013760005b8151811015612a4357600581901b8281018401519087018401516000908152602081815260408083206001600160a01b039094168352929052205460019190612a3c8287612995565b52016129f3565b509193505050565b604051635b05999160e01b815260048101919091526024810191909152604490fd5b15612a7457565b60405162461bcd60e51b815260206004820152601360248201527250726f7065727479206e6f742061637469766560681b6044820152606490fd5b15612ab657565b60405162461bcd60e51b815260206004820152601760248201527f4c4c43206964656e7469666965722072657175697265640000000000000000006044820152606490fd5b90601f8111612b0957505050565b6000916000526020600020906020601f850160051c83019410612b47575b601f0160051c01915b828110612b3c57505050565b818155600101612b30565b9092508290612b27565b9092916001600160401b038111610b6057612b7681612b708454612562565b84612afb565b6000601f8211600114612bb7578190612ba8939495600092612bac575b50508160011b916000199060031b1c19161790565b9055565b013590503880612b93565b601f19821694612bcc84600052602060002090565b91805b878110612c07575083600195969710612bed575b505050811b019055565b0135600019600384901b60f8161c19169055388080612be3565b90926020600181928686013581550194019101612bcf565b916020916126bd91959495604085526040850191612947565b6004811015610735578015612c7c57612c508161072b565b60018114612c755780612c6460029261072b565b14612c6f57611d4c90565b61271090565b506130d490565b50613a9890565b634e487b7160e01b600052601160045260246000fd5b60ff1660ff8114612caa5760010190565b612c83565b60ff1660048110156107355790565b90610fa091828102928184041490151715612caa57565b90610bb891828102928184041490151715612caa57565b906107d091828102928184041490151715612caa57565b906103e891828102928184041490151715612caa57565b81810292918115918404141715612caa57565b91908201809211612caa57565b15612d4157565b60405162461bcd60e51b8152602060048201526015602482015274109d5e595c881b9bdd081dda1a5d195b1a5cdd1959605a1b6044820152606490fd5b15612d8557565b60405162461bcd60e51b815260206004820152600e60248201526d4e6f204c4c43206261636b696e6760901b6044820152606490fd5b15612dc257565b60405162461bcd60e51b815260206004820152600e60248201526d119d5b991a5b99c818db1bdcd95960921b6044820152606490fd5b15612dff57565b60405162461bcd60e51b815260206004820152601e60248201527f4e6f7420656c696769626c6520666f722063757272656e7420706861736500006044820152606490fd5b91908203918211612caa57565b15612e5857565b60405162461bcd60e51b815260206004820152601860248201527f4578636565647320706861736520616c6c6f636174696f6e00000000000000006044820152606490fd5b60405190612eaa82610b65565b60008252565b908152604081019291610bae9160200190610df0565b600052600960205260ff600760406000200154612ee7828260081c16612a6d565b16612ef18161072b565b80612f0b5750612710612f07815b600854612d1a565b0490565b612f148161072b565b60018103612f2b5750612710612f07613a98612eff565b80612f3760029261072b565b03612f4a57612710612f076157e4612eff565b612710612f07617530612eff565b9192957f2a077b72ac27e0177a757dbdf9bc56585dbb145d7dcd128808fcd8244267aff69495612fce9761304b61313094612f916134a8565b612fa56001600160a01b0386161515613136565b612fb184511515612aaf565b600a549a8b9a612fc8612fc38d61318d565b600a55565b42612d2d565b612fd6610ba1565b918b83528860208401526040830152886060830152600060808301528360a083015260c0820152600060e0820152613012610100820160019052565b600061012082015261014081018490526001600160a01b0385166101608201526130468a6000526009602052604060002090565b613265565b613057611b4c87612cbe565b61307d61306e8a600052600b602052604060002090565b60008052602052604060002090565b5561308a611b4c87612cd5565b6130b16130a18a600052600b602052604060002090565b6001600052602052604060002090565b556130be611b4c87612cec565b6130e56130d58a600052600b602052604060002090565b6002600052602052604060002090565b556130f2611b4c87612d03565b6131196131098a600052600b602052604060002090565b6003600052602052604060002090565b5561312388613f35565b5060405195869586613365565b0390a290565b1561313d57565b60405162461bcd60e51b815260206004820152602260248201527f437573746f6469616e20726571756972656420666f72204c4c43206261636b696044820152616e6760f01b6064820152608490fd5b6000198114612caa5760010190565b91909182516001600160401b038111610b60576131bd81612b708454612562565b602080601f83116001146131fb57508190612ba89394956000926131f05750508160011b916000199060031b1c19161790565b015190503880612b93565b90601f1983169561321185600052602060002090565b926000905b88821061324d5750508360019596971061323457505050811b019055565b015160001960f88460031b161c19169055388080612be3565b80600185968294968601518155019501930190613216565b6009613344610160610bae948051855561328660208201516001870161319c565b61329760408201516002870161319c565b606081015160038601556080810151600486015560a0810151600586015560c08101516006860155613324600786016132dd60e08401516132d78161072b565b8261285c565b6133046132ee610100850151151590565b825461ff00191690151560081b61ff0016178255565b6101208301511515815462ff0000191690151560101b62ff000016179055565b6133366101408201516008870161319c565b01516001600160a01b031690565b910180546001600160a01b0319166001600160a01b03909216919091179055565b936080936133826126bd949398979860a0885260a0880190610795565b92602087015260408601528482036060860152610795565b3360009081527f294bb43e882f8724b7ae88344d047a41612b98ee139a78f923b3689f3cc274b1602052604090207f28f5a99355973cc89255b8c4ac88405f27c78ded7608b040ee77a8bdf44d15e29060ff905b5416156119815750565b3360009081527f847f481f687befb06ed3511f1a8dcef57e83007c0147ae5047583d7056170937602052604090207f3c11d16cbaffd01df69ce1c404f6340ee057498f5f00246190ea54220576a8489060ff906133ee565b3360009081527f99f2891db7a8db76249871a02b43b68c0bb8f22ef8a3bc1034ae9375ef6b7c3c602052604090207f65d7a28e3265b37a6474929f336521b332c1681b933f6cb9f3376673440d862a9060ff906133ee565b3360009081527f05b8ccbb9d4d8fb16ea74ce3c29a41f1b461fbdaff4714a0d9a8eb05499746bc602052604090205460ff16156134e157565b60405163e2517d3f60e01b815233600482015260006024820152604490fd5b3360009081527f15a28d26fa1bf736cf7edc9922607171ccb09c3c73b808e7772a3013e068a522602052604090207f9f2df0fed2c77648de5860a4cc508cd0818c85b8b8a1ab4ceeef8d981c8956a69060ff906133ee565b6000818152600560209081526040808320338452909152902060ff906133ee565b600090808252600560205260ff6135a584604085209060018060a01b0316600052602052604060002090565b541661360d578082526005602090815260408084206001600160a01b038616600090815292529020805460ff1916600117905533926001600160a01b0316917f2f8788117e7eff1d82e926ec794901d17c78024a50270940304540a733656f0d9080a4600190565b50905090565b600090808252600560205260ff61363f84604085209060018060a01b0316600052602052604060002090565b54161561360d578082526005602090815260408084206001600160a01b038616600090815292529020805460ff1916905533926001600160a01b0316917ff6391f5c32d9c69d2a47ea670b442974b53935d1edc7fd64eb21e047a839171b9080a4600190565b92916001600160a01b03841691908215611691576136e5919493949160405192600184526020840152604083019160018352606084015260808301604052565b929093604092604051956136f887610b65565b600080975261370561396b565b6000955b81518710156138895761371c8783612995565b51916137288883612995565b5194895b60ff8116600381111580613880575b15613865578061374b8a9261072b565b8a8d61376983611b3a86611d408d600052600f602052604060002090565b549081613784575b505050505061377f90612c99565b61372c565b7f79fa03c4f76e383f2eb3d51f38e9daa7af8429e8573f8c1bb7d6103e878e356461384361384b969561377f989e958e958e955082888211600014613858576137e29150611b3a899a5b611d4089600052600f602052604060002090565b6137ed898254612e44565b90556004613805866000526009602052604060002090565b01613811898254612e44565b905561382b82611b3a87600052600c602052604060002090565b613836898254612e44565b9055519182918883612eb0565b0390a3612e44565b96905087388a818e613771565b611b3a6137e2929a6137ce565b5050979092506138786001929515614049565b019592613709565b5087151561373b565b94509291955050610bae93506143c9565b60ff60019116019060ff8211612caa57565b806000526009602052600760406000200160ff81546138cf828260081c16612a6d565b1690600482101561073557600382101561392d57610aa661392891611bd46132d76139238661391e7fa92c850bb09d5afa4a6230f4866fad10264c6fea20047156b39e3e24c5763ad49861072b565b61389a565b612caf565b0390a2565b60405162461bcd60e51b8152602060048201526016602482015275416c72656164792061742066696e616c20706861736560501b6044820152606490fd5b60ff6006541661397757565b60405163d93c066560e01b8152600490fd5b93916001600160a01b0385161561246b576139c160405192600184526020840152604083019160018352606084015260808301604052565b90916139cb61396b565b6139d6828487614553565b600094855b8451871015613a2e57613a266001916139f48987612995565b5190613a14613a038b8a612995565b516000526003602052604060002090565b613a1f838254612d2d565b9055612d2d565b9601956139db565b613a48919594929650613a4390600454612d2d565b600455565b8051600103613a665790602080610bae95930151910151913361435d565b610bae9333614163565b613a7861396b565b6001600160a01b0381168015158080613cba575b613c27575b613aa2575b5090610bae92916143c9565b600094929394925b8451841015613c1957613abd8486612995565b5194613ac98588612995565b519660005b60ff8116600381111580613c10575b15613bf157613aeb8161072b565b613b0781611b3a89611d408d600052600f602052604060002090565b5480613b1e575b5050613b1990612c99565b613ace565b613b19929a878b7f79fa03c4f76e383f2eb3d51f38e9daa7af8429e8573f8c1bb7d6103e878e3564613843613bdc968d9681878211600014613be457613b799150611b3a88995b611d4088600052600f602052604060002090565b613b84888254612e44565b90556004613b9c856000526009602052604060002090565b01613ba8888254612e44565b9055613bc281611b3a86600052600c602052604060002090565b613bcd888254612e44565b90556040519182918883612eb0565b989038613b0e565b611b3a613b799299613b65565b50509550919593613c056001929515614049565b019294909394613aaa565b50891515613add565b94939250610bae9050613a96565b93919060005b8451811015613c755780613c6f613c6a6007613c5f613c4e6001968b612995565b516000526009602052604060002090565b015460101c60ff1690565b613fb1565b01613c2d565b5060008052600d6020529193909190613cb5613cb07f81955a0a11e65eac625c29e8882660bae4e165a75d72780094acae8ece9a29ee611bd4565b613ffd565b613a91565b506000613a8c565b91939290613cce61396b565b6001600160a01b038381168015158080613f2a575b613eca575b613d3f575b50613cfa8387848761447a565b8116613d08575b5050505050565b8451600103613d2e57602080613d249601519201519233614392565b3880808080613d01565b613d3a9491923361425e565b613d24565b9196956000959195965b8151881015613ebe57613d5c8883612995565b5192613d688987612995565b519560005b60ff81168c600382111580613eb5575b15613e9557908a918c613dab83611b3a86611d408e613d9b8561072b565b600052600f602052604060002090565b5480613dc5575b5050505050613dc090612c99565b613d6d565b613e4c9493613dc0969d938d938d9383878211600014613e8857613dfd9150611b3a8899611d4088600052600f602052604060002090565b613e08888254612e44565b90558116613e5957506138437f79fa03c4f76e383f2eb3d51f38e9daa7af8429e8573f8c1bb7d6103e878e3564916004613b9c856000526009602052604060002090565b97905088388d8c82613db2565b613e769350611d40611b3a9293600052600f602052604060002090565b613e81838254612d2d565b9055612e44565b611b3a613dfd9299613b65565b50505095600192939450613eac9099919915614049565b01969190613d49565b50891515613d7d565b97925095509338613ced565b9795949392919060005b8851811015613efb5780613ef5613c6a6007613c5f613c4e6001968f612995565b01613ed4565b5090919293949597613f25613cb0611bd48660018060a01b0316600052600d602052604060002090565b613ce8565b508284161515613ce3565b80600052601160205260406000205415600014613fab5760105468010000000000000000811015610b605760018101806010558110156129a95781907f1b6847dc741a1b0cd08d278845f9d819d87b734759afb55fe2de5cb82a9ae6720155601054906000526011602052604060002055600190565b50600090565b15613fb857565b60405162461bcd60e51b815260206004820152601f60248201527f5472616e7366657273206c6f636b656420647572696e672066756e64696e67006044820152606490fd5b1561400457565b60405162461bcd60e51b815260206004820152601960248201527f526563697069656e74206e6f742077686974656c6973746564000000000000006044820152606490fd5b1561405057565b60405162461bcd60e51b815260206004820152602360248201527f496e73756666696369656e742070686173652d747261636b656420686f6c64696044820152626e677360e81b6064820152608490fd5b908160209103126104d65751610ed2816105f2565b926140e5610ed295936140f39360018060a01b031686526000602087015260a0604087015260a0860190611254565b908482036060860152611254565b916080818403910152610795565b9390610ed295936140e5916140f39460018060a01b03809216885216602087015260a0604087015260a0860190611254565b3d1561415e573d9061414482610c27565b916141526040519384610b80565b82523d6000602084013e565b606090565b9293919093843b614175575050505050565b602091614198604051948593849363bc197c8160e01b98898652600486016140b6565b038160006001600160a01b0388165af16000918161422d575b506141f057826141bf614133565b80519190826141e957604051632bfa23e760e11b81526001600160a01b0383166004820152602490fd5b9050602001fd5b6001600160e01b0319160361420a57503880808080613d01565b604051632bfa23e760e11b81526001600160a01b03919091166004820152602490fd5b61425091925060203d602011614257575b6142488183610b80565b8101906140a1565b90386141b1565b503d61423e565b939290949194853b614273575b505050505050565b614296602093604051958694859463bc197c8160e01b998a875260048701614101565b038160006001600160a01b0388165af1600091816142d8575b506142bd57826141bf614133565b6001600160e01b0319160361420a575038808080808061426b565b6142f291925060203d602011614257576142488183610b80565b90386142af565b909260a092610ed29594600180861b0316835260006020840152604083015260608201528160808201520190610795565b9192610ed295949160a094600180871b038092168552166020840152604083015260608201528160808201520190610795565b9293919093843b61436f575050505050565b602091614198604051948593849363f23a6e6160e01b98898652600486016142f9565b939290949194853b6143a657505050505050565b614296602093604051958694859463f23a6e6160e01b998a87526004870161432a565b9291926143d784838361466e565b6001600160a01b031615614430575b6000805b825182101561441e576001906144008387612995565b519061440f613a038587612995565b828154039055019101906143ea565b915050610bae91925060045403600455565b6000805b82518210156144645761445c60019161444d8488612995565b5190613a14613a038688612995565b910190614434565b6144759150613a4390600454612d2d565b6143e6565b9093929361448a858483856147d4565b6001600160a01b03918216156144de575b16156144a657509050565b6000805b825182101561441e576001906144c08387612995565b51906144cf613a038587612995565b828154039055019101906144aa565b92600091825b84518410156145145761450c6001916144fd868a612995565b5190613a14613a03888a612995565b9301926144e4565b614529919350613a4390959295600454612d2d565b61449b565b9091614545610ed293604084526040840190611254565b916020818403910152611254565b9190918251825190818103612a4b57505060005b83518110156145ce57600581901b84810160209081015191850101516001929184906001600160a01b0382166145a1575b50505001614567565b6145c491611d406145bc926000526000602052604060002090565b918254612d2d565b9055388381614598565b5091600181511460001461462f576020908101519181015160408051938452918301526001600160a01b039092169160009133917fc3d58168c5ae7397731d063d5bbf3d657854427343f4c083240f7aacaa2d0f629190819081015b0390a4565b7f4a39dc06d4c0dbc64b70af90fd698a233a518aa5d07e595d983b8c0526c8f7fb61462a6000939460405191829160018060a01b03169633958361452e565b9291908051825190818103612a4b57505060005b815181101561473557600581901b82810160209081015191850101516001600160a01b0387166146b7575b5050600101614682565b6146cf87611d40846000526000602052604060002090565b548181106146fe5787611d4060019594936146f69303936000526000602052604060002090565b5590386146ad565b6040516303dee4c560e01b81526001600160a01b038916600482015260248101919091526044810182905260648101839052608490fd5b5090600092939160018151148414614795576020908101519181015160408051938452918301526001600160a01b039092169133917fc3d58168c5ae7397731d063d5bbf3d657854427343f4c083240f7aacaa2d0f62918190810161462a565b6040516001600160a01b039093169233927f4a39dc06d4c0dbc64b70af90fd698a233a518aa5d07e595d983b8c0526c8f7fb92829161462a918361452e565b9392918051835190818103612a4b57505060005b81518110156148d657600581901b82810160209081015191860101516001600160a01b0392918590898516614850575b600194821661482b575b505050016147e8565b61484691611d406145bc926000526000602052604060002090565b9055388481614822565b919293905061486d89611d40846000526000602052604060002090565b5483811061489f57918691846001969594036148978c611d40856000526000602052604060002090565b559450614818565b6040516303dee4c560e01b81526001600160a01b038b16600482015260248101919091526044810184905260648101839052608490fd5b508051939493919291600103614938576020908101519181015160408051938452918301526001600160a01b03928316939092169133917fc3d58168c5ae7397731d063d5bbf3d657854427343f4c083240f7aacaa2d0f62918190810161462a565b6040516001600160a01b03938416949093169233927f4a39dc06d4c0dbc64b70af90fd698a233a518aa5d07e595d983b8c0526c8f7fb92829161462a918361452e56fea2646970667358221220c7173333c87abcf90ef86b9c799a3292896cc62dc697b368788e64eaf47f2dcc64736f6c634300081800332f8788117e7eff1d82e926ec794901d17c78024a50270940304540a733656f0d",
  "linkReferences": {},
  "deployedLinkReferences": {}
}