{
  "_format": "hh-sol-artifact-1",
  "contractName": "PhaseManager",
  "sourceName": "contracts/PhaseManager.sol",
  "abi": [
    {
      "inputs": [
        {
          "internalType": "address",
          "name": "_propertyToken",
          "type": "address"
        },
        {
          "internalType": "address",
          "name": "_governance",
          "type": "address"
        }
      ],
      "stateMutability": "nonpayable",
      "type": "constructor"
    },
    {
      "inputs": [],
      "name": "AccessControlBadConfirmation",
      "type": "error"
    },
    {
      "inputs": [
        {
          "internalType": "address",
          "name": "account",
          "type": "address"
        },
        {
          "internalType": "bytes32",
          "name": "neededRole",
          "type": "bytes32"
        }
      ],
      "name": "AccessControlUnauthorizedAccount",
      "type": "error"
    },
    {
      "anonymous": false,
      "inputs": [
        {
          "indexed": true,
          "internalType": "uint256",
          "name": "propertyId",
          "type": "uint256"
        },
        {
          "indexed": true,
          "internalType": "address",
          "name": "claimer",
          "type": "address"
        },
        {
          "indexed": false,
          "internalType": "uint256",
          "name": "bonus",
          "type": "uint256"
        }
      ],
      "name": "BonusClaimed",
      "type": "event"
    },
    {
      "anonymous": false,
      "inputs": [
        {
          "indexed": true,
          "internalType": "uint256",
          "name": "propertyId",
          "type": "uint256"
        },
        {
          "indexed": false,
          "internalType": "uint256",
          "name": "demandBps",
          "type": "uint256"
        }
      ],
      "name": "DemandDrivenAdvancement",
      "type": "event"
    },
    {
      "anonymous": false,
      "inputs": [
        {
          "indexed": true,
          "internalType": "uint256",
          "name": "propertyId",
          "type": "uint256"
        },
        {
          "indexed": false,
          "internalType": "uint8",
          "name": "demandType",
          "type": "uint8"
        },
        {
          "indexed": false,
          "internalType": "uint256",
          "name": "demandBps",
          "type": "uint256"
        }
      ],
      "name": "DemandNudge",
      "type": "event"
    },
    {
      "anonymous": false,
      "inputs": [
        {
          "indexed": true,
          "internalType": "uint256",
          "name": "propertyId",
          "type": "uint256"
        },
        {
          "indexed": false,
          "internalType": "uint256",
          "name": "activeVoters",
          "type": "uint256"
        },
        {
          "indexed": false,
          "internalType": "uint256",
          "name": "totalEligible",
          "type": "uint256"
        },
        {
          "indexed": false,
          "internalType": "uint256",
          "name": "engagementPercent",
          "type": "uint256"
        }
      ],
      "name": "EngagementUpdated",
      "type": "event"
    },
    {
      "anonymous": false,
      "inputs": [
        {
          "indexed": true,
          "internalType": "uint256",
          "name": "propertyId",
          "type": "uint256"
        },
        {
          "indexed": true,
          "internalType": "address",
          "name": "user",
          "type": "address"
        },
        {
          "indexed": false,
          "internalType": "uint8",
          "name": "eligiblePhase",
          "type": "uint8"
        }
      ],
      "name": "GeoEligibilityChecked",
      "type": "event"
    },
    {
      "anonymous": false,
      "inputs": [
        {
          "indexed": true,
          "internalType": "address",
          "name": "newOracle",
          "type": "address"
        }
      ],
      "name": "GeoOracleUpdated",
      "type": "event"
    },
    {
      "anonymous": false,
      "inputs": [
        {
          "indexed": true,
          "internalType": "uint256",
          "name": "propertyId",
          "type": "uint256"
        },
        {
          "indexed": false,
          "internalType": "string",
          "name": "nudgeType",
          "type": "string"
        },
        {
          "indexed": false,
          "internalType": "uint256",
          "name": "engagementPercent",
          "type": "uint256"
        }
      ],
      "name": "NudgeTriggered",
      "type": "event"
    },
    {
      "anonymous": false,
      "inputs": [
        {
          "indexed": true,
          "internalType": "uint256",
          "name": "propertyId",
          "type": "uint256"
        },
        {
          "indexed": false,
          "internalType": "uint8",
          "name": "fromPhase",
          "type": "uint8"
        },
        {
          "indexed": false,
          "internalType": "uint8",
          "name": "toPhase",
          "type": "uint8"
        },
        {
          "indexed": false,
          "internalType": "uint256",
          "name": "engagementPercent",
          "type": "uint256"
        }
      ],
      "name": "PhaseAdvancedByEngagement",
      "type": "event"
    },
    {
      "anonymous": false,
      "inputs": [
        {
          "indexed": true,
          "internalType": "uint256",
          "name": "propertyId",
          "type": "uint256"
        },
        {
          "indexed": false,
          "internalType": "uint8",
          "name": "fromPhase",
          "type": "uint8"
        },
        {
          "indexed": false,
          "internalType": "uint8",
          "name": "toPhase",
          "type": "uint8"
        }
      ],
      "name": "PhaseAdvancedBySubscription",
      "type": "event"
    },
    {
      "anonymous": false,
      "inputs": [
        {
          "indexed": true,
          "internalType": "uint256",
          "name": "propertyId",
          "type": "uint256"
        },
        {
          "indexed": false,
          "internalType": "uint256",
          "name": "pollParticipants",
          "type": "uint256"
        },
        {
          "indexed": false,
          "internalType": "uint256",
          "name": "bonusEngagement",
          "type": "uint256"
        }
      ],
      "name": "PollBonusApplied",
      "type": "event"
    },
    {
      "anonymous": false,
      "inputs": [
        {
          "indexed": true,
          "internalType": "uint256",
          "name": "propertyId",
          "type": "uint256"
        },
        {
          "indexed": true,
          "internalType": "address",
          "name": "participant",
          "type": "address"
        }
      ],
      "name": "PollParticipationRecorded",
      "type": "event"
    },
    {
      "anonymous": false,
      "inputs": [
        {
          "indexed": true,
          "internalType": "uint256",
          "name": "propertyId",
          "type": "uint256"
        }
      ],
      "name": "PropertyTrackingStarted",
      "type": "event"
    },
    {
      "anonymous": false,
      "inputs": [
        {
          "indexed": true,
          "internalType": "uint256",
          "name": "propertyId",
          "type": "uint256"
        }
      ],
      "name": "PropertyTrackingStopped",
      "type": "event"
    },
    {
      "anonymous": false,
      "inputs": [
        {
          "indexed": true,
          "internalType": "bytes32",
          "name": "role",
          "type": "bytes32"
        },
        {
          "indexed": true,
          "internalType": "bytes32",
          "name": "previousAdminRole",
          "type": "bytes32"
        },
        {
          "indexed": true,
          "internalType": "bytes32",
          "name": "newAdminRole",
          "type": "bytes32"
        }
      ],
      "name": "RoleAdminChanged",
      "type": "event"
    },
    {
      "anonymous": false,
      "inputs": [
        {
          "indexed": true,
          "internalType": "bytes32",
          "name": "role",
          "type": "bytes32"
        },
        {
          "indexed": true,
          "internalType": "address",
          "name": "account",
          "type": "address"
        },
        {
          "indexed": true,
          "internalType": "address",
          "name": "sender",
          "type": "address"
        }
      ],
      "name": "RoleGranted",
      "type": "event"
    },
    {
      "anonymous": false,
      "inputs": [
        {
          "indexed": true,
          "internalType": "bytes32",
          "name": "role",
          "type": "bytes32"
        },
        {
          "indexed": true,
          "internalType": "address",
          "name": "account",
          "type": "address"
        },
        {
          "indexed": true,
          "internalType": "address",
          "name": "sender",
          "type": "address"
        }
      ],
      "name": "RoleRevoked",
      "type": "event"
    },
    {
      "inputs": [],
      "name": "BONUS_TOKENS",
      "outputs": [
        {
          "internalType": "uint256",
          "name": "",
          "type": "uint256"
        }
      ],
      "stateMutability": "view",
      "type": "function"
    },
    {
      "inputs": [],
      "name": "DEFAULT_ADMIN_ROLE",
      "outputs": [
        {
          "internalType": "bytes32",
          "name": "",
          "type": "bytes32"
        }
      ],
      "stateMutability": "view",
      "type": "function"
    },
    {
      "inputs": [],
      "name": "ENGAGEMENT_THRESHOLD",
      "outputs": [
        {
          "internalType": "uint256",
          "name": "",
          "type": "uint256"
        }
      ],
      "stateMutability": "view",
      "type": "function"
    },
    {
      "inputs": [],
      "name": "MIN_ENGAGEMENT_PERIOD",
      "outputs": [
        {
          "internalType": "uint256",
          "name": "",
          "type": "uint256"
        }
      ],
      "stateMutability": "view",
      "type": "function"
    },
    {
      "inputs": [],
      "name": "OPERATOR_ROLE",
      "outputs": [
        {
          "internalType": "bytes32",
          "name": "",
          "type": "bytes32"
        }
      ],
      "stateMutability": "view",
      "type": "function"
    },
    {
      "inputs": [],
      "name": "POLL_BONUS_MULTIPLIER",
      "outputs": [
        {
          "internalType": "uint256",
          "name": "",
          "type": "uint256"
        }
      ],
      "stateMutability": "view",
      "type": "function"
    },
    {
      "inputs": [
        {
          "internalType": "uint256",
          "name": "propertyId",
          "type": "uint256"
        }
      ],
      "name": "calculateEngagement",
      "outputs": [
        {
          "internalType": "uint256",
          "name": "",
          "type": "uint256"
        }
      ],
      "stateMutability": "view",
      "type": "function"
    },
    {
      "inputs": [
        {
          "internalType": "uint256",
          "name": "propertyId",
          "type": "uint256"
        }
      ],
      "name": "checkSubscriptionAdvancement",
      "outputs": [],
      "stateMutability": "nonpayable",
      "type": "function"
    },
    {
      "inputs": [
        {
          "internalType": "bytes",
          "name": "",
          "type": "bytes"
        }
      ],
      "name": "checkUpkeep",
      "outputs": [
        {
          "internalType": "bool",
          "name": "upkeepNeeded",
          "type": "bool"
        },
        {
          "internalType": "bytes",
          "name": "performData",
          "type": "bytes"
        }
      ],
      "stateMutability": "view",
      "type": "function"
    },
    {
      "inputs": [
        {
          "internalType": "uint256",
          "name": "propertyId",
          "type": "uint256"
        }
      ],
      "name": "claimEngagementBonus",
      "outputs": [],
      "stateMutability": "nonpayable",
      "type": "function"
    },
    {
      "inputs": [
        {
          "internalType": "uint256",
          "name": "propertyId",
          "type": "uint256"
        }
      ],
      "name": "claimPollBoostBonus",
      "outputs": [],
      "stateMutability": "nonpayable",
      "type": "function"
    },
    {
      "inputs": [],
      "name": "geoOracle",
      "outputs": [
        {
          "internalType": "contract IGeoOracle",
          "name": "",
          "type": "address"
        }
      ],
      "stateMutability": "view",
      "type": "function"
    },
    {
      "inputs": [],
      "name": "getCommunityHealth",
      "outputs": [
        {
          "internalType": "uint256",
          "name": "",
          "type": "uint256"
        }
      ],
      "stateMutability": "view",
      "type": "function"
    },
    {
      "inputs": [
        {
          "internalType": "uint256",
          "name": "propertyId",
          "type": "uint256"
        }
      ],
      "name": "getDemandEngagementMetrics",
      "outputs": [
        {
          "internalType": "uint256",
          "name": "baseEngagement",
          "type": "uint256"
        },
        {
          "internalType": "uint256[4]",
          "name": "demandBars",
          "type": "uint256[4]"
        },
        {
          "internalType": "uint256",
          "name": "healthScore",
          "type": "uint256"
        },
        {
          "internalType": "bool",
          "name": "isReadyForAdvancement",
          "type": "bool"
        }
      ],
      "stateMutability": "view",
      "type": "function"
    },
    {
      "inputs": [
        {
          "internalType": "uint256",
          "name": "propertyId",
          "type": "uint256"
        }
      ],
      "name": "getEngagement",
      "outputs": [
        {
          "internalType": "uint256",
          "name": "phaseStartTime",
          "type": "uint256"
        },
        {
          "internalType": "uint256",
          "name": "totalEligible",
          "type": "uint256"
        },
        {
          "internalType": "uint256",
          "name": "activeVoters",
          "type": "uint256"
        },
        {
          "internalType": "uint256",
          "name": "engagementPercent",
          "type": "uint256"
        },
        {
          "internalType": "bool",
          "name": "isTracking",
          "type": "bool"
        }
      ],
      "stateMutability": "view",
      "type": "function"
    },
    {
      "inputs": [
        {
          "internalType": "bytes32",
          "name": "role",
          "type": "bytes32"
        }
      ],
      "name": "getRoleAdmin",
      "outputs": [
        {
          "internalType": "bytes32",
          "name": "",
          "type": "bytes32"
        }
      ],
      "stateMutability": "view",
      "type": "function"
    },
    {
      "inputs": [],
      "name": "getTrackedProperties",
      "outputs": [
        {
          "internalType": "uint256[]",
          "name": "",
          "type": "uint256[]"
        }
      ],
      "stateMutability": "view",
      "type": "function"
    },
    {
      "inputs": [],
      "name": "governance",
      "outputs": [
        {
          "internalType": "contract IGovernance",
          "name": "",
          "type": "address"
        }
      ],
      "stateMutability": "view",
      "type": "function"
    },
    {
      "inputs": [
        {
          "internalType": "bytes32",
          "name": "role",
          "type": "bytes32"
        },
        {
          "internalType": "address",
          "name": "account",
          "type": "address"
        }
      ],
      "name": "grantRole",
      "outputs": [],
      "stateMutability": "nonpayable",
      "type": "function"
    },
    {
      "inputs": [
        {
          "internalType": "uint256",
          "name": "",
          "type": "uint256"
        },
        {
          "internalType": "address",
          "name": "",
          "type": "address"
        }
      ],
      "name": "hasClaimed",
      "outputs": [
        {
          "internalType": "bool",
          "name": "",
          "type": "bool"
        }
      ],
      "stateMutability": "view",
      "type": "function"
    },
    {
      "inputs": [
        {
          "internalType": "uint256",
          "name": "propertyId",
          "type": "uint256"
        },
        {
          "internalType": "address",
          "name": "participant",
          "type": "address"
        }
      ],
      "name": "hasParticipatedInPolls",
      "outputs": [
        {
          "internalType": "bool",
          "name": "",
          "type": "bool"
        }
      ],
      "stateMutability": "view",
      "type": "function"
    },
    {
      "inputs": [
        {
          "internalType": "bytes32",
          "name": "role",
          "type": "bytes32"
        },
        {
          "internalType": "address",
          "name": "account",
          "type": "address"
        }
      ],
      "name": "hasRole",
      "outputs": [
        {
          "internalType": "bool",
          "name": "",
          "type": "bool"
        }
      ],
      "stateMutability": "view",
      "type": "function"
    },
    {
      "inputs": [
        {
          "internalType": "uint256",
          "name": "",
          "type": "uint256"
        }
      ],
      "name": "isTracked",
      "outputs": [
        {
          "internalType": "bool",
          "name": "",
          "type": "bool"
        }
      ],
      "stateMutability": "view",
      "type": "function"
    },
    {
      "inputs": [
        {
          "internalType": "uint256",
          "name": "",
          "type": "uint256"
        }
      ],
      "name": "lastNudgeTime",
      "outputs": [
        {
          "internalType": "uint256",
          "name": "",
          "type": "uint256"
        }
      ],
      "stateMutability": "view",
      "type": "function"
    },
    {
      "inputs": [],
      "name": "nudgeCooldown",
      "outputs": [
        {
          "internalType": "uint256",
          "name": "",
          "type": "uint256"
        }
      ],
      "stateMutability": "view",
      "type": "function"
    },
    {
      "inputs": [
        {
          "internalType": "bytes",
          "name": "performData",
          "type": "bytes"
        }
      ],
      "name": "performUpkeep",
      "outputs": [],
      "stateMutability": "nonpayable",
      "type": "function"
    },
    {
      "inputs": [
        {
          "internalType": "uint256",
          "name": "",
          "type": "uint256"
        },
        {
          "internalType": "address",
          "name": "",
          "type": "address"
        }
      ],
      "name": "pollParticipated",
      "outputs": [
        {
          "internalType": "bool",
          "name": "",
          "type": "bool"
        }
      ],
      "stateMutability": "view",
      "type": "function"
    },
    {
      "inputs": [
        {
          "internalType": "uint256",
          "name": "",
          "type": "uint256"
        }
      ],
      "name": "propertyEngagement",
      "outputs": [
        {
          "internalType": "uint256",
          "name": "propertyId",
          "type": "uint256"
        },
        {
          "internalType": "uint256",
          "name": "phaseStartTime",
          "type": "uint256"
        },
        {
          "internalType": "uint256",
          "name": "totalEligibleVoters",
          "type": "uint256"
        },
        {
          "internalType": "uint256",
          "name": "activeVoters",
          "type": "uint256"
        },
        {
          "internalType": "uint256",
          "name": "totalProposals",
          "type": "uint256"
        },
        {
          "internalType": "uint256",
          "name": "votedProposals",
          "type": "uint256"
        },
        {
          "internalType": "bool",
          "name": "isTracking",
          "type": "bool"
        }
      ],
      "stateMutability": "view",
      "type": "function"
    },
    {
      "inputs": [
        {
          "internalType": "uint256",
          "name": "",
          "type": "uint256"
        }
      ],
      "name": "propertyPollCount",
      "outputs": [
        {
          "internalType": "uint256",
          "name": "",
          "type": "uint256"
        }
      ],
      "stateMutability": "view",
      "type": "function"
    },
    {
      "inputs": [],
      "name": "propertyToken",
      "outputs": [
        {
          "internalType": "contract IPropertyToken",
          "name": "",
          "type": "address"
        }
      ],
      "stateMutability": "view",
      "type": "function"
    },
    {
      "inputs": [
        {
          "internalType": "uint256",
          "name": "propertyId",
          "type": "uint256"
        },
        {
          "internalType": "address",
          "name": "participant",
          "type": "address"
        }
      ],
      "name": "recordPollParticipation",
      "outputs": [],
      "stateMutability": "nonpayable",
      "type": "function"
    },
    {
      "inputs": [
        {
          "internalType": "bytes32",
          "name": "role",
          "type": "bytes32"
        },
        {
          "internalType": "address",
          "name": "callerConfirmation",
          "type": "address"
        }
      ],
      "name": "renounceRole",
      "outputs": [],
      "stateMutability": "nonpayable",
      "type": "function"
    },
    {
      "inputs": [
        {
          "internalType": "bytes32",
          "name": "role",
          "type": "bytes32"
        },
        {
          "internalType": "address",
          "name": "account",
          "type": "address"
        }
      ],
      "name": "revokeRole",
      "outputs": [],
      "stateMutability": "nonpayable",
      "type": "function"
    },
    {
      "inputs": [
        {
          "internalType": "address",
          "name": "_oracle",
          "type": "address"
        }
      ],
      "name": "setGeoOracle",
      "outputs": [],
      "stateMutability": "nonpayable",
      "type": "function"
    },
    {
      "inputs": [
        {
          "internalType": "uint256",
          "name": "newCooldown",
          "type": "uint256"
        }
      ],
      "name": "setNudgeCooldown",
      "outputs": [],
      "stateMutability": "nonpayable",
      "type": "function"
    },
    {
      "inputs": [
        {
          "internalType": "uint256",
          "name": "propertyId",
          "type": "uint256"
        },
        {
          "internalType": "uint256",
          "name": "totalEligibleVoters",
          "type": "uint256"
        }
      ],
      "name": "startTracking",
      "outputs": [],
      "stateMutability": "nonpayable",
      "type": "function"
    },
    {
      "inputs": [
        {
          "internalType": "uint256",
          "name": "propertyId",
          "type": "uint256"
        }
      ],
      "name": "stopTracking",
      "outputs": [],
      "stateMutability": "nonpayable",
      "type": "function"
    },
    {
      "inputs": [
        {
          "internalType": "bytes4",
          "name": "interfaceId",
          "type": "bytes4"
        }
      ],
      "name": "supportsInterface",
      "outputs": [
        {
          "internalType": "bool",
          "name": "",
          "type": "bool"
        }
      ],
      "stateMutability": "view",
      "type": "function"
    },
    {
      "inputs": [
        {
          "internalType": "uint256",
          "name": "",
          "type": "uint256"
        }
      ],
      "name": "trackedProperties",
      "outputs": [
        {
          "internalType": "uint256",
          "name": "",
          "type": "uint256"
        }
      ],
      "stateMutability": "view",
      "type": "function"
    },
    {
      "inputs": [
        {
          "internalType": "uint256",
          "name": "propertyId",
          "type": "uint256"
        }
      ],
      "name": "updateDemandEngagement",
      "outputs": [],
      "stateMutability": "nonpayable",
      "type": "function"
    },
    {
      "inputs": [
        {
          "internalType": "uint256",
          "name": "propertyId",
          "type": "uint256"
        },
        {
          "internalType": "uint256",
          "name": "activeVoters",
          "type": "uint256"
        },
        {
          "internalType": "uint256",
          "name": "totalProposals",
          "type": "uint256"
        },
        {
          "internalType": "uint256",
          "name": "votedProposals",
          "type": "uint256"
        }
      ],
      "name": "updateEngagement",
      "outputs": [],
      "stateMutability": "nonpayable",
      "type": "function"
    },
    {
      "inputs": [
        {
          "internalType": "uint256",
          "name": "propertyId",
          "type": "uint256"
        },
        {
          "internalType": "uint256",
          "name": "activeVoters",
          "type": "uint256"
        },
        {
          "internalType": "uint256",
          "name": "totalProposals",
          "type": "uint256"
        },
        {
          "internalType": "uint256",
          "name": "votedProposals",
          "type": "uint256"
        },
        {
          "internalType": "uint256",
          "name": "pollParticipants",
          "type": "uint256"
        }
      ],
      "name": "updateEngagementWithPolls",
      "outputs": [],
      "stateMutability": "nonpayable",
      "type": "function"
    }
  ],
  "bytecode": "0x608034620000b557601f6200264938819003918201601f19168301916001600160401b03831184841017620000ba578084926040948552833981010312620000b5576200005a60206200005283620000d0565b9201620000d0565b62015180600855600180546001600160a01b039384166001600160a01b031991821617909155600280549290931691161790556200009833620000e5565b50620000a43362000165565b506040516124219081620002088239f35b600080fd5b634e487b7160e01b600052604160045260246000fd5b51906001600160a01b0382168203620000b557565b6001600160a01b031660008181527fad3228b676f7d3cd4284a5443f17f1962b36e491b30a40b2405849e597ba5fb5602052604081205490919060ff166200016157818052816020526040822081835260205260408220600160ff198254161790553391600080516020620026298339815191528180a4600190565b5090565b6001600160a01b031660008181527fee57cd81e84075558e8fcc182a1f4393f91fc97f963a136e66b7f949a62f319f60205260408120549091907f97667070c54ef182b0f5858b034beac1b6f3089aa2d3188bb1e8929f4fa9b9299060ff166200020257808352826020526040832082845260205260408320600160ff1982541617905560008051602062002629833981519152339380a4600190565b50509056fe608060408181526004918236101561001657600080fd5b600092833560e01c91826301ffc9a71461192d5750816306785d8a146118ac5781630ad5f4211461181c5781631194f9e9146117ef57816311f0072f1461166f57816314585aeb14611433578163248a9ca3146114095781632e94dfda146113a95781632f2ff15d1461137f57816330ae780514611362578163313b79da146112af57816336568abe1461126957816336bfbfb8146112405781633a21ccc11461111957816340ab317114610e7f57816343ae269514610e565781634585e33b14610dca5781635513de4114610dac578163587bd4a7146107175781635aa6e67514610d835781635da6559e14610d5b57816363e86eb814610cf05781636675584f14610cd15781636e04ff0d14610c9557816373de7b4b14610c6d578163785b219014610ad95781638085b81314610aa0578163816aad3c146109be578163873f6f9e146109785781638e5359e0146108fe57816391d14854146108b957816394c9825d146107fb578163a217fddf146107e0578163a21e6f2f14610779578163a27f71b21461075d578163a9dc872614610717578163b415d279146106fb578163c82597761461058d578163d547741f1461054e578163d56124861461025a578163f333d6c214610230575063f5b541a6146101f357600080fd5b3461022c578160031936011261022c57602090517f97667070c54ef182b0f5858b034beac1b6f3089aa2d3188bb1e8929f4fa9b9298152f35b5080fd5b828434610257576020366003190112610257575061025060209235611ef5565b9051908152f35b80fd5b905034610511576020918260031936011261054a5760248235938560018060a01b038181600154168651958680926332665ffb60e01b82528b8b8301525afa9384156103e157829461051c575b508060035416838882610473575b505050600154168451636ea9967760e01b81528381806102e8888c8c840190929160ff6020916040840195845216910152565b0381855afa908115610469578391610438575b5085516304fa617360e01b815287810189815260ff871660208201528590829081906040010381865afa90811561042e5784916103f8575b501015806103eb575b610344575080f35b803b1561022c5781809160248751809481936340d57a6760e11b83528c8c8401525af180156103e1576103c9575b5093857f7214c5e85040cb3e35452fa6ff842070826b1d0bd195171e1c75e6d07bc1b96c95528152856003848220426001820155015560ff6103b383611ee3565b818551941684521690820152a238808080808580f35b6103d290611ab0565b6103dd578538610372565b8580fd5b85513d84823e3d90fd5b50600360ff85161061033c565b809450858092503d8311610427575b6104118183611b12565b810103126104225788925138610333565b600080fd5b503d610407565b87513d86823e3d90fd5b809350848092503d8311610462575b6104518183611b12565b8101031261042257879151386102fb565b503d610447565b86513d85823e3d90fd5b875163512ae2cb60e01b815233818b01908152602081019290925292839182908790829060400103925af19081156104695783916104e3575b5060ff865191168152877f3deb93045f72ce1d7fd6c683f79644b908c62d45d5615b482654972e36f77d6b853393a33883886102b5565b90508381813d8311610515575b6104fa8183611b12565b810103126105115761050b90611ca7565b386104ac565b8280fd5b503d6104f0565b6105399194503d8084833e6105318183611b12565b810190611e5b565b5050965050505050505092386102a7565b8380fd5b9190503461051157806003193601126105115761058991356105846001610573611980565b938387528660205286200154611fe5565b612089565b5080f35b905034610511576020366003190112610511578035916105ab611f31565b82845260066020526105c260ff8286205416611dc3565b828452816020528084206105dc60ff600683015416611a75565b6002548251630af4da4160e01b8152906080908290869082906001600160a01b03165afa9081156106f15786916106c2575b505192847fb3316e92a7702b6d2af84bce789e7e416e7c7d89dd355eb882cbf1bd1e443618848051898152876020820152a2611d4c8410159182610692575b5050610657578380f35b816020916106867f25f2b88b09799c057d36c9cc83fc1013f5534e15a4e9ae28471219e7ae85f79f94866122c0565b51908152a23880808380f35b6001015462093a808101925082106106af5750421015388061064d565b634e487b7160e01b865260119052602485fd5b6106e4915060803d6080116106ea575b6106dc8183611b12565b810190611b34565b3861060e565b503d6106d2565b83513d88823e3d90fd5b50503461022c578160031936011261022c576020905160018152f35b90503461051157816003193601126105115781602093610735611980565b92358152600a8552209060018060a01b0316600052825260ff81600020541690519015158152f35b50503461022c578160031936011261022c576020905160328152f35b83903461022c57602036600319011261022c57356001600160a01b03811690819003610422576107a7611fab565b600380546001600160a01b031916821790557f8f5df5b0b3afcb3d662deac3413c7e01ba3e60969e26401efbb3aa12e25b7cf98280a280f35b50503461022c578160031936011261022c5751908152602090f35b905034610511576080366003190112610511576108b691817f63bd409a0ca0450137d1b574e1e74a5a18cc8934d8f718c1603619b971ce6737600293359283926108a46024359161084a611f31565b858a5280602052838a209061086560ff600684015416611a75565b83600383015560443590820155606435600582015561088386611ef5565b97889101549351938493846040919493926060820195825260208201520152565b0390a26108b182826120fe565b61227d565b80f35b905034610511578160031936011261051157816020936108d7611980565b92358152808552209060018060a01b0316600052825260ff81600020541690519015158152f35b9050346105115760203660031901126105115780359161091c611fab565b610e108310158061096b575b1561093557505060085580f35b906020606492519162461bcd60e51b8352820152601060248201526f24b73b30b634b21031b7b7b63237bbb760811b6044820152fd5b5062093a80831115610928565b90503461051157816003193601126105115781602093610996611980565b9235815260098552209060018060a01b0316600052825260ff81600020541690519015158152f35b919050346105115780600319360112610511578135906109dc611980565b926109e5611f31565b828552602090600682526109fe60ff8488205416611dc3565b838652600a82528286206001600160a01b039095166000818152958352948390205460ff16610a6c5750828552600a81528185206000858152915220805460ff191660011790557f9c81720c57d474644d653192db4aee34eff3e6b5c6b80e4c283ab58871c9382e8380a380f35b915162461bcd60e51b815291820152601060248201526f105b1c9958591e481c9958dbdc99195960821b6044820152606490fd5b9050346105115760203660031901126105115735916005548310156102575750610acb602092611a28565b91905490519160031b1c8152f35b905034610511578160031936011261042257803591610af6611f31565b828452600660205260ff8185205416610c375780519160e0830183811067ffffffffffffffff821117610c2257825283835260066020840193428552838101602435815260608201888152608083019089825260a08401928a845260c085019860018a528a8c5287602052888c2095518655516001860155516002850155516003840155518483015551600582015501925115159260ff199360ff8583541691161790556005549068010000000000000000821015610c0f575090610bc2826001809401600555611a28565b81549060031b9086821b91600019901b191617905583855260066020528420918254161790557f3621586063592251acf2253a10fe8119554dbb0bf93d6e875b85a3a66a2166b98280a280f35b634e487b7160e01b865260419052602485fd5b604182634e487b7160e01b6000525260246000fd5b906020606492519162461bcd60e51b8352820152601060248201526f416c726561647920747261636b696e6760801b6044820152fd5b905034610511576020366003190112610511576020928291358152600b845220549051908152f35b8284346102575750610ca636611996565b5050610ccd610cb3611cb5565b839291925193849315158452806020850152830190611a03565b0390f35b50503461022c578160031936011261022c576020906008549051908152f35b905034610511576020366003190112610511578160e09382358152826020522080549260018201549260028301546003840154918401549260ff600660058701549601541695815197885260208801528601526060850152608084015260a0830152151560c0820152f35b9050346105115760203660031901126105115760209282913581526007845220549051908152f35b50503461022c578160031936011261022c5760025490516001600160a01b039091168152602090f35b50503461022c578160031936011261022c576020905162093a808152f35b83833461022c5780610ddb36611996565b9080929181010312610422576001903591828452846020528320610e0560ff600683015416611a75565b01549262093a808401809411610e435750610e266108b69293421015611c6f565b610e2f81611ef5565b90610e3e611d4c831015611c2f565b6122c0565b634e487b7160e01b835260119052602482fd5b50503461022c578160031936011261022c5760015490516001600160a01b039091168152602090f35b91905034610511576020908160031936011261054a5782359160018060a01b039360019460248382885416865192838092634d8c928d60e11b825233888301525afa801561110f5788906110d5575b610ed89150611bb3565b84875260098352838720336000528352610ef960ff85600020541615611bf1565b84875281835285848820610f1360ff600683015416611a75565b610f29611d4c610f2289611ef5565b1015611c2f565b015462093a8081018091116110c25790610f47889392421015611c6f565b85835260098452848320336000528452846000208760ff19825416179055868385836003541680611003575b505050541690813b1561051157856064849283885195869485936346b40cdf60e11b85528401523360248401528b60448401525af18015610ff957610fe1575b50507f89e1649e796bc46c9dcd5fd4505f79bfdd9197c8eccbdbaf05a6bfd1cb9ea09b91519384523393a380f35b610fea90611ab0565b610ff5578438610fb3565b8480fd5b84513d84823e3d90fd5b885163512ae2cb60e01b815233878201908152602081018c90529093849291839190829060400103925af19081156110b8578591611083575b5060ff8751911690818152887f3deb93045f72ce1d7fd6c683f79644b908c62d45d5615b482654972e36f77d6b883393a31561107b575b838538610f73565b965086611073565b90508581813d83116110b1575b61109a8183611b12565b81010312610ff5576110ab90611ca7565b3861103c565b503d611090565b87513d87823e3d90fd5b634e487b7160e01b885260118352602488fd5b508381813d8311611108575b6110eb8183611b12565b81010312611104576110ff610ed891611ba6565b610ece565b8780fd5b503d6110e1565b85513d8a823e3d90fd5b83833461022c5760a036600319011261022c5782356084359161113a611f31565b818452846020528084209261115560ff600686015416611a75565b603281028181046032148215171561122d579560646108b69697049061117d82602435611b83565b95600281015491828811611223575b7f63bd409a0ca0450137d1b574e1e74a5a18cc8934d8f718c1603619b971ce67377fa924d670d57ce0c4ef66945fcc39ba0d6082deb70a897faa080424140b0b1c7d95938389989694938b60038b9601556044359082015560056064359101556111f583611ef5565b86519a8b5260208b019190915260408a0181905298606090a282519182526020820152a26108b182826120fe565b919650869161118c565b634e487b7160e01b865260118752602486fd5b50503461022c578160031936011261022c5760035490516001600160a01b039091168152602090f35b83833461022c578060031936011261022c57611283611980565b90336001600160a01b038316036112a05750610589919235612089565b5163334bd91960e11b81528390fd5b8284346102575780600319360112610257579080519182906005549182855260208095018093600584527f036b6384b5eca791c62761152d0c79bb0604c104a5fb6f4eb0703f3154bb3db090845b81811061134e5750505081611313910382611b12565b83519485948186019282875251809352850193925b82811061133757505050500390f35b835185528695509381019392810192600101611328565b8254845292880192600192830192016112fd565b50503461022c578160031936011261022c5760209051611d4c8152f35b9190503461051157806003193601126105115761058991356113a46001610573611980565b61200b565b91905034610511576020366003190112610511578060a0938335938482526020522060018101549260028201549260ff60066113e9600386015494611ef5565b940154169381519586526020860152840152606083015215156080820152f35b90503461051157602036600319011261051157816020936001923581528085522001549051908152f35b905034610511576020918260031936011261054a576001548151634d8c928d60e11b81523381850152833593916001600160a01b03919086908290602490829086165afa801561166557879061162b575b61148e9150611bb3565b838652600a8552828620338752855260ff8387205416156115e9578386526009855282862033875285526114c860ff848820541615611bf1565b83865281855260018387206114e360ff600683015416611a75565b6114f2611d4c610f2288611ef5565b015462093a8081018091116115d6579061150f8792421015611c6f565b848252600986528382203383528652838220600160ff198254161790556001541691823b1561022c576064859183865195869485936346b40cdf60e11b8552840152336024840152600260448401525af180156115cc57611599575b50516002815233927f89e1649e796bc46c9dcd5fd4505f79bfdd9197c8eccbdbaf05a6bfd1cb9ea09b91a380f35b936115c57f89e1649e796bc46c9dcd5fd4505f79bfdd9197c8eccbdbaf05a6bfd1cb9ea09b9295611ab0565b939061156b565b82513d87823e3d90fd5b634e487b7160e01b875260118352602487fd5b5083606492519162461bcd60e51b8352820152601c60248201527f446964206e6f7420706172746963697061746520696e20706f6c6c73000000006044820152fd5b508581813d831161165e575b6116418183611b12565b8101031261165a5761165561148e91611ba6565b611484565b8680fd5b503d611637565b84513d89823e3d90fd5b91905034610511576020908160031936011261054a578235926080825161169581611ada565b3690376116a184611ef5565b9260018060a01b036002541695835195630af4da4160e01b875260808785818b5afa9687156103e15782976117c8575b5082859697988596519687809263049672b760e41b82525afa9485156117be57829561178f575b5081528282528481209460ff6006870154169586611780575b8661174f575b50519586528186015b83821061173a5760e087878760a0830152151560c0820152f35b82806001928a51815201980191019096611720565b6001919650015462093a80810180911161176d574210159438611717565b634e487b7160e01b825260118452602482fd5b9550611d4c8851101595611711565b9094508281813d83116117b7575b6117a78183611b12565b8101031261022c575193386116f8565b503d61179d565b86513d84823e3d90fd5b84959697506117e6849160803d6080116106ea576106dc8183611b12565b979695506116d1565b905034610511576020366003190112610511578160209360ff923581526006855220541690519015158152f35b91905034610511578260031936011261051157600254815163049672b760e41b81529260209184919082906001600160a01b03165afa9182156118a257839261186a575b6020838351908152f35b9091506020813d60201161189a575b8161188660209383611b12565b810103126105115760209250519038611860565b3d9150611879565b81513d85823e3d90fd5b91905034610511576020366003190112610511578135916118cb611f31565b82845260066020526118e260ff8386205416611a75565b8284526020526006818420019060ff1991828154169055600660205283209081541690557f96fbf803f14da8437e0cbe34df7152f998dbc3b7e2343c52fb4285e90387a9ca8280a280f35b849134610511576020366003190112610511573563ffffffff60e01b81168091036105115760209250637965db0b60e01b811490811561196f575b5015158152f35b6301ffc9a760e01b14905083611968565b602435906001600160a01b038216820361042257565b9060206003198301126104225760043567ffffffffffffffff9283821161042257806023830112156104225781600401359384116104225760248483010111610422576024019190565b60005b8381106119f35750506000910152565b81810151838201526020016119e3565b90602091611a1c815180928185528580860191016119e0565b601f01601f1916010190565b600554811015611a5f5760056000527f036b6384b5eca791c62761152d0c79bb0604c104a5fb6f4eb0703f3154bb3db00190600090565b634e487b7160e01b600052603260045260246000fd5b15611a7c57565b60405162461bcd60e51b815260206004820152600c60248201526b4e6f7420747261636b696e6760a01b6044820152606490fd5b67ffffffffffffffff8111611ac457604052565b634e487b7160e01b600052604160045260246000fd5b6080810190811067ffffffffffffffff821117611ac457604052565b6040810190811067ffffffffffffffff821117611ac457604052565b90601f8019910116810190811067ffffffffffffffff821117611ac457604052565b906080828203126104225780601f830112156104225760405191611b5783611ada565b82906080810192831161042257905b828210611b735750505090565b8151815260209182019101611b66565b91908201809211611b9057565b634e487b7160e01b600052601160045260246000fd5b5190811515820361042257565b15611bba57565b60405162461bcd60e51b815260206004820152600f60248201526e139bdd081dda1a5d195b1a5cdd1959608a1b6044820152606490fd5b15611bf857565b60405162461bcd60e51b815260206004820152600f60248201526e105b1c9958591e4818db185a5b5959608a1b6044820152606490fd5b15611c3657565b60405162461bcd60e51b8152602060048201526011602482015270151a1c995cda1bdb19081b9bdd081b595d607a1b6044820152606490fd5b15611c7657565b60405162461bcd60e51b8152602060048201526009602482015268546f6f206561726c7960b81b6044820152606490fd5b519060ff8216820361042257565b60055460005b818110611ceb5750506000906040516020810181811067ffffffffffffffff821117611ac4576040526000815290565b611cf481611a28565b90549060031b1c806000526004906020918083526040806000209260ff60068501541615611da15760018094015462093a808101809111611dae574210611da157611d3e81611ef5565b90611d4c821015611d59575050505050506001905b01611cbb565b825195860152848201528084529295945090925060608501919067ffffffffffffffff831186841017611d8c5750529190565b604190634e487b7160e01b6000525260246000fd5b5050505050600190611d53565b601184634e487b7160e01b6000525260246000fd5b15611dca57565b60405162461bcd60e51b8152602060048201526014602482015273141c9bdc195c9d1e481b9bdd081d1c9858dad95960621b6044820152606490fd5b81601f8201121561042257805167ffffffffffffffff8111611ac45760405192611e3a601f8301601f191660200185611b12565b8184526020828401011161042257611e5891602080850191016119e0565b90565b6101408183031261042257805192602082015167ffffffffffffffff908181116104225784611e8b918501611e06565b93604084015191821161042257611ea3918401611e06565b9160608101519160808201519160a08101519160c082015191611ec860e08201611ca7565b91611e58610120611edc6101008501611ba6565b9301611ba6565b60ff60019116019060ff8211611b9057565b600052600460205260406000206002810154908115611f2a576003015461271090818102918183041490151715611b90570490565b5050600090565b3360009081527fee57cd81e84075558e8fcc182a1f4393f91fc97f963a136e66b7f949a62f319f60205260409020547f97667070c54ef182b0f5858b034beac1b6f3089aa2d3188bb1e8929f4fa9b9299060ff1615611f8d5750565b6044906040519063e2517d3f60e01b82523360048301526024820152fd5b3360009081527fad3228b676f7d3cd4284a5443f17f1962b36e491b30a40b2405849e597ba5fb5602052604081205460ff1615611f8d5750565b80600052600060205260406000203360005260205260ff6040600020541615611f8d5750565b9060009180835282602052604083209160018060a01b03169182845260205260ff6040842054161560001461208457808352826020526040832082845260205260408320600160ff198254161790557f2f8788117e7eff1d82e926ec794901d17c78024a50270940304540a733656f0d339380a4600190565b505090565b9060009180835282602052604083209160018060a01b03169182845260205260ff6040842054166000146120845780835282602052604083208284526020526040832060ff1981541690557ff6391f5c32d9c69d2a47ea670b442974b53935d1edc7fd64eb21e047a839171b339380a4600190565b908160005260209060078252604061211d816000205460085490611b83565b4210612261576109c48210156121a6577f505a29c5397a0038bf34d9f7baf0047c3f5eae6323bf8450c1e34dacf7cc2a1792815161215a81611af6565b60148152733ab933b2b73a2fb830b93a34b1b4b830ba34b7b760611b82820152925b856000526007825242836000205561219d8351948486958652850190611a03565b918301520390a2565b61177082101580612272575b15612204577f505a29c5397a0038bf34d9f7baf0047c3f5eae6323bf8450c1e34dacf7cc2a179281516121e481611af6565b600e81526d36b4b632b9ba37b732afb732b0b960911b828201529261217c565b611b5882101580612267575b15612261577f505a29c5397a0038bf34d9f7baf0047c3f5eae6323bf8450c1e34dacf7cc2a1792815161224281611af6565b600d81526c70686173655f636c6f73696e6760981b828201529261217c565b50505050565b50611d4c8210612210565b50611d4c82106121b2565b9081600052600460205260016040600020015462093a808101809111611b905742106122bc57611d4c8110156122b1575050565b6122ba916122c0565b565b5050565b600154604080516332665ffb60e01b81526004810184905292936001600160a01b039092169260008082602481885afa9182156123df5781926123b9575b5060ff82169460038610612316575b50505050505050565b803b1561022c5781809160248651809481936340d57a6760e11b83528c60048401525af18015610ff957606095937fd786d06dd56df8b68a470fb87593bd3d76a14eeea5cf10760563177bd21496b097959360ff9361238f936123aa575b50898152600460205260038582204260018201550155611ee3565b8251948552166020840152820152a23880808080808061230d565b6123b390611ab0565b38612374565b6123ce9192503d8084833e6105318183611b12565b5050965050505050505090386122fe565b508251903d90823e3d90fdfea2646970667358221220bde560d664ab99dd02574bbb45638c59fe125448d9ba7e850b8197192e7aa44e64736f6c634300081800332f8788117e7eff1d82e926ec794901d17c78024a50270940304540a733656f0d",
  "linkReferences": {},
  "deployedLinkReferences": {}
}