{
  "_format": "hh-sol-artifact-1",
  "contractName": "PhaseManager",
  "sourceName": "contracts/PhaseManager.sol",
  "abi": [
    {
      "inputs": [
        {
          "internalType": "address",
          "name": "_propertyToken",
          "type": "address"
        },
        {
          "internalType": "address",
          "name": "_governance",
          "type": "address"
        }
      ],
      "stateMutability": "nonpayable",
      "type": "constructor"
    },
    {
      "inputs": [],
      "name": "AccessControlBadConfirmation",
      "type": "error"
    },
    {
      "inputs": [
        {
          "internalType": "address",
          "name": "account",
          "type": "address"
        },
        {
          "internalType": "bytes32",
          "name": "neededRole",
          "type": "bytes32"
        }
      ],
      "name": "AccessControlUnauthorizedAccount",
      "type": "error"
    },
    {
      "anonymous": false,
      "inputs": [
        {
          "indexed": true,
          "internalType": "uint256",
          "name": "propertyId",
          "type": "uint256"
        },
        {
          "indexed": false,
          "internalType": "uint256",
          "name": "activeVoters",
          "type": "uint256"
        },
        {
          "indexed": false,
          "internalType": "uint256",
          "name": "totalEligible",
          "type": "uint256"
        },
        {
          "indexed": false,
          "internalType": "uint256",
          "name": "engagementPercent",
          "type": "uint256"
        }
      ],
      "name": "EngagementUpdated",
      "type": "event"
    },
    {
      "anonymous": false,
      "inputs": [
        {
          "indexed": true,
          "internalType": "uint256",
          "name": "propertyId",
          "type": "uint256"
        },
        {
          "indexed": false,
          "internalType": "string",
          "name": "nudgeType",
          "type": "string"
        },
        {
          "indexed": false,
          "internalType": "uint256",
          "name": "engagementPercent",
          "type": "uint256"
        }
      ],
      "name": "NudgeTriggered",
      "type": "event"
    },
    {
      "anonymous": false,
      "inputs": [
        {
          "indexed": true,
          "internalType": "uint256",
          "name": "propertyId",
          "type": "uint256"
        },
        {
          "indexed": false,
          "internalType": "uint8",
          "name": "fromPhase",
          "type": "uint8"
        },
        {
          "indexed": false,
          "internalType": "uint8",
          "name": "toPhase",
          "type": "uint8"
        },
        {
          "indexed": false,
          "internalType": "uint256",
          "name": "engagementPercent",
          "type": "uint256"
        }
      ],
      "name": "PhaseAdvancedByEngagement",
      "type": "event"
    },
    {
      "anonymous": false,
      "inputs": [
        {
          "indexed": true,
          "internalType": "uint256",
          "name": "propertyId",
          "type": "uint256"
        },
        {
          "indexed": false,
          "internalType": "uint8",
          "name": "fromPhase",
          "type": "uint8"
        },
        {
          "indexed": false,
          "internalType": "uint8",
          "name": "toPhase",
          "type": "uint8"
        }
      ],
      "name": "PhaseAdvancedBySubscription",
      "type": "event"
    },
    {
      "anonymous": false,
      "inputs": [
        {
          "indexed": true,
          "internalType": "uint256",
          "name": "propertyId",
          "type": "uint256"
        }
      ],
      "name": "PropertyTrackingStarted",
      "type": "event"
    },
    {
      "anonymous": false,
      "inputs": [
        {
          "indexed": true,
          "internalType": "uint256",
          "name": "propertyId",
          "type": "uint256"
        }
      ],
      "name": "PropertyTrackingStopped",
      "type": "event"
    },
    {
      "anonymous": false,
      "inputs": [
        {
          "indexed": true,
          "internalType": "bytes32",
          "name": "role",
          "type": "bytes32"
        },
        {
          "indexed": true,
          "internalType": "bytes32",
          "name": "previousAdminRole",
          "type": "bytes32"
        },
        {
          "indexed": true,
          "internalType": "bytes32",
          "name": "newAdminRole",
          "type": "bytes32"
        }
      ],
      "name": "RoleAdminChanged",
      "type": "event"
    },
    {
      "anonymous": false,
      "inputs": [
        {
          "indexed": true,
          "internalType": "bytes32",
          "name": "role",
          "type": "bytes32"
        },
        {
          "indexed": true,
          "internalType": "address",
          "name": "account",
          "type": "address"
        },
        {
          "indexed": true,
          "internalType": "address",
          "name": "sender",
          "type": "address"
        }
      ],
      "name": "RoleGranted",
      "type": "event"
    },
    {
      "anonymous": false,
      "inputs": [
        {
          "indexed": true,
          "internalType": "bytes32",
          "name": "role",
          "type": "bytes32"
        },
        {
          "indexed": true,
          "internalType": "address",
          "name": "account",
          "type": "address"
        },
        {
          "indexed": true,
          "internalType": "address",
          "name": "sender",
          "type": "address"
        }
      ],
      "name": "RoleRevoked",
      "type": "event"
    },
    {
      "inputs": [],
      "name": "DEFAULT_ADMIN_ROLE",
      "outputs": [
        {
          "internalType": "bytes32",
          "name": "",
          "type": "bytes32"
        }
      ],
      "stateMutability": "view",
      "type": "function"
    },
    {
      "inputs": [],
      "name": "ENGAGEMENT_THRESHOLD",
      "outputs": [
        {
          "internalType": "uint256",
          "name": "",
          "type": "uint256"
        }
      ],
      "stateMutability": "view",
      "type": "function"
    },
    {
      "inputs": [],
      "name": "MIN_ENGAGEMENT_PERIOD",
      "outputs": [
        {
          "internalType": "uint256",
          "name": "",
          "type": "uint256"
        }
      ],
      "stateMutability": "view",
      "type": "function"
    },
    {
      "inputs": [],
      "name": "OPERATOR_ROLE",
      "outputs": [
        {
          "internalType": "bytes32",
          "name": "",
          "type": "bytes32"
        }
      ],
      "stateMutability": "view",
      "type": "function"
    },
    {
      "inputs": [
        {
          "internalType": "uint256",
          "name": "propertyId",
          "type": "uint256"
        }
      ],
      "name": "calculateEngagement",
      "outputs": [
        {
          "internalType": "uint256",
          "name": "",
          "type": "uint256"
        }
      ],
      "stateMutability": "view",
      "type": "function"
    },
    {
      "inputs": [
        {
          "internalType": "uint256",
          "name": "propertyId",
          "type": "uint256"
        }
      ],
      "name": "checkSubscriptionAdvancement",
      "outputs": [],
      "stateMutability": "nonpayable",
      "type": "function"
    },
    {
      "inputs": [
        {
          "internalType": "bytes",
          "name": "",
          "type": "bytes"
        }
      ],
      "name": "checkUpkeep",
      "outputs": [
        {
          "internalType": "bool",
          "name": "upkeepNeeded",
          "type": "bool"
        },
        {
          "internalType": "bytes",
          "name": "performData",
          "type": "bytes"
        }
      ],
      "stateMutability": "view",
      "type": "function"
    },
    {
      "inputs": [
        {
          "internalType": "uint256",
          "name": "propertyId",
          "type": "uint256"
        }
      ],
      "name": "getEngagement",
      "outputs": [
        {
          "internalType": "uint256",
          "name": "phaseStartTime",
          "type": "uint256"
        },
        {
          "internalType": "uint256",
          "name": "totalEligible",
          "type": "uint256"
        },
        {
          "internalType": "uint256",
          "name": "activeVoters",
          "type": "uint256"
        },
        {
          "internalType": "uint256",
          "name": "engagementPercent",
          "type": "uint256"
        },
        {
          "internalType": "bool",
          "name": "isTracking",
          "type": "bool"
        }
      ],
      "stateMutability": "view",
      "type": "function"
    },
    {
      "inputs": [
        {
          "internalType": "bytes32",
          "name": "role",
          "type": "bytes32"
        }
      ],
      "name": "getRoleAdmin",
      "outputs": [
        {
          "internalType": "bytes32",
          "name": "",
          "type": "bytes32"
        }
      ],
      "stateMutability": "view",
      "type": "function"
    },
    {
      "inputs": [],
      "name": "getTrackedProperties",
      "outputs": [
        {
          "internalType": "uint256[]",
          "name": "",
          "type": "uint256[]"
        }
      ],
      "stateMutability": "view",
      "type": "function"
    },
    {
      "inputs": [],
      "name": "governance",
      "outputs": [
        {
          "internalType": "contract IGovernance",
          "name": "",
          "type": "address"
        }
      ],
      "stateMutability": "view",
      "type": "function"
    },
    {
      "inputs": [
        {
          "internalType": "bytes32",
          "name": "role",
          "type": "bytes32"
        },
        {
          "internalType": "address",
          "name": "account",
          "type": "address"
        }
      ],
      "name": "grantRole",
      "outputs": [],
      "stateMutability": "nonpayable",
      "type": "function"
    },
    {
      "inputs": [
        {
          "internalType": "bytes32",
          "name": "role",
          "type": "bytes32"
        },
        {
          "internalType": "address",
          "name": "account",
          "type": "address"
        }
      ],
      "name": "hasRole",
      "outputs": [
        {
          "internalType": "bool",
          "name": "",
          "type": "bool"
        }
      ],
      "stateMutability": "view",
      "type": "function"
    },
    {
      "inputs": [
        {
          "internalType": "uint256",
          "name": "",
          "type": "uint256"
        }
      ],
      "name": "isTracked",
      "outputs": [
        {
          "internalType": "bool",
          "name": "",
          "type": "bool"
        }
      ],
      "stateMutability": "view",
      "type": "function"
    },
    {
      "inputs": [
        {
          "internalType": "uint256",
          "name": "",
          "type": "uint256"
        }
      ],
      "name": "lastNudgeTime",
      "outputs": [
        {
          "internalType": "uint256",
          "name": "",
          "type": "uint256"
        }
      ],
      "stateMutability": "view",
      "type": "function"
    },
    {
      "inputs": [],
      "name": "nudgeCooldown",
      "outputs": [
        {
          "internalType": "uint256",
          "name": "",
          "type": "uint256"
        }
      ],
      "stateMutability": "view",
      "type": "function"
    },
    {
      "inputs": [
        {
          "internalType": "bytes",
          "name": "performData",
          "type": "bytes"
        }
      ],
      "name": "performUpkeep",
      "outputs": [],
      "stateMutability": "nonpayable",
      "type": "function"
    },
    {
      "inputs": [
        {
          "internalType": "uint256",
          "name": "",
          "type": "uint256"
        }
      ],
      "name": "propertyEngagement",
      "outputs": [
        {
          "internalType": "uint256",
          "name": "propertyId",
          "type": "uint256"
        },
        {
          "internalType": "uint256",
          "name": "phaseStartTime",
          "type": "uint256"
        },
        {
          "internalType": "uint256",
          "name": "totalEligibleVoters",
          "type": "uint256"
        },
        {
          "internalType": "uint256",
          "name": "activeVoters",
          "type": "uint256"
        },
        {
          "internalType": "uint256",
          "name": "totalProposals",
          "type": "uint256"
        },
        {
          "internalType": "uint256",
          "name": "votedProposals",
          "type": "uint256"
        },
        {
          "internalType": "bool",
          "name": "isTracking",
          "type": "bool"
        }
      ],
      "stateMutability": "view",
      "type": "function"
    },
    {
      "inputs": [],
      "name": "propertyToken",
      "outputs": [
        {
          "internalType": "contract IPropertyToken",
          "name": "",
          "type": "address"
        }
      ],
      "stateMutability": "view",
      "type": "function"
    },
    {
      "inputs": [
        {
          "internalType": "bytes32",
          "name": "role",
          "type": "bytes32"
        },
        {
          "internalType": "address",
          "name": "callerConfirmation",
          "type": "address"
        }
      ],
      "name": "renounceRole",
      "outputs": [],
      "stateMutability": "nonpayable",
      "type": "function"
    },
    {
      "inputs": [
        {
          "internalType": "bytes32",
          "name": "role",
          "type": "bytes32"
        },
        {
          "internalType": "address",
          "name": "account",
          "type": "address"
        }
      ],
      "name": "revokeRole",
      "outputs": [],
      "stateMutability": "nonpayable",
      "type": "function"
    },
    {
      "inputs": [
        {
          "internalType": "uint256",
          "name": "newCooldown",
          "type": "uint256"
        }
      ],
      "name": "setNudgeCooldown",
      "outputs": [],
      "stateMutability": "nonpayable",
      "type": "function"
    },
    {
      "inputs": [
        {
          "internalType": "uint256",
          "name": "propertyId",
          "type": "uint256"
        },
        {
          "internalType": "uint256",
          "name": "totalEligibleVoters",
          "type": "uint256"
        }
      ],
      "name": "startTracking",
      "outputs": [],
      "stateMutability": "nonpayable",
      "type": "function"
    },
    {
      "inputs": [
        {
          "internalType": "uint256",
          "name": "propertyId",
          "type": "uint256"
        }
      ],
      "name": "stopTracking",
      "outputs": [],
      "stateMutability": "nonpayable",
      "type": "function"
    },
    {
      "inputs": [
        {
          "internalType": "bytes4",
          "name": "interfaceId",
          "type": "bytes4"
        }
      ],
      "name": "supportsInterface",
      "outputs": [
        {
          "internalType": "bool",
          "name": "",
          "type": "bool"
        }
      ],
      "stateMutability": "view",
      "type": "function"
    },
    {
      "inputs": [
        {
          "internalType": "uint256",
          "name": "",
          "type": "uint256"
        }
      ],
      "name": "trackedProperties",
      "outputs": [
        {
          "internalType": "uint256",
          "name": "",
          "type": "uint256"
        }
      ],
      "stateMutability": "view",
      "type": "function"
    },
    {
      "inputs": [
        {
          "internalType": "uint256",
          "name": "propertyId",
          "type": "uint256"
        },
        {
          "internalType": "uint256",
          "name": "activeVoters",
          "type": "uint256"
        },
        {
          "internalType": "uint256",
          "name": "totalProposals",
          "type": "uint256"
        },
        {
          "internalType": "uint256",
          "name": "votedProposals",
          "type": "uint256"
        }
      ],
      "name": "updateEngagement",
      "outputs": [],
      "stateMutability": "nonpayable",
      "type": "function"
    }
  ],
  "bytecode": "0x608034620000b557601f620017bf38819003918201601f19168301916001600160401b03831184841017620000ba578084926040948552833981010312620000b5576200005a60206200005283620000d0565b9201620000d0565b62015180600755600180546001600160a01b039384166001600160a01b031991821617909155600280549290931691161790556200009833620000e5565b50620000a43362000165565b506040516115979081620002088239f35b600080fd5b634e487b7160e01b600052604160045260246000fd5b51906001600160a01b0382168203620000b557565b6001600160a01b031660008181527fad3228b676f7d3cd4284a5443f17f1962b36e491b30a40b2405849e597ba5fb5602052604081205490919060ff166200016157818052816020526040822081835260205260408220600160ff1982541617905533916000805160206200179f8339815191528180a4600190565b5090565b6001600160a01b031660008181527fee57cd81e84075558e8fcc182a1f4393f91fc97f963a136e66b7f949a62f319f60205260408120549091907f97667070c54ef182b0f5858b034beac1b6f3089aa2d3188bb1e8929f4fa9b9299060ff166200020257808352826020526040832082845260205260408320600160ff198254161790556000805160206200179f833981519152339380a4600190565b50509056fe608060408181526004918236101561001657600080fd5b600092833560e01c91826301ffc9a714610c4c5750816306785d8a14610bcb5781631194f9e914610b9e578163248a9ca314610b745781632e94dfda14610b145781632f2ff15d14610af657816330ae780514610ad9578163313b79da14610a2857816336568abe146109ed57816343ae2695146109c45781634585e33b146108dc5781635513de41146108be5781635aa6e675146108955781635da6559e1461086d57816363e86eb8146108015781636675584f146107e25781636e04ff0d146107a6578163785b21901461062a5781638085b813146105f25781638e5359e01461054757816391d148541461050d57816394c9825d14610460578163a217fddf14610445578163d547741f14610410578163d5612486146101b5578163f333d6c21461018b575063f5b541a61461014e57600080fd5b34610187578160031936011261018757602090517f97667070c54ef182b0f5858b034beac1b6f3089aa2d3188bb1e8929f4fa9b9298152f35b5080fd5b8284346101b25760203660031901126101b257506101ab60209235610fdf565b9051908152f35b80fd5b83915034610187576020928360031936011261040c5760015481516332665ffb60e01b815283358185018190529390916001600160a01b0316908583602481855afa9283156104025786936103d4575b508351636ea9967760e01b815281810186815260ff851660208201528890829081906040010381865afa9081156103ca578791610399575b5084516304fa617360e01b815282810187815260ff861660208201528990829081906040010381875afa90811561038f57889161035e575b50101580610351575b610286578580f35b813b1561034d57846024879283875195869485936340d57a6760e11b85528401525af1801561034357610310575b508394837f7214c5e85040cb3e35452fa6ff842070826b1d0bd195171e1c75e6d07bc1b96c94955260038152856003848220426001820155015560ff6102f983611161565b818551941684521690820152a28082808080808580f35b9361033c7f7214c5e85040cb3e35452fa6ff842070826b1d0bd195171e1c75e6d07bc1b96c9495610f3c565b93926102b4565b83513d87823e3d90fd5b8580fd5b50600360ff84161061027e565b90508881813d8311610388575b6103758183610f82565b81010312610384575189610275565b8780fd5b503d61036b565b86513d8a823e3d90fd5b90508781813d83116103c3575b6103b08183610f82565b810103126103bf57518861023d565b8680fd5b503d6103a6565b85513d89823e3d90fd5b6103f19193503d8088833e6103e98183610f82565b8101906110d6565b505096505050505050509187610205565b84513d88823e3d90fd5b8280fd5b5050346101875760016104419161043c61042936610c9f565b9390928387528660205286200154610e23565b610ec7565b5080f35b50503461018757816003193601126101875751908152602090f35b90503461040c57608036600319011261040c5761050a91817f63bd409a0ca0450137d1b574e1e74a5a18cc8934d8f718c1603619b971ce6737606060029435938493602435916104ae610da9565b858a526003602052808a20916104ca60ff600685015416610fa4565b8360038401556044359083015560643560058301556104e886610fdf565b978892015481519384526020840152820152a261050582826112a8565b611031565b80f35b5050346101875760ff8160209361052336610c9f565b9082528186528282206001600160a01b039091168252855220549151911615158152f35b90503461040c57602036600319011261040c578035918380528360205280842033855260205260ff8185205416156105d557610e10831015806105c8575b1561059257505060075580f35b906020606492519162461bcd60e51b8352820152601060248201526f24b73b30b634b21031b7b7b63237bbb760811b6044820152fd5b5062093a80831115610585565b9083604492519163e2517d3f60e01b835233908301526024820152fd5b8284346101b25760203660031901126101b257823592548310156101b2575061061c602092610d5c565b91905490519160031b1c8152f35b838334610187578060031936011261018757823590610647610da9565b818352600560205260ff81842054166107715780519060e0820182811067ffffffffffffffff82111761075e57815282825260066020830192428452828101602435815260608201878152608083019088825260a084019289845260c085019760018952898b526003602052878b2095518655516001860155516002850155516003840155518883015551600582015501915115159160ff199260ff84835416911617905584546801000000000000000081101561075e5790610711828760018095019055610d5c565b81549060031b9086821b91600019901b191617905583855260056020528420918254161790557f3621586063592251acf2253a10fe8119554dbb0bf93d6e875b85a3a66a2166b98280a280f35b634e487b7160e01b855260418652602485fd5b5162461bcd60e51b8152602081850152601060248201526f416c726561647920747261636b696e6760801b6044820152606490fd5b8284346101b257506107b736610cca565b50506107de6107c461143a565b839291925193849315158452806020850152830190610d37565b0390f35b5050346101875781600319360112610187576020906007549051908152f35b90503461040c57602036600319011261040c578160e0938235815260036020522080549260018201549260028301546003840154918401549260ff600660058701549601541695815197885260208801528601526060850152608084015260a0830152151560c0820152f35b90503461040c57602036600319011261040c5760209282913581526006845220549051908152f35b50503461018757816003193601126101875760025490516001600160a01b039091168152602090f35b5050346101875781600319360112610187576020905162093a808152f35b8391503461018757826108ee36610cca565b908092918101031261040c57358083526003602052600184842061091860ff600683015416610fa4565b015462093a8081018091116109b15742106109825761093681610fdf565b91611d4c831061094b57509061050a91611173565b606490602086519162461bcd60e51b83528201526011602482015270151a1c995cda1bdb19081b9bdd081b595d607a1b6044820152fd5b835162461bcd60e51b81526020818401526009602482015268546f6f206561726c7960b81b6044820152606490fd5b634e487b7160e01b845260118352602484fd5b50503461018757816003193601126101875760015490516001600160a01b039091168152602090f35b838334610187576109fd36610c9f565b91336001600160a01b03841603610a1957509061044191610ec7565b5163334bd91960e11b81528490fd5b905082346101b257806003193601126101b2579190815192838254808652602080960190819484527f8a35acfbc15ff81a39ae7d344fd709f28e8600b4aa8c65c6b64bfe7fe36bd19b90845b818110610ac55750505081610a8a910382610f82565b83519485948186019282875251809352850193925b828110610aae57505050500390f35b835185528695509381019392810192600101610a9f565b825484529288019260019283019201610a74565b50503461018757816003193601126101875760209051611d4c8152f35b50503461018757600161044191610b0f61042936610c9f565b610e49565b838334610187576020366003190112610187578060a093359283815260036020522060018101549260028201549260ff6006610b54600386015494610fdf565b940154169381519586526020860152840152606083015215156080820152f35b90503461040c57602036600319011261040c57816020936001923581528085522001549051908152f35b90503461040c57602036600319011261040c578160209360ff923581526005855220541690519015158152f35b90503461040c57602036600319011261040c573590610be8610da9565b8183526005602052610bff60ff8285205416610fa4565b81835260036020526006818420019060ff1991828154169055600560205283209081541690557f96fbf803f14da8437e0cbe34df7152f998dbc3b7e2343c52fb4285e90387a9ca8280a280f35b84913461040c57602036600319011261040c573563ffffffff60e01b811680910361040c5760209250637965db0b60e01b8114908115610c8e575b5015158152f35b6301ffc9a760e01b14905083610c87565b6040906003190112610cc557600435906024356001600160a01b0381168103610cc55790565b600080fd5b906020600319830112610cc55760043567ffffffffffffffff92838211610cc55780602383011215610cc5578160040135938411610cc55760248483010111610cc5576024019190565b60005b838110610d275750506000910152565b8181015183820152602001610d17565b90602091610d5081518092818552858086019101610d14565b601f01601f1916010190565b600454811015610d935760046000527f8a35acfbc15ff81a39ae7d344fd709f28e8600b4aa8c65c6b64bfe7fe36bd19b0190600090565b634e487b7160e01b600052603260045260246000fd5b3360009081527fee57cd81e84075558e8fcc182a1f4393f91fc97f963a136e66b7f949a62f319f60205260409020547f97667070c54ef182b0f5858b034beac1b6f3089aa2d3188bb1e8929f4fa9b9299060ff1615610e055750565b6044906040519063e2517d3f60e01b82523360048301526024820152fd5b80600052600060205260406000203360005260205260ff6040600020541615610e055750565b9060009180835282602052604083209160018060a01b03169182845260205260ff60408420541615600014610ec257808352826020526040832082845260205260408320600160ff198254161790557f2f8788117e7eff1d82e926ec794901d17c78024a50270940304540a733656f0d339380a4600190565b505090565b9060009180835282602052604083209160018060a01b03169182845260205260ff604084205416600014610ec25780835282602052604083208284526020526040832060ff1981541690557ff6391f5c32d9c69d2a47ea670b442974b53935d1edc7fd64eb21e047a839171b339380a4600190565b67ffffffffffffffff8111610f5057604052565b634e487b7160e01b600052604160045260246000fd5b6040810190811067ffffffffffffffff821117610f5057604052565b90601f8019910116810190811067ffffffffffffffff821117610f5057604052565b15610fab57565b60405162461bcd60e51b815260206004820152600c60248201526b4e6f7420747261636b696e6760a01b6044820152606490fd5b60005260036020526040600020600281015490811561102a576003015461271090818102918183041490151715611014570490565b634e487b7160e01b600052601160045260246000fd5b5050600090565b9081600052600360205260016040600020015462093a80810180911161101457421061107057611d4c811015611065575050565b61106e91611173565b565b5050565b81601f82011215610cc557805167ffffffffffffffff8111610f5057604051926110a8601f8301601f191660200185610f82565b81845260208284010111610cc5576110c69160208085019101610d14565b90565b51908115158203610cc557565b61014081830312610cc557805192602082015167ffffffffffffffff90818111610cc55784611106918501611074565b936040840151918211610cc55761111e918401611074565b9160608101519160808201519160a08101519160c08201519160e081015160ff81168103610cc557916110c661012061115a61010085016110c9565b93016110c9565b60ff60019116019060ff821161101457565b600154604080516332665ffb60e01b81526004810184905292936001600160a01b039092169260008082602481885afa91821561129c578192611276575b5060ff821694600386106111c9575b50505050505050565b803b156101875781809160248651809481936340d57a6760e11b83528c60048401525af1801561126c57606095937fd786d06dd56df8b68a470fb87593bd3d76a14eeea5cf10760563177bd21496b097959360ff936112429361125d575b50898152600360205260038582204260018201550155611161565b8251948552166020840152820152a2388080808080806111c0565b61126690610f3c565b38611227565b84513d84823e3d90fd5b61128b9192503d8084833e6103e98183610f82565b5050965050505050505090386111b1565b508251903d90823e3d90fd5b906000828152602060068152604090818320546007548101809111611426574210611409576109c484101561134e577f505a29c5397a0038bf34d9f7baf0047c3f5eae6323bf8450c1e34dacf7cc2a1793825161130481610f66565b60148152733ab933b2b73a2fb830b93a34b1b4b830ba34b7b760611b83820152935b8681526006835283429120556113458351948486958652850190610d37565b918301520390a2565b6117708410158061141b575b156113ac577f505a29c5397a0038bf34d9f7baf0047c3f5eae6323bf8450c1e34dacf7cc2a1793825161138c81610f66565b600e81526d36b4b632b9ba37b732afb732b0b960911b8382015293611326565b611b5884101580611410575b15611409577f505a29c5397a0038bf34d9f7baf0047c3f5eae6323bf8450c1e34dacf7cc2a179382516113ea81610f66565b600d81526c70686173655f636c6f73696e6760981b8382015293611326565b5050505050565b50611d4c84106113b8565b50611d4c841061135a565b634e487b7160e01b84526011600452602484fd5b6000906004918254905b81811061148b575050604051600092602082019067ffffffffffffffff82118383101761147657506040526000815290565b604190634e487b7160e01b6000525260246000fd5b61149481610d5c565b9054600391821b1c8060005260209182526040806000209160ff600684015416156115435760018093015462093a80810180911161154c574210611543576114db81610fdf565b90611d4c8210156115125750505050505b60001981146114fd57600101611444565b601184634e487b7160e01b6000525260246000fd5b82519485015283820152808352919590935060608601925067ffffffffffffffff8311868410176114765750529190565b505050506114ec565b601189634e487b7160e01b6000525260246000fdfea26469706673582212207385fe94cd1049270e64ace715a19260ff2d98a7bf3b195a38572b09eeeec7cd64736f6c634300081400332f8788117e7eff1d82e926ec794901d17c78024a50270940304540a733656f0d",
  "linkReferences": {},
  "deployedLinkReferences": {}
}