{
  "_format": "hh-sol-artifact-1",
  "contractName": "PhaseManager",
  "sourceName": "contracts/PhaseManager.sol",
  "abi": [
    {
      "inputs": [
        {
          "internalType": "address",
          "name": "_propertyToken",
          "type": "address"
        },
        {
          "internalType": "address",
          "name": "_governance",
          "type": "address"
        }
      ],
      "stateMutability": "nonpayable",
      "type": "constructor"
    },
    {
      "inputs": [],
      "name": "AccessControlBadConfirmation",
      "type": "error"
    },
    {
      "inputs": [
        {
          "internalType": "address",
          "name": "account",
          "type": "address"
        },
        {
          "internalType": "bytes32",
          "name": "neededRole",
          "type": "bytes32"
        }
      ],
      "name": "AccessControlUnauthorizedAccount",
      "type": "error"
    },
    {
      "anonymous": false,
      "inputs": [
        {
          "indexed": true,
          "internalType": "uint256",
          "name": "propertyId",
          "type": "uint256"
        },
        {
          "indexed": true,
          "internalType": "address",
          "name": "claimer",
          "type": "address"
        },
        {
          "indexed": false,
          "internalType": "uint256",
          "name": "bonus",
          "type": "uint256"
        }
      ],
      "name": "BonusClaimed",
      "type": "event"
    },
    {
      "anonymous": false,
      "inputs": [
        {
          "indexed": true,
          "internalType": "uint256",
          "name": "propertyId",
          "type": "uint256"
        },
        {
          "indexed": false,
          "internalType": "uint256",
          "name": "demandBps",
          "type": "uint256"
        }
      ],
      "name": "DemandDrivenAdvancement",
      "type": "event"
    },
    {
      "anonymous": false,
      "inputs": [
        {
          "indexed": true,
          "internalType": "uint256",
          "name": "propertyId",
          "type": "uint256"
        },
        {
          "indexed": false,
          "internalType": "uint8",
          "name": "demandType",
          "type": "uint8"
        },
        {
          "indexed": false,
          "internalType": "uint256",
          "name": "demandBps",
          "type": "uint256"
        }
      ],
      "name": "DemandNudge",
      "type": "event"
    },
    {
      "anonymous": false,
      "inputs": [
        {
          "indexed": true,
          "internalType": "uint256",
          "name": "propertyId",
          "type": "uint256"
        },
        {
          "indexed": false,
          "internalType": "uint256",
          "name": "activeVoters",
          "type": "uint256"
        },
        {
          "indexed": false,
          "internalType": "uint256",
          "name": "totalEligible",
          "type": "uint256"
        },
        {
          "indexed": false,
          "internalType": "uint256",
          "name": "engagementPercent",
          "type": "uint256"
        }
      ],
      "name": "EngagementUpdated",
      "type": "event"
    },
    {
      "anonymous": false,
      "inputs": [
        {
          "indexed": true,
          "internalType": "uint256",
          "name": "propertyId",
          "type": "uint256"
        },
        {
          "indexed": true,
          "internalType": "address",
          "name": "user",
          "type": "address"
        },
        {
          "indexed": false,
          "internalType": "uint8",
          "name": "eligiblePhase",
          "type": "uint8"
        }
      ],
      "name": "GeoEligibilityChecked",
      "type": "event"
    },
    {
      "anonymous": false,
      "inputs": [
        {
          "indexed": true,
          "internalType": "address",
          "name": "newOracle",
          "type": "address"
        }
      ],
      "name": "GeoOracleUpdated",
      "type": "event"
    },
    {
      "anonymous": false,
      "inputs": [
        {
          "indexed": true,
          "internalType": "uint256",
          "name": "propertyId",
          "type": "uint256"
        },
        {
          "indexed": false,
          "internalType": "string",
          "name": "category",
          "type": "string"
        },
        {
          "indexed": false,
          "internalType": "int256",
          "name": "delta",
          "type": "int256"
        },
        {
          "indexed": false,
          "internalType": "uint256",
          "name": "newScore",
          "type": "uint256"
        }
      ],
      "name": "ImpactRecorded",
      "type": "event"
    },
    {
      "anonymous": false,
      "inputs": [
        {
          "indexed": true,
          "internalType": "uint256",
          "name": "propertyId",
          "type": "uint256"
        },
        {
          "indexed": false,
          "internalType": "string",
          "name": "nudgeType",
          "type": "string"
        },
        {
          "indexed": false,
          "internalType": "uint256",
          "name": "engagementPercent",
          "type": "uint256"
        }
      ],
      "name": "NudgeTriggered",
      "type": "event"
    },
    {
      "anonymous": false,
      "inputs": [
        {
          "indexed": true,
          "internalType": "uint256",
          "name": "propertyId",
          "type": "uint256"
        },
        {
          "indexed": false,
          "internalType": "uint8",
          "name": "fromPhase",
          "type": "uint8"
        },
        {
          "indexed": false,
          "internalType": "uint8",
          "name": "toPhase",
          "type": "uint8"
        },
        {
          "indexed": false,
          "internalType": "uint256",
          "name": "engagementPercent",
          "type": "uint256"
        }
      ],
      "name": "PhaseAdvancedByEngagement",
      "type": "event"
    },
    {
      "anonymous": false,
      "inputs": [
        {
          "indexed": true,
          "internalType": "uint256",
          "name": "propertyId",
          "type": "uint256"
        },
        {
          "indexed": false,
          "internalType": "uint8",
          "name": "fromPhase",
          "type": "uint8"
        },
        {
          "indexed": false,
          "internalType": "uint8",
          "name": "toPhase",
          "type": "uint8"
        }
      ],
      "name": "PhaseAdvancedBySubscription",
      "type": "event"
    },
    {
      "anonymous": false,
      "inputs": [
        {
          "indexed": true,
          "internalType": "uint256",
          "name": "propertyId",
          "type": "uint256"
        },
        {
          "indexed": false,
          "internalType": "uint256",
          "name": "pollParticipants",
          "type": "uint256"
        },
        {
          "indexed": false,
          "internalType": "uint256",
          "name": "bonusEngagement",
          "type": "uint256"
        }
      ],
      "name": "PollBonusApplied",
      "type": "event"
    },
    {
      "anonymous": false,
      "inputs": [
        {
          "indexed": true,
          "internalType": "uint256",
          "name": "propertyId",
          "type": "uint256"
        },
        {
          "indexed": true,
          "internalType": "address",
          "name": "participant",
          "type": "address"
        }
      ],
      "name": "PollParticipationRecorded",
      "type": "event"
    },
    {
      "anonymous": false,
      "inputs": [
        {
          "indexed": true,
          "internalType": "uint256",
          "name": "propertyId",
          "type": "uint256"
        }
      ],
      "name": "PropertyTrackingStarted",
      "type": "event"
    },
    {
      "anonymous": false,
      "inputs": [
        {
          "indexed": true,
          "internalType": "uint256",
          "name": "propertyId",
          "type": "uint256"
        }
      ],
      "name": "PropertyTrackingStopped",
      "type": "event"
    },
    {
      "anonymous": false,
      "inputs": [
        {
          "indexed": true,
          "internalType": "bytes32",
          "name": "role",
          "type": "bytes32"
        },
        {
          "indexed": true,
          "internalType": "bytes32",
          "name": "previousAdminRole",
          "type": "bytes32"
        },
        {
          "indexed": true,
          "internalType": "bytes32",
          "name": "newAdminRole",
          "type": "bytes32"
        }
      ],
      "name": "RoleAdminChanged",
      "type": "event"
    },
    {
      "anonymous": false,
      "inputs": [
        {
          "indexed": true,
          "internalType": "bytes32",
          "name": "role",
          "type": "bytes32"
        },
        {
          "indexed": true,
          "internalType": "address",
          "name": "account",
          "type": "address"
        },
        {
          "indexed": true,
          "internalType": "address",
          "name": "sender",
          "type": "address"
        }
      ],
      "name": "RoleGranted",
      "type": "event"
    },
    {
      "anonymous": false,
      "inputs": [
        {
          "indexed": true,
          "internalType": "bytes32",
          "name": "role",
          "type": "bytes32"
        },
        {
          "indexed": true,
          "internalType": "address",
          "name": "account",
          "type": "address"
        },
        {
          "indexed": true,
          "internalType": "address",
          "name": "sender",
          "type": "address"
        }
      ],
      "name": "RoleRevoked",
      "type": "event"
    },
    {
      "inputs": [],
      "name": "BONUS_TOKENS",
      "outputs": [
        {
          "internalType": "uint256",
          "name": "",
          "type": "uint256"
        }
      ],
      "stateMutability": "view",
      "type": "function"
    },
    {
      "inputs": [],
      "name": "DEFAULT_ADMIN_ROLE",
      "outputs": [
        {
          "internalType": "bytes32",
          "name": "",
          "type": "bytes32"
        }
      ],
      "stateMutability": "view",
      "type": "function"
    },
    {
      "inputs": [],
      "name": "ENGAGEMENT_THRESHOLD",
      "outputs": [
        {
          "internalType": "uint256",
          "name": "",
          "type": "uint256"
        }
      ],
      "stateMutability": "view",
      "type": "function"
    },
    {
      "inputs": [],
      "name": "MIN_ENGAGEMENT_PERIOD",
      "outputs": [
        {
          "internalType": "uint256",
          "name": "",
          "type": "uint256"
        }
      ],
      "stateMutability": "view",
      "type": "function"
    },
    {
      "inputs": [],
      "name": "OPERATOR_ROLE",
      "outputs": [
        {
          "internalType": "bytes32",
          "name": "",
          "type": "bytes32"
        }
      ],
      "stateMutability": "view",
      "type": "function"
    },
    {
      "inputs": [],
      "name": "POLL_BONUS_MULTIPLIER",
      "outputs": [
        {
          "internalType": "uint256",
          "name": "",
          "type": "uint256"
        }
      ],
      "stateMutability": "view",
      "type": "function"
    },
    {
      "inputs": [
        {
          "internalType": "uint256",
          "name": "propertyId",
          "type": "uint256"
        }
      ],
      "name": "calculateEngagement",
      "outputs": [
        {
          "internalType": "uint256",
          "name": "",
          "type": "uint256"
        }
      ],
      "stateMutability": "view",
      "type": "function"
    },
    {
      "inputs": [
        {
          "internalType": "uint256",
          "name": "propertyId",
          "type": "uint256"
        }
      ],
      "name": "checkSubscriptionAdvancement",
      "outputs": [],
      "stateMutability": "nonpayable",
      "type": "function"
    },
    {
      "inputs": [
        {
          "internalType": "bytes",
          "name": "",
          "type": "bytes"
        }
      ],
      "name": "checkUpkeep",
      "outputs": [
        {
          "internalType": "bool",
          "name": "upkeepNeeded",
          "type": "bool"
        },
        {
          "internalType": "bytes",
          "name": "performData",
          "type": "bytes"
        }
      ],
      "stateMutability": "view",
      "type": "function"
    },
    {
      "inputs": [
        {
          "internalType": "uint256",
          "name": "propertyId",
          "type": "uint256"
        }
      ],
      "name": "claimEngagementBonus",
      "outputs": [],
      "stateMutability": "nonpayable",
      "type": "function"
    },
    {
      "inputs": [
        {
          "internalType": "uint256",
          "name": "propertyId",
          "type": "uint256"
        }
      ],
      "name": "claimPollBoostBonus",
      "outputs": [],
      "stateMutability": "nonpayable",
      "type": "function"
    },
    {
      "inputs": [],
      "name": "geoOracle",
      "outputs": [
        {
          "internalType": "contract IGeoOracle",
          "name": "",
          "type": "address"
        }
      ],
      "stateMutability": "view",
      "type": "function"
    },
    {
      "inputs": [],
      "name": "getCommunityHealth",
      "outputs": [
        {
          "internalType": "uint256",
          "name": "",
          "type": "uint256"
        }
      ],
      "stateMutability": "view",
      "type": "function"
    },
    {
      "inputs": [
        {
          "internalType": "uint256",
          "name": "propertyId",
          "type": "uint256"
        }
      ],
      "name": "getDemandEngagementMetrics",
      "outputs": [
        {
          "internalType": "uint256",
          "name": "baseEngagement",
          "type": "uint256"
        },
        {
          "internalType": "uint256[4]",
          "name": "demandBars",
          "type": "uint256[4]"
        },
        {
          "internalType": "uint256",
          "name": "healthScore",
          "type": "uint256"
        },
        {
          "internalType": "bool",
          "name": "isReadyForAdvancement",
          "type": "bool"
        }
      ],
      "stateMutability": "view",
      "type": "function"
    },
    {
      "inputs": [
        {
          "internalType": "uint256",
          "name": "propertyId",
          "type": "uint256"
        }
      ],
      "name": "getEngagement",
      "outputs": [
        {
          "internalType": "uint256",
          "name": "phaseStartTime",
          "type": "uint256"
        },
        {
          "internalType": "uint256",
          "name": "totalEligible",
          "type": "uint256"
        },
        {
          "internalType": "uint256",
          "name": "activeVoters",
          "type": "uint256"
        },
        {
          "internalType": "uint256",
          "name": "engagementPercent",
          "type": "uint256"
        },
        {
          "internalType": "bool",
          "name": "isTracking",
          "type": "bool"
        }
      ],
      "stateMutability": "view",
      "type": "function"
    },
    {
      "inputs": [
        {
          "internalType": "uint256",
          "name": "propertyId",
          "type": "uint256"
        }
      ],
      "name": "getPropertyHealthHistory",
      "outputs": [
        {
          "components": [
            {
              "internalType": "string",
              "name": "category",
              "type": "string"
            },
            {
              "internalType": "int256",
              "name": "delta",
              "type": "int256"
            },
            {
              "internalType": "uint256",
              "name": "timestamp",
              "type": "uint256"
            }
          ],
          "internalType": "struct PhaseManager.HealthDelta[]",
          "name": "history",
          "type": "tuple[]"
        }
      ],
      "stateMutability": "view",
      "type": "function"
    },
    {
      "inputs": [
        {
          "internalType": "uint256",
          "name": "propertyId",
          "type": "uint256"
        }
      ],
      "name": "getPropertyHealthScore",
      "outputs": [
        {
          "internalType": "uint256",
          "name": "score",
          "type": "uint256"
        }
      ],
      "stateMutability": "view",
      "type": "function"
    },
    {
      "inputs": [
        {
          "internalType": "bytes32",
          "name": "role",
          "type": "bytes32"
        }
      ],
      "name": "getRoleAdmin",
      "outputs": [
        {
          "internalType": "bytes32",
          "name": "",
          "type": "bytes32"
        }
      ],
      "stateMutability": "view",
      "type": "function"
    },
    {
      "inputs": [],
      "name": "getTrackedProperties",
      "outputs": [
        {
          "internalType": "uint256[]",
          "name": "",
          "type": "uint256[]"
        }
      ],
      "stateMutability": "view",
      "type": "function"
    },
    {
      "inputs": [],
      "name": "governance",
      "outputs": [
        {
          "internalType": "contract IGovernance",
          "name": "",
          "type": "address"
        }
      ],
      "stateMutability": "view",
      "type": "function"
    },
    {
      "inputs": [
        {
          "internalType": "bytes32",
          "name": "role",
          "type": "bytes32"
        },
        {
          "internalType": "address",
          "name": "account",
          "type": "address"
        }
      ],
      "name": "grantRole",
      "outputs": [],
      "stateMutability": "nonpayable",
      "type": "function"
    },
    {
      "inputs": [
        {
          "internalType": "uint256",
          "name": "",
          "type": "uint256"
        },
        {
          "internalType": "address",
          "name": "",
          "type": "address"
        }
      ],
      "name": "hasClaimed",
      "outputs": [
        {
          "internalType": "bool",
          "name": "",
          "type": "bool"
        }
      ],
      "stateMutability": "view",
      "type": "function"
    },
    {
      "inputs": [
        {
          "internalType": "uint256",
          "name": "propertyId",
          "type": "uint256"
        },
        {
          "internalType": "address",
          "name": "participant",
          "type": "address"
        }
      ],
      "name": "hasParticipatedInPolls",
      "outputs": [
        {
          "internalType": "bool",
          "name": "",
          "type": "bool"
        }
      ],
      "stateMutability": "view",
      "type": "function"
    },
    {
      "inputs": [
        {
          "internalType": "bytes32",
          "name": "role",
          "type": "bytes32"
        },
        {
          "internalType": "address",
          "name": "account",
          "type": "address"
        }
      ],
      "name": "hasRole",
      "outputs": [
        {
          "internalType": "bool",
          "name": "",
          "type": "bool"
        }
      ],
      "stateMutability": "view",
      "type": "function"
    },
    {
      "inputs": [
        {
          "internalType": "uint256",
          "name": "",
          "type": "uint256"
        }
      ],
      "name": "isTracked",
      "outputs": [
        {
          "internalType": "bool",
          "name": "",
          "type": "bool"
        }
      ],
      "stateMutability": "view",
      "type": "function"
    },
    {
      "inputs": [
        {
          "internalType": "uint256",
          "name": "",
          "type": "uint256"
        }
      ],
      "name": "lastNudgeTime",
      "outputs": [
        {
          "internalType": "uint256",
          "name": "",
          "type": "uint256"
        }
      ],
      "stateMutability": "view",
      "type": "function"
    },
    {
      "inputs": [],
      "name": "nudgeCooldown",
      "outputs": [
        {
          "internalType": "uint256",
          "name": "",
          "type": "uint256"
        }
      ],
      "stateMutability": "view",
      "type": "function"
    },
    {
      "inputs": [
        {
          "internalType": "bytes",
          "name": "performData",
          "type": "bytes"
        }
      ],
      "name": "performUpkeep",
      "outputs": [],
      "stateMutability": "nonpayable",
      "type": "function"
    },
    {
      "inputs": [
        {
          "internalType": "uint256",
          "name": "",
          "type": "uint256"
        },
        {
          "internalType": "address",
          "name": "",
          "type": "address"
        }
      ],
      "name": "pollParticipated",
      "outputs": [
        {
          "internalType": "bool",
          "name": "",
          "type": "bool"
        }
      ],
      "stateMutability": "view",
      "type": "function"
    },
    {
      "inputs": [
        {
          "internalType": "uint256",
          "name": "",
          "type": "uint256"
        }
      ],
      "name": "propertyEngagement",
      "outputs": [
        {
          "internalType": "uint256",
          "name": "propertyId",
          "type": "uint256"
        },
        {
          "internalType": "uint256",
          "name": "phaseStartTime",
          "type": "uint256"
        },
        {
          "internalType": "uint256",
          "name": "totalEligibleVoters",
          "type": "uint256"
        },
        {
          "internalType": "uint256",
          "name": "activeVoters",
          "type": "uint256"
        },
        {
          "internalType": "uint256",
          "name": "totalProposals",
          "type": "uint256"
        },
        {
          "internalType": "uint256",
          "name": "votedProposals",
          "type": "uint256"
        },
        {
          "internalType": "bool",
          "name": "isTracking",
          "type": "bool"
        }
      ],
      "stateMutability": "view",
      "type": "function"
    },
    {
      "inputs": [
        {
          "internalType": "uint256",
          "name": "",
          "type": "uint256"
        },
        {
          "internalType": "uint256",
          "name": "",
          "type": "uint256"
        }
      ],
      "name": "propertyHealthHistory",
      "outputs": [
        {
          "internalType": "string",
          "name": "category",
          "type": "string"
        },
        {
          "internalType": "int256",
          "name": "delta",
          "type": "int256"
        },
        {
          "internalType": "uint256",
          "name": "timestamp",
          "type": "uint256"
        }
      ],
      "stateMutability": "view",
      "type": "function"
    },
    {
      "inputs": [
        {
          "internalType": "uint256",
          "name": "",
          "type": "uint256"
        }
      ],
      "name": "propertyHealthScores",
      "outputs": [
        {
          "internalType": "uint256",
          "name": "",
          "type": "uint256"
        }
      ],
      "stateMutability": "view",
      "type": "function"
    },
    {
      "inputs": [
        {
          "internalType": "uint256",
          "name": "",
          "type": "uint256"
        }
      ],
      "name": "propertyPollCount",
      "outputs": [
        {
          "internalType": "uint256",
          "name": "",
          "type": "uint256"
        }
      ],
      "stateMutability": "view",
      "type": "function"
    },
    {
      "inputs": [],
      "name": "propertyToken",
      "outputs": [
        {
          "internalType": "contract IPropertyToken",
          "name": "",
          "type": "address"
        }
      ],
      "stateMutability": "view",
      "type": "function"
    },
    {
      "inputs": [
        {
          "internalType": "uint256",
          "name": "propertyId",
          "type": "uint256"
        },
        {
          "internalType": "string",
          "name": "category",
          "type": "string"
        },
        {
          "internalType": "int256",
          "name": "delta",
          "type": "int256"
        }
      ],
      "name": "recordImpactAfterExecution",
      "outputs": [],
      "stateMutability": "nonpayable",
      "type": "function"
    },
    {
      "inputs": [
        {
          "internalType": "uint256",
          "name": "propertyId",
          "type": "uint256"
        },
        {
          "internalType": "address",
          "name": "participant",
          "type": "address"
        }
      ],
      "name": "recordPollParticipation",
      "outputs": [],
      "stateMutability": "nonpayable",
      "type": "function"
    },
    {
      "inputs": [
        {
          "internalType": "bytes32",
          "name": "role",
          "type": "bytes32"
        },
        {
          "internalType": "address",
          "name": "callerConfirmation",
          "type": "address"
        }
      ],
      "name": "renounceRole",
      "outputs": [],
      "stateMutability": "nonpayable",
      "type": "function"
    },
    {
      "inputs": [
        {
          "internalType": "bytes32",
          "name": "role",
          "type": "bytes32"
        },
        {
          "internalType": "address",
          "name": "account",
          "type": "address"
        }
      ],
      "name": "revokeRole",
      "outputs": [],
      "stateMutability": "nonpayable",
      "type": "function"
    },
    {
      "inputs": [
        {
          "internalType": "address",
          "name": "_oracle",
          "type": "address"
        }
      ],
      "name": "setGeoOracle",
      "outputs": [],
      "stateMutability": "nonpayable",
      "type": "function"
    },
    {
      "inputs": [
        {
          "internalType": "uint256",
          "name": "newCooldown",
          "type": "uint256"
        }
      ],
      "name": "setNudgeCooldown",
      "outputs": [],
      "stateMutability": "nonpayable",
      "type": "function"
    },
    {
      "inputs": [
        {
          "internalType": "uint256",
          "name": "propertyId",
          "type": "uint256"
        },
        {
          "internalType": "uint256",
          "name": "totalEligibleVoters",
          "type": "uint256"
        }
      ],
      "name": "startTracking",
      "outputs": [],
      "stateMutability": "nonpayable",
      "type": "function"
    },
    {
      "inputs": [
        {
          "internalType": "uint256",
          "name": "propertyId",
          "type": "uint256"
        }
      ],
      "name": "stopTracking",
      "outputs": [],
      "stateMutability": "nonpayable",
      "type": "function"
    },
    {
      "inputs": [
        {
          "internalType": "bytes4",
          "name": "interfaceId",
          "type": "bytes4"
        }
      ],
      "name": "supportsInterface",
      "outputs": [
        {
          "internalType": "bool",
          "name": "",
          "type": "bool"
        }
      ],
      "stateMutability": "view",
      "type": "function"
    },
    {
      "inputs": [
        {
          "internalType": "uint256",
          "name": "",
          "type": "uint256"
        }
      ],
      "name": "trackedProperties",
      "outputs": [
        {
          "internalType": "uint256",
          "name": "",
          "type": "uint256"
        }
      ],
      "stateMutability": "view",
      "type": "function"
    },
    {
      "inputs": [
        {
          "internalType": "uint256",
          "name": "propertyId",
          "type": "uint256"
        }
      ],
      "name": "updateDemandEngagement",
      "outputs": [],
      "stateMutability": "nonpayable",
      "type": "function"
    },
    {
      "inputs": [
        {
          "internalType": "uint256",
          "name": "propertyId",
          "type": "uint256"
        },
        {
          "internalType": "uint256",
          "name": "activeVoters",
          "type": "uint256"
        },
        {
          "internalType": "uint256",
          "name": "totalProposals",
          "type": "uint256"
        },
        {
          "internalType": "uint256",
          "name": "votedProposals",
          "type": "uint256"
        }
      ],
      "name": "updateEngagement",
      "outputs": [],
      "stateMutability": "nonpayable",
      "type": "function"
    },
    {
      "inputs": [
        {
          "internalType": "uint256",
          "name": "propertyId",
          "type": "uint256"
        },
        {
          "internalType": "uint256",
          "name": "activeVoters",
          "type": "uint256"
        },
        {
          "internalType": "uint256",
          "name": "totalProposals",
          "type": "uint256"
        },
        {
          "internalType": "uint256",
          "name": "votedProposals",
          "type": "uint256"
        },
        {
          "internalType": "uint256",
          "name": "pollParticipants",
          "type": "uint256"
        }
      ],
      "name": "updateEngagementWithPolls",
      "outputs": [],
      "stateMutability": "nonpayable",
      "type": "function"
    }
  ],
  "bytecode": "0x608034620000b557601f62002c9338819003918201601f19168301916001600160401b03831184841017620000ba578084926040948552833981010312620000b5576200005a60206200005283620000d0565b9201620000d0565b62015180600855600180546001600160a01b039384166001600160a01b031991821617909155600280549290931691161790556200009833620000e5565b50620000a43362000165565b50604051612a6b9081620002088239f35b600080fd5b634e487b7160e01b600052604160045260246000fd5b51906001600160a01b0382168203620000b557565b6001600160a01b031660008181527fad3228b676f7d3cd4284a5443f17f1962b36e491b30a40b2405849e597ba5fb5602052604081205490919060ff166200016157818052816020526040822081835260205260408220600160ff19825416179055339160008051602062002c738339815191528180a4600190565b5090565b6001600160a01b031660008181527fee57cd81e84075558e8fcc182a1f4393f91fc97f963a136e66b7f949a62f319f60205260408120549091907f97667070c54ef182b0f5858b034beac1b6f3089aa2d3188bb1e8929f4fa9b9299060ff166200020257808352826020526040832082845260205260408320600160ff1982541617905560008051602062002c73833981519152339380a4600190565b50509056fe608080604052600436101561001357600080fd5b600090813560e01c90816301ffc9a714611e8b5750806306785d8a14611e075780630ad5f42114611d815780631194f9e914611d5257806311f0072f14611bcd57806314585aeb146119b1578063248a9ca3146119855780632e94dfda1461191f5780632f2ff15d146118e257806330ae7805146118c5578063313b79da1461181157806332850c56146116f557806336568abe146116ad57806336bfbfb8146116845780633a21ccc11461156f57806340ab3171146112ec57806343ae2695146112c35780634585e33b146112155780635513de41146111f7578063587bd4a7146107605780635aa6e675146111ce5780635da6559e146111a457806363e86eb8146111335780636675584f146111155780636e04ff0d146110b757806373de7b4b1461108d578063785b219014610efb578063792c971814610e905780638085b81314610e57578063816aad3c14610d70578063873f6f9e14610d245780638947d84e146109c05780638e5359e01461094757806391d14854146108fc57806394c9825d1461084c578063a217fddf14610830578063a21e6f2f146107c8578063a27f71b2146107ac578063a9dc872614610760578063b415d27914610744578063c769368b14610263578063c8259776146105dc578063d547741f1461059b578063d5612486146102b4578063f333d6c21461028d578063f38cf589146102635763f5b541a61461022657600080fd5b3461026057806003193601126102605760206040517f97667070c54ef182b0f5858b034beac1b6f3089aa2d3188bb1e8929f4fa9b9298152f35b80fd5b50346102605760203660031901126102605760406020916004358152600c83522054604051908152f35b50346102605760203660031901126102605760206102ac600435612537565b604051908152f35b50346102605760208060031936011261043a576024600435918360018060a01b03818160015416604051958680926332665ffb60e01b82528960048301525afa93841561042f57829461056d575b508060035416806104c8575b50600154604051636ea9967760e01b81526004810187905260ff861660248201529116908381604481855afa9081156104bd57839161048c575b506040516304fa617360e01b81526004810187905260ff861660248201528481604481865afa90811561048157849161044b575b5010158061043e575b61038d575080f35b803b1561043a578180916024604051809481936340d57a6760e11b83528a60048401525af1801561042f57610417575b5091604091847f7214c5e85040cb3e35452fa6ff842070826b1d0bd195171e1c75e6d07bc1b96c945260048152856003848220426001820155015560ff61040383612525565b818551941684521690820152a23880808380f35b61042090611fed565b61042b5783386103bd565b8380fd5b6040513d84823e3d90fd5b5080fd5b50600360ff851610610385565b809450858092503d831161047a575b6104648183612051565b81010312610475578692513861037c565b600080fd5b503d61045a565b6040513d86823e3d90fd5b809350848092503d83116104b6575b6104a58183612051565b810103126104755785915138610348565b503d61049b565b6040513d85823e3d90fd5b60405163512ae2cb60e01b8152336004820152602481018790529084908290604490829087905af19081156104bd578391610534575b5060ff60405191168152857f3deb93045f72ce1d7fd6c683f79644b908c62d45d5615b482654972e36f77d6b853393a33861030e565b90508381813d8311610566575b61054b8183612051565b810103126105625761055c906122fc565b386104fe565b8280fd5b503d610541565b61058a9194503d8084833e6105828183612051565b81019061249e565b505096505050505050509238610302565b5034610260576040366003190112610260576105d86004356105bb611ee0565b90808452836020526105d36001604086200154612627565b6126cb565b5080f35b5034610260576020366003190112610260576004356105f9612573565b808252600660205261061160ff604084205416612416565b80825260046020526040822061062d60ff60068301541661214e565b600254604051630af4da4160e01b815290608090829060049082906001600160a01b03165afa908115610481578491610715575b505190827fb3316e92a7702b6d2af84bce789e7e416e7c7d89dd355eb882cbf1bd1e44361860408051878152856020820152a2611d4c82101590816106e5575b506106aa578280f35b6020816106d87f25f2b88b09799c057d36c9cc83fc1013f5534e15a4e9ae28471219e7ae85f79f9385612900565b604051908152a238808280f35b60019150015462093a80810180911161070157421015386106a1565b634e487b7160e01b84526011600452602484fd5b610737915060803d60801161073d575b61072f8183612051565b810190612189565b38610661565b503d610725565b5034610260578060031936011261026057602060405160018152f35b503461026057604036600319011261026057604061077c611ee0565b916004358152600a602052209060018060a01b0316600052602052602060ff604060002054166040519015158152f35b5034610260578060031936011261026057602060405160328152f35b5034610260576020366003190112610260576004356001600160a01b03811690819003610475576107f76125ed565b600380546001600160a01b031916821790557f8f5df5b0b3afcb3d662deac3413c7e01ba3e60969e26401efbb3aa12e25b7cf98280a280f35b5034610260578060031936011261026057602090604051908152f35b5034610260576080366003190112610260576108f960243560043561086f612573565b8084526004602052807f63bd409a0ca0450137d1b574e1e74a5a18cc8934d8f718c1603619b971ce673760408620936108ae60ff60068701541661214e565b8060038601556044356004860155606435600586015560026108cf84612537565b9501546040805192835260208301919091528101859052606090a26108f48282612740565b6128bf565b80f35b5034610260576040366003190112610260576040610918611ee0565b91600435815280602052209060018060a01b0316600052602052602060ff604060002054166040519015158152f35b5034610260576020366003190112610260576004356109646125ed565b610e10811015806109b3575b1561097b5760085580f35b60405162461bcd60e51b815260206004820152601060248201526f24b73b30b634b21031b7b7b63237bbb760811b6044820152606490fd5b5062093a80811115610970565b5034610260576060366003190112610260576001600160401b03602435818111610562576109f2903690600401611f3e565b916109fb612573565b8215610ceb576004358452600d6020526040842060405190610a1c82612000565b610a258561230a565b610a326040519182612051565b8581523686860111610ce75785856020830137866020878301015282526044356020830152426040830152805490600160401b821015610cbf5790610a7c91600182018155611f81565b929092610cd35781518051918211610cbf57610a988454611fb3565b601f8111610c7d575b50602090601f8311600114610c14579180600294926040948a92610c09575b50508160011b916000199060031b1c19161784555b6020810151600185015501519101556004358352600c6020526040832054836044351215600014610b945790610b2f7fe6ec1e353840918148bc901761cc2c4da16a904a87ed4eb9f95a05ede957363692604435906121d8565b612710808211610b8c575b505b6004358552600c602052806040862055836040519260608452816060850152608084013784608085840101526044356020830152604082015260808160043594601f80199101168101030190a280f35b905038610b3a565b604435600160ff1b146107015760443584038111610bd557507fe6ec1e353840918148bc901761cc2c4da16a904a87ed4eb9f95a05ede95736369083610b3c565b604435810190811161070157907fe6ec1e353840918148bc901761cc2c4da16a904a87ed4eb9f95a05ede957363691610b3c565b015190503880610ac0565b848852602088209190601f198416895b818110610c6557509260019285926040966002989610610c4c575b505050811b018455610ad5565b015160001960f88460031b161c19169055388080610c3f565b92936020600181928786015181550195019301610c24565b84885260208820601f840160051c810160208510610cb8575b601f830160051c82018110610cac575050610aa1565b60008155600101610c96565b5080610c96565b634e487b7160e01b87526041600452602487fd5b634e487b7160e01b86526004869052602486fd5b8680fd5b60405162461bcd60e51b815260206004820152601160248201527010d85d1959dbdc9e481c995c5d5a5c9959607a1b6044820152606490fd5b5034610260576040366003190112610260576040610d40611ee0565b9160043581526009602052209060018060a01b0316600052602052602060ff604060002054166040519015158152f35b503461026057604036600319011261026057600435610d8d611ee0565b90610d96612573565b808352602060068152610daf60ff604086205416612416565b818452600a815260408085206001600160a01b03909416600081815294835293205460ff16610e2057818452600a8152604084209083600052526040600020600160ff198254161790557f9c81720c57d474644d653192db4aee34eff3e6b5c6b80e4c283ab58871c9382e8380a380f35b6064906040519062461bcd60e51b82526004820152601060248201526f105b1c9958591e481c9958dbdc99195960821b6044820152fd5b50346102605760203660031901126102605760043590600554821015610260576020610e8283612117565b90546040519160031b1c8152f35b503461026057610e9f36611f6b565b91908152600d6020526040812090815483101561026057610eec610ec38484611f81565b50610ecd81612072565b9060026001820154910154604051938493606085526060850190611f19565b91602084015260408301520390f35b503461026057610f0a36611f6b565b610f12612573565b818352600660205260ff6040842054166110555760405160e08101908082106001600160401b0383111761103f5760069160405283815260208101924284526040820190815260608201868152608083019087825260a084019288845260c085019660018852888a52600460205260408a209551865551600186015551600285015551600384015551600483015551600582015501905115159060ff199160ff838354169116179055600554600160401b81101561102b57806001610fda9201600555612117565b81549060031b9084821b91600019901b19161790558183526006602052600160408420918254161790557f3621586063592251acf2253a10fe8119554dbb0bf93d6e875b85a3a66a2166b98280a280f35b634e487b7160e01b84526041600452602484fd5b634e487b7160e01b600052604160045260246000fd5b60405162461bcd60e51b815260206004820152601060248201526f416c726561647920747261636b696e6760801b6044820152606490fd5b50346102605760203660031901126102605760406020916004358152600b83522054604051908152f35b5034610260576020366003190112610260576004356001600160401b03811161043a576110e8903690600401611f3e565b50506110f2612325565b9061111160405192839215158352604060208401526040830190611f19565b0390f35b50346102605780600319360112610260576020600854604051908152f35b503461026057602036600319011261026057604060e09160043581526004602052208054906001810154906002810154600382015460048301549160ff600660058601549501541694604051968752602087015260408601526060850152608084015260a0830152151560c0820152f35b50346102605760203660031901126102605760406020916004358152600783522054604051908152f35b50346102605780600319360112610260576002546040516001600160a01b039091168152602090f35b5034610260578060031936011261026057602060405162093a808152f35b5034610260576020366003190112610260576004356001600160401b03811161043a576112486040913690600401611f3e565b90809291810103126104755735808252600460205260016040832061127360ff60068301541661214e565b015462093a8081018091116112af57906112926108f9924210156122c4565b61129b81612537565b906112aa611d4c831015612284565b612900565b634e487b7160e01b83526011600452602483fd5b50346102605780600319360112610260576001546040516001600160a01b039091168152602090f35b50346102605760208060031936011261043a5760043560018060a01b03916001926024828286541660405192838092634d8c928d60e11b82523360048301525afa801561156457869061152a575b6113449150612208565b828552600982526040852033600052825261136760ff6040600020541615612246565b82855260048252836040862061138360ff60068301541661214e565b611399611d4c61139287612537565b1015612284565b015462093a80810180911161151657906113b686924210156122c4565b838252600983526040822033600052835260406000208560ff1982541617905584816003541680611465575b505416803b1561043a578180916064604051809481936346b40cdf60e11b83528960048401523360248401528a60448401525af1801561042f57611451575b50507f89e1649e796bc46c9dcd5fd4505f79bfdd9197c8eccbdbaf05a6bfd1cb9ea09b906040519384523393a380f35b61145a90611fed565b61042b578338611421565b60405163512ae2cb60e01b8152336004820152602481018790529085908290604490829088905af19081156104815784916114e1575b5060ff604051911690818152867f3deb93045f72ce1d7fd6c683f79644b908c62d45d5615b482654972e36f77d6b873393a3156114d9575b386113e2565b9450846114d3565b90508481813d831161150f575b6114f88183612051565b8101031261042b57611509906122fc565b3861149b565b503d6114ee565b634e487b7160e01b86526011600452602486fd5b508281813d831161155d575b6115408183612051565b8101031261155957611554611344916121fb565b61133a565b8580fd5b503d611536565b6040513d88823e3d90fd5b50346102605760a03660031901126102605760843590600435611590612573565b808252600460205260408220906115ad60ff60068401541661214e565b6032840293808504603214811517156107015760646108f99495046115d4816024356121d8565b9360028101549081861161167a575b927fa924d670d57ce0c4ef66945fcc39ba0d6082deb70a897faa080424140b0b1c7d92857f63bd409a0ca0450137d1b574e1e74a5a18cc8934d8f718c1603619b971ce6737604094878a6003859a01556044356004820155600560643591015561164c83612537565b86519a8b5260208b019190915260408a0181905298606090a282519182526020820152a26108f48282612740565b90945084906115e3565b50346102605780600319360112610260576003546040516001600160a01b039091168152602090f35b5034610260576040366003190112610260576116c7611ee0565b336001600160a01b038216036116e3576105d8906004356126cb565b60405163334bd91960e11b8152600490fd5b50346102605760208060031936011261043a576004358252600d81526040822080546001600160401b03811161102b5791926040519261173a858260051b0185612051565b8084528484018093835285832083915b8383106117cc5750505050604051928484019085855251809152604084019460408260051b8601019392955b8287106117835785850386f35b909192938280600192603f198982030185528751906040806117ae6060855190808652850190611f19565b93858101518685015201519101529601920196019592919092611776565b60038860019260409a99979a516117e281612000565b6117eb86612072565b81528486015483820152600286015460408201528152019201920191909693959661174a565b503461026057806003193601126102605760405180916005549081835260208093018092600583527f036b6384b5eca791c62761152d0c79bb0604c104a5fb6f4eb0703f3154bb3db090835b8181106118b15750505084611873910385612051565b60405193838594850191818652518092526040850193925b82811061189a57505050500390f35b83518552869550938101939281019260010161188b565b82548452928601926001928301920161185d565b50346102605780600319360112610260576020604051611d4c8152f35b5034610260576040366003190112610260576105d8600435611902611ee0565b908084528360205261191a6001604086200154612627565b61264d565b50346102605760203660031901126102605760a0906040600435918281526004602052209060018201549160028101549160ff6006611962600385015493612537565b930154169260405194855260208501526040840152606083015215156080820152f35b503461026057602036600319011261026057600160406020926004358152808452200154604051908152f35b50346102605760208060031936011261043a5760043560018060a01b03602483826001541660405192838092634d8c928d60e11b82523360048301525afa8015611bc2578590611b88575b611a069150612208565b818452600a835260408420338552835260ff60408520541615611b435781845260098352604084203385528352611a4460ff60408620541615612246565b81845260048352600160408520611a6160ff60068301541661214e565b611a70611d4c61139286612537565b015462093a808101809111611b2f5790611a8d85924210156122c4565b8282526009845260408220338352845260408220600160ff1982541617905560015416803b1561043a5781906064604051809481936346b40cdf60e11b8352876004840152336024840152600260448401525af1801561048157611b1c575b507f89e1649e796bc46c9dcd5fd4505f79bfdd9197c8eccbdbaf05a6bfd1cb9ea09b60405192600284523393a380f35b611b2890939193611fed565b9138611aec565b634e487b7160e01b85526011600452602485fd5b60405162461bcd60e51b815260048101849052601c60248201527f446964206e6f7420706172746963697061746520696e20706f6c6c73000000006044820152606490fd5b508381813d8311611bbb575b611b9e8183612051565b81010312611bb757611bb2611a06916121fb565b6119fc565b8480fd5b503d611b94565b6040513d87823e3d90fd5b5034610260576020908160031936011261026057600435916080604051611bf38161201b565b369037611bff83612537565b600254604051630af4da4160e01b815294919391906001600160a01b0316608086600481845afa9586156104bd578396611d28575b509083600493926040519485809263049672b760e41b82525afa92831561042f578293611cf9575b50815260048352604081209260ff6006850154169384611cea575b84611cb8575b506040519485528085015b60048310611ca35760e086868660a0830152151560c0820152f35b81806001928951815201970192019195611c88565b6001919450015462093a808101809111611cd6574210159238611c7d565b634e487b7160e01b82526011600452602482fd5b9350611d4c8651101593611c77565b9092508381813d8311611d21575b611d118183612051565b8101031261043a57519138611c5c565b503d611d07565b60049392919650611d48859160803d60801161073d5761072f8183612051565b9691929350611c34565b50346102605760203660031901126102605760ff60406020926004358152600684522054166040519015158152f35b503461026057806003193601126102605760025460405163049672b760e41b815290602090829060049082906001600160a01b03165afa90811561042f578291611dd1575b602082604051908152f35b90506020813d602011611dff575b81611dec60209383612051565b8101031261043a57602091505138611dc6565b3d9150611ddf565b503461026057602036600319011261026057600435611e24612573565b8082526006602052611e3c60ff60408420541661214e565b80825260046020526006604083200160ff19908181541690556006602052604083209081541690557f96fbf803f14da8437e0cbe34df7152f998dbc3b7e2343c52fb4285e90387a9ca8280a280f35b90503461043a57602036600319011261043a5760043563ffffffff60e01b81168091036105625760209250637965db0b60e01b8114908115611ecf575b5015158152f35b6301ffc9a760e01b14905038611ec8565b602435906001600160a01b038216820361047557565b60005b838110611f095750506000910152565b8181015183820152602001611ef9565b90602091611f3281518092818552858086019101611ef6565b601f01601f1916010190565b9181601f84011215610475578235916001600160401b038311610475576020838186019501011161047557565b6040906003190112610475576004359060243590565b8054821015611f9d576000526003602060002091020190600090565b634e487b7160e01b600052603260045260246000fd5b90600182811c92168015611fe3575b6020831014611fcd57565b634e487b7160e01b600052602260045260246000fd5b91607f1691611fc2565b6001600160401b03811161103f57604052565b606081019081106001600160401b0382111761103f57604052565b608081019081106001600160401b0382111761103f57604052565b604081019081106001600160401b0382111761103f57604052565b90601f801991011681019081106001600160401b0382111761103f57604052565b9060405191826000825461208581611fb3565b908184526020946001916001811690816000146120f557506001146120b6575b5050506120b492500383612051565b565b600090815285812095935091905b8183106120dd5750506120b493508201013880806120a5565b855488840185015294850194879450918301916120c4565b925050506120b494925060ff191682840152151560051b8201013880806120a5565b600554811015611f9d5760056000527f036b6384b5eca791c62761152d0c79bb0604c104a5fb6f4eb0703f3154bb3db00190600090565b1561215557565b60405162461bcd60e51b815260206004820152600c60248201526b4e6f7420747261636b696e6760a01b6044820152606490fd5b906080828203126104755780601f8301121561047557604051916121ac8361201b565b82906080810192831161047557905b8282106121c85750505090565b81518152602091820191016121bb565b919082018092116121e557565b634e487b7160e01b600052601160045260246000fd5b5190811515820361047557565b1561220f57565b60405162461bcd60e51b815260206004820152600f60248201526e139bdd081dda1a5d195b1a5cdd1959608a1b6044820152606490fd5b1561224d57565b60405162461bcd60e51b815260206004820152600f60248201526e105b1c9958591e4818db185a5b5959608a1b6044820152606490fd5b1561228b57565b60405162461bcd60e51b8152602060048201526011602482015270151a1c995cda1bdb19081b9bdd081b595d607a1b6044820152606490fd5b156122cb57565b60405162461bcd60e51b8152602060048201526009602482015268546f6f206561726c7960b81b6044820152606490fd5b519060ff8216820361047557565b6001600160401b03811161103f57601f01601f191660200190565b60055460005b81811061235a575050600090604051602081018181106001600160401b0382111761103f576040526000815290565b61236381612117565b90549060031b1c806000526004602091818352604090816000209260ff60068501541615612409576001809401549062093a8082018092116123f4575042106123e8576123af81612537565b90611d4c8210156123c95750505050506001905b0161232b565b8251948501528382015282529093925090506123e483612000565b9190565b505050506001906123c3565b601190634e487b7160e01b6000525260246000fd5b50505050506001906123c3565b1561241d57565b60405162461bcd60e51b8152602060048201526014602482015273141c9bdc195c9d1e481b9bdd081d1c9858dad95960621b6044820152606490fd5b81601f8201121561047557805161246f8161230a565b9261247d6040519485612051565b818452602082840101116104755761249b9160208085019101611ef6565b90565b610140818303126104755780519260208201516001600160401b039081811161047557846124cd918501612459565b936040840151918211610475576124e5918401612459565b9160608101519160808201519160a08101519160c08201519161250a60e082016122fc565b9161249b61012061251e61010085016121fb565b93016121fb565b60ff60019116019060ff82116121e557565b60005260046020526040600020600281015490811561256c5760030154612710908181029181830414901517156121e5570490565b5050600090565b3360009081527fee57cd81e84075558e8fcc182a1f4393f91fc97f963a136e66b7f949a62f319f60205260409020547f97667070c54ef182b0f5858b034beac1b6f3089aa2d3188bb1e8929f4fa9b9299060ff16156125cf5750565b6044906040519063e2517d3f60e01b82523360048301526024820152fd5b3360009081527fad3228b676f7d3cd4284a5443f17f1962b36e491b30a40b2405849e597ba5fb5602052604081205460ff16156125cf5750565b80600052600060205260406000203360005260205260ff60406000205416156125cf5750565b9060009180835282602052604083209160018060a01b03169182845260205260ff604084205416156000146126c657808352826020526040832082845260205260408320600160ff198254161790557f2f8788117e7eff1d82e926ec794901d17c78024a50270940304540a733656f0d339380a4600190565b505090565b9060009180835282602052604083209160018060a01b03169182845260205260ff6040842054166000146126c65780835282602052604083208284526020526040832060ff1981541690557ff6391f5c32d9c69d2a47ea670b442974b53935d1edc7fd64eb21e047a839171b339380a4600190565b908160005260209060078252604061275f8160002054600854906121d8565b42106128a3576109c48210156127e8577f505a29c5397a0038bf34d9f7baf0047c3f5eae6323bf8450c1e34dacf7cc2a1792815161279c81612036565b60148152733ab933b2b73a2fb830b93a34b1b4b830ba34b7b760611b82820152925b85600052600782524283600020556127df8351948486958652850190611f19565b918301520390a2565b611770821015806128b4575b15612846577f505a29c5397a0038bf34d9f7baf0047c3f5eae6323bf8450c1e34dacf7cc2a1792815161282681612036565b600e81526d36b4b632b9ba37b732afb732b0b960911b82820152926127be565b611b58821015806128a9575b156128a3577f505a29c5397a0038bf34d9f7baf0047c3f5eae6323bf8450c1e34dacf7cc2a1792815161288481612036565b600d81526c70686173655f636c6f73696e6760981b82820152926127be565b50505050565b50611d4c8210612852565b50611d4c82106127f4565b9081600052600460205260016040600020015462093a8081018091116121e55742106128fc57611d4c8110156128f3575050565b6120b491612900565b5050565b600154604080516332665ffb60e01b81526004810184905292936001600160a01b039092169260008082602481885afa918215612a29578192612a03575b5060ff82169460038610612956575b50505050505050565b803b1561043a5781809160248651809481936340d57a6760e11b83528c60048401525af180156129f957606095937fd786d06dd56df8b68a470fb87593bd3d76a14eeea5cf10760563177bd21496b097959360ff936129cf936129ea575b50898152600460205260038582204260018201550155612525565b8251948552166020840152820152a23880808080808061294d565b6129f390611fed565b386129b4565b84513d84823e3d90fd5b612a189192503d8084833e6105828183612051565b50509650505050505050903861293e565b508251903d90823e3d90fdfea2646970667358221220020ee4ccab98b959721970464d6d4893fc0e782e3fc3690a380d2921920af01564736f6c634300081800332f8788117e7eff1d82e926ec794901d17c78024a50270940304540a733656f0d",
  "linkReferences": {},
  "deployedLinkReferences": {}
}