{
  "_format": "hh-sol-artifact-1",
  "contractName": "PhaseManager",
  "sourceName": "contracts/PhaseManager.sol",
  "abi": [
    {
      "inputs": [
        {
          "internalType": "address",
          "name": "_propertyToken",
          "type": "address"
        },
        {
          "internalType": "address",
          "name": "_governance",
          "type": "address"
        }
      ],
      "stateMutability": "nonpayable",
      "type": "constructor"
    },
    {
      "inputs": [],
      "name": "AccessControlBadConfirmation",
      "type": "error"
    },
    {
      "inputs": [
        {
          "internalType": "address",
          "name": "account",
          "type": "address"
        },
        {
          "internalType": "bytes32",
          "name": "neededRole",
          "type": "bytes32"
        }
      ],
      "name": "AccessControlUnauthorizedAccount",
      "type": "error"
    },
    {
      "anonymous": false,
      "inputs": [
        {
          "indexed": true,
          "internalType": "uint256",
          "name": "propertyId",
          "type": "uint256"
        },
        {
          "indexed": true,
          "internalType": "address",
          "name": "claimer",
          "type": "address"
        },
        {
          "indexed": false,
          "internalType": "uint256",
          "name": "bonus",
          "type": "uint256"
        }
      ],
      "name": "BonusClaimed",
      "type": "event"
    },
    {
      "anonymous": false,
      "inputs": [
        {
          "indexed": true,
          "internalType": "uint256",
          "name": "propertyId",
          "type": "uint256"
        },
        {
          "indexed": false,
          "internalType": "uint256",
          "name": "activeVoters",
          "type": "uint256"
        },
        {
          "indexed": false,
          "internalType": "uint256",
          "name": "totalEligible",
          "type": "uint256"
        },
        {
          "indexed": false,
          "internalType": "uint256",
          "name": "engagementPercent",
          "type": "uint256"
        }
      ],
      "name": "EngagementUpdated",
      "type": "event"
    },
    {
      "anonymous": false,
      "inputs": [
        {
          "indexed": true,
          "internalType": "uint256",
          "name": "propertyId",
          "type": "uint256"
        },
        {
          "indexed": false,
          "internalType": "string",
          "name": "nudgeType",
          "type": "string"
        },
        {
          "indexed": false,
          "internalType": "uint256",
          "name": "engagementPercent",
          "type": "uint256"
        }
      ],
      "name": "NudgeTriggered",
      "type": "event"
    },
    {
      "anonymous": false,
      "inputs": [
        {
          "indexed": true,
          "internalType": "uint256",
          "name": "propertyId",
          "type": "uint256"
        },
        {
          "indexed": false,
          "internalType": "uint8",
          "name": "fromPhase",
          "type": "uint8"
        },
        {
          "indexed": false,
          "internalType": "uint8",
          "name": "toPhase",
          "type": "uint8"
        },
        {
          "indexed": false,
          "internalType": "uint256",
          "name": "engagementPercent",
          "type": "uint256"
        }
      ],
      "name": "PhaseAdvancedByEngagement",
      "type": "event"
    },
    {
      "anonymous": false,
      "inputs": [
        {
          "indexed": true,
          "internalType": "uint256",
          "name": "propertyId",
          "type": "uint256"
        },
        {
          "indexed": false,
          "internalType": "uint8",
          "name": "fromPhase",
          "type": "uint8"
        },
        {
          "indexed": false,
          "internalType": "uint8",
          "name": "toPhase",
          "type": "uint8"
        }
      ],
      "name": "PhaseAdvancedBySubscription",
      "type": "event"
    },
    {
      "anonymous": false,
      "inputs": [
        {
          "indexed": true,
          "internalType": "uint256",
          "name": "propertyId",
          "type": "uint256"
        },
        {
          "indexed": false,
          "internalType": "uint256",
          "name": "pollParticipants",
          "type": "uint256"
        },
        {
          "indexed": false,
          "internalType": "uint256",
          "name": "bonusEngagement",
          "type": "uint256"
        }
      ],
      "name": "PollBonusApplied",
      "type": "event"
    },
    {
      "anonymous": false,
      "inputs": [
        {
          "indexed": true,
          "internalType": "uint256",
          "name": "propertyId",
          "type": "uint256"
        },
        {
          "indexed": true,
          "internalType": "address",
          "name": "participant",
          "type": "address"
        }
      ],
      "name": "PollParticipationRecorded",
      "type": "event"
    },
    {
      "anonymous": false,
      "inputs": [
        {
          "indexed": true,
          "internalType": "uint256",
          "name": "propertyId",
          "type": "uint256"
        }
      ],
      "name": "PropertyTrackingStarted",
      "type": "event"
    },
    {
      "anonymous": false,
      "inputs": [
        {
          "indexed": true,
          "internalType": "uint256",
          "name": "propertyId",
          "type": "uint256"
        }
      ],
      "name": "PropertyTrackingStopped",
      "type": "event"
    },
    {
      "anonymous": false,
      "inputs": [
        {
          "indexed": true,
          "internalType": "bytes32",
          "name": "role",
          "type": "bytes32"
        },
        {
          "indexed": true,
          "internalType": "bytes32",
          "name": "previousAdminRole",
          "type": "bytes32"
        },
        {
          "indexed": true,
          "internalType": "bytes32",
          "name": "newAdminRole",
          "type": "bytes32"
        }
      ],
      "name": "RoleAdminChanged",
      "type": "event"
    },
    {
      "anonymous": false,
      "inputs": [
        {
          "indexed": true,
          "internalType": "bytes32",
          "name": "role",
          "type": "bytes32"
        },
        {
          "indexed": true,
          "internalType": "address",
          "name": "account",
          "type": "address"
        },
        {
          "indexed": true,
          "internalType": "address",
          "name": "sender",
          "type": "address"
        }
      ],
      "name": "RoleGranted",
      "type": "event"
    },
    {
      "anonymous": false,
      "inputs": [
        {
          "indexed": true,
          "internalType": "bytes32",
          "name": "role",
          "type": "bytes32"
        },
        {
          "indexed": true,
          "internalType": "address",
          "name": "account",
          "type": "address"
        },
        {
          "indexed": true,
          "internalType": "address",
          "name": "sender",
          "type": "address"
        }
      ],
      "name": "RoleRevoked",
      "type": "event"
    },
    {
      "inputs": [],
      "name": "BONUS_TOKENS",
      "outputs": [
        {
          "internalType": "uint256",
          "name": "",
          "type": "uint256"
        }
      ],
      "stateMutability": "view",
      "type": "function"
    },
    {
      "inputs": [],
      "name": "DEFAULT_ADMIN_ROLE",
      "outputs": [
        {
          "internalType": "bytes32",
          "name": "",
          "type": "bytes32"
        }
      ],
      "stateMutability": "view",
      "type": "function"
    },
    {
      "inputs": [],
      "name": "ENGAGEMENT_THRESHOLD",
      "outputs": [
        {
          "internalType": "uint256",
          "name": "",
          "type": "uint256"
        }
      ],
      "stateMutability": "view",
      "type": "function"
    },
    {
      "inputs": [],
      "name": "MIN_ENGAGEMENT_PERIOD",
      "outputs": [
        {
          "internalType": "uint256",
          "name": "",
          "type": "uint256"
        }
      ],
      "stateMutability": "view",
      "type": "function"
    },
    {
      "inputs": [],
      "name": "OPERATOR_ROLE",
      "outputs": [
        {
          "internalType": "bytes32",
          "name": "",
          "type": "bytes32"
        }
      ],
      "stateMutability": "view",
      "type": "function"
    },
    {
      "inputs": [],
      "name": "POLL_BONUS_MULTIPLIER",
      "outputs": [
        {
          "internalType": "uint256",
          "name": "",
          "type": "uint256"
        }
      ],
      "stateMutability": "view",
      "type": "function"
    },
    {
      "inputs": [
        {
          "internalType": "uint256",
          "name": "propertyId",
          "type": "uint256"
        }
      ],
      "name": "calculateEngagement",
      "outputs": [
        {
          "internalType": "uint256",
          "name": "",
          "type": "uint256"
        }
      ],
      "stateMutability": "view",
      "type": "function"
    },
    {
      "inputs": [
        {
          "internalType": "uint256",
          "name": "propertyId",
          "type": "uint256"
        }
      ],
      "name": "checkSubscriptionAdvancement",
      "outputs": [],
      "stateMutability": "nonpayable",
      "type": "function"
    },
    {
      "inputs": [
        {
          "internalType": "bytes",
          "name": "",
          "type": "bytes"
        }
      ],
      "name": "checkUpkeep",
      "outputs": [
        {
          "internalType": "bool",
          "name": "upkeepNeeded",
          "type": "bool"
        },
        {
          "internalType": "bytes",
          "name": "performData",
          "type": "bytes"
        }
      ],
      "stateMutability": "view",
      "type": "function"
    },
    {
      "inputs": [
        {
          "internalType": "uint256",
          "name": "propertyId",
          "type": "uint256"
        }
      ],
      "name": "claimEngagementBonus",
      "outputs": [],
      "stateMutability": "nonpayable",
      "type": "function"
    },
    {
      "inputs": [
        {
          "internalType": "uint256",
          "name": "propertyId",
          "type": "uint256"
        }
      ],
      "name": "claimPollBoostBonus",
      "outputs": [],
      "stateMutability": "nonpayable",
      "type": "function"
    },
    {
      "inputs": [
        {
          "internalType": "uint256",
          "name": "propertyId",
          "type": "uint256"
        }
      ],
      "name": "getEngagement",
      "outputs": [
        {
          "internalType": "uint256",
          "name": "phaseStartTime",
          "type": "uint256"
        },
        {
          "internalType": "uint256",
          "name": "totalEligible",
          "type": "uint256"
        },
        {
          "internalType": "uint256",
          "name": "activeVoters",
          "type": "uint256"
        },
        {
          "internalType": "uint256",
          "name": "engagementPercent",
          "type": "uint256"
        },
        {
          "internalType": "bool",
          "name": "isTracking",
          "type": "bool"
        }
      ],
      "stateMutability": "view",
      "type": "function"
    },
    {
      "inputs": [
        {
          "internalType": "bytes32",
          "name": "role",
          "type": "bytes32"
        }
      ],
      "name": "getRoleAdmin",
      "outputs": [
        {
          "internalType": "bytes32",
          "name": "",
          "type": "bytes32"
        }
      ],
      "stateMutability": "view",
      "type": "function"
    },
    {
      "inputs": [],
      "name": "getTrackedProperties",
      "outputs": [
        {
          "internalType": "uint256[]",
          "name": "",
          "type": "uint256[]"
        }
      ],
      "stateMutability": "view",
      "type": "function"
    },
    {
      "inputs": [],
      "name": "governance",
      "outputs": [
        {
          "internalType": "contract IGovernance",
          "name": "",
          "type": "address"
        }
      ],
      "stateMutability": "view",
      "type": "function"
    },
    {
      "inputs": [
        {
          "internalType": "bytes32",
          "name": "role",
          "type": "bytes32"
        },
        {
          "internalType": "address",
          "name": "account",
          "type": "address"
        }
      ],
      "name": "grantRole",
      "outputs": [],
      "stateMutability": "nonpayable",
      "type": "function"
    },
    {
      "inputs": [
        {
          "internalType": "uint256",
          "name": "",
          "type": "uint256"
        },
        {
          "internalType": "address",
          "name": "",
          "type": "address"
        }
      ],
      "name": "hasClaimed",
      "outputs": [
        {
          "internalType": "bool",
          "name": "",
          "type": "bool"
        }
      ],
      "stateMutability": "view",
      "type": "function"
    },
    {
      "inputs": [
        {
          "internalType": "uint256",
          "name": "propertyId",
          "type": "uint256"
        },
        {
          "internalType": "address",
          "name": "participant",
          "type": "address"
        }
      ],
      "name": "hasParticipatedInPolls",
      "outputs": [
        {
          "internalType": "bool",
          "name": "",
          "type": "bool"
        }
      ],
      "stateMutability": "view",
      "type": "function"
    },
    {
      "inputs": [
        {
          "internalType": "bytes32",
          "name": "role",
          "type": "bytes32"
        },
        {
          "internalType": "address",
          "name": "account",
          "type": "address"
        }
      ],
      "name": "hasRole",
      "outputs": [
        {
          "internalType": "bool",
          "name": "",
          "type": "bool"
        }
      ],
      "stateMutability": "view",
      "type": "function"
    },
    {
      "inputs": [
        {
          "internalType": "uint256",
          "name": "",
          "type": "uint256"
        }
      ],
      "name": "isTracked",
      "outputs": [
        {
          "internalType": "bool",
          "name": "",
          "type": "bool"
        }
      ],
      "stateMutability": "view",
      "type": "function"
    },
    {
      "inputs": [
        {
          "internalType": "uint256",
          "name": "",
          "type": "uint256"
        }
      ],
      "name": "lastNudgeTime",
      "outputs": [
        {
          "internalType": "uint256",
          "name": "",
          "type": "uint256"
        }
      ],
      "stateMutability": "view",
      "type": "function"
    },
    {
      "inputs": [],
      "name": "nudgeCooldown",
      "outputs": [
        {
          "internalType": "uint256",
          "name": "",
          "type": "uint256"
        }
      ],
      "stateMutability": "view",
      "type": "function"
    },
    {
      "inputs": [
        {
          "internalType": "bytes",
          "name": "performData",
          "type": "bytes"
        }
      ],
      "name": "performUpkeep",
      "outputs": [],
      "stateMutability": "nonpayable",
      "type": "function"
    },
    {
      "inputs": [
        {
          "internalType": "uint256",
          "name": "",
          "type": "uint256"
        },
        {
          "internalType": "address",
          "name": "",
          "type": "address"
        }
      ],
      "name": "pollParticipated",
      "outputs": [
        {
          "internalType": "bool",
          "name": "",
          "type": "bool"
        }
      ],
      "stateMutability": "view",
      "type": "function"
    },
    {
      "inputs": [
        {
          "internalType": "uint256",
          "name": "",
          "type": "uint256"
        }
      ],
      "name": "propertyEngagement",
      "outputs": [
        {
          "internalType": "uint256",
          "name": "propertyId",
          "type": "uint256"
        },
        {
          "internalType": "uint256",
          "name": "phaseStartTime",
          "type": "uint256"
        },
        {
          "internalType": "uint256",
          "name": "totalEligibleVoters",
          "type": "uint256"
        },
        {
          "internalType": "uint256",
          "name": "activeVoters",
          "type": "uint256"
        },
        {
          "internalType": "uint256",
          "name": "totalProposals",
          "type": "uint256"
        },
        {
          "internalType": "uint256",
          "name": "votedProposals",
          "type": "uint256"
        },
        {
          "internalType": "bool",
          "name": "isTracking",
          "type": "bool"
        }
      ],
      "stateMutability": "view",
      "type": "function"
    },
    {
      "inputs": [
        {
          "internalType": "uint256",
          "name": "",
          "type": "uint256"
        }
      ],
      "name": "propertyPollCount",
      "outputs": [
        {
          "internalType": "uint256",
          "name": "",
          "type": "uint256"
        }
      ],
      "stateMutability": "view",
      "type": "function"
    },
    {
      "inputs": [],
      "name": "propertyToken",
      "outputs": [
        {
          "internalType": "contract IPropertyToken",
          "name": "",
          "type": "address"
        }
      ],
      "stateMutability": "view",
      "type": "function"
    },
    {
      "inputs": [
        {
          "internalType": "uint256",
          "name": "propertyId",
          "type": "uint256"
        },
        {
          "internalType": "address",
          "name": "participant",
          "type": "address"
        }
      ],
      "name": "recordPollParticipation",
      "outputs": [],
      "stateMutability": "nonpayable",
      "type": "function"
    },
    {
      "inputs": [
        {
          "internalType": "bytes32",
          "name": "role",
          "type": "bytes32"
        },
        {
          "internalType": "address",
          "name": "callerConfirmation",
          "type": "address"
        }
      ],
      "name": "renounceRole",
      "outputs": [],
      "stateMutability": "nonpayable",
      "type": "function"
    },
    {
      "inputs": [
        {
          "internalType": "bytes32",
          "name": "role",
          "type": "bytes32"
        },
        {
          "internalType": "address",
          "name": "account",
          "type": "address"
        }
      ],
      "name": "revokeRole",
      "outputs": [],
      "stateMutability": "nonpayable",
      "type": "function"
    },
    {
      "inputs": [
        {
          "internalType": "uint256",
          "name": "newCooldown",
          "type": "uint256"
        }
      ],
      "name": "setNudgeCooldown",
      "outputs": [],
      "stateMutability": "nonpayable",
      "type": "function"
    },
    {
      "inputs": [
        {
          "internalType": "uint256",
          "name": "propertyId",
          "type": "uint256"
        },
        {
          "internalType": "uint256",
          "name": "totalEligibleVoters",
          "type": "uint256"
        }
      ],
      "name": "startTracking",
      "outputs": [],
      "stateMutability": "nonpayable",
      "type": "function"
    },
    {
      "inputs": [
        {
          "internalType": "uint256",
          "name": "propertyId",
          "type": "uint256"
        }
      ],
      "name": "stopTracking",
      "outputs": [],
      "stateMutability": "nonpayable",
      "type": "function"
    },
    {
      "inputs": [
        {
          "internalType": "bytes4",
          "name": "interfaceId",
          "type": "bytes4"
        }
      ],
      "name": "supportsInterface",
      "outputs": [
        {
          "internalType": "bool",
          "name": "",
          "type": "bool"
        }
      ],
      "stateMutability": "view",
      "type": "function"
    },
    {
      "inputs": [
        {
          "internalType": "uint256",
          "name": "",
          "type": "uint256"
        }
      ],
      "name": "trackedProperties",
      "outputs": [
        {
          "internalType": "uint256",
          "name": "",
          "type": "uint256"
        }
      ],
      "stateMutability": "view",
      "type": "function"
    },
    {
      "inputs": [
        {
          "internalType": "uint256",
          "name": "propertyId",
          "type": "uint256"
        },
        {
          "internalType": "uint256",
          "name": "activeVoters",
          "type": "uint256"
        },
        {
          "internalType": "uint256",
          "name": "totalProposals",
          "type": "uint256"
        },
        {
          "internalType": "uint256",
          "name": "votedProposals",
          "type": "uint256"
        }
      ],
      "name": "updateEngagement",
      "outputs": [],
      "stateMutability": "nonpayable",
      "type": "function"
    },
    {
      "inputs": [
        {
          "internalType": "uint256",
          "name": "propertyId",
          "type": "uint256"
        },
        {
          "internalType": "uint256",
          "name": "activeVoters",
          "type": "uint256"
        },
        {
          "internalType": "uint256",
          "name": "totalProposals",
          "type": "uint256"
        },
        {
          "internalType": "uint256",
          "name": "votedProposals",
          "type": "uint256"
        },
        {
          "internalType": "uint256",
          "name": "pollParticipants",
          "type": "uint256"
        }
      ],
      "name": "updateEngagementWithPolls",
      "outputs": [],
      "stateMutability": "nonpayable",
      "type": "function"
    }
  ],
  "bytecode": "0x608034620000b557601f62001fe938819003918201601f19168301916001600160401b03831184841017620000ba578084926040948552833981010312620000b5576200005a60206200005283620000d0565b9201620000d0565b62015180600755600180546001600160a01b039384166001600160a01b031991821617909155600280549290931691161790556200009833620000e5565b50620000a43362000165565b50604051611dc19081620002088239f35b600080fd5b634e487b7160e01b600052604160045260246000fd5b51906001600160a01b0382168203620000b557565b6001600160a01b031660008181527fad3228b676f7d3cd4284a5443f17f1962b36e491b30a40b2405849e597ba5fb5602052604081205490919060ff166200016157818052816020526040822081835260205260408220600160ff19825416179055339160008051602062001fc98339815191528180a4600190565b5090565b6001600160a01b031660008181527fee57cd81e84075558e8fcc182a1f4393f91fc97f963a136e66b7f949a62f319f60205260408120549091907f97667070c54ef182b0f5858b034beac1b6f3089aa2d3188bb1e8929f4fa9b9299060ff166200020257808352826020526040832082845260205260408320600160ff1982541617905560008051602062001fc9833981519152339380a4600190565b50509056fe608060408181526004918236101561001657600080fd5b600092833560e01c91826301ffc9a7146113c45750816306785d8a146113435781631194f9e91461131657816314585aeb146110d9578163248a9ca3146110af5781632e94dfda1461104f5781632f2ff15d1461102557816330ae780514611008578163313b79da14610f5757816336568abe14610f115781633a21ccc114610de957816340ab317114610c2b57816343ae269514610c025781634585e33b14610b755781635513de4114610b57578163587bd4a7146104bf5781635aa6e67514610b2e5781635da6559e14610b0657816363e86eb814610a9a5781636675584f14610a7b5781636e04ff0d14610a3f57816373de7b4b14610a17578163785b2190146108865781638085b8131461084e578163816aad3c14610737578163873f6f9e146106f15781638e5359e01461064057816391d14854146105fb57816394c9825d1461053c578163a217fddf14610521578163a27f71b214610505578163a9dc8726146104bf578163b415d279146104a3578163d547741f14610464578163d561248614610223578163f333d6c2146101f9575063f5b541a6146101bc57600080fd5b346101f557816003193601126101f557602090517f97667070c54ef182b0f5858b034beac1b6f3089aa2d3188bb1e8929f4fa9b9298152f35b5080fd5b8284346102205760203660031901126102205750610219602092356118cf565b9051908152f35b80fd5b9190503461039c5760209081600319360112610460578235928460018060a01b03600154168351926332665ffb60e01b845286818501528284602481855afa938415610456578394610428575b508451636ea9967760e01b815281810188815260ff861660208201528790829081906040010381865afa90811561041e5784916103ed575b5085516304fa617360e01b815282810189815260ff871660208201528890829081906040010381875afa9081156103e35785916103ad575b501015806103a0575b6102f1578280f35b813b1561039c57866024849283885195869485936340d57a6760e11b85528401525af180156103925761037a575b5092847f7214c5e85040cb3e35452fa6ff842070826b1d0bd195171e1c75e6d07bc1b96c945260038152856003848220426001820155015560ff610362836118bd565b818551941684521690820152a2388080808481808280f35b61038390611547565b61038e57843861031f565b8480fd5b84513d84823e3d90fd5b8280fd5b50600360ff8516106102e9565b809550888092503d83116103dc575b6103c6818361158d565b810103126103d757889351386102e0565b600080fd5b503d6103bc565b87513d87823e3d90fd5b809450878092503d8311610417575b610406818361158d565b810103126103d757879251386102a8565b503d6103fc565b86513d86823e3d90fd5b6104459194503d8085833e61043d818361158d565b810190611832565b505096505050505050509238610270565b85513d85823e3d90fd5b8380fd5b9190503461039c578060031936011261039c5761049f913561049a6001610489611417565b938387528660205286200154611985565b611a29565b5080f35b5050346101f557816003193601126101f5576020905160018152f35b90503461039c578160031936011261039c57816020936104dd611417565b9235815260098552209060018060a01b0316600052825260ff81600020541690519015158152f35b5050346101f557816003193601126101f5576020905160328152f35b5050346101f557816003193601126101f55751908152602090f35b90503461039c57608036600319011261039c576105f891817f63bd409a0ca0450137d1b574e1e74a5a18cc8934d8f718c1603619b971ce6737600293359283926105e66024359161058b61190b565b858a526003602052838a20906105a760ff60068401541661150c565b8360038301556044359082015560643560058201556105c5866118cf565b97889101549351938493846040919493926060820195825260208201520152565b0390a26105f38282611a9e565b611c1d565b80f35b90503461039c578160031936011261039c5781602093610619611417565b92358152808552209060018060a01b0316600052825260ff81600020541690519015158152f35b90503461039c57602036600319011261039c57803591600080526000602052806000203360005260205260ff816000205416156106d357610e10831015806106c6575b1561069057505060075580f35b906020606492519162461bcd60e51b8352820152601060248201526f24b73b30b634b21031b7b7b63237bbb760811b6044820152fd5b5062093a80831115610683565b60449250519063e2517d3f60e01b8252339082015260006024820152fd5b90503461039c578160031936011261039c578160209361070f611417565b9235815260088552209060018060a01b0316600052825260ff81600020541690519015158152f35b9190503461039c578060031936011261039c57813590610755611417565b9261075e61190b565b8285526020906005825260ff83872054161561081657838652600982528286206001600160a01b039095166000818152958352948390205460ff166107e25750828552600981528185206000858152915220805460ff191660011790557f9c81720c57d474644d653192db4aee34eff3e6b5c6b80e4c283ab58871c9382e8380a380f35b915162461bcd60e51b815291820152601060248201526f105b1c9958591e481c9958dbdc99195960821b6044820152606490fd5b915162461bcd60e51b8152918201526014602482015273141c9bdc195c9d1e481b9bdd081d1c9858dad95960621b6044820152606490fd5b828434610220576020366003190112610220578235925483101561022057506108786020926114bf565b91905490519160031b1c8152f35b8383346101f557806003193601126103d7578235906108a361190b565b818352600560205260ff81842054166109e25780519060e0820182811067ffffffffffffffff8211176109cd57815282825260066020830192428452828101602435815260608201878152608083019088825260a084019289845260c085019760018952898b526003602052878b2095518655516001860155516002850155516003840155518883015551600582015501915115159160ff199260ff8483541691161790558454680100000000000000008110156109ba579061096d8287600180950190556114bf565b81549060031b9086821b91600019901b191617905583855260056020528420918254161790557f3621586063592251acf2253a10fe8119554dbb0bf93d6e875b85a3a66a2166b98280a280f35b634e487b7160e01b855260418652602485fd5b604186634e487b7160e01b6000525260246000fd5b5162461bcd60e51b8152602081850152601060248201526f416c726561647920747261636b696e6760801b6044820152606490fd5b90503461039c57602036600319011261039c576020928291358152600a845220549051908152f35b8284346102205750610a503661142d565b5050610a77610a5d6116d3565b83929192519384931515845280602085015283019061149a565b0390f35b5050346101f557816003193601126101f5576020906007549051908152f35b90503461039c57602036600319011261039c578160e0938235815260036020522080549260018201549260028301546003840154918401549260ff600660058701549601541695815197885260208801528601526060850152608084015260a0830152151560c0820152f35b90503461039c57602036600319011261039c5760209282913581526006845220549051908152f35b5050346101f557816003193601126101f55760025490516001600160a01b039091168152602090f35b5050346101f557816003193601126101f5576020905162093a808152f35b8383346101f55780610b863661142d565b90809291810103126103d757600190359182845260036020528320610bb160ff60068301541661150c565b01549262093a808401809411610bef5750610bd26105f8929342101561169b565b610bdb816118cf565b90610bea611d4c831015611638565b611c60565b634e487b7160e01b835260119052602482fd5b5050346101f557816003193601126101f55760015490516001600160a01b039091168152602090f35b9190503461039c57602090816003193601126104605782359160018060a01b039360019460248382885416865192838092634d8c928d60e11b825233888301525afa8015610ddf578890610da5575b610c8491506115bc565b84875260088352838720336000528352610ca560ff856000205416156115fa565b8487526003835285848820610cc060ff60068301541661150c565b610cd6611d4c610ccf896118cf565b1015611638565b015462093a808101809111610d925790610cf488939242101561169b565b85835260088452848320336000528452846000208760ff1982541617905586541690813b1561039c57856064849283885195869485936346b40cdf60e11b85528401523360248401528b60448401525af1801561039257610d7e575b50507f89e1649e796bc46c9dcd5fd4505f79bfdd9197c8eccbdbaf05a6bfd1cb9ea09b91519384523393a380f35b610d8790611547565b61038e578438610d50565b634e487b7160e01b885260118352602488fd5b508381813d8311610dd8575b610dbb818361158d565b81010312610dd457610dcf610c84916115af565b610c7a565b8780fd5b503d610db1565b85513d8a823e3d90fd5b8383346101f55760a03660031901126101f557823560843591610e0a61190b565b818452600360205280842092610e2660ff60068601541661150c565b6032810281810460321482151715610efe579560646105f896970490610e4e82602435611678565b95600281015491828811610ef4575b7f63bd409a0ca0450137d1b574e1e74a5a18cc8934d8f718c1603619b971ce67377fa924d670d57ce0c4ef66945fcc39ba0d6082deb70a897faa080424140b0b1c7d95938389989694938b60038b960155604435908201556005606435910155610ec6836118cf565b86519a8b5260208b019190915260408a0181905298606090a282519182526020820152a26105f38282611a9e565b9196508691610e5d565b634e487b7160e01b865260118752602486fd5b8383346101f557806003193601126101f557610f2b611417565b90336001600160a01b03831603610f48575061049f919235611a29565b5163334bd91960e11b81528390fd5b905082346102205780600319360112610220579190815192838254808652602080960190819484527f8a35acfbc15ff81a39ae7d344fd709f28e8600b4aa8c65c6b64bfe7fe36bd19b90845b818110610ff45750505081610fb991038261158d565b83519485948186019282875251809352850193925b828110610fdd57505050500390f35b835185528695509381019392810192600101610fce565b825484529288019260019283019201610fa3565b5050346101f557816003193601126101f55760209051611d4c8152f35b9190503461039c578060031936011261039c5761049f913561104a6001610489611417565b6119ab565b8383346101f55760203660031901126101f5578060a093359283815260036020522060018101549260028201549260ff600661108f6003860154946118cf565b940154169381519586526020860152840152606083015215156080820152f35b90503461039c57602036600319011261039c57816020936001923581528085522001549051908152f35b90503461039c5760209182600319360112610460576001548151634d8c928d60e11b81523381850152833593916001600160a01b03919086908290602490829086165afa801561130c5787906112d2575b61113491506115bc565b83865260098552828620338752855260ff8387205416156112905783865260088552828620338752855261116e60ff8488205416156115fa565b83865260038552600183872061118a60ff60068301541661150c565b611199611d4c610ccf886118cf565b015462093a80810180911161127d57906111b6879242101561169b565b848252600886528382203383528652838220600160ff198254161790556001541691823b156101f5576064859183865195869485936346b40cdf60e11b8552840152336024840152600260448401525af1801561127357611240575b50516002815233927f89e1649e796bc46c9dcd5fd4505f79bfdd9197c8eccbdbaf05a6bfd1cb9ea09b91a380f35b9361126c7f89e1649e796bc46c9dcd5fd4505f79bfdd9197c8eccbdbaf05a6bfd1cb9ea09b9295611547565b9390611212565b82513d87823e3d90fd5b634e487b7160e01b875260118352602487fd5b5083606492519162461bcd60e51b8352820152601c60248201527f446964206e6f7420706172746963697061746520696e20706f6c6c73000000006044820152fd5b508581813d8311611305575b6112e8818361158d565b81010312611301576112fc611134916115af565b61112a565b8680fd5b503d6112de565b84513d89823e3d90fd5b90503461039c57602036600319011261039c578160209360ff923581526005855220541690519015158152f35b90503461039c57602036600319011261039c57359061136061190b565b818352600560205261137760ff828520541661150c565b81835260036020526006818420019060ff1991828154169055600560205283209081541690557f96fbf803f14da8437e0cbe34df7152f998dbc3b7e2343c52fb4285e90387a9ca8280a280f35b84913461039c57602036600319011261039c573563ffffffff60e01b811680910361039c5760209250637965db0b60e01b8114908115611406575b5015158152f35b6301ffc9a760e01b149050836113ff565b602435906001600160a01b03821682036103d757565b9060206003198301126103d75760043567ffffffffffffffff928382116103d757806023830112156103d75781600401359384116103d757602484830101116103d7576024019190565b60005b83811061148a5750506000910152565b818101518382015260200161147a565b906020916114b381518092818552858086019101611477565b601f01601f1916010190565b6004548110156114f65760046000527f8a35acfbc15ff81a39ae7d344fd709f28e8600b4aa8c65c6b64bfe7fe36bd19b0190600090565b634e487b7160e01b600052603260045260246000fd5b1561151357565b60405162461bcd60e51b815260206004820152600c60248201526b4e6f7420747261636b696e6760a01b6044820152606490fd5b67ffffffffffffffff811161155b57604052565b634e487b7160e01b600052604160045260246000fd5b6040810190811067ffffffffffffffff82111761155b57604052565b90601f8019910116810190811067ffffffffffffffff82111761155b57604052565b519081151582036103d757565b156115c357565b60405162461bcd60e51b815260206004820152600f60248201526e139bdd081dda1a5d195b1a5cdd1959608a1b6044820152606490fd5b1561160157565b60405162461bcd60e51b815260206004820152600f60248201526e105b1c9958591e4818db185a5b5959608a1b6044820152606490fd5b1561163f57565b60405162461bcd60e51b8152602060048201526011602482015270151a1c995cda1bdb19081b9bdd081b595d607a1b6044820152606490fd5b9190820180921161168557565b634e487b7160e01b600052601160045260246000fd5b156116a257565b60405162461bcd60e51b8152602060048201526009602482015268546f6f206561726c7960b81b6044820152606490fd5b6004805460005b81811061170b575050506000906040516020810181811067ffffffffffffffff82111761155b576040526000815290565b611714816114bf565b9054600391821b1c8060005260209182526040806000209160ff600684015416156117bc5760018093015462093a8081018091116117c85742106117bc5761175b816118cf565b90611d4c8210156117755750505050506001905b016116da565b8251948501528382015280835291959490935060608601925067ffffffffffffffff8311868410176117a75750529190565b604190634e487b7160e01b6000525260246000fd5b5050505060019061176f565b601188634e487b7160e01b6000525260246000fd5b81601f820112156103d757805167ffffffffffffffff811161155b5760405192611811601f8301601f19166020018561158d565b818452602082840101116103d75761182f9160208085019101611477565b90565b610140818303126103d757805192602082015167ffffffffffffffff908181116103d757846118629185016117dd565b9360408401519182116103d75761187a9184016117dd565b9160608101519160808201519160a08101519160c08201519160e081015160ff811681036103d7579161182f6101206118b661010085016115af565b93016115af565b60ff60019116019060ff821161168557565b600052600360205260406000206002810154908115611904576003015461271090818102918183041490151715611685570490565b5050600090565b3360009081527fee57cd81e84075558e8fcc182a1f4393f91fc97f963a136e66b7f949a62f319f60205260409020547f97667070c54ef182b0f5858b034beac1b6f3089aa2d3188bb1e8929f4fa9b9299060ff16156119675750565b6044906040519063e2517d3f60e01b82523360048301526024820152fd5b80600052600060205260406000203360005260205260ff60406000205416156119675750565b9060009180835282602052604083209160018060a01b03169182845260205260ff60408420541615600014611a2457808352826020526040832082845260205260408320600160ff198254161790557f2f8788117e7eff1d82e926ec794901d17c78024a50270940304540a733656f0d339380a4600190565b505090565b9060009180835282602052604083209160018060a01b03169182845260205260ff604084205416600014611a245780835282602052604083208284526020526040832060ff1981541690557ff6391f5c32d9c69d2a47ea670b442974b53935d1edc7fd64eb21e047a839171b339380a4600190565b9081600052602090600682526040611abd816000205460075490611678565b4210611c01576109c4821015611b46577f505a29c5397a0038bf34d9f7baf0047c3f5eae6323bf8450c1e34dacf7cc2a17928151611afa81611571565b60148152733ab933b2b73a2fb830b93a34b1b4b830ba34b7b760611b82820152925b8560005260068252428360002055611b3d835194848695865285019061149a565b918301520390a2565b61177082101580611c12575b15611ba4577f505a29c5397a0038bf34d9f7baf0047c3f5eae6323bf8450c1e34dacf7cc2a17928151611b8481611571565b600e81526d36b4b632b9ba37b732afb732b0b960911b8282015292611b1c565b611b5882101580611c07575b15611c01577f505a29c5397a0038bf34d9f7baf0047c3f5eae6323bf8450c1e34dacf7cc2a17928151611be281611571565b600d81526c70686173655f636c6f73696e6760981b8282015292611b1c565b50505050565b50611d4c8210611bb0565b50611d4c8210611b52565b9081600052600360205260016040600020015462093a808101809111611685574210611c5c57611d4c811015611c51575050565b611c5a91611c60565b565b5050565b600154604080516332665ffb60e01b81526004810184905292936001600160a01b039092169260008082602481885afa918215611d7f578192611d59575b5060ff82169460038610611cb6575b50505050505050565b803b156101f55781809160248651809481936340d57a6760e11b83528c60048401525af1801561039257606095937fd786d06dd56df8b68a470fb87593bd3d76a14eeea5cf10760563177bd21496b097959360ff93611d2f93611d4a575b508981526003602052600385822042600182015501556118bd565b8251948552166020840152820152a238808080808080611cad565b611d5390611547565b38611d14565b611d6e9192503d8084833e61043d818361158d565b505096505050505050509038611c9e565b508251903d90823e3d90fdfea2646970667358221220f2a5c6f5911bdfa361cfa0ab527cda92014357a8dc27a8d5075562aabd4ac0cf64736f6c634300081800332f8788117e7eff1d82e926ec794901d17c78024a50270940304540a733656f0d",
  "linkReferences": {},
  "deployedLinkReferences": {}
}