{
  "_format": "hh-sol-artifact-1",
  "contractName": "PhaseManager",
  "sourceName": "contracts/PhaseManager.sol",
  "abi": [
    {
      "inputs": [
        {
          "internalType": "address",
          "name": "_propertyToken",
          "type": "address"
        },
        {
          "internalType": "address",
          "name": "_governance",
          "type": "address"
        }
      ],
      "stateMutability": "nonpayable",
      "type": "constructor"
    },
    {
      "inputs": [],
      "name": "AccessControlBadConfirmation",
      "type": "error"
    },
    {
      "inputs": [
        {
          "internalType": "address",
          "name": "account",
          "type": "address"
        },
        {
          "internalType": "bytes32",
          "name": "neededRole",
          "type": "bytes32"
        }
      ],
      "name": "AccessControlUnauthorizedAccount",
      "type": "error"
    },
    {
      "anonymous": false,
      "inputs": [
        {
          "indexed": true,
          "internalType": "uint256",
          "name": "propertyId",
          "type": "uint256"
        },
        {
          "indexed": true,
          "internalType": "address",
          "name": "claimer",
          "type": "address"
        },
        {
          "indexed": false,
          "internalType": "uint256",
          "name": "bonus",
          "type": "uint256"
        }
      ],
      "name": "BonusClaimed",
      "type": "event"
    },
    {
      "anonymous": false,
      "inputs": [
        {
          "indexed": true,
          "internalType": "uint256",
          "name": "propertyId",
          "type": "uint256"
        },
        {
          "indexed": false,
          "internalType": "uint256",
          "name": "demandBps",
          "type": "uint256"
        }
      ],
      "name": "DemandDrivenAdvancement",
      "type": "event"
    },
    {
      "anonymous": false,
      "inputs": [
        {
          "indexed": true,
          "internalType": "uint256",
          "name": "propertyId",
          "type": "uint256"
        },
        {
          "indexed": false,
          "internalType": "uint8",
          "name": "demandType",
          "type": "uint8"
        },
        {
          "indexed": false,
          "internalType": "uint256",
          "name": "demandBps",
          "type": "uint256"
        }
      ],
      "name": "DemandNudge",
      "type": "event"
    },
    {
      "anonymous": false,
      "inputs": [
        {
          "indexed": true,
          "internalType": "uint256",
          "name": "propertyId",
          "type": "uint256"
        },
        {
          "indexed": false,
          "internalType": "uint256",
          "name": "activeVoters",
          "type": "uint256"
        },
        {
          "indexed": false,
          "internalType": "uint256",
          "name": "totalEligible",
          "type": "uint256"
        },
        {
          "indexed": false,
          "internalType": "uint256",
          "name": "engagementPercent",
          "type": "uint256"
        }
      ],
      "name": "EngagementUpdated",
      "type": "event"
    },
    {
      "anonymous": false,
      "inputs": [
        {
          "indexed": true,
          "internalType": "uint256",
          "name": "propertyId",
          "type": "uint256"
        },
        {
          "indexed": false,
          "internalType": "string",
          "name": "nudgeType",
          "type": "string"
        },
        {
          "indexed": false,
          "internalType": "uint256",
          "name": "engagementPercent",
          "type": "uint256"
        }
      ],
      "name": "NudgeTriggered",
      "type": "event"
    },
    {
      "anonymous": false,
      "inputs": [
        {
          "indexed": true,
          "internalType": "uint256",
          "name": "propertyId",
          "type": "uint256"
        },
        {
          "indexed": false,
          "internalType": "uint8",
          "name": "fromPhase",
          "type": "uint8"
        },
        {
          "indexed": false,
          "internalType": "uint8",
          "name": "toPhase",
          "type": "uint8"
        },
        {
          "indexed": false,
          "internalType": "uint256",
          "name": "engagementPercent",
          "type": "uint256"
        }
      ],
      "name": "PhaseAdvancedByEngagement",
      "type": "event"
    },
    {
      "anonymous": false,
      "inputs": [
        {
          "indexed": true,
          "internalType": "uint256",
          "name": "propertyId",
          "type": "uint256"
        },
        {
          "indexed": false,
          "internalType": "uint8",
          "name": "fromPhase",
          "type": "uint8"
        },
        {
          "indexed": false,
          "internalType": "uint8",
          "name": "toPhase",
          "type": "uint8"
        }
      ],
      "name": "PhaseAdvancedBySubscription",
      "type": "event"
    },
    {
      "anonymous": false,
      "inputs": [
        {
          "indexed": true,
          "internalType": "uint256",
          "name": "propertyId",
          "type": "uint256"
        },
        {
          "indexed": false,
          "internalType": "uint256",
          "name": "pollParticipants",
          "type": "uint256"
        },
        {
          "indexed": false,
          "internalType": "uint256",
          "name": "bonusEngagement",
          "type": "uint256"
        }
      ],
      "name": "PollBonusApplied",
      "type": "event"
    },
    {
      "anonymous": false,
      "inputs": [
        {
          "indexed": true,
          "internalType": "uint256",
          "name": "propertyId",
          "type": "uint256"
        },
        {
          "indexed": true,
          "internalType": "address",
          "name": "participant",
          "type": "address"
        }
      ],
      "name": "PollParticipationRecorded",
      "type": "event"
    },
    {
      "anonymous": false,
      "inputs": [
        {
          "indexed": true,
          "internalType": "uint256",
          "name": "propertyId",
          "type": "uint256"
        }
      ],
      "name": "PropertyTrackingStarted",
      "type": "event"
    },
    {
      "anonymous": false,
      "inputs": [
        {
          "indexed": true,
          "internalType": "uint256",
          "name": "propertyId",
          "type": "uint256"
        }
      ],
      "name": "PropertyTrackingStopped",
      "type": "event"
    },
    {
      "anonymous": false,
      "inputs": [
        {
          "indexed": true,
          "internalType": "bytes32",
          "name": "role",
          "type": "bytes32"
        },
        {
          "indexed": true,
          "internalType": "bytes32",
          "name": "previousAdminRole",
          "type": "bytes32"
        },
        {
          "indexed": true,
          "internalType": "bytes32",
          "name": "newAdminRole",
          "type": "bytes32"
        }
      ],
      "name": "RoleAdminChanged",
      "type": "event"
    },
    {
      "anonymous": false,
      "inputs": [
        {
          "indexed": true,
          "internalType": "bytes32",
          "name": "role",
          "type": "bytes32"
        },
        {
          "indexed": true,
          "internalType": "address",
          "name": "account",
          "type": "address"
        },
        {
          "indexed": true,
          "internalType": "address",
          "name": "sender",
          "type": "address"
        }
      ],
      "name": "RoleGranted",
      "type": "event"
    },
    {
      "anonymous": false,
      "inputs": [
        {
          "indexed": true,
          "internalType": "bytes32",
          "name": "role",
          "type": "bytes32"
        },
        {
          "indexed": true,
          "internalType": "address",
          "name": "account",
          "type": "address"
        },
        {
          "indexed": true,
          "internalType": "address",
          "name": "sender",
          "type": "address"
        }
      ],
      "name": "RoleRevoked",
      "type": "event"
    },
    {
      "inputs": [],
      "name": "BONUS_TOKENS",
      "outputs": [
        {
          "internalType": "uint256",
          "name": "",
          "type": "uint256"
        }
      ],
      "stateMutability": "view",
      "type": "function"
    },
    {
      "inputs": [],
      "name": "DEFAULT_ADMIN_ROLE",
      "outputs": [
        {
          "internalType": "bytes32",
          "name": "",
          "type": "bytes32"
        }
      ],
      "stateMutability": "view",
      "type": "function"
    },
    {
      "inputs": [],
      "name": "ENGAGEMENT_THRESHOLD",
      "outputs": [
        {
          "internalType": "uint256",
          "name": "",
          "type": "uint256"
        }
      ],
      "stateMutability": "view",
      "type": "function"
    },
    {
      "inputs": [],
      "name": "MIN_ENGAGEMENT_PERIOD",
      "outputs": [
        {
          "internalType": "uint256",
          "name": "",
          "type": "uint256"
        }
      ],
      "stateMutability": "view",
      "type": "function"
    },
    {
      "inputs": [],
      "name": "OPERATOR_ROLE",
      "outputs": [
        {
          "internalType": "bytes32",
          "name": "",
          "type": "bytes32"
        }
      ],
      "stateMutability": "view",
      "type": "function"
    },
    {
      "inputs": [],
      "name": "POLL_BONUS_MULTIPLIER",
      "outputs": [
        {
          "internalType": "uint256",
          "name": "",
          "type": "uint256"
        }
      ],
      "stateMutability": "view",
      "type": "function"
    },
    {
      "inputs": [
        {
          "internalType": "uint256",
          "name": "propertyId",
          "type": "uint256"
        }
      ],
      "name": "calculateEngagement",
      "outputs": [
        {
          "internalType": "uint256",
          "name": "",
          "type": "uint256"
        }
      ],
      "stateMutability": "view",
      "type": "function"
    },
    {
      "inputs": [
        {
          "internalType": "uint256",
          "name": "propertyId",
          "type": "uint256"
        }
      ],
      "name": "checkSubscriptionAdvancement",
      "outputs": [],
      "stateMutability": "nonpayable",
      "type": "function"
    },
    {
      "inputs": [
        {
          "internalType": "bytes",
          "name": "",
          "type": "bytes"
        }
      ],
      "name": "checkUpkeep",
      "outputs": [
        {
          "internalType": "bool",
          "name": "upkeepNeeded",
          "type": "bool"
        },
        {
          "internalType": "bytes",
          "name": "performData",
          "type": "bytes"
        }
      ],
      "stateMutability": "view",
      "type": "function"
    },
    {
      "inputs": [
        {
          "internalType": "uint256",
          "name": "propertyId",
          "type": "uint256"
        }
      ],
      "name": "claimEngagementBonus",
      "outputs": [],
      "stateMutability": "nonpayable",
      "type": "function"
    },
    {
      "inputs": [
        {
          "internalType": "uint256",
          "name": "propertyId",
          "type": "uint256"
        }
      ],
      "name": "claimPollBoostBonus",
      "outputs": [],
      "stateMutability": "nonpayable",
      "type": "function"
    },
    {
      "inputs": [],
      "name": "getCommunityHealth",
      "outputs": [
        {
          "internalType": "uint256",
          "name": "",
          "type": "uint256"
        }
      ],
      "stateMutability": "view",
      "type": "function"
    },
    {
      "inputs": [
        {
          "internalType": "uint256",
          "name": "propertyId",
          "type": "uint256"
        }
      ],
      "name": "getDemandEngagementMetrics",
      "outputs": [
        {
          "internalType": "uint256",
          "name": "baseEngagement",
          "type": "uint256"
        },
        {
          "internalType": "uint256[4]",
          "name": "demandBars",
          "type": "uint256[4]"
        },
        {
          "internalType": "uint256",
          "name": "healthScore",
          "type": "uint256"
        },
        {
          "internalType": "bool",
          "name": "isReadyForAdvancement",
          "type": "bool"
        }
      ],
      "stateMutability": "view",
      "type": "function"
    },
    {
      "inputs": [
        {
          "internalType": "uint256",
          "name": "propertyId",
          "type": "uint256"
        }
      ],
      "name": "getEngagement",
      "outputs": [
        {
          "internalType": "uint256",
          "name": "phaseStartTime",
          "type": "uint256"
        },
        {
          "internalType": "uint256",
          "name": "totalEligible",
          "type": "uint256"
        },
        {
          "internalType": "uint256",
          "name": "activeVoters",
          "type": "uint256"
        },
        {
          "internalType": "uint256",
          "name": "engagementPercent",
          "type": "uint256"
        },
        {
          "internalType": "bool",
          "name": "isTracking",
          "type": "bool"
        }
      ],
      "stateMutability": "view",
      "type": "function"
    },
    {
      "inputs": [
        {
          "internalType": "bytes32",
          "name": "role",
          "type": "bytes32"
        }
      ],
      "name": "getRoleAdmin",
      "outputs": [
        {
          "internalType": "bytes32",
          "name": "",
          "type": "bytes32"
        }
      ],
      "stateMutability": "view",
      "type": "function"
    },
    {
      "inputs": [],
      "name": "getTrackedProperties",
      "outputs": [
        {
          "internalType": "uint256[]",
          "name": "",
          "type": "uint256[]"
        }
      ],
      "stateMutability": "view",
      "type": "function"
    },
    {
      "inputs": [],
      "name": "governance",
      "outputs": [
        {
          "internalType": "contract IGovernance",
          "name": "",
          "type": "address"
        }
      ],
      "stateMutability": "view",
      "type": "function"
    },
    {
      "inputs": [
        {
          "internalType": "bytes32",
          "name": "role",
          "type": "bytes32"
        },
        {
          "internalType": "address",
          "name": "account",
          "type": "address"
        }
      ],
      "name": "grantRole",
      "outputs": [],
      "stateMutability": "nonpayable",
      "type": "function"
    },
    {
      "inputs": [
        {
          "internalType": "uint256",
          "name": "",
          "type": "uint256"
        },
        {
          "internalType": "address",
          "name": "",
          "type": "address"
        }
      ],
      "name": "hasClaimed",
      "outputs": [
        {
          "internalType": "bool",
          "name": "",
          "type": "bool"
        }
      ],
      "stateMutability": "view",
      "type": "function"
    },
    {
      "inputs": [
        {
          "internalType": "uint256",
          "name": "propertyId",
          "type": "uint256"
        },
        {
          "internalType": "address",
          "name": "participant",
          "type": "address"
        }
      ],
      "name": "hasParticipatedInPolls",
      "outputs": [
        {
          "internalType": "bool",
          "name": "",
          "type": "bool"
        }
      ],
      "stateMutability": "view",
      "type": "function"
    },
    {
      "inputs": [
        {
          "internalType": "bytes32",
          "name": "role",
          "type": "bytes32"
        },
        {
          "internalType": "address",
          "name": "account",
          "type": "address"
        }
      ],
      "name": "hasRole",
      "outputs": [
        {
          "internalType": "bool",
          "name": "",
          "type": "bool"
        }
      ],
      "stateMutability": "view",
      "type": "function"
    },
    {
      "inputs": [
        {
          "internalType": "uint256",
          "name": "",
          "type": "uint256"
        }
      ],
      "name": "isTracked",
      "outputs": [
        {
          "internalType": "bool",
          "name": "",
          "type": "bool"
        }
      ],
      "stateMutability": "view",
      "type": "function"
    },
    {
      "inputs": [
        {
          "internalType": "uint256",
          "name": "",
          "type": "uint256"
        }
      ],
      "name": "lastNudgeTime",
      "outputs": [
        {
          "internalType": "uint256",
          "name": "",
          "type": "uint256"
        }
      ],
      "stateMutability": "view",
      "type": "function"
    },
    {
      "inputs": [],
      "name": "nudgeCooldown",
      "outputs": [
        {
          "internalType": "uint256",
          "name": "",
          "type": "uint256"
        }
      ],
      "stateMutability": "view",
      "type": "function"
    },
    {
      "inputs": [
        {
          "internalType": "bytes",
          "name": "performData",
          "type": "bytes"
        }
      ],
      "name": "performUpkeep",
      "outputs": [],
      "stateMutability": "nonpayable",
      "type": "function"
    },
    {
      "inputs": [
        {
          "internalType": "uint256",
          "name": "",
          "type": "uint256"
        },
        {
          "internalType": "address",
          "name": "",
          "type": "address"
        }
      ],
      "name": "pollParticipated",
      "outputs": [
        {
          "internalType": "bool",
          "name": "",
          "type": "bool"
        }
      ],
      "stateMutability": "view",
      "type": "function"
    },
    {
      "inputs": [
        {
          "internalType": "uint256",
          "name": "",
          "type": "uint256"
        }
      ],
      "name": "propertyEngagement",
      "outputs": [
        {
          "internalType": "uint256",
          "name": "propertyId",
          "type": "uint256"
        },
        {
          "internalType": "uint256",
          "name": "phaseStartTime",
          "type": "uint256"
        },
        {
          "internalType": "uint256",
          "name": "totalEligibleVoters",
          "type": "uint256"
        },
        {
          "internalType": "uint256",
          "name": "activeVoters",
          "type": "uint256"
        },
        {
          "internalType": "uint256",
          "name": "totalProposals",
          "type": "uint256"
        },
        {
          "internalType": "uint256",
          "name": "votedProposals",
          "type": "uint256"
        },
        {
          "internalType": "bool",
          "name": "isTracking",
          "type": "bool"
        }
      ],
      "stateMutability": "view",
      "type": "function"
    },
    {
      "inputs": [
        {
          "internalType": "uint256",
          "name": "",
          "type": "uint256"
        }
      ],
      "name": "propertyPollCount",
      "outputs": [
        {
          "internalType": "uint256",
          "name": "",
          "type": "uint256"
        }
      ],
      "stateMutability": "view",
      "type": "function"
    },
    {
      "inputs": [],
      "name": "propertyToken",
      "outputs": [
        {
          "internalType": "contract IPropertyToken",
          "name": "",
          "type": "address"
        }
      ],
      "stateMutability": "view",
      "type": "function"
    },
    {
      "inputs": [
        {
          "internalType": "uint256",
          "name": "propertyId",
          "type": "uint256"
        },
        {
          "internalType": "address",
          "name": "participant",
          "type": "address"
        }
      ],
      "name": "recordPollParticipation",
      "outputs": [],
      "stateMutability": "nonpayable",
      "type": "function"
    },
    {
      "inputs": [
        {
          "internalType": "bytes32",
          "name": "role",
          "type": "bytes32"
        },
        {
          "internalType": "address",
          "name": "callerConfirmation",
          "type": "address"
        }
      ],
      "name": "renounceRole",
      "outputs": [],
      "stateMutability": "nonpayable",
      "type": "function"
    },
    {
      "inputs": [
        {
          "internalType": "bytes32",
          "name": "role",
          "type": "bytes32"
        },
        {
          "internalType": "address",
          "name": "account",
          "type": "address"
        }
      ],
      "name": "revokeRole",
      "outputs": [],
      "stateMutability": "nonpayable",
      "type": "function"
    },
    {
      "inputs": [
        {
          "internalType": "uint256",
          "name": "newCooldown",
          "type": "uint256"
        }
      ],
      "name": "setNudgeCooldown",
      "outputs": [],
      "stateMutability": "nonpayable",
      "type": "function"
    },
    {
      "inputs": [
        {
          "internalType": "uint256",
          "name": "propertyId",
          "type": "uint256"
        },
        {
          "internalType": "uint256",
          "name": "totalEligibleVoters",
          "type": "uint256"
        }
      ],
      "name": "startTracking",
      "outputs": [],
      "stateMutability": "nonpayable",
      "type": "function"
    },
    {
      "inputs": [
        {
          "internalType": "uint256",
          "name": "propertyId",
          "type": "uint256"
        }
      ],
      "name": "stopTracking",
      "outputs": [],
      "stateMutability": "nonpayable",
      "type": "function"
    },
    {
      "inputs": [
        {
          "internalType": "bytes4",
          "name": "interfaceId",
          "type": "bytes4"
        }
      ],
      "name": "supportsInterface",
      "outputs": [
        {
          "internalType": "bool",
          "name": "",
          "type": "bool"
        }
      ],
      "stateMutability": "view",
      "type": "function"
    },
    {
      "inputs": [
        {
          "internalType": "uint256",
          "name": "",
          "type": "uint256"
        }
      ],
      "name": "trackedProperties",
      "outputs": [
        {
          "internalType": "uint256",
          "name": "",
          "type": "uint256"
        }
      ],
      "stateMutability": "view",
      "type": "function"
    },
    {
      "inputs": [
        {
          "internalType": "uint256",
          "name": "propertyId",
          "type": "uint256"
        }
      ],
      "name": "updateDemandEngagement",
      "outputs": [],
      "stateMutability": "nonpayable",
      "type": "function"
    },
    {
      "inputs": [
        {
          "internalType": "uint256",
          "name": "propertyId",
          "type": "uint256"
        },
        {
          "internalType": "uint256",
          "name": "activeVoters",
          "type": "uint256"
        },
        {
          "internalType": "uint256",
          "name": "totalProposals",
          "type": "uint256"
        },
        {
          "internalType": "uint256",
          "name": "votedProposals",
          "type": "uint256"
        }
      ],
      "name": "updateEngagement",
      "outputs": [],
      "stateMutability": "nonpayable",
      "type": "function"
    },
    {
      "inputs": [
        {
          "internalType": "uint256",
          "name": "propertyId",
          "type": "uint256"
        },
        {
          "internalType": "uint256",
          "name": "activeVoters",
          "type": "uint256"
        },
        {
          "internalType": "uint256",
          "name": "totalProposals",
          "type": "uint256"
        },
        {
          "internalType": "uint256",
          "name": "votedProposals",
          "type": "uint256"
        },
        {
          "internalType": "uint256",
          "name": "pollParticipants",
          "type": "uint256"
        }
      ],
      "name": "updateEngagementWithPolls",
      "outputs": [],
      "stateMutability": "nonpayable",
      "type": "function"
    }
  ],
  "bytecode": "0x608034620000b557601f6200240d38819003918201601f19168301916001600160401b03831184841017620000ba578084926040948552833981010312620000b5576200005a60206200005283620000d0565b9201620000d0565b62015180600755600180546001600160a01b039384166001600160a01b031991821617909155600280549290931691161790556200009833620000e5565b50620000a43362000165565b506040516121e59081620002088239f35b600080fd5b634e487b7160e01b600052604160045260246000fd5b51906001600160a01b0382168203620000b557565b6001600160a01b031660008181527fad3228b676f7d3cd4284a5443f17f1962b36e491b30a40b2405849e597ba5fb5602052604081205490919060ff166200016157818052816020526040822081835260205260408220600160ff198254161790553391600080516020620023ed8339815191528180a4600190565b5090565b6001600160a01b031660008181527fee57cd81e84075558e8fcc182a1f4393f91fc97f963a136e66b7f949a62f319f60205260408120549091907f97667070c54ef182b0f5858b034beac1b6f3089aa2d3188bb1e8929f4fa9b9299060ff166200020257808352826020526040832082845260205260408320600160ff19825416179055600080516020620023ed833981519152339380a4600190565b50509056fe608060408181526004918236101561001657600080fd5b600092833560e01c91826301ffc9a71461173a5750816306785d8a146116b95781630ad5f421146116295781631194f9e9146115fc57816311f0072f1461147157816314585aeb14611234578163248a9ca31461120a5781632e94dfda146111aa5781632f2ff15d1461118057816330ae780514611163578163313b79da146110b257816336568abe1461106c5781633a21ccc114610f4457816340ab317114610d8657816343ae269514610d5d5781634585e33b14610cd05781635513de4114610cb2578163587bd4a71461064f5781635aa6e67514610c895781635da6559e14610c6157816363e86eb814610bf55781636675584f14610bd65781636e04ff0d14610b9a57816373de7b4b14610b72578163785b2190146109e15781638085b813146109a9578163816aad3c146108c7578163873f6f9e146108815781638e5359e0146107d057816391d148541461078b57816394c9825d146106cc578163a217fddf146106b1578163a27f71b214610695578163a9dc87261461064f578163b415d27914610633578163c8259776146104c4578163d547741f14610485578163d561248614610244578163f333d6c21461021a575063f5b541a6146101dd57600080fd5b34610216578160031936011261021657602090517f97667070c54ef182b0f5858b034beac1b6f3089aa2d3188bb1e8929f4fa9b9298152f35b5080fd5b828434610241576020366003190112610241575061023a60209235611cf3565b9051908152f35b80fd5b919050346103bd5760209081600319360112610481578235928460018060a01b03600154168351926332665ffb60e01b845286818501528284602481855afa938415610477578394610449575b508451636ea9967760e01b815281810188815260ff861660208201528790829081906040010381865afa90811561043f57849161040e575b5085516304fa617360e01b815282810189815260ff871660208201528890829081906040010381875afa9081156104045785916103ce575b501015806103c1575b610312578280f35b813b156103bd57866024849283885195869485936340d57a6760e11b85528401525af180156103b35761039b575b5092847f7214c5e85040cb3e35452fa6ff842070826b1d0bd195171e1c75e6d07bc1b96c945260038152856003848220426001820155015560ff61038383611ce1565b818551941684521690820152a2388080808481808280f35b6103a4906118bd565b6103af578438610340565b8480fd5b84513d84823e3d90fd5b8280fd5b50600360ff85161061030a565b809550888092503d83116103fd575b6103e7818361191f565b810103126103f85788935138610301565b600080fd5b503d6103dd565b87513d87823e3d90fd5b809450878092503d8311610438575b610427818361191f565b810103126103f857879251386102c9565b503d61041d565b86513d86823e3d90fd5b6104669194503d8085833e61045e818361191f565b810190611c56565b505096505050505050509238610291565b85513d85823e3d90fd5b8380fd5b919050346103bd57806003193601126103bd576104c091356104bb60016104aa61178d565b938387528660205286200154611da9565b611e4d565b5080f35b9050346103bd5760203660031901126103bd578035916104e2611d2f565b82845260056020526104f960ff8286205416611bbe565b828452600360205280842061051460ff600683015416611882565b6002548251630af4da4160e01b8152906080908290869082906001600160a01b03165afa9081156106295786916105fa575b505192847fb3316e92a7702b6d2af84bce789e7e416e7c7d89dd355eb882cbf1bd1e443618848051898152876020820152a2611d4c84101591826105ca575b505061058f578380f35b816020916105be7f25f2b88b09799c057d36c9cc83fc1013f5534e15a4e9ae28471219e7ae85f79f9486612084565b51908152a23880808380f35b6001015462093a808101925082106105e757504210153880610585565b634e487b7160e01b865260119052602485fd5b61061c915060803d608011610622575b610614818361191f565b810190611941565b38610546565b503d61060a565b83513d88823e3d90fd5b5050346102165781600319360112610216576020905160018152f35b9050346103bd57816003193601126103bd578160209361066d61178d565b9235815260098552209060018060a01b0316600052825260ff81600020541690519015158152f35b5050346102165781600319360112610216576020905160328152f35b50503461021657816003193601126102165751908152602090f35b9050346103bd5760803660031901126103bd5761078891817f63bd409a0ca0450137d1b574e1e74a5a18cc8934d8f718c1603619b971ce6737600293359283926107766024359161071b611d2f565b858a526003602052838a209061073760ff600684015416611882565b83600383015560443590820155606435600582015561075586611cf3565b97889101549351938493846040919493926060820195825260208201520152565b0390a26107838282611ec2565b612041565b80f35b9050346103bd57816003193601126103bd57816020936107a961178d565b92358152808552209060018060a01b0316600052825260ff81600020541690519015158152f35b9050346103bd5760203660031901126103bd57803591600080526000602052806000203360005260205260ff8160002054161561086357610e1083101580610856575b1561082057505060075580f35b906020606492519162461bcd60e51b8352820152601060248201526f24b73b30b634b21031b7b7b63237bbb760811b6044820152fd5b5062093a80831115610813565b60449250519063e2517d3f60e01b8252339082015260006024820152fd5b9050346103bd57816003193601126103bd578160209361089f61178d565b9235815260088552209060018060a01b0316600052825260ff81600020541690519015158152f35b919050346103bd57806003193601126103bd578135906108e561178d565b926108ee611d2f565b8285526020906005825261090760ff8488205416611bbe565b838652600982528286206001600160a01b039095166000818152958352948390205460ff166109755750828552600981528185206000858152915220805460ff191660011790557f9c81720c57d474644d653192db4aee34eff3e6b5c6b80e4c283ab58871c9382e8380a380f35b915162461bcd60e51b815291820152601060248201526f105b1c9958591e481c9958dbdc99195960821b6044820152606490fd5b828434610241576020366003190112610241578235925483101561024157506109d3602092611835565b91905490519160031b1c8152f35b83833461021657806003193601126103f8578235906109fe611d2f565b818352600560205260ff8184205416610b3d5780519060e0820182811067ffffffffffffffff821117610b2857815282825260066020830192428452828101602435815260608201878152608083019088825260a084019289845260c085019760018952898b526003602052878b2095518655516001860155516002850155516003840155518883015551600582015501915115159160ff199260ff848354169116179055845468010000000000000000811015610b155790610ac8828760018095019055611835565b81549060031b9086821b91600019901b191617905583855260056020528420918254161790557f3621586063592251acf2253a10fe8119554dbb0bf93d6e875b85a3a66a2166b98280a280f35b634e487b7160e01b855260418652602485fd5b604186634e487b7160e01b6000525260246000fd5b5162461bcd60e51b8152602081850152601060248201526f416c726561647920747261636b696e6760801b6044820152606490fd5b9050346103bd5760203660031901126103bd576020928291358152600a845220549051908152f35b8284346102415750610bab366117a3565b5050610bd2610bb8611ab4565b839291925193849315158452806020850152830190611810565b0390f35b5050346102165781600319360112610216576020906007549051908152f35b9050346103bd5760203660031901126103bd578160e0938235815260036020522080549260018201549260028301546003840154918401549260ff600660058701549601541695815197885260208801528601526060850152608084015260a0830152151560c0820152f35b9050346103bd5760203660031901126103bd5760209282913581526006845220549051908152f35b50503461021657816003193601126102165760025490516001600160a01b039091168152602090f35b5050346102165781600319360112610216576020905162093a808152f35b8383346102165780610ce1366117a3565b90809291810103126103f857600190359182845260036020528320610d0c60ff600683015416611882565b01549262093a808401809411610d4a5750610d2d6107889293421015611a7c565b610d3681611cf3565b90610d45611d4c831015611a3c565b612084565b634e487b7160e01b835260119052602482fd5b50503461021657816003193601126102165760015490516001600160a01b039091168152602090f35b919050346103bd57602090816003193601126104815782359160018060a01b039360019460248382885416865192838092634d8c928d60e11b825233888301525afa8015610f3a578890610f00575b610ddf91506119c0565b84875260088352838720336000528352610e0060ff856000205416156119fe565b8487526003835285848820610e1b60ff600683015416611882565b610e31611d4c610e2a89611cf3565b1015611a3c565b015462093a808101809111610eed5790610e4f889392421015611a7c565b85835260088452848320336000528452846000208760ff1982541617905586541690813b156103bd57856064849283885195869485936346b40cdf60e11b85528401523360248401528b60448401525af180156103b357610ed9575b50507f89e1649e796bc46c9dcd5fd4505f79bfdd9197c8eccbdbaf05a6bfd1cb9ea09b91519384523393a380f35b610ee2906118bd565b6103af578438610eab565b634e487b7160e01b885260118352602488fd5b508381813d8311610f33575b610f16818361191f565b81010312610f2f57610f2a610ddf916119b3565b610dd5565b8780fd5b503d610f0c565b85513d8a823e3d90fd5b8383346102165760a036600319011261021657823560843591610f65611d2f565b818452600360205280842092610f8160ff600686015416611882565b60328102818104603214821517156110595795606461078896970490610fa982602435611990565b9560028101549182881161104f575b7f63bd409a0ca0450137d1b574e1e74a5a18cc8934d8f718c1603619b971ce67377fa924d670d57ce0c4ef66945fcc39ba0d6082deb70a897faa080424140b0b1c7d95938389989694938b60038b96015560443590820155600560643591015561102183611cf3565b86519a8b5260208b019190915260408a0181905298606090a282519182526020820152a26107838282611ec2565b9196508691610fb8565b634e487b7160e01b865260118752602486fd5b83833461021657806003193601126102165761108661178d565b90336001600160a01b038316036110a357506104c0919235611e4d565b5163334bd91960e11b81528390fd5b905082346102415780600319360112610241579190815192838254808652602080960190819484527f8a35acfbc15ff81a39ae7d344fd709f28e8600b4aa8c65c6b64bfe7fe36bd19b90845b81811061114f575050508161111491038261191f565b83519485948186019282875251809352850193925b82811061113857505050500390f35b835185528695509381019392810192600101611129565b8254845292880192600192830192016110fe565b50503461021657816003193601126102165760209051611d4c8152f35b919050346103bd57806003193601126103bd576104c091356111a560016104aa61178d565b611dcf565b838334610216576020366003190112610216578060a093359283815260036020522060018101549260028201549260ff60066111ea600386015494611cf3565b940154169381519586526020860152840152606083015215156080820152f35b9050346103bd5760203660031901126103bd57816020936001923581528085522001549051908152f35b9050346103bd5760209182600319360112610481576001548151634d8c928d60e11b81523381850152833593916001600160a01b03919086908290602490829086165afa801561146757879061142d575b61128f91506119c0565b83865260098552828620338752855260ff8387205416156113eb578386526008855282862033875285526112c960ff8488205416156119fe565b8386526003855260018387206112e560ff600683015416611882565b6112f4611d4c610e2a88611cf3565b015462093a8081018091116113d857906113118792421015611a7c565b848252600886528382203383528652838220600160ff198254161790556001541691823b15610216576064859183865195869485936346b40cdf60e11b8552840152336024840152600260448401525af180156113ce5761139b575b50516002815233927f89e1649e796bc46c9dcd5fd4505f79bfdd9197c8eccbdbaf05a6bfd1cb9ea09b91a380f35b936113c77f89e1649e796bc46c9dcd5fd4505f79bfdd9197c8eccbdbaf05a6bfd1cb9ea09b92956118bd565b939061136d565b82513d87823e3d90fd5b634e487b7160e01b875260118352602487fd5b5083606492519162461bcd60e51b8352820152601c60248201527f446964206e6f7420706172746963697061746520696e20706f6c6c73000000006044820152fd5b508581813d8311611460575b611443818361191f565b8101031261145c5761145761128f916119b3565b611285565b8680fd5b503d611439565b84513d89823e3d90fd5b919050346103bd57602090816003193601126104815782359260808251611497816118e7565b3690376114a384611cf3565b9260018060a01b036002541695835195630af4da4160e01b875260808785818b5afa9687156115f25782976115cb575b5082859697988596519687809263049672b760e41b82525afa9485156115c1578295611592575b508152600382528481209460ff6006870154169586611583575b86611552575b50519586528186015b83821061153d5760e087878760a0830152151560c0820152f35b82806001928a51815201980191019096611523565b6001919650015462093a80810180911161157057421015943861151a565b634e487b7160e01b825260118452602482fd5b9550611d4c8851101595611514565b9094508281813d83116115ba575b6115aa818361191f565b81010312610216575193386114fa565b503d6115a0565b86513d84823e3d90fd5b84959697506115e9849160803d60801161062257610614818361191f565b979695506114d3565b85513d84823e3d90fd5b9050346103bd5760203660031901126103bd578160209360ff923581526005855220541690519015158152f35b919050346103bd57826003193601126103bd57600254815163049672b760e41b81529260209184919082906001600160a01b03165afa9182156116af578392611677575b6020838351908152f35b9091506020813d6020116116a7575b816116936020938361191f565b810103126103bd576020925051903861166d565b3d9150611686565b81513d85823e3d90fd5b9050346103bd5760203660031901126103bd5735906116d6611d2f565b81835260056020526116ed60ff8285205416611882565b81835260036020526006818420019060ff1991828154169055600560205283209081541690557f96fbf803f14da8437e0cbe34df7152f998dbc3b7e2343c52fb4285e90387a9ca8280a280f35b8491346103bd5760203660031901126103bd573563ffffffff60e01b81168091036103bd5760209250637965db0b60e01b811490811561177c575b5015158152f35b6301ffc9a760e01b14905083611775565b602435906001600160a01b03821682036103f857565b9060206003198301126103f85760043567ffffffffffffffff928382116103f857806023830112156103f85781600401359384116103f857602484830101116103f8576024019190565b60005b8381106118005750506000910152565b81810151838201526020016117f0565b90602091611829815180928185528580860191016117ed565b601f01601f1916010190565b60045481101561186c5760046000527f8a35acfbc15ff81a39ae7d344fd709f28e8600b4aa8c65c6b64bfe7fe36bd19b0190600090565b634e487b7160e01b600052603260045260246000fd5b1561188957565b60405162461bcd60e51b815260206004820152600c60248201526b4e6f7420747261636b696e6760a01b6044820152606490fd5b67ffffffffffffffff81116118d157604052565b634e487b7160e01b600052604160045260246000fd5b6080810190811067ffffffffffffffff8211176118d157604052565b6040810190811067ffffffffffffffff8211176118d157604052565b90601f8019910116810190811067ffffffffffffffff8211176118d157604052565b906080828203126103f85780601f830112156103f85760405191611964836118e7565b8290608081019283116103f857905b8282106119805750505090565b8151815260209182019101611973565b9190820180921161199d57565b634e487b7160e01b600052601160045260246000fd5b519081151582036103f857565b156119c757565b60405162461bcd60e51b815260206004820152600f60248201526e139bdd081dda1a5d195b1a5cdd1959608a1b6044820152606490fd5b15611a0557565b60405162461bcd60e51b815260206004820152600f60248201526e105b1c9958591e4818db185a5b5959608a1b6044820152606490fd5b15611a4357565b60405162461bcd60e51b8152602060048201526011602482015270151a1c995cda1bdb19081b9bdd081b595d607a1b6044820152606490fd5b15611a8357565b60405162461bcd60e51b8152602060048201526009602482015268546f6f206561726c7960b81b6044820152606490fd5b6004805460005b818110611aec575050506000906040516020810181811067ffffffffffffffff8211176118d1576040526000815290565b611af581611835565b9054600391821b1c8060005260209182526040806000209160ff60068401541615611b9d5760018093015462093a808101809111611ba9574210611b9d57611b3c81611cf3565b90611d4c821015611b565750505050506001905b01611abb565b8251948501528382015280835291959490935060608601925067ffffffffffffffff831186841017611b885750529190565b604190634e487b7160e01b6000525260246000fd5b50505050600190611b50565b601188634e487b7160e01b6000525260246000fd5b15611bc557565b60405162461bcd60e51b8152602060048201526014602482015273141c9bdc195c9d1e481b9bdd081d1c9858dad95960621b6044820152606490fd5b81601f820112156103f857805167ffffffffffffffff81116118d15760405192611c35601f8301601f19166020018561191f565b818452602082840101116103f857611c5391602080850191016117ed565b90565b610140818303126103f857805192602082015167ffffffffffffffff908181116103f85784611c86918501611c01565b9360408401519182116103f857611c9e918401611c01565b9160608101519160808201519160a08101519160c08201519160e081015160ff811681036103f85791611c53610120611cda61010085016119b3565b93016119b3565b60ff60019116019060ff821161199d57565b600052600360205260406000206002810154908115611d2857600301546127109081810291818304149015171561199d570490565b5050600090565b3360009081527fee57cd81e84075558e8fcc182a1f4393f91fc97f963a136e66b7f949a62f319f60205260409020547f97667070c54ef182b0f5858b034beac1b6f3089aa2d3188bb1e8929f4fa9b9299060ff1615611d8b5750565b6044906040519063e2517d3f60e01b82523360048301526024820152fd5b80600052600060205260406000203360005260205260ff6040600020541615611d8b5750565b9060009180835282602052604083209160018060a01b03169182845260205260ff60408420541615600014611e4857808352826020526040832082845260205260408320600160ff198254161790557f2f8788117e7eff1d82e926ec794901d17c78024a50270940304540a733656f0d339380a4600190565b505090565b9060009180835282602052604083209160018060a01b03169182845260205260ff604084205416600014611e485780835282602052604083208284526020526040832060ff1981541690557ff6391f5c32d9c69d2a47ea670b442974b53935d1edc7fd64eb21e047a839171b339380a4600190565b9081600052602090600682526040611ee1816000205460075490611990565b4210612025576109c4821015611f6a577f505a29c5397a0038bf34d9f7baf0047c3f5eae6323bf8450c1e34dacf7cc2a17928151611f1e81611903565b60148152733ab933b2b73a2fb830b93a34b1b4b830ba34b7b760611b82820152925b8560005260068252428360002055611f618351948486958652850190611810565b918301520390a2565b61177082101580612036575b15611fc8577f505a29c5397a0038bf34d9f7baf0047c3f5eae6323bf8450c1e34dacf7cc2a17928151611fa881611903565b600e81526d36b4b632b9ba37b732afb732b0b960911b8282015292611f40565b611b588210158061202b575b15612025577f505a29c5397a0038bf34d9f7baf0047c3f5eae6323bf8450c1e34dacf7cc2a1792815161200681611903565b600d81526c70686173655f636c6f73696e6760981b8282015292611f40565b50505050565b50611d4c8210611fd4565b50611d4c8210611f76565b9081600052600360205260016040600020015462093a80810180911161199d57421061208057611d4c811015612075575050565b61207e91612084565b565b5050565b600154604080516332665ffb60e01b81526004810184905292936001600160a01b039092169260008082602481885afa9182156121a357819261217d575b5060ff821694600386106120da575b50505050505050565b803b156102165781809160248651809481936340d57a6760e11b83528c60048401525af180156103b357606095937fd786d06dd56df8b68a470fb87593bd3d76a14eeea5cf10760563177bd21496b097959360ff936121539361216e575b50898152600360205260038582204260018201550155611ce1565b8251948552166020840152820152a2388080808080806120d1565b612177906118bd565b38612138565b6121929192503d8084833e61045e818361191f565b5050965050505050505090386120c2565b508251903d90823e3d90fdfea2646970667358221220a6b95bcd038c859bc6db9f44ce0e29e658ad830b09dbcdc8d4c16a70a94c7ca064736f6c634300081800332f8788117e7eff1d82e926ec794901d17c78024a50270940304540a733656f0d",
  "linkReferences": {},
  "deployedLinkReferences": {}
}