{
  "_format": "hh-sol-artifact-1",
  "contractName": "PhaseManager",
  "sourceName": "contracts/PhaseManager.sol",
  "abi": [
    {
      "inputs": [
        {
          "internalType": "address",
          "name": "_propertyToken",
          "type": "address"
        },
        {
          "internalType": "address",
          "name": "_governance",
          "type": "address"
        }
      ],
      "stateMutability": "nonpayable",
      "type": "constructor"
    },
    {
      "inputs": [],
      "name": "AccessControlBadConfirmation",
      "type": "error"
    },
    {
      "inputs": [
        {
          "internalType": "address",
          "name": "account",
          "type": "address"
        },
        {
          "internalType": "bytes32",
          "name": "neededRole",
          "type": "bytes32"
        }
      ],
      "name": "AccessControlUnauthorizedAccount",
      "type": "error"
    },
    {
      "anonymous": false,
      "inputs": [
        {
          "indexed": true,
          "internalType": "uint256",
          "name": "propertyId",
          "type": "uint256"
        },
        {
          "indexed": true,
          "internalType": "address",
          "name": "claimer",
          "type": "address"
        },
        {
          "indexed": false,
          "internalType": "uint256",
          "name": "bonus",
          "type": "uint256"
        }
      ],
      "name": "BonusClaimed",
      "type": "event"
    },
    {
      "anonymous": false,
      "inputs": [
        {
          "indexed": true,
          "internalType": "uint256",
          "name": "propertyId",
          "type": "uint256"
        },
        {
          "indexed": false,
          "internalType": "uint256",
          "name": "activeVoters",
          "type": "uint256"
        },
        {
          "indexed": false,
          "internalType": "uint256",
          "name": "totalEligible",
          "type": "uint256"
        },
        {
          "indexed": false,
          "internalType": "uint256",
          "name": "engagementPercent",
          "type": "uint256"
        }
      ],
      "name": "EngagementUpdated",
      "type": "event"
    },
    {
      "anonymous": false,
      "inputs": [
        {
          "indexed": true,
          "internalType": "uint256",
          "name": "propertyId",
          "type": "uint256"
        },
        {
          "indexed": false,
          "internalType": "string",
          "name": "nudgeType",
          "type": "string"
        },
        {
          "indexed": false,
          "internalType": "uint256",
          "name": "engagementPercent",
          "type": "uint256"
        }
      ],
      "name": "NudgeTriggered",
      "type": "event"
    },
    {
      "anonymous": false,
      "inputs": [
        {
          "indexed": true,
          "internalType": "uint256",
          "name": "propertyId",
          "type": "uint256"
        },
        {
          "indexed": false,
          "internalType": "uint8",
          "name": "fromPhase",
          "type": "uint8"
        },
        {
          "indexed": false,
          "internalType": "uint8",
          "name": "toPhase",
          "type": "uint8"
        },
        {
          "indexed": false,
          "internalType": "uint256",
          "name": "engagementPercent",
          "type": "uint256"
        }
      ],
      "name": "PhaseAdvancedByEngagement",
      "type": "event"
    },
    {
      "anonymous": false,
      "inputs": [
        {
          "indexed": true,
          "internalType": "uint256",
          "name": "propertyId",
          "type": "uint256"
        },
        {
          "indexed": false,
          "internalType": "uint8",
          "name": "fromPhase",
          "type": "uint8"
        },
        {
          "indexed": false,
          "internalType": "uint8",
          "name": "toPhase",
          "type": "uint8"
        }
      ],
      "name": "PhaseAdvancedBySubscription",
      "type": "event"
    },
    {
      "anonymous": false,
      "inputs": [
        {
          "indexed": true,
          "internalType": "uint256",
          "name": "propertyId",
          "type": "uint256"
        }
      ],
      "name": "PropertyTrackingStarted",
      "type": "event"
    },
    {
      "anonymous": false,
      "inputs": [
        {
          "indexed": true,
          "internalType": "uint256",
          "name": "propertyId",
          "type": "uint256"
        }
      ],
      "name": "PropertyTrackingStopped",
      "type": "event"
    },
    {
      "anonymous": false,
      "inputs": [
        {
          "indexed": true,
          "internalType": "bytes32",
          "name": "role",
          "type": "bytes32"
        },
        {
          "indexed": true,
          "internalType": "bytes32",
          "name": "previousAdminRole",
          "type": "bytes32"
        },
        {
          "indexed": true,
          "internalType": "bytes32",
          "name": "newAdminRole",
          "type": "bytes32"
        }
      ],
      "name": "RoleAdminChanged",
      "type": "event"
    },
    {
      "anonymous": false,
      "inputs": [
        {
          "indexed": true,
          "internalType": "bytes32",
          "name": "role",
          "type": "bytes32"
        },
        {
          "indexed": true,
          "internalType": "address",
          "name": "account",
          "type": "address"
        },
        {
          "indexed": true,
          "internalType": "address",
          "name": "sender",
          "type": "address"
        }
      ],
      "name": "RoleGranted",
      "type": "event"
    },
    {
      "anonymous": false,
      "inputs": [
        {
          "indexed": true,
          "internalType": "bytes32",
          "name": "role",
          "type": "bytes32"
        },
        {
          "indexed": true,
          "internalType": "address",
          "name": "account",
          "type": "address"
        },
        {
          "indexed": true,
          "internalType": "address",
          "name": "sender",
          "type": "address"
        }
      ],
      "name": "RoleRevoked",
      "type": "event"
    },
    {
      "inputs": [],
      "name": "BONUS_TOKENS",
      "outputs": [
        {
          "internalType": "uint256",
          "name": "",
          "type": "uint256"
        }
      ],
      "stateMutability": "view",
      "type": "function"
    },
    {
      "inputs": [],
      "name": "DEFAULT_ADMIN_ROLE",
      "outputs": [
        {
          "internalType": "bytes32",
          "name": "",
          "type": "bytes32"
        }
      ],
      "stateMutability": "view",
      "type": "function"
    },
    {
      "inputs": [],
      "name": "ENGAGEMENT_THRESHOLD",
      "outputs": [
        {
          "internalType": "uint256",
          "name": "",
          "type": "uint256"
        }
      ],
      "stateMutability": "view",
      "type": "function"
    },
    {
      "inputs": [],
      "name": "MIN_ENGAGEMENT_PERIOD",
      "outputs": [
        {
          "internalType": "uint256",
          "name": "",
          "type": "uint256"
        }
      ],
      "stateMutability": "view",
      "type": "function"
    },
    {
      "inputs": [],
      "name": "OPERATOR_ROLE",
      "outputs": [
        {
          "internalType": "bytes32",
          "name": "",
          "type": "bytes32"
        }
      ],
      "stateMutability": "view",
      "type": "function"
    },
    {
      "inputs": [
        {
          "internalType": "uint256",
          "name": "propertyId",
          "type": "uint256"
        }
      ],
      "name": "calculateEngagement",
      "outputs": [
        {
          "internalType": "uint256",
          "name": "",
          "type": "uint256"
        }
      ],
      "stateMutability": "view",
      "type": "function"
    },
    {
      "inputs": [
        {
          "internalType": "uint256",
          "name": "propertyId",
          "type": "uint256"
        }
      ],
      "name": "checkSubscriptionAdvancement",
      "outputs": [],
      "stateMutability": "nonpayable",
      "type": "function"
    },
    {
      "inputs": [
        {
          "internalType": "bytes",
          "name": "",
          "type": "bytes"
        }
      ],
      "name": "checkUpkeep",
      "outputs": [
        {
          "internalType": "bool",
          "name": "upkeepNeeded",
          "type": "bool"
        },
        {
          "internalType": "bytes",
          "name": "performData",
          "type": "bytes"
        }
      ],
      "stateMutability": "view",
      "type": "function"
    },
    {
      "inputs": [
        {
          "internalType": "uint256",
          "name": "propertyId",
          "type": "uint256"
        }
      ],
      "name": "claimEngagementBonus",
      "outputs": [],
      "stateMutability": "nonpayable",
      "type": "function"
    },
    {
      "inputs": [
        {
          "internalType": "uint256",
          "name": "propertyId",
          "type": "uint256"
        }
      ],
      "name": "getEngagement",
      "outputs": [
        {
          "internalType": "uint256",
          "name": "phaseStartTime",
          "type": "uint256"
        },
        {
          "internalType": "uint256",
          "name": "totalEligible",
          "type": "uint256"
        },
        {
          "internalType": "uint256",
          "name": "activeVoters",
          "type": "uint256"
        },
        {
          "internalType": "uint256",
          "name": "engagementPercent",
          "type": "uint256"
        },
        {
          "internalType": "bool",
          "name": "isTracking",
          "type": "bool"
        }
      ],
      "stateMutability": "view",
      "type": "function"
    },
    {
      "inputs": [
        {
          "internalType": "bytes32",
          "name": "role",
          "type": "bytes32"
        }
      ],
      "name": "getRoleAdmin",
      "outputs": [
        {
          "internalType": "bytes32",
          "name": "",
          "type": "bytes32"
        }
      ],
      "stateMutability": "view",
      "type": "function"
    },
    {
      "inputs": [],
      "name": "getTrackedProperties",
      "outputs": [
        {
          "internalType": "uint256[]",
          "name": "",
          "type": "uint256[]"
        }
      ],
      "stateMutability": "view",
      "type": "function"
    },
    {
      "inputs": [],
      "name": "governance",
      "outputs": [
        {
          "internalType": "contract IGovernance",
          "name": "",
          "type": "address"
        }
      ],
      "stateMutability": "view",
      "type": "function"
    },
    {
      "inputs": [
        {
          "internalType": "bytes32",
          "name": "role",
          "type": "bytes32"
        },
        {
          "internalType": "address",
          "name": "account",
          "type": "address"
        }
      ],
      "name": "grantRole",
      "outputs": [],
      "stateMutability": "nonpayable",
      "type": "function"
    },
    {
      "inputs": [
        {
          "internalType": "uint256",
          "name": "",
          "type": "uint256"
        },
        {
          "internalType": "address",
          "name": "",
          "type": "address"
        }
      ],
      "name": "hasClaimed",
      "outputs": [
        {
          "internalType": "bool",
          "name": "",
          "type": "bool"
        }
      ],
      "stateMutability": "view",
      "type": "function"
    },
    {
      "inputs": [
        {
          "internalType": "bytes32",
          "name": "role",
          "type": "bytes32"
        },
        {
          "internalType": "address",
          "name": "account",
          "type": "address"
        }
      ],
      "name": "hasRole",
      "outputs": [
        {
          "internalType": "bool",
          "name": "",
          "type": "bool"
        }
      ],
      "stateMutability": "view",
      "type": "function"
    },
    {
      "inputs": [
        {
          "internalType": "uint256",
          "name": "",
          "type": "uint256"
        }
      ],
      "name": "isTracked",
      "outputs": [
        {
          "internalType": "bool",
          "name": "",
          "type": "bool"
        }
      ],
      "stateMutability": "view",
      "type": "function"
    },
    {
      "inputs": [
        {
          "internalType": "uint256",
          "name": "",
          "type": "uint256"
        }
      ],
      "name": "lastNudgeTime",
      "outputs": [
        {
          "internalType": "uint256",
          "name": "",
          "type": "uint256"
        }
      ],
      "stateMutability": "view",
      "type": "function"
    },
    {
      "inputs": [],
      "name": "nudgeCooldown",
      "outputs": [
        {
          "internalType": "uint256",
          "name": "",
          "type": "uint256"
        }
      ],
      "stateMutability": "view",
      "type": "function"
    },
    {
      "inputs": [
        {
          "internalType": "bytes",
          "name": "performData",
          "type": "bytes"
        }
      ],
      "name": "performUpkeep",
      "outputs": [],
      "stateMutability": "nonpayable",
      "type": "function"
    },
    {
      "inputs": [
        {
          "internalType": "uint256",
          "name": "",
          "type": "uint256"
        }
      ],
      "name": "propertyEngagement",
      "outputs": [
        {
          "internalType": "uint256",
          "name": "propertyId",
          "type": "uint256"
        },
        {
          "internalType": "uint256",
          "name": "phaseStartTime",
          "type": "uint256"
        },
        {
          "internalType": "uint256",
          "name": "totalEligibleVoters",
          "type": "uint256"
        },
        {
          "internalType": "uint256",
          "name": "activeVoters",
          "type": "uint256"
        },
        {
          "internalType": "uint256",
          "name": "totalProposals",
          "type": "uint256"
        },
        {
          "internalType": "uint256",
          "name": "votedProposals",
          "type": "uint256"
        },
        {
          "internalType": "bool",
          "name": "isTracking",
          "type": "bool"
        }
      ],
      "stateMutability": "view",
      "type": "function"
    },
    {
      "inputs": [],
      "name": "propertyToken",
      "outputs": [
        {
          "internalType": "contract IPropertyToken",
          "name": "",
          "type": "address"
        }
      ],
      "stateMutability": "view",
      "type": "function"
    },
    {
      "inputs": [
        {
          "internalType": "bytes32",
          "name": "role",
          "type": "bytes32"
        },
        {
          "internalType": "address",
          "name": "callerConfirmation",
          "type": "address"
        }
      ],
      "name": "renounceRole",
      "outputs": [],
      "stateMutability": "nonpayable",
      "type": "function"
    },
    {
      "inputs": [
        {
          "internalType": "bytes32",
          "name": "role",
          "type": "bytes32"
        },
        {
          "internalType": "address",
          "name": "account",
          "type": "address"
        }
      ],
      "name": "revokeRole",
      "outputs": [],
      "stateMutability": "nonpayable",
      "type": "function"
    },
    {
      "inputs": [
        {
          "internalType": "uint256",
          "name": "newCooldown",
          "type": "uint256"
        }
      ],
      "name": "setNudgeCooldown",
      "outputs": [],
      "stateMutability": "nonpayable",
      "type": "function"
    },
    {
      "inputs": [
        {
          "internalType": "uint256",
          "name": "propertyId",
          "type": "uint256"
        },
        {
          "internalType": "uint256",
          "name": "totalEligibleVoters",
          "type": "uint256"
        }
      ],
      "name": "startTracking",
      "outputs": [],
      "stateMutability": "nonpayable",
      "type": "function"
    },
    {
      "inputs": [
        {
          "internalType": "uint256",
          "name": "propertyId",
          "type": "uint256"
        }
      ],
      "name": "stopTracking",
      "outputs": [],
      "stateMutability": "nonpayable",
      "type": "function"
    },
    {
      "inputs": [
        {
          "internalType": "bytes4",
          "name": "interfaceId",
          "type": "bytes4"
        }
      ],
      "name": "supportsInterface",
      "outputs": [
        {
          "internalType": "bool",
          "name": "",
          "type": "bool"
        }
      ],
      "stateMutability": "view",
      "type": "function"
    },
    {
      "inputs": [
        {
          "internalType": "uint256",
          "name": "",
          "type": "uint256"
        }
      ],
      "name": "trackedProperties",
      "outputs": [
        {
          "internalType": "uint256",
          "name": "",
          "type": "uint256"
        }
      ],
      "stateMutability": "view",
      "type": "function"
    },
    {
      "inputs": [
        {
          "internalType": "uint256",
          "name": "propertyId",
          "type": "uint256"
        },
        {
          "internalType": "uint256",
          "name": "activeVoters",
          "type": "uint256"
        },
        {
          "internalType": "uint256",
          "name": "totalProposals",
          "type": "uint256"
        },
        {
          "internalType": "uint256",
          "name": "votedProposals",
          "type": "uint256"
        }
      ],
      "name": "updateEngagement",
      "outputs": [],
      "stateMutability": "nonpayable",
      "type": "function"
    }
  ],
  "bytecode": "0x608034620000b557601f62001a9138819003918201601f19168301916001600160401b03831184841017620000ba578084926040948552833981010312620000b5576200005a60206200005283620000d0565b9201620000d0565b62015180600755600180546001600160a01b039384166001600160a01b031991821617909155600280549290931691161790556200009833620000e5565b50620000a43362000165565b506040516118699081620002088239f35b600080fd5b634e487b7160e01b600052604160045260246000fd5b51906001600160a01b0382168203620000b557565b6001600160a01b031660008181527fad3228b676f7d3cd4284a5443f17f1962b36e491b30a40b2405849e597ba5fb5602052604081205490919060ff166200016157818052816020526040822081835260205260408220600160ff19825416179055339160008051602062001a718339815191528180a4600190565b5090565b6001600160a01b031660008181527fee57cd81e84075558e8fcc182a1f4393f91fc97f963a136e66b7f949a62f319f60205260408120549091907f97667070c54ef182b0f5858b034beac1b6f3089aa2d3188bb1e8929f4fa9b9299060ff166200020257808352826020526040832082845260205260408320600160ff1982541617905560008051602062001a71833981519152339380a4600190565b50509056fe608060408181526004918236101561001657600080fd5b600092833560e01c91826301ffc9a714610ee25750816306785d8a14610e615781631194f9e914610e34578163248a9ca314610e0a5781632e94dfda14610daa5781632f2ff15d14610d8057816330ae780514610d63578163313b79da14610cb257816336568abe14610c6c57816340ab317114610a2b57816343ae269514610a025781634585e33b146109755781635513de41146109575781635aa6e6751461092e5781635da6559e1461090657816363e86eb81461089a5781636675584f1461087b5781636e04ff0d1461083f578163785b2190146106ae5781638085b81314610676578163873f6f9e146106305781638e5359e01461057f57816391d148541461053a57816394c9825d1461048d578163a217fddf14610472578163b415d27914610456578163d547741f14610417578163d5612486146101d6578163f333d6c2146101ac575063f5b541a61461016f57600080fd5b346101a857816003193601126101a857602090517f97667070c54ef182b0f5858b034beac1b6f3089aa2d3188bb1e8929f4fa9b9298152f35b5080fd5b8284346101d35760203660031901126101d357506101cc60209235611364565b9051908152f35b80fd5b9190503461034f5760209081600319360112610413578235928460018060a01b03600154168351926332665ffb60e01b845286818501528284602481855afa9384156104095783946103db575b508451636ea9967760e01b815281810188815260ff861660208201528790829081906040010381865afa9081156103d15784916103a0575b5085516304fa617360e01b815282810189815260ff871660208201528890829081906040010381875afa908115610396578591610360575b50101580610353575b6102a4578280f35b813b1561034f57866024849283885195869485936340d57a6760e11b85528401525af180156103455761032d575b5092847f7214c5e85040cb3e35452fa6ff842070826b1d0bd195171e1c75e6d07bc1b96c945260038152856003848220426001820155015560ff6103158361133c565b818551941684521690820152a2388080808481808280f35b61033690611065565b6103415784386102d2565b8480fd5b84513d84823e3d90fd5b8280fd5b50600360ff85161061029c565b809550888092503d831161038f575b61037981836110ab565b8101031261038a5788935138610293565b600080fd5b503d61036f565b87513d87823e3d90fd5b809450878092503d83116103ca575b6103b981836110ab565b8101031261038a578792513861025b565b503d6103af565b86513d86823e3d90fd5b6103f89194503d8085833e6103f081836110ab565b8101906112b1565b505096505050505050509238610223565b85513d85823e3d90fd5b8380fd5b9190503461034f578060031936011261034f57610452913561044d600161043c610f35565b93838752866020528620015461141a565b6114be565b5080f35b5050346101a857816003193601126101a8576020905160018152f35b5050346101a857816003193601126101a85751908152602090f35b90503461034f57608036600319011261034f5761053791817f63bd409a0ca0450137d1b574e1e74a5a18cc8934d8f718c1603619b971ce6737606060029435938493602435916104db6113a0565b858a526003602052808a20916104f760ff60068501541661102a565b83600384015560443590830155606435600583015561051586611364565b978892015481519384526020840152820152a2610532828261165e565b6117f0565b80f35b90503461034f578160031936011261034f5781602093610558610f35565b92358152808552209060018060a01b0316600052825260ff81600020541690519015158152f35b90503461034f57602036600319011261034f57803591600080526000602052806000203360005260205260ff8160002054161561061257610e1083101580610605575b156105cf57505060075580f35b906020606492519162461bcd60e51b8352820152601060248201526f24b73b30b634b21031b7b7b63237bbb760811b6044820152fd5b5062093a808311156105c2565b60449250519063e2517d3f60e01b8252339082015260006024820152fd5b90503461034f578160031936011261034f578160209361064e610f35565b9235815260088552209060018060a01b0316600052825260ff81600020541690519015158152f35b8284346101d35760203660031901126101d357823592548310156101d357506106a0602092610fdd565b91905490519160031b1c8152f35b8383346101a8578060031936011261038a578235906106cb6113a0565b818352600560205260ff818420541661080a5780519060e0820182811067ffffffffffffffff8211176107f557815282825260066020830192428452828101602435815260608201878152608083019088825260a084019289845260c085019760018952898b526003602052878b2095518655516001860155516002850155516003840155518883015551600582015501915115159160ff199260ff8483541691161790558454680100000000000000008110156107e25790610795828760018095019055610fdd565b81549060031b9086821b91600019901b191617905583855260056020528420918254161790557f3621586063592251acf2253a10fe8119554dbb0bf93d6e875b85a3a66a2166b98280a280f35b634e487b7160e01b855260418652602485fd5b604186634e487b7160e01b6000525260246000fd5b5162461bcd60e51b8152602081850152601060248201526f416c726561647920747261636b696e6760801b6044820152606490fd5b8284346101d3575061085036610f4b565b505061087761085d611152565b839291925193849315158452806020850152830190610fb8565b0390f35b5050346101a857816003193601126101a8576020906007549051908152f35b90503461034f57602036600319011261034f578160e0938235815260036020522080549260018201549260028301546003840154918401549260ff600660058701549601541695815197885260208801528601526060850152608084015260a0830152151560c0820152f35b90503461034f57602036600319011261034f5760209282913581526006845220549051908152f35b5050346101a857816003193601126101a85760025490516001600160a01b039091168152602090f35b5050346101a857816003193601126101a8576020905162093a808152f35b8383346101a8578061098636610f4b565b908092918101031261038a576001903591828452600360205283206109b160ff60068301541661102a565b01549262093a8084018094116109ef57506109d2610537929342101561111a565b6109db81611364565b906109ea611d4c8310156110da565b611533565b634e487b7160e01b835260119052602482fd5b5050346101a857816003193601126101a85760015490516001600160a01b039091168152602090f35b9190503461034f576020806003193601126104135782359160018060a01b039360019460248482885416855192838092634d8c928d60e11b825233888301525afa908115610c62578891610c29575b5015610bf55784875260088452828720338852845260ff8388205416610bc1578487526003845285838820610ab560ff60068301541661102a565b610acb611d4c610ac489611364565b10156110da565b015462093a808101809111610bae5790610ae8889242101561111a565b858252600885528382203383528552838220805460ff19168817905586541691823b156101a8576064869183865195869485936346b40cdf60e11b85528401523360248401528a60448401525af18015610ba457610b6f575b50907f89e1649e796bc46c9dcd5fd4505f79bfdd9197c8eccbdbaf05a6bfd1cb9ea09b91519384523393a380f35b94610b9c7f89e1649e796bc46c9dcd5fd4505f79bfdd9197c8eccbdbaf05a6bfd1cb9ea09b939296611065565b949091610b41565b82513d88823e3d90fd5b634e487b7160e01b885260118352602488fd5b5082606492519162461bcd60e51b8352820152600f60248201526e105b1c9958591e4818db185a5b5959608a1b6044820152fd5b5082606492519162461bcd60e51b8352820152600f60248201526e139bdd081dda1a5d195b1a5cdd1959608a1b6044820152fd5b90508481813d8311610c5b575b610c4081836110ab565b81010312610c5757610c51906110cd565b38610a7a565b8780fd5b503d610c36565b84513d8a823e3d90fd5b8383346101a857806003193601126101a857610c86610f35565b90336001600160a01b03831603610ca357506104529192356114be565b5163334bd91960e11b81528390fd5b905082346101d357806003193601126101d3579190815192838254808652602080960190819484527f8a35acfbc15ff81a39ae7d344fd709f28e8600b4aa8c65c6b64bfe7fe36bd19b90845b818110610d4f5750505081610d149103826110ab565b83519485948186019282875251809352850193925b828110610d3857505050500390f35b835185528695509381019392810192600101610d29565b825484529288019260019283019201610cfe565b5050346101a857816003193601126101a85760209051611d4c8152f35b9190503461034f578060031936011261034f576104529135610da5600161043c610f35565b611440565b8383346101a85760203660031901126101a8578060a093359283815260036020522060018101549260028201549260ff6006610dea600386015494611364565b940154169381519586526020860152840152606083015215156080820152f35b90503461034f57602036600319011261034f57816020936001923581528085522001549051908152f35b90503461034f57602036600319011261034f578160209360ff923581526005855220541690519015158152f35b90503461034f57602036600319011261034f573590610e7e6113a0565b8183526005602052610e9560ff828520541661102a565b81835260036020526006818420019060ff1991828154169055600560205283209081541690557f96fbf803f14da8437e0cbe34df7152f998dbc3b7e2343c52fb4285e90387a9ca8280a280f35b84913461034f57602036600319011261034f573563ffffffff60e01b811680910361034f5760209250637965db0b60e01b8114908115610f24575b5015158152f35b6301ffc9a760e01b14905083610f1d565b602435906001600160a01b038216820361038a57565b90602060031983011261038a5760043567ffffffffffffffff9283821161038a578060238301121561038a57816004013593841161038a576024848301011161038a576024019190565b60005b838110610fa85750506000910152565b8181015183820152602001610f98565b90602091610fd181518092818552858086019101610f95565b601f01601f1916010190565b6004548110156110145760046000527f8a35acfbc15ff81a39ae7d344fd709f28e8600b4aa8c65c6b64bfe7fe36bd19b0190600090565b634e487b7160e01b600052603260045260246000fd5b1561103157565b60405162461bcd60e51b815260206004820152600c60248201526b4e6f7420747261636b696e6760a01b6044820152606490fd5b67ffffffffffffffff811161107957604052565b634e487b7160e01b600052604160045260246000fd5b6040810190811067ffffffffffffffff82111761107957604052565b90601f8019910116810190811067ffffffffffffffff82111761107957604052565b5190811515820361038a57565b156110e157565b60405162461bcd60e51b8152602060048201526011602482015270151a1c995cda1bdb19081b9bdd081b595d607a1b6044820152606490fd5b1561112157565b60405162461bcd60e51b8152602060048201526009602482015268546f6f206561726c7960b81b6044820152606490fd5b6004805460005b81811061118a575050506000906040516020810181811067ffffffffffffffff821117611079576040526000815290565b61119381610fdd565b9054600391821b1c8060005260209182526040806000209160ff6006840154161561123b5760018093015462093a80810180911161124757421061123b576111da81611364565b90611d4c8210156111f45750505050506001905b01611159565b8251948501528382015280835291959490935060608601925067ffffffffffffffff8311868410176112265750529190565b604190634e487b7160e01b6000525260246000fd5b505050506001906111ee565b601188634e487b7160e01b6000525260246000fd5b81601f8201121561038a57805167ffffffffffffffff81116110795760405192611290601f8301601f1916602001856110ab565b8184526020828401011161038a576112ae9160208085019101610f95565b90565b6101408183031261038a57805192602082015167ffffffffffffffff9081811161038a57846112e191850161125c565b93604084015191821161038a576112f991840161125c565b9160608101519160808201519160a08101519160c08201519160e081015160ff8116810361038a57916112ae61012061133561010085016110cd565b93016110cd565b60ff60019116019060ff821161134e57565b634e487b7160e01b600052601160045260246000fd5b60005260036020526040600020600281015490811561139957600301546127109081810291818304149015171561134e570490565b5050600090565b3360009081527fee57cd81e84075558e8fcc182a1f4393f91fc97f963a136e66b7f949a62f319f60205260409020547f97667070c54ef182b0f5858b034beac1b6f3089aa2d3188bb1e8929f4fa9b9299060ff16156113fc5750565b6044906040519063e2517d3f60e01b82523360048301526024820152fd5b80600052600060205260406000203360005260205260ff60406000205416156113fc5750565b9060009180835282602052604083209160018060a01b03169182845260205260ff604084205416156000146114b957808352826020526040832082845260205260408320600160ff198254161790557f2f8788117e7eff1d82e926ec794901d17c78024a50270940304540a733656f0d339380a4600190565b505090565b9060009180835282602052604083209160018060a01b03169182845260205260ff6040842054166000146114b95780835282602052604083208284526020526040832060ff1981541690557ff6391f5c32d9c69d2a47ea670b442974b53935d1edc7fd64eb21e047a839171b339380a4600190565b600154604080516332665ffb60e01b81526004810184905292936001600160a01b039092169260008082602481885afa91821561165257819261162c575b5060ff82169460038610611589575b50505050505050565b803b156101a85781809160248651809481936340d57a6760e11b83528c60048401525af1801561034557606095937fd786d06dd56df8b68a470fb87593bd3d76a14eeea5cf10760563177bd21496b097959360ff936116029361161d575b5089815260036020526003858220426001820155015561133c565b8251948552166020840152820152a238808080808080611580565b61162690611065565b386115e7565b6116419192503d8084833e6103f081836110ab565b505096505050505050509038611571565b508251903d90823e3d90fd5b9060008281526020600681526040908183205460075481018091116117dc5742106117bf576109c4841015611704577f505a29c5397a0038bf34d9f7baf0047c3f5eae6323bf8450c1e34dacf7cc2a179382516116ba8161108f565b60148152733ab933b2b73a2fb830b93a34b1b4b830ba34b7b760611b83820152935b8681526006835283429120556116fb8351948486958652850190610fb8565b918301520390a2565b611770841015806117d1575b15611762577f505a29c5397a0038bf34d9f7baf0047c3f5eae6323bf8450c1e34dacf7cc2a179382516117428161108f565b600e81526d36b4b632b9ba37b732afb732b0b960911b83820152936116dc565b611b58841015806117c6575b156117bf577f505a29c5397a0038bf34d9f7baf0047c3f5eae6323bf8450c1e34dacf7cc2a179382516117a08161108f565b600d81526c70686173655f636c6f73696e6760981b83820152936116dc565b5050505050565b50611d4c841061176e565b50611d4c8410611710565b634e487b7160e01b84526011600452602484fd5b9081600052600360205260016040600020015462093a80810180911161134e57421061182f57611d4c811015611824575050565b61182d91611533565b565b505056fea2646970667358221220b269d61e42c6a295ceca99e0222b17b616499a63e8eb1a1e3a23fd193f03bc9964736f6c634300081800332f8788117e7eff1d82e926ec794901d17c78024a50270940304540a733656f0d",
  "linkReferences": {},
  "deployedLinkReferences": {}
}